:020000040000FA
:100000000080002071020000014000207B020000FF
:1000100000000000000000000000000000000000E0
:100020000000000000000000000000007B02000053
:1000300000000000000000007D0200007F020000C0
:1000400081020000810200008102000081020000A4
:1000500081020000CB10000081020000810200003C
:100060008102000081020000810200008102000084
:100070007111000081020000810200008102000075
:100080008102000081020000810200008102000064
:100090000348854601F04EF9004800473102000050
:1000A0000080002010B50C4608040AD547480078A7
:1000B0000FF070FE002801D00FF044FE0120C003B5
:1000C00005E0E00704D0424802F0E6FE012060406F
:1000D00010BD38B53F4808F0EFF83C4C6946207039
:1000E000082008706A4601213B4802F02DFF4B2191
:1000F0008901022003F07EFB012120780FF0D4FE5D
:1001000038BDF8B505468078002808D001280DD004
:100110000D2803D12979681D00F030F8F8BD0022C0
:100120000121032002F0D0FE2CA024E02FA008F033
:100130004DFAE878002818D0002613E0314630A0A8
:1001400008F044FA0024F7006868C119A01C095C93
:100150002FA008F03BFA641C062CF5DB2DA008F05C
:1001600035FA761CE878B042E8DC00220121032051
:1001700002F0AAFE28A008F029FAF8BDF3B5134D45
:1001800081B068780F4608281ED20024274E0AE066
:10019000E00081190622891C01980FF0B1FC0028AB
:1001A00012D1641CE4B268788442F1D30006400D99
:1001B00080190622801C01990FF0B0FC6878C100FC
:1001C00089194F70401C6870FEBD0000204200205D
:1001D000BC020100A50000000E0300004469736327
:1001E0006F766572696E672E2E2E0A0044697363FE
:1001F0006F76657279206F7665722E2E2E0A00005A
:10020000446576696365202564203A20000000007B
:10021000257820000A000000446973636F766572D8
:10022000696E672E2E2E0A2000000000F044002088
:100230000C498A6A481502438A62032100F090FB48
:1002400000F095FD084909A008F0C0F900F0ADFEE6
:1002500000F02BFF02F0BCFDFFF73BFF08F04AF86F
:10026000FCE7000080100040C002010025730A0076
:100270000448804704480047FEE7FEE7FEE7FEE744
:10028000FEE700008D0200009100000010B5FF485D
:1002900057210170A8210170FC4A8821403A118140
:1002A0000189042211430181002101700A2000F01C
:1002B00021FD012000F06BFC10BDF0B5F34EF34DB5
:1002C00004275722A824203E403DF049030008F0AF
:1002D000A5F90D080E161B1F24282C32373C414669
:1002E0002F000A700C70F07BFB22104003E00A70B4
:1002F0000C70F07B3843F073C820288118E00A7036
:100300000C705120C000F8E70A700C70E048F4E768
:100310000A700C7081208000EFE70A700C70882052
:10032000EBE70A700C700220E7E70A700C702F816F
:1003300000200870F0BD0A700C7093208000DCE78C
:100340000A700C70D2484D30D7E70A700C709520B7
:100350008000D2E70A700C704B20C000CDE70A7015
:100360000C70CB485C30C8E7C84810B540380089ED
:10037000C1B20B069A0FC748022A05D0012A04D041
:100380009A0F06D07D20000210BDC906C90EC248D2
:1003900001E0C906C90E00F013FF10BDBB4A57218A
:1003A0001170A8211170B94940394B1500280889EE
:1003B00004D0184308810020107070479843F9E773
:1003C000B24A57211170A8211170B0492039002874
:1003D000C87B05D004231843C873002010707047F1
:1003E000FB231840F8E7A9498A7B8007920892000E
:1003F000800F024357200870A82008708A730020DD
:1004000008707047A1498A7B8F231A40000102437C
:1004100057200870A82008708A7300200870704761
:100420009A4A203A917B800789088900800F01430E
:10043000964857230370A82303709173002101701D
:100440007047924A203A917B0907090F0001014346
:100450008E4857230370A823037091730021017005
:100460007047FEB58948002740380089C0B20106B0
:100470008A0F022A4CD00124A403012A4CD0890FF0
:1004800056D00524002000902005000D01907F48E3
:100490002038848900267D49572230460A70A822D8
:1004A0000A7001238B74794957220A70A8220A70B6
:1004B000764A203A948100220A708A7C9207FCD501
:1004C0000A8A8A7C9207FCD48A7C9207FCD5098A26
:1004D000019A7F1C891A0DB2FFB2002D37D0294630
:1004E000714305D5012834D0411C32D0002830D0CA
:1004F0002E4602943046009900F078FE00B2211A90
:100500008CB202998C4249D1002D45DD641C44E037
:100510000220624CC043B6E7C506ED0E294660488E
:1005200000F04EFE0019C40B2320C043401B09E01D
:10053000C506ED0E29465B4800F042FE0019C40BCB
:10054000A81C4042294600F051FE00B29BE7002063
:10055000FEBD002E03DA761EF04306B202E06D1EE9
:10056000E84305B2B5420FDD484857210170A82184
:100570000170464A0299203A9181002101707D2044
:10058000C0007043019903E07D20C000684311461C
:1005900000F02CFE80B2FEBD641EA4B2142F82D3E4
:1005A000FF20FEBDFFB581B00C460746054600267C
:1005B0001AE0FF219131681E00F018FE00290AD0D0
:1005C0006421681E00F012FE002907D00320A9074D
:1005D0008007C14202D1FF206F3001E0FF206E3062
:1005E00080196D1E86B2ADB22F488542E1D8002534
:1005F000012C25D9032C05D0A01E062816DDE00706
:1006000018D115E0FF219131384600F0D9FD0029BD
:100610000AD06421384600F0D3FD002901D0B80784
:1006200002D000201C3006E00120FBE7E00701D0EB
:100630001E2000E01F208019641E86B2A4B2D7E7F6
:10064000039818213018401E84B2049800F0B8FDB9
:10065000E120C00041430A981E22504309180B981C
:100660004008081881B20B98C00701D00120C003D0
:100670000A04024305482038C17B6B46C909C901F9
:100680001970C17B1B78C909C9010FE040100040F7
:10069000020200000048E80100389C1C131300000F
:1006A00000180D8F00688909E40700009942E3D122
:1006B000694609780029DFD0A64957230B70A82383
:1006C0000B70A44B403B5C63447C802634434474F1
:1006D0005A63427C40231A4342740D7005B0F0BD4A
:1006E000FFB507469B4883B04038C06B0E46840474
:1006F0009848A40C2038418B008B01224900D2037A
:10070000904201D3012000E0002008180090924898
:10071000388010E00199002925D06421284600F096
:100720004FFD002901D0A8071DD0FF206E30201AF0
:100730006D1C84B23D803D88FF219131284600F038
:100740003FFD0191002911D06421284600F038FDB9
:10075000002901D0A80709D0FF206E30A042D9D9C6
:100760000020308049E0FF206F30E0E7FF206F304D
:10077000F4E73588012D04D0062D18D9E8071AD1E1
:1007800017E03888FF219131019000F019FD002910
:100790000BD06421019800F013FD002902D00198CC
:1007A000800702D000201C3006E00120FBE7E807AC
:1007B00001D01E2000E01F20201A84B26D1CA8B2B8
:1007C0003080012804D0062817D9C0071AD117E0B5
:1007D0003888FF210546913100F0F2FC00290AD04B
:1007E0006421284600F0ECFC002901D0A80702D0C3
:1007F00000201C3007E00120FBE73078C00701D063
:100800001E2000E01F20A042B3D93088641C401C89
:1008100030800598E12104800901009800F0D0FCA7
:10082000069A108008463C2100F0CAFC0C9908800A
:100830003C21009800F0C4FC0D98018007B0F0BD89
:10084000444908B52039CA7B6B46D209D2011A70D7
:10085000CA7B1B78D209D2019A42F4D16A46127837
:10086000002AF0D03B4A57231370A8231370394B4A
:10087000403B5863487C4023184348740020107064
:1008800008BD34494039886B8A6B8242FBD170477E
:1008900010B5304A57211170A82111702D49203907
:1008A0004B7CE82423404B744B7C102420430343AF
:1008B0004B740020107010BD00B50346FFF7E1FF38
:1008C0002649C018884201D9494240180104090C40
:1008D00002D00121090440181E4957220A70A8229B
:1008E0000A701C4A403A50631A482038427C202340
:1008F0001A4342740020087000BD0021002802D075
:10090000012802D002E0202100E0102111485722E6
:100910000270A82202700F4A203A537C8B43537412
:100920000021017070470B4920390028087C02D053
:10093000402108407047C009C0017047054920396F
:10094000002804D0012801D110200874704720200D
:10095000FBE7000040100040E40700000000C0A8D2
:1009600000B5524A0B0007F059FE0504071016198E
:100970001F00516B81430AE0516B81435163116B3E
:1009800001431163116A81430DE0516B01435163CF
:10099000116B8143F5E7516B814301E0516B0143DA
:1009A0005163116A0143116200BD404A00B54032F3
:1009B0000B0007F033FE0504071016191F005169DC
:1009C00081430AE051698143516111690143116119
:1009D000116881430DE051690143516111698143FF
:1009E000F5E75169814301E05169014351611168A3
:1009F0000143116000BD2D4A002906D0012907D00E
:100A0000022908D0032913D10CE0918A814304E024
:100A1000918A814308E0918A01439182D16A01431E
:100A2000D16205E0918A01439182916A014391620A
:100A30009083118A0143118270471C4B1B4A40333B
:100A4000002906D0012907D0022908D0032913D193
:100A50000CE0D18A814304E0D18A814308E0D18A45
:100A60000143D182D9680143D96005E0D18A0143AD
:100A7000D182996801439960D083518A01435182A0
:100A800070470A4A803A0028108B01D0084300E0E2
:100A9000884310837047054A803A0028508B01D064
:100AA000084300E0884350837047000080100040F6
:100AB000F8B5624D5726614CA827203D00282670C6
:100AC000277028880ED02115084328800A2000F0BE
:100AD00011F92670277028886115084328800020A6
:100AE0002070F8BD032149028843F7E7F0B5534C65
:100AF00057261C228B07514DA8270A409B0F403CCC
:100B000000282E702F7010D0080603D5E07BFD2141
:100B10000840E073A07A1043A07248482038C17B97
:100B20001943C17300202870F0BD080603D5E07B8F
:100B300002210843E073A07A9043A0723F48203816
:100B4000C17B9943EDE730B53C4C57233B4AA82580
:100B5000403C002813701570E06804D08843E060C2
:100B60000020107030BD0843F9E730B5334C5723EF
:100B7000324AA825403C002813701570A07B04D091
:100B80000843A0730020107030BD8843F9E7F8B522
:100B90002A4D5726294C0021A827203D00282670E1
:100BA00027700ED00120687128710020207001206C
:100BB00000F0A0F8267027700D202871002020700A
:100BC000F8BD29712170F8BD1D48016904229143C7
:100BD000016130BF7047194B57241C70A8251D7048
:100BE00016494039887B0822104388730920134E28
:100BF0000003203E308000271F70886B8A6B824282
:100C0000FBD1104A0A30904201D9524280180204A6
:100C1000120C02D0012212048018302232741C708F
:100C20001D7048632F2070741F701C701D7005208C
:100C300008811F7040BF20BF20BFFEE7401000406A
:100C400000ED00E00000C0A83C49062805D0497925
:100C50000122824011400846704708780821084068
:100C60007047364857210170A8210170817901220F
:100C70001143817100210170704731490968016099
:100C800000202F49C0438031086070472C4908601C
:100C900070472C4880697047284957220A70A8225B
:100CA0000A700028887905D004221043887100203A
:100CB00008707047FB221040F8E7204957220A705D
:100CC000A8220A700028887905D002221043887172
:100CD000002008707047FD221040F8E717485721A0
:100CE0000170A821017081791022114381710021C6
:100CF0000170704700220AE0022101E000BF00BF3E
:100D00000B46491E89B2002BF8D1521C92B2824286
:100D1000F2D3704770B500247D260546F60004E046
:100D20003046FFF7E7FF641CA4B2AC42F8D370BDB5
:100D30000549CA7A082AFCD0087270474010004062
:100D400000E100E000E000E00034004010B504469F
:100D5000FFF70AFB0A214843C008214600F030FA99
:100D60000A21401D00F02CFA2249888110BD10B5DF
:100D7000E1204002FFF7EAFF1E488721817003212E
:100D8000C170402141700121817310BD19498A78D9
:100D90009206920E800102438A707047154A00281D
:100DA000507806D00843507010780821084310701E
:100DB00070478843507070470E49802048707047D4
:100DC0000C4A07E0D37A082B04D003781372491E2B
:100DD00089B2401C0029F5D1704701460020054A20
:100DE00004E0137A401C0B7080B2491C937A002BEC
:100DF000F7D1704700340040F0B5564A0021157E07
:100E0000547E01261676507E082318435076967637
:100E1000907EC007FCD19676937EDB07FCD1978B42
:100E20004D4B401CBB43591880B21028F3D30831F6
:100E30000809517EF7231940517615765476012121
:100E4000C902081A00B2F0BD028800290DD001299C
:100E500011D0022915D0032906D140494A439101F6
:100E60003F4A8918090C01807047F92189004A43DB
:100E700091013C4AF5E73949491E4A4391013A4AF2
:100E8000EFE736494A439101384AEAE78001090110
:100E9000C01C08432F494876704780010901401D56
:100EA00008432C49487670472A48C17E8022114366
:100EB000C1760F21017621214176704725480E2108
:100EC000017603214176704722482321417608218B
:100ED000817670471F4801218176817EC907FCD148
:100EE000808B0005000D70471A4908228A76C87762
:100EF000887EC006FCD4888B0005000D704770B555
:100F00001B4D4021AB6B9AB21C0C144B3E33584323
:100F1000C00A0301002C05D09001203318182201CB
:100F2000801A13E0686B040C010A09190918050EF0
:100F3000C9B28D4201D0FF2070BD1146E4B2520803
:100F400000049A184C431219000B101A00F04EF9C5
:100F500070BD000040100040FF0F0000E6030000DD
:100F60008014340040B0370080C237004021360082
:100F70000006040010B5FFF774FA022801D9FFF744
:100F800070FA10BDF8B5534CE77E267E657EFFF7FC
:100F90008BFFA07E01210843A076A07EC007FCD174
:100FA000A08BE77626766576F8BD30B58DB0122237
:100FB00049A14E480EF0A4FD002841D045485721D4
:100FC0000170A82101705121424AC900403A1181A3
:100FD000002101704748464A4261474A0724D369C5
:100FE0001B021B0A45042B43D36181610461016923
:100FF0000222914301613422002168460EF086FEF0
:101000003E48009001204003694688801B20C87339
:10101000052008740120487414208874FB20800285
:1010200002900D2008773648089036480A90084606
:1010300001F01CF8010007D033A007F0C7FAFEE763
:1010400039A007F0C3FAFEE70DB030BD70B50C460D
:1010500009040AD50EF09EFE002801D00EF072FEA3
:1010600001212046C903484070BDE00702D001209D
:10107000604070BD314DA00405D501F073F8012624
:101080002F4A760308E060040DD52EA007F09EFAE3
:101090007D22D2010126B603314628780FF056F89A
:1010A0002046704070BD002070BD10B5264807F086
:1010B00003F9224C207000F063F862B6204A012147
:1010C000490320780FF042F810BD10B500F012FF70
:1010D00010BD00004010004043483537785F424C57
:1010E000455F4C49425F56312E380000C002010076
:1010F000FEFFFF0000E000E004ED00E030450020CE
:10110000930C0000850F00004C494220696E697401
:10111000206572726F7220636F64653A20257820B3
:101120002E2E2E0A00000000686561642066696C3E
:1011300065206572726F722E2E2E0A0022420020E8
:1011400000EE02002A2000004D1000000104090CEE
:1011500002D0012109044018164957220A70A8221A
:101160000A701449403948631349002008607047E9
:1011700010493020203908740F4901200860704759
:101180001CB50C4857210170A8210170094920396C
:10119000CA7B07231A43CA730021017000910B46D2
:1011A0000122019111460548FFF7FCF9002007F0E4
:1011B000B7F91CBD4010004024420020E4070000A5
:1011C00030B50B46014600202022012409E00D46DF
:1011D000D5409D4205D31D469540491B2546954067
:1011E00040191546521E002DF1DC30BD70B50024AB
:1011F0002546002801DA01244042002901DA0125B0
:101200004942FFF7DDFFAC4200D04042002C00D045
:10121000494270BDF0B51FB486B000200090019027
:1012200002900698069980B204900798090C02046F
:101230000014114307900027089D099806913E4627
:101240003C4603900398A9B20204000C0390049852
:101250002D0C154348430021224600F018F8C71909
:10126000714110340E46402CECDB3846029A00F0F7
:101270000EF8009A019B8018009059410298019144
:10128000103002904028CCDB00980BB0F0BD10B5B8
:10129000202A04DB0146203A9140002010BD9140F5
:1012A00020239C1A0346E3401943904010BD034697
:1012B0000B439B0703D009E008C9121F08C0042A8A
:1012C000FAD203E00B780370401C491C521EF9D27D
:1012D0007047F0B51FB40646002082B00546402492
:1012E000019100901BE0019922460F46304600F024
:1012F00033F8049A059B801A994110D31046194679
:101300002246FFF7C4FF361A8F410197224601207B
:101310000021009FFFF7BBFF38184D410090204689
:10132000641E0028DFDC019B00982946324607B086
:10133000F0BD0000064C0125064E05E0E36807CC31
:101340002B430C3C98471034B442F7D3FEF7A4FE6D
:10135000B8030100E803010010B5202A04DB0846A9
:10136000203AD040002110BD0B46D340D04020246D
:10137000A21A91400843194610BD70B58C18057823
:10138000401C6B075B0F01D10378401C2A1106D16A
:101390000278401C03E006780E70401C491C5B1E5E
:1013A000F9D12B0705D40023521E0DD40B70491C14
:1013B000FAE70378401CCB1A921C03E01D780D70ED
:1013C000491C5B1C521EF9D5A142D8D3002070BD28
:1013D00010B5124C2068C0051FD5032020600020E6
:1013E0000821401C2268C0B20A4322600EE0226835
:1013F000920510D4222807D90948026B002A0AD086
:1014000001210320904706E0401CC0B22268D205AB
:10141000EDD50028E5D10020206010BD80C300403C
:101420004C65002070B514460D460646FFF7D0FF08
:101430002D48036819680622914319603168996242
:101440007168D962B1681963F16859632968996153
:101450006968D961A9681962E96859625968022204
:10146000914359605D6801210D435D601D680D4326
:101470001D6000E000BF59688907FBD5596891439A
:1014800059609969217001688969090A6170016868
:101490008969090CA17001688969090EE170006809
:1014A000C1692171C169090A6171C169090CA17120
:1014B000C169090EE171016A2172016A090A61724A
:1014C000016A090CA172016A090EE172416A217375
:1014D000416A090A6173416A090CA173406A000EEE
:1014E000E073002070BD0000D442002010B504F06D
:1014F000B3F9024903F0A3F8002010BD0604000070
:1015000008B5002808D0002906D0002A04D0108889
:10151000002801D0002008BD1220694608706A46E4
:101520000121034803F087F86946087808BD0000E8
:10153000350C000008B503F059FE694608706A468C
:101540000121034803F077F86946087808BD0000D8
:101550002720000008B503F093FE694608706A462C
:101560000121034803F067F86946087808BD0000C8
:101570001120000008B503F0B5FF694608706A46FF
:101580000121034803F057F86946087808BD0000B8
:101590002920000008B503F0ABFF694608706A46D1
:1015A0000121034803F047F86946087808BD0000A8
:1015B00010200000FEB508AF70CF6F4670C703F073
:1015C000BDFF0446024903F03AF82046FEBD000084
:1015D0001320000008B504F02FF9694608706A4628
:1015E0000121024803F027F8002008BD0E2000006A
:1015F00038B5044604F0A0FA694608704C70200A19
:1016000088706A460321024803F015F8002038BDAF
:101610001B20000038B5044604F0A7FA694608709C
:101620004C70200A88706A460321024803F003F8D0
:10163000002038BD1A2000000EB500A8013004F0CB
:10164000CAFD694608706A460921024802F0F3FFA4
:1016500000200EBD1820000008B500A8013004F0DD
:101660005DFA694608706A460421034802F0E3FF08
:101670006946087808BD00000220000038B504461D
:1016800004F0E2FD694608704C70200A88706A46D2
:101690000321024802F0CFFF002038BD21200000C6
:1016A0007FB5044608A861C80090029601952046BF
:1016B00004F0E2FD694608734C73200A887303AA9C
:1016C0000321034802F0B7FF002004B070BD000002
:1016D0002020000008B505F023F8694608706A4626
:1016E0000121034802F0A7FF6946087808BD000001
:1016F0002D20000008B505F0B1F8694608706A466B
:101700000121034802F097FF6946087808BD0000F0
:101710000820000008B505F029F8694608706A46F7
:101720000121034802F087FF6946087808BD0000E0
:101730000A200000F0B585B00AACF0CC03976F46E4
:1017400070C705F0ABF86946087404AA0121034884
:1017500002F071FF6946087C05B0F0BD062000006C
:1017600008B505F025F9694608706A460121034865
:1017700002F061FF6946087808BD000005200000FE
:1017800008B505F053F9694608706A460121034817
:1017900002F051FF6946087808BD00002E200000C5
:1017A00008B505F059F9694608706A4601210348F1
:1017B00002F041FF6946087808BD00000C200000D7
:1017C0001CB5049C009405F089F96946087101AACA
:1017D0000121034802F02FFF694608791CBD000073
:1017E0000B20000008B505F09DF9694608706A46AF
:1017F0000121034802F01FFF6946087808BD000078
:101800000920000010B505F0ABF9024902F017FFFE
:10181000002010BD1920000010B504F0E6F910BD3D
:101820001CB500A8013004F0E5FC694608706A4662
:101830000721034802F0FFFE694608781CBD00003E
:101840000910000010B504F0CFFE10BD0A78027038
:101850008A7842704A88120A82700979C17004201D
:1018600070470A7802700988090A4170022070479F
:1018700008888004000C70478A78027088780128F4
:10188000088804D012214843401C80B27047800071
:10189000FAE70A7802700A88120A42704888801CA7
:1018A00080B270470A7802700A88120A42708A78F9
:1018B00082704A88120AC2708888001D80B2704700
:1018C000088870478A780270088849884843401C15
:1018D00080B270478A780270088849884843401C63
:1018E00080B2704708887047088870477FB51546F2
:1018F0000446022901D0102903D1022B04D0102B59
:1019000002D0002004B070BD994202D10A46294697
:1019100007E01029694607D000F00EF8102269464A
:1019200028460EF0EDF8EDE7104600F005F810221D
:1019300069462046F5E7000070B50C4605000CD05E
:10194000002C0AD01022064920460EF0E7F828782D
:10195000207368786073012070BD002070BD0000A6
:101960007C03010008B500220B46009201220249C7
:1019700007F022F808BD00004D18000008B50A88DD
:10198000172A07D300220B4600920322024907F0D0
:1019900013F808BD022008BD6318000008B5002137
:1019A0000B461922009107F007F808BD38B5054627
:1019B00008880C4600280DD0606800280AD0012154
:1019C0000EF05AF80090234607220349284606F0F5
:1019D000F3FF38BD022038BD7118000038B5054648
:1019E00088780C46012801D0022810D120880028D0
:1019F0000DD0606800280AD002210EF03DF800905A
:101A0000234605220349284606F0D6FF38BD0220AA
:101A100038BD000079180000064910B5884202D18F
:101A200003F060FA10BD0BF07FFD0028FAD11720FB
:101A300010BD0000FEFF000038B505464A680020D2
:101A40000C46002A03D0032110460EF015F8009032
:101A500023461D220249284606F06AFF38BD0000D1
:101A600093180000024800210160416070470000A7
:101A7000E44400200098022B01D0042070475178E4
:101A80001278090211430180002070470098012B51
:101A900001D004207047117801700020704770B5A4
:101AA000049C1E461546062B1BD368782978000235
:101AB00008432080E878A97800020843608002206B
:101AC00020710246291D601D0EF028F8B01F2081EC
:101AD000062E03D0AD1DE560002070BD0020E06043
:101AE000FAE7042070BD0098042B01D00420704751
:101AF00051781378090219430180D178927809024C
:101B00001143418000207047F8B5C4880D46002C71
:101B10002BD086683778390601D4002010E00D2CD0
:101B200023D30C3CA4B2311900914088234632469D
:101B3000012106F0CBFA002801D0022000E00120AC
:101B400079062870C90FBA066970920EAA70641ED1
:101B50002204120CAA8002D0761CAE6001E00022A2
:101B6000AA60022803D1002901D00120F8BD00207D
:101B7000F8BD10B50298042B14D3517814780902DB
:101B800021430180D1789478090221434180191FB3
:101B90008180042B02D0121D826001E0002181604F
:101BA000002010BD042010BD0098042B01D004209B
:101BB000704751781378090219430180D1789278DF
:101BC0000902114341800020704710B50298114668
:101BD000062B03D0142B03D0042010BD022200E0FA
:101BE000102202714A780B7812021A430280CA78D6
:101BF0008B7812021A4342800279401D091D0DF0B4
:101C00008DFF002010BD0098D90706D1022B04D00B
:101C100059088180026000207047042070470098B6
:101C2000022B01D004207047517812780902114329
:101C300001800020704710B5029C022B11D3207246
:101C4000617250781178000208432080981E6080ED
:101C5000022B02D0921C626001E000206060002034
:101C600010BD042010BD000038B5054688680C463C
:101C7000002802D005210DF0FFFE00902346172218
:101C80000249284606F098FE38BD0000A51800005D
:101C900038B5054648680C46002802D001210DF0F1
:101CA000EBFE009023460D220249284606F084FEF2
:101CB00038BD0000C118000038B5054608880C463C
:101CC00000280DD0606800280AD002210DF0D4FE53
:101CD0000090234611220349284606F06DFE38BDC8
:101CE000022038BDC518000038B5054608880C46E6
:101CF00000280DD0606800280AD002210DF0BCFE3B
:101D00000090234609220349284606F055FE38BDB7
:101D1000022038BDD518000038B5054648680C4685
:101D200000280AD001210DF0A7FE009023460F22C3
:101D30000349284606F040FE38BD022038BD0000A9
:101D4000E518000038B505464A6800200C46002A10
:101D500003D0012110460DF08FFE009023460B2288
:101D60000249284606F028FE38BD0000E9180000A8
:101D70000149086070470000E444002070B5054642
:101D800008480C46854205D0172C03D303F0AAF867
:101D9000A04201D2012070BD214628460BF068FC0C
:101DA00070BD0000FEFF000008B500210B461322A5
:101DB000009106F001FE08BD044803490068016077
:101DC0000349C16270470000A5220801D8420020E3
:101DD000784E010010B5074C5D202168086505F0BC
:101DE000B3F820680021016503484279521C427112
:101DF000C17110BD48420020A065002070B52C497B
:101E0000002048602B4800892B4CC0B28109022970
:101E100004D0012908D0810916D026E0C820A0806E
:101E20001020E080E8201FE0C506ED0E2D20294699
:101E30008001FFF7C5F9A08029467820FFF7C0F997
:101E4000E08029461D480DE0C506ED0E2946C0205C
:101E5000FFF7B6F9A08029460820FFF7B1F9E08026
:101E60002946E820FFF7ACF920811649144808609C
:101E7000164915480860174915480860174916485B
:101E8000086018491648184C086018492068012253
:101E9000D2020861801848610120487100F062F99F
:101EA000607D002802D112492020086070BD00002A
:101EB0004C4200200010004080650020980D00007A
:101EC00000C00040DC42002000C30040D44200209B
:101ED00000C200404842002000D00040E042002004
:101EE00000C10040D84200204C650020A0650020C1
:101EF00000E100E0F8B55648006881680127C9058F
:101F00000025544C544E00292EDA81683A02914340
:101F10008160207840060CD55048514900688842BD
:101F200006D15049886BE0608A6B9042FAD100E09C
:101F300080472078384320706570E079062803D008
:101F400043495D2009680865306800280AD00169A6
:101F50000A68406902430A60316808680268896853
:101F60000A4302606571A560394B1868816889056C
:101F700021D581680122520291438160A0783843C3
:101F8000A070E57038480068C16A89088900891C1A
:101F9000C1620168D20411430160306800280AD090
:101FA00041680A68806802430A603168C86802684C
:101FB00049690A43026018688168890717D58168F2
:101FC000022291438160E770A5705D210165306850
:101FD00000280AD001690A68406902430A60316832
:101FE0000868026889680A4302606571A56018681C
:101FF0008168C90715D0816849084900816025704A
:102000006770306800280AD041680A688068024317
:102010000A603168C868026849690A4302606571EC
:10202000A56018688168C90603D5816810229143AC
:1020300081608168490703D58168042291438160EA
:102040008168090703D58168082291438160F8BD42
:1020500048420020A0650020504200204442002059
:10206000417C000000100040D842002070B50446BA
:102070000068002828D00121000C4903884223D1A0
:10208000A088002820D020460622FF2116300DF01F
:1020900028FD01281AD0A288002120680DF036FE04
:1020A000342200212D480DF031FE342221462B48E8
:1020B0000DF034FD294806221630002105460DF0AA
:1020C00010FD012804D008E0022070BD032070BD7F
:1020D0002349062228460DF021FD20488189002948
:1020E00002D1012149028181827B0121002A00D194
:1020F0008173C27B002A01D11B22C273027C002A99
:1021000001D105220274427C002A00D14174817CF5
:10211000002901D114218174817F002901D1282156
:102120008177C17C002908D0827FE17C92088918E0
:10213000C174617F002904D005E0817F89082D31B9
:10214000F6E702214177806A002803D080470349DF
:102150003431488106F068F8002070BD4C650020DD
:102160000806040010B500F065F803F023F804F049
:1021700085FEFFF721FE0B4C5D202168086504F009
:1021800095FF05F053FD04F059FF04F0DDFE06480D
:1021900001214171226800211165C171FFF718F911
:1021A00010BD000048420020A065002070B50E4B15
:1021B00000209989002901D10C4999810E2101241F
:1021C000A4039A8915462540CD405204120C0543BC
:1021D000E8B25604D50BF60F75401543491EC9B237
:1021E0009D810629EDD870BD44670020FF7F000067
:1021F00070B50E4B00205989002901D10C49598135
:1022000008214C015A8915462540CD40054352000E
:10221000E8B2550A56097540ED07ED0F1543491E02
:1022200009065D81090EEDD170BD000044670020F4
:10223000FF0100000A48094900680A6902610A6949
:10224000426149698161C1618268012149030A4390
:102250008260C2680A43C26070470000A065002027
:10226000DC42002030B5104A0346517AFD20842418
:1022700054720E4CA568002D07D0A57B002D04D00C
:10228000A489E51FFF3DFA3D02D05172FF2030BD09
:102290007D24E402A34205D35360A6201072907AF5
:1022A00040235840517230BD001800404C6500205A
:1022B000F8B500240F4E274613E0F06B25012818CF
:1022C0000622FF210DF022FDF06B06222818FF21C7
:1022D000801D0DF01BFDF06B28188781641C87732F
:1022E000E4B2307E8442E8D300200DF0EFFD307E72
:1022F0007076F8BD9044002070B50C460146012070
:1023000080020A1A00252B48130006F087F92011D5
:102310001316181A1D1F21232527292B323436485E
:10232000393B3D3F4348484848484848484641486B
:10233000007800E04078207039E08078FBE7C078D2
:10234000F9E710221C4910E00079F4E74079F2E740
:10235000006A13E08079EEE7C079ECE7007AEAE7FB
:10236000407AE8E714491022103120460DF0D6FBE0
:102370001DE0807ADFE7C07ADDE7406A206016E082
:10238000007BD8E7407BD6E7807BD4E7407CD2E770
:10239000807CD0E706F026FFCDE7807DCBE71929CA
:1023A00004D2084601F056F8208000E002252846B5
:1023B00070BD0000904400202467002010B5044642
:1023C00000F03CF80248C47507F046F810BD000064
:1023D00090440020F8B501F065F800282BD1164D87
:1023E0000026E87C012801D000241CE006F046FF0E
:1023F000EE7400202A7EE96B04E003015B18401CA8
:102400009E73C0B29042F8D310E0E86B27013818F1
:10241000807B012805D1204606F042FFE86B381882
:102420008673641CE4B2287E8442EED350200DF003
:102430006FFD07F011F8F8BD90440020F8B5354E57
:10244000FF20F07500273776334CF763A07B3021EF
:10245000484342210DF07EFBF063002825D0204642
:10246000807B410040183076002413E0F06B25019A
:1024700028180622FF210DF049FCF06B06222818CF
:10248000FF21801D0DF042FCF06B28188781641C31
:102490008773E4B2307E8442E8D31F488068002806
:1024A00001D0B77601E08020B076307E70760124CE
:1024B000776334707770B770F77010220021174877
:1024C0000DF024FC3771772575713762B471F7719F
:1024D0001248377277721022002110300DF016FC6E
:1024E000B772F57277623773052070731020B0737E
:1024F000F77302203074B762F76237637774F7744A
:10250000347504487475B47505494830016005494F
:102510004160F8BD904400204C65002024670020F5
:10252000699700003197000070B5264D0C460804ED
:102530000FD5E87D0DF02EFC050006D007F032F82F
:10254000002802D028460DF0FDFB0120C0036040AA
:1025500070BDA0070BD50021084606F0B7FC02218C
:102560004C40002825D1E87D0DF09EFC1FE0E007DF
:1025700021D0686B808807F047F801214C40002883
:1025800017D0A86A00280DD04368002B0AD0686BCA
:10259000002280889847A96A686B00224B6880886F
:1025A00003219847287D0DF0CFFC06F081FC2046E2
:1025B00070BD0121D7E7600702D50420484070BDF7
:1025C000002070BD904400207FB5044680787F4D88
:1025D000801F030006F022F80AF4F7F7A41306F0B0
:1025E000F778B9F7A96A2046002907D00C68002CB3
:1025F000FBD0437B027B4189C01CA047E3E06078AD
:102600000026002847D1A079C00744D0686B002875
:1026100041D11022002168460DF078FB6169002944
:1026200003D006226846103107E0A0880AF0A6FE13
:102630000028E3D0811D062268460DF06FFA694636
:102640008889A1794907C90F08436946888106F03E
:10265000C9FD297E88420BD1A87D002801D0FFF753
:1026600027FE5B48026B002A02D001210820904718
:1026700006F0B8FD297E8842A87E02D101210843D8
:1026800001E040084000A8762146684606F01EFC9E
:10269000002812D01526A86A002855D04368002BC0
:1026A00052D06278A08801219847002E4CD0A96AA8
:1026B000A0884B683246032173E00221E87D0DF0CB
:1026C000F3FB002004B070BD6078062817D1A08805
:1026D0000AF054FE060012D0287C012804D00228FB
:1026E00008D003280BD114E07179A088002206F0ED
:1026F0008BFC04E0A1883078052201F0A5F8A86AD7
:10270000002860D04368002B5DD06278A088022149
:1027100047E0002241201146000100F0F7F8E9E708
:10272000E0780022211D00F055F8297E88424AD227
:102730000621484325302246C0B20C3204210DF058
:1027400067FC287D0DF000FC3DE0287B002802D0CE
:10275000A088697B28E028780028A08823D00AF088
:102760000DFE06002FD0A07AC0070BD0707900288C
:1027700008D0A189890505D46A46B11D00F02AF860
:10278000002814D022467179A088083206F03CFC5B
:10279000A86A002817D04368002B14D00022A08814
:1027A000114698470FE0052101F03EF80BE0A088A4
:1027B0000321F9E700E003E0A08800F031FA02E02D
:1027C000A088FFF707FE01207CE70000904400206E
:1027D0004C650020F0B52E4E85B0347E15460F4670
:1027E000002806D0012804D0022811D003284BD19C
:1027F00021E0084606F0C8FD317E0446884243D2F7
:10280000002D41D00622394628460DF087F93BE0DD
:1028100000240BE0F16B2001401806223946801D90
:102820000DF06EF9002826D1641CE4B2307E84429B
:10283000F0D3C4B21FE0002419E02046062148432B
:102840002330C0B26A4610210DF09EFB00280CD147
:102850001022FF2168460DF044F9002805D13946C1
:10286000684600F095FF002805D0641CE4B2307E75
:102870008442E2D3DDE7307E844205D2002D03D0CE
:102880002946204606F0A8FD204605B0F0BD000010
:1028900090440020F8B50E4619491525194F884275
:1028A00014D1002409E032460221204606F0B4FC8F
:1028B000002800D00025641CE4B2387E8442F2D3A4
:1028C000002E1BD010480AF077FE17E00AF056FDE4
:1028D000040012D060790022A11DFFF77BFF397E32
:1028E000884204D23246022106F096FC0025002ED2
:1028F00004D0204606F0F2FD00E014252846F8BD7D
:10290000FFFF000090440020DD940000F0B5074672
:10291000012080021546381A89B00024BC4ABD4EF9
:10292000030005F07BFE2011181F262D333A3F4689
:102930004D545B626970757CEFEEEDECEBEA89E972
:10294000E8AAAAF3F6E5E4EB012971D12878022878
:102950006ED8307059E10129F7D128780128F7D8CD
:10296000707052E10129F0D128780428F0D8B070B5
:102970004BE10129E9D128780128E9D8F07044E138
:102980001029E2D110222946A348ADE00129DCD16B
:1029900028780128DCD8307137E10129D5D1287891
:1029A000707132E10429D0D128689042D0D83062C9
:1029B0002BE10129C9D128780228C9D8B07124E1B6
:1029C0000129C2D128780128C2D8F0711DE101295E
:1029D000BBD128780428BBD8307216E10129B4D1C4
:1029E00028780128B4D870720FE11029ADD18A4837
:1029F00010222946103077E00129A6D12878012835
:102A0000A6D8B07201E101299FD12878F072FCE0CC
:102A100004290DD1286890420AD87062F5E0002997
:102A200006D100F03FFD002803D00120F074ECE057
:102A300074E006F023FC1CE007296FD10622691C14
:102A400068460DF06BF8287800226946FFF7C2FE51
:102A50000546307E854239D200F024FD002805D09D
:102A6000F26B0120290189188873CEE0284606F010
:102A700017FC50200DF04CFA96E007294ED10622A3
:102A8000691C07A80DF04AF82878002207A9FFF76B
:102A9000A1FE317E88421BD20621484305462135DE
:102AA000E8B26A461C210DF06FFA00280ED15B488F
:102AB000874201D1012000E0FF206946C876E8B2D4
:102AC0006A461C210DF0A4FA307D4BE002249CE004
:102AD000B07E0028FAD05148874214D10120F07608
:102AE0004C480722294640300DF018F88DE05EE092
:102AF0007AE00EE00AE075E06FE067E07BE04AE034
:102B000041E039E031E00020F0767EE00020707591
:102B10007BE00027012070753D461BE066E02846FB
:102B20000621484306462136F0B26A461C210DF0C4
:102B30002BFA00280CD16846C07EFF2808D0FF2061
:102B40006946C8760127F0B26A461C210DF060FA8A
:102B50006D1CEDB22F48007E8542E0D3002F54D08B
:102B60002C48007D0DF0F0F94FE001293ED1287886
:102B700001283BD8307348E0012937D1287809284B
:102B800034D8707341E0012930D12878C11F092958
:102B90002CD8B07339E0012928D1717C2878707461
:102BA000002932D1012830D106F056FC2DE0012950
:102BB0001CD1B17C2878B074002903D1012801D13F
:102BC00006F04AFCB07C01F0D8FD1EE001290DD1D1
:102BD000287803280AD8307417E0012906D128780C
:102BE000307512E00120BDE7012901D018240CE066
:102BF0002878B07509E0192F00D367E70229FCD1C6
:102C00002988384600F0F6FD0446204609B0F0BD9C
:102C10003F420F0090440020246700201A04000067
:102C2000FEB5064600200190029030460AF0A6FB51
:102C3000040017D0144FB879022813D0607901AA84
:102C4000A11DFFF7C7FD0546387E85420BD22846F9
:102C500006F0E2FB02460120009008232946304698
:102C600006F098FAFEBDB879002807D00128F9D1FE
:102C700061790022304606F0C7F9FEBD05213046D5
:102C800000F0D2FDFEBD000090440020F7B51649CB
:102C90001525164E174688420FD1002409E03A4602
:102CA0002046019906F024FC002800D00025641C71
:102CB000E4B2307E8442F2D313E00AF05FFB0028D6
:102CC0000ED04379811D00221846FFF783FD317E27
:102CD000884206D23A46019906F00AFC002500E037
:102CE00014252846FEBD0000FFFF00009044002090
:102CF00070B50C460146032000020A1A002525483B
:102D0000130005F08BFC130B0D10171A1E2125293B
:102D10002B2D3133393B3D3D35373D00407811E0B7
:102D200010221D4902E01C491022103120460CF0EF
:102D3000F5FE2DE0406920602AE0164906221E318A
:102D4000F4E7C078207023E0124982782431EDE75F
:102D5000114902791F39E9E7407AF3E7807AF1E710
:102D60000C4906221831E1E7C07AEBE7007BE9E77E
:102D7000C0890AE0008A08E0007AE3E74079E1E7E9
:102D8000192904D2084600F065FB208000E00225E6
:102D9000284670BD844200202B66002010B5094CE7
:102DA0002078FF280CD1084805F086FA2070FF280B
:102DB00006D0064A0021116000F0E4FC002010BD9E
:102DC000182010BD84420020312E000080420020D7
:102DD00010B503F0CDFB104805F06EFA02F094F840
:102DE0000E4805F069FA00F041FB0D4805F064FA61
:102DF00001F028F90B4805F05FFA04F0E7FF0A48F4
:102E000005F05AFAFFF7DAFA084805F055FA00F02B
:102E1000A7FDFFF7C3FF10BD4D500000A136000015
:102E2000F9400000DD7E000029250000E13A0000A5
:102E300070B50D46080426D5144800780CF0AAFF9A
:102E400006001CD00178912916D0D02914D1B07871
:102E50003446002807D17078002804D10622F11CDE
:102E60000B480CF05BFE0B480068002804D001689A
:102E7000002901D02046884730460CF063FF01202E
:102E8000C003684070BD002070BD00008442002077
:102E9000A2420020804200201CB5002801D0074932
:102EA0000860002000900346019005480221027846
:102EB0000448007800F050FA1CBD00008042002059
:102EC000894200208442002038B5054B6C461B78AF
:102ED00023706070A170E270684600F0FFF938BDA1
:102EE00084420020F8B5164CFF2020700025657044
:102EF0000320A0700126E670062765611920E7818E
:102F0000C001208220461F22294624300CF0FEFEFC
:102F100020460221243001704670877025711F22DF
:102F2000002108480CF0F2FE20460622002118304D
:102F30000CF0ECFE6571A571FF20E071F8BD00009A
:102F4000844200200C660020F8B50C465E49164607
:102F5000421819210025C9015C4F130005F05EFBE2
:102F6000120A1017A81C3E526970778188A8A3A87E
:102F7000A88F98A8102C73D11022314654486CE0C9
:102F8000102C6DD1524810223146103065E0042CCF
:102F900066D13068786190E0012C61D1F9783078A1
:102FA0004A4AF870127800290AD0002807D1387AE6
:102FB000022801D0052802D1104600F021FA7CE059
:102FC00000287AD0387A012803D0032801D00428B9
:102FD00073D1012110460CF067FF6EE01F2C60D802
:102FE0003A481F22002124300CF090FE3748224638
:102FF000314624300CF092FD344BBC702433224611
:10300000012112E01F2C4CD831481F2200211F380B
:103010000CF07CFE2E48224631461F380CF07EFD17
:103020002B4B3C711F3B22460021387800F050FCAE
:1030300048E0012C35D13078042832D878723CE051
:10304000012C2ED1307803282BD8B87235E0062C0D
:1030500027D11E480622314618300CF05FFD2CE0C7
:103060001FE0012C1DD1307807281AD8F87224E00F
:10307000012C16D13078032813D838731DE030881E
:10308000022C0ED106280CD388420AD8F88114E00D
:103090003088022C05D1062803D3884201D8388213
:1030A0000BE0182509E0012CFBD13078787104E0A1
:1030B000192801D2022C02D002252846F8BD3188F9
:1030C00000F098FB0546F8E7FFFCFFFF8442002074
:1030D0002B660020F8B50E46070048D038880AF065
:1030E0004DF9050041D0234AA96BD078022806D0BB
:1030F000012804D0287B082803D1002E01D01224F7
:1031000036E0002901D0112432E01B492C200CF0BC
:1031100021FD0446A863200025D02C2200210CF0BC
:10312000F5FD388860801C22391D201D0CF0F6FC4E
:10313000022020700F483A880178287B082810D098
:103140000020231D04F077FF0446002E03D03146F3
:1031500028460BF0F3FA002C0AD0284606F030FC83
:1031600006E00120EDE7132402E0142400E002242D
:103170002046F8BDEE42002014470000FFB51F486E
:1031800081B0C0781E4617460D46022818D0012887
:1031900016D0002F30D001980AF0F0F8040029D0A2
:1031A000E06A002801D00CF02BFD1C2138460CF001
:1031B000C1FCE062011E1BD0207B082803D00DE07B
:1031C000122005B0F0BD002E08D0887E00900B467E
:1031D00012330A8A01980BF0F9FD00E000202179F2
:1031E000002D01D0062200E0042211432171E8E7FE
:1031F0001320E6E71420E4E70220E2E7EE42002095
:1032000010B50548C078000701D5044800E000204B
:1032100007F054FA10BD0000EE42002004430020E5
:1032200070B51A4C05460121207806F0EFFB1848CE
:10323000C1780A20014223D02570164807F038FAD9
:10324000606800281AD1207800281DD000010721CD
:103250000CF080FC6060002810D021780A01002169
:103260000CF054FD0020FF21626803E00301401CC4
:10327000D154C0B223789842F8D305E0132070BD32
:103280000020207007F014FA002070BDF8420020E2
:10329000EE4200204C66002009490020087048607A
:1032A0008860094807490160084941600849816010
:1032B000034808490C30016007494160704700002D
:1032C000F84200200D9900004C66002031A2000059
:1032D0008DA10000ED9700002598000038B51A4D2B
:1032E0000446A868002801D0112038BD17480A21DB
:1032F000C078084225D0164904200CF02BFCA860A9
:1033000000281CD0042221460CF008FC052000F007
:10331000A1F80546062000F09DF80246E078002856
:1033200000D001200B498978002901D0012300E059
:1033300000230090A078294601F042FA38BD1320FE
:1033400038BD122038BD0000F8420020EE420020B7
:103350001D470000B8650020F8B50224079F1D46F0
:103360001646042919D004DC012907D0022945D1C9
:103370000BE008291BD00C2940D129E000F0D2F83D
:1033800004003BD100F026F938E000F0CBF804004F
:1033900034D13046FFF744FF30E000F0C3F80400BA
:1033A0002CD13A462846069900F0F6F920E000F0C4
:1033B000B9F8040022D13A462846069900F0ECF903
:1033C0003046FFF72DFFFFF71BFF04F011FD15E05E
:1033D00000F0A8F8040011D13A462846069900F0FA
:1033E000DBF93046FFF71CFFFFF70AFF04F000FD92
:1033F00000F0F0F800F0D6F804F0D4FD2046F8BD57
:1034000070B5104C2168002919D00978814214D177
:103410000D4D022128780CF0F7FE0C48002646805E
:10342000287804210CF0F0FE094846712168032039
:103430004870002001F0A9F970BD032070BD122072
:1034400070BD000068420020EE4200200C430020C6
:10345000B8650020192801D302487047024940008E
:10346000085A7047FFFF0000D865002010B50446D9
:1034700000F01CF800F0F4F8FFF70EFFFFF732FD44
:103480000649FF23CB7000228A700A710448052187
:1034900043700470204601F021FE10BDB865002085
:1034A000EE42002010B50AF06BF810BD1A4800215A
:1034B0000170417041608160C16001614161816161
:1034C0001648B42201804280012292038280A02209
:1034D000C28002811022428182815023C3810382F3
:1034E00042828282C2827D2302831B0143838183C5
:1034F000C18301840F234384094B83840723C3843E
:103500000285012242857E22D2438285C1850186C1
:10351000491E41867047000054420020D8650020B3
:1035200080BB000070B50E460546202200210948E8
:103530000CF0ECFB074C0848E570C67001F05AF936
:10354000002803D000202070122070BD01212170BE
:1035500070BD0000B8650020EE4200207FB5044633
:103560000D46084609F00AFF002817D00C4884428F
:1035700012D21022002168460CF0C8FB69460C707C
:10358000200A4870200C8870200EC87029466846B2
:1035900004F062FC04B070BD0220FBE71220F9E7E2
:1035A00040420F0010B50848C078400707D50748CB
:1035B00007F090F800200649C043C88010BD0020E5
:1035C00007F088F810BD0000EE4200201C430020E8
:1035D000B8650020F8B51E4C00256068002802D0B0
:1035E0000CF00EFB6560E068002802D00CF008FBD0
:1035F000E560184E0527F078384224D0164807F0C9
:1036000063F8F07838421CD0144920200CF0A2FA5C
:103610006060002815D0202200210CF077FB0F49B4
:103620002020491E0CF096FAE060002805D02022E8
:1036300000210CF06BFB0020F8BD60680CF0E0FA94
:1036400065601320F8BD002007F03EF8F3E70000A6
:103650000C430020EE420020586600201647000070
:103660000948FF2101700021418041608160C160F3
:1036700007480649016007494160074981600249DE
:1036800006481031086070470C4300202D9D000053
:1036900058660020BD9D0000D5A900009D9C00003B
:1036A000FEB5354F354D0C4608041FD538780CF063
:1036B00071FB061E17D03078A22806D07D783046E0
:1036C00006F0FCFE00280AD102E02C48C578F6E797
:1036D000FF2D04D0314628460CF094FBE6E7304637
:1036E0000CF030FBE2E70120C00341E0E0070126D7
:1036F000234900280AD04868002804D041680029DE
:1037000001D00020884720467040FEBDA00709D5A3
:10371000C868002804D04168002901D001208847EA
:10372000022025E0600725D5687900281FD0401EBB
:103730000006000E68711AD14869002808D02E7161
:10374000C868002804D04168002901D001208847BA
:103750006946E86804F0C7FA684606F099FC11204B
:10376000FFF778FE6871387804210CF04DFD0420D5
:103770006040FEBD0020FEBDEE420020B865002086
:10378000544200200149487070470000EE4200207A
:1037900010B504F0E1FB10BD70B5154C0E4662612A
:1037A00021610546E0601022FF2130460CF099F9B6
:1037B000012806D01022002130460CF092F9012891
:1037C00003D1102120690AF0ABFD1022FF21284609
:1037D0000CF087F9012806D01022002128460CF0B1
:1037E00080F9012803D11021E0680AF099FD70BD2D
:1037F000B865002070B50C460546192802D2084865
:10380000844201D1022070BD112D04D13C206043BF
:1038100080B200F0CDFF034968000C52002070BD5B
:10382000FFFF0000D865002038B50C46054609F0BA
:10383000A5FD002806D068460470694628460BF0AE
:1038400071FA38BD142038BDF7B505461E4812265A
:103850001E4F0C46814208D1B868002832D0026859
:10386000002A2FD028469047FEBD1748401C8442AE
:1038700019D1B868002806D00268002A03D028466B
:103880009047002806D02846029905F0E7FA06007E
:1038900005D017E07D70029838700020FEBD7D7065
:1038A000029838700EE0084609F068FD002809D03B
:1038B0000078A84201D00320FEBD2046029900F006
:1038C000C6FEFEBD3046FEBDFEFF00005442002095
:1038D00070B51446024620481E46C078052318429B
:1038E00024D01E4D00296B68E86802D0002B1DD043
:1038F00001E000281AD0202C2CD2002C01D0002E60
:1039000028D02A70002913D01F220021581C0CF047
:10391000FDF9686822463146401C0CF0FFF86968E2
:1039200020460C70491C00F02CFF70BD122070BDA9
:103930001F220021401C0CF0E9F9E86822463146BC
:10394000401C0CF0EBF8E96820460C70491C00F0B4
:103950003DFF70BD022070BDEE4200200C430020F0
:10396000F8B5044600F088FD00F046F8114F134EFC
:10397000FC701149304600F027F81149C0200CF0C6
:10398000E9F800221346B861940106530021241877
:103990000C254D436519AB80491CEB600529F7DB0D
:1039A000521C032AF0DBF8787870064809F01CFEF8
:1039B000F8BD0000DC430020A6660020FFFF0000E9
:1039C00001470000ADB0000070B50A4C0025A042D0
:1039D00008D1002082008C525218401C9570032898
:1039E000F8DB70BD07F033FB0028FAD00480857047
:1039F00070BD0000FFFF0000F0B51E4920200870D8
:103A0000FF2048708870C8700126CE800020088191
:103A1000C86008610B4602241C3348611C70164ABA
:103A20005A600A46087124321470144D556016729B
:103A30005081D3601474124F15466F612E766883DF
:103A4000E9612021545413460E4D59185D620872E5
:103A50005885D862302154540B4C032351185463B9
:103A60000B725087094ACA600249094A643105C18C
:103A70000860F0BDDC4300208E03010090030100CC
:103A800096030100AE0301009C030100A66600201E
:103A900085BB0000F8B50E46074606990024079836
:103AA000002902D00B242046F8BD022B01D00D24A2
:103AB000F9E7517812780D0215432946814301D068
:103AC0008024F0E73846F16800F042F9A842EAD0D5
:103AD0002A463846F16800F0ADF90446E3E70000F5
:103AE00070B50D4608041AD50E48C0780CF052F98E
:103AF00004000FD02078B02809D1204607F06EFCD2
:103B0000002804D020462179083000F0ADFC204682
:103B10000CF018F901212846C903484070BD002067
:103B200070BD0000DC430020FFB585B000200F9F72
:103B30000090087A0E9D1C460E46C0060BD50798CD
:103B400007F07EFA03007DD00A2231460598984797
:103B50000090002816D13078022815D0079807F079
:103B600095FA0028EFD0006884460028EBD0119920
:103B7000109822460097029101902B4631466446E8
:103B80000598A04709B0F0BD7068292241780078F7
:103B9000090201431202881A91427CD00BDC694869
:103BA000081A13D0012811D0022817D00328D5D124
:103BB000002F53D09BE001287ED002286DD003282F
:103BC00077D00428CAD1002F68D090E0002F6FD1A1
:103BD000F068017829800278416884E0002F67D17D
:103BE000F068417800780F02074304202880F068CD
:103BF00004A900782070F06840786070384600F0C2
:103C000045F9060022D06846028A03AB4E49304689
:103C1000F76800F099F900280AD1337802214B485F
:103C20007268FDF763FE002802D147486946888123
:103C3000387802280CD10222201D79680BF06EFF23
:103C4000288800E07CE0801C288001E068468781AD
:103C500068468089A070000AE0706FE0012028802B
:103C6000F0680021007820707089401C80B200F05C
:103C70000DF9002813D0298802788918891C298019
:103C8000817A61704189090AA17002784168E01C5B
:103C90000BF044FF52E00CE00EE026E03BE0288809
:103CA0000422001D28800021601C0CF02FF845E044
:103CB0001DE0002F27D01AE0F0680CF0B8FA80B2AF
:103CC000B84201D207205DE7874201D1002006E01B
:103CD0001099C919814201D3C01B00E010982880B7
:103CE00082B2F068C1192046D2E7002F01D00B2024
:103CF00048E7F168059800F02BF802212980207030
:103D0000000A60701AE002202880F06800782070B5
:103D1000F0684078F5E70721F06829800178217084
:103D2000417861708178A1704188090AE170017958
:103D3000217181796171C088000AA071009821E722
:103D40000E201FE700280000FFFF00009203010083
:103D500010B507F07CF9002800D0807810BD000075
:103D6000F8B50C4C0746A07815460E46FF280FD034
:103D70000A200BF0D3FF01000AD0B12008704F8059
:103D8000002048700871CE800D81A0780CF03AF8C0
:103D9000F8BD0000DC43002070B50C46054606491E
:103DA000FFF7D6FF800704D52146284600F01EFA0B
:103DB00070BD012070BD0000A6660020FFB583B075
:103DC000174602A90D9E049800F060F804002AD05E
:103DD0006846008907F05AF9002822D04568002D6E
:103DE0001FD00C98019600903A462146069B0398F6
:103DF000A847050018D1FE2E16D02078022813D12E
:103E000060684178027808020949104388420BD162
:103E10007878397802020A4304990398FFF7A0FFE3
:103E200002E00E2500E00125284607B0F0BD0000A5
:103E30000229000070B514460E46054607F007F942
:103E4000002806D13146054807F001F9002803D0C3
:103E500005808470002070BD112070BDFFFF000040
:103E600010B50178B0290BD14178002908D101792A
:103E7000122906D01B2903D14088012101F038F80E
:103E800010BD417C0129F7D010BD0000F0B5104AEB
:103E9000536919E09C686589A84214D39E887219F9
:103EA000824210D900220CE017013F197F89874216
:103EB00005D1002900D00D8010010019F0BD521C61
:103EC00092B2B242F0D31B68002BE3D10020F0BDC8
:103ED000DC430020FFB51B4883B0002345692DE07B
:103EE000AE68002470890190A888009016E0210136
:103EF00088194289039FBA420ED3049FBA420BD855
:103F0000069A002A0FD01346715C4068059AFDF7A7
:103F1000EDFC002807D10023641CA4B20098844261
:103F2000E5D3002B09D00C98002802D00C990198F9
:103F300008802001801907B0F0BD2D68002DCFD179
:103F40000020F8E7DC430020FEB5174600256A464E
:103F50009580044640891D4A1E46904208D001AA19
:103F60000092401C237880B26268FFF7B3FF0546D9
:103F70002378022116486268FDF7B8FC002807D1B3
:103F80002378022113486268FDF7B0FC002801D0B5
:103F900060890EE0237802210F486268FDF7A6FCD5
:103FA00000280DD0002D03D068468088B84203D089
:103FB000384607F00BFF04E06889401E80B200E03D
:103FC0006089002E00D030802846FEBDFFFF000033
:103FD000900301009203010096030100FFB583B036
:103FE0000E461D46174601A9039806F049FE040037
:103FF00022D1002F0FD0694608803088FFF746FF96
:104000006946088800F02EF901460122039809F05C
:1040100089F9002811D131460398FDF70DFD040000
:104020000AD1FF2D08D0019B1E22194604489B1C73
:1040300007F0D7FE0198C570204607B0F0BD00001C
:1040400035BC000010B50446FDF70CFD0749FF2004
:10405000087048700020486088608C7004212046F9
:1040600001F03CF800F004F810BD0000D04300203F
:1040700070B500200D4D0E4B0446FF220621414332
:104080005D52C918CA708A70401C0C710328F5DB98
:104090000120C0431880074806F088FF0648FDF756
:1040A00067FE064809F0A0FA002070BDFFFF00007F
:1040B000946600207DBC00005FBC0000B5BB000022
:1040C000F8B51C4615460E46074609F057F9002874
:1040D0000DD0017B074808292B463246394600940B
:1040E00003D0007806F0E2FDF8BD4078FAE7012041
:1040F000F8BD0000D0430020F0B587B00F4608049B
:1041000070D5394EB0780BF045FE040064D02078AD
:10411000A0285ED10120694608732046FDF7F4FC13
:10412000050041D16846807800280BD0142809D0BA
:10413000152807D01A2805D01C2803D001461F399E
:1041400020290BD8B16800292ED06946497800296A
:104150002AD169460874062008751FE0C0070AD0F6
:104160007368002B05D0608803AA69469847054606
:104170001AE0062518E0B368002B06D0608803AA71
:1041800069469847050001D10EE00625684640784B
:10419000002809D16946887808740D750020488286
:1041A000608804A9FDF7DEFB6846007B002804D088
:1041B000A068002801D00BF023FD002D05D1684632
:1041C0008078122805D01B2803D16088012100F0D7
:1041D0008FFE20460BF0B6FD0120C003784007B0EB
:1041E000F0BDFFE70020FAE7D0430020FEB50E4601
:1041F000074600250223194A194901200095FFF7B7
:1042000069FE040027D023200090002304221D21F2
:10421000384600F0E3F8029000281AD06089694619
:1042200088800420C88002990120087002983346D3
:1042300045700299FF20887002990022C87001A978
:104240003846FFF7CBFE040006D002980BF0D8FCEE
:1042500002E0152400E001242046FEBDAE0301006B
:10426000FFFF000000B506F0C7FC002801D08078F1
:1042700000BD102000BD00B506F0BEFC002800D037
:10428000008800BD7CB50D46044609F077F8294644
:104290002046FDF773FD002812D168468580204630
:1042A00009F06CF800280BD0027B01A90748082A06
:1042B000009106D07F2300222146007806F0F6FC0C
:1042C0007CBD7F23002221464078F7E7D0430020C1
:1042D00010B504460B4688060DD51046FFF7C2FF01
:1042E00001460122204609F01DF8052801D00F28BB
:1042F00000D1082010BD882003420CD01046FFF7E3
:10430000B1FF0146180701D5012200E00022204636
:1043100009F008F810BD880701D5002010BD032062
:1043200010BD10B50346C8060DD51046FFF79AFF1D
:1043300001460122184608F0F5FF052801D00F2894
:1043400000D1082010BD480705D51046FFF78AFFA9
:104350000146012206E0480608D51046FFF782FF15
:1043600001460022184608F0DDFF10BDC80701D045
:10437000002010BD022010BD70B51D4603460C463E
:1043800088060DD51046FFF76DFF0146012218463D
:1043900008F0C8FF052801D00F2800D1082070BD03
:1043A0008820044214D01046FFF75CFF0146200726
:1043B00001D5012200E00022184608F0B3FF0028D2
:1043C00008D0697A0029EAD0297A002902D170BD83
:1043D000880701D5002070BD032070BDF8B5069F89
:1043E0001E461546162928D00CDC09291FD004DCEE
:1043F00005291CD0062911D11BE0112917D012293B
:104400000CD118E01D2916D004DC172915D01B2962
:1044100004D110E052290ED0D2290CD00124114A27
:1044200095420CD1FDF7F8FA001B85B20BE002248F
:10443000F5E70724F3E70324F1E70524EFE7D229A2
:1044400001D10C35ADB2601980B2394600F0A2FE40
:10445000002805D0002E00D0358061420BF00CFB07
:10446000F8BD0000FFFF000010B506F0D5FB0028E6
:1044700001D00BF0C5FB10BDF0B500213D4C022270
:10448000A1603D4D227008462954401C80B2162878
:10449000FAD36270374BE180A27050200C33188041
:1044A000A0205880184681807D20C000D880E2700E
:1044B0000123304823716171143002702F4C446025
:1044C000037241812E4CC460064602742D4F776101
:1044D0003446337671831034143EE660202402554E
:1044E0000646294F3419776223727185F5623024AC
:1044F00002550546234E6E632C1923726987133DBE
:10450000E560402402550546204E6E642C19237246
:1045100061810E3DE560502402550546194E2C1967
:104520006E6523726181123DE56060240255054687
:10453000174E6E662C1923726181083DE560702468
:10454000025505460F4E2C196E6723726181113D8D
:10455000E560802402550F4A803042600372418139
:104560006A1CC2600C48A03210600C4850601046B3
:104570008160F0BD204300206466002090030100AC
:10458000D402010096030100A4030100A603010068
:10459000AC030100B6030100A9BE0000F1BF00009A
:1045A00070B51646214A0D46114600241431030009
:1045B00004F034F80A06133838183821283831380E
:1045C000152D2AD81622002119480BF09FFB2A46E8
:1045D000314617480BF0A2FA25E0022D1DD1308894
:1045E000D08020E0082D18D11048082231460C3028
:1045F000FCF75DFE17E0012D0FD1CA690B49307839
:104600003C3105E0012D08D1CA6B084930785C3196
:1046100007F0B6FC07E0012D01D0182403E0307844
:10462000107100E00224204670BD000020430020ED
:1046300064660020704710B500F012F910BD10B587
:1046400000F02EF910BD10B500F042F910BD10B504
:10465000FCF74CFF10BD10B500F04EF910BD10B5C1
:1046600000F062F910BD10B500F078F910BD10B57A
:10467000FCF746FF002010BD10B5FCF75BFF10BD36
:1046800010B5FCF767FF10BD7CB5069C079DC0B256
:104690000195009400F078F97CBD10B5FCF76AFF35
:1046A00010BD10B5FCF776FF10BDFEB508AF70CF9A
:1046B0006F4670C7FCF77EFFFEBDF0B585B084463F
:1046C0000AA8F1C804976F4671C7604600F08CF9DC
:1046D00005B0F0BD38B5049C009400F0C5F938BDB4
:1046E00010B5FCF777FF10BD38B5049C009400F0BE
:1046F000D9F938BD7CB5069C079DC0B201950094E0
:1047000000F0EEF97CBDFFB587B094468E4610A848
:10471000F7C806976F4677C762467146079800F05C
:1047200015FA0BB0F0BD10B500F06AFA10BD10B567
:10473000FCF75EFF10BD10B5FCF76CFF10BD10B5A7
:10474000FCF77AFF10BD10B5FCF786FF10BD10B561
:1047500000F074FA10BD10B5FCF790FF10BDFEB567
:1047600008AF70CF6F4670C7FCF79AFFFEBD38B533
:10477000049C009400F080FA38BD10B5FCF7AAFF45
:1047800010BD10B5FCF7B6FF10BD10B5FCF7C2FFA9
:1047900010BDF0B585B00AACF0CC03976F4670C77A
:1047A000FCF7C8FF05B0F0BD10B5FCF7D9FF10BD90
:1047B00010B5FCF7E5FF10BD10B5FCF7F1FF10BD1B
:1047C00038B5049C0094FCF7FBFF38BD10B5FDF72D
:1047D00009F810BD70B55478157822022A43FDF708
:1047E00011F870BD10B5FDF717F810BD10B500F049
:1047F00061FA10BD10B5FDF713F810BD38B5049C73
:10480000009400F06FFA38BD38B5049C009400F0B5
:1048100017FB38BD10B500F081FA10BD10B5FDF7DB
:1048200011F810BD10B505280ED90C4CA0420BD2C2
:10483000A14209D2814207D3FF20F530824203D240
:10484000092B01D9A34201D3002010BD521C4A43B9
:10485000D8008242F8DA012010BD0000810C00006F
:10486000F8B50746084616460D460C300BF056FACA
:10487000040011D0912020700E206070A570204699
:10488000A7800C302A463146A0600BF047F9034858
:10489000214600780BF0B6FAF8BD0000EE42002089
:1048A00070B505460C4606200BF038FA01000BD017
:1048B000912008700F2048708D700120C870034847
:1048C0008C8000780BF09EFA70BD0000EE42002054
:1048D00010B5044603200BF021FA010008D0912006
:1048E00008701A20487003488C7000780BF08AFA20
:1048F00010BD0000EE42002070B5064614460D467D
:1049000008200BF00BFA01000AD091200870052056
:1049100048708E708D8003488C7100780BF072FAAD
:1049200070BD0000EE42002070B5064614460D46EC
:1049300008200BF0F3F901000CD0922008703E2003
:104940004870082088708D808E710348CC71807803
:104950000BF058FA70BD0000EE42002070B505461D
:104960000C4606200BF0DAF9010009D091200870FE
:10497000302048708D7003488C8000780BF042FA2C
:1049800070BD0000EE420020FFB581B01E460F460C
:1049900031200BF0C3F9040022D0912020703E207A
:1049A00060700220A0700120E070204608300546AB
:1049B0006060019828706F700622A81C03990BF0A4
:1049C000ADF82E722846324609300A990BF0A6F847
:1049D00020350B9828720348214600780BF012FA14
:1049E00005B0F0BDEE420020FFB5064681B0174687
:1049F0000D4616200BF092F904002FD09120207064
:104A00003E2060700120A07030460026002808D0AB
:104A10003120E07020460622002108300BF076F9A4
:104A200006E0E6702046062208300A990BF076F878
:104A3000A580A7710498E0710B98E0810C98208202
:104A40000D9860820E9820750548214600780BF07D
:104A5000D9F9082D02D2034968000E5205B0F0BD05
:104A6000EE420020B2660020F8B507461C46154607
:104A70000E460C200BF052F901000FD09120087067
:104A80003E20487003208870CF708E80CD800C81CE
:104A900006984881024800780BF0B4F9F8BD000090
:104AA000EE420020F8B507461C4615460E460E207D
:104AB0000BF034F901000FD0912008703E204870AF
:104AC000072088708F80CE800D814C810698888168
:104AD000024800780BF096F9F8BD0000EE42002085
:104AE000FFB581B01F4618200BF018F9050028D03B
:104AF000912028703E2068700B20A87001202C4661
:104B00000834E87000266C6001982070029860708C
:104B10000622A01C03990BF001F8277220460622FA
:104B200009300A990AF0FAFF0B98E073761CE878CE
:104B3000F6B21034B042E7D80348294600780BF0AB
:104B400061F905B0F0BD0000EE420020FFB5064659
:104B500081B017460D4622200BF0E0F8040048D043
:104B6000912020703E2060700A20A0703046002600
:104B7000002814D03120E0702046062200210830A1
:104B80000BF0C4F82046062200210E300BF0BEF8D0
:104B900020460622002114300BF0B8F812E0E6702F
:104BA0002046062208300A990AF0B8FF204606225D
:104BB0000E300B990AF0B2FF2046062214300C99F1
:104BC0000AF0ACFFA580A7710498E0710D9860838E
:104BD0000E98A0830F98E08320211098085506486E
:104BE000214600780BF00EF9082D02D20349680027
:104BF0000E5205B0F0BD0000EE420020B26600206B
:104C0000F8B5064615460F4610200BF087F804004D
:104C100011D0922020703E2060700520A070A680E8
:104C200008223946A01D0AF079FF0348E581807803
:104C300021460BF0E7F8F8BDEE420020F8B5064635
:104C400017460D460E200BF069F8040011D0922093
:104C500020703E2060700420A070E670A5800822BD
:104C60003946A01D0AF05AFF0248214600780BF091
:104C7000C9F8F8BDEE420020F8B507461C461546B7
:104C80000E460E200BF04AF801000FD0912008705C
:104C90003E204870062088708F80CE800D814C8128
:104CA00006988881024800780BF0ACF8F8BD000047
:104CB000EE42002070B514460D4608200BF02EF889
:104CC00001000BD0902008701320487001208870DC
:104CD0008D800348CC8000780BF094F870BD000004
:104CE00054440020F8B507461C4615460E460C20D5
:104CF0000BF014F801000DD0912008700C204870C2
:104D00008F708E808D710C810698488102480078E2
:104D10000BF078F8F8BD0000EE420020FFB581B03E
:104D2000444E02990025F068174602292CD0B1881C
:104D300000297CD07288CB19121D934271D840187B
:104D40003A4604990AF0EAFEB088C01980B2B080F1
:104D50007188091D88425CD10C200AF0DFFF010038
:104D60005ED090200870FF20487001984880022093
:104D70000871B088C880F06888602F4800780BF010
:104D800041F8B580357044E004994A780B781102F7
:104D900019433A1F7180914222D10C200AF0BEFFC4
:104DA00004003BD090202070FF206070019860804C
:104DB00002982071E780214938460AF0CBFEA060B6
:104DC000002809D03A4604990AF0A8FE1A4821465C
:104DD00000780BF017F81CE020460AF011FF1DE0E8
:104DE00091421BDD3178002903D0002801D00AF060
:104DF00007FF70881149001D80B20AF0ABFEF06019
:104E0000002814D03A4604990AF088FEB7800120A1
:104E10003070002005B0F0BD09E002E0B58006E08A
:104E2000F068002801D00AF0EBFEB5803570012053
:104E3000F0E70000E8420020544400200180000018
:104E4000FFB583B01C4615460E460C9F039808F02C
:104E500095FA002809D06846068045808480C7807E
:104E6000FF226946039800F00FF807B0F0BD00007C
:104E700008B51346034A00920A46012108F020F8BB
:104E800008BD0000A9C100003EB500230192042422
:104E900002930A460094024B122108F01DF93EBD10
:104EA0004FC2000008B51346034A00920A46132178
:104EB00008F006F808BD00007BC200001FB5694677
:104EC000C8810022FF2103206C4607C4034B03AABC
:104ED0000621034808F000F904B010BD1FC200000D
:104EE000FFFF000001484089704700004C4400204B
:104EF00013B504484079012803D101AA6946FFF798
:104F0000B6FB1CBD4C44002070B50025254C30225A
:104F100025706570E57025716571A571E571658114
:104F200025612072294620480AF0F0FE08F0CAFAEE
:104F300026460C36307800280ED000011B490AF0B6
:104F400009FE6061002807D0717821713178E17025
:104F50000A0100210AF0DAFE15482179007840188C
:104F6000C0B2124920700001491C0AF0F3FD206113
:104F7000002811D021780A0100210AF0C7FE002084
:104F8000FF2105E023690201D218401C5172C0B212
:104F900022789042F6D301E025702571054808F08B
:104FA00023FB70BD4C440020C4660020044C00006C
:104FB00064440020EDC500000A2A01D0012070479A
:104FC0004A780B7812021A430280CA788B78120250
:104FD0001A4342804A790B7912021A438280CA79B5
:104FE0008B7912021A43C2804A7A0B7A1102194352
:104FF000018100207047042A01D0012070474A78BF
:105000000B7812021A430280CA788B781102194376
:10501000418000207047082A01D0012070474A785B
:105020000B7812021A430280CA788B7812021A4354
:1050300042804A790B7912021A438280CA798B79AD
:1050400011021943C180002070470000F8B5214EBD
:105050000D4608042ED5307A0AF09CFE04000BD0D1
:105060002078902805D16078132808D0204607F0D2
:1050700025FE20460AF066FE0120C00328E01649FE
:105080000020097CA7780BE042001219927973780E
:10509000D218D2B27270914200D27170401CC0B26C
:1050A0008742F1D870780028E3D00121307A0AF0E5
:1050B000FBFEDEE7E8070CD007F0EEFF002806D085
:1050C0007078002803D00121307A0AF0EDFE01202B
:1050D0006840F8BD4C4400204C650020042907D0EE
:1050E000052905D0062903D0072901D002207047E1
:1050F0000C22044B4A43D218403A1182907400208B
:1051000070470000C466002070B50C46098805464B
:10511000042905D0052903D0062901D0072929D162
:105120006068002826D00121284608F091FA00285E
:105130001ED0284608F0F8F90F498D420BD0002800
:1051400009D16188002906D9208806280ED10B488C
:10515000008881420AD20A480078002804D02146FB
:10516000284607F0EDF870BD162070BD1B2070BDFD
:10517000142070BD022070BDFEFF000056440020C8
:105180004D440020024A001F5081517091707047B9
:105190004C44002010B5801D80B205490AF0DAFCAD
:1051A000002803D00521C9430AF066FC10BD0000A9
:1051B000034C00000B480A4900688A884261CA888B
:1051C000C2618B884362CA88C2624363C26343641C
:1051D000C264098981651F2141600349C16070472C
:1051E00080650020484200201F03000070B515466E
:1051F0001C46214A0B46916B90B0002902D0097BD6
:10520000002934D1116C002902D0C97900292ED18E
:10521000916C002902D0C979002928D11649403162
:105220008E8E16498988890A8E4202D3072010B0D3
:1052300070BD11496031097F490618D56946C870AB
:105240000622194601A80AF069FC0AA8102229467C
:1052500002300AF063FC06A81022214602300AF050
:105260005DFC684601F0A0F8801B012801D00C20ED
:10527000DDE70020DBE70000446700204C650020EC
:105280001CB51B4B9A6B002A05D0147B002C02D056
:10529000D27A002A11D11A6C002A05D0D479002CB8
:1052A00002D0127BD20708D19A6C002A07D0D3799A
:1052B000002B04D0D27B002A01D012201CBD0C4A46
:1052C0000C4B40329B88928D9B0A9A420BD26A46C5
:1052D000507000A8062202300AF020FC684601F057
:1052E00063FD012801D007201CBD00201CBD00006B
:1052F000446700204C650020F0B51F4C89B00D4676
:1053000006462146002003F0AAFB0028F9D0A0425F
:10531000F7D000210446012080052746074300916D
:1053200001910291039104910591069107916A46BA
:10533000D773390A9173390C5173304604AA694600
:1053400000F0A2FA6A46907F517F000209044018DB
:10535000D17F40182870010A6970000CA8700121E3
:10536000200A89030843EF702871200C402108436C
:10537000687109B0F0BD0000FFFF3F00F8B5444977
:105380000C46C86A80342073020A6273000CA07352
:10539000886AE073010A2174000C60743D490020A2
:1053A00003F04EFB00270646791E384603F057FBF4
:1053B000384332467D1E0AE03146002003F040FBB0
:1053C00006462946002003F04AFB38433246910442
:1053D000304E890C0143EFD0D343C14333401943CE
:1053E000EAD0FF2301461B0219402076090A6176A4
:1053F00019020140090CA176000EE076100AC021C6
:105400002277084360770120214D0090A035214983
:10541000002003F015FB00270646791E384603F0EE
:105420001EFB0146394330460A460243EFD0194B72
:10543000CA4343401A43EAD0FF230A461B021A40DC
:10544000130A0A46FF273F043A40CEB2A677C7B2F6
:10545000E377120C2A70090E69708004AF70800E19
:10546000BC46E870277BBE4211D1667BB3420ED1A9
:10547000A37B9A420BD1E27B914208D1227C9445D6
:1054800005D1617C884202D100980028BFD1F8BDC7
:1054900044670020FF3F000010B500F007F88222AB
:1054A0008021002000F06AFF10BD000010B50B48FD
:1054B000846B03F09FFB00202073A0722071084CC6
:1054C0000121E0780AF0A0FEE07802210AF09CFEBB
:1054D000E07804210AF098FE10BD00004467002027
:1054E0008065002010B500F0D7FF002010BD00003F
:1054F00010B51149886B002805D0027B002A02D024
:10550000C07A002811D1086C002805D0C279002A81
:1055100002D0007BC00708D1886C002807D0C17971
:10552000002904D0C07B002801D0122010BD01F05A
:1055300073FC002010BD000044670020FFB581B05F
:105540000D4600F043F9040022D01920C001854225
:105550001ED8062D1CD30399814219D8A94217D30E
:10556000FF220499F432914212D80A9981420FD84D
:105570000498C900401C6843814209DDA07BC00734
:1055800006D126468036B168480701D4880702D57F
:10559000122005B0F0BD20464030C585039A028632
:1055A0000B9A42860C9A8286049A82820A9A07464D
:1055B000C282E07902220028A07E02D000282ED0EC
:1055C00037E0002835D1E420005D800702D5114383
:1055D000B16022E0039885420BD028184108284684
:1055E00003F02EFA788221465231039808F0C6F96A
:1055F00000E07D821048006E411C042901D904207E
:1056000000E0401CF873204608F062F9208F042166
:105610000A303883B0680843B060122008E0E42004
:10562000005D800701D41A20B3E711431320B16055
:10563000A0760020ADE700004467002070B5054665
:10564000FF2000022C468034616F05E08A89024306
:105650008A81616F096861670029F7D1E16F0029CC
:1056600006D08A8902438A81E16F0968E167F6E71B
:10567000E06E002801D00AF0C3FA2C46203460788E
:10568000FF2801D00AF09CFD2078FF2801D00AF005
:1056900097FDA078FF2801D00AF092FDA88800F0BD
:1056A00055F80848806800280BD00748006E00288D
:1056B00007D1064CE069002803D00AF0A1FA0020C7
:1056C000E06170BD4C6500204467002080650020CB
:1056D00070B504461C480E46C16D0025A14200D19C
:1056E000C565FC200059002804D0A0880022802134
:1056F00000F044FEE08F002804D0A088132281210E
:1057000000F03CFEA0880522812100F037FEA57143
:1057100065734E200655E079002807D108F0BCF8E3
:10572000012803D80121002002F0DCFDE0790128E6
:1057300007D108F0BFF8012803D80221002002F0A9
:10574000D1FD002070BD00004467002070B5164CEC
:105750000346206D002102460D461CE0FF265D3603
:10576000365A9E4215D1002904D0626D824204D17E
:10577000616504E01168216501E002680A600AF0D1
:105780003FFA606D0560206E002809D0401E20663B
:1057900004E0014600680028E0D1206E002802D114
:1057A00000F004F8256570BD4467002070B5064D13
:1057B0006C6B03E020460AF023FA2468002CF9D130
:1057C0000020686370BD0000446700200146064861
:1057D000006D05E0FF225D32125A8A4202D0006855
:1057E0000028F7D1704700004467002030B50C4A0C
:1057F00004460948137C0021406B084D5B1C07E000
:105800008289A24207D0AA4205D0491CC9B21030F1
:105810008B42F5D8002030BD44670020FFFF000018
:105820004C65002010B51422002102480AF06EFADF
:1058300010BD00009467002010B50648806C002859
:1058400006D0C079002803D000F046F9002010BD32
:105850000C2010BD4467002010B50C46FFF7B6FFC2
:1058600000280FD08179102901D0022010BD4E21CF
:105870000C54C179002903D031214173002010BD9F
:105880003021FAE7122010BD30B5447803782402A5
:105890001B198478C57824042D06641989B01B1956
:1058A00000934479037924021B198479C57924046F
:1058B0002D0664191B190193447A037A24021B19DB
:1058C000847AC57A24042D0664191B190293447B3B
:1058D000037B24021B19847BC07B24040006201850
:1058E000181803904B7808781B02C0188B78CC7876
:1058F0001B0424061B19C01804904B7908791B025D
:10590000C0188B79CC791B0424061B19C01805908C
:105910004B7A087A1B02C318887ACC7A00042406D2
:105920000019181806904B7B087B1B02C0188B7B54
:10593000C97B1B04090659184018079004A968463A
:10594000FBF770FD002009B030BD0000F8B5074638
:105950002A48C1780020C04300294BD0002F49D0ED
:1059600027490C6D002C45D00646E079012811D15D
:10597000608EA18D88420DD2627B012A0AD1254614
:1059800080356A6F002A05D1AA68002A02D1E27B1D
:10599000C02A03D098200159208E0EE0091A6869A8
:1059A000401E41430091A16F0098FBF709FC401C89
:1059B00080B22086AA6900995118814201D30D1A3C
:1059C00002E0091A0F480D18AE4200D92E4624688D
:1059D000002CCAD10C4800688047B04201D8301A68
:1059E00006E0B04207D58642F9D2311A05480818B8
:1059F00038603046F8BD00213960F8BD8065002070
:105A0000446700200000C0A84442002070B505464D
:105A10002948002404602948B0220460214628480F
:105A20000AF074F92748284AC570D07D117E00021B
:105A300009044018917D254D41182148C162917E8D
:105A4000D37E09021B04C918537EC918816208213C
:105A5000C18105821E4B43820175C3824175058356
:105A600043830146FF2360310B774C778C77CC77EB
:105A700020310C704C708C70CC7020318B72DF2414
:105A8000CC720B734C731F238B73D17B0184CA00C0
:105A9000703242848184C2841B218183FF21493179
:105AA000C1830C490163FCF7A9F9FFF7BBFE01F0C4
:105AB000C5F900F009FD70BDE4420020E04400207B
:105AC00044670020806500204C650020D707000057
:105AD0008081000000F9150070B50E48846C03F059
:105AE00089F80D4DFF21E87801310AF08DFB012185
:105AF000E87849020AF088FB0321002002F0F2FB5B
:105B00000020E0712071A0718122802100F036FC1C
:105B100070BD000044670020806500200449098CA6
:105B20000170002141700349097C81700020704799
:105B3000446700204C65002010B5FFF747FE0028A1
:105B400005D0C179012902D1417B462901D002202B
:105B500010BD0146062220310A7147224273C878DF
:105B600001221043C870002010BD70B50C46FFF72D
:105B70002DFE002802D0C179012901D0012070BD7D
:105B8000417B46292FD1A27BE17B12028918627BDF
:105B9000237B12041B06D2188A1801468031CA6280
:105BA000A37AE27A1B02D218637A257A1B042D06A7
:105BB0005B19D2180A63A379E2791B02D2186379C0
:105BC00025791B042D065B19D2184A63A378E27865
:105BD0001B02D218637824781B0424061B19D218E0
:105BE0008A6350214173002070BD70B50D46FFF7E8
:105BF000EDFD040006D02946FFF76AFD2034207130
:105C0000002070BD122070BD70B50C460146200406
:105C100012D508460AF0BEF805000AD02878802878
:105C200001D0812802D1284600F072F828460AF0F7
:105C300089F80120C00363E03349E207886B8030B4
:105C4000002A05D00068002800D08047012057E0D6
:105C5000A20705D54068002800D0804702204FE009
:105C6000600703D5FFF718FC042049E02648A20688
:105C7000006C05D5806C002800D0804720203FE0D4
:105C8000E20605D5406C002800D08047102037E0A0
:105C90001D48A205806C06D5006E002800D0804704
:105CA000012040022CE0E20506D5C06D002800D09E
:105CB0008047FF20013023E0134AE004157915D511
:105CC00012484278D2070FD0002242704069032365
:105CD0004278521D1A43805CC00602D40889401CD9
:105CE0000881284600F096FA204670BDA00409D528
:105CF000CB798A794979284600F0DAFF0120400300
:105D0000604070BD002070BD44670020A065002089
:105D1000F0B5017800248DB0802902D081297DD092
:105D2000E0E1FF4E417835468035062977D006DC24
:105D30000B0002F073FC060D44F6F5F4F3F60729A8
:105D40006ED081296DD082296CD08629E8D185E179
:105D50004088FFF73BFD050070D0E87B400602D489
:105D600003200DB0F0BD2E46AC758036F06F0028D4
:105D700023D04368827A017AA8889B1CFEF74AFDEB
:105D800000280DD1F06FFF22818912021143818119
:105D9000F06F0068F067A88F002801D0401EA88728
:105DA000F06F002809D0A8880022802100F0E6FAD0
:105DB000002801D10120A8750BE2AC8709E24088D8
:105DC000FFF704FD0700C7D0F879012837D0B66C7B
:105DD000002EC1D06879800773D53420805D0228F9
:105DE00070D00622002107A809F090FF3546403503
:105DF0002879022867D00622002109A809F086FF29
:105E00000622A91D0BA809F089FEF98DB88D7A8D9F
:105E1000039204AB13C309AA07A904E04FE107E109
:105E20002CE196E0A7E00BA86B4607C324206B7912
:105E3000B988C05D0022FEF766FC85E00AE1B46B1C
:105E4000002C89D0687980073ED5254660352879B1
:105E5000022812D00622002107A809F057FF687D0A
:105E6000022811D321460622763109A809F056FEF0
:105E7000216E06220BA8091D0FE02146062207A865
:105E8000663109F04BFEEAE70622002109A809F075
:105E90003DFF2146062276310BA809F03FFE384629
:105EA0002030798D8479FB8DBA8D03AE1EC609AB87
:105EB00007AA0BA96C460EC46B7DB9880079012234
:105EC000B9E72FE011E017E038462030798D857969
:105ED000FB8DBA8D01AE2EC621467631009160341D
:105EE000637DB988007901222CE0314606223631E3
:105EF00007A809F013FE79E731460622463109A8C2
:105F000009F00CFE716D06220BA8091D09F006FEB2
:105F1000706D0221C0780843687176E775E05EE035
:105F20004CE0DFE0F88DB98D7A8D03903046463035
:105F30000192009004940291403624207379B9882C
:105F4000C05D0022FEF7B9FBF87B40210843F873DF
:105F50003FE1B06C00287DD0C28A818AC38C02AD3B
:105F6000019316C501464631009140300022437925
:105F7000114602201FE0B06B0028ECD06979890738
:105F80000DD5059406940023039404940094019481
:105F9000012219463C200294FEF7B5FB19E10146A7
:105FA0006E31009101940294039460300494437B19
:105FB000012200213C20FEF780FB0AE14088FFF728
:105FC00005FC0028C7D001464031CA8A00928B8A5E
:105FD0004A8A818820300079FEF77CFBF9E040880E
:105FE000FFF7F4FB0028B6D0C1790129818807D0DA
:105FF0002422135C0246DC321846FEF7A8FBE8E0D8
:106000002422135C0246D432F6E74088FFF7DEFB19
:1060100000281FD0C11DFC314A7E097E12020A43AE
:1060200001468388FF3114311846FEF77CFBD0E02F
:106030004088FFF7CBFB04000CD020464030C18ADB
:106040000091838A028EC18DA088FEF790FBA07B11
:10605000042100E07BE00843A073BAE04088FFF72A
:10606000B5FB002873D001464031CA8A00928B8A62
:106070000A8EC98D8088FEF7C7FBAAE04088FFF72B
:10608000A5FB002863D00146FF3144314B7C0A4612
:106090000C7C1902214300910146FF3142314B7CB7
:1060A0000C7C1B022343547D157D22022A434C7D28
:1060B0000D7D210229438088FEF716FB89E0417897
:1060C0001A296BD008DC05290ED0082934D00C29F8
:1060D00045D0132906D153E0302969D0572975D00E
:1060E000FF2976D001203CE64088FFF76FFB0500D2
:1060F0006AD0F4204659002E10D0706809F080FD57
:10610000E88F3668401CE887002EF6D10204120C96
:1061100004D0A9880120FEF769FBEC874E2001E03E
:1061200044670020425D2420A988405DFEF793FA71
:106130002846FFF783FA4CE04088FFF747FB00282A
:1061400042D04621095C002902D0012201E03BE057
:106150000022818820300079FEF781FA39E04088FA
:10616000FFF734FB00282FD0014640318A89009286
:106170004B894A7A818820300079FEF73FFB28E07E
:106180004088FFF723FB05001ED0EA8F002A20D0AD
:10619000A9880120FEF72AFBEC871AE04088FFF768
:1061A00015FB002810D020300079FEF74CFA10E0E3
:1061B0004088FFF70BFB002806D08188203000794B
:1061C000FEF751FA05E001E00220CAE54088FEF73B
:1061D00031FA0020C5E570B505460024FF210120F5
:1061E00002F04BFC2855641CE4B2082CF6D30020C6
:1061F00070BD0000064A0021531880331B7B0370DA
:10620000491CC9B2401C0629F6D300207047000083
:106210004467002010B5002803D00B2803D8401E87
:1062200006E025200CE00C2804D0262804D8801E87
:10623000C0B205E0262003E0272801D0122010BDBF
:1062400002F0A2FC002010BD10B50C46FFF7BEFA0C
:1062500000280FD024210C54817B4A070AD5FB2249
:106260001140817380300122816892031143816063
:10627000002010BD122010BDFFB581B016460F469C
:10628000FFF7A4FA04463A49B81F88426ED2481D67
:1062900086426BD8BE4269D3FF220499F432914200
:1062A00064D80A99814261D80498C900401C70439F
:1062B000400081425ADD002C58D0A07B410749D5CF
:1062C000FB2108402546A0734035EF852E86E079F6
:1062D000002808D0204680300122816852031143F3
:1062E0008160102035E0688C2249884204D0B74292
:1062F00002D12882608D09E0E88B0090002807D049
:1063000001463046FAF75CFF0099484368820AE08C
:10631000B8194108384602F093FB68822146523191
:10632000304607F02BFB1448006E411C042901D9AC
:10633000042000E0401CE873204607F0C9FA208FD3
:1063400004220A302883204680308168114381600E
:106350001120A07640340B9860860C98A086049893
:10636000A0820A98E082002005B0F0BD1220FBE771
:106370007B0C0000FFFF00004467002070B506465C
:1063800014460D46042009F0C9FC010007D00D7029
:106390004C7004484E80C07809F034FD70BD042074
:1063A00070BD000080650020F0B5002787B005466D
:1063B000384800970197029703973E46846F0CE098
:1063C000E078E978884206D11022291D201D09F0C5
:1063D00097FB012842D02646E46B002CF0D11A210D
:1063E000402009F0B7FB040038D0E878E0700622BE
:1063F000291D201D09F092FB20461A302946102243
:106400001A310590049009F045FD10226946049860
:1064100009F076FB002823D0A772294620462A30AF
:1064200010222A31054609F035FD1022694628461A
:1064300009F066FB00281FD0A774164D2046296B73
:1064400007F052FB002E23D0F4631249E76340317A
:10645000888E401C80B2888607B0F0BD0020FBE724
:106460000120A072E07802210843E07221460C313D
:106470000598FEF741FFD0E70120A074E0780221E3
:106480000843E074214614312846FEF735FFD4E76F
:10649000AC67DAE74467002070B50A4DFF26AC6FA1
:1064A00007E0207809F08CFE26702046E46B09F0A6
:1064B000A7FB002CF5D100200249A867403188864F
:1064C00070BD00004467002010B504490020888694
:1064D00040398867FEF752FF10BD00008467002036
:1064E00070B505460848846F07E02046A91C1A309D
:1064F00007F0D0FA012804D0E46B002CF5D100207D
:1065000070BD204670BD00004467002070B5054690
:106510000B48846F0DE06878E178C007C00F8842AF
:1065200006D10622211DA81C09F0EAFA012804D090
:10653000E46B002CEFD1002070BD204670BD000040
:106540004467002070B505460848846F07E0204680
:10655000A91C2A3007F09EFA012804D0E46B002C15
:10656000F5D1002070BD204670BD000044670020BA
:1065700010B50648C078002804D1054801F09CFEFB
:10658000FFF744FA04490348486410BD80650020C1
:10659000095C00008DD600004467002070B50F48EC
:1065A000046C02F027FB0025A5710421284601F0A8
:1065B00099FE0B4928208877E5712571E06909F07B
:1065C0001FFB2583E5612562064C1021E07809F068
:1065D0001BFEE078202109F017FE70BD4467002003
:1065E0004C65002080650020FFB583B015460F463E
:1065F000FFF7ECF804003AD02046FF30423001901B
:10660000417D007D0E020643AE4259D2681E30180D
:106610003146FAF7EBFD87B23E48761D0640384614
:10662000704380B20B2109F095FA009000286FD0DA
:106630003848A838FFF7DAF8002836D0017B818186
:106640008034616F002915D0A16F0860A067A16F29
:1066500000200860A06F4581A16F01204872802052
:10666000A16F00250872A16F0098486017E0022012
:1066700007B0F0BD6067E9E7A06F069B4168304650
:10668000684308180199801C4A7D097D12020A435B
:1066900011466943C91809F041FA6D1CEDB2BD42BB
:1066A000EAD3069809F0ACFA27E01B48026B002AEF
:1066B00002D01A4902209047009809F0A1FA27E079
:1066C0001448A838FFF792F800281AD0017B81817E
:1066D0008034616F002912D0A16F0860A067A16F9C
:1066E00000200860A06F4581A16F01204872A06F53
:1066F00007720698A16F801E48600020B8E76067A7
:10670000ECE70548026B002A02D0044902209047BA
:106710000720ADE7FCFF00004C650020AA550000F3
:10672000114A916B002902D0097B00290BD1116C11
:10673000002902D0C979002905D1916C002904D023
:10674000C979002901D0122070475070064A803262
:106750005179002802D00620014301E0F9200140D0
:1067600051710020704700004467002070B538491F
:10677000C96B00296AD0364A0028946B02D00128E0
:1067800009D063E0002C61D0207B00285ED0FEF7AA
:106790008DFE002070BD01260025F602002C10D1D0
:1067A0008847040018D026826682A5760720E07606
:1067B000652005552649204606228C31663009F0B1
:1067C000ADF9207B012841D0A07E010706D000074B
:1067D000000F012802D009E0032070BD07F06AF81D
:1067E0001C49097F8907890F88422FD0A07E0107A5
:1067F000090FA17101280AD0208A628A80184008F6
:1068000001229203A08290420BD9A28214E00620BA
:10681000A0821148E582C0783246042109F096FC36
:106820000FE0022904D0062902D020280CD302E070
:10683000A02800D2A020A0821021002002F000F9A0
:10684000E082E06F804770BD2020F4E7122070BD29
:10685000446700204C6500208065002070B5044628
:106860000D480D46C26B002A03D0806B002802D071
:1068700004E0122070BD904700280AD0E206D20E34
:106880000277002C03D029461E3009F047F900207A
:1068900070BD032070BD000044670020FFB529498A
:1068A00081B0C86B0B9D1E461746002803D08C6B29
:1068B000002C03D005E0122005B0F0BD8047040095
:1068C00015D0019820820298012100226082012FB8
:1068D0000FD0022F0FD0032F0FD0042F0FD0A2768E
:1068E0002046603046712B78002B1AD10AE0032035
:1068F000E2E7A176F4E7062002E0022000E01120A2
:10690000A076EDE76B78002B0BD1AB78002B08D18C
:10691000EB78002B05D12B79002B02D16B79002B62
:1069200009D001730A9941732046062229466E3028
:1069300009F0F4F800E002730C98E0760D98E0722C
:106940000020B9E74467002070B515460C46FEF7F5
:106950003DFF002827D0154A138CA34205D30146DA
:10696000FF3124310C77230A04E00146FF31243142
:106970000B771B0A4B77518CA94206D30146FF3196
:1069800042310D702A0A4A7005E00246FF32423257
:106990001170090A5170803001228168120311437D
:1069A0008160002070BD122070BD0000446700208F
:1069B00010B5040024D01C498A6B002A02D0107B39
:1069C00000280BD1086C002802D0C079002805D11E
:1069D000886C002804D0C079002801D00C2010BD9C
:1069E00001208870104806222146923009F096F85E
:1069F00062799309032B05D0900908D0012B0BD0A5
:106A0000122010BD084806222146983008E00648AA
:106A1000062221469E3003E0034806222146A43088
:106A200009F07CF8002010BD4467002070B51921E2
:106A3000084D890148432863AC6F06E02078FF28A1
:106A400002D0296B09F0FCFBE46B002CF6D100208E
:106A500070BD00004467002010B50C461E494B6C09
:106A6000002B05D00A6C002804D0012807D00EE0C6
:106A70000C2010BD002A0AD0FFF790FD29E0002A63
:106A800007D01046C179012901D000290ED012206B
:106A900010BD9847002807D00021C1721022428201
:106AA000828225221154EDE7032010BD428A012184
:106AB00089038A4200D94182828A418A8A4200D966
:106AC0008182818A55225143090AC1828473006CF4
:106AD0008047002010BD000044670020F8B507463D
:106AE0000F480C46416C1E461546002905D0006C27
:106AF000002804D0C179002904D00C20F8BD8847B3
:106B000000280BD0C7724482A54200D22C46848252
:106B100025210E54069901730020F8BD0320F8BD0D
:106B20004467002070B505460C480C46C26B002A2D
:106B300003D0806B002802D004E0122070BD904783
:106B4000002808D0EA06D20E427721463E3008F0EF
:106B5000E5FF002070BD032070BD000044670020E9
:106B6000F8B51C4616460F46FEF730FE050002D06B
:106B7000E879002801D00220F8BD2846FF3008221D
:106B80003946143008F0CAFFE81DFC300676310A99
:106B90004176A17BE07B09024118607B227B0004E7
:106BA000120680182E4608188036F062A17AE07A24
:106BB00009024018617A227A0904120689184018DD
:106BC0003063A179E07909024018617922790904DA
:106BD0001206891840187063A178E07809024018FD
:106BE000617822780904120689184018B063284693
:106BF00040308179002904D00121C1712021B06881
:106C000051E009F02BF902460020C3001146D9409B
:106C10002B18FF330133401C59770428F5D309F0B2
:106C20001DF902460020C3001146D9402B18FF333E
:106C30002133401C59700428F5D32C46E81DFF343D
:106C4000F9302134C27F217812028918827F407F77
:106C50001204000610180818B062E17820790902C1
:106C60004018A178627809041206891840187062E9
:106C700009F0F4F802460020C3001146D9402B1851
:106C8000FF332133401C59710428F5D3A179607971
:106C900009024018E179227A09041206891840187D
:106CA000F063B06840210843B0600020F8BD0000E8
:106CB000FFB505003A4881B00469164603D00B2D94
:106CC00003D86D1E06E025250AE00C2D04D0262DE4
:106CD00004D8AD1EEDB203E0262501E0272D0FD12B
:106CE000002E10D0012E19D0022E1AD0032E1BD048
:106CF000042E24D0052E25D0062E26D0072E27D0F0
:106D0000122005B0F0BD002704E0FBF771FAE1198D
:106D100088707F1C02988742F7DB1EE0F021029A00
:106D200018E0AA21029A15E0002704E0FBF73EFADA
:106D3000E11988707F1C02988742F7DB0DE0FF2184
:106D4000029A07E00021029A04E00F21029A01E072
:106D5000029A5521A01C08F0D9FF3007000F2070BF
:106D600002986070049881060298890E401D800880
:106D7000800021540498029A000601D5012100E008
:106D80000021284601F066FF054800E000BFC178F9
:106D90000029FBD003490889401C08810020B0E786
:106DA000A065002044670020F8B51A4F054600266C
:106DB0003C6F0CE060786978884206D10622A91CF5
:106DC000A01C08F09DFE01281ED02646A468002CB9
:106DD000F0D119210C2008F0BDFE040015D0687810
:106DE00060700622A91CA01C08F098FE386F0028CD
:106DF0000DD0002E00D0B4600020A06005484030C7
:106E0000818D491C81850120F8BD0020F8BD3C67BB
:106E1000F2E700004467002070B5074D2C6F03E0D7
:106E20002046A46808F0ECFE002CF9D100200249AD
:106E300028674031888570BD4467002002490020E2
:106E400008674031888570474467002073B50A4859
:106E50006D46046F0CE0694660784978884206D137
:106E60000622A91CA01C08F04BFE012803D0A46830
:106E7000002CF0D100207CBD4467002070B5314863
:106E800009210068C9018162826C07210907032377
:106E90008A435B07D2188264836C0F221203032497
:106EA000934364031B198364836CCC002343836482
:106EB000C36C0C15A343C364436D80242343436513
:106EC000C36B934322029A18C263C36B0A119343A4
:106ED000A4041B19C363C36BDC000123E4089B07F4
:106EE000E418C463C46D0C43C465C56D0C1225431E
:106EF000C565C56D0E133543C565C56D9543C5653F
:106F0000C56AA5435C122C19C462C46A9443052265
:106F10001206A218C262C26A032424032243C26278
:106F2000C26A24012243C262026B12091201026387
:106F3000026BF024A2430263026B8A43D1180163FF
:106F400070BD0000E0420020FFB53B480068826D44
:106F5000012109048A43826582680A438260002510
:106F6000014680312B468C466E46C168FF240134B1
:106F7000A143C1604168220211434160C1682143BD
:106F8000C1606146C968C905FBD500BF00BF00BF2D
:106F900000BF6146C9680C074168240F91434160F6
:106FA0000F2C01D06D1CEDB2002110E0725CA242EA
:106FB0000BD91A4605E0B718203FFF7FB754521E81
:106FC000D2B28A42F7D1745403E0491CC9B2994243
:106FD000ECD3994200D17454032D05D05B1CDBB275
:106FE000102BC2D3002D1ED03178082902D9324689
:106FF000C91E0DE0042902D93246891E08E0012984
:1070000002D93246491E03E0002902D1032132464B
:107010001170816D0F22D201914332781207520D07
:1070200011438165FFBD826D0F21C9018A4305218E
:10703000C9015118F5E70000E042002010B51A48D8
:107040000068016D01231B049943016581685C019F
:1070500021438160C26810210A43C260C2688A432A
:10706000C26000BF00BF00BFC2680A43C26041687F
:10707000012212031143416001468031CA69D205E1
:10708000FCD500BF00BF00BFC969026DC906C90EAB
:107090001A430265026D520952010A430265816872
:1070A000A143816010BD0000E0420020F0B5FF4820
:1070B00087B005686868FF21013188436860A86A65
:1070C00009018843A862E86A10218843E862A86839
:1070D0004A031043A860686808436860686840080D
:1070E00040006860A86BF24A0321104089034018F1
:1070F000A86368680123184368602C4680342069BF
:107100004001C10F20698001C00F0029F7D000287D
:10711000F5D0206986066069B60EC003400E019066
:107120006868400840006860A86BE72110400902C9
:107130004018A86368681843686020694001C10F5F
:1071400020698001C00F0029F7D00028F5D0206900
:107150008006800E04906069C003400E0690686847
:10716000400840006860A86BD32110400902401815
:10717000A86368681843686020694001C10F2069EE
:107180008001C00F0029F7D00028F5D020698006C3
:10719000800E039060692721C003400E029003987F
:1071A000301A06464843FAF721F80007216A000F13
:1071B0000909090108432062262070432721FAF7B4
:1071C00015F80007226A000EF0218A43104320625E
:1071D000252070432721FAF709F80007226A000DDD
:1071E0000F2109028A431043206224207043272183
:1071F000F9F7FCFF0007226A000C0F2109038A43FC
:1072000010432062232070432721F9F7EFFF000786
:10721000226A000B0F2109048A43104320622220B6
:1072200070432721F9F7E2FF0007226A000A0F21C5
:1072300009058A4310432062700130182721F9F7AD
:10724000D5FF0007216A00090F273F06B94308430D
:10725000206270012721F9F7C9FF216A000709019F
:107260000909084320627001801B2721F9F7BEFF3E
:107270000007616A000F09090901084360621E20C6
:1072800070432721F9F7B2FF0007616A000EF02270
:107290009143084360621D2070432721F9F7A6FF40
:1072A0000007616A000D3A149143084360621C2094
:1072B00070432721F9F79AFF0007616A000C3A131F
:1072C0009143084360621B2070432721F9F78EFF2A
:1072D0000007616A000B3A1291430843606230462E
:1072E0001A2148432721F9F781FF0007616A000A44
:1072F0003A119143084360623046192148432721DF
:10730000F9F774FF0007616A0009B9430843606236
:107310003046182148432721F9F768FF616A0007C2
:1073200009010909084360623046172148432721B3
:10733000F9F75CFF0007A16A000F0909090108437A
:10734000A062162070432721F9F750FF0007A16AB9
:10735000000EF02291430843A062152070432721BC
:10736000F9F744FF0007A16A000D3A14914308435E
:10737000A062142070432721F9F738FF0007A16AA3
:10738000000C3A1391430843A06213207043272155
:10739000F9F72CFF0007A16A000B3A12914308434A
:1073A000A062122070432721F9F720FF0007A16A8D
:1073B000000A3A1191430843A06230013018272196
:1073C000F9F714FF0007A16A0009B9430843A06256
:1073D00030012721F9F70AFFA16A0007090109090D
:1073E0000843A0623001801B2721F9F7FFFE000748
:1073F000E16A000F090909010843E06230460E21E5
:1074000048432721F9F7F2FE0007E26A000EF02157
:107410008A431043E06230460D2148432721F9F7A3
:10742000E5FE0007E26A000D39148A431043E0626A
:1074300030460C2148432721F9F7D8FE0007E26ABD
:10744000000C39138A431043E06230460B21484355
:107450002721F9F7CBFE0007E26A000B39128A43B5
:107460001043E06230460A2148432721F9F7BEFE67
:107470000007E26A000A39118A431043E062F00013
:1074800030182721F9F7B2FE0007E16A00093A46F1
:1074900091430843E062F0002721F9F7A7FEE16A73
:1074A0000007090109090843E06203E0E042002007
:1074B000FF00FEFFF000801B2721F9F797FE000771
:1074C000216B000F0909090108432063304606219A
:1074D00048432721F9F78AFE0007010E206BF022AE
:1074E000904301432163B00030182721F9F77EFE55
:1074F0000007226B000D39148A4310432063B0004B
:107500002721F9F773FE0007226B000C39138A4319
:1075100010432063700030182721F9F767FE000739
:10752000010B206B3A129043014321637000272125
:10753000F9F75CFE0007226B010A38118243114300
:10754000216330462721F9F751FE0007226B00091D
:1075500039468A4310432063206B000100092063F1
:1075600004990398471A28213846F9F73FFE000787
:10757000616B000F09090901084360637800282145
:10758000F9F734FE0007616B000EF02291430843C7
:107590006063780038182821F9F728FE0007616B2E
:1075A000000D0F221202914308436063B8002821A6
:1075B000F9F71CFE0007616B000C0F2212039143C8
:1075C00008436063B80038182821F9F70FFE000758
:1075D000616B000B0F221204914308436063062085
:1075E00078432821F9F702FE0007616B000A0F2299
:1075F0001205914308436063F800C01B2821F9F786
:10760000F5FD0007626B00090F2109068A4310434C
:107610006063F8002821F9F7E9FD616B00070901B3
:10762000090908436063F80038182821F9F7DEFDDE
:107630000007A16B000F090909010843A063384640
:107640000A2148432821F9F7D1FD0007A26B000E5B
:10765000F0218A431043A06338460B214843282178
:10766000F9F7C4FD0007A26B010D0F200002824351
:107670001143A16338460C2148432821F9F7B6FD90
:107680000007A26B010C0F20000382431143A1638A
:1076900038460D2148432821F9F7A8FD0007A26BC1
:1076A000000B0F2109048A431043A06338460E21C2
:1076B00048432821F9F79AFD0007A26B010A0F2021
:1076C000000582431143A1633801C01B2821F9F74B
:1076D0008DFD0007A26B00090F2109068A431043A4
:1076E000A06338012821F9F781FDA16B000709018A
:1076F00009090843A063380138182821F9F776FDF5
:107700000007E16B000F090909010843E0633846EF
:10771000122148432821F9F769FD0007E26B000EAA
:10772000F0218A431043E06338461321484328215F
:10773000F9F75CFD0007E26B000D0F2109028A4397
:107740001043E0633846142148432821F9F74EFDE1
:107750000007E26B010C0F20000382431143E16339
:107760003846152148432821F9F740FD0007E26B10
:10777000010B0F20000482431143E16338461621B8
:1077800048432821F9F732FD0007E26B000A0F2178
:1077900009058A431043E0633846172148432821EE
:1077A000F9F724FD0007E26B00090F2109068A435F
:1077B0001043E0633846182148432821F9F716FDA5
:1077C000E16B0007090109090843E0633846192104
:1077D00048432821F9F70AFD0007216C000F090929
:1077E00009010843206438461A2148432821F9F743
:1077F000FDFC0007226C000EF0218A431043206438
:1078000038461B2148432821F9F7F0FC0007226C79
:10781000000D0F2109028A431043206438461C21C1
:1078200048432821F9F7E2FC0007226C000C0F21E5
:1078300009038A431043206438461D214843282108
:10784000F9F7D4FC0007226C000B0F2109048A43CE
:107850001043206438461E2148432821F9F7C6FC0E
:107860000007226C000A0F2109058A431043206497
:107870007801C01B2821F9F7B9FC0007226C000928
:107880000F2109068A431043206478012821F9F763
:10789000ADFC216C00070901090908432064780147
:1078A00038182821F9F7A2FC0007616C000F0909BC
:1078B0000901084360643846222148432821F9F72A
:1078C00095FC0007010E606CF02290430143616457
:1078D0003846232148432821F9F788FC0007626CC9
:1078E000010D0F20000282431143616438462421B8
:1078F00048432821F9F77AFC0007626C000C0F213D
:1079000009038A43104360643846252148432821EF
:10791000F9F76CFC0007626C000B0F2109048A4325
:10792000104360643846262148432821F9F75EFC5D
:107930000007626C010A0F20000582431143616455
:107940003846272148432821F9F750FC0007626C8C
:1079500000090F2109068A43104360643846282134
:107960004843F9F743FC616C000709010909084322
:1079700060643846292148432821F9F737FC00077D
:10798000A16C000F090909010843A06438462A21A7
:1079900048432821F9F72AFC0007A26C000EF021C9
:1079A0008A431043A064069A02983946801A0A2234
:1079B00000905043F9F71AFC082108430007A16C16
:1079C000000D0F22120291430143A1640098394631
:1079D000C2008018F9F70AFC082108430007A16CCF
:1079E000000C0F22120391430143A1640098394611
:1079F000C000F9F7FBFB082108430007A16C000B4E
:107A00000F22120491430143A16400983946C20039
:107A1000101AF9F7EBFB082108430007A16C000AD4
:107A20000F22120591430143A164009806223946B2
:107A30005043F9F7DBFB082108430007A16C00095C
:107A40000F22120691430143A16400983946820037
:107A50008018F9F7CBFB08210843A16C0007090146
:107A600009090143A164009839468000F9F7BEFB7B
:107A7000082108430007E16C000F090909010143CF
:107A8000E1640098394642008018F9F7AFFB0821FD
:107A900008430007E16C000EF02291430143E164CA
:107AA000009839464000F9F7A1FB08210843000778
:107AB000E16C000D0F22120291430143E16439464B
:107AC0000098F9F793FB082108430007E16C000CCC
:107AD0000F22120391430143E16431460020F9F77C
:107AE00085FB0007E16C000B0F2212049143014358
:107AF000E164029A01983146871A3846F9F776FB15
:107B00000007E16C000A0F22120591430143E16472
:107B100031467800F9F76AFB0007E16C00090F2293
:107B2000120691430143E164780031463818F9F7B1
:107B30005DFBE16C0007090109090143E16431467D
:107B4000B800F9F753FB0007216D000F090909017F
:107B500001432165B80031463818F9F747FB0007A3
:107B6000216D000EF022914301432165062031462C
:107B70007843F9F73BFB0007216D000D0F2212023D
:107B8000914301432165F8003146C01BF9F72EFBF4
:107B90000007216D000C0F22120391430143216560
:107BA0003146F800F9F722FB0007216D000B0F2288
:107BB0001204914301432165F80031463818F9F762
:107BC00015FB0007216D000A0F22120591430143A6
:107BD00021650A2031467843F9F708FB0007216D3B
:107BE00000090F22120691430143216569681020A4
:107BF000814369606968490849006960A96A0202AD
:107C00001143A962E96A0143E962A86B81090398FB
:107C100089010143A963A86B7F2109068843029962
:107C200009060843A86307B0F0BD000003480068D8
:107C30004168FF220132114341607047E042002059
:107C400008B50448816B0091816B009A9142F9D18B
:107C5000104608BD0010004038B51648816B0091F1
:107C6000816B009A9142F9D1134C1046217DC907CE
:107C700005D0124900F0BAFC8A04810B04E01921F6
:107C800000F0B4FCCA05410A11430D4A90698842CC
:107C90000DD0884201D2081A07E0237DDB0701D00E
:107CA000084B00E0084B181A4018916138BD0020BD
:107CB00038BD0000001000404C6500203303000078
:107CC0008065002000796F0800603D08002908D019
:107CD000002A02D105E008C808C2491EFBD20020D4
:107CE0007047FD20704738B50D46040019D0002DAF
:107CF00017D00321684606F013FB694688784021B7
:107D00008006800E0843694688702A46204607F0A0
:107D10002CF9040006D103226946E81C07F0FEFE98
:107D200000E00224204638BDF7B58CB00C9815460B
:107D30000F46002831D0002D2FD0381D0A9080B278
:107D4000532107F007FF04003BD001F0C1FE0646B7
:107D50003A46201D0C9908F09DF8F0B20990E070A9
:107D60003004000E0890A0703002000E0790607082
:107D7000370E277001F0A6FE0146102201A808F078
:107D800089F8082000900A9805AB82B2214601A824
:107D900007F058F8060002D00FE0022612E009981A
:107DA0002870089868700798A870EF70082205A9D5
:107DB000281D08F06FF801F091FE204607F020FF23
:107DC00000E0132630460FB0F0BD000010B50246AB
:107DD00000F01EF80448062182701046FDF77EF977
:107DE000024805F001FC10BDEE420020CDE4000089
:107DF00005480649C078000702D508460C3000E067
:107E00000020486000207047EE4200206C440020B3
:107E10000A490020086048608860084808490C301A
:107E20000160084941600849816008490C300160DF
:107E30000749416007498160704700006C44002099
:107E400053F300006DE30000C57F0000EBF7000076
:107E500009EA000089E8000070B506460D460846AC
:107E600005F08CFA00280ED0446B002C06D0E07888
:107E7000022805D0032803D0042801D0122070BDA9
:107E8000A088A84201D0022070BD10223146E01D1A
:107E900007F044FE20462C301021054606F040FA3B
:107EA00023461C332A46E11D204607F08BF8207834
:107EB00002210028607803D0032807D1617009E00F
:107EC000042802D0032803D000E06170002070BDB8
:107ED00005206070204606F0F7F970BDF8B50D4634
:107EE000080417D51B4EB07807F054FF040009D0E2
:107EF00006F086FC002809D17078FF2806D02146BC
:107F000007F080FF0120C0036840F8BD204607F05D
:107F100019FFF7E7E8070127002804D006F0E6FA82
:107F200028467840F8BD002D12D001240CE03846D8
:107F3000A04086B2354205D0304606F077FF28468D
:107F40007040F8BD641CE4B205F030FBA042EED8EE
:107F50000020F8BDEE4200207CB50D46040015D08F
:107F6000002D13D00322E91C684607F0D7FD6946AF
:107F7000887840218006800E08436946887001AAEF
:107F8000204606F0F2FF040002D009E0022407E0D8
:107F90000322294601A807F0B3FD012800D00124DF
:107FA00020467CBD05480649C078400702D50846F2
:107FB000183000E00020886000207047EE4200206A
:107FC0006C440020FFB50F4683B01E461446532173
:107FD000102007F0BFFD050029D0002F22D06946F0
:107FE0000C72200A487210220021284607F08EFEEB
:107FF000394628460C9A07F091FD002E05D008223C
:108000003146684607F08AFD04E0082200216846F0
:1080100007F07CFE2B4602AA69460398FCF7DAFBC0
:10802000044600E00224284607F0EAFD00E013249D
:10803000204607B0F0BDFFB581B01F46039805F09C
:108040009DF9060005D0706B0025002804D011258D
:108050003AE0022005B0F0BD1320FBF7FBF9C4B2F3
:108060001420FBF7F7F9C1B2002F2CD0387EA042C4
:1080700029D3884227D85321702007F06BFD04468E
:10808000706320001DD07022002107F03FFE002009
:108090006070019921700299A1700399A180E76530
:1080A000A061E0700198002803D0204606F01EF978
:1080B000054601206070002D06D0304606F0DCF841
:1080C00002E0132500E002252846C3E7FFB587B08C
:1080D0000998109D0E4600281FD0002D1DD007982E
:1080E00005F04CF904001BD05321102007F032FD9D
:1080F000019000285FD06978287809024018A97893
:10810000EA7809041206891841180691A06A884283
:1081100008D3401C06D0022449E002200BB0F0BD79
:108120001420FBE7002E02D0207980073ED50822DC
:10813000002102A807F0EAFD0A9F53213F1DB8B2B3
:1081400007F008FD06002FD0301D0A9A099907F0A4
:10815000A1FE04222946304607F09CFE214610224B
:108160001831019807F096FE08200090BAB202ABD1
:108170003146019806F066FE04000CD1082202A9DF
:1081800004A807F087FE0822291D04A807F0B8FC00
:10819000012804D00124304607F032FD07E006999B
:1081A000079802F07BFCF6E7132400E00124019815
:1081B00007F026FD00E013242046AFE770B50C461B
:1081C000014620040AD5084607F0E4FD002801D046
:1081D00007F0B8FD0120C003604070BD6004FCD012
:1081E000002632462046D040C00713D0002901D0D7
:1081F0000F2000E000200B4980184968C000451896
:108200000120904086B2296868688847002028606D
:10821000686003E0521CD2B20F2AE3D320467040BC
:1082200070BD00002842002070B507F03FFD1C2201
:1082300000211E4807F06AFD1C4820220021503012
:1082400007F064FD1A4D0020286168611748174C3B
:108250001C30007F50348107890F800808184100C6
:1082600040180D30C0B2A07006214843FF210231F2
:10827000F03007F06FFC6860F030A860A1788900EA
:108280000818E86007F080FD07F044FE6078094AAE
:108290008100A86842506178491CC9B261708900A8
:1082A00042506078401C607070BD00003065002056
:1082B00028420020BD81000010B5084902464878D8
:1082C0008B78984207D2064C8300A468E2504A7823
:1082D000521C4A7010BDFF2010BD000080650020B8
:1082E00028420020072902D2014A890050507047D5
:1082F00030650020FEB5864D02E0804700F080FD2D
:1083000028680028F9D10124A0002858002807D0A7
:1083100080477F481C30407D002801D0F9F7EAFDF6
:108320002868002875D1641CE4B2072CECD3784C83
:10833000784E50346278F06821784B00C35A002B95
:1083400004D1491CC9B221709142F5D3C9B29142FE
:1083500011D24A00815A002383522078B3688200E8
:108360009A5890472178F2684900535A0343535270
:108370002078401C207020786178884201D300204A
:10838000207063480068002843D17069002840D0FD
:10839000804700283DD061690546091861610021C8
:1083A000C9435C4821610669002E29D00027B068C6
:1083B000A84201D8002000E0401BB06054481C30A7
:1083C000406A002804D02169B068814200D9206148
:1083D000B06800280DD1718800291BD0307807F0D3
:1083E00063FD7068002801D0B06002E0B06800282A
:1083F00010D0708800280DD03746F668002ED6D1F0
:10840000434D1C35686A002803D00020414A61783A
:1084100014E07CE0002F06D0F068F8603046F66883
:1084200007F0EEFBEAE73B48F1680161F6E7D66842
:108430004300F35A002B6AD1401CC0B28142F6D8E7
:108440003349032082008A58002A60D1401CC0B200
:108450000728F7D301A8FDF779FA02462E49401CF8
:1084600024D0EB7C019EB34251D22069471C16D028
:108470002A7DD20702D01422504302E02922504321
:108480004008834243D2864200D23046C61A23486F
:10849000826B0092826B009B9A42F9D11DE09A4256
:1084A00001D3D01A1FE0D01A40181CE02069421CEA
:1084B0002DD02A7DD20702D01422504302E0292277
:1084C00050434008EA7C824221D2861A1348826BCC
:1084D0000092826B009B9A42F9D19819884202D38C
:1084E0000D4A52428018002802D0696A884702E08B
:1084F0006A6A084690470006000E08D120890028C5
:1085000005D0F9F797FEFCF755FEF9F755FCFEBDCF
:1085100030650020284200200000C0A80010004064
:1085200010B504460848C16A002900D088470748AA
:10853000002C01D0046001E005490160054800F00D
:108540000BF8002010BD00004C65002044420020C4
:10855000417C0000597C000010B503494861804708
:108560000249886110BD000028420020806500207B
:10857000F0B5144EFD23757A84247472124CA768EA
:10858000002F07D0A77B002F04D0A489E71FFF3F4F
:10859000FA3F02D07572FF20F0BD7D24E402A042B4
:1085A0000AD34027491E07D3706008CA33609A2354
:1085B0003372B37A7B4002D075721846F0BD001D4D
:1085C000F0E70000001800404C6500200FB410B523
:1085D00003A9044B044A029800F03CF810BC08BC04
:1085E00004B01847310D0000EC440020F8B5040C2D
:1085F0008BB2264682B25E430D0C1046370C5843B0
:10860000360480190021794116466E43370C360432
:108610008019794126466E438919F8BD30B47446F5
:10862000641E2578641CAB4200D21D46635D5B006E
:10863000E31830BC184702E008C8121F08C1002A1E
:10864000FAD170477047002001E001C1121F002AD3
:10865000FBD17047FFB58FB00F460446002606E0F9
:1086600025280AD0129A11999047641C761C20780C
:108670000028F5D1304613B0F0BD00250121A14AF4
:10868000009500E00543641C23780846203B984091
:108690001042F7D120782E2815D1042005436078A8
:1086A000641C2A280AD101CF641C00900BE00099B9
:1086B0000A22514330394018641C0090207801464A
:1086C00030390929F3D920786C280ED004DC4C28E5
:1086D00013D06A2812D104E074280ED07A280DD164
:1086E0000BE001204005054307E001210905627800
:1086F0000D43824201D16D18641C641C20788646AB
:1087000069284AD008DC0028B4D058286DD06328E6
:1087100010D0642808D140E070286BD0732812D0A4
:10872000752860D0782860D0129A704611999047C9
:10873000761CE5E03878694608720020487202A885
:108740000190012003E0386801900020C0433F1DE4
:1087500069070CD5002500E06D1C00998D420FDAE9
:108760008542F9DB0199495D0029F5D108E0002532
:1087700000E06D1C8542FCDB0199495D0029F8D1C0
:10878000761907E0019801990078491C0191129A25
:10879000119990476D1EF5D2B2E00A200290002197
:1087A0006802400F039102280CD001CFC117844604
:1087B00000290DDA62460846524200218141944662
:1087C0002D2008E0FF1DFF08FF0003CF8446EFE7E0
:1087D000280504D52B206A46107401203CE0E807E8
:1087E0003AD02020F7E70A2000E010200021039172
:1087F000029007E010200290002104200543082089
:10880000039100906802400F022810D001CF002190
:10881000844600200D9028071FD5704670280CD084
:10882000029A1020039B42401A430CD015E0FF1D12
:10883000FF08FF0003CF8446EBE740206A46107430
:1088400001200D900CE06046084306D030206A46B7
:1088500010747046507402200D907046582804D051
:1088600029A001900DA80E900DE02CA0F9E760461C
:10887000039B029AF8F72DFD019B84469B5C0E9AA0
:10888000521E0E92137060460843F0D10E9805A94F
:10889000081A20300190680701D5009801E00120F6
:1088A00000900199884203DD01460198081A00E012
:1088B00000200025009006E004A8129A405D11995E
:1088C00090476D1C761C0D988542F5DB04E0129AEA
:1088D000302011999047761C0099481E009000297D
:1088E000F5DC08E00E980E990078491C0E91129A5A
:1088F00011999047761C0199481E01900029F1DCDE
:10890000641CB4E60928010030313233343536377F
:1089100038396162636465660000000030313233CB
:10892000343536373839414243444546000000006B
:10893000FFB583B00C9C1646002C01D0002708E040
:1089400001270398F9F768F80421FCF723FC0400D9
:1089500014D0267004980125002805D0049A601CC4
:1089600006999047401C85B2300614D51021039813
:1089700004F06EFE002804D0192616E0132007B07C
:10898000F0BD621929462046FFF7CEF90C350646A0
:10899000ADB2002809D104206946088001944D80B9
:1089A0000398FCF7B1FB0600E9D0002F02D0204667
:1089B00007F026F93046E2E7F8B50746069800903A
:1089C0001E4614463846FFF7B3FF05000BD1074893
:1089D0000268002A07D0012C02D13078401CC4B2B2
:1089E0002146384690472846F8BD0000E444002060
:1089F00030B5437803245B1D2343C45CE50601D5F1
:108A0000012030BD002903D0210601D5022030BD50
:108A1000002A03D0C1182039C97F1170C11820392C
:108A2000487F897F4907490D08430449420502D51B
:108A30001F22D20210430880002030BD4C4200208B
:108A400070B50D46044607F009FA2D1B02460023B7
:108A5000E9172846F8F7DEFB081980B270BD70B53B
:108A60000D46044607F0FAF900232D1B024628465E
:108A70001946F8F7CFFB081970BD70B50D460446CE
:108A800007F0ECF92D1B02460023E9172846F8F7FA
:108A9000C1FB0819C0B270BDF0B5364E94463268BD
:108AA00013689B0713D0136DDB08DB001365136895
:108AB00008242343136013681B0703D500BF00BFBE
:108AC00000BF00BF136DDB08DB005B1C13652A4F82
:108AD0003B68DC6A07221205944301225205A21862
:108AE000DA62DD6A072424060522A5431206AA18C5
:108AF000DA62224A1368DA6A92089200921CDA62F9
:108B00001D680122120715431D601A686546D209C7
:108B1000D2016D066D0E2A431A6098601861596083
:108B2000D960306841680123194341603968144DA8
:108B300000200A4680322D890EE01769FF0108D512
:108B4000C86A072212051043C862C86AA043C862F7
:108B500004E000BF00BF401C8542EEDC09484068CD
:108B6000002804D0C1680A68406902430A6030687E
:108B70000360F0BD48420020E0420020D8420020BF
:108B8000806500204C42002010B5144A592113681A
:108B90001965134909680B684024DB092043DB0190
:108BA0004006400E03430B600E4808610E48C86043
:108BB0000E4900204870106841684908490041602A
:108BC0000B484068002804D0C1680B684069034323
:108BD0000B6011680120086010BD000048420020B1
:108BE000D84200202941767155555500A0650020D6
:108BF0004C42002010B514480068016889070ED067
:108C0000016DC908C90001650168082211430160AE
:108C10000168090703D500BF00BF00BF00BF0022E5
:108C200002650A4B586800280AD041680C688068C1
:108C300004430C60586801690B68406903430B608A
:108C40000348C27110BD0000484200204C42002081
:108C5000A0650020F0B5614E0446306817460068F4
:108C60000D46800701D0FFF7C5FF31685A2008651F
:108C70005B49002D0868026809D04023D2091C43D3
:108C8000D20163065B0E1A430260564A07E0D2091E
:108C9000D20163065B0E1A430260524AD2438260DD
:108CA000096851484860514A11688868400B400380
:108CB000384388604E4B0020D870306843685B08AA
:108CC0005B0043604B4B00201B8904E000BF00BFEA
:108CD00000BF00BF401C8342F8D88868464BC004E0
:108CE000C00C3A2805D91D6830204349C043803163
:108CF000086042484068002804D001680C68806819
:108D000004430C6031680220086010688068C00469
:108D1000C00C3A2860D900BF00BF00BF00BF00BF31
:108D200000BF00BF00BF00BF00BF00BF00BF00BF4B
:108D300000BF00BF00BF00BF00BF00BF00BF00BF3B
:108D400000BF00BF00BF00BF00BF00BF00BF00BF2B
:108D500000BF00BF00BF00BF00BF00BF00BF00BF1B
:108D600000BF00BF00BF00BF00BF00BF00BF00BF0B
:108D700000BF00BF00BF00BF00BF00BF00BF00BFFB
:108D800000BF00BF00BF00BF00BF00BF00BF00BFEB
:108D900000BF00BF00BF00BF00BF00BF00BF00BFDB
:108DA00000BF00BF00BF00BF00BF00BF00BF00BFCB
:108DB00000BF00BF00BF00BF00BF00BF00BF00BFBB
:108DC00000BF00BF00BF00BF00BF00BF00BF00BFAB
:108DD00000BF00BF00BF1D60F0BD00004842002082
:108DE000D84200202941767155555500DC420020BB
:108DF000A06500208065002000E100E04C420020DA
:108E000008B51148407D002801D0F9F773F80F4BE1
:108E10001879000612D50E48816B0091816B009A7B
:108E20009142F9D10B491046C9680122814202D80A
:108E3000401A02D502E0081A00D51A710648806966
:108E4000002800D0804708BD4C650020A0650020A8
:108E500000100040806500203065002010B50C46F1
:108E600004F0A4FA002804D040882146FBF7EFFB69
:108E700010BD122010BD002917D0002815D00128E0
:108E800004D0022805D0032807D00CE04879C0227E
:108E900007E048798006800E04E048798006800E5D
:108EA00040221043487101207047002070470000A5
:108EB00010B5054C606B002803D006F043FF00207E
:108EC0006063207E607610BD90440020F0B54D4D6B
:108ED0000746686B87B00E4600281CD1002F7DD056
:108EE000002E7BD0384600F04FFA6876297E884203
:108EF00011D300240AE0E96B200140180622FF216B
:108F000006F0EFFD002805D1641CE4B2287E8442FF
:108F1000F1D3C4B26C76687E297E884270D2696BC8
:108F200000290DD08A680024002A27D00621484352
:108F30002130C0B21C2107F06BF8686B846050E0F0
:108F4000062148432030C0B23A46102107F060F8AD
:108F50001822FF21684606F0D9FE687E6A46703006
:108F6000C0B2182107F054F8687EE96B0001401880
:108F70001022394606F0D2FD6E6332E00A69002AFB
:108F800009D0062148432230C0B21C2107F040F826
:108F9000686B046125E04A69002A09D0062148432C
:108FA0002330C0B2102107F033F8686B446118E039
:108FB000CA68002A18D0062148432430C0B21021C4
:108FC00007F026F8686B0621C268687E10324843B5
:108FD0002530C0B2042107F01BF800E010E0686BF8
:108FE000C460002007B0F0BD687C002801D000F00C
:108FF00083FBA87C002801D000F046FB00F0E6FBD4
:109000000120EFE790440020F7B588B00446202205
:109010000021684606F07AFE6A4614805B48042503
:10902000817B1177FF2101310A9E4A008B000224C7
:10903000002E50D087786E463771C7787771069EBC
:109040004079BC467608C7077600FF0F3E43069678
:109050008607069E01D5264300E0A6430696C6066F
:109060004A4F069E01D50E4300E08E4306968106C8
:1090700006993E4601D5114300E091430691410611
:10908000069901D5194300E0994340070691084627
:1090900001D5284300E0A84306906046002805D08B
:1090A00001A810223A49023006F038FD3179002932
:1090B00005D00998002802D00698204306906846FB
:1090C000807D002900D001210843694688757178A8
:1090D00050E0042150E0077A6E463771477A777185
:1090E000069EC07ABC467608C7077600FF0F3E434F
:1090F00006968607069E01D5264300E0A6430696FF
:10910000C606224F069E01D50E4300E08E4306960A
:10911000810606993E4601D5114300E09143069130
:109120004106069901D5194300E09943400706918D
:10913000084601D5284300E0A84306906046002871
:1091400006D0134901A810221031023006F0E6FCC7
:10915000B17A002905D00998002802D0069820434A
:1091600006906846807D002900D0012108436946A9
:109170008875F1790029ACD108436946887568463D
:109180000A99F9F7A7FF0BB0F0BD0000904400204A
:1091900024670020F0B5064687B0062041430C9DA9
:1091A0001446082B1BD02131CFB21C220021684667
:1091B00006F0ACFD6A461C21384606F0E5FE0028A4
:1091C0000BD16846807EC01F092806D8E107C90F69
:1091D0002B466A463046F9F7D1FF07B0F0BD223181
:1091E000E2E7000070B500252C460A4E0CE0F16B5A
:1091F000200140180622FF2106F073FC002801D14F
:109200006D1CEDB2641CE4B2307E8442EFD328467C
:1092100070BD0000904400207FB50D4606214843F4
:10922000044616462034E0B26A46102106F0ACFE31
:10923000002806D10622FF21684606F052FC0028CD
:1092400002D0002004B070BD68468089002EC3B2F1
:1092500002D02B43DBB200E0AB4398420AD0684611
:109260008381E0B26A46102106F0D2FE0248007DFA
:1092700006F06AFE0120E5E79044002070B500206A
:109280000446064D04E0204600F00AF8641CE4B2EF
:10929000297E8C4201D20028F5D070BD9044002078
:1092A000F0B5384E0546707E91B0854209D1012156
:1092B000F07D06F0FBFB0221F07D06F0F7FBFFF7E7
:1092C000F7FD2C460620444327462037F8B207AA6C
:1092D000102106F059FE002806D10622FF2107A81A
:1092E00006F0FFFB002803D00025284611B0F0BD92
:1092F0001022FF2107A806F009FD1C22FF21684665
:1093000006F004FD1822FF210BA806F0FFFCF8B2BE
:1093100007AA102106F07CFE074620462130C0B285
:109320006A461C2106F074FE074320462230C0B274
:109330006A461C2106F06CFE074320462330C0B26B
:109340006A46102106F064FE074320462430C0B26E
:109350006A46102106F05CFE07432534E0B26A46F7
:10936000042106F055FE044670353C43E8B20BAAD2
:10937000182106F04DFE20430546307D06F0E4FD41
:10938000B3E700009044002070B5064600240A4D63
:109390000CE0E96B200140180622314606F0B0FBD4
:1093A000002801D0204670BD641CE4B2287E8442AF
:1093B000EFD3C0B270BD00009044002000229300A3
:1093C000CB5A834202D1900040187047521CD2B24F
:1093D000062AF4D3002070477FB50D460D49097E5B
:1093E00088420CD2002D0AD0062148432030C0B25A
:1093F0006A46102106F0C8FD040003D007E00220F1
:1094000004B070BD06226946284606F087FB204658
:10941000F6E70000904400201FB5062148432030A5
:10942000C0B26A46102106F0AFFD002802D000202D
:1094300004B010BD68468089C0B2F9E700218A00F7
:10944000835A491CDB43835212189378C9B2DB4319
:1094500093700629F3D3704770B500241E4E1FE0A9
:10946000F06B25012A182046062148432030C0B25F
:10947000102106F089FD002810D0F06B0622281874
:10948000FF2106F043FCF06B06222818FF21801D07
:1094900006F03CFCF16B002069188881641CE4B282
:1094A000307E8442DCD3FFF79DFE317E8842B07E61
:1094B00002D10121084301E040084000B076707CF1
:1094C000002801D000F018F9B07C002801D000F08D
:1094D000DBF800F07BF970BD9044002010B5034923
:1094E0004088C97DFAF758FC10BD00009044002068
:1094F00070B50E460546062148438AB01446203012
:10950000C0B206AA102106F03FFD002846D106226F
:10951000FF2106A806F0E5FA00283FD17035E8B231
:109520006A46182106F030FD002834D16846FFF75E
:1095300085FF002E06D069463046FFF73FFF002822
:109540000DD015E018220021684606F0CAFA00285E
:1095500021D118220021684606F0D8FB10E0002C2B
:109560001CD069460020FFF729FF002816D006808E
:109570008178A1420FD08470002C01D1002101809C
:1095800007490120C8736846FFF758FFE8B26A46EA
:10959000182106F03DFD01200AB070BD0020FBE758
:1095A0009044002070B501780125B02907D0B12979
:1095B00013D0D02923D1F9F707F805461FE0044658
:1095C00000791E2803D160880021F9F763F920464D
:1095D00021790830FAF748FF11E0017900290ED10E
:1095E000084C0026E6730289C1884088F9F74EFBD3
:1095F000E07B002803D0E673207D06F0A5FC28461A
:1096000070BD00009044002070B51C4C0646A06B55
:109610001B4D86B000280BD120461C300090022341
:10962000184A29460120FAF755FCA063002823D0E8
:10963000FF2303930222002105A86B4607C304AB56
:10964000A28B3046A16BFAF76FFA002808D1684662
:10965000028A002A04D0A06B41893046F9F716FB34
:109660000023A28B2946A06BFAF76EFCA0630028AA
:1096700002D0002006B070BD0120FBE7904400201E
:10968000FFFF00009C030100F0B589B0FBF705F86F
:109690000024184F26E0F86B260130180622FF211F
:1096A00006F01FFA00281BD1F86B301840798009AA
:1096B00002281CD001252046062148432330C0B291
:1096C0006A46102106F060FC04AA1021022006F070
:1096D0005BFCF86B04AB31186A462846FAF7CCFFFE
:1096E000641CE4B2387E8442D5D309B0F0BD0025B5
:1096F000E1E700009044002070B5FAF7D2FF0024A3
:109700000A4E0FE0F06B250128180622FF2106F013
:10971000E8F9002804D1F06B29180020FAF7B0FF0F
:10972000641CE4B2307E8442ECD370BD90440020CF
:1097300070B514460D46064603F020FE00280DD0F5
:10974000017B084808290AD0C06A002806D043686F
:10975000002B03D0224629463046984770BD006B47
:10976000F3E7000090440020FFB581B01D46164687
:109770000C46084603F002FE00280ED0007B124A79
:1097800008280CD0D06A002817D00768002F14D002
:109790002B46324621460198B84705B0F0BD106B04
:1097A000002802D00768002FF2D12146506A06E057
:1097B00001212046FAF738F8EFE72146106AF9F759
:1097C000CDFE0028F4D1E8E79044002008B5FFF76B
:1097D00009FD012801D9022000E00A20694608702D
:1097E0006A4601210520FAF7DBFE08BD10B50C4AD8
:1097F0000A4B1268994206D1002A0DD01178814295
:1098000007D0032010BD0548401C814204D1002A26
:1098100002D0FAF765FF10BD122010BDFEFF000058
:109820006C42002030B587B0032817D0344A002599
:1098300090421BD1887800285CD032490B68002BFD
:1098400058D0059502950395049500950195DA7811
:1098500019781B1D00F0F2FF01200CE048890090F0
:109860008C880B89CA88C878214612E0244A521C89
:10987000904203D1022000F0BDF83BE0204A921D47
:10988000904209D18878002834D000231A4619461E
:10989000009501F003F82DE0194A0C32904229D0CE
:1098A000194A904229D148790C46122822D1E389DD
:1098B000A28961892089FAF7B5FF002804D0172012
:1098C000F9F7C8FD002800D00120694608832179F6
:1098D000608806AAFBF7E6FA6846008B002809D1E3
:1098E000E089019502950090A389628921896088A9
:1098F000FAF7DBFE012007B030BD0020FBE70000D7
:109900000D2000006C420020FFFF00000A4A10B545
:10991000904202D18868007807E0074A521C9042C2
:1099200008D188680078002802D001F093F810BDB3
:10993000012010BD002010BD0B20000000290ED01A
:1099400000280CD0487980098001C02803D0402825
:1099500003D0022070470120704703207047002089
:109960007047FFB5002008701F2A1BD2904219D201
:109970001C5C401CC5B2002C14D06619964211D84C
:109980005F5D384601F0B1F800280BD0641E0C7002
:109990000098874203D15819401C04B0F0BD761ED0
:1099A000F0B2E3E70020F8E710B5044C2068002887
:1099B00003D006F025F90020206010BD6842002089
:1099C00070B5846B0546002C13D0206A002801D0A6
:1099D00006F016F9606A002801D006F011F9A06AB5
:1099E000002801D006F00CF9204606F009F9002005
:1099F000A86370BD10B5044CA069002803D006F020
:109A0000FFF80020A06110BD54420020F3B51E4EA7
:109A10000546706881B0002824D0002418E07068E2
:109A2000270138188068002805D006F0E9F8716829
:109A300000207918886070683818C068002805D040
:109A400006F0DEF8716800207918C860641CE4B282
:109A5000AC42E4D302980028706804D006F0D0F835
:109A600000207060FEBD0028FCD02A01002106F015
:109A70004DF90021FF22706803E00B01491CC2541C
:109A8000C9B2A942F9D3FEBDF8420020002805D191
:109A900004488078002801D00348704701481830F6
:109AA00070470000B86500207042002001488078AF
:109AB00070470000B86500200148C068704700008A
:109AC000B86500200148006970470000B8650020B3
:109AD0000148406900687047B865002010B5064A23
:109AE00050690168491C0160D078FF2803D001212A
:109AF000890306F0D9F910BDB865002070B5064D90
:109B0000064CE888A04205D005490A780549FBF7CC
:109B1000BBF9EC8070BD0000B8650020FFFF0000BD
:109B2000EE42002076420020FFB581B00B9F0A9ED6
:109B30000D9D039803F022FC04007AD001980028C0
:109B40002ED104984007207902D51221084303E062
:109B500010210843FD210840207130460C993843FC
:109B600008432843207924D0042108432071002D84
:109B700007D02869A062204610222946183005F037
:109B8000CDFF0298002818D0002F09D0E06A0028E5
:109B900001D006F035F81C21384605F0CBFFE06215
:109BA000A46B002C45D0002E1CD0206A00280ED0BB
:109BB00014E0FB2108402071F2E7002EF0D0E06AAB
:109BC000002801D006F01CF81C213046E5E74721AB
:109BD0001C2005F0BFFF2062002803D01C22314664
:109BE00005F09CFF0C9800280DD0606A002806D173
:109BF0004721162005F0AEFF6062002803D0162230
:109C00000C9905F08BFF002D0DD0A06A002806D11D
:109C10004721142005F09EFFA062002803D01422E3
:109C2000294605F07BFF3B46049A0399019804F00E
:109C300049FA05B0F0BDF3B581B0019803F09EFB81
:109C400005002AD00E2006F069F8040025D018205F
:109C5000F9F700FC0606360E00D12E78D0202070D1
:109C6000002767700B20A0700622A91DE01C05F0DC
:109C700055FF0298C1070120002901D0207300E0A0
:109C80002773019961810299890701D5607300E00A
:109C900067732146304606F0B5F8FEBDFEB50126D5
:109CA0001F4D032809D01F4A904227D188780C28DD
:109CB00021D011281FD03046FEBDC8781A4F0C465F
:109CC0001A2803D1A088F988884214D0A08803F00C
:109CD00055FB002801D0E188C1816089009023896B
:109CE000E288A188E07800F0D9FDA088F988884250
:109CF000E1D1FD80DFE7FFF701FFDCE7A8420DD1EE
:109D00000C46497900201229D6D1694688802179EC
:109D1000608801AAFBF7ACF80120FEBD0020FEBD63
:109D2000FFFF000013200000B865002070B5818897
:109D30001F4A914213D11F498068096800780029A1
:109D40000BD0002805D101204870FAF71EFD00282D
:109D500001D000F0C9FD012070BD002070BD144A83
:109D6000D21C91421AD8521E914201D1012400E026
:109D700000248068104E05783078FF28EBD004204E
:109D800005F0CCFF0100E6D0D02008704D70022015
:109D90008870CC70307806F035F8DCE7044A121D84
:109DA0009142DAD18068007800F0AAFE70BD000010
:109DB00006200000684200200C43002070B50246D7
:109DC0001B481C4C01680026184D2078012A0BD036
:109DD000002908D0E178490705D5022106F014FAD8
:109DE0006E80FFF7E1FD70BD6A88002A03D0124B38
:109DF0001B79002B05D00029F5D00878F9F700FB76
:109E000070BD3C2A0FD2022106F0FEF968880B498A
:109E100048430B49F7F7EAF902462078022106F099
:109E200095F96E8070BD3C3A6A8070BD0C4300208D
:109E300068420020EE420020B865002040420F003A
:109E40007102000070B514460D4603F0FAFB0C4990
:109E5000042809D08868002810D04268002A0DD054
:109E600021462846904770BD0969002906D00B6835
:109E7000002B03D021462846984770BD012070BDB5
:109E800054420020F0B587B004005AD02E48A17982
:109E9000C6782E4F002924D0F8680425002804D065
:109EA0004168002901D0002088472146E079083127
:109EB0000691FFF743FDE0718446237D628A218A83
:109EC000E089029003A80EC0A08801950090E07878
:109ED00062463146069B00F0B1FCE078002806D0CF
:109EE00016E0B86908250028DFD00678DDE7628A29
:109EF000218AE0890290172303A80EC006980090DB
:109F00000195E379A1880122304603F0D3F9E0708E
:109F1000B869002802D00420FFF76CFD787800288B
:109F20000FD03978FEF79AFF00280AD0E078312860
:109F300005D00095A2880346797804F02BF900201B
:109F4000787007B0F0BD0000B865002054420020D2
:109F5000F8B50446FF26808803F010FA050009D002
:109F60002E782F7BFFF72CFD284604F085F9A0887A
:109F700003F04CFB114D6878002808D0864206D1CA
:109F80002978FEF76BFF00280AD1687008E0FF2EE1
:109F900006D00097A379A288A078314604F0FAF899
:109FA000A08803F04EFB042807D10548A188C28889
:109FB000914202D10021C943C180F8BD5442002022
:109FC000B8650020F0B587B004005BD02E48A179B9
:109FD000C6782E4F002925D0F8680425002804D023
:109FE0004168002901D0002088472146E0791431DA
:109FF0000691FFF7A3FCE071844620231B5DE28BF2
:10A00000A18B608B029003A80EC0A08801950090E0
:10A01000E07862463146069B00F010FCE0780028AC
:10A0200006D016E0B86908250028DED00678DCE7FF
:10A03000E28BA18B608B0290172303A80EC00698B9
:10A0400000900195E379A1880122304603F032F9AE
:10A05000E070B869002802D00420FFF7CBFC7878C4
:10A0600000280FD03978FEF7F9FE00280AD0E078F2
:10A07000312805D00095A2880346797804F08AF843
:10A080000020787007B0F0BDB86500205442002071
:10A0900010B5094CA278002A0CD0014606220748C8
:10A0A00005F03CFDA0780549FEF7E5FE0348FAF708
:10A0B0007BFB10BD002010BDB86500207042002061
:10A0C00070B5164D0646E878FF2814D00A2005F032
:10A0D00025FE04000FD0D020207066700820A070EC
:10A0E000A878E07006220E49201D05F017FDE878DB
:10A0F000214605F087FE287901280ED108481C3832
:10A10000C068002803D08068002800D08047054838
:10A11000054A0078042106F007F870BDB8650020F4
:10A1200070420020EE4200200077010010B586B09A
:10A13000044603A91448F8F7DBFD134804A9401CA2
:10A14000F8F7D6FD6846E388018A8B4203D8228956
:10A150008089824205D2A0882021FAF7FCFA06B055
:10A1600010BD834200D2E0808A4200D92181A189BA
:10A17000002001900091029063892289E188A088E3
:10A18000FAF7EDFAEBE7000011030000F8B507005D
:10A1900041D0F87800283DD07D68002D3AD01620B7
:10A1A000F9F758F940B20026009030E00F216956C7
:10A1B0000098814228DB1D488068002824D01420A4
:10A1C00005F0ACFD04001FD0D0202070002060708E
:10A1D0001020A0702878E070E87BA0746878207167
:10A1E0000622A91C601D05F099FC287AE072294618
:10A1F0002046062209310C3005F090FC0B48214620
:10A200008068007805F0FEFD761CF6B21035F8780F
:10A21000B042CBD8F8BD054880680028FAD00020AD
:10A2200000F082FA002000F0A9FBF8BDF8420020FF
:10A23000F1B584B0049800287ED0C07800287CD086
:10A2400004984468002C78D01620F9F703F940B23E
:10A25000002702901CE12046203008210190415641
:10A26000029881426ADB93490025896828460029C3
:10A270007ED0217801290CD02346227A093303A904
:10A280000120FFF76EFB002800D005782178042913
:10A2900014D088498968497803290FD0002D0DD042
:10A2A00000290BD0002863D0012902D002295FD1F8
:10A2B00001E0A80700E0E807002859D06078A11C59
:10A2C000FFF73CFB009060707A480025406800284A
:10A2D00057D0002617E0496830010A5CFF2A10D0E9
:10A2E0004018427800998A420BD10622A11C801C9A
:10A2F00005F006FC002804D06E48310140680D18B6
:10A3000005E0761CF6B26B4908788642E3D3002D4F
:10A3100037D02078042872D0A868002818D0017897
:10A32000227A914206D121460931401C05F0E8FB12
:10A33000012871D0207802E0B1E0AEE0A5E0042869
:10A340005FD0A868002803D005F05AFC0020A86060
:10A35000207A5949401C05F0FDFB00280DD02178DA
:10A36000042957D0A860217A0170227A214600E0A2
:10A3700043E00931401C05F0D1FB207A002850D180
:10A3800053E02678042E50D04A4A516800294CD018
:10A390000020137805E002018A5CFF2A25D0401CCA
:10A3A000C0B29842F7D3002D3FD02E70607868700D
:10A3B0000622A11CA81C05F0B1FB207A3E49401CD6
:10A3C000491C05F0C7FB00280BD0217804290FD0C9
:10A3D000A860217A01702146227A0931401C05F0DB
:10A3E0009DFB207A00281CD104E000014518DAE723
:10A3F000E860EEE72078012813D016E0FFE7E86870
:10A400008BE7E8680028A3D005F0FAFB0020E8609D
:10A410009EE701E0E860A6E71520F9F71BF80028A1
:10A4200003D124488068002803D1224840680028CE
:10A430002BD1207A143005F071FC050025D0D020F6
:10A44000287000266E700D20A8702078E8700198A2
:10A450000622007AE87260782871A11C681D05F058
:10A460005DFB227A2A73207A002807D02846143010
:10A4700021460931286105F051FB00E02E610D48AD
:10A4800029468068007805F0BDFC7F1CFFB22934A6
:10A490000498C078B84200D9DDE605B0F0BD0548A3
:10A4A00080680028F9D0002000F03EF9002000F07C
:10A4B00065FAF2E7F84200201E47000070B5017807
:10A4C000744D912902D0A22973D04FE0417805291B
:10A4D00008D0714C714B0E2907D00F296AD03E2944
:10A4E00069D043E0FFF734FD1CE082886C49002509
:10A4F0008A4219D181680E78491C002E06D10029A4
:10A5000004D065480622183005F008FB20780128A1
:10A510002CD1002E02D02570304624E0022020707D
:10A52000FAF711F9012070BD5E498A4220D1866890
:10A53000002E1BD03078002806D1B178727808023E
:10A5400010432081F0786070207802280ED1307896
:10A55000002801D0257005E0032020706178208953
:10A56000FAF710FE307800F047F9DBE7002070BD05
:10A570004C49C91C8A4204D180680078FFF7A0FDCD
:10A58000D0E749495118042907D8D9680029C9D00A
:10A5900009680029C6D0884770BD424909318A42FE
:10A5A0000AD159680029BDD00B68002BBAD00146EA
:10A5B00034E067E016E034E03A490A318A4203D1D8
:10A5C000816809780029ADD0364C0C34A242CDD137
:10A5D00099680029A6D04A68002AA3D001462046DF
:10A5E000904770BD014682882E480B30824203D0CE
:10A5F0002C481730824204D19868002892D04368D2
:10A600000AE0284811308242B0D1E088A842F3D055
:10A610001869002886D00368002B83D0104698471D
:10A6200070BD8178012914D00A2915D0022916D0CD
:10A630000B2919D003291FD0062920D0072995D12D
:10A640008188082992D2C0884900184A001F5052B8
:10A650008CE7FFF717FC65E7FFF7B4FC62E7596882
:10A6600000298DD0496803E05968002988D089689D
:10A67000002985D0884755E70246808806E0FFF725
:10A6800055FD4FE74388024629461846FFF7DAFB97
:10A6900070BD0000FFFF0000B8650020544200209C
:10A6A0000910000002200000FADFFFFFB266002060
:10A6B0000149486070470000544200200149886009
:10A6C00070470000544200200149C86070470000F4
:10A6D00054420020014908617047000054420020A4
:10A6E000F8B507460E46084602F048FE020019D0AB
:10A6F0001820F8F7AFFE05062D0E00D115780620BC
:10A7000005F00CFB04000DD00622002105F0FEFA36
:10A71000D020207067700E20A070A68021462846A9
:10A7200005F070FBF8BD0000F8B50546314800247F
:10A73000806800285CD0002D10D12E494A68002A7C
:10A740000CD00020097807E00301D35CFF2B01D077
:10A75000641CE4B2401CC0B28842F5D3E00008306B
:10A7600005F0DCFA060007D1082005F0D7FA00242E
:10A7700013250646002831D0D02030700120757096
:10A78000B070F470002C21D0354608350027756074
:10A7900015E051683801095CFF290ED02970516815
:10A7A000641E4118497869705168E4B24118062264
:10A7B000A81C891C05F0B2F908357F1CFFB20D4AB0
:10A7C0001078874204D2002CE3D101E000207060B1
:10A7D000084831468068007805F014FB054C0021DC
:10A7E0002078FFF713F9A06805F00AFA0020A060AE
:10A7F000F8BD0000F842002070B50F4D0646E8781D
:10A80000FF2817D00E2005F089FA040012D0D020BE
:10A81000207066700020A070294606221831E01CC6
:10A8200005F07CF92889608168782073E8782146F2
:10A8300005F0E8FA70BD0000B8650020FFB50746D6
:10A8400081B01D461646162005F068FA040022D095
:10A85000D020207005206770A070E670002D05D014
:10A8600006222946201D05F059F904E006220021A0
:10A87000201D05F04BFA0A9860810B9820730C9804
:10A88000E0810D9820820E9860820F9820752146F5
:10A89000029805F0B7FA05B0F0BD0000FFB581B031
:10A8A0001E4617460D460C2005F038FA040016D057
:10A8B000284602F063FD002801D0007801E0094835
:10A8C000C078D0212170019961700721A170A58005
:10A8D000E78026810A996181214605F093FA05B047
:10A8E000F0BD0000B865002070B50C4D0446286826
:10A8F000002811D0032005F011FA010008D0D02063
:10A9000008704C70032088702868007805F07AFA87
:10A91000002C01D0FFF748F870BD0000684200200D
:10A92000FFB581B01F460E46084602F027FD050020
:10A9300022D0102005F0F2F904001DD010220021D1
:10A9400005F0E4F91820F8F785FD0006000E00D1A7
:10A950002878D0212170019961700F21A170A68003
:10A960000399217267720A99A1720B99E1720C998D
:10A97000E160214605F046FA05B0F0BD10B5044689
:10A980001520F8F767FD002801D0012100E0002123
:10A990002046F9F711FF10BDFFB5074681B01D46EF
:10A9A0000E460E2005F0BAF9040010D0D020207019
:10A9B000002060700C20A070A6800622A01D0399C4
:10A9C00005F0ACF82573F8B2214605F01BFA05B086
:10A9D000F0BD0000F0B51C4F85B03868002831D0BC
:10A9E0000320F8F737FD06460420F8F733FD054647
:10A9F00004A91648F7F780FC6846017C1448002932
:10AA0000807806D0032802D0002806D003E0022474
:10AA100004E0002801D0012400E000243968C8784F
:10AA2000091DFEF728FA3A68D77A937A0090111D2B
:10AA300001A88AC09278234629463046F9F7A9FE34
:10AA400005B0F0BD0120FBE7684200201F040000B4
:10AA5000B865002070B504460E488068002818D0FC
:10AA60000D4D002C0DD10220F8F7F4FC020003D0AC
:10AA70002878012105F06AFB0120FFF77FFF040021
:10AA800006D02878012105F0BFFB2046FFF74CFED9
:10AA9000012070BDF8420020EE42002070B50C4647
:10AAA00002F06CFC05001FD01820AC62F8F7D2FC55
:10AAB0000606360E00D12E78102005F02FF904007E
:10AAC00012D0D0202070002060700920A07068791A
:10AAD000E0700622A91D201D05F020F8A86AE0609C
:10AAE0002146304605F08EF970BD002803D01728A6
:10AAF00003D3FF2801D000207047012070470000D9
:10AB0000F1B52D4E82B03068002842D040782B4DF0
:10AB1000012814D0287900283AD1032005F0FEF846
:10AB2000010009D0D0200870029848700420887075
:10AB30003068007805F066F9FEF736FF28E0204817
:10AB4000204F4368002B19D01A78694601205B1CFE
:10AB5000FEF707FF002811D00078C0070ED00120B3
:10AB6000F8F778FC04463C2814D33878164A0221BA
:10AB700005F0DAFA12483C3C448016E00020F8F771
:10AB800069FC0CE00020287102E00298FFF7ACFE9F
:10AB90000120FEBD0D480E496043F6F727FB020079
:10ABA00003D03878022105F0D1FA316802204870CC
:10ABB00028790028E9D0E5E768420020B865002040
:10ABC0000C430020EE4200200077010040420F00BD
:10ABD00071020000074A002106234B43D35A8342E7
:10ABE00003D10620414388187047491C0329F3DB31
:10ABF000002070479466002001460648406906E040
:10AC0000826852898A4201D1001D7047006800287D
:10AC1000F6D17047DC43002000B50F292ED00BDCA5
:10AC20000B00FDF7FBFC0F23232323232B252B23D2
:10AC30002B232B232B272300182917D008DC1039AE
:10AC40000B00FDF7EBFC08131B1B1313131919134F
:10AC50001E290BD006DC192908D01B290ED01D296E
:10AC600004D10BE0522909D0D22907D0002000BD21
:10AC7000C06800BD006800BD806800BD406800BDC0
:10AC800010B50C46FFF7A6FF00280DD0002C00D011
:10AC900020608078FE2803D0FF2803D0162010BD46
:10ACA000172010BD002010BD022010BDFFB581B0DF
:10ACB00001980A9D1E461746FF2813D0202005F054
:10ACC0002DF804001DD0B0202070677002986080BD
:10ACD0002671002D09D0204618222946083004F09C
:10ACE0001DFF08E0022005B0F0BD2046182200211B
:10ACF000083005F00BF82146019805F083F8002094
:10AD0000F1E71320EFE7002070470020704738B5C7
:10AD10004C88088884420ED300280CD00022009270
:10AD20000B794A1D2146F9F7D5F8002801D00020FB
:10AD300038BD0A2038BD012038BD0000F3B585B00C
:10AD400006980026078840883446B84215D3002F5D
:10AD500013D00020694688800290002069468881CF
:10AD600000900698002341881A463846F9F7B2F851
:10AD700005005AD0002C03D00CE0012007B0F0BD34
:10AD80002220009003AB354A05210598F9F726FBF0
:10AD900004000BD068468088002832D0684680794D
:10ADA0000128287811D0102843D101E01120E5E7CF
:10ADB000A87A207068891022000A6070A41C2046BE
:10ADC000696804F0ABFE10340DE0022831D1A87A96
:10ADD000207068890222000A6070A41C20466968FD
:10ADE00004F09CFEA41C69468888401C80B28880C0
:10ADF000B0421AD269891948814216D07F1CBFB26D
:10AE0000ABE702942878022808D002206A469071A5
:10AE100012219089F6F7D4F9C6B2C9E70120694634
:10AE2000887188898005060ED1E7684680880028E9
:10AE300012D001A90598F6F7D1FD00280AD001AB80
:10AE4000052216210598F9F73BF9002802D002984F
:10AE500004F0D6FE002091E70A208FE7FFFF0000F4
:10AE600038B505460C4608886946F9F70FF80028FA
:10AE700007D0017A6846028823462846F9F728FA5F
:10AE800038BD012038BD000038B50C4649882088FF
:10AE9000814219D3002817D02379621D02210B4863
:10AEA000F6F724FD00280DD000200090237961885A
:10AEB0002088621DF9F70EF8002801D0002038BD67
:10AEC0000A2038BD102038BD012038BD9003010094
:10AED00038B54C88088884420ED300280CD0002254
:10AEE00000920B794A1D2146F8F7F4FF002801D0A3
:10AEF000002038BD0A2038BD012038BDF8B50D4608
:10AF00000646002428E0286861004018417802784D
:10AF1000080210436946F8F7B9FF002810D0017AFB
:10AF2000684602883046F9F7FCF9002812D02A68F2
:10AF30006100535C13702A68491C515C5170F8BD64
:10AF4000296860000A5C0A702968401C085C487027
:10AF50000120F8BD641CA4B2A888A042D3D8002068
:10AF6000F8BD38B5044608886946F8F78FFF002811
:10AF700006D0017A684602882046F9F7D2F938BD32
:10AF8000012038BD38B505460C4608886946F8F7F3
:10AF90007DFF002807D0017A6846028823462846AC
:10AFA000F9F7EAF938BD012038BD00000149886091
:10AFB00070470000D043002010B50446801C00F00C
:10AFC00017FFFF20E07010BD1CB5044668460171F4
:10AFD0004271204602F0D2F900280BD0027B01A971
:10AFE0000748082A009106D07E23002221460078D7
:10AFF000FFF75CFE1CBD7E23002221464078F7E768
:10B00000D0430020F8B50024064627460C206043B4
:10B010008519A8882D1D00280ED0A868002801D009
:10B0200004F0EEFD0C220021284604F06FFE641CA3
:10B03000E4B22F80052CE9D30020C0433080F8BD56
:10B0400000B500F023F8002800D0806800BD002281
:10B050009300CB5A834202D1900040187047521C93
:10B06000032AF5DB00207047074A002192698B0113
:10B07000D35A834202D1880180187047491CC9B253
:10B080000329F4D300207047DC43002006490969F6
:10B09000002906D08A88824201D1886870470968F1
:10B0A000F6E7002070470000DC4300207CB5064630
:10B0B000012906D0022922D1012102F0C9FA002873
:10B0C0001DD13046FFF7D0FF002801D0FFF79AFFCF
:10B0D00001A80C4D00900223094A29460120F8F7E7
:10B0E000F9FE0AE03046E168F8F76EFC68468288AF
:10B0F000002329462046F8F727FF0400F2D17CBD43
:10B100009C030100FFFF0000F3B5002083B002465E
:10B11000054604460C21049B6143C9188B88091D10
:10B12000002B0ED0002A1BD093421ED14B888342A5
:10B130001BD189884B199DB20818641C80B2052C5C
:10B14000E8DB022C39DB00200190002D0DD01C49DA
:10B15000284604F0FFFC0090002807D0002625E0D8
:10B160008D8848881A464019E7E7002005B0F0BDF1
:10B170000C20049970434718F9683F1D00290DD031
:10B18000019B0098BA88C01804F0C8FCB9880198DF
:10B19000081880B20190B86804F032FD002E04D087
:10B1A0000C220021384604F0B1FD761CA642DFDBFC
:10B1B00004990098C860049805810120D6E7000032
:10B1C00004470000F3B5074683B000254088FFF729
:10B1D0004BFF0290002803D0387A012807D047E0BF
:10B1E0007888F6F7DBFB002856D105B0F0BD38466D
:10B1F00008300299FFF788FF002817D0029C182119
:10B20000E088019100902389A188E2687888241D54
:10B21000F8F7D4FD0546162805D0002D28D004984F
:10B220002188018024E00020A06021E000260C207D
:10B230000299704340188188041D002918D0042EFB
:10B240001ED0008A00281BD0162062880092019030
:10B25000A3887888A268F8F7B1FD0546162811D0B2
:10B26000002D02D0049821880180761C052EDEDB9B
:10B270000298FFF7C7FE002D09D0162D05D00DE06E
:10B280001820E2E70020A060EFE7002506E07888BC
:10B29000F6F784FB002801D01620A6E72846A4E78D
:10B2A000F3B50446074689B008344088F6F7B4FB86
:10B2B000079004A800900025237961882088621DEA
:10B2C000F8F708FE059000286FD00798401F0890F7
:10B2D0000898854269DA397907983D4BC01F80B2DA
:10B2E000002203910093019202901E466946083E97
:10B2F0000A8A7888F3680599F8F716FC002821D1A6
:10B300002089328990421DD1E068F16804F0F8FB91
:10B31000002817D02F4E706800280AD11120009005
:10B32000788800232C4A0721F9F758F8002803D021
:10B3300070600598468906E00A98218801801120EE
:10B340000BB0F0BD00266846028A618806AB0598FE
:10B35000F8F7FAFD0590002E1AD01E49320A486807
:10B3600046556D1C4B68A8B21A54401C059A80B211
:10B37000002A10D06A464B68128B1A546A46128B08
:10B38000401C496880B2120A0A54401C85B29FE7EB
:10B3900000289DD109E00F4AFF2153681954401C31
:10B3A000526880B21154401C85B2002D0AD0094861
:10B3B000A908018078880749F6F7F8FA0028BFD075
:10B3C0001620BDE70A98218801800A20B8E700000E
:10B3D000E44300207C660020FFFF0000F0B589B048
:10B3E0000446002769468F8201208B4D0874E86867
:10B3F000002807D1F9F776FD884904F0ABFBE86037
:10B4000000281ED018220021854804F07FFC2079F6
:10B41000834E411CC9B20691022816D006283BD0A3
:10B4200008283ED00A2841D00C286DD00E287DD0A7
:10B4300010287CD012287BD016287AD0182879D0F2
:10B44000DBE06846007C09B0F0BD6088082808D2BF
:10B45000744A4100515A002903D1734AFB21FBF77A
:10B4600073FAF9F73FFD308060886D49F6F786FA88
:10B4700000282189308805D0814200D3208120898D
:10B480003080BEE0814200D3208121896088F8F7B6
:10B49000F9FEB2E00699ADE005A92046FFF700FFEE
:10B4A0008BE005A9204600F0FDF986E0208907A978
:10B4B000F8F7ECFC05005ED015200090608808AB22
:10B4C0005A4A0B21F8F78AFF7060031E47D069467D
:10B4D0002079098C029101970096039069468A8B26
:10B4E00060882946F8F720FB050034D160884C4974
:10B4F000F6F728FC3CE0706804F082FB002D7CD05D
:10B500002089694688825AE0208907A9F8F7BEFC9D
:10B51000050030D016200090608808AB434A0D210A
:10B52000F8F75CFF7060031E19D004E028E02CE0FF
:10B5300030E035E03DE069460A8C2079618901916F
:10B5400000960292039069468A8B60882946F8F734
:10B55000EBFA050008D0162DCDD10025CBE72089C8
:10B560006946888211252CE060882D49F6F790FB0A
:10B57000002846D141E0208969460125888220E0E3
:10B5800005A9204600F02EFA17E005A9204600F094
:10B59000BFF812E004AA05A9204600F0ABFA0CE0BF
:10B5A00005A9204600F044F8050008D16846077454
:10B5B00023E005A92046FFF705FE05001DD0162D46
:10B5C0001FD06078142818D0207930706846808A9F
:10B5D0007080357160881249F6F7C4F900280CD0E4
:10B5E000012560880E4B2A461621F8F769FD0028D0
:10B5F00003D029460A48F8F737FF2046F8F730FC11
:10B600001FE76088064B1621069AF8F759FD0028B7
:10B6100000D03FE7F1E70000DC43002003470000D3
:10B620007C660020B266002048080000FFFF000092
:10B63000F0B5044685B00E4605460834002700895B
:10B6400004A9F8F723FC03005BD0187A800613D511
:10B650006846008AFFF7F4FC070008D068881222C9
:10B660001946B847070007D02088308047E0208877
:10B6700030800E2005B0F0BD6888FFF7F5FC0100B2
:10B6800006D12248FFF7F0FC01000DD06888088041
:10B6900000200C22424352189288002A08D0401CF5
:10B6A0000528F6DB09202DE0208830800920E1E71D
:10B6B0000C22504340182146001D04F02FFA0C22A2
:10B6C000214601A804F02AFA10200090A288688878
:10B6D00000231721F8F782FE039000280BD0A288E0
:10B6E000A16804F01BFA688801A9F6F7BDFA0028E2
:10B6F00005D01620BEE7208830801120BAE73846F2
:10B70000B8E7012021883180B4E70000FFFF000086
:10B71000F3B5024689B00832064604924088F6F72F
:10B720007BF9079005A8049A009013795188108836
:10B73000521DF8F7CFFB002504462F46002C20D0E1
:10B740006A46217A7088928AF8F7EBFD070015D1D6
:10B7500031790798504B801F0890039180B20022E6
:10B7600000930192029019460839CB6869468A8A8B
:10B7700070882146F8F7D8F9070005D00A98618942
:10B780000180002D70D079E0002D0DD04348418814
:10B79000414808380089021D91426FD1401908992B
:10B7A000001D88426ADC10E012200090708800239F
:10B7B0003B4A1121F8F712FE38490028486036D07C
:10B7C000354808380089001D48803449A07A4A6805
:10B7D00006AB505562896D1C4968A8B2120A0A541A
:10B7E000401C85B2049841886846828A2046F8F752
:10B7F000ABFB040021D06A462849108B4A6850559B
:10B800006A46128B6D1C4B68A8B2120A1A54401C6F
:10B8100085B248682049401908390A89C96804F086
:10B820007DF91D4808380089281885B286E70A98EE
:10B830006189018011200BB0F0BD1849FF224868D2
:10B8400042556D1CA8B24B68134D1A54401C84B26B
:10B850004868083D00192A89E96804F05FF92889D9
:10B86000201885B28DE7FFE70498002F01880A9819
:10B87000018000D10A273846DDE7FFE7074C28465C
:10B880006188F5F79DFC208070882146F6F714FA50
:10B890000028D0D01620CEE7E44300207C660020AC
:10B8A000FFFF0000F3B5054687B0083005902F89EB
:10B8B0006888F6F7B1F80024001F019404900498FA
:10B8C000A0426FDB06A80090059803794188421DCD
:10B8D0003846F8F7FFFA060064D06A467789317A6D
:10B8E0006888128BF8F71DFD019000285AD128793D
:10B8F0000499394B89B2029100220093019203907E
:10B9000019460839CB6869460A8B68883146F8F7CA
:10B910000BF90190002845D1002C08D02F48418810
:10B920002D4808380089801C81423DD110E0132049
:10B930000090688800232A4A0921F8F74FFD27491B
:10B940000028486028D0244808380089801C488096
:10B9500021480838008901190498814222DC1F49D6
:10B96000B07A4A6810557289641C4B68A0B2120AFA
:10B970001A54401C184E84B24868083E0019328997
:10B98000F16804F0CBF83089201884B2144887425B
:10B9900095D07F1CBFB292E708980780112009B0AC
:10B9A000F0BDFFE7002C0DD00C4E20467188F5F756
:10B9B00007FC308068883146F6F796F90028EED00B
:10B9C0001620ECE70198002801D10A200190089880
:10B9D00007800198E3E70000E44300207C66002034
:10B9E000FFFF0000F3B5044687B00830059060887B
:10B9F000F6F712F80646002560E005986900006831
:10BA00004018417802780802104306A90490F8F71C
:10BA10003DFA01001DD02079BAB2334F02920023C3
:10BA20000097019303903A46083AD3686A466088C3
:10BA3000128BF8F779F8070016D00898049901805E
:10BA40002A484068002801D004F0DAF8384609B0E6
:10BA5000F0BD08990498088024484068002801D067
:10BA600004F0CEF80120F2E7204F786800280AD1D0
:10BA700014200090608800231D4A0F21F8F7AEFCC7
:10BA8000786000282BD01849388808390A89521C58
:10BA90008218B24202D9321A521E0A81134A0F4644
:10BAA000526810180A89C96804F038F80F483989B3
:10BAB000008840180D496D1C0880ADB2059880883B
:10BAC000A84204D90948771E0088B84295DB6088EF
:10BAD0000649F6F721F90028B9D01620B7E70899EA
:10BAE000049808801120B2E7E44300207C6600201F
:10BAF000FFFF0000F7B5044684B00546174608343A
:10BB0000008902A9F8F7C2F9030032D0187A80063A
:10BB10000ED568460089FFF793FA060006D06888BC
:10BB200012221946B047002802D023E00E2021E05F
:10BB3000607A002801D0522000E028790026009683
:10BB400001906388218868886268F8F737F90028CF
:10BB500002D016280BD00DE0607A002810D168883A
:10BB6000F6F722F9002800D0162007B0F0BD3E708D
:10BB700006E00120059922880A80617A0029F4D024
:10BB80000020F2E7FEB54C68089D667827783402FD
:10BB90000E783C43022E02D1054EB44201D0012062
:10BBA000FEBD022400950194F7F774FFFEBD00006E
:10BBB00002290000F8B505461D48854224D0461CE0
:10BBC000002922D001292CD002291DD1012128468B
:10BBD00001F03EFD002817D12846FEF7FBFF0400C8
:10BBE00012D0A0780026FF280DD0FE2806D000969F
:10BBF000E0781E2314222946FFF758F82046FFF765
:10BC0000DBF9FF20A0702671F8BD2846FEF7E2FFA1
:10BC10000028F9D13046FEF7DDFF0028F4D005807A
:10BC2000F8BD2846FEF7D6FF0400F9D02680D8E7F5
:10BC3000FEFF000038B5040010D0A078FF280DD01A
:10BC4000FE280BD0002000902188E0781E231722C8
:10BC5000FFF72CF8FE20A070FF20E07038BD10B573
:10BC60000C46FEF7B7FF002806D00279511CA1420E
:10BC700002D1D109C901017110BD0000F7B5887862
:10BC800000258AB00C461E2802D0122819D115E0D2
:10BC90000A98FEF79FFF050025D0A878FE2822D03D
:10BCA000FF2820D000200090A378E87800220A998D
:10BCB000FEF7FCFF2846FFF77FF914E060780128C3
:10BCC00014D00A98FEF786FF05000FD02A79002AC3
:10BCD0000CD0100607D4A1780A98FFF775F92879D7
:10BCE00080210843287100200DB0F0BDA1784808DC
:10BCF000C200344810188038876FC66F32484078C9
:10BD0000FF280DD019290BD2002F09D0002E07D003
:10BD10002078002802D16278002A03D0122901D0AD
:10BD200006274CE003A90091A3886178A268B84770
:10BD3000070044D103A90A98B047070020D06078D3
:10BD400000283CD1A078694608710F72A0780E28AF
:10BD50000FD08889C88001A90A98F5F703FE07006B
:10BD60002DD001AB012216210A98F8F7A9F9074650
:10BD700025E0039841780278080210436946E9E714
:10BD8000A378042B1BD003A800900F480022407812
:10BD90000A99FEF78BFF070011D1A17803A8FEF7DF
:10BDA0003BFF002802D00C9900200870A0781228D0
:10BDB00002D16178012902D0002D00D028713846C7
:10BDC00092E70000DC020100DC43002000B50346DE
:10BDD000F8F751FA002802D01818401E83B218460E
:10BDE00000BD10B51924A401624304F067F910BD29
:10BDF00010B5040008D02078FF2805D0FE2803D015
:10BE000004F0DEF9FF20207010BD0000F7B50F46EA
:10BE100004465321102003F09DFE064653211020B6
:10BE200003F098FE0546002E34D0002D2DD01022B0
:10BE3000002103F06BFF324629462046F9F724FD26
:10BE4000040023D13078000609D52946304601F098
:10BE500023FA3A461349284604F024FA03E0394607
:10BE6000304601F019FA3878000609D529463846D7
:10BE700001F012FA0B492846029A04F013FA05E081
:10BE80003846029901F008FA00E01324304603F026
:10BE9000B7FE00E01324002D02D0284603F0B0FEC8
:10BEA0002046FEBD55030100F8B5069800261D4644
:10BEB00014460F46002801D00B20F8BD3878002129
:10BEC000022801D0198016E07868427803781002C1
:10BED0001843294BC21A984225D007DC274A801AFA
:10BEE0000BD0012817D0022804D13DE0012A1FD031
:10BEF000A32A39D0298001263BE0F86804F097F99D
:10BF000082B20798824200D902462A80F968204608
:10BF100003F004FE2DE0F8680221008829802070DB
:10BF2000000A607025E0062028800246F968EEE7E6
:10BF3000F868002816D0082129800178217001882E
:10BF4000090A61708178A1704188090AE17001795C
:10BF500021718188090A61718179A171C088000A03
:10BF6000E07106E0298004E001202880F86800786C
:10BF700020703046F8BD0000032A0000002A0000AF
:10BF800010B50B78840702D50224234301E0FD2479
:10BF900023400B7003060B7802D58024234301E075
:10BFA0005B065B0E0B7003070B7802D50824234356
:10BFB00001E0F72423400B7083060B7802D5202480
:10BFC000234301E0DF2423400B708221084203D188
:10BFD000010701D4810603D510780C21084304E041
:10BFE000002803D11078F3210840107010BD000024
:10BFF000FFB581B0087800240A9E1F460D4602282E
:10C0000013D168684178027808021043394A811ACE
:10C0100090425ED005DC3849401A0AD0012804D18C
:10C020002DE0012943D0A42962D00124204605B087
:10C03000F0BDE86804F0FBF880B2864205D8F0193C
:10C040000090152803D90D24F0E70724EEE7E868EF
:10C050003A468019039903F061FD0098162180B2D9
:10C060000A1AE9680818002103F050FE2348806886
:10C070000028DBD00268002AD8D0002112E0002E70
:10C0800013D1022BDFD10398E968427803781002BC
:10C0900018430880194880680028C7D00268002A21
:10C0A000C4D0012101989047C0E70B24BEE7002EC1
:10C0B000FBD1062BC7D10622E868039903F02EFDB9
:10C0C0000E4880680028B1D00268002AAED0032153
:10C0D000E8E7002EE9D1012BB5D1039800780028BC
:10C0E00003D0012801D08024A0E7E96808709DE70B
:10C0F00003249BE7022A0000002A000020430020BE
:10C10000FFB581B00498164600280CD00121019893
:10C1100001F09EFA002809D0214F00253878002E22
:10C1200006D0387905E0012005B0F0BD1420FBE70A
:10C130003D7985421AD23A6929018C186188002913
:10C1400002D06D1CEDB2F4E7002C0FD0002E0FD002
:10C150001449202003F0FEFCE060002806D02022D5
:10C16000002103F0D3FD4035658003E01520DBE7B7
:10C170000020E060002020700198E080002E08D0B0
:10C18000707A2072B88AE168301A001100090877C5
:10C1900001E002982072049804600020C4E70000C7
:10C1A0004C440020024C00000A7802700A88120AEF
:10C1B00042700B880222012B02D0022B07D011E023
:10C1C0008A7882704988090AC17004220AE08A7854
:10C1D00082704A88120AC2700A7902718988090A33
:10C1E00041710622104670470A7802700A88120AC6
:10C1F00042708A7882704A88120AC2700A79027183
:10C200008A88120A42718A798271CA88120AC271B6
:10C210000A7A02720989090A41720A2070470A786B
:10C2200002700A88120A42708A7882704988090A64
:10C23000C170042070470A7802700A88120A42709E
:10C240008A7882704988090AC170042070470A7888
:10C2500002700A88120A42708A7882704A88120A2A
:10C26000C2700A7902718A88120A42718A798271CF
:10C27000C988090AC171082070470A7802700988C4
:10C28000090A417002207047F8B50D4606460024A1
:10C2900017E0396920014718387800280FD0F8884E
:10C2A000B0420CD1072D02D17888F8F707FE2A4654
:10C2B0000021384600F0EDF9384600F0FFF8641C24
:10C2C000E4B2164F38798442E3D3002D18D0F8BD7C
:10C2D000396920014518287800280FD0687AFF288E
:10C2E0000CD0E888B04209D1284600F0B9FF1421EB
:10C2F000284600F04EFA284600F0E0F8641CE4B24C
:10C3000038788442E4D304242046641CE4B2FF223B
:10C31000314600F0EDF8082CF6D3F8BD4C4400206F
:10C3200070B504460D464088F8F7C8FD2A4600213E
:10C33000204600F0AEF9204600F0C0F870BD0000C5
:10C34000F3B5488881B00D46002803D025490988F7
:10C35000884201D91B20FEBD0421686803F08CFBD4
:10C36000A9780446017068881F4E010A6170297817
:10C37000A17028880227010AE1706888001D85B233
:10C380000198B04211D10C2003F0C8FC01000AD082
:10C39000902008704E800F71CD8014488C6000781A
:10C3A00003F030FD16E01320FEBD23462A4600218F
:10C3B000F8F734FA0E49002807D002280CD00728D5
:10C3C0000CD012280CD01F28EED10878002801D0FC
:10C3D000401E08700020FEBD1420FEBD0420FEBDDE
:10C3E0000220FEBD56440020FEFF00005444002001
:10C3F0004D44002030B5094C05460021237809E062
:10C400002269080180184288002A01D0AA4204D07B
:10C41000491CC9B29942F3D3002030BD4C440020DE
:10C4200030B50A4A0446002113780AE0156908016C
:10C4300040194588002D02D00579A54204D0491C39
:10C44000C9B29942F2D3002030BD00004C44002014
:10C4500030B50A4B0021DC780BE05D690A01AA5A6D
:10C46000002A04D0824202D10801401930BD491C83
:10C47000C9B2A142F1D3002030BD00004C440020DD
:10C4800070B50D4D064600222C7910E02B69100185
:10C49000C0184388002B08D0C388B34205D1C368B5
:10C4A000002B02D05B888B4204D0521CD2B2A24235
:10C4B000ECD3002070BD00004C44002070B5C4686F
:10C4C0000546002C0CD0E068002801D003F098FB52
:10C4D0006069002801D003F093FB204603F090FB35
:10C4E00010220021284603F011FCFF20687270BD65
:10C4F0000C23584310B5094BC418303C608988425E
:10C500000BD16068002808D0FF2A02D00178914240
:10C5100003D103F075FB0020606010BDC4660020ED
:10C52000F3B5C46889B00026054602AF002C20D0C0
:10C53000E068002802D003F063FBE66020886946CB
:10C540004881608888812089C881608A4882208AE1
:10C5500008826888088100960197E988287A642310
:10C560000A9A00F03DF90A986077668226820BB03D
:10C57000F0BD0C220021384603F0C8FB68886946EC
:10C58000088100960197E988287A64230A9A00F0C6
:10C5900027F9ECE770B50C4605461222002120462B
:10C5A00003F0B4FB002D1DD0287F01010E48426925
:10C5B000515A2180297F426909018918498861807F
:10C5C0004189A1802988E18069882181A9886181C8
:10C5D000E988A1812989E181297F40690901081839
:10C5E000C088208270BD00004C44002010B5044675
:10C5F000084884420DD0012907D0022909D1012120
:10C60000204601F025F8002803D100212046FFF73D
:10C610003BFE10BDFEFF000010B50721FFF734FE02
:10C6200010BD10B5040009D06088002806D017217D
:10C63000204600F0AEF82046FFF740FF10BDF0B5F1
:10C64000002689B015460446002907D000960196B9
:10C65000E5880A46007A6023294616E01622002162
:10C6600002A803F053FB6846058102AF002D06D1F6
:10C67000608869464881391DE068FFF78BFF0197A4
:10C6800000963246E188207A602300F0A9F809B0CC
:10C69000F0BD10B588B0002901D000230AE06B4638
:10C6A0009A8142881A81C368002B02D05A886B464F
:10C6B0005A8102AB002201930092C4880A46007A94
:10C6C0006023214600F08CF808B010BD7FB5C26829
:10C6D0000D460446002A21D0508869464881622DC3
:10C6E00006D01849107F096800014018C08812E080
:10C6F0001548D1880088814200D20846C1B2107C1A
:10C70000528A801AC0B2002A01D1801CC0B24018DF
:10C71000401EF4F76BFD6946888104E00622002183
:10C7200002A803F0F3FA60886946088102A9002094
:10C7300001910090E188207A2B46002200F050F809
:10C740007FBD00006044002056440020F8B5074635
:10C7500015460E460C2003F0E1FA040017D0A02085
:10C760002070002066806070002D05D008222946C8
:10C77000201D03F0D3F904E008220021201D03F05E
:10C78000C5FA2146384603F03DFB0020F8BD0120E4
:10C79000F8BD7CB50446007804280AD0022815D0DC
:10C7A000062813D0032803D100222046FFF771FF8B
:10C7B0007CBD002000900190E5880A46207A132372
:10C7C000294600F00DF8E188122205E000222046FB
:10C7D000FFF735FFE18814220520FFF789FE7CBDB5
:10C7E000FFB581B01E46174620200B9D03F096FA38
:10C7F00004001AD0A22020706770029860800A9806
:10C8000020716671002D06D0204618222946083076
:10C8100003F084F905E0204618220021083003F0D7
:10C8200075FA2146019803F0EDFA05B0F0BD00005D
:10C83000F0B507460D4C00200146257812E023692B
:10C840000A019E5C002E0BD0D218D268002A07D0B5
:10C85000127F63691201D218BA4201D1401CC0B2E2
:10C86000491CC9B2A942EAD3F0BD00004C440020E3
:10C87000022A01D2012070474A780B7812021A432B
:10C880000280012A02D0022A06D00FE0CA788B78F3
:10C8900011021943418009E0CA788B7812021A43C9
:10C8A00042804A790B791102194381800020704738
:10C8B0000A2A01D0012070474A780B7812021A43E5
:10C8C0000280CA788B7812021A4342804A790B7927
:10C8D00012021A438280CA798B7912021A43C280EB
:10C8E0004A7A0B7A11021943018100207047042A09
:10C8F00001D0012070474A780B7812021A43028057
:10C90000CA788B7811021943418000207047042AAD
:10C9100001D0012070474A780B7812021A43028036
:10C92000CA788B7811021943418000207047F8B50E
:10C9300006460020706008790D46022825D1E98856
:10C94000042922D3A868427803781702C278807835
:10C9500014021F430443381D814216D1042C0AD00F
:10C96000052C08D0062C06D0072C04D02046FFF753
:10C9700041FD002809D0778034800321C943A8688D
:10C9800003F07AF870600020F8BD0120F8BD022A9B
:10C9900001D0012070474A780B78110219430180B9
:10C9A000002070470A7802704A784270CA788B7803
:10C9B0001102194341807047FEB50646144650885F
:10C9C00000220D467F2808D90220694608804A8047
:10C9D00060888880E9B26A460BE0A188172904D3F1
:10C9E000E088172801D3814207D268460280E9B265
:10C9F0006A463046F8F73CFAFEBD02922088FFF7FF
:10CA000027FD07002FD0FFF713FF397A884207D29E
:10CA100002AB3A46FF213046FFF772FB002801D0F7
:10CA2000042221E002982189C06801806188418048
:10CA3000A1888180E188C180B9880181FB68002BD1
:10CA40000FD0E9B22246304698470A49024688424A
:10CA50000AD102980621017005711E2100F0EAFB3F
:10CA6000FEBD002200E0022229463046029B00F073
:10CA70005BFAFEBDFFFF0000F7B5087802278AB019
:10CA800013460C4606280AD0122832D0142846D065
:10CA90000026162850D068460684497878E0A278A7
:10CAA000194602A8FFF723FF050069D168460089EF
:10CAB000FFF7A0FC060010D038480090627802AB67
:10CAC00007210A9800F0FCF9022200213046FFF706
:10CAD000E0FD3046FFF7F2FC51E069460F8408891B
:10CAE000488448898884617808AA0A98F8F7C0F9C8
:10CAF00045E06288194602A8F8F78DFA05003ED194
:10CB00002748818900293AD0617802AA01920091D0
:10CB10002378807B00220A99FFF762FE2FE062886B
:10CB2000194602A8F8F748FA050028D1617802AA48
:10CB30000A98FFF741FF22E06288194602A8F8F739
:10CB40005AFA05001BD1684601890A98FFF798FC3C
:10CB5000002817D0C06869460288498989180904E5
:10CB6000090C01800BD0C068002808D00D4800785F
:10CB7000002804D00C480121007803F095F92846DC
:10CB80000DB0F0BD69460F844E84088988846178B1
:10CB900008AA0A98F8F76CF93046F1E737C20000A6
:10CBA000C46600204D44002054440020F7B588B0EE
:10CBB0000D464878FFF734FC0127044600282FD0A3
:10CBC0000020207160802E78012E06D0072E0AD01A
:10CBD000132E18D0152E20D022E0AA7802A80A9988
:10CBE000FFF746FE17E02078032819D1AA7802A89B
:10CBF0000A99FFF78CFE05004BD101220021204647
:10CC0000FFF747FD45E02078042809D1AA7802A85B
:10CC10000A99FFF7BCFE05463BE02078022802D0C7
:10CC200000200BB0F0BDAA7802A80A99FFF740FED9
:10CC300005002ED16846008A0021002824D16846CC
:10CC400000890246403A402A07D26A465289172A8A
:10CC500003D36A469289172A06D2E1684880608821
:10CC6000F8F72CF902210FE06A46E068D2890280C9
:10CC70006A46128942806A46528982806A4692894F
:10CC8000C2800120207000276846028A2046FFF7F4
:10CC9000D6FC204600F0E4FA02A9002001910090A1
:10CCA000207A33462A460899FFF79AFD002F02D0D2
:10CCB0002046FFF703FC2846B3E7000030B587B0F5
:10CCC00004464588014602A8FFF731FE0399002972
:10CCD0001AD068460089052819D0042849D00628AA
:10CCE00047D0072845D002A9284600F059F8002867
:10CCF00008D0A068002801D002F082FF0121284658
:10CD0000F8F7F6F807B030BD0028F7D0F1E768462D
:10CD100040890428EDD301A8FFF744FE6846C08887
:10CD2000182809D3012069460882172048824979CA
:10CD300004AA2846F8F79CF868464189C088001D77
:10CD4000814202D02846FFF767FC68460079039AC3
:10CD5000C00701A9284603D0121DFFF727FF02E0F4
:10CD6000121DFFF789FE0028C3D02846FFF754FCA8
:10CD7000BFE70C2148430949401830380188002991
:10CD8000B7D0807802AA2946FFF7E0FC0028B0D18E
:10CD9000684600890428B1D1B4E70000C4660020C9
:10CDA000F3B583B00D460888FFF724FB060076D064
:10CDB000F468002C73D0F188039881426FD12089E8
:10CDC000002874D0401E80B22081217F0A013A4998
:10CDD00009685118C988884203D163213046FFF79A
:10CDE00075FC6069002828D16868417802780F02D4
:10CDF00017436A88B91C8A420DD10121C94302F048
:10CE00003BFE68606F80307A2A460399FFF79EFCEC
:10CE1000002845D00EE02949384602F09BFE6061AB
:10CE200027830121C943686802F026FE686068888C
:10CE3000801E68806069002837D06A88608B238BE9
:10CE40001118994201D9042132E0237F1F011A4BA6
:10CE50001B68FB185B88994225D8616908186968C6
:10CE600002F05CFE6888618B401880B26083218B81
:10CE7000884214D170886946088060690190208BCF
:10CE80004880307A6A460399FFF760FC002802D098
:10CE9000606902F0B5FE002060616083208301209C
:10CEA00005B0F0BD03E0052102E0092100E0062104
:10CEB0003046FFF735FAF2E760440020014C0000ED
:10CEC000FFB583B00E461546022117200C9FF8F7D8
:10CED00061F9040023D0002F03D0201D0699B84724
:10CEE00000E0002026706570A070010AE1706946BC
:10CEF000001D4880052008800A4801940078002819
:10CF0000039802D0FFF71CFA01E000F0B1F9050028
:10CF100002D0204602F074FE284607B0F0BD132070
:10CF2000FBE700004D440020F0B585B015460E46E5
:10CF300007461C460A22002101A802F0E7FE6846C7
:10CF40008581002D12D16088694688801548008847
:10CF50000881E068002809D0134A017F126809019E
:10CF6000891849886A46D180008950810F4800900D
:10CF7000F2B201AB15213846FFF7A2FF060007D039
:10CF8000002D05D02046FFF799FA304605B0F0BDD8
:10CF90000120207000202071024601462046FFF744
:10CFA0004EFBF2E75644002060440020E9C1000037
:10CFB0001CB504281DD30C210F4A41438C18303C6A
:10CFC0006168002915D00D4A1278002A0FD06A46F0
:10CFD000108001912089508060896946FFF7B0F97F
:10CFE000002802D0606802F00BFE00206060012083
:10CFF0001CBD00201CBD0000C46600204D44002064
:10D00000F8B5214F3E7834462048210100680D18BC
:10D01000287801282DD1E96800292AD0C86800287D
:10D0200027D0088800281AD019480078002814D082
:10D03000164821010068081800F09CF8010003D090
:10D040002846FFF76DFA1DE01248641C0078844200
:10D0500001D23C7001E0002038700120F8BD487F0B
:10D06000FF2806D128466221FFF730FBE96800203F
:10D0700048770848641C0078E4B2844200D3002456
:10D08000B442C1D10020F8BD534400205C440020CC
:10D090004D4400205044002010B50520FFF788FFC4
:10D0A00000280ED10620FFF783FF002809D10420B5
:10D0B000FFF77EFF002804D10720FFF779FF002843
:10D0C00001D0012010BD034800780028FAD0FFF7F6
:10D0D00097FF10BD50440020FFB583B014460D46A5
:10D0E0000C9F0E9A0D991E46062D13D001AB039886
:10D0F000FFF706F800281BD10198052207701C4B8A
:10D1000042801978FF2915D00171491C1970142D1E
:10D1100014D018E06088FFF76DF90190002806D060
:10D12000C068408820800198C0880390E4E702200E
:10D1300007B0F0BD012119700171E8E76280019824
:10D140002189C06801810198009602792346294609
:10D150000398FFF7B5FE040003D00198FFF7AEF97E
:10D1600003E01E21019800F065F82046E0E700008A
:10D1700052440020F1B582B00298C4682C48E68879
:10D180000088B04200D20646608A002804D0218A76
:10D19000081AB04204DB05E0208A801CB04201D2AC
:10D1A00085B200E0354602212846F7F7F3FF070075
:10D1B0003AD060886946088001974D80608A0028CF
:10D1C0000BD1207C3870208A000A7870BF1CB542D1
:10D1D00001D2258A01E0AD1EADB2618AE0682A461F
:10D1E0004118384602F09AFC02986946C088FFF759
:10D1F000A7F8060003D0384602F002FD15E02088AB
:10D20000401E80B22080618A491989B26182228AD7
:10D21000914204D2002808D1FF20607705E0002168
:10D220000298FFF77DF900E013263046FEBD0000AE
:10D230005644002010B50446064848430649F3F713
:10D24000BFFF0246234609332146044802F036FF59
:10D2500010BD000040420F007102000023C6000014
:10D2600010B50446407A02F0ABFFFF20607210BD9B
:10D270000A880C235A43074BD218303A5368002BC4
:10D2800001D0162070474B68536050814888108148
:10D2900000207047C466002010B500230F22845C74
:10D2A00064001C438C54835C521EDB09D2B20F2AEB
:10D2B000F5D910BDFFB581B01D4617460E4608468C
:10D2C00000F05CF8002802D0112005B0F0BD144831
:10D2D00000F054F8040020D065710622A01D0A99C0
:10D2E00002F01CFC66802771019820700025E56221
:10D2F0000B9820730C98E0810D9820820E98608224
:10D300000F98A08200F0B8F82086656300213046AF
:10D31000A56300F0C5FE0020D7E71520D5E7000083
:10D32000FFFF000070B514460D46064600F026F8D3
:10D33000002808D00379C06A00280CD012211940B7
:10D34000102905D00BE00C48864213D0142070BD84
:10D35000002C02D103E0D8060CD4052070BDD906FC
:10D3600001D40F2070BD002804D0807EA84201D2D5
:10D370000C2070BD002070BDFEFF000030B50A4AD1
:10D38000002113780CE03C2455684C4364196488F0
:10D39000844203D13C204143481930BD491CC9B2E5
:10D3A0009942F0D3002030BD64440020F0B50C4D0C
:10D3B00000210C4E2C780FE03C226B684A43D718B2
:10D3C0007F88B74206D09A5C824203D13C20414319
:10D3D000C818F0BD491CC9B2A142EDD30020F0BD70
:10D3E00064440020FFFF000030B50B4A0021147890
:10D3F0000DE03C2355684B435B191B8E834204D1DF
:10D400003C2041434819408830BD491CC9B2A14263
:10D41000EFD3024830BD000064440020FFFF00004D
:10D4200030B5134B0020134D1C781DE03C215A6889
:10D43000414389184A88AA4214D0496B002911D067
:10D440000A78012A02D0002A04D00BE049780C297E
:10D4500003D807E049780C2904D23C214843596895
:10D46000401830BD401CC0B2A042DFD3002030BD08
:10D4700064440020FFFF000030B5114C0021084635
:10D4800023780AE03C226568424352191579002D41
:10D4900001D0128E1143401CC0B29842F2D348080A
:10D4A000C04381B2012004E0CA0704D14908401CEE
:10D4B000C0B29842F8D30121814088B230BD00004B
:10D4C0006444002070B51348134C007F8107890F16
:10D4D0008008081820701BD03C2148430F4902F0F7
:10D4E00039FB6060002002460D4B07E03C21656877
:10D4F000414349194B800A71401CCA622178884215
:10D50000F4DB084900208300401CCA500C28FADBD9
:10D5100070BD00004C6500206444002001900000B4
:10D52000FFFF0000F466002000B5FFF727FF00288A
:10D5300000D0808A00BD000030B50F4B00200F4C9A
:10D540001A7814E03C215D68414349194D88A54291
:10D550000BD0496B002908D04978C91F092904D884
:10D560003C2148435968401830BD401CC0B290422D
:10D57000E8D3002030BD000064440020FFFF00001D
:10D5800030B5094A0020014614780AE03C2355686A
:10D590004B435B191B79002B01D0401CC0B2491CC6
:10D5A000C9B2A142F2D330BD6444002001480078E2
:10D5B0007047000064440020F8B505000FD0002437
:10D5C000074E084F08E03C207168604340184188CE
:10D5D000B94200D0A847641C30788442F3DBF8BD20
:10D5E00064440020FFFF0000074A00218B00D3584D
:10D5F000002B05D0491CC9B20C29F7D31320704762
:10D600008900505000207047F466002010B5FFF7E5
:10D61000B5FE040013D06088012100F041FDE06AEE
:10D62000002801D002F0ECFA3C220021204602F052
:10D630006DFB0020C04360800020207110BD0220DF
:10D6400010BD00B5FFF79AFE002800D0007B00BD9A
:10D6500010B50C460549884206D0FFF78FFE00281A
:10D6600003D00079204000D0012010BDFEFF000053
:10D6700010B50C46FFF782FE002802D0818AA14235
:10D6800001D1012010BD8482002010BD10B51221EF
:10D69000582002F05FFA040017D05822002102F04F
:10D6A00035FB0B4804640020E0716071A071208399
:10D6B000E061206207480169E1644069206506482D
:10D6C0002064064860640648A064204610BD00003F
:10D6D00044670020A0650020E5D60000C1D7000007
:10D6E0002DD80000F8B5334D25202C6C015D28465F
:10D6F000006C2630002902D0012904D00FE02D490A
:10D7000006228C3109E0A978002903D02949062294
:10D71000923102E027490622983102F0FFF90120F8
:10D72000E071022121716073E073A07B224E00271B
:10D7300000282FD0B088400A20306083A96B0029D0
:10D7400003D1B188490A40186083286E002804D1AB
:10D75000B188608B090A40186083608B0C214843B4
:10D7600080B2132102F0F6F9E061002801D0002117
:10D770000BE00720F8BD521E8A4204DD02460C323F
:10D780000260104600E00760491C628B8A42F2DCAE
:10D79000E06920623220B077628A084C1021E0787C
:10D7A00002F0C2FCE078102102F07EFB2F70002016
:10D7B000F8BD0000446700204C6500208065002013
:10D7C00010B51348046CC06D002820D1A079AF2893
:10D7D00001D0FBF70FFA0F49592009680865252089
:10D7E00060710D48002101700221C171A120A0715A
:10D7F0000A48E28AC078202102F0A8FC04210848E7
:10D80000FAF770FD627907490748FBF745F910BD43
:10D810004467002048420020A06500208065002069
:10D8200045DC000055555500D6BE898E70B5174EA3
:10D83000346C607927280DD2401CC0B26071A121E0
:10D84000A17100F0E1F81248E28AC078202102F0CC
:10D850007DFC70BDFBF7CEF9AF20A0710421002044
:10D86000FAF740FD3078401CC5B235701920618A46
:10D870008001F3F7A5FCA84203D9064840790028A7
:10D88000E7D000F0CDF80020307070BD4467002074
:10D8900080650020A06500200548016D002004E09F
:10D8A000CA79002A00D1401C09680029F8D17047C4
:10D8B000446700200548016D002004E0CA79012A70
:10D8C00000D1401C09680029F8D170474467002046
:10D8D000F0B5064685B004210020FBF7CEF80146DE
:10D8E00030464030009001822248006E01283CD929
:10D8F0000098318F008B0125401A00994F8A98219A
:10D9000089597843401804901B48C07B2230400856
:10D910000B300390781E029025E016482821046DF4
:10D920002846484300220499D2434018019013E04E
:10D93000B44202D12468002C19D0204680304169BD
:10D94000B94205D1019A8069101AF3F739FC0A46E9
:10D950000398824203D32468002CE9D107E0002C0D
:10D9600005D00298AD1CA842D7D805B0F0BD0098EC
:10D970000582FAE7446700204C65002030B500229C
:10D98000074C07E00D889D4202D8D8B2088030BD10
:10D99000521CD2B2A35C8342F9D8FF2BF2D130BD26
:10D9A0006503010010B515490968CA68520B520396
:10D9B0000243CA603A281FD9114B1A68114881687E
:10D9C0008902890E16290CD081688902890E1A29CC
:10D9D00003D28168090C8906F1D1FBF70BF900200D
:10D9E00010BD3021064CC943803421608168890212
:10D9F000890E1A29FAD31A60012010BDDC420020DA
:10DA000000E100E000C20040044909680A684006DD
:10DA1000D209D201400E02430A607047D84200206A
:10DA2000F8B519490126886A184D00281AD0804790
:10DA3000174F04467889002820D0A04201D2214601
:10DA400000E00146A04200D32046081A3C2815DD1C
:10DA50000D48C06A002800D080476E71F4F782FB41
:10DA60007C81F8BD68790021002805D1A868401C98
:10DA7000A8600007F5D56E71A96002E068790028FA
:10DA8000EFD0F4F7A7F9F8BD4C650020A0650020A1
:10DA90008065002010B588B00C46002100910191EE
:10DAA000029103910491059106910791E1786A46EC
:10DAB000D173217991736179517304AA6946F7F79B
:10DAC000E3FE6A46D07F217888420AD1907F617850
:10DAD000884206D1507FA178884202D1012008B047
:10DAE00010BD0020FBE70000034610B50A461946AA
:10DAF000014802F0E3FA10BDFDDA000070B5124DE6
:10DB00000446A86F02E0A04203D0C06B0028FAD1FF
:10DB100070BD0028FCD0002CFAD0A07A002805D0D7
:10DB2000214620460C311A30F7F7E6FBA07C00288E
:10DB300005D02146204614312A30F7F7DDFB204678
:10DB4000296BFFF7D1FF70BD44670020FEB5044686
:10DB5000817B2E3026462036029000292DD0208B46
:10DB6000618B884229D220462E30E56937460090E5
:10DB70002979607A81420AD16879797B884206D115
:10DB80000622A81D009901F0BBFF012823D02D68B3
:10DB9000002D02D0206AA842EAD8206A617A017179
:10DBA000717B41710622801D029901F0B7FF208B25
:10DBB000401C2083206A00682062607A01280CD013
:10DBC000A17A252907D800282BD0022826D004289E
:10DBD00027D0062824D00020FEBD1948006C007B09
:10DBE000800706D5737D002B03D0F07E80090128C5
:10DBF00009D0112161560020009001910346717BEC
:10DC00000120029A17E0112020563634019000942A
:10DC1000717B0120029AF6F76DFD0EE0032000E013
:10DC200002201122236DA2560833891F009301920E
:10DC3000CBB2717B029AF6F727FD0120FEBD0000F2
:10DC400044670020F8B54048A126046C0027A0795D
:10DC50003E4DA4281BD0A1284ED0A32816D1687809
:10DC6000002840D08020287139481223816B009110
:10DC7000816B009A9142F9D13649D018884201D37C
:10DC8000494240183449C860A420A071F8BD2878E2
:10DC9000C00728D0FAF7AEFF204600F065F800284C
:10DCA00014D010202056002803DB0021C943217422
:10DCB00007E0E07B40000006000EE07301D1FF2189
:10DCC000E173E17B0120FAF7D8FE60732F702349DE
:10DCD000592009680865A6710220E87100210846EC
:10DCE000FAF700FB29E028790128CFD10021A6719D
:10DCF0000846FAF7F7FAF8BDE87902280DD0FAF7E6
:10DD000079FF16495920096808652F700220E871CB
:10DD1000627913491348FAF7BFFE2878C007EAD0A2
:10DD20002F70204600F020F8A079A128E3D10B49FC
:10DD30005920096808650220E87162790849094894
:10DD4000FAF7AAFEF8BD000044670020A065002095
:10DD5000001000400000C0A880650020484200205C
:10DD600055555500D6BE898EFEB504462246006D37
:10DD700011320021FAF73CFE00286FD1206D407867
:10DD80008006800EA072801F1F280DD8206D00789D
:10DD90000007000F607209D0012807D0042805D0C1
:10DDA000022803D0062801D00120FEBD206D2546A3
:10DDB000007820354006C00F68732046216D2E3054
:10DDC0000622891C009001F0A9FE607A26463636AC
:10DDD000012809D1206D06220078C0096875216DDF
:10DDE0003046083101F09AFE607A02270007000FE2
:10DDF000012811D1207B800706D5687D002803D03B
:10DE0000E87E8009012820D02046062231462630AF
:10DE100001F076FE002840D0002028733A48012601
:10DE20004078002806D0687B002803D0E87C800971
:10DE3000012814D02E73207BC00730D0216BE06AFC
:10DE4000F9F704F8002828D029E020463430F8F704
:10DE500047FBE0630028DFD02F75DDE72AE020468E
:10DE60002C30F8F76FFBE063002818D02F73E06BBD
:10DE70000622C07838436873E16B0098091D01F0F1
:10DE80004DFE207BC0070AD0E16B08226846891C42
:10DE9000F3F70DFA01990098D2E70220FEBDA079B0
:10DEA000A428607A04D0002818D0062816D020E0D4
:10DEB000042801D01020FEBD10202056012801DAD0
:10DEC000267404E0E07B4008E07300D1E673E17B58
:10DED0000120FAF7D2FD607320460DE0E07A0128B8
:10DEE00007D1287B002804D0607B002807D0401E83
:10DEF0006073FAF77FFE2046FFF728FE02E0204617
:10DF000000F004F80020FEBD44670020F8B5044688
:10DF10000C202072E16C03200870207AE16C8006EE
:10DF2000800E2546487020356879AE1D8007002890
:10DF300024DA287B012801D0E06B04E020462C3055
:10DF4000F8F7E4FAE063002809D0807A002806D0C8
:10DF500002202871E16B062230460C310CE00120D2
:10DF600028716879C00703D006223949304603E09A
:10DF700037490622891F304601F0D0FD6879C00775
:10DF800002D12879022804D1E06C402201781143A3
:10DF90000170E06C06223146801C01F0BFFD687BF9
:10DFA0008025012803D1E06C017829430170E06CE1
:10DFB000214606222E31083001F0B0FD207A254E90
:10DFC000401D8008E26CB17C8000115422488168B9
:10DFD0008902890E162934D280688002800E1028AA
:10DFE0002FD9E06C4078FFF7DDFC1C495A20096806
:10DFF00008652046FFF7AAFD207A1949C0000D7177
:10E00000317DFF301930C90702D01F30430902E0CB
:10E0100014494843430C1448816B0091816B009A6A
:10E020009142F9D11149D018884201D34942401890
:10E030000F49C860A320A07100210E48FAF752F9D9
:10E04000F8BDFAF7D7FD2046FFF780FDF8BD0000C8
:10E05000D66700204C65002000C2004048420020E6
:10E06000A0650020C7100000001000400000C0A8FC
:10E070008065002045DC000070B5002380241D462B
:10E08000934202D2C65CCE5404E0934201D1CC54F8
:10E0900000E0CD545B1CDBB2102BF1D370BD00004F
:10E0A000F8B5074D0E4607460024A0002A58002A5E
:10E0B00002D0314638469047641C0C2CF5D3F8BD8D
:10E0C000F4660020FFB581B00298FFF757F907000A
:10E0D0005ED0BE6B002E5BD0316A1820002900D0C4
:10E0E0003420B16A002900D014300499002900D0EE
:10E0F0001C30716A002900D0163001F00FFE044672
:10E10000250045D01822002101F000FE1820F5F767
:10E11000A1F90006000E009001D138780090D020BF
:10E120002870019868700A20A8700298A880039847
:10E13000A871306A1834002806D0AC6020461C2232
:10E140001C34316A01F0EAFCB06A002806D0EC60A9
:10E15000204614221434B16A01F0E0FC049800282F
:10E1600006D02C6120461C221C34049901F0D6FCF8
:10E17000706A002805D06C6120461622716A01F091
:10E18000CDFC2946009801F03DFE3846FBF718FC0F
:10E1900005B0F0BDFFB581B006461C461546082007
:10E1A0000A9F01F0BBFD01000AD0D02008704E701C
:10E1B000062088708D808C71CF71029801F022FE4C
:10E1C00005B0F0BD70B5446B0546E06D4069C10512
:10E1D00003D5A1698988C9050BD4810503D5A16937
:10E1E0008988890505D440050CD5A069808840053B
:10E1F00008D506206070204600F0B8F86078122834
:10E2000002D070BD122060706888002100F010F804
:10E2100070BD01461020002909D08A69002A06D065
:10E22000C96D002903D0D078102800D3087E70472C
:10E230007FB50D46FFF7A2F804001AD0606B0028E6
:10E2400017D0014660314EC903966E460EC68379DB
:10E25000828801782846FBF767FC204600F00CF81E
:10E26000FFF76AF9002804D002480121807801F004
:10E270001BFE7FBDEE42002070B5446B0546002CAE
:10E280001DD0A069002801D001F0BAFC206E002842
:10E2900001D001F0B5FC606E002801D001F0B0FCA7
:10E2A000A06E002801D001F0ABFCE06E002801D088
:10E2B00001F0A6FC204601F0A3FC00206863288E34
:10E2C00000F0AAFD70BD00001FB5014604461022F3
:10E2D0001C31684601F022FCA088034B6A461121DC
:10E2E00000F032FD04B010BD2DF200001FB5040097
:10E2F0000FD0694600F04DFD20780028A08801D09D
:10E30000054B00E0054B6A46072100F01DFD04B0F7
:10E3100010BD0120FBE7000085F2000025F300009E
:10E3200070B50D46064600240BE001F097FD82B261
:10E33000100A3055641CE4B2AC4202D23255641C5F
:10E34000E4B2AC42F1D370BD1FB5014604461022C1
:10E350002C31684601F0E2FBA088034B6A4611218C
:10E3600000F0F2FC04B010BD65F20000F8B5044600
:10E37000007801282AD16078122506280BD00C28B5
:10E3800025D010260D2857D00E2872D00F286FD018
:10E39000102814D019E0A0694068C10503D5E16DCB
:10E3A000898AC90513D4810503D5E16D898A890558
:10E3B0005FD4400509D5E06D808A400505D5FBF79F
:10E3C00081FB0146A08800F0EDF86570F8BD206E75
:10E3D00000280DD153211C2001F0BCFB2066002831
:10E3E00028D01C22002101F091FC206E002821D0B1
:10E3F000807E002804D12046FFF70BFF216E88762F
:10E4000010220021206E01F081FC206E817E002907
:10E4100003D0112901D2FFF783FF01F01FFD216E08
:10E420000882206E08211230FFF77AFFA088216E43
:10E4300000F07CF80D2023E0206E002805D0024675
:10E44000018A1232A08800F099F8A069406881051D
:10E4500005D5E16D898A890501D50E2010E04005BA
:10E46000B3D5E06D808A4005AFD5667009E000E065
:10E4700010E0FBF721FB0146A08800F075F80F20A3
:10E480006070A088FEF77AFF002816D0C089410886
:10E49000421813E0FBF70AFB01280BD001200027EC
:10E4A000FBF7F4FA0246A088394600F049F8A06963
:10E4B0008088D4E700200127F2E7102202480121DA
:10E4C000807801F043FEF8BDEE42002070B50C46A6
:10E4D0000546FEF753FF426B002A06D09188A942F9
:10E4E00003D1012C01D1FFF7C7FE70BD70B5FEF757
:10E4F00097FF040017D0656B002D14D029780A48C7
:10E50000002901D0406800E08068002804D04168FC
:10E51000002901D0284688476878122803D16088EE
:10E520000021FFF785FE70BD6C44002010B50A463F
:10E53000024B112100F008FC10BD00009FF100000B
:10E540001FB5044668461346017006221946401C52
:10E5500001F0E4FA034B6A460821204600F0F4FB80
:10E560001FBD0000BFF1000010B50A46024B11218B
:10E5700000F0EAFB10BD0000E3F100001FB5044607
:10E5800068461346018008221946801C01F0C6FA2D
:10E59000034B6A460B21204600F0D6FB1FBD00004E
:10E5A00003F2000010B50A46024B112100F0CCFB2B
:10E5B00010BD000033F3000070B586B004460020A3
:10E5C00069460874A06805782B00FAF727F80C2C28
:10E5D00007070F1215181B1E2124272C01F06EF8B7
:10E5E00012281DD10620694608743DE001F037F875
:10E5F00016E001F053F813E001F040F810E000F0ED
:10E60000EBFF0DE001F017F80AE001F005F807E074
:10E6100000F0F1FF04E001F0D9F801E001F0CCF8DE
:10E62000002802D01CE00720DEE76088FEF7A6FE87
:10E6300003460720002B10D01A7B1049082A0AD065
:10E64000896800290AD00E68002E07D06A4629463C
:10E650001846B04702E04968F3E7082069460874A5
:10E660006846007C002805D0608804A900F05AFBA9
:10E6700006B070BD608800F0B9FBF9E76C4400207B
:10E68000F8B50D460746FEF779FE002849D0446BE1
:10E690001026002C07D0A088B84204D16078062844
:10E6A00004D0112831D0002D3DD036E02078224909
:10E6B000002826D0E06D4069C20705D0A269127912
:10E6C000D20701D0072006E0820706D5A269127999
:10E6D000920702D50920607023E0400705D5A069A4
:10E6E0000079400701D50B20F5E74868002818D0CD
:10E6F0004168002915D0204688476078122802D04A
:10E700000FE08868F2E7002103E0002D00D03225F9
:10E7100029463846FFF78CFD03E039462846FBF7CB
:10E72000DFFF0120F8BD3846FEF728FE0028F4D0B0
:10E73000017931430171F0E76C44002010B50446C3
:10E74000104886B0806800281AD00268002A17D0C6
:10E750000A786B461A704A785A708A789A70CA7822
:10E76000DA704968019103686A460121204698479A
:10E77000002805D069460874608804A900F0D2FA20
:10E7800006B010BD6C44002070B51C4E05463068C4
:10E79000002832D0002D13D10278002A04D008229C
:10E7A0000A3001F0BBF908E00822801C01F0B6F93C
:10E7B000F5F7C5FF00281CD00125306800281BD0C4
:10E7C000122001F0ABFA04000DD0C120207065705A
:10E7D00031681022A01C891C01F0A0F93068214684
:10E7E000407801F00FFB306801F00AFA0020306039
:10E7F00002E0316801200870012070BD6C440020E7
:10E8000010B50178922902D0A0292ED014E04178C9
:10E810000E2902D03E290AD00EE08188184A914282
:10E820000AD18268511C1078FFF7AEFF10BD8178C5
:10E83000052903D0082913D0002010BD0446808884
:10E84000FEF7FFFE042818D10E488068002814D077
:10E850008368002B11D0E289A088A11D984710BDC4
:10E8600081798088FFF70CFF10BD0446FFF7A4FEF6
:10E87000A068002801D001F0C3F9012010BD0000FC
:10E88000182000006C440020F7B58CB015460646F1
:10E89000FEF774FD446B10220021684601F036FA41
:10E8A000002C35D0A088B04232D1207800282FD15A
:10E8B000607806280FD0216E002929D01128088AF7
:10E8C00019D0A84224D1082212310D9801F018F96C
:10E8D000012859D01CE02246214608AB4C322C318D
:10E8E000E01D00F020FC002812D12046FFF791FC2B
:10E8F000024608A944E0A84206D1082212310D9828
:10E9000001F0FEF8012836D032213046FFF790FCA6
:10E910003046FEF733FD374F04000CD0E16A002982
:10E9200009D0088AA84206D1082212310D9801F0B8
:10E93000E7F801282BD030480078022846D02F482D
:10E94000007800284BD01022002104A801F0DEF945
:10E9500006222B4904A801F0E1F804A96A460846FA
:10E96000F6F792FF69463046F5F7E5FE3A6B002A66
:10E970003ED003213AE02046FFF74BFC216E0246D1
:10E98000684601F0CBF80FE0216E8A7EF8E7E16A75
:10E9900068468A7E01F0C2F81A480078002808D03C
:10E9A000E06AC07E012804D069463046F5F7C3FE10
:10E9B0001EE00F213046F5F715FF3A6B002A02D012
:10E9C00002210720904700200FB0F0BD0F213046F4
:10E9D000F5F708FF3A6B002A0AD0042106E030461A
:10E9E000F5F7A5FE3A6B002A02D0012107209047D7
:10E9F0000120E9E74C650020AB440020AA44002038
:10EA0000D0650020A54400207FB50446007800288A
:10EA100072D1607806280BD0072811D00B25082862
:10EA20006ED009286AD00A2869D00B2818D01DE0BA
:10EA3000E06D4069C10707D0A1690979C90703D012
:10EA4000206E00281CD022E0810703D5A169097936
:10EA5000890770D4400709D5A0690079400705D51A
:10EA6000FBF730F80146A088FFF79CFDE06D406998
:10EA7000C10571D5A1698988C9056DD50C2090E0C3
:10EA800053211C2001F066F82066002832D0204671
:10EA9000FFF7BFFB216E102288760021206E01F067
:10EAA00035F9206E817E002917D0102915D8414AEA
:10EAB0001278002A0FD010220021684601F026F9B2
:10EAC00006223D49684601F029F869460846226E4B
:10EAD000F6F7DAFE01E0FFF723FC01F0BFF9216E43
:10EAE0000882206E08211230FFF71AFCA088216EE0
:10EAF000FFF71CFD082025E054E001E01BE02CE0BE
:10EB0000206E002805D00246018A1232A088FFF745
:10EB100035FDE06D4069810705D5A169097989074F
:10EB200001D509200EE04007A0D5A0690079400773
:10EB30009CD5657007E0FAF7BFFF0146A088FFF794
:10EB400013FD0A206070A088FEF718FC00282AD068
:10EB5000C0894108421827E012E0FAF7A7FF012810
:10EB60000BD001200026FAF791FF0246A08831461B
:10EB7000FFF7E6FCE06D007DD5E700200126F2E717
:10EB8000810505D5A1698988890501D50E2008E090
:10EB9000400505D5A0698088400501D5102000E01A
:10EBA000122060707FBD102204480121807801F09E
:10EBB000CDFA7FBDAA440020D0650020EE4200209F
:10EBC00070B5044680690D46002801D0112070BD43
:10EBD0005321102000F0BEFFA061002807D01022B2
:10EBE000294600F09BFF2078002802D06DE013201A
:10EBF00070BDE16DA36948691B79C207DB07D20FBD
:10EC0000DB0F9A4202D0400840004861E16DA369E1
:10EC100048691B7982079B07D20FDB0F9A4202D00B
:10EC2000022290434861E16DA36948691B7942075C
:10EC30005B07D20FDB0F9A4202D004229043486157
:10EC4000E16DA36948691B7902071B07D20FDB0F2F
:10EC50009A4202D0082290434861E16DA369486955
:10EC60009B88C205DB05D20FDB0F9A4203D0FF223F
:10EC7000013290434861E16DA36948699B88820530
:10EC80009B05D20FDB0F9A4203D001225202904320
:10EC90004861E16DA36948699B8842055B05D20F15
:10ECA000DB0F9A4203D00122920290434861E16D4A
:10ECB000A36948699B8802051B05D20FDB0F9A42A6
:10ECC00003D00122D202904348616878002805D021
:10ECD000E06D4078002801D005201BE0A8784007AF
:10ECE00005D4E06D807C400701D4012012E020783B
:10ECF000002803D0E16D2878097802E0E06D2978DA
:10ED00000078052809D2052907D282008018044A14
:10ED10008018405CE070002070BD182070BD0000BD
:10ED20003C03010070B50C460A460546054B02211E
:10ED300000F00AF8064621782846FFF779FA3046AF
:10ED400070BD00004DF200007CB516460A4605462F
:10ED50000620694608804A801C4603211046F6F7C3
:10ED600019FA019000280ED001463046A047040051
:10ED700005D169462846F6F7C7F9040004D0019882
:10ED800000F03EFF00E01324284600F02FF8204654
:10ED90007CBD10B50B46002811D0C16D00290ED0E6
:10EDA00009781970C16D49785970C26D927C9A705A
:10EDB000C16D097ED970C06D4069586010BD1022C8
:10EDC0000021184600F0A2FF10BD000038B5064C27
:10EDD000049D6468002C05D0A468002C02D0009526
:10EDE000A04738BD022038BD6C44002070B50546F0
:10EDF0001220F4F72FFB04000AD02846FEF7BEFAD3
:10EE0000002805D0018E03482246807801F09EF943
:10EE100070BD0000EE420020014610B50248807827
:10EE200001F0F2F910BD0000EE42002010B5FEF72F
:10EE3000DBFA0349884202D01721FFF7F9F910BD28
:10EE4000FFFF0000FFB50F4689B015465321102083
:10EE500000F080FE05905321102000F07BFE06900C
:10EE60000598002878D00698002870D002460599A9
:10EE70000998FCF7CBFF04006AD15321102000F061
:10EE800069FE08905321102000F064FE0490089859
:10EE9000002853D0049800284BD028460F30010991
:10EEA0000DD0280709D00020491E8EB2002807D0B7
:10EEB0003001C019049A05990CE00120F4E70026FE
:10EEC0002A073001120FC0196946FFF7D5F86846C6
:10EED000049A069901F0E6F910220021089800F042
:10EEE00015FF00250DE02801C1196A46089801F0B8
:10EEF000D9F96946089A0998F6F7C6FC6D1C0446CC
:10EF0000ADB2B54202D2002CEDD013E0002C11D1ED
:10EF10006A460499089801F0C5F96946089A099863
:10EF2000F6F7B2FC0446129A08990C9800F0F6FD28
:10EF300000E01324089800F063FE00E01324049816
:10EF4000002805D000F05CFE02E005E0FFE7132496
:10EF5000059800F055FE00E013240698002801D023
:10EF600000F04EFE20460DB0F0BDF8B50F46064647
:10EF700015465321302000F0EDFD040020D0302252
:10EF8000002100F0C3FE10223146204600F082FF2F
:10EF90002046032239461D3000F07CFF22462146E0
:10EFA000203210312046F6F76FFC214603222D3126
:10EFB000284600F06FFF204600F022FE0020F8BD3A
:10EFC0001320F8BDFFB58DB005003AD0A888FEF734
:10EFD000D5F9040035D005A92846FFF7DAFE2878D0
:10EFE000002810D0FAF762FD0090607901900020AF
:10EFF000FAF74CFD0746A61D09A905A800F042F93D
:10F000000BA9A8690FE0FAF751FD01906079009013
:10F010000020FAF73BFD0646A71D09A9A86900F0E4
:10F0200031F90BA905A800F07DF90199109802911A
:10F03000049009AB0BAA019703960F990E9800F064
:10F0400002F811B0F0BDFFB589B01F465321302042
:10F05000129E149D00F07EFD040060D0302200213D
:10F0600000F054FE10222046099900F013FF1022F0
:10F070000021684600F04AFE072268460B9900F01E
:10F0800009FF01A807223946033000F003FF0121E0
:10F090000020002D6A4601D0917300E09073002E8D
:10F0A00001D0D17300E0D0731022002104A800F039
:10F0B0002DFE062205A8139900F0ECFE06A80622F4
:10F0C0000230159900F0E6FE1022A01806460A99B3
:10F0D00000F0E0FE6946304600F056F82246203245
:10F0E000174631462046F6F7CFFB050013D1102214
:10F0F0003946304600F012FD04A9304600F044F8CD
:10F100003A4631462046F6F7BFFB054610223946FF
:10F11000169800F0BFFE204600F072FD00E01325B7
:10F1200028460DB0F0BDFFB5074681B01D46164616
:10F130005321302000F00EFD040021D0102239466A
:10F1400000F0A8FE2046103008220746029900F081
:10F15000A1FE204608223146183000F09BFE2246D0
:10F160002032164639462046F6F78EFB0746102217
:10F170003146284600F08EFE204600F041FD00E0BA
:10F180001327384605B0F0BD10B50022835C8C5CB7
:10F1900063408354521CD2B2102AF7D310BD10B56D
:10F1A0000B000AD0002808D0062119700146102251
:10F1B000581C00F0B3FC002010BD022010BD10B59B
:10F1C0000B000CD000280AD0092119700178597061
:10F1D000411C0622981C00F0A1FC002010BD02205A
:10F1E00010BD10B50B000AD0002808D008211970F6
:10F1F00001461022581C00F091FC002010BD022096
:10F2000010BD10B50B000FD000280DD007211970CC
:10F210000178597001880822090A9970811CD81C4C
:10F2200000F07CFC002010BD022010BD10B50B00CA
:10F230000AD0002808D00321197001461022581C5A
:10F2400000F06CFC002010BD022010BD002907D08A
:10F25000002805D005220A70007848700020704709
:10F260000220704710B50B000AD0002808D00421F6
:10F27000197001461022581C00F050FC002010BDEF
:10F28000022010BD0A4600B50146012000F001F839
:10F2900000BDF0B5002A43D0002941D01070087895
:10F2A0005070487890708878D070C87810710027B6
:10F2B00057718888C3050120002B00DA50718B88B4
:10F2C00002249B05002B02DA5379234353718B8868
:10F2D00004255B05002B02DA53792B4353718B888D
:10F2E00008261B05002B02DA5379334353719771BB
:10F2F0000B79DB0700D090710879800702D59079EF
:10F30000204390710879400702D590792843907185
:10F310000879000702D59079304390710020F0BD44
:10F320000220F0BD0A4600B501460220FFF7B1FFFA
:10F3300000BD10B50B000AD0002808D00A211970B2
:10F3400001461022581C00F0E9FB002010BD0220ED
:10F3500010BDF0B5446B002589B017460646002C59
:10F360007DD0A288708882427AD12278002A78D013
:10F370000B2976D8891E0B00F9F750F90A060C1AEA
:10F38000BE49618699ABCC9C3946204600F0C5F851
:10F390000546BFE02046102239463C3000F0BEFB57
:10F3A0002046FEF7D1FF002800D00825052069E09F
:10F3B00020464C3010223946064600F0AFFB05AB24
:10F3C0003246E11D2046FFF7FDFD214610223C316B
:10F3D00005A800F095FB012801D004259AE02246FB
:10F3E00001AB2C323146E01DFFF79DFE00280BD10A
:10F3F0002046FEF70EFF00900023A0881A4601A9C0
:10F40000F8F7E0FD002800D0082506203AE06078F3
:10F4100007284FD1606E002806D153211C2000F030
:10F4200099FB6066002845D01022394600F076FB33
:10F430002046FEF7EEFE616E8876082022E0606EC0
:10F44000002837D06178082934D139880182606E6C
:10F450000822B91C123000F061FBE06D02E051E0BF
:10F460004EE027E04069810705D5A1690979890740
:10F4700001D5092006E0400727D5A069007940079B
:10F4800023D50B20607045E06078092812D1A06E6A
:10F49000002806D10121162000F05CFBA0660028A0
:10F4A00003D01022394600F039FB0A20EAE76078E1
:10F4B0000A2801D007252DE0A06E0622791C103005
:10F4C00000F02CFBE06D007DD5E73046FEF77AFEBC
:10F4D00020E0E06E002806D15321142000F03AFB12
:10F4E000E06600280CD01022394600F017FB0020FF
:10F4F000E16EC0430861E8E73978FEF799FE09E05C
:10F50000082507E00B2905D1137871883078B21DE2
:10F51000FBF742FA284609B0F0BDF8B50446FFF7FC
:10F520004FFB002803D0182854D10320F8BDE06D0C
:10F53000807CC00709D0A06980788007800F0128EF
:10F5400003D1A07901210843A071E07803260425A6
:10F55000022817D003280BD0042813D027462646AC
:10F5600002211C372C3601280FD0052814D007E0C3
:10F57000A0880221FAF75FFBA0792843A07166708A
:10F580000020F8BDA0880121F4E76170102200215D
:10F59000E01D00F0BBFB0EE0617010220021E01DB9
:10F5A00000F0B4FBE16D1022E01D891C00F0B6FAFA
:10F5B000A0792843A07110213046FEF7B1FE3B46EA
:10F5C0003246E11D2046FFF7FDFC2046FEF77CFE9B
:10F5D0000028D6D00820F8BD10B50B46002808D06A
:10F5E000002B06D0411C1022184600F097FA00208C
:10F5F00010BD022010BD10B50B4600280AD0002B0C
:10F6000008D041781970811C0622581C00F086FA37
:10F61000002010BD022010BD10B50B46002808D0F8
:10F62000002B06D0411C1022184600F077FA00206B
:10F6300010BD022010BD10B50B4600280DD0002BC8
:10F640000BD082784478110221431980C11C082212
:10F65000981C00F063FA002010BD022010BD10B508
:10F660000B46002808D0002B06D0411C102218465B
:10F6700000F054FA002010BD022010BD002809D06F
:10F68000002907D042780A704078401E092803D22A
:10F6900000207047022070471820704710B50B46B5
:10F6A000002808D0002B06D0411C1022184600F07C
:10F6B00035FA002010BD022010BD000070B50C46C8
:10F6C000002810D0002C0ED0417821708178617014
:10F6D000C178A1700179E1704179CA073249626845
:10F6E00003D00A4302E0022070BD8A436260417980
:10F6F0008A072E49626801D50A4300E08A436260A6
:10F7000041794A072A49626801D50A4300E08A43E1
:10F71000626041790A072749626801D50A4300E01F
:10F720008A4362608179C90703D0114601221143DF
:10F7300001E051084900616081798A070221002AAD
:10F74000626801DA0A4300E08A43626081794A070D
:10F750000421002A626801DA0A4300E08A436260F9
:10F760008079010708200029114601DA014300E0F1
:10F77000814313206160F3F76DFEC5B21420F3F7E7
:10F7800069FEC1B2E078A8420BD3884209D820783C
:10F79000052804D26078022801D2002070BD18200C
:10F7A00070BD122070BD00000001000000020000CA
:10F7B0000004000000080000002805D0002903D044
:10F7C00040780870002070470220704710B50B4643
:10F7D000002808D0002B06D0411C1022184600F04B
:10F7E0009DF9002010BD022010BDF0B5446B00262D
:10F7F00087B015460746002C7DD0A28878888242C3
:10F8000002D0082007B0F0BD2278012A74D00B0086
:10F81000F8F704FF0BC007C00D28BE465E8295A80E
:10F82000C0002946204600F0C7F80646B3E020464F
:10F83000102229463C3000F071F9607804280FD07E
:10F84000234622461C332C32E11D2046FFF7BAFB2B
:10F850002046FEF739FD002800D00826052059E093
:10F86000032057E0204629464C301022054600F080
:10F8700055F903AB2A46E11D2046FFF7A3FB2146BD
:10F8800010223C3103A800F03BF9012801D00426E6
:10F8900081E02046FEF758FD002877D1062039E0A8
:10F8A00060780C284ED1606E002806D153211C20B0
:10F8B00000F050F96066002844D01022294600F07C
:10F8C0002DF92046FEF7A5FC616E88760D2021E01B
:10F8D000606E002836D061780D2933D129880182E5
:10F8E000606E0822A91C123000F018F9E06D406922
:10F8F000810508D501E050E024E0A16989888905E7
:10F9000001D50E2006E0400527D5A0698088400576
:10F9100023D5102060703EE060780E2812D1A06ED2
:10F92000002806D15321162000F014F9A066002803
:10F9300003D01022294600F0F1F80F20EAE76078A2
:10F940000F2801D007205DE7A06E0622691C103049
:10F9500000F0E4F8E06D808AD5E778880021FEF7B2
:10F9600067FC18E0E06E002806D15321142000F057
:10F97000F1F8E066002809D01022294600F0CEF800
:10F980000020E16EC0430861E7E7FFE7082602E0D8
:10F990002978E4E70726304634E701290AD1A87818
:10F9A000E9786B466A6807C36B782A787988002003
:10F9B000FAF7B6FF002025E770B50446FFF700F917
:10F9C000002805D0182801D0082070BD032070BD84
:10F9D0002046FEF78BFCE16D887CC00709D0A0694A
:10F9E00080788007800F012803D1A079012210437D
:10F9F000A071E078042502280BD003280CD004283D
:10FA00000AD0264602222C3601280ED0052813D013
:10FA10001FE0A088022101E0A0880121FAF70BF97C
:10FA2000A0792843A071657013E062701022002154
:10FA3000E01D00F06BF908E062701022E01D891CE7
:10FA400000F06CF8A0792843A07110213046FEF731
:10FA500067FC002070BD000002460648006906E011
:10FA600043888B4202D10378934202D0C0680028B9
:10FA7000F6D170472842002030B50B4C0346401A9F
:10FA8000A56822680BE014460834A34206D3116827
:10FA9000994203D9A04201D3814203D81268AA42F5
:10FAA000F1D1184630BD0000C8420020064A527805
:10FAB000824207D9054A4000D268135A8B43135239
:10FAC00000207047032070478065002028420020F6
:10FAD00010B50024FFF7C0FF002800D0846820463E
:10FAE00010BD10B5002805D0002305E0C45C8C4291
:10FAF00001D0002010BD5B1C9342F7D3012010BD44
:10FB000010B507E003780C78401C491CA34201D0D3
:10FB1000002010BD521EF5D2012010BD002808D0D3
:10FB2000002906D003E00B780370401C491C521ECC
:10FB3000F9D2704770B506460D4688B24F2100F0E5
:10FB400009F8040003D02A463146FFF7E7FF2046B4
:10FB500070BD0000F8B50D46254A2649954202D1F0
:10FB60000B78002B41D000283FD0002D3DD0C3435F
:10FB70005B1C9B079B0F181884B21F4B342C01D8B9
:10FB8000186800E058689B681C4E984226D0C788C9
:10FB9000002F1AD18788A74217D3BBB21B1B082B93
:10FBA0000BD9031906689E608688361B083E9E8125
:10FBB0000026DE81083303608480C580954202D12F
:10FBC0000A78521E0A700830F8BD00688700DCD43D
:10FBD000326B002A09D0014602209047326B002A7E
:10FBE00003D021042943012090470020F8BD0000E4
:10FBF000018000004E440020C84200204C650020D7
:10FC0000F0B4264D00232A680028164636D0AC688A
:10FC1000A24233D2904233D31168814230D311468D
:10FC2000083188422AD3D0881D49884203D11D4813
:10FC30000178491C01700020D080B2420DD0686864
:10FC400082420AD0D888002807D1106818609888A6
:10FC500091881A464018083098801068A968884230
:10FC60000CD06968884209D0C188002906D19188E2
:10FC70008388C9180831918000681060F0BC704713
:10FC800011688B0002D513460A46C1E70648026B8D
:10FC9000002AF3D0F0BC022010470000C842002028
:10FCA000018000004E4400204C65002070B5134DCB
:10FCB00013482968134C08182060AA888918083945
:10FCC000A160091ACA10002100F020F8A8880E4986
:10FCD000884201D9C91000E0C10820680022091833
:10FCE00061600160091A08398180C2806068A1687A
:10FCF0000160091A08398180C28070BD4C650020FE
:10FD000008090000C842002007100000002804D0A5
:10FD100001E00170401C521EFBD2704710B5040078
:10FD20000ED02046083080B24D21FFF713FF002887
:10FD300005D0002101608480FF218171083010BD51
:10FD4000002010BD10B5002806D001462039897F5B
:10FD5000FF2903D0042010BD052010BDFFF750FF80
:10FD6000002010BD0A460023803A93670268002AEB
:10FD700002D101607047024610468038806F00282B
:10FD8000F9D1803A916770470149002008607047B7
:10FD900040420020F8B50026194F01213546C9031D
:10FDA0003C6811E02246203A927F824207D1002D22
:10FDB00004D0002C0AD000F077F809E02546002D89
:10FDC00000D12646803CA46F002CEBD100F01CFA39
:10FDD000002D13D03868A84204D128468038806F9F
:10FDE000386004E028468038806F803EB06728463F
:10FDF000002180388167FF21603081772846F8BD77
:10FE00004042002010B50446002908D0114840782F
:10FE1000A04206D80846FFF795FF032010BD052035
:10FE200010BD08468038806F002804D1084620386D
:10FE3000827FFF2A03D00846FFF784FFEFE784772D
:10FE40000548FFF78FFF0121C903204600F02CF879
:10FE500010BD0000806500204042002010B5094818
:10FE6000094C006A002801D0804704E00548216859
:10FE7000343040694018054948430549401820601E
:10FE800010BD00004C65002028420020FD43030007
:10FE9000C39E26008918491E521E03D30B78037097
:10FEA000401CF8E770470000064A5278824207D9A2
:10FEB000054A4000D268135A0B4313520020704782
:10FEC00003207047806500202842002070B50E4D49
:10FED0000646A86800280BD0002406E0A889A96877
:10FEE00060430818F2F7BEF9641CA87BA042F5DC59
:10FEF000002E07D1054CE069002801D0FFF780FEF5
:10FF00000020E061002070BD4C650020806500206D
:10FF10000020704738B50B4CA068002810D06A4606
:10FF20000121F7F7D3FEA0680099884208D000208D
:10FF3000FFF7CCFF224608320121A068F8F718FB32
:10FF4000002038BD4C65002070B50D4DA968002912
:10FF500015D0012813D10B4CE06900280FD00120E7
:10FF6000FFF7B4FFA87BA989E26948438108A86824
:10FF7000F8F7FEFAE069FFF743FE0020E06170BD8C
:10FF80004C65002080650020F7B51F4D0646EC69E2
:10FF9000002C14D11D4FB86800281DD0B87BB9893A
:10FFA000484380B24E21FFF7D5FD040014D0B87B42
:10FFB000B989224648438108B868F7F787FE0421CB
:10FFC00088088000001902785A2A07D0E869A04200
:10FFD00002D02046FFF714FE0A20FEBD4278B2424E
:10FFE0000FD1880880000119091D019A0298FFF7B6
:10FFF00095FDE869A04202D02046FFF701FE0020EF
:020000040001F9
:10000000FEBD4188DCE70000806500204C650020D3
:10001000F7B5284E0546F069274F0C46002812D147
:10002000B87BB989484380B24E21FFF793FD0200A7
:10003000F2613CD0B868002805D0B97BBB89594330
:100040008908F7F743FE0421FF228B08F0699B0023
:10005000C01803785A2B1AD0BA7BBB895A430B19A4
:100060001B1D9A4223D35A230370E31C8A089B0862
:100070009B0059184570091D41809200F069121DBE
:10008000801822460299FFF749FD0020FEBD437803
:10009000AB420AD143885B1AA34205DB8808800083
:1000A000F269001D1018ECE742704188CDE70A2084
:1000B000FEBD0000806500204C650020FFB581B0CA
:1000C0001E46070007D0174D00246968E000085855
:1000D000002803D020E0022005B0F0BD0F2C02D391
:1000E00020460F3800E020460121814089B20F2CC4
:1000F00001D3012000E00020039A00F027F8002837
:100100000AD06968E0000F504018029A4260002E41
:1001100000D034700020DFE7641CE4B21E2CD4D37E
:100120000820D9E72842002070B514460D4606463F
:1001300000F00CF829463046FFF78EFC002802D06C
:100140004460002070BD082070BD000070B50446FA
:100150001948154640780E46A0421AD92046FFF7A6
:100160007BFC002801D0856024E0210210204F3163
:10017000FFF7F0FC002804D0104A116900290AD0CA
:100180000CE00D483438026B002A02D021460420CE
:100190009047002070BD106104E01146CA68002A33
:1001A000FBD1C86000218560C160468004700122D7
:1001B00042704160012070BD80650020284200200F
:1001C00070B51E281CD20F4DC4006968095900295A
:1001D00016D00F2802D301460F3900E00146012254
:1001E0008A4091B20F2801D3012000E0002000F0E6
:1001F0000BF868680021015120184160084670BD65
:10020000022070BD2842002070B50D460646FFF75B
:1002100023FC040001D00020608029463046FFF70F
:1002200045FC002C01D0002070BD062070BD0146A9
:10023000002001E0401C491C0A78002AFAD17047CE
:10024000F8B50F4604461E2828D21549E000496833
:100250000858002822D025460F3D0F2C01D32846F0
:1002600000E0204601263146814089B20F2C01D39F
:10027000012000E00020FFF72BFC00280ED00F2CFF
:1002800000D22546AE40B1B20F2C01D3012000E0D0
:1002900000203A46FFF75AFF0020F8BD0220F8BDC3
:1002A0002842002030B50023C45CCD5C6C40D4549F
:1002B0005B1CDBB2102BF7D330BD00000301000044
:1002C00043483537785F424C455F4C49425F563171
:1002D0002E383000020000008C030100751A000067
:1002E00007AD0000E71A00003DAD00009F1A0000B6
:1002F0000FAD0000CB1B0000D1AE00001F1C0000A2
:1003000063AF0000A91B000063AF0000071C0000E2
:10031000FDAE0000CB1B000089AE0000371C0000C2
:1003200085AF00000000000000000000731B00000B
:1003300061AE00008D1A00000BAD0000010102014A
:100340000201010201020303040103010101010191
:100350000303020103000000000000000000000091
:100360000000000087070B0D1113171D1F25292BF7
:100370002F353B3D4347494F535961FFFB349B5F4A
:10038000800000800010000000000000001801182C
:10039000002801280228032800290129022903290D
:1003A00004290529002A012A022A032A042A052AE7
:1003B000062907290829A62AE80301000040002091
:1003C00020020000368600000806010020420020BE
:1003D000D00200007A130000C4060100F04400209F
:1003E0000423000046860000804A0020917A5725A9
:1003F0000B077E49A8264031002B05DB0D700E70DF
:10040000937A0824234393720D700E700523138191
:10041000764F20373B8803246402A3433B80937AC2
:1004200010242343937200220A700123BC79E4074D
:1004300001D00020FAE77D242401401CA042F5D918
:100440000D700E708B710A70F0E770B5674D203536
:10045000A87B664940318C7B032214432A8B644B72
:100460009A4202D980088000401C57220A70A822B4
:100470000A705E4AD37BF7263340D37300232B7177
:10048000A8738C73052010810B705A4802690424EC
:100490002243026130BF0B70012000F0AFF870BD45
:1004A000F0B5524A2032917B50484030877B03237D
:1004B000128B1F434E4B9A4202D989088900491C6E
:1004C00057240470A8250570484EF27B08231A4370
:1004D000F273464A0023203213719173877305210A
:1004E0003181037043490E6904273E430E6130BFDA
:1004F000037004700570012151711171037000BF08
:1005000000BF047005700D2111710370F0BDF0B5CE
:10051000364B20339A7B354940318E7B032426436A
:100520001C8B334DAC4202D992089200521C5724C6
:100530000C70A8250D70304F3843188000200870CB
:100540000C700D7018719A738E73284E05223281CB
:100550000870284A166904273E43166130BF0870A8
:100560000C700D7001225A711A71087000BF00BF23
:100570000C700D700D221A710870F0BDF0B51B4B98
:1005800020339A7B194940318E7B032426431C8BF0
:10059000174DAC4202D992089200521C57240C709D
:1005A000A8250D7009273F03C01918800020087086
:1005B0000C700D7018719A738E730C4E0522328177
:1005C00008700C4A166904273E43166130BF087054
:1005D0000C700D7001225A711A71087000BF00BFB3
:1005E0000C700D700D221A710870F0BD00100040E3
:1005F000FF3F000000ED00E00490000003B401485C
:10060000019001BD8F0B0000810558C3812F01129D
:10061000FF2A035C62FF12060312800C04610201D0
:10062000065981C978190169F9125032A034E803DA
:10063000021A90B329181AD41E29105A96101320A2
:10064000432A20105AA4104B64661069205A2120B6
:100650005AA6105A261069205A22105AAC10DA2CC9
:10066000205A23105AB6101A241023A9BE5BF1BFDA
:10067000C499C52B20FF0E69BED9D8311A8E44A962
:10068000CCDAF86C5ADC101AAE10A9381A9C102A71
:1006900003C419DC41033285BB2353F3236DE323E9
:1006A000C57F23EBF72309EA5B89E8AE4A77061199
:1006B0003B0510700B140101C4011C2369971A310A
:0406C0000401100021
:040000050000009166
:00000001FF
