:020000040000FA
:10000000008000208D1400000140002097140000A3
:1000100000000000000000000000000000000000E0
:100020000000000000000000000000009714000025
:100030000000000000000000991400009B14000064
:10004000F10100009D1400009D1400009D140000AB
:100050009D1400009D1400009D1400009D140000DC
:10006000150200003F0200009D1400009D140000D6
:100070009D1400009D1400009D1400009D140000BC
:100080009D1400009D1400009D1400009D140000AC
:100090000348854601F062FA00480047CD000000A1
:1000A0000080002010B56E48806A01214902084393
:1000B0006B4988620121080200F0B6FD032101208E
:1000C000400200F0B1FD01F0E5F810BD0025FFF79A
:1000D000E9FF63484038417862A001F073FA604854
:1000E000C06A042108435E49C8620321042000F06D
:1000F0009BFD0021084601F0B6F91920C0015E49B8
:10010000C86008460078042188435B4908707D2058
:10011000C000086108460078042108435649087069
:100120000121002000F0F9FE4D48C06A012189023A
:1001300008434B49C8620121880200F075FD012087
:1001400001F019F9681E4D49C8604D4882B2FF3868
:10015000913881B20023012001F016F908204749A7
:10016000887108468078082108434449887008202F
:1001700000F06FF800BF434800780028FBD0002053
:1001800040490870002409E0A0003F4A1058C1010E
:10019000C9093EA001F016FA601CC4B2642CF3DB5E
:1001A0003CA001F00FFA0221880200F086FD042134
:1001B000012000F055FE022001F00CF936483749C5
:1001C000C86001208871092000F043F83348807826
:1001D000012108433149887000BF6D1C2803000BC2
:1001E000002804D12D4881682DA001F0EBF9F4E737
:1001F0002D488079C007C00F00280AD001202A4965
:1002000088711748403080680821484014494031BF
:100210008860704710B51948807908210840002887
:100220000CD016488078884314498870082088715B
:100230000120144908701DA001F0C4F910BD174831
:100240008079C007C00F002802D0012013498871AF
:100250007047C206D20E01219140154A11607047C5
:100260008010004053746172742040436869704983
:10027000443D253032580A00002C00400024004044
:10028000F44400205C430020644300202530386C97
:10029000642000000A000000EA030000002800407B
:1002A0003D256C6420000000002000402A00000072
:1002B00000E100E010B55720FD490870A820087043
:1002C0008820FB4940390881F94800890421084306
:1002D000F7490881002008700A2000F098FF0120EB
:1002E00000F0A6FE10BD00B5030001F07BF90D087B
:1002F0001A2C37414C56606A75808B96A1005721A5
:10030000EB4A1170A8211170E9492039C97B0422F8
:100310009143E74A203AD173C821E54A403A118116
:1003200087E05721E24A1170A8211170E049203975
:10033000C97B04221143DE4A203AD173C821DC4A2A
:10034000403A118175E05721D94A1170A8211170E6
:100350005121C900D64A403A11816AE05721D44A56
:100360001170A8211170D349D14A403A118160E03F
:100370005721CF4A1170A821117081218900CC4AE0
:10038000403A118155E05721C94A1170A8211170D6
:100390008821C74A403A11814BE05721C44A117065
:1003A000A82111700221C24A403A118141E057212F
:1003B000BF4A1170A82111700421BD4A403A118131
:1003C00037E05721BA4A1170A82111709321890092
:1003D000B74A403A11812CE05721B54A1170A82143
:1003E0001170B4494D31B24A403A118121E0572190
:1003F000AF4A1170A821117095218900AC4A403A8A
:10040000118116E05721AA4A1170A82111704B21C1
:10041000C900A74A403A11810BE05721A44A117044
:10042000A8211170A3495C31A14A403A118100E032
:1004300000BF00BF00219E4A117000BD10B59C484E
:1004400040380089C4B2C0202040802801D19A4899
:1004500010BDC0202040402805D1E106C90E9748B4
:1004600001F038F8F4E7C0202040002805D1E1066B
:10047000C90E914801F02EF8EAE77D200002E7E777
:1004800057218B4A1170A8211170002808D1884982
:100490004039098952159143854A403A118108E053
:1004A000834940390989012252021143804A403A66
:1004B000118100217E4A1170704757217C4A1170CA
:1004C000A8211170002808D179492039C97B04225C
:1004D0009143774A203AD17307E075492039C97BA7
:1004E00004221143724A203AD1730021704A1170DC
:1004F00070476F4A917BFC220A4083079B0F1A4387
:10050000114657226A4B1A70A8221A701A46917324
:1005100000221A707047664A917B8F220A400301BD
:100520001A43D1B25722624B1A70A8221A701A4687
:10053000917300221A7070475D4A203A917BFC2229
:100540000A4083079B0F1A4311465722584B1A70D3
:10055000A8221A70564A203A917300221A707047E6
:10056000534A203A917B0A07120F03011A43D1B272
:1005700057224F4B1A70A8221A704D4A203A917395
:1005800000221A707047F0B589B0002002904848E8
:1005900040380089C4B2C0202040802805D1484896
:1005A00007900220C04304903EE0C0202040402835
:1005B00016D1E106C90E434800F076FF01218903F8
:1005C0004018C00B0790E106C90EE206D20E521E7B
:1005D0002423DB43981A00F07DFF00B2049023E04F
:1005E000C020204000281BD1E106C90E364800F08B
:1005F00071FF0121890340180190C017410C019837
:100600000818C0130790E106C90EE206D20E521E6A
:100610000223DB43981A00F05DFF00B2049003E070
:10062000052007900020049007980005000D089011
:100630001F482038868900270020039057201C4936
:100640000870A82008700120887400BF572018493E
:100650000870A8200870164820388681002008708D
:1006600000BF1348807C022108400028F9D01048C0
:10067000008A069000BF0E48807C022108400028B6
:10068000F9D100BF0A48807C022108400028F9D037
:100690000748008A06900298401CC0B20290089950
:1006A0000698401A05B2002D10D1002009B0F0BD07
:1006B00040100040020200000048E80100389C1C85
:1006C0001313000000180D8F00688909284678432D
:1006D000002832DA0398012806D00398401C00282D
:1006E00002D00398002828D1002F03DA781EC043D7
:1006F00007B202E0681EC04305B2BD4214DD5720B8
:10070000FE490870A8200870FC49203905988881A6
:100710000020FA4908707D21C900794308460899EC
:1007200000F0D8FE80B2C1E77D21C90069430846C8
:10073000089900F0CFFE80B2B8E72F46059628460C
:10074000049900F0C7FE00B203900398301A86B2F5
:100750000598864206D1002D02DD701C86B201E0AC
:10076000701E86B20298142800DA6FE7FF209DE71A
:10077000FFB585B004462646069D002003901FE085
:10078000701EFF21913100F0A5FE00290DD0701ED2
:10079000642100F09FFE00290AD0771EF817800F11
:1007A000C01980108000381A02D1FF216F3101E09A
:1007B000FF216E310398081880B20390701E86B234
:1007C000CF488642DCDC35E0A81E012819D1FF2184
:1007D0009131204600F07EFE00290DD06421204694
:1007E00000F078FE002909D02746E017800FC019D5
:1007F00080108000201A01D1012000E000201C3070
:1008000012E0A81E062807DDC007C00F002801D08F
:100810001F2009E01E2007E0A81EC007C00F002807
:1008200001D01E2000E01F200399401880B20390E1
:10083000681E85B2012DC7DC0798401E0399401839
:1008400080B203901821089800F044FEE120C00017
:1008500041431E220E98504309180F9FF80FC019EC
:100860004010081880B202900F98C007C00F0028EF
:1008700002D00120C00300E0002001900298049003
:100880000498010401980143049100BF9B4820385B
:10089000C07B80210840009098482038C07B0840E9
:1008A000694609788842F1D1684600780028EDD081
:1008B000572092490870A820087090494039039841
:1008C00048638E482038407C802108438B4920397A
:1008D00048748A4940390498486388482038407CE5
:1008E0004021084385492039487400208349087015
:1008F00009B0F0BDFFB583B004460D467F484038CF
:10090000C06B8604B60C7D482038408B01907B4834
:100910002038008B0090019841000122D2030098FA
:10092000904201DB012000E000200818029074488A
:1009300020801EE02088FF21913100F0CBFD0029AE
:100940000DD02088642100F0C5FD00290AD0278839
:10095000F817800FC01980108000381A02D1FF20CC
:100960006F3001E0FF206E30301A86B22088401CC4
:1009700020802088FF21913100F0ACFD00290DD0AE
:100980002088642100F0A6FD00290AD02788F817E6
:10099000800FC01980108000381A02D1FF206F30FC
:1009A00001E0FF206E30B042C4DD0020288035E039
:1009B0002888012819D12088FF21913100F08AFD73
:1009C00000290DD02088642100F084FD002909D081
:1009D0002788F817800FC01980108000381A01D1BD
:1009E000012000E000201C3013E02888062808DDE4
:1009F0002878C007C00F002801D01F2009E01E2062
:100A000007E02878C007C00F002801D01E2000E0B2
:100A10001F20301A86B22888401C28802888012888
:100A200019D12088FF21913100F054FD00290DD00B
:100A30002088642100F04EFD002909D02788F8178E
:100A4000800FC01980108000381A01D1012000E009
:100A500000201C3013E02888062808DD2878C0070D
:100A6000C00F002801D01F2009E01E2007E02878D1
:100A7000C007C00F002801D01E2000E01F20B04298
:100A800096DD2888401C2880701C81B20598018062
:100A9000E1210901029800F007FD81B2069801806A
:100AA000E1210901029800F0FFFC0F463C21384685
:100AB00000F0FAFC0C9908803C21029800F0F4FC4C
:100AC0000D98018007B0F0BD08B500BF0B49203973
:100AD000C97B80221140009108492039C97B11400F
:100AE0006A4612789142F1D1694609780029EDD021
:100AF0005721024A1170A821117003E040100040F4
:100B0000E407000046494039486345492039497C9B
:100B100040221143424A203A51740021404A117048
:100B200008BD00BF3E494039886B896B8142F9D1CD
:100B3000704757213A4A1170A8211170384920395D
:100B4000497C17229143364A203A51741146497C18
:100B5000102202431143324A203A51740021304A94
:100B60001170704700B50346FFF7DBFFC2182D4830
:100B7000824200D9121A90B2002802D0012000044B
:100B80001218572026490870A820087024484038B9
:100B9000426323482038407C2021084320492039E3
:100BA000487400201E49087000BD0021002802D1B1
:100BB0002022114303E0012801D1102211435722C2
:100BC000174B1A70A8221A70154A203A527C8A4391
:100BD000134B203B5A740022114B1A707047014688
:100BE000002905D10E482038007C80221040704733
:100BF0000B482038007C40221040F8E7002802D043
:100C000001280AD104E02021054A203A117405E0A8
:100C10001021034A203A117400E000BF00BF704762
:100C2000401000400000C0A800B50B0000F0DAFC46
:100C3000050412202E3842009B4A526B82439A4B85
:100C40005A631A46126B82431A631A46126A824327
:100C50001A6230E0944A526B8243934B5A631A46AD
:100C6000126B02431A631A46126A82431A6222E026
:100C70008D4A526B02438C4B5A631A46126B824365
:100C80001A631A46126A82431A6214E0864A526B49
:100C90008243854B5A631A46126A02431A620AE07B
:100CA000814A526B0243804B5A631A46126A0243CE
:100CB0001A6200E000BF00BF00BD00B50B0000F0ED
:100CC00091FC0504142434404C00774A40325269A8
:100CD0008243754B40335A611A46126982431A6146
:100CE0001A46126882431A6038E06F4A40325269ED
:100CF00082436D4B40335A611A46126902431A61AE
:100D00001A46126882431A6028E0674A40325269E4
:100D10000243654B40335A611A46126982431A6195
:100D20001A46126882431A6018E05F4A40325269DC
:100D300082435D4B40335A611A46126802431A607F
:100D40000CE0594A403252690243574B40335A61D2
:100D50001A46126802431A6000E000BF00BF00BDDF
:100D6000002906D001290ED0022916D0032928D146
:100D70001DE04D4A928A82434B4B9A821A46D26AB0
:100D80000243DA621EE0484A928A8243464B9A82C4
:100D90001A46926A02439A6214E0434A928A0243D4
:100DA000414B9A821A46D26A0243DA620AE03E4A0C
:100DB000928A02433C4B9A821A46926A02439A6292
:100DC00000E000BF00BF384B98831A46128A0243E6
:100DD0001A827047002906D0012911D002291CD09F
:100DE000032934D126E0304AD28A82432E4BDA825C
:100DF0002D4A4032D26802432B4B4033DA6027E061
:100E0000294AD28A8243284BDA82274A40329268A2
:100E10000243254B40339A601AE0234AD28A0243A8
:100E2000214BDA82204A4032D26802431E4B4033C3
:100E3000DA600DE01C4AD28A02431B4BDA821A4A5E
:100E4000403292680243184B40339A6000E000BF82
:100E500000BF154BD8831A46528A02435A82704704
:100E6000002807D0104A803A128B0A430E4B803B71
:100E70001A8306E00C4A803A128B8A430A4B803B65
:100E80001A837047002807D0074A803A528B0A43DA
:100E9000054B803B5A8306E0034A803A528B8A43D3
:100EA000014B803B5A8370478010004010B50446C8
:100EB000002C11D157209E490870A82008709C482A
:100EC0002038008803214902884399492039088045
:100ED0000020974908701FE0572095490870A82006
:100EE0000870934820380088091508439049203934
:100EF00008800A2000F08BF957208D490870A8203F
:100F000008708B48203800884915084388492039E3
:100F1000088000208649087010BD002823D1572280
:100F2000834B1A70A8221A7080220A40002A07D028
:100F30007F4A403AD27B02231A437D4B403BDA730F
:100F40007B4A403A927A1C230B409A43784B403BB1
:100F50009A72774A203AD27B8B079B0F9A43744B45
:100F6000203BDA7322E05722714B1A70A8221A70C4
:100F700080220A40002A07D06D4A403AD27B0223E1
:100F80009A436B4B403BDA73694A403A927A1C238E
:100F90000B401A43664B403B9A72654A203AD27B1B
:100FA0008B079B0F1A43624B203BDA730022604B86
:100FB0001A70704700280CD157225D4B1A70A82276
:100FC0001A705B4A403AD2680A43594B403BDA6098
:100FD0000BE05722564B1A70A8221A70544A403A16
:100FE000D2688A43524B403BDA600022504B1A7061
:100FF000704700280CD157224D4B1A70A8221A7046
:101000004B4A403A927B8A43494B403B9A730BE0F0
:101010005722474B1A70A8221A70454A403A927BD1
:101020000A43434B403B9A730022414B1A7070476E
:1010300010B50446002C0BD157203D490870A8205C
:10104000087000203A4920390871394908701BE0BE
:10105000572037490870A8200870012034492039EA
:1010600048710871002032490870012000F0CFF863
:1010700057202F490870A82008700D202C492039CE
:10108000087100202A49087010BD2A48006904210F
:1010900088432849086130BF70475721244A11709E
:1010A000A821117022494039897B08221143204A26
:1010B000403A9173092109031D4A203A1180002109
:1010C0001B4A117000BF1A494039886B896B8142F5
:1010D000F9D10A301849884200D9401A81B2002952
:1010E00002D00121090440183021114A203A11741C
:1010F00057210F4A1170A82111700D4940394863DA
:101100002F210B4A203A51740021094A11705721AE
:101110001170A82111700521054A403A1181002162
:10112000034A117040BF20BF20BF00BFFEE7000090
:101130004010004000ED00E00000C0A80146062974
:1011400004D146480078082210407047434840794F
:1011500001228A401040F8E7572040490870A82033
:10116000087008468079012108433C4988710020B5
:10117000087070473A49096801600021C943384A3C
:101180008032116070473649086070473548806981
:1011900070475721314A1170A8211170002806D1DB
:1011A00011468979042291432C4A917105E02B491B
:1011B000897904221143294A91710021274A11702B
:1011C00070475721254A1170A8211170002806D1B7
:1011D0001146897902229143204A917105E01F4905
:1011E0008979022211431D4A917100211B4A117015
:1011F0007047572019490870A82008700846807960
:10120000102108431549887100200870704710B5F7
:1012100000210AE0022201E000BF00BF1346541E75
:10122000A2B2002BF8D14B1C99B28142F2DB10BD67
:1012300030B50446002505E07D20C000FFF7E7FF3C
:10124000681C85B2A542F7DB30BD00BF064AD27AE2
:10125000082AFBD0044B1872704700004010004071
:1012600000E100E000E000E00034004070B504461A
:10127000FFF7E4F80A214843C6082146304600F04B
:1012800013F905460A21681D00F00EF905462849A4
:101290008D8170BD10B5E1204002FFF7E7FF872088
:1012A000234988700320C87040204870012088734B
:1012B00010BD1F498978C0229143820111431C4A05
:1012C0009170704700280BD0194A52780A43184B86
:1012D0005A701A46127808231A43154B1A7004E004
:1012E000134A52788A43124B5A7070478020104933
:1012F0004870704710B50A4609E00D4BDB7A082BA1
:1013000005D003780A4C2372401C531E9AB2002A5F
:10131000F3D110BD0146002005E0054A127A0A709B
:10132000491C421C90B2024A927A002AF5D17047B9
:10133000003400401E49C86002211D4A117004217A
:10134000117070471A49C8600221194A117015219D
:10135000117070470221164A117081011522114344
:10136000134A1170704702010C231A438B011A4370
:101370000F4B1A70704702210D4A1170810105222E
:1013800011430B4A1170704730B5002803D1002477
:10139000074D6C700BE0064C2183A283002B03D019
:1013A0000524034D6C7002E00124014D6C7030BDCA
:1013B000002400401E49C86002211D4A117004210A
:1013C000117070471A49C8600221194A117015211D
:1013D000117070470221164A1170810115221143C4
:1013E000134A1170704702010C231A438B011A43F0
:1013F0000F4B1A70704702210D4A117081010522AE
:1014000011430B4A1170704730B5002803D10024F6
:10141000074D6C700BE0064C2183A283002B03D098
:101420000524034D6C7002E00124014D6C7030BD49
:10143000002800401449C8600221134A1170042199
:10144000117070471049C86002210F4A11701521B0
:101450001170704702210C4A11708101152211434D
:10146000094A1170704702010C231A438B011A4379
:10147000054B1A7070470221034A11708101052241
:101480001143014A11707047002C00400448804706
:1014900004480047FEE7FEE7FEE7FEE7FEE7000040
:1014A000B50200009100000030B50B460146002057
:1014B0002022012409E00D46D5409D4205D31D465A
:1014C0009540491B2546954040191546521E002D52
:1014D000F1DC30BD70B500242546002801DA012476
:1014E0004042002901DA01254942FFF7DDFFAC4205
:1014F00000D04042002C00D0494270BDF0B51FB46E
:101500000646002082B005464024019100901BE071
:10151000019922460F46304600F042F8049A059B96
:10152000801A994110D310461946224600F028F837
:10153000361A8F410197224601200021009F00F0BA
:101540001FF838184D4100902046641E0028DFDC4B
:10155000019B00982946324607B0F0BD064C012594
:10156000064E05E0E36807CC2B430C3C984710344B
:10157000B442F7D3FEF790FD941A0000C41A00009D
:1015800010B5202A04DB0146203A9140002010BD0E
:10159000914020239C1A0346E3401943904010BD1C
:1015A00010B5202A04DB0846203AD040002110BDA7
:1015B0000B46D340D0402024A21A9140084319463C
:1015C00010BD00000FB410B503A9044B044A0298E3
:1015D00000F026F810BC08BC04B018474B120000FD
:1015E0006043002030B47446641E2578641CAB420E
:1015F00004D3635D5B00E31830BC18471D46F8E771
:1016000002E008C8121F08C1002AFAD170477047CB
:10161000002001E001C1121F002AFBD17047000029
:10162000FFB591B00F460546002606E025280AD0F2
:10163000149A139990476D1C761C28780028F5D1D0
:10164000304615B0F0BD002400940121F34A029405
:1016500000E004436D1C2B780846203B9840104264
:10166000F7D128782A280ED0022128780246303A6D
:10167000092A15D8009A0A235A43303A80180C4395
:101680006D1C0090F1E701CF0090002805DA0120E1
:1016900040030443009840420090022004436D1C24
:1016A00028782E2815D10420044368786D1C2A2838
:1016B0000AD101CF6D1C02900BE002990A2251431E
:1016C000303940186D1C02902878014630390929BC
:1016D000F3D928786C2810D006DC4C281AD068285A
:1016E0000ED06A2817D104E0742813D07A2812D1BA
:1016F00010E00120400504430CE00121090501E050
:10170000032109050C436978814203D101200005BA
:1017100024186D1C6D1C287803906E281ED00CDCDC
:10172000632831D004DC00288AD0582811D1B2E0D7
:1017300064287BD069280CD178E073282DD004DC94
:101740006F2870D0702804D1A7E075286CD0782855
:101750006BD0149A13999047761C62E06002400F98
:10176000022807D003280AD0042838680AD0066067
:101770003F1D56E03868F11706604160F8E73868A9
:101780000680F5E70670F3E73878694608740020AC
:10179000487404A80390012003E0386803900020F7
:1017A000C0433F1D61070FD5002101E00199491C8D
:1017B000029A0191914213DA8142F7DB019A03996F
:1017C000895C0029F2D10BE0002101E00199491C5C
:1017D00001918142FADB019A0399895C0029F5D1D4
:1017E00001990098139A401A00902146149B00F02A
:1017F0003BF901998019461807E00398039900788E
:10180000491C0391149A139990470198401E019026
:10181000401CF2D12146149B139A009800F014F951
:1018200086196D1C09E741E033E034E00A2000210D
:10183000049005916002410F022905D001CFC21723
:101840009446032905D007E0FF1DFF08FF0003CFE2
:1018500006E000B2C2179446042902D140B2C11773
:101860008C4600226146944506DA0A460021404231
:1018700091418C462D2102E0210504D52B216A4699
:101880001176012103E0E10701D02021F7E7019162
:1018900054E00A200BE0102009E010200490002101
:1018A0000420044308200591029003E00820002151
:1018B000059104906002410F022905D001CF00225A
:1018C0009446032906D006E0FF1DFF08FF0003CF62
:1018D0008C4603E080B2042900D1C0B200210191FE
:1018E00021072BD50399702906D0049A1021059B56
:1018F0004A401A4305D00EE040216A461176012184
:1019000008E06146014306D030216A46117603990A
:10191000517602210191049A0821059B4A401A43FD
:101920000CD16146014301D1610707D530216A46D8
:101930001176012101910299491E029103995829BA
:1019400004D037A103910FA90F910DE039A1F9E758
:101950006146059B049AFFF7D1FD039B8C469B5C77
:101960000F9A521E0F92137061460143F0D10F98E7
:1019700007A9081A20300390600704D5012000044D
:101980008443029801E0012002900399884201DD1E
:10199000401A00E0002041180290019809180098B0
:1019A000401A0090E00306D42146149B139A009835
:1019B00000F05AF886190020049008E006A9085C97
:1019C000149A139990470498401C761C049001992E
:1019D0008842F3DBE0030CD52146149B139A009850
:1019E00000F042F8861904E0149A302013999047C9
:1019F000761C0299481E02900029F5DC08E00F9839
:101A00000F990078491C0F91149A13999047761CEE
:101A10000399481E03900029F1DCFBE60928010028
:101A20003031323334353637383961626364656654
:101A30000000000030313233343536373839414216
:101A40004344454600000000F8B5044600251E4604
:101A50001746880404D405E039462020B0476D1CA1
:101A6000641EF9D52846F8BDFFB50446002581B0AF
:101A70001E46C80301D5302700E02027880404D57E
:101A800005E038460399B0476D1C641EF9D5284619
:101A900005B0F0BDC41A0000004000205C03000047
:101AA00000160000201E00005C430020080000001B
:101AB00000160000281E0000644300209001000072
:101AC000101600000020CF49897A08221140002911
:101AD0000BD15721CB4A40321170A8211170C9494E
:101AE000897A08221143C74A91725721C54A403268
:101AF0001170A82111700521C24A1181C1492031FC
:101B00000988032252029143BE4A20321180BD4906
:101B1000897A10221143BB4A91720021B94A40329E
:101B2000117017E0B74920318979C907C90F002919
:101B300001D0002000E0401C7D210901884209D924
:101B40005721B04A40321170A821117001219171C2
:101B500000211170E6E770B5AA482030847BA948BF
:101B60004030857B2846FC210840C51CA548203014
:101B7000008BA549884203DD2046FC210840441C17
:101B80005720A04940310870A82008709D48C07BAC
:101B9000082188439B49C87300209A492031087165
:101BA000084684739748403085730520954908811D
:101BB000002094494031087094480069042108438A
:101BC0009249086130BF00208E49403108700120E1
:101BD00000F020F970BD8B4A2032907B894A403258
:101BE000917BFC220A40D11C864A2032128B864B04
:101BF0009A4202DDFC220240501C5722814B4033A6
:101C00001A70A8221A707F4AD27B08231A437D4B90
:101C1000DA7300227B4B20331A711A469073794A8B
:101C2000403291730522774B1A810022754B403365
:101C30001A70764A126904231A43744B1A6130BF32
:101C40000022704B40331A7057221A70A8221A7063
:101C500001226C4B20335A711A710022694B4033B8
:101C60001A7000BF00BF5722664B40331A70A8227B
:101C70001A700D22634B20331A710022614B4033DE
:101C80001A70704710B55F4B2033997B5D4B403322
:101C90009A7BFC231340DA1C5A4B20331B8B5A4C83
:101CA000A34202DDFC230B40591C5723554C403402
:101CB0002370A8232370564B0343524C20342380B7
:101CC0000023504C4034237057232370A8232370E3
:101CD00000234C4C2034237123469973494B4033E5
:101CE0009A730523474C23810023464C40342370CC
:101CF000464B1B6904242343444C236130BF00231B
:101D0000404C4034237057232370A82323700123B1
:101D10003C4C20346371237100233A4C40342370CF
:101D200000BF00BF5723374C40342370A8232370D3
:101D30000D23344C203423710023324C4034237063
:101D400010BD10B52F4B2033997B2E4B40339A7B1F
:101D5000FC231340DA1C2B4B20331B8B2A4CA34251
:101D600002DDFC230B40591C5723264C40342370C2
:101D7000A823237009231B030343224C2034238010
:101D80000023204C4034237057232370A823237052
:101D900000231C4C2034237123469973194B403384
:101DA0009A730523174C23810023164C403423706B
:101DB000164B1B6904242343144C236130BF0023BA
:101DC000104C4034237057232370A8232370012321
:101DD0000C4C20346371237100230A4C403423706F
:101DE00000BF00BF5723074C40342370A823237043
:101DF0000D23044C203423710023024C4034237003
:101E000010BD000000100040FF3F000000ED00E0AA
:101E10000490000003B40148019001BD311000009E
:081E20000000000000000000BA
:040000050000009166
:00000001FF
