:020000040000FA
:1000000000800020890900000140002093090000C1
:1000100000000000000000000000000000000000E0
:100020000000000000000000000000009309000034
:100030000000000000000000950900009709000082
:100040009909000099090000990900009909000028
:1000500099090000E31700009909000099090000C0
:100060009909000099090000990900009909000008
:1000700089180000990900009909000099090000F9
:1000800099090000990900009909000099090000E8
:100090000348854601F0DAFC0048004749090000A2
:1000A00000800020F0B5FC4D0226E97887B00446B8
:1000B00001290CD0192228469201C079022932D098
:1000C00003292ED121790026092959D069E0207908
:1000D000072813D12089002820D0E06841780278D1
:1000E00009021143A981C278807812020243EA8191
:1000F000EAA00AF029F9207907280FD020790128F1
:100100000FD1A88900280CD0EE7069460880E889D4
:1001100048800E71E1204871FF2027E060781A289E
:10012000EFD007B0F0BD2179092912D1218900292A
:1001300022D0E1684B780F781902394329822021B7
:1001400014F050FF298AE0A00AF0FEF8207909286F
:1001500012D020790128E4D10320E870A8896946EB
:100160000880E88948800E714E7129208871EA79EB
:10017000688905F011F8D4E760781A28ECD0D0E748
:10018000218900290DD0E1684B780C7819022143B0
:100190006982AE71402114F025FF698AD4A00AF06B
:1001A000D3F8EE70BDE770B5BB4D0446A8780228C1
:1001B00031D120790026032808D0012807D1207AE0
:1001C000022817D1217BD8A00AF0BEF8AE712079A1
:1001D0007F2803D12189DAA00AF0B6F820790B280C
:1001E0001DD0012806D0132822D0012805D01B28B5
:1001F00023D005E0207A0A280ED0207A122814D0C5
:10020000E878002802D02046FFF74CFF20462179ED
:10021000083005F019F970BD217BCCA002E0E06840
:100220000178CEA00AF090F805E0217BCFA0F9E795
:10023000D3A00AF089F8AE71E8E7E0680178D4A0AD
:100240000AF082F8E2E7F0B5934E85B0F3790C46F8
:1002500008040FD5184614F0E9FC050007D0017812
:10026000B02901D1FFF79FFF284614F0B7FC012009
:10027000C003AEE0E007012500280AD0864A1846F0
:1002800024321146083903F0E5FC2046684005B0E9
:10029000F0BDE00505D5C34803F0AEFDFF200130F9
:1002A00097E07D4821074089002700290CDABEA18C
:1002B000096800913782F781B781F570022269469B
:1002C00004F02AFD082084E0E10609D54B21C9008D
:1002D000009100236422142103F09CFD102078E09B
:1002E0006D49A206897944D500293ED16A497279BF
:1002F000098A002A2BD06B465F731F739980DD80BB
:100300002A4600231221009705F058F80290002891
:100310002BD0029930790870F27901A9708905F023
:1003200045F8002804D0122101A805F08DF81CE042
:10033000B5717079002808D00020707119229201DF
:100340002021F07914F04EFE0FE00120F5E76A4617
:1003500011801A46694604F01BFF002805D1B571CB
:100360007079002803D000207071202031E0012036
:10037000FAE7620622D500291CD169464F730F7334
:10038000728A8A800222CA8000231221009705F017
:1003900015F8029000280DD00570029801A9477049
:1003A000F279708905F002F8002805D0122101A821
:1003B00005F04AF840200CE0B571FBE721060AD5AC
:1003C00003F00AFD4B2252018021F07914F00AFE5D
:1003D000802060405BE7002059E710B586B0734885
:1003E00009F028FE2C4C4B21E0714901022004F059
:1003F00055F91421072004F051F96421082004F074
:100400004DF964210D2004F049F9002004900120E9
:100410006A461072107303211170107104AA04212E
:10042000634803F077F9812002AA0121C00003F09C
:1004300071F95F4803AA0121801F03F06BF95C4842
:100440006A460121401F03F065F9594801AA0121BC
:10045000801E03F05FF904F09DFDE07904F0A8FE32
:100460000121E07914F06CFC06B010BD10B54942D2
:1004700050A009F069FF10BD38B56946064D144615
:100480000A80EA7904F07AFC21464EA009F05CFF6C
:100490000120A87138BD000020420020466F756E13
:1004A000642050726F66696C65205365727669636B
:1004B000652068616E646C65203A202578207E2076
:1004C0002578200A00000000466F756E642043689E
:1004D0006172616374657269737469632031206845
:1004E000616E646C65203A202578200A00000000C7
:1004F000466F756E6420636C69656E742063686115
:10050000726163746572697374696320636F6E6688
:10051000696775726174696F6E2068616E646C657D
:10052000203A202578200A0045786368616E676567
:10053000204D5455204572726F723A2025780A007A
:100540004D54553A2025780A000000005265616438
:10055000204572726F723A2025780A0052656164F4
:10056000207273703A2025780A000000577269746F
:1005700065204572726F723A2025780A00000000EB
:1005800057726974652073756363657373200A001D
:1005900052656365697665206E6F74693A202578C7
:1005A0000A000000FFFF0000E0FF0000470200001B
:1005B0000F04000052535349203A202D2564206433
:1005C00042200A0065786368616E6765206D747506
:1005D0003A25640A00000000F3B5824D85B0287A00
:1005E0000F460A282DD200247F4E0AE0E000811930
:1005F0000622891C059814F0CFF9002821D1641C2B
:10060000E4B2287A8442F1D30006400D8019062214
:10061000801C059914F0CEF9287AC10089194F7011
:10062000401CC1B2C800801929722038027FC57FE2
:10063000847F437F6E463CC6C37E827E6BA009F0FA
:1006400083FE6EE5F8B5674D044681780026E879AB
:1006500006297FD019DC002920D0012922D00529C4
:1006600012D1FF21013114F01BFD617800294DD01A
:1006700068A009F069FE6EA009F066FE2E720022E5
:100680000121032003F012FBF8BD072973D00D29C7
:10069000FAD12179601DFFF79FFFF8BD64A009F032
:1006A00053FEECE70024504F0BE0E000C1194D4829
:1006B00006221430891C14F06FF9002804D1641C40
:1006C000E4B2287A8442F0D3287A84420AD15CA02A
:1006D00009F03AFE2E7200220121032003F0E6FA0F
:1006E00053A034E05CA009F02FFEE000C019831C89
:1006F00042780021084603F037FA1922FF21D2017F
:100700000131E87914F06EFC58A020E00220A870B6
:10071000608968810120A871192292010821E87975
:1007200014F060FC6878002805D01922D20110214D
:10073000E87914F057FC2878002805D04B225201A4
:100740008021E87914F04EFC00E003E04BA009F0B2
:10075000FBFDF8BD0121AE70C9436981EE702E82A8
:100760002E72AE71802114F09BFCA17947A009F094
:10077000EBFD93E7FFE74CA0E9E710B500290CD0AB
:1007800001290DD0022913D0032905D1002A13D045
:1007900011464AA009F0D8FD10BD11464DA0F9E759
:1007A000002A03D050A009F0CFFD10BD52A0FAE7F7
:1007B000002AFAD155A0F6E759A0F4E770B51C4617
:1007C0000D4614F097FA5B4901F086F80E46002CAE
:1007D00002D059A009F0B8FD32460021284602F0A7
:1007E0008FFD70BD204200202C45002044657669B5
:1007F0006365202564202D204164647220257820C3
:100800002578202578202578202578202578200A2D
:1008100000000000436F6E6E656374204661696C72
:1008200065642E2E2E526561736F6E3A25580A004C
:10083000446973636F766572696E672E2E2E0A00A7
:10084000446576696365206E6F7420666F756E64AB
:100850002E2E2E0A0000000044657669636520662E
:100860006F756E642E2E2E0A00000000436F6E6EB0
:10087000656374696E672E2E2E0A0000436F6E6EDC
:1008800065637465642E2E2E0A000000446973634C
:100890006F6E6E65637465642E2E2E526561736F84
:1008A0006E3A25780A000000506172616D20557023
:1008B000646174652E2E2E0A00000000426F6E6483
:1008C0002073617665206661696C65643A202564F1
:1008D0000A00000050616972696E6720737461726A
:1008E0007465643A25640A0050616972696E672014
:1008F0006661696C0A00000050616972696E672068
:10090000737563636573730A00000000426F6E6461
:10091000696E6720737563636573730A0000000076
:10092000426F6E64207361766520737563636573CF
:10093000730A000040420F0050617373636F646577
:100940003A25640A000000000C498A6A48150243EF
:100950008A62032100F090FB00F095FD084909A090
:1009600009F0F2FC00F0ADFE00F02BFF03F010F9EF
:10097000FFF733FD09F07CFBFCE70000801000402E
:100980005251010025730A0004488047044800477B
:10099000FEE7FEE7FEE7FEE7FEE70000A509000030
:1009A0009100000010B5FF4857210170A821017087
:1009B000FC4A8821403A11810189042211430181B6
:1009C000002101700A2000F021FD012000F06BFCE5
:1009D00010BDF0B5F34EF34D04275722A824203E56
:1009E000403DF049030009F0D7FC0D080E161B1F0F
:1009F00024282C32373C41462F000A700C70F07BC3
:100A0000FB22104003E00A700C70F07B3843F07357
:100A1000C820288118E00A700C705120C000F8E747
:100A20000A700C70E048F4E70A700C7081208000B6
:100A3000EFE70A700C708820EBE70A700C70022058
:100A4000E7E70A700C702F8100200870F0BD0A7073
:100A50000C7093208000DCE70A700C70D2484D3097
:100A6000D7E70A700C7095208000D2E70A700C70EE
:100A70004B20C000CDE70A700C70CB485C30C8E753
:100A8000C84810B540380089C1B20B069A0FC74854
:100A9000022A05D0012A04D09A0F06D07D20000238
:100AA00010BDC906C90EC24801E0C906C90E00F052
:100AB00013FF10BDBB4A57211170A8211170B9490D
:100AC00040394B150028088904D0184308810020BC
:100AD000107070479843F9E7B24A57211170A82166
:100AE0001170B04920390028C87B05D00423184371
:100AF000C873002010707047FB231840F8E7A9491D
:100B00008A7B800792089200800F0243572008706A
:100B1000A82008708A73002008707047A1498A7B5A
:100B20008F231A400001024357200870A820087044
:100B30008A730020087070479A4A203A917B800798
:100B400089088900800F0143964857230370A82322
:100B500003709173002101707047924A203A917B93
:100B60000907090F000101438E4857230370A8238A
:100B700003709173002101707047FEB5894800270A
:100B800040380089C0B201068A0F022A4CD00124E5
:100B9000A403012A4CD0890F56D0052400200090D0
:100BA0002005000D01907F482038848900267D496A
:100BB000572230460A70A8220A7001238B747949A3
:100BC00057220A70A8220A70764A203A948100229D
:100BD0000A708A7C9207FCD50A8A8A7C9207FCD428
:100BE0008A7C9207FCD5098A019A7F1C891A0DB26A
:100BF000FFB2002D37D02946714305D5012834D0E6
:100C0000411C32D0002830D02E4602943046009944
:100C100000F078FE00B2211A8CB202998C4249D1C0
:100C2000002D45DD641C44E00220624CC043B6E761
:100C3000C506ED0E2946604800F04EFE0019C40BB3
:100C40002320C043401B09E0C506ED0E29465B4842
:100C500000F042FE0019C40BA81C4042294600F0D7
:100C600051FE00B29BE70020FEBD002E03DA761E87
:100C7000F04306B202E06D1EE84305B2B5420FDD57
:100C8000484857210170A8210170464A0299203A2C
:100C90009181002101707D20C0007043019903E023
:100CA0007D20C0006843114600F02CFE80B2FEBDDE
:100CB000641EA4B2142F82D3FF20FEBDFFB581B005
:100CC0000C460746054600261AE0FF219131681EB2
:100CD00000F018FE00290AD06421681E00F012FE00
:100CE000002907D00320A9078007C14202D1FF20B5
:100CF0006F3001E0FF206E3080196D1E86B2ADB2FC
:100D00002F488542E1D80025012C25D9032C05D098
:100D1000A01E062816DDE00718D115E0FF2191314D
:100D2000384600F0D9FD00290AD06421384600F089
:100D3000D3FD002901D0B80702D000201C3006E006
:100D40000120FBE7E00701D01E2000E01F208019F2
:100D5000641E86B2A4B2D7E7039818213018401E4B
:100D600084B2049800F0B8FDE120C00041430A9825
:100D70001E22504309180B984008081881B20B989E
:100D8000C00701D00120C0030A04024305482038EF
:100D9000C17B6B46C909C9011970C17B1B78C909A0
:100DA000C9010FE040100040020200000048E801C5
:100DB00000389C1C1313000000180D8F006889096F
:100DC000E40700009942E3D1694609780029DFD0A1
:100DD000A64957230B70A8230B70A44B403B5C63C0
:100DE000447C8026344344745A63427C40231A4333
:100DF00042740D7005B0F0BDFFB507469B4883B047
:100E00004038C06B0E4684049848A40C2038418BAF
:100E1000008B01224900D203904201D3012000E05F
:100E20000020081800909248388010E001990029AD
:100E300025D06421284600F04FFD002901D0A807E5
:100E40001DD0FF206E30201A6D1C84B23D803D887D
:100E5000FF219131284600F03FFD0191002911D07A
:100E60006421284600F038FD002901D0A80709D0E8
:100E7000FF206E30A042D9D90020308049E0FF2009
:100E80006F30E0E7FF206F30F4E73588012D04D0A4
:100E9000062D18D9E8071AD117E03888FF219131BB
:100EA000019000F019FD00290BD06421019800F099
:100EB00013FD002902D00198800702D000201C30C9
:100EC00006E00120FBE7E80701D01E2000E01F201C
:100ED000201A84B26D1CA8B23080012804D00628E4
:100EE00017D9C0071AD117E03888FF21054691317C
:100EF00000F0F2FC00290AD06421284600F0ECFC46
:100F0000002901D0A80702D000201C3007E00120F2
:100F1000FBE73078C00701D01E2000E01F20A04270
:100F2000B3D93088641C401C30800598E1210480CE
:100F30000901009800F0D0FC069A108008463C2178
:100F400000F0CAFC0C9908803C21009800F0C4FC19
:100F50000D98018007B0F0BD444908B52039CA7B1F
:100F60006B46D209D2011A70CA7B1B78D209D20112
:100F70009A42F4D16A461278002AF0D03B4A5723AD
:100F80001370A8231370394B403B5863487C4023AF
:100F9000184348740020107008BD34494039886BEC
:100FA0008A6B8242FBD1704710B5304A57211170CD
:100FB000A82111702D4920394B7CE82423404B7423
:100FC0004B7C1024204303434B740020107010BD51
:100FD00000B50346FFF7E1FF2649C018884201D952
:100FE000494240180104090C02D0012109044018AB
:100FF0001E4957220A70A8220A701C4A403A5063C0
:101000001A482038427C20231A434274002008707A
:1010100000BD0021002802D0012802D002E02021DA
:1010200000E01021114857220270A82202700F4AD6
:10103000203A537C8B4353740021017070470B4955
:1010400020390028087C02D0402108407047C009A0
:10105000C001704705492039002804D0012801D17A
:101060001020087470472020FBE70000401000406B
:10107000E40700000000C0A800B5524A0B0009F0C8
:101080008BF90504071016191F00516B81430AE004
:10109000516B81435163116B01431163116A8143A9
:1010A0000DE0516B01435163116B8143F5E7516BC7
:1010B000814301E0516B01435163116A01431162A5
:1010C00000BD404A00B540320B0009F065F9050447
:1010D000071016191F00516981430AE051698143C5
:1010E0005161116901431161116881430DE051693A
:1010F0000143516111698143F5E75169814301E081
:1011000051690143516111680143116000BD2D4ACD
:10111000002906D0012907D0022908D0032913D1BC
:101120000CE0918A814304E0918A814308E0918A2E
:1011300001439182D16A0143D16205E0918A014362
:101140009182916A014391629083118A01431182D5
:1011500070471C4B1B4A4033002906D0012907D099
:10116000022908D0032913D10CE0D18A814304E07D
:10117000D18A814308E0D18A0143D182D9680143F1
:10118000D96005E0D18A0143D18299680143996011
:10119000D083518A0143518270470A4A803A00281D
:1011A000108B01D0084300E0884310837047054A44
:1011B000803A0028508B01D0084300E088435083D8
:1011C0007047000080100040F8B5624D5726614C12
:1011D000A827203D00282670277028880ED02115CA
:1011E000084328800A2000F011F92670277028880B
:1011F00061150843288000202070F8BD03214902B2
:101200008843F7E7F0B5534C57261C228B07514D06
:10121000A8270A409B0F403C00282E702F7010D04A
:10122000080603D5E07BFD210840E073A07A104357
:10123000A07248482038C17B1943C1730020287030
:10124000F0BD080603D5E07B02210843E073A07AD5
:101250009043A0723F482038C17B9943EDE730B5F9
:101260003C4C57233B4AA825403C0028137015707E
:10127000E06804D08843E0600020107030BD08436F
:10128000F9E730B5334C5723324AA825403C0028B3
:1012900013701570A07B04D00843A0730020107059
:1012A00030BD8843F9E7F8B52A4D5726294C00216F
:1012B000A827203D0028267027700ED001206871D5
:1012C000287100202070012000F0A0F826702770FF
:1012D0000D20287100202070F8BD29712170F8BD03
:1012E0001D48016904229143016130BF7047194BC9
:1012F00057241C70A8251D7016494039887B082288
:10130000104388730920134E0003203E30800027CD
:101310001F70886B8A6B8242FBD1104A0A30904260
:1013200001D9524280180204120C02D00122120488
:101330008018302232741C701D7048632F20707426
:101340001F701C701D70052008811F7040BF20BFDA
:1013500020BFFEE74010004000ED00E00000C0A804
:101360003C49062805D049790122824011400846AF
:1013700070470878082108407047364857210170A7
:10138000A82101708179012211438171002101702E
:10139000704731490968016000202F49C0438031FE
:1013A000086070472C49086070472C488069704776
:1013B000284957220A70A8220A700028887905D087
:1013C000042210438871002008707047FB221040EF
:1013D000F8E7204957220A70A8220A700028887965
:1013E00005D0022210438871002008707047FD224A
:1013F0001040F8E7174857210170A8210170817942
:1014000010221143817100210170704700220AE00F
:10141000022101E000BF00BF0B46491E89B2002B2C
:10142000F8D1521C92B28242F2D3704770B50024B8
:101430007D260546F60004E03046FFF7E7FF641C12
:10144000A4B2AC42F8D370BD0549CA7A082AFCD0D0
:10145000087270474010004000E100E000E000E04A
:101460000034004010B50446FFF70AFB0A21484348
:10147000C008214600F030FA0A21401D00F02CFA85
:101480002249888110BD10B5E1204002FFF7EAFF34
:101490001E48872181700321C170402141700121C4
:1014A000817310BD19498A789206920E8001024319
:1014B0008A707047154A0028507806D0084350704B
:1014C00010780821084310707047884350707047A7
:1014D0000E498020487070470C4A07E0D37A082BE9
:1014E00004D003781372491E89B2401C0029F5D13B
:1014F000704701460020054A04E0137A401C0B7037
:1015000080B2491C937A002BF7D170470034004019
:10151000F0B5564A0021157E547E01261676507E7F
:101520000823184350769676907EC007FCD19676B5
:10153000937EDB07FCD1978B4D4B401CBB43591866
:1015400080B21028F3D308310809517EF7231940DF
:101550005176157654760121C902081A00B2F0BD01
:10156000028800290DD0012911D0022915D00329A4
:1015700006D140494A4391013F4A8918090C01802C
:101580007047F92189004A4391013C4AF5E73949FE
:10159000491E4A4391013A4AEFE736494A439101CD
:1015A000384AEAE780010901C01C08432F49487600
:1015B000704780010901401D08432C494876704757
:1015C0002A48C17E80221143C1760F210176212154
:1015D0004176704725480E210176032141767047F8
:1015E0002248232141760821817670471F48012136
:1015F0008176817EC907FCD1808B0005000D704784
:101600001A4908228A76C877887EC006FCD4888B5F
:101610000005000D704770B51B4D4021AB6B9AB2B1
:101620001C0C144B3E335843C00A0301002C05D058
:101630009001203318182201801A13E0686B040C03
:10164000010A09190918050EC9B28D4201D0FF20FF
:1016500070BD1146E4B2520800049A184C431219A6
:10166000000B101A00F04EF970BD00004010004051
:10167000FF0F0000E60300008014340040B0370084
:1016800080C23700402136000006040010B5FFF785
:1016900074FA022801D9FFF770FA10BDF8B5534C5F
:1016A000E77E267E657EFFF78BFFA07E0121084343
:1016B000A076A07EC007FCD1A08BE7762676657663
:1016C000F8BD30B58DB0122249A14E4813F064F92F
:1016D000002841D0454857210170A82101705121AF
:1016E000424AC900403A1181002101704748464AE8
:1016F0004261474A0724D3691B021B0A45042B4356
:10170000D361816104610169022291430161342244
:101710000021684613F046FA3E480090012040033D
:10172000694688801B20C87305200874012048740E
:1017300014208874FB20800202900D200877364820
:10174000089036480A90084601F0D4FA010007D004
:1017500033A008F0F9FDFEE739A008F0F5FDFEE73B
:101760000DB030BD70B50C4609040AD513F05EFA11
:10177000002801D013F032FA01212046C903484065
:1017800070BDE00702D00120604070BD314DA00463
:1017900005D501F02BFB01262F4A760308E06004F3
:1017A0000DD52EA008F0D0FD7D22D2010126B60372
:1017B0003146287813F016FC2046704070BD00209A
:1017C00070BD10B5264808F035FC224C207000F0A2
:1017D00063F862B6204A01214903207813F002FC25
:1017E00010BD10B501F0CAF910BD00004010004056
:1017F00043483537785F424C455F4C49425F56312C
:101800002E38000052510100FEFFFF0000E000E012
:1018100004ED00E07C450020AB1300009D160000A5
:101820004C494220696E6974206572726F72206340
:101830006F64653A202578202E2E2E0A00000000C5
:10184000686561642066696C65206572726F722ECE
:101850002E2E0A005042002000EE02002A20000036
:10186000651700000104090C02D001210904401889
:10187000164957220A70A8220A7014494039486351
:10188000134900200860704710493020203908743F
:101890000F490120086070471CB50C4857210170A2
:1018A000A821017009492039CA7B07231A43CA734A
:1018B0000021017000910B4601220191114605485B
:1018C000FFF7FCF9002008F0E9FC1CBD40100040C7
:1018D00054420020E407000030B50B4601460020CA
:1018E0002022012409E00D46D5409D4205D31D4626
:1018F0009540491B2546954040191546521E002D1E
:10190000F1DC30BD70B500242546002801DA012441
:101910004042002901DA01254942FFF7DDFFAC42D0
:1019200000D04042002C00D0494270BDF0B51FB439
:1019300086B000200090019002900698069980B22F
:1019400004900798090C0204001411430790002723
:10195000089D099806913E463C4603900398A9B21B
:101960000204000C039004982D0C154348430021F9
:10197000224600F018F8C719714110340E46402C69
:10198000ECDB3846029A00F00EF8009A019B8018B2
:101990000090594102980191103002904028CCDB10
:1019A00000980BB0F0BD10B5202A04DB0146203AA8
:1019B0009140002010BD914020239C1A0346E34033
:1019C0001943904010BD03460B439B0703D009E029
:1019D00008C9121F08C0042AFAD203E00B7803706A
:1019E000401C491C521EF9D27047F0B51FB4064680
:1019F000002082B005464024019100901BE001992F
:101A000022460F46304600F033F8049A059B801AB0
:101A1000994110D3104619462246FFF7C4FF361AE3
:101A20008F410197224601200021009FFFF7BBFF55
:101A300038184D4100902046641E0028DFDC019BD1
:101A400000982946324607B0F0BD0000064C01253B
:101A5000064E05E0E36807CC2B430C3C9847103456
:101A6000B442F7D3FEF718FB4C5201007C52010040
:101A700010B5202A04DB0846203AD040002110BDD2
:101A80000B46D340D0402024A21A91400843194667
:101A900010BD70B58C180578401C6B075B0F01D129
:101AA0000378401C2A1106D10278401C03E0067816
:101AB0000E70401C491C5B1EF9D12B0705D4002376
:101AC000521E0DD40B70491CFAE70378401CCB1A48
:101AD000921C03E01D780D70491C5B1C521EF9D549
:101AE000A142D8D3002070BD10B5124C2068C005AB
:101AF0001FD50320206000200821401C2268C0B2AE
:101B00000A4322600EE02268920510D4222807D9E9
:101B10000948026B002A0AD001210320904706E001
:101B2000401CC0B22268D205EDD50028E5D10020C6
:101B3000206010BD80C300409865002070B5144639
:101B40000D460646FFF7D0FF2D48036819680622A8
:101B500091431960316899627168D962B1681963FB
:101B6000F1685963296899616968D961A96819623E
:101B7000E968596259680222914359605D68012100
:101B80000D435D601D680D431D6000E000BF596896
:101B90008907FBD55968914359609969217001689B
:101BA0008969090A617001688969090CA170016875
:101BB0008969090EE1700068C1692171C169090A6A
:101BC0006171C169090CA171C169090EE171016AF4
:101BD0002172016A090A6172016A090CA172016A23
:101BE000090EE172416A2173416A090A6173416A0F
:101BF000090CA173406A000EE073002070BD000064
:101C00006C43002070B50C460546FFF76DFF284871
:101C10000268106820218843E907890E0843106094
:101C20008034E06C1061206D5061E0699061206A41
:101C3000D061606A1062A06A5062E06A9062206BB4
:101C4000D062606B1063A06B5063E06B9060206C9F
:101C5000D060D168236C1748994204D0026B002AE7
:101C60001ED0202107E0916AE36A994206D0026BF8
:101C7000002A15D021210320904711E0D169236A61
:101C8000994204D0026B002A0AD02221F3E711699D
:101C9000E36C994206D0026B002A01D02321EAE7C7
:101CA000012070BD1068402108431060002070BD05
:101CB0006C4300209865002070B50C460546FFF780
:101CC00013FF28480268106820218843E907890E1D
:101CD000084310608034606C1061A06C5061E06952
:101CE0009061206AD061606A1062A06A5062E06A06
:101CF0009062206BD062606B1063A06B5063E06BEE
:101D00009060206CD060D168236C1748994204D051
:101D1000026B002A1ED0102107E0916AE36A994203
:101D200006D0026B002A15D011210320904711E044
:101D3000D169236A994204D0026B002A0AD0122189
:101D4000F3E71169636C994206D0026B002A01D057
:101D50001321EAE7012070BD10684021084310609C
:101D6000002070BD6C4300209865002010B504F081
:101D7000D5FF024903F053FC002010BD060400000B
:101D800008B5002808D0002906D0002A04D0108801
:101D9000002801D0002008BD1220694608706A465C
:101DA0000121034803F037FC6946087808BD0000AC
:101DB000350C000008B504F01DFA694608706A4643
:101DC0000121034803F027FC6946087808BD00009C
:101DD0002720000008B504F057FA694608706A46E3
:101DE0000121034803F017FC6946087808BD00008C
:101DF0001120000008B504F09CFB694608706A4693
:101E00000121034803F007FC6946087808BD00007B
:101E10002920000008B504F091FB694608706A4665
:101E20000121034803F0F7FB6946087808BD00006C
:101E300010200000FEB508AF70CF6F4670C704F0E9
:101E4000A3FB0446024903F0EAFB2046FEBD000066
:101E50001320000008B504F051FF694608706A4677
:101E60000121024803F0D7FB002008BD0E2000002E
:101E7000FFB589B016A871C894468E460796159F7F
:101E8000129A139904AE31C61498009201910290EF
:101E9000039762467146099804F092FE044603498E
:101EA00003F0BDFB20460DB0F0BD00000D2000008A
:101EB00038B5044605F003FA694608704C70200AEC
:101EC00088706A460321024803F0A5FB002038BD54
:101ED0001B20000038B5044605F00AFA6946087070
:101EE0004C70200A88706A460321024803F093FB75
:101EF000002038BD1A2000000EB500A8013005F002
:101F000052FE694608706A460921024803F083FBC5
:101F100000200EBD1820000008B500A8013005F013
:101F20004FF9694608706A460421034803F073FBC1
:101F30006946087808BD00000220000038B5044654
:101F400005F098FE694608704C70200A88706A4651
:101F50000321024803F05FFB002038BD2120000070
:101F60007FB5044608A861C80090029601952046F6
:101F700005F098FE694608734C73200A887303AA1B
:101F80000321034803F047FB002004B070BD0000AC
:101F90002020000008B506F06BFA694608706A4612
:101FA0000121034803F037FB6946087808BD0000AB
:101FB0002D20000008B506F081FA694608706A46CF
:101FC0000121034803F027FB6946087808BD00009B
:101FD0000A200000F0B585B00AACF0CC03976F463C
:101FE00070C706F0E3FA6946087404AA01210348A1
:101FF00003F011FB6946087C05B0F0BD0620000027
:1020000008B506F05DFB694608706A460121034881
:1020100003F001FB6946087808BD000005200000B8
:1020200008B506F08BFB694608706A460121034833
:1020300003F0F1FA6946087808BD00002E20000080
:1020400008B506F091FB694608706A46012103480D
:1020500003F0E1FA6946087808BD00000C20000092
:102060001CB5049C009406F0C1FB6946087101AAE6
:102070000121034803F0CFFA694608791CBD00002E
:102080000B20000010B506F0E3FB024903F0C7FA8D
:10209000002010BD1920000010B505F069F910BD31
:1020A0001CB500A8013005F08DFD694608706A4630
:1020B0000721034803F0AFFA694608781CBD000009
:1020C0000910000038B500A90446033105F08AFD67
:1020D000694608704C70200A88706A4604210348DB
:1020E00003F099FA6946087838BD0000051400002D
:1020F00010B506F0D1F810BD0A7802708A784270E7
:102100004A88120A82700979C170042070470A78DF
:1021100002700988090A4170022070470A7802702B
:102120000988090A4170022070470978017001206E
:1021300070470A7802700A88120A42708A788270A0
:102140004A88120AC2704A7902718A7942710889F2
:10215000801D80B2704708888004000C70470A78A0
:1021600002700A88120A42708A7882704988090AC5
:10217000C170042070478A78027088780128088826
:1021800004D012214843401C80B270478000FAE717
:102190000A7802700A88120A42704888801C80B24D
:1021A00070470A7802700A88120A42708A78827030
:1021B0004A88120AC2708888001D80B270470A7867
:1021C00002700A88120A42708A7882704A88120A5B
:1021D000C2708888001D80B270470A7802700A8831
:1021E000120A42708A7882704988090AC1700420F4
:1021F0007047088870478A78027008884988484381
:10220000401C80B2704710B50C46097801702188D7
:10221000090A4170A17881706188090AC170227928
:10222000611D001D12F0C6FB2079001D10BD8A78CB
:102230000270088849884843401C80B2704708886B
:1022400070470A7802700988090A417002207047B5
:10225000088870470A7802700A88120A4270488813
:10226000801C80B270477FB515460446022901D014
:10227000102903D1022B04D0102B02D0002004B06F
:1022800070BD994202D10A46294607E010296946E5
:1022900007D000F00DF810226946284612F07CFBAA
:1022A000EDE7104600F004F8102269462046F5E7F5
:1022B00070B50C4605000CD0002C0AD0102206493F
:1022C000204612F077FB287820736878607301202D
:1022D00070BD002070BD00006651010008B50022ED
:1022E0000B4600920122024908F024FA08BD0000C2
:1022F000F920000038B5054608880C4617280DD38C
:1023000003F0F4FD2188884208D300200090234682
:1023100002220349284608F0C9F938BD022038BD19
:102320000F21000008B50A88172A07D300220B46A0
:1023300000920322024908F0FDF908BD022008BD01
:102340001D21000008B500220B4600921822024908
:1023500008F0ACF908BD00002B21000008B50021F1
:102360000B461922009108F0E5F908BD38B50C4676
:10237000054609790020022901D0022038BDE26813
:10238000002A03D00721104612F0C2FA009023461B
:1023900006220249284608F089F938BD3321000099
:1023A00038B5054608880C4600280DD0606800281E
:1023B0000AD0012112F0ACFA00902346072203490B
:1023C000284608F0B7F938BD022038BD5721000073
:1023D00008B500220B4600920422024908F066F973
:1023E00008BD00005F21000038B5054688780C461E
:1023F000012801D0022810D1208800280DD0606863
:1024000000280AD0022112F083FA00902346052208
:102410000349284608F08EF938BD022038BD000077
:1024200077210000064910B5884202D103F05EFD15
:1024300010BD0DF027FE0028FAD1172010BD0000B6
:10244000FEFF000038B505464A6800200C46002A09
:1024500003D00321104612F05BFA009023461D22A0
:102460000249284608F022F938BD000091210000F9
:102470000248002101604160704700009043002045
:1024800010B5042901D0042010BD017811708378A3
:102490004478190221435180C0781071002010BD8A
:1024A0000098022B01D0042070475178127809025D
:1024B0001143018000207047022901D00420704799
:1024C0004178037808021843108000207047009874
:1024D000012B01D004207047117801700020704753
:1024E000002901D0042070470020704770B5049C7B
:1024F0001E461546062B1BD3687829780002084330
:102500002080E878A97800020843608002202071CA
:102510000246291D601D12F04DFAB01F2081062EC3
:1025200003D0AD1DE560002070BD0020E060FAE73B
:10253000042070BD8B0705D1890803D0118050603D
:1025400000207047042070470098042B01D004201D
:10255000704751781378090219430180D178927835
:102560000902114341800020704710B50298022BE8
:102570000FD351781478090221430180991E4180BC
:10258000022B02D0921C426001E000214160002039
:1025900010BD042010BDF8B5C4880D46002C2BD00A
:1025A00086683778390601D4002010E00D2C23D33B
:1025B0000C3CA4B2311900914088234632460121D7
:1025C00007F042FC002801D0022000E0012079063B
:1025D0002870C90FBA066970920EAA70641E220490
:1025E000120CAA8002D0761CAE6001E00022AA6024
:1025F000022803D1002901D00120F8BD0020F8BD38
:1026000010B50298042B14D3517814780902214391
:102610000180D1789478090221434180191F81807B
:10262000042B02D0121D826001E000218160002095
:1026300010BD042010BD0098042B01D00420704769
:1026400051781378090219430180D17892780902F0
:10265000114341800020704710B502981146062BA7
:1026600003D0142B03D0042010BD022200E010225E
:1026700002714A780B7812021A430280CA788B786A
:1026800012021A4342800279401D091D12F092F98C
:10269000002010BDF8B515460646002912D0347842
:1026A000491E6C80CFB2022C0CD321463846FFF76E
:1026B00013F901466143B94204D12880761C0020F9
:1026C0006E60F8BD0420F8BD0098D90706D1022B32
:1026D00004D05908818002600020704704207047B0
:1026E0000098022B01D0042070475178127809021B
:1026F00011430180002070471180002902D05060F2
:10270000002070470020FAE710B5029C022B11D37D
:102710002072617250781178000208432080981E60
:102720006080022B02D0921C626001E00020606099
:10273000002010BD042010BD002901D004207047E6
:102740000020704738B5054688680C46002802D03E
:10275000052112F0DDF80090234616220249284692
:1027600007F0A4FF38BD0000A321000038B50546DE
:1027700088680C46002802D0052112F0C9F80090A4
:10278000234617220249284607F0D4FF38BD00002F
:10279000BF21000008B500220B4600920C2202491E
:1027A00007F084FF08BD0000DB21000038B50546B6
:1027B00048680C46002802D0012112F0A9F80090C8
:1027C00023460D220249284607F0B4FF38BD000019
:1027D000F321000008B50A79022A03D0102A01D09B
:1027E000022008BD00220B4600921022014907F08A
:1027F0005DFF08BD0722000038B5054608880C4675
:1028000000280DD0606800280AD0022112F080F85C
:102810000090234611220349284607F08BFF38BD5C
:10282000022038BDF721000008B50A79022A03D03A
:10283000102A01D0022008BD00220B460092082277
:10284000014907F033FF08BD0722000038B50546EF
:1028500008880C4600280DD0606800280AD00221A4
:1028600012F056F80090234609220349284607F043
:1028700061FF38BD022038BD2F22000038B5054663
:1028800048680C4600280AD0012112F041F8009057
:1028900023460F220349284607F04CFF38BD02208B
:1028A00038BD00003F22000008B500220B46009210
:1028B0000A22024907F0FAFE08BD00004322000088
:1028C00038B505464A6800200C46002A03D001218D
:1028D000104612F01DF8009023460B2202492846AC
:1028E00007F028FF38BD0000512200000149486070
:1028F00070470000904300200149086070470000C5
:102900009043002070B5054608480C46854205D026
:10291000172C03D303F0EAFAA04201D2012070BDC4
:10292000214628460DF052FC70BD0000FEFF00005D
:10293000F8B50646087A12250C46012809D130461A
:10294000FFF770FD61880F38884201DA0220F8BD78
:102950009225607A012801D1402005436068002853
:1029600002D0032111F0D4FF009023462A460249E9
:10297000304607F09BFEF8BD5522000008B5002147
:102980000B461322009107F0D5FE08BD0448034909
:10299000006801600349C16270470000A522080178
:1029A00070430020784E010010B5074C5D2021686F
:1029B000086506F087F9206800210165034842791F
:1029C000521C4271C17110BD78420020EC6500209C
:1029D00070B500242546641C2406240E42D0002134
:1029E000C943002007F0F9FE002211460346CB4000
:1029F000DB07DB0F491CC9B20646CE40F607F60FCF
:102A00009E4203D0521CD2B2192A29D22029EDD3DA
:102A100000210246CA409206920E21D03F2A1FD0C2
:102A2000491CC9B21A29F4D9810E1F2918D03E2990
:102A300016D0012914D0202912D0104A0146904204
:102A40000ED04A1E11420BD00204C1B2120E8A42AD
:102A500010D10202120E8A420CD1020E8A4209D112
:102A6000294608E0F021102007F0C5FE04490002C5
:102A7000084370BD01210029ADD070BDD6BE898E3E
:102A8000C700CD6A70B52C49002048602B480089EA
:102A90002B4CC0B28109022904D0012908D0810938
:102AA00016D026E0C820A0801020E080E8201FE09B
:102AB000C506ED0E2D2029468001FEF70DFFA080F2
:102AC00029467820FEF708FFE08029461D480DE0E2
:102AD000C506ED0E2946C020FEF7FEFEA080294661
:102AE0000820FEF7F9FEE0802946E820FEF7F4FE14
:102AF000208116491448086016491548086017498E
:102B00001548086017491648086018491648184CB7
:102B10000860184920680122D202086180184861C3
:102B20000120487100F062F9607D002802D112494D
:102B30002020086070BD00007C4200200010004092
:102B4000CC650020980D000000C0004074430020B8
:102B500000C300406C43002000C2004078420020C7
:102B600000D000407843002000C1004070430020A6
:102B700098650020EC65002000E100E0F8B55648BB
:102B8000006881680127C9050025544C544E00296E
:102B90002EDA81683A0291438160207840060CD594
:102BA000504851490068884206D15049886BE0601E
:102BB0008A6B9042FAD100E0804720783843207039
:102BC0006570E079062803D043495D2009680865EF
:102BD000306800280AD001690A68406902430A6027
:102BE00031680868026889680A4302606571A560F7
:102BF000394B18688168890521D581680122520204
:102C000091438160A0783843A070E570384800682F
:102C1000C16A89088900891CC1620168D204114314
:102C20000160306800280AD041680A688068024361
:102C30000A603168C868026849690A430260186816
:102C40008168890717D58168022291438160E77006
:102C5000A5705D210165306800280AD001690A6805
:102C6000406902430A6031680868026889680A435B
:102C700002606571A56018688168C90715D0816810
:102C800049084900816025706770306800280AD0C3
:102C900041680A68806802430A603168C86802684F
:102CA00049690A4302606571A56018688168C906B0
:102CB00003D581681022914381608168490703D55B
:102CC00081680422914381608168090703D5816886
:102CD000082291438160F8BD78420020EC65002015
:102CE0008042002074420020BD9900000010004086
:102CF0007043002070B504460068002828D00121E8
:102D0000000C4903884223D1A088002820D0204607
:102D10000622FF21163011F030FE01281AD0A288B9
:102D20000021206811F03EFF342200212D4811F0CF
:102D300039FF342221462B4811F03CFE2948062257
:102D400016300021054611F018FE012804D008E0D5
:102D5000022070BD032070BD23490622284611F0D1
:102D600029FE20488189002902D10121490281815F
:102D7000827B0121002A00D18173C27B002A01D10C
:102D80001B22C273027C002A01D105220274427CFC
:102D9000002A00D14174817C002901D11421817461
:102DA000817F002901D128218177C17C002908D0A9
:102DB000827FE17C92088918C174617F002904D068
:102DC00005E0817F89082D31F6E702214177806A8D
:102DD000002803D0804703493431488107F0E2F8E6
:102DE000002070BD986500200806040010B500F0B2
:102DF00065F803F0E3F905F0FFFEFFF7C7FD0B4CA4
:102E00005D202168086506F00FF806F0CDFD05F09D
:102E1000D3FF05F057FF06480121417122680021C8
:102E20001165C171FEF760FE10BD00007842002000
:102E3000EC65002070B50E4B00209989002901D166
:102E40000C4999810E210124A4039A891546254035
:102E5000CD405204120C0543E8B25604D50BF60FD0
:102E600075401543491EC9B29D810629EDD870BD34
:102E700090670020FF7F000070B50E4B002059893D
:102E8000002901D10C49598108214C015A89154664
:102E90002540CD4005435200E8B2550A5609754019
:102EA000ED07ED0F1543491E09065D81090EEDD1B1
:102EB00070BD000090670020FF0100000A4809492A
:102EC00000680A6902610A69426149698161C161F8
:102ED0008268012149030A438260C2680A43C260D2
:102EE00070470000EC6500207443002030B5104AA4
:102EF0000346517AFD20842454720E4CA568002D9F
:102F000007D0A57B002D04D0A489E51FFF3DFA3D25
:102F100002D05172FF2030BD7D24E402A34205D3CC
:102F20005360A6201072907A40235840517230BDF1
:102F3000001800409865002010B506490C46483C32
:102F4000A1622063E17D182001F0A8FBE07D01F083
:102F50003BFE10BD0C430020F8B500240F4E274661
:102F600013E0F06B250128180622FF2111F01AFE4C
:102F7000F06B06222818FF21801D11F013FEF06B64
:102F800028188781641C8773E4B2307E8442E8D3BA
:102F9000002011F0E7FE307E7076F8BDC4420020BC
:102FA00070B50C460146012080020A1A00252B4804
:102FB000130007F0F1F920111316181A1D1F212311
:102FC0002527292B32343648393B3D3F4348484872
:102FD0004848484848464148007800E0407820701A
:102FE00039E08078FBE7C078F9E710221C4910E04F
:102FF0000079F4E74079F2E7006A13E08079EEE7C0
:10300000C079ECE7007AEAE7407AE8E71449102251
:103010001031204611F0CEFC1DE0807ADFE7C07A47
:10302000DDE7406A206016E0007BD8E7407BD6E70A
:10303000807BD4E7407CD2E7807CD0E708F0F0F8D2
:10304000CDE7807DCBE7192904D2084601F036F997
:10305000208000E00225284670BD0000C442002008
:103060005866002010B5044600F0D4F80248C47534
:1030700008F010FA10BD0000C4420020FFB58FB068
:10308000064600200C900D901F460CAA304600F01A
:10309000A5FA454D0446287E84425AD2204608F0BF
:1030A000D9F90646042F04D0A879022803D00020BD
:1030B00002E02878F9E7012000903B46324621469D
:1030C000119808F085F81422002101A811F06AFD7A
:1030D00020460621484300902430C0B201AA1021A6
:1030E00011F09EFE002813D11022FF2101A811F03B
:1030F00044FC00280CD1009805AA2530C0B2042158
:1031000011F08EFEF107C90F01AA119801F0E0FA43
:103110007034E0B206AA182111F082FE002811D105
:1031200006A808F0A9F90024A10006A8081801883B
:10313000002903D08278119801F07AFD641CE4B272
:10314000062CF1D3B00706D5E97D119801F05EFD9C
:1031500001E0082F02D0042F13D021E0A879022823
:103160001ED100223146119807F06CFFA86A002892
:1031700016D04368002B13D00022114611989847AF
:103180000EE0287802280BD129791198002900D067
:1031900001216A78002A00D00422114301F05EFA6E
:1031A000002013B0F0BD0000C4420020F8B501F0CB
:1031B000ADF800282BD1164D0026E87C012801D05F
:1031C00000241CE008F078F8EE7400202A7EE96BF9
:1031D00004E003015B18401C9E73C0B29042F8D318
:1031E00010E0E86B27013818807B012805D12046C4
:1031F00008F074F8E86B38188673641CE4B2287E13
:103200008442EED3502011F0CFFD08F043F9F8BD11
:10321000C4420020F8B5354EFF20F0750027377600
:10322000334CF763A07B30214843422111F0DEFB91
:10323000F063002825D02046807B4100401830767E
:10324000002413E0F06B250128180622FF2111F05D
:10325000A9FCF06B06222818FF21801D11F0A2FCAA
:10326000F06B28188781641C8773E4B2307E844237
:10327000E8D31F488068002801D0B77601E080209D
:10328000B076307E70760124776334707770B770D3
:10329000F77010220021174811F084FC3771772550
:1032A00075713762B471F7711248377277721022F4
:1032B0000021103011F076FCB772F5727762377327
:1032C000052070731020B073F77302203074B7625A
:1032D000F76237637774F774347504487475B4759E
:1032E00005494830016005494160F8BDC4420020ED
:1032F0009865002058660020A5B700006DB7000053
:1033000070B50024054600290BD108491046FEF788
:10331000E3FA0846294601F055F8040003D00121DC
:10332000284601F0FDF9204670BD000040420F0024
:1033300070B5264D0C4608040FD5E87D11F076FCDB
:10334000050006D008F04CF9002802D0284611F0FC
:1033500045FC0120C003604070BDA0070BD50021D3
:10336000084607F0D1FD02214C40002825D1E87D18
:1033700011F0E6FC1FE0E00721D0686B808808F0C0
:1033800061F901214C40002817D0A86A00280DD00F
:103390004368002B0AD0686B002280889847A96A8E
:1033A000686B00224B68808803219847287D11F0C4
:1033B00017FD07F09BFD204670BD0121D7E7600790
:1033C00002D50420484070BD002070BDC4420020DA
:1033D0007FB5044680787F4D801F030006F0DCFF38
:1033E0000AF4F7F7A41306F0F778B9F7A96A2046AC
:1033F000002907D00C68002CFBD0437B027B41895D
:10340000C01CA047E3E060780026002847D1A079DF
:10341000C00744D0686B002841D1102200216846C3
:1034200011F0C0FB6169002903D006226846103103
:1034300007E0A0880CF050FD0028E3D0811D062293
:10344000684611F0B7FA69468889A1794907C90F1A
:1034500008436946888107F0E3FE297E88420BD144
:10346000A87D002801D0FFF777FD5B48026B002A9A
:1034700002D001210820904707F0D2FE297E884221
:10348000A87E02D10121084301E040084000A8764F
:103490002146684607F038FD002812D01526A86A94
:1034A000002855D04368002B52D06278A0880121B3
:1034B0009847002E4CD0A96AA0884B683246032159
:1034C00073E00221E87D11F03BFC002004B070BDE8
:1034D0006078062817D1A0880CF0FEFC060012D0F8
:1034E000287C012804D0022808D003280BD114E03E
:1034F0007179A088002207F0A5FD04E0A18830784A
:10350000052201F01DF9A86A002860D04368002B4D
:103510005DD06278A088022147E000224120114658
:10352000000100F0F7F8E9E7E0780022211D00F043
:1035300055F8297E88424AD2062148432530224642
:10354000C0B20C32042111F0AFFC287D11F048FC10
:103550003DE0287B002802D0A088697B28E02878FD
:103560000028A08823D00CF0B7FC06002FD0A07A4A
:10357000C0070BD07079002808D0A189890505D42F
:103580006A46B11D00F02AF8002814D0224671794D
:10359000A088083207F056FDA86A002817D04368B3
:1035A000002B14D00022A088114698470FE0052177
:1035B00001F0B6F80BE0A0880321F9E700E003E092
:1035C000A08800F031FA02E0A088FFF7EFFD0120AB
:1035D0007CE70000C442002098650020F0B52E4E24
:1035E00085B0347E15460F46002806D0012804D049
:1035F000022811D003284BD121E0084607F0E2FE53
:10360000317E0446884243D2002D41D006223946FD
:10361000284611F0CFF93BE000240BE0F16B2001CC
:10362000401806223946801D11F0B6F9002826D12F
:10363000641CE4B2307E8442F0D3C4B21FE00024A4
:1036400019E02046062148432330C0B26A461021C3
:1036500011F0E6FB00280CD11022FF21684611F082
:103660008CF9002805D13946684600F0C5FF0028CE
:1036700005D0641CE4B2307E8442E2D3DDE7307EC4
:10368000844205D2002D03D02946204607F0C2FE11
:10369000204605B0F0BD0000C4420020F8B50E463B
:1036A00019491525194F884214D1002409E03246E2
:1036B0000221204607F0CEFD002800D00025641C22
:1036C000E4B2387E8442F2D3002E1BD010480CF0B6
:1036D00021FD17E00CF000FC040012D060790022FC
:1036E000A11DFFF77BFF397E884204D232460221BA
:1036F00007F0B0FD0025002E04D0204607F00CFF97
:1037000000E014252846F8BDFFFF0000C442002059
:1037100019B50000F0B50746012080021546381A99
:1037200089B00024BC4ABD4E030006F035FE2011CE
:10373000181F262D333A3F464D545B626970757CE5
:10374000EFEEEDECEBEA89E9E8AAAAF3F6E5E4EBA3
:10375000012971D1287802286ED8307059E10129E9
:10376000F7D128780128F7D8707052E10129F0D1FB
:1037700028780428F0D8B0704BE10129E9D12878E5
:103780000128E9D8F07044E11029E2D1102229463D
:10379000A348ADE00129DCD128780128DCD83071BC
:1037A00037E10129D5D12878707132E10429D0D1CF
:1037B00028689042D0D830622BE10129C9D12878FD
:1037C0000228C9D8B07124E10129C2D12878012882
:1037D000C2D8F0711DE10129BBD128780428BBD8DB
:1037E000307216E10129B4D128780128B4D870725A
:1037F0000FE11029ADD18A4810222946103077E018
:103800000129A6D128780128A6D8B07201E10129A2
:103810009FD12878F072FCE004290DD128689042ED
:103820000AD87062F5E0002906D100F06FFD00288B
:1038300003D00120F074ECE074E007F03DFD1CE0E3
:1038400007296FD10622691C684611F0B3F8287861
:1038500000226946FFF7C2FE0546307E854239D216
:1038600000F054FD002805D0F26B012029018918D1
:103870008873CEE0284607F031FD502011F094FA0D
:1038800096E007294ED10622691C07A811F092F88C
:103890002878002207A9FFF7A1FE317E88421BD2BB
:1038A0000621484305462135E8B26A461C2111F03D
:1038B000B7FA00280ED15B48874201D1012000E011
:1038C000FF206946C876E8B26A461C2111F0ECFA7E
:1038D000307D4BE002249CE0B07E0028FAD05148B5
:1038E000874214D10120F0764C4807222946403007
:1038F00011F060F88DE05EE07AE00EE00AE075E03D
:103900006FE067E07BE04AE041E039E031E0002031
:10391000F0767EE0002070757BE000270120707556
:103920003D461BE066E02846062148430646213610
:10393000F0B26A461C2111F073FA00280CD16846D7
:10394000C07EFF2808D0FF206946C8760127F0B264
:103950006A461C2111F0A8FA6D1CEDB22F48007EBA
:103960008542E0D3002F54D02C48007D11F038FA66
:103970004FE001293ED1287801283BD8307348E038
:10398000012937D12878092834D8707341E00129FA
:1039900030D12878C11F09292CD8B07339E001290A
:1039A00028D1717C28787074002932D1012830D157
:1039B00007F070FD2DE001291CD1B17C2878B0748E
:1039C000002903D1012801D107F064FDB07C01F08A
:1039D000DCFE1EE001290DD1287803280AD83074B6
:1039E00017E0012906D12878307512E00120BDE7E3
:1039F000012901D018240CE02878B07509E0192FAE
:103A000000D367E70229FCD12988384600F046FE3A
:103A10000446204609B0F0BD3F420F00C4420020DA
:103A2000586600201A040000FEB5064600200190EA
:103A3000029030460CF050FA040017D0144FB879B9
:103A4000022813D0607901AAA11DFFF7C7FD054622
:103A5000387E85420BD2284607F0FCFC0246012046
:103A6000009008232946304607F0B2FBFEBDB87926
:103A7000002807D00128F9D161790022304607F0EB
:103A8000E1FAFEBD0521304600F04AFEFEBD000011
:103A9000C4420020F7B516491525164E1746884230
:103AA0000FD1002409E03A462046019907F03EFD77
:103AB000002800D00025641CE4B2307E8442F2D39A
:103AC00013E00CF009FA00280ED04379811D002282
:103AD0001846FFF783FD317E884206D23A460199A7
:103AE00007F024FD002500E014252846FEBD000057
:103AF000FFFF0000C442002010B51448007F80087A
:103B00000DD0134806F096FA124CFF28207006D00C
:103B100000F066F910480078002802D013E0182061
:103B200010BD0E4A1021022011F07AF90C4A102122
:103B3000032011F075F904210A4A084611F070F9C2
:103B4000207800F053FD002010BD00009865002093
:103B5000013C00001443002022430020976600200F
:103B6000A7660020304300203EB5084C6D462478FF
:103B70002C706870A970EA700622194601A810F02E
:103B800019FF684600F010FB3EBD00001443002002
:103B900010B503F077FC13480078002801D0FF2807
:103BA0001DD1114806F046FA02F0B2F90F4806F0AE
:103BB00041FA00F08FFB0E4806F03CFA01F0D4F910
:103BC0000C4806F037FA05F0BFFF0B4806F032FA52
:103BD000FFF748FA094806F02DFA00F0F5FDFFF767
:103BE0008BFF10BD1C4300205560000009450000FC
:103BF0009D500000599C00003133000049490000ED
:103C000070B50C4608040DD50F48007811F00EF879
:103C1000050004D007F0FAFE284610F0DFFF01206F
:103C2000C0030CE060040CD50421084A084611F0DA
:103C30003BF90748007811F0D3F801208003604079
:103C400070BD002070BD00001443002030430020F0
:103C5000D84200207CB514460D4601F0A3FA002D91
:103C600002D02846FFF768F90A48002C00D04460CB
:103C700009490978002901D000207CBD0849074A7C
:103C8000009101920849074B0A780821007800F05A
:103C90000DFA7CBD14430020224300203043002055
:103CA000A7660020976600202143002038B5054B09
:103CB0006C461B7823706070A170E270684600F05B
:103CC000B7F938BD1443002070B50C4601460320F7
:103CD00000020A1A00252548130006F05DFB130BAD
:103CE0000D10171A1E2125292B2D3133393B3D3D4F
:103CF00035373D00407811E010221D4902E01C4993
:103D000010221031204610F055FE2DE04069206051
:103D10002AE0164906221E31F4E7C078207023E01D
:103D2000124982782431EDE7114902791F39E9E718
:103D3000407AF3E7807AF1E70C4906221831E1E78F
:103D4000C07AEBE7007BE9E7C0890AE0008A08E077
:103D5000007AE3E74079E1E7192904D2084600F048
:103D6000ADFA208000E00225284670BD1C430020EB
:103D700097660020F8B5164CFF202070002565706E
:103D80000320A0700126E670062765611920E781EF
:103D9000C001208220461F222946243010F002FF55
:103DA00020460221243001704670877025711F2241
:103DB0000021084810F0F6FE2046062200211830A7
:103DC00010F0F0FE6571A571FF20E071F8BD0000F4
:103DD0001C4300207866002010B501F015FD10BDD1
:103DE0000449C8710878FF2803D0012088710C208D
:103DF000487070471C43002010B504460CF06CF866
:103E0000002805D000781322214600F099FC10BD4F
:103E1000122010BD3EB50024069D01940095029429
:103E200001F033FC3EBD0000F8B50E46070048D057
:103E300038880CF051F8050041D0234AA96BD0789E
:103E4000022806D0012804D0287B082803D1002EA0
:103E500001D0122436E0002901D0112432E01B49A0
:103E60002C2010F0C3FD0446A863200025D02C228E
:103E7000002110F097FE388860801C22391D201D1B
:103E800010F098FD022020700F483A880178287BB6
:103E9000082810D00020231D05F08BFF0446002EBB
:103EA00003D0314628460FF087FB002C0AD0284665
:103EB00007F030FE06E00120EDE7132402E01424B1
:103EC00000E002242046F8BD86430020144700008D
:103ED000FFB51F4881B0C0781E4617460D46022820
:103EE00018D0012816D0002F30D001980BF0F4FF25
:103EF000040029D0E06A002801D010F0CDFD1C217B
:103F0000384610F063FDE062011E1BD0207B0828BC
:103F100003D00DE0122005B0F0BD002E08D0887E41
:103F200000900B4612330A8A01980FF08DFE00E0D4
:103F300000202179002D01D0062200E00422114347
:103F40002171E8E71320E6E71420E4E70220E2E726
:103F50008643002010B50548C078000701D5044805
:103F600000E0002008F054FC10BD00008643002053
:103F7000A443002070B51A4C05460121207807F0B3
:103F8000EFFD1848C1780A20014223D02570164859
:103F900008F038FC606800281AD1207800281DD06D
:103FA0000001072110F022FD6060002810D0217868
:103FB0000A01002110F0F6FD0020FF21626803E0F5
:103FC0000301401CD154C0B223789842F8D305E0D5
:103FD000132070BD0020207008F014FC002070BD7C
:103FE0009843002086430020B8660020094900203D
:103FF00008704860886009480749016008494160C5
:1040000008498160034808490C3001600749416054
:10401000704700009843002049B90000B8660020AE
:1040200085C30000E1C2000029B8000061B80000AB
:1040300038B51A4D0446A868002801D0112038BDB3
:1040400017480A21C078084225D01649042010F0EC
:10405000CDFCA86000281CD00422214610F0AAFC48
:10406000052000F02BF90546062000F027F902464E
:10407000E078002800D001200B498978002901D080
:10408000012300E000230090A078294601F09CFB6A
:1040900038BD132038BD122038BD000098430020E1
:1040A000864300201D47000004660020F8B5022466
:1040B000079F1D461646042919D004DC012907D0A4
:1040C000022945D10BE008291BD00C2940D129E059
:1040D00000F05CF904003BD100F0B0F938E000F0EA
:1040E00055F9040034D13046FFF744FF30E000F0CA
:1040F0004DF904002CD13A462846069900F080FA82
:1041000020E000F043F9040022D13A4628460699FF
:1041100000F076FA3046FFF72DFFFFF71BFF05F0A2
:1041200025FD15E000F032F9040011D13A46284689
:10413000069900F065FA3046FFF71CFFFFF70AFF0B
:1041400005F014FD00F07AF900F060F905F0E8FDE3
:104150002046F8BD70B5104C2168002919D00978A7
:10416000814214D10D4D0221287810F099FF0C489E
:10417000002646802878042110F092FF09484671F5
:10418000216803204870002001F003FB70BD03206C
:1041900070BD122070BD00009842002086430020B0
:1041A000AC43002004660020F0B504463D488BB0C7
:1041B000C078000772D53C488068002801D01024E0
:1041C0006DE000F0A3F839490978884264D2384E8E
:1041D0003068002801D0112461E036490A2010F02F
:1041E00005FC3060002854D00A22214610F0E2FB82
:1041F00030684078002805D00B2000F05FF80A9066
:104200000C2004E0092000F059F80A900A2000F080
:1042100055F8044628488078002801D0012500E0A0
:104220000025102000F04AF807460F2000F046F85D
:1042300000900D2000F042F801900E2000F03EF8B2
:104240000290082000F03AF80890072000F036F8B5
:1042500009903168C878091D06F02BFE0346019AC3
:10426000029900980491069007970592326809997F
:104270000898161D009602910390019592782146A8
:104280000A9801F021FA040009D0032007F05CFC31
:1042900005E0132403E001E0152400E01224204689
:1042A0000BB0F0BD8643002098430020F844002066
:1042B0009C4200201C47000004660020192801D3FE
:1042C0000248704702494000085A7047FFFF00004B
:1042D0002466002010B5044600F01CF800F0F4F845
:1042E000FFF784FEFFF746FD0649FF23CB7000224F
:1042F0008A700A710448052143700470204601F059
:10430000F1FE10BD046600208643002010B50BF0BE
:10431000E5FE10BD1A4800210170417041608160C6
:10432000C1600161416181611648B422018042800F
:10433000012292038280A022C28002811022428147
:1043400082815023C381038242828282C2827D2382
:1043500002831B0143838183C18301840F23438430
:10436000094B83840723C3840285012242857E2270
:10437000D2438285C1850186491E4186704700006F
:10438000844200202466002080BB000070B50E46E9
:10439000054620220021094810F004FC074C08487B
:1043A000E570C67001F026FA002803D000202070C6
:1043B000122070BD0121217070BD00000466002034
:1043C000864300207FB504460D4608460BF084FD69
:1043D000002817D00C48844212D2102200216846CF
:1043E00010F0E0FB69460C70200A4870200C8870C1
:1043F000200EC8702946684605F0ECFB04B070BD7D
:104400000220FBE71220F9E740420F0010B50848F0
:10441000C078400707D5074808F006FA002006498B
:10442000C043C88010BD002008F0FEF910BD000098
:1044300086430020BC43002004660020F8B51E4CD3
:1044400000256068002802D010F026FB6560E06857
:10445000002802D010F020FBE560184E0527F07808
:10446000384224D0164808F0D9F9F07838421CD0E8
:104470001449202010F0BAFA6060002815D02022DC
:10448000002110F08FFB0F492020491E10F0AEFADA
:10449000E060002805D02022002110F083FB0020DE
:1044A000F8BD606810F0F8FA65601320F8BD0020D0
:1044B00008F0B4F9F3E70000AC4300208643002085
:1044C000C4660020164700000948FF210170002142
:1044D000418041608160C160074806490160074929
:1044E0004160074981600249064810310860704701
:1044F000AC43002081BE0000C466002011BF000054
:1045000029CB0000F1BD0000FEB5354F354D0C46FE
:1045100008041FD5387810F089FB061E17D03078B4
:10452000A22806D07D78304608F072F800280AD11B
:1045300002E02C48C578F6E7FF2D04D03146284626
:1045400010F0ACFBE6E7304610F048FBE2E7012054
:10455000C00341E0E0070126234900280AD048684B
:10456000002804D04168002901D000208847204657
:104570007040FEBDA00709D5C868002804D0416876
:10458000002901D001208847022025E0600725D5B9
:10459000687900281FD0401E0006000E68711AD1ED
:1045A0004869002808D02E71C868002804D04168E6
:1045B000002901D0012088476946E86805F051FAD2
:1045C000684607F00FFE1120FFF778FE6871387813
:1045D000042110F065FD04206040FEBD0020FEBDFA
:1045E0008643002004660020844200200149487070
:1045F000704700008643002010B505F06BFB10BD2E
:1046000070B5154C0E46626121610546E0601022CE
:10461000FF21304610F0B1F9012806D01022002108
:10462000304610F0AAF9012803D1102120690EF0BC
:10463000B5FD1022FF21284610F09FF9012806D071
:1046400010220021284610F098F9012803D11021EA
:10465000E0680EF0A3FD70BD046600207FB50C4637
:1046600005460BF039FC002814D0826B007B04282F
:1046700002D0122004B070BD002A00D0947D68469C
:1046800021460FF01DFB044B6A46022128460FF01D
:1046900099FAEFE71420EDE7B341010070B50C463D
:1046A0000546192802D20848844201D1022070BD73
:1046B000112D04D13C20604380B201F07DF8034904
:1046C00068000C52002070BDFFFF0000246600202F
:1046D00070B50E4611491546CB78022B17D0012B29
:1046E00015D0002D17D00BF0F7FB040011D0002ED1
:1046F00003D0207902210843207120461022294648
:10470000183010F057F92869A062002070BD1220FF
:1047100070BD142070BD022070BD000086430020D3
:1047200038B50C4605460BF0D7FB002806D0684686
:104730000470694628460FF033FA38BD142038BD9E
:10474000F7B505461E4812261E4F0C46814208D179
:10475000B868002832D00268002A2FD02846904737
:10476000FEBD1748401C844219D1B868002806D005
:104770000268002A03D028469047002806D0284621
:10478000029906F089FB060005D017E07D700298BB
:1047900038700020FEBD7D70029838700EE008462B
:1047A0000BF09AFB002809D00078A84201D0032022
:1047B000FEBD2046029900F03AFFFEBD3046FEBD28
:1047C000FEFF000084420020F8B5044600F044FEDD
:1047D00000F046F8114F134EFC701149304600F0BE
:1047E00027F81149C02010F001F900221346B861E2
:1047F00094010653002124180C254D436519AB8004
:10480000491CEB600529F7DB521C032AF0DBF87822
:10481000787006480BF096FCF8BD0000704400204C
:1048200012670020FFFF00000147000081DB00004D
:1048300070B50A4C0025A04208D1002082008C529D
:104840005218401C95700328F8DB70BD09F069F917
:104850000028FAD00480857070BD0000FFFF0000C2
:10486000F0B51E4920200870FF2048708870C8707D
:104870000126CE8000200881C86008610B46022412
:104880001C3348611C70164A5A600A46087124326B
:104890001470144D556016725081D3601474124F09
:1048A00015466F612E766883E961202154541346C2
:1048B0000E4D59185D6208725885D86230215454E3
:1048C0000B4C0323511854630B725087094ACA607A
:1048D0000249094A643105C10860F0BD70440020F6
:1048E0000B5201000D520100135201002B52010026
:1048F000195201001267002059E60000F8B50E4673
:104900000746069900240798002902D00B24204668
:10491000F8BD022B01D00D24F9E7517812780D0271
:1049200015432946814301D08024F0E73846F168D9
:1049300000F042F9A842EAD02A463846F16800F071
:10494000BFF90446E3E7000070B50D4608041AD528
:104950000E48C07810F06AF904000FD02078B02813
:1049600009D1204609F0A4FA002804D02046217974
:10497000083000F069FD204610F030F9012128468A
:10498000C903484070BD002070BD00007044002085
:10499000FFB585B000200F9F0090087A0E9D1C4641
:1049A0000E46C0060BD5079809F0B4F803007DD079
:1049B0000A223146059898470090002816D1307891
:1049C000022815D0079809F0CBF80028EFD000682E
:1049D00084460028EBD01199109822460097029146
:1049E00001902B46314664460598A04709B0F0BDBA
:1049F0007068292241780078090201431202881A5E
:104A000091427CD00BDC6948081A13D0012811D0E0
:104A1000022817D00328D5D1002F53D09BE00128BE
:104A20007ED002286DD0032877D00428CAD1002F69
:104A300068D090E0002F6FD1F0680178298002786B
:104A4000416884E0002F67D1F068417800780F0258
:104A5000074304202880F06804A900782070F068DB
:104A600040786070384600F0A3F9060022D068460E
:104A7000028A03AB4E493046F76800F0F7F9002888
:104A80000AD1337802214B487268FDF7ECFB00280D
:104A900002D1474869468881387802280CD1022221
:104AA000201D79680FF086FF288800E07CE0801CDC
:104AB000288001E06846878168468089A070000AE6
:104AC000E0706FE001202880F068002100782070FD
:104AD0007089401C80B200F06BF9002813D029883F
:104AE00002788918891C2980817A61704189090AB4
:104AF000A17002784168E01C0FF05CFF52E00CE00E
:104B00000EE026E03BE028880422001D28800021DA
:104B1000601C10F047F845E01DE0002F27D01AE098
:104B2000F06810F0D0FA80B2B84201D207205DE7F9
:104B3000874201D1002006E01099C919814201D3B2
:104B4000C01B00E01098288082B2F068C11920468E
:104B5000D2E7002F01D00B2048E7F168059800F05C
:104B60002BF8022129802070000A60701AE00220D0
:104B70002880F06800782070F0684078F5E7072119
:104B8000F068298001782170417861708178A17086
:104B90004188090AE1700179217181796171C088C8
:104BA000000AA071009821E70E201FE700280000EE
:104BB000FFFF00000F52010010B508F0B2FF0028FF
:104BC00000D0807810BD0000014988707047000057
:104BD00070440020F8B50C4C0746A07815460E46E8
:104BE000FF280FD00A200FF0E5FF01000AD0B12006
:104BF00008704F80002048700871CE800D81A07829
:104C000010F04CF8F8BD00007044002070B50C4660
:104C100005460649FFF7D0FF800704D52146284600
:104C200000F0CCFA70BD012070BD000012670020BA
:104C30000EB56B461A81FE230022019300920223D7
:104C400002AA00F001F80EBDFFB583B0174602A915
:104C50000D9E049800F0ACF804002AD06846008944
:104C600008F07EFF002822D04568002D1FD00C9848
:104C7000019600903A462146069B0398A8470500F6
:104C800018D1FE2E16D02078022813D16068417802
:104C9000027808020949104388420BD178783978A4
:104CA00002020A4304990398FFF794FF02E00E25DD
:104CB00000E00125284607B0F0BD000002290000F1
:104CC00070B514460E46054608F02BFF002806D1A5
:104CD0003146054808F025FF002803D00580847080
:104CE000002070BD112070BDFFFF000010B50178DD
:104CF000B0290BD14178002908D10179122906D0B9
:104D00001B2903D14088012101F0F6F810BD417C38
:104D10000129F7D010BD0000FFB5002489B01E4660
:104D200015460F46022A05D0102D03D00224204636
:104D30000DB0F0BD002FFAD007A9099808F07AF954
:104D40000400F4D1012069468880801EC8800D725D
:104D500002A82A46394601300FF02CFE01A9099815
:104D600008F0FCF80400E2D1034B072201A90096E9
:104D7000079809F0B5FDDAE735250000FEB50E46C7
:104D80001546074601A908F055F904000CD1314633
:104D90003846FDF7AFFA040006D1044B0322314632
:104DA0000095019809F09CFD2046FEBDB924000045
:104DB000F0B5104A536919E09C686589A84214D37C
:104DC0009E887219824210D900220CE017013F1907
:104DD0007F89874205D1002900D00D80100100197C
:104DE000F0BD521C92B2B242F0D31B68002BE3D14B
:104DF0000020F0BD70440020FFB51B4883B00023A5
:104E000045692DE0AE68002470890190A888009063
:104E100016E0210188194289039FBA420ED3049FEC
:104E2000BA420BD8069A002A0FD01346715C40682C
:104E3000059AFDF718FA002807D10023641CA4B2D4
:104E400000988442E5D3002B09D00C98002802D0AA
:104E50000C99019808802001801907B0F0BD2D68D9
:104E6000002DCFD10020F8E770440020FEB5174692
:104E700000256A469580044640891D4A1E46904298
:104E800008D001AA0092401C237880B26268FFF724
:104E9000B3FF05462378022116486268FDF7E3F95F
:104EA000002807D12378022113486268FDF7DBF957
:104EB000002801D060890EE0237802210F48626843
:104EC000FDF7D1F900280DD0002D03D06846808869
:104ED000B84203D0384609F0E3FC04E06889401E7C
:104EE00080B200E06089002E00D030802846FEBDF0
:104EF000FFFF00000D5201000F520100135201008C
:104F0000FFB583B00E461D46174601A9039808F069
:104F1000DBF8040022D1002F0FD0694608803088CA
:104F2000FFF746FF6946088800F084F90146012230
:104F300003980AF0A5FF002811D131460398FDF728
:104F400081FA04000AD1FF2D08D0019B1E221946C8
:104F500004489B1C09F0AFFC0198C570204607B0BF
:104F6000F0BD000009E7000010B50446FDF780FA27
:104F70000749FF20087048700020486088608C70E6
:104F80000421204601F0AEF800F044F810BD000006
:104F9000B0420020F8B5184F282138784843174907
:104FA0000FF024FD164E0028706023D00024154D0C
:104FB00012E028207168604340180580002181704C
:104FC000FF224272027281722422115418220C3084
:104FD0000FF0E8FD641CE4B238788442E9D30A4853
:104FE00008F012FD0948FDF781FC09480BF0AAF80A
:104FF0000020F8BD1320F8BDF8440020064700004B
:10500000BC420020FFFF000001CE0000E3CD000005
:1050100029CD000070B500200D4D0E4B0446FF2237
:10502000062141435D52C918CA708A70401C0C7138
:105030000328F5DB0120C0431880074808F0EAFC8C
:105040000648FDF759FC06480BF07CF8002070BDBF
:10505000FFFF00000067002051E7000033E7000079
:1050600089E60000F8B51C4615460E4607460AF0CC
:1050700033FF00280DD0017B074808292B46324614
:105080003946009403D0007808F034F8F8BD407831
:10509000FAE70120F8BD0000B0420020F0B587B06B
:1050A0000F46080470D5394EB0780FF0BFFD0400EC
:1050B00064D02078A0285ED101206946087320467C
:1050C000FDF769FA050041D16846807800280BD0C9
:1050D000142809D0152807D01A2805D01C2803D079
:1050E00001461F3920290BD8B16800292ED0694606
:1050F000497800292AD169460874062008751FE0FE
:10510000C0070AD07368002B05D0608803AA6946DF
:10511000984705461AE0062518E0B368002B06D02C
:10512000608803AA69469847050001D10EE006256C
:1051300068464078002809D16946887808740D755A
:1051400000204882608804A9FDF7C8F86846007B03
:10515000002804D0A068002801D00FF09DFC002D8D
:1051600005D168468078122805D01B2803D16088B5
:10517000012100F0C1FE20460FF030FD0120C003E8
:10518000784007B0F0BDFFE70020FAE7B04200200A
:1051900010B508F0EBFB10BD10B51346002208F067
:1051A000FFFB10BD0149487070470000B04200206D
:1051B0000149087070470000BC420020FEB50E4651
:1051C000074600250223194A194901200095FFF7D7
:1051D00013FE040027D023200090002304221D2169
:1051E000384600F0EBF8029000281AD06089694632
:1051F00088800420C88002990120087002983346F4
:1052000045700299FF20887002990022C87001A998
:105210003846FFF775FE040006D002980FF03CFCFC
:1052200002E0152400E001242046FEBD2B520100BF
:10523000FFFF000000B507F0EDFE002801D08078E8
:1052400000BD102000BD00B507F0E4FE002800D02E
:10525000008800BD7CB50D4604460AF03DFE294697
:105260002046FDF74FFB002812D168468580204676
:105270000AF032FE00280BD0027B01A90748082A59
:10528000009106D07F2300222146007807F032FFEC
:105290007CBD7F23002221464078F7E7B042002002
:1052A00010B504460B4688060DD51046FFF7C2FF21
:1052B0000146012220460AF0E3FD052801D00F280F
:1052C00000D1082010BD882003420CD01046FFF703
:1052D000B1FF0146180701D5012200E00022204657
:1052E0000AF0CEFD10BD880701D5002010BD0320B7
:1052F00010BD10B50346C8060DD51046FFF79AFF3E
:105300000146012218460AF0BBFD052801D00F28EE
:1053100000D1082010BD480705D51046FFF78AFFC9
:105320000146012206E0480608D51046FFF782FF35
:105330000146002218460AF0A3FD10BDC80701D09F
:10534000002010BD022010BD70B51D4603460C465E
:1053500088060DD51046FFF76DFF0146012218465D
:105360000AF08EFD052801D00F2800D1082070BD5D
:105370008820044214D01046FFF75CFF0146200746
:1053800001D5012200E0002218460AF079FD00282C
:1053900008D0697A0029EAD0297A002902D170BDA3
:1053A000880701D5002070BD032070BD10B5002313
:1053B0004B720B7209F0B4FA10BD0000F8B5069FED
:1053C0001E461546162928D00CDC09291FD004DCFE
:1053D00005291CD0062911D11BE0112917D012294B
:1053E0000CD118E01D2916D004DC172915D01B2973
:1053F00004D110E052290ED0D2290CD00124114A38
:1054000095420CD1FDF70EF8001B85B20BE002248B
:10541000F5E70724F3E70324F1E70524EFE7D229B2
:1054200001D10C35ADB2601980B2394600F0B6FE3C
:10543000002805D0002E00D0358061420FF068FAB8
:10544000F8BD0000FFFF000010B507F009FE0028BE
:1054500001D00FF021FB10BDF0B500213D4C022220
:10546000A1603D4D227008462954401C80B2162888
:10547000FAD36270374BE180A27050200C33188051
:10548000A0205880184681807D20C000D880E2701E
:105490000123304823716171143002702F4C446035
:1054A000037241812E4CC460064602742D4F776111
:1054B0003446337671831034143EE660202402555E
:1054C0000646294F3419776223727185F5623024BC
:1054D00002550546234E6E632C1923726987133DCE
:1054E000E560402402550546204E6E642C19237257
:1054F00061810E3DE560502402550546194E2C1978
:105500006E6523726181123DE56060240255054697
:10551000174E6E662C1923726181083DE560702478
:10552000025505460F4E2C196E6723726181113D9D
:10553000E560802402550F4A803042600372418149
:105540006A1CC2600C48A03210600C4850601046C3
:105550008160F0BDC0430020D06600200D520100E4
:105560007851010013520100215201002352010021
:10557000295201003352010005EA00004DEB000002
:1055800070B51646214A0D46114600241431030019
:1055900004F002FF0A061338381838212838313849
:1055A000152D2AD81622002119480FF0FBFA2A4699
:1055B000314617480FF0FEF925E0022D1DD1308845
:1055C000D08020E0082D18D11048082231460C3038
:1055D000FCF7F9F917E0012D0FD1CA690B493078B2
:1055E0003C3105E0012D08D1CA6B084930785C31A7
:1055F00009F074FA07E0012D01D0182403E0307897
:10560000107100E00224204670BD0000C04300205D
:10561000D0660020704710B500F026F910BD10B517
:1056200000F042F910BD10B500F056F910BD10B5EC
:10563000FCF79CFB10BD10B500F062F910BD10B571
:1056400000F076F910BD10B500F08CF910BD10B562
:10565000FCF796FB002010BD10B5FCF7ABFB10BDAE
:1056600010B5FCF7B7FB10BD7CB5069C079DC0B21A
:105670000195009400F08CF97CBD10B5FCF7BAFBE5
:1056800010BD10B5FCF7C6FB10BDFEB508AF70CF5E
:105690006F4670C7FCF7CEFBFEBDF0B585B0844603
:1056A0000AA8F1C804976F4671C7604600F0A0F9D8
:1056B00005B0F0BD38B5049C009400F0D9F938BDB0
:1056C00010B5FCF7C7FB10BDFFB589B016A871C8AF
:1056D00094468E460796159F129A139904AE31C6CA
:1056E00014980092019102900397624671460998BE
:1056F000FCF7BEFB0DB0F0BD38B5049C009400F083
:10570000D5F938BD7CB5069C079DC0B201950094C3
:1057100000F0EAF97CBDFFB587B094468E4610A82C
:10572000F7C806976F4677C762467146079800F03C
:1057300011FA0BB0F0BD10B500F066FA10BD10B54F
:10574000FCF7B6FB10BD10B5FCF7C4FB10BD10B5DF
:10575000FCF7D2FB10BD10B5FCF7DEFB10BD10B599
:1057600000F070FA10BD10B5FCF7E8FB10BDFEB5F7
:1057700008AF70CF6F4670C7FCF7F2FBFEBD38B5BF
:10578000049C009400F07CFA38BD10B5FCF702FCD4
:1057900010BD10B5FCF70EFC10BDF0B585B00AAC1D
:1057A000F0CC03976F4670C7FCF714FC05B0F0BD52
:1057B00010B5FCF725FC10BD10B5FCF731FC10BD91
:1057C00010B5FCF73DFC10BD38B5049C0094FCF707
:1057D00047FC38BD70B55478157822022A43FCF78F
:1057E00051FC70BD10B5FCF757FC10BD10B500F0B2
:1057F00065FA10BD10B5FCF753FC10BD38B5049C1C
:10580000009400F073FA38BD10B5FCF75BFC10BDD6
:1058100038B5049C009400F017FB38BD10B500F0BB
:1058200081FA10BD10B5FCF763FC10BD10B505285A
:105830000ED90C4CA0420BD2A14209D2814207D30F
:10584000FF20F530824203D2092B01D9A34201D3B4
:10585000002010BD521C4A43D8008242F8DA0120D1
:1058600010BD0000810C0000F8B50746084616463A
:105870000D460C300FF09EF9040011D091202070DD
:105880000E206070A5702046A7800C302A46314655
:10589000A0600FF08FF80348214600780FF0FEF962
:1058A000F8BD00008643002070B505460C46062072
:1058B0000FF080F901000BD0912008700F20487084
:1058C0008D700120C87003488C8000780FF0E6F9D5
:1058D00070BD00008643002010B5044603200FF081
:1058E00069F9010008D0912008701A204870034817
:1058F0008C7000780FF0D2F910BD000086430020B4
:1059000070B5064614460D4608200FF053F9010005
:105910000AD091200870052048708E708D80034851
:105920008C7100780FF0BAF970BD0000864300203A
:1059300070B5064614460D4608200FF03BF90100ED
:105940000CD0922008703E204870082088708D800E
:105950008E710348CC7180780FF0A0F970BD000003
:105960008643002070B505460C4606200FF022F94C
:10597000010009D091200870302048708D700348D4
:105980008C8000780FF08AF970BD000086430020FB
:10599000FFB581B01E460F4631200FF00BF9040011
:1059A00022D0912020703E2060700220A070012043
:1059B000E0702046083005466060019828706F70DE
:1059C0000622A81C03990EF0F5FF2E7228463246D7
:1059D00009300A990EF0EEFF20350B982872034823
:1059E000214600780FF05AF905B0F0BD864300203B
:1059F000FFB5064681B017460D4616200FF0DAF8BF
:105A000004002FD0912020703E2060700120A070F3
:105A100030460026002808D03120E07020460622BB
:105A2000002108300FF0BEF806E0E670204606229E
:105A300008300A990EF0BEFFA580A7710498E071A6
:105A40000B98E0810C9820820D9860820E9820754A
:105A50000548214600780FF021F9082D02D20349AC
:105A600068000E5205B0F0BD864300201E6700207E
:105A7000F8B507461C4615460E460C200FF09AF85E
:105A800001000FD0912008703E20487003208870DC
:105A9000CF708E80CD800C810698488102480078B6
:105AA0000FF0FCF8F8BD000086430020F8B507466B
:105AB0001C4615460E460E200FF07CF801000FD054
:105AC000912008703E204870072088708F80CE801B
:105AD0000D814C8106988881024800780FF0DEF82D
:105AE000F8BD000086430020FFB581B01F46182096
:105AF0000FF060F8050028D0912028703E206870D3
:105B00000B20A87001202C460834E87000266C6039
:105B100001982070029860700622A01C03990EF074
:105B200049FF27722046062209300A990EF042FFEB
:105B30000B98E073761CE878F6B21034B042E7D8E0
:105B40000348294600780FF0A9F805B0F0BD000021
:105B500086430020FFB5064681B017460D46222039
:105B60000FF028F8040048D0912020703E2060708B
:105B70000A20A07030460026002814D03120E070A2
:105B800020460622002108300FF00CF8204606229D
:105B900000210E300FF006F82046062200211430B6
:105BA0000FF000F812E0E6702046062208300A994D
:105BB0000EF000FF204606220E300B990EF0FAFE82
:105BC0002046062214300C990EF0F4FEA580A77131
:105BD0000498E0710D9860830E98A0830F98E0837D
:105BE0002021109808550648214600780FF056F8F5
:105BF000082D02D2034968000E5205B0F0BD000026
:105C0000864300201E670020F8B5064615460F465D
:105C100010200EF0CFFF040011D0922020703E2003
:105C200060700520A070A68008223946A01D0EF0E5
:105C3000C1FE0348E581807821460FF02FF8F8BDBA
:105C400086430020F8B5064617460D460E200EF096
:105C5000B1FF040011D0922020703E20607004201B
:105C6000A070E670A58008223946A01D0EF0A2FEA5
:105C70000248214600780FF011F8F8BD8643002055
:105C8000F8B507461C4615460E460E200EF092FF4C
:105C900001000FD0912008703E20487006208870C7
:105CA0008F80CE800D814C810698888102480078D3
:105CB0000EF0F4FFF8BD00008643002070B51446D6
:105CC0000D4608200EF076FF01000BD090200870E2
:105CD00013204870012088708D800348CC800078A4
:105CE0000EF0DCFF70BD0000E8440020F8B5074668
:105CF0001C4615460E460C200EF05CFF01000DD030
:105D0000912008700C2048708F708E808D710C81EE
:105D100006984881024800780EF0C0FFF8BD0000E8
:105D200086430020FFB581B0444E02990025F068FB
:105D3000174602292CD0B18800297CD07288CB1953
:105D4000121D934271D840183A4604990EF032FE63
:105D5000B088C01980B2B0807188091D88425CD1BA
:105D60000C200EF027FF01005ED090200870FF206D
:105D700048700198488002200871B088C880F06897
:105D800088602F4800780EF089FFB580357044E0B8
:105D900004994A780B78110219433A1F7180914295
:105DA00022D10C200EF006FF04003BD09020207082
:105DB000FF2060700198608002982071E78021497F
:105DC00038460EF013FEA060002809D03A46049928
:105DD0000EF0F0FD1A48214600780EF05FFF1CE03F
:105DE00020460EF059FE1DE091421BDD317800295E
:105DF00003D0002801D00EF04FFE70881149001D1D
:105E000080B20EF0F3FDF060002814D03A460499F9
:105E10000EF0D0FDB78001203070002005B0F0BD3D
:105E200009E002E0B58006E0F068002801D00EF03D
:105E300033FEB58035700120F0E70000804300207C
:105E4000E844002001800000FFB583B01C461546E1
:105E50000E460C9F03980AF03FF8002809D06846C8
:105E6000068045808480C780FF226946039800F041
:105E70000FF807B0F0BD000008B51346034A0092C2
:105E80000A46012109F0CAFD08BD000005ED000029
:105E90003EB500230192042402930A460094024B6B
:105EA000122109F0C7FE3EBDABED000008B5134658
:105EB000034A00920A46132109F0B0FD08BD000014
:105EC000D7ED00001FB56946C8810022FF210320DD
:105ED0006C4607C4034B03AA0621034809F0AAFE37
:105EE00004B010BD7BED0000FFFF000001484089B9
:105EF00070470000E044002013B5044840790128B1
:105F000003D101AA6946FFF7A2FB1CBDE0440020B3
:105F100070B50025254C302225706570E57025711F
:105F20006571A571E571658125612072294620485A
:105F30000EF038FE0AF074F826460C363078002849
:105F40000ED000011B490EF051FD6061002807D002
:105F5000717821713178E1700A0100210EF022FE82
:105F60001548217900784018C0B21249207000010C
:105F7000491C0EF03BFD2061002811D021780A0158
:105F800000210EF00FFE0020FF2105E02369020131
:105F9000D218401C5172C0B222789042F6D301E070
:105FA0002570257105480AF0CDF870BDE044002049
:105FB00030670020044C0000F844002049F1000044
:105FC0000A2A01D0012070474A780B7812021A433E
:105FD0000280CA788B7812021A4342804A790B7980
:105FE00012021A438280CA798B7912021A43C28044
:105FF0004A7A0B7A11021943018100207047042A62
:1060000001D0012070474A780B7812021A430280AF
:10601000CA788B7811021943418000207047082A02
:1060200001D0012070474A780B7812021A4302808F
:10603000CA788B7812021A4342804A790B7912028D
:106040001A438280CA798B7911021943C1800020DA
:1060500070470000F8B5214E0D4608042ED5307A61
:106060000EF0E4FD04000BD02078902805D1607874
:10607000132808D0204609F0CFFB20460EF0AEFDD5
:106080000120C00328E016490020097CA7780BE016
:106090004200121992797378D218D2B2727091427A
:1060A00000D27170401CC0B28742F1D870780028CD
:1060B000E3D00121307A0EF043FEDEE7E8070CD092
:1060C00009F098FD002806D07078002803D001213F
:1060D000307A0EF035FE01206840F8BDE044002023
:1060E00098650020042907D0052905D0062903D08A
:1060F000072901D0022070470C22044B4A43D218D2
:10610000403A1182907400207047000030670020F0
:1061100070B50C4609880546042905D0052903D029
:10612000062901D0072929D16068002826D001213D
:1061300028460AF03BF800281ED0284609F0A2FFA6
:106140000F498D420BD0002809D16188002906D95A
:10615000208806280ED10B48008881420AD20A48BE
:106160000078002804D02146284608F097FE70BD2C
:10617000162070BD1B2070BD142070BD022070BDA4
:10618000FEFF0000EA440020E1440020024A001F14
:106190005081517091707047E044002010B5801D0F
:1061A00080B205490EF022FC002803D00521C94326
:1061B0000EF0AEFB10BD0000034C00000B480A4976
:1061C00000688A884261CA88C2618B884362CA8833
:1061D000C2624363C2634364C264098981651F214B
:1061E00041600349C1607047CC65002078420020BF
:1061F0001F03000070B515461C46214A0B46916BE3
:1062000090B0002902D0097B002934D1116C0029FB
:1062100002D0C97900292ED1916C002902D0C97908
:10622000002928D1164940318E8E16498988890A5D
:106230008E4202D3072010B070BD11496031097F32
:10624000490618D56946C8700622194601A80EF0FD
:10625000B1FB0AA81022294602300EF0ABFB06A8BB
:106260001022214602300EF0A5FB684601F0B2FD77
:10627000801B012801D00C20DDE70020DBE70000B7
:1062800090670020986500201CB51B4B9A6B002A74
:1062900005D0147B002C02D0D27A002A11D11A6CBE
:1062A000002A05D0D479002C02D0127BD20708D165
:1062B0009A6C002A07D0D379002B04D0D27B002A15
:1062C00001D012201CBD0C4A0C4B40329B88928D91
:1062D0009B0A9A420BD26A46507000A806220230EE
:1062E0000EF068FB684602F01DFC012801D0072073
:1062F0001CBD00201CBD0000906700209865002098
:10630000F0B51F4C89B00D4606462146002004F02A
:1063100064FA0028F9D0A042F7D0002104460120F9
:106320008005274607430091019102910391049152
:106330000591069107916A46D773390A9173390C12
:106340005173304604AA694600F037FD6A46907FD3
:10635000517F000209044018D17F40182870010ABB
:106360006970000CA8700121200A89030843EF70AE
:106370002871200C40210843687109B0F0BD00006D
:10638000FFFF3F00F8B544490C46C86A80342073CB
:10639000020A6273000CA073886AE073010A217418
:1063A000000C60743D49002004F008FA00270646FE
:1063B000791E384604F011FA384332467D1E0AE051
:1063C0003146002004F0FAF906462946002004F080
:1063D00004FA384332469104304E890C0143EFD021
:1063E000D343C14333401943EAD0FF2301461B0284
:1063F00019402076090A617619020140090CA1763C
:10640000000EE076100AC021227708436077012051
:10641000214D0090A0352149002004F0CFF900273C
:106420000646791E384604F0D8F90146394330460D
:106430000A460243EFD0194BCA4343401A43EAD0FD
:10644000FF230A461B021A40130A0A46FF273F048D
:106450003A40CEB2A677C7B2E377120C2A70090E83
:1064600069708004AF70800EBC46E870277BBE4226
:1064700011D1667BB3420ED1A37B9A420BD1E27B52
:10648000914208D1227C944505D1617C884202D199
:1064900000980028BFD1F8BD90670020FF3F0000A2
:1064A00010B500F007F882228021002001F07CFC6A
:1064B00010BD000010B50B48846B04F059FA0020A1
:1064C0002073A0722071084C0121E0780EF0E8FDE5
:1064D000E07802210EF0E4FDE07804210EF0E0FD0A
:1064E00010BD000090670020CC65002070B5044608
:1064F00008206072EC200059002818D05A21228F01
:10650000095BE61D5118F9360A31F1810546012073
:10651000A870314605220931E81C0EF04BFAF089CB
:106520002872000A687222206073002070BD01206A
:1065300070BD10B501F006FD002010BD10B5114969
:10654000886B002805D0027B002A02D0C07A002880
:1065500011D1086C002805D0C279002A02D0007B36
:10656000C00708D1886C002807D0C179002904D061
:10657000C07B002801D0122010BD02F00BFB0020D0
:1065800010BD000090670020FFB581B00D4600F0FF
:1065900091FA040022D01920C00185421ED8062D90
:1065A0001CD30399814219D8A94217D3FF22049919
:1065B000F432914212D80A9981420FD80498C90046
:1065C000401C6843814209DDA07BC00706D12646F6
:1065D0008036B168480701D4880702D5122005B07B
:1065E000F0BD20464030C585039A02860B9A42864C
:1065F0000C9A8286049A82820A9A0746C282E079BD
:1066000002220028A07E02D000282ED037E00028E9
:1066100035D1E420005D800702D51143B16022E04E
:10662000039885420BD028184108284604F0C6F884
:1066300078822146523103980AF0A8FD00E07D825D
:106640001048006E411C042901D9042000E0401CC0
:10665000F87320460AF044FD208F04210A30388365
:10666000B0680843B060122008E0E420005D8007B5
:1066700001D41A20B3E711431320B160A0760020A3
:10668000ADE7000090670020017A4A07D30FF0229F
:10669000125812781207D20F934204D104225140AB
:1066A00001720020704701207047017A0A07D30F5A
:1066B000F022125812785207D20F934204D00822C7
:1066C000514001720020704701207047F8B506461E
:1066D0000021084603F0C4FC184F386800282AD06F
:1066E0001748006E012826D198208159308E002548
:1066F000814201D30C1A02E0091A12480C18124800
:1067000000688047A04203D9011B06D5844201D30B
:10671000251A02E0211A0B480D180C48807F40080A
:10672000A84205D27D21281AC9004843400900E04B
:10673000002039688847B0203073F8BD2445002018
:10674000906700200000C0A87442002098650020D7
:1067500001468031CA6C521CCA640A6D01D1521CB8
:106760000A65120603D50122CA6400220A65203098
:10677000C1784A0602D520221143C170704700003B
:1067800070B50546FF2000022C468034616F05E09D
:106790008A8902438A81616F096861670029F7D19C
:1067A000E16F002906D08A8902438A81E16F096876
:1067B000E167F6E7E06E002801D00EF06DF92C4697
:1067C00020346078FF2801D00EF046FC2078FF28A6
:1067D00001D00EF041FCA078FF2801D00EF03CFC67
:1067E000A88800F0E9F80848806800280BD007481E
:1067F000006E002807D1064CE069002803D00EF097
:106800004BF90020E06170BD986500209067002082
:10681000CC65002070B504461C480E46C16D0025AD
:10682000A14200D1C565FC200059002804D0A088F1
:106830000022802101F0B8FAE08F002804D0A0885F
:106840001322812101F0B0FAA0880522812101F0F4
:10685000ABFAA57165734E200655E079002807D183
:106860000AF0D0F9012803D80121002003F0F8FB39
:10687000E079012807D10AF0D3F9012803D80221D1
:10688000002003F0EDFB002070BD000090670020A9
:10689000014680314A6C521C4A648A6C01D1521CF8
:1068A0008A64120603D501224A6400228A642322E4
:1068B000125C520609D5028F40304388D2180280FC
:1068C00001228868920290438860704770B5044640
:1068D00018206072EC20005900282BD00F21817005
:1068E00021464031CA8DC270120A02710A8E42716D
:1068F000120AC31C82711D468A8A2A71120A6A71A1
:10690000CA8A4272120A82728A7FC272098C017329
:10691000090A417321460C2262310E300EF04AF80A
:1069200020462030C17804221143C1709220607348
:10693000002070BD012070BD30B50C214172EC21EA
:106940000A58002A33D0014602234031CB730C8B06
:10695000038F9C4202D3E41A062C0CDA154C246EE9
:10696000651C042D01D9042400E0641CCC734C8BFD
:106970001B1908330B8300239370CB7BD3700B8AD6
:1069800013711B0A53714B8A93711B0AD3718B8A43
:1069900013721B0A5372CB8A93721B0AD372098B30
:1069A0001173090A517312214173002030BD012077
:1069B00030BD00009067002070B5164C0346206D76
:1069C000002102460D461CE0FF265D36365A9E42E7
:1069D00015D1002904D0626D824204D1616504E0C2
:1069E0001168216501E002680A600EF055F8606DDB
:1069F0000560206E002809D0401E206604E0014694
:106A000000680028E0D1206E002802D100F004F8D0
:106A1000256570BD9067002070B5064D6C6B03E076
:106A200020460EF039F82468002CF9D10020686364
:106A300070BD000090670020F8B51B4D686B002802
:106A400031D1288C1F21C9432130184C0840217CAA
:106A500009010818103080B21B210DF0C7FF002873
:106A600021D00022124B6863014616469D1C16E099
:106A7000002A09D08D814E604E72277C97420AD938
:106A80000F4610370F6007E08B81277C3F013F18CE
:106A900010374F60F0E70E60521C92B21031277C25
:106AA0007F1C9742E4D8F8BD9067002098650020CD
:106AB00052FF000001460648006D05E0FF225D32EE
:106AC000125A8A4202D000680028F7D170470000AD
:106AD0009067002030B50C4A04460948137C002119
:106AE000406B084D5B1C07E08289A24207D0AA4296
:106AF00005D0491CC9B210308B42F5D8002030BDFA
:106B000090670020FFFF00009865002010B5142258
:106B1000002102480EF046F810BD0000E06700209A
:106B200070B5FF256135102128460DF05FFF044642
:106B30002A4600210EF036F8002C0FD01F4D0123FD
:106B40002A6D002A0CD0686DFF304130818B491CC2
:106B500089B2080400D50121104609E0002070BD6B
:106B600019460AE0FF265D36365A8E4203D0006889
:106B70000028F7D101E00028E9D12646FF3641364A
:106B8000B183002910D0002A12D0686D04606C65B2
:106B9000286E401C2866696D00200860B18BA180BA
:106BA000A0712073A08870BD20460DF075FFF9E735
:106BB0002C656C652B66FFF73FFFECE790670020C4
:106BC000FFB54C4C81B0E06C0E9E0A9D0F4600282C
:106BD00006D00AF017F84849097F8908884202D18F
:106BE0000C2005B0F0BDA06C002801D1E06C8047FE
:106BF0000446012001998003814200D80846E083C1
:106C0000B84200D80746278455204743380AA08356
:106C10000398E073287800280ED1687800280BD1FB
:106C2000A878002808D1E878002805D1287900281C
:106C300002D1687900280BD020460121203001774D
:106C400004994177062229461E300DF0B3FE02E07A
:106C500000213C2001550020401CC0B20628FBD377
:106C600035210B9808550C9820820D9961824018A7
:106C70004008E084214626310D980AF087FAE08C1E
:106C80001921C901884201D9E18403E0062801D213
:106C90000620E08402206084FF20F430864200D980
:106CA0000646A682E28C701C5043C3179B0F18182F
:106CB0000F9B8010984200DC184680B2E082109B47
:106CC0002383119B6383884201D9E18203E00A2870
:106CD00001D20A20E082E08A11468000FAF7FCFD2A
:106CE000411EB14201DD304600E0401EA082A06D91
:106CF000804776E7906700209865002010B5064829
:106D0000806C002806D0C079002803D000F036FA45
:106D1000002010BD0C2010BD9067002010B50C465F
:106D2000FFF7C8FE00280FD08179102901D002207A
:106D300010BD4E210C54C179002903D0312141737B
:106D4000002010BD3021FAE7122010BD70B50446B6
:106D500017206072EC20005900282CD0032181708C
:106D600021460546FF3108221431C01C0DF022FED9
:106D7000E01DFC30417E007E09020143E972090AF0
:106D800029732146FF31284608221E310D300DF0AF
:106D900011FE2146FF3128460422263115300DF020
:106DA00009FE20462030C17804221143C1704220E0
:106DB0006073002070BD012070BD30B54478037849
:106DC00024021B198478C57824042D06641989B01F
:106DD0001B1900934479037924021B198479C5791E
:106DE00024042D0664191B190193447A037A2402A2
:106DF0001B19847AC57A24042D0664191B19029381
:106E0000447B037B24021B19847BC07B2404000683
:106E10002018181803904B7808781B02C0188B783C
:106E2000CC781B0424061B19C01804904B790879F0
:106E30001B02C0188B79CC791B0424061B19C018BF
:106E400005904B7A087A1B02C318887ACC7A000422
:106E500024060019181806904B7B087B1B02C018EB
:106E60008B7BC97B1B04090659184018079004A99D
:106E70006846FAF763FE002009B030BD10B504463D
:106E80000920214660728031C86E002810D0082287
:106E90008270C86E5431C01C0DF08CFD204620302D
:106EA000C17804221143C17062206073002010BDBC
:106EB000012010BD10B50923014643728031CA6E0E
:106EC000002A0FD09370C279CB6E002A06D0082218
:106ED0005C31D81C0DF06EFD002010BD082201466B
:106EE000D431F6E7012010BDF8B507462A48C1782D
:106EF0000020C04300294BD0002F49D027490C6DFA
:106F0000002C45D00646E079012811D1608EA18D74
:106F100088420DD2627B012A0AD1254680356A6FEC
:106F2000002A05D1AA68002A02D1E27BC02A03D038
:106F300098200159208E0EE0091A6869401E4143CD
:106F40000091A16F0098FAF7C7FC401C80B2208620
:106F5000AA6900995118814201D30D1A02E0091A59
:106F60000F480D18AE4200D92E462468002CCAD115
:106F70000C4800688047B04201D8301A06E0B042A1
:106F800007D58642F9D2311A0548081838603046CC
:106F9000F8BD00213960F8BDCC6500209067002065
:106FA0000000C0A87442002010B50179C906C90EBE
:106FB0000024017122462146435C002B02D0521C62
:106FC000D2B21C46022A08D2491CC9B20529F3D301
:106FD000002A04D0601E044201D0012010BD002010
:106FE00010BDF1B5002582B02C460420029A290E6E
:106FF000121824020C43FF32290201321579401E77
:107000000D4340B20028F1DA0298C17C203040796B
:107010000818C7B2252F01D3253FFFB202983A4680
:10702000C77401200021FAF7BEFC28402140084324
:1070300002D002988774FEBD0020064600903246BA
:1070400001200021FAF7AFFC28402140084303D07B
:107050000098401CC0B20090761C76B2252EEEDB64
:1070600038460099FAF738FC00273E460091324630
:1070700001200021FAF797FC28402140084307D05F
:107080000098874202D102988674FEBD7F1C7FB2B1
:10709000761C76B2252EEADBFEBD0021C174704756
:1070A00070B505462948002404602948B0220460D0
:1070B000214628480DF076FD2748284AC570D07D26
:1070C000117E000209044018917D254D4118214888
:1070D000C162917ED37E09021B04C918537EC91870
:1070E00081620821C18105821E4B43820175C382E2
:1070F0004175058343830146FF2360310B774C774D
:107100008C77CC7720310C704C708C70CC70203127
:107110008B72DF24CC720B734C731F238B73D17B68
:107120000184CA00703242848184C2841B2181831D
:10713000FF214931C1830C490163FBF7A3FCFFF731
:10714000E5FC01F039FD00F015FF70BD7C43002027
:107150002445002090670020CC6500209865002021
:10716000D70700008081000000F91500024901489E
:10717000C8647047E90101009067002070B50E48AF
:10718000846C03F0F5FB0D4DFF21E87801310DF023
:1071900087FF0121E87849020DF082FF03210020DA
:1071A00002F05EFF0020E0712071A0718122802139
:1071B00000F0FAFD70BD000090670020CC65002053
:1071C0000449098C0170002141700349097C8170D8
:1071D00000207047906700209865002070B5092155
:1071E0004172EC210958002933D014228A700246DA
:1071F000FF3224321346547E127E25021543CA1CE8
:107200001446CD7002462D0AFF320D712232557F91
:10721000167F2A0232434A71120A8A715A7F1B7FF3
:1072200012021A432271120A62710246FF3242327E
:10723000537814781A0222434A72120A8A7201465B
:107240002031CA7804231A43CA70B2214173002046
:1072500070BD012070BD70B509214172EC21095843
:1072600000292AD015228A700246FF3224321346A2
:10727000547E127E25021543CA1C14460246CD7068
:10728000FF322D0A22320D71557F167F2A023243BA
:107290004A71120A8A715A7F1B7F12021A432271A5
:1072A000120AFF30627142304278037810021843AC
:1072B0004872000A8872002070BD012070BD10B5B0
:1072C000FFF7F8FB002805D0C179012902D1417BE5
:1072D000462901D0022010BD0146062220310A7144
:1072E00047224273C87801221043C870002010BDA5
:1072F00070B50C46FFF7DEFB002802D0C1790129EA
:1073000001D0012070BD417B46292FD1A27BE17BBA
:1073100012028918627B237B12041B06D2188A187A
:1073200001468031CA62A37AE27A1B02D218637ADC
:10733000257A1B042D065B19D2180A63A379E2791A
:107340001B02D218637925791B042D065B19D2180C
:107350004A63A378E2781B02D218637824781B046E
:1073600024061B19D2188A6350214173002070BD76
:1073700070B50D46FFF79EFB040006D02946FFF7C7
:1073800049FA20342071002070BD122070BD000029
:10739000F8B5FFF7C5FB0090002863D0FFF78AFB24
:1073A000040061D01020A0710020E071B020207393
:1073B00001206073304826464069803630671521C9
:1073C00020200DF013FB2D4D00212F466037234662
:1073D000C033F0666878084348D068186030027F90
:1073E0006018C03002756018D422125CE030491C6D
:1073F000C9B202710829EDD30521B068C90108435B
:10740000B06000202918A0318A7A2118FF3101319B
:10741000401CC0B20A710528F4D3E01DFD30FFF70F
:10742000C3FD0021C94321872046FF212030417040
:1074300001708170E07E81210843E07620460C22B5
:10744000FF2162300DF0AEFB0D4944200153204670
:1074500009F092FC204609F0CFFB0020288120464D
:10746000FFF71BFE0098F8BD0120F8BD387F8006AD
:10747000800E1875B7E70000EC65002090670020CB
:10748000B80B000010B500F0BBFEFFF76FFE10BD9B
:1074900070B5044609F0D2FB284D618D2B7D08465E
:1074A000DA0702D02822504302E0254A5043C0099F
:1074B000224680325061DB0701D0002107E0204BDB
:1074C000204E4B437143C9091B09C900591AC9B25F
:1074D0002177042901D3401C5061218F762001536C
:1074E0002A7DD00701D00A2100E009212046FF3083
:1074F000A1864430437C057C18022843D20702D081
:107500001F30400902E0104A5043400C4900401827
:10751000E086204609F072FCE08D0005010C204653
:1075200009F09EFDA0880122802100F03DFC012190
:10753000064802F095FD0648C46570BD98650020B8
:107540007B140000D7A30000C7100000F92601003B
:107550009067002001214172EC21095800290BD0CD
:107560000A228A7001462031CA7804231A43CA705D
:107570007221417300207047012070470121417240
:10758000EC210958002905D00B228A70742141731F
:10759000002070470120704701214172EC210958F9
:1075A00000290AD012228A70A22141732030C178AA
:1075B00004221143C170002070470120704701214F
:1075C00041728030C06E002803D0132181700020EA
:1075D000704701207047000070B50C46014620043A
:1075E00012D508460DF022FB05000AD02878802825
:1075F00001D0812802D1284600F072F828460DF00B
:10760000EDFA0120C00363E03349E207886B803064
:10761000002A05D00068002800D08047012057E0EC
:10762000A20705D54068002800D0804702204FE01F
:10763000600703D5FEF734FF042049E02648A20680
:10764000006C05D5806C002800D0804720203FE0EA
:10765000E20605D5406C002800D08047102037E0B6
:107660001D48A205806C06D5006E002800D080471A
:10767000012040022CE0E20506D5C06D002800D0B4
:107680008047FF20013023E0134AE004157915D527
:1076900012484278D2070FD000224270406903237B
:1076A0004278521D1A43805CC00602D40889401CEF
:1076B0000881284600F0A2FA204670BDA00409D532
:1076C000CB798A794979284601F080F90120400375
:1076D000604070BD002070BD90670020EC65002008
:1076E000F0B5017800248DB0802902D081297DD0A9
:1076F000E0E1FF4E417835468035062977D006DC3B
:107700000B0002F049FE060D44F6F5F4F3F60729E6
:107710006ED081296DD082296CD08629E8D185E18F
:107720004088FFF7C7F9050070D0E87B400602D417
:1077300003200DB0F0BD2E46AC758036F06F0028EA
:1077400023D04368827A017AA8889B1CFEF766F8EA
:1077500000280DD1F06FFF2281891202114381812F
:10776000F06F0068F067A88F002801D0401EA8873E
:10777000F06F002809D0A8880022802100F014FBB7
:10778000002801D10120A8750BE2AC8709E24088EE
:10779000FFF790F90700C7D0F879012837D0B66C09
:1077A000002EC1D06879800773D53420805D02280F
:1077B00070D00622002107A80DF0F4F935464035B7
:1077C0002879022867D00622002109A80DF0EAF9DD
:1077D0000622A91D0BA80DF0EDF8F98DB88D7A8D54
:1077E000039204AB13C309AA07A904E04FE107E120
:1077F0002CE196E0A7E00BA86B4607C324206B7929
:10780000B988C05D0022FDF786FF85E00AE1B46B10
:10781000002C89D0687980073ED5254660352879C7
:10782000022812D00622002107A80DF0BBF9687DBE
:10783000022811D321460622763109A80DF0BAF8A4
:10784000216E06220BA8091D0FE02146062207A87B
:1078500066310DF0AFF8EAE70622002109A80DF025
:10786000A1F92146062276310BA80DF0A3F838467F
:107870002030798D8479FB8DBA8D03AE1EC609AB9D
:1078800007AA0BA96C460EC46B7DB988007901224A
:10789000B9E72FE011E017E038462030798D85797F
:1078A000FB8DBA8D01AE2EC6214676310091603433
:1078B000637DB988007901222CE0314606223631F9
:1078C00007A80DF077F879E731460622463109A876
:1078D0000DF070F8716D06220BA8091D0DF06AF805
:1078E000706D0221C0780843687176E775E05EE04C
:1078F0004CE0DFE0F88DB98D7A8D0390304646304C
:107900000192009004940291403624207379B98842
:10791000C05D0022FDF7C1FEF87B40210843F873EB
:107920003FE1B06C00287DD0C28A818AC38C02AD51
:10793000019316C50146463100914030002243793B
:10794000114602201FE0B06B0028ECD0697989074E
:107950000DD5059406940023039404940094019497
:10796000012219463C200294FDF7D5FE19E101469B
:107970006E31009101940294039460300494437B2F
:10798000012200213C20FDF788FE0AE14088FFF734
:1079900091F80028C7D001464031CA8A00928B8AEC
:1079A0004A8A818820300079FDF784FEF9E040881A
:1079B000FFF780F80028B6D0C1790129818807D067
:1079C0002422135C0246DC321846FDF7C8FEE8E0CC
:1079D0002422135C0246D432F6E74088FFF76AF8A7
:1079E00000281FD0C11DFC314A7E097E12020A43C5
:1079F00001468388FF3114311846FDF79CFED0E024
:107A00004088FFF757F804000CD020464030C18A68
:107A10000091838A028EC18DA088FDF7B0FEA07B05
:107A2000042100E07BE00843A073BAE04088FFF740
:107A300041F8002873D001464031CA8A00928B8AEF
:107A40000A8EC98D8088FDF7E3FEAAE04088FFF723
:107A500031F8002863D00146FF3144314B7C0A469F
:107A60000C7C1902214300910146FF3142314B7CCD
:107A70000C7C1B022343547D157D22022A434C7D3E
:107A80000D7D210229438088FDF736FE89E041788B
:107A90001A296BD008DC05290ED0082934D00C290E
:107AA00045D0132906D153E0302969D0572975D024
:107AB000FF2976D001203CE64088FEF7FBFF050059
:107AC0006AD0F4204659002E10D070680CF0E4FF04
:107AD000E88F3668401CE887002EF6D10204120CAD
:107AE00004D0A9880120FDF781FEEC874E2001E03B
:107AF00090670020425D2420A988405DFDF79BFD32
:107B00002846FEF73DFE4CE04088FEF7D3FF0028F4
:107B100042D04621095C002902D0012201E03BE06D
:107B20000022818820300079FDF789FD39E0408806
:107B3000FEF7C0FF00282FD0014640318A8900920D
:107B40004B894A7A818820300079FDF757FE28E07A
:107B50004088FEF7AFFF05001ED0EA8F002A20D034
:107B6000A9880120FDF742FEEC871AE04088FEF765
:107B7000A1FF002810D020300079FDF754FD10E05F
:107B80004088FEF797FF002806D0818820300079D2
:107B9000FDF759FD05E001E00220CAE54088FDF748
:107BA00039FD0020C5E570B505460024FF21012000
:107BB00002F021FE2855641CE4B2082CF6D3002004
:107BC00070BD0000064A0021531880331B7B0370F0
:107BD000491CC9B2401C0629F6D30020704700009A
:107BE0009067002010B50C46FEF764FF002803D014
:107BF000007D2070002010BD022010BD10B50028AF
:107C000003D00B2803D8401E06E025200CE00C28EA
:107C100004D0262804D8801EC0B205E0262003E048
:107C2000272801D0122010BD02F06CFE002010BDEC
:107C300002214172014680310A46C96E002907D0EF
:107C40000D238B702030D16E0079C87000207047F2
:107C50000120704703224272EC221258002A07D0FA
:107C600011239370D170203000791071002070477B
:107C70000120704710B50C46FEF71CFF00280FD0FE
:107C800024210C54817B4A070AD5FB2211408173C1
:107C9000803001228168920311438160002010BD71
:107CA000122010BDFFB581B016460F46FEF702FF49
:107CB00004463A49B81F88426ED2481D86426BD8A6
:107CC000BE4269D3FF220499F432914264D80A99E2
:107CD000814261D80498C900401C70434000814231
:107CE0005ADD002C58D0A07B410749D5FB21084024
:107CF0002546A0734035EF852E86E079002808D010
:107D00002046803001228168520311438160102097
:107D100035E0688C2249884204D0B74202D12882DB
:107D2000608D09E0E88B0090002807D001463046BE
:107D3000F9F7D2FD0099484368820AE0B819410872
:107D4000384602F03BFD688221465231304609F048
:107D50001DFA1448006E411C042901D9042000E0DA
:107D6000401CE873204609F0BBF9208F04220A303A
:107D70002883204680308168114381601120A076DD
:107D800040340B9860860C98A0860498A0820A98CC
:107D9000E082002005B0F0BD1220FBE77B0C000064
:107DA000FFFF00009067002070B5064614460D46A0
:107DB00004200CF0FFFE010007D00D704C70044849
:107DC0004E80C0780CF06AFF70BD042070BD0000CA
:107DD000CC650020F0B5002787B0054638480097ED
:107DE0000197029703973E46846F0CE0E078E978AC
:107DF000884206D11022291D201D0CF0CDFD01283E
:107E000042D02646E46B002CF0D11A2140200CF021
:107E1000EDFD040038D0E878E0700622291D201D11
:107E20000CF0C8FD20461A30294610221A31059060
:107E300004900CF07BFF1022694604980CF0ACFD16
:107E4000002823D0A772294620462A3010222A3142
:107E500005460CF06BFF1022694628460CF09CFD8D
:107E600000281FD0A774164D2046296B0AF07AFD12
:107E7000002E23D0F4631249E7634031888E401C02
:107E800080B2888607B0F0BD0020FBE70120A07219
:107E9000E07802210843E07221460C310598FEF794
:107EA0002FFAD0E70120A074E07802210843E074A3
:107EB000214614312846FEF723FAD4E7AC67DAE707
:107EC00090670020F7B50E4815466E46846F0CE0AB
:107ED00068464078E178884206D10622211DB01C10
:107EE0000CF05AFD012804D0E46B002CF0D10020E6
:107EF000FEBD204629461A300AF0E6FCFEBD000011
:107F000090670020F7B50E4815466E46846F0CE06A
:107F100068464078E178884206D10622211DB01CCF
:107F20000CF03AFD012804D0E46B002CF0D10020C5
:107F3000FEBD204629462A300AF0C6FCFEBD0000E0
:107F40009067002070B50A4DFF26AC6F07E02078DF
:107F50000DF082F826702046E46B0CF09DFD002C9D
:107F6000F5D100200249A8674031888670BD000025
:107F70009067002010B50449002088864039886742
:107F8000FEF700FA10BD0000D067002070B505466E
:107F90000848846F07E02046A91C1A300AF094FCB8
:107FA000012804D0E46B002CF5D1002070BD2046E0
:107FB00070BD00009067002070B505460B48846FC7
:107FC0000DE06878E178C007C00F884206D106222C
:107FD000211DA81C0CF0E0FC012804D0E46B002C4F
:107FE000EFD1002070BD204670BD000090670020DA
:107FF00070B505460848846F07E02046A91C2A3062
:108000000AF062FC012804D0E46B002CF5D10020BA
:1080100070BD204670BD000090670020F8B5044692
:108020008030016FC81C0A798446CB78100218434F
:108030002E4B821F9A4225D28B794D791B0219262D
:108040004A1C2B43F601B3421CD883421AD365461F
:108050006F792D793F022F43FF25F435BE46AF429D
:1080600010D8557A177A2D023D43B5420AD8764684
:10807000761C4643EF00BE4204DACE7A002E03D0CF
:108080009E4201D91E20F8BD668D0027864208D188
:108090009E4206D1A38D734503D1E38DAB4200D13F
:1080A000012723464033D8855079157900022843AB
:1080B0001886604645790679280230439882507ABE
:1080C000127A00021043D882C87AD883487B0A7B90
:1080D00000021043188420460C2262300E310CF04E
:1080E00069FC0420A0763846F8BD00007B0C000037
:1080F000F8B5F02109580A79CD7813022B43274DA2
:10810000CC1C9A1FAA4226D28D794E792D02354376
:1081100019264A1CF601B5421DD89D421BD367792A
:1081200026793F023743FF26F436BC46B74212D8C1
:10813000567A177A36023E431927FF01BE420AD803
:1081400067467F1C5F43F600B74204DCCE7A002E00
:1081500003D0AE4201D91E20F8BD05464035EB855F
:10816000537916791B0233432B86637924791B02DA
:108170002343AB82537A147A1A022243EA82CA7AE0
:10818000EA834A7B0B7B12021A432A840C22623058
:108190000E310CF00FFC0020F8BD00007B0C00003D
:1081A00070B5F0210B58DA1C197914460A02DD78F3
:1081B0000146FF312A434131CA805A1C9B79157907
:1081C0001B022B430B81637924791B0223434B81D0
:1081D000537A147A1A0222438A8108F09EFB70BDFA
:1081E000F02109584030CA7842724A790B7912025C
:1081F0001A434281CA798B791102194381817047F0
:1082000010B50648C078002804D1054801F012FFD7
:10821000FEF746FF04490348486410BDCC650020C2
:10822000D9750000690401009067002070B50F48FF
:10823000046C02F09DFB0025A5710421284601F085
:108240000FFF0B4928208877E5712571E0690CF054
:1082500023FC2583E5612562064C1021E0780CF0B3
:108260001FFFE07820210CF01BFF70BD90670020FD
:1082700098650020CC65002000214172017A01221E
:1082800089088900114301728030C06E002801D036
:108290000020704701207047FFB583B015460F4698
:1082A000FEF708FC04003AD02046FF30423001902F
:1082B000417D007D0E020643AE4259D2681E301841
:1082C0003146F9F71FFB87B23E48761D0640384617
:1082D000704380B20B210CF089FB009000286FD016
:1082E0003848A838FEF7F6FB002836D0017B81819C
:1082F0008034616F002915D0A16F0860A067A16F5D
:1083000000200860A06F4581A16F01204872802085
:10831000A16F00250872A16F0098486017E0022045
:1083200007B0F0BD6067E9E7A06F069B4168304683
:10833000684308180199801C4A7D097D12020A438E
:1083400011466943C9180CF035FB6D1CEDB2BD42F6
:10835000EAD306980CF0A0FB27E01B48026B002A2A
:1083600002D01A490220904700980CF095FB27E0B4
:108370001448A838FEF7AEFB00281AD0017B818193
:108380008034616F002912D0A16F0860A067A16FCF
:1083900000200860A06F4581A16F01204872A06F86
:1083A00007720698A16F801E48600020B8E76067DA
:1083B000ECE70548026B002A02D0044902209047EE
:1083C0000720ADE7FCFF000098650020AA550000DB
:1083D00030B5C37D0146027A8031002B09D04B6F46
:1083E0005B681A704B6F427A5B685A70496F4968D4
:1083F00005E0CB6E1A70CB6E427A5A70C96E1A4C79
:10840000437A226941339B090D6815604D685560B8
:108410008D689560CD68D5600D6915614D695561B0
:108420008D699561CD69D5610D6A15624D6A556298
:108430008D6A9562CD6AD5620D6B15634D6B556380
:108440008D6B9563CD6BD563403140325B1E1B064F
:108450001B0ED9D1407A0549401D80082269897CCC
:108460008000115030BD0000EC65002098650020B0
:10847000114A916B002902D0097B00290BD1116CA4
:10848000002902D0C979002905D1916C002904D0B6
:10849000C979002901D0122070475070064A8032F5
:1084A0005179002802D00620014301E0F920014063
:1084B00051710020704700009067002070B5384966
:1084C000C96B00296AD0364A0028946B02D0012873
:1084D00009D063E0002C61D0207B00285ED0FDF73E
:1084E000E9FF002070BD01260025F602002C10D106
:1084F0008847040018D026826682A5760720E07699
:10850000652005552649204606228C3166300CF040
:1085100051FA207B012841D0A07E010706D0000738
:10852000000F012802D009E0032070BD08F078FB9D
:108530001C49097F8907890F88422FD0A07E010737
:10854000090FA17101280AD0208A628A8018400888
:1085500001229203A08290420BD9A28214E006204D
:10856000A0821148E582C078324604210CF03AFD21
:108570000FE0022904D0062902D020280CD302E003
:10858000A02800D2A020A0821021002002F016F91D
:10859000E082E06F804770BD2020F4E7122070BDBC
:1085A0009067002098650020CC650020FFB5294920
:1085B00081B0C86B0B9D1E461746002803D08C6BFC
:1085C000002C03D005E0122005B0F0BD8047040068
:1085D00015D0019820820298012100226082012F8B
:1085E0000FD0022F0FD0032F0FD0042F0FD0A27661
:1085F0002046603046712B78002B1AD10AE0032008
:10860000E2E7A176F4E7062002E0022000E0112074
:10861000A076EDE76B78002B0BD1AB78002B08D15F
:10862000EB78002B05D12B79002B02D16B79002B35
:1086300009D001730A9941732046062229466E30FB
:108640000CF0B8F900E002730C98E0760D98E07237
:108650000020B9E79067002070B515460C46FEF77C
:1086600029FA002827D0154A138CA34205D30146C6
:10867000FF3124310C77230A04E00146FF31243115
:108680000B771B0A4B77518CA94206D30146FF3169
:1086900042310D702A0A4A7005E00246FF3242322A
:1086A0001170090A51708030012281681203114350
:1086B0008160002070BD122070BD00009067002016
:1086C00010B5040024D01C498A6B002A02D0107B0C
:1086D00000280BD1086C002802D0C079002805D1F1
:1086E000886C002804D0C079002801D00C2010BD6F
:1086F0000120887010480622214692300CF05AF969
:1087000062799309032B05D0900908D0012B0BD077
:10871000122010BD084806222146983008E006487D
:10872000062221469E3003E0034806222146A4305B
:108730000CF040F9002010BD9067002070B51921A1
:10874000084D890148432863AC6F06E02078FF2874
:1087500002D0296B0CF0C0FCE46B002CF6D1002099
:1087600070BD00009067002010B50C461E494B6C90
:10877000002B05D00A6C002804D0012807D00EE099
:108780000C2010BD002A0AD0FFF750FD29E0002A76
:1087900007D01046C179012901D000290ED012203E
:1087A00010BD9847002807D00021C17210224282D4
:1087B000828225221154EDE7032010BD428A012157
:1087C00089038A4200D94182828A418A8A4200D939
:1087D0008182818A55225143090AC1828473006CC7
:1087E0008047002010BD000090670020F8B50746C4
:1087F0000F480C46416C1E461546002905D0006CFA
:10880000002804D0C179002904D00C20F8BD884785
:1088100000280BD0C7724482A54200D22C46848225
:1088200025210E54069901730020F8BD0320F8BDE0
:108830009067002001214172EC210958002905D0E0
:1088400006228A705421417300207047012070472E
:10885000F8B51C4616460F46FEF72CF9050002D067
:10886000E879002801D00220F8BD2846FF30082210
:10887000394614300CF09EF8E81DFC300676310ABB
:108880004176A17BE07B09024118607B227B0004DA
:10889000120680182E4608188036F062A17AE07A17
:1088A00009024018617A227A0904120689184018D0
:1088B0003063A179E07909024018617922790904CD
:1088C0001206891840187063A178E07809024018F0
:1088D000617822780904120689184018B063284686
:1088E00040308179002904D00121C1712021B06874
:1088F00051E00CF0FFF902460020C3001146D940B8
:108900002B18FF330133401C59770428F5D30CF0A2
:10891000F1F902460020C3001146D9402B18FF335D
:108920002133401C59700428F5D32C46E81DFF3430
:10893000F9302134C27F217812028918827F407F6A
:108940001204000610180818B062E17820790902B4
:108950004018A178627809041206891840187062DC
:108960000CF0C8F902460020C3001146D9402B186C
:10897000FF332133401C59710428F5D3A179607964
:1089800009024018E179227A090412068918401870
:10899000F063B06840210843B0600020F8BD0222B7
:1089A0004272EC21095800290DD08A704E22125CC7
:1089B000CA7001462031CA7808231A43CA7032218E
:1089C000417300207047072070470000FFB5050085
:1089D0003A4881B00469164603D00B2D03D86D1EAA
:1089E00006E025250AE00C2D04D0262D04D8AD1E66
:1089F000EDB203E0262501E0272D0FD1002E10D087
:108A0000012E19D0022E1AD0032E1BD0042E24D0F2
:108A1000052E25D0062E26D0072E27D0122005B0F1
:108A2000F0BD002704E0FAF727FAE11988707F1CEF
:108A300002988742F7DB1EE0F021029A18E0AA2193
:108A4000029A15E0002704E0FAF7F4F9E1198870BA
:108A50007F1C02988742F7DB0DE0FF21029A07E0B6
:108A60000021029A04E00F21029A01E0029A5521A6
:108A7000A01C0CF097F83007000F2070029860706F
:108A8000049881060298890E401D800880002154B8
:108A90000498029A000601D5012100E00021284631
:108AA00002F0ECF8054800E000BFC1780029FBD0D7
:108AB00003490889401C08810020B0E7EC650020CC
:108AC0009067002002214172014680310A46C96E3A
:108AD000002906D007238B70D16E407DC87000201E
:108AE000704701207047000006214172EC210958AF
:108AF000002912D00C220A4B8A709A7BCA701A8AFB
:108B00000A71120A4A715A8A8A71120ACA71C17E9E
:108B10004906490EC17600207047072070470000C3
:108B200090670020F8B51A4F054600263C6F0CE010
:108B300060786978884206D10622A91CA01C0BF037
:108B40002BFF01281ED02646A468002CF0D1192145
:108B50000C200BF04BFF040015D0687860700622E3
:108B6000A91CA01C0BF026FF386F00280DD0002E8A
:108B700000D0B4600020A06005484030818D491CC1
:108B800081850120F8BD0020F8BD3C67F2E70000B8
:108B90009067002070B5074D2C6F03E02046A46855
:108BA0000BF07AFF002CF9D10020024928674031F0
:108BB000888570BD90670020024900200867403119
:108BC000888570479067002073B50A486D46046F2A
:108BD0000CE0694660784978884206D10622A91CD3
:108BE000A01C0BF0D9FE012803D0A468002CF0D102
:108BF00000207CBD9067002070B5314809210068D5
:108C0000C9018162826C0721090703238A435B073C
:108C1000D2188264836C0F221203032493436403EB
:108C20001B198364836CCC0023438364C36C0C15D1
:108C3000A343C364436D802423434365C36B9343C1
:108C400022029A18C263C36B0A119343A4041B192E
:108C5000C363C36BDC000123E4089B07E418C4630F
:108C6000C46D0C43C465C56D0C122543C565C56D47
:108C70000E133543C565C56D9543C565C56AA543E6
:108C80005C122C19C462C46A944305221206A2180D
:108C9000C262C26A032424032243C262C26A24015C
:108CA0002243C262026B120912010263026BF024BA
:108CB000A2430263026B8A43D118016370BD0000B6
:108CC00078430020FFB53B480068826D012109040C
:108CD0008A43826582680A438260002501468031AA
:108CE0002B468C466E46C168FF240134A143C16007
:108CF0004168220211434160C1682143C16061465D
:108D0000C968C905FBD500BF00BF00BF00BF6146F1
:108D1000C9680C074168240F914341600F2C01D0B2
:108D20006D1CEDB2002110E0725CA2420BD91A4614
:108D300005E0B718203FFF7FB754521ED2B28A42D7
:108D4000F7D1745403E0491CC9B29942ECD399425B
:108D500000D17454032D05D05B1CDBB2102BC2D3A1
:108D6000002D1ED03178082902D93246C91E0DE0E7
:108D7000042902D93246891E08E0012902D9324667
:108D8000491E03E0002902D1032132461170816D92
:108D90000F22D201914332781207520D114381659F
:108DA000FFBD826D0F21C9018A430521C9015118F8
:108DB000F5E700007843002010B51A480068016DFF
:108DC00001231B049943016581685C012143816093
:108DD000C26810210A43C260C2688A43C26000BFF1
:108DE00000BF00BFC2680A43C2604168012212038B
:108DF0001143416001468031CA69D205FCD500BFEC
:108E000000BF00BFC969026DC906C90E1A430265D9
:108E1000026D520952010A4302658168A1438160D3
:108E200010BD000078430020F0B5FF4887B005680A
:108E30006868FF21013188436860A86A0901884396
:108E4000A862E86A10218843E862A8684A031043D0
:108E5000A860686808436860686840084000686007
:108E6000A86BF24A0321104089034018A863686880
:108E70000123184368602C46803420694001C10FEB
:108E800020698001C00F0029F7D00028F5D02069A3
:108E900086066069B60EC003400E019068684008FF
:108EA00040006860A86BE721104009024018A863E1
:108EB00068681843686020694001C10F206980011B
:108EC000C00F0029F7D00028F5D020698006800E59
:108ED00004906069C003400E069068684008400036
:108EE0006860A86BD321104009024018A863686825
:108EF0001843686020694001C10F20698001C00FDC
:108F00000029F7D00028F5D020698006800E039054
:108F100060692721C003400E02900398301A06466C
:108F20004843F8F7EFFC0007216A000F090909011F
:108F300008432062262070432721F8F7E3FC00074E
:108F4000226A000EF0218A431043206225207043DC
:108F50002721F8F7D7FC0007226A000D0F2109022C
:108F60008A4310432062242070432721F8F7CAFC6B
:108F70000007226A000C0F2109038A431043206274
:108F8000232070432721F8F7BDFC0007226A000B5D
:108F90000F2109048A4310432062222070432721B5
:108FA000F8F7B0FC0007226A000A0F2109058A437E
:108FB00010432062700130182721F8F7A3FC000746
:108FC000216A00090F273F06B94308432062700158
:108FD0002721F8F797FC216A0007090109090843CE
:108FE00020627001801B2721F8F78CFC0007616A62
:108FF000000F09090901084360621E207043272100
:10900000F8F780FC0007616A000EF02291430843E4
:1090100060621D2070432721F8F774FC0007616A25
:10902000000D3A149143084360621C2070432721CD
:10903000F8F768FC0007616A000C3A139143084393
:1090400060621B2070432721F8F75CFC0007616A0F
:10905000000B3A1291430843606230461A2148439C
:109060002721F8F74FFC0007616A000A3A11914383
:10907000084360623046192148432721F8F742FC33
:109080000007616A0009B94308436062304618214D
:1090900048432721F8F736FC616A000709010909EE
:1090A000084360623046172148432721F8F72AFC1D
:1090B0000007A16A000F090909010843A0621620F0
:1090C00070432721F8F71EFC0007A16A000EF0226A
:1090D00091430843A062152070432721F8F712FC42
:1090E0000007A16A000D3A1491430843A0621420BE
:1090F00070432721F8F706FC0007A16A000C3A1319
:1091000091430843A062132070432721F8F7FAFB2C
:109110000007A16A000B3A1291430843A062122093
:1091200070432721F8F7EEFB0007A16A000A3A1105
:1091300091430843A062300130182721F8F7E2FB81
:109140000007A16A0009B9430843A0623001272142
:10915000F8F7D8FBA16A0007090109090843A062D2
:109160003001801B2721F8F7CDFB0007E16A000FD3
:10917000090909010843E06230460E2148432721CE
:10918000F8F7C0FB0007E26A000EF0218A431043A3
:10919000E06230460D2148432721F8F7B3FB000772
:1091A000E26A000D39148A431043E06230460C2114
:1091B00048432721F8F7A6FB0007E26A000C3913A1
:1091C0008A431043E06230460B2148432721F8F7D9
:1091D00099FB0007E26A000B39128A431043E062F0
:1091E00030460A2148432721F8F78CFB0007E26A42
:1091F000000A39118A431043E062F0003018272139
:10920000F8F780FB0007E16A00093A4691430843FA
:10921000E062F0002721F8F775FBE16A0007090119
:1092200009090843E06203E078430020FF00FEFFE5
:10923000F000801B2721F8F765FB0007216B000F6A
:1092400009090901084320633046062148432721C4
:10925000F8F758FB0007010E206BF0229043014302
:109260002163B00030182721F8F74CFB0007226B70
:10927000000D39148A4310432063B0002721F8F70A
:1092800041FB0007226B000C39138A431043206313
:10929000700030182721F8F735FB0007010B206B11
:1092A0003A1290430143216370002721F8F72AFB0B
:1092B0000007226B010A38118243114321633046B3
:1092C0002721F8F71FFB0007226B000939468A4364
:1092D00010432063206B0001000920630499039868
:1092E000471A28213846F8F70DFB0007616B000F7D
:1092F000090909010843606378002821F8F702FB97
:109300000007616B000EF022914308436063780010
:1093100038182821F8F7F6FA0007616B000D0F22C4
:109320001202914308436063B8002821F8F7EAFA73
:109330000007616B000C0F22120391430843606326
:10934000B80038182821F8F7DDFA0007616B000B28
:109350000F221204914308436063062078432821BA
:10936000F8F7D0FA0007616B000A0F22120591434B
:1093700008436063F800C01B2821F8F7C3FA000710
:10938000626B00090F2109068A4310436063F800ED
:109390002821F8F7B7FA616B0007090109090843AA
:1093A0006063F80038182821F8F7ACFA0007A16BC1
:1093B000000F090909010843A06338460A21484300
:1093C0002821F8F79FFA0007A26B000EF0218A43CC
:1093D0001043A06338460B2148432821F8F792FA3E
:1093E0000007A26B010D0F20000282431143A1630D
:1093F00038460C2148432821F8F784FA0007A26B6D
:10940000010C0F20000382431143A16338460D2154
:1094100048432821F8F776FA0007A26B000B0F21CA
:1094200009048A431043A06338460E21484328218B
:10943000F8F768FA0007A26B010A0F2000058243C3
:109440001143A1633801C01B2821F8F75BFA00071C
:10945000A26B00090F2109068A431043A06338015B
:109460002821F8F74FFAA16B000709010909084301
:10947000A063380138182821F8F744FA0007E16B97
:10948000000F090909010843E063384612214843E7
:109490002821F8F737FA0007E26B000EF0218A4323
:1094A0001043E0633846132148432821F8F72AFA8D
:1094B0000007E26B000D0F2109028A431043E063AD
:1094C0003846142148432821F8F71CFA0007E26BBC
:1094D000010C0F20000382431143E163384615213C
:1094E00048432821F8F70EFA0007E26B010B0F2022
:1094F000000482431143E163384616214843282182
:10950000F8F700FA0007E26B000A0F2109058A4309
:109510001043E0633846172148432821F8F7F2F951
:109520000007E26B00090F2109068A431043E0633C
:109530003846182148432821F8F7E4F9E16B000781
:10954000090109090843E0633846192148432821E5
:10955000F8F7D8F90007216C000F09090901084341
:10956000206438461A2148432821F8F7CBF9000730
:10957000226C000EF0218A431043206438461B21E0
:1095800048432821F8F7BEF90007226C000D0F218F
:1095900009028A431043206438461C21484328218D
:1095A000F8F7B0F90007226C000C0F2109038A4379
:1095B0001043206438461D2148432821F8F7A2F9BA
:1095C0000007226C000B0F2109048A43104320641A
:1095D00038461E2148432821F8F794F90007226CE9
:1095E000000A0F2109058A43104320647801C01B3B
:1095F0002821F8F787F90007226C00090F210906D6
:109600008A431043206478012821F8F77BF9216C04
:109610000007090109090843206478013818282146
:10962000F8F770F90007616C000F09090901084398
:1096300060643846222148432821F8F763F900077F
:10964000010E606CF022904301436164384623218F
:1096500048432821F8F756F90007626C010D0F20E6
:109660000002824311436164384624214843282183
:10967000F8F748F90007626C000C0F2109038A43D0
:10968000104360643846252148432821F8F73AF909
:109690000007626C000B0F2109048A4310436064C9
:1096A0003846262148432821F8F72CF90007626C38
:1096B000010A0F20000582431143616438462721C7
:1096C00048432821F8F71EF90007626C00090F21B2
:1096D00009068A4310436064384628214843F8F756
:1096E00011F9616C000709010909084360643846F3
:1096F000292148432821F8F705F90007A16C000F3C
:10970000090909010843A06438462A214843282151
:10971000F8F7F8F80007A26C000EF0218A43104316
:10972000A064069A02983946801A0A220090504393
:10973000F8F7E8F8082108430007A16C000D0F2294
:10974000120291430143A16400983946C200801877
:10975000F8F7D8F8082108430007A16C000C0F2285
:10976000120391430143A16400983946C000F8F701
:10977000C9F8082108430007A16C000B0F2212044E
:1097800091430143A16400983946C200101AF8F7CA
:10979000B9F8082108430007A16C000A0F2212053E
:1097A00091430143A1640098062239465043F8F7DB
:1097B000A9F8082108430007A16C00090F2212062E
:1097C00091430143A1640098394682008018F8F75C
:1097D00099F808210843A16C000709010909014310
:1097E000A164009839468000F8F78CF808210843F6
:1097F0000007E16C000F090909010143E1640098C9
:10980000394642008018F8F77DF808210843000720
:10981000E16C000EF02291430143E1640098394667
:109820004000F8F76FF8082108430007E16C000DCD
:109830000F22120291430143E16439460098F8F780
:1098400061F8082108430007E16C000C0F221203A5
:1098500091430143E16431460020F8F753F80007D3
:10986000E16C000B0F22120491430143E164029A60
:1098700001983146871A3846F8F744F80007E16C3A
:10988000000A0F22120591430143E164314678003A
:10989000F8F738F80007E16C00090F22120691432F
:1098A0000143E164780031463818F8F72BF8E16C91
:1098B0000007090109090143E1643146B800F8F7DE
:1098C00021F80007216D000F0909090101432165F5
:1098D000B80031463818F8F715F80007216D000E6A
:1098E000F022914301432165062031467843F8F781
:1098F00009F80007216D000D0F2212029143014368
:109900002165F8003146C01BF7F7FCFF0007216D09
:10991000000C0F2212039143014321653146F800E8
:10992000F7F7F0FF0007216D000B0F22120491439F
:1099300001432165F80031463818F7F7E3FF0007C7
:10994000216D000A0F2212059143014321650A206F
:1099500031467843F7F7D6FF0007216D00090F2243
:1099600012069143014321656968102081436960B3
:109970006968490849006960A96A02021143A9623D
:10998000E96A0143E962A86B8109039889010143EF
:10999000A963A86B7F210906884302990906084339
:1099A000A86307B0F0BD0000034800684168FF22CB
:1099B00001321143416070477843002008B50448E4
:1099C000816B0091816B009A9142F9D1104608BDDC
:1099D0000010004038B51648816B0091816B009AE9
:1099E0009142F9D1134C1046217DC90705D0124987
:1099F00000F0BAFC8A04810B04E0192100F0B4FCE9
:109A0000CA05410A11430D4A906988420DD0884227
:109A100001D2081A07E0237DDB0701D0084B00E0E4
:109A2000084B181A4018916138BD002038BD00005D
:109A3000001000409865002033030000CC65002032
:109A400000796F0800603D08002908D0002A02D183
:109A500005E008C808C2491EFBD200207047FD205F
:109A6000704738B50D46040019D0002D17D00321DA
:109A7000684609F093FB6946887840218006800E8D
:109A80000843694688702A4620460AF0AEF9040069
:109A900006D103226946E81C0AF08CFF00E002248C
:109AA000204638BDF7B58CB00C9815460F460028F7
:109AB00031D0002D2FD0381D0A9080B253210AF0EA
:109AC00095FF04003BD002F0ADF806463A46201D53
:109AD0000C990BF02BF9F0B20990E0703004000EF5
:109AE0000890A0703002000E07906070370E27704B
:109AF00002F092F80146102201A80BF017F9082095
:109B000000900A9805AB82B2214601A80AF0DAF863
:109B1000060002D00FE0022612E00998287008988B
:109B200068700798A870EF70082205A9281D0BF02F
:109B3000FDF802F07DF820460AF0AEFF00E01326A3
:109B400030460FB0F0BD000010B5024600F01EF820
:109B50000448062182701046FCF7C4FA024806F059
:109B6000F1FA10BD8643002049330100054806493B
:109B7000C078000702D508460C3000E0002048609D
:109B80000020704786430020004500200A4900203D
:109B9000086048608860084808490C30016008493E
:109BA00041600849816008490C3001600749416003
:109BB000074981607047000000450020EB4101002B
:109BC000E9310100419D0000834601008538010014
:109BD0000537010070B506460D46084606F07CF9CB
:109BE00000280ED0446B002C06D0E078022805D067
:109BF000032803D0042801D0122070BDA088A842F9
:109C000001D0022070BD10223146E01D0AF0D2FEC4
:109C100020462C301021054609F0C0FA23461C339B
:109C20002A46E11D20460AF00DF92078022100287D
:109C3000607803D0032807D1617009E0042802D0BE
:109C4000032803D000E06170002070BD0520607023
:109C5000204609F077FA70BDF8B50D46080417D50F
:109C60001B4EB0780AF0E2FF040009D009F006FDAF
:109C7000002809D17078FF2806D021460BF00EF895
:109C80000120C0036840F8BD20460AF0A7FFF7E7AF
:109C9000E8070127002804D009F066FB2846784031
:109CA000F8BD002D12D001240CE03846A04086B249
:109CB000354205D0304609F0F7FF28467040F8BD20
:109CC000641CE4B206F020FAA042EED80020F8BDF1
:109CD000864300207CB50D46040015D0002D13D01E
:109CE0000322E91C68460AF065FE6946887840212F
:109CF0008006800E08436946887001AA20460AF053
:109D000074F8040002D009E0022407E00322294687
:109D100001A80AF041FE012800D0012420467CBDA4
:109D200005480649C078400702D50846183000E0CB
:109D300000208860002070478643002000450020F6
:109D4000FFB50F4683B01E461446532110200AF07B
:109D50004DFE050029D0002F22D069460C72200A42
:109D600048721022002128460AF01CFF3946284676
:109D70000C9A0AF01FFE002E05D0082231466846D4
:109D80000AF018FE04E00822002168460AF00AFFE3
:109D90002B4602AA69460398FBF71CFD044600E027
:109DA000022428460AF078FE00E01324204607B07B
:109DB000F0BDFFB581B01F46039806F08DF8060090
:109DC00005D0706B0025002804D011253AE0022050
:109DD00005B0F0BD1320FAF771FAC4B21420FAF7F7
:109DE0006DFAC1B2002F2CD0387EA04229D3884210
:109DF00027D8532170200AF0F9FD04467063200033
:109E00001DD0702200210AF0CDFE00206070019963
:109E100021700299A1700399A180E765A061E070AB
:109E20000198002803D0204609F09EF9054601203C
:109E30006070002D06D0304609F05CF902E0132571
:109E400000E002252846C3E7FFB587B00998109DBA
:109E50000E4600281FD0002D1DD0079806F03CF8B4
:109E600004001BD0532110200AF0C0FD01900028EF
:109E70005FD06978287809024018A978EA7809043F
:109E80001206891841180691A06A884208D3401C1E
:109E900006D0022449E002200BB0F0BD1420FBE7FD
:109EA000002E02D0207980073ED50822002102A88A
:109EB0000AF078FE0A9F53213F1DB8B20AF096FDC2
:109EC00006002FD0301D0A9A09990AF02FFF0422AC
:109ED000294630460AF02AFF2146102218310198FF
:109EE0000AF024FF08200090BAB202AB3146019874
:109EF00009F0E8FE04000CD1082202A904A80AF027
:109F000015FF0822291D04A80AF046FD012804D0E7
:109F1000012430460AF0C0FD07E00699079802F0D8
:109F200067FEF6E7132400E0012401980AF0B4FD6F
:109F300000E013242046AFE770B50C46014620042C
:109F40000AD508460AF072FE002801D00AF046FE43
:109F50000120C003604070BD6004FCD00026324682
:109F60002046D040C00713D0002901D00F2000E0C8
:109F700000200B4980184968C00045180120904016
:109F800086B229686868884700202860686003E016
:109F9000521CD2B20F2AE3D32046704070BD00009D
:109FA0005842002070B50AF0CDFD1C2200211E4849
:109FB0000AF0F8FD1C482022002150300AF0F2FD82
:109FC0001A4D0020286168611748174C1C30007F2B
:109FD00050348107890F80080818410040180D305F
:109FE000C0B2A07006214843FF210231F0300AF0D0
:109FF000FDFC6860F030A860A17889000818E8606E
:10A000000AF00EFE0AF0D2FE6078094A8100A868C4
:10A0100042506178491CC9B2617089004250607831
:10A02000401C607070BD00007C650020584200201C
:10A03000399F000010B50849024648788B7898424D
:10A0400007D2064C8300A468E2504A78521C4A703A
:10A0500010BDFF2010BD0000CC650020584200203C
:10A06000072902D2014A8900505070477C650020C0
:10A07000FEB5864D02E0804700F0E0FE286800282B
:10A08000F9D10124A0002858002807D080477F4834
:10A090001C30407D002801D0F8F770FD28680028AA
:10A0A00075D1641CE4B2072CECD3784C784E503454
:10A0B0006278F06821784B00C35A002B04D1491C08
:10A0C000C9B221709142F5D3C9B2914211D24A006E
:10A0D000815A002383522078B36882009A589047AF
:10A0E0002178F2684900535A034353522078401CA8
:10A0F000207020786178884201D300202070634866
:10A100000068002843D17069002840D080470028AB
:10A110003DD061690546091861610021C9435C4869
:10A1200021610669002E29D00027B068A84201D815
:10A13000002000E0401BB06054481C30406A0028FA
:10A1400004D02169B068814200D92061B06800283C
:10A150000DD1718800291BD030780AF0F1FD7068AC
:10A16000002801D0B06002E0B068002810D07088EC
:10A1700000280DD03746F668002ED6D1434D1C3549
:10A18000686A002803D00020414A617814E07CE02E
:10A19000002F06D0F068F8603046F6680AF07CFCC4
:10A1A000EAE73B48F1680161F6E7D6684300F35AF5
:10A1B000002B6AD1401CC0B28142F6D8334903203B
:10A1C00082008A58002A60D1401CC0B20728F7D309
:10A1D00001A8FCF789FE02462E49401C24D0EB7CE6
:10A1E000019EB34251D22069471C16D02A7DD20766
:10A1F00002D01422504302E02922504340088342F7
:10A2000043D2864200D23046C61A2348826B00925F
:10A21000826B009B9A42F9D11DE09A4201D3D01A79
:10A220001FE0D01A40181CE02069421C2DD02A7D66
:10A23000D20702D01422504302E0292250434008A2
:10A24000EA7C824221D2861A1348826B0092826B8A
:10A25000009B9A42F9D19819884202D30D4A524282
:10A260008018002802D0696A884702E06A6A0846B6
:10A2700090470006000E08D12089002805D0F8F785
:10A280001DFEFBF79BFFF8F781FBFEBD7C65002000
:10A29000584200200000C0A80010004010B504463D
:10A2A0000848C16A002900D088470748002C01D01F
:10A2B000046001E005490160054800F00BF800204A
:10A2C00010BD00009865002074420020BD99000078
:10A2D000D599000010B5034948618047024988615B
:10A2E00010BD000058420020CC650020F0B5144E8F
:10A2F000FD23757A84247472124CA768002F07D04E
:10A30000A77B002F04D0A489E71FFF3FFA3F02D0AC
:10A310007572FF20F0BD7D24E402A0420AD34027DD
:10A32000491E07D3706008CA33609A233372B37A28
:10A330007B4002D075721846F0BD001DF0E70000AA
:10A3400000180040986500200FB410B503A9044B15
:10A35000044A029800F03CF810BC08BC04B018474E
:10A360004914000028450020F8B5040C8BB226469D
:10A3700082B25E430D0C1046370C584336048019E8
:10A380000021794116466E43370C36048019794115
:10A3900026466E438919F8BD30B47446641E25788C
:10A3A000641CAB4200D21D46635D5B00E31830BC09
:10A3B000184702E008C8121F08C1002AFAD17047E6
:10A3C0007047002001E001C1121F002AFBD1704735
:10A3D000FFB58FB00F460446002606E025280AD0B8
:10A3E000129A11999047641C761C20780028F5D1A8
:10A3F000304613B0F0BD00250121A14A009500E0D0
:10A400000543641C23780846203B98401042F7D14E
:10A4100020782E2815D1042005436078641C2A2852
:10A420000AD101CF641C00900BE000990A2251432D
:10A4300030394018641C00902078014630390929D1
:10A44000F3D920786C280ED004DC4C2813D06A286D
:10A4500012D104E074280ED07A280DD10BE001202F
:10A460004005054307E00121090562780D4382425A
:10A4700001D16D18641C641C2078864669284AD076
:10A4800008DC0028B4D058286DD0632810D0642888
:10A4900008D140E070286BD0732812D0752860D0A6
:10A4A000782860D0129A704611999047761CE5E0A2
:10A4B0003878694608720020487202A8019001208D
:10A4C00003E0386801900020C0433F1D69070CD5A8
:10A4D000002500E06D1C00998D420FDA8542F9DB02
:10A4E0000199495D0029F5D108E0002500E06D1CC7
:10A4F0008542FCDB0199495D0029F8D1761907E016
:10A50000019801990078491C0191129A119990477C
:10A510006D1EF5D2B2E00A20029000216802400FC1
:10A52000039102280CD001CFC117844600290DDA0F
:10A530006246084652420021814194462D2008E09F
:10A54000FF1DFF08FF0003CF8446EFE7280504D571
:10A550002B206A46107401203CE0E8073AD0202006
:10A56000F7E70A2000E0102000210391029007E0A5
:10A570001020029000210420054308200391009040
:10A580006802400F022810D001CF0021844600202D
:10A590000D9028071FD5704670280CD0029A102005
:10A5A000039B42401A430CD015E0FF1DFF08FF003B
:10A5B00003CF8446EBE740206A46107401200D90DB
:10A5C0000CE06046084306D030206A46107470469E
:10A5D000507402200D907046582804D029A0019094
:10A5E0000DA80E900DE02CA0F9E76046039B029A9F
:10A5F000F7F7FBF9019B84469B5C0E9A521E0E9264
:10A60000137060460843F0D10E9805A9081A20304F
:10A610000190680701D5009801E0012000900199A0
:10A62000884203DD01460198081A00E00020002559
:10A63000009006E004A8129A405D119990476D1CA5
:10A64000761C0D988542F5DB04E0129A30201199B2
:10A650009047761C0099481E00900029F5DC08E020
:10A660000E980E990078491C0E91129A11999047F4
:10A67000761C0199481E01900029F1DC641CB4E6A7
:10A6800009280100303132333435363738396162C8
:10A69000636465660000000030313233343536378C
:10A6A000383941424344454600000000FFB583B0BD
:10A6B0000C9C1646002C01D0002708E001270398C7
:10A6C000F7F7B0FE0421FBF769FD040014D02670F3
:10A6D00004980125002805D0049A601C069990472B
:10A6E000401C85B2300614D51021039805F05EFD9C
:10A6F000002804D0192616E0132007B0F0BD621917
:10A7000029462046FFF7CEF90C350646ADB20028A3
:10A7100009D104206946088001944D800398FBF715
:10A72000F7FC0600E9D0002F02D020460AF0B4F969
:10A730003046E2E7F8B50746069800901E461446F4
:10A740003846FFF7B3FF05000BD107480268002A1F
:10A7500007D0012C02D13078401CC4B221463846C3
:10A7600090472846F8BD00009043002030B543785C
:10A7700003245B1D2343C45CE50601D5012030BDE5
:10A78000002903D0210601D5022030BD002A03D0C4
:10A79000C1182039C97F1170C1182039487F897FBD
:10A7A0004907490D08430449420502D51F22D20238
:10A7B00010430880002030BD7C42002070B50D465B
:10A7C00004460AF097FA2D1B02460023E917284693
:10A7D000F7F7ACF8081980B270BD70B50D460446A5
:10A7E0000AF088FA00232D1B024628461946F7F77F
:10A7F0009DF8081970BD70B50D4604460AF07AFA46
:10A800002D1B02460023E9172846F7F78FF8081991
:10A81000C0B270BDF0B5364E9446326813689B07DF
:10A8200013D0136DDB08DB00136513680824234382
:10A83000136013681B0703D500BF00BF00BF00BF34
:10A84000136DDB08DB005B1C13652A4F3B68DC6A79
:10A8500007221205944301225205A218DA62DD6A2A
:10A86000072424060522A5431206AA18DA62224A02
:10A870001368DA6A92089200921CDA621D6801225B
:10A88000120715431D601A686546D209D2016D068C
:10A890006D0E2A431A60986018615960D96030685B
:10A8A00041680123194341603968144D00200A466C
:10A8B00080322D890EE01769FF0108D5C86A07228A
:10A8C00012051043C862C86AA043C86204E000BF12
:10A8D00000BF401C8542EEDC09484068002804D0D7
:10A8E000C1680A68406902430A6030680360F0BDCD
:10A8F000784200207843002070430020CC6500207F
:10A900007C42002010B5144A592113681965134977
:10A9100009680B684024DB092043DB014006400E38
:10A9200003430B600E4808610E48C8600E490020C2
:10A930004870106841684908490041600B48406808
:10A94000002804D0C1680B68406903430B6011689C
:10A950000120086010BD00007842002070430020F4
:10A960002941767155555500EC6500207C42002048
:10A9700010B514480068016889070ED0016DC90838
:10A98000C9000165016808221143016001680907D7
:10A9900003D500BF00BF00BF00BF002202650A4B05
:10A9A000586800280AD041680C68806804430C602D
:10A9B000586801690B68406903430B600348C27122
:10A9C00010BD0000784200207C420020EC65002091
:10A9D000FFB5804C064620680D46016881B01746D9
:10A9E00089071AD0016DC908C900016501680823EB
:10A9F000194301607848407D002801D0F8F7BEF87F
:10AA000020680168090703D500BF00BF00BF00BF71
:10AA1000016DC908C900891C0165704A1068C16AC6
:10AA200007231B05994301235B05C918C162C16A4D
:10AA300007231B06994305231B06C918C1626848F2
:10AA4000006801687B06C909C9015B0E19430160F2
:10AA5000866006614560C560C16A89088900C16277
:10AA6000016801231B07994301605E4D2B689868BC
:10AA70000499400B400308439860564800684168B9
:10AA800001242143416058488178A14381701168B5
:10AA9000564E00200C46803432890FE02669F601BC
:10AAA00009D5CC6A072636053443CC62CC6A360118
:10AAB000B443CC620AE000BF00BF401C8242EDD824
:10AAC00004E000BF00BF00BF00BF401C8242F8D8B6
:10AAD0009868474BC004C00C3A2805D91F6830203D
:10AAE0004349C0438031086042484068002804D090
:10AAF00001680A68806802430A60364802210068DB
:10AB0000016028688068C004C00C3A2860D900BF82
:10AB100000BF00BF00BF00BF00BF00BF00BF00BF3D
:10AB200000BF00BF00BF00BF00BF00BF00BF00BF2D
:10AB300000BF00BF00BF00BF00BF00BF00BF00BF1D
:10AB400000BF00BF00BF00BF00BF00BF00BF00BF0D
:10AB500000BF00BF00BF00BF00BF00BF00BF00BFFD
:10AB600000BF00BF00BF00BF00BF00BF00BF00BFED
:10AB700000BF00BF00BF00BF00BF00BF00BF00BFDD
:10AB800000BF00BF00BF00BF00BF00BF00BF00BFCD
:10AB900000BF00BF00BF00BF00BF00BF00BF00BFBD
:10ABA00000BF00BF00BF00BF00BF00BF00BF00BFAD
:10ABB00000BF00BF00BF00BF00BF00BF00BF00BF9D
:10ABC00000BF00BF00BF00BF00BF00BF00BF1F60CD
:10ABD00005B0F0BD78420020986500207843002041
:10ABE0007043002074430020EC650020CC650020F9
:10ABF00000E100E07C42002010B51D4909688A6828
:10AC0000520B520302438A603A282ED9194A11681E
:10AC1000194883689B029B0E3E2BFAD083681B0C5D
:10AC2000DB439B060CD083689B029B0E332B03D225
:10AC300083681B0C9B06ECD1FFF79AFE002010BD29
:10AC400030230C4CDB438034236083681B0CDB43D4
:10AC50009B06FAD083689B029B0E302B04D383683B
:10AC60009B029B0E332BF0D31160012010BD00001E
:10AC70007443002000E100E000C20040F0B5614EE6
:10AC800004463068174600680D46800701D0FFF77C
:10AC90006FFE31685A2008655B49002D086802681C
:10ACA00009D04023D2091C43D20163065B0E1A432C
:10ACB0000260564A07E0D209D20163065B0E1A43CE
:10ACC0000260524AD2438260096851484860514A42
:10ACD00011688868400B4003384388604E4B002061
:10ACE000D870306843685B085B0043604B4B0020C2
:10ACF0001B8904E000BF00BF00BF00BF401C8342AF
:10AD0000F8D88868464BC004C00C3A2805D91D689D
:10AD100030204349C04380310860424840680028E1
:10AD200004D001680C68806804430C60316802201C
:10AD3000086010688068C004C00C3A2860D900BF61
:10AD400000BF00BF00BF00BF00BF00BF00BF00BF0B
:10AD500000BF00BF00BF00BF00BF00BF00BF00BFFB
:10AD600000BF00BF00BF00BF00BF00BF00BF00BFEB
:10AD700000BF00BF00BF00BF00BF00BF00BF00BFDB
:10AD800000BF00BF00BF00BF00BF00BF00BF00BFCB
:10AD900000BF00BF00BF00BF00BF00BF00BF00BFBB
:10ADA00000BF00BF00BF00BF00BF00BF00BF00BFAB
:10ADB00000BF00BF00BF00BF00BF00BF00BF00BF9B
:10ADC00000BF00BF00BF00BF00BF00BF00BF00BF8B
:10ADD00000BF00BF00BF00BF00BF00BF00BF00BF7B
:10ADE00000BF00BF00BF00BF00BF00BF00BF00BF6B
:10ADF00000BF00BF00BF00BF00BF00BF00BF1D609D
:10AE0000F0BD000078420020704300202941767197
:10AE10005555550074430020EC650020CC6500209A
:10AE200000E100E07C4200200249C8600249802025
:10AE300008717047CC650020EC65002008B511480A
:10AE4000407D002801D0F7F799FE0F4B18790006D6
:10AE500012D50E48816B0091816B009A9142F9D115
:10AE60000B491046C9680122814202D8401A02D516
:10AE700002E0081A00D51A7106488069002800D03F
:10AE8000804708BD98650020EC6500200010004058
:10AE9000CC6500207C65002010B50C4605F034F828
:10AEA000002804D040882146FAF7C1FB10BD1220CB
:10AEB00010BD002917D0002815D0012804D0022881
:10AEC00005D0032807D00CE04879C02207E0487974
:10AED0008006800E04E048798006800E40221043F0
:10AEE00048710120704700207047000010B5054CE4
:10AEF000606B002803D009F071FE00206063207EA3
:10AF0000607610BDC4420020F0B54D4D0746686B19
:10AF100087B00E4600281CD1002F7DD0002E7BD09C
:10AF2000384600F04FFA6876297E884211D3002413
:10AF30000AE0E96B200140180622FF2109F01DFDFF
:10AF4000002805D1641CE4B2287E8442F1D3C4B247
:10AF50006C76687E297E884270D2696B00290DD09C
:10AF60008A680024002A27D0062148432130C0B235
:10AF70001C2109F099FF686B846050E0062148436A
:10AF80002030C0B23A46102109F08EFF1822FF216E
:10AF9000684609F007FE687E6A467030C0B2182124
:10AFA00009F082FF687EE96B0001401810223946E3
:10AFB00009F000FD6E6332E00A69002A09D006211B
:10AFC00048432230C0B21C2109F06EFF686B046157
:10AFD00025E04A69002A09D0062148432330C0B23F
:10AFE000102109F061FF686B446118E0CA68002A0B
:10AFF00018D0062148432430C0B2102109F054FF74
:10B00000686B0621C268687E103248432530C0B2A2
:10B01000042109F049FF00E010E0686BC4600020E3
:10B0200007B0F0BD687C002801D000F083FBA87C4D
:10B03000002801D000F046FB00F0E6FB0120EFE71E
:10B04000C4420020F7B588B004462022002168469B
:10B0500009F0A8FD6A4614805B480425817B1177BE
:10B06000FF2101310A9E4A008B000224002E50D09D
:10B0700087786E463771C7787771069E4079BC46EF
:10B080007608C7077600FF0F3E4306968607069EA2
:10B0900001D5264300E0A6430696C6064A4F069E03
:10B0A00001D50E4300E08E430696810606993E4682
:10B0B00001D5114300E0914306914106069901D55F
:10B0C000194300E0994340070691084601D52843FB
:10B0D00000E0A84306906046002805D001A8102291
:10B0E0003A49023009F066FC3179002905D0099807
:10B0F000002802D00698204306906846807D0029EB
:10B1000000D00121084369468875717850E0042118
:10B1100050E0077A6E463771477A7771069EC07A9B
:10B12000BC467608C7077600FF0F3E4306968607A3
:10B13000069E01D5264300E0A6430696C606224F8A
:10B14000069E01D50E4300E08E43069681060699C1
:10B150003E4601D5114300E0914306914106069910
:10B1600001D5194300E0994340070691084601D5EF
:10B17000284300E0A84306906046002806D0134903
:10B1800001A810221031023009F014FCB17A002914
:10B1900005D00998002802D00698204306906846FA
:10B1A000807D002900D00121084369468875F17926
:10B1B0000029ACD108436946887568460A99F8F7B2
:10B1C00033FE0BB0F0BD0000C442002058660020E2
:10B1D000F0B5064687B0062041430C9D1446082B67
:10B1E0001BD02131CFB21C220021684609F0DAFCC5
:10B1F0006A461C21384609F013FE00280BD1684628
:10B20000807EC01F092806D8E107C90F2B466A4671
:10B210003046F8F75DFE07B0F0BD2231E2E70000EE
:10B2200070B500252C460A4E0CE0F16B2001401849
:10B230000622FF2109F0A1FB002801D16D1CEDB20F
:10B24000641CE4B2307E8442EFD3284670BD000017
:10B25000C44200207FB50D460621484304461646E9
:10B260002034E0B26A46102109F0DAFD002806D148
:10B270000622FF21684609F080FB002802D000204A
:10B2800004B070BD68468089002EC3B202D02B4343
:10B29000DBB200E0AB4398420AD068468381E0B25B
:10B2A0006A46102109F000FE0248007D09F098FD71
:10B2B0000120E5E7C442002070B500200446064D99
:10B2C00004E0204600F00AF8641CE4B2297E8C42B7
:10B2D00001D20028F5D070BDC4420020F0B5384E30
:10B2E0000546707E91B0854209D10121F07D09F0BB
:10B2F00029FB0221F07D09F025FBFFF7F7FD2C4625
:10B300000620444327462037F8B207AA102109F047
:10B3100087FD002806D10622FF2107A809F02DFB92
:10B32000002803D00025284611B0F0BD1022FF21CF
:10B3300007A809F037FC1C22FF21684609F032FCFF
:10B340001822FF210BA809F02DFCF8B207AA102142
:10B3500009F0AAFD074620462130C0B26A461C21EA
:10B3600009F0A2FD074320462230C0B26A461C21E4
:10B3700009F09AFD074320462330C0B26A461021E7
:10B3800009F092FD074320462430C0B26A461021DE
:10B3900009F08AFD07432534E0B26A46042109F02A
:10B3A00083FD044670353C43E8B20BAA182109F02E
:10B3B0007BFD20430546307D09F012FDB3E7000018
:10B3C000C442002070B5064600240A4D0CE0E96B2B
:10B3D000200140180622314609F0DEFA002801D08B
:10B3E000204670BD641CE4B2287E8442EFD3C0B214
:10B3F00070BD0000C442002000229300CB5A83425B
:10B4000002D1900040187047521CD2B2062AF4D3E1
:10B41000002070477FB50D460D49097E88420CD249
:10B42000002D0AD0062148432030C0B26A461021C0
:10B4300009F0F6FC040003D007E0022004B070BD60
:10B4400006226946284609F0B5FA2046F6E70000CC
:10B45000C44200201FB5062148432030C0B26A46CE
:10B46000102109F0DDFC002802D0002004B010BD3E
:10B4700068468089C0B2F9E700218A00835A491CD6
:10B48000DB43835212189378C9B2DB4393700629C9
:10B49000F3D3704770B500241E4E1FE0F06B2501FA
:10B4A0002A182046062148432030C0B2102109F056
:10B4B000B7FC002810D0F06B06222818FF2109F0F5
:10B4C00071FBF06B06222818FF21801D09F06AFB32
:10B4D000F16B002069188881641CE4B2307E8442DC
:10B4E000DCD3FFF79DFE317E8842B07E02D1012180
:10B4F000084301E040084000B076707C002801D08D
:10B5000000F018F9B07C002801D000F0DBF800F062
:10B510007BF970BDC442002010B503494088C97D45
:10B52000F9F774FB10BD0000C442002070B50E4650
:10B530000546062148438AB014462030C0B206AA08
:10B54000102109F06DFC002846D10622FF2106A833
:10B5500009F013FA00283FD17035E8B26A46182185
:10B5600009F05EFC002834D16846FFF785FF002E05
:10B5700006D069463046FFF73FFF00280DD015E0A2
:10B5800018220021684609F0F8F9002821D1182274
:10B590000021684609F006FB10E0002C1CD069462B
:10B5A0000020FFF729FF002816D006808178A142ED
:10B5B0000FD08470002C01D10021018007490120A7
:10B5C000C8736846FFF758FFE8B26A46182109F0C9
:10B5D0006BFC01200AB070BD0020FBE7C4420020D4
:10B5E00070B501780125B02907D0B12913D0D02931
:10B5F00023D1F7F7EDFE05461FE0044600791E282B
:10B6000003D160880021F8F749F8204621790830F5
:10B61000F9F71AFF11E0017900290ED1084C002634
:10B62000E6730289C1884088F8F734FAE07B002885
:10B6300003D0E673207D09F0D3FB284670BD0000DF
:10B64000C442002070B51C4C0646A06B1B4D86B052
:10B6500000280BD120461C3000900223184A2946AE
:10B660000120F9F7C9FBA063002823D0FF2303932F
:10B670000222002105A86B4607C304ABA28B30460B
:10B68000A16BF9F785F9002808D16846028A002ADB
:10B6900004D0A06B41893046F8F7FCF90023A28B57
:10B6A0002946A06BF9F7E2FBA063002802D0002036
:10B6B00006B070BD0120FBE7C4420020FFFF000080
:10B6C00019520100F0B589B0F9F7D7FF0024184FDF
:10B6D00026E0F86B260130180622FF2109F04DF90B
:10B6E00000281BD1F86B30184079800902281CD043
:10B6F00001252046062148432330C0B26A46102166
:10B7000009F08EFB04AA1021022009F089FBF86BD6
:10B7100004AB31186A462846F9F79EFF641CE4B270
:10B72000387E8442D5D309B0F0BD0025E1E70000A2
:10B73000C442002070B5F9F7A4FF00240A4E0FE0C0
:10B74000F06B250128180622FF2109F016F90028C0
:10B7500004D1F06B29180020F9F782FF641CE4B2D1
:10B76000307E8442ECD370BDC442002070B51446D4
:10B770000D46064604F0B0FB00280DD0017B0848BA
:10B7800008290AD0C06A002806D04368002B03D0DD
:10B79000224629463046984770BD006BF3E700000B
:10B7A000C4420020FFB581B01D4616460C4608462F
:10B7B00004F092FB00280ED0007B124A08280CD01F
:10B7C000D06A002817D00768002F14D02B463246C5
:10B7D00021460198B84705B0F0BD106B002802D093
:10B7E0000768002FF2D12146506A06E00121204669
:10B7F000F8F796FFEFE72146106AF8F7E3FD002817
:10B80000F4D1E8E7C442002008B5FFF709FD01289C
:10B8100001D9022000E00A20694608706A46012129
:10B820000520F9F7ADFE08BD10B50C4A0A4B1268A9
:10B83000994206D1002A0DD01178814207D0032009
:10B8400010BD0548401C814204D1002A02D0F9F7FE
:10B8500037FF10BD122010BDFEFF00009C420020EB
:10B8600030B587B0032817D0344A002590421BD149
:10B87000887800285CD032490B68002B58D0059599
:10B8800002950395049500950195DA7819781B1DAA
:10B8900001F07EF801200CE0488900908C880B892B
:10B8A000CA88C878214612E0244A521C904203D12B
:10B8B000022000F049F93BE0204A921D904209D154
:10B8C0008878002834D000231A461946009501F0E4
:10B8D0008FF82DE0194A0C32904229D0194A904233
:10B8E00029D148790C46122822D1E389A28961899D
:10B8F0002089F9F79BFF002804D01720F8F7DEFC19
:10B90000002800D00120694608832179608806AAB2
:10B91000FAF7CCFA6846008B002809D1E089019536
:10B9200002950090A389628921896088F9F7ADFEAC
:10B93000012007B030BD0020FBE700000D20000013
:10B940009C420020FFFF00000A4A10B5904202D13D
:10B950008868007807E0074A521C904208D188683E
:10B960000078002802D001F01FF910BD012010BDA1
:10B97000002010BD0B20000070B582780446002A1C
:10B9800006D0052A1FD0062A27D00C2A27D124E06A
:10B990006078002823D11748007800280DD1164A76
:10B9A0001021022009F080FA144A1021032009F026
:10B9B0007BFA1348007809F013FA0622E11C1148BB
:10B9C00008F0F8FF0BE04178002908D14289C078DF
:10B9D0000823211DF7F752FB01E0F7F7F9FC0A48AD
:10B9E0004068002804D04168002901D020468847DB
:10B9F00070BD00002243002097660020A76600204B
:10BA0000D84200203A4300201443002070B501784A
:10BA1000912904D0D02901D1FFF7AEFF70BD417844
:10BA2000194D0E291CD03E29F8D1044680780728EC
:10BA3000F4D1A08804F050FA0028EFD0007B082849
:10BA4000ECD168680028E9D08368002BE6D06089D3
:10BA5000001F82B2E088001F81B2A088984770BDA5
:10BA600081880A4A9142FAD182689078517800021E
:10BA70000843032151566A68002AF0D01268002A50
:10BA8000EDD0904770BD0000144300200514000065
:10BA900000290ED000280CD0487980098001C028E8
:10BAA00003D0402803D002207047012070470320B4
:10BAB000704700207047FFB5002008701F2A1BD276
:10BAC000904219D21C5C401CC5B2002C14D06619DF
:10BAD000964211D85F5D384601F0B1F800280BD0CE
:10BAE000641E0C700098874203D15819401C04B0A2
:10BAF000F0BD761EF0B2E3E70020F8E710B5044C85
:10BB00002068002803D008F0C7FF0020206010BD87
:10BB10009842002070B5846B0546002C13D0206A33
:10BB2000002801D008F0B8FF606A002801D008F0B2
:10BB3000B3FFA06A002801D008F0AEFF204608F04D
:10BB4000ABFF0020A86370BD10B5044CA0690028AD
:10BB500003D008F0A1FF0020A06110BD84420020A6
:10BB6000F3B51E4E0546706881B0002824D000242D
:10BB700018E07068270138188068002805D008F0A0
:10BB80008BFF716800207918886070683818C06869
:10BB9000002805D008F080FF716800207918C8607F
:10BBA000641CE4B2AC42E4D302980028706804D06C
:10BBB00008F072FF00207060FEBD0028FCD02A0152
:10BBC000002108F0EFFF0021FF22706803E00B0165
:10BBD000491CC254C9B2A942F9D3FEBD9843002002
:10BBE000002805D104488078002801D00348704718
:10BBF000014818307047000004660020A042002071
:10BC00000148807870470000046600200148C06841
:10BC1000704700000466002001480069704700007A
:10BC200004660020014840690068704704660020EF
:10BC300010B5064A50690168491C0160D078FF2898
:10BC400003D00121890309F07BF810BD04660020B0
:10BC500070B5064D064CE888A04205D005490A7823
:10BC60000549FAF715F9EC8070BD00000466002064
:10BC7000FFFF000086430020A6420020FFB581B0F0
:10BC80000B9F0A9E0D9D039804F026F904007AD0BC
:10BC9000019800282ED104984007207902D512215E
:10BCA000084303E010210843FD210840207130467D
:10BCB0000C99384308432843207924D004210843B1
:10BCC0002071002D07D02869A06220461022294645
:10BCD000183008F06FFE0298002818D0002F09D005
:10BCE000E06A002801D008F0D7FE1C21384608F091
:10BCF0006DFEE062A46B002C45D0002E1CD0206AA3
:10BD000000280ED014E0FB2108402071F2E7002E3D
:10BD1000F0D0E06A002801D008F0BEFE1C213046B9
:10BD2000E5E747211C2008F061FE2062002803D0CF
:10BD30001C22314608F03EFE0C9800280DD0606AA7
:10BD4000002806D14721162008F050FE6062002826
:10BD500003D016220C9908F02DFE002D0DD0A06AFC
:10BD6000002806D14721142008F040FEA0620028D8
:10BD700003D01422294608F01DFE3B46049A03997D
:10BD8000019807F0DDF805B0F0BDF3B581B001987A
:10BD900004F0A2F805002AD00E2008F00BFF0400E2
:10BDA00025D01820F8F78AFA0606360E00D12E782C
:10BDB000D0202070002767700B20A0700622A91DDC
:10BDC000E01C08F0F7FD0298C1070120002901D00E
:10BDD000207300E02773019961810299890701D5D9
:10BDE000607300E067732146304608F057FFFEBDE0
:10BDF000FEB501261F4D032809D01F4A904227D1C6
:10BE000088780C2821D011281FD03046FEBDC87874
:10BE10001A4F0C461A2803D1A088F988884214D0FA
:10BE2000A08804F059F8002801D0E188C181608918
:10BE300000902389E288A188E07800F0D9FDA088ED
:10BE4000F9888842E1D1FD80DFE7FFF701FFDCE7F9
:10BE5000A8420DD10C46497900201229D6D1694655
:10BE600088802179608801AAFAF706F80120FEBDD2
:10BE70000020FEBDFFFF000013200000046600202C
:10BE800070B581881F4A914213D11F4980680968A3
:10BE9000007800290BD0002805D101204870F9F75F
:10BEA00078FC002801D000F0C9FD012070BD002001
:10BEB00070BD144AD21C91421AD8521E914201D12F
:10BEC000012400E000248068104E05783078FF28B7
:10BED000EBD0042008F06EFE0100E6D0D020087000
:10BEE0004D7002208870CC70307808F0D7FEDCE707
:10BEF000044A121D9142DAD18068007800F0AAFE4F
:10BF000070BD00000620000098420020AC430020D5
:10BF100070B502461B481C4C01680026184D20785D
:10BF2000012A0BD0002908D0E178490705D5022164
:10BF300009F0B6F86E80FFF7E1FD70BD6A88002A4F
:10BF400003D0124B1B79002B05D00029F5D00878BF
:10BF5000F8F700F970BD3C2A0FD2022109F0A0F8D1
:10BF600068880B4948430B49F5F7CCFC024620781A
:10BF7000022109F037F86E8070BD3C3A6A8070BDCE
:10BF8000AC43002098420020864300200466002035
:10BF900040420F007102000070B514460D4604F0D7
:10BFA000FEF80C49042809D08868002810D042689F
:10BFB000002A0DD021462846904770BD0969002906
:10BFC00006D00B68002B03D021462846984770BD49
:10BFD000012070BD84420020F0B587B004005AD023
:10BFE0002E48A179C6782E4F002924D0F868042560
:10BFF000002804D04168002901D00020884721464C
:10C00000E07908310691FFF743FDE0718446237D16
:10C01000628A218AE089029003A80EC0A088019557
:10C020000090E07862463146069B00F0B1FCE07873
:10C03000002806D016E0B86908250028DFD0067869
:10C04000DDE7628A218AE0890290172303A80EC0E7
:10C05000069800900195E379A1880122304603F00B
:10C06000D7FEE070B869002802D00420FFF76CFD0D
:10C07000787800280FD03978FEF70EFF00280AD014
:10C08000E078312805D00095A2880346797806F03B
:10C09000BFFF0020787007B0F0BD000004660020EC
:10C0A00084420020F8B50446FF26808803F014FF80
:10C0B000050009D02E782F7BFFF72CFD284607F0CE
:10C0C00019F8A08804F050F8114D6878002808D0BD
:10C0D000864206D12978FEF7DFFE00280AD1687073
:10C0E00008E0FF2E06D00097A379A288A0783146F9
:10C0F00006F08EFFA08804F052F8042807D1054806
:10C10000A188C288914202D10021C943C180F8BDF3
:10C110008442002004660020F0B587B004005BD0A4
:10C120002E48A179C6782E4F002925D0F86804251D
:10C13000002804D04168002901D00020884721460A
:10C14000E07914310691FFF7A3FCE07184462023C7
:10C150001B5DE28BA18B608B029003A80EC0A088B0
:10C1600001950090E07862463146069B00F010FC95
:10C17000E078002806D016E0B86908250028DED04F
:10C180000678DCE7E28BA18B608B0290172303A873
:10C190000EC0069800900195E379A18801223046EF
:10C1A00003F036FEE070B869002802D00420FFF7E3
:10C1B000CBFC787800280FD03978FEF76DFE002888
:10C1C0000AD0E078312805D00095A2880346797816
:10C1D00006F01EFF0020787007B0F0BD0466002056
:10C1E0008442002010B5094CA278002A0CD00146E8
:10C1F0000622074808F0DEFBA0780549FEF759FE45
:10C200000348F9F7D5FA10BD002010BD04660020E0
:10C21000A042002070B5164D0646E878FF2814D0DD
:10C220000A2008F0C7FC04000FD0D02020706670F0
:10C230000820A070A878E07006220E49201D08F0A2
:10C24000B9FBE878214608F029FD287901280ED1AC
:10C2500008481C38C068002803D08068002800D037
:10C2600080470548054A0078042108F0A9FE70BD02
:10C2700004660020A04200208643002000770100D1
:10C2800010B586B0044603A91448F7F71DFD1348FE
:10C2900004A9401CF7F718FD6846E388018A8B4221
:10C2A00003D822898089824205D2A0882021F9F70B
:10C2B0005AFA06B010BD834200D2E0808A4200D90B
:10C2C0002181A18900200190009102906389228937
:10C2D000E188A088F9F74BFAEBE7000011030000B2
:10C2E000F8B5070041D0F87800283DD07D68002DD2
:10C2F0003AD01620F7F7E2FF40B20026009030E077
:10C300000F2169560098814228DB1D48806800286B
:10C3100024D0142008F04EFC04001FD0D020207040
:10C32000002060701020A0702878E070E87BA07476
:10C33000687820710622A91C601D08F03BFB287A52
:10C34000E07229462046062209310C3008F032FB03
:10C350000B4821468068007808F0A0FC761CF6B2F5
:10C360001035F878B042CBD8F8BD05488068002871
:10C37000FAD0002000F082FA002000F0A9FBF8BDFE
:10C3800098430020F1B584B0049800287ED0C0788E
:10C3900000287CD004984468002C78D01620F7F749
:10C3A0008DFF40B2002702901CE12046203008217A
:10C3B00001904156029881426ADB934900258968C1
:10C3C000284600297ED0217801290CD02346227AE4
:10C3D000093303A90120FFF76EFB002800D0057880
:10C3E0002178042914D088498968497803290FD015
:10C3F000002D0DD000290BD0002863D0012902D0D8
:10C4000002295FD101E0A80700E0E807002859D021
:10C410006078A11CFFF73CFB009060707A48002513
:10C420004068002857D0002617E0496830010A5CB0
:10C43000FF2A10D04018427800998A420BD1062278
:10C44000A11C801C08F0A8FA002804D06E48310115
:10C4500040680D1805E0761CF6B26B4908788642F4
:10C46000E3D3002D37D02078042872D0A8680028A4
:10C4700018D00178227A914206D121460931401C18
:10C4800008F08AFA012871D0207802E0B1E0AEE02D
:10C49000A5E004285FD0A868002803D008F0FCFAC3
:10C4A0000020A860207A5949401C08F09FFA002813
:10C4B0000DD02178042957D0A860217A0170227A02
:10C4C000214600E043E00931401C08F073FA207A6D
:10C4D000002850D153E02678042E50D04A4A5168A3
:10C4E00000294CD00020137805E002018A5CFF2A65
:10C4F00025D0401CC0B29842F7D3002D3FD02E70FB
:10C50000607868700622A11CA81C08F053FA207AF3
:10C510003E49401C491C08F069FA00280BD02178DC
:10C5200004290FD0A860217A01702146227A0931AE
:10C53000401C08F03FFA207A00281CD104E00001DA
:10C540004518DAE7E860EEE72078012813D016E016
:10C55000FFE7E8688BE7E8680028A3D008F09CFABA
:10C560000020E8609EE701E0E860A6E71520F7F705
:10C57000A5FE002803D124488068002803D1224862
:10C58000406800282BD1207A143008F013FB0500F6
:10C5900025D0D020287000266E700D20A87020783D
:10C5A000E87001980622007AE87260782871A11C70
:10C5B000681D08F0FFF9227A2A73207A002807D034
:10C5C0002846143021460931286108F0F3F900E0CB
:10C5D0002E610D4829468068007808F05FFB7F1CBB
:10C5E000FFB229340498C078B84200D9DDE605B01E
:10C5F000F0BD054880680028F9D0002000F03EF921
:10C60000002000F065FAF2E7984300201E47000082
:10C6100070B50178744D912902D0A22973D04FE0F2
:10C620004178052908D0714C714B0E2907D00F298C
:10C630006AD03E2969D043E0FFF734FD1CE08288D0
:10C640006C4900258A4219D181680E78491C002E58
:10C6500006D1002904D065480622183008F0AAF94E
:10C66000207801282CD1002E02D02570304624E0FD
:10C6700002202070F9F76FF8012070BD5E498A42F0
:10C6800020D18668002E1BD03078002806D1B178E2
:10C690007278080210432081F078607020780228B8
:10C6A0000ED13078002801D0257005E003202070DD
:10C6B00061782089F9F76AFD307800F047F9DBE707
:10C6C000002070BD4C49C91C8A4204D180680078A2
:10C6D000FFF7A0FDD0E749495118042907D8D968C8
:10C6E0000029C9D009680029C6D0884770BD4249D1
:10C6F00009318A420AD159680029BDD00B68002B44
:10C70000BAD0014634E067E016E034E03A490A3135
:10C710008A4203D1816809780029ADD0364C0C34A7
:10C72000A242CDD199680029A6D04A68002AA3D098
:10C7300001462046904770BD014682882E480B3046
:10C74000824203D02C481730824204D198680028D6
:10C7500092D043680AE0284811308242B0D1E08884
:10C76000A842F3D01869002886D00368002B83D034
:10C770001046984770BD8178012914D00A2915D038
:10C78000022916D00B2919D003291FD0062920D041
:10C79000072995D18188082992D2C0884900184A72
:10C7A000001F50528CE7FFF717FC65E7FFF7B4FC5A
:10C7B00062E7596800298DD0496803E0596800296B
:10C7C00088D08968002985D0884755E70246808847
:10C7D00006E0FFF755FD4FE7438802462946184615
:10C7E000FFF7DAFB70BD0000FFFF000004660020C9
:10C7F000844200200910000002200000FADFFFFF41
:10C800001E670020014948607047000084420020F4
:10C810000149886070470000844200200149C860D7
:10C820007047000084420020014908617047000001
:10C8300084420020F8B507460E46084603F04CFB3C
:10C84000020019D01820F7F739FD05062D0E00D18A
:10C850001578062008F0AEF904000DD0062200215C
:10C8600008F0A0F9D020207067700E20A070A6807C
:10C870002146284608F012FAF8BD0000F8B5054632
:10C8800031480024806800285CD0002D10D12E494A
:10C890004A68002A0CD00020097807E00301D35C25
:10C8A000FF2B01D0641CE4B2401CC0B28842F5D317
:10C8B000E000083008F07EF9060007D1082008F0F3
:10C8C00079F9002413250646002831D0D020307095
:10C8D00001207570B070F470002C21D035460835F9
:10C8E0000027756015E051683801095CFF290ED0FA
:10C8F00029705168641E4118497869705168E4B222
:10C9000041180622A81C891C08F054F808357F1C21
:10C91000FFB20D4A1078874204D2002CE3D101E027
:10C9200000207060084831468068007808F0B6F949
:10C93000054C00212078FFF713F9A06808F0ACF847
:10C940000020A060F8BD00009843002070B50F4D96
:10C950000646E878FF2817D00E2008F02BF90400CF
:10C9600012D0D020207066700020A07029460622C8
:10C970001831E01C08F01EF828896081687820735F
:10C98000E878214608F08AF970BD000004660020AE
:10C99000FFB5074681B01D461646162008F00AF975
:10C9A000040022D0D020207005206770A070E670AF
:10C9B000002D05D006222946201D07F0FBFF04E0CC
:10C9C00006220021201D08F0EDF80A9860810B98DE
:10C9D00020730C98E0810D9820820E9860820F9849
:10C9E00020752146029808F059F905B0F0BD000005
:10C9F000FFB581B01E4617460D460C2008F0DAF848
:10CA0000040016D0284603F067FA002801D0007809
:10CA100001E00948C078D021217001996170072197
:10CA2000A170A580E78026810A996181214608F0DE
:10CA300035F905B0F0BD00000466002070B50C4D5E
:10CA400004462868002811D0032008F0B3F801003C
:10CA500008D0D02008704C700320887028680078B7
:10CA600008F01CF9002C01D0FFF748F870BD000059
:10CA700098420020FFB581B01F460E46084603F0DD
:10CA80002BFA050022D0102008F094F804001DD0E5
:10CA90001022002108F086F81820F7F70FFC000696
:10CAA000000E00D12878D0212170019961700F21EA
:10CAB000A170A6800399217267720A99A1720B99DD
:10CAC000E1720C99E160214608F0E8F805B0F0BD8C
:10CAD00010B504461520F7F7F1FB002801D001211D
:10CAE00000E000212046F8F76BFE10BDFFB50746B9
:10CAF00081B01D460E460E2008F05CF8040010D0F0
:10CB0000D0202070002060700C20A070A68006222B
:10CB1000A01D039907F04EFF2573F8B2214608F0D7
:10CB2000BDF805B0F0BD0000F0B51C4F85B0386809
:10CB3000002831D00320F7F7C1FB06460420F7F7A1
:10CB4000BDFB054604A91648F6F72AFA6846017C9B
:10CB500014480029807806D0032802D0002806D087
:10CB600003E0022404E0002801D0012400E00024B6
:10CB70003968C878091DFEF79CF93A68D77A937A24
:10CB80000090111D01A88AC092782346294630469C
:10CB9000F8F703FE05B0F0BD0120FBE79842002046
:10CBA0001F0400000466002070B504460E4880682B
:10CBB000002818D00D4D002C0DD10220F7F77EFB78
:10CBC000020003D02878012108F00CFA0120FFF7B9
:10CBD0007FFF040006D02878012108F061FA204682
:10CBE000FFF74CFE012070BD9843002086430020D3
:10CBF00070B50C4603F070F905001FD01820AC6228
:10CC0000F7F75CFB0606360E00D12E78102007F0F1
:10CC1000D1FF040012D0D0202070002060700920C5
:10CC2000A0706879E0700622A91D201D07F0C2FEE1
:10CC3000A86AE0602146304608F030F870BD002850
:10CC400003D0172803D3FF2801D00020704701200C
:10CC500070470000F1B52D4E82B03068002842D0F8
:10CC600040782B4D012814D0287900283AD1032090
:10CC700007F0A0FF010009D0D0200870029848708A
:10CC8000042088703068007808F008F8FEF736FF56
:10CC900028E02048204F4368002B19D01A786946B5
:10CCA00001205B1CFEF707FF002811D00078C007A9
:10CCB0000ED00120F7F702FB04463C2814D3387845
:10CCC000164A022108F07CF912483C3C448016E0E8
:10CCD0000020F7F7F3FA0CE00020287102E0029838
:10CCE000FFF7ACFE0120FEBD0D480E496043F4F78E
:10CCF00009FE020003D03878022108F073F9316888
:10CD00000220487028790028E9D0E5E79842002001
:10CD100004660020AC430020864300200077010019
:10CD200040420F0071020000F8B505461D488542DB
:10CD300024D0461C002922D001292CD002291DD143
:10CD40000121284603F032FA002817D1284600F0C6
:10CD500035F9040012D0207A0026FF280DD0FE28D5
:10CD600006D00096A378607A1422294600F0C2F912
:10CD7000204600F055FEFF202072A672F8BD28461E
:10CD800000F01CF90028F9D1304600F017F900280E
:10CD9000F4D00580F8BD284600F010F90400F9D061
:10CDA0002680D8E7FEFF00007CB5040018D0207A6A
:10CDB000FF2815D000250095A3782188607A1722D6
:10CDC00000F098F9A078182805D1684605712088E8
:10CDD00001A9F5F7B7FAFE202072204600F020FEE8
:10CDE0007CBD10B50C4600F0E9F8002806D0827A28
:10CDF000511CA14202D1D109C901817210BD0000AC
:10CE0000F7B50878002588B016460C46002857D19B
:10CE10006078002854D1A0781B2816D01D2814D083
:10CE2000089800F0CBF8050027D0A078012849D059
:10CE3000A97888424CD16B68002B49D0A18801AAFF
:10CE4000A0689847070045D082E042490978FF2949
:10CE500036D01D2814D1089800F0B0F805000FD086
:10CE6000AA7A002A0CD0100607D4A178089800F0FE
:10CE700015FEA87A80210843A87200200BB0F0BDEF
:10CE800001AF0097A38861782078A268F5F76DFB61
:10CE90000028F3D100972F48A37800220078089942
:10CEA00000F028F90028E9D10299002901D00021D9
:10CEB0003170A1781D29E1D1002DDFD0A972DDE705
:10CEC0000620DBE7A18801AAA068F5F7D9FAB9E73F
:10CED0000420D3E7A87805280CD007280AD0092811
:10CEE00008D00D2806D0112804D017280AD12869A7
:10CEF000002807D0A27801AB2946089800F060FA14
:10CF0000307025E01449687A0978884210D001A968
:10CF10000091A3780022089900F0ECF8070007D1EF
:10CF2000A17801A800F09CF8002801D00020307002
:10CF3000A878032809D16846A9898088814200D948
:10CF4000A881A9890898F8F785F9284600F068FDB6
:10CF5000384693E7BC420020B242002030B5054677
:10CF600085B0202000900C460A790023062128462F
:10CF7000F8F724FA049000281ED02088694688809B
:10CF80006088C880022008720020487228208872B9
:10CF90002279611D049807F00DFD2079694688818A
:10CFA00001A92846F5F7E2F9040002D0049807F039
:10CFB00073FD204605B030BD1320FBE710B50A4ACB
:10CFC0000A4B002152681C780AE028234B43D35AAD
:10CFD000834203D128204143881810BD491CC9B29F
:10CFE000A142F2D3002010BDBC420020F844002032
:10CFF000074A002106234B43D35A834203D106201C
:10D00000414388187047491C0329F3DB002070470F
:10D010000067002001460648406906E082685289A0
:10D020008A4201D1001D704700680028F6D1704780
:10D030007044002010B50C46FFF7C0FF00280DD04B
:10D04000002C00D02060007AFE2803D0FF2803D0F7
:10D05000162010BD172010BD002010BD022010BDED
:10D0600000B50F292ED00BDC0B00FDF795F90F232F
:10D07000232323232B252B232B232B232B27230075
:10D08000182917D008DC10390B00FDF785F90813B3
:10D090001B1B1313131919131E290BD006DC192996
:10D0A00008D01B290ED01D2904D10BE0522909D02C
:10D0B000D22907D0002000BDC06800BD006800BDB7
:10D0C000806800BD406800BD10B50C46FFF790FFBA
:10D0D00000280DD0002C00D020608078FE2803D0DE
:10D0E000FF2803D0162010BD172010BD002010BD52
:10D0F000022010BDFFB581B001980A9D1E4617465B
:10D10000FF2813D0202007F055FD04001DD0B020CB
:10D1100020706770029860802671002D09D020462B
:10D1200018222946083007F045FC08E0022005B027
:10D13000F0BD204618220021083007F033FD2146BB
:10D14000019807F0ABFD0020F1E71320EFE7FFB5F2
:10D1500085B01C46212015460E4600900E9F0023E8
:10D16000224616210598F8F729F90390002814D0D3
:10D1700068468680C580048122463946039807F0B8
:10D1800019FC01A90598F5F7DDFA040002D003980F
:10D1900007F082FC204609B0F0BD1320FBE7002019
:10D1A000704700207047000010B504462030072962
:10D1B00003D011790A2921D11BE00179491C0171A1
:10D1C000108851688000001F081841780278080212
:10D1D000E189104381420FD9401CA081214620885B
:10D1E0000C31FFF7BBFE207A054907F075FF1620CA
:10D1F00010BD0079002801D0002010BD012010BD15
:10D2000080BB000038B54C88088884420ED30028C3
:10D210000CD0002200920B794A1D2146F7F7ECFD55
:10D22000002801D0002038BD0A2038BD012038BDBB
:10D2300010B504462030052903D011790A2928D1D8
:10D2400022E00179491C017110889178401E012962
:10D25000516880B216D012225043081841780278E3
:10D260000802E1891043814211D9401CA081214666
:10D2700020880C31F5F7ACF8207A074907F02CFF2D
:10D28000162010BD8000E8E70079002801D00020BA
:10D2900010BD012010BD000080BB0000F3B585B0BB
:10D2A00006980026078840883446B84215D3002FD8
:10D2B00013D000206946888002900020694688814A
:10D2C00000900698002341881A463846F7F794FDE7
:10D2D00005005AD0002C03D00CE0012007B0F0BDAF
:10D2E0002220009003AB354A05210598F8F766F82F
:10D2F00004000BD068468088002832D068468079C8
:10D300000128287811D0102843D101E01120E5E749
:10D31000A87A207068891022000A6070A41C204638
:10D32000696807F047FB10340DE0022831D1A87A74
:10D33000207068890222000A6070A41C2046696877
:10D3400007F038FBA41C69468888401C80B288809E
:10D35000B0421AD269891948814216D07F1CBFB2E7
:10D36000ABE702942878022808D002206A46907120
:10D3700012219089F4F7B0FAC6B2C9E701206946D4
:10D38000887188898005060ED1E768468088002864
:10D3900012D001A90598F5F727F800280AD001ABAB
:10D3A000052216210598F7F75DFE002802D00298A5
:10D3B00007F072FB002091E70A208FE7FFFF0000D3
:10D3C000FFB58878012781B01E460D4605280BD091
:10D3D00007280FD0092813D00D2817D011281BD0EB
:10D3E000172821D0012431E01A4628460399FFF777
:10D3F0001FFF16E01A4628460399FFF7D5FE10E0F6
:10D400001A462846039900F0CDF80AE01A46284645
:10D41000039900F08FF904E01A462846039900F0BA
:10D4200067F804000FD011E0287B039901281A4601
:10D43000284605D000F042FA0446012838D105E01C
:10D4400000F0E8F9F8E70398012803D003980928C9
:10D4500017D113E030790A282DD00096687A00227F
:10D46000039B0199FFF746FE002824D1304603991B
:10D47000FFF7F6FD00281ED000271CE030880028AA
:10D480000FD00096687A0022039B0199FFF732FEC5
:10D49000002806D130460399FFF7E2FD002800D0AE
:10D4A0000027002C07D0162C02D0284600F0B8FA2E
:10D4B000384605B0F0BD00200090AB78687A1A229B
:10D4C0000199FFF717FEF0E738B505460C460888C6
:10D4D0006946F7F76DFC002807D0017A6846028894
:10D4E00023462846F7F7DCFE38BD012038BD000092
:10D4F00010B504462030112903D011790A2927D10B
:10D5000021E011885388491E5943037989B25B1C75
:10D5100003715068891C40184178027808020D494F
:10D520001043884212D0401CA081E18981420DD372
:10D53000214620880C31F5F74DF9207A064907F08D
:10D54000CBFD162010BD0079002801D0002010BDB1
:10D55000012010BDFFFF000080BB000038B50C4665
:10D5600049882088814219D3002817D02379621D69
:10D5700002210B48F4F777FE00280DD00020009020
:10D58000237961882088621DF7F736FC002801D0D6
:10D59000002038BD0A2038BD102038BD012038BD1C
:10D5A0000D520100F0B5054613302E4689B02036E5
:10D5B00014460690092903D020790A283CD03EE081
:10D5C00020886188401E4843317980B2491C3171FE
:10D5D0006168081841780278080210430790287B98
:10D5E00001285FD10027208861883E46484380B2E9
:10D5F000089027801CE060886168401F83B2701D1E
:10D600000A18A97C0698F4F72EFE00280DD0BE4219
:10D6100005D0606862888119C01907F0CBF960886D
:10D62000C01987B22088401C20806088801986B28B
:10D6300008988642DFD335E03079002839D1AB7CB9
:10D6400002212B48069AF4F70EFE002822D1AB7C6B
:10D6500002212848069AF4F706FE00281AD1AB7C6E
:10D6600002212548069AF4F7FEFD002812D1AB7C72
:10D6700002212248069AF4F7F6FD00280AD1207903
:10D6800002280AD0052808D0082806D00F2804D080
:10D690000C2802D0012009B0F0BD3079401C307157
:10D6A0006088079016490798884202D0298A8142EB
:10D6B00001D80020EFE7401C80B2E881297B0129D6
:10D6C0000AD0294628880E31F5F7AEF8287A0D4998
:10D6D00007F002FD1620DEE769460880288A4880A8
:10D6E0000220087103204871282088712888EBE700
:10D6F0000D5201000F52010011520100135201009E
:10D70000FFFF000080BB000038B54C8808888442C9
:10D710000ED300280CD0002200920B794A1D21461E
:10D72000F7F76AFB002801D0002038BD0A2038BD79
:10D73000012038BD70B50446203015460D2903D0B0
:10D74000117907291ED118E00179491C017120883F
:10D75000F4F768FE01462888491E884210DBE189FB
:10D760000818E081214620880C31F5F713F8207A5B
:10D77000054907F0B1FC162070BD0079002801D0E2
:10D78000002070BD012070BD80BB0000F8B50D46C3
:10D790000646002428E02868610040184178027895
:10D7A000080210436946F7F703FB002810D0017AFE
:10D7B000684602883046F7F79CFD002812D02A6898
:10D7C0006100535C13702A68491C515C5170F8BDAC
:10D7D000296860000A5C0A702968401C085C48706F
:10D7E0000120F8BD641CA4B2A888A042D3D80020B0
:10D7F000F8BD38B5044608886946F7F7D9FA002815
:10D8000006D0017A684602882046F7F772FD38BDD7
:10D81000012038BD7CB5274E0D46044617292DD171
:10D82000607D0C23584321691388081801889942A8
:10D8300024D141885388994220D1838891888B4292
:10D840001CD193680A468068194607F0A5F800289D
:10D8500014D0607D401CC0B26075217D884214D216
:10D860000C222169504308188168009183884288FE
:10D8700001882088FFF76BFC002801D0002005E01C
:10D88000207A314607F028FC10E0A07D6946087137
:10D89000208801A9F4F756FD012D09D0207A3146E0
:10D8A00007F01AFC1920A0700348606016207CBDA8
:10D8B00001207CBD80BB0000E12400007CB51F4E30
:10D8C0000D46044617291CD12088F4F7ABFDA28B26
:10D8D000431FD018A18A82B2A283608A101A80B234
:10D8E000884215D2091A994201DC8BB200E09BB242
:10D8F000A16908180090218A2088FFF728FC0028D9
:10D9000001D0002005E0207A314607F0E5FB10E069
:10D91000012069460871208801A9F4F713FD012D43
:10D9200009D0207A314607F0D7FB1920A0700448AF
:10D93000606016207CBD01207CBD000080BB000023
:10D94000E124000038B505460C4608886946F7F71B
:10D950002FFA002807D0017A684602882346284615
:10D96000F7F7F2FC38BD012038BD0000FEB50E46C9
:10D970001546074601A9FFF75DFB04000CD13146AF
:10D980003846F4F791FF040006D1044B0B22002126
:10D990000095019800F0A4FF2046FEBDF926000086
:10D9A000FFB589B00E461F46154607A90998FFF72F
:10D9B00041FB040022D1002D0CD0308869468880BC
:10D9C0007088C8800220087203204872282088725C
:10D9D00001A900E031460998F4F726FF04000DD1B3
:10D9E0006846057116223146801D06F0E3FF054B9F
:10D9F000092201A90097079800F072FF20460DB098
:10DA0000F0BD000095260000014948607047000005
:10DA1000B04200200149886070470000B0420020F9
:10DA200070B50446083000F04DFFA078172801D0EB
:10DA3000192807D1207B012811D0A069002801D026
:10DA400007F02AF80020A070FF21617224210855F8
:10DA50000146204618220C3007F0A4F870BD20695A
:10DA60000028EFD000250BE028460C225043216906
:10DA700008300858002801D007F00EF86D1CEDB2F0
:10DA8000207DA842F0D82069DAE710B50446801C52
:10DA900000F018FFFF20E07010BD00001CB5044628
:10DAA000684601714271204602F016FA00280BD038
:10DAB000027B01A90748082A009106D07E23002294
:10DAC00021460078FFF716FB1CBD7E23002221466D
:10DAD0004078F7E7B0420020F8B500240646274614
:10DAE0000C2060438519A8882D1D00280ED0A86839
:10DAF000002801D006F0D0FF0C220021284607F0B4
:10DB000051F8641CE4B22F80052CE9D30020C043F7
:10DB10003080F8BD00B500F023F8002800D0806800
:10DB200000BD00229300CB5A834202D190004018DE
:10DB30007047521C032AF5DB00207047074A00217A
:10DB400092698B01D35A834202D1880180187047B1
:10DB5000491CC9B20329F4D3002070477044002047
:10DB600006490969002906D08A88824201D188685D
:10DB700070470968F6E700207047000070440020F5
:10DB80007CB50646012906D0022922D1012102F0E6
:10DB90000DFB00281DD13046FFF7D0FF002801D033
:10DBA000FFF79AFF01A80C4D00900223094A29466D
:10DBB0000120F7F721F90AE03046E168F6F738FE70
:10DBC00068468288002329462046F7F74FF904006B
:10DBD000F2D17CBD19520100FFFF0000F3B5002017
:10DBE00083B00246054604460C21049B6143C918D4
:10DBF0008B88091D002B0ED0002A1BD093421ED10A
:10DC00004B8883421BD189884B199DB20818641C2C
:10DC100080B2052CE8DB022C39DB00200190002DBE
:10DC20000DD01C49284606F0E1FE0090002807D0E0
:10DC3000002625E08D8848881A464019E7E700202D
:10DC400005B0F0BD0C20049970434718F9683F1DDA
:10DC500000290DD0019B0098BA88C01806F0AAFED2
:10DC6000B9880198081880B20190B86806F014FFCE
:10DC7000002E04D00C220021384606F093FF761CBB
:10DC8000A642DFDB04990098C86004980581012052
:10DC9000D6E7000004470000F3B5074683B000252F
:10DCA0004088FFF74BFF0290002803D0387A012804
:10DCB00007D047E07888F4F751FB002856D105B02B
:10DCC000F0BD384608300299FFF788FF002817D0CA
:10DCD000029C1821E088019100902389A188E268C4
:10DCE0007888241DF6F7B0FF0546162805D0002DCC
:10DCF00028D004982188018024E00020A06021E041
:10DD000000260C200299704340188188041D0029C8
:10DD100018D0042E1ED0008A00281BD0162062883E
:10DD200000920190A3887888A268F6F78DFF0546D7
:10DD3000162811D0002D02D0049821880180761C6D
:10DD4000052EDEDB0298FFF7C7FE002D09D0162D49
:10DD500005D00DE01820E2E70020A060EFE70025E5
:10DD600006E07888F4F7FAFA002801D01620A6E732
:10DD70002846A4E7F3B50446074689B0083440882E
:10DD8000F4F750FB079004A80090002523796188E0
:10DD90002088621DF7F730F8059000286FD00798AB
:10DDA000401F08900898854269DA397907983D4BF9
:10DDB000C01F80B2002203910093019202901E4680
:10DDC0006946083E0A8A7888F3680599F6F7E0FD07
:10DDD000002821D12089328990421DD1E068F16864
:10DDE00006F0DAFD002817D02F4E706800280AD1FF
:10DDF00011200090788800232C4A0721F7F7DEFADB
:10DE0000002803D070600598468906E00A982188AA
:10DE1000018011200BB0F0BD00266846028A61889F
:10DE200006AB0598F7F722F80590002E1AD01E4988
:10DE3000320A486846556D1C4B68A8B21A54401CFB
:10DE4000059A80B2002A10D06A464B68128B1A5489
:10DE50006A46128B401C496880B2120A0A54401C60
:10DE600085B29FE700289DD109E00F4AFF21536842
:10DE70001954401C526880B21154401C85B2002DC8
:10DE80000AD00948A908018078880749F4F788FA78
:10DE90000028BFD01620BDE70A98218801800A20FB
:10DEA000B8E7000078440020E8660020FFFF00008B
:10DEB000F0B589B00446002769468F8201208B4D5A
:10DEC0000874E868002807D1F8F710F8884906F0C8
:10DED0008DFDE86000281ED018220021854806F03C
:10DEE00061FE2079834E411CC9B20691022816D0EA
:10DEF00006283BD008283ED00A2841D00C286DD0F7
:10DF00000E287DD010287CD012287BD016287AD0FD
:10DF1000182879D0DBE06846007C09B0F0BD608845
:10DF2000082808D2744A4100515A002903D1734A83
:10DF3000FB21FAF791FBF7F7D9FF308060886D4934
:10DF4000F4F7F0F900282189308805D0814200D308
:10DF5000208120893080BEE0814200D32081218948
:10DF60006088F7F777F9B2E00699ADE005A9204699
:10DF7000FFF700FF8BE005A9204600F0FDF986E0E1
:10DF8000208907A9F6F714FF05005ED01520009040
:10DF9000608808AB5A4A0B21F7F710FA7060031E2D
:10DFA00047D069462079098C029101970096039029
:10DFB00069468A8B60882946F6F7EAFC050034D169
:10DFC00060884C49F4F77CFC3CE0706806F064FD26
:10DFD000002D7CD02089694688825AE0208907A9D3
:10DFE000F6F7E6FE050030D016200090608808ABFA
:10DFF000434A0D21F7F7E2F97060031E19D004E0DF
:10E0000028E02CE030E035E03DE069460A8C2079DC
:10E010006189019100960292039069468A8B60881B
:10E020002946F6F7B5FC050008D0162DCDD1002500
:10E03000CBE720896946888211252CE060882D492C
:10E04000F4F7B4FB002846D141E020896946012558
:10E05000888220E005A9204600F02EFA17E005A9E5
:10E06000204600F0BFF812E004AA05A9204600F0FF
:10E07000ABFA0CE005A9204600F044F8050008D1F1
:10E080006846077423E005A92046FFF705FE050052
:10E090001DD0162D1FD06078142818D0207930702C
:10E0A0006846808A7080357160881249F4F716F9E5
:10E0B00000280CD0012560880E4B2A461621F6F761
:10E0C000D1FF002803D029460A48F7F7BDF92046BA
:10E0D000F6F70CFE1FE76088064B1621069AF6F746
:10E0E000C1FF002800D03FE7F1E7000070440020A6
:10E0F00003470000E86600201E6700204808000073
:10E10000FFFF0000F0B5044685B00E460546083412
:10E110000027008904A9F6F74BFE03005BD0187AAC
:10E12000800613D56846008AFFF7F4FC070008D084
:10E13000688812221946B847070007D02088308027
:10E1400047E0208830800E2005B0F0BD6888FFF7DA
:10E15000F5FC010006D12248FFF7F0FC01000DD0CC
:10E160006888088000200C22424352189288002AB6
:10E1700008D0401C0528F6DB09202DE020883080DF
:10E180000920E1E70C22504340182146001D06F00B
:10E1900011FC0C22214601A806F00CFC1020009076
:10E1A000A288688800231721F7F708F90390002850
:10E1B0000BD0A288A16806F0FDFB688801A9F4F7DE
:10E1C000D5FA002805D01620BEE72088308011201F
:10E1D000BAE73846B8E7012021883180B4E700006B
:10E1E000FFFF0000F3B5024689B0083206460492EC
:10E1F0004088F4F717F9079005A8049A009013795E
:10E2000051881088521DF6F7F7FD002504462F4669
:10E21000002C20D06A46217A7088928AF7F769F834
:10E22000070015D131790798504B801F0890039152
:10E2300080B2002200930192029019460839CB68FF
:10E2400069468A8A70882146F6F7A2FB070005D046
:10E250000A9861890180002D70D079E0002D0DD0E1
:10E2600043484188414808380089021D91426FD1D6
:10E2700040190899001D88426ADC10E012200090C5
:10E28000708800233B4A1121F7F798F83849002895
:10E29000486036D0354808380089001D4880344928
:10E2A000A07A4A6806AB505562896D1C4968A8B2CD
:10E2B000120A0A54401C85B2049841886846828A32
:10E2C0002046F6F7D3FD040021D06A462849108B7A
:10E2D0004A6850556A46128B6D1C4B68A8B2120AE8
:10E2E0001A54401C85B248682049401908390A89E7
:10E2F000C96806F05FFB1D4808380089281885B2F8
:10E3000086E70A986189018011200BB0F0BD184999
:10E31000FF22486842556D1CA8B24B68134D1A5431
:10E32000401C84B24868083D00192A89E96806F053
:10E3300041FB2889201885B28DE7FFE70498002F5C
:10E3400001880A98018000D10A273846DDE7FFE7F7
:10E35000074C28466188F3F7BFFA20807088214671
:10E36000F4F74AFA0028D0D01620CEE778440020EF
:10E37000E8660020FFFF0000F3B5054687B00830CF
:10E3800005902F896888F4F74DF80024001F019448
:10E3900004900498A0426FDB06A8009005980379CA
:10E3A0004188421D3846F6F727FD060064D06A46CC
:10E3B0007789317A6888128BF6F79BFF01900028E5
:10E3C0005AD128790499394B89B2029100220093DD
:10E3D0000192039019460839CB6869460A8B688810
:10E3E0003146F6F7D5FA0190002845D1002C08D027
:10E3F0002F4841882D4808380089801C81423DD132
:10E4000010E013200090688800232A4A0921F6F7BB
:10E41000D5FF27490028486028D0244808380089BB
:10E42000801C4880214808380089011904988142DD
:10E4300022DC1F49B07A4A6810557289641C4B6807
:10E44000A0B2120A1A54401C184E84B24868083E02
:10E4500000193289F16806F0ADFA3089201884B2CB
:10E460001448874295D07F1CBFB292E70898078076
:10E47000112009B0F0BDFFE7002C0DD00C4E204656
:10E480007188F3F729FA308068883146F4F7DEF9AD
:10E490000028EED01620ECE70198002801D10A20D0
:10E4A0000190089807800198E3E700007844002075
:10E4B000E8660020FFFF0000F3B5044687B008308F
:10E4C00005906088F3F7AEFF0646002560E00598EA
:10E4D000690000684018417802780802104306A9D4
:10E4E0000490F6F765FC01001DD02079BAB2334FD5
:10E4F000029200230097019303903A46083AD368AA
:10E500006A466088128BF6F743FA070016D008981F
:10E51000049901802A484068002801D006F0BCFA1E
:10E52000384609B0F0BD089904980880244840682E
:10E53000002801D006F0B0FA0120F2E7204F7868F9
:10E5400000280AD114200090608800231D4A0F2162
:10E55000F6F734FF786000282BD01849388808393E
:10E560000A89521C8218B24202D9321A521E0A81FA
:10E57000134A0F46526810180A89C96806F01AFA39
:10E580000F483989008840180D496D1C0880ADB2CC
:10E5900005988088A84204D90948771E0088B842A7
:10E5A00095DB60880649F4F769F90028B9D0162090
:10E5B000B7E70899049808801120B2E77844002052
:10E5C000E8660020FFFF0000F7B5044684B005466A
:10E5D00017460834008902A9F6F7EAFB030032D097
:10E5E000187A80060ED568460089FFF793FA060070
:10E5F00006D0688812221946B047002802D023E0CE
:10E600000E2021E0607A002801D0522000E0287915
:10E610000026009601906388218868886268F6F772
:10E6200013FB002802D016280BD00DE0607A0028DA
:10E6300010D16888F4F7A2F9002800D0162007B09E
:10E64000F0BD3E7006E00120059922880A80617ABB
:10E650000029F4D00020F2E7FEB54C68089D6678EA
:10E66000277834020E783C43022E02D1054EB44284
:10E6700001D00120FEBD022400950194F6F73EF979
:10E68000FEBD000002290000F8B505461D48854280
:10E6900024D0461C002922D001292CD002291DD1CA
:10E6A0000121284601F082FD002817D12846FEF7F7
:10E6B0009FFC040012D0A0780026FF280DD0FE2871
:10E6C00006D00096E0781E2314222946FEF712FD9C
:10E6D0002046FFF7DAF9FF20A0702671F8BD284622
:10E6E000FEF786FC0028F9D13046FEF781FC0028B1
:10E6F000F4D00580F8BD2846FEF77AFC0400F9D076
:10E700002680D8E7FEFF000038B5040010D0A078BE
:10E71000FF280DD0FE280BD0002000902188E07843
:10E720001E231722FEF7E6FCFE20A070FF20E070FB
:10E7300038BD10B50C46FEF75BFC002806D0027908
:10E74000511CA14202D1D109C901017110BD0000C3
:10E75000F7B5887800258AB00C461E2802D012280A
:10E7600019D115E00A98FEF743FC050025D0A878DA
:10E77000FE2822D0FF2820D000200090A378E8783F
:10E7800000220A99FEF7B6FC2846FFF77EF914E04E
:10E790006078012814D00A98FEF72AFC05000FD0F3
:10E7A0002A79002A0CD0100607D4A1780A98FFF71E
:10E7B00075F9287980210843287100200DB0F0BD3B
:10E7C000A1784808C200344810188038876FC66F97
:10E7D00032484078FF280DD019290BD2002F09D0DC
:10E7E000002E07D02078002802D16278002A03D0BA
:10E7F000122901D006274CE003A90091A388617873
:10E80000A268B847070044D103A90A98B047070097
:10E8100020D0607800283CD1A078694608710F723A
:10E82000A0780E280FD08889C88001A90A98F3F72C
:10E8300055FD07002DD001AB012216210A98F6F7ED
:10E8400011FC074625E0039841780278080210433E
:10E850006946E9E7A378042B1BD003A800900F4872
:10E86000002240780A99FEF745FC070011D1A178F3
:10E8700003A8FEF7F5FB002802D00C9900200870D1
:10E88000A078122802D16178012902D0002D00D091
:10E890002871384692E70000805101007044002042
:10E8A00000B50346F6F7CFFC002802D01818401E2A
:10E8B00083B2184600BD10B51924A401624306F0C6
:10E8C00049FB10BD10B5040008D02078FF2805D002
:10E8D000FE2803D006F0C0FBFF20207010BD000012
:10E8E000FFB581B00A9D1E4617460446FF2D12D083
:10E8F000234608331E2221460848FFF7DCFF6572D5
:10E90000A77066600298002805D0014620461822AC
:10E910000C3006F04FF805B0F0BD0000A9CD0000A6
:10E92000FEB50746087A16460D46002802D1687AD9
:10E93000002802D002242046FEBD01A93846FEF779
:10E9400079FB0400F7D129463846F3F7F1FF0400BC
:10E95000F1D1044B1322002100960198FFF7C0FF6C
:10E96000E9E7000039270000F7B50F4604465321B8
:10E97000102006F03BF806465321102006F036F82A
:10E980000546002E34D0002D2DD01022002106F097
:10E9900009F9324629462046F8F70FFA040023D138
:10E9A0003078000609D52946304601F023FA3A4668
:10E9B0001349284606F0C2FB03E03946304601F011
:10E9C00019FA3878000609D52946384601F012FAB6
:10E9D0000B492846029A06F0B1FB05E03846029939
:10E9E00001F008FA00E01324304606F055F800E084
:10E9F0001324002D02D0284606F04EF82046FEBD16
:10EA0000F9510100F8B5069800261D4614460F4638
:10EA1000002801D00B20F8BD38780021022801D051
:10EA2000198016E078684278037810021843294B61
:10EA3000C21A984225D007DC274A801A0BD0012839
:10EA400017D0022804D13DE0012A1FD0A32A39D0D3
:10EA5000298001263BE0F86806F035FB82B2079872
:10EA6000824200D902462A80F968204605F0A2FFBA
:10EA70002DE0F8680221008829802070000A60706B
:10EA800025E0062028800246F968EEE7F8680028AD
:10EA900016D008212980017821700188090A617047
:10EAA0008178A1704188090AE1700179217181881A
:10EAB000090A61718179A171C088000AE07106E0DC
:10EAC000298004E001202880F86800782070304612
:10EAD000F8BD0000032A0000002A000010B50B78E2
:10EAE000840702D50224234301E0FD2423400B7058
:10EAF00003060B7802D58024234301E05B065B0EFE
:10EB00000B7003070B7802D50824234301E0F72498
:10EB100023400B7083060B7802D52024234301E0A9
:10EB2000DF2423400B708221084203D1010701D466
:10EB3000810603D510780C21084304E0002803D196
:10EB40001078F3210840107010BD0000FFB581B0AF
:10EB5000087800240A9E1F460D46022813D16868D3
:10EB60004178027808021043394A811A90425ED0F7
:10EB700005DC3849401A0AD0012804D12DE00129CA
:10EB800043D0A42962D00124204605B0F0BDE86836
:10EB900006F099FA80B2864205D8F019009015283F
:10EBA00003D90D24F0E70724EEE7E8683A46801918
:10EBB000039905F0FFFE0098162180B20A1AE96851
:10EBC0000818002105F0EEFF234880680028DBD0FC
:10EBD0000268002AD8D0002112E0002E13D1022BA7
:10EBE000DFD10398E968427803781002184308805F
:10EBF000194880680028C7D00268002AC4D00121C3
:10EC000001989047C0E70B24BEE7002EFBD1062BEE
:10EC1000C7D10622E868039905F0CCFE0E4880684B
:10EC20000028B1D00268002AAED00321E8E7002E08
:10EC3000E9D1012BB5D103980078002803D0012831
:10EC400001D08024A0E7E96808709DE703249BE7D2
:10EC5000022A0000002A0000C0430020FFB581B056
:10EC60000498164600280CD00121019801F09EFA64
:10EC7000002809D0214F00253878002E06D0387999
:10EC800005E0012005B0F0BD1420FBE73D79854289
:10EC90001AD23A6929018C186188002902D06D1CAA
:10ECA000EDB2F4E7002C0FD0002E0FD01449202035
:10ECB00005F09CFEE060002806D02022002105F02F
:10ECC00071FF4035658003E01520DBE70020E06040
:10ECD000002020700198E080002E08D0707A207209
:10ECE000B88AE168301A00110009087701E002983B
:10ECF0002072049804600020C4E70000E044002073
:10ED0000024C00000A7802700A88120A42700B88CE
:10ED10000222012B02D0022B07D011E08A788270E8
:10ED20004988090AC17004220AE08A7882704A88F8
:10ED3000120AC2700A7902718988090A4171062291
:10ED4000104670470A7802700A88120A42708A7860
:10ED500082704A88120AC2700A7902718A88120A7D
:10ED600042718A798271CA88120AC2710A7A027261
:10ED70000989090A41720A2070470A7802700A88D4
:10ED8000120A42708A7882704988090AC170042088
:10ED900070470A7802700A88120A42708A78827074
:10EDA0004988090AC170042070470A7802700A88ED
:10EDB000120A42708A7882704A88120AC2700A79EE
:10EDC00002718A88120A42718A798271C988090A95
:10EDD000C171082070470A7802700988090A4170D9
:10EDE00002207047F8B50D460646002417E0396941
:10EDF00020014718387800280FD0F888B0420CD18D
:10EE0000072D02D17888F7F75DF82A4600213846A9
:10EE100000F0EDF9384600F0FFF8641CE4B2164F3C
:10EE200038798442E3D3002D18D0F8BD3969200128
:10EE30004518287800280FD0687AFF280CD0E88879
:10EE4000B04209D1284600F0B9FF1421284600F04D
:10EE50004EFA284600F0E0F8641CE4B238788442A8
:10EE6000E4D304242046641CE4B2FF22314600F0BF
:10EE7000EDF8082CF6D3F8BDE044002070B5044648
:10EE80000D464088F7F71EF82A460021204600F07C
:10EE9000AEF9204600F0C0F870BD0000F3B5488818
:10EEA00081B00D46002803D025490988884201D940
:10EEB0001B20FEBD0421686805F02AFDA9780446E0
:10EEC000017068881F4E010A61702978A170288836
:10EED0000227010AE1706888001D85B20198B042DE
:10EEE00011D10C2005F066FE01000AD090200870B8
:10EEF0004E800F71CD8014488C60007805F0CEFEF6
:10EF000016E01320FEBD23462A460021F6F78AFCB0
:10EF10000E49002807D002280CD007280CD0122850
:10EF20000CD01F28EED10878002801D0401E0870B0
:10EF30000020FEBD1420FEBD0420FEBD0220FEBD4B
:10EF4000EA440020FEFF0000E8440020E1440020E5
:10EF500030B5094C05460021237809E022690801F3
:10EF600080184288002A01D0AA4204D0491CC9B2A4
:10EF70009942F3D3002030BDE044002030B50A4A66
:10EF80000446002113780AE01569080140194588F4
:10EF9000002D02D00579A54204D0491CC9B299427E
:10EFA000F2D3002030BD0000E044002030B50A4B11
:10EFB0000021DC780BE05D690A01AA5A002A04D01E
:10EFC000824202D10801401930BD491CC9B2A14298
:10EFD000F1D3002030BD0000E044002070B50D4D9D
:10EFE000064600222C7910E02B691001C0184388D6
:10EFF000002B08D0C388B34205D1C368002B02D0D0
:10F000005B888B4204D0521CD2B2A242ECD30020C7
:10F0100070BD0000E044002070B5C4680546002CB7
:10F020000CD0E068002801D005F036FD60690028AA
:10F0300001D005F031FD204605F02EFD1022002103
:10F04000284605F0AFFDFF20687270BD0C235843C1
:10F0500010B5094BC418303C608988420BD16068F8
:10F06000002808D0FF2A02D00178914203D105F090
:10F0700013FD0020606010BD30670020F3B5C46848
:10F0800089B00026054602AF002C20D0E068002899
:10F0900002D005F001FDE66020886946488160885D
:10F0A00088812089C881608A4882208A088268888D
:10F0B000088100960197E988287A64230A9A00F06B
:10F0C0003DF90A986077668226820BB0F0BD0C226B
:10F0D0000021384605F066FD68886946088100967B
:10F0E0000197E988287A64230A9A00F027F9ECE767
:10F0F00070B50C46054612220021204605F052FD4F
:10F10000002D1DD0287F01010E484269515A2180EF
:10F11000297F426909018918498861804189A18054
:10F120002988E18069882181A9886181E988A18194
:10F130002989E181297F406909010818C088208256
:10F1400070BD0000E044002010B504460848844229
:10F150000DD0012907D0022909D10121204601F053
:10F1600025F8002803D100212046FFF73BFE10BD03
:10F17000FEFF000010B50721FFF734FE10BD10B5EB
:10F18000040009D06088002806D01721204600F02E
:10F19000AEF82046FFF740FF10BDF0B5002689B05D
:10F1A00015460446002907D000960196E5880A46D0
:10F1B000007A6023294616E01622002102A805F0F5
:10F1C000F1FC6846058102AF002D06D160886946D2
:10F1D0004881391DE068FFF78BFF019700963246A2
:10F1E000E188207A602300F0A9F809B0F0BD10B5DD
:10F1F00088B0002901D000230AE06B469A8142883A
:10F200001A81C368002B02D05A886B465A8102AB20
:10F21000002201930092C4880A46007A60232146A6
:10F2200000F08CF808B010BD7FB5C2680D460446EA
:10F23000002A21D0508869464881622D06D018499D
:10F24000107F096800014018C08812E01548D18875
:10F250000088814200D20846C1B2107C528A801ACE
:10F26000C0B2002A01D1801CC0B24018401EF2F783
:10F2700049FB6946888104E00622002102A805F0C6
:10F2800091FC60886946088102A9002001910090E4
:10F29000E188207A2B46002200F050F87FBD000064
:10F2A000F4440020EA440020F8B5074615460E460F
:10F2B0000C2005F07FFC040017D0A0202070002057
:10F2C00066806070002D05D008222946201D05F0BB
:10F2D00071FB04E008220021201D05F063FC21469B
:10F2E000384605F0DBFC0020F8BD0120F8BD7CB5F8
:10F2F0000446007804280AD0022815D0062813D026
:10F30000032803D100222046FFF771FF7CBD0020B7
:10F3100000900190E5880A46207A1323294600F0E0
:10F320000DF8E188122205E000222046FFF735FFA4
:10F33000E18814220520FFF789FE7CBDFFB581B06E
:10F340001E46174620200B9D05F034FC04001AD001
:10F35000A22020706770029860800A982071667100
:10F36000002D06D0204618222946083005F022FB41
:10F3700005E0204618220021083005F013FC214644
:10F38000019805F08BFC05B0F0BD0000F0B5074614
:10F390000D4C00200146257812E023690A019E5C8D
:10F3A000002E0BD0D218D268002A07D0127F6369D2
:10F3B0001201D218BA4201D1401CC0B2491CC9B2D4
:10F3C000A942EAD3F0BD0000E0440020022A01D2A5
:10F3D000012070474A780B7812021A430280012AF2
:10F3E00002D0022A06D00FE0CA788B7811021943A6
:10F3F000418009E0CA788B7812021A4342804A7928
:10F400000B79110219438180002070470A2A01D02C
:10F41000012070474A780B7812021A430280CA789A
:10F420008B7812021A4342804A790B7912021A43EE
:10F430008280CA798B7912021A43C2804A7A0B7A87
:10F4400011021943018100207047042A01D00120D4
:10F4500070474A780B7812021A430280CA788B7878
:10F4600011021943418000207047042A01D0012075
:10F4700070474A780B7812021A430280CA788B7858
:10F4800011021943418000207047F8B5064600205C
:10F49000706008790D46022825D1E988042922D315
:10F4A000A868427803781702C278807814021F4354
:10F4B0000443381D814216D1042C0AD0052C08D0F3
:10F4C000062C06D0072C04D02046FFF741FD00286B
:10F4D00009D0778034800321C943A86805F018FA61
:10F4E00070600020F8BD0120F8BD022A01D0012083
:10F4F00070474A780B781102194301800020704749
:10F500000A7802704A784270CA788B7811021943DF
:10F5100041807047FEB506461446508800220D46CD
:10F520007F2808D90220694608804A806088888040
:10F53000E9B26A460BE0A188172904D3E0881728AE
:10F5400001D3814207D268460280E9B26A4630465A
:10F55000F6F792FCFEBD02922088FFF727FD070018
:10F560002FD0FFF713FF397A884207D202AB3A4611
:10F57000FF213046FFF772FB002801D0042221E072
:10F5800002982189C068018061884180A1888180BA
:10F59000E188C180B9880181FB68002B0FD0E9B2F6
:10F5A0002246304698470A49024688420AD10298C4
:10F5B0000621017005711E2100F0EAFBFEBD00224C
:10F5C00000E0022229463046029B00F05BFAFEBDB5
:10F5D000FFFF0000F7B5087802278AB013460C46F3
:10F5E00006280AD0122832D0142846D00026162821
:10F5F00050D068460684497878E0A278194602A877
:10F60000FFF723FF050069D168460089FFF7A0FCDA
:10F61000060010D038480090627802AB07210A98A3
:10F6200000F0FCF9022200213046FFF7E0FD3046F1
:10F63000FFF7F2FC51E069460F8408894884488945
:10F640008884617808AA0A98F6F716FC45E0628873
:10F65000194602A8F6F7E3FC05003ED12748818948
:10F6600000293AD0617802AA019200912378807B28
:10F6700000220A99FFF762FE2FE06288194602A86D
:10F68000F6F79EFC050028D1617802AA0A98FFF7D8
:10F6900041FF22E06288194602A8F6F7B0FC050097
:10F6A0001BD1684601890A98FFF798FC002817D0FB
:10F6B000C06869460288498989180904090C0180D3
:10F6C0000BD0C068002808D00D480078002804D06E
:10F6D0000C480121007805F033FB28460DB0F0BD41
:10F6E00069460F844E8408898884617808AA0A983C
:10F6F000F6F7C2FB3046F1E793ED000030670020DB
:10F70000E1440020E8440020F7B588B00D46487871
:10F71000FFF734FC0127044600282FD00020207179
:10F7200060802E78012E06D0072E0AD0132E18D016
:10F73000152E20D022E0AA7802A80A99FFF746FEEB
:10F7400017E02078032819D1AA7802A80A99FFF7B0
:10F750008CFE05004BD1012200212046FFF747FD1A
:10F7600045E02078042809D1AA7802A80A99FFF771
:10F77000BCFE05463BE02078022802D000200BB0FA
:10F78000F0BDAA7802A80A99FFF740FE05002ED125
:10F790006846008A0021002824D168460089024674
:10F7A000403A402A07D26A465289172A03D36A464A
:10F7B0009289172A06D2E16848806088F6F782FBB2
:10F7C00002210FE06A46E068D28902806A46128907
:10F7D00042806A46528982806A469289C2800120AC
:10F7E000207000276846028A2046FFF7D6FC204694
:10F7F00000F0E4FA02A9002001910090207A33463B
:10F800002A460899FFF79AFD002F02D02046FFF7FD
:10F8100003FC2846B3E7000030B587B004464588AE
:10F82000014602A8FFF731FE039900291AD0684665
:10F830000089052819D0042849D0062847D0072870
:10F8400045D002A9284600F059F8002808D0A06841
:10F85000002801D005F020F901212846F6F74CFBDD
:10F8600007B030BD0028F7D0F1E76846408904288A
:10F87000EDD301A8FFF744FE6846C088182809D3D5
:10F8800001206946088217204882497904AA28463F
:10F89000F6F7F2FA68464189C088001D814202D01D
:10F8A0002846FFF767FC68460079039AC00701A95C
:10F8B000284603D0121DFFF727FF02E0121DFFF7B5
:10F8C00089FE0028C3D02846FFF754FCBFE70C216F
:10F8D000484309494018303801880029B7D080785A
:10F8E00002AA2946FFF7E0FC0028B0D1684600894B
:10F8F0000428B1D1B4E7000030670020F3B583B02D
:10F900000D460888FFF724FB060076D0F468002C2B
:10F9100073D0F188039881426FD12089002874D078
:10F92000401E80B22081217F0A013A49096851189E
:10F93000C988884203D163213046FFF775FC6069AE
:10F94000002828D16868417802780F0217436A8836
:10F95000B91C8A420DD10121C94304F0D9FF686066
:10F960006F80307A2A460399FFF79EFC002845D025
:10F970000EE02949384605F039F8606127830121F6
:10F98000C943686804F0C4FF68606888801E6880A6
:10F990006069002837D06A88608B238B11189942E0
:10F9A00001D9042132E0237F1F011A4B1B68FB1889
:10F9B0005B88994225D861690818696804F0FAFFE4
:10F9C0006888618B401880B26083218B884214D193
:10F9D00070886946088060690190208B4880307A81
:10F9E0006A460399FFF760FC002802D0606905F0C1
:10F9F00053F80020606160832083012005B0F0BDD2
:10FA000003E0052102E0092100E006213046FFF76E
:10FA100035FAF2E7F4440020014C0000FFB583B052
:10FA20000E461546022117200C9FF6F7B7FB04007F
:10FA300023D0002F03D0201D0699B84700E00020F6
:10FA400026706570A070010AE1706946001D48804B
:10FA5000052008800A48019400780028039802D005
:10FA6000FFF71CFA01E000F0B1F9050002D02046D2
:10FA700005F012F8284607B0F0BD1320FBE70000A0
:10FA8000E1440020F0B585B015460E4607461C46F9
:10FA90000A22002101A805F085F868468581002D1D
:10FAA00012D1608869468880154800880881E0681E
:10FAB000002809D0134A017F126809018918498872
:10FAC0006A46D180008950810F480090F2B201ABA4
:10FAD00015213846FFF7A2FF060007D0002D05D0FC
:10FAE0002046FFF799FA304605B0F0BD012020709E
:10FAF00000202071024601462046FFF74EFBF2E748
:10FB0000EA440020F444002045ED00001CB5042820
:10FB10001DD30C210F4A41438C18303C61680029E9
:10FB200015D00D4A1278002A0FD06A461080019134
:10FB30002089508060896946FFF7B0F9002802D01B
:10FB4000606804F0A9FF0020606001201CBD002057
:10FB50001CBD000030670020E1440020F8B5214FB3
:10FB60003E7834462048210100680D182878012885
:10FB70002DD1E96800292AD0C868002827D0088834
:10FB800000281AD019480078002814D016482101FE
:10FB90000068081800F09CF8010003D02846FFF721
:10FBA0006DFA1DE01248641C0078844201D23C705A
:10FBB00001E0002038700120F8BD487FFF2806D101
:10FBC00028466221FFF730FBE968002048770848A3
:10FBD000641C0078E4B2844200D30024B442C1D152
:10FBE0000020F8BDE7440020F0440020E14400205C
:10FBF000E444002010B50520FFF788FF00280ED14F
:10FC00000620FFF783FF002809D10420FFF77EFFBD
:10FC1000002804D10720FFF779FF002801D0012038
:10FC200010BD034800780028FAD0FFF797FF10BDF9
:10FC3000E4440020FFB583B014460D460C9F0E9A95
:10FC40000D991E46062D13D001AB0398FFF706F859
:10FC500000281BD10198052207701C4B428019789F
:10FC6000FF2915D00171491C1970142D14D018E00A
:10FC70006088FFF76DF90190002806D0C0684088C1
:10FC800020800198C0880390E4E7022007B0F0BD0F
:10FC9000012119700171E8E7628001982189C0682B
:10FCA0000181019800960279234629460398FFF7BF
:10FCB000B5FE040003D00198FFF7AEF903E01E2162
:10FCC000019800F065F82046E0E70000E6440020D7
:10FCD000F1B582B00298C4682C48E6880088B0422A
:10FCE00000D20646608A002804D0218A081AB04251
:10FCF00004DB05E0208A801CB04201D285B200E01E
:10FD0000354602212846F6F749FA07003AD06088BE
:10FD10006946088001974D80608A00280BD1207CBD
:10FD20003870208A000A7870BF1CB54201D2258A3B
:10FD300001E0AD1EADB2618AE0682A46411838463E
:10FD400004F038FE02986946C088FFF7A7F806005D
:10FD500003D0384604F0A0FE15E02088401E80B293
:10FD60002080618A491989B26182228A914204D233
:10FD7000002808D1FF20607705E000210298FFF7F6
:10FD80007DF900E013263046FEBD0000EA44002065
:10FD900010B50446064848430649F1F79DFD024662
:10FDA000234609332146044805F0D4F810BD00006D
:10FDB00040420F00710200007FF1000010B50446C0
:10FDC000407A05F049F9FF20607210BD0A880C23C3
:10FDD0005A43074BD218303A5368002B01D01620F3
:10FDE00070474B68536050814888108100207047ED
:10FDF0003067002010B500230F22845C64001C4390
:10FE00008C54835C521EDB09D2B20F2AF5D910BD87
:10FE1000FFB581B01D4617460E46084600F05CF857
:10FE2000002802D0112005B0F0BD144800F054F8AD
:10FE3000040020D065710622A01D0A9904F0BAFDC5
:10FE400066802771019820700025E5620B98207369
:10FE50000C98E0810D9820820E9860820F98A08205
:10FE600000F0B8F82086656300213046A56303F0F2
:10FE700055F80020D7E71520D5E70000FFFF000068
:10FE800070B514460D46064600F026F8002808D046
:10FE90000379C06A00280CD012211940102905D01E
:10FEA0000BE00C48864213D0142070BD002C02D108
:10FEB00003E0D8060CD4052070BDD90601D40F206C
:10FEC00070BD002804D0807EA84201D20C2070BDF5
:10FED000002070BDFEFF000030B50A4A00211378F3
:10FEE0000CE03C2455684C4364196488844203D177
:10FEF0003C204143481930BD491CC9B29942F0D356
:10FF0000002030BDF8440020F0B50C4D00210C4E0F
:10FF10002C780FE03C226B684A43D7187F88B742A1
:10FF200006D09A5C824203D13C204143C818F0BD00
:10FF3000491CC9B2A142EDD30020F0BDF844002015
:10FF4000FFFF000030B50B4A002114780DE03C2380
:10FF500055684B435B191B8E834204D13C204143BF
:10FF60004819408830BD491CC9B2A142EFD30248AC
:10FF700030BD0000F8440020FFFF000030B5134BF7
:10FF80000020134D1C781DE03C215A68414389181C
:10FF90004A88AA4214D0496B002911D00A78012A54
:10FFA00002D0002A04D00BE049780C2903D807E0DE
:10FFB00049780C2904D23C2148435968401830BD87
:10FFC000401CC0B2A042DFD3002030BDF844002066
:10FFD000FFFF000030B5114C0021084623780AE0ED
:10FFE0003C226568424352191579002D01D0128ECA
:10FFF0001143401CC0B29842F2D34808C04381B2BA
:020000040001F9
:10000000012004E0CA0704D14908401CC0B298424C
:10001000F8D30121814088B230BD0000F8440020AF
:1000200070B51348134C007F8107890F80080818AA
:1000300020701BD03C2148430F4904F0D7FC60607E
:10004000002002460D4B07E03C21656841434919F9
:100050004B800A71401CCA6221788842F4DB08494F
:1000600000208300401CCA500C28FADB70BD000041
:1000700098650020F844002001900000FFFF000078
:100080006067002000B5FFF727FF002800D0808AB6
:1000900000BD000030B50F4B00200F4C1A7814E063
:1000A0003C215D68414349194D88A5420BD0496BFD
:1000B000002908D04978C91F092904D83C214843A0
:1000C0005968401830BD401CC0B29042E8D30020AF
:1000D00030BD0000F8440020FFFF000030B5094AA1
:1000E0000020014614780AE03C2355684B435B1915
:1000F0001B79002B01D0401CC0B2491CC9B2A142DF
:10010000F2D330BDF8440020014800787047000069
:10011000F8440020F8B505000FD00024074E084F22
:1001200008E03C207168604340184188B94200D023
:10013000A847641C30788442F3DBF8BDF844002003
:10014000FFFF0000074A00218B00D358002B05D089
:10015000491CC9B20C29F7D31320704789005050AD
:10016000002070476067002010B5FFF7B5FE04005F
:1001700013D06088012102F0D1FEE06A002801D08E
:1001800004F08AFC3C220021204604F00BFD0020F4
:10019000C04360800020207110BD022010BD00B55A
:1001A000FFF79AFE002800D0007B00BD10B50C467A
:1001B0000549884206D0FFF78FFE002803D000795A
:1001C000204000D0012010BDFEFF000010B50C46FD
:1001D000FFF782FE002802D0818AA14201D10120CE
:1001E00010BD8482002010BD10B51421702004F0D1
:1001F000FDFB040015D07022002104F0D3FC0A4856
:10020000846400206071E07108480169616640699A
:10021000A066B020A0710648A0650648E0650648C3
:100220002066204610BD000090670020EC6500208D
:100230003D02010051030100C1030100FEB5414E22
:100240000127B46C3246254620351146687D8C3135
:100250000191936C363300280ED0891D009101283E
:100260000DD0717800296AD01146896C3C31022882
:100270000DD0032826D043E0062218463EE0B07891
:100280000028F9D12F4906229831184636E0084651
:10029000F7F792FE606502F041FB616D00290AD01C
:1002A000887A012807D10220287520460622363098
:1002B0000C3104F07FFB287D022821D02F75062207
:1002C000019919E00846F7F777FE606502F026FB12
:1002D000616D00290AD0887A012807D1022028758B
:1002E0002046062236300C3104F064FB287D0228BB
:1002F00006D02F75009906222046363004F05AFBAE
:1003000011490020FAF769FAE062F2F761FBA06296
:1003100010210520FAF76FFA6073E771032020714E
:10032000E28B0A4DFF240134E878214604F048FEB0
:10033000E878214604F004FD00203070FEBD122054
:10034000FEBD000090670020FFFFFF00CC6500208D
:1003500070B51448846CC06D002821D1A079BF28E5
:1003600001D0FAF705FB252060710F4D00202870A1
:100370000E4959200968086562790D490D48FAF758
:1003800049FA0D480121A28BC078490204F02AFEE7
:100390000320E871B120A07103210848F9F760FE3D
:1003A00070BD000090670020EC65002078420020BE
:1003B00055555500D6BE898ECC6500201913010015
:1003C000F8B5234EB46C207900281ED06079214FF7
:1003D00027281BD2FAF7CCFA6079401C6071002004
:1003E00038701D4959200968086562791B491C4805
:1003F000FAF710FA0320F871B120A0711948012111
:10040000A28BC078490204F0EDFDF8BDFAF7B0FA0E
:100410003078401CC5B235701920E18B8001F1F7AE
:100420005BFAA84202D97879002803D000F020FFB7
:1004300000203070BF20A0710A480121C078490215
:1004400004F02EFE03210020F9F70AFEF8BD00009B
:1004500090670020EC65002078420020555555003B
:10046000D6BE898ECC65002010B51221582004F02C
:10047000BDFA040017D05822002104F093FB0B486A
:1004800004640020E0716071A0712083E06120624B
:1004900007480169E1644069206506482064064810
:1004A00060640648A064204610BD000090670020EC
:1004B000EC650020C10401009D0501000906010052
:1004C000F8B5334D25202C6C015D2846006C263094
:1004D000002902D0012904D00FE02D4906228C31D9
:1004E00009E0A978002903D029490622923102E0C7
:1004F00027490622983104F05DFA0120E0710221BB
:1005000021716073E073A07B224E002700282FD05A
:10051000B088400A20306083A96B002903D1B188DC
:10052000490A40186083286E002804D1B188608B86
:10053000090A40186083608B0C21484380B2132164
:1005400004F054FAE061002801D000210BE00720FC
:10055000F8BD521E8A4204DD02460C32026010468B
:1005600000E00760491C628B8A42F2DCE06920628D
:100570003220B077628A084C1021E07804F020FD28
:10058000E078102104F0DCFB2F700020F8BD0000A3
:100590009067002098650020CC65002010B51348B6
:1005A000046CC06D002820D1A079AF2801D0FAF7E3
:1005B000DFF90F49592009680865252060710D4849
:1005C000002101700221C171A120A0710A48E28AB4
:1005D000C078202104F006FD04210848F9F740FD09
:1005E000627907490748FAF715F910BD90670020AE
:1005F00078420020EC650020CC650020C12A010073
:1006000055555500D6BE898E70B5174E346C60793D
:1006100027280DD2401CC0B26071A121A17100F049
:10062000FBFD1248E28AC078202104F0DBFC70BD9B
:10063000FAF79EF9AF20A07104210020F9F710FD10
:100640003078401CC5B235701920618A8001F1F7FD
:1006500043F9A84203D9064840790028E7D000F0C2
:1006600007FE0020307070BD90670020CC65002030
:10067000EC650020F8B504468079002811D0208F61
:100680002646401C80B220870090608E2546401C84
:1006900060860020A077E17940368035002902D0BD
:1006A00024E00120F8BD207F00281FD0F38E009A9F
:1006B00004280DD3D21A0823181A4243082A13DB40
:1006C000A869012801D3401E0DE0884A401E09E0B8
:1006D000D21A4243082A07DBA869844A401C904288
:1006E00001D352428018A8610098F086E07B27462B
:1006F00002062037002A09DB009806287ED33E2117
:100700002046F6F787F838710220F8BD820635D505
:10071000DF221040E0730020387168680422104323
:10072000686001292AD1A16F6869F1F7D5F870498D
:10073000001D497F401881B22046FF30A186443019
:10074000427C037C10026A4A1843127DD30702D010
:100750001F30400902E0674B5843400C49004018E5
:1007600081B2E186F879D20702D02822504303E013
:10077000614A50434030C0094018E086A07BC10761
:1007800074D0308B009988427FD1A08D7083F07B2C
:10079000F871308A2085B08AA085F08AE085010151
:1007A000B87804F099FC00206086E07900280AD02F
:1007B000208D002851D04E4AA969127DD20741D020
:1007C0002822504342E04A49208D0B7DAA69DB076D
:1007D00002D02823584303E0474B58434030C00918
:1007E00014301018414A904201D352428018A86137
:1007F000708A60850A7DD107014600E073E002D06F
:100800002823594302E03C4B5943C9096961D20787
:1008100001D0002007E0384A384B42435843C00912
:100820001209C000101AC0B22077042801D3491C55
:100830006961208FF086A07E00281ED0204600F03F
:1008400057FA1AE02C4A50434030C009081827498B
:10085000884201D349424018A861708A24496085C2
:10086000097DC90704D02821484305E011E00CE0C8
:10087000214948434030C0096861E07B202108439A
:10088000E073A07B4008400020E0401A000409D437
:100890001DE080071BD5FF200F30005B0099411A37
:1008A000090406D528212046F5F7B4FF3871282021
:1008B000F8BD009981420AD12146FF310A31052253
:1008C000481F04F077F8A07BFD210840A073F8785A
:1008D000400608D53088218F884204D10121A868BC
:1008E00089020843A8600020F8BD00000000C0A8ED
:1008F00098650020C71000007B140000D7A30000FB
:10090000002809D00146803101234A689B021A431E
:100910004A60FF2120300170704770B50146FF31F9
:1009200024310D464A7E097E12020A430146FF31F8
:1009300041314B899A4200D31A460346FF33423372
:100940001A74120A5A741A461C46203A537F167FAC
:100950001A028B8932439A4200D31A460346FF3368
:1009600044331A74120A5A746A7F2D7F12022A4382
:10097000CD88AA4200D32A462275120A627562788F
:1009800024781202098922438A4200D30A461A7542
:10099000110A597500F0A6FC70BD0000FEB50646B0
:1009A0006548016E01297DD9046D6448C07B223001
:1009B0004508304680300B350290B8E0B44202D191
:1009C0002468002C6ED0A07E00286AD1471E0298B1
:1009D00041692046803001904069009081421ED3D9
:1009E0000298826901988069824218D35349097D2F
:1009F000C90702D07D21890200E05149101A8142C5
:100A00000DD90099814202D2F0F766FF0846A8424C
:100A100005D200994908A94200D929460F18781C27
:100A20003FD046493846097DC90705D04549F9F701
:100A30009BFC8904800B04E01921F9F795FCC9059A
:100A4000400A0843401C410870D0E079002811D0CA
:100A5000708D618D88424CD2F0F73EFF0F463749CA
:100A60002846097DC9071ED03649F9F77DFC89045F
:100A7000800B1DE02046628D40304282A28D828232
:100A8000E28DC2820222C2730182318F0A31018358
:100A90000198019A816804200143916001216176E7
:100AA000A07643E046E01921F9F75EFCC905400A4B
:100AB0000843401C400887421BD3618D708DF0F7BE
:100AC0000BFF0F461D492846097DC90705D01D4962
:100AD000F9F74AFC8904800B04E01921F9F744FC7A
:100AE000C905400A0843401C618D4008081A874226
:100AF0001CD9608D4108C81C062801D9C91C00E01A
:100B0000062120464030C18519228900D201914238
:100B100000D911460186A18D8182E18DC182142008
:100B2000A076A08886228021F7F73EF92468002C61
:100B300000D043E7FEBD00009067002098650020CC
:100B4000030002003303000070B5817F490847D1DC
:100B5000C17F002944D1234B418F5A7C91423FD21F
:100B600002460025047CFF3244322946002C03D083
:100B7000517C147C09022143007AC00604D5507DC3
:100B8000127D000210434118002929D0187DFF3141
:100B90002D31C00702D01F314E0902E012484143F7
:100BA0004E0C12480024006DE443114B143698217A
:100BB0000A58018E8A4201D3511A01E0511AC9180C
:100BC0008C4200D90C4600680028F0D10948006822
:100BD0008047A04200D8251AB54201D3012070BD3C
:100BE000002070BD98650020C710000090670020AD
:100BF0000000C0A874420020017AF3221140017263
:100C0000704700000548016D002004E0CA79002A01
:100C100000D1401C09680029F8D170479067002076
:100C20000548016D002004E0CA79012A00D1401C6A
:100C300009680029F8D1704790670020FCB5284961
:100C400005460A6E01248035012A31D9254AD27B16
:100C5000223252080B329646AA690192096D009120
:100C6000002228230199D2436343CB18009915E051
:100C7000814202D1096800291AD00E468036B44656
:100C800076696F69BE4206D1624692699A4201D87E
:100C90009A1A00E0D21A724503D309680029E7D1F5
:100CA00006E0002904D02721095C641CA142D7DC9E
:100CB0000C4A008D641C127D0019E968D20702D02D
:100CC0002822504303E0084A50434030C009081826
:100CD0000649884201D349424018A861FCBD000082
:100CE00090670020986500207B1400000000C0A8D9
:100CF000FCB584461E48006E012835D91D480124E4
:100D0000C07B6546223040080B3086466046403046
:100D10000090C07B401E8035019023E000232820F6
:100D2000A969DB4360430A181148016D13E061456E
:100D300002D10968002918D00E46803677696869A3
:100D4000874205D1B069904201D8131A00E0831A96
:100D5000734503D309680029E9D106E0002904D0CE
:100D60000198641CA042D9D8FCBD00980482FCBD47
:100D7000906700209865002030B501461D4DFF3179
:100D800024312A8C0A77120A4A770B461E316C8C62
:100D90000C70240A4C700A46A98C1976090A5976F7
:100DA0000146EB8CFF3122310B771B0A4B77FF2476
:100DB0001B231F3149344B818C81CB800C811374F0
:100DC000002151740146FF3144310C74250A4D74E1
:100DD0001375002353750C75220A4A750649097D5F
:100DE000C90701D00B2100E00A21828E5200891828
:100DF000C18630BD906700209865002070B504461C
:100E00004034A288C38D91005518EE08418DB3423D
:100E100004D2D01AC000F0F775FD02E02846F0F7C2
:100E20005BFD608070BDF02109580A789207920F2F
:100E30008272032A08D0FF2242750A7810231A40D2
:100E400002744978C17270478A78F5E710B50400DA
:100E50000AD02221F5F7DEFC014620462030017140
:100E600000216173FF21417010BD000070B5044680
:100E7000274800250068002842D12648F5F72AFEB9
:100E800001003DD0087B888122468032E01DD36F6F
:100E9000F930002B30D0026811600160A18F491C2D
:100EA000A18701680D600268E17A51810268A17A28
:100EB0001172194900684A694168E07A2130400995
:100EC00013680B6053684B6093688B60D368CB608A
:100ED00013690B6153694B6193698B61D369401E40
:100EE000CB61203120320006000EE9D10B49088980
:100EF000401C0881002070BDD16701600121CFE74F
:100F0000207A0421484020722574012070BD000021
:100F10007C43002052FF0000EC6500209067002019
:100F2000F0B504468034616F002974D0027A01253F
:100F30009208920002720B7A02261F06002F50DAE6
:100F4000DF072346C133002F25D02A4302721F46F4
:100F50005B7D3F7D4C891B023B439C420CD9437215
:100F60002E4C468F647CA64202D210242243027289
:100F70004A89D21A4A8148E00B68002B07D0274BD8
:100F8000448F5B7C9C4202D210231A4302728A7AFD
:100F900042724E7239E0324302725E7D1F7D4A8991
:100FA00036023E43B24236D981224A72616F0A7AD2
:100FB0002A430A72616F5A7D1E7D4C8912023243A8
:100FC000A21A4A811549428F497C8A4203D2017A8A
:100FD000102211430172597D1A7D09021143417299
:100FE00013E0012B15D0324302728A7A42724E729C
:100FF000616F0968002908D00849428F497C8A42FC
:1010000003D2017A102211430172C5750020F0BD90
:1010100001E02A43E8E70120F9E700009865002095
:1010200070B504460546203420780E46FF2803D0CC
:1010300004F012F8FF202070E07860210843E0708F
:1010400028464030298F428823468918018032463D
:101050002946024803F07EFF70BD0000010901002F
:1010600070B5044605462034A0780E46FF2803D00C
:1010700003F0F2FFFF20A0702B46223332462946B0
:10108000014803F067FF70BDB910010070B5044658
:101090000546203460780E46FF2803D003F0DCFFBD
:1010A000FF2060702B46213332462946014803F069
:1010B00051FF70BD4D0E010070B505000FD0E97BEA
:1010C0002C4609062034002901DB3E2100E00821DE
:1010D000F5F7A0FB207100206873FF20A07070BDA1
:1010E000F0B5064685B004210020F9F784FB0146DF
:1010F00030464030009001822248006E01283CD9E1
:101100000098318F008B0125401A00994F8A982151
:1011100089597843401804901B48C07B223040080E
:101120000B300390781E029025E016482821046DAC
:101130002846484300220499D2434018019013E006
:10114000B44202D12468002C19D020468030416975
:10115000B94205D1019A8069101AF0F7BDFB0A4621
:101160000398824203D32468002CE9D107E0002CC5
:1011700005D00298AD1CA842D7D805B0F0BD0098A4
:101180000582FAE7906700209865002030B50022BC
:10119000074C07E00D889D4202D8D8B2088030BDC8
:1011A000521CD2B2A35C8342F9D8FF2BF2D130BDDE
:1011B0003552010010B515490968CA68520B52032F
:1011C0000243CA603A281FD9114B1A681148816836
:1011D0008902890E16290CD081688902890E1A2984
:1011E00003D28168090C8906F1D1F9F7C1FB00200F
:1011F00010BD3021064CC9438034216081688902CA
:10120000890E1A29FAD31A60012010BD74430020F8
:1012100000E100E000C20040044909680A68400695
:10122000D209D201400E02430A6070477043002089
:1012300010B5F0F7E7FC002801D0012010BD0349EC
:10124000792009680865002010BD00007842002060
:1012500010B5F0F731FD002801D0012010BD034981
:101260007A2009680865002010BD0000784200203F
:10127000F8B519490126886A184D00281AD0804708
:10128000174F04467889002820D0A04201D2214679
:1012900000E00146A04200D32046081A3C2815DD94
:1012A0000D48C06A002800D080476E71F1F79EFD9E
:1012B0007C81F8BD68790021002805D1A868401C10
:1012C000A8600007F5D56E71A96002E06879002872
:1012D000EFD0F1F769FBF8BD98650020EC650020C0
:1012E000CC6500200146FF3144314A7C0B7C110261
:1012F000074A1943127DD20702D01F31490902E083
:10130000044A5143490C828E52008918C1867047A5
:1013100098650020C7100000F0B5FF48FF4E856CAF
:1013200085B0A879B12838D0B3287DD17078C007AE
:101330007BD000247470F9F71BFBF6F729F8F5F75A
:10134000B9FB002816D0014680312A6BCA60AA6A10
:10135000C267EA6A0A606A8C6039CA71AA8C02851F
:10136000EA8C4285AA8A8285EA8AC2856A7B4A71AA
:10137000F6F78EF8EA4EFF21F078013103F090FE87
:101380000121F078490203F08BFE03210020F8F7D9
:1013900067FEEC712C71AC7166E2F07903280ED017
:1013A000F9F7E6FADF49592009680865002030702E
:1013B0006A79DD49DD48F9F72DFA0320F071D74845
:1013C0000078C00730D02A462C460C320021A86E87
:1013D000F9F7CCF900284FD1A06E40788006800E36
:1013E000E072801F1F2847D8A06E00780007000F0A
:1013F000A07201D00128EED1A06E264600784036BA
:101400004006C00F7071A16EB01D0622891C0090AD
:1014100003F0D0FAA07A01280DD1A06E0078C0099F
:1014200070730622204601E005E209E2A16E4E300B
:10143000083103F0BFFAA07A0007000F01280CD191
:101440003420005D022818D02146204606224E3165
:10145000363003F0A1FA00280ED0616D002906D0C5
:101460007079002803D0F07A8009012819D0E07B38
:10147000012841D0002844D0C7E1707B0028FBD070
:10148000F07C80090128F7D1616D082201A8891C30
:10149000F0F799FA22464E3202990198F6F712FDBA
:1014A000D9E7082202A8891CF0F78DFA009A03995F
:1014B0000298F6F727FD012802D000203071A4E140
:1014C00002213171E07B012802D0002809D09CE183
:1014D000616D082201A8891CF0F775FA029901983C
:1014E0000CE0606D3D21C278095D8A42C4D121467D
:1014F00006223E31001D0DE0A16C606CF7F764FB25
:101500000AE03D20005D71798842B5D1204606226F
:101510003E30009903F040FA0028ADD0222002941A
:101520006072626E05211170616E27464870203727
:10153000387D022806D1616D2046062236300C31F6
:1015400003F038FA787DC00702D1387D022804D133
:10155000606E4022017811430170606E21460622C0
:101560003631801C03F026FA7079C00704D0606E13
:101570008022017811430170606E062208300099C4
:1015800003F018FA6A48006880470F302063E08C47
:101590006149C008401DA084086E664F002873D0C2
:1015A000654AD07B223040080B300190107DC00787
:1015B00001D0502000E05220226B80188446002089
:1015C000C04300905448016D51E05B48A28C007DFF
:1015D0000390C0076646104602D02823584303E014
:1015E000564B58434030C0096044B84202D3514B77
:1015F0005B42C01898235B5898421CD80398C007D8
:10160000104602D02826704303E04C4E7043403011
:10161000C0096044B84202D3464E764280198342E4
:1016200001D3181A01E0181AC019019B984219D267
:10163000521CA28416E03046039EF60702D02826EC
:10164000724303E03D4E72434032D2098018B842E3
:1016500002D3384A52428018984201D3C01A01E09E
:10166000C01AC019009A904200D20090096800295F
:10167000ABD101990098884206D8A08C401C80B25A
:10168000A084E18C88429AD3616E208D8873208D6E
:10169000616E000AC873A06A616E000C0874A06ACB
:1016A000616E000E4874616EA08D8874A08D616EAD
:1016B000000AC874E06A616E000C0875616E608C87
:1016C0004875616EA08C8875A08C616E000AC87523
:1016D000616EE08C0876E08C616E000A4876616E7F
:1016E000207D8876A08A616E000AC876616EA07D32
:1016F0000877E08A616E000A48770748626EA0307A
:10170000817A9177626EC17AD177616E027B2031E6
:101710000A70427B616E13E090670020EC65002048
:10172000CC6500207842002055555500D6BE898EE4
:10173000744200200000C0A8986500207B140000BF
:1017400020314A70817B606E494E20308170607B11
:10175000C106606EC90E2030C170307D020602D510
:10176000E022606E10E04206520F09D082070ED1CF
:10177000702318404000626E01432032D17006E0B1
:10178000800704D1606EA02211432030C170607ABE
:10179000626E401D8008B17C80001154354881681C
:1017A0008902890E162930D280688002800E1028A6
:1017B0002BD90298406E4078FFF7FCFC2E485A2146
:1017C000006801650298B321817102982B4A406E2E
:1017D0004078C00080211171317DFF301930C90778
:1017E00002D01F30430902E025494843430C2548F5
:1017F000816B0091816B009A9142F9D1D018B84267
:1018000001D3214940182149C860A879B12802D0E4
:1018100000211F4811E0F9F7ABF8184C00202070A8
:1018200015495920096808656A791A491A48F8F76C
:10183000F1FF0320E07105B0F0BDF8F711FCFAE705
:1018400030790128F7D1F9F793F8002030700A4970
:101850005920096808656A790E490F48F8F7DAFFD8
:10186000B120A8710320F07100210846E5E70000CF
:101870009865002000C2004078420020EC650020FE
:10188000C71000000010004000004057CC65002049
:101890001913010055555500D6BE898EF8B5054679
:1018A000408F401C6887687C002833D1287A00214B
:1018B000E975800840218000032369741843EF21F3
:1018C00008402872687B012229462C461203E03129
:1018D0008034012813D0002872D02E462F4620369F
:1018E000403785286DD06DDC53286CD06CDC4528E2
:1018F000F2D06ADC302869D0332861D13CE1A0689D
:10190000002872D0030606D580218843A0602846AF
:10191000F5F7B4FAE1E083050ED5E87E000607D5B9
:101920002846F7F7E1F8E87EC00701D08220687307
:1019300001204002A1688DE0830706D5022188437B
:10194000A0602846F4F7C2FFC7E0430703D504218F
:101950008843A060E3E0030706D508218843A06020
:101960002846F4F7C3FDB8E0430507D501218902F5
:101970008843A0602846F5F70FFEAEE0C30405D506
:101980009043A0602846F5F729FCA6E0820605D51D
:101990002846F5F7DFFD2021A0680FE0420605D5B7
:1019A0002846F5F7D3F94020A16853E0C2050ED5CB
:1019B0002846F5F77FFAFF21A0680131884357E0F8
:1019C00088E023E16EE0EDE05FE059E0CEE0420424
:1019D00006D5012292039043A0608FE0012027E109
:1019E000020403D50121C903E8E743E0C20304D59B
:1019F000012109048843A0607DE0820310D5012203
:101A000052049043A0600879400704D50F2128466E
:101A1000F6F720F902E02846F6F70AF9922007E1E6
:101A200042030FD5012292049043A0600879400739
:101A300004D50F212846F6F70DF94EE02846F6F7B3
:101A4000F7F84AE0010508D52846F5F7B8FD01206A
:101A5000A168C0028143A1603FE0010307D50121D5
:101A6000C9048843A0602846F5F7F5FB35E000205F
:101A7000A06032E02846FFF753FA00282AD12CE074
:101A8000482871D0492825D176E065286DD004DC3E
:101A9000552869D063281DD19BE074287CD0752817
:101AA00018D175E0A42872D00CDC992851D004DC40
:101AB000932816D098280DD14BE09A2833D0A3282C
:101AC00008D1B7E0A52862D0B32875D0B42874D067
:101AD000B52873D02846F6F7CFFB2846F6F778FCF2
:101AE000F8BD30791E2809D0012813D02846F6F712
:101AF000C3FB0120687302216068C3E008794007D6
:101B000004D50F212846F6F7A5F867E72846F6F72B
:101B10008FF863E7F88D398E4018400878822846A0
:101B2000F4F70AFFD9E730791E280CD0F88D398EEA
:101B30004018400878822846F4F7FEFEF07801212C
:101B40000843F070C9E72846F6F772F80120687379
:101B5000F4E7F88D398E4018400878822846F4F76B
:101B6000EBFEF17801206FE029E036E02846F6F739
:101B700016FF1620B873B0E72846F6F77DFB012163
:101B80006068490308436060002051E004E055E0CC
:101B90002846F5F7F3FCA0E70120F8712846F5F791
:101BA000D5F89AE700206064A064E0642065BB710A
:101BB0002846F6F73FFE90E749E053E05AE0284612
:101BC000F6F75AFBA87BF7210840A873102160683C
:101BD00045E02846F5F76EF900E72846FF30243047
:101BE000437F077F180238431B2805D908798006F0
:101BF00002D5A0681043A0602846F6F73DFB0120FF
