:020000040000FA
:1000000000800020A50000007D230000AF0000005C
:1000100000000000000000000000000000000000E0
:10002000000000000000000000000000AF00000021
:100030000000000000000000B1000000B30000005C
:10004000B5000000B5000000B5000000B5000000DC
:10005000B50000007D1F0000B5000000B5000000E5
:10006000B5000000B5000000B5000000B5000000BC
:10007000653E0000B5000000B5000000B5000000BE
:10008000B5000000B5000000B5000000B50000009C
:100090000348854600F0D8FE0048004761CE0000C6
:1000A000008000200448804704480047FEE7FEE740
:1000B000FEE7FEE7FEE70000694000009100000057
:1000C0002E4611462D1B804145402D1AC91ABF41AD
:1000D0007940C91B47408946A846210CA4B2204656
:1000E00095B2120C68434D43544351432204240CEF
:1000F000801861412A042C0C80186141340CB6B27E
:100100009DB21B0C32466A4365435E4363432C0435
:100110002D0C12196B413404350C12196B417640C9
:1001200052187341494645468046080C89B20C4630
:100130002E0CADB269437443454370432604240C2E
:10014000891960412E042D0C891968417940784045
:1001500064407F10514142416741404609185A416D
:100160007B41704700B5FFF7ABFF03B451469246A1
:1001700033C922462F46121A8F41B641724077404A
:10018000921BB74184B45A469B460FCA801A9941C4
:10019000BF4178407940C01BB9417740BC4603B4A9
:1001A000FFF78EFF54465D46764000196941724163
:1001B000734192469B463CBC03B4FFF781FF30BCC1
:1001C00066466746704071407240734076106041E9
:1001D000694154415D415240564157410CBC9046E3
:1001E000994612184B415046594644414D414641AB
:1001F0004F4100BD01B590B006B492468B46104603
:1002000030C808300CC9083103B4FFF7ABFF06A8AB
:100210000CC004A842464B460CC006BCF0B48A464B
:10022000934630C90CCAFFF79DFF40464946B04689
:10023000B946C0BC80197941C0BC72417B4106AF50
:100240000FC7BA46404046464F46444145414641A5
:10025000474106BC9446F0B4FFC9001BA941B24116
:10026000BB416440A4416040614062406340001B68
:10027000A141A241A3416646A44655460FC5AB46DF
:1002800080468946FFCE241A8D4196419F414040C9
:1002900080414440454046404740241A85418641BC
:1002A0008741614648405946F0C101B442464B4639
:1002B000FFF758FF01BC844642404340444045405C
:1002C00046404740F0B408A9F0C949464140A2461B
:1002D00044464010604054466041694172417B4150
:1002E00064406441A2460CACF0CC001969417241F3
:1002F0007B41A1460CAC0FC40FBC4C4644414D4160
:1003000056415F410021494150468A4640100FBC8A
:1003100044414D4156415F41804608A8F0C04046E7
:1003200066465546644075416641401971417241C7
:1003300073410CAF0FC7FFBC1B184C4155414641E0
:1003400090469946A246AB46B4464F413CBC42411A
:100350004B4100267441754176413F1A8A4140461F
:10036000494683418C4100208541864160464018C2
:10037000844650464741BE46404642414B41444177
:100380004D4100277E4103BC361879417F415846D4
:100390001218904662465341994653465C41A24624
:1003A00045415E41414114BC7A4100277C417F4177
:1003B000ED1A8641634670469941824100239C4173
:1003C0009F41A646BB46544624185D4167467E4180
:1003D00041417A417746474158465841DB1A8246A7
:1003E00040465841BB464F465F418446B9465C4152
:1003F0009D419E41994101239A4100235846574609
:1004000058419F419046624683464B46D2197B41F4
:100410007C41002045414641414101BC7CC0012551
:100420003D4042465B466A417B410EC000BDA0B2E2
:10043000210C02464A4340434943D30B52048018DF
:100440005941641BB6417440A41BAAB22B0C15463B
:100450005D4352435B43EE0B6D045219734100261A
:1004600052187341250CA4B22146694364436D437D
:10047000CE0B4904641875411146091BAA411D465B
:100480000026B34109186A417341704700B5204600
:100490002946801BB941924150405140801A9141F8
:1004A00080468946B246FFF7C2FF54463D46824623
:1004B0008B4694461F46FFF7BAFF64460019794100
:1004C000724173411F468446444688464D469146D4
:1004D000FFF7ADFF644645464E46241A8D4130462F
:1004E000394690419941002296419741524612194E
:1004F0005B466B416446444145464D4100204641C0
:1005000047415046594600BD01B590B002B4F0C90C
:10051000FFF7BCFFF0B405AC0FC4049C1034F0CC62
:10052000FFF7B4FFA046A946B246BB46F0BC00198F
:10053000694172417B4144464D4656465F4680467E
:10054000002044414541464147414046FFB4089C94
:10055000FFCC241A8D4196419F4180414440454043
:1005600046404740241A854186418741FFF78EFF68
:10057000C043C943D243DB43E443ED43F643FF4367
:10058000A046A946B246BB46241BF0BC6041694167
:1005900072417B41A44609AC0FC4644640466041A9
:1005A00080464946694189465246724192465B46B9
:1005B0007B419B4600204041844605A8FFC80019A6
:1005C000694172417B4109AC0FC46846F0C841469D
:1005D0004C4149464D4151464E4159464F410DA867
:1005E000F0C0F0BC61460022D24351410A116418A8
:1005F000554156415741F0C001B09CE601B519C9BB
:10060000E0CA401973417C4180469946A24660C9C0
:1006100018CA5D4166411AC985CA414153417C41AE
:1006200000277F41001A4246B8464F46A14654462D
:10063000424192464741BB46444185418641814102
:100640000120834100204A4642414746874198465F
:100650005B4693465246D9E601B519C9E0CA401B2C
:10066000B341BC4180469946A24660C918CA9D4123
:10067000A6411AC985CA81419341BC41BF41424646
:100680009846A3464B465446C0E6012102C00021CD
:10069000002206C006C006C002C020387047F0B570
:1006A00001A2FFF7A7FDF0BD03000000000000005D
:1006B000FFFFFFFFFBFFFFFFFEFFFFFFFFFFFFFF4F
:1006C000FDFFFFFF04000000F0B5002200230CB482
:1006D0000CB40CB401220CB46A46FFF78BFD08B0D1
:1006E000F0BD01B50FA200F0E3F80098403005A17D
:1006F00000F020F804D003A00099403100F01AF86F
:1007000002BD0000DFBDC42962DF9CD89030847830
:10071000CD05F0ACD62E21F7AB20A2E534488704F6
:100720001D0630DC402030211311134113411341C9
:100730000145000070B56D1BEE43082208C810C9C2
:10074000A34132441242F9D16D41284670BDF0B543
:1007500001246542A846A41A082620C980CBAF41CF
:10076000574365432F4480C046443642F5D1F0BD1F
:1007700030B53CC93CC03CC93CC030BD202202441D
:100780000B780370013101309042F9D17047F4B514
:10079000042641B40027B846B946BA46BB46BC4613
:1007A000BE4602987840EFF30080800F1CC9424398
:1007B0004343444390449944A2441CC942434343A5
:1007C000444393449C44A64448310137082FE8D160
:1007D00041BC42464B4654461CC05A46634674468A
:1007E0001CC0F839F839F839013ED2D1F1BD0EA25A
:1007F0005EE001A25CE00000802030138010401415
:10080000502161105111711130433022531585155B
:100810003213414402104022131123430032324369
:10082000034242122144000080207815603160406C
:10083000011000510130002170244022641444331F
:100840001343434101100244000081460F460FCF7D
:10085000C607F517F60F0024401969416A41634144
:100860000FB40FCF6041614172416B41002464417C
:10087000E7075E083743DE0755082E43D5074C08C7
:100880002543CC0743081C43C30748461030F0C03B
:100890001F460FBC5E083743DE0755082E43D507B9
:1008A0004C082543CC0743081C434846F0C070471A
:1008B000F0B598B020230C46CD18EE1870B404465D
:1008C000C518EE1870B406ACE518EE1870B43C24E8
:1008D0006D461388023204B49A002240AA5899083F
:1008E0002140695898092040285804A59E0A2640AE
:1008F00003D0AE59B04704BCE9E722B0F0BD000018
:10090000F501000009050000FD0500005906000082
:100910004B08000005B5002907D002B40198014634
:10092000FFF7F2FD02BC0139F7D103BC0246FFF725
:1009300061FC00BD01B5FFC8FFB4089801216A46FB
:10094000FFF7E8FF0898FFC8FFB410980146FFF7CB
:10095000DBFD10980146FFF7D7FD1098FFC8FFB4E4
:100960001898694608AAFFF745FC08A81899FFF7E8
:10097000FFFE189F00240CA210570132155D86005F
:1009800004D588B068463946FFF7F2FE3846F1B222
:100990002A466A4490B4FFF7BDFF90BC0234162C7F
:1009A000E9D131B000BD000001208200840088A0A0
:1009B00020000800042002400180016000A0F1B581
:1009C0004030FFC8FFB46846FFF7B4FF694688B0FF
:1009D0006846FFF799FD08A96A460846FFF70AFC32
:1009E000694610980246FFF705FC08A910982030C8
:1009F0000246FFF7FFFB11B0F0BD4242C3171340A0
:100A0000D217104018437047F0B544464D4656463D
:100A10005F46F3B4C0B01E0408A81146FFF7AEFE4F
:100A20006846FFF732FE08A86946FFF783FE01D14A
:100A300042B0C4E008A870A1FFF77CFE0138F7D0EF
:100A4000684608A90A6801231A405A4016446AA356
:100A5000FFF77DFE18A900980007000F01226C46E1
:100A600001255308E35CD7077F0FFB401B071B0FD3
:100A700001271F406F403F01C01B087001312B430D
:100A800018460132402AECD108704199E0B0E0B03C
:100A90006846FFF773FEFFF771FE68464EA1FFF749
:100AA00049FE013802D160B060B0C1E708A84AA190
:100AB000FFF740FE0138F6D068466946FFF7EFFDC4
:100AC00008A808A9FFF7EBFD6846FFF70AFE002813
:100AD000E9D010A8FFF7D9FD0146FFF7E0FDA8A86F
:100AE0006946FFF784FE18AC07252046A8A9FFF742
:100AF0003FFEFFF73DFEFFF73BFE20460146603913
:100B0000FFF777FE6034013DEFD1E8AF013F387861
:100B1000013F40B2FFF771FF4208C0A86946FFF7E6
:100B200036FED8AD0424C0A80146FFF760FE013CA4
:100B3000F9D13878013F40B2C40FFFF75EFF420899
:100B4000E8A86946FFF723FEF0A80146224622A343
:100B5000FFF7FDFDAF4203DAA8A8C0A9FFF747FEE3
:100B6000C0A8E8A9FFF745FEAF42DBDA6846FFF709
:100B70008CFDD0A86946FFF7DDFD821DE8A818A905
:100B8000FFF705FE74B074B06846FFF718FF6846BB
:100B90006946FFF799FD08A808A9FFF795FD08A881
:100BA00008A9F2B20CA3FFF7D2FD18986946FFF727
:100BB000E5FD360C01D0FFF7E1FD01201AB0F0BCD5
:100BC000A046A946B246BB46F0BD0A4612A1012383
:100BD0001AE7002318E70000FFFFFFFFFFFFFFFFFA
:100BE000FFFFFFFF00000000000000000000000009
:100BF00001000000FFFFFFFF512563FCC2CAB9F3EB
:100C0000849E17A7ADFAE6BCFFFFFFFFFFFFFFFFC3
:100C100000000000FFFFFFFF96C298D84539A1F4FD
:100C2000A033EB2D817D0377F240A463E5E6BCF8A9
:100C300047422CE1F2D1176BF551BF376840B6CB74
:100C4000CE5E316B5733CE2B169E0F7C4AEBE78E70
:100C50009B7F1AFEE242E34F30B50B46014600206F
:100C60002022012409E00D46D5409D4205D31D46B2
:100C70009540491B2546954040191546521E002DAA
:100C8000F1DC30BD70B500242546002801DA0124CE
:100C90004042002901DA01254942FFF7DDFFAC425D
:100CA00000D04042002C00D0494270BDF8B500246D
:100CB0002546002904DA0E46012400214042B141B4
:100CC000002B04DA1E46002352420125B34100F0F6
:100CD0007AF88C4617461E46AC4203D000254042A7
:100CE0008D41AC46002C02D0002657429E41614601
:100CF0003A46334601B0F0BD10B5202A04DB014668
:100D0000203A9140002010BD914020239C1A0346B8
:100D1000E3401943904010BD10B503461C460C43F8
:100D2000A40703D009E010C9121F10C3042AFAD285
:100D300003E00C781C70491C5B1C521EF9D210BDDC
:100D4000D2B201E00270401C491EFBD27047002263
:100D5000F6E710B513460A4604461946FFF7F0FFBA
:100D6000204610BD421C0178401C0029FBD1801A8E
:100D7000704710B5002200E0521C835C8C5CA342DB
:100D800001D1002BF8D1D8B2E1B2401A10BD30B574
:100D900004460020034600E05B1C934203D2E05C63
:100DA000CD5C401BF8D030BD30B505460020034671
:100DB00000E05B1C934205D2EC5CC85C201A01D1B8
:100DC000002CF6D130BDF0B51FB40646002082B02D
:100DD00005464024019100901BE0019922460F46F0
:100DE000304600F020F8049A059B801A994110D3F0
:100DF000104619462246FFF77FFF361A8F410197AA
:100E0000224601200021009FFFF776FF38184D4150
:100E100000902046641E0028DFDC019B00982946D4
:100E2000324607B0F0BD10B5202A04DB0846203A50
:100E3000D040002110BD0B46D340D0402024A21A40
:100E400091400843194610BD064C0125064E05E0A9
:100E5000E36807CC2B430C3C98471034B442F7D3DB
:100E6000FFF71AF92C5C01004C5C010070B58C187E
:100E70000578401C6B075B0F01D10378401C2A11D9
:100E800006D10278401C03E006780E70401C491C15
:100E90005B1EF9D12B0705D40023521E0DD40B7015
:100EA000491CFAE70378401CCB1A921C03E01D781A
:100EB0000D70491C5B1C521EF9D5A142D8D30020ED
:100EC00070BD00000448C17E80221143C1760F210D
:100ED00001762121417670474010004010B5124C38
:100EE0002068C0051FD50320206000200821401C79
:100EF0002268C0B20A4322600EE02268920510D434
:100F0000222807D90948026B002A0AD001210320B0
:100F1000904706E0401CC0B22268D205EDD50028FB
:100F2000E5D10020206010BD80C300402C2E0020A1
:100F300070B514460D460646FFF7D0FF2D480368EE
:100F40001968062291431960316899627168D96203
:100F5000B1681963F1685963296899616968D96151
:100F6000A9681962E9685962596802229143596077
:100F70005D6801210D435D601D680D431D6000E04B
:100F800000BF59688907FBD5596891435960996931
:100F9000217001688969090A617001688969090C11
:100FA000A17001688969090EE1700068C169217149
:100FB000C169090A6171C169090CA171C169090E90
:100FC000E171016A2172016A090A6172016A090C00
:100FD000A172016A090EE172416A2173416A090A2C
:100FE0006173416A090CA173406A000EE07300202E
:100FF00070BD0000DC02002010B500F0EFFF0249D8
:1010000000F01AFF002010BD060400000148006E29
:10101000704700000C34002010B501F0B9F810BD85
:101020000A7802700A88120A42704888801C80B2CE
:1010300070470000064910B5884202D100F02EFF2B
:1010400010BD0BF065FC0028FAD1172010BD000080
:10105000FEFF000038B505464A6800200C46002A0D
:1010600003D00321104612F0B7FD009023461B2247
:101070000249284604F078FB38BD0000211000002A
:1010800010B5094803F08EF8084C207004F0FEFDFE
:1010900000F03EFE064800F0F3FE19229201022104
:1010A000207812F0EFFF10BDB51000000000002006
:1010B0000DC5000070B5164D0C46880707D54B22AC
:1010C00052010221287812F0DDFF02201DE0E00726
:1010D0001CD00F481430808905F064F800280DD02A
:1010E000012006F039FD0B490BA003F00BFA0EA00E
:1010F00003F008FA11A003F005FA05E019229201A5
:101100000121287812F0BEFF0120604070BD000070
:1011100000000020484F01004150505F44424720EA
:1011200025733E20000000004C6F7720706F7765BC
:101130007220656E61626C65000000000A000000AC
:1011400004480349006801600349C1627047000018
:10115000A5220801E0020020784E010010B5074CDE
:101160005D202168086501F0C3F920680021016550
:1011700003484279521C4271C17110BDF001002038
:10118000802E002070B52C49002048602B48008933
:101190002B4CC0B28109022904D0012908D0810951
:1011A00016D026E0C820A0801020E080E8201FE0B4
:1011B000C506ED0E2D2029468001FFF74DFDA080CC
:1011C00029467820FFF748FDE08029461D480DE0BC
:1011D000C506ED0E2946C020FFF73EFDA08029463A
:1011E0000820FFF739FDE0802946E820FFF734FDAD
:1011F00020811649144808601649154808601749A7
:101200001548086017491648086018491648184CD0
:101210000860184920680122D202086180184861DC
:101220000120487100F062F9607D002802D1124966
:101230002020086070BD0000F40100200010004074
:10124000602E0020980D000000C00040E402002045
:1012500000C30040DC02002000C20040F00100207A
:1012600000D00040E802002000C10040E002002061
:101270002C2E0020802E002000E100E0F8B556481A
:10128000006881680127C9050025544C544E002987
:101290002EDA81683A0291438160207840060CD5AD
:1012A000504851490068884206D15049886BE06037
:1012B0008A6B9042FAD100E0804720783843207052
:1012C0006570E079062803D043495D200968086508
:1012D000306800280AD001690A68406902430A6040
:1012E00031680868026889680A4302606571A56010
:1012F000394B18688168890521D58168012252021D
:1013000091438160A0783843A070E5703848006848
:10131000C16A89088900891CC1620168D20411432D
:101320000160306800280AD041680A68806802437A
:101330000A603168C868026849690A43026018682F
:101340008168890717D58168022291438160E7701F
:10135000A5705D210165306800280AD001690A681E
:10136000406902430A6031680868026889680A4374
:1013700002606571A56018688168C90715D0816829
:1013800049084900816025706770306800280AD0DC
:1013900041680A68806802430A603168C868026868
:1013A00049690A4302606571A56018688168C906C9
:1013B00003D581681022914381608168490703D574
:1013C00081680422914381608168090703D581689F
:1013D000082291438160F8BDF0010020802E00209A
:1013E000F8010020EC010020D93D00000010004071
:1013F000E002002070B504460068002828D00121D2
:10140000000C4903884223D1A088002820D0204620
:101410000622FF21163012F014FC01281AD0A288EF
:101420000021206812F012FD342200212D4812F014
:101430000DFD342221462B4812F020FC29480622BB
:1014400016300021054612F0FCFB012804D008E00C
:10145000022070BD032070BD23490622284612F0E9
:101460000DFC20488189002902D101214902818196
:10147000827B0121002A00D18173C27B002A01D125
:101480001B22C273027C002A01D105220274427C15
:10149000002A00D14174817C002901D1142181747A
:1014A000817F002901D128218177C17C002908D0C2
:1014B000827FE17C92088918C174617F002904D081
:1014C00005E0817F89082D31F6E702214177806AA6
:1014D000002803D0804703493431488102F01AFEC6
:1014E000002070BD2C2E00200806040010B500F06E
:1014F000A7F800F027FD00F095FFFFF721FE0B4C49
:101500005D202168086501F0A5F801F063FE01F097
:1015100069F800F0EDFF06480121417122680021C1
:101520001165C171FFF7DAFC10BD0000F001002069
:10153000802E002030B58DB0122227A12B4812F04A
:101540008FFB002841D02A4857210170A821017043
:101550005121274AC900403A1181002101702648D3
:10156000244A4261254A0724D3691B021B0A450409
:101570002B43D361816104610169022291430161BE
:1015800034220021684612F061FC1D4800900120C1
:101590004003694688801B20C87305200874012019
:1015A000487414208874FB20800202900D20087774
:1015B0001448089014480A900846FFF71BFF0100E2
:1015C00007D012A002F09EFFFEE718A002F09AFFDB
:1015D000FEE70DB030BD000043483537785F424C20
:1015E000455F4C49425F56312E380000DC50010007
:1015F00040100040FEFFFF0000E000E004ED00E0CE
:10160000100E00205D400000B51C00004C49422037
:10161000696E6974206572726F7220636F64653AD7
:10162000202578202E2E2E0A0000000068656164B7
:101630002066696C65206572726F722E2E2E0A000C
:101640000A48094900680A6902610A6942614969F0
:101650008161C1618268012149030A438260C268D5
:101660000A43C26070470000802E0020E402002080
:1016700030B5104A0346517AFD20842454720E4C32
:10168000A568002D07D0A57B002D04D0A489E51FF7
:10169000FF3DFA3D02D05172FF2030BD7D24E402AF
:1016A000A34205D35360A6201072907A402358407D
:1016B000517230BD001800402C2E0020F8B50446B1
:1016C0000025C00501D00120F8BD11206946087031
:1016D000334E002030707070324F8020787208785E
:1016E00011300870304800790007000F0D2802D033
:1016F000012000F077FE69460878113008702A480A
:101700008179890701D00220F8BD6A46117811312C
:1017100011708179890704D11178442901D15721A9
:1017200031701178113111708079800707D11078EC
:10173000552804D13078572801D1A820707010782E
:1017400011301070307857280ED17178A8290BD13C
:101750001178662908D17C607D21C9028C4201D2B2
:10176000882100E084217972117811311170572895
:1017700009D17078A82806D11078772803D1A6203F
:1017800038727889C5B20020107030707070802077
:101790007872402D01D00320F8BD0020F8BD000074
:1017A000BC0100200018004020100040F7B504469E
:1017B000002682B00D46800702D0012005B0F0BDA2
:1017C0001120694608703D480021017041703C4F6E
:1017D000802078726946087811300870394800799D
:1017E0000007000F0D2802D0012000F0FBFD694624
:1017F00008781130087033498879800701D00220B9
:10180000DCE76A461078113010708879C00705D17E
:101810001078442802D12948572202706A4610786D
:10182000113010708879C00708D11078552805D17B
:1018300022480178572901D1A82141701078113030
:1018400010701E4A107857280ED15178A8290BD154
:1018500069460978662907D17D23DB029C4201D2C3
:10186000882100E0842179726B4619781131197052
:10187000572816D15078A82813D11878772810D176
:1018800000209A230AE07C6002CD39603B7279899E
:10189000241DCEB2402E04D1001D80B2049988428E
:1018A000F1D3002069460870107050708020787263
:1018B000402E01D0032081E700207FE7BC010020FB
:1018C000001800402010004010B504460AF0EAFF5E
:1018D000002805D000781322214600F003F810BD3F
:1018E000122010BDF7B505461E4812261E4F0C46A5
:1018F000814208D1B868002832D00268002A2FD06F
:1019000028469047FEBD1748401C844219D1B8684C
:10191000002806D00268002A03D0284690470028F5
:1019200006D02846029908F0D9FD060005D017E038
:101930007D70029838700020FEBD7D70029838706E
:101940000EE008460AF0AEFF002809D00078A84251
:1019500001D00320FEBD2046029900F071FAFEBDC1
:101960003046FEBDFEFF0000A80400207CB50D46F9
:101970001049044608690022002805D08388A34244
:1019800004D002460068F7E701207CBD002A02D09F
:101990000168116001E002680A6112F0D1F969463C
:1019A000204600F063F80028EFD1002DEDD001991A
:1019B00029607CBDD404002070B50A4C0025A042EB
:1019C00008D1002082008C525218401C95700328C8
:1019D000F8DB70BD09F0C4FA0028FAD004808570E5
:1019E00070BD0000FFFF0000F8B50E4607460699DF
:1019F00000240798002902D00B242046F8BD022BB2
:101A000001D00D24F9E7517812780D0215432946CB
:101A1000814301D08024F0E73846F16800F009F8EE
:101A2000A842EAD02A463846F16800F009F8044690
:101A3000E3E710B509F094FA002800D0807810BDD3
:101A400070B514460E46054609F08AFA002806D1FC
:101A50003146054809F084FA002803D005808470D7
:101A6000002070BD112070BDFFFF000070B5114A4D
:101A70000B46014654690020002C06D0A5686D89EC
:101A80008D4204D020462468F6E7012070BD00286E
:101A900002D02168016001E020685061002B04D071
:101AA0000822211D184612F0E9F8204612F048F9E4
:101AB000002070BDD4040020F0B5104A536919E02D
:101AC0009C686589A84214D39E887219824210D9F5
:101AD00000220CE017013F197F89874205D10029B8
:101AE00000D00D8010010019F0BD521C92B2B2421C
:101AF000F0D31B68002BE3D10020F0BDD4040020FC
:101B00007CB516460C460546FFF780FA1149097860
:101B1000884201D316207CBD01A9284609F00AFAA3
:101B20001728F8D0002E10D00020694608802088A1
:101B3000FFF7C2FF6946088800F00EF8014601224F
:101B400028460AF083FE0028E5D121462846FFF703
:101B500081FA7CBD4505002000B509F0A7F90028F1
:101B600001D0807800BD102000BD0000F8B5069FB0
:101B70001E461546162928D00CDC09291FD004DC86
:101B800005291CD0062911D11BE0112917D01229D3
:101B90000CD118E01D2916D004DC172915D01B29FB
:101BA00004D110E052290ED0D2290CD00124114AC0
:101BB00095420CD1FFF73EFA001B85B20BE00224E0
:101BC000F5E70724F3E70324F1E70524EFE7D2293B
:101BD00001D10C35ADB2601980B2394600F0A2F9DE
:101BE000002805D0002E00D03580614211F0F4FFAE
:101BF000F8BD0000FFFF000010B509F067F90028EC
:101C000001D012F09DF810BD00B5124A0B0002F091
:101C1000A1FC0504071016191F00516B81430AE04F
:101C2000516B81435163116B01431163116A81430D
:101C30000DE0516B01435163116B8143F5E7516B2B
:101C4000814301E0516B01435163116A0143116209
:101C500000BD000080100040054A00211378037089
:101C6000491CC9B2401C521C0629F7D3704700001A
:101C70000806040010B50C480089C1B20B069A0F83
:101C80000A48022A05D0012A04D09A0F06D07D20E6
:101C9000000210BDC906C90E054801E0C906C90EFB
:101CA000FEF7DAFF10BD0000001000400048E80118
:101CB00000389C1CF8B5094CE77E267E657EFFF750
:101CC00001F9A07E01210843A076A07EC007FCD1C7
:101CD000A08BE77626766576F8BD000040100040C0
:101CE00010B5084802F05EFA074C207000F086F844
:101CF00000F00EF862B6054A01214903207812F07F
:101D0000C1F910BD7D1D0000C801002000EE0200D9
:101D10000A480021017041600948026801218905D3
:101D20008A43026002690A430261026810218A4301
:101D3000026002690A43026170470000C00100208E
:101D4000C01000400B4900204A68520200D4012014
:101D50004968C90601D40221084307490A7890421C
:101D600006D00870002803D04968002900D0084731
:101D700070470000C0100040C001002070B50C4644
:101D800009040AD512F0A6F8002801D012F07AF85A
:101D900001212046C903484070BDE00701D0012061
:101DA0000AE0134DA00709D5FFF7CCFFA0220221BE
:101DB000287812F067F90220604070BDA00405D5B4
:101DC000FFF794FB01260B4A760308E060040DD56B
:101DD00009A002F097FB7D22D2010126B60331460D
:101DE000287812F04FF92046704070BD002070BD79
:101DF000C801002000EE02002A2000001CB50C489B
:101E000057210170A821017009492039CA7B072395
:101E10001A43CA730021017000910B4601220191FF
:101E20001146044802F02AF8002002F0EFFA1CBD27
:101E300040100040E407000010B500F009F810BDA4
:101E400010B5FFF7D9F810BD10B5FFF7E5F810BDD4
:101E500070B505460C46062012F000F801000BD0C4
:101E6000912008700F2048708D700120C8700348C1
:101E70008C80007812F066F870BD000062050020CA
:101E800010B504496422486003480221007812F02A
:101E9000F9F810BDC0010020C801002001484089A8
:101EA000704700004405002070B50C4609880546BF
:101EB000042905D0052903D0062901D0072929D1F5
:101EC0006068002826D0012128460AF029FD002854
:101ED0001ED028460AF01CFD0F498D420BD0002869
:101EE00009D16188002906D9208806280ED10B481F
:101EF000008881420AD20A480078002804D021468E
:101F000028460AF035FC70BD162070BD1B2070BD40
:101F1000142070BD022070BDFEFF00004E050020A1
:101F20004505002010B5801D80B2054911F0B2FEB4
:101F3000002803D00521C94311F04EFE10BD00005A
:101F4000034C00000B480A4900688A884261CA882D
:101F5000C2618B884362CA88C2624363C2634364BE
:101F6000C264098981651F2141600349C1607047CE
:101F7000602E0020F00100201F03000010B5FFF7C5
:101F80007DF910BD01460648006D05E0FF225D3277
:101F9000125A8A4202D000680028F7D17047000028
:101FA0000C34002030B50C4A04460948137C00214B
:101FB000406B084D5B1C07E08289A24207D0AA4211
:101FC00005D0491CC9B210308B42F5D8002030BD75
:101FD0000C340020FFFF00002C2E002010B50C4612
:101FE000FFF7D0FF00280FD08179102901D00220FF
:101FF00010BD4E210C54C179002903D03121417309
:10200000002010BD3021FAE7122010BD30B5447811
:10201000037824021B198478C57824042D066419DA
:1020200089B01B1900934479037924021B19847920
:10203000C57924042D0664191B190193447A037A87
:1020400024021B19847AC57A24042D0664191B19ED
:102050000293447B037B24021B19847BC07B2404F2
:1020600000062018181803904B7808781B02C01837
:102070008B78CC781B0424061B19C01804904B796C
:1020800008791B02C0188B79CC791B0424061B1914
:10209000C01805904B7A087A1B02C318887ACC7A4C
:1020A000000424060019181806904B7B087B1B02BD
:1020B000C0188B7BC97B1B04090659184018079070
:1020C00004A96846FEF734FF002009B030BD0000C7
:1020D000F8B507462A48C1780020C04300294BD0F4
:1020E000002F49D027490C6D002C45D00646E079D9
:1020F000012811D1608EA18D88420DD2627B012A08
:102100000AD1254680356A6F002A05D1AA68002ABF
:1021100002D1E27BC02A03D098200159208E0EE024
:10212000091A6869401E41430091A16F0098FEF7AB
:1021300093FD401C80B22086AA6900995118814203
:1021400001D30D1A02E0091A0F480D18AE4200D94A
:102150002E462468002CCAD10C4800688047B04243
:1021600001D8301A06E0B04207D58642F9D2311ABA
:102170000548081838603046F8BD00213960F8BDC0
:10218000602E00200C3400200000C0A8EC010020CC
:10219000FFB583B015460F46FFF7F4FE04003AD0B2
:1021A0002046FF3042300190417D007D0E02064303
:1021B000AE4259D2681E30183146FEF763FD87B231
:1021C0003E48761D06403846704380B20B2111F020
:1021D00061FD009000286FD03848A838FFF7E2FE74
:1021E000002836D0017B81818034616F002915D0B1
:1021F000A16F0860A067A16F00200860A06F4581F3
:10220000A16F012048728020A16F00250872A16F84
:102210000098486017E0022007B0F0BD6067E9E76A
:10222000A06F069B41683046684308180199801CDE
:102230004A7D097D12020A4311466943C91811F00B
:102240001DFD6D1CEDB2BD42EAD3069811F078FD7C
:1022500027E01B48026B002A02D01A49022090474F
:10226000009811F06DFD27E01448A838FFF79AFE9A
:1022700000281AD0017B81818034616F002912D03F
:10228000A16F0860A067A16F00200860A06F458162
:10229000A16F01204872A06F07720698A16F801E7F
:1022A00048600020B8E76067ECE70548026B002A49
:1022B00002D00449022090470720ADE7FCFF000050
:1022C0002C2E0020AA55000010B5044801F06AFF2A
:1022D0000349087200200860486010BDE522000034
:1022E0003032002070B50D4CC80716D00AE0836864
:1022F00042685D086D00D9078560C90F02D0002AC9
:1023000000D090472068002805D0016821606268ED
:10231000824200D161600028E9D170BD30320020D6
:1023200010B5034801F03EFF0249087010BD0000DF
:1023300039230000C402002010B5C8071DD008F0E2
:1023400015FA040013D00020A06020460CF0D8FB42
:10235000002806D020460CF0D3FB8268A1685118F3
:102360008160204611F0CAF9204612F0B7FC0CF04B
:10237000FBFB002112F02EFD002010BD184A0020AA
:10238000917A57250B071649A8264031002B05DB0B
:102390000D700E70937A0824234393720D700E70A3
:1023A000052313810E4F20373B8803246402A34387
:1023B0003B80937A10242343937200220A700123F6
:1023C000BC79E40701D00020FAE77D242401401CF9
:1023D000A042F5D90D700E708B710A70F0E7000005
:1023E00000100040F8B50E4D57260D4C0021A827CF
:1023F000203D0028267027700ED0012068712871BA
:102400000020207001200AF01BFD267027700D208F
:10241000287100202070F8BD29712170F8BD0000DE
:102420004010004070B5314809210068C90181623F
:10243000826C0721090703238A435B07D218826451
:10244000836C0F2212030324934364031B198364D8
:10245000836CCC0023438364C36C0C15A343C36417
:10246000436D802423434365C36B934322029A1830
:10247000C263C36B0A119343A4041B19C363C36BE8
:10248000DC000123E4089B07E418C463C46D0C431B
:10249000C465C56D0C122543C565C56D0E13354366
:1024A000C565C56D9543C565C56AA5435C122C1904
:1024B000C462C46A944305221206A218C262C26AA8
:1024C000032424032243C262C26A24012243C2625B
:1024D000026B120912010263026BF024A243026331
:1024E000026B8A43D118016370BD0000E80200202E
:1024F000FFB53B480068826D012109048A4382656B
:1025000082680A4382600025014680312B468C4652
:102510006E46C168FF240134A143C16041682202B4
:1025200011434160C1682143C1606146C968C90562
:10253000FBD500BF00BF00BF00BF6146C9680C07E4
:102540004168240F914341600F2C01D06D1CEDB206
:10255000002110E0725CA2420BD91A4605E0B718C0
:10256000203FFF7FB754521ED2B28A42F7D1745433
:1025700003E0491CC9B29942ECD3994200D174548A
:10258000032D05D05B1CDBB2102BC2D3002D1ED057
:102590003178082902D93246C91E0DE0042902D932
:1025A0003246891E08E0012902D93246491E03E05D
:1025B000002902D1032132461170816D0F22D20110
:1025C000914332781207520D11438165FFBD826D30
:1025D0000F21C9018A430521C9015118F5E70000FF
:1025E000E802002010B51A480068016D01231B04A1
:1025F0009943016581685C0121438160C2681021B3
:102600000A43C260C2688A43C26000BF00BF00BF05
:10261000C2680A43C260416801221203114341604B
:1026200001468031CA69D205FCD500BF00BF00BF9A
:10263000C969026DC906C90E1A430265026D5209C5
:1026400052010A4302658168A143816010BD000008
:10265000E8020020F0B5FF4887B005686868FF21F0
:10266000013188436860A86A09018843A862E86A62
:1026700010218843E862A8684A031043A86068688C
:10268000084368606868400840006860A86BF24AC8
:102690000321104089034018A86368680123184388
:1026A00068602C46803420694001C10F2069800198
:1026B000C00F0029F7D00028F5D020698606606990
:1026C000B60EC003400E0190686840084000686084
:1026D000A86BE721104009024018A86368681843F6
:1026E000686020694001C10F20698001C00F002986
:1026F000F7D00028F5D020698006800E049060692C
:10270000C003400E06906868400840006860A86BEF
:10271000D321104009024018A86368681843686014
:1027200020694001C10F20698001C00F0029F7D046
:102730000028F5D020698006800E0390606927216B
:10274000C003400E02900398301A06464843FEF735
:1027500099FA0007216A000F09090901084320625C
:10276000262070432721FEF78DFA0007226A000E0B
:10277000F0218A4310432062252070432721FEF771
:1027800081FA0007226A000D0F2109028A431043D3
:102790002062242070432721FEF774FA0007226A82
:1027A000000C0F2109038A43104320622320704349
:1027B0002721FEF767FA0007226A000B0F210904A0
:1027C0008A4310432062222070432721FEF75AFAE1
:1027D0000007226A000A0F2109058A43104320627C
:1027E000700130182721FEF74DFA0007216A000911
:1027F0000F273F06B9430843206270012721FEF7E7
:1028000041FA216A000709010909084320627001A1
:10281000801B2721FEF736FA0007616A000F0909BD
:102820000901084360621E2070432721FEF72AFA3F
:102830000007616A000EF0229143084360621D2088
:1028400070432721FEF71EFA0007616A000D3A1453
:102850009143084360621C2070432721FEF712FA5F
:102860000007616A000C3A139143084360621B2021
:1028700070432721FEF706FA0007616A000B3A123F
:1028800091430843606230461A2148432721FEF7EE
:10289000F9F90007616A000A3A119143084360623E
:1028A0003046192148432721FEF7ECF90007616AF9
:1028B0000009B94308436062304618214843272184
:1028C000FEF7E0F9616A000709010909084360623F
:1028D0003046172148432721FEF7D4F90007A16AA3
:1028E000000F090909010843A0621620704327213F
:1028F000FEF7C8F90007A16A000EF02291430843D1
:10290000A062152070432721FEF7BCF90007A16AD9
:10291000000D3A1491430843A0621420704327210C
:10292000FEF7B0F90007A16A000C3A13914308437F
:10293000A062132070432721FEF7A4F90007A16AC3
:10294000000B3A1291430843A062122070432721E2
:10295000FEF798F90007A16A000A3A11914308436B
:10296000A062300130182721FEF78CF90007A16A18
:102970000009B9430843A06230012721FEF782F91C
:10298000A16A0007090109090843A0623001801B00
:102990002721FEF777F90007E16A000F090909010D
:1029A0000843E06230460E2148432721FEF76AF9CA
:1029B0000007E26A000EF0218A431043E0623046CD
:1029C0000D2148432721FEF75DF90007E26A000D5B
:1029D00039148A431043E06230460C2148432721D2
:1029E000FEF750F90007E26A000C39138A431043DE
:1029F000E06230460B2148432721FEF743F90007E8
:102A0000E26A000B39128A431043E06230460A2121
:102A100048432721FEF736F90007E26A000A391118
:102A20008A431043E062F00030182721FEF72AF9AC
:102A30000007E16A00093A4691430843E062F0006A
:102A40002721FEF71FF9E16A000709010909084378
:102A5000E06203E0E8020020FF00FEFFF000801BC0
:102A60002721FEF70FF90007216B000F0909090163
:102A7000084320633046062148432721FEF702F928
:102A80000007010E206BF022904301432163B00048
:102A900030182721FEF7F6F80007226B000D3914D5
:102AA0008A4310432063B0002721FEF7EBF80007AC
:102AB000226B000C39138A431043206370003018D6
:102AC0002721FEF7DFF80007010B206B3A12904335
:102AD0000143216370002721FEF7D4F80007226B21
:102AE000010A381182431143216330462721FEF742
:102AF000C9F80007226B000939468A431043206356
:102B0000206B00010009206304990398471A2821CB
:102B10003846FEF7B7F80007616B000F0909090195
:102B20000843606378002821FEF7ACF80007616B6A
:102B3000000EF02291430843606378003818282182
:102B4000FEF7A0F80007616B000D0F2212029143FF
:102B500008436063B8002821FEF794F80007616B12
:102B6000000C0F221203914308436063B800381829
:102B70002821FEF787F80007616B000B0F22120473
:102B8000914308436063062078432821FEF77AF8D2
:102B90000007616B000A0F2212059143084360632E
:102BA000F800C01B2821FEF76DF80007626B0009D2
:102BB0000F2109068A4310436063F8002821FEF7BD
:102BC00061F8616B00070901090908436063F800B7
:102BD00038182821FEF756F80007A16B000F0909E5
:102BE00009010843A06338460A2148432821FEF71B
:102BF00049F80007A26B000EF0218A431043A0633E
:102C000038460B2148432821FEF73CF80007A26B09
:102C1000010D0F20000282431143A16338460C21AD
:102C200048432821FEF72EF80007A26B010C0F2065
:102C3000000382431143A16338460D2148432821F4
:102C4000FEF720F80007A26B000B0F2109048A434E
:102C50001043A06338460E2148432821FEF712F89E
:102C60000007A26B010A0F20000582431143A163F4
:102C70003801C01B2821FEF705F80007A26B0009E8
:102C80000F2109068A431043A06338012821FDF76C
:102C9000F9FFA16B0007090109090843A063380186
:102CA00038182821FDF7EEFF0007E16B000F090936
:102CB00009010843E0633846122148432821FDF703
:102CC000E1FF0007E26B000EF0218A431043E0634E
:102CD0003846132148432821FDF7D4FF0007E26B53
:102CE000000D0F2109028A431043E0633846142186
:102CF00048432821FDF7C6FF0007E26B010C0F20B7
:102D0000000382431143E1633846152148432821DB
:102D1000FDF7B8FF0007E26B010B0F2000048243B0
:102D20001143E1633846162148432821FDF7AAFFE5
:102D30000007E26B000A0F2109058A431043E06394
:102D40003846172148432821FDF79CFF0007E26B16
:102D500000090F2109068A431043E0633846182111
:102D600048432821FDF78EFFE16B0007090109099F
:102D70000843E0633846192148432821FDF782FFC4
:102D80000007216C000F0909090108432064384637
:102D90001A2148432821FDF775FF0007226C000E19
:102DA000F0218A431043206438461B2148432821E0
:102DB000FDF768FF0007226C000D0F2109028A430E
:102DC0001043206438461C2148432821FDF75AFF50
:102DD0000007226C000C0F2109038A431043206472
:102DE00038461D2148432821FDF74CFF0007226C7F
:102DF000000B0F2109048A431043206438461E212A
:102E000048432821FDF73EFF0007226C000A0F21EE
:102E100009058A43104320647801C01B2821FDF76F
:102E200031FF0007226C00090F2109068A43104375
:102E3000206478012821FDF725FF216C0007090196
:102E4000090908432064780138182821FDF71AFF82
:102E50000007616C000F09090901084360643846E6
:102E6000222148432821FDF70DFF0007010E606C69
:102E7000F0229043014361643846232148432821CE
:102E8000FDF700FF0007626C010D0F200002824376
:102E9000114361643846242148432821FDF7F2FE9E
:102EA0000007626C000C0F2109038A431043606421
:102EB0003846252148432821FDF7E4FE0007626CCF
:102EC000000B0F2109048A43104360643846262111
:102ED00048432821FDF7D6FE0007626C010A0F2047
:102EE0000005824311436164384627214843282165
:102EF000FDF7C8FE0007626C00090F2109068A432E
:102F000010436064384628214843FDF7BBFE616CDE
:102F1000000709010909084360643846292148432C
:102F20002821FDF7AFFE0007A16C000F0909090178
:102F30000843A06438462A2148432821FDF7A2FE11
:102F40000007A26C000EF0218A431043A064069A89
:102F500002983946801A0A2200905043FDF792FEEB
:102F6000082108430007A16C000D0F2212029143B3
:102F70000143A16400983946C2008018FDF782FE23
:102F8000082108430007A16C000C0F221203914393
:102F90000143A16400983946C000FDF773FE082183
:102FA00008430007A16C000B0F2212049143014358
:102FB000A16400983946C200101AFDF763FE08218B
:102FC00008430007A16C000A0F2212059143014338
:102FD000A1640098062239465043FDF753FE0821AC
:102FE00008430007A16C00090F2212069143014318
:102FF000A1640098394682008018FDF743FE08213D
:103000000843A16C0007090109090143A164009864
:1030100039468000FDF736FE082108430007E16CC1
:10302000000F090909010143E16400983946420093
:103030008018FDF727FE082108430007E16C000E09
:10304000F02291430143E164009839464000FDF7C6
:1030500019FE082108430007E16C000D0F2212023F
:1030600091430143E16439460098FDF70BFE0821C6
:1030700008430007E16C000C0F2212039143014347
:10308000E16431460020FDF7FDFD0007E16C000B17
:103090000F22120491430143E164029A01983146E0
:1030A000871A3846FDF7EEFD0007E16C000A0F2293
:1030B000120591430143E16431467800FDF7E2FDDA
:1030C0000007E16C00090F22120691430143E164FD
:1030D000780031463818FDF7D5FDE16C000709018D
:1030E00009090143E1643146B800FDF7CBFD000753
:1030F000216D000F0909090101432165B80031461E
:103100003818FDF7BFFD0007216D000EF022914336
:1031100001432165062031467843FDF7B3FD0007E2
:10312000216D000D0F221202914301432165F80029
:103130003146C01BFDF7A6FD0007216D000C0F22D4
:1031400012039143014321653146F800FDF79AFDD2
:103150000007216D000B0F221204914301432165EA
:10316000F80031463818FDF78DFD0007216D000A83
:103170000F2212059143014321650A20314678430D
:10318000FDF780FD0007216D00090F221206914313
:1031900001432165696810208143696069684908B5
:1031A00049006960A96A02021143A962E96A014300
:1031B000E962A86B8109039889010143A963A86B9F
:1031C0007F2109068843029909060843A86307B0CE
:1031D000F0BD0000034800684168FF22013211433E
:1031E00041607047E802002070B52548244D427FB9
:1031F000A02020350C464243C907287EEB7E0029DB
:103200000AD0810706D5000600D4102204211846F2
:1032100010F038FF01202EE0A1070ED541070AD596
:10322000000603D508211846283202E0282208218A
:10323000184610F027FF02201DE0610704D500208A
:103240000DF064FD042016E0210705D5400701D5E7
:1032500000F0C2F808200EE0E0060ED509F00AFCE6
:103260000848C079062805D11922E87E920110216C
:1032700010F008FF1020604070BD002070BD0000FD
:10328000982E0020802E002010B5044640690028AA
:1032900017D0202200211B4810F0D8FD2022214603
:1032A000184810F0EBFC174C20346068002801D05F
:1032B00010F046FD0020134960608869002802D0A4
:1032C00004E0012010BD0020C0438861487F002831
:1032D00001D128204877887F002801D108208877ED
:1032E000C87F002801D11120C877FF2020706070AE
:1032F000A070E070487860778868606148682061F5
:10330000002010BD982E0020F8B5174800688047AF
:10331000164EB168814225D0154F884201D3401A1C
:1033200001E0401AC019114D4409203DA87FA04278
:1033300018D800F079F8A87FB2684101241A511812
:10334000B94202D30A4A52428918B160A042F0D968
:103350000848006801686A78C909C9015206520E16
:1033600011430160F8BD0000EC010020B82E0020E0
:103370000000C0A8E0020020F8B5144800688047AB
:10338000134EB16881421FD0124A884201D3401ABD
:1033900001E0401A8018C5060D4FED0E4409203F8C
:1033A000B87F0CE000F040F8B87FB26841015118D6
:1033B000084A241A914201D352428918B160A042AE
:1033C000F0D960012843F8BD0020F8BDEC010020D1
:1033D000B82E00200000C0A870B500F055FB114CBD
:1033E00008212546607F203D68706069A8602069DB
:1033F0006860E07E10F080FEE07E042110F07CFE2C
:10340000207E810704D50022114622206B6905E049
:10341000400704D500226B691146242098470020FC
:10342000207670BDB82E002070B519490E46203E9A
:10343000487EF27F8018C0B27070202801D32038F7
:103440007070C0B2487601252946B46981400C42AB
:1034500016D100210A462B4693401C4201D0491C3C
:10346000C9B2521C52B2202AF5DBFDF7F5FB00224F
:1034700010462B4683401C4205D08A4201D1707011
:1034800070BD521C52B2401C40B22028F1DB70BD0E
:10349000B82E0020FEB5F84AF64F1646F9790025F9
:1034A00010782036052902D0062976D0D4E1C0074D
:1034B0004FD0B878C0071ED0BD70EF4800224369D6
:1034C00011460120984780203871EC48007DC007E4
:1034D00001D04B2300E04E23E948816B0091826BC1
:1034E0008A42FAD1C818E749884201D349424018B4
:1034F000E549C8603AE0F878002837D00024FD702C
:1035000000F0C2FA78690268D1430906090E06D0B4
:103510007178FF2903D0D2B28A4200D00224D64962
:103520000978090601D5002200E00246002102F0D8
:1035300027FB0146D048214343697A690220984716
:103540003D71307E800711D5F07E012110F04CFDD9
:103550000CE0F878002809D0FD7000F095FAC64814
:10356000002243691146012098473D713879C00710
:103570009CD03D7100F088FA09F07CFAB87800061A
:10358000BD48436904D500221146112003E004E040
:1035900000221146122098475EE1C1077AD039789F
:1035A000C90778D07C693D7001AA0021204602F04D
:1035B000E7FA050008D1F078FF2805D02178FF2927
:1035C00002D0884200D00225AB480078000605D41E
:1035D000002D05D168460079207016E0002D14D02A
:1035E00002F0F6FAA4487A6943692946032098470D
:1035F0007068B378F278002802D04178801C01E02E
:103600000021084600F060F905E1307E400718D53A
:103610006078205C802814D1706800280CD039694B
:10362000FF20086095483969807C486097480068A9
:10363000C168490B4903C1608F48102201781143CA
:103640000170706840783A2810D9914C21689148EF
:1036500082689202920E162A10D082689202920E0E
:103660001A2A03D28268120C9206F1D18020387196
:103670008248007DC0070FD04B220EE03022844BE1
:10368000D24380331A6082689202920E1A2AFAD3C9
:103690002160EBE7A0E06AE04E22794B986B009046
:1036A000986B00998842F9D188187649884201D3ED
:1036B000494240187449C8600021774800F088FDED
:1036C000307E844640074DD57C696C4A6078127D17
:1036D000C000A030F968D20702D01F30400902E0D4
:1036E0006E4A5043400C814201D3091A02E0091A84
:1036F00064480918F960B0680A46814201D3121A79
:1037000002E0121A5F4812186378601C185C634666
:10371000C0001B0610D5824208D9121A07E0081A09
:1037200002E0091A57480818B06011E0821A202AEE
:103730000ED88142F5D3F2E7814201D3081A02E0A4
:10374000091A50480818B060604680210843307656
:10375000F07E022110F048FCB07EC0065BD4607899
:10376000801E607044487A692946436951E079783F
:10377000002920D07D703D710021084600F028FD11
:103780003D4C2078C0060FD502F022FA7068B3785D
:10379000F27800281DD04178801C00F095F8207840
:1037A000EF210840207036E000F06EF9002211464B
:1037B000042063692EE03979C9072CD03D712E4C65
:1037C000C006E1D400F060F90022114614206369BC
:1037D00020E000210846E0E7787800281BD000248C
:1037E0007D7000F051F978690168CA431206120E23
:1037F00006D0F278FF2A03D0C9B2914200D0022449
:103800000246002102F0BCF9204301461A487A69B9
:10381000436903209847307E400701D5FFF774FDC8
:10382000174CA06B0090A06B00998842F9D1F0680A
:10383000814201D3081A02E0091A124808187D21B2
:103840000902884208D909F015F9A06B0090A06B15
:1038500000998842F9D1F160B07E400724D5F8790B
:10386000062821D07068B378F278002818D0417803
:10387000801C17E0802E0020982E00202C2E002087
:10388000001000400000C0A8602E0020E4020020CC
:1038900000E100E000C2004095340000C7100000C5
:1038A0000021084600F010F8FEBD000010B5FDF73D
:1038B00069FC034800F076FC0249C876002010BD80
:1038C000E9310000B82E0020FFB5644D0C46286891
:1038D0009C46016881B0134689070ED0016DC90866
:1038E000C9000165016808221143016001680907E8
:1038F00003D500BF00BF00BF00BF59210165584E6E
:103900003068C16A072212059143012252058918C5
:10391000C162C16A07221206914305221206891864
:10392000C162504800680168CA094F49D2014F7806
:103930007F067F0E3A4302604A6882608A680261AD
:10394000CA6842600A69C2602868426809785208F9
:103950005200C907C90F0A434260434F61462037EE
:10396000FB70B9704068C00739D07868002806D16C
:103970004921A01C10F08EF97860002810D0019821
:10398000002810D0002C0ED07968B87808707868BC
:103990002246447078680199801C10F06FF908E0A5
:1039A000012005B0F0BD7968B87808707868002407
:1039B000447079682D484A780069921C10F05EF9CD
:1039C0002B48817C29480269601D800880001150C5
:1039D00028480068C168490B49032143C160B87E8B
:1039E00004210843B876214C4020207000206070EC
:1039F00020710521204800F0EBFB0620E0711F48F4
:103A0000816B0091816B009A9142F9D1FA60316823
:103A10001B4A00200B46803312890FE01C69E40129
:103A200009D5C86A072212051043C862C86A120184
:103A30009043C86204E000BF00BF401C8242EDDC3E
:103A400010480068002804D0C1680A684069024331
:103A50000A602968012008600020A2E7F001002028
:103A6000E8020020E0020020982E0020802E002096
:103A70002C2E0020E40200209534000000100040AD
:103A8000602E0020F801002070B50B4C00250B487B
:103A9000A57605716068002801D010F051F9002169
:103AA0000846656000F094FB0521002000F090FBC3
:103AB00002F08EF8002070BDB82E0020802E00206D
:103AC000FFB5B54F83B038680C460068800701D059
:103AD00002F07EF8B148B24D007E800708D5FFF7AE
:103AE0004BFC1028FBD3A97F490110398142F6D342
:103AF00039685A200865AB480068C26A0721090581
:103B00008A43012149055118C162C26A0721090689
:103B10008A43052109065118C162A348006801685B
:103B2000CA099F49D2014B785B065B0E1A430260BB
:103B30004A6882608A680261CA6842600A69C26033
:103B40003A6853680D785B085B00ED07ED0F2B4377
:103B500053600A7802231A430A70944E8021B17090
:103B60000021F1708D4D0599297006996970C16A1F
:103B700089088900C1620168DA06914301600398EF
:103B8000002809D030692978017044702246801CD1
:103B9000039910F073F802E03169287808607E48D4
:103BA00000684068C00701D0002100E0052180487E
:103BB00000F00EFB7D480521C1717A497D4E0968F0
:103BC00000200B468033328910E01F69FF010AD5BF
:103BD000CB6A07273F053B43CB62CF6A07231B060F
:103BE0009F43CF620AE000BF00BF401C8242ECD876
:103BF00004E000BF00BF00BF00BF401C8242F8D8F5
:103C00006D480068002804D001680A688068024393
:103C10000A60664F802038716848007DC00701D077
:103C20004B2200E04E226648816B0091816B009B25
:103C30009942F9D163499818884201D34942401802
:103C4000F060287E80071ED55F483E690068804787
:103C5000A968884201D3401A02E0411A594808185D
:103C60004F49C0080978C90606D5584902240006FC
:103C700040183969086006E0A41CE4B274700021A1
:103C80003155311948704D483A69817C601D800872
:103C9000800011504E4908688268520B520322433B
:103CA000826080684B4AC004C00C3A2805D910686D
:103CB0000190484B501780331860374B02201B6827
:103CC000186008688068C004C00C3A2861D900BF39
:103CD00000BF00BF00BF00BF00BF00BF00BF00BFEC
:103CE00000BF00BF00BF00BF00BF00BF00BF00BFDC
:103CF00000BF00BF00BF00BF00BF00BF00BF00BFCC
:103D000000BF00BF00BF00BF00BF00BF00BF00BFBB
:103D100000BF00BF00BF00BF00BF00BF00BF00BFAB
:103D200000BF00BF00BF00BF00BF00BF00BF00BF9B
:103D300000BF00BF00BF00BF00BF00BF00BF00BF8B
:103D400000BF00BF00BF00BF00BF00BF00BF00BF7B
:103D500000BF00BF00BF00BF00BF00BF00BF00BF6B
:103D600000BF00BF00BF00BF00BF00BF00BF00BF5B
:103D700000BF00BF00BF00BF00BF00BF00BF00BF4B
:103D800000BF00BF00BF00BF00BF00BF00BF019861
:103D90001060002007B0F0BDF0010020B82E002018
:103DA000982E0020E8020020E0020020802E002053
:103DB00095340000602E0020F80100202C2E0020F9
:103DC000001000400000C0A8EC010020FF028000AD
:103DD000E402002000E100E008B50448816B009196
:103DE000816B009A9142F9D1104608BD0010004045
:103DF00038B51648816B0091816B009A9142F9D1D8
:103E0000134C1046217DC90705D0124900F08AFBEA
:103E10008A04810B04E0192100F084FBCA05410AE1
:103E200011430D4A906988420DD0884201D2081A88
:103E300007E0237DDB0701D0084B00E0084B181A90
:103E40004018916138BD002038BD000000100040CE
:103E50002C2E002033030000602E002000796F0814
:103E600000603D08034930200874034901200860C0
:103E70007047000020100040CC010020FFB581B049
:103E80000C460746054600261AE0FF219131681EC0
:103E9000FCF7F8FE00290AD06421681EFCF7F2FE48
:103EA000002907D00320A9078007C14202D1FF20C3
:103EB0006F3001E0FF206E3080196D1E86B2ADB20A
:103EC00035488542E1D80025012C25D9032C05D0A1
:103ED000A01E062816DDE00718D115E0FF2191315C
:103EE0003846FCF7B9FE00290AD064213846FCF7B1
:103EF000B3FE002901D0B80702D000201C3006E034
:103F00000120FBE7E00701D01E2000E01F20801900
:103F1000641E86B2A4B2D7E7039818213018401E59
:103F200084B20498FCF798FEE120C00041430A984F
:103F30001E22504309180B984008081881B20B98AC
:103F4000C00701D00120C0030A0402431348C17B0B
:103F50006B46C909C9011970C17B1B78C909C90120
:103F60009942F4D1694609780029F0D00B495723CA
:103F700020310B70A8230B70084B203B5C63447C02
:103F80008026344344745A63427C40231A4342746B
:103F90000D7005B0F0BD0000E407000020100040E7
:103FA000002908D0002A02D105E008C808C2491E2D
:103FB000FBD200207047FD207047F7B58CB00C98FD
:103FC00015460F46002831D0002D2FD0381D0A90FD
:103FD00080B253210FF05EFE04003BD006F01CFFC0
:103FE00006463A46201D0C990FF0F4FFF0B20990F6
:103FF000E0703004000E0890A0703002000E0790B0
:104000006070370E277006F001FF0146102201A8EC
:104010000FF0E0FF082000900A9805AB82B221461D
:1040200001A80EF00BFE060002D00FE0022612E0FF
:1040300009982870089868700798A870EF7008228F
:1040400005A9281D0FF0C6FF06F0ECFE20460FF074
:1040500077FE00E0132630460FB0F0BD01488069BE
:104060007047000000E000E010B50B4857210170D8
:10407000A8210170084A8821403A1181018904224F
:1040800011430181002101700A2008F0D9FE0120AE
:10409000FEF7A8F910BD00004010004070B50C46B6
:1040A000014620040AD508460FF014FF002801D06D
:1040B0000FF0E8FE0120C003604070BD6004FCD03A
:1040C000002632462046D040C00713D0002901D038
:1040D0000F2000E000200B4980184968C0004518F7
:1040E0000120904086B229686868884700202860CF
:1040F000686003E0521CD2B20F2AE3D3204670401E
:1041000070BD0000D00100200148406970470000E8
:10411000602E002070B50FF069FE1C2200211E48A1
:104120000FF094FE1C482022002150300FF08EFE2C
:104130001A4D0020286168611748174C1C30007F19
:1041400050348107890F80080818410040180D304D
:10415000C0B2A07006214843FF210231F0300FF0B9
:1041600099FD6860F030A860A17889000818E860BF
:104170000FF0AAFE0FF06CFF6078094A8100A86872
:1041800042506178491CC9B2617089004250607820
:10419000401C607070BD0000102E0020D001002077
:1041A0009D40000010B50849024648788B78984237
:1041B00007D2064C8300A468E2504A78521C4A7029
:1041C00010BDFF2010BD0000602E0020D001002097
:1041D000072902D2014A890050507047102E002052
:1041E000FEB5864D02E0804701F022FD28680028D8
:1041F000F9D10124A0002858002807D080477F4823
:104200001C30407D002801D0FDF738F828680028D0
:1042100075D1641CE4B2072CECD3784C784E503442
:104220006278F06821784B00C35A002B04D1491CF6
:10423000C9B221709142F5D3C9B2914211D24A005C
:10424000815A002383522078B36882009A5890479D
:104250002178F2684900535A034353522078401C96
:10426000207020786178884201D300202070634854
:104270000068002843D17069002840D0804700289A
:104280003DD061690546091861610021C9435C4858
:1042900021610669002E29D00027B068A84201D804
:1042A000002000E0401BB06054481C30406A0028E9
:1042B00004D02169B068814200D92061B06800282B
:1042C0000DD1718800291BD030780FF08DFE7068F9
:1042D000002801D0B06002E0B068002810D07088DB
:1042E00000280DD03746F668002ED6D1434D1C3538
:1042F000686A002803D00020414A617814E07CE01D
:10430000002F06D0F068F8603046F6680FF018FD10
:10431000EAE73B48F1680161F6E7D6684300F35AE3
:10432000002B6AD1401CC0B28142F6D83349032029
:1043300082008A58002A60D1401CC0B20728F7D3F7
:1043400001A8FDF7C5FE02462E49401C24D0EB7C97
:10435000019EB34251D22069471C16D02A7DD20754
:1043600002D01422504302E02922504340088342E5
:1043700043D2864200D23046C61A2348826B00924E
:10438000826B009B9A42F9D11DE09A4201D3D01A68
:104390001FE0D01A40181CE02069421C2DD02A7D55
:1043A000D20702D01422504302E029225043400891
:1043B000EA7C824221D2861A1348826B0092826B79
:1043C000009B9A42F9D19819884202D30D4A524271
:1043D0008018002802D0696A884702E06A6A0846A5
:1043E00090470006000E08D12089002805D0FDF76F
:1043F00027F9FDF7A7FDFCF7A3FEFEBD102E002058
:10440000D00100200000C0A80010004010B50446F4
:104410000848C16A002900D088470748002C01D00D
:10442000046001E005490160054800F00BF8002038
:1044300010BD00002C2E0020EC010020D93D000012
:10444000F13D000010B50349486180470249886189
:1044500010BD0000D0010020602E002010B50446E1
:10446000FDF708FC0A214843C0082146FCF7F4FB8D
:104470000A21401DFCF7F0FB0149888110BD0000B6
:104480000034004010B5E1204002FFF7E7FF054887
:10449000872181700321C170402141700121817306
:1044A00010BD000000340040F0B5144EFD23757AB5
:1044B00084247472124CA768002F07D0A77B002FAA
:1044C00004D0A489E71FFF3FFA3F02D07572FF2096
:1044D000F0BD7D24E402A0420AD34027491E07D341
:1044E000706008CA33609A233372B37A7B4002D07B
:1044F00075721846F0BD001DF0E70000001800407E
:104500002C2E00200FB410B503A9044B044A0298C6
:1045100000F0E8F810BC08BC04B018471DA8000063
:1045200074050020F8B5040C8BB2264682B25E43B7
:104530000D0C1046370C5843360480190021794180
:1045400016466E43370C36048019794126466E4371
:104550008919F8BD30B47446641E2578641CAB42DA
:1045600000D21D46635D5B00E31830BC184702E0D3
:1045700008C8121F08C1002AFAD1704770470020EE
:1045800001E001C1121F002AFBD1704710B51C4683
:1045900013468C4205D822461946FCF7BDFB20463F
:1045A00010BD002010BD0000FFB5044681B080683A
:1045B0000D9E1D460F4600280ED04549096800296A
:1045C00004D1002D02D00A2005B0F0BD41690029B8
:1045D00004D10B99002901D00720F5E7002F40D026
:1045E000039801F0DFFD002870D0A06801218088C9
:1045F000C903421A49108A4204D202F0AFFF0021D7
:104600000FF0CBFFA0684189C904C90C4181A068A3
:104610008780A168039AC8881205000B0003120D59
:104620001043C880012212039043EA07D20CA1680C
:104630001043C880A1680A980872A1680B98887214
:10464000A1680C984872A0684069002836D02046BE
:1046500003F0B0FB0100A0682DD0183007F0F2FE87
:104660002CE080880028AFD00121C903421A4910EC
:104670008A4204D202F072FF00210FF08EFFA06880
:1046800000228280A1680123C8881B03000B00035D
:10469000C880A1689843C880A0680272A06882722E
:1046A000A0684272A0684189C904C90C4181A06810
:1046B0004169002902D0183007F0A6FE002E02D072
:1046C000204604F074FF00207EE7FFE703207BE72D
:1046D0004802002010B502998A78098809F08AFCFE
:1046E00010BD0000FFB591B00F460546002606E05C
:1046F00025280AD0149A139990476D1C761C2878A7
:104700000028F5D1304615B0F0BD002400940121F9
:10471000F34A029400E004436D1C2B780846203BCA
:1047200098401042F7D128782A280ED00221287804
:104730000246303A092A15D8009A0A235A43303AD9
:1047400080180C436D1C0090F1E701CF0090002809
:1047500005DA012040030443009840420090022003
:1047600004436D1C28782E2815D104200443687852
:104770006D1C2A280AD101CF6D1C02900BE0029912
:104780000A225143303940186D1C029028780146A6
:1047900030390929F3D928786C2810D006DC4C2848
:1047A0001AD068280ED06A2817D104E0742813D0D4
:1047B0007A2812D110E00120400504430CE00121C9
:1047C000090501E0032109050C436978814203D101
:1047D0000120000524186D1C6D1C287803906E289C
:1047E0001ED00CDC632831D004DC00288AD0582885
:1047F00011D1B2E064287BD069280CD178E073280D
:104800002DD004DC6F2870D0702804D1A7E0752863
:104810006CD078286BD0149A13999047761C62E07C
:104820006002400F022807D003280AD00428386805
:104830000AD006603F1D56E03868F11706604160F7
:10484000F8E738680680F5E70670F3E738786946D8
:1048500008740020487404A80390012003E038681D
:1048600003900020C0433F1D61070FD5002101E0E8
:104870000199491C029A0191914213DA8142F7DBB6
:10488000019A0399895C0029F2D10BE0002101E033
:104890000199491C01918142FADB019A0399895CD3
:1048A0000029F5D101990098139A401A00902146E9
:1048B000149B00F03BF901998019461807E0039812
:1048C00003990078491C0391149A13999047019811
:1048D000401E0190401CF2D12146149B139A00986F
:1048E00000F014F986196D1C09E741E033E034E06B
:1048F0000A200021049005916002410F022905D091
:1049000001CFC2179446032905D007E0FF1DFF0819
:10491000FF0003CF06E000B2C2179446042902D17B
:1049200040B2C1178C4600226146944506DA0A4619
:104930000021404291418C462D2102E0210504D501
:104940002B216A461176012103E0E10701D02021E5
:10495000F7E7019154E00A200BE0102009E0102055
:10496000049000210420044308200591029003E0F4
:1049700008200021059104906002410F022905D012
:1049800001CF00229446032906D006E0FF1DFF0850
:10499000FF0003CF8C4603E080B2042900D1C0B2EF
:1049A0000021019121072BD50399702906D0049A83
:1049B0001021059B4A401A4305D00EE040216A466B
:1049C0001176012108E06146014306D030216A4694
:1049D00011760399517602210191049A0821059BD1
:1049E0004A401A430CD16146014301D1610707D502
:1049F00030216A461176012101910299491E0291E6
:104A00000399582904D037A103910FA90F910DE004
:104A100039A1F9E76146059B049AFCF7D4F9039B99
:104A20008C469B5C0F9A521E0F9213706146014395
:104A3000F0D10F9807A9081A20300390600704D519
:104A4000012000048443029801E0012002900399B0
:104A5000884201DD401A00E00020411802900198D0
:104A600009180098401A0090E00306D42146149BD0
:104A7000139A009800F05AF886190020049008E074
:104A800006A9085C149A139990470498401C761C58
:104A9000049001998842F3DBE0030CD52146149B76
:104AA000139A009800F042F8861904E0149A302016
:104AB00013999047761C0299481E02900029F5DC54
:104AC00008E00F980F990078491C0F91149A1399D8
:104AD0009047761C0399481E03900029F1DCFBE601
:104AE00009280100303132333435363738396162C4
:104AF0006364656600000000303132333435363788
:104B0000383941424344454600000000F8B50446A8
:104B100000251E461746880404D405E039462020A7
:104B2000B0476D1C641EF9D52846F8BDFFB5044694
:104B3000002581B01E46C80301D5302700E020279C
:104B4000880404D505E038460399B0476D1C641EFF
:104B5000F9D5284605B0F0BD134610B50A461946EA
:104B6000FCF7EEF810BD000070B500F01BFA1C2138
:104B70004843042109F014FB0625ED43002818D012
:104B80000D4CE06000F00EFA1C214843042109F0AE
:104B900007FB00280DD00949086000F003FA2080C7
:104BA00000F000FA60800648A060064860600020BF
:104BB00070BD284670BD0000F42E002004020020C5
:104BC00044510100E54F000010B507F02BFE1821FD
:104BD0004843042109F0E4FA002803D0034988601F
:104BE000002010BD0620C04310BD000020020020A0
:104BF00070B506F0F9F8441C06F0F0F844431C20A8
:104C00006043042109F0CCFA0625ED43002821D0A9
:104C1000114CE06006F0E8F8461C06F0DFF8464369
:104C20007000022109F0BCFA002813D00B4908617A
:104C300006F0DAF8451C06F0D1F84543258006F069
:104C4000D3F8451C06F0CAF8454365800448A060C7
:104C5000002070BD284670BDBC320020E403002057
:104C600044510100F8B53E4F386800282DD006F0B9
:104C7000B5F868214843042109F092FA00286CD065
:104C8000384E002430621CE006F0BAF840000221E1
:104C900009F086FA002860D06822254655432A4646
:104CA000316A1032885006F0A5F80C2148430421DF
:104CB00009F076FA002850D0316A3035641C48512A
:104CC000E4B206F08BF8A042DED8274938680968BC
:104CD000264D084309D006F081F84A2148430221B5
:104CE00009F05EFA002838D0E86000F037FD28218E
:104CF0004843022109F054FA00282ED0194C803480
:104D000060620EF091FCE4214843042109F048FA66
:104D1000002822D0A0620CF073F8002808D00CF014
:104D20006FF8C000042109F03BFA002815D0E062BA
:104D30000BF06AF916214843022109F031FA0028E4
:104D40000BD0206209F026FA8000042109F028FA2D
:104D5000002802D068600020F8BD0620C043F8BDDE
:104D6000E4030020882F0020480200205402002085
:104D700070B500240A4D0BF0A1FC4000022109F09F
:104D80000FFA002809D0542161434919641C2406F4
:104D90004860240EEFD0002070BD0620C04370BDD7
:104DA0000433002070B500F0D9FC04460EF03CFC42
:104DB00020184000022109F0F3F90625ED430028F0
:104DC0000CD0074C60600BF01FF98000022109F045
:104DD000E7F9002802D0A060002070BD284670BD11
:104DE0006402002070B50FF0A1FA48214843082161
:104DF00009F0D6F90626F643002838D01D4D0024C8
:104E000068600EE00FF098FA8000042109F0C8F9FC
:104E100000282CD0482161436A68641C8918E4B2D8
:104E200048600FF083FAA042ECD80CF065F88001DE
:104E3000082109F0B5F9002819D00024A86010E075
:104E40000CF054F80C21FBF707FF8000042109F057
:104E5000A7F900280BD0A101AA68641C8918E4B244
:104E600048600CF049F8A042EAD8002070BD3046F6
:104E700070BD0000B8020020036882689A4201D227
:104E8000436899548168491C816070470149FF203B
:104E900008707047A402002070B50446007EFF2809
:104EA00001D101F0D3FF3221484305460021963558
:104EB000E0690A46012633468B40034201D0521C6A
:104EC000D2B2491CC9B22029F5D3E07D6421C006C5
:104ED000C00E801A48434019FF212D3164308842AA
:104EE00000DC084670BD0000F7B582B017460546E5
:104EF00001F050FF0446039800212818401EC943C2
:104F000086B2002C1BD0002D19D00120C003854291
:104F100015D2002E13D0864211D2039800280ED04D
:104F200003F020FF2289411E511889B2864209D31D
:104F30008D4207D8002F1FD0491C39801CE008463D
:104F400005B0F0BD11480024009019E00098016AF6
:104F500016206043081842880D498A420FD0018804
:104F6000027D481E101880B28E4208D3854206D8B2
:104F7000002F01D0401C38800520C043E0E7641CAE
:104F80000BF042F8A042E1DC0020D9E70830002015
:104F9000FFFF00001C214843014909684018704781
:104FA00004020020014800680078704710020020C9
:104FB00010B50022D2430D21002000F08BFF10BD60
:104FC00010B5C08901F048FB09F059FA00F020F84B
:104FD000002803D0018A024807F034FA10BD00000F
:104FE000D82E0020416908394161C160418A0831E9
:104FF0004182018A083101827047000000487047F1
:10500000042F00200149087170470000042F002080
:1050100010B505480EF0ECFB002801D0002010BDB3
:1050200001480068143810BD0802002030B52A4835
:105030009FB0C06C1D9004A81C901E900020274CAF
:10504000019002900390608825460C3D002802D113
:10505000A868006880896946C880A0880881E069DE
:105060004169002929D0E179002932D0491EE17136
:10507000217C6A469173028AC1681CA809F047F92D
:105080000094A868144B0068803B1CAA01A902F098
:1050900099FF04000FD0104911A03B31FFF732FAFD
:1050A000214613A0FFF72EFA1AA0FFF72BFA21468C
:1050B0000A4806F0ADFF1FB030BD074908A03B31DC
:1050C000FFF720FA14A0FFF71DFA12A0FFF71AFA53
:1050D000F1E71621C943EBE70C5001007C010020E9
:1050E0004150505F4442472025733E20000000009D
:1050F000556E61626C652073656E64206D6F6465CA
:105100006C206D65737361676520286572723A253E
:10511000642900000A0000004E554C4C2062756660
:10512000000000000149486070470000A402002010
:10513000F0B52C489FB0C06E1D9004A800242A4EE4
:105140001C900194029403941E90708837462C3F63
:10515000002802D1B868006880896946C880B08894
:105160000881F169486900282AD0F279002A21D003
:10517000521EF271307C6A4690730A8AC9681CA874
:1051800009F0C5F80094B868002300681CAA01A9BA
:1051900002F018FF05001FD0124914A05431FFF788
:1051A000B1F9294615A0FFF7ADF91DA0FFF7AAF93F
:1051B000F06940690EF066FEF06944611FB0F0BD11
:1051C00008490AA05431FFF79DF916A0FFF79AF994
:1051D00013A0FFF797F9F1E701213878B2680EF0D4
:1051E00051FFEBE70C5001009C0100204150505F43
:1051F0004442472025733E2000000000556E616246
:105200006C652073656E64206D6F64656C206D65E0
:10521000737361676520286572723A2564290000FE
:105220000A0000004E554C4C2062756600000000DC
:1052300001480068C07870471002002070B505462C
:105240008AB0164816468069029006A80C4601905E
:10525000039004AA05A9304607F0BBF9104901A83C
:1052600002F07FFD6846018A0023808A326800F0E0
:105270002FF9014601A809F055F86846028A818A8B
:1052800001A807F097F900200346009001AA2146E3
:10529000284602F097FE0AB070BD00005C51010084
:1052A00003800000F0B5044625680888AD8B002611
:1052B000F64387B0A84210D1257DA80705D5087907
:1052C000002802D00846163000E0481D08A9097CD5
:1052D00007788906890EB94202D0304607B0F0BD82
:1052E0000A49ED070968ED0F491B65892489059175
:1052F00004920F9903950193009102940021401CA0
:105300000E9B0D9A00F0B9FEE8E70000882F002000
:1053100070B506468AB01F481346006B029006A877
:105320000D460190039004AA05A9184607F051F90B
:105330006846808A04F022FA00280CD06846008A69
:1053400000F030FF002808D06A460188928A914216
:105350001CD0112402E0042400E000240E4901A81E
:1053600002F0FFFC214601A808F0DCFF6846028A33
:10537000818A01A807F01EF900200346009001AAC7
:105380002946304602F01EFE0AB070BD012100F031
:10539000EFFEE2E75C51010003800000F7B5294908
:1053A0008AB0C96B029104A901911046039108F0DB
:1053B000E8FF25490646884242D8244901A802F060
:1053C000D0FC304604F0DAF900280BD00024214646
:1053D00001A808F0A7FF314601A808F08BFF002CB8
:1053E00026D101E00424F2E7194C1A48002527468B
:1053F000009013E00098416A28206843081801884B
:10540000B14209D1BC4201D1448805E0428821461D
:1054100001A807F0CFF83C466D1CADB200F09EF934
:10542000A842E7D8BC4203D0214601A808F062FF99
:1054300000200346009001AA0B990A9802F0C2FDD1
:105440000DB0F0BD5C510100FF0F000002800000B4
:10545000FFFF000008300020F8B5064600240B4D81
:105460000B4F0CE02820696A604308180188B94294
:1054700004D04088B04201D10120F8BD641C00F086
:105480006DF9A042EEDC0020F8BD000008300020DD
:10549000FFFF000030B50C480C49406885B0C0687B
:1054A000144688420ED1104608F080FF054620467B
:1054B00008F067FF69460881002003902946684686
:1054C00004F0B6FB05B030BDDC0300200280000014
:1054D000FFB581B0064604F051F9070035D00298B7
:1054E00000F060FE0446049800281DD0002C05D072
:1054F0002088B04204D0112005B0F0BD0320FBE7A6
:105500002546F87F1635012809D12079002808D0D2
:105510001022681C0399FBF73AFC0028ECD00B2002
:10552000EAE70120207118E0002C10D02088B0425A
:1055300006D11022A01D0399FBF729FC0028DBD01F
:105540002088B04201D10620D6E70420D4E7029893
:1055500000F0F6FD04000DD0651D2946039801F00A
:10556000A5FF002808D00498002801D00020207151
:105570000920C1E70520BFE726800298608010223D
:10558000681C0399FBF7C8FB204603F0C5FF002009
:10559000B2E7F0B589B01E4617460C46002814D075
:1055A000102200210DF014FF85B2002C11D023230E
:1055B0006A463146384607F06DFD002807D1284677
:1055C00000F0F0FD04000ED012E00720C04309B047
:1055D000F0BD284600F0E6FD002802D0002100F0D2
:1055E000C7FD0020F3E7284600F0AAFD04001ED006
:1055F000684600882080658068468078207100A910
:105600001022A01D0331FBF787FB2046173004A9A9
:10561000102205460331FBF77FFBA01D611D01F041
:1056200045FF21462846163101F040FFD9E7082002
:10563000C043CCE730B50B480B49406887B0C06821
:10564000144688420CD1104608F0B0FE054606AA62
:1056500005A9204606F0BDFF2946684604F0E8FA91
:1056600007B030BDDC0300200380000070B50546A4
:105670008AB016481646406A029006A80C46019069
:10568000039004AA05A9304606F0A3FF104901A81B
:1056900002F067FB6846018A0123808A3268FFF7BF
:1056A00017FF014601A808F03DFE6846028A818A7C
:1056B00001A806F07FFF00200346009001AA2146C2
:1056C000284602F07FFC0AB070BD00005C5101006A
:1056D0000380000010B5054905A0FEF713FF08A0E0
:1056E000FEF710FF0BA0FEF70DFF10BDB54E010039
:1056F0004150505F4442472025733E200000000087
:105700006170705F70726F765F6174746E5F6F66E8
:10571000660000000A00000010B5054905A0FEF76C
:10572000F1FE08A0FEF7EEFE0BA0FEF7EBFE10BDAB
:10573000A44E01004150505F4442472025733E2053
:10574000000000006170705F70726F765F6174744A
:105750006E5F6F6E000000000A00000001480068E4
:10576000007A704710020020FFB583B00C9C1646EB
:10577000002C01D0002708E001270398FBF75AFC12
:105780000421FCF7CFFB040014D0267004980125F7
:10579000002805D0049A601C06999047401C85B2E9
:1057A000300614D51021039807F0BAF8002804D069
:1057B000192616E0132007B0F0BD621929462046CD
:1057C000FEF7FBFB0C350646ADB2002809D10420DC
:1057D0006946088001944D800398FCF765FB06003C
:1057E000E9D0002F02D020460EF0AAFA3046E2E7B8
:1057F00010B50CF031F910BD083807D04168002908
:1058000004D04969002901D000680847704770B585
:105810000C46054600F005F8214628460CF01CF918
:1058200070BD10B50446104608F0C0FD0146204684
:1058300000F000FE10BDF0B51F460B46014685B0D6
:1058400015460446213108220A9E18460391FBF7AB
:105850009EFA00280FD101A8009020463B46294619
:105860004930039A00F016FE082201A93046FBF7E2
:105870008EFA002802D0002005B0F0BD0120FBE721
:10588000FFB51F4685B0484B0E9D0F9C9868002AB7
:105890000BD0027D002A08D00269002A05D0012021
:1058A000607020700020E0707AE0427DAA4200D251
:1058B0001546C08AC20606D50A0704D50320242649
:1058C0000390042018E0000713D0480711D04807C0
:1058D0000A26400F05F09AFD401EC0B203903248E0
:1058E0008068807D0007000F05F090FD401EC0B26B
:1058F00002E00026304603962B4901908868027E1C
:10590000BA4200D21746408B020708D5059AD20644
:1059100005D5242000900420029003201BE04007BE
:1059200016D00598000713D00A20009005980007AC
:10593000000F05F06BFD401EC0B202901A4880684F
:10594000807E4007400F05F061FD401EC0B202E0BE
:1059500000200090029000993A464A432B46734338
:1059600003219A4209D90222627021700299E170E2
:10597000A0706771277109B0F0BD002E0BD0002D0B
:1059800009D06170022020700398E0700198A07027
:1059900065712571EFE7002060702070E070A070E5
:1059A00060712071E7E70000A402002010B50C46EA
:1059B00006F07FFD206010BD30B505460D4887B06C
:1059C000806C029004A80C46019003900A4901A83B
:1059D00002F0C7F900F0DAFD014601A808F0A2FCC8
:1059E00000200346009001AA2146284602F0EAFA68
:1059F00007B030BD5C5101000B800000F8B504F029
:105A0000C9F8002801D0642130E001F0ABFC002887
:105A100030D01A490878002804D0002008700028E7
:105A200016D101E00120F9E70024154D154E274657
:105A30000AE0E420A96A60430818818BB14202D0D1
:105A4000417901714771641C0DF0EEFDA042F0DC5C
:105A50000BF0D4FC00F09AFD012806D00848032181
:105A6000783800F0A7FC002803D00749074806F063
:105A7000E9FCF8BD0EF09EFCF8BD00001C02002001
:105A800008300020FFFF000010270000342F002006
:105A900070B50546194886B0406D029004A8019083
:105AA0000390AC6A0E46002C13D0106800780028D2
:105AB00001D001281FD1E17988420AD0E07103F0BA
:105AC00053FDE079002802D000F03CFD01E000F039
:105AD00029FD0B4901A802F044F900F057FD0146E9
:105AE00001A808F01FFC00200346009001AA3146DF
:105AF000284602F067FA06B070BD00005C51010054
:105B00000B80000000B50849084B496885B0C9689A
:105B10001046994205D108F049FC0146684604F058
:105B200087F805B000BD0000DC0300200B800000FA
:105B3000F7B506460AF04AF8FFF73AFA04001AD019
:105B40000E4D20460C300746E96A08F0C7FB0021DD
:105B5000384608F0E7FBB000C01CC1B2384608F078
:105B6000E1FB3846029A019908F0D1FBEC640CF095
:105B700025FB0020FEBD0620C043FEBD983100205D
:105B800030B5437803245B1D2343C45CE50601D58F
:105B9000012030BD002903D0210601D5022030BDEF
:105BA000002A03D0C1182039C97F1170C1182039CB
:105BB000487F897F4907490D08430449420502D5BA
:105BC0001F22D20210430880002030BDF4010020C3
:105BD00010B514480068016889070ED0016DC90826
:105BE000C9000165016808221143016001680907C5
:105BF00003D500BF00BF00BF00BF002202650A4BF3
:105C0000586800280AD041680C68806804430C601A
:105C1000586801690B68406903430B600348C2710F
:105C200010BD0000F0010020F4010020802E0020B3
:105C300008B51148407D002801D0FBF71FFB0F4B32
:105C40001879000612D50E48816B0091816B009A7D
:105C50009142F9D10B491046C9680122814202D80C
:105C6000401A02D502E0081A00D51A710648806968
:105C7000002800D0804708BD2C2E0020802E002058
:105C800000100040602E0020102E00201CB50D22B8
:105C900042A146480DF0E4FF00281FD04448009080
:105CA0000120C00201904349434806F01DFF4348CC
:105CB000FBF7D2FF0622414941480DF0DFFF6B465A
:105CC0003E4A4049404800F053FF04000AD03F4993
:105CD0003FA0FEF717FC214641A02AE049A0FEF7AD
:105CE00011FCFEE705F0E4FB3848E83801F06CF8F9
:105CF00003F024FB03F0E2F83048C01DFFF712FA6E
:105D00003248D83803F08AF8044601F059FF02F00F
:105D100061FB03F055FD00F041FC00F031F903F0A8
:105D2000DDFB2A49002C2AA006D0FEF7EBFB21461A
:105D300039A0FEF7E7FB2DE0FEF7E4FB3FA0FEF7FE
:105D4000E1FB44A0FEF7DEFB0CF0B8FC01F00AFB1F
:105D5000002810D01D491EA0FEF7D4FB3EA0FEF780
:105D6000D1FB3CA0FEF7CEFB14480121401E007879
:105D70000EF03AF907E001F0F5FA002803D103F03C
:105D80008BFB00F0DFFB114911A0FEF7BBFB3BA032
:105D9000FEF7B8FB2FA0FEF7B5FB1CBD4D455348E1
:105DA0005F4C49425F56312E310000001A5101000C
:105DB00078050020A9CB0000E57A00000100002052
:105DC000780D0020C450010090500100384F0100B0
:105DD0004150505F4442472025733E2000000000A0
:105DE000556E61626C652073657420636F6E6669C1
:105DF0006775726174696F6E20286572723A2564E6
:105E000029000000686561642066696C6520657220
:105E1000726F722E2E2E0A00496E697469616C6968
:105E20007A696E67206D657368206661696C656468
:105E3000202865727220256429000000426C756577
:105E4000746F6F746820696E697469616C697A65D2
:105E5000640000000A0000004D657368206E6574E0
:105E6000776F726B20726573746F726564206672EF
:105E70006F6D20666C617368000000004D6573688B
:105E800020696E697469616C697A6564000000005C
:105E900030B50D46ADB00146144668460DF0C1FC64
:105EA000002809D06A46294620460DF0C8FC002883
:105EB00002D000202DB030BD1120FBE710B5084600
:105EC00005F082FB05F06AFB10BD10B505F048FB3C
:105ED00010BD0000F8B514460E4605460EF0DEFA79
:105EE00002462032334615491548009400F02CF83C
:105EF000041E22D004F0E2FA014620460C300622AD
:105F0000074608F004FA0121384608F0C8F90D48A0
:105F1000415D384608F006FA606908306061E0606B
:105F2000608A08386082208A08382082A0690021AF
:105F300001604160816046722046F8BD954F0000C7
:105F4000F42E002010510100F8B50D460746144606
:105F500001210A48069E00F01BFA002801D000200B
:105F6000F8BD32462146384608F058F9041EF7D0ED
:105F700008F088F9A847A0612046F8BD902F0020BE
:105F800010B504480021016041600349034806F050
:105F900045FA10BD080200202DC30000D82E0020B5
:105FA000F8B517460E46054608F075F98469402194
:105FB000C0C4207808434006400E20700020208195
:105FC0002846083C08F05EF9E081607A0A21C008A2
:105FD000401C48436073607A4007400F401C2073A8
:105FE000287C6969401C20398877214614310A4889
:105FF0000DF0CBFB094806F01AFA00280BD1074830
:106000000021083000F0C4F90006000E03D1002181
:10601000024806F017FAF8BD08020020D82E00202A
:10602000F0B5C3B00C46154601461F4616AA684691
:106030000DF062FC0A26F643002814D008E006CCD6
:106040006846083C0DF084FC00280CD008346D1E16
:10605000002DF4D1694638460DF006FC002802D028
:10606000002043B0F0BD3046FBE71CB50192009123
:1060700001226946FFF7D4FF1CBDFFB589B01C465D
:10608000174615A80DC88C461499029301920090EA
:106090000B46129E139D3A46614604A804F080F810
:1060A000002F01D0082000E004203268002D01D02C
:1060B000102100E000210191039000950292A38835
:1060C00004A92268099800F0CFFA050003D1A1883D
:1060D000304608F0E4F828460DB0F0BDFFB589B0B1
:1060E0001C46154614A80DC8139F029301920090F8
:1060F000129E3B462A4604A804F052F8002D01D017
:10610000082000E004202268002E01D0102100E0C9
:1061100000210191039000960292A38804A9099896
:1061200000F0CCFB060007D1002D01D0082100E0D3
:106130000421204608F0B3F830460DB0F0BD000051
:1061400070B50024084D094E07E02820696A6043B5
:1061500008180188B14205D0641CFFF7FFFAA0427D
:10616000F3DC002070BD000008300020FFFF0000BD
:1061700038B50D4604464088694608808D70084849
:1061800001F090FD002D02D0204600F089FD002096
:10619000C04320802221601DFAF7D9FD38BD0000E0
:1061A000D5460000F8B5064600240A4D0A4F0AE01D
:1061B0002820696A604308180188B94202D04188E2
:1061C000B14205D0641CFFF7C9FAA042F0DC002000
:1061D000F8BD000008300020FFFF0000FFB50646B4
:1061E00081B023480A9D1C460F46814207D0401EBD
:1061F000874209D1039800F05BFE002804D00020FC
:1062000028701C48206030E01948401E87420ED19B
:106210000E21194800F0FBF8002808D0039802F07E
:106220001FFD00280ED0001D206000201CE0002E65
:1062300008D03846FFF7B6FF002807D0F17F0229C3
:1062400007D00EE00020C04305B0F0BD0720C043DA
:10625000FAE70179002904D0014617312160807DD9
:1062600002E0811D2160407928700020ECE70000E9
:10627000FEFF00001830002098300020CB06DB0E17
:1062800001229A404909890043589343435070477B
:10629000CB06DB0E01229A4049098900435813437B
:1062A00043507047CB06DB0E01229A404909890012
:1062B0004358134343507047CB06DB0E01229A40EC
:1062C00049098900435813434350704710B5CC0621
:1062D000E40E0123A34049098C000159002A01D092
:1062E000194300E09943015110BD10B5CC06E40EEE
:1062F0000123A34049098C000159002A01D0194308
:1063000000E09943015110BDCB06DB0E01229A40FB
:1063100010B549098B00C1580C469443C450114232
:1063200001D0012010BD002010BDCB06DB0E0122E4
:106330009A4010B549098B00C1580C469443C4508B
:10634000114201D0012010BD002010BDCB06DB0E94
:1063500001229A4010B549098B00C1580C4694435C
:10636000C450114201D0012010BD002010BDCB0649
:10637000DB0E01229A4010B549098B00C1580C462A
:106380001443C450114201D0012010BD002010BDA3
:106390004A0992008058C906C90EC840C007C00FFC
:1063A00070474A0992008058C906C90EC840C00704
:1063B000C00F70474A0992008058C906C90EC840EC
:1063C000C007C00F70474A0992008058C906C90E1D
:1063D000C840C007C00F70474A0992008058C906DC
:1063E000C90EC840C007C00F70474A0992008058C4
:1063F000C906C90EC840C007C00F70474A099200BD
:106400008058C906C90EC840C007C00F70474A0966
:1064100092008058C906C90EC840C007C00F704717
:106420004A0992008058C906C90EC840C007C00F6B
:106430007047000070B50E46050015D0AC6A002C00
:1064400011D0002E16D06068002804D00269002AFE
:1064500001D0284690477D20C00031464143204668
:10646000083005F0EFFF70BD09480468002CFAD031
:106470002568E6E72046083005F0C6FF606800287A
:10648000F1D041690029EED02846884770BD000050
:106490004402002070B588B004461E4668460C9D34
:1064A0001346017008221946401CFAF735FC02A970
:1064B000304601310DF05EF904AB0D2269462046ED
:1064C000FFF7D3FD040004D1082204A92846FAF7F7
:1064D00023FC204608B070BD70B50E46044601F09E
:1064E00065FF0146A07F002802D02546893501E0DE
:1064F00025463035304607F015FF29460822213160
:10650000304607F004FF06480168304607F0E6FE13
:10651000214608222831304607F0F9FE70BD000000
:10652000882F002010B503210448FFF743FF0028FF
:1065300002D1034805F068FF10BD0000902F002035
:10654000342F0020F8B500F00DFF002814D00024EF
:106550000B4D0C4F26460BE0E420A96A6043081857
:10656000818BB94203D00671467101F061FD641C54
:106570000DF05AF8A042EFDC034805F0A7FFF8BD84
:1065800008300020FFFF0000342F00200248406840
:10659000002800D0C07970472002002010B50249C1
:1065A000024805F03BFF10BDFD590000342F0020CC
:1065B0000B4A10B50823D11A8968002805D0194361
:1065C0000848116005F082FF10BD99431160FFF784
:1065D000DDFF0028F8D1034805F016FF10BD0000CC
:1065E000902F0020342F00207CB50446808800289E
:1065F00009D0204607F0DAFE002805D0012802D194
:1066000020460AF06DFE7CBD03F0C4FA0028FAD1E2
:10661000A088122801D01628F5D11021204607F0B5
:10662000BDFE0646204607F090FE0546002000907D
:10663000A088042805D1204607F095FE019001A806
:10664000009002F0E5FB846A002CDCD06B462A4601
:1066500031460120A0477CBD10B50146014809F034
:1066600007F910BDF42E0020FFB59BB01E98259EA3
:106670001746002803D0FF200002864203D30020E3
:10668000C0431FB0F0BD0120694608700D22684468
:106690001C99FAF741FB03A90231002018910DF073
:1066A00065F810AA69461B98FFF7F2FB0028E8D1AD
:1066B0002798082803D0002E08D0402007E0002E9D
:1066C00001D0402000E00020192101E00020092134
:1066D00008436946087000A80D2201301C99FAF79A
:1066E0001BFB1E98189980B20DF040F804AA694669
:1066F0001B98FFF7CDFB0028C3D1002E3ED0B0B2CF
:1067000069460DF033F80024694604AA105D0B5D5C
:1067100058400855641C022CF8D30025B61C13E021
:10672000684604A9249B0A5D5B5D6D1C5A400255B6
:10673000641C102CF6D30A4601460024103E1B9818
:10674000FFF7A6FB00289CD1102EE9D8002069464F
:1067500004AA06E0249C135C645D63400B54401C57
:106760006D1CB042F6D302E0905D8855761C102E69
:10677000FAD31B98FFF78CFB002882D11E980F21BB
:106780000507000309034018000C2D0F1990002D78
:1067900000D11025002481E0661C864248D10120EA
:1067A000694608700D2268441C99FAF7B5FAB0B230
:1067B00018990CF0DBFF0CAA69461B98FFF768FBE1
:1067C000002899D1210108AE06E00A180CABBA5C8A
:1067D0001B5C5A403254401CA842F6D326982A46E5
:1067E00008183146FAF798FA002004AA05E0115C6F
:1067F000335C59406B461954401CA842F7D32846D5
:106800006946164602E0325C0A54401C1028FAD34E
:1068100032461B98FFF73CFB002894D110AB195C63
:10682000325C514014AA1154401C1028F7D334E0B4
:106830000120694608700D2268441C99FAF76CFA29
:10684000B0B218990CF092FF0CAA69461B98FFF79A
:106850001FFB002891D1210108AE0A180CABBA5CCD
:106860001B5C5A403254401C1028F6D32698102244
:1068700008183146FAF750FA002004A90A5C335C84
:106880005A406B461A54401C1028F7D30A46194642
:106890001B98FFF7FDFA002893D1641C19988442D5
:1068A00000D279E71E98279A391814A8FAF76FFAD8
:1068B000002800D1E5E61020C043E2E6FFB597B01E
:1068C000FF20219F00021646874203D30020C043C9
:1068D0001BB0F0BD0120694608700D22684418996C
:1068E000FAF71AFA03A90231002014910CF03EFFC6
:1068F0000CAA69461798FFF7CBFA0028E8D123982D
:10690000082803D0002F08D0402007E0002F01D036
:10691000402000E00020192101E000200921084367
:106920006946087000A80D2201301899FAF7F4F9A9
:106930001A98149980B20CF019FF04AA69461798A6
:10694000FFF7A6FA0028C3D1002F41D0B8B269469C
:106950000CF00CFF002404AA6946105D0B5D584042
:106960000855641C022CF8D30025BF1C13E004ABAF
:10697000684620991A5D495D6D1C4A400255641CA9
:10698000102CF6D3014600241A46103F1798FFF743
:106990007FFA00289CD1102FE9D8002004A96C466A
:1069A00006E0209B0A5C5B5D5A402254401C6D1C33
:1069B000B842F6D3204602E0CA5DC2557F1C102FB4
:1069C000FAD30A4601461798FFF762FA002895D1D4
:1069D0001A980F210507000309034018000C2D0F1A
:1069E0001690002D00D1102500247DE0601C169922
:1069F0001590884246D1002004A9270106E03B18E3
:106A00000A5CF35C5A406B461A54401CA842F6D309
:106A1000284604E004A90A5C69460A54401C102870
:106A2000F8D304AA69461798FFF732FA00288AD1EA
:106A300004A90CAA125C0B5C5A4010AB1A54401CFF
:106A40001028F6D30120694608700D226844189971
:106A5000FAF762F91598149980B20CF087FE08AA2B
:106A600069461798FFF714FA002893D107E0391800
:106A700008AB725C1B5C5A40229B401C5A54A842D3
:106A8000F5D330E0002004A927013B180A5CF35C31
:106A90005A406B461A54401C1028F6D30A46194631
:106AA0001798FFF7F5F9002891D101206946087081
:106AB0000D2268441899FAF72FF91598149980B2A5
:106AC0000CF054FE08AA69461798FFF7E1F9002870
:106AD000ADD1391808AB725C1B5C401C5A40229B3C
:106AE00010285A54F5D3641C1698844200D27DE7CE
:106AF0001A992298239A401810A9FAF70DF9002044
:106B0000E6E60000014840687047000020020020CF
:106B100070B513484468002C20D0002002F0D8FC47
:106B200000212046403001804180A163E1630C4692
:106B30000C4D0D4E0AE0E420A96A60430818818BD1
:106B4000B14202D0012102F0A5FD641C0CF06CFDE5
:106B5000A042F0DC0021054801F0A4F870BD00005F
:106B60002002002008300020FFFF0000FBD60000BC
:106B7000FFB5474F81B01E460D4604007ED0002E63
:106B80007CD03068002879D0002D7FD0002141488A
:106B9000FFF707FC002802D0B80005B0F0BD207850
:106BA000801F232872D2607814286FD8A078401EE6
:106BB00060286BD22079801E132867D2A01D06F0B2
:106BC00019FA002862D0A18A3348491F81425DD258
:106BD000618A491F814259D2E08A801E042855D219
:106BE000207E401E042851D2607E401E08284DD2CF
:106BF000A07E401E042849D2E07E801E1D2845D27A
:106C0000A08B401EFF2841D2A17F20461E30891E46
:106C100013293BD28088FF2188310A38884235D237
:106C20002820005D002831D021461C4C21600399AA
:106C30006160287C022829D3698A6869FAF70CF810
:106C4000002901D0002003E0687C0028FAD0012050
:106C500000281BD03046A56006F0BEF9FEF7C2F84A
:106C60000446FEF79FF80419FEF782F80419FDF7B1
:106C7000F9FF0419FDF778FF041900E006E0FDF7BD
:106C8000A3FF0419FDF7B4FF001986E7384684E72F
:106C9000FFFFFFFF902F00200C0E000010020020CD
:106CA00038B5044641886A46012005F0A7FC012258
:106CB0009203002801D0018810E00098002813D02A
:106CC000018801231B03194301806388090B1B05FD
:106CD00009031B0D194301235B0319431143018071
:106CE00007200AF03BF938BD608803F055F838BD3D
:106CF00010B508200AF032F909200AF02FF90C200B
:106D00000AF02CF910BD38B504460088694608F031
:106D100045F80121002801D0817005E00098002885
:106D200006D08170218801800E200AF017F938BD45
:106D3000208803F0CDF838BD10B506200AF00EF912
:106D400010BD38B50446818B6A46002005F056FC1C
:106D500001229203002801D0018810E00098002849
:106D600013D0018801231B0319430180A38B090B56
:106D70001B0509031B0D194301235B0399431143B1
:106D8000018007200AF0EAF838BDA08B03F088F8EC
:106D900038BD00000148406870470000FC01002039
:106DA00010B50849074A08800021526806E0D368F8
:106DB0000C011B191880401C80B2491C93688B423F
:106DC000F5D810BDFC0100208168002903D00349DB
:106DD0004860002070470020C0437047FC0100203D
:106DE00010B50449002008800146034800F05AFF0E
:106DF00010BD0000FC01002051D300004168491E75
:106E0000416070473FB585B00D9D0C9C694601926D
:106E10000B814B8103920B2B04D9416880234A7A62
:106E20001A434A7200214268C943518041682B4687
:106E3000497ACA0906A90091224601A903D00BF09C
:106E4000E5F909B030BD0BF043FBFAE703484068B1
:106E5000002801D0807A7047072070472002002068
:106E600008B500920A4602A3202100F085FA08BD69
:106E70007072646B0000000010B50C4688B00146CB
:106E8000074A6846F9F7A5FE002806D0002C01D075
:106E90006846A047002008B010BD0120FBE70000B5
:106EA0005C32002001484068007A7047FC010020F5
:106EB000F8B5070021480ED00121C9038F420AD23C
:106EC0004168CA6889681088381A80B2814233D90B
:106ED00000011018F8BD002629E0C06831014418EF
:106EE00000250AE02C20A168684308183946009064
:106EF00000F0AEFE00280FD16D1C2079A842F1DC15
:106F000000250FE02C20E1686843081839460090FE
:106F100000F09EFE002804D00098002805D02046EE
:106F2000F8BD6D1C6079A842ECDC761CB6B2034853
:106F300040688168B142D0D80020F8BDFC01002033
:106F400010B5FF22064C03E003785340E25C401C7E
:106F50000B46491EC9B2002BF6D1FF20801A10BD86
:106F60008459010030B502688088FF23094C03E092
:106F700015785D40635D521C0546401E80B2002DB1
:106F8000F6D14B40E05CCF2801D0002030BD01207D
:106F900030BD0000845901000B4910B5401807D0DE
:106FA000012808D0022809D003280BD1012010BDE8
:106FB00000F00EF904E000F08DF801E002F0B4F901
:106FC0000128F4D0002010BD0400FFFFFFB581B000
:106FD000002528E01748039A016A682068430F18C3
:106FE0000198818B384603F039FE00281AD000241E
:106FF00014E00C20396B60430E1804980299008845
:10700000C204D20C304605F09BF8002805D030466B
:1070100009F0DEFA0020307204E0641C03F0EAFE9E
:10702000A042E6DC6D1C03F0D9FEA842D2DC05B01C
:10703000F0BD0000882F0020F8B5054600240B4E57
:107040000B4F0DE06820396A60430818C189B142CE
:1070500005D0B54201D0A94201D103F00BFC641C5C
:1070600003F0BCFEA042EDDCF8BD0000FFFF000015
:10707000882F0020FFB581B01F46064600241FE080
:107080001248016A682060430D180398002802D056
:10709000E878C00613D5002F02D0E87880060ED518
:1070A0000B48864202D0E889B04208D128460299AE
:1070B00004F0FAFF002802D0284605B0F0BD641C99
:1070C00003F08CFEA042DBDC0020F6E7882F0020D6
:1070D000FFFF000003484068002801D0407A704755
:1070E0000220704720020020F8B50E460746002413
:1070F0000A4D0CE06820296A604308183246394678
:1071000003F0ACFD002801D00120F8BD641C03F0A1
:1071100065FEA042EEDC0020F8BD0000882F0020B4
:10712000FFB5002681B03546344616E01048039A74
:10713000016A682060430F183846019903F08EFDFC
:10714000002809D0012538460A9B049A029903F0C9
:10715000A9FD002800D00126641C03F03FFEA042D8
:10716000E4DC002D02D0304605B0F0BD0120FBE785
:10717000882F0020F8B50746002519E00F48016A5E
:10718000682068430E18F0890D4988420FD08F425D
:1071900001D0B8420BD1B46B03E0204604F0FDFFF0
:1071A0002468002CF9D10021304603F03CFA6D1C14
:1071B00003F014FEA842E1DCF8BD0000882F002097
:1071C000FFFF000010B50088F9F734FF10BD000084
:1071D00003484068002801D0007A704702207047B9
:1071E0002002002010B5FAF76FFB10BD10B5034860
:1071F00000214089FAF7BAFB10BD000060030020AF
:1072000002484068002800D00C307047200200205F
:10721000F8B51646154A1F465568002D24D02C4651
:107220004034228882421FD1608888421CD105F0F8
:1072300038F9AB6BEA6B181A8A4115DBA079B042BA
:1072400000D33046A071E079B04200D83046E071FA
:10725000A0880749884201D2401CA080AA6C002A5D
:1072600002D0394630469047F8BD00002002002089
:10727000FFFF000010B50021084600F001F810BD26
:10728000F3B589B000200E46039004900590FFF7F7
:1072900039FC0546254806AB07C807C3288E694652
:1072A0000883288D88832F462037787B08A988702B
:1072B0000024288E02F062FA039006A80490286841
:1072C00000F0A8FC00886946888201F039FC694614
:1072D0008875288D002826D0787B087202F024F863
:1072E000012800D10124FFF773FF012801D10220FA
:1072F0000443FFF7EFFE012801D10420044300F00E
:1073000081F9002801D00820044360BA6946487218
:10731000000A887209980090032302AA0A210196A4
:1073200003A8FFF76FFD0BB0F0BD0000105801007F
:1073300070B515460A4686B0064608A401A910464F
:1073400002F068F8002806D1234601AA1021304631
:10735000009500F011F806B070BD0000696431328C
:107360003801000010B500210248FFF735F8C0B21F
:1073700010BD0000902F002070B51646049D0A46EF
:107380001C4601462B463046FEF76FFE002808DB00
:107390002046F9F7E7FC02462B4621461846FEF741
:1073A00064FE70BDF0B593B00E4607461C46154608
:1073B0000FA925A002F02EF8002843D10BAB102214
:1073C00039460FA8FEF751FE00283BD1012168463F
:1073D000017000200590069068460A910990079672
:1073E000089501AB032205A90BA8FEF719FE00289A
:1073F00028D16946C87C01AB4006400E207001A828
:1074000005901020069002200870032205A90BA801
:10741000FEF706FE002815D1102201A91898F9F7E9
:107420007BFC032069460870024601AB05A90BA846
:10743000FEF7F6FD002805D1102201A91998F9F7E9
:107440006BFC002013B0F0BD736D6B3200000000C8
:1074500030B505460C4611A003C88BB009910890C1
:10746000694610A001F0D6FF002815D104AB102208
:1074700029466846FEF7F9FD00280DD16B46052226
:1074800008A904A8FEF7F1FD002805D1082220462E
:1074900002A9F9F741FC00200BB030BD6964363415
:1074A00001000000736D6B330000000030B505462D
:1074B00089B011A000680C46089069460FA001F041
:1074C000A9FF002815D104AB102229466846FEF713
:1074D000CCFD00280DD16B46042208A904A8FEF7B4
:1074E000C4FD002805D16846C07B8006800E207050
:1074F000002009B030BD000069643601736D6B3443
:107500000000000010B50446837FC07F8B4201D08D
:1075100000281CD0A177002903D0012818D102200F
:1075200013E0012802D0022812D101E0002A0FD076
:10753000204601F0DDF9074807490068096808435B
:1075400002D0A08B03F0B8FA0020E077012010BD34
:10755000002010BD48020020E403002070B506465C
:1075600000240A4D0CE01820A968604340184088A8
:10757000B04204D1182044436018001D70BD641C43
:1075800005F050F9A042EEDC002070BD2002002082
:1075900010B50D2209A10D480CF062FB002808D09F
:1075A000FCF784F90446FAF7BBFEFAF78DFE204695
:1075B00010BD07A0FCF7A6FFFEE700004D455348AD
:1075C0005F4C49425F56312E310000001A510100D4
:1075D0006D65736820686561642066696C65206507
:1075E00072726F722E2E2E0A0000000010B5044930
:1075F0000979002902D0012102F0E6FB10BD00004C
:10760000A82F00200248007CC006C00F7047000071
:10761000A82F002070B508688988124C042902D26E
:107620000020C04370BD2178012919D1417802782A
:10763000090211434DBAC17882780802104346BA54
:1076400001F090FBA8420BD1E089B04208D1207B29
:107650002021084320734007C10F002002F0B4FB33
:10766000002070BDAC2F002010B50B4604280CD0B4
:10767000134C1989248DA14215D106280AD0197DF1
:1076800049070CD40020C04310BD1146184600F035
:1076900019F810BD11461846FFF7BCFF10BD0228AF
:1076A00004D0092807D00720C04310BD1146184652
:1076B00000F0AEF810BD1146184600F04BF810BDB2
:1076C000882F0020F8B50D680246898800231F4CDA
:1076D0000068DB43062929D32178052901D0002041
:1076E000F8BD2978002921D069792B79090219433D
:1076F0004BBA1189A180E28903F038F900270646C8
:10770000002815D02046143004F07EFE2878A071A1
:10771000687860730AF02EFA05000DD0304603F049
:1077200018F9A780A77167732846F8BD1846F8BDF9
:107730000820A780C043F8BD05484168002901D052
:1077400001208847E089401CE081C8E7AC2F002079
:1077500048020020F8B5086889882C4C002910D010
:10776000E178002950D00078A27890424CD122468E
:10777000243A506E926E0026072905D0082907D0BA
:1077800042E00020C043F8BD10436664206418E066
:1077900090432064204644300025071D0090294670
:1077A0000098FEF7B1FD002808D029463846FEF7BC
:1077B000ABFD002802D06800001906866D1C082D5C
:1077C000EDD3204603F0AEFA207BC0070CD0072093
:1077D0000BF0A6FE08200BF0A3FEE078002803D1F2
:1077E000207B400840002073207B800701D50AF0F1
:1077F000C1F9E078002807D1204607F039FF01469B
:107800002046143004F01EFE0020F8BDAC2F0020EE
:10781000F3B583B003980D6800680190888800264E
:10782000724CF643062827D3E07801287CD10198D2
:10783000C07F022803D10398007D800774D56B4870
:1078400003211C380746FEF7BEFD00280BD002219D
:107850003846FEF7B8FD29788907C90F884202D15A
:107860000020FEF7A5FE207BC0067DD4FFF74AF975
:107870000399097D490702D4304605B0F0BD217B4C
:10788000102211432173C08D000701D5FFF7F2FCD0
:1078900005F0B6FA642107464F4305F0B7FA618A4E
:1078A000A27964308918461805F0AAFA6421484381
:1078B0003146F9F7D1F9062801D906260EE005F080
:1078C000A5FA618AA27964308918461805F098FAF9
:1078D000642148433146F9F7BFF9064605F096FAA8
:1078E000618AA2796430891840184643BE1B05F0AE
:1078F00087FA64214843864231DA05F081FA64212F
:1079000007464F4305F082FA618AA27964308918EC
:10791000461805F075FA642148433146F9F79CF999
:10792000062802D906260FE05EE005F06FFA618AAC
:10793000A27964308918461805F062FA6421484338
:107940003146F9F789F9064605F060FA618AA279AD
:107950006430891840184643B81B04E004E005F081
:107960004FFA64214843A060204603F0DBF904226B
:10797000691C6846F9F7D0F9009800BA009003989E
:10798000007D8007C20F2878C107C90F0198FFF753
:10799000B9FD002802D0019800F04AFB2878800742
:1079A000C10F009800F052FD207BC0070CD00720CB
:1079B0000BF0B6FD08200BF0B3FDE078002803D1F2
:1079C000207B4008400020736879002801D00AF02D
:1079D000D1F8E078002807D1204607F049FE01469B
:1079E0002046143004F02EFD002046E7AC2F002086
:1079F00070B50022164B114601264C00E418258E66
:107A0000854209D1C806C00E864048098000483327
:107A10001958B14319500EE0002A03D1002D01D1AD
:107A200022463032491C0829E7D3002A03D01080AF
:107A3000187B304318730648001F017CC906C90F24
:107A400005D0C079002802D107200BF069FD70BD78
:107A5000AC2F0020F3B585B0002630E0059871000A
:107A6000405A00282AD01E4C0390204664300290D1
:107A7000001D0190001D00252434009068000719A6
:107A8000398E0398814216D129460298FEF79BFC55
:107A9000002805D129460198FEF795FC002808D05A
:107AA00029460098FEF7F4FB207B01210843207350
:107AB00001E0002038866D1C082DDFD3761C069867
:107AC0008642CBD306482030017CC906C90F05D0B9
:107AD000C079002802D108200BF022FD07B0F0BDCC
:107AE000882F002010B50D490B480A4C88602046AD
:107AF0000B493830243404F091FC2078032803D05B
:107B000001F0CAFC002010BD01F0C1FC20460AF0C3
:107B10007BF8F7E7882F00206976000048020020F4
:107B200045CC000010B50448C178012903D103F009
:107B3000F9F80AF01FF810BDAC2F002010B5054869
:107B4000007CC00602D40520C04310BD0AF012F824
:107B500010BD0000A82F002070B5134D041E28464C
:107B6000007802D000281CD101E000281AD0FFF7CD
:107B7000F9FB0D49091F002809D0002C0ED0032065
:107B8000087101F084FC28460AF03EF809E0002C58
:107B900001D0032000E00020087102E00020FFF780
:107BA00025FD002070BD0000AC2F002003480079A7
:107BB000082801D00020704701207047A82F00201E
:107BC00010B504484068002803D00021024800F0A6
:107BD00069F810BDFC01002051D3000030B589B018
:107BE00015461E221C46009201AB08A202F0BEFC04
:107BF000002C06D02246294601A80AF079FF09B0D8
:107C000030BD01A80AF04AFDF9E700006461746123
:107C1000000000000349007949680001C96808189C
:107C200070470000FC01002030B5002203790BE012
:107C30002C24856854432C5B8C4203D12C214A436D
:107C4000A81830BD521CD2B29342F1D8002030BDEA
:107C5000002253001B185B8A8B4203D15100081885
:107C600012307047521C062AF3D300207047F0B53B
:107C70000023477911E02C261D467543C468AE1CCD
:107C8000A65B8E4207D1645B944204D1C0682C216C
:107C90004B43C018F0BD5B1CDBB29F42EBD8002009
:107CA000F0BD0000F3B581B00746002429E0C068AC
:107CB0002101451800260CE02C20A9687043081803
:107CC00002990091002C09D0002300222946B847D0
:107CD000761C2879B042EFDC00260EE00123F4E7A1
:107CE0002C20E9687043081802990091002C0ED0EE
:107CF000002301222946B847761C6879B042EFDCA0
:107D0000641C044840688168A142D0D8FEBD0123AC
:107D1000EFE70000FC01002010B50D4B5B68002B65
:107D200011D09C688C420ED9DB68090159182C23AC
:107D30005343002804D04879904204D9C86805E02C
:107D40000879904201D8002010BD8868C01810BD85
:107D5000FC0100200079002801D00020704701209C
:107D6000704770B5044680680D46002801D0A068B1
:107D700002E020460C30A060002120602046A18057
:107D8000FF2D03D8E9B206F0CDFA70BD0120000442
:107D9000854204D2A9B2204606F092FA70BD2802AC
:107DA000010E204606F0BEFAA9B2204606F0A2FA5D
:107DB00070BD00008268002A08D0907A810907D03F
:107DC000012909D0022913D0032915D000207047BA
:107DD0008006800E642103E08006800E7D21C900AC
:107DE00048435189CA04F2D50905090F0841704773
:107DF0008006800E0249F3E78006800E0149EFE716
:107E000010270000C0270900F0B506463A48EBB03D
:107E1000806909900BA808900A900020B46802902D
:107E2000039004900590079002A806903046FFF753
:107E3000F1FE00886946888300F082FE69468877F3
:107E4000002C54D0A0881727FF43002852D0E08888
:107E50000005000DFEF7A6F905004BD06089400B28
:107E600002D0E01B04F0D0FAA0886A469081207A04
:107E70009074E188507C89044006C90F400EC90106
:107E8000084350742888108169885181D17FE28825
:107E90004908D2044900D20F11436A46D17701F054
:107EA0006DFC0590002825D06089617AC004C00C63
:107EB00049030843608120698288016808A806F0A8
:107EC00026FA0D48009008AB012205A9019630461C
:107ED00006F0DEF8050007D060893146C004C00C0A
:107EE0006081284608F040FB28466BB0F0BD1220A8
:107EF000C043FAE73846F8E7F0500100F0B50E4607
:107F000085B0074603A9304603F08EFA002854DBFB
:107F100000254DE0C068290144187889002807D061
:107F20000121C903884203D2218881423FD113E055
:107F3000032189033F22411A120291420CD90121E7
:107F4000C9030122411A9203914205D3002D2ED17B
:107F5000FFF722F800282AD00120039A0004824269
:107F600002D22179A06801E06179E06802AB019357
:107F70000092FB887A8902F0C1FB040017D0B08818
:107F80006168884213D3304606F0D3F96946088009
:107F9000B0884880A3683246391D029898476946E0
:107FA0000988B0684018694630604888B0806D1C08
:107FB000034840688168A942ACD805B0F0BD000014
:107FC000FC010020FFB50C46488885B017490E9E7D
:107FD0001D461746884208D0491E884205D0FEF744
:107FE000E1F800281ED00088208000200290039035
:107FF0000490208801F0C2FB029003940598FFF7DB
:1080000009FE00886946088200F09AFD6946887476
:1080100000953B46002202A90196059806F038F823
:1080200009B0F0BD0020C043FAE70000FEFF0000E9
:1080300038B5044600F0BAF90146A07F002802D006
:108040002046893001E0204630302834044A00942C
:108050001368024621324930FEF71CFA38BD000091
:10806000882F0020FFB581B00E4606F093F8204C13
:1080700081006068F8F76BFE00251E482570846A51
:10808000F007C00FA07702270399002807D02046E9
:10809000893000F06FFA002807D1E77709E0204621
:1080A000303000F067FA002803D00A20C04305B042
:1080B000F0BD0198A08310480068002802D020205D
:1080C000055501E0202007550A49049880390860C9
:1080D000B007C20F074802217838FEF7F7F80548C5
:1080E000203805742046FFF7A3FF0020DFE70000DB
:1080F00054020020083000201C040020F8B5074678
:1081000080881D4614460E46122806D3002E07D13D
:10811000384601F017FE002802D00020C043F8BD09
:10812000207DCF210840B107890E08432075B9880A
:108130002B462246386806F04DFA00282FD0002042
:10814000C043E0802968607B4978C0094906C001C6
:10815000490E08436073400600D0FF20A073207DC5
:10816000F721084029684978C909C90008432075E2
:108170002868801C0BF0D8FA20612868C01D0BF01D
:10818000C7FA1022D2436081032E01D0002804D008
:10819000FF210902401AFB2804D81046F8BD072029
:1081A000C043F8BDFDF744F8002802D1204605F091
:1081B000CFFF0020F8BD0000F0B50C460968074667
:1081C000487889B01646000601D5082500E0042548
:1081D00011480068002807D0002B04A802D002F044
:1081E0007EF801E002F064F8324604A8216802F04B
:1081F0005FF8A088401B83B2A38022680020D11DB5
:10820000009001AC23C404A93846D21DDB1FFEF741
:108210002BFA09B0F0BD00001C040020F7B504469D
:1082200040680F464088434984B0884201D1012606
:1082300000E000260025ED43002E04D0384606F06D
:10824000ECF8082804D3384606F0E7F8042802D2F0
:10825000284607B0F0BD60688188384606F0B6F859
:108260002189384606F0B2F80321384606F0A6F810
:10827000054600F06DFC010C2970010A6970A870B8
:108280006068002E817A01D080200143384606F0D4
:10829000ABF82948006800280CD0E07AC00709D064
:1082A00003A8009002AB01AA0021206802F0C6FBDF
:1082B000002816D0E07A592240084000E072206879
:1082C0006B46817F51430A464032825C41311A71CC
:1082D0004018029020685922817F5143693140182B
:1082E0000390164802210546FEF776F8134C083C29
:1082F0002178081AC007010E684600790143384604
:1083000006F072F802212846FEF766F82168069BFF
:108310000A1A3946029800F013F8002899D1022170
:108320002846FEF759F82168039A091A386800F0C0
:1083300075F98EE7FFFF000048020020902F002013
:10834000F0B50C4609680746487889B0164600061D
:1083500001D5082500E0042513480068002807D04F
:10836000002B04A802D001F0BAFF01E001F0A0FF49
:10837000324604A8216801F09BFF22680020D11D2D
:1083800001AB009023C3A38804A93846D21DDB1F8C
:10839000FEF794FA060003D12946204605F07FFF38
:1083A000304609B0F0BD00001C04002010B50024C8
:1083B000002803D0807F002800D001240221044837
:1083C000FEF70AF8002801D002200443204610BD21
:1083D000902F002070B50024184E194D06E020465D
:1083E000E4225043A96A1C300E52641C0BF01CF9A5
:1083F000A042F4DC002404E028206043696A641C85
:108400000E52FDF7ABF9A042F6DC002406E0204650
:1084100016225043296A801C0E52641C07F0F4FD9A
:10842000A042F4DC064807490C3803F0F7FF044883
:108430000549743804F044F870BD0000FFFF0000E7
:1084400008300020BDC20000F5850000FEB50446DE
:108450000E46454802210190FDF7BEFF424F0146FE
:10846000083F384660303D46009080353868002926
:1084700004D0A04221D1002E1FD11AE0A0421CD06E
:10848000A0421AD801462A31A14216D3401CA0426C
:1084900003D3A0420BD1002E0BD108F0B1FCC100D8
:1084A000E86AF8F754FC00203C60786013E0002E86
:1084B00003D00098007C602801D20020FEBD002E71
:1084C00009D101F0EBFA002805D0019820210268BB
:1084D0000A430260F1E7324602210198FDF7F6FEF9
:1084E00000200099002E087417D03C600026044636
:1084F00001270DE0E86AF10040180188002906D044
:108500008178002902D00460446000E08770761C06
:1085100008F076FCB042EDDC00E0786003F0C8FEC5
:1085200001466020F8F798FB104941430E486C3033
:1085300003F088FF00240E4E0CE02046E422504356
:108540000246A96A1C328A5AB24202D00818FFF7C2
:108550006FFD641C0BF068F8A042EEDC002001F017
:108560000DF80120FEBD0000902F002080EE3600A7
:10857000FFFF00007FB504460D4600200290214613
:108580002046393111300191009003AB012202A93C
:108590002846FEF707FF002820D110222946204652
:1085A000F8F7BAFB6846007B207421462131284643
:1085B000FEF74EFF002811D109480068002807D0B7
:1085C00022462846293207A1FEF7B2FE002805D12F
:1085D00022462846493205A1FEF7AAFE04B070BD26
:1085E0001C0400206E6B696B000000006E6B626BF8
:1085F0000000000070B5084D08E02046012200216F
:108600000C3000F033F8204605F039FF284605F01D
:108610000CFF0400F1D170BDA02F002030B589B04F
:108620000446002015460A460090019002900390EF
:1086300001A9104601310BF09DF802A80722E11DA7
:108640000130F8F769FB04AA69462846FDF720FCCB
:10865000002809D104AA21184B78155C401C6B40F6
:108660004B700628F7DB002009B030BDF0B58BB0A9
:1086700015460E4607460BF011FFB98816308842A2
:1086800077D30BF00BFF16300BF0E8FB040070D033
:108690000020099008940A900BF000FF69461630FC
:1086A000C884182168460A94F8F751FB69460E738E
:1086B000FEF758FE002859D008AB6A4629463846CE
:1086C000FFF71CFD002851D108A805F032FE6946CD
:1086D0008883888CC88328480068002805D0022D2C
:1086E00003D10989384600F06BFC68464089FEF7E3
:1086F00053FC002805D168464089FEF7D9FB0028C5
:1087000004D06846007D4021084303E06846007DB0
:10871000BF2108406946087508A801F077F8801D58
:108720000BD16846154AC08A516880000B58DB0B94
:10873000DB030B506846C08A1070684640890028E9
:1087400009D00121C903884205D26846007D41064F
:108750000CD4C0090AD16946898B0A984018694629
:108760000890C88B888408A800F00AF820460BF00F
:1087700089FB0BB0F0BD00001C0400205402002057
:10878000F8B50646087D0C468106607B8A0F4006D8
:10879000400E012A04D001287DD9880F03D00AE0B9
:1087A000012878D0F9E700F0BFFD012803D0FEF7DB
:1087B0000FFD01286FD1207D8006800F022803D194
:1087C000FEF706FD012866D1207D8006800F44D08B
:1087D00000F0B6F9014600220120FDF77BFB050001
:1087E00059D0207D8006800F01280BD03168487851
:1087F000C009C0014870627B31685206520E521E99
:10880000104348702846B2880C303168009005F05B
:108810007EFD216859208A7F42431046134641302D
:1088200069330818CF1840328B5C217D490707D582
:10883000EA681178C909C9011170EA681943117011
:10884000294E227D3168D207D20F8A1A002300995F
:10885000FFF776FD002842D102E000F075FDB9E790
:10886000217D3068C907C90F411A3A46E868FFF709
:10887000D5FE002833D11D480068002817D0FEF728
:10888000A7FC012804D0207D8006800F01280ED18E
:108890006189009800E025E000F08CFC002806D0FB
:1088A0006089002803D00121C903884217D3207DA5
:1088B0008006800F04D001280CD002280FD102E0DE
:1088C00000F032FD01E0FEF783FC012800D000201B
:1088D000002804D0002211462846FDF761FB2846F7
:1088E00005F0CDFDF8BD0000882F00201C040020FD
:1088F000F8B501460646893159220C463030F8F762
:108900000BFA59212046F8F722FA304600F09AFE79
:108910000025114F1BE02820796A68430C18208835
:10892000B18B884212D1207900280FD02146163110
:108930001122601D0091F8F7EFF911210098F8F766
:1089400006FA00202071204600F0E6FD6D1CFCF7C1
:1089500005FFA842DFDCF8BD0830002010B5044652
:108960000B480068002806D0002C01D0A08B00E046
:108970000848FEF7FFFB08480068002806D0FEF70D
:1089800027FC012802D1204600F028FB10BD000082
:10899000E4030020FFFF00001C040020FFB5044694
:1089A000406881B0807A1F461546FF2803D1FEF744
:1089B0004DFA61688872029900220C3120460091BC
:1089C000FFF72CFC060057D12E480068002821D064
:1089D0006068817A01291DD08188009800F0EAFB47
:1089E000002817D060688088002813D00121C903AF
:1089F00088420FD2002D3FD02B68002B03D00021DE
:108A00003A46084698476A68002A35D03946002019
:108A1000904731E060688088FEF7BEFA002805D1F3
:108A200060688088FEF744FA00281CD0002D06D02C
:108A30002B68002B03D000213A460846984702983D
:108A400005F029FC0146104805F006FD002D05D073
:108A50006A68002A02D03946002090470A480C383C
:108A600003F034FD08E06068807A012804D03A46BB
:108A700029460298FDF794FA029805F000FD304669
:108A800005B0F0BD1C040020A02F0020F8B5FDF7B4
:108A90007DFD012811D0FDF745FD244C20680028FC
:108AA00005D0FEF795FB022801D0206880472048BA
:108AB0000068002804D0804704E0FDF743FDECE7A0
:108AC00000F0EAFC1B480068002800D080471A4DDF
:108AD000A86A878B00F046F900902846803806681F
:108AE000A86A0221847F28467838FDF775FC0028A3
:108AF00001D002200443334622463846009900F054
:108B000037F900240D4E0BE01620296A604309183E
:108B10004888B04203D00A7D098800F095F9641CAA
:108B200007F072FAA042EFDCF8BD00001C04002040
:108B300048020020E403002008300020FFFF00006E
:108B400002484068002800D00079704720020020C9
:108B500070B5114D6C68601C686000F05FFD2846C0
:108B600002210830FDF738FC002813D10B49686852
:108B700088420FD9002000F001FE00280AD0012011
:108B8000FDF716FD28680121401CFFF75FFC00205F
:108B9000FFF7E4FE204670BD882F002000E5B000FE
:108BA000F7B582B00F46050007D00022FCF79CF90C
:108BB000002827DB0024174E20E0012500240DE0CB
:108BC0006A4639462846FCF78FF900280BD0801DED
:108BD00001D0002507E068460588641C07F014FAF8
:108BE000801CA042ECDC002D0CD0E3E71620316A9B
:108BF000604308180188002907D0641C07F004FAB4
:108C0000A042F3DC002005B0F0BD05800775049993
:108C10004180F8E70830002070B50024084D0AE0D4
:108C20001620296A604308180188002902D0012112
:108C300000F008F8641C07F0E7F9A042F0DC70BD12
:108C40000830002010B50446002901D0FEF75BF87B
:108C5000002020801021201DF8F779F810BD0000B9
:108C600070B5054600240A4E0BE01620316A6043B9
:108C700008180188A94203D8027D8918A94205D89D
:108C8000641C07F0C1F9A042EFDC002070BD0000B9
:108C9000083000207CB5044600F07CFF002803D19A
:108CA000FEF760FB00283CD1A088062839D3204677
:108CB00005F059FB0090204605F078FB69460871E5
:108CC000204605F073FB6946487102211548FDF7FF
:108CD00095FB002804D014480099C06A884220D12E
:108CE0006E4671792546A0888907104CC90E09196E
:108CF0004979884215D302210A48FDF77FFB0028F5
:108D000007D1684640798007C00E00190079002815
:108D100007D16846407929468007C00E2258304660
:108D200090477CBD9830002098310020DC5601002F
:108D300010B50A494968814202D00420C04310BDE1
:108D400007F066FF044606488068426B002A02D09E
:108D5000002102209047204610BD000098300020DE
:108D6000A40200200148008870470000FC01002098
:108D700030B4054CA468A46B002C02D0A44630BCCF
:108D8000604730BC70470000A40200207FB5064C4D
:108D90006568E46802920091019503940222694695
:108DA000FDF73EF904B070BD845A010008B5009289
:108DB0000A4602A32021FEF7DFFA08BD7072636B3A
:108DC000000000001FB50B460021009101910291A7
:108DD0000391014691226846FDF747F904B010BDA2
:108DE0007FB500240825029300940395019419236C
:108DF000FDF73AFC04B070BD7FB50024082502934E
:108E00000094039501941923FDF758FD04B070BD3B
:108E10000148806870470000A402002010B50400DB
:108E200008D00649064803F0F9FA0648846007F0BE
:108E3000EFFE10BD0020C04310BD00007DF8000013
:108E400010320020A4020020034B9B68DB6B002B38
:108E500000D0184770470000A402002070B586B00B
:108E6000164601AD0A4607A320210095FEF784FAB5
:108E7000040004D10D22E91C3046F7F74DFF2046CF
:108E800006B070BD7072736E0000000008B50092ED
:108E9000034A0B4652890088024900F049FE08BD8A
:108EA000400300203C32002003488068006C00280A
:108EB00000D0004770470000A402002010B502490E
:108EC000024803F0ABFA10BD35010100F03100207B
:108ED00010B58AB0002404901020009401940294EC
:108EE000039408920691059007900990032204A923
:108EF0006846FDF795F80AB010BD000010B50348AC
:108F000000214089F8F732FD10BD00000003002069
:108F100010B50249F8F750FD002010BD3C3200208A
:108F2000FFB5254D0121A86881B00143A96008352E
:108F3000C0071646C00F03D00120C04305B0F0BDE6
:108F40001E4F3868002804D0002000F0F9F80028EF
:108F500014D000243146049B019A0298FFF782F84E
:108F600006000DD0286840084000286038680028B6
:108F700002D0002C00D080473046DFE70124E9E72B
:108F80000D49002048600A98FDF70AFF0A481022A0
:108F900090300B99F7F7C0FE00F01BFB06488030BD
:108FA000806A00F04FFB002000F0E8FA012000F09A
:108FB000A7FA0020C2E70000882F00201804002034
:108FC00010B52838027A012A04D0022A01D101F012
:108FD0005DFB10BD01F039FB10BD000070B506004F
:108FE0000DD0124D00242046542148432858002813
:108FF00002D031460AF078FA641CF4D070BD002427
:109000000B4D0C4E0CE02046E42250430246A96A68
:109010001C328A5AB24202D00818FFF7DFFF641CE4
:109020000AF002FBA042EEDC70BD00000433002019
:1090300008300020FFFF0000F8B518490878002824
:1090400004D0022805D00320C043F8BD0120C0434E
:10905000F8BD0025124F2E4654206843C4192068DD
:1090600000280AD0207A012801D0022805D12672D2
:10907000206813210088FEF7B5F82068008800F00A
:109080000FF96D1CE8D0FEF7B1F8044806700448EB
:109090001C3803F0B9F90020F8BD000010040020CE
:1090A00004330020034800218185016B8162283050
:1090B000704700000433002070B5FEF753F9002814
:1090C00003D000240C4D0D4E10E00520C04370BDB0
:1090D000E420A96A60430818818BB14205D02021A1
:1090E000095C022901D000F00BF8641C0AF09CFA1C
:1090F000A042EDDC002070BD08300020FFFF000022
:1091000010B5044601212030017003F0D2F96062ED
:109110000548E421806A201AF7F7B4FD0349886105
:10912000034803F0D3F910BD0830002010040020DC
:10913000E8320020002120221154416270470000D3
:10914000F1B51A4E3078002804D0012805D003204C
:10915000C043F8BD0120C043F8BD00252F46542070
:109160001349684344182068002814D0217A032941
:1091700011D10099002904D000881321FEF732F89C
:1091800005E0B168002901D0FFF7D2FD2772206801
:109190000088FFF7BDFE6D1CE1D0FFF7AFFE04486D
:1091A00037701C3803F030F90020F8BD100400209F
:1091B00004330020F3B500208DB00E4607460B9017
:1091C00054203946414322480C182248806D0190B2
:1091D00003A8009002902068002833D0207A02284B
:1091E00005D01D4A96421CD001280DD02AE000254A
:1091F00005E060686900415AB14223D06D1C07F058
:109200005DFAA842F5DC0CE0002505E06068690025
:10921000415AB14205D06D1C07F050FAA842F5DC66
:1092200010E00121684605F0E6F80D988288016893
:10923000684605F06CF86A460021206800F00EF8D8
:1092400001200B907F1CBBD00B980FB0F0BD00002D
:1092500004330020245B0100FFFF000070B51546B9
:109260000C46064601F028FA00280BD0007A0328A5
:109270000BD00020032C0AD00021884209D0002006
:10928000C04370BD0420C04370BD0120F2E701213E
:10929000F3E72A462146304607F0AAF870BD0000E1
:1092A00010B50249F8F788FB002010BD4C320020B1
:1092B00010B5002808D02021054800F00BF804491B
:1092C00008462030F7F781FC0148203010BD00002F
:1092D0005C320020F8B50E46050004D0002E02D006
:1092E0000024B7080FE00520C043F8BD0AF056FE81
:1092F0000146A000401901700A0A4270090C8170F1
:10930000090AC170641CA742F0D8B00709D00AF05E
:1093100045FE0090B207A000920F40196946F7F78A
:10932000FBFC0020F8BD000003484068002801D085
:109330004079704702207047200200200149012037
:10934000087070472002002002484068002800D0C2
:10935000807970472002002010B500211E48FDF7DB
:1093600020F8002836D01C480024083804604460E7
:109370008460743003F048F8FDF7CAFB00F036F85B
:1093800000F0A2FB15480068002802D00120FEF77B
:109390002DF913480068002802D01248FDF74CFE52
:1093A000FFF74AFEFDF7A4FC0E210F48FCF7F9FF7A
:1093B000002801D0FFF730FC074878300461446191
:1093C0008461C46100F063F8FDF7ACF8FDF708FDB7
:1093D000FFF76AFD10BD0000902F0020480200201A
:1093E000E4030020FFFF00009830002070B5002447
:1093F000074D06E0A968A0014018012108F006F910
:10940000641C07F079FDA042F4DCFDF795FC70BD0B
:10941000B80200207FB50546002000900190029020
:1094200003900C462846F7F79DFC02462346294642
:109430006846FCF71AFEC0B204B070BD70B51D4698
:109440000E46032A18D1A888012815D9184604F019
:10945000ADFF040010D0A888A0420DD3284604F028
:10946000A5FF641EAC8029280DD02A2805D02B2802
:1094700002D12846FDF7B8F870BD002231462846D3
:10948000FFF7F4F870BD2846FFF704FC70BD10B577
:10949000FCF71BFD10BD00001CB505494868896834
:1094A0000191009003496846FCF708FD00201CBDAF
:1094B000105101003D94000008B500920A4602A335
:1094C0002021FDF759FF08BD7072736B000000008A
:1094D0000149088070470000B802002010B5054916
:1094E000054802F09BFF09F03FFB044809F0D4FA5D
:1094F00010BD0000792E0100583000208C020020A1
:1095000001B5FFF7C3FA69460248FEF7CBFB00201E
:1095100008BD00003DE1000038B5044641886A46B8
:10952000012003F06BF801229203002801D001888A
:1095300010E00098002813D0018801231B03194371
:1095400001806388090B1B0509031B0D19430123C7
:109550005B03194391430180072007F0FFFC38BDEE
:10956000204609F0FFFB38BD10B50C2007F0F6FCD3
:1095700010BD10B50B2007F0F1FC10BD10B504466E
:10958000092007F0EBFC002C02D10A2007F0E6FCD2
:1095900010BD10B50F2007F0E1FC10BD10B5C1885B
:1095A00001221143C1800D2007F0D8FC10BD10B579
:1095B000C18804221143C1800D2007F0CFFC10BDEB
:1095C00010B5C18802221143C1800D2007F0C6FCEE
:1095D00010BD10B5082007F0C1FC10BD38B5044619
:1095E0000088694605F0DAFB002802D0002181706E
:1095F00004E00098002805D0218801800E2007F0A3
:10960000ADFC38BD204609F013FC38BD10B5012172
:10961000C170062007F0A2FC10BD000010B508F0D4
:10962000F5FF002808D008F0F1FF01460448406823
:10963000F7F712FB002902D10A2007F08FFC10BDBA
:10964000882F002038B50446818B6A46002002F03E
:10965000D5FF01229203002801D0018810E0009874
:10966000002813D0018801231B0319430180A38B19
:10967000090B1B0509031B0D194301235B039943C8
:1096800091430180072007F069FC38BD204609F0AE
:1096900095FB38BDF8B505461A480F4640680028C6
:1096A00009D0018EAA8B914205D102F019F8002F42
:1096B00001D0FFF75EFF0024134E0BE02820716AF3
:1096C000604308180188AA8B914202D13946FCF701
:1096D0004FFD641CFCF742F8A042EFDC0B48006829
:1096E000002802D0A88BFDF7A7FC002F02D0284647
:1096F000FDF727FBE4212846F7F729FB0020C043AC
:10970000A883F8BD2002002008300020E4030020D8
:10971000FFB581B01E460025164F25E0E420B96A4A
:1097200068430C18A18B144881421CD0009601A9F3
:109730000EC920463030FCF77EF8002801D0002109
:109740000CE0E07F00280ED0009601A90EC920464B
:109750008930FCF770F8002805D001210A980170C3
:10976000204605B0F0BD6D1C09F05EFFA842D5DCB7
:109770000020F6E708300020FFFF000070B5064625
:109780000D480E4D864201D1A86A70BD00240DE03F
:109790002146E4225143A86A1C31405AB04204D108
:1097A000E421A86A4C43001970BD641C09F03CFF19
:1097B000A042EDDC002070BDFFFF0000083000205B
:1097C00070B500240E4D08E04820696860434018D9
:1097D0000C49283002F022FE641C0AF0A7FDA042CA
:1097E000F2DC002407E0A968A001401806492430F3
:1097F00002F014FE641C07F07FFBA042F3DC70BD96
:10980000B80200200915010085140100F0B50546D5
:10981000002089B0C0430690079000266846067471
:10982000067353480C46006800280BD020686189F5
:10983000808BFDF759FC217DC0014906490E01438B
:10984000217503E0207D4006400E20750921284641
:1098500004F073FD47480068002812D0FDF7D2FEDF
:1098600000280ED0207D8006800F0AD1FEF79EF9D9
:10987000002802D0207D400703D40520C04309B052
:10988000F0BD284604F055FD69468882A888C88244
:1098900028680078C0090DD0207D410601D4C00998
:1098A000EDD003A8009006AB04AA2146284606F096
:1098B00013FF23E00120087306A80090A888002762
:1098C000FF4300281BD00021204602F0FBFB0028AC
:1098D00015D1284604F06AFD0146207D020705D512
:1098E0002A462046009B00F011FD07E0420601D405
:1098F000C00925D02A46204607F040FC07461D48EF
:10990000006800280AD0FDF77DFE002806D0FEF78B
:109910004DF9002802D02046FEF704F96946898AED
:10992000A868401869462860C88AA880104800685E
:10993000002819D0207DC00916D0002F02D013E0D6
:109940003746DCE706990798C943C0430143684698
:10995000007B0BD006AB694661C12146064C6846C8
:10996000027C24680020A047384688E70023F2E7FD
:10997000E403002048020020EC030020FFB5044669
:1099800088880025ED4387B00E4600280CD0FF21C3
:109990008131884203D91420C0430BB0F0BD30465A
:1099A00004F03BFD042801D22846F6E70AF076FDD4
:1099B000B188001D884204D260688022417A114338
:1099C000417205A80090606806AB828841882068D3
:1099D000FCF704FC0028E0D1E07A6946097D8007A5
:1099E000800F89000843E0726068407AC00904D0A3
:1099F000304604F012FD082803D2E07AFD21084029
:109A000002E0E07A02210843E07260680121808868
:109A1000C9030122411A9203914203D2FDF79EFD30
:109A2000054600E0002502211A48FCF7F0FC01463B
:109A30001848278908380268511A42686068838884
:109A4000049101970095029303924088124988423D
:109A500002D0491E884201D1012100E00021E07AB4
:109A600033468007C20F0698FCF738FB002894D1D4
:109A70006068099A407AC1090020009000290A9B79
:109A80003146204602D008F0C1FB86E708F020FDF1
:109A900083E70000902F0020FEFF000070B5002437
:109AA000084D09E04820696860434018807E00281E
:109AB00001D0012070BD641C0AF038FCA042F1DC2A
:109AC000002070BDB802002070B50024064D06E0ED
:109AD000482069686043401807F06EFE641C0AF075
:109AE00025FCA042F4DC70BDB802002030B589B07E
:109AF0000C46054669460CA0FFF78CFC002811D1E6
:109B000004AB102229466846FCF7AFFA002809D1B9
:109B10006846C08B012140BA8004800CC9034018FC
:109B20002080002009B030BD767461640000000020
:109B3000FFB583B0154668460C9AC28000201E46C9
:109B40000F460346009012241B210398F8F70EF8E5
:109B5000029000281BD06846C28831460298F7F769
:109B6000DBF839460398F7F764FFC00708D068466A
:109B70008580002201A90398F7F7C2FF040003D0F3
:109B80001B2101A8F8F738F8204607B0F0BD0620E1
:109B9000C043FAE710B502210248FCF72FFCC0B21F
:109BA00010BD00009830002010B56421014802F07B
:109BB00049FC10BDF031002010B5CA7850070AD416
:109BC000084692061430002A01DA496801E07D2136
:109BD000C90002F037FC10BD10B5D078F72108405D
:109BE000D0701446800606D4606B002803D004F0C1
:109BF00046FC0020606310BD10B501790023DB43F3
:109C000000290ED1826A002A0BD007494A609900C8
:109C10001060818110460549103002F0FFFB0020E2
:109C200010BD184610BD0000DC030020C136010045
:109C300070B5084D04466A68002A0AD090686060D2
:109C4000217000F05BF968684168002901D0204666
:109C5000884770BDDC03002070B5084D04466A6873
:109C6000002A0AD090682060217100F053F96868DA
:109C70000169002901D02046884770BDF803002003
:109C8000F8B51E4617460D46FCF73CFF00280ED0DF
:109C9000094C002D0ED00723621C3146384603F0D4
:109CA000F9F9002802D1012020700020F8BD07201A
:109CB000C043F8BD0020F7E78402002070B50546D8
:109CC0000179846A0020C043002931D1002C2FD0B3
:109CD000617902292CD8E179012929D8A17A7F2933
:109CE00026D84000134EA88131780220002900D1E7
:109CF000607111490968002900D160720F49096833
:109D0000002900D1207220460D490C3002F086FB5C
:109D10000020C04320860021A1632560E1637460B8
:109D200002F080FD18214143B068F7F710F80020D9
:109D300070BD000020020020E40300201C0400206D
:109D400085B8000070B5016880880D18281F09F0DB
:109D5000F4FC04462846083809F0EFFC44400C485F
:109D600000218A008258A24201D1012070BD491C05
:109D70000829F6DB074A91688B00C450491CC817B4
:109D8000400F4018C008C000081A9060002070BD45
:109D9000383000205402002000B587B0034605A2E9
:109DA0001921684609F0E8FE684608F077FC07B01C
:109DB00000BD000062742F6D6573682F4170704B99
:109DC00065792F2578000000F8B50E460546FCF7AA
:109DD00099FE314C0746002D11D1207BC1060ED5CE
:109DE00080060CD4E079032809D202F0A9FE207B7A
:109DF000FB210840F107490F08432073F8BDFFF726
:109E0000F5FA20461430009002F0FEFA2248A188AC
:109E10005C30806A808B00F0F3FD207B002580069B
:109E2000002801DA258201E0A08820821B484168D1
:109E3000002904D0207BC00601D502208847A580D8
:109E4000207BF7210840C0B2FB21E5710840A571D5
:109E50006573C0B2CF21E570084025646564C0B267
:109E600001210843A5642073F88D000701D5FDF793
:109E700001FA0948001F002E02D000210171F8BD2F
:109E80000321017102F0D0FF7D21C90041430098F8
:109E900002F0D8FAF8BD0000AC2F002048020020E4
:109EA00000B587B0034605A21921684609F064FE93
:109EB000684608F0F3FB07B000BD000062742F6D28
:109EC0006573682F4E65744B65792F257800000007
:109ED00000B585B0034605A21421684609F04CFE82
:109EE000684608F0DBFB05B000BD000062742F6D12
:109EF0006573682F4E6F64652F25780010B5044890
:109F000000214068C1608160103002F07DFA10BD10
:109F1000DC03002010B5044800214068C160816066
:109F2000143002F071FA10BDF803002001B50E21C3
:109F30000C48FCF763FA002813D004210948FCF709
:109F400016FA002804D1012269460220FBF7F0FD31
:109F500005488068426B002A03D0684601780120DA
:109F6000904708BD98300020A402002070B5054637
:109F7000806800280ED0416900290BD08088002815
:109F800008D02846FDF716FF010003D0A868183056
:109F900002F058FA0748006800280AD00024600040
:109FA0004019408A002801D0FDF722FD641C062CD0
:109FB000F5D370BD48020020F8B50C46064604F003
:109FC0002CFA21796279490092008918091D88428A
:109FD00002D21120C043F8BD6188304604F08AF9EE
:109FE0002179304604F09EF96179304604F09AF9FF
:109FF000002508E02C20A168684308180188304635
:10A0000004F078F96D1C2079A842F3DC00250CE0FF
:10A010002C20E16868430F187988304604F06AF90B
:10A020003988304604F066F96D1C6079A842EFDC8F
:10A030000020F8BD00B5084985B049681046C968D8
:10A04000022906D1029004F0B1F901466846FFF7F3
:10A05000EFFD05B000BD0000DC03002070B5064632
:10A060000024FCF797FE054620480078002800D021
:10A0700001241F480068002801D0022004431D4825
:10A080000068002801D0042004431B480068002811
:10A0900001D0082004432988304604F02BF9698850
:10A0A000304604F027F9A988304604F023F906F079
:10A0B000A7FE0146304604F01DF92146304604F063
:10A0C00019F900240BE0E86821014118002C0BD09D
:10A0D00000223046FFF770FF002804D1641CA868F6
:10A0E000A042F0D8002070BD0122F2E7200200203B
:10A0F0001C040020E40300204802002070B51C4D21
:10A100000246002912D001290FD100F0E7FA04001D
:10A110000BD06868002805D04268002A02D00021D0
:10A12000204690476068401E606070BD1049002066
:10A130000831C3005B185B68002B11D0401CF8D0BD
:10A14000002000280FD002804168491C41606968E6
:10A150000029EAD00A68002AE7D00021904770BDA4
:10A16000C0004018EDE71046F7F7AEFB70BD0000E9
:10A17000F002002030B50023084D0CE0CC5C4440D8
:10A18000200124092C5D6040C0B204010009285C54
:10A190004440E0B25B1C9342F0D330BDB4560100A2
:10A1A000F8B51F46069E089D079B0446002901D06E
:10A1B000022000E001202070D0071843611C09F044
:10A1C000D9FA611D384609F0D1FAE11D304609F08F
:10A1D000CDFA21460931284609F0CCFAF8BD000035
:10A1E000F8B5002016460C46034600901F2217497A
:10A1F0001748FBF7A9FE051E27D0207AC007010EDD
:10A2000028460C30074604F08DF8E079C10904D0E7
:10A210004106490E3846803102E04106490E384673
:10A2200004F080F80322211D384604F070F82188DC
:10A23000384604F045F86188384604F041F8B288A1
:10A240003846316804F063F82846F8BD61A800007C
:10A25000BC320020FFB581B01E46154613490B9F46
:10A260000C9C0198FDF77DFD3946019804F05AF8E1
:10A270003146019804F03EF80A99019804F03AF842
:10A28000002D09D00421019804F009F80422214688
:10A29000F6F742FD05B0F0BD0221019803F0FFFF83
:10A2A0002178017061784170F4E700003E80000081
:10A2B00010B5002303704C7844708C788470CC788F
:10A2C000C4700C7904714C79447189798171C371BE
:10A2D000014603720931104609F04CFA10BD10B561
:10A2E00003230370002343708C788470CC78C4708F
:10A2F0000C7904714C79447189798171C37101467B
:10A3000003720931104609F035FA10BDFFB581B06E
:10A3100004466846017A15464E06760E07D00A2E88
:10A3200009D0207D400627D4002005B0F0BD20468E
:10A3300009F0F6FEF9E7A888032802D20020C043FE
:10A34000F3E71A49608909880027884212D110462C
:10A3500004F02CF84606760E284603F0F6FF034676
:10A36000607B61894006400E301A401CC2B22089D1
:10A37000FCF74EFF3846D8E70D4F3868002803D069
:10A38000FDF740F9002808D00A480368002B09D0DF
:10A390002A46214630469847C7E72A462146304696
:10A3A0003B68F8E70720C043BFE70000B802002081
:10A3B000F00300205002002030B505460D4887B05C
:10A3C000006E029004A80C46019003900A4901A86F
:10A3D000FDF7C7FCFCF73AFD014601A803F0A2FF18
:10A3E00000200346009001AA21462846FDF7EAFD19
:10A3F00007B030BD5C5101000E80000030B504464E
:10A40000154887B0C06E029004A801900390A06A1E
:10A410000D4600280BD0116809787F2919D8012929
:10A4200017D0827A8A4202D08172FFF79DF80B49D9
:10A4300001A8FDF796FCFCF709FD014601A803F011
:10A4400071FF00200346009001AA29462046FDF72F
:10A45000B9FD07B030BD00005C5101000E80000066
:10A4600070B506461448E4B0C068029004A8019094
:10A4700003900D46104603F099FF040000D000241D
:10A4800068464089002814D0022101A8FDF769FC24
:10A49000214601A803F046FF01A8FFF7DFFD0028D1
:10A4A00007DB00200346009001AA29463046FDF74D
:10A4B00089FD64B070BD00005C5101000248406835
:10A4C000002800D10148704710020020080604004F
:10A4D00001488068704700001002002010B50C464B
:10A4E00002F0F8F9002804D040882146F7F7A8FCCC
:10A4F00010BD122010BD000010B500F037F9002883
:10A5000006D0846803480121007809F091FB201AE5
:10A5100010BD0000C40200203EB5044649061546A1
:10A52000490E104603F060FFFEF71CFC69460880E8
:10A5300020884880C87980210843C009C001694645
:10A54000C871032101A8F6F702FC02210648FBF7B7
:10A5500067FF05492A4608390968081A02906946C2
:10A560002046FFF73DFE3EBD902F002038B50D0080
:10A5700080881C46049943BA009201D003A200E0EF
:10A5800007A2204609F0F8FA38BD000062742F6D6A
:10A590006573682F566E642F25782F257300000091
:10A5A00062742F6D6573682F5369672F25782F2587
:10A5B00073000000F0B50546144887B0806901902B
:10A5C00004A8009002900E46E889FFF7D7F80746E6
:10A5D0000121684603F00FFF0621684603F05FFE85
:10A5E00004463846FDF7E2FE207009480422006860
:10A5F00003A900BA0390601CF6F78EFB66716A46E9
:10A6000002212846FFF788FF07B0F0BD945A0100E9
:10A61000882F002010B50446383003F01DFF206C51
:10A62000401C206410BD10B50446FFF7C3FF0100B5
:10A6300002D02046FFF7EEFF10BD10B5F7F73EF849
:10A64000002801D00D20C04310BD70B50E00054696
:10A6500017D0002405E068686100405AB04210D06D
:10A66000641C06F02BF8A042F5DC002405E06868C5
:10A670006100405A002805D0641C06F01FF8A04273
:10A68000F5DC70BD68686100465270BD70B50D00A4
:10A6900006460AD000240AE070686100405AA842C9
:10A6A00004D1002071686200885270BD641C06F0FD
:10A6B00005F8A042F0DC70BD074A002154234B434B
:10A6C000D358834203D15420414388187047491C12
:10A6D000F4D000207047000004330020064A002117
:10A6E000CB00D35A834202D1C80080187047491C5E
:10A6F000F6D0002070470000F8020020FFB581B0BE
:10A70000164600240A9F0B9D29E02C2001996043E6
:10A710004018032189033F22711A120228609142D6
:10A7200006D90121C9030122711A9203914204D270
:10A730003146FDF78DFA00280FD02868049903F000
:10A740008DFC002809D02868006A03E00168B9423E
:10A750000AD00C3081680029F8D1641CE4B2029858
:10A760008442D2D30020286005B0F0BD02490868B9
:10A77000884200D100207047C802002010B50A4866
:10A78000044609F03CF800280CD121680A682260D0
:10A790006068884200D162601839C889FBF75CFFA5
:10A7A00003F06DFE10BD00005C2F002030B4836804
:10A7B0000C46002B03D0204630BC1146184712200F
:10A7C00030BCC0437047F0B4046815460E46002CF8
:10A7D00005D029463046A446F0BC1A466047F0BC76
:10A7E0001220C0437047F0B4446815460E46002C52
:10A7F00005D029463046A446F0BC1A466047F0BC56
:10A800001220C043704700207047C268002A01D060
:10A81000084610471220C043704700000249CA7A18
:10A82000082AFCD00872704700340040F8B50024B4
:10A830000A4D2646BF27A0004119FF310131C86CDF
:10A84000002809D0CE6481690A7A3A400A7203F07E
:10A8500016FE641C032CEED3F8BD000098300020D7
:10A86000034900220969D24340000A524018704748
:10A87000E4030020F8B504461D484268002A05D0CC
:10A88000E078800602D520880221904720461430C7
:10A8900001F0BAFD2188E08900F0B2F8606B002772
:10A8A000002802D003F0EBFD67632046383005F046
:10A8B0008FFE002508E00C20216B68430E183046FF
:10A8C00005F086FE37726D1C00F094FAA842F2DCA7
:10A8D000E078C721084040084000FB210840276479
:10A8E000E07000F08DFA41002069F6F730FAF8BD0B
:10A8F000E403002010B50C4AD3795B1C011E0B4801
:10A90000D37108D003210171107B4007C10F0020D3
:10A91000FFF75AFA10BD01210171104604491430A5
:10A9200001F090FD10BD0000AC2F0020A82F0020EA
:10A930004C04000010B50C460846403461897D2265
:10A94000D20051434C3001F07DFD608940006081B0
:10A9500010BD10B50021C9430180002141808180D4
:10A96000C18042210830F6F7F2F910BDFFB500258D
:10A9700081B00F4606462C4616E020464A21484341
:10A980001E490246C96840184088002805D0B842D0
:10A9900009D1885AB18B884205D14A2044431748CF
:10A9A000C068251804E0641C00F018FAA042E4DC3A
:10A9B000002D0FD0B08B28806F800398A88004985A
:10A9C000E880324630320021284600F093F8002813
:10A9D0000ED102E0002005B0F0BDB07F00280BD002
:10A9E000324689320121284600F084F8002803D03D
:10A9F0002846FFF7AEFFEDE72846ECE754020020BB
:10AA0000F8B50D46064600240B4F0EE04A20F968C3
:10AA1000604340184188A94206D10188B14203D160
:10AA2000FFF797FF0020F8BD641C00F0D7F9A042A3
:10AA3000ECDC0720C043F8BD54020020FFB581B014
:10AA40001F460E46054600242DE01A494A20C968D3
:10AA5000604340180188AA8B914223D1002E02D076
:10AA60004188B1421ED10399002906D0A97F4A012D
:10AA7000891809180A7A03990A70002F05D0A97F4E
:10AA80004A0189180918093139600A99002906D044
:10AA9000A97F4A01891808180A991930086000200E
:10AAA00005B0F0BD641C00F099F9A042CDDC072090
:10AAB000C043F5E75402002070B5054600240C4E53
:10AAC00010E04A20F168604340184188002908D00E
:10AAD0000188A94205D10146212229310830F6F723
:10AAE0001BF9641C00F07AF9A042EADC70BD00009A
:10AAF00054020020F7B504461B486688006886B0FB
:10AB0000002808D01948008D864204D1FEF72AF9A2
:10AB10000646658802E0FEF725F9054601206946EC
:10AB2000087202AF3046093108F01CFEF91C2846B5
:10AB300008F018FEA088791D08F014FEE088F91DC1
:10AB400008F010FE07980922410140180319194620
:10AB50001846193109300191009002A9083308986C
:10AB6000FCF720FC09B0F0BD48020020882F00202F
:10AB7000F8B50024074605460D4E893711E04A20F6
:10AB8000F168604340184188002909D00188AA8BE8
:10AB9000914205D13A460121FFF7ACFF002805D1CB
:10ABA000641C00F01BF9A042E9DC0020F8BD0000A5
:10ABB00054020020FFB583B01E460F46002539E041
:10ABC00023494A20C9686843441803982188808B28
:10ABD00081422ED13878217A4006400E88420ED12B
:10ABE00005990C9800912246029021463B46193265
:10ABF00001960931039803F069FC002820D00398DE
:10AC0000C07F002815D0387841062920005D490E04
:10AC100081420ED105990C9800912246029021465E
:10AC20003B463A3201962A31039803F04FFC002844
:10AC300008D06D1C00F0D2F8A842C1DC0720C04348
:10AC400007B0F0BD307D0221084330750020F7E7E2
:10AC50005402002010B507F027F810BD70B5054666
:10AC6000C078164680061BD5E889884218D1002E88
:10AC700008D00120C003864204D21146284601F0C4
:10AC800013FA70BD002407E028696100405AB04201
:10AC900001D1012070BD641C00F0B2F8A042F3DCC9
:10ACA000002070BDFFB581B01746002500F09CF86C
:10ACB0000499884221D3002412E00198016B0C20F2
:10ACC00060430E18002F08D038880299C204D20CB5
:10ACD000304601F035FA00280CD1307A641C451951
:10ACE00000F088F8A042E8DC00F07EF8411B0498F0
:10ACF000814202D9012005B0F0BD0020FBE7000031
:10AD000010B5074A002909D1508210466421143039
:10AD100001F098FB02490420091F087110BD0000D2
:10AD2000AC2F002010B50446C078012807D1207B45
:10AD30000421C841490740181C21C84120732046FE
:10AD4000143001F061FBFEF7A2FB034906200871F5
:10AD50000020E071E07010BDA82F002070B50546FE
:10AD6000846A10680E460278002A01D0012A1AD19E
:10AD7000002C14D0607A904211D00B480068002853
:10AD800008D06272FEF7F0FB607A002802D1074813
:10AD9000FCF752F9E08D400701D5FCF76BFA31461C
:10ADA000284606F081FF70BDE4030020FFFF00008D
:10ADB00000B50849084B496885B0C96810469942F2
:10ADC00005D103F0F3FA01466846FEF731FF05B0FE
:10ADD00000BD0000DC030020118000000148006875
:10ADE000807E70471002002001480068C07E7047D6
:10ADF0001002002001480068007E70471002002009
:10AE000001480068407E7047100200200148006938
:10AE100070470000BC34002001484069006870475A
:10AE2000BC34002010B5064A50690168491C016015
:10AE3000D078FF2803D00121890309F0D5F810BD8F
:10AE4000BC34002070B50C00054612D0A07805284F
:10AE500006D10620FAF7D6F860890021FFF74EF9EF
:10AE6000A078062805D1FAF7CDF8A0880121FFF7D0
:10AE700045F9FAF7C3F80574FAF7C0F80021143061
:10AE800001F0E0FA70BD0000074A002106234B43A1
:10AE9000D35A834203D10620414388187047491C86
:10AEA0000329F3DB002070472835002001460648BF
:10AEB000406906E0826852898A4201D1001D7047CC
:10AEC00000680028F6D17047D404002000B50F298F
:10AED0002ED00BDC0B00F9F73DFB0F23232323239C
:10AEE0002B252B232B232B232B272300182917D08B
:10AEF00008DC10390B00F9F72DFB08131B1B13138B
:10AF0000131919131E290BD006DC192908D01B2987
:10AF10000ED01D2904D10BE0522909D0D22907D027
:10AF2000002000BDC06800BD006800BD806800BD95
:10AF3000406800BD10B50C46FFF7A6FF00280DD0F5
:10AF4000002C00D020608078FE2803D0FF2803D09A
:10AF5000162010BD172010BD002010BD022010BD0E
:10AF600000229300CB5A834202D1900040187047D0
:10AF7000521C032AF5DB002070470000FEB54C6828
:10AF8000089D6678277834020E783C43022E02D161
:10AF9000054EB44201D00120FEBD0224009501946B
:10AFA000F6F722FDFEBD00000229000010B506F0F4
:10AFB0009DFE10BD70B50546846A10680E46037884
:10AFC000002B01D0012B1AD10D480068002812D0A7
:10AFD000FCF7FEF802280ED0002C0CD01068217A65
:10AFE0000078814207D02072FEF7BEFAE08D80071C
:10AFF00001D5FCF73FF93146284606F077FE70BDD3
:10B000001C04002000B50849084B496885B0C96890
:10B010001046994205D103F0C9F901466846FEF78A
:10B0200007FE05B000BD0000DC0300201480000016
:10B0300010B52449C96C00291BD001792148403042
:10B04000007A814215D104211F48FBF7D7F9002867
:10B0500001D104F0BBFD0E211B48FBF7CFF90028FE
:10B0600008D00A211848FBF771F9002802D007F030
:10B0700003F810BD0B211448FBF768F90028F8D03D
:10B080000C211148FBF718F90E210F48FBF7B6F910
:10B09000002807D00D210C48FBF758F9002801D0F3
:10B0A00006F018FD0E210848FBF7A8F90028E0D1AA
:10B0B00007210548FBF74AF90028DAD006F05CFEC4
:10B0C00010BD00009831002098300020F8B5144DD4
:10B0D00006462878B0421ED0F9F76AFF04001AD05D
:10B0E0002878FF2818D000250E48C16A20460C3069
:10B0F000074603F0F3F83146384603F013F901210F
:10B10000384603F00FF9002229462046FAF748FF97
:10B11000204603F0B4F9F8BD2E70034DE4E70000BB
:10B12000A402002098310020D4560100F8B50F4643
:10B13000234C4179627C00798D08824202D1FFF76D
:10B14000C5FFF8BD1E4E217C203E88420AD0521C0D
:10B15000904207D12074B06B03F051F9FF20A07426
:10B16000E07401E08842ECD1E07CA8420BD3A84215
:10B170000DD1B16B172209795043081AC01CB98848
:10B18000C0B2814203D0022005F0D4F8F8BD0120FE
:10B19000A17CA84001420090F8D0B06B17214D432C
:10B1A0000068ED1E4019BA883968F5F7B5FDA07C36
:10B1B00000998843A074E9D104F0E2FEF8BD0000D4
:10B1C000B831002070B5044640790D4682080CD095
:10B1D000012A15D0022A07D102211C48FBF70EF9DB
:10B1E000002801D005F006FD70BD0E211748FBF7C1
:10B1F00005F90028F8D12946204601F0EFFB70BD83
:10B200000E211248FBF7FAF80028F8D0A888002889
:10B21000F5D10E210D48FBF7F1F80028EFD00321FE
:10B220000A48FBF7A4F80028E9D104210748FBF7F6
:10B2300025F804F0CBFC06488068016B002901D09A
:10B240000120884704F076FE70BD00009830002091
:10B25000A4020020F3B5284C0646617C0079FF2546
:10B2600081B0814202D1FFF731FFFEBD029803F0A9
:10B270006CF8214F203FB96B888030792074029898
:10B2800003F094F82075B96B8888002815D0C98818
:10B29000884212D871798A0801D014280DD98808FB
:10B2A000E074A07CC1070CD0C043C0B200F0AEF87F
:10B2B000401EC5B2E07CA84203D2022005F03AF855
:10B2C000FEBDA07C002800D00546707981080120D1
:10B2D000491C8840401E2840A0740298828801685A
:10B2E000B86B0068F5F718FDA07C40084000A0741A
:10B2F000E6D104F045FEFEBDB8310020F7B50F469B
:10B3000004465321102008F0C5FC064653211020A6
:10B3100008F0C0FC0546002E34D0002D2DD01022A0
:10B32000002108F093FD324629462046F6F76EFECE
:10B33000040023D13078000609D52946304601F0B3
:10B3400077FA3A461349284609F0D8FC03E0394613
:10B35000304601F06DFA3878000609D5294638469E
:10B3600001F066FA0B492846029A09F0C7FC05E08D
:10B370003846029901F05CFA00E01324304608F0E8
:10B38000DFFC00E01324002D02D0284608F0D8FC92
:10B390002046FEBDD35B010008464A1E1178491CB9
:10B3A000117070470148806870470000200200203B
:10B3B000002101231A468A40024202D0491CC8B229
:10B3C0007047491CC9B22029F4D300207047F8B552
:10B3D00005468888144604280F46084608D202F01D
:10B3E000D0FF0146002020702846FCF71DFCF8BD68
:10B3F00002F0C7FF0646384602F0C3FF02460120AE
:10B40000207031462846FCF732FCF8BD10B50346E3
:10B4100020200124411E22468A401A4202D10806F9
:10B42000000EF7D110BD000070B5044600680D464F
:10B430000178144A880906D0012804D0022808D0CF
:10B4400003281DD10CE07F291AD0204602F0AEFF60
:10B4500013E0A088022813D3204602F076FF0CE008
:10B46000A08803280CD3204602F0A0FF0004286027
:10B47000204602F086FF296808432860002070BD3E
:10B48000104670BDFFFFFFFF10B50A460B780F3264
:10B49000DB0900D087230F30147864005C4004700F
:10B4A000401E8A4203D01378DB09521EF4E710BD18
:10B4B00070B516480021C1600161144C012020754F
:10B4C00005F00CFC607505F003FC114D686005F09B
:10B4D000FFFBA8606868002802D10E486860A86079
:10B4E00005F0FCFB064605F001FC864202D1252052
:10B4F000687004E005F0F2FB687005F0EFFB607522
:10B500000548F8F74FFE207270BD0000502F002054
:10B510002C020020D6BE898E890D010010B50B4685
:10B52000012806D0032813D0112801D108F0F0FE1D
:10B5300010BD03F0F1FA05F0D1FB084C617D8842A3
:10B5400001D1FFF71BF90120207508F097FE10BD0F
:10B550001146184600F066F810BD0000502F00207C
:10B5600010B50D4C2078002813D000202070207AD0
:10B57000012108F04BFB207A042108F0BDFD207A60
:10B58000042108F043FB207A102108F02DFD002053
:10B5900010BD0120C04310BD502F002010B5094C34
:10B5A0002078002802D00120C04310BD0120207067
:10B5B000207A102108F02AFB207A012108F014FDDE
:10B5C000002010BD502F0020014948607047000046
:10B5D000502F002070B504461838C089FBF73CF89E
:10B5E0000F4DE96805E0A14202D10120C04370BDC2
:10B5F00009680029F7D102F04EFE094900202060B9
:10B6000008690C31002807D004604C60287A0221B8
:10B6100008F0EAFC002070BD4C600C60F6E700000A
:10B62000502F0020F0B51B4D0C46297D85B0042914
:10B6300027D1012129752978002929D0012823D073
:10B64000022821D0607806281ED9801FC6B20027A4
:10B6500003A8E7570622A11C0130F5F75DFB002186
:10B660006846017308340294C680029800906846C8
:10B6700086806C68002C07D003460322394603A855
:10B68000A0472878002803D000F006F80420287589
:10B6900005B0F0BD502F002010B5F8F7F5F90748B8
:10B6A0000749407D48700846F7F7EEFD0023FF226A
:10B6B00019461846F8F708F910BD0000502F002071
:10B6C0002C02002010B5002803D00449884201D183
:10B6D000FF2010BDFFF79AFE10BD0000FFFF000025
:10B6E00010B5002202850146428520314A730A7353
:10B6F0000C3000F089FE10BDFFB50546294889B021
:10B70000806E029004A8019003901E461746062101
:10B7100001A8AC6AFCF725FB394601A802F002FE3D
:10B72000002E08D0092101A802F0B9FD09223146F6
:10B73000F5F7F2FA2BE0218D01A802F0DBFD608D18
:10B74000002806D0012806D01749884205D1FF21DC
:10B7500008E0002106E0012104E0401EFFF756FE4C
:10B76000401CC1B201A802F0DDFD26462036317B27
:10B7700001A802F0D7FD717B01A802F0D3FDE18D95
:10B7800001A802F0B7FD218E01A802F0B3FD002050
:10B790000090034601AA28460A99FCF713FC0DB055
:10B7A000F0BD00005C520100FFFF0000FEB51E4628
:10B7B00017460D46FBF724FD040022D0284600253D
:10B7C000002821D008236A463146384601F062FC41
:10B7D000002818D169460888A0832046897820303F
:10B7E00001706946C9784170694688886084C88854
:10B7F0000005000DA084C888C0040DD5681EE08334
:10B800000BE00720C043FEBDA5832046E583203022
:10B8100045700570658400E0E5830020FEBD0000F2
:10B8200030B5174885B040681446C068062825D151
:10B83000104602F0BBFD0546204602F0A2FD694617
:10B840000881204602F0B2FD69468872204602F067
:10B85000ADFD6946C872204602F0A8FD694608732E
:10B86000204602F0A3FD6946C881204602F09EFDF5
:10B870006946088229466846FEF7DAF905B030BD08
:10B88000DC03002010B504460C3C808CFDF776FFED
:10B89000002807D0608D002803D021460348FBF71D
:10B8A000EFFC10BD0020208510BD00005C510100A0
:10B8B000002807D0FF2806D0112804D0411A012003
:10B8C000884080B27047014870470000FFFF0000C9
:10B8D00010B51446002917D12C20005D0121FFF777
:10B8E000E7FF7D21C90048430104090C06D0608DA3
:10B8F000012803D920460C3000F0A4FD608D0349D7
:10B90000884201D0401E608510BD0000FFFF00008E
:10B91000F7B50746254888B0406F029004A801900B
:10B920000390BC6A00F0BDFDE56BA26B2E46131AB6
:10B930008D4101DA002508E0101A8E417D22314642
:10B94000D2000023F5F7B2F985B2194901A8FCF736
:10B9500008FA01A80A9902F0E5FC4034218801A800
:10B9600002F0C8FC618801A802F0C4FC2846FFF779
:10B97000A9FE014601A802F0D5FCA088FFF7A2FEAF
:10B98000014601A802F0CEFCA17901A802F0CAFC90
:10B99000E17901A802F0C6FC00200346009001AA4C
:10B9A00038460999FCF70EFB0BB0F0BD5C52010064
:10B9B0003C80000030B518481849406885B0C06820
:10B9C0001446884225D1104602F0F0FC0546204678
:10B9D00002F0D7FC69460881204602F0D2FC694695
:10B9E0004881204602F0E2FC69460873204602F0D6
:10B9F000DDFC69464873204602F0D8FC694688732E
:10BA0000204602F0D3FC6946C87329466846FEF713
:10BA10000FF905B030BD0000DC0300203C800000C1
:10BA200000B50949094B496885B0C9681046994273
:10BA300007D102F0BBFC6946087200216846FEF798
:10BA40000BF905B000BD0000F803002007800000DE
:10BA500010B5846A002C0AD02060204607491430B3
:10BA600000F0DCFC06484168002903D003E0002018
:10BA7000C04310BD4460002010BD0000E536010049
:10BA8000F8030020FEB5866A15460F46104602F000
:10BA90008DFC0290284602F074FC74680346002C6A
:10BAA00007D0A988286800900191B9883046029A89
:10BAB000A047FEBDF0B505461248E5B0006902900A
:10BAC00004A80190039017460E462846AC6A00F081
:10BAD0001BF8002C13D0384602F053FC0146684690
:10BAE000408900280BD001AA284600F0E6F8002083
:10BAF0000346009001AA31462846FCF763FA65B078
:10BB0000F0BD0000B855010070B5846A0546002CF0
:10BB10000BD0104602F035FC01466068002804D0C6
:10BB20008268002A01D02846904770BD30B505468E
:10BB30000E48E5B04068029004A8019003900C46BE
:10BB4000104602F01EFC01466846408900280BD0D2
:10BB500001AA284600F0B1F800200346009001AA8F
:10BB600021462846FCF72EFA65B030BDB8550100D5
:10BB700010B50D4886B040681446C068052811D13C
:10BB8000104602F013FC69460872204602F0F9FBE9
:10BB900069464881A0880390206804900021684687
:10BBA000FEF75AF806B010BDF803002070B5054640
:10BBB0001048E4B0C069029004A8019003901646B2
:10BBC0000C46284600F018F8304602F0DAFB014631
:10BBD0006846408900280BD001AA284600F06DF87D
:10BBE00000200346009001AA21462846FCF7EAF906
:10BBF00064B070BDB8550100F8B5846A17460546B3
:10BC0000002C10D0104602F0D1FB0646384602F058
:10BC1000B8FB02466068002805D0C368002B02D03C
:10BC2000314628469847F8BDF3B583B00398846A37
:10BC3000002C35D004210498FCF793F801210498D6
:10BC400002F02DFB07460221049802F028FB05466E
:10BC5000FBF7A0F806466068002815D000680028A9
:10BC600012D0049802F0D9FB69460871049802AA20
:10BC7000016880880B1801A8009060683946046844
:10BC80000398A04700280DD030882870000A6870FB
:10BC900000203870694608716846007905B0F0BD2B
:10BCA0000020FBE7684600892870000A6870684633
:10BCB0000179049802F0F3FAEEE7F7B582B0029842
:10BCC0001646846A002C27D005211046FCF749F857
:10BCD0000121304602F0E3FA05463046039902F0AE
:10BCE00009FB60680027002815D04068002812D0A2
:10BCF000304602F092FB6946001F0871B188306837
:10BD00002A46431801A80090606803994468029885
:10BD1000A047002802D02F7005B0F0BD6846017919
:10BD2000304602F0BCFAF7E710B506F001F810BD96
:10BD300070B50C46054600F005F82146284605F08A
:10BD4000F7FF70BD10B50446104602F02FFB0F2818
:10BD500008D8A1680F234A891B0200079A43000DE7
:10BD600002434A8110BD000000B50949094B4968EA
:10BD700085B0C9681046994207D102F017FB6946A1
:10BD8000087200216846FDF767FF05B000BD00009E
:10BD9000F80300203780000010B584682169FFF7A0
:10BDA00043FF012109030028608901D0084300E016
:10BDB00088436081002010BD70B50026846AF64378
:10BDC0000546002C13D0A868002814D00B49416107
:10BDD00020460B49083000F021FB28462560FBF780
:10BDE000B9FF002801D007480460002070BDFBF7B0
:10BDF000B1FF0028FAD0304670BD000099BD0000A8
:10BE0000F95700004402002010B50888401C80B299
:10BE100008F024F8002802D001210170401C10BD58
:10BE200010B5481E0178491E0A06120E027001D193
:10BE300008F028F810BD10B500231A46FFF75CFC87
:10BE400010BD0000F7B582B002981468856A60786A
:10BE5000217806020E430120C0030121301A890314
:10BE6000884201D2012240E0A078112801D9FF28A0
:10BE700002D1E078102801D90F2236E020797F28FE
:10BE800001D9FF2843D1A1796279080210430190BA
:10BE9000217AE0790F0207431E48874237D8384697
:10BEA000FDF76CFC00281FD02E852846E178203055
:10BEB0000090017301980007000FE8852F86002E7F
:10BEC00015D0A0780121FFF7F3FC6885009821794F
:10BED0004173E07800280ED0A07800280BD02846C7
:10BEE0000C3000F0F3FA0AE0042223460BE0284667
:10BEF000FFF7F6FB03E028460C3000F085FAFDF76B
:10BF000038FB00231A4603990298FFF7F5FB05B0AA
:10BF1000F0BD0000FF0F000010B50022FFF7F8FC95
:10BF200010BDF7B500981746856A104602F029FA49
:10BF30000646384602F025FA0446384602F036FA3C
:10BF400007460120C003002E01D0864250D20122B4
:10BF5000211A920391424BD3FF210902611AFB2956
:10BF600046D9002C05D0844203D2FCF7FBFEA04248
:10BF70003ED1112F3CD87F21002E20D0002C1ED086
:10BF8000002F24D028464030068044808171002153
:10BF9000C171818001213846FFF78AFC7D21C900EB
:10BFA000484304462E4640367088FDF791FA002C2F
:10BFB0000FD000F076FAE217001951410BE0002291
:10BFC00028464030028042808171C2718280002404
:10BFD000E8E700200146E963A86300220199009880
:10BFE000FFF796FC002C03D10020B080B071F071F7
:10BFF000FEBD000010B5C8694069002805D003489F
:10C000008A680421007808F03DF810BD7001002016
:10C0100010B5044680690B46002805D04268002A06
:10C0200002D0184661699047E069406907F02AFF2D
:10C03000E1690020486110BD10B5D0690C46406927
:10C04000002812D0002C10D0084909A0F8F75AFA9D
:10C0500021460BA0F8F756FA11A0F8F753FA114849
:10C0600064220421007808F00DF810BD3D50010055
:10C070004150505F4442472025733E20000000009D
:10C08000556E61626C652073656E6420696E6469CB
:10C090006361746520286572723A25642900000086
:10C0A0000A000000700100200288002A07D08A429E
:10C0B00005D8007A1018884201D901207047002065
:10C0C00070470000F8B50E460546F9F7B1F80028AC
:10C0D00022D1287D8106890F01291DD040061BD55C
:10C0E00004F08EFE002818D00024144F20E0F86AD7
:10C0F000E10040180188002916D02A89914216D102
:10C10000297DC907817809D0002915D008E0306061
:10C1100002E0294608F0C8F90020F8BD002903D143
:10C1200041682A69914207D2002EF2D0EFE7641CE1
:10C1300004F066FEA042DADC0120F8BD08300020E1
:10C14000FEB5046816460F46002C24D020460C305D
:10C1500001A9009002F058F90521009802F0EDF8CD
:10C16000009802F0F2F805460321009802F0E5F885
:10C17000009802F0EAF86A469288616940048918DA
:10C180006A46E160C00CD1882182AF4203D1864269
:10C1900001D10120FEBD0020FEBDF8B50446008A95
:10C1A0000025102801D00020F8BD20460C3069463B
:10C1B000064602F029F90121304602F0BEF8304669
:10C1C00002F0F4F8C0091BD00321304602F0B5F8A4
:10C1D0000221304602F0B1F80221304602F0ADF8FB
:10C1E0000121304602F0DAF800784006400E0228BD
:10C1F00006D101250621304602F0D0F80121417117
:10C2000069460988606940186946E060488820826C
:10C210002846F8BD2021084361381A2801D20120A0
:10C2200070470020704730380A2801D2012070473B
:10C2300000207047202802D00938052801D20120AB
:10C2400070470020704741381A2801D201207047FA
:10C25000002070477CB5154D10462C46002208344E
:10C260001E46002912D005236A46314600F012FF0F
:10C2700000281AD10098286068460079C107C90FC4
:10C2800004200029216807D0014306E02A602168C4
:10C2900004208143216007E08143684621600079E2
:10C2A000410802486030017400207CBD882F0020C6
:10C2B00001480068807870471002002010B5FFF731
:10C2C000F7FF01466020F4F7C7FC16490A7C801886
:10C2D000C0B2087460280FD20120FDF74FF9FFF7B4
:10C2E000E7FF01466020F4F7B7FC0F4941430D48D2
:10C2F000143000F0A7F810BD0A4802215838FAF7A8
:10C300006BF8002809D00120FAF752F905480021FE
:10C3100060380068FCF79AF810BD0120FDF72EF98F
:10C3200010BD0000E82F002080EE360038B53448FC
:10C3300007F05EFA002801D0002404E0304807F03E
:10C3400045FA0446143C002C1CD0207A410616D530
:10C35000217B002907D020461830FFF73BF9207ACF
:10C36000C10910D039E0BF210840207220680028A0
:10C3700005D04268002A02D000206168904720461C
:10C38000F8F71EFE38BD80210843207207F006FE34
:10C390000090684680780099401800906846C07800
:10C3A00000994018009080B20A21F4F755FC207AD9
:10C3B0008009800108432072617B8006800E081886
:10C3C00020822168002908D00B68002B05D0217B32
:10C3D0006268484380B200219847207B401E20734A
:10C3E000074801686161143404604168002900D184
:10C3F0004460F8F70DFE018A024800F023F838BDCA
:10C4000008020020D82E002010B58169002902D032
:10C4100008F032FC10BD0020C04310BD00B503463B
:10C4200000F04EF80020D8601861986100BD10B58A
:10C430000C3008F0EBFC81004018C117490F0818B8
:10C44000C01010BD0A4610B50146024800F004F8BD
:10C4500010BD000030320020F8B500241746064613
:10C460000D46002A02DA1224E44318E0A8690028E5
:10C4700004D0B04202D01324E44310E0B04204D10F
:10C48000084608F0F9FB040009D4F8000521AE6164
:10C49000F4F7F8FB014628460C3008F067FC20460C
:10C4A000F8BD10B5F7F730FE81004018C008002134
:10C4B00010BD10B5F7F728FE81004018C00810BD68
:10C4C00000220260826041607047000010B50146A2
:10C4D000014800F003F810BD3032002070B58B68C1
:10C4E00001251D430024DA078D60D20F09D10C60AD
:10C4F0004268002A06D011604160007A012107F0ED
:10C5000073FD70BD41600160F7E7000010B504469F
:10C510008AB0194919A0F7F7F5FF21461BA0F7F7D4
:10C52000F1FF1BA0F7F7EEFF13491C220B31684601
:10C53000F4F7F2FB174869468089488008F034FB1D
:10C540006946887114A003C808910790082207A9BA
:10C55000684608F04FF90406240E0AD0064907A0E1
:10C56000F7F7D0FF21460EA0F7F7CCFF08A0F7F7AA
:10C57000C9FF0AB010BD0000114F01004150505FCB
:10C580004442472025733E2000000000256400003F
:10C590000A00000014000020000102030405060741
:10C5A000696E646963617465206661696C656420A5
:10C5B0002564000070B505461007000C01431446C1
:10C5C000284601F097FE2005010E284601F0AAFE3C
:10C5D00070BD70B503685C781D7823022B431B0582
:10C5E0001B0D0B8001688B784C78190221430909D7
:10C5F0001180032101F0A1FE70BD0000F7B50026F7
:10C6000017463446166014E00F48610040680D1864
:10C610002888C10401D43D600AE08104CA0F009952
:10C620008A4205D101050198090D814200D12E46AB
:10C63000641CF9F793F8054606F0F6FF2818A042A7
:10C64000E2DC3046FEBD000064020020F8B506467C
:10C650000D46104601F095FE0A49044688420BD863
:10C66000FDF78CF8002808D000210091C37F2246F6
:10C670002946304605F098FBF8BD042000230090C1
:10C68000F5E70000FF0F0000F7B582B01446104632
:10C6900001F077FE0746204601F088FE0546204857
:10C6A00087423AD83846FDF769F804000BD0A81E37
:10C6B000022832D2E07F0026002808D0012809D0C5
:10C6C000022809D022E004200023009020E0022D5F
:10C6D00023D01BE0022D02D0032D05D016E002204E
:10C6E000E0770120A0770EE02046FCF701F90D4825
:10C6F0000D4900680968084303D003980088FEF7D5
:10C70000DBF9E677A6772046FBF792FC0096E37FFD
:10C710003A460399029805F047FB05B0F0BD0000CA
:10C72000FF0F000048020020E403002030B50E484F
:10C730000E49406885B0C0681446884211D1104641
:10C7400001F034FE0546204601F01BFE6946488193
:10C75000204601F02BFE6946087229466846FDF71F
:10C7600067FA05B030BD0000DC0300201780000030
:10C77000F3B5488881B00D46002803D025490988C3
:10C78000884201D91B20FEBD0421686807F024FA05
:10C79000A9780446017068881F4E010A61702978E3
:10C7A000A17028880227010AE1706888001D85B2FF
:10C7B0000198B04211D10C2007F050FB01000AD0C3
:10C7C000902008704E800F71CD8014488C600078E6
:10C7D00007F0B8FB16E01320FEBD23462A460021D1
:10C7E000F5F732FB0E49002807D002280CD00728A5
:10C7F0000CD012280CD01F28EED10878002801D0C8
:10C80000401E08700020FEBD1420FEBD0420FEBDA9
:10C810000220FEBD4E050020FEFF00004C0500205A
:10C820004505002001480068007C70471002002088
:10C8300010B500230F22845C64001C438C54835C7D
:10C84000521EDB09D2B20F2AF5D910BD70B51446BD
:10C850000D46064600F026F8002808D00379C06A85
:10C8600000280CD012211940102905D00BE00C48EB
:10C87000864213D0142070BD002C02D103E0D806EC
:10C880000CD4052070BDD90601D40F2070BD00283E
:10C8900004D0807EA84201D20C2070BD002070BD63
:10C8A000FEFF000030B50A4A002113780CE03C245A
:10C8B00055684C4364196488844203D13C20414349
:10C8C000481930BD491CC9B29942F0D3002030BD8F
:10C8D0006C050020F0B50C4D00210C4E2C780FE0BB
:10C8E0003C226B684A43D7187F88B74206D09A5CCF
:10C8F000824203D13C204143C818F0BD491CC9B253
:10C90000A142EDD30020F0BD6C050020FFFF000028
:10C9100000B5FFF7C7FF002800D0808A00BD0000E7
:10C9200010B50C460549884206D0FFF7BBFF00282A
:10C9300003D00079204000D0012010BDFEFF000090
:10C9400010B50C460F4910A0F7F7DCFD11A0F7F762
:10C95000D9FD11A0F7F7D6FD002C0AD009490AA08D
:10C96000F7F7D0FD21460DA0F7F7CCFD0AA0F7F7A9
:10C97000C9FD0D481922D2010121007807F082FB80
:10C9800010BD0000D14E01004150505F444247208D
:10C9900025733E20000000000A00000072656173EC
:10C9A0006F6E2025780000000000002010B50549BA
:10C9B00005A0F7F7A7FD07A0F7F7A4FD06A0F7F776
:10C9C000A1FD10BDC74E01004150505F44424720B9
:10C9D00025733E20000000000A000000F8B506465E
:10C9E00088880F46102816D302211E48F9F706FD45
:10C9F0001C4C2546FF342035013400280CD0E06A59
:10CA00003168884207D1287D002804D100221146D0
:10CA10000120F9F78DF8F8BD1348102280680168ED
:10CA20003868F4F7B4F90028F5D10F488068016B35
:10CA3000002901D0012088473068E06202210948BE
:10CA4000F9F73AFCA06B01F0DAFC08490848FFF757
:10CA5000F9FC002211460120F9F76AF80020287538
:10CA6000F8BD000098300020A402002060EA000019
:10CA700010320020F8B519490126886A184D00289F
:10CA80001AD08047174F04467889002820D0A0424A
:10CA900001D2214600E00146A04200D32046081AF8
:10CAA0003C2815DD0D48C06A002800D080476E7113
:10CAB000F4F71CFD7C81F8BD68790021002805D1C0
:10CAC000A868401CA8600007F5D56E71A96002E057
:10CAD00068790028EFD0F4F741FBF8BD2C2E002038
:10CAE000802E0020602E0020014A03C27047000003
:10CAF0004802002030B510481049406885B0C06831
:10CB00001546884215D1104601F03BFC04462846E4
:10CB100001F037FC002804D1284601F047FC00282A
:10CB200000D0012069460C81039000216846FDF782
:10CB30007FF805B030BD0000DC0300202E8000002F
:10CB400030B589B0002416480394049407C805AB97
:10CB500007C31448134D806A6946828B8A82803DE0
:10CB60002A8D0A83029005A80390FCF7FBF869461A
:10CB70000882FBF7E5FF69468874088A042340BAF7
:10CB80000884688E08AA40BA4884054805212838D8
:10CB90000090019402A8FAF735F909B030BD000001
:10CBA000245601000830002010B5044601280DD09D
:10CBB0000C49022C0CA00FD0F7F7A4FC21460EA0C4
:10CBC000F7F7A0FC10A0F7F79DFC10BD054906A0E3
:10CBD000F7F798FC0DA002E0F7F794FC12A0F7F726
:10CBE00091FCEFE7EA4E01004150505F444247207C
:10CBF00025733E2000000000756E6B6E6F7720730A
:10CC000074617465202578000A0000006C706E2045
:10CC1000667269656E6473686970206573746162B9
:10CC20006C697368656400006C706E20667269657B
:10CC30006E6473686970207465726D696E61746585
:10CC400064000000F8B5424C00262746243F2078B7
:10CC50003D46203538370300F7F77CFC0911060AFA
:10CC60000E121D2E63751100287C4007C10F54E081
:10CC700003202871FCF70BFC204604F0C5FFF8BD2B
:10CC8000FCF70AFC608A7D21C90041183846FFF78D
:10CC9000D9FB052055E0FCF7FAFBE089401CE08158
:10CCA00003202871E67000F0BFF87D21C9004143E0
:10CCB0003846FFF7C7FBF8BD00F0A8F8618AA279F3
:10CCC00064308918451800F09BF8642148432946D0
:10CCD000F3F7C2FF062801D906200DE000F096F810
:10CCE000618AA27964308918451800F089F86421B6
:10CCF00048432946F3F7B0FFE17988420BD9E07841
:10CD0000E670002804D0012802D006F009FCF8BD26
:10CD100004F030FFF8BDE67100210020FDF754F863
:10CD2000F8BD00F073F8012801D9012001E000F0FE
:10CD30006DF8A17941183846FFF784FBFCF7ACFB8E
:10CD400008202871F8BD204607F0BAFBF8BD0000A6
:10CD5000AC2F002070B50646224888B0006D0290C6
:10CD600004A8019003900D46104601F00AFB040050
:10CD700034D00120C003844230D21B4901A8FAF705
:10CD8000F0FF214601A801F0B5FA18480068002814
:10CD900026D001231A4621461548FAF76BF90028D8
:10CDA0001ED01430FFF743FB6421F3F76BFF0446FA
:10CDB000E1B201A801F0B6FA2004010E01A801F0C9
:10CDC000B1FA2002010E01A801F0ACFA00200346DE
:10CDD000009001AA29463046FBF7F4F808B070BD70
:10CDE0000024E5E75C5201002E800000E4030020EF
:10CDF000FFFF000001480068807F7047100200209C
:10CE000001480068408C704710020020014800680B
:10CE1000808C7047100200200248006820300078A3
:10CE2000704700001002002001480068C08C704765
:10CE30001002002001480068C07F704710020020E7
:10CE400000220AE0022101E000BF00BF0B46491E9C
:10CE500089B2002BF8D1521C92B28242F2D37047B1
:10CE60000E498A6A481502438A620321F4F7CCFE10
:10CE7000F7F708FB0A490BA0F7F744FB0A4909A09A
:10CE8000F7F740FBF4F756FBF4F72AFFFAF780FBBD
:10CE9000F4F7F6F8F7F7A4F9FCE70000801000407B
:10CEA000DC50010025730A001A510100F8B5434E09
:10CEB000434FB06A808BB84201D10020F8BD414891
:10CEC0000068002802D00120FCF73AF900252CE088
:10CED000E420B16A68430918888BB84224D00C4614
:10CEE000303108460091FBF745FB00281CD1E07F5C
:10CEF00000280BD0214689310846FBF73BFB002870
:10CF000004D059210098F3F722FF0DE02E48006865
:10CF1000002803D000202021085502E00221202013
:10CF200001552046FBF784F86D1C06F07DFBA842F6
:10CF3000CEDC22482038007C60280BD2FFF7B8F9FD
:10CF400001466020F3F788FE204941431B480C3816
:10CF5000FFF778FA00211E48FAF7A4FEFAF750F915
:10CF600000280BD0818B002908D0C18B002905D067
:10CF70002021095C002901D0FFF7A8FAF9F7C2FDCA
:10CF8000002811D013490A78002A0DD04A7802717E
:10CF90008A784271CA7882710A79C2714A790272BA
:10CFA0008A794272C9798172044800217838F9F788
:10CFB00079F90020FCF7A4FA7FE700000830002090
:10CFC000FFFF0000180400201C04002080EE360043
:10CFD0006D9F000084020020044902680A604068D6
:10CFE000486000208860024908607047CC32002009
:10CFF000000400208178491E052921D24178491E6C
:10D0000004291DD2C178C91FD72919D20179891ED7
:10D010001F2915D24179491E042911D20189FF2205
:10D0200076320C3991420BD28179491E042907D2FC
:10D03000817A491E042903D20078C01E122801D328
:10D040000020704701207047FFB581B0070014D061
:10D05000694605F059FB0E4D06460024E0002858AD
:10D0600032463946F3F7A0FE002809D0641C0C2C88
:10D07000F4D30720C04305B0F0BD0020C043FAE759
:10D08000E00002AE40190ECE44680098A047F2E7D7
:10D090005456010070B51C4615460E4603462246FE
:10D0A000294630469847002803DBA04202D00020E2
:10D0B000C04370BD002070BDF7B537488CB04069E3
:10D0C000059007A8049006901546104601F059F9FE
:10D0D00006005FD00120C00386425BD2284601F0E3
:10D0E00050F90190286800903046F9F7E1FE0027DA
:10D0F00000280AD003AA2946FEF769F904000FD0D8
:10D100000C98A0420ED10D2031E0A88800240428FC
:10D1100004D0002069460873012028E00120F9E7C7
:10D12000022024E0019D2846F8F796F9002807D050
:10D130000020420011198989A94203D1384616E01E
:10D14000032014E0401C0328F3D3144900204200BC
:10D15000121992898A4206D1410008198581204618
:10D16000FCF71CFAEAE7401C0328F0D30520019ADB
:10D1700000990291019000926846027B3346214655
:10D1800004A8FDF767F8002304AA00970D990C98EE
:10D19000FAF718FF0FB0F0BD5C520100FFFF00006E
:10D1A000F7B531488CB0C06A039005A8029004908E
:10D1B0001646104601F0E5F8040052D00120C003E5
:10D1C00084424ED220463768F9F772FE00280CD010
:10D1D00001AA3146FEF7FBF8050011D0002668468B
:10D1E000007900280ED021490EE0B08800250428DF
:10D1F00004D00020694608710126F0E70120F9E714
:10D200000226ECE71949891E02A8FAF7AAFD314661
:10D2100002A801F087F8214602A801F06BF86846E1
:10D220000079002801D0042200E00222394602A839
:10D2300001F06DF8002D0CD00D4E00246000401957
:10D240008189B14202D002A801F054F8641C032C79
:10D25000F4D300200346009002AA0D990C98FAF727
:10D26000B1FE0FB0F0BD00005C5201004E80000026
:10D27000FFFF000030B510481049406885B0C06815
:10D280001446884216D1104601F090F80546204613
:10D2900001F077F8204601F074F8A088042802D342
:10D2A000204601F06EF8204601F06BF829466846EA
:10D2B000FCF7BEFC05B030BDDC0300203E80000062
:10D2C000F7B522488CB0006A059007A80490069034
:10D2D0001746104601F055F8050028D00120C0037C
:10D2E000854224D2384601F04CF8009028463E682A
:10D2F000F9F7DEFD00281CD003AA3946FEF767F8CF
:10D30000040021D00122009900F074FE01900296E1
:10D310006846027B2B46214604A8FCF79BFF0020B1
:10D320000346009004AA0D990C98FAF74BFE0FB033
:10D33000F0BDB8880024042804D000206946087392
:10D340000120E3E70120F9E70220DFE75C5201005A
:10D3500070B50446806816460D46002805D0046066
:10D36000A06826491830FFF759F8254900204200E7
:10D370001219401C91810328F9D300200146420074
:10D380001219401C51820628F9D31E484068808932
:10D39000281A00112071002E06D0E8682C21201ACE
:10D3A000F3F770FC607117E0A8682C21201AF3F7DE
:10D3B00069FC60712088002806D0012808D0022866
:10D3C00013D0032808D114E00F4860620F4802E030
:10D3D0000F4860620F482062606A002804D08168AC
:10D3E000002901D02046884770BD0B4860620B4879
:10D3F000F1E70B4860620B48EDE70000A1D60000A2
:10D40000FFFF0000FC0100204C510100D852010038
:10D4100074590100545801001855010028550100A5
:10D42000145B0100D85A0100F7B586B015460026F6
:10D43000104600F0A6FF04001FD00120C003844264
:10D440001BD220462F68F9F733FD002817D004AA15
:10D450002946FDF7BCFF00281CD0816800291BD09D
:10D460008E8800216A46127C009201AD83C5334646
:10D4700022460799069804F0C1FC09B0F0BDA988BE
:10D480000020042904D000216A4611740121E9E733
:10D490000121F9E70221E5E70721E3E7F7B58AB0C3
:10D4A0001746104600F06DFF060045D00120C0036E
:10D4B000864241D2384600F064FF0790384600F0BB
:10D4C00060FFC1040005000DC90F069005913846A4
:10D4D00000F06CFF05467F2801D9FF2D2CD138467E
:10D4E00000F064FF0190384600F060FF009038685B
:10D4F00008903046F9F7DCFC00281FD004AA394612
:10D50000FDF765FF040024D00098012202900095E9
:10D5100003922046059B069A0799F7F745F86A4655
:10D52000127C089900920290019403913246079B65
:10D530000B990A9804F062FC0DB0F0BDB888002485
:10D54000042804D00020694608740120E7E7012080
:10D55000F9E70220E3E7000030B5194819494068AF
:10D5600085B0C0681546884227D1104600F01EFFDE
:10D570000446284600F005FF284600F002FF6946F1
:10D580000881284600F0FDFE0022694600050A7366
:10D59000000D4881284600F009FF69464873284677
:10D5A00000F004FF69468873284600F0FFFE6946D4
:10D5B000C87321466846FCF73BFB05B030BD000050
:10D5C000DC03002019800000F7B58AB0174610462A
:10D5D00000F0D7FE060061D00120C00386425DD274
:10D5E0001021384600F0DAFE0290384600F0C9FEFD
:10D5F000C1040005000DC90F06900591384600F0E2
:10D60000D5FE05467F2801D9FF2D47D1384600F0C9
:10D61000CDFE0190384600F0C9FE009038680890B1
:10D620003046F9F745FC00280CD004AA3946FDF72E
:10D63000CEFE040013D007A9029806F083FF00284D
:10D6400012D01DE0B8880024042806D000206946C6
:10D65000087400208883012012E00120F7E70020F1
:10D660006946888302200BE000980122009503920E
:10D6700002906846818B2046059B069AF6F794FF38
:10D680006A46127C089900920194039102906A46BE
:10D69000938B32460B990A9804F0B0FB0DB0F0BDA5
:10D6A00070B50446183C2068FAF784FB054660898B
:10D6B000400B10D0206802F0FBFE00280AD06089E1
:10D6C000C004C00C6081002D04D0204629461830CB
:10D6D000FEF7B8FE70BD002DFCD061692068884758
:10D6E0000028F7D16089400B03D020461830FEF7A0
:10D6F0008BFE2068FAF788FB70BD70B515460446AE
:10D7000000F0A8FA002802D02046FBF759FF0023BA
:10D710001A4629462046FAF761FA606A002804D0C2
:10D72000C168002901D02046884770BDFEB51D465E
:10D7300016460C00074665D010220021204605F051
:10D7400047FE80B2010AC2B23846FAF7E5FA07008E
:10D7500058D06946204604F0D7FF01900098002871
:10D7600050D02AA1019AF3F71FFB0024002815D0FE
:10D7700028A1019A0098F3F717FB00281ED026A1D4
:10D78000019A0098F3F710FB002828D023A1019AF2
:10D790000098F3F709FB002828D033E0214A089BC2
:10D7A0003946002047007F18401CBA810328F9D36E
:10D7B000002E12D0062218460C310BE038461230EB
:10D7C0000C21089F0190F3F7C2FA002E05D00C221D
:10D7D00038460199A847002800DB2046FEBD2A46AE
:10D7E00031463846089B00F01FF8FEBD786A0028D5
:10D7F00008D00468002C05D02A4631463846089BDC
:10D80000A047FEBD0720C043FEBD000062696E64F4
:10D8100000000000737562007075620064617461DD
:10D8200000000000FFFF0000FEB5044680681E46B1
:10D830001746002832D001252D03002931D00823B6
:10D840006A4631463846FFF725FC002825D16A464E
:10D85000A16810888880A1685288C8881205000BCA
:10D860000003120D1043C8806A46D279A843D2063D
:10D87000D20F12031043A1686A46C880A1681079CC
:10D880000872A16890798872A16850794872A0687E
:10D890004189C904C90C41810020FEBD0020C0435C
:10D8A000FEBD00228280A168C888000B0003C880EA
:10D8B000A168A843C880A0680272A0688272A068AC
:10D8C0004272E4E7F7B586B01446104600F059FD01
:10D8D000060050D00120C00386424CD2204600F002
:10D8E00050FD0546206804903046F9F7E1FA00281B
:10D8F0000DD003AA2146FDF76AFD040010D00320D5
:10D9000080032149281A88420CD3012727E0A088E8
:10D91000042803D0002069460873F6E70120FAE7DF
:10D9200002271CE029462046FAF792F9002801D088
:10D93000002714E041000919498A00291DD0401C24
:10D940000628F7D306281CD000272046FBF738FE10
:10D950000E480068002802D02846FAF749F86846C1
:10D96000017B04980291019033463A46009507994D
:10D97000069804F0A5FA09B0F0BD410009194D82DE
:10D98000E0E70527EBE70000013F00004802002028
:10D99000F7B586B01446104600F0F3FC05004AD0F7
:10D9A0000120C003854246D2204600F0EAFC6946C9
:10D9B000088228462768F9F77BFA00280FD003AAC7
:10D9C0002146FDF704FD060012D06846008A0321B7
:10D9D0008903401A194988420CD301241FE0A0880A
:10D9E000042803D0002069460873F6E70120FAE70F
:10D9F000022414E0124800240068002803D001210A
:10DA000004A8FAF727F86846018A3046FAF720F9A1
:10DA1000002804D0002101803046FBF7D1FD694683
:10DA2000087B098A0290019700912B4622460799AC
:10DA3000069804F045FA09B0F0BD0000013F00006F
:10DA400048020020F7B584B017460E46104600F095
:10DA500098FC04002AD00120C003844226D220462C
:10DA60003D68F9F725FA002822D003AA3946FDF7C8
:10DA7000AEFC070026D014480068002804D03846C1
:10DA800006211230F9F7E6FF384600F0E3F8384691
:10DA9000FBF796FD00226846007B00210091029072
:10DAA000234601953146049804F00AFA07B0F0BD08
:10DAB000B888042804D00020694608730122EAE7E8
:10DAC0000120F9E70222E6E748020020F0B5074608
:10DAD0002A488BB0C06C029004A8019003900E46B7
:10DAE0001546104600F04DFC040035D00120C0035F
:10DAF000844231D2284600F044FC0090204901A81D
:10DB0000FAF72FF92046F9F7D3F9002826D0009923
:10DB1000FAF78AF8050023D0002101A800F002FCE2
:10DB2000214601A800F0E6FB01A8009900F0E2FB05
:10DB3000002460004019418A002902D001A800F0A9
:10DB4000D9FB641C062CF4D300200346009001AAE4
:10DB500031463846FAF736FA0BB0F0BD012100E045
:10DB6000022101A800F0DEFB214601A800F0C2FB63
:10DB700001A8009900F0BEFBE6E70000DC510100BF
:10DB80002A800000F0B5074630488DB0806D0290C5
:10DB900005A8019003900E461546104600F0F1FBD3
:10DBA00004003ED00120C00384423AD2284600F04F
:10DBB000E8FB0490284600F0E4FB0090244901A80B
:10DBC000FAF7CFF82046F9F773F900282BD0009A1E
:10DBD0000499FAF74CF8050027D0002101A800F0BD
:10DBE000A1FB214601A800F085FB01A8049900F0E3
:10DBF00081FB01A8009900F07DFB00246000401922
:10DC0000418A002902D001A800F074FB641C062C94
:10DC1000F4D300200346009001AA31463846FAF7B3
:10DC2000D1F90DB0F0BD012100E0022101A800F002
:10DC300079FB214601A800F05DFB01A8049900F0E2
:10DC400059FB01A8009900F055FBE2E7DC51010007
:10DC50002C800000F1B500252C462F460098690065
:10DC60000E18708A0121C903421A49108A420DD345
:10DC7000002814D00C480068002804D03046123028
:10DC80000121F9F7E7FE7782641C08E0F9F766FCEA
:10DC9000641C7782002802D0002106F07EFC6D1CF7
:10DCA000062DDBD32046F8BD48020020F7B586B02C
:10DCB0001446104600F065FB07004BD00120C0035E
:10DCC000874247D2204600F05CFB0646206804905D
:10DCD0003846F9F7EDF800280DD003AA2146FDF7E4
:10DCE00076FB050010D0032080031B49301A8842C0
:10DCF0000CD3012422E0A088042803D00020694628
:10DD00000873F6E70120FAE7022417E013480068D9
:10DD1000002804D0284606211230F9F79BFE284639
:10DD2000FFF798FF6E8200242846FBF749FC0B485A
:10DD30000068002802D03046F9F75AFE6846017B99
:10DD40000498029101903B46224600960799069856
:10DD500004F0B6F809B0F0BD013F00004802002011
:10DD600030B510481049406885B0C06814468842F4
:10DD700016D1104600F01AFB0546204600F001FBC4
:10DD8000204600F0FEFAA088042802D3204600F0C6
:10DD9000F8FA204600F0F5FA29466846FBF748FFF6
:10DDA00005B030BDDC0300201F800000F7B586B051
:10DDB0001446104600F0E5FA050054D00120C003D7
:10DDC000854250D21021204600F0E8FA0090284603
:10DDD0002668F9F76DF8002700280CD003AA214621
:10DDE000FDF7F5FA040011D004A9009806F0AAFB8B
:10DDF00007002CD10EE0A088042805D00020694639
:10DE000008730F82012722E00120F8E768460782A5
:10DE100002271CE06846018A2046F9F719FF00280E
:10DE200015D141000919498A00291ED0401C062835
:10DE3000F7D306281FD011480068002803D0684691
:10DE4000008AF9F7D5FD2046FBF7BAFB00276946A3
:10DE5000087B098A0290019600912B463A46079961
:10DE6000069804F02DF809B0F0BD69464200098A11
:10DE700012195182DDE70527E9E70000480200207A
:10DE8000F7B586B01646104600F07BFA04004ED077
:10DE90000120C00384424AD21021304600F07EFAAD
:10DEA000009020463768F9F703F80025002823D0B2
:10DEB00003AA3146FDF78BFA060028D004A9009882
:10DEC00006F06BFB02466846008A002824D01948F9
:10DED0000068002803D0012104A8F9F7BBFD6846BB
:10DEE000018A3046F9F7B4FE002814D00580304688
:10DEF000FBF766FB00220FE0B088042805D0002065
:10DF0000694608730D82012206E00120F8E76846A1
:10DF10000582022200E00C226946087B098A0290F1
:10DF20000197009123460799069803F0C9FF09B0AD
:10DF3000F0BD000048020020F7B586B00020694619
:10DF400008821446104600F01CFA06004DD001204D
:10DF5000C003864249D21021204600F01FFA0090EB
:10DF600030462768F8F7A4FF002818D003AA2146F6
:10DF7000FDF72DFA05001CD01D480068002804D0CC
:10DF8000284606211230F9F765FD2846FFF762FEA4
:10DF900004A9009806F0D6FA04000CD019E0A08875
:10DFA000042804D0002069460873012411E00120F0
:10DFB000F9E702240DE06846008A68822846FBF7EC
:10DFC000FFFA0B480068002803D06846008AF9F77A
:10DFD0000FFD6946087B098A02900197009133463C
:10DFE00022460799069803F06BFF09B0F0BD0000C8
:10DFF00048020020F0B5074685B016460D46084693
:10E00000F7F72AFA002825D000246000C01981897A
:10E01000A94219D110498181002E02D03846FBF760
:10E02000BDFAB86800280FD0C0880005000DA842CE
:10E030000AD100200090019003460246014602905A
:10E0400003963846F6F7B0FA641C032CDDD30020A3
:10E0500005B0F0BD0320FBE7FFFF000070B50B4CDF
:10E060000022A51C661C53001B189B898B4205D0FF
:10E07000A34205D1A94201D0B14201D1012070BD16
:10E08000521C032AEFD3002070BD0000FCFF0000EB
:10E09000FFB581B01D460E46F9F764F9002815D08A
:10E0A000284600F0BAF90024E443042844D306F0DB
:10E0B000F5F90746083706F03FF90C214843874237
:10E0C00008D906F0EBF90146083107E00520C04306
:10E0D00005B0F0BD06F030F90C214143FF2081303E
:10E0E000814211D206F0DAF90746083706F024F922
:10E0F0000C214843874203D906F0D0F9083003E0E9
:10E1000006F01AF90C214843A988001F884202DA58
:10E110001420C043DCE70398002806D170684188CA
:10E120000198FFF79BFF002806D0294630460B9B3D
:10E130000A9AFBF723FCCBE72046C9E7416A009B1C
:10E14000002904D04A68002A01D019781047704786
:10E1500070B50F4C2178C1824A1C22708B00616817
:10E160000589CA586D04D20BD2036D0C2A43CA50DC
:10E17000C38A00695204520CC0039B000243CA5078
:10E1800000F008F801462078F2F766FD217070BDB6
:10E190005402002001480068807970471002002076
:10E1A000F8B5002704460D46002907D00846FDF7BC
:10E1B000FFF80121401E8140A94201D00020F8BD96
:10E1C000A00704D0A007800F0421081A04191148E1
:10E1D00011490268002A04D10A68121D92089200AF
:10E1E00002600D498E682946B0180092F2F734FD9E
:10E1F000681A6D1E084A2840211852687118914209
:10E2000006D2054BB14203D9009A9960101837180D
:10E210003846F8BD00040020CC320020F7B5054692
:10E22000408800280FD028880BE02C8881B2611A22
:10E230001C24EB6861435C18A5602179002904D097
:10E24000401E0028F1DC0020FEBD019800260028B9
:10E2500009D0A86801A90068036820469847606152
:10E260000028F1D000E0666101202071667126600F
:10E270000198608226826069E0606888401E68803C
:10E280002046FEBD10B58168C968401A1C21F2F70E
:10E29000F9FC80B210BD0179491C0171704730B59D
:10E2A00003460C46006899884518184600F0B5F8F2
:10E2B000A04200D2FEE7988800199880284630BD19
:10E2C00003B56A46918849BA91800221FFF7E7FFBA
:10E2D0006A4611790170517941700CBD13B50199ED
:10E2E00009BA01910421FFF7DAFF042201A9F2F72C
:10E2F00013FD1CBD03B56A46918891800221FFF78A
:10E30000CEFF6A4611790170517941700CBD70B52C
:10E310000D4614461146FFF7C2FF22462946F2F782
:10E32000FBFC70BD10B50C460121FFF7B8FF04706F
:10E3300010BD01688068081A70478288521A82806E
:10E340000268511801600846704708B501686B46BD
:10E350000A781A70497859700221FFF7EEFF6B4670
:10E36000188840BA08BD38B50446016804226846DA
:10E37000F2F7D2FC04212046FFF7DFFF009800BA35
:10E3800038BD08B501686B460A781A70497859702B
:10E390000221FFF7D2FF6B46188808BD8388026808
:10E3A0005B1A8380511801601046704700B5016800
:10E3B0000B780121FFF7C1FF184600BD0268521A11
:10E3C00002608388591881801046704703B56A46F9
:10E3D000918849BA91800221FFF7F0FF6A461179CE
:10E3E0000170517941700CBD10B50C460121FFF749
:10E3F000E5FF047010BD826851180160704700216C
:10E40000818081680160704770B50C460546FFF752
:10E4100090FF2080A888608070BD82680168891A9A
:10E42000C2888088511A081A704770B5064605F0F0
:10E43000C2F9051E0FD004464079C00708D0304607
:10E4400005F0B9F920606179490849006171F2E786
:10E4500000202060284670BD30B50A46012503E043
:10E4600054792C4354711A461368002BF8D1436831
:10E47000002B02D01960426030BD06C030BD70B5BF
:10E48000044600251FE0207900281ED0401E00060B
:10E49000000E207119D1A0684188491C4180416853
:10E4A000002901D0204688476169002909D0637995
:10E4B000A26820469B0703D492681268926890472E
:10E4C000656124682560002CDDD170BDFFB53E4D2F
:10E4D0001878297881B0C907C009C90F0B9E484038
:10E4E000317D0C9C49084900084330750020A0800C
:10E4F000A06820601F4620460A99FFF7D0FE3946E3
:10E500000A9AF2F709FC317D2868C907C90F411A38
:10E510002068039AFAF782F8002803D00720C04346
:10E5200005B0F0BD2068401D05F0F2F830810028EC
:10E5300003D00121C903884202D30020C043EFE782
:10E54000307D8006800F23D100251DE02068401D0E
:10E5500005F0DEF801461D48AF004068C05B40048E
:10E56000400C81420ED12068801C05F0DDF8C1030B
:10E570001648C90B4068C059C00B814202D1012026
:10E58000C043CDE76D1CADB2FFF704FEA842DDD855
:10E590000F480068002804D0307D8106890F0329C8
:10E5A0000BD00948317D0068C907C90F421A002302
:10E5B00021460298F9F700FEB2E70349C00709684F
:10E5C000C00F0A1A0123F3E7882F0020540200200D
:10E5D0001C040020FFB583B01F461546002646E008
:10E5E0002D48816AE42070430C183FD0A08B2B4942
:10E5F00088423BD02A482B4900680968084308D064
:10E600002B4600972046049A0399FCF7D3FA00287A
:10E6100034D00398007841064020005D490E8142C5
:10E620000CD104986946A1C1224621466932413184
:10E630002046039BFFF74AFF002822D0E07F0028F6
:10E6400014D00398007841069920005D490E81425C
:10E650000CD104986946A1C122462146C2329A31A2
:10E660002046039BFFF732FF00280FD0761C04F0F2
:10E67000DBFFB042B4DC002007B0F0BD287D0421F0
:10E6800006E0A08BA88001202C60F5E7287D022100
:10E6900008432875F5E7000008300020FFFF000060
:10E6A000E403002048020020F7B50298FFF769FE56
:10E6B0002A49064688423AD8FBF760F8040017D189
:10E6C0000025274F0EE02846E4225043B96A1C304B
:10E6D000095A2448814204D1E421B86A4D434419BF
:10E6E00004E06D1C04F0A0FFA842ECDC002C0DD06F
:10E6F000A08BB04202980DD1214600681022303123
:10E70000F2F745FB002803D006230BE0052309E0C0
:10E71000002307E0016820463030F9F72BFF00287E
:10E7200006D0102332460199009803F007FCFEBD85
:10E73000A6832046FAF786FF2046F9F779FC0A48B7
:10E740000068002806D00021202001552046FAF755
:10E7500045FCDDE7022020342070D9E7FF0F0000E0
:10E7600008300020FFFF00001C04002070B50646A2
:10E770000D461046FFF705FE0B49044688420ED8A9
:10E78000FAF7FCFF002804D02988A14208D10C2305
:10E7900000E0002322462946304603F0CFFB70BD3F
:10E7A0000121FAF777FFF4E7FF0F0000F7B51B48E8
:10E7B00088B0006F029004A801900390184901A846
:10E7C000F9F7CFFA174C0025174F264611E0E42041
:10E7D000B96A68430818828BB24208D0B44201D1AA
:10E7E000144604E0214601A8FDF7E4FE34466D1C02
:10E7F000ADB204F019FFA842E9D8B44203D02146D3
:10E8000001A8FFF777FD00200346009001AA0999AF
:10E810000898F9F7D7FB0BB0F0BD0000DC51010000
:10E8200043800000FFFF000008300020FFB50725EF
:10E83000ED438BB01F460E4600282AD0102200213F
:10E8400004F0C6FD80B20A90FAF798FF0446002E45
:10E8500019D021236A4639460D98FEF71BFC002883
:10E8600018D104A801306F460990002C14D03878D4
:10E870001022C007C00FA07738784008E077204604
:10E880003030791C2FE0002C03D00021FAF702FF72
:10E8900031E028460FB0F0BD0025194E0EE02846A5
:10E8A000E4225043B16A1C30095A1648814204D10F
:10E8B000E421B06A4D43441904E06D1C04F0B4FE39
:10E8C000A842ECDC002C18D00A98A0836846007897
:10E8D0001022C007C00FA07768460078791C400856
:10E8E000E07720463030F2F717FA204610228930C0
:10E8F0000999F2F711FA0020CCE70820C043C9E7D4
:10E9000008300020FFFF000030B50A480A4940687F
:10E9100085B0C068144688420AD11046FFF746FD0C
:10E9200005462046FFF72DFD29466846FBF780F98E
:10E9300005B030BDDC03002044800000F7B515466B
:10E940000F461046FFF71DFD2549064688423CD874
:10E95000FAF714FF040009D0E07F002808D001284E
:10E9600016D002281CD003280AD119E0042327E07E
:10E970002146102230312868F2F709FA002824D005
:10E98000204689302968F9F7F5FD00280CD016E0FB
:10E990002146102289312868F2F7F9F9002801D0C0
:10E9A0000B230DE000230BE00E480F4900680968B7
:10E9B00008430BD02046FCF7DBF8002806D01023D4
:10E9C00032463946009803F0B9FAFEBD0120E077DF
:10E9D0002046FAF737FE2046F9F72AFBE2E7000067
:10E9E000FF0F000048020020E403002010B586B0AD
:10E9F0001C461046002913D012236A462146FEF712
:10EA000049FB00280AD100A910220A480231F2F776
:10EA100083F968460088F8F7C3F9002006B010BDF6
:10EA2000F8F7DEF903481038002101614161816186
:10EA3000C161F2E71830002000B50949094B496867
:10EA400085B0C9681046994207D1FFF7AFFC694607
:10EA5000087200216846FBF7EBF805B000BD000026
:10EA6000DC0300202580000030B505460D4887B046
:10EA70004068029004A80C46019003900A4901A83E
:10EA8000F9F76FF9FAF75CF8014601A8FFF74AFCBD
:10EA900000200346009001AA21462846F9F792FA81
:10EAA00007B030BDDC5101002580000030B50446C0
:10EAB000114887B00069029004A801900390A06AF1
:10EAC0000D46002804D0116809780171FAF74CFD51
:10EAD0000A4901A8F9F745F9FAF732F8014601A801
:10EAE000FFF720FC00200346009001AA294620469B
:10EAF000F9F768FA07B030BDDC510100258000004D
:10EB0000002804D003494968814201D100207047A0
:10EB100000687047C802002010B502F0DFF8114C01
:10EB2000617D884202D102F0E1F806E002F0DEF8F1
:10EB3000617D884203D102F0E1F8607510BD02F0FA
:10EB4000DDF8617D884202D102F0C8F8F5E7252999
:10EB500003D0262903D02520EFE72620EDE7272044
:10EB6000EBE70000502F002010B5FBF7FFFD002859
:10EB700001D0806810BD0020C04310BD30B50E48E4
:10EB80000E49406885B0C0681446884211D11046CD
:10EB9000FFF70CFC05462046FFF7F3FB694648816A
:10EBA0002046FFF703FC6946087229466846FBF7D2
:10EBB0003FF805B030BD0000DC03002048800000B5
:10EBC000F0B507461A4887B0C06F029004A80190BC
:10EBD00003900E461046FFF7D4FB164905468842BF
:10EBE0001ED8154901A8F9F7BCF82846FAF7C6FD62
:10EBF000040017D0002101A8FFF794FB20342478EB
:10EC0000294601A8FFF776FB214601A8FFF78AFBFA
:10EC100000200346009001AA31463846F9F7D2F9A0
:10EC200007B0F0BD042101A8FFF77CFB0024E7E753
:10EC3000DC510100FF0F000048800000F7B52648B6
:10EC400088B08068029004A80190039014460F4693
:10EC50001046FFF796FB2149064688423AD82046DF
:10EC6000FFF7A4FB040001D0012C33D11C4901A8FB
:10EC7000F9F777F83046FAF781FD050011D0002149
:10EC800001A8FFF74FFB314601A8FFF733FB1548FA
:10EC90000068002811D0002C28460CD0FAF730FA72
:10ECA0000BE0042101A8FFF73DFB314601A8FFF767
:10ECB00021FB214603E0FAF73DFA2035297801A827
:10ECC000FFF730FB00200346009001AA3946089860
:10ECD000F9F778F90BB0F0BD5C520100FF0F0000AE
:10ECE000488000001C04002030B505460B4887B062
:10ECF000806B04AA0C46029001920949039201A874
:10ED0000F9F72FF800200346009001AA2146284673
:10ED1000F9F758F9FAF720FB07B030BD5C52010053
:10ED20004A800000F0B585B01E4617460D46002803
:10ED300014D01022002104F04BFB84B2002D11D01E
:10ED400013236A4631463846FEF7A4F9002807D156
:10ED50002046F9F785FF00280ED015E00720C043B4
:10ED600005B0F0BD2046F9F77BFF002802D0002156
:10ED7000F9F768FF0020F3E768460288817C2046A7
:10ED8000F9F70EFF002806D000A91022001D02315D
:10ED9000F1F7C2FFEEE70820C043E1E7F8B5002530
:10EDA0000E4607462C460D600AE00948A10080681F
:10EDB00008180188002909D0B94200D10546641C11
:10EDC00001F022F9A042F0DC2846F8BD3060F6E7F9
:10EDD00064020020027C012A01D808467047491EBF
:10EDE0005018521E904370470022835C8B4201D022
:10EDF00001207047521C082AF7D30020704710B535
:10EE0000044601460722FF20FBF7B4F9E17981426D
:10EE100001D1002010BD012010BD10B504460146EF
:10EE20000722FF20FBF7A6F9E07110BD10B5002303
:10EE30001A4600F052FB10BDF0B58BB01D00044621
:10EE400009921BD0A2890B0C20685A43101889B272
:10EE50000818089000216069FBF7D7FC00280ED144
:10EE6000207C2E46401E864314D033466069099AA2
:10EE70000899FBF7B8FC07001FD102E000200BB097
:10EE8000F0BD0898AD1B8019089009988019099069
:10EE9000002D12D02A4668460999F1F73DFF207CE3
:10EEA000FF22411B68464019F1F74AFF237C6A465E
:10EEB00060690899FBF797FC074601216069FBF739
:10EEC000A4FC3846DBE770B50A46044608234168CF
:10EED000FFF7B2FF054608212046FFF77BFF616878
:10EEE000081A6060284670BDFFB589B009982027D0
:10EEF000007C1C46401E164687431BE0A74201D2F9
:10EF00003D4600E025462B466A460A99099800F0DE
:10EF10006CF8002807D12A4669463046F1F737FFDA
:10EF2000002802D001200DB0F0BD0A98641B4019E2
:10EF300076190A90002CE1D10020F4E7FFB589B0E2
:10EF400009982026007C0F46401E86431C46314609
:10EF50006846F1F7F5FE0EE0A64201D2354600E024
:10EF600025462B466A4639460998FFF7BDFF00281B
:10EF700004D1641B7F19002CEED100200DB0F0BD30
:10EF800070B515460A4604462B468168FFF754FFC4
:10EF9000064629462046FFF71DFFA1684018A060DD
:10EFA000304670BD70B50D0C2D0404468389FF22D8
:10EFB0002946FFF7C3FF002816DDA1892A0C206827
:10EFC00051430D1800216069FBF71FFC00280BD18D
:10EFD000A28929466069FBF7E9FB002804D10121D9
:10EFE0006069FBF712FC002070BD70B585890E0CBE
:10EFF000046875432C1989B209194069FBF7E3FBD2
:10F0000070BDF0B595B005460821FFF7E3FE044654
:10F0100068680FA9000C00040F90284600F09FF9C3
:10F02000A8890F9908234018011B02AA28460E91AF
:10F03000FFF7DBFF00287EDBFF2102A8FFF7D4FEED
:10F04000002879D00E98001B139002A8FFF7D7FE76
:10F05000002814D00EA9284600F058F9002876D1CF
:10F060000E98109004AA0EA9284600F099F80028DE
:10F070006DD104A8FFF7C3FE002860D107E00E9809
:10F080006946000C4989000408180E90E8E7686892
:10F0900011906A4611A92846119C00F081F80028B9
:10F0A00055D169460888098A884204D16846FFF725
:10F0B000A6FE002803D0686811998842E9D110980B
:10F0C00084423CD16846808A002838D0109869462E
:10F0D000000C498A00040F1828896946488204A850
:10F0E000FFF79BFE69468C8A297C2020491E8843B5
:10F0F000129016E01298A04201D2064600E0264681
:10F10000334606AA39462846FFF76FFF00280BD181
:10F11000324606A92846FFF733FF002804D1A41B76
:10F12000BF19002CE6D10020002810D104A92846E0
:10F13000FFF7C9FE01E00AE005E0002807D11399B6
:10F14000109888428CD128460F99FFF72BFF15B0F5
:10F15000F0BD70B50026F6430446002914D0616165
:10F160004A692260488AA0810D7CE581497C21742E
:10F17000202909D8002807D001461046F1F782FD62
:10F18000002901D1022D01D2304670BD204600F089
:10F19000F3F80028F9D101206074002070BD000050
:10F1A000FEB50C46174605460821FFF713FE064636
:10F1B00008233A4628462168FFF717FF002808D1A0
:10F1C000206880192060AA8981B2921B914201D0E7
:10F1D0000020FEBD1C49020C15D0401A01462060DB
:10F1E00008236A462846FFF700FF0028F1D1FF21D7
:10F1F0006846FFF7F9FD00280AD06846FFF7FFFDD3
:10F20000002807D011E0EA891204511A4018E5E7F6
:10F21000686816E06846A9894088891B884204DA34
:10F220003146F1F719FD002904D02146284600F0A7
:10F230006DF8FEBD20686946000C00042060498816
:10F2400040182060C4E700000000010038B5002429
:10F25000009400F001F838BDFFB50546407C83B04E
:10F260001F4600280CD008212846FFF7B3FDA989C6
:10F270004000081AB84206D20020C04307B0F0BDD3
:10F280000D20C043FAE76E680024029617E06A4634
:10F2900002A92846029EFFF783FF0028EED16846A8
:10F2A00001880498814206D16846FFF7A8FD00282E
:10F2B00001D1641CA4B268680299884202D00C98FB
:10F2C0008442E4D968680299884204D1684601887A
:10F2D0000498814206D168468388002B02D00C989E
:10F2E000844202D20720C043C8E76946300C4988EF
:10F2F00000040918BB4200D93B462846059AFFF78F
:10F3000074FE0028BAD168468088B7E7F3B583B0A9
:10F310000F4608210398FFF75DFD06463868841BF9
:10F32000250C2D043C6015E008236A46214603980D
:10F33000FFF75BFE002810D16846FFF760FD00284C
:10F3400007D16A4651889288280C000489180D1844
:10F350003C60A41BAC42E7D8002005B0F0BD0123FF
:10F360000A681B04D2180A60C089130C834202D1B8
:10F370000004101A08607047FEB5044600200746D6
:10F38000009008212046FFF725FD064600251BE0DA
:10F39000A18928044018811B0823FF2220460091E0
:10F3A000FFF7CCFD00280DD07F1CBFB26946204678
:10F3B000FFF7D5FF0823FF2220460099FFF7BEFD87
:10F3C000002804D06D1CADB2E089A842E0D8E089E5
:10F3D000B84202D10B20C043FEBDA8420CD1009818
:10F3E0000823811BFF222046FFF7A8FD002803D138
:10F3F00069462046FFF7B3FF0098811B000C00040C
:10F400006160A0602EE0082301AA2046FFF7EDFD11
:10F410000028E1D1FF2101A8FFF7E6FC002832D047
:10F4200001A8FFF7ECFC002819D100986946000CF0
:10F430000004A060C9884018A06069460989204678
:10F44000FFF7C8FCA1684018A0606168814206D13E
:10F4500068460089002802D00C20C043FEBD6068C9
:10F46000801B60606168A0688142CCD20BE0431AC7
:10F47000FF222046FFF762FD0028EFDB07D0217C4A
:10F48000A0684018A060A16860688842EFD86068F2
:10F490006946000C000400902046FFF760FFA38936
:10F4A000FF2220460099FFF749FD0028D6DBD5D082
:10F4B00020466168FFF776FD0028CFD16068A189FA
:10F4C000000C72000004891A08186060000C000427
:10F4D000A0602046FFF795FDFEBDFFB587B0002771
:10F4E00004460397407C1D4600282FD00821204663
:10F4F000FFF770FC029029462046FFF76BFC06469A
:10F500000298A18942008018081AA84222D3002D2F
:10F5100002D0099800281DD06068049005906A46C2
:10F5200004A92046FFF73CFE002811D16846018857
:10F530000898814204D16846FFF761FC00280FD08B
:10F5400060680499884208D00846E7E70D20C04368
:10F550000BB0F0BD0020C043FAE70398002816D096
:10F5600005986946000C4988000409186846808897
:10F57000002D09D0A8420CD12B462046099AFFF74E
:10F58000B3FC0028E4DD04E00028E1D001E0002D18
:10F590000BD0002E02D00298301887B20026E089E6
:10F5A000B04204D10F20C043D2E70020D0E7A168C9
:10F5B0006068C91988421AD369460898099E08816B
:10F5C000208948818D81FF20887302A8FFF725FCE0
:10F5D0002A4631462046FFF7D3FC002803D102A972
:10F5E0002046FFF770FC0028B2D12846B0E708217A
:10F5F0002046FFF7EFFB0021C9436A461181002135
:10F600009181A188091851816168A289090C0904B6
:10F61000101A0818606002A8FFF7FFFB02A9204635
:10F62000FFF751FC0590211D2046FFF798FE60680A
:10F63000000C0004A0600598002889D12046FFF73F
:10F64000E0FC002884D1761CA9E770B50023802453
:10F650001D46934202D2C65CCE5404E0934201D1CF
:10F66000CC5400E0CD545B1CDBB2102BF1D370BD49
:10F6700070B50446FAF712FA002862D0FDF7C0FB15
:10F68000642106464E43FDF7C1FB618AA2796430CE
:10F6900089184518FDF7B4FB642148432946F1F762
:10F6A000DBFA062801D906250EE0FDF7AFFB618ADB
:10F6B000A279643089184518FDF7A2FB64214843FC
:10F6C0002946F1F7C9FA0546FDF7A0FB618AA27940
:10F6D00064308918401845437D20711BC000814269
:10F6E0002ED2FDF78DFB642106464E43FDF78EFBBF
:10F6F000618AA279643089184518FDF781FB64217D
:10F7000048432946F1F7A8FA062801D906250EE054
:10F71000FDF77CFB618AA279643089184518FDF7F2
:10F720006FFB642148432946F1F796FA0546FDF739
:10F730006DFB618AA2796430891840184543701BBB
:10F7400070BDFDF75DFB642106464E43FDF75EFB91
:10F75000618AA279643089184518FDF751FB64214C
:10F7600048432946F1F778FA062801D906250EE024
:10F77000FDF74CFB618AA279643089184518FDF7C2
:10F780003FFB642148432946F1F766FA0546FDF739
:10F790003DFB618AA2796430891840184543A0680E
:10F7A000711B8142CCDD4000A060FDF729FB642184
:10F7B00006464E43FDF72AFB618AA2796430891818
:10F7C0004518FDF71DFB642148432946F1F744FA2B
:10F7D000062801D906250EE0FDF718FB618AA279FB
:10F7E000643089184518FDF70BFB6421484329460E
:10F7F000F1F732FA0546FDF709FB618AA279643018
:10F80000891840184543A068711B81422EDCFDF722
:10F81000F7FA642106464E43FDF7F8FA618AA279A9
:10F82000643089184518FDF7EBFA642148432946EE
:10F83000F1F712FA062801D906250EE0FDF7E6FADF
:10F84000618AA279643089184518FDF7D9FA6421D4
:10F8500048432946F1F700FA0546FDF7D7FA618AD1
:10F86000A2796430891840184543701BA06070BDB0
:10F87000C0681C22514340187047000010B508486A
:10F880004068002802D0F9F753FA10BD054900225C
:10F8900009208A74FAF74AFB01F0BAF910BD00009A
:10F8A00098300020B8310020F0B5154602460B46CE
:10F8B00000202B43C043634E85B0002A28D0344635
:10F8C00058340394604C012A2AD0022A3AD0032AE1
:10F8D0001CD100297DD001297CD002297BD00329AD
:10F8E0007AD00026002E11D0A1684A8B32420DD06A
:10F8F000097EA9420AD3082E6FD005215148F6F798
:10F90000DBFCA0682946426A3046904705B0F0BD4E
:10F91000002BFBD10020B065F065306670660FE00B
:10F92000002BF3D1A068027D0169B01A6830F1F7AD
:10F93000F3F9A068017D1020411A0398F1F707FA46
:10F940000020E3E70B00F4F705FE050406080A0CA7
:10F950000E00012708E0022706E0042704E008273C
:10F9600002E0102700E00027002FCFD0A168CA8A4C
:10F970003A42CBD0497DA942C8D30E213148F6F78F
:10F980003DFD002803D007212E48F6F795FC102FE7
:10F9900024D004216846F9F79DFC2C49A8004018A2
:10F9A0008038C16F0098F1F757F926480A0C643087
:10F9B000130A0091037042700A0A8270C17000201D
:10F9C000B065F0653066204800998068C2693846A5
:10F9D0009BE72CE02DE02EE02FE030E02946684642
:10F9E000F9F778FC00246F460CE0385D2421F1F72C
:10F9F00033F939550A2901D2303100E03731395510
:10FA0000641CE4B2AC42F0D3002078552A46694623
:10FA10000398F1F781F91020411B70195830F1F764
:10FA200096F909488068016A684688476EE70126AA
:10FA300058E7022656E7042654E7082652E706212F
:10FA40005CE7000098300020A40200206457010009
:10FA500070B50C4605460521FEF7CDFC214628462B
:10FA6000FEF760FC70BD0000F0B504468DB00E21BD
:10FA70005348F6F7C3FC00287ED05248406B0590EF
:10FA80000AA8049006902078002804D0601C03F097
:10FA900045FE012801D002208AE0E0780128FAD84A
:10FAA00049498968C96A002903D0002801D0012288
:10FAB00000E0002209214248F6F717FC207908905F
:10FAC0000128E8D8607907900828E4D8A01D03F041
:10FAD00025FE09904009DED1257A082DDBD8204685
:10FAE000093003F01BFE07460009D4D1344E2178BB
:10FAF000F289B089F9F754F8B060002857D002A80D
:10FB0000019000953946079B089A0998F5F7B8FEC9
:10FB100030460B2221468930F1F7FEF8022104A875
:10FB2000FFF796FF002104A8FEF7FCFB09213046F1
:10FB3000F6F764FCC1B204A8FEF7F4FB6846417A0C
:10FB400004A8FEF7EFFB6846C17A04A8FEF7EAFBBB
:10FB50006846417B04A8FEF7E5FB04993046052280
:10FB60009430491CF1F7D8F804A800F029FB0028CC
:10FB70001BD16846027B00E017E0817A007AFFF72C
:10FB800093FE002802D0022000F0D4FB09210C488B
:10FB9000F6F734FC002803D00B488068C06A804721
:10FBA0007068002807D002F067FA0DB0F0BD05209C
:10FBB00000F0C0FBF9E70A210148F6F77DFBF4E706
:10FBC0009830002054570100A402002010B50348CB
:10FBD000FCF71AFCFAF72AFE10BD0000F0310020F5
:10FBE00070B50C460546064906A0F4F78BFC224684
:10FBF000294608A0F4F786FC0BA0F4F783FC70BD3F
:10FC0000DC4E01004150505F4442472025733E20A6
:10FC1000000000006E65745F6964782025782C20F0
:10FC200061646472202578000A00000070B50E211E
:10FC30000E48F6F7E3FB002817D00C4D0E2128469E
:10FC4000AC68F6F7DBFB00280FD02046F9F7C6FCBE
:10FC500000202946FF222031A8600A75FAF766F9CC
:10FC6000227D21886088F9F7EFF870BD9830002078
:10FC700010B5014610220848F1F74EF806480E214B
:10FC80003838F6F7BBFB002802D002F06DFA10BD41
:10FC900001F020FF10BD0000D0300020F0B5044678
:10FCA0003B489DB0C06F0A901AA83A4909900B9042
:10FCB000C81FFE380CAA0E460546F9F7FDFB0028C2
:10FCC00001D007200FE010AA31462846F9F7C6F800
:10FCD0000028F6D102AB224610A90CA8F9F780F84B
:10FCE000002804D0062000F025FB1DB0F0BD14AAAA
:10FCF00031462846F7F7B4F80028E2D106A803F009
:10FD00000DFD18906846807E06AC0334199020469D
:10FD100003F004FD0604A01C03F000FD0643201DB3
:10FD200003F0FCFC0746082109A8FFF791FE09A88B
:10FD300000F046FA0028D8D11648FF21F938164DB0
:10FD400001752868002809D014480068002805D0EB
:10FD500013484068002801D0012400E0002414A8C2
:10FD600000970190334602A8199A1899F9F7D8F824
:10FD70000028BAD12868002803D0002C01D0F9F758
:10FD80009BF904487D2109015F30FCF75BFBACE780
:10FD900054570100B13100201C0400201804002039
:10FDA0009830002010B501462022274803F0CFFCF0
:10FDB00025480E211438F6F721FB234C0C3400287B
:10FDC00027D0204606212038F6F718FB00280FD14F
:10FDD000204605212038F6F711FB002808D12046DF
:10FDE00007212038F6F70AFB002802D004202075EE
:10FDF00010BD15480C211438F6F700FB002802D07E
:10FE000001F068FE10BD10480D211438F6F754FAC1
:10FE100010BD0D4809211438F6F7F0FA002810D06B
:10FE20000520207508480C211438F6F745FA0648D5
:10FE300007211438F6F78AFA0028E9D001F09CFF70
:10FE400010BD02F019F910BDAC30002010B50078DB
:10FE5000FAF76CF810BD000010B507210648F6F758
:10FE600075FA002807D000210348F6F7C7FA0028E2
:10FE700001D001F02FFE10BD9830002010B50446CF
:10FE8000294888B08068019003A8009002902178EA
:10FE9000002902D00020F6F7CDFA2448217801721B
:10FEA00001216846FFF7D4FDF6F7FCFF01466846DE
:10FEB000FEF738FA01216846FEF702FA1C4CA068EA
:10FEC000817A6846FEF72EFAA0680069002801D002
:10FED000012100E000216846FEF724FAA068417D78
:10FEE0006846FEF71FFAA068C18A6846FEF7E8F97F
:10FEF000A068017E6846FEF715FAA068418B684647
:10FF0000FEF7DEF9094800990B220930491CF0F789
:10FF100003FF684600F054F9002803D1034802218A
:10FF20006038017508B010BD545701001831002029
:10FF3000A402002000B5104885B0C06F019003A84E
:10FF40000090029000216846FFF782FD0B48017C7B
:10FF50006846FEF7E7F9009841780848803001725A
:10FF6000684600F02DF9002803D104480121203013
:10FF7000017505B000BD0000D45601009830002086
:10FF800070B51E4E1E49B06B00680578304678305B
:10FF9000FCF758FA34462034217DB06BF6F7E2FFC7
:10FFA000002814D0207CFBF791F8207C607400209E
:10FFB0002074F01F0821F938F6F720FA002801D044
:10FFC000032002E00A2D03D3022000F0B3F970BD34
:10FFD000092D04D00948E038007DA842F0D1094A33
:10FFE000E90088188388B06B5B1C8488A342EBD13E
:10FFF00000685158401C884770BD000098310020AF
:020000040001F9
:1000000060EA0000FC560100024800682030007AD7
:10001000704700001002002070B5064690B00E2117
:100020002348F6F7EBF9224C2546D93599340028B8
:100030000BD000211E48F6F73FF9402231462846F2
:10004000F0F76AFEFFF7C2FD10E04022314620467D
:10005000F0F762FE09211648F6F7D0F9002805D01E
:1000600001211348F6F7CAF900281BD00E211048C9
:10007000F6F7C4F9002800D02C4620222146684615
:1000800003F065FB2022A11808A803F060FB0949D2
:100090006846F6F7F1FE002802D0072000F04AF982
:1000A00010B070BD00210248F6F706F9F8E700002D
:1000B00098300020A5FD00001FB51D4A04460146EA
:1000C00010466B462030F8F761FE002801D007206B
:1000D00008E01749102220396846F0F758FE00283A
:1000E00003D0042000F026F91FBD11480E21583816
:1000F000F6F784F90E4A103A002802D0114622463B
:1001000000E021460A4BC1331846B138F8F7E0FE4B
:100110000028DCD106480E215838F6F76FF9002880
:1001200002D001F031FF1FBD02F01EF81FBD00001C
:10013000F030002070B502211E48F6F75FF9002864
:100140001AD004211B48F6F759F9002802D07D2463
:10015000240100E0184CFCF7A4F9164DFF224132AF
:10016000FF23525945335B59821A9941E017A21A6D
:10017000884102DA00F03EFD70BD0024A000411964
:10018000FF310131C86C0028F6D08269127A52061C
:100190000CD4621C032A05D2096D002902D000226A
:1001A000114601E000220549F5F7FAFE641C032C14
:1001B000E4D370BD9830002030750000B0020020FC
:1001C00010B504460A490B48FCF73CF90A48006898
:1001D000002808D009484068002804D0224603219E
:1001E000F9F73CF810BD204600F00AF810BD0000F9
:1001F00060EA00001032002018040020983000202F
:10020000FEB50446FFF7E2FCF4F7D2FE05000BD082
:100210000E214648F6F7F2F8011E4548017A08D04B
:100220007F2904D0491C09E00620C043FEBD0021FF
:1002300004E0002901D0FF29F4D180210172C8B265
:1002400002903B4E2846403E0C300746F16AFEF7CE
:1002500045F838460299FEF765F82079142801D848
:10026000002006E01438C0B21721F0F7F5FC401C5E
:10027000C0B28006010E3846FEF754F8A188384611
:10028000FEF71EF821792068F6F75AFE0146384637
:10029000FEF748F8F564A088142800D31420C5B2EE
:1002A0002A4638462168FEF732F829462046FEF7EE
:1002B00044F801252FE0032D04D3FAF7B7FA1120F3
:1002C000C043FEBDF4F774FE00282BD01749AF00E1
:1002D0007918FF310131C864A188172900D317218B
:1002E000C9B200910C30F16A0190FDF7F7FF029955
:1002F0000198FEF717F8BF1CF9B20198FEF712F843
:100300002168009A0198FEF702F820460099FEF74E
:1003100014F86D1CEDB2A0880028CCD101F04EFF7E
:100320000020FEBDFAF782FA7EE700009830002038
:10033000D831002010B5044686B00E210F48F6F7DC
:100340005DF8002804D02046F9F7F0FD06B010BD96
:100350000B4809218068019003A80090029068462C
:10036000FFF776FB21466846FDF7DCFF6846FFF79E
:1003700027FF08210148F5F79FFFE7E798300020A5
:10038000D457010070B504460078002827D1627860
:10039000500824D1144DA868807A82421FD10921C7
:1003A0001248F5F7A2FF09211048F6F727F80028B0
:1003B00004D0A868C068002800D080470B480522F8
:1003C00021469430F0F7A8FC08480321203001753D
:1003D0002279E178A078FFF767FA002802DA022094
:1003E000FFF7A8FF70BD0000A40200209830002095
:1003F000F7B514460E460098F6F7E4FEC01E85B227
:10040000A088B706BF0EA84209D239462046FDF79C
:10041000EBFFA2882168009800F032F8FEBD394653
:1004200040312046FDF7E0FF2A462168009800F0A1
:1004300027F829462046FDF780FF80371BE0401C47
:10044000A8420BD2C020314601432046FDF7CCFF25
:10045000A2882168009800F013F80FE03946204682
:10046000FDF7C2FF2A462168009800F009F82946E6
:100470002046FDF762FFA0880028E0D10020FEBDE5
:1004800070B50A4D2B466C681B78002C01D0022BEE
:1004900006D0AC68002C01D0012B03D0002070BD29
:1004A000A04770BDF8F7F2FC70BD000010040020FA
:1004B00070B506462B48EAB0C068079009A80690B8
:1004C00008900020B468039004900590A1886A46C3
:1004D0001182217A91750090029003A80190304614
:1004E000F7F798FB00886A461081F8F729FB6A46FF
:1004F0009072D07AE1884008C9044000C90F0843CF
:10050000D072002C27D0E0880005000DF5F74AFED8
:10051000050023D02888F9F731F90090288869462A
:1005200088816888C88120698288016806A8FDF7EB
:10053000EEFE60890722410B490352038918C0046B
:10054000C00C014361813346064A06A96846F9F7A3
:1005500015FA6AB070BD1220C043FAE71720C043F5
:10056000F7E70000F050010070B58D680C46002DD3
:100570001ED06889400B05D0687AC1083220491C1A
:1005800041430FE00846F7F715FC060007D0FBF7DC
:1005900090FFE968401AB04203D3012102E0002134
:1005A00000E0311A002903D0A0681830FBF74AFF99
:1005B00070BD10B59468002909D1617A6089490736
:1005C000400B490F884202D1FBF773FFE06010BD7A
:1005D00070B50546002409E0284603F000F90460E0
:1005E0004179490849004171FDF749FF284603F068
:1005F0000DF90028F0D070BDF8B5074615460E4637
:100600005478506801E0641EE4B20178401C00296F
:1006100001D0002CF7D1A878002803D0002C01D0FD
:10062000641EE4B2287881070DD5E978102902D03C
:10063000082904D007E0002C05D0A41E02E0002CFD
:1006400001D0641EE4B2C00703D007E02021384681
:10065000B0472046641EE4B20028F7D1A9780029EB
:1006600001D03846B0472878800710D5E8781028A0
:1006700002D008280FD00AE030213846B047287849
:10068000400701D5582100E078213846B047287846
:10069000C00705D109E03021F7E730213846B047DF
:1006A0002046641EE4B20028F7D16C6801E03846A9
:1006B000B0472178641C0029F9D1F8BD01480068D1
:1006C00000797047100200200B4610B5014618460D
:1006D000F0F722FB002010BDFFB5C5B0002004904C
:1006E00045981E460068039045980C46808805286A
:1006F0007ED304A92046FBF7E5FC002878D1012130
:100700004598FDF71AFE4598FDF71FFE8107400446
:10071000C50CCF0E4598FDF749FE4109C006394387
:10072000C00E01910290814262D8BE48217D0068CE
:10073000C907C90F401A010A02062069431BDB04DE
:10074000DB0CC01A02433260716002984E99401C63
:100750000690087000251AE0B348A9018068228934
:100760000818018A914211D1418A628991420DD1C2
:100770000CCE8768083EC168BA1A99410CD2C17D77
:10078000490603D5012100F041FF04E06D1C00F093
:10079000B3FBA842E0DC0020050043D03168AA6822
:1007A0007068EB68891A9841A2D30398AA7D0078F3
:1007B000029982421CD1E87D0090C206D20E8A4284
:1007C00016D1298A20890590814211D1688A6789CA
:1007D000B8420DD10098217D80060907C00FC90FCE
:1007E000884205D1009840065ED4ED69012000E002
:1007F00083E00021521CF0F77FFA401E85427CD135
:1008000000980096C00901950290A37B20683946A4
:10081000059A01F0D5F8049800284BD0214603F042
:1008200043FE47E0207D0007C00F00F053FE029911
:1008300005464D436D1C00F059FB85420FD9207DC4
:100840000021C009009601910290A37B2289618951
:10085000206801F0B5F81420C04349B0F0BD7348DA
:100860000068002810D0207DC1090DD040060BD4AF
:100870004E98334600780090206862892189808BE9
:10088000F6F74EFC002818D032462046029B03990A
:1008900000F040FE05001DD0E87D217D4006400EA1
:1008A000C909C9010843E875019801278740E8692B
:1008B000074212D00120C043CFE7207D0021C009AC
:1008C000009601910290A37B22896189206801F042
:1008D00077F866E00820C043BFE702990198884294
:1008E000E87D0BD18006C00F00F0F4FD029948436B
:1008F000459989884018A8820CE008E08006C00F5E
:1009000000F0E8FD014645988088814202D0002031
:10091000C043A2E7FBF7CDFD2862284624300090B3
:10092000FBF785FD00280AD1F6F76CFE002806D1FA
:100930002846F4F7B1FA01460098FBF783FD207DC5
:100940000007C00F00F0C6FD00F0CAFD01996A68FB
:1009500089005050002814D045998A880968F0F71A
:10096000DBF9E86900210743EF610120069AF0F7FF
:10097000C3F9401E874217D0479901200870002014
:100980006BE7207D0021C009009601910290A37BB6
:1009900022896189206801F013F80121284600F0BE
:1009A00035FE0620C04358E70498002802D02146AF
:1009B00003F07AFD4798022101700098FBF724FDAF
:1009C000E87DE969C009009601910290A37B228924
:1009D0006189206800F0F4FF207D000712D51448DB
:1009E0000022806C019005A800900290694628467C
:1009F00000F0CEFD0398334601786A462046F9F7A9
:100A000085FC08E0039823464078C20903980178E2
:100A1000284600F0DDFA04460021284600F0F6FDE5
:100A200020461AE7882F0020B8020020E4030020A7
:100A3000E457010030B50546104887B0C069029000
:100A400004A80C46019003900D4901A8F7F789F915
:100A5000F8F76AFC014601A8FDF764FCF8F774FC9E
:100A6000014601A8FDF75EFC00200346009001AAA4
:100A700021462846F7F7A6FA07B030BDDC51010041
:100A800028800000F0B50646204887B0806A0290B2
:100A900004A801900390B46A0F46002C1CD0106883
:100AA0000078002801D001282ED16179022903D0D5
:100AB000814203D0012502E0002506E00025607197
:100AC00010684078A071F8F74FFDE08DC00703D0A3
:100AD000002D01D0F6F7CEFB0D4901A8F7F741F93B
:100AE000F8F722FC014601A8FDF71CFCF8F72CFCE6
:100AF000014601A8FDF716FC00200346009001AA5C
:100B000039463046F7F75EFA07B0F0BDDC51010018
:100B10002880000030B50B480B49406885B0C0689C
:100B2000144688420CD11046FDF740FC054620468D
:100B3000FDF73CFC6946087229466846F9F778F8E3
:100B400005B030BDDC03002028800000FFB504465E
:100B500087B016460F460089F6F7AAF9002803D099
:100B60000720C0430BB0F0BD2089F8F779F80025C5
:100B7000ED43002816D00C49227D0968D207D20F18
:100B8000891A628923890293059111990091039230
:100B9000019604970121001D109B0A9AF5F76DFA42
:100BA0000028DFD02846DDE7882F002070B5104CE4
:100BB000002903D00020E070606470BDE179491C19
:100BC000E1710B4960820720091F0871FCF71EF9CB
:100BD0000546FCF71BF9012801D9012001E0FCF7CB
:100BE00015F9291A20461430FBF72CFC70BD0000C3
:100BF000AC2F002010B500F00BF804488068426B61
:100C0000002A02D000210120904710BDA40200203C
:100C100070B52248FBF7F8FB2048F838007A002826
:100C200003D000210846F5F705FC0E211C48F5F716
:100C3000E5FB1B4C002805D0A068002802D000214D
:100C4000F8F700F817480068002804D0606800280A
:100C500001D0F6F7D3F8FEF7B9FFFF21593110485C
:100C6000F0F775F80D48FF2158380F4D41740B4CC3
:100C70006868783C002803D0FDF7C1FB686801E094
:100C8000F8F710FAA0630120F8F712FB002801D052
:100C9000002070BD0D20C04370BD00001032002048
:100CA0009830002018040020A402002000B5064857
:100CB0000649406885B0C068884203D10021684673
:100CC000F8F7B6FF05B000BDDC0300204A80000045
:100CD00001480068C06A704710020020024800689E
:100CE0002030007C7047000010020020024800689D
:100CF0002030407C7047000010020020024800684D
:100D00002030807C7047000010020020F8B51C4C99
:100D1000207E81072FD52746203F3E781120304383
:100D200038700020174D207700216378227808461C
:100D3000F2F7C6FEF4F77CFF2879C00702D0207FC7
:100D4000401C03E0E878C007F4D000202077F2F7D9
:100D50009BFE207F002805D0C008E5D0F2F73CFBC1
:100D60003E70F8BD207E802108432076E07E012180
:100D700003F03AF9F4E74007F3D5F2F72DFBF8BD9D
:100D8000B82E0020802E002070B51C4D0C46287D0A
:100D9000890708D5022804D0FFF7A0FF687503F083
:100DA0006DFA022025E0210703D503F0B1FA0820EF
:100DB0001FE0E10703D000F083F8012019E061078C
:100DC00003D500F07DF8042013E0E10613D50428D4
:100DD0000ED10A481830007841078007014301D43A
:100DE000F2F752FE287A042103F086F901202875D3
:100DF0001020604070BD002070BD0000502F00200A
:100E0000014800684078704710020020FFB581B0AB
:100E1000002808D01022002102F0DAFA002486B25D
:100E20002746234D0DE00720C04305B0F0BDE86A1A
:100E3000E100415AB14203D1E86AE100441805E0FB
:100E4000641CFFF7DDFFA042F1DC3C46029800285D
:100E500002D0002C0CD012E0002C01D0276067607B
:100E60000020E2E7E86AE100405A002817D0641C3D
:100E7000FFF7C6FFA042F5DC3C46002C15D004234A
:100E80006A4604990398FCF705F90028CDD100982B
:100E90000102090AC001C00F6160A070E0E7E96AC1
:100EA000E0000E52E96A0C18E7E70820C043BCE7EF
:100EB0000830002001480068808A70471002002036
:100EC00010B5094C207D02280DD0207800280AD0CA
:100ED000FDF722FE04202075FAF7DEFB207A1022AF
:100EE000042103F0CFF810BD502F00200148006806
:100EF000C08970471002002001480068007B7047DD
:100F00001002002010B5817E002916D0017F491EF5
:100F10000906090E017710D1418A0122D203002966
:100F200001D0914202D3437F002B07D0437E9B0622
:100F300008D000212830FBF785FA10BD002100F011
:100F400019FC10BD002907D0914205D2C17E322282
:100F50005143FF319131EDE73221EBE770B50146A6
:100F600018480546F5F79EF9164C083C20894005BF
:100F7000400F01D0002419E006212846F5F735FA84
:100F800000280DD01049A068084206D0FFF792FF54
:100F9000044602F017FA844202D2FFF78BFF01E009
:100FA00002F010FA7D21C900484304460748FBF7C8
:100FB0003EFA002801D0A04203DB21460348FBF79C
:100FC00041FA70BD902F002080F8000058300020BA
:100FD000FFB507466548F1B0C06B0A9010A80990AC
:100FE0000B90B8681D460002000A0490B98A1646A4
:100FF000002A01D0082000E00420401C814203D2D6
:101000000020C04375B0F0BD59480068002802D0E8
:10101000287D400670D568890121C9030122411A43
:101020009203914202D2F6F799FA00E000200C9068
:1010300070A8007A0F908009C00703D04D480024A3
:10104000059089E00E214C48F5F7E1F900281ED003
:10105000324609A9384600F09BFA09980890069094
:10106000B98A002E01D0082000E00420081A694641
:10107000C8830020888306A909A8019100903346FF
:1010800028460C9A0499FFF761FD00280CD03246DF
:1010900009A9384600F07CFA099808900690B98AA8
:1010A000002E04D0082003E00220C0431FE00420EB
:1010B000081A6946C883002088832E48297D803815
:1010C00000686A892B89C907C90F401A05900293E5
:1010D00006A800900C9927480392019109AB32466B
:1010E00001211030F4F7C9FF00288BD1801EE88061
:1010F00006A92846F6F702FF32E005982822416A41
:10110000204650430D9008180E90324609A93846E3
:1011100000F03EFA099808900690B98A002E01D096
:10112000082000E00420081A6946C883002088834C
:1011300006A80F9A0092039009A9059801960291BA
:10114000416A0D980C9B09182846049AF4F7AAF8EE
:10115000002807D0641CA4B2F4F700FBA042CCD84E
:1011600000204FE70E984088C1E70000E4570100D7
:10117000E40300200830002098300020F7B58AB042
:101180001646044603F08AF9001D02F067FE0700C8
:1011900013D0002007900697089003F07FF9694666
:1011A000001DC8830897B088052809D2384602F088
:1011B00069FE0020C0430DB0F0BD0820C043FAE72F
:1011C00044480068002802D0207D40067AD5608916
:1011D0000121C9030122411A9203914202D2F6F77A
:1011E000BDF900E000200990B088001FB08008A879
:1011F000007B05908009C00701D000255EE00E212C
:101200003548F5F704F900280FD000206946888397
:101210000898069006A801900096002321692046B0
:10122000099AFFF793FC002822D0002069468883A2
:10123000089806902948217D0068C907C90F401AFF
:10124000628921892369059002A80EC006A8009032
:101250000999224801913346002201219030F4F788
:101260000CFF050007D0384602F00CFE2846A2E726
:101270000220C04301E00120C043E08006A92046CF
:10128000F6F73CFE1EE015486A468030416A282089
:1012900068430918002004919083089A0692059BE0
:1012A00006AA009301900296039222692046099BA8
:1012B000F3F7F8FF00280AD06D1CADB2F4F74EFA30
:1012C000A842E0D8384602F0DDFD002073E704981C
:1012D0004088D2E7E403002098300020882F0020C7
:1012E000FEB506468088152873D330680024414F28
:1012F00000900FE0E420B96A60430D18A98B3E48C6
:10130000814206D01522A81D0099EFF740FD002864
:1013100008D0641C02F088F9A042EBDC0024002C09
:101320005DD101E02C46FAE730463768FDF73EF81C
:10133000054608213046FDF731F804463046FDF7F2
:1013400012F8029001A83368009029462046029ABC
:10135000F8F7DEF904004BD0E07F022803D168469D
:101360000079002844D039461522A01DEFF7D4FC9F
:101370000020F8F703FA002802D0A08B00282ED115
:101380001C48032178380646F5F714F800280AD0DF
:1013900002213046F5F70EF8A907C90F884202D19D
:1013A0000020F5F705F9A807C10F0298F7F74EF8E6
:1013B00006466846E9070279C90F2046F6F7A2F803
:1013C000050002D02046F6F733FE002E02D00020A2
:1013D00003E00DE0002D02D02046F7F7BFFAF5F745
:1013E000D5F8012804D16079FF2801D2401C607132
:1013F000FEBD000008300020FFFF0000F8B5FBF73D
:1014000058F80746002429E01948816AE42060431F
:101410000D18A88B174988421FD028681649381A1A
:10142000884206D22979154A5143521089188142BF
:1014300013D8002211460220F4F74CFD060013D009
:1014400031460C312846F5F747F82A460C49304614
:10145000F4F7A6FD3046FDF712F8641C02F0E4F83C
:10146000A042D1DC0020F8BD0620C043F8BD00003A
:1014700008300020FFFF0000C027090010270000EF
:10148000305101003EB50446243CFBF712F8216AB6
:10149000401A0F49884204D90021204600F0B6F8CE
:1014A0003EBDE07DE1692246C0090832009201910B
:1014B0000290237E228A618A206800F081FA204609
:1014C000F3F7EAFC014620462430FAF7BBFF3EBDA5
:1014D00060EA0000002801D0082070470C20704707
:1014E00001B5044800220068694603681046984721
:1014F00008BD000044510100024A01461268002064
:10150000926810474451010010B5283800F08EF958
:1015100010BD0000FFB581B01F46054600241B4EDC
:1015200006E0B168A0014018C17D490607D5641CDA
:10153000FFF7E2FCA042F4DC002005B0F0BDC17D65
:1015400040221143C17529680160C17DDF2211402D
:101550002A7D1207D20F52011143C175039906C9A2
:10156000C2608160C17DFA0649094901D20E11436A
:10157000C175029909788175A97B01762989018253
:10158000698941820021C161D7E70000B8020020CB
:10159000F7B504460020888088680E46002508605C
:1015A00023E08006C00FFFF795FF0746E07D800629
:1015B000C00FFFF78FFFA18A6843081A8742E07DBA
:1015C00004DA8006C00FFFF785FF06E08006C00F33
:1015D000FFF780FFA18A6843081A6168AA0089584A
:1015E00002463046FCF793FE6D1CE07DC106C90E35
:1015F000A942D6DA800608D40298B188002801D022
:10160000082000E00420081AB080FEBDF3B50446AF
:1016100081B02430FAF7F8FE1C480068002814D086
:10162000E07DC10911D0C206D20E01200021521C5A
:10163000E569EFF761FB401E854206D02346628ACA
:10164000218A08332068F5F7C1FC00252F4609E000
:101650006068AE008059002803D0FFF74DFF606836
:1016600087516D1CE07DC006C00EA842F0DAE07D17
:10167000BF210840E0750298002805D00021A16034
:101680002760E16027826782FEBD0000E40300203E
:1016900070B50646507E14460D4640060CD4206AAE
:1016A000002809D00368002B06D03046626A9847AC
:1016B000607E402108436076002D02D02046FFF76F
:1016C00021FC70BD10B50846FFF71CFC10BD038A55
:1016D0008B4204D1408A904201D101207047002002
:1016E0007047F7B5044600890D46C604207EF60C07
:1016F0008006C00FFFF7EEFE0746207E8006C00F73
:10170000FFF7E8FEA18A6843081A8742207E04DAC0
:101710008006C00FFFF7DEFE06E08006C00FFFF771
:10172000D9FEA18A6843081AC7B2A17D0298FCF7C6
:10173000F9FD207E4006C00FC101B00901430298A7
:10174000FCF7F0FDB006010EE80801430298FCF733
:10175000E9FD6807010E207EC006C00E0143029815
:10176000FCF7E0FD6068A90041583A460298FCF792
:10177000CEFDFEBDF8B50F460546466A046A00F088
:10178000E7F8284600F018F8002C05D06268002A17
:1017900002D0314638469047F8BD70B504464068DF
:1017A0008D004059FFF7A8FE616800204851A07ED7
:1017B000401EA07670BD000070B504462830FAF7D0
:1017C00023FE002626626662A660E6602660268208
:1017D0006682607E35464006400E607609E06068AD
:1017E000A9004058002803D0E9B22046FFF7D5FFF2
:1017F0006D1C207EC006C00EA84202DBA07E002821
:10180000EDD10948A6768268202113468B430A420F
:10181000836008D000680021F6F718FE002802D087
:101820000020F7F79BF870BD882F002070B50446A4
:10183000464886B007C803AB07C320686946808B5B
:101840008881207E800200B2000CC881608A0882F4
:10185000E07E887500200090019002902068009042
:1018600003A80190208A0881E07D8872C87A217ED1
:1018700040084000C90908436946C872A17D800735
:10188000800F890008436946C872607F002838D1FC
:101890001621C9432046FFF76DFF06B070BD616891
:1018A00080000858002823D0E17D00220120F4F7B1
:1018B00011FB050031D028460C3009210646FCF703
:1018C0009AFD607E32468106890E2046FFF709FFA9
:1018D000207F1E4A401C20772346083A2946684646
:1018E000F7F75CF8002803D0207F401E207714E033
:1018F000607E0621C8410121890640181A21C8418D
:101900006076607E217E8006C906800EC90E884200
:10191000C5D9607E800980016076207F002811D1C2
:10192000608A002809D00121C903884205D2E17EDE
:1019300032204143FF31913100E0322120462830EE
:10194000FAF780FD607F401E6077A6E7EC57010044
:10195000F1B500242546194F1FE048202E46464386
:10196000786800993018884216D0417EC90913D092
:10197000428A018A0098FFF7AAFE00280CD0002CAA
:1019800008D07868A16830188368C068E268591A7E
:10199000904101D2786834186D1C02F0C7FCA8424F
:1019A000DBDC002C08D0607E00214006400E607613
:1019B00020462830FAF746FDF8BD0000B8020020A6
:1019C000F0B58BB00027129E224C9C460D46039723
:1019D00004971ACC059107940693838B69468B82F2
:1019E0000A8362468A77029005A80390002E02D0EF
:1019F000F7F7B8F900E0284669460882F7F7A0F83B
:101A00006946887410980088C404E40CF5F7FAFD60
:101A1000002805D1002D03D00120C003854202D348
:101A200000200BB0F0BDA000F1030843010A08AA92
:101A3000117050701198010C0B0A9370D170010A4B
:101A40001171507100970623002102A80197F5F744
:101A5000D9F9E6E70458010070B50446124886B08B
:101A6000406B029004A801900390A06A0E460028E3
:101A700017D00830FAF7DBFC7D21C900EFF702F937
:101A8000C5B20A4901A8F6F76CF9294601A8FCF786
:101A900049FC00200346009001AA31462046F6F793
:101AA00091FA06B070BD0000B85501000780000033
:101AB00070B504000D460CD02368002B03D00A46F5
:101AC0000021084698476368002B02D02946002071
:101AD000984770BD30B5254889B0006C019003A8C7
:101AE00023490090029008460D462030F7F76AF926
:101AF000002822D11E4A2946103210461446643866
:101B0000F7F754F9002818D1194810212038054654
:101B1000F7F7E0FB002810D105216846FDF798FF94
:101B200010216846FCF7BBFB114A0346103A2946D0
:101B30002046F7F72BF9002804D00720FEF7FAFB20
:101B400009B030BD6846FEF73BFB0028F8D10848D5
:101B50000E216838F4F752FC05494839002802D0B4
:101B600005200875ECE70620FBE70000545701004C
:101B70000031002010B50348007C0007C00F00F0C2
:101B800003F810BDA82F002011B51D4889B00146EB
:101B900018310EC902AC0EC41A496B46896A8A8B89
:101BA0001A81184A803A128D9A81C06A079002A859
:101BB00005910690F7F7D6F8124C6B4698835C3C7B
:101BC000E078002808D0012803D0207B02210843B8
:101BD000207300200AB010BD0021094801230191A3
:101BE000009009AA194605A8F5F70CF90028F1D1CB
:101BF000217BFD22114021730121E170EAE7000001
