:020000040000FA
:1000000000800020E113000001400020EB130000FD
:1000100000000000000000000000000000000000E0
:10002000000000000000000000000000EB130000D2
:100030000000000000000000ED130000EF130000BE
:10004000F1130000C7020000F1130000F1130000DB
:10005000F1130000F1130000F1130000F113000090
:10006000F1130000F1130000F1130000F113000080
:10007000F1130000F1130000F1130000F113000070
:10008000F1130000F1130000F1130000F113000060
:100090000348854601F00CFA00480047C5000000FF
:1000A0000080002010B58A48806A01214902084377
:1000B0008749886203210120400200F00BFE01F015
:1000C0003FF910BD022001F009F9022000F061F9AA
:1000D0000121881E00F0FEFD0121881E00F043FE74
:1000E000FFF7E0FF7A48403841787AA001F02CFA17
:1000F000C82001F0F3F80121602000F0EBFD02219F
:10010000602000F083FE012001218140764A1160C9
:1001100000BF102100F0C3FF74A001F015FA012008
:1001200001F0DCF801F007F875A001F00DFAFF20EE
:10013000F53001F0D3F875A001F006FA012001F0C6
:10014000CDF801F0E9F962488038807A042108404E
:10015000002806D1012000F036FFF02001F0ADF8B4
:100160000AE05B48803800890121490208400028E4
:1001700002D1AE2001F0A1F8012000F010FA012018
:1001800001F09BF8022000F004F95DA001F0DCF919
:10019000FF20F53001F0A2F861A001F0D5F90120AF
:1001A00001F09CF801F0BEF949488038807A0421BA
:1001B0000840002806D1012000F005FFF02001F0E2
:1001C0007CF80AE042488038008901214902084051
:1001D000002802D1AE2001F070F8012000F0DFF914
:1001E000012001F06AF8022000F0D3F844A001F0E9
:1001F000ABF9FF20F53001F071F84EA001F0A4F941
:10020000012001F06BF8122001F092F9304880389B
:10021000807A04210840002806D1012000F0D3FE96
:10022000F02001F04AF80AE02948803800890121CD
:1002300049020840002802D1AE2001F03EF801201A
:1002400000F0ADF9012001F038F8022000F0A1F82B
:100250002BA001F079F9FF20F53001F03FF83AA02A
:1002600001F072F9012001F039F8002001F066F97F
:1002700017488038807A04210840002806D10120E0
:1002800000F0A1FEF02001F018F80AE010488038D4
:100290000089012149020840002802D1AE2001F066
:1002A0000CF8012000F07BF9012001F006F8022093
:1002B00000F06FF812A001F047F9FF20F53001F0CF
:1002C0000DF800BFFEE760200149888370470000F9
:1002D0008010004053746172742040436869704913
:1002E000443D253032780A0000E100E049444C45A5
:1002F000206D6F646520736C656570200A000000D6
:1003000077616B652E2E200A0000000048616C7436
:100310005F31206D6F646520736C656570200A0025
:1003200048616C745F32206D6F646520736C656525
:1003300070200A00736C656570206D6F64652073B2
:100340006C656570200A00007368757420646F77AF
:100350006E206D6F646520736C656570200A000007
:1003600010B55720FD490870A82008708820FB4967
:1003700040390881F948008904210843F749088178
:10038000002008700A2000F098FF012000F0A6FE6F
:1003900010BD00B5030001F0E7F80D081A2C374135
:1003A0004C56606A75808B96A1005721EB4A1170FC
:1003B000A8211170E9492039C97B04229143E74AF9
:1003C000203AD173C821E54A403A118187E057218C
:1003D000E24A1170A8211170E0492039C97B04223A
:1003E0001143DE4A203AD173C821DC4A403A1181D8
:1003F00075E05721D94A1170A82111705121C90007
:10040000D64A403A11816AE05721D44A1170A82196
:100410001170D349D14A403A118160E05721CF4A47
:100420001170A821117081218900CC4A403A1181B4
:1004300055E05721C94A1170A82111708821C74A77
:10044000403A11814BE05721C44A1170A821117024
:100450000221C24A403A118141E05721BF4A11703E
:10046000A82111700421BD4A403A118137E057217B
:10047000BA4A1170A821117093218900B74A403AF5
:1004800011812CE05721B54A1170A8211170B4498F
:100490004D31B24A403A118121E05721AF4A1170E3
:1004A000A821117095218900AC4A403A118116E0CB
:1004B0005721AA4A1170A82111704B21C900A74ADF
:1004C000403A11810BE05721A44A1170A821117004
:1004D000A3495C31A14A403A118100E000BF00BF4E
:1004E00000219E4A117000BD10B59C48403800891B
:1004F000C4B2C0202040802801D19A4810BDC0203D
:100500002040402805D1E106C90E974800F08CFF35
:10051000F4E7C0202040002805D1E106C90E91482B
:1005200000F082FFEAE77D200002E7E757218B4ACF
:100530001170A8211170002808D188494039098913
:1005400052159143854A403A118108E08349403968
:100550000989012252021143804A403A1181002147
:100560007E4A1170704757217C4A1170A821117082
:10057000002808D179492039C97B04229143774A60
:10058000203AD17307E075492039C97B0422114311
:10059000724A203AD1730021704A117070476F4A35
:1005A000917BFC220A4083079B0F1A431146572276
:1005B0006A4B1A70A8221A701A46917300221A7098
:1005C0007047664A917B8F220A4003011A43D1B2D9
:1005D0005722624B1A70A8221A701A469173002291
:1005E0001A7070475D4A203A917BFC220A408307CB
:1005F0009B0F1A4311465722584B1A70A8221A70A3
:10060000564A203A917300221A707047534A203A92
:10061000917B0A07120F03011A43D1B257224F4BA5
:100620001A70A8221A704D4A203A917300221A704B
:100630007047F0B589B000200290484840380089E2
:10064000C4B2C0202040802805D14848079002202D
:10065000C04304903EE0C0202040402816D1E1066F
:10066000C90E434800F0CAFE012189034018C00B9F
:100670000790E106C90EE206D20E521E2423DB4388
:10068000981A00F0D1FE00B2049023E0C020204070
:1006900000281BD1E106C90E364800F0C5FE012135
:1006A000890340180190C017410C01980818C01325
:1006B0000790E106C90EE206D20E521E0223DB436A
:1006C000981A00F0B1FE00B2049003E005200790F4
:1006D0000020049007980005000D08901F4820385E
:1006E000868900270020039057201C490870A82005
:1006F00008700120887400BF572018490870A8208E
:1007000008701648203886810020087000BF134802
:10071000807C022108400028F9D01048008A069009
:1007200000BF0E48807C022108400028F9D100BF9C
:100730000A48807C022108400028F9D00748008A36
:1007400006900298401CC0B2029008990698401A80
:1007500005B2002D10D1002009B0F0BD40100040BE
:10076000020200000048E80100389C1C131300003E
:1007700000180D8F0068890928467843002832DA6E
:100780000398012806D00398401C002802D0039843
:10079000002828D1002F03DA781EC04307B202E0F8
:1007A000681EC04305B2BD4214DD5720FE490870E3
:1007B000A8200870FC492039059888810020FA4952
:1007C00008707D21C90079430846089900F02CFE85
:1007D00080B2C1E77D21C90069430846089900F04D
:1007E00023FE80B2B8E72F4605962846049900F00C
:1007F0001BFE00B203900398301A86B20598864219
:1008000006D1002D02DD701C86B201E0701E86B29A
:100810000298142800DA6FE7FF209DE7FFB585B046
:1008200004462646069D002003901FE0701EFF210F
:10083000913100F0F9FD00290DD0701E642100F007
:10084000F3FD00290AD0771EF817800FC019801019
:100850008000381A02D1FF216F3101E0FF216E3193
:100860000398081880B20390701E86B2CF48864263
:10087000DCDC35E0A81E012819D1FF21913120468A
:1008800000F0D2FD00290DD06421204600F0CCFDFF
:10089000002909D02746E017800FC019801080007A
:1008A000201A01D1012000E000201C3012E0A81E17
:1008B000062807DDC007C00F002801D01F2009E06F
:1008C0001E2007E0A81EC007C00F002801D01E2070
:1008D00000E01F200399401880B20390681E85B283
:1008E000012DC7DC0798401E0399401880B2039081
:1008F0001821089800F098FDE120C00041431E2215
:100900000E98504309180F9FF80FC019401008188F
:1009100080B202900F98C007C00F002802D00120BB
:10092000C00300E0002001900298049004980104A4
:1009300001980143049100BF9B482038C07B80216F
:100940000840009098482038C07B084069460978E4
:100950008842F1D1684600780028EDD057209249AE
:100960000870A820087090494039039848638E4861
:100970002038407C802108438B49203948748A49BB
:1009800040390498486388482038407C4021084317
:1009900085492039487400208349087009B0F0BDAA
:1009A000FFB583B004460D467F484038C06B8604CF
:1009B000B60C7D482038408B01907B482038008B56
:1009C0000090019841000122D2030098904201DB7F
:1009D000012000E0002008180290744820801EE0EA
:1009E0002088FF21913100F01FFD00290DD02088C3
:1009F000642100F019FD00290AD02788F817800F1C
:100A0000C01980108000381A02D1FF206F3001E039
:100A1000FF206E30301A86B22088401C208020884B
:100A2000FF21913100F000FD00290DD020886421C4
:100A300000F0FAFC00290AD02788F817800FC019A7
:100A400080108000381A02D1FF206F3001E0FF20B3
:100A50006E30B042C4DD0020288035E028880128AF
:100A600019D12088FF21913100F0DEFC00290DD042
:100A70002088642100F0D8FC002909D02788F817C5
:100A8000800FC01980108000381A01D1012000E0C9
:100A900000201C3013E02888062808DD2878C007CD
:100AA000C00F002801D01F2009E01E2007E0287891
:100AB000C007C00F002801D01E2000E01F20301A00
:100AC00086B22888401C28802888012819D12088CF
:100AD000FF21913100F0A8FC00290DD0208864216D
:100AE00000F0A2FC002909D02788F817800FC01950
:100AF00080108000381A01D1012000E000201C3055
:100B000013E02888062808DD2878C007C00F0028D1
:100B100001D01F2009E01E2007E02878C007C00F81
:100B2000002801D01E2000E01F20B04296DD28885A
:100B3000401C2880701C81B205980180E1210901C8
:100B4000029800F05BFC81B206980180E121090166
:100B5000029800F053FC0F463C21384600F04EFC52
:100B60000C9908803C21029800F048FC0D98018007
:100B700007B0F0BD08B500BF0B492039C97B802202
:100B80001140009108492039C97B11406A4612780A
:100B90009142F1D1694609780029EDD05721024AE6
:100BA0001170A821117003E040100040E40700001C
:100BB00046494039486345492039497C4022114320
:100BC000424A203A51740021404A117008BD00BFCA
:100BD0003E494039886B896B8142F9D17047572172
:100BE0003A4A1170A821117038492039497C1722DE
:100BF0009143364A203A51741146497C10220243EF
:100C00001143324A203A51740021304A1170704722
:100C100000B50346FFF7DBFFC2182D48824200D91A
:100C2000121A90B2002802D0012000041218572096
:100C300026490870A8200870244840384263234899
:100C40002038407C20210843204920394874002066
:100C50001E49087000BD0021002802D12022114346
:100C600003E0012801D1102211435722174B1A70BB
:100C7000A8221A70154A203A527C8A43134B203B13
:100C80005A740022114B1A7070470146002905D191
:100C90000E482038007C8022104070470B482038D6
:100CA000007C40221040F8E7002802D001280AD139
:100CB00004E02021054A203A117405E01021034A7E
:100CC000203A117400E000BF00BF704740100040A0
:100CD0000000C0A800B50B0000F046FC050412207F
:100CE0002E3842009B4A526B82439A4B5A631A46F3
:100CF000126B82431A631A46126A82431A6230E008
:100D0000944A526B8243934B5A631A46126B0243C6
:100D10001A631A46126A82431A6222E08D4A526BA3
:100D200002438C4B5A631A46126B82431A631A466B
:100D3000126A82431A6214E0864A526B8243854BE0
:100D40005A631A46126A02431A620AE0814A526BD7
:100D50000243804B5A631A46126A02431A6200E049
:100D600000BF00BF00BD00B50B0000F0FDFB050497
:100D7000142434404C00774A403252698243754B08
:100D800040335A611A46126982431A611A46126840
:100D900082431A6038E06F4A4032526982436D4B99
:100DA00040335A611A46126902431A611A461268A0
:100DB00082431A6028E0674A403252690243654B19
:100DC00040335A611A46126982431A611A46126800
:100DD00082431A6018E05F4A4032526982435D4B99
:100DE00040335A611A46126802431A600CE0594AAD
:100DF000403252690243574B40335A611A461268D7
:100E000002431A6000E000BF00BF00BD002906D009
:100E100001290ED0022916D0032928D11DE04D4A00
:100E2000928A82434B4B9A821A46D26A0243DA6212
:100E30001EE0484A928A8243464B9A821A46926A38
:100E400002439A6214E0434A928A0243414B9A82D7
:100E50001A46D26A0243DA620AE03E4A928A0243A2
:100E60003C4B9A821A46926A02439A6200E000BFA3
:100E700000BF384B98831A46128A02431A82704781
:100E8000002906D0012911D002291CD0032934D110
:100E900026E0304AD28A82432E4BDA822D4A4032F3
:100EA000D26802432B4B4033DA6027E0294AD28ACA
:100EB0008243284BDA82274A403292680243254B0C
:100EC00040339A601AE0234AD28A0243214BDA82E5
:100ED000204A4032D26802431E4B4033DA600DE0B4
:100EE0001C4AD28A02431B4BDA821A4A4032926869
:100EF0000243184B40339A6000E000BF00BF154B1F
:100F0000D8831A46528A02435A827047002807D073
:100F1000104A803A128B0A430E4B803B1A8306E03C
:100F20000C4A803A128B8A430A4B803B1A837047E3
:100F3000002807D0074A803A528B0A43054B803B72
:100F40005A8306E0034A803A528B8A43014B803B26
:100F50005A8370478010004010B50446002C11D110
:100F600057209E490870A82008709C4820380088A7
:100F70000321490288439949203908800020974974
:100F800008701FE0572095490870A8200870934802
:100F900020380088091508439049203908800A2024
:100FA00000F08BF957208D490870A82008708B48F5
:100FB00020380088491508438849203908800020D6
:100FC0008649087010BD002823D15722834B1A7020
:100FD000A8221A7080220A40002A07D07F4A403A8D
:100FE000D27B02231A437D4B403BDA737B4A403A63
:100FF000927A1C230B409A43784B403B9A72774A73
:10100000203AD27B8B079B0F9A43744B203BDA73B9
:1010100022E05722714B1A70A8221A7080220A40CF
:10102000002A07D06D4A403AD27B02239A436B4B89
:10103000403BDA73694A403A927A1C230B401A43C8
:10104000664B403B9A72654A203AD27B8B079B0FD6
:101050001A43624B203BDA730022604B1A707047D0
:1010600000280CD157225D4B1A70A8221A705B4AD7
:10107000403AD2680A43594B403BDA600BE05722B2
:10108000564B1A70A8221A70544A403AD2688A43C2
:10109000524B403BDA600022504B1A7070470028D8
:1010A0000CD157224D4B1A70A8221A704B4A403A65
:1010B000927B8A43494B403B9A730BE05722474B44
:1010C0001A70A8221A70454A403A927B0A43434B51
:1010D000403B9A730022414B1A70704710B504468A
:1010E000002C0BD157203D490870A8200870002023
:1010F0003A4920390871394908701BE057203749AF
:101100000870A820087001203449203948710871FE
:10111000002032490870012000F0CFF857202F49F5
:101120000870A82008700D202C4920390871002073
:101130002A49087010BD2A480069042188432849BB
:10114000086130BF70475721244A1170A8211170DF
:1011500022494039897B08221143204A403A917341
:10116000092109031D4A203A118000211B4A1170F0
:1011700000BF1A494039886B896B8142F9D10A3026
:101180001849884200D9401A81B2002902D00121B1
:10119000090440183021114A203A117457210F4A8E
:1011A0001170A82111700D49403948632F210B4A55
:1011B000203A51740021094A117057211170A82159
:1011C00011700521054A403A11810021034A11702E
:1011D00040BF20BF20BF00BFFEE70000401000401E
:1011E00000ED00E00000C0A80146062904D14648F1
:1011F00000780822104070474348407901228A4015
:101200001040F8E7572040490870A82008700846A9
:101210008079012108433C4988710020087070479B
:101220003A49096801600021C943384A8032116097
:1012300070473649086070473548806970475721C4
:10124000314A1170A8211170002806D11146897900
:10125000042291432C4A917105E02B49897904229B
:101260001143294A91710021274A11707047572173
:10127000254A1170A8211170002806D111468979DC
:1012800002229143204A917105E01F498979022287
:1012900011431D4A917100211B4A1170704757205C
:1012A00019490870A8200870084680791021084361
:1012B0001549887100200870704710B500210AE0B8
:1012C000022201E000BF00BF1346541EA2B2002B51
:1012D000F8D14B1C99B28142F2DB10BD30B5044607
:1012E000002505E07D20C000FFF7E7FF681C85B200
:1012F000A542F7DB30BD00BF064AD27A082AFBD0F0
:10130000044B1872704700004010004000E100E0FC
:1013100000E000E00034004070B50446FFF7E4F858
:101320000A214843C6082146304600F067F80546C2
:101330000A21681D00F062F8054628498D8170BDBC
:1013400010B5E1204002FFF7E7FF872023498870AE
:101350000320C870402048700120887310BD1F49C9
:101360008978C0229143820111431C4A91707047D1
:1013700000280BD0194A52780A43184B5A701A4663
:10138000127808231A43154B1A7004E0134A527856
:101390008A43124B5A70704780201049487070473A
:1013A00010B50A4609E00D4BDB7A082B05D003780F
:1013B0000A4C2372401C531E9AB2002AF3D110BD6E
:1013C0000146002005E0054A127A0A70491C421CB9
:1013D00090B2024A927A002AF5D170470034004058
:1013E0000448804704480047FEE7FEE7FEE7FEE7C3
:1013F000FEE70000610300009100000030B50B46DD
:10140000014600202022012409E00D46D5409D42DE
:1014100005D31D469540491B254695404019154664
:10142000521E002DF1DC30BD70B500242546002889
:1014300001DA01244042002901DA01254942FFF77F
:10144000DDFFAC4200D04042002C00D0494270BDCC
:10145000F0B51FB40646002082B005464024019135
:1014600000901BE0019922460F46304600F042F8FA
:10147000049A059B801A994110D3104619462246BA
:1014800000F028F8361A8F410197224601200021EA
:10149000009F00F01FF838184D4100902046641E50
:1014A0000028DFDC019B00982946324607B0F0BDDA
:1014B000064C0125064E05E0E36807CC2B430C3CA7
:1014C00098471034B442F7D3FEF7E6FD181A00002F
:1014D000381A000010B5202A04DB0146203A91405A
:1014E000002010BD914020239C1A0346E34019437D
:1014F000904010BD10B5202A04DB0846203AD040A9
:10150000002110BD0B46D340D0402024A21A9140A8
:101510000843194610BD000003B40148019001BD05
:101520009340002003B40148019001BD1341002005
:1015300003B40148019001BDC141002003B401483A
:10154000019001BD7F4200200FB410B503A9044BE8
:10155000044A029800F026F810BC08BC04B01847F2
:10156000F71200006843002030B47446641E2578EA
:10157000641CAB4204D3635D5B00E31830BC1847C6
:101580001D46F8E702E008C8121F08C1002AFAD178
:1015900070477047002001E001C1121F002AFBD1F3
:1015A00070470000FFB591B00F460546002606E0E3
:1015B00025280AD0149A139990476D1C761C287818
:1015C0000028F5D1304615B0F0BD0024009401216B
:1015D000F34A029400E004436D1C2B780846203B3C
:1015E00098401042F7D128782A280ED00221287876
:1015F0000246303A092A15D8009A0A235A43303A4B
:1016000080180C436D1C0090F1E701CF009000287A
:1016100005DA012040030443009840420090022074
:1016200004436D1C28782E2815D1042004436878C3
:101630006D1C2A280AD101CF6D1C02900BE0029983
:101640000A225143303940186D1C02902878014617
:1016500030390929F3D928786C2810D006DC4C28B9
:101660001AD068280ED06A2817D104E0742813D045
:101670007A2812D110E00120400504430CE001213A
:10168000090501E0032109050C436978814203D172
:101690000120000524186D1C6D1C287803906E280D
:1016A0001ED00CDC632831D004DC00288AD05828F6
:1016B00011D1B2E064287BD069280CD178E073287E
:1016C0002DD004DC6F2870D0702804D1A7E07528D5
:1016D0006CD078286BD0149A13999047761C62E0EE
:1016E0006002400F022807D003280AD00428386877
:1016F0000AD006603F1D56E03868F1170660416069
:10170000F8E738680680F5E70670F3E73878694649
:1017100008740020487404A80390012003E038688E
:1017200003900020C0433F1D61070FD5002101E059
:101730000199491C029A0191914213DA8142F7DB27
:10174000019A0399895C0029F2D10BE0002101E0A4
:101750000199491C01918142FADB019A0399895C44
:101760000029F5D101990098139A401A009021465A
:10177000149B00F03BF901998019461807E0039883
:1017800003990078491C0391149A13999047019882
:10179000401E0190401CF2D12146149B139A0098E0
:1017A00000F014F986196D1C09E741E033E034E0DC
:1017B0000A200021049005916002410F022905D002
:1017C00001CFC2179446032905D007E0FF1DFF088B
:1017D000FF0003CF06E000B2C2179446042902D1ED
:1017E00040B2C1178C4600226146944506DA0A468B
:1017F0000021404291418C462D2102E0210504D573
:101800002B216A461176012103E0E10701D0202156
:10181000F7E7019154E00A200BE0102009E01020C6
:10182000049000210420044308200591029003E065
:1018300008200021059104906002410F022905D083
:1018400001CF00229446032906D006E0FF1DFF08C1
:10185000FF0003CF8C4603E080B2042900D1C0B260
:101860000021019121072BD50399702906D0049AF4
:101870001021059B4A401A4305D00EE040216A46DC
:101880001176012108E06146014306D030216A4605
:1018900011760399517602210191049A0821059B42
:1018A0004A401A430CD16146014301D1610707D573
:1018B00030216A461176012101910299491E029157
:1018C0000399582904D037A103910FA90F910DE076
:1018D00039A1F9E76146059B049AFFF7B9FD039B1F
:1018E0008C469B5C0F9A521E0F9213706146014307
:1018F000F0D10F9807A9081A20300390600704D58B
:10190000012000048443029801E001200290039921
:10191000884201DD401A00E0002041180290019841
:1019200009180098401A0090E00306D42146149B41
:10193000139A009800F05AF886190020049008E0E5
:1019400006A9085C149A139990470498401C761CC9
:10195000049001998842F3DBE0030CD52146149BE7
:10196000139A009800F042F8861904E0149A302087
:1019700013999047761C0299481E02900029F5DCC5
:1019800008E00F980F990078491C0F91149A139949
:101990009047761C0399481E03900029F1DCFBE672
:1019A0000928010030313233343536373839616235
:1019B00063646566000000003031323334353637F9
:1019C000383941424344454600000000F8B504461A
:1019D00000251E461746880404D405E03946202019
:1019E000B0476D1C641EF9D52846F8BDFFB5044606
:1019F000002581B01E46C80301D5302700E020270E
:101A0000880404D505E038460399B0476D1C641E70
:101A1000F9D5284605B0F0BD381A00000040002076
:101A20006803000084150000A01D0000684300202A
:101A300004000000841500000020D249897A0822A1
:101A4000114000290BD15721CE4A40321170A821F4
:101A50001170CC49897A08221143CA4A91725721E0
:101A6000C84A40321170A82111700521C54A118160
:101A7000C44920310988032252029143C14A2032CD
:101A80001180C049897A10221143BE4A9172002107
:101A9000BC4A4032117017E0BA4920318979C90730
:101AA000C90F002901D0002000E0401C7D21090160
:101AB000884209D95721B34A40321170A8211170C8
:101AC0000121917100211170E6E770B5AD48203019
:101AD000847BAC484030857B2846FC210840C51CEF
:101AE000A8482030008BA849884203DD2046FC210D
:101AF0000840441C5720A34940310870A8200870B2
:101B0000A048C07B082188439E49C87300209D4996
:101B100020310871084684739A4840308573052047
:101B2000984908810020974940310870974800691A
:101B3000042108439549086130BF00209149403194
:101B40000870012000F026F970BD8E4A2032907B8B
:101B50008C4A4032917BFC220A40D11C894A2032B7
:101B6000128B894B9A4202DDFC220240501C572204
:101B7000844B40331A70A8221A70824AD27B082301
:101B80001A43804BDA7300227E4B20331A711A46B7
:101B900090737C4A4032917305227A4B1A8100225D
:101BA000784B40331A70794A126904231A43774BF1
:101BB0001A6130BF0022734B40331A7057221A70DB
:101BC000A8221A7001226F4B20335A711A71002219
:101BD0006C4B40331A7000BF00BF5722694B403333
:101BE0001A70A8221A700D22664B20331A71002237
:101BF000644B40331A70704710B5624B2033997BA9
:101C0000604B40339A7BFC231340DA1C5D4B20333E
:101C10001B8B5D4CA34202DDFC230B40591C572358
:101C2000584C40342370A8232370594B0343554C20
:101C3000203423800023534C4034237057232370D7
:101C4000A823237000234F4C20342371234699731B
:101C50004C4B40339A7305234A4C23810023494C53
:101C600040342370494B1B6904242343474C2361B0
:101C700030BF0023434C4034237057232370A823E4
:101C8000237001233F4C20346371237100233D4CAA
:101C90004034237000BF00BF57233A4C40342370B8
:101CA000A82323700D23374C203423710023354C97
:101CB0004034237010BD10B5324B2033997B314B2B
:101CC00040339A7BFC231340DA1C2E4B20331B8BB2
:101CD0002D4CA34202DDFC230B40591C5723294CF9
:101CE00040342370A823237009231B030343254C8E
:101CF000203423800023234C403423705723237047
:101D0000A823237000231F4C20342371234699738A
:101D10001C4B40339A7305231A4C23810023194C22
:101D200040342370194B1B6904242343174C23614F
:101D300030BF0023134C4034237057232370A82353
:101D4000237001230F4C20346371237100230D4C49
:101D50004034237000BF00BF57230A4C4034237027
:101D6000A82323700D23074C20342371054B4033E7
:101D70009B7901242343034C4034A3710023237037
:101D800010BD000000100040FF3F000000ED00E02B
:101D90000490000003B40148019001BDDD10000073
:041DA000000000003F
:040000050000009166
:00000001FF
