:020000040003F7
:10C000000080002045C20300014000204FC2030011
:10C010000000000000000000000000000000000020
:10C020000000000000000000000000004FC20300FC
:10C03000000000000000000051C2030053C20300D2
:10C0400055C2030055C2030055C2030055C2030088
:10C0500055C2030055C2030055C2030055C2030078
:10C0600055C2030055C2030055C2030055C2030068
:10C0700055C2030055C2030055C2030055C2030058
:10C0800055C2030055C2030055C2030055C2030048
:10C090000348854601F080F800480047B5C1030019
:10C0A00000800020F8B507467D26F60200204B4CA4
:10C0B00001256D02315C2154401C80B2A842F9D3A5
:10C0C000304600F099FE27702A464449304600F079
:10C0D00079FF317842A001F093F8F8BDF8B54748F0
:10C0E000007803282FD101243C4F65020F206602FF
:10C0F000400332180020115C3954401CA842FAD386
:10C10000304600F079FE2A463449304600F05AFFA6
:10C11000641CE4B2F02CE9D30F2464032046002110
:10C12000425C7A54491CA942FAD3002000F064FE14
:10C130002A462A49002000F045FF0120FFF7B2FF00
:10C14000204600F059FE00F076FDF8BD10B57D20C8
:10C15000C002007829490128087005D0022803D0C0
:10C16000032801D001200870C1B225A001F048F8D1
:10C1700010BD70B50020446820480078032818D10D
:10C180000F239B039C4214D20020144901256D0209
:10C190001A5C0A54401CA842FAD3002000F02CFE7E
:10C1A0002A460E49002000F00DFF214619A001F09B
:10C1B00027F870BD10B522498A6A481502438A6281
:10C1C000032100F0B7FB00F0BCFDFFF7BFFFFFF756
:10C1D000D0FFFFF783FF002010BD000028420020A1
:10C1E000537769746368496D616765466C61673A46
:10C1F0002025303278200D0A000000002042002067
:10C20000496D61676520466C616720253032780A88
:10C2100000000000496D6167654941502076656303
:10C22000746F727320656E74727920636F707920F9
:10C23000636F6D706C6574652025303878200A0056
:10C24000801000400448804704480047FEE7FEE7AE
:10C25000FEE7FEE7FEE7000061C2030091C00300B5
:10C2600010B5FF4857210170A8210170FC4A8821B0
:10C27000403A11810189042211430181002101709A
:10C280000A2000F021FD012000F06BFC10BDF0B58C
:10C29000F34EF34D04275722A824203E403DF04999
:10C2A000030000F0BDFF0D080E161B1F24282C32C2
:10C2B000373C41462F000A700C70F07BFB22104087
:10C2C00003E00A700C70F07B3843F073C8202881BB
:10C2D00018E00A700C705120C000F8E70A700C706A
:10C2E000E048F4E70A700C7081208000EFE70A70E4
:10C2F0000C708820EBE70A700C700220E7E70A70E8
:10C300000C702F8100200870F0BD0A700C70932013
:10C310008000DCE70A700C70D2484D30D7E70A7015
:10C320000C7095208000D2E70A700C704B20C00082
:10C33000CDE70A700C70CB485C30C8E7C84810B530
:10C3400040380089C1B20B069A0FC748022A05D0AF
:10C35000012A04D09A0F06D07D20000210BDC90624
:10C36000C90EC24801E0C906C90E00F0BBFE10BDEF
:10C37000BB4A57211170A8211170B94940394B159A
:10C380000028088904D018430881002010707047E5
:10C390009843F9E7B24A57211170A8211170B049AA
:10C3A00020390028C87B05D004231843C873002017
:10C3B00010707047FB231840F8E7A9498A7B800773
:10C3C00092089200800F024357200870A82008703E
:10C3D0008A73002008707047A1498A7B8F231A4016
:10C3E0000001024357200870A82008708A730020BB
:10C3F000087070479A4A203A917B80078908890023
:10C40000800F0143964857230370A823037091734C
:10C41000002101707047924A203A917B0907090F69
:10C42000000101438E4857230370A82303709173C2
:10C43000002101707047FEB5894800274038008907
:10C44000C0B201068A0F022A4CD00124A403012A9B
:10C450004CD0890F56D00524002000902005000DF7
:10C4600001907F482038848900267D495722304634
:10C470000A70A8220A7001238B74794957220A7026
:10C48000A8220A70764A203A948100220A708A7C97
:10C490009207FCD50A8A8A7C9207FCD48A7C920790
:10C4A000FCD5098A019A7F1C891A0DB2FFB2002DB2
:10C4B00037D02946714305D5012834D0411C32D0EC
:10C4C000002830D02E4602943046009900F020FE1D
:10C4D00000B2211A8CB202998C4249D1002D45DD5F
:10C4E000641C44E00220624CC043B6E7C506ED0E72
:10C4F0002946604800F0F6FD0019C40B2320C04314
:10C50000401B09E0C506ED0E29465B4800F0EAFD38
:10C510000019C40BA81C4042294600F0F9FD00B2E6
:10C520009BE70020FEBD002E03DA761EF04306B224
:10C5300002E06D1EE84305B2B5420FDD48485721C1
:10C540000170A8210170464A0299203A9181002188
:10C5500001707D20C0007043019903E07D20C00080
:10C560006843114600F0D4FD80B2FEBD641EA4B243
:10C57000142F82D3FF20FEBDFFB581B00C460746C5
:10C58000054600261AE0FF219131681E00F0C0FD2B
:10C5900000290AD06421681E00F0BAFD002907D0E6
:10C5A0000320A9078007C14202D1FF206F3001E0BC
:10C5B000FF206E3080196D1E86B2ADB22F488542C5
:10C5C000E1D80025012C25D9032C05D0A01E062872
:10C5D00016DDE00718D115E0FF219131384600F053
:10C5E00081FD00290AD06421384600F07BFD002936
:10C5F00001D0B80702D000201C3006E00120FBE784
:10C60000E00701D01E2000E01F208019641E86B2C2
:10C61000A4B2D7E7039818213018401E84B20498BA
:10C6200000F060FDE120C00041430A981E22504303
:10C6300009180B984008081881B20B98C00701D060
:10C640000120C0030A04024305482038C17B6B4621
:10C65000C909C9011970C17B1B78C909C9010FE05B
:10C6600040100040020200000048E80100389C1C15
:10C670001313000000180D8F00688909E4070000FB
:10C680009942E3D1694609780029DFD0A6495723AA
:10C690000B70A8230B70A44B403B5C63447C80264A
:10C6A000344344745A63427C40231A4342740D70ED
:10C6B00005B0F0BDFFB507469B4883B04038C06B5E
:10C6C0000E4684049848A40C2038418B008B01222C
:10C6D0004900D203904201D3012000E00020081855
:10C6E00000909248388010E00199002925D06421FB
:10C6F000284600F0F7FC002901D0A8071DD0FF2034
:10C700006E30201A6D1C84B23D803D88FF2191312E
:10C71000284600F0E7FC0191002911D06421284649
:10C7200000F0E0FC002901D0A80709D0FF206E30FE
:10C73000A042D9D90020308049E0FF206F30E0E7E7
:10C74000FF206F30F4E73588012D04D0062D18D96D
:10C75000E8071AD117E03888FF219131019000F0E5
:10C76000C1FC00290BD06421019800F0BBFC00291A
:10C7700002D00198800702D000201C3006E0012082
:10C78000FBE7E80701D01E2000E01F20201A84B23A
:10C790006D1CA8B23080012804D0062817D9C00724
:10C7A0001AD117E03888FF210546913100F09AFC34
:10C7B00000290AD06421284600F094FC002901D009
:10C7C000A80702D000201C3007E00120FBE73078EA
:10C7D000C00701D01E2000E01F20A042B3D930883E
:10C7E000641C401C30800598E121048009010098F8
:10C7F00000F078FC069A108008463C2100F072FC9C
:10C800000C9908803C21009800F06CFC0D98018088
:10C8100007B0F0BD444908B52039CA7B6B46D20940
:10C82000D2011A70CA7B1B78D209D2019A42F4D184
:10C830006A461278002AF0D03B4A57231370A82387
:10C840001370394B403B5863487C4023184348746D
:10C850000020107008BD34494039886B8A6B8242D1
:10C86000FBD1704710B5304A57211170A8211170C3
:10C870002D4920394B7CE82423404B744B7C1024F9
:10C88000204303434B740020107010BD00B50346D5
:10C89000FFF7E1FF2649C018884201D949424018F4
:10C8A0000104090C02D00121090440181E49572235
:10C8B0000A70A8220A701C4A403A50631A4820386D
:10C8C000427C20231A4342740020087000BD0021DE
:10C8D000002802D0012802D002E0202100E010212F
:10C8E000114857220270A82202700F4A203A537C46
:10C8F0008B4353740021017070470B492039002885
:10C90000087C02D0402108407047C009C001704730
:10C9100005492039002804D0012801D110200874CD
:10C9200070472020FBE7000040100040E4070000B3
:10C930000000C0A800B5524A0B0000F071FC0504CD
:10C94000071016191F00516B81430AE0516B814398
:10C950005163116B01431163116A81430DE0516B07
:10C9600001435163116B8143F5E7516B814301E052
:10C97000516B01435163116A0143116200BD404A8A
:10C9800000B540320B0000F04BFC050407101619EF
:10C990001F00516981430AE0516981435161116966
:10C9A00001431161116881430DE0516901435161F7
:10C9B00011698143F5E75169814301E05169014300
:10C9C000516111680143116000BD2D4A002906D054
:10C9D000012907D0022908D0032913D10CE0918A3C
:10C9E000814304E0918A814308E0918A0143918266
:10C9F000D16A0143D16205E0918A01439182916A33
:10CA0000014391629083118A0143118270471C4B4C
:10CA10001B4A4033002906D0012907D0022908D03B
:10CA2000032913D10CE0D18A814304E0D18A8143E8
:10CA300008E0D18A0143D182D9680143D96005E079
:10CA4000D18A0143D182996801439960D083518A88
:10CA50000143518270470A4A803A0028108B01D066
:10CA6000084300E0884310837047054A803A002855
:10CA7000508B01D0084300E088435083704700008A
:10CA800080100040F8B5624D5726614CA827203D24
:10CA900000282670277028880ED02115084328808A
:10CAA0000A2000F011F926702770288861150843C4
:10CAB000288000202070F8BD032149028843F7E751
:10CAC000F0B5534C57261C228B07514DA8270A401E
:10CAD0009B0F403C00282E702F7010D0080603D505
:10CAE000E07BFD210840E073A07A1043A072484823
:10CAF0002038C17B1943C17300202870F0BD08069F
:10CB000003D5E07B02210843E073A07A9043A07232
:10CB10003F482038C17B9943EDE730B53C4C572363
:10CB20003B4AA825403C002813701570E06804D0EB
:10CB30008843E0600020107030BD0843F9E730B54D
:10CB4000334C5723324AA825403C002813701570F7
:10CB5000A07B04D00843A0730020107030BD884330
:10CB6000F9E7F8B52A4D5726294C0021A827203D82
:10CB70000028267027700ED00120687128710020CF
:10CB80002070012000F0A0F8267027700D20287179
:10CB900000202070F8BD29712170F8BD1D48016981
:10CBA00004229143016130BF7047194B57241C7018
:10CBB000A8251D7016494039887B082210438873C8
:10CBC0000920134E0003203E308000271F70886B21
:10CBD0008A6B8242FBD1104A0A30904201D95242FC
:10CBE00080180204120C02D0012212048018302294
:10CBF00032741C701D7048632F2070741F701C707D
:10CC00001D70052008811F7040BF20BF20BFFEE7B8
:10CC10004010004000ED00E00000C0A83C4906289C
:10CC200005D04979012282401140084670470878B2
:10CC3000082108407047364857210170A82101702B
:10CC400081790122114381710021017070473149BE
:10CC50000968016000202F49C04380310860704797
:10CC60002C49086070472C48806970472849572232
:10CC70000A70A8220A700028887905D0042210437F
:10CC80008871002008707047FB221040F8E72049A7
:10CC900057220A70A8220A700028887905D002223B
:10CCA00010438871002008707047FD221040F8E79B
:10CCB000174857210170A821017081791022114372
:10CCC000817100210170704700220AE0022101E019
:10CCD00000BF00BF0B46491E89B2002BF8D1521C81
:10CCE00092B28242F2D3704770B500247D26054689
:10CCF000F60004E03046FFF7E7FF641CA4B2AC4244
:10CD0000F8D370BD0549CA7A082AFCD0087270476A
:10CD10004010004000E100E000E000E0003400408E
:10CD200010B50446FFF70AFB0A214843C008214614
:10CD300000F0D8F90A21401D00F0D4F92249888179
:10CD400010BD10B5E1204002FFF7EAFF1E48872121
:10CD500081700321C170402141700121817310BD98
:10CD600019498A789206920E800102438A707047B0
:10CD7000154A0028507806D00843507010780821D2
:10CD80000843107070478843507070470E498020E8
:10CD9000487070470C4A07E0D37A082B04D0037818
:10CDA0001372491E89B2401C0029F5D17047014613
:10CDB0000020054A04E0137A401C0B7080B2491C25
:10CDC000937A002BF7D1704700340040C14A00210C
:10CDD00013780370491CC9B2401C521C0829F7D3B0
:10CDE0007047BC4A002113780370491CC9B2401C2B
:10CDF000521C0629F7D37047F8B504460025C00534
:10CE000001D00120F8BD112069460870B24E002003
:10CE100030707070B14F80207872087811300870CF
:10CE2000AF4800790007000F0D2802D00120FFF75E
:10CE300098FE6946087811300870A94881798907F9
:10CE400001D00220F8BD6A46117811311170817944
:10CE5000890704D11178442901D157213170117803
:10CE6000113111708079800707D11078552804D1CD
:10CE70003078572801D1A8207070107811301070C8
:10CE8000307857280ED17178A8290BD111786629EE
:10CE900008D17C607D21C9028C4201D2882100E04A
:10CEA00084217972117811311170572809D1707865
:10CEB000A82806D11078772803D1A620387278895F
:10CEC000C5B2002010703070707080207872402DD4
:10CED00001D00320F8BD0020F8BDFEB505460026B0
:10CEE0000191800701D00120FEBD11206946087024
:10CEF000794F002038707870784C80206072087804
:10CF000011300870764800790007000F0D2802D014
:10CF10000120FFF726FE6946087811300870704935
:10CF20008879800701D00220FEBD6A461078113052
:10CF300010708879C00704D11078442801D1572097
:10CF400038701078113010708879C00707D11078C8
:10CF5000552804D13878572801D1A8207870107846
:10CF600011301070387857280DD17978A8290AD156
:10CF70001178662907D17D22D202954201D28821FB
:10CF800000E0842161726A461178113111705728CE
:10CF90000CD17878A82809D11078772806D1656057
:10CFA000019820609A2020726089C6B2002010701B
:10CFB0003870787080206072402E01D00320FEBD52
:10CFC0000020FEBDF7B50446002682B00D4680075E
:10CFD00002D0012005B0F0BD1120694608703E481E
:10CFE0000021017041703D4F8020787269460878B9
:10CFF000113008703A4800790007000F0D2802D060
:10D000000120FFF7AEFD69460878113008703449F9
:10D010008879800701D00220DCE76A461078113059
:10D0200010708879C00705D11078442802D12A48A9
:10D03000572202706A461078113010708879C00744
:10D0400008D11078552805D123480178572901D1F6
:10D05000A82141701078113010701F4A107857289D
:10D060000ED15178A8290BD169460978662907D1D4
:10D070007D23DB029C4201D2882100E08421797269
:10D080006B46197811311970572816D15078A82895
:10D0900013D11878772810D100209A230AE07C60F9
:10D0A00002CD39603B727989241DCEB2402E04D165
:10D0B000001D80B204998842F1D3002069460870AF
:10D0C0001070507080207872402E01D0032081E7CC
:10D0D00000207FE7080604002142002000180040DD
:10D0E0002010004030B50B460146002020220124CC
:10D0F00009E00D46D5409D4205D31D469540491B8C
:10D100002546954040191546521E002DF1DC30BDD4
:10D1100070B500242546002801DA01244042002988
:10D1200001DA01254942FFF7DDFFAC4200D0404261
:10D13000002C00D0494270BDF0B51FB40646002057
:10D1400082B005464024019100901BE001992246DF
:10D150000F46304600F042F8049A059B801A994128
:10D1600010D310461946224600F028F8361A8F418F
:10D170000197224601200021009F00F01FF8381877
:10D180004D4100902046641E0028DFDC019B009882
:10D190002946324607B0F0BD064C0125064E05E093
:10D1A000E36807CC2B430C3C98471034B442F7D3C8
:10D1B000FEF772FFCCD60300FCD6030010B5202A80
:10D1C00004DB0146203A9140002010BD914020230D
:10D1D0009C1A0346E3401943904010BD10B5202A25
:10D1E00004DB0846203AD040002110BD0B46D34056
:10D1F000D0402024A21A91400843194610BD0000D7
:10D200000FB410B503A9044B044A029800F024F8A7
:10D2100010BC08BC04B0184705CD03002442002010
:10D2200030B47446641E2578641CAB4200D21D469F
:10D23000635D5B00E31830BC184702E008C8121FAA
:10D2400008C1002AFAD170477047002001E001C1EF
:10D25000121F002AFBD17047FFB591B00F4605465B
:10D26000002606E025280AD0149A139990476D1CD1
:10D27000761C28780028F5D1304615B0F0BD002482
:10D2800000940121F34A029400E004436D1C2B78C2
:10D290000846203B98401042F7D128782A280ED023
:10D2A000022128780246303A092A15D8009A0A2322
:10D2B0005A43303A80180C436D1C0090F1E701CFBF
:10D2C0000090002805DA0120400304430098404202
:10D2D0000090022004436D1C28782E2815D10420CC
:10D2E000044368786D1C2A280AD101CF6D1C029076
:10D2F0000BE002990A225143303940186D1C02900C
:10D300002878014630390929F3D928786C2810D0BB
:10D3100006DC4C281AD068280ED06A2817D104E001
:10D32000742813D07A2812D110E00120400504435C
:10D330000CE00121090501E0032109050C4369788E
:10D34000814203D10120000524186D1C6D1C287832
:10D3500003906E281ED00CDC632831D004DC00283A
:10D360008AD0582811D1B2E064287BD069280CD12A
:10D3700078E073282DD004DC6F2870D0702804D199
:10D38000A7E075286CD078286BD0149A1399904731
:10D39000761C62E06002400F022807D003280AD002
:10D3A000042838680AD006603F1D56E03868F11737
:10D3B00006604160F8E738680680F5E70670F3E735
:10D3C0003878694608740020487404A80390012046
:10D3D00003E0386803900020C0433F1D61070FD56C
:10D3E000002101E00199491C029A0191914213DA4E
:10D3F0008142F7DB019A0399895C0029F2D10BE0A5
:10D40000002101E00199491C01918142FADB019A56
:10D410000399895C0029F5D101990098139A401A63
:10D4200000902146149B00F03BF9019980194618A1
:10D4300007E0039803990078491C0391149A139903
:10D4400090470198401E0190401CF2D12146149B48
:10D45000139A009800F014F986196D1C09E741E051
:10D4600033E034E00A200021049005916002410F6E
:10D47000022905D001CFC2179446032905D007E041
:10D48000FF1DFF08FF0003CF06E000B2C21794465D
:10D49000042902D140B2C1178C460022614694454E
:10D4A00006DA0A460021404291418C462D2102E0D5
:10D4B000210504D52B216A461176012103E0E107FD
:10D4C00001D02021F7E7019154E00A200BE0102061
:10D4D00009E0102004900021042004430820059155
:10D4E000029003E008200021059104906002410FA2
:10D4F000022905D001CF00229446032906D006E078
:10D50000FF1DFF08FF0003CF8C4603E080B2042913
:10D5100000D1C0B20021019121072BD503997029B8
:10D5200006D0049A1021059B4A401A4305D00EE00C
:10D5300040216A461176012108E06146014306D088
:10D5400030216A4611760399517602210191049A9D
:10D550000821059B4A401A430CD16146014301D181
:10D56000610707D530216A461176012101910299A0
:10D57000491E02910399582904D037A103910FA99C
:10D580000F910DE039A1F9E76146059B049AFFF779
:10D59000D3FD039B8C469B5C0F9A521E0F92137017
:10D5A00061460143F0D10F9807A9081A2030039073
:10D5B000600704D5012000048443029801E00120A3
:10D5C00002900399884201DD401A00E000204118D2
:10D5D0000290019809180098401A0090E00306D4C0
:10D5E0002146149B139A009800F05AF886190020DF
:10D5F000049008E006A9085C149A139990470498CF
:10D60000401C761C049001998842F3DBE0030CD5A2
:10D610002146149B139A009800F042F8861904E002
:10D62000149A302013999047761C0299481E029054
:10D630000029F5DC08E00F980F990078491C0F913C
:10D64000149A13999047761C0399481E0390002959
:10D65000F1DCFBE60928010030313233343536374E
:10D66000383961626364656600000000303132332E
:10D6700034353637383941424344454600000000CE
:10D68000F8B5044600251E461746880404D405E074
:10D6900039462020B0476D1C641EF9D52846F8BDD8
:10D6A000FFB50446002581B01E46C80301D53027CA
:10D6B00000E02027880404D505E038460399B047E8
:10D6C0006D1C641EF9D5284605B0F0BDFCD60300DC
:10D6D00000400020200200003AD203001CD90300C1
:10D6E00020420020080000003AD2030024D90300A1
:10D6F00028420020000200004AD20300804A002095
:10D70000917A57250B077E49A8264031002B05DB6F
:10D710000D700E70937A0824234393720D700E706F
:10D7200005231381764F20373B8803246402A343EB
:10D730003B80937A10242343937200220A700123C2
:10D74000BC79E40701D00020FAE77D242401401CC5
:10D75000A042F5D90D700E708B710A70F0E770B5AC
:10D76000674D2035A87B664940318C7B03221443EA
:10D770002A8B644B9A4202D980088000401C5722B1
:10D780000A70A8220A705E4AD37BF7263340D3730F
:10D7900000232B71A8738C73052010810B705A48DD
:10D7A000026904242243026130BF0B70012000F0A3
:10D7B000AFF870BDF0B5524A2032917B50484030EE
:10D7C000877B0323128B1F434E4B9A4202D9890851
:10D7D0008900491C57240470A8250570484EF27B27
:10D7E00008231A43F273464A0023203213719173BF
:10D7F000877305213181037043490E6904273E4335
:10D800000E6130BF037004700570012151711171F8
:10D81000037000BF00BF047005700D21117103700B
:10D82000F0BDF0B5364B20339A7B354940318E7BC5
:10D83000032426431C8B334DAC4202D9920892003C
:10D84000521C57240C70A8250D70304F3843188097
:10D85000002008700C700D7018719A738E73284E2A
:10D86000052232810870284A166904273E43166152
:10D8700030BF08700C700D7001225A711A71087057
:10D8800000BF00BF0C700D700D221A710870F0BD42
:10D89000F0B51B4B20339A7B194940318E7B032412
:10D8A00026431C8B174DAC4202D992089200521CA1
:10D8B00057240C70A8250D7009273F03C019188044
:10D8C000002008700C700D7018719A738E730C4ED6
:10D8D0000522328108700C4A166904273E431661FE
:10D8E00030BF08700C700D7001225A711A710870E7
:10D8F00000BF00BF0C700D700D221A710870F0BDD2
:10D9000000100040FF3F000000ED00E00490000028
:10D9100003B40148019001BD63CB0300FF00000088
:04D920000000000003
:040000050003C091A3
:00000001FF
