:020000040000FA
:1000000000800020291E000001000020331E000097
:1000100000000000000000000000000000000000E0
:10002000000000000000000000000000331E00007F
:100030000000000000000000351E0000371E000018
:10004000391E0000391E0000391E0000391E000054
:10005000391E0000391E0000391E0000391E000044
:10006000391E0000391E0000391E0000391E000034
:10007000391E0000391E0000391E0000391E000024
:10008000391E0000391E0000391E0000391E000014
:100090000348854603F0E0FA00480047E507000002
:1000A00000800020034600200146C20700D08022C5
:1000B000400810185A5C491C8018C9B2C0B20B29FC
:1000C000F3D17047F0B50027FF3185B0E131054627
:1000D00001912878E5287CD0002806D0E87A0F28FE
:1000E00007D00021082809D004E08020384305B05B
:1000F000F0BD0121002001436BD101E00120FAE7AE
:10010000781EC6B2002F10D02C46203C2846FFF7A0
:10011000C9FF002104900091F74801210391217843
:100120000291E52904D0012103E00F26019CEDE7AF
:100130000021E27A0F2A07D000221140637B049A43
:10014000934203D1012202E00122F6E7002211428C
:1001500070D000214A0013199A785B7812021A4372
:10016000964608D0002203889C46002B05D0002329
:100170001A4316D103E00122F5E70123F8E772469E
:10018000FF2A07D000226346002B05D000231A4324
:1001900007D103E00122F6E70123F8E7E64565D140
:1001A000801C491CC9B20529D4D1009900295DD110
:1001B0004A001319DA7B9B7B12021A43964609D038
:1001C000002203889C46002B06D000231A4317D137
:1001D00004E04EE00122F4E70123F7E77246FF2A2C
:1001E00007D000226346002B05D000231A4307D115
:1001F00003E00122F6E70123F8E7F44536D1801C3D
:10020000491CC9B20629D3D1009900292ED14A0030
:1002100013195A7F1B7F12021A43964608D00022F8
:1002200003889C46002B06D000231A4317D104E014
:100230000122F5E71AE00123F7E77246FF2A07D00B
:1002400000226346002B05D000231A4307D103E0A8
:100250000122F6E70123F8E7F44507D1801C491C89
:10026000C9B20229D3D1009900290AD003980028E5
:1002700013D07F1C2035FFB2102F00D029E7FF20BC
:1002800035E70299490608D4002E03D0761EF6B24F
:10029000203C44E70F26019C41E7384627E7F8B5A4
:1002A000FF25964E07460024305D002808D05C28C4
:1002B00001D02F2800D12546641CE4B2202CF3D1B4
:1002C00000200146002D0ED0022D09D0FF2D18D0A0
:1002D000715502F043FB00280ED041280ED00EE0ED
:1002E00070783A28F4D12F203070717002F036FB0C
:1002F000412806D1002004E0B32000E000205C216A
:1003000071553D70F8BDF0B58FB001F09BFD7B4D90
:1003100000202A5C01A90A54401CC0B22028F8D150
:100320006846FFF7BCFF00287ED100247448E52111
:100330002646017003E0002C01D0714F00E0714FA0
:10034000002C01D06F4800E06D4809900120287012
:10035000002C01D06A4800E06A486860002C1CD07C
:10036000002402F088FF2878002846D0761CB6B218
:1003700038460999FFF7A6FE0107090F0991FF28E2
:10038000D9D0102837D24001C21968460378FF2B14
:100390000BD00020591C01AC05E00124E1E7265CEC
:1003A0002E54401CC0B28842F9D1E9180020491CE3
:1003B000135C202B01D00B70491C401CC0B20828D4
:1003C000F6D1137A202B02D02E230B70491C135C1C
:1003D000202B01D00B70491C401CC0B20B28F6D159
:1003E00002F0F6FC02F05DFD044647A003F068F958
:1003F00020460FB0F0BDFF2803D10020761CB6B216
:10040000099002F0E5FC002001A90A5C2A54401C76
:10041000C0B22028F8D13127312531246946374828
:1004200009784018C47100E043E07E218171457174
:10043000077102F093FA00282FD002F032FD002855
:10044000D7D12E4C01A9225C0A54401CC0B22028EE
:10045000F8D16846FFF723FF761E0D96266002F05E
:10046000EFFE0028C5D125480121017025494160D2
:100470000846099949010F1802F0FDFE0028B8D17D
:100480001D4A4100515A002903D0401CC0B23528F2
:10049000F7D1411CC9B21E4B11E0641CE4B23A2CE6
:1004A000BCD16D1CEDB23A2DB7D17F1CFFB23A2FF3
:1004B000B2D1FE209DE74C00491C1353C9B2352927
:1004C000F9D10D2103F040F8002901D0401CC0B241
:1004D00009994018C6B20A480C9020380B9006487B
:1004E0000A90102E16D2074871010D182846FFF702
:1004F000D9FD2C46203C18E0180700208407002076
:1005000018050020180300206B3C31360D0A00004E
:10051000FFFF0000102E40D0FA4871010818C51FD7
:10052000FF3D1121FA3D4901441A387B2873787B3D
:100530006873F889E881388A2882788A6882B88A5C
:10054000A882F88AE882388B2883788B6883F869D8
:10055000E861F87AE8723878287078786870B87846
:10056000A870F878E8703879287178796871B87966
:10057000A871F879E871387A2872787A6872B87A4E
:10058000A8722846FFF78EFD0346DF480121102E92
:1005900054D901220F3E0E964CE0DA4D0B9CC4E775
:1005A0002170078867703F0AA770661CB4464688AA
:1005B000E670360AE71C2671BE46878866463771A4
:1005C0003F0A7771C68877463E71360A7E71068982
:1005D00067463E72360A7E720F26E6720027277340
:1005E00063734689A673360AE67386892674360ACB
:1005F0006674C689A674360AE674068A2675360AB3
:100600006675468AA675360AE675868A2676360A9D
:100610006676A776E776C68A2677360A6677078BE8
:10062000A7773F0AE777491C521C1A300E9EC9B2C1
:10063000D2B2203CB242B3D10B9C1026099F0122BA
:10064000F61B099649E02170078867703F0AA7707A
:10065000661CB4464688E670360AE71C2671BE461C
:100660008788664637713F0A7771C68877463E713C
:10067000360A7E71068967463E72360A7E720F26FA
:10068000E6720027277363734689A673360AE673FA
:1006900086892674360A6674C689A674360AE67494
:1006A000068A2675360A6675468AA675360AE6757E
:1006B000868A2676360A6676A776E776C68A26770B
:1006C000360A6677078BA7773F0AE777491C521CE3
:1006D0001A30099EC9B2D2B2203C9642B3D1402210
:1006E0001143217006886670360AA6704688E67047
:1006F000360A611C26710A4686881671360A5671BA
:10070000C688E671360A267201891172090A517289
:100710000F21E1720021217363734289A273120ACF
:10072000E27382892274120A6274C289A274120A64
:10073000E274028A2275120A6275428AA275120A4E
:10074000E275828A2276120A6276A176E176C28A00
:100750002277120A6277008BA077000AE0770C9864
:100760002035854205D229800C98AD1C8542FAD1EE
:1007700007E00A98854204D229800A98AD1C854278
:10078000FAD1624C0D98206001F05CFB02F058FD3C
:10079000002800D02DE6012626705D48606001F03B
:1007A00051FB02F0E3FD054601F04CFB002D01D0AA
:1007B00028461EE653480088002806D02670514877
:1007C000606002F0D3FD01F03DFB02F001FB002070
:1007D00001A90A5C2254401CC0B22028F9D102F0C1
:1007E000BDF806E6022000F0CEF91021012001F04C
:1007F0006DFA052000F028FE46498A6A4C1522430E
:100800008A620121080200F011FD0321204600F058
:100810000DFD01F0F8F93F48403841783EA241A073
:1008200002F04EFF3A48454980380860444940305C
:10083000086001F06AF800F05DF9424F0025424E71
:100840003D70424900208A79D20705D001248C717D
:1008500000F01AFE152803D03978002904D101E0F0
:100860003C7001E015284CD13D70C82000F0ECFD33
:1008700001F072F8002844D104203070002434A024
:1008800002F01EFF02F012FA010009D034A002F0BB
:1008900017FF322000F0D8FD641CE4B20A2CEED120
:1008A000307805287BD330A002F00AFF33A1174827
:1008B00002F086FE144854210180432141804221E8
:1008C00081804421C1805F220281642343816121B0
:1008D00081817424C481018242828382C182792110
:1008E00001832E214183632181837321C18376217A
:1008F00001844584FFF707FD01004DD022A002F0DE
:10090000DFFE4CE0180500201807002084070020B7
:10091000180300208010004031303A35373A333622
:10092000000000005374617274204043686970498C
:10093000443D25303258202573200A00240200202F
:1009400028020020210200202D020020008000400B
:1009500057616974204469736B52656164790A0058
:10096000253032780A000000437265617465204CBE
:100970006F6E67204E616D650A0000002F54434280
:10098000447E312E435356004572726F723A2025D1
:100990003032780A0000000004A002F091FE6420CA
:1009A00000F052FD012000F098FD4AE743726561B6
:1009B0007420656E640A0000F3B55B4C06460025A2
:1009C000204681B00830594F009059493046097887
:1009D0008840009902F007FE8020207355480021CE
:1009E000007860730A20A0732820E07352482174B5
:1009F0000068020E6274020CA274020AE27420758E
:100A00006175A175E6752176029801F044FC38788D
:100A1000002807D0284601F0A6FD38703878002855
:100A200001D03878FEBD6D1CEDB2032DCDD31F2053
:100A30003870FEBDF3B53C4C06460025204681B01B
:100A400008303A4F00903A4930460978884000997A
:100A500002F0C9FD002137482173007860730A2035
:100A6000A0732A20E073344821740068020E627477
:100A7000020CA274020AE27420756175A175E67514
:100A80002176029801F007FC3878002808D0284623
:100A900001F069FD38703878002806D03878FEBD3E
:100AA000C82000F0C1FC0020FEBD6D1CEDB2032D7E
:100AB000C9D31F203870FEBD2049C8784006400EBB
:100AC000C870C8781E4A022802D0C87803280CD102
:100AD000C8784878C00701D000207047C8784879A6
:100AE000C00702D002201070F6E701201070162017
:100AF0007047704710B502F0D7F8102801D2FF20D8
:100B000010BD11490F480860104908600C490020C9
:100B10000870074A0921117001210D4A490211800C
:100B20000C49086010BD0000D80200202C020020F3
:100B300030020020310200206002002000800040CE
:100B40002D020020A407002064020020680200207B
:100B50003E0200204402002010B5FF4857210170DA
:100B6000A8210170FC4A8821403A118101890422A0
:100B700011430181002101700A2000F055FC012081
:100B800001F0F5F810BDF0B5F34EF34D04275722F0
:100B9000A824203E403DF049030002F0A1FD0D08CD
:100BA0000E161B1F24282C32373C41462F000A709A
:100BB0000C70F07BFB22104003E00A700C70F07B9D
:100BC0003843F073C820288118E00A700C70512057
:100BD000C000F8E70A700C70E048F4E70A700C7087
:100BE00081208000EFE70A700C708820EBE70A7024
:100BF0000C700220E7E70A700C702F81002008704B
:100C0000F0BD0A700C7093208000DCE70A700C7055
:100C1000D2484D30D7E70A700C7095208000D2E79B
:100C20000A700C704B20C000CDE70A700C70CB48E6
:100C30005C30C8E7C84810B540380089C1B20B061F
:100C40009A0FC748022A05D0012A04D09A0F06D06D
:100C50007D20000210BDC906C90EC24801E0C906C8
:100C6000C90E02F071FC10BDBB4A57211170A821BA
:100C70001170B94940394B150028088904D0184330
:100C800008810020107070479843F9E7B24A572155
:100C90001170A8211170B04920390028C87B05D0F7
:100CA00004231843C873002010707047FB231840BA
:100CB000F8E7A9498A7B800792089200800F0243D7
:100CC00057200870A82008708A73002008707047A9
:100CD000A1498A7B8F231A400001024357200870E4
:100CE000A82008708A730020087070479A4A203A3A
:100CF000917B800789088900800F0143964857231C
:100D00000370A82303709173002101707047924A09
:100D1000203A917B0907090F000101438E485723B0
:100D20000370A82303709173002101707047FEB512
:100D30008948002740380089C0B201068A0F022A7C
:100D40004CD00124A403012A4CD0890F56D005248D
:100D5000002000902005000D01907F4820388489F4
:100D600000267D49572230460A70A8220A700123C6
:100D70008B74794957220A70A8220A70764A203A61
:100D8000948100220A708A7C9207FCD50A8A8A7CA8
:100D90009207FCD48A7C9207FCD5098A019A7F1CB1
:100DA000891A0DB2FFB2002D37D02946714305D5FF
:100DB000012834D0411C32D0002830D02E46029475
:100DC0003046009902F0D6FB00B2211A8CB202998B
:100DD0008C4249D1002D45DD641C44E00220624C68
:100DE000C043B6E7C506ED0E2946604802F0ACFBED
:100DF0000019C40B2320C043401B09E0C506ED0EBB
:100E000029465B4802F0A0FB0019C40BA81C404215
:100E1000294602F0AFFB00B29BE70020FEBD002E8A
:100E200003DA761EF04306B202E06D1EE84305B217
:100E3000B5420FDD484857210170A8210170464A8C
:100E40000299203A9181002101707D20C0007043F9
:100E5000019903E07D20C0006843114602F08AFB3F
:100E600080B2FEBD641EA4B2142F82D3FF20FEBD4B
:100E7000FFB581B00C460746054600261AE0FF2163
:100E80009131681E02F076FB00290AD06421681EA9
:100E900002F070FB002907D00320A9078007C14298
:100EA00002D1FF206F3001E0FF206E3080196D1EEF
:100EB00086B2ADB22F488542E1D80025012C25D954
:100EC000032C05D0A01E062816DDE00718D115E07A
:100ED000FF219131384602F037FB00290AD0642106
:100EE000384602F031FB002901D0B80702D00020BB
:100EF0001C3006E00120FBE7E00701D01E2000E0E7
:100F00001F208019641E86B2A4B2D7E70398182167
:100F10003018401E84B2049802F016FBE120C00095
:100F200041430A981E22504309180B98400808189C
:100F300081B20B98C00701D00120C0030A0402430C
:100F400005482038C17B6B46C909C9011970C17BAE
:100F50001B78C909C9010FE04010004002020000DF
:100F60000048E80100389C1C1313000000180D8F86
:100F700000688909E40700009942E3D169460978CD
:100F80000029DFD0A64957230B70A8230B70A44B70
:100F9000403B5C63447C8026344344745A63427C07
:100FA00040231A4342740D7005B0F0BDFFB50746EB
:100FB0009B4883B04038C06B0E4684049848A40C0C
:100FC0002038418B008B01224900D203904201D38B
:100FD000012000E00020081800909248388010E0BE
:100FE0000199002925D06421284602F0ADFA002994
:100FF00001D0A8071DD0FF206E30201A6D1C84B2CE
:101000003D803D88FF219131284602F09DFA0191F3
:10101000002911D06421284602F096FA002901D057
:10102000A80709D0FF206E30A042D9D90020308017
:1010300049E0FF206F30E0E7FF206F30F4E73588AC
:10104000012D04D0062D18D9E8071AD117E03888E9
:10105000FF219131019002F077FA00290BD0642131
:10106000019802F071FA002902D00198800702D09D
:1010700000201C3006E00120FBE7E80701D01E201D
:1010800000E01F20201A84B26D1CA8B23080012815
:1010900004D0062817D9C0071AD117E03888FF21D5
:1010A0000546913102F050FA00290AD06421284601
:1010B00002F04AFA002901D0A80702D000201C3013
:1010C00007E00120FBE73078C00701D01E2000E0D8
:1010D0001F20A042B3D93088641C401C3080059882
:1010E000E12104800901009802F02EFA069A10808E
:1010F00008463C2102F028FA0C9908803C2100980F
:1011000002F022FA0D98018007B0F0BD444908B5FD
:101110002039CA7B6B46D209D2011A70CA7B1B7870
:10112000D209D2019A42F4D16A461278002AF0D04C
:101130003B4A57231370A8231370394B403B586325
:10114000487C4023184348740020107008BD34497F
:101150004039886B8A6B8242FBD1704710B5304AA8
:1011600057211170A82111702D4920394B7CE8249A
:1011700023404B744B7C1024204303434B740020CA
:10118000107010BD00B50346FFF7E1FF2649C018F7
:10119000884201D9494240180104090C02D00121BA
:1011A000090440181E4957220A70A8220A701C4AD6
:1011B000403A50631A482038427C20231A43427434
:1011C0000020087000BD0021002802D0012802D0B4
:1011D00002E0202100E01021114857220270A822CD
:1011E00002700F4A203A537C8B43537400210170E4
:1011F00070470B4920390028087C02D04021084064
:101200007047C009C001704705492039002804D043
:10121000012801D11020087470472020FBE700004E
:1012200040100040E40700000000C0A800B5524A8A
:101230000B0002F055FA0504071016191F00516B38
:1012400081430AE0516B81435163116B0143116388
:10125000116A81430DE0516B01435163116B81436E
:10126000F5E7516B814301E0516B01435163116A12
:101270000143116200BD404A00B540320B0002F04C
:101280002FFA0504071016191F00516981430AE05F
:1012900051698143516111690143116111688143B1
:1012A0000DE051690143516111698143F5E75169CD
:1012B000814301E0516901435161116801431160AB
:1012C00000BD2D4A002906D0012907D0022908D0E7
:1012D000032913D10CE0918A814304E0918A814370
:1012E00008E0918A01439182D16A0143D16205E00D
:1012F000918A01439182916A014391629083118A9C
:101300000143118270471C4B1B4A4033002906D011
:10131000012907D0022908D0032913D10CE0D18A72
:10132000814304E0D18A814308E0D18A0143D1821C
:10133000D9680143D96005E0D18A0143D182996817
:1013400001439960D083518A0143518270470A4A10
:10135000803A0028108B01D0084300E088431083B6
:101360007047054A803A0028508B01D0084300E0BE
:101370008843508370470000801000403C49062895
:1013800005D049790122824011400846704708780B
:10139000082108407047364857210170A821017084
:1013A0008179012211438171002101707047314917
:1013B0000968016000202F49C043803108607047F0
:1013C0002C49086070472C4880697047284957228B
:1013D0000A70A8220A700028887905D004221043D8
:1013E0008871002008707047FB221040F8E7204900
:1013F00057220A70A8220A700028887905D0022294
:1014000010438871002008707047FD221040F8E7F3
:10141000174857210170A8210170817910221143CA
:10142000817100210170704700220AE0022101E071
:1014300000BF00BF0B46491E89B2002BF8D1521CD9
:1014400092B28242F2D3704770B500247D260546E1
:10145000F60004E03046FFF7E7FF641CA4B2AC429C
:10146000F8D370BD0549CA7A082AFCD008727047C3
:101470004010004000E100E000E000E000340040E7
:10148000FC4901200870704710B5FB4A00205179D3
:101490000124CB07F749002B0DD00B78012B02D08C
:1014A0005278D20706D10C7002200870F3A002F027
:1014B00007F9152010BD0A78022AFBD30C70F2A0A0
:1014C00002F0FEF8162010BDEB49CA784006D2099A
:1014D000D201400E0243CA707047704710B5EE4902
:1014E000082008700020FFF7EFFFE34C6078400809
:1014F000400060706078FB21084002210843607062
:101500000F20FFF7A1FF6078FD2108406070FA20EE
:10151000FFF78AFF0120A07110BDD648017802298B
:1015200001D202210170D4484179C90705D0417820
:101530000122114341700020704716207047192086
:101540004001CD4903E0401E0004000C02D08A791E
:101550009207F8D58879800701D500207047FE20D2
:101560007047F8B50646C44815462030817381722D
:10157000C14F0024C04920310E720220B8711920D9
:10158000400103E0401E0004000C02D0BA7992072B
:10159000F8D500200872B87980072FD5B879C00730
:1015A00012D00120B871FFF76FFF152802D1BA4998
:1015B00001204870AF48017801290DD00078022839
:1015C0000CD0C820FFF730FFB87980072ED5F87906
:1015D000400605D50020F8BD1620F8BD1520F8BD41
:1015E000F8790007000F0E280AD00A280AD031091E
:1015F000012911D0092914D00D290DD0FE20F8BDE4
:101600002E20F8BD002D05D0681C00D06D1E641E74
:10161000E4B20DE02A20F8BD002809D020210843BB
:10162000F8BD032804D00B2802D0F5E7FF20B871DD
:101630000F20FFF7F9FE641CE4B2032C9AD320209C
:10164000F8BDF8B505460E46C820FFF7EDFE002EA2
:1016500001D000203070884C0820203420738F4A3D
:101660000021D020FFF77DFF002878D1D02021462F
:10167000887388720120087387498868C2798379E2
:1016800014021C4361D0002D5FD00078000634D5D1
:10169000C820FFF7C9FE78482030817A7F4A902021
:1016A000FFF75FFF00286AD1734A107AA04201D287
:1016B000107A00E02046C1B2601A84B2002E02D037
:1016C0003078401830700020734B05E05F683F5C55
:1016D000401C2F70C0B26D1C8842F7D1107A0028D0
:1016E00006D0107A1978491E084201D1002CCFD1BA
:1016F000614900202031087327E05F4F2037C82060
:10170000FFF792FE64490878844200D2204638737D
:10171000002005E08B682A781A54401CC0B26D1C6A
:101720003A7B8242F6D1B97B5C4A1020FFF719FF61
:10173000002824D1387B201A84B2002E03D03078C0
:10174000397B40183070002CD9D1C820FFF76CFECF
:10175000494C2034207B002802D0902001E00EE08C
:1017600010204E4AC021FFF7FCFE002807D1207B45
:10177000002804D04048007A002800D01720F8BD87
:10178000454A0021926803785354491CC9B2401C51
:101790000829F8D1704738B53F4C082020704048E0
:1017A000FFF7EEFF69463F48FFF74BFF002809D1DE
:1017B0003C486946C079207039480978C088884219
:1017C00001D9172038BD002038BD354808B508308C
:1017D000FFF7D6FF69463348FFF733FF002807D1EC
:1017E0002F4869460830C0880978884201D91720F7
:1017F00008BD2C48C17882780802104369460870F9
:1018000027480830FFF7BCFF6946087822498968F5
:101810008871000AC87169462248FFF712FF002844
:10182000E6D168460078402802D940206946087011
:10183000684602781B491C4801F0B0FE002008BD34
:1018400010B5044616481030FFF79AFF1248210AD7
:1018500080688470C17000210846FFF7F2FE0028FE
:1018600006D12046FFF730FE0A20FFF7EDFD0020ED
:1018700010BD00002D020020008000405553422082
:1018800064657620696E0A005553422064657620AF
:101890006F75740A0000000020020020102700006D
:1018A0008C3B0000B4090020D802002010B504468B
:1018B0002548FFF765FF2548210A80688470C170BC
:1018C00000210846FFF7BDFED2E710B504461E48CA
:1018D0001030FFF755FF1D48210A806804714171DF
:1018E00000210846FFF7ADFEC2E710B504461648D2
:1018F0000830FFF745FF1548210A80688470C170E1
:1019000000210846FFF79DFEB2E710B51048802180
:10191000017000214170C170482242730B4A9388C4
:101920000383138983830A4B203399729973892423
:10193000047040249C71FF238371064C01232370A3
:1019400003238370517093E7A43B00002002002022
:10195000008000402D020020F8B57AA001F0B0FE12
:10196000FFF7BCFD002425460120FFF76DFDFFF7C2
:10197000D4FD002804D16D1C0024EDB2642D0CD8D8
:10198000641CE4B2642CEFD3002C06D0FFF778FD82
:1019900071A001F095FE1620F8BD7A4FB878FFF7D8
:1019A0009CFD79A001F08CFEFFF7F5FE05002DD11E
:1019B000794E7A4D05E0315D79A001F081FE641C1D
:1019C000E4B2E879A97900020843A042F3D876A0EE
:1019D00001F076FE3089B8807089F88073483479D8
:1019E000C178827808021043C0B2FFF729FF0500D2
:1019F0000CD16E48C17882780802104378706CA0D0
:101A000001F05EFEFFF7E1FE050011D001466CA07B
:101A100001F056FE7048022101700120FFF75DFDC4
:101A20002846F8BD715D5EA001F04AFE6D1CEDB266
:101A30007088A842F6D85CA001F042FEB07B002C72
:101A400001D1082801D0FB20F8BD634804210170B2
:101A50000020F8BD38B504466048FFF791FE604DA0
:101A6000210A28680471417169464B48FFF7E9FD76
:101A700000280BD159480830FFF782FE2868210A58
:101A80000471417169464448FFF7DBFD38BD534896
:101A900008B51030FFF774FE69463F48FFF7D1FDE7
:101AA000002807D14D4869461030C088097888421F
:101AB00001D9172008BD002008BD08B54849A32258
:101AC00009680A7000224A708A70CA700871000A98
:101AD000487104208871CA7169462F48FFF7B1FD2B
:101AE000002804D168460078042801D2172008BDD8
:101AF000002008BD10B53A4A23231268137003234F
:101B000053709170090AD1701071000A5071002051
:101B10009071D0710146FFF794FD10BD10B5304AA9
:101B2000232312681370012353709170090AD17036
:101B30001071000A507100209071D0710146FFF7BA
:101B400080FD10BD526573657420686F73742070DA
:101B50006F72740A0000000044697361626C652052
:101B6000686F737420706F7274206265636175733F
:101B700065206F6620646973636F6E6E6563740AB7
:101B800000000000A40900204765744465764465A0
:101B90007363723A20000000B40900208C3B0000FF
:101BA00078253032582000000A0000009C3B0000DD
:101BB00047657443666744657363723A20000000AA
:101BC000496E6974526F6F74446576204572722055
:101BD0003D20253032580A002D020020BC3B000079
:101BE0002802002010B50446FFF724F80A214843D4
:101BF000C008214601F0A8FC0A21401D01F0A4FC08
:101C00002249888110BD10B5E1204002FFF7EAFFAC
:101C10001E48872181700321C1704021417001213C
:101C2000817310BD19498A789206920E8001024391
:101C30008A707047154A0028507806D008435070C3
:101C4000107808210843107070478843507070471F
:101C50000E498020487070470C4A07E0D37A082B61
:101C600004D003781372491E89B2401C0029F5D1B3
:101C7000704701460020054A04E0137A401C0B70AF
:101C800080B2491C937A002BF7D170470034004092
:101C9000F8B5624D5726614CA827203D00282670D4
:101CA000277028880ED02115084328800A20FFF7C6
:101CB000BBFB267027702888611508432880002008
:101CC0002070F8BD032149028843F7E7F0B5534C73
:101CD00057261C228B07514DA8270A409B0F403CDA
:101CE00000282E702F7010D0080603D5E07BFD2150
:101CF0000840E073A07A1043A07248482038C17BA6
:101D00001943C17300202870F0BD080603D5E07B9D
:101D100002210843E073A07A9043A0723F48203824
:101D2000C17B9943EDE730B53C4C57233B4AA8258E
:101D3000403C002813701570E06804D08843E060D0
:101D40000020107030BD0843F9E730B5334C5723FD
:101D5000324AA825403C002813701570A07B04D09F
:101D60000843A0730020107030BD8843F9E7F8B530
:101D70002A4D5726294C0021A827203D00282670EF
:101D800027700ED00120687128710020207001207A
:101D9000FFF74AFB267027700D2028710020207065
:101DA000F8BD29712170F8BD1D48016904229143D5
:101DB000016130BF7047194B57241C70A8251D7056
:101DC00016494039887B0822104388730920134E36
:101DD0000003203E308000271F70886B8A6B824290
:101DE000FBD1104A0A30904201D9524280180204B5
:101DF000120C02D0012212048018302232741C709E
:101E00001D7048632F2070741F701C701D7005209A
:101E100008811F7040BF20BF20BFFEE74010004078
:101E200000ED00E00000C0A80448804704480047D7
:101E3000FEE7FEE7FEE7FEE7FEE70000590B0000C5
:101E4000910000000020F949C04308644864002064
:101E50008873704710B5F54C616C606B88420FD089
:101E60006064A26BE16B914200D120640120FEF717
:101E7000A3FD2070002801D0FFF7E4FF207810BDFB
:101E8000002010BD10B5E94C216C606B88420FD06A
:101E90002064E26BA16B914200D160640120FEF7E7
:101EA0008BFD2070002801D0FFF7CCFF207810BDFB
:101EB000002010BD10B5DD4C606B6064A26BE16B5F
:101EC000914200D120640120FEF7B4FD207000286B
:101ED00001D0FFF7B7FF207810BD10B5D34C606B71
:101EE0002064E26BA16B914200D160640120FEF797
:101EF000A1FD2070002801D0FFF7A4FF207810BDBD
:101F000010B5CA4C606C6063FFF7D4FF002814D191
:101F1000A06C002812D0616B081860630120E16B8F
:101F2000FEF788FD2070A16C606B401A606320781A
:101F3000002803D0FFF786FF207810BD0020A07393
:101F400010BDF8B5B94E0446B1783046806D02290F
:101F500057D0032957D00025C10700D001254108DB
:101F60000818718AF26B491E01408918716631792F
:101F7000C840F16C4018B065716C88420CD0B07BE1
:101F8000002803D0FFF7BCFF00286ED1B06D70634E
:101F9000FFF760FF002868D100210127002C06D040
:101FA000042C32D0012C33D0706DB065B7737173CF
:101FB0003046B1789D4E603602292BD003293BD0A4
:101FC0009A48406E0178B1700A079849120F896DDE
:101FD0000B071B0E1A43327094460A097270934A1B
:101FE000D36B528A9A18521E824248D04278F270BD
:101FF000002C6DD0002D39D0614601707178417090
:1020000068E04000ADE78000ABE70020C043CCE7CC
:10201000B165CBE7416E864D0A8832603388AB42AA
:1020200000D34773002C02D0806D088065E0417BAF
:10203000002962D1426560E0426E836D11681B0128
:102040000D0F1B092D072B4309010909794D8365E4
:102050003160A94200D34773002C01D013604CE0DB
:10206000427B002A49D1416547E047E00170F178A1
:102070007278090909011209114341702DE0002C01
:1020800005D0002D01D0614600E0C9B2017067485B
:10209000807B204303D0FFF733FF00282ED1634815
:1020A000416C491C4163FFF7D5FE002826D15F4AE9
:1020B000002CD16B0878F0700AD0002D01D0707818
:1020C00004E00009737800011B0918430870977336
:1020D000002D02D07088000902E070880005000D14
:1020E0007080554980B2884201D350494F734F499F
:1020F00030604A7B144300D148650020F8BD70B5BC
:102100004A4D2E4660366C6D286D844254D8641C4E
:102110000020AC65FFF715FF6C6500284DD13068D5
:1021200000284FD0FF212A6D204608430A439042E1
:10213000E9D0A8780128E6D0E96B69660228688AA8
:1021400011D08008401E81B231807180686E001D00
:102150006866006800011FD03088401E0004000C33
:102160003080F3D110E04008401E81B23180718090
:10217000686E801C68660088002808D03088401E81
:102180000004000C3080F3D121436965BBE70020D7
:10219000696EC043088005E0686E264A016808320F
:1021A000114301607088696D08433188401A401CF2
:1021B0006865296D884201D9B12070BD0120A873DE
:1021C000002070BD0420AC65FFF7BBFE70BD10B5EC
:1021D000FFF795FFB12804D1144900204865FFF7A7
:1021E0008EFF10BD10B5114B5A78824201D30A46BA
:1021F00059708A4201D1002010BD01205870FEF7AD
:102200005BFC0028F8D1832010BD08490878162807
:1022100003D0152806D00020704701224A70002202
:102220008A61704702224A70704700002C02002029
:10223000F7FF0000F7FFFF0FF70F000010B50220B7
:10224000FFF702F9FB4C2078A072FEF735FC00285E
:1022500003D16078042801D2832010BDF6A0FFF7D7
:102260008FFAF749607A087100210846FFF7E9F90B
:1022700020701628F1D0207B0007000FFFF725FB08
:10228000E07A0007000F8030FFF71FFBA07A207074
:102290000021A17210BDF8B50446E949E94801F0F2
:1022A000A2F9E9491F200873E24D01225204A97ADC
:1022B000287BFFF756F92870162870D000281AD00E
:1022C000DF48002102680262491C001DC9B20829CA
:1022D000F8D1FFF7B3FFDA480021026A491C04C0B5
:1022E000C9B20829F9D18A03A97A287BFFF739F9FD
:1022F000287000287ED1CF484021827A4A408272DD
:10230000CF48083001F065F900283FD085B2CC48AD
:10231000CB49007B8EB2000600287FDACB4801272C
:1023200086B22FE0402D03D3C7482038048303E052
:10233000C548002720380683BE480122817A52040E
:10234000C07AFFF70EF9BB49087000280CD0BE49CF
:1023500020390E832E2822D1B648C07A0007000FFC
:102360008030FFF7B2FA0FE0B2488022817A514004
:102370008172B748002F0AD0007A402804D1403D2E
:10238000ADB24034002DCDD1B14806834AE0017A88
:10239000E8B2884200D2E9B20020AC4A05E05DE034
:1023A000135C2370641C401CC0B28842F8D1EBE778
:1023B000A748402D07D38483403D4034A2484021A4
:1023C000ADB201730EE086839F48EAB2027300202B
:1023D0009B4904E02378641C0B54401CC0B2824229
:1023E000F8D10025934F01225204B97A387BFFF7C8
:1023F000B8F801E030E011E0387000280AD09449C4
:102400008E832E282AD13846007B0007000FFFF765
:102410005CFA05E0B87A40214840B872002DC7D177
:102420008B488683834C01225204A17AE07AFFF71D
:1024300098F82070002811D1A07A80214840A0721D
:102440001F2020708248007A0D280BD17F48007B26
:10245000002804D0022805D3FFF7F0FEF8BD0020C5
:102460002070F8BD2078F8BD70B50C46744905465B
:102470000831204601F0B7F8002C01D0802300E09D
:1024800000236F4A6B481373407950730620907392
:10249000D5730023137453749374D47413755375E4
:1024A0009375D375137670BD10B50A20FEF7CCFF77
:1024B00012210320FFF7D8FF61482030FFF7EBFE21
:1024C0000520FEF7C1FF5B480078002801D0FFF728
:1024D0009CFE10BDF8B5574D092028712C460F20E1
:1024E0006034574E20700A27304620300090082173
:1024F0002520FFF7B9FFB7730020F0740098FFF7AD
:10250000CAFE287800280FD0162826D0152824D0F7
:10251000132822D06070FFF7C7FF607828702078FA
:10252000000711D5402010E000988079042804D0DD
:10253000082804D0102804D00FE02F710DE00B20E4
:1025400000E00C20287108E0C820FEF77DFF20780D
:10255000401E0006000E2070C9D129790120884054
:1025600068826078F8BD012110B54903384B0A46EE
:102570005C79A40903D1521E1204120CF8D10A4648
:102580005C79A40903D0521E1204120CF8D15A79B6
:10259000920903D1491E0904090CF8D1254A0228E1
:1025A00006D35178122914D0102901D91021517065
:1025B0001178002807D0162905D0152903D0FFF778
:1025C00073FF002804D00220FEF73EFFFFF71DFE38
:1025D00010BD0521EBE7F8B5FEF76EFA002804D12F
:1025E000144D6878042801D28320F8BD0420687057
:1025F000FFF7EBF828700028F7D1114EB07B0828C0
:1026000031D10020A871F17B062901D10121A971E6
:10261000084CF17A0020697260342070707FF77E78
:102620008446B07D317D86462278002A12D0384615
:1026300011E000002C02002021FF0000000000003B
:10264000D8020020555342432080004098020020C9
:102650000080004008466070002A01D0634600E018
:102660007346402B02D01F20287026E0030604D5B5
:102670000007000F9030E87203E00007000F1030F1
:102680002873521CD0B220700228CDD17079FFF788
:102690000DF928700028A8D100272770F9A0FFF7AE
:1026A0006FF8687A3071611CA86BFEF7CAFF28705A
:1026B000002804D028782E2808D02878F8BD617822
:1026C000012906D1A96B0978217002E00020FFF7EB
:1026D000FCF80520FEF7B8FEFFF7B4FBAF726F7190
:1026E000012624211220FFF7BFFEA86BFFF7D3FDC0
:1026F00028780028207807D0002815D0687903288A
:1027000012D2401C6871ECE7002806D068790028D6
:1027100003D1A86B0078052804D005210420FFF719
:1027200061FDF8BD6E71DCE76F710120FFF71BFFE3
:10273000F8BDF8B5D54E7078052805D2FFF74BFFE8
:10274000002834D1FFF7C6FEFFF77CFBB069CF4D00
:10275000CF4A010900276435914203D10007000FD9
:10276000687000E06F70C94C6034F7703772B76200
:102770007763FFF787FB002807D0FFF75FFDFFF7C0
:10278000A9FEFFF77FFB002811D16878002805D14A
:10279000B06BFD2100780840E92809D0B06B0246F3
:1027A000FF30E130C18BBB48814203D09120F8BD9E
:1027B000706B29E0F07843E01146FF31C7314118D2
:1027C0000B7823704B7863708B78A370C978E170B5
:1027D000216871631146FF31C331415C21700529C5
:1027E0001FD00F291DD00B0602D58906890E217036
:1027F0000906090E23D00F2921D2697801291CD896
:10280000316C706B40187063B061FFF73BFB0028C0
:10281000CDD1B06BFD23017832461940E92923D18F
:102820001CE0B16A706B40187063317A0029A0D146
:10283000297810313172B0629BE7491E69701030FF
:102840002870C0B24028B7D1307A002802D0F27880
:10285000002A01D09220F8BDF07088E7FF21FF31F7
:102860000B5A8C498B4201D0A120F8BD417BD1701D
:102870000723D3710A0609D4F2794906521E090EBC
:102880001206120EF271F5D10121F170C18AB16404
:10289000002901D1416AB164027D411CC37C12024E
:1028A0001A43F26201D1026AF2624A7C097C120286
:1028B0000A43718A4909491E51183279521F114140
:1028C000F161C289F264B36C51189C46CB18236045
:1028D000017C8E46022913D0B7642368716B5918A6
:1028E0003162F16ACB1AF179CB406B4933658B4287
:1028F0001BD299B2694BB782994205D2012104E0FB
:10290000614659182160E8E70221B170002A15D00C
:10291000F169002912D07146012902D0B16C002959
:102920000CD0C17A002909D105E0018EB182C16ABB
:10293000F1610321E9E7007B022807D269780029C9
:1029400001D0A320F8BD012169700EE7716B50180A
:10295000F06410210520FFF745FCF8BDF8B54B4C9D
:102960006078102803D2FFF7E4FE00286FD1102111
:102970000846FFF737FC002869D14949E073087819
:10298000002864D05C2805D02F2803D04A783A2A42
:1029900003D02BE04248401C03E0432826D34048A4
:1029A000C01CE065A078032806D000216162E16DBB
:1029B0000978002902D01AE0E169F7E70021C9434C
:1029C000A16203280AD002206062E069C0B2E07010
:1029D000216A091A216221798840A062606A6065D3
:1029E0000020E06220721220607093E0E165274FC2
:1029F0006037606A002807D0E1782172E179801E93
:102A00008840216A401804E0E069C0B22072216A5F
:102A1000081A2063BDE0206B6063FFF733FA0028DB
:102A200079D1AAE0A16B0A1862661078002873D0E9
:102A3000E52872D0052800D1E520E36D19788142A0
:102A400001D02A2969D1814202D1012001E062E04E
:102A50000020B8702FE0BE78155C995D8D4226D0BD
:102A6000002906D05C2904D02F2902D02E2919D0A4
:102A700023E0202D21D1082802D2117A20291CD14F
:102A80000B201AE0A1FE0000000001002C02002033
:102A90006745230155AA0000F5FF0000F50F00006F
:102AA00084070020082E01D0202D06D10720401CCD
:102AB000761CC0B2BE700B28CDD3B9780B28595CF8
:102AC000F97043D3D07A000740D400206073606E61
:102AD000418B6162A278032A03D1828A12040A43DD
:102AE0006262FA78002A02D0627B002A28D0616AEA
:102AF0000022E26261652272C37ADB060ED5501EA7
:102B0000A06213211020FFF76DFB002803D1607B2A
:102B1000002813D14120F8BD4CE02CE0C069A06230
:102B2000002902D1FF202072A26214211020FFF799
:102B300059FB0028EFD1607B0028ECD04320EAE766
:102B4000E16DBA78491C5118E16552E72A2912D182
:102B5000D07A00070FD4FD4840780009072801D03B
:102B60001120D8E7A06A002833D001DAFDF7C1FFB1
:102B7000A06A401EA062208A20302082618A80B232
:102B8000884200D24EE7206B401C2063207A401E12
:102B90002072207A002800D03DE7606A2546002890
:102BA00008D0A8650020FFF7CCF90028B3D1687BD6
:102BB000002839D0E26D0021505C491CC9B20028C0
:102BC00035D02A2833D05C2801D02F28F4D1B32067
:102BD000A1E700203870616E095C202919D008280F
:102BE00006D13A78E56D2E21A9543978491C3970FF
:102BF000616E3A78E56D095CA95439783E46002942
:102C000004D11978052901D1E52119703178491CC1
:102C10003970401CC0B20B28DDD33A78E36D002137
:102C200099540121617352E738686862E1E64220F5
:102C300071E7C748416DC279891E9140026A8918BF
:102C4000027A89184163704770B5C14DC14C6A6AF8
:102C5000002A16D029796068C840297A401A21686C
:102C6000814201D3081A14E008466A6512E0686DD3
:102C7000A8650020FFF765F9002814D1687B0028BB
:102C800004D0FF2028720020C0430AE0E9782068C1
:102C9000401A2060E9788842E9D22872FFF7C9FF1C
:102CA000686B2060002070BD1020704770B5A94D82
:102CB00000202860FDF700FF002813D1A44C6078A5
:102CC000052813D2FFF787FC002806D04020FEF726
:102CD000BBFBFFF780FC002804D1FFF7FBFB0028BB
:102CE00001D0207870BD9C48006A28600021084609
:102CF000FFF7BAFB98482030FFF7CDFA207800287C
:102D0000F0D02078924D60352870FFF7CDFB287801
:102D1000207070BD10B5FFF7F2F98D4C002807D078
:102D2000B12820D100206065FFF7E9F900281AD109
:102D3000FFF7E6F8002816D1606D6062206B6063D3
:102D4000FFF7A0F800280ED1218AA06B40180121BE
:102D50006066C161616E606A4883606A616E000C82
:102D60008882FFF7BAF810BD70B5794C784D6034A1
:102D70002060A88A00280FD0A96940186863FFF76F
:102D800081F8002808D1A86B2268FF30C130816A21
:102D900089188162FFF7A1F870BD10B56C4C002056
:102DA000E0736078142811D3206B6063FFF76AF832
:102DB00000280AD1218AA06B40186066C17AC90632
:102DC00004D4A16AC161FFF788F810BD002010BDCE
:102DD00010B55F484178122901D2B42010BD1229E4
:102DE0000BD18178032908D0C27901219140C170AB
:102DF000C169026AC9B2891801624178132911D9DF
:102E0000142903D15349097800290BD0C07B00282D
:102E100003D0FFF7C2FF0028E0D110210846FFF7DA
:102E2000E1F910BD0021C173F7E770B5484C607837
:102E3000132803D2FFF792FD002831D11021084654
:102E4000FFF7D0F900282BD1206B6063FFF71AF849
:102E5000002825D1228AA16BE5208854FFF73DF890
:102E600000281DD13A4D606A60352860002817D0CF
:102E7000401E6062002060652868A0650120FFF7A1
:102E800060F800280CD1606D401C6065607B0028F4
:102E9000F2D0FFF735F8002802D1606DFFF764FF2C
:102EA00070BDF8B5FFF75AFD294C0027FF430025F8
:102EB0002072002824D042286DD1208A618A88425D
:102EC0006AD3606A002849D0A0650020FFF739F86E
:102ED000002860D1607B00285ED0606A6065FFF7E3
:102EE00076F9002857D1606AA0650220FFF729F81B
:102EF000002850D1FFF704F800284CD1A16B05E061
:102F0000FFF793FF1FE00D50001D80B2628A9042D0
:102F1000F9D12572FFF78DFE2582606B0C4E206380
:102F2000E078603608E0FEF7D8FF002833D1606B08
:102F3000401C60633078401E30700006000EF2D1F5
:102F40003846FFF711FF002825D125E0401000404A
:102F50002C02002084070020D8020020E0692072A3
:102F6000206B401E20636063FEF78CFF002812D1A7
:102F70002582638AA26B04E0565CE52E0CD02031DA
:102F80002182218A9942F7D3207A401E0006000E42
:102F90002072E5D1B220BEE5606A60658548807820
:102FA000042801D01120B6E5FFF711F90028F2D16D
:102FB000FEF7A6FF0028EED1606D60623846FFF78D
:102FC000D3FE0028E7D1206B6063FEF75BFF00288B
:102FD000E1D1218AA06B41180020616601E00B2835
:102FE00001D2202200E000220A54401CC0B2202856
:102FF000F5D3714808830120C8610020E26D137881
:10300000002B0DD02E2B02D10820521CE265127825
:103010000A54E26D401C521CC0B2E2650B28EDD38D
:10302000606A4883000C8882FEF757FF0028B2D1FF
:10303000606AA562E5626065257214211020FFF7C1
:10304000D1F868E570B55D4D0120E8736A8AE879CA
:10305000A96A824054182A79641E1218E86AD4407A
:10306000D0402A46A865526A844201D9241A00E059
:103070006A65002A02D0002909D009E0002904D09D
:10308000FFF748FE002801D102E0002070BD0124B6
:103090004B4E686D3060686DA8657060641E0020DE
:1030A000FEF74FFF0028F1D1687B00281BD0002CD1
:1030B00016D06042FFF758FE0028E7D1686D7060B7
:1030C000FFF785F80028E1D17068A8650220FEF7B7
:1030D00038FF0028DAD1641EF0D1306868651CE042
:1030E00030686865D1E7002CD5D17068334E603602
:1030F0003060A8650120FEF724FF0028C6D1687B58
:10310000641C00280CD02046FFF72EFE0028BDD1FD
:10311000686A68650020E8622872FEF7F1FE70BDFB
:103120003068E6E7F8B5254C6078132801D2B42062
:10313000F1E4206B6063FEF7A5FE0028F8D1228A37
:10314000A16B1F4D891861662A7ACB7A2B72FF2AF0
:1031500001D0CA720120194EE98860363180626E52
:10316000184FD38AEB80B94201D0D1820120A988BF
:103170003180626EB942138BAB8001D01183012084
:1031800029683160626ED3692B604B1C04D0A16248
:103190000020D161E07301E00028C9D0FEF79DFE58
:1031A000B9E40020064AFF211154401CC0B20D288A
:1031B000FAD1B7E740100040213000002C02002077
:1031C00084070020FFFF000010B5CE4CCE49A06858
:1031D0000860A0786168FDF7EFFB002811D1CB48AB
:1031E000A178027808469040626880B21218626046
:1031F000C74A136818181060207840182070002003
:10320000A07010BD10B5BF4CBF49A0680860A07881
:103210006168FDF70FFC002811D1BC48A178027845
:1032200008469040626880B212186260B84A13681B
:10323000181810602078401820700020A07010BD71
:1032400010B5B4480078122801D2B42010BDB04B9C
:10325000AC4A18685060B048AC49006809781468F6
:10326000C840844201D8204600E0106088401860C1
:10327000FFF7EAFC10BDF8B5A6480178142902D87A
:103280000078122801D2B420F8BD9E4C20786070DE
:1032900000202070A070A04801689D480068081AAE
:1032A0009A490978C840FF2801D9FF2000E0C0B240
:1032B000E070954F994D50E0E078002850D0287884
:1032C000FF284DD0FFF7B5FCA078002828D08F4903
:1032D000402209780939CA40904204D2A1680818EE
:1032E0003968884208D08E4E38683060FFF76CFF2E
:1032F0000028C9D13068A0608A482E780378E17828
:10330000981BC0B2884200D908466278824209D22E
:10331000A078D1B24018A070F0B21018287022E046
:103320003868E8E7121A6270A278091A1218301881
:10333000A270C0B2E170287098420ED17A487B49E1
:10334000006808600020FEF7FCFD00289CD178484A
:103350000078002800D0FF20287060780028ABD1CA
:10336000A078002890D0FFF72FFFF8BDF8B5694A84
:103370001078142802D81078122801D2B420F8BD91
:10338000604C20786070002806D16A4909780029CD
:1033900002D0FFF702FDF8BD00212170A170E1709D
:1033A0005C4909785E4E584F5C4D12290ED1624936
:1033B000097803297ED05849544A09681278D140C7
:1033C0002A78891AC9B2884274D9617072E0287863
:1033D000FF2821D159480068002846D04D48007880
:1033E000122805D154480078032801D0B120F8BD37
:1033F0004D480068E060FEF7EAFE0028F7D14B4830
:10340000E16801600220FEF79CFD0028EFD1E07822
:10341000401EE07000202870FFF70BFCA078002809
:1034200026D03A49402209780939CA40904204D24C
:10343000A16808183968884207D038683060FFF7FB
:10344000E1FE0028D3D13068A060364829780078A2
:10345000401A6178C0B288420CD9A078CAB28018EC
:10346000A07028780818287027E0FFF753FCCCE7F5
:103470003868E9E7A2781218081A0006A270000E50
:10348000607008D12E4960680968884203D1FFF74F
:10349000B9FE0028ABD1244801682448016000200F
:1034A000FEF74FFD0028A2D121480078002800D067
:1034B000FF2028706078002889D1224800780028F1
:1034C00003D0FEF71DFD002891D1A078002803D07D
:1034D000FFF798FE00288AD1E078002805D0FF3851
:1034E0000138FFF741FC002881D10B4908480A68E0
:1034F0000068824203D208600E480121017000205A
:10350000F8BD000084070020600200203002002087
:10351000580200202D020020540200203402002016
:103520008C0200202F020020800200208402002054
:10353000390200203B0200202E0200205002002011
:10354000640200203A02002030B50B4601460020FC
:103550002022012409E00D46D5409D4205D31D4699
:103560009540491B2546954040191546521E002D91
:10357000F1DC30BD70B500242546002801DA0124B5
:103580004042002901DA01254942FFF7DDFFAC4244
:1035900000D04042002C00D0494270BD03460B438E
:1035A0009B0703D009E008C9121F08C0042AFAD2F9
:1035B00003E00B780370401C491C521EF9D270477F
:1035C00003460A780270401C491C002AF9D11846AB
:1035D00070470321001D401E037812021A43491E42
:1035E000F9D510467047034603220870000A491CAB
:1035F000521EFAD518467047F0B51FB40646002093
:1036000082B005464024019100901BE001992246BA
:103610000F46304600F042F8049A059B801A994103
:1036200010D310461946224600F028F8361A8F416A
:103630000197224601200021009F00F01FF8381852
:103640004D4100902046641E0028DFDC019B00985D
:103650002946324607B0F0BD064C0125064E05E06E
:10366000E36807CC2B430C3C98471034B442F7D3A3
:10367000FCF712FDD43B0000043C000010B5202AEA
:1036800004DB0146203A9140002010BD91402023E8
:103690009C1A0346E3401943904010BD10B5202A00
:1036A00004DB0846203AD040002110BD0B46D34031
:1036B000D0402024A21A91400843194610BD0000B2
:1036C0000FB410B503A9044B044A029800F024F883
:1036D00010BC08BC04B01847651400009402002018
:1036E00030B47446641E2578641CAB4200D21D467B
:1036F000635D5B00E31830BC184702E008C8121F86
:1037000008C1002AFAD170477047002001E001C1CA
:10371000121F002AFBD17047FFB591B00F46054636
:10372000002606E025280AD0149A139990476D1CAC
:10373000761C28780028F5D1304615B0F0BD00245D
:1037400000940121F34A029400E004436D1C2B789D
:103750000846203B98401042F7D128782A280ED0FE
:10376000022128780246303A092A15D8009A0A23FD
:103770005A43303A80180C436D1C0090F1E701CF9A
:103780000090002805DA01204003044300984042DD
:103790000090022004436D1C28782E2815D10420A7
:1037A000044368786D1C2A280AD101CF6D1C029051
:1037B0000BE002990A225143303940186D1C0290E7
:1037C0002878014630390929F3D928786C2810D097
:1037D00006DC4C281AD068280ED06A2817D104E0DD
:1037E000742813D07A2812D110E001204005044338
:1037F0000CE00121090501E0032109050C4369786A
:10380000814203D10120000524186D1C6D1C28780D
:1038100003906E281ED00CDC632831D004DC002815
:103820008AD0582811D1B2E064287BD069280CD105
:1038300078E073282DD004DC6F2870D0702804D174
:10384000A7E075286CD078286BD0149A139990470C
:10385000761C62E06002400F022807D003280AD0DD
:10386000042838680AD006603F1D56E03868F11712
:1038700006604160F8E738680680F5E70670F3E710
:103880003878694608740020487404A80390012021
:1038900003E0386803900020C0433F1D61070FD547
:1038A000002101E00199491C029A0191914213DA29
:1038B0008142F7DB019A0399895C0029F2D10BE080
:1038C000002101E00199491C01918142FADB019A32
:1038D0000399895C0029F5D101990098139A401A3F
:1038E00000902146149B00F03BF90199801946187D
:1038F00007E0039803990078491C0391149A1399DF
:1039000090470198401E0190401CF2D12146149B23
:10391000139A009800F014F986196D1C09E741E02C
:1039200033E034E00A200021049005916002410F49
:10393000022905D001CFC2179446032905D007E01C
:10394000FF1DFF08FF0003CF06E000B2C217944638
:10395000042902D140B2C1178C4600226146944529
:1039600006DA0A460021404291418C462D2102E0B0
:10397000210504D52B216A461176012103E0E107D8
:1039800001D02021F7E7019154E00A200BE010203C
:1039900009E0102004900021042004430820059130
:1039A000029003E008200021059104906002410F7D
:1039B000022905D001CF00229446032906D006E053
:1039C000FF1DFF08FF0003CF8C4603E080B20429EF
:1039D00000D1C0B20021019121072BD50399702994
:1039E00006D0049A1021059B4A401A4305D00EE0E8
:1039F00040216A461176012108E06146014306D064
:103A000030216A4611760399517602210191049A78
:103A10000821059B4A401A430CD16146014301D15C
:103A2000610707D530216A4611760121019102997B
:103A3000491E02910399582904D037A103910FA977
:103A40000F910DE039A1F9E76146059B049AFFF754
:103A5000D3FD039B8C469B5C0F9A521E0F921370F2
:103A600061460143F0D10F9807A9081A203003904E
:103A7000600704D5012000048443029801E001207E
:103A800002900399884201DD401A00E000204118AD
:103A90000290019809180098401A0090E00306D49B
:103AA0002146149B139A009800F05AF886190020BA
:103AB000049008E006A9085C149A139990470498AA
:103AC000401C761C049001998842F3DBE0030CD57E
:103AD0002146149B139A009800F042F8861904E0DE
:103AE000149A302013999047761C0299481E029030
:103AF0000029F5DC08E00F980F990078491C0F9118
:103B0000149A13999047761C0399481E0390002934
:103B1000F1DCFBE609280100303132333435363729
:103B20003839616263646566000000003031323309
:103B300034353637383941424344454600000000A9
:103B4000F8B5044600251E461746880404D405E04F
:103B500039462020B0476D1C641EF9D52846F8BDB3
:103B6000FFB50446002581B01E46C80301D53027A5
:103B700000E02027880404D505E038460399B047C3
:103B80006D1C641EF9D5284605B0F0BD8006000105
:103B90000000120080060002000004000005020080
:103BA000000000000009000000000000010B000000
:103BB000000000000201000000000000210A0000D7
:103BC000000000008106002200004100A00600293C
:103BD00000000900043C000000000020200200005A
:103BE000FA360000243E0000200200207800000089
:103BF000FA3600009C3E0000980200209C0700005E
:103C00000A370000804A0020917A57250B077E4929
:103C1000A8264031002B05DB0D700E70937A082426
:103C2000234393720D700E7005231381764F203756
:103C30003B8803246402A3433B80937A10242343EC
:103C4000937200220A700123BC79E40701D000209E
:103C5000FAE77D242401401CA042F5D90D700E70B6
:103C60008B710A70F0E770B5674D2035A87B664907
:103C700040318C7B032214432A8B644B9A4202D935
:103C800080088000401C57220A70A8220A705E4AF1
:103C9000D37BF7263340D37300232B71A8738C7327
:103CA000052010810B705A480269042422430261E6
:103CB00030BF0B70012000F0AFF870BDF0B5524A74
:103CC0002032917B50484030877B0323128B1F4367
:103CD0004E4B9A4202D989088900491C5724047026
:103CE000A8250570484EF27B08231A43F273464A12
:103CF0000023203213719173877305213181037082
:103D000043490E6904273E430E6130BF03700470BF
:103D10000570012151711171037000BF00BF047063
:103D200005700D2111710370F0BDF0B5364B2033D5
:103D30009A7B354940318E7B032426431C8B334DBF
:103D4000AC4202D992089200521C57240C70A8254C
:103D50000D70304F38431880002008700C700D70C3
:103D600018719A738E73284E052232810870284A82
:103D7000166904273E43166130BF08700C700D7041
:103D800001225A711A71087000BF00BF0C700D70CB
:103D90000D221A710870F0BDF0B51B4B20339A7BD1
:103DA000194940318E7B032426431C8B174DAC42AE
:103DB00002D992089200521C57240C70A8250D704D
:103DC00009273F03C0191880002008700C700D707F
:103DD00018719A738E730C4E0522328108700C4A4A
:103DE000166904273E43166130BF08700C700D70D1
:103DF00001225A711A71087000BF00BF0C700D705B
:103E00000D221A710870F0BD00100040FF3F000045
:103E100000ED00E00490000003B40148019001BDF2
:103E20006F1D000000000000000000000000000006
:103E30000000000000000000000000000000000082
:103E40000000000000000000000000000000000072
:103E50000000000000000000000000000000000062
:103E60000000000000000000000000000000000052
:103E70000000000000000000000000000000000042
:103E80000000000000000000000000000000000032
:0C3E900000000000000000000000000026
:040000050000009166
:00000001FF
