:020000040002F8
:1038000000800020A53E020001600020AF3E0200C3
:1038100000000000000000000000000000000000A8
:10382000000000000000000000000000AF3E0200A9
:103830000000000000000000B13E0200B33E0200A4
:10384000B53E0200B53E0200B53E0200B53E0200A4
:10385000B53E020055460200B53E0200B53E0200EC
:10386000B53E0200B53E0200B53E0200B53E020084
:1038700001470200B53E0200B53E0200B53E02001F
:10388000B53E0200B53E0200B53E0200B53E020064
:103890000348854600F0BAFF00480047253D020076
:1038A0000080002010B50A460146002000F0E1FA31
:1038B00010BD08B5694608700020487002216846AE
:1038C000FFF7F0FF08BDF8B5D24E0C463078D24D68
:1038D000090408D5696B8847002801D0296B8847FF
:1038E0000120C0030EE0E1070ED0CC49C94ACB6AE3
:1038F0006032002198477D22D2002B6A0221307865
:10390000984701206040F8BD600723D57269F168CF
:1039100050024118C2A001F087F97069F1684002B5
:10392000401800F0AFFB0546042027464740002D15
:1039300004D02846FFF7BDFF3846F8BD7069401C2B
:1039400070613169884203D3BAA001F06DF9F0E7E4
:103950002046F8BD0020F8BDF8B5AF48403081687A
:10396000B9488847AB4E694630700120AB4C0870AF
:10397000403C0146E36B6A46B44898473246B34838
:103980002C321F21E36B801C98473246AF481C3213
:103990000721E36B401C984732464B3215212369BF
:1039A00000209847A025E269294603209047E26954
:1039B000294604209047A1690024E4432046884713
:1039C00096488038C16B20468847204600F0DCF9D5
:1039D0003046243000F0E9F98F48012182693078BF
:1039E0009047F8BD08B5012809D0022809D003285E
:1039F00009D0042802D196A001F016F908BD97A0BD
:103A0000FAE79AA0F8E789799CA001F00DF9012066
:103A10006946087081486A464038C36B01218B486B
:103A2000984708BDFE2044E710B54721C902002091
:103A3000974A012464020B5C1354401C80B2A042DC
:103A4000F9D3002000F01EFB22469149002000F02F
:103A5000FFFB10BD00208F49C04308608E49002045
:103A6000086170476B49006888610047F0B58B4C6E
:103A700085B0204642788178C078277800020843D4
:103A8000803F00268100634D3B0001F0DDF8050416
:103A90003C5E8DA2B4006A6081A0A96001F0C4F808
:103AA0005C4900204B689D0810E07C498200511859
:103AB0004F790C793F023C438F79C979774E3F04A7
:103AC0003C43090618360C43B450401C8542ECD8E0
:103AD0005048012180684902C2188A420DD86F4CB3
:103AE000002128346D4A04E0551846182D79A55553
:103AF000491C9942F8D3002053E068499AB2183122
:103B000000F0A6FB4DE0FFF78FFFE178A0780902F7
:103B100001438900A9606279207912020243284694
:103B20000C3046C06E7065A001F07EF82869401E1A
:103B30002861E868FF30FF300230E8603648042131
:103B400082692878904705B0F0BD6A6063A0A960DB
:103B500001F06AF8AA68696801205318400283429C
:103B600010D84E4B0020283306E0161827189E5D0B
:103B70003F79BE4202D1401C8842F6D388420CD124
:103B800000210BE0002005E02618135C3679B342D3
:103B9000F4D1401C8842F7D3F0E7FF21687808434E
:103BA0006870FFF786FECEE753A001F03DF8FFF7FF
:103BB00051FF002000F066FA3849012252022831F4
:103BC000002000F045FB0A2001F09CFA00F0DEFF27
:103BD000B9E74CA001F028F80220694608704E7041
:103BE00038228A70C8700E714E718871142168462F
:103BF000FFF758FEA7E7FE20D3E710B544A001F079
:103C000013F810BD10B50448436924489847FFF7DE
:103C10002DFF10BD20620020C0580200005A020093
:103C200045524153453A25303878206E756D3A2516
:103C3000640D0A00455241534520436F6D706C6519
:103C400074650D0A00000000C7380200050300007B
:103C5000436F6E6E6563746564200A00496E697413
:103C600069616C697A6564200A00000041647665C8
:103C700072746973696E67200A0000004469736397
:103C80006F6E6E65637465642025780A000000001D
:103C90002865002080E100E000E000E000630020F3
:103CA0004941505F50524F4D3A2025303878206CB2
:103CB000656E3A2564200D0A000000004941505FFE
:103CC00045524153452073746172743A25303878F7
:103CD000206E756D3A25640D0A0000004941505F61
:103CE0005645524946593A2025303878206C656E41
:103CF0003A2564200D0A00004941505F454E44209A
:103D00000D0A00004941505F494E464F200D0A0000
:103D10004F54412053656E6420436F6D70200D0A2F
:103D20000000000010498A6A481502438A62032194
:103D300000F04CFE00F066FF0C48C16B0CA000F0D8
:103D400073FFFFF787FE0BA000F06EFF00F0E9FBAA
:103D500000F06DFC0B48806A8047FFF7FDFD034CC7
:103D6000803420688047FCE78010004080580200C3
:103D700025730A005475726E20696E204F54410AF3
:103D800000000000005A0200014630B40020C907BC
:103D900009D04048404B846B1022A44604211846A9
:103DA00030BC4038604730BC7047002804D03A49E6
:103DB00048394860002070471120704770B51046A0
:103DC00000240A782546022A03D01D8001242046BB
:103DD00070BD49684A780E781102304A3143D142A9
:103DE0001D8014D12C4E483E3278002AEFD029494C
:103DF0001A80C0394B692A49984735707068002885
:103E0000E5D001680029E2D000208847DFE70A24D6
:103E1000DDE770B5204D08780024483D022811D018
:103E200001246A78002A0BD06868002808D043680B
:103E3000002B05D01A4914310020984700206870E3
:103E4000204670BD4868417806780802134930431F
:103E5000C84205D11248DBB200216B70143005E076
:103E60000A24DEE7565C4654491C89B29942F9D3CC
:103E7000D7E710B50024142A01D9FE2010BD06484A
:103E8000483802700348C0384369054898472046BF
:103E900010BD000080590200D46200201F01FFFF06
:103EA000286700200448804704480047FEE7FEE7F3
:103EB000FEE7FEE7FEE70000A94B02009138020092
:103EC000F8B5624D5726614CA827203D0028267082
:103ED000277028880ED02115084328800A2001F079
:103EE0001FF9267027702888611508432880002054
:103EF0002070F8BD032149028843F7E7F0B5534C21
:103F000057261C228B07514DA8270A409B0F403C87
:103F100000282E702F7010D0080603D5E07BFD21FD
:103F20000840E073A07A1043A07248482038C17B53
:103F30001943C17300202870F0BD080603D5E07B4B
:103F400002210843E073A07A9043A0723F482038D2
:103F5000C17B9943EDE730B53C4C57233B4AA8253C
:103F6000403C002813701570E06804D08843E0607E
:103F70000020107030BD0843F9E730B5334C5723AB
:103F8000324AA825403C002813701570A07B04D04D
:103F90000843A0730020107030BD8843F9E7F8B5DE
:103FA0002A4D5726294C0021A827203D002826709D
:103FB00027700ED001206871287100202070012028
:103FC00001F0AEF8267027700D20287100202070B7
:103FD000F8BD29712170F8BD1D4801690422914383
:103FE000016130BF7047194B57241C70A8251D7004
:103FF00016494039887B0822104388730920134EE4
:104000000003203E308000271F70886B8A6B82423D
:10401000FBD1104A0A30904201D952428018020462
:10402000120C02D0012212048018302232741C704B
:104030001D7048632F2070741F701C701D70052048
:1040400008811F7040BF20BF20BFFEE74010004026
:1040500000ED00E00000C0A8C14A00211378037001
:10406000491CC9B2401C521C0829F7D37047BC4AEE
:10407000002113780370491CC9B2401C521C062948
:10408000F7D37047F8B504460025C00501D00120DC
:10409000F8BD112069460870B24E00203070707073
:1040A000B14F80207872087811300870AF480079DD
:1040B0000007000F0D2802D00120FFF770FF6946AE
:1040C000087811300870A9488179890701D0022049
:1040D000F8BD6A461178113111708179890704D1D0
:1040E0001178442901D157213170117811311170A3
:1040F0008079800707D11078552804D13078572867
:1041000001D1A820707010781130107030785728C5
:104110000ED17178A8290BD11178662908D17C605D
:104120007D21C9028C4201D2882100E0842179726C
:10413000117811311170572809D17078A82806D14B
:104140001078772803D1A62038727889C5B200206C
:1041500010703070707080207872402D01D0032074
:10416000F8BD0020F8BDFEB5054600260191800788
:1041700001D00120FEBD112069460870794F002052
:1041800038707870784C8020607208781130087030
:10419000764800790007000F0D2802D00120FFF7B4
:1041A000FEFE6946087811300870704988798007EA
:1041B00001D00220FEBD6A46107811301070887957
:1041C000C00704D11078442801D1572038701078E6
:1041D000113010708879C00707D11078552804D1A4
:1041E0003878572801D1A8207870107811301070D5
:1041F000387857280DD17978A8290AD111786629FD
:1042000007D17D22D202954201D2882100E084218B
:1042100061726A4611781131117057280CD1787883
:10422000A82809D11078772806D165600198206008
:104230009A2020726089C6B20020107038707870A1
:1042400080206072402E01D00320FEBD0020FEBD04
:10425000F7B50446002682B00D46800702D0012043
:1042600005B0F0BD1120694608703E48002101707C
:1042700041703D4F8020787269460878113008708F
:104280003A4800790007000F0D2802D00120FFF7FF
:1042900086FE6946087811300870344988798007AD
:1042A00001D00220DCE76A4610781130107088795E
:1042B000C00705D11078442802D12A48572202703D
:1042C0006A461078113010708879C00708D11078CC
:1042D000552805D123480178572901D1A8214170DB
:1042E0001078113010701F4A107857280ED151786D
:1042F000A8290BD169460978662907D17D23DB02FD
:104300009C4201D2882100E0842179726B461978A1
:1043100011311970572816D15078A82813D1187860
:10432000772810D100209A230AE07C6002CD396002
:104330003B727989241DCEB2402E04D1001D80B27B
:1043400004998842F1D300206946087010705070BB
:1043500080207872402E01D0032081E700207FE783
:1043600008060400EE620020001800402010004003
:10437000F0B5564A0021157E547E01261676507EF1
:104380000823184350769676907EC007FCD1967627
:10439000937EDB07FCD1978B4D4B401CBB435918D8
:1043A00080B21028F3D308310809517EF723194051
:1043B0005176157654760121C902081A00B2F0BD73
:1043C000028800290DD0012911D0022915D0032916
:1043D00006D140494A4391013F4A8918090C01809E
:1043E0007047F92189004A4391013C4AF5E7394970
:1043F000491E4A4391013A4AEFE736494A4391013F
:10440000384AEAE780010901C01C08432F49487671
:10441000704780010901401D08432C4948767047C8
:104420002A48C17E80221143C1760F2101762121C5
:104430004176704725480E21017603214176704769
:104440002248232141760821817670471F480121A7
:104450008176817EC907FCD1808B0005000D7047F5
:104460001A4908228A76C877887EC006FCD4888BD1
:104470000005000D704770B51B4D4021AB6B9AB223
:104480001C0C144B3E335843C00A0301002C05D0CA
:104490009001203318182201801A13E0686B040C75
:1044A000010A09190918050EC9B28D4201D0FF2071
:1044B00070BD1146E4B2520800049A184C43121918
:1044C000000B101A00F05EF970BD000040100040B3
:1044D000FF0F0000E60300008014340040B03700F6
:1044E00080C23700402136000006040010B500F0FD
:1044F000C1F9022801D900F0BDF910BDF8B5574C3B
:10450000E77E267E657EFFF78BFFA07E01210843B4
:10451000A076A07EC007FCD1A08BE77626766576D4
:10452000F8BD70B54E4C4E48403463688EB0C06BD9
:1045300012224CA19847002843D0484857210170C7
:10454000A82101705121454AC900403A118100213A
:1045500001704A48484A4261494A0723D5692D02F9
:104560002D0A46043543D561816103610169022248
:1045700091430161342223690021684698474148EC
:10458000009001204003694688801B20C8730520E5
:1045900008740120487414208874FB208002029063
:1045A0000D2008773848089038480A902C48803009
:1045B000C16A68468847010007D035A000F034FB87
:1045C000FEE73BA000F030FBFEE70EB070BD70B51B
:1045D0000C463C4D090408D5696B8847002801D07A
:1045E000296B88470120C00302E0E00702D00120C8
:1045F000604070BD344EA00407D53448406B8047FE
:104600002B6A0125324A6D0309E060040DD531A003
:1046100000F00AFB7D222B6AD2010125AD03294659
:10462000307898472046684070BD002070BD25480E
:1046300010B54030816828488847234C207000F02E
:1046400067F862B61F480121036A214A49032078AE
:10465000984710BD1B484030006B00474010004099
:104660008058020043483537785F424C455F4C49DB
:10467000425F56312E380000FEFFFF0000E000E0F0
:1046800004ED00E000380020814B0200FD440200F0
:104690004C494220696E6974206572726F722063A2
:1046A0006F64653A202578202E2E2E0A0000000027
:1046B000686561642066696C65206572726F722E30
:1046C0002E2E0A00C0580200F0620020405A02005C
:1046D00000EE02002A200000CF4502000104090C70
:1046E00002D0012109044018174957220A70A82254
:1046F0000A70154940394863144900200860704722
:104700001149302020390874104901200860704791
:104710001CB50D4857210170A82101700A492039A4
:10472000CA7B07231A43CA730021017000910B460C
:10473000012201911146064800F090F90548C16B2D
:10474000002088471CBD000040100040F46200209B
:10475000E4070000C058020030B50B4601460020B7
:104760002022012409E00D46D5409D4205D31D4677
:104770009540491B2546954040191546521E002D6F
:10478000F1DC30BD70B500242546002801DA012493
:104790004042002901DA01254942FFF7DDFFAC4222
:1047A00000D04042002C00D0494270BDF0B51FB48B
:1047B0000646002082B005464024019100901BE08F
:1047C000019922460F46304600F042F8049A059BB4
:1047D000801A994110D310461946224600F028F855
:1047E000361A8F410197224601200021009F00F0D8
:1047F0001FF838184D4100902046641E0028DFDC69
:10480000019B00982946324607B0F0BD064C0125B1
:10481000064E05E0E36807CC2B430C3C9847103468
:10482000B442F7D3FFF738F84C5102007C51020034
:1048300010B5202A04DB0146203A9140002010BD2B
:10484000914020239C1A0346E3401943904010BD39
:1048500010B5202A04DB0846203AD040002110BDC4
:104860000B46D340D0402024A21A91400843194659
:1048700010BD0000FEB5514800270089C0B20106F6
:104880008A0F022A4ED00124A403012A4ED0890F98
:1048900058D00524002000902005000D01904748C5
:1048A00020308489002645495722403130460A701D
:1048B000A8220A7001238B744049572240310A70A4
:1048C000A8220A703D4A2032948100220A708A7C14
:1048D0009207FCD50A8A8A7C9207FCD48A7C9207CC
:1048E000FCD5098A019A7F1C891A0DB2FFB2002DEE
:1048F00037D02946714305D5012834D0411C32D028
:10490000002830D02E46029430460099FFF73AFF37
:1049100000B2211A8CB202998C424AD1002D46DD98
:10492000641C45E00220264CC043B4E7C506ED0EEA
:1049300029462448FFF710FF0019C40B2320C04369
:10494000401B09E0C506ED0E29461F48FFF704FF8E
:104950000019C40BA81C40422946FFF713FF00B200
:1049600099E70020FEBD002E03DA761EF04306B262
:1049700002E06D1EE84305B2B54210DD0F48572135
:1049800040300170A82101700C4A029920329181B7
:10499000002101707D20C0007043019903E07D205B
:1049A000C00068431146FFF7EDFE80B2FEBD641EF5
:1049B000A4B2142F80D3FF20FEBD000000100040E1
:1049C0001313000000180D8F0068890900B5124A02
:1049D0000B0000F039F90504071016191F00516B80
:1049E00081430AE0516B81435163116B01431163B1
:1049F000116A81430DE0516B01435163116B814397
:104A0000F5E7516B814301E0516B01435163116A3A
:104A10000143116200BD00008010004010B50C4839
:104A20000089C1B20B069A0F0A48022A05D0012A52
:104A300004D09A0F06D07D20000210BDC906C90E11
:104A4000054801E0C906C90EFFF786FE10BD00004B
:104A5000001000400048E80100389C1CFFB581B000
:104A60000C460746054600261AE0FF219131681ED4
:104A7000FFF788FE00290AD06421681EFFF782FE36
:104A8000002907D00320A9078007C14202D1FF20D7
:104A90006F3001E0FF206E3080196D1E86B2ADB21E
:104AA00035488542E1D80025012C25D9032C05D0B5
:104AB000A01E062816DDE00718D115E0FF21913170
:104AC0003846FFF749FE00290AD064213846FFF72F
:104AD00043FE002901D0B80702D000201C3006E0B8
:104AE0000120FBE7E00701D01E2000E01F20801915
:104AF000641E86B2A4B2D7E7039818213018401E6E
:104B000084B20498FFF728FEE120C00041430A98D0
:104B10001E22504309180B984008081881B20B98C0
:104B2000C00701D00120C0030A0402431348C17B1F
:104B30006B46C909C9011970C17B1B78C909C90134
:104B40009942F4D1694609780029F0D00B495723DE
:104B500020310B70A8230B70084B203B5C63447C16
:104B60008026344344745A63427C40231A4342747F
:104B70000D7005B0F0BD0000E407000020100040FB
:104B8000014880697047000000E000E005485721B7
:104B90000170A821017081790122114381710021E6
:104BA000017070474010004010B50B48572101704C
:104BB000A8210170084A8821403A11810189042204
:104BC00011430181002101700A2000F0A9FA01209F
:104BD000FFF7E5F910BD00004010004010B5044695
:104BE000FFF71CFF0A214843C0082146FFF7B4FD28
:104BF0000A21401DFFF7B0FD0149888110BD00006A
:104C00000034004010B5E1204002FFF7E7FF0548FF
:104C1000872181700321C17040214170012181737E
:104C200010BD0000003400400FB410B503A9044BC0
:104C3000044A029800F024F810BC08BC04B01847DD
:104C4000F5500200F862002030B47446641E2578E6
:104C5000641CAB4200D21D46635D5B00E31830BCB0
:104C6000184702E008C8121F08C1002AFAD170478D
:104C70007047002001E001C1121F002AFBD17047DC
:104C8000FFB591B00F460546002606E025280AD05C
:104C9000149A139990476D1C761C28780028F5D13A
:104CA000304615B0F0BD002400940121F34A02946F
:104CB00000E004436D1C2B780846203B98401042CE
:104CC000F7D128782A280ED0022128780246303AD7
:104CD000092A15D8009A0A235A43303A80180C43FF
:104CE0006D1C0090F1E701CF0090002805DA01204B
:104CF00040030443009840420090022004436D1C8E
:104D000028782E2815D10420044368786D1C2A28A1
:104D10000AD101CF6D1C02900BE002990A22514387
:104D2000303940186D1C0290287801463039092925
:104D3000F3D928786C2810D006DC4C281AD06828C3
:104D40000ED06A2817D104E0742813D07A2812D123
:104D500010E00120400504430CE00121090501E0B9
:104D6000032109050C436978814203D10120000524
:104D700024186D1C6D1C287803906E281ED00CDC46
:104D8000632831D004DC00288AD0582811D1B2E041
:104D900064287BD069280CD178E073282DD004DCFE
:104DA0006F2870D0702804D1A7E075286CD07828BF
:104DB0006BD0149A13999047761C62E06002400F02
:104DC000022807D003280AD0042838680AD00660D1
:104DD0003F1D56E03868F11706604160F8E7386813
:104DE0000680F5E70670F3E7387869460874002016
:104DF000487404A80390012003E038680390002061
:104E0000C0433F1D61070FD5002101E00199491CF6
:104E1000029A0191914213DA8142F7DB019A0399D8
:104E2000895C0029F2D10BE0002101E00199491CC5
:104E300001918142FADB019A0399895C0029F5D13D
:104E400001990098139A401A00902146149B00F093
:104E50003BF901998019461807E0039803990078F7
:104E6000491C0391149A139990470198401E019090
:104E7000401CF2D12146149B139A009800F014F9BB
:104E800086196D1C09E741E033E034E00A20002177
:104E9000049005916002410F022905D001CFC2178D
:104EA0009446032905D007E0FF1DFF08FF0003CF4C
:104EB00006E000B2C2179446042902D140B2C117DD
:104EC0008C4600226146944506DA0A46002140429B
:104ED00091418C462D2102E0210504D52B216A4603
:104EE0001176012103E0E10701D02021F7E70191CC
:104EF00054E00A200BE0102009E01020049000216B
:104F00000420044308200591029003E008200021BA
:104F1000059104906002410F022905D001CF0022C3
:104F20009446032906D006E0FF1DFF08FF0003CFCB
:104F30008C4603E080B2042900D1C0B20021019167
:104F400021072BD50399702906D0049A1021059BBF
:104F50004A401A4305D00EE040216A4611760121ED
:104F600008E06146014306D030216A461176039974
:104F7000517602210191049A0821059B4A401A4367
:104F80000CD16146014301D1610707D530216A4642
:104F90001176012101910299491E02910399582924
:104FA00004D037A103910FA90F910DE039A1F9E7C2
:104FB0006146059B049AFFF7F9FB039B8C469B5CBB
:104FC0000F9A521E0F92137061460143F0D10F9851
:104FD00007A9081A20300390600704D501200004B7
:104FE0008443029801E0012002900399884201DD88
:104FF000401A00E00020411802900198091800981A
:10500000401A0090E00306D42146149B139A00989E
:1050100000F05AF886190020049008E006A9085C00
:10502000149A139990470498401C761C0490019997
:105030008842F3DBE0030CD52146149B139A0098B9
:1050400000F042F8861904E0149A30201399904732
:10505000761C0299481E02900029F5DC08E00F98A2
:105060000F990078491C0F91149A13999047761C58
:105070000399481E03900029F1DCFBE60928010092
:1050800030313233343536373839616263646566BE
:105090000000000030313233343536373839414280
:1050A0004344454600000000F8B5044600251E466E
:1050B0001746880404D405E039462020B0476D1C0B
:1050C000641EF9D52846F8BDFFB50446002581B019
:1050D0001E46C80301D5302700E02027880404D5E8
:1050E00005E038460399B0476D1C641EF9D5284683
:1050F00005B0F0BD0249CA7A082AFCD00872704790
:105100000034004070B500247D260546F60004E01A
:10511000304600F005F8641CA4B2AC42F8D370BD70
:1051200000220AE0022101E000BF00BF0B46491E39
:1051300089B2002BF8D1521C92B28242F2D370474E
:10514000E0FEE1FE02000000405102007C5102003E
:105150000060002020020000624C02009C5302000C
:1051600020620020DC000000624C02007854020043
:10517000FC62002054040000724C0200804A0020AF
:10518000917A57250B077E49A8264031002B05DB75
:105190000D700E70937A0824234393720D700E7075
:1051A00005231381764F20373B8803246402A343F1
:1051B0003B80937A10242343937200220A700123C8
:1051C000BC79E40701D00020FAE77D242401401CCB
:1051D000A042F5D90D700E708B710A70F0E770B5B2
:1051E000674D2035A87B664940318C7B03221443F0
:1051F0002A8B644B9A4202D980088000401C5722B7
:105200000A70A8220A705E4AD37BF7263340D37314
:1052100000232B71A8738C73052010810B705A48E2
:10522000026904242243026130BF0B70012000F0A8
:10523000AFF870BDF0B5524A2032917B50484030F3
:10524000877B0323128B1F434E4B9A4202D9890856
:105250008900491C57240470A8250570484EF27B2C
:1052600008231A43F273464A0023203213719173C4
:10527000877305213181037043490E6904273E433A
:105280000E6130BF037004700570012151711171FE
:10529000037000BF00BF047005700D211171037011
:1052A000F0BDF0B5364B20339A7B354940318E7BCB
:1052B000032426431C8B334DAC4202D99208920042
:1052C000521C57240C70A8250D70304F384318809D
:1052D000002008700C700D7018719A738E73284E30
:1052E000052232810870284A166904273E43166158
:1052F00030BF08700C700D7001225A711A7108705D
:1053000000BF00BF0C700D700D221A710870F0BD47
:10531000F0B51B4B20339A7B194940318E7B032417
:1053200026431C8B174DAC4202D992089200521CA6
:1053300057240C70A8250D7009273F03C019188049
:10534000002008700C700D7018719A738E730C4EDB
:105350000522328108700C4A166904273E43166103
:1053600030BF08700C700D7001225A711A710870EC
:1053700000BF00BF0C700D700D221A710870F0BDD7
:1053800000100040FF3F000000ED00E0049000002E
:1053900003B40148019001BD9F3F0200FF000000DF
:1053A00000000000000000000000000000000000FD
:1053B00000000000000000000201060302E0FF0000
:1053C000FB3B0200053C020012094F5441204F54A0
:1053D00041204F5441204F54412021051206000C1A
:1053E00000020A000000004F5441204F5441204F5A
:1053F0005441204F5441202100000000E5390200B3
:10540000000000000000000000000000000000009C
:105410000200000094580200010000004451020004
:10542000020000009A58020001000000E062002023
:10543000020000004251020003000000E16200206F
:10544000020000009E58020001000000E2620020FD
:10545000BD3D0200133E0200000000000E004F544C
:1054600041204368616E6E656C0000000000000022
:08547000000000000000000034
:04000005000238912C
:00000001FF
