:020000040000FA
:1000000000800020A5000000B9810000AF000000C2
:1000100000000000000000000000000000000000E0
:10002000000000000000000000000000AF00000021
:100030000000000000000000B1000000B30000005C
:10004000B5000000B5000000B5000000B5000000DC
:10005000B5000000A95B0000B5000000B50000007D
:10006000B5000000B5000000B5000000B5000000BC
:10007000A59F0000B5000000B5000000B50000001D
:10008000B5000000B5000000B5000000B50000009C
:100090000348854600F016FF00480047C9A7010045
:1000A000008000200448804704480047FEE7FEE740
:1000B000FEE7FEE7FEE700009DA6000091000000BD
:1000C0002E4611462D1B804145402D1AC91ABF41AD
:1000D0007940C91B47408946A846210CA4B2204656
:1000E00095B2120C68434D43544351432204240CEF
:1000F000801861412A042C0C80186141340CB6B27E
:100100009DB21B0C32466A4365435E4363432C0435
:100110002D0C12196B413404350C12196B417640C9
:1001200052187341494645468046080C89B20C4630
:100130002E0CADB269437443454370432604240C2E
:10014000891960412E042D0C891968417940784045
:1001500064407F10514142416741404609185A416D
:100160007B41704700B5FFF7ABFF03B451469246A1
:1001700033C922462F46121A8F41B641724077404A
:10018000921BB74184B45A469B460FCA801A9941C4
:10019000BF4178407940C01BB9417740BC4603B4A9
:1001A000FFF78EFF54465D46764000196941724163
:1001B000734192469B463CBC03B4FFF781FF30BCC1
:1001C00066466746704071407240734076106041E9
:1001D000694154415D415240564157410CBC9046E3
:1001E000994612184B415046594644414D414641AB
:1001F0004F4100BD01B590B006B492468B46104603
:1002000030C808300CC9083103B4FFF7ABFF06A8AB
:100210000CC004A842464B460CC006BCF0B48A464B
:10022000934630C90CCAFFF79DFF40464946B04689
:10023000B946C0BC80197941C0BC72417B4106AF50
:100240000FC7BA46404046464F46444145414641A5
:10025000474106BC9446F0B4FFC9001BA941B24116
:10026000BB416440A4416040614062406340001B68
:10027000A141A241A3416646A44655460FC5AB46DF
:1002800080468946FFCE241A8D4196419F414040C9
:1002900080414440454046404740241A85418641BC
:1002A0008741614648405946F0C101B442464B4639
:1002B000FFF758FF01BC844642404340444045405C
:1002C00046404740F0B408A9F0C949464140A2461B
:1002D00044464010604054466041694172417B4150
:1002E00064406441A2460CACF0CC001969417241F3
:1002F0007B41A1460CAC0FC40FBC4C4644414D4160
:1003000056415F410021494150468A4640100FBC8A
:1003100044414D4156415F41804608A8F0C04046E7
:1003200066465546644075416641401971417241C7
:1003300073410CAF0FC7FFBC1B184C4155414641E0
:1003400090469946A246AB46B4464F413CBC42411A
:100350004B4100267441754176413F1A8A4140461F
:10036000494683418C4100208541864160464018C2
:10037000844650464741BE46404642414B41444177
:100380004D4100277E4103BC361879417F415846D4
:100390001218904662465341994653465C41A24624
:1003A00045415E41414114BC7A4100277C417F4177
:1003B000ED1A8641634670469941824100239C4173
:1003C0009F41A646BB46544624185D4167467E4180
:1003D00041417A417746474158465841DB1A8246A7
:1003E00040465841BB464F465F418446B9465C4152
:1003F0009D419E41994101239A4100235846574609
:1004000058419F419046624683464B46D2197B41F4
:100410007C41002045414641414101BC7CC0012551
:100420003D4042465B466A417B410EC000BDA0B2E2
:10043000210C02464A4340434943D30B52048018DF
:100440005941641BB6417440A41BAAB22B0C15463B
:100450005D4352435B43EE0B6D045219734100261A
:1004600052187341250CA4B22146694364436D437D
:10047000CE0B4904641875411146091BAA411D465B
:100480000026B34109186A417341704700B5204600
:100490002946801BB941924150405140801A9141F8
:1004A00080468946B246FFF7C2FF54463D46824623
:1004B0008B4694461F46FFF7BAFF64460019794100
:1004C000724173411F468446444688464D469146D4
:1004D000FFF7ADFF644645464E46241A8D4130462F
:1004E000394690419941002296419741524612194E
:1004F0005B466B416446444145464D4100204641C0
:1005000047415046594600BD01B590B002B4F0C90C
:10051000FFF7BCFFF0B405AC0FC4049C1034F0CC62
:10052000FFF7B4FFA046A946B246BB46F0BC00198F
:10053000694172417B4144464D4656465F4680467E
:10054000002044414541464147414046FFB4089C94
:10055000FFCC241A8D4196419F4180414440454043
:1005600046404740241A854186418741FFF78EFF68
:10057000C043C943D243DB43E443ED43F643FF4367
:10058000A046A946B246BB46241BF0BC6041694167
:1005900072417B41A44609AC0FC4644640466041A9
:1005A00080464946694189465246724192465B46B9
:1005B0007B419B4600204041844605A8FFC80019A6
:1005C000694172417B4109AC0FC46846F0C841469D
:1005D0004C4149464D4151464E4159464F410DA867
:1005E000F0C0F0BC61460022D24351410A116418A8
:1005F000554156415741F0C001B09CE601B519C9BB
:10060000E0CA401973417C4180469946A24660C9C0
:1006100018CA5D4166411AC985CA414153417C41AE
:1006200000277F41001A4246B8464F46A14654462D
:10063000424192464741BB46444185418641814102
:100640000120834100204A4642414746874198465F
:100650005B4693465246D9E601B519C9E0CA401B2C
:10066000B341BC4180469946A24660C918CA9D4123
:10067000A6411AC985CA81419341BC41BF41424646
:100680009846A3464B465446C0E6012102C00021CD
:10069000002206C006C006C002C020387047F0B570
:1006A00001A2FFF7A7FDF0BD03000000000000005D
:1006B000FFFFFFFFFBFFFFFFFEFFFFFFFFFFFFFF4F
:1006C000FDFFFFFF04000000F0B5002200230CB482
:1006D0000CB40CB401220CB46A46FFF78BFD08B0D1
:1006E000F0BD01B50FA200F0E3F80098403005A17D
:1006F00000F020F804D003A00099403100F01AF86F
:1007000002BD0000DFBDC42962DF9CD89030847830
:10071000CD05F0ACD62E21F7AB20A2E534488704F6
:100720001D0630DC402030211311134113411341C9
:100730000145000070B56D1BEE43082208C810C9C2
:10074000A34132441242F9D16D41284670BDF0B543
:1007500001246542A846A41A082620C980CBAF41CF
:10076000574365432F4480C046443642F5D1F0BD1F
:1007700030B53CC93CC03CC93CC030BD202202441D
:100780000B780370013101309042F9D17047F4B514
:10079000042641B40027B846B946BA46BB46BC4613
:1007A000BE4602987840EFF30080800F1CC9424398
:1007B0004343444390449944A2441CC942434343A5
:1007C000444393449C44A64448310137082FE8D160
:1007D00041BC42464B4654461CC05A46634674468A
:1007E0001CC0F839F839F839013ED2D1F1BD0EA25A
:1007F0005EE001A25CE00000802030138010401415
:10080000502161105111711130433022531585155B
:100810003213414402104022131123430032324369
:10082000034242122144000080207815603160406C
:10083000011000510130002170244022641444331F
:100840001343434101100244000081460F460FCF7D
:10085000C607F517F60F0024401969416A41634144
:100860000FB40FCF6041614172416B41002464417C
:10087000E7075E083743DE0755082E43D5074C08C7
:100880002543CC0743081C43C30748461030F0C03B
:100890001F460FBC5E083743DE0755082E43D507B9
:1008A0004C082543CC0743081C434846F0C070471A
:1008B000F0B598B020230C46CD18EE1870B404465D
:1008C000C518EE1870B406ACE518EE1870B43C24E8
:1008D0006D461388023204B49A002240AA5899083F
:1008E0002140695898092040285804A59E0A2640AE
:1008F00003D0AE59B04704BCE9E722B0F0BD000018
:10090000F501000009050000FD0500005906000082
:100910004B08000005B5002907D002B40198014634
:10092000FFF7F2FD02BC0139F7D103BC0246FFF725
:1009300061FC00BD01B5FFC8FFB4089801216A46FB
:10094000FFF7E8FF0898FFC8FFB410980146FFF7CB
:10095000DBFD10980146FFF7D7FD1098FFC8FFB4E4
:100960001898694608AAFFF745FC08A81899FFF7E8
:10097000FFFE189F00240CA210570132155D86005F
:1009800004D588B068463946FFF7F2FE3846F1B222
:100990002A466A4490B4FFF7BDFF90BC0234162C7F
:1009A000E9D131B000BD000001208200840088A0A0
:1009B00020000800042002400180016000A0F1B581
:1009C0004030FFC8FFB46846FFF7B4FF694688B0FF
:1009D0006846FFF799FD08A96A460846FFF70AFC32
:1009E000694610980246FFF705FC08A910982030C8
:1009F0000246FFF7FFFB11B0F0BD4242C3171340A0
:100A0000D217104018437047F0B544464D4656463D
:100A10005F46F3B4C0B01E0408A81146FFF7AEFE4F
:100A20006846FFF732FE08A86946FFF783FE01D14A
:100A300042B0C4E008A870A1FFF77CFE0138F7D0EF
:100A4000684608A90A6801231A405A4016446AA356
:100A5000FFF77DFE18A900980007000F01226C46E1
:100A600001255308E35CD7077F0FFB401B071B0FD3
:100A700001271F406F403F01C01B087001312B430D
:100A800018460132402AECD108704199E0B0E0B03C
:100A90006846FFF773FEFFF771FE68464EA1FFF749
:100AA00049FE013802D160B060B0C1E708A84AA190
:100AB000FFF740FE0138F6D068466946FFF7EFFDC4
:100AC00008A808A9FFF7EBFD6846FFF70AFE002813
:100AD000E9D010A8FFF7D9FD0146FFF7E0FDA8A86F
:100AE0006946FFF784FE18AC07252046A8A9FFF742
:100AF0003FFEFFF73DFEFFF73BFE20460146603913
:100B0000FFF777FE6034013DEFD1E8AF013F387861
:100B1000013F40B2FFF771FF4208C0A86946FFF7E6
:100B200036FED8AD0424C0A80146FFF760FE013CA4
:100B3000F9D13878013F40B2C40FFFF75EFF420899
:100B4000E8A86946FFF723FEF0A80146224622A343
:100B5000FFF7FDFDAF4203DAA8A8C0A9FFF747FEE3
:100B6000C0A8E8A9FFF745FEAF42DBDA6846FFF709
:100B70008CFDD0A86946FFF7DDFD821DE8A818A905
:100B8000FFF705FE74B074B06846FFF718FF6846BB
:100B90006946FFF799FD08A808A9FFF795FD08A881
:100BA00008A9F2B20CA3FFF7D2FD18986946FFF727
:100BB000E5FD360C01D0FFF7E1FD01201AB0F0BCD5
:100BC000A046A946B246BB46F0BD0A4612A1012383
:100BD0001AE7002318E70000FFFFFFFFFFFFFFFFFA
:100BE000FFFFFFFF00000000000000000000000009
:100BF00001000000FFFFFFFF512563FCC2CAB9F3EB
:100C0000849E17A7ADFAE6BCFFFFFFFFFFFFFFFFC3
:100C100000000000FFFFFFFF96C298D84539A1F4FD
:100C2000A033EB2D817D0377F240A463E5E6BCF8A9
:100C300047422CE1F2D1176BF551BF376840B6CB74
:100C4000CE5E316B5733CE2B169E0F7C4AEBE78E70
:100C50009B7F1AFEE242E34F30B50B46014600206F
:100C60002022012409E00D46D5409D4205D31D46B2
:100C70009540491B2546954040191546521E002DAA
:100C8000F1DC30BD70B500242546002801DA0124CE
:100C90004042002901DA01254942FFF7DDFFAC425D
:100CA00000D04042002C00D0494270BDF8B500246D
:100CB0002546002904DA0E46012400214042B141B4
:100CC000002B04DA1E46002352420125B34100F0F6
:100CD000B7F88C4617461E46AC4203D0002540426A
:100CE0008D41AC46002C02D0002657429E41614601
:100CF0003A46334601B0F0BDF0B51FB486B00020CF
:100D00000090019002900698069980B2049007988E
:100D1000090C02040014114307900027089D09984C
:100D200006913E463C4603900398A9B20204000C8B
:100D3000039004982D0C154348430021224600F0EF
:100D400018F8C719714110340E46402CECDB3846B8
:100D5000029A00F00EF8009A019B80180090594109
:100D600002980191103002904028CCDB00980BB023
:100D7000F0BD10B5202A04DB0146203A9140002046
:100D800010BD914020239C1A0346E3401943904034
:100D900010BD10B503461C460C43A40703D009E060
:100DA00010C9121F10C3042AFAD203E00C781C7079
:100DB000491C5B1C521EF9D210BDD2B201E0027078
:100DC000401C491EFBD270470022F6E710B51346BF
:100DD0000A4604461946FFF7F0FF204610BD421CA4
:100DE0000178401C0029FBD1801A704710B5002201
:100DF00000E0521C835C8C5CA34201D1002BF8D133
:100E0000D8B2E1B2401A10BD30B504460020034606
:100E100000E05B1C934203D2E05CCD5C401BF8D049
:100E200030BD30B505460020034600E05B1C934210
:100E300005D2EC5CC85C201A01D1002CF6D130BD83
:100E4000F0B51FB40646002082B00546402401914B
:100E500000901BE0019922460F46304600F020F832
:100E6000049A059B801A994110D3104619462246D0
:100E7000FFF77FFF361A8F4101972246012000219C
:100E8000009FFFF776FF38184D4100902046641E02
:100E90000028DFDC019B00982946324607B0F0BDF0
:100EA00010B5202A04DB0846203AD040002110BDAE
:100EB0000B46D340D0402024A21A91400843194643
:100EC00010BD0000064C0125064E05E0E36807CC86
:100ED0002B430C3C98471034B442F7D3FFF7DCF8AF
:100EE000445702006457020070B58C180578401C06
:100EF0006B075B0F01D10378401C2A1106D10278E1
:100F0000401C03E006780E70401C491C5B1EF9D1A2
:100F10002B0705D40023521E0DD40B70491CFAE791
:100F20000378401CCB1A921C03E01D780D70491CFD
:100F30005B1C521EF9D5A142D8D3002070BD000021
:100F40000448C17E80221143C1760F210176212100
:100F5000417670474010004010B5124C2068C00523
:100F60001FD50320206000200821401C2268C0B249
:100F70000A4322600EE02268920510D4222807D985
:100F80000948026B002A0AD001210320904706E09D
:100F9000401CC0B22268D205EDD50028E5D1002062
:100FA000206010BD80C300408032002070B5144620
:100FB0000D460646FFF7D0FF2D4803681968062244
:100FC00091431960316899627168D962B168196397
:100FD000F1685963296899616968D961A9681962DA
:100FE000E968596259680222914359605D6801219C
:100FF0000D435D601D680D431D6000E000BF596832
:101000008907FBD559689143596099692170016836
:101010008969090A617001688969090CA170016810
:101020008969090EE1700068C1692171C169090A05
:101030006171C169090CA171C169090EE171016A8F
:101040002172016A090A6172016A090CA172016ABE
:10105000090EE172416A2173416A090A6173416AAA
:10106000090CA173406A000EE073002070BD0000FF
:101070006C06002070B50C460546FFF76DFF28484A
:101080000268106820218843E907890E0843106030
:101090008034E06C1061206D5061E0699061206ADD
:1010A000D061606A1062A06A5062E06A9062206B50
:1010B000D062606B1063A06B5063E06B9060206C3B
:1010C000D060D168236C1748994204D0026B002A83
:1010D0001ED0202107E0916AE36A994206D0026B94
:1010E000002A15D021210320904711E0D169236AFD
:1010F000994204D0026B002A0AD02221F3E7116939
:10110000E36C994206D0026B002A01D02321EAE762
:10111000012070BD1068402108431060002070BDA0
:101120006C0600208032002070B50C460546FFF7A3
:1011300013FF28480268106820218843E907890EB8
:10114000084310608034606C1061A06C5061E069ED
:101150009061206AD061606A1062A06A5062E06AA1
:101160009062206BD062606B1063A06B5063E06B89
:101170009060206CD060D168236C1748994204D0ED
:10118000026B002A1ED0102107E0916AE36A99429F
:1011900006D0026B002A15D011210320904711E0E0
:1011A000D169236A994204D0026B002A0AD0122125
:1011B000F3E71169636C994206D0026B002A01D0F3
:1011C0001321EAE7012070BD106840210843106038
:1011D000002070BD6C0600208032002010B505F0A4
:1011E000C1F9024903F075FF002010BD060400009C
:1011F0000148006E704700000C3A002008B5002836
:1012000008D0002906D0002A04D01088002801D078
:10121000002008BD1220694608706A460121034873
:1012200003F053FF6946087808BD0000350C000044
:1012300008B504F0BDFC694608706A460121034800
:1012400003F043FF6946087808BD0000272000002E
:1012500008B504F0F7FC694608706A4601210348A6
:1012600003F033FF6946087808BD00001120000034
:1012700008B504F02FFE694608706A46012103484C
:1012800003F023FF6946087808BD0000292000000C
:1012900008B504F025FE694608706A460121034836
:1012A00003F013FF6946087808BD00001020000015
:1012B000FEB508AF70CF6F4670C704F037FE044626
:1012C000024903F006FF2046FEBD00001320000087
:1012D00008B505F037F9694608706A4601210248E9
:1012E00003F0F3FE002008BD0E20000038B50446D0
:1012F00005F0B3FB694608704C70200A88706A4696
:101300000321024803F0E1FE002038BD1B2000004D
:1013100038B5044605F0BAFB694608704C70200ADF
:1013200088706A460321024803F0CFFE002038BDD2
:101330001A2000000EB500A8013005F00AFF69462A
:1013400008706A460921024803F0BFFE00200EBD66
:101350001820000008B500A8013005F0FFFA694622
:1013600008706A460421034803F0AFFE6946087816
:1013700008BD00000220000038B5044605F050FF0B
:10138000694608704C70200A88706A46032102483A
:1013900003F09BFE002038BD212000007FB50446ED
:1013A00008A861C8009002960195204605F050FFFC
:1013B000694608734C73200A887303AA0321034803
:1013C00003F083FE002004B070BD00002020000068
:1013D00008B506F07FFA694608706A46012103489D
:1013E00003F073FE6946087808BD00002D20000058
:1013F00008B506F00DFB694608706A4601210348EE
:1014000003F063FE6946087808BD0000082000006C
:1014100008B506F085FA694608706A460121034856
:1014200003F053FE6946087808BD00000A2000005A
:10143000F0B585B00AACF0CC03976F4670C706F0E4
:1014400007FB6946087404AA0121034803F03DFE26
:101450006946087C05B0F0BD0620000008B506F01E
:1014600081FB694608706A460121034803F02DFE9E
:101470006946087808BD00000520000008B506F0A0
:10148000AFFB694608706A460121034803F01DFE60
:101490006946087808BD00002E20000008B506F057
:1014A000B5FB694608706A460121034803F00DFE4A
:1014B0006946087808BD00000C20000008B506F059
:1014C000E7FB694608706A460121034803F0FDFD09
:1014D0006946087808BD00000920000010B506F034
:1014E0003EFC024903F0F5FD002010BD192000006C
:1014F00010B505F00BFB10BD1CB500A8013005F0C0
:1015000037FE694608706A460721034803F0DDFD8F
:10151000694608781CBD00000910000038B500A914
:101520000446033105F034FE694608704C70200A09
:1015300088706A460421034803F0C7FD69460878AD
:1015400038BD00000514000010B506F0D7F810BD36
:101550000A7802708A7842704A88120A8270097981
:10156000C170042070470A7802700988090A417026
:101570000220704708888004000C70478A78027047
:1015800088780128088804D012214843401C80B282
:1015900070478000FAE70A7802700A88120A4270DF
:1015A0004888801C80B270470A7802700A88120A44
:1015B00042708A7882704A88120AC2708888001D38
:1015C00080B27047088870478A7802700888498816
:1015D0004843401C80B270478A7802700888498866
:1015E0004843401C80B2704708887047088870479D
:1015F0007FB515460446022901D0102903D1022BDC
:1016000004D0102B02D0002004B070BD994202D14A
:101610000A46294607E01029694607D000F00EF86F
:1016200010226946284622F0A3F8EDE7104600F0A4
:1016300005F8102269462046F5E7000070B50C4613
:1016400005000CD0002C0AD010220649204622F0BA
:101650009DF82878207368786073012070BD0020A1
:1016600070BD0000F052020008B500220B46009247
:10167000012202490AF062FB08BD0000511500007A
:1016800008B50A88172A07D300220B4600920322C6
:1016900002490AF053FB08BD022008BD671500008F
:1016A00008B500210B46192200910AF047FB08BD3E
:1016B00038B5054608880C4600280DD0606800281B
:1016C0000AD0012122F010F8009023460722034996
:1016D00028460AF033FB38BD022038BD75150000DE
:1016E00038B5054688780C46012801D0022810D16B
:1016F000208800280DD0606800280AD0022121F03F
:10170000F3FF009023460522034928460AF016FB02
:1017100038BD022038BD00007D150000064910B517
:10172000884202D104F0BCF810BD16F003F900287D
:10173000FAD1172010BD0000FEFF000038B50546A5
:101740004A6800200C46002A03D00321104621F0ED
:10175000CBFF009023461D22024928460AF0AAFA30
:1017600038BD00009715000038B505464A680020CE
:101770000C46002A03D00321104621F0B5FF00904B
:1017800023461B22024928460AF094FA38BD00007D
:101790009715000002480021016041607047000079
:1017A000900600200098022B01D004207047517849
:1017B0001278090211430180002070470098012B24
:1017C00001D004207047117801700020704770B577
:1017D000049C1E461546062B1BD368782978000208
:1017E00008432080E878A97800020843608002203E
:1017F00020710246291D601D21F0C8FFB01F208105
:10180000062E03D0AD1DE560002070BD0020E06015
:10181000FAE7042070BD0098042B01D00420704723
:1018200051781378090219430180D178927809021E
:101830001143418000207047F8B5C4880D46002C44
:101840002BD086683778390601D4002010E00D2CA3
:1018500023D30C3CA4B23119009140882346324670
:10186000012108F03DFE002801D0022000E0012007
:1018700079062870C90FBA066970920EAA70641EA4
:101880002204120CAA8002D0761CAE6001E0002275
:10189000AA60022803D1002901D00120F8BD002050
:1018A000F8BD10B50298042B14D3517814780902AE
:1018B00021430180D1789478090221434180191F86
:1018C0008180042B02D0121D826001E00021816022
:1018D000002010BD042010BD0098042B01D004206E
:1018E000704751781378090219430180D1789278B2
:1018F0000902114341800020704710B5029811463B
:10190000062B03D0142B03D0042010BD022200E0CC
:10191000102202714A780B7812021A430280CA78A8
:101920008B7812021A4342800279401D091D21F072
:101930002DFF002010BD0098D90706D1022B04D03E
:101940005908818002600020704704207047009889
:10195000022B01D0042070475178127809021143FC
:1019600001800020704710B5029C022B11D3207219
:10197000617250781178000208432080981E6080C0
:10198000022B02D0921C626001E000206060002007
:1019900010BD042010BD000038B5054688680C460F
:1019A000002802D0052121F09FFE00902346172237
:1019B000024928460AF0C2F938BD0000A915000006
:1019C00038B5054648680C46002802D0012121F0B0
:1019D0008BFE009023460D22024928460AF0AEF9FC
:1019E00038BD0000C515000038B5054608880C460E
:1019F00000280DD0606800280AD0022121F074FE72
:101A0000009023461122034928460AF097F938BD71
:101A1000022038BDC915000038B5054608880C46B7
:101A200000280DD0606800280AD0022121F05CFE59
:101A3000009023460922034928460AF07FF938BD61
:101A4000022038BDD915000038B5054648680C4657
:101A500000280AD0012121F047FE009023460F22E2
:101A6000034928460AF06AF938BD022038BD000053
:101A7000E915000038B505464A6800200C46002AE2
:101A800003D00121104621F02FFE009023460B22A7
:101A9000024928460AF052F938BD0000ED15000051
:101AA00001490860704700009006002070B50546A7
:101AB00008480C46854205D0172C03D303F0F0FEEE
:101AC000A04201D2012070BD2146284615F0F2FF48
:101AD00070BD0000FEFF000008B500210B46132278
:101AE00000910AF02BF908BD10B501F033FB06F0A8
:101AF00097FB094808F070FE084908700AF098FE44
:101B000003F04EFA064803F083FE01200021000393
:101B10001EF0A6FC10BD0000251B000000000020E8
:101B2000F162010010B50C46C80717D00C490DA092
:101B300009F002F80EA008F0FFFF0EA008F0FCFF6D
:101B40000CF0E6F9002802D01EF0E8FB04E00120CA
:101B50001EF0D4FF0EF039F80120604010BD0000E7
:101B6000D94702004150505F4442472025733E2030
:101B7000000000000A0000000448034900680160FA
:101B80000349C16270470000A522080170060020C9
:101B9000784E010010B5074C5D202168086506F0FD
:101BA00047FD20680021016503484279521C4271BB
:101BB000C17110BD90030020D432002070B52C49B3
:101BC000002048602B4800892B4CC0B281090229B3
:101BD00004D0012908D0810916D026E0C820A080B1
:101BE0001020E080E8201FE0C506ED0E2D202946DC
:101BF0008001FFF731F8A08029467820FFF72CF804
:101C0000E08029461D480DE0C506ED0E2946C0209E
:101C1000FFF722F8A08029460820FFF71DF8E08092
:101C20002946E820FFF718F8208116491448086073
:101C3000164915480860174915480860174916489D
:101C4000086018491648184C086018492068012295
:101C5000D2020861801848610120487100F062F9E1
:101C6000607D002802D112492020086070BD00006C
:101C70009403002000100040B4320020980D0000B2
:101C800000C000407406002000C300406C06002025
:101C900000C200409003002000D0004078060020E1
:101CA00000C100407006002080320020D4320020A5
:101CB00000E100E0F8B55648006881680127C905D1
:101CC0000025544C544E00292EDA81683A02914383
:101CD0008160207840060CD5504851490068884200
:101CE00006D15049886BE0608A6B9042FAD100E0DF
:101CF00080472078384320706570E079062803D04B
:101D000043495D2009680865306800280AD00169E8
:101D10000A68406902430A60316808680268896895
:101D20000A4302606571A560394B186881688905AE
:101D300021D581680122520291438160A078384305
:101D4000A070E57038480068C16A89088900891C5C
:101D5000C1620168D20411430160306800280AD0D2
:101D600041680A68806802430A603168C86802688E
:101D700049690A43026018688168890717D5816834
:101D8000022291438160E770A5705D210165306892
:101D900000280AD001690A68406902430A60316874
:101DA0000868026889680A4302606571A56018685E
:101DB0008168C90715D0816849084900816025708C
:101DC0006770306800280AD041680A68806802435A
:101DD0000A603168C868026849690A43026065712F
:101DE000A56018688168C90603D5816810229143EF
:101DF00081608168490703D581680422914381602D
:101E00008168090703D58168082291438160F8BD84
:101E100090030020D4320020980300208C0300207F
:101E2000199F0000001000407006002070B50446A5
:101E30000068002828D00121000C4903884223D1E2
:101E4000A088002820D020460622FF21163021F04D
:101E500080FC01281AD0A2880021206821F08EFD84
:101E6000342200212D4821F089FD342221462B48BF
:101E700021F08CFC2948062216300021054621F06D
:101E800068FC012804D008E0022070BD032070BD6A
:101E900023490622284621F079FC2048818900291F
:101EA00002D1012149028181827B0121002A00D1D6
:101EB0008173C27B002A01D11B22C273027C002ADB
:101EC00001D105220274427C002A00D14174817C38
:101ED000002901D114218174817F002901D1282199
:101EE0008177C17C002908D0827FE17C9208891823
:101EF000C174617F002904D005E0817F89082D31FC
:101F0000F6E702214177806A002803D08047034921
:101F10003431488108F018FC002070BD8032002068
:101F20000806040010B500F0EBF803F021FE06F0FF
:101F300019FBFFF721FE0B4C5D202168086506F0B8
:101F400029FC07F0E7F906F0EDFB06F071FB064807
:101F500001214171226800211165C171FEF7FCFF6A
:101F600010BD000090030020D432002030B58DB0A9
:101F7000122227A12B4821F0FBFB002841D02A4840
:101F800057210170A82101705121274AC900403A08
:101F90001181002101702648244A4261254A072404
:101FA000D3691B021B0A45042B43D3618161046181
:101FB000016902229143016134220021684621F027
:101FC000DDFC1D48009001204003694688801B20ED
:101FD000C873052008740120487414208874FB20FD
:101FE000800202900D2008771448089014480A9047
:101FF0000846FFF71BFF010007D012A008F09CFD68
:10200000FEE718A008F098FDFEE70DB030BD000017
:1020100043483537785F424C455F4C49425F563103
:102020002E380000544A020040100040FEFFFF001E
:1020300000E000E004ED00E014120020D1A5000053
:10204000454F00004C494220696E697420657272E8
:102050006F7220636F64653A202578202E2E2E0A39
:1020600000000000686561642066696C6520657227
:10207000726F722E2E2E0A0070B50E4B00209989B9
:10208000002901D10C4999810E210124A4039A89C8
:1020900015462540CD405204120C0543E8B25604C3
:1020A000D50BF60F75401543491EC9B29D8106290F
:1020B000EDD870BD0C3A0020FF7F000070B50E4BCC
:1020C00000205989002901D10C49598108214C016E
:1020D0005A8915462540CD4005435200E8B2550ABD
:1020E00056097540ED07ED0F1543491E09065D8140
:1020F000090EEDD170BD00000C3A0020FF01000078
:102100000A48094900680A6902610A694261496925
:102110008161C1618268012149030A438260C2680A
:102120000A43C26070470000D432002074060020C9
:1021300030B5104A0346517AFD20842454720E4C67
:10214000A568002D07D0A57B002D04D0A489E51F2C
:10215000FF3DFA3D02D05172FF2030BD7D24E402E4
:10216000A34205D35360A6201072907A40235840B2
:10217000517230BD0018004080320020F8B504468E
:102180000025C00501D00120F8BD11206946087066
:10219000334E002030707070324F80207872087893
:1021A00011300870304800790007000F0D2802D068
:1021B000012006F0B7F969460878113008702A48FE
:1021C0008179890701D00220F8BD6A461178113162
:1021D00011708179890704D11178442901D15721DF
:1021E00031701178113111708079800707D1107822
:1021F000552804D13078572801D1A8207070107864
:1022000011301070307857280ED17178A8290BD171
:102210001178662908D17C607D21C9028C4201D2E7
:10222000882100E0842179721178113111705728CA
:1022300009D17078A82806D11078772803D1A62074
:1022400038727889C5B200201070307070708020AC
:102250007872402D01D00320F8BD0020F8BD0000A9
:102260005B0300200018004020100040F7B5044632
:10227000002682B00D46800702D0012005B0F0BDD7
:102280001120694608703D480021017041703C4FA3
:1022900080207872694608781130087039480079D2
:1022A0000007000F0D2802D0012006F03BF9694617
:1022B00008781130087033498879800701D00220EE
:1022C000DCE76A461078113010708879C00705D1B4
:1022D0001078442802D12948572202706A461078A3
:1022E000113010708879C00708D11078552805D1B1
:1022F00022480178572901D1A82141701078113066
:1023000010701E4A107857280ED15178A8290BD189
:1023100069460978662907D17D23DB029C4201D2F8
:10232000882100E0842179726B4619781131197087
:10233000572816D15078A82813D11878772810D1AB
:1023400000209A230AE07C6002CD39603B727989D3
:10235000241DCEB2402E04D1001D80B204998842C3
:10236000F1D3002069460870107050708020787298
:10237000402E01D0032081E700207FE75B0300208F
:102380000018004020100040F8B500240F4E2746EA
:1023900013E0F06B250128180622FF2121F0EEFA48
:1023A000F06B06222818FF21801D21F0E7FAF06B60
:1023B00028188781641C8773E4B2307E8442E8D396
:1023C000002021F0BBFB307E7076F8BDFC040020BD
:1023D00070B50C460146012080020A1A00252B48E0
:1023E000130008F0D1FB20111316181A1D1F21230A
:1023F0002527292B32343648393B3D3F434848484E
:102400004848484848464148007800E040782070F5
:1024100039E08078FBE7C078F9E710221C4910E02A
:102420000079F4E74079F2E7006A13E08079EEE79B
:10243000C079ECE7007AEAE7407AE8E7144910222D
:102440001031204621F0A2F91DE0807ADFE7C07A42
:10245000DDE7406A206016E0007BD8E7407BD6E7E6
:10246000807BD4E7407CD2E7807CD0E70FF0E4FAB1
:10247000CDE7807DCBE7192904D2084601F0DCF9CD
:10248000208000E00225284670BD0000FC040020EA
:102490000034002010B5044600F0D4F80248C4759A
:1024A0000FF004FC10BD0000FC040020FFB58FB04D
:1024B000064600200C900D901F460CAA304600F0F6
:1024C0009DFA454D0446287E84425AD220460FF09C
:1024D000CDFB0646042F04D0A879022803D00020A3
:1024E00002E02878F9E7012000903B463246214679
:1024F00011980FF079FA1422002101A821F03EFA78
:1025000020460621484300902430C0B201AA102181
:1025100021F072FB002813D11022FF2101A821F025
:1025200018F900280CD1009805AA2530C0B2042162
:1025300021F062FBF107C90F01AA119801F0F4FB29
:102540007034E0B206AA182121F056FB002811D100
:1025500006A80FF09DFB0024A10006A8081801881A
:10256000002903D08278119801F044FF641CE4B282
:10257000062CF1D3B00706D5E97D119801F028FFAC
:1025800001E0082F02D0042F13D021E0A8790228FF
:102590001ED10022314611980FF060F9A86A002878
:1025A00016D04368002B13D000221146119898478B
:1025B0000EE0287802280BD129791198002900D043
:1025C00001216A78002A00D00422114301F072FB35
:1025D000002013B0F0BD0000FC040020F8B501F0AD
:1025E000C1F900282BD1164D0026E87C012801D026
:1025F00000241CE00FF06CFAEE7400202A7EE96BD8
:1026000004E003015B18401C9E73C0B29042F8D3F3
:1026100010E0E86B27013818807B012805D120469F
:102620000FF068FAE86B38188673641CE4B2287EF1
:102630008442EED3502021F0A3FA0FF037FBF8BD0F
:10264000FC040020F8B5354EFF20F07500273776E2
:10265000334CF763A07B30214843422121F0B2F88C
:10266000F063002825D02046807B4100401830765A
:10267000002413E0F06B250128180622FF2121F029
:102680007DF9F06B06222818FF21801D21F076F9D4
:10269000F06B28188781641C8773E4B2307E844213
:1026A000E8D31F488068002801D0B77601E0802079
:1026B000B076307E70760124776334707770B770AF
:1026C000F77010220021174821F058F9377177254B
:1026D00075713762B471F7711248377277721022D0
:1026E0000021103021F04AF9B772F5727762377322
:1026F000052070731020B073F77302203074B76236
:10270000F76237637774F774347504487475B47579
:1027100005494830016005494160F8BDFC040020CE
:102720008032002000340020BD1F0100851F010001
:1027300010B506490C46483CA162E062E17D1820D4
:1027400001F0D8FAE07D01F0EFFD10BD4405002056
:1027500070B5264D0C4608040FD5E87D21F052F9DE
:10276000050006D00FF048FB002802D0284621F0D3
:1027700021F90120C003604070BDA0070BD50021E6
:1027800008460EF0CDFF02214C40002825D1E87DFF
:1027900021F0C2F91FE0E00721D0686B80880FF0BC
:1027A0005DFB01214C40002817D0A86A00280DD0FD
:1027B0004368002B0AD0686B002280889847A96A7A
:1027C000686B00224B68808803219847287D21F0A0
:1027D000F3F90EF097FF204670BD0121D7E760079F
:1027E00002D50420484070BD002070BDFC040020CC
:1027F0007FB5044680787F4D801F030008F0C4F940
:102800000AF4F7F7A41306F0F778B9F7A96A204697
:10281000002907D00C68002CFBD0437B027B418948
:10282000C01CA047E3E060780026002847D1A079CB
:10283000C00744D0686B002841D1102200216846AF
:1028400021F09CF86169002903D006226846103106
:1028500007E0A08814F098FF0028E3D0811D06222D
:10286000684620F093FF69468889A1794907C90F16
:102870000843694688810FF0DFF8297E88420BD132
:10288000A87D002801D0FFF77FFD5B48026B002A7E
:1028900002D00121082090470FF0CEF8297E88420F
:1028A000A87E02D10121084301E040084000A8763B
:1028B000214668460EF034FF002812D01526A86A7B
:1028C000002855D04368002B52D06278A08801219F
:1028D0009847002E4CD0A96AA0884B683246032145
:1028E00073E00221E87D21F017F9002004B070BDEB
:1028F0006078062817D1A08814F046FF060012D091
:10290000287C012804D0022808D003280BD114E029
:102910007179A08800220EF0A1FF04E0A188307830
:10292000052201F039FAA86A002860D04368002B1C
:102930005DD06278A088022147E000224120114644
:10294000000100F0F7F8E9E7E0780022211D00F02F
:1029500055F8297E88424AD206214843253022462E
:10296000C0B20C32042121F08BF9287D21F024F92A
:102970003DE0287B002802D0A088697B28E02878E9
:102980000028A08823D014F0FFFE06002FD0A07AE4
:10299000C0070BD07079002808D0A189890505D41B
:1029A0006A46B11D00F02AF8002814D02246717939
:1029B000A08808320EF052FFA86A002817D043689A
:1029C000002B14D00022A088114698470FE0052163
:1029D00001F0D2F90BE0A0880321F9E700E003E061
:1029E000A08800F031FA02E0A088FFF7F7FD01208F
:1029F0007CE70000FC04002080320020F0B52E4E61
:102A000085B0347E15460F46002806D0012804D034
:102A1000022811D003284BD121E008460FF0DEF840
:102A2000317E0446884243D2002D41D006223946E9
:102A3000284620F0ABFE3BE000240BE0F16B2001C8
:102A4000401806223946801D20F092FE002826D12B
:102A5000641CE4B2307E8442F0D3C4B21FE0002490
:102A600019E02046062148432330C0B26A461021AF
:102A700021F0C2F800280CD11022FF21684620F076
:102A800068FE002805D13946684601F0E1F80028C3
:102A900005D0641CE4B2307E8442E2D3DDE7307EB0
:102AA000844205D2002D03D0294620460FF0BEF8FF
:102AB000204605B0F0BD0000FC040020F8B50E462D
:102AC00019491525194F884214D1002409E03246CE
:102AD000022120460EF0CAFF002800D00025641C09
:102AE000E4B2387E8442F2D3002E1BD0104814F09A
:102AF00069FF17E014F048FE040012D0607900224C
:102B0000A11DFFF77BFF397E884204D232460221A5
:102B10000EF0ACFF0025002E04D020460FF008F97F
:102B200000E014252846F8BDFFFF0000FC0400204B
:102B3000311D0100F0B50746012080021546381A04
:102B400089B00024BC4ABD4E030008F01DF82011D6
:102B5000181F262D333A3F464D545B626970757CD1
:102B6000EFEEEDECEBEA89E9E8AAAAF3F6E5E4EB8F
:102B7000012971D1287802286ED8307059E10129D5
:102B8000F7D128780128F7D8707052E10129F0D1E7
:102B900028780428F0D8B0704BE10129E9D12878D1
:102BA0000128E9D8F07044E11029E2D11022294629
:102BB000A348ADE00129DCD128780128DCD83071A8
:102BC00037E10129D5D12878707132E10429D0D1BB
:102BD00028689042D0D830622BE10129C9D12878E9
:102BE0000228C9D8B07124E10129C2D1287801286E
:102BF000C2D8F0711DE10129BBD128780428BBD8C7
:102C0000307216E10129B4D128780128B4D8707245
:102C10000FE11029ADD18A4810222946103077E003
:102C20000129A6D128780128A6D8B07201E101298E
:102C30009FD12878F072FCE004290DD128689042D9
:102C40000AD87062F5E0002906D100F08BFE00285A
:102C500003D00120F074ECE074E00EF039FF1CE0CA
:102C600007296FD10622691C684620F08FFD28785D
:102C700000226946FFF7C2FE0546307E854239D202
:102C800000F070FE002805D0F26B012029018918A0
:102C90008873CEE028460EF02DFF502020F070FF04
:102CA00096E007294ED10622691C07A820F06EFD88
:102CB0002878002207A9FFF7A1FE317E88421BD2A7
:102CC0000621484305462135E8B26A461C2120F01A
:102CD00093FF00280ED15B48874201D1012000E01C
:102CE000FF206946C876E8B26A461C2120F0C8FF7A
:102CF000307D4BE002249CE0B07E0028FAD05148A1
:102D0000874214D10120F0764C48072229464030F2
:102D100020F03CFD8DE05EE07AE00EE00AE075E038
:102D20006FE067E07BE04AE041E039E031E000201D
:102D3000F0767EE0002070757BE000270120707542
:102D40003D461BE066E028460621484306462136FC
:102D5000F0B26A461C2120F04FFF00280CD16846D3
:102D6000C07EFF2808D0FF206946C8760127F0B250
:102D70006A461C2120F084FF6D1CEDB22F48007EB6
:102D80008542E0D3002F54D02C48007D20F014FF62
:102D90004FE001293ED1287801283BD8307348E024
:102DA000012937D12878092834D8707341E00129E6
:102DB00030D12878C11F09292CD8B07339E00129F6
:102DC00028D1717C28787074002932D1012830D143
:102DD0000EF06CFF2DE001291CD1B17C2878B07475
:102DE000002903D1012801D10EF060FFB07C02F070
:102DF000FCF91EE001290DD1287803280AD8307487
:102E000017E0012906D12878307512E00120BDE7CE
:102E1000012901D018240CE02878B07509E0192F99
:102E200000D367E70229FCD12988384600F062FF09
:102E30000446204609B0F0BD3F420F00FC040020CC
:102E4000003400201A040000FEB506460020019060
:102E50000290304614F098FC040017D0144FB87953
:102E6000022813D0607901AAA11DFFF7C7FD05460E
:102E7000387E85420BD228460EF0F8FE024601202D
:102E800000900823294630460EF0AEFDFEBDB8790D
:102E9000002807D00128F9D16179002230460EF0D0
:102EA000DDFCFEBD0521304600F066FFFEBD0000E2
:102EB000FC040020F7B516491525164E1746884222
:102EC0000FD1002409E03A46204601990EF03AFF5E
:102ED000002800D00025641CE4B2307E8442F2D386
:102EE00013E014F051FC00280ED04379811D00221C
:102EF0001846FFF783FD317E884206D23A46019993
:102F00000EF020FF002500E014252846FEBD00003D
:102F1000FFFF0000FC04002001490860704700002A
:102F20005005002070B50C460146032000020A1A25
:102F300000252548130007F027FE130B0D10171A64
:102F40001E2125292B2D3133393B3D3D35373D00A1
:102F5000407811E010221D4902E01C491022103176
:102F6000204620F013FC2DE0406920602AE016493D
:102F700006221E31F4E7C078207023E012498278DF
:102F80002431EDE7114902791F39E9E7407AF3E787
:102F9000807AF1E70C4906221831E1E7C07AEBE7C5
:102FA000007BE9E7C0890AE0008A08E0007AE3E7ED
:102FB0004079E1E7192904D2084600F03DFC208061
:102FC00000E00225284670BD540500205F34002033
:102FD000F8B5164CFF202070002565700320A07006
:102FE0000126E670062765611920E781C00120826D
:102FF00020461F222946243020F0C0FC2046022112
:10300000243001704670877025711F220021084806
:1030100020F0B4FC204606220021183020F0AEFC3F
:103020006571A571FF20E071F8BD00005405002016
:1030300040340020FFB583B01C4615460E460C9F59
:10304000039814F0A1FB002817D0C189B14207D31F
:10305000A94205D8018AA14202D1408AB8420ED0C5
:103060006846068045808480C78069460D9A03982B
:1030700002F0E8FB002007B0F0BD1420FBE71820A9
:10308000F9E7000010B52548007F800744D0244CA4
:103090002078FF2840D1234807F09EFB2070FF28AE
:1030A0003AD0214900240C602049214A0C700421A7
:1030B000117000F0C7FD102200211E4820F05EFCB8
:1030C000102200211C4820F059FC1C481E490460B5
:1030D0001B48184A04701B480470072008701B48DE
:1030E00010210470022020F087FD134A10210320D4
:1030F00020F082FD10220F49154820F047FB1448AC
:1031000010220D49103020F041FB04210B4A0846E3
:1031100020F072FD002010BD182010BD803200206C
:1031200054050020B53100004C0500205C0500204E
:10313000550500205F3400206F3400206805002012
:103140005D0500205E0500205F0500206005002071
:103150002034002010B504F0B9FD104807F03CFB06
:1031600002F0B0FB0E4807F037FB00F071FB0D4892
:1031700007F032FB01F0B4FA0B4807F02DFB07F023
:103180002FF80A4807F028FBFFF784F9084807F0F2
:1031900023FB00F0C9FEFFF775FF10BD095A0000C0
:1031A000613B0000ED470000F1A200005127000044
:1031B000A9400000FEB54A4C0D46080448D52078C9
:1031C00020F020FC040040D046480078002808D0B9
:1031D0002078454ED02808D0A22802D0912821D0AE
:1031E00014E020460FF08CFF2CE0A07800280DD0D2
:1031F000052807D0082809D006280BD00728F0D1C9
:10320000A0881BE0608919E0007B04E020460FF0F5
:1032100077FF02E0E0790828E3D12146307820F0FA
:1032200029FC12E060780E28F0D1A0882F4988424E
:10323000ECD1A068817842780802104314F0A4FA17
:103240000028E1D1204620F0B5FB0120C00345E075
:1032500068040BD50421264A084620F011FD2548B4
:10326000007820F0A9FC0120800337E0E80736D081
:1032700021480078002830D014F0BCFB1F49097F9A
:103280008907890F884203D30320694608700CE040
:103290001B486946007808701A4806220078487072
:1032A00000A81949023020F071FA184869460078E0
:1032B0000872174800784872207800F0E5FA002874
:1032C0000BD014490620087013490968002904D05E
:1032D0000A68002A01D00021904701206840FEBD05
:1032E000540500205A0500205B050020051400004D
:1032F00068050020100500205705002080320020BE
:103300005D0500205E0500206C0500205F050020A3
:10331000600500205C0500204C0500207CB51446AB
:103320000D4601F0DDFA002D02D02846FFF700FA25
:103330000C480078002801D011207CBD002C01D061
:10334000094804600A48009008490B480191027836
:103350000A48084B01780A48007800F0EFF900208D
:103360007CBD00005C0500204C05002068050020A5
:103370006F3400205F3400205905002055050020DF
:103380005405002010B501F071FF10BDF8B50C46D2
:103390005E491646421819210025C9015C4F1300E9
:1033A00007F0F2FB120A1017A81C3E5269707781D1
:1033B00088A8A3A8A88F98A8102C73D110223146F2
:1033C00054486CE0102C6DD1524810223146103018
:1033D00065E0042C66D13068786190E0012C61D101
:1033E000F97830784A4AF870127800290AD0002813
:1033F00007D1387A022801D0052802D1104600F002
:10340000F1F97CE000287AD0387A012803D003282B
:1034100001D0042873D10121104620F07DFB6EE01D
:103420001F2C60D83A481F220021243020F0A6FA31
:10343000374822463146243020F0A8F9344BBC707E
:1034400024332246012112E01F2C4CD831481F2280
:1034500000211F3820F092FA2E48224631461F38AC
:1034600020F094F92B4B3C711F3B22460021387809
:1034700000F0D6FC48E0012C35D13078042832D851
:1034800078723CE0012C2ED1307803282BD8B8720A
:1034900035E0062C27D11E4806223146183020F090
:1034A00075F92CE01FE0012C1DD1307807281AD8BF
:1034B000F87224E0012C16D13078032813D8387321
:1034C0001DE03088022C0ED106280CD388420AD881
:1034D000F88114E03088022C05D1062803D38842F5
:1034E00001D838820BE0182509E0012CFBD1307897
:1034F000787104E0192801D2022C02D00225284656
:10350000F8BD318800F0F6FB0546F8E7FFFCFFFF49
:10351000540500205F34002010B5044614F034F93F
:10352000002805D000781322214600F035FC10BD9C
:10353000122010BDF8B50E46070048D0388814F0A8
:1035400023F9050041D0234AA96BD078022806D080
:10355000012804D0287B082803D1002E01D0122492
:1035600036E0002901D0112432E01B492C2020F044
:1035700029F90446A863200025D02C22002120F040
:10358000FDF9388860801C22391D201D20F0FEF8CE
:10359000022020700F483A880178287B082810D034
:1035A0000020231D06F051FF0446002E03D03146B3
:1035B00028461DF03BFE002C0AD028460EF02AFEBD
:1035C00006E00120EDE7132402E0142400E00224C9
:1035D0002046F8BD8606002014470000FFB51F48AE
:1035E00081B0C0781E4617460D46022818D0012823
:1035F00016D0002F30D0019814F0C6F8040029D05E
:10360000E06A002801D020F033F91C21384620F070
:10361000C9F8E062011E1BD0207B082803D00DE012
:10362000122005B0F0BD002E08D0887E00900B4619
:1036300012330A8A01981EF041F900E00020217936
:10364000002D01D0062200E0042211432171E8E799
:103650001320E6E71420E4E70220E2E786060020D4
:1036600010B50548C078000701D5044800E00020E7
:103670000FF04EFC10BD000086060020A4060020BE
:1036800070B51A4C0546012120780EF0E9FD184866
:10369000C1780A20014223D0257016480FF032FC71
:1036A000606800281AD1207800281DD00001072169
:1036B00020F088F86060002810D021780A010021ED
:1036C00020F05CF90020FF21626803E00301401C48
:1036D000D154C0B223789842F8D305E0132070BDCE
:1036E000002020700FF00EFC002070BD9806002016
:1036F00086060020E4370020094900200870486051
:1037000088600948074901600849416008498160AB
:10371000034808490C3001600749416070470000C8
:103720009806002061210100E4370020852A01006D
:10373000E12901004120010079200100F8B50224AF
:10374000079F1D461646042919D004DC012907D01D
:10375000022945D10BE008291BD00C2940D129E0D2
:1037600000F040F904003BD100F094F938E000F09B
:1037700039F9040034D13046FFF782FF30E000F021
:1037800031F904002CD13A462846069900F064FA33
:1037900020E000F027F9040022D13A462846069995
:1037A00000F05AFA3046FFF76BFFFFF759FF06F0BB
:1037B00029FD15E000F016F9040011D13A4628461B
:1037C000069900F049FA3046FFF75AFFFFF748FF25
:1037D00006F018FD00F05EF900F044F906F0ECFD8B
:1037E0002046F8BD70B5104C2168002919D0097821
:1037F000814214D10D4D0221287820F03DFB0C4868
:10380000002646802878042120F036FB09484671BE
:10381000216803204870002001F0EFFC70BD0320F8
:1038200070BD122070BD0000B0030020860600208D
:10383000AC0600202C330020192801D30248704721
:1038400002494000085A7047FFFF00004C33002037
:1038500010B5044600F08AF800F062F9FFF74CFF5B
:10386000FFF7B6FB0649FF23CB7000228A700A716E
:103870000448052143700470204602F00DF910BD84
:103880002C33002086060020F3B5304E002430682B
:1038900083B0002802D0112005B0F0BD2C4D0521C9
:1038A000E878084201D11220F6E72A494968002940
:1038B00005D00978002902D0C00702D008E0102006
:1038C000EAE700F04FF8074614F076F8874207D38E
:1038D00004980078022803D0032801D0122432E093
:1038E0001D490C201FF06EFF306000282AD003997C
:1038F0000170002141700A22801C04991FF046FFCC
:10390000164EB078032806D00FF0BCFD04001AD084
:103910000EF074FC17E00EF0F9FC694606F0EDFBC2
:1039200068460EF0DFFF012030711120FFF784FFA1
:103930000006000E707106D02878094A042120F094
:103940002BFA00E013242046A6E70000B003002075
:1039500086060020AC060020174700002C3300200C
:103960000077010010B514F011F810BD1A480021BD
:103970000170417041608160C1600161416181619C
:103980001648B42201804280012292038280A02244
:10399000C28002811022428182815023C38103822E
:1039A00042828282C2827D2302831B014383818300
:1039B000C18301840F234384094B83840723C38479
:1039C0000285012242857E22D2438285C1850186FD
:1039D000491E4186704700009C0300204C330020A4
:1039E00080BB000070B50E46054620220021094824
:1039F0001FF0C4FF074C0848E570C67001F02CFCAE
:103A0000002803D000202070122070BD01212170F9
:103A100070BD00002C330020860600207FB50446D0
:103A20000D46084613F0B0FE002817D00C4884421B
:103A300012D21022002168461FF0A0FF69460C70C8
:103A4000200A4870200C8870200EC87029466846ED
:103A500006F00CFC04B070BD0220FBE71220F9E771
:103A600040420F0010B50848C078400707D5074806
:103A70000FF05AFA00200649C043C88010BD00204C
:103A80000FF052FA10BD000086060020BC06002090
:103A90002C330020F8B51E4C00256068002802D0A9
:103AA0001FF0E6FE6560E068002802D01FF0E0FE2F
:103AB000E560184E0527F078384224D016480FF0FC
:103AC0002DFAF07838421CD0144920201FF07AFEDD
:103AD0006060002815D0202200211FF04FFF0F4901
:103AE0002020491E1FF06EFEE060002805D0202235
:103AF00000211FF043FF0020F8BD60681FF0B8FEF2
:103B000065601320F8BD00200FF008FAF3E700000D
:103B1000AC06002086060020F03700201647000083
:103B20000948FF2101700021418041608160C1602E
:103B30000748064901600749416007498160024919
:103B40000648103108607047AC060020812501004E
:103B5000F03700201126010085340100F124010016
:103B6000FEB5354F354D0C4608041FD538781FF08B
:103B700049FF061E17D03078A22806D07D7830463F
:103B80000FF0C6F800280AD102E02C48C578F6E705
:103B9000FF2D04D0314628461FF06CFFE6E7304683
:103BA0001FF008FFE2E70120C00341E0E007012623
:103BB000234900280AD04868002804D04168002919
:103BC00001D00020884720467040FEBDA00709D5DF
:103BD000C868002804D04168002901D00120884726
:103BE000022025E0600725D5687900281FD0401EF7
:103BF0000006000E68711AD14869002808D02E719D
:103C0000C868002804D04168002901D001208847F5
:103C10006946E86806F071FA68460EF063FE112006
:103C2000FFF70AFE68713878042120F025F9042096
:103C30006040FEBD0020FEBD860600202C33002023
:103C40009C03002001494870704700008606002050
:103C500010B506F08BFB10BD70B5154C0E466261B9
:103C600021610546E0601022FF2130461FF071FD02
:103C7000012806D01022002130461FF06AFD0128DD
:103C800003D1102120691DF0C3F81022FF2128461E
:103C90001FF05FFD012806D01022002128461FF0EA
:103CA00058FD012803D11021E0681DF0B1F870BD66
:103CB0002C3300207FB50C46054613F065FD002827
:103CC00014D0826B007B042802D0122004B070BD97
:103CD000002A00D0947D684621461DF02BFE044B3F
:103CE0006A46022128461DF0A7FDEFE71420EDE704
:103CF000271E020070B50C460546192802D2084856
:103D0000844201D1022070BD112D04D13C206043BA
:103D100080B201F085FA034968000C52002070BDA2
:103D2000FFFF00004C33002070B50E4611491546C8
:103D3000CB78022B17D0012B15D0002D17D013F004
:103D400023FD040011D0002E03D020790221084366
:103D5000207120461022294618301FF017FD2869CF
:103D6000A062002070BD122070BD142070BD022022
:103D700070BD00008606002038B50C46054613F0DD
:103D800003FD002806D068460470694628461DF0E9
:103D900041FD38BD142038BDF7B505461E48122632
:103DA0001E4F0C46814208D1B868002832D0026804
:103DB000002A2FD028469047FEBD1748401C844259
:103DC00019D1B868002806D00268002A03D0284616
:103DD0009047002806D0284602990DF027F80600E3
:103DE00005D017E07D70029838700020FEBD7D7010
:103DF000029838700EE0084613F0C6FC002809D07F
:103E00000078A84201D00320FEBD2046029901F0AF
:103E100068F9FEBD3046FEBDFEFF00009C03002099
:103E200070B51446024620481E46C0780523184245
:103E300024D01E4D00296B68E86802D0002B1DD0ED
:103E400001E000281AD0202C2CD2002C01D0002E0A
:103E500028D02A70002913D01F220021581C1FF0DF
:103E60008DFD686822463146401C1FF08FFC696852
:103E700020460C70491C01F0BCF970BD122070BDC9
:103E80001F220021401C1FF079FDE86822463146C0
:103E9000401C1FF07BFCE96820460C70491C01F0B7
:103EA000C7F970BD022070BD86060020AC06002058
:103EB00010B5094A014613790020002B0BD10123CC
:103EC0001371C90707D01346643318461022042122
:103ED000403800F02FFA10BD840400207CB50D4658
:103EE0001049044608690022002805D08388A342AF
:103EF00004D002460068F7E701207CBD002A02D00A
:103F00000168116001E002680A611FF0B1FC6946B6
:103F1000204600F0E3FA0028EFD1002DEDD0019902
:103F200029607CBD84040020F8B5044600F096FEAC
:103F300000F046F8114F134EFC701149304600F066
:103F400027F81149C0201FF03DFC00221346B8613C
:103F500094010653002124180C254D436519AB80AC
:103F6000491CEB600529F7DB521C032AF0DBF878CB
:103F70007870064813F05AFDF8BD00008404002054
:103F8000C2330020FFFF0000014700005D3B01003D
:103F900070B50A4C0025A04208D1002082008C5246
:103FA0005218401C95700328F8DB70BD0FF0A7FD78
:103FB0000028FAD00480857070BD0000FFFF00006B
:103FC000F0B51E4920200870FF2048708870C87026
:103FD0000126CE8000200881C86008610B460224BB
:103FE0001C3348611C70164A5A600A460871243214
:103FF0001470144D556016725081D3601474124FB2
:1040000015466F612E766883E9612021545413466A
:104010000E4D59185D6208725885D862302154548B
:104020000B4C0323511854630B725087094ACA6022
:104030000249094A643105C10860F0BD84040020CA
:10404000D24A0200D44A0200DA4A0200F24A0200CE
:10405000E04A0200C233002035460100F8B50E46A2
:104060000746069900240798002902D00B24204611
:10407000F8BD022B01D00D24F9E7517812780D021A
:1040800015432946814301D08024F0E73846F16882
:1040900000F042F9A842EAD02A463846F16800F01A
:1040A000F1F90446E3E7000070B50D4608041AD59F
:1040B0000E48C0781FF0A6FC04000FD02078B0286E
:1040C00009D120460FF0E2FE002804D020462179D5
:1040D000083000F0A5FD20461FF06CFC01212846A9
:1040E000C903484070BD002070BD0000840400205A
:1040F000FFB585B000200F9F0090087A0E9D1C46EA
:104100000E46C0060BD507980FF0F2FC03007DD0D9
:104110000A223146059898470090002816D1307839
:10412000022815D007980FF009FD0028EFD000688D
:1041300084460028EBD011991098224600970291EE
:1041400001902B46314664460598A04709B0F0BD62
:104150007068292241780078090201431202881A06
:1041600091427CD00BDC6948081A13D0012811D089
:10417000022817D00328D5D1002F53D09BE0012867
:104180007ED002286DD0032877D00428CAD1002F12
:1041900068D090E0002F6FD1F06801782980027814
:1041A000416884E0002F67D1F068417800780F0201
:1041B000074304202880F06804A900782070F06884
:1041C00040786070384600F0AFF9060022D06846AB
:1041D000028A03AB4E493046F76800F003FA002824
:1041E0000AD1337802214B487268FDF701FA0028A2
:1041F00002D1474869468881387802280CD10222CA
:10420000201D79681FF0C2FA288800E07CE0801C3D
:10421000288001E06846878168468089A070000A8E
:10422000E0706FE001202880F068002100782070A5
:104230007089401C80B200F077F9002813D02988DB
:1042400002788918891C2980817A61704189090A5C
:10425000A17002784168E01C1FF098FA52E00CE06F
:104260000EE026E03BE028880422001D2880002183
:10427000601C1FF083FB45E01DE0002F27D01AE0F3
:10428000F0681FF00CFE80B2B84201D207205DE753
:10429000874201D1002006E01099C919814201D35B
:1042A000C01B00E01098288082B2F068C119204637
:1042B000D2E7002F01D00B2048E7F168059800F005
:1042C0002BF8022129802070000A60701AE0022079
:1042D0002880F06800782070F0684078F5E70721C2
:1042E000F068298001782170417861708178A1702F
:1042F0004188090AE1700179217181796171C08871
:10430000000AA071009821E70E201FE70028000096
:10431000FFFF0000D64A020010B50FF0F0FB0028A6
:1043200000D0807810BD00000149887070470000FF
:10433000840400207CB51E4605001CD06846018020
:104340008270019500F0D2FA04001FD1002E1DD01A
:10435000688900280FD00E490C201FF033FA00287E
:1043600013D000210160698981800A4A8660116941
:10437000002903D107E002207CBD11460A68002A0B
:10438000FBD1086002E0106100E0132420467CBDF0
:104390000547000084040020F8B50C4C0746A078BF
:1043A00015460E46FF280FD00A201FF0EFFA010035
:1043B0000AD0B12008704F80002048700871CE806C
:1043C0000D81A0781FF056FBF8BD0000840400208A
:1043D00070B50C4605460649FFF79EFF800704D5D9
:1043E0002146284600F0DEFA70BD012070BD0000B5
:1043F000C23300200EB56B461A81FE2300220193C2
:104400000092022302AA00F001F80EBDFFB583B0AE
:10441000174602A90D9E049800F086F804002AD0E1
:10442000684600890FF08AFB002822D04568002DDD
:104430001FD00C98019600903A462146069B03989F
:10444000A847050018D1FE2E16D02078022813D1D7
:1044500060684178027808020949104388420BD10C
:104460007878397802020A4304990398FFF794FF99
:1044700002E00E2500E00125284607B0F0BD00004F
:104480000229000070B514460E4605460FF037FBB2
:10449000002806D1314605480FF031FB002803D033
:1044A00005808470002070BD112070BDFFFF0000EA
:1044B00010B50178B0290BD14178002908D10179D4
:1044C000122906D01B2903D14088012101F0EEF901
:1044D00010BD417C0129F7D010BD000070B5114A14
:1044E0000B46014654690020002C06D0A5686D8952
:1044F0008D4204D020462468F6E7012070BD0028D4
:1045000002D02168016001E020685061002B04D0D6
:104510000822211D18461FF039F920461FF0A8F97E
:10452000002070BD84040020F0B5104A536919E0E2
:104530009C686589A84214D39E887219824210D95A
:1045400000220CE017013F197F89874205D100291D
:1045500000D00D8010010019F0BD521C92B2B24281
:10456000F0D31B68002BE3D10020F0BD84040020B1
:10457000FFB51B4883B0002345692DE0AE680024D9
:1045800070890190A888009016E02101881942895D
:10459000039FBA420ED3049FBA420BD8069A002A50
:1045A0000FD01346715C4068059AFDF721F800288A
:1045B00007D10023641CA4B200988442E5D3002BE9
:1045C00009D00C98002802D00C990198088020018D
:1045D000801907B0F0BD2D68002DCFD10020F8E77D
:1045E00084040020FEB5174600256A4695800446DF
:1045F00040891D4A1E46904208D001AA0092401CE4
:10460000237880B26268FFF7B3FF05462378022162
:1046100016486268FCF7ECFF002807D123780221D6
:1046200013486268FCF7E4FF002801D060890EE0BF
:10463000237802210F486268FCF7DAFF00280DD0CA
:10464000002D03D068468088B84203D0384610F069
:1046500015F904E06889401E80B200E06089002EF0
:1046600000D030802846FEBDFFFF0000D44A020083
:10467000D64A0200DA4A0200FFB583B00E461D4654
:10468000174601A903980FF053F8040022D1002F18
:104690000FD0694608803088FFF746FF69460888D2
:1046A00000F0BCF901460122039813F041F80028FC
:1046B00011D131460398FDF741F804000AD1FF2DCE
:1046C00008D0019B1E22194604489B1C10F0E1F8FB
:1046D0000198C570204607B0F0BD0000E546010016
:1046E00010B50446FDF756F80749FF2008704870DA
:1046F0000020486088608C700421204601F0CCF9CD
:1047000000F004F810BD00007804002070B500200F
:104710000D4D0E4B0446FF22062141435D52C91840
:10472000CA708A70401C0C710328F5DB0120C0435D
:10473000188007480FF092F90648FDF7B1F90648CE
:1047400013F074F9002070BDFFFF0000B0330020AB
:104750002D4701000F470100654601007CB5164654
:104760000C460546FCF744FD11490978884201D3FF
:1047700016207CBD01A928460EF0DAFF1728F8D0D4
:10478000002E10D00020694608802088FFF7CCFE5C
:104790006946088800F042F901460122284612F0D5
:1047A000C7FF0028E5D121462846FCF7DDFF7CBD88
:1047B000C1060020F8B51C4615460E46074612F005
:1047C000E3FF00280DD0017B074808292B4632461D
:1047D0003946009403D000780EF0C0FFF8BD407851
:1047E000FAE70120F8BD000078040020F0B587B09A
:1047F0000F46080470D5394EB0781FF003F9040055
:1048000064D02078A0285ED1012069460873204634
:10481000FDF712F8050041D16846807800280BD0DA
:10482000142809D0152807D01A2805D01C2803D031
:1048300001461F3920290BD8B16800292ED06946BE
:10484000497800292AD169460874062008751FE0B6
:10485000C0070AD07368002B05D0608803AA694698
:10486000984705461AE0062518E0B368002B06D0E5
:10487000608803AA69469847050001D10EE0062525
:1048800068464078002809D16946887808740D7513
:1048900000204882608804A9FCF7E6FE6846007B99
:1048A000002804D0A068002801D01EF0E1FF002DF0
:1048B00005D168468078122805D01B2803D160886E
:1048C000012100F0F3FF20461FF074F80120C0031F
:1048D000784007B0F0BDFFE70020FAE77804002039
:1048E00001490870704700007804002070B5044644
:1048F0004568008800284AD02B78022125486A683C
:10490000FCF776FE002807D12B78022122486A683E
:10491000FCF76EFE00283AD0A078C01F092834D8D2
:104920001E4EF08800282ED0218808180121090485
:10493000884228D81A490C201EF044FF050020D0D8
:10494000002207E011016368F0880A315852401CC8
:10495000F080521C20889042F4DC0020286008225D
:104960002146281D1EF012FF7069002801D105E0C4
:10497000084601680029FBD1056000E07561002050
:1049800070BD132070BD012070BD182070BD0220C5
:1049900070BD0000D44A0200D64A02008404002000
:1049A00002470000FEB50E46074600250223194ABD
:1049B000194901200095FFF7DBFD040027D02320D3
:1049C0000090002304221D21384600F0E3F80290F5
:1049D00000281AD06089694688800420C88002991E
:1049E000012008700298334645700299FF208870B4
:1049F00002990022C87001A93846FFF73DFE040065
:104A000006D002981EF034FF02E0152400E00124D5
:104A10002046FEBDF24A0200FFFF000000B50EF086
:104A200043FE002801D0807800BD102000BD00B5F5
:104A30000EF03AFE002800D0008800BD7CB50D467F
:104A4000044612F0A1FE29462046FDF72FF8002863
:104A500012D168468580204612F096FE00280BD0C1
:104A6000027B01A90748082A009106D07F23002273
:104A7000214600780EF072FE7CBD7F230022214685
:104A80004078F7E77804002010B504460B46880606
:104A90000DD51046FFF7C2FF01460122204612F055
:104AA00047FE052801D00F2800D1082010BD88201E
:104AB00003420CD01046FFF7B1FF0146180701D59D
:104AC000012200E00022204612F032FE10BD8807CD
:104AD00001D5002010BD032010BD10B50346C80647
:104AE0000DD51046FFF79AFF01460122184612F035
:104AF0001FFE052801D00F2800D1082010BD48074F
:104B000005D51046FFF78AFF0146012206E0480658
:104B100008D51046FFF782FF01460022184612F022
:104B200007FE10BDC80701D0002010BD022010BD37
:104B300070B51D4603460C4688060DD51046FFF796
:104B40006DFF01460122184612F0F2FD052801D042
:104B50000F2800D1082070BD8820044214D01046D0
:104B6000FFF75CFF0146200701D5012200E000228B
:104B7000184612F0DDFD002808D0697A0029EAD035
:104B8000297A002902D170BD880701D5002070BDA7
:104B9000032070BDF8B5069F1E461546162928D07D
:104BA0000CDC09291FD004DC05291CD0062911D1F1
:104BB0001BE0112917D012290CD118E01D2916D09D
:104BC00004DC172915D01B2904D110E052290ED07E
:104BD000D2290CD00124114A95420CD1FCF79EFD3C
:104BE000001B85B20BE00224F5E70724F3E703245A
:104BF000F1E70524EFE7D22901D10C35ADB26019F8
:104C000080B2394600F0A4FF002805D0002E00D065
:104C1000358061421EF068FDF8BD0000FFFF000016
:104C200010B50EF051FD002801D01EF021FE10BD80
:104C300010B5094A014653790020002B0BD10123FE
:104C40005371C90707D01346A4331846102209210F
:104C50009038FFF76FFB10BDC8030020F0B50021AE
:104C60003D4C0222A1603D4D227008462954401C53
:104C700080B21628FAD36270374BE180A2705020C0
:104C80000C331880A0205880184681807D20C000F9
:104C9000D880E270012330482371617114300270B2
:104CA0002F4C4460037241812E4CC460064602744E
:104CB0002D4F77613446337671831034143EE660AD
:104CC000202402550646294F3419776223727185D4
:104CD000F562302402550546234E6E632C1923726B
:104CE0006987133DE560402402550546204E6E64F9
:104CF0002C19237261810E3DE56050240255054652
:104D0000194E2C196E6523726181123DE560602495
:104D100002550546174E6E662C1923726181083DB7
:104D2000E5607024025505460F4E2C196E672372FC
:104D30006181113DE560802402550F4A8030426058
:104D4000037241816A1CC2600C48A03210600C489A
:104D5000506010468160F0BDC80300208033002001
:104D6000D44A0200684A0200DA4A0200E84A020015
:104D7000EA4A0200F04A0200FA4A0200F54F010036
:104D80003D51010070B51646214A0D4611460024DA
:104D90001431030005F0F8FE0A06133838183821DC
:104DA00028383138152D2AD81622002119481EF02E
:104DB000E5FD2A46314617481EF0E8FC25E0022DA5
:104DC0001DD13088D08020E0082D18D1104808224D
:104DD00031460C30FBF7DDFF17E0012D0FD1CA691A
:104DE0000B4930783C3105E0012D08D1CA6B0849E8
:104DF00030785C3110F06AF907E0012D01D01824F9
:104E000003E03078107100E00224204670BD0000FD
:104E1000C80300208033002000B5124A0B0005F0C3
:104E2000B3FE0504071016191F00516B81430AE0F9
:104E3000516B81435163116B01431163116A8143CB
:104E40000DE0516B01435163116B8143F5E7516BE9
:104E5000814301E0516B01435163116A01431162C7
:104E600000BD00008010004000B5124A0B0005F0A4
:104E70008BFE0504071016191F00516981430AE0D3
:104E80005169814351611169014311611168814385
:104E90000DE051690143516111698143F5E75169A1
:104EA000814301E05169014351611168014311607F
:104EB00000BD0000C010004010B50C480089C1B210
:104EC0000B069A0F0A48022A05D0012A04D09A0F2D
:104ED00006D07D20000210BDC906C90E054801E0BC
:104EE000C906C90EFBF7B8FE10BD00000010004057
:104EF0000048E80100389C1C1148807C01280DD036
:104F000003280ED007280FD00F2810D01C2811D04E
:104F1000222811D0322811D0002070471320C0431E
:104F200070470D20C04370470720C04370470220E0
:104F3000C04370470120704702207047032070472C
:104F400080320020F8B5094CE77E267E657EFBF7AF
:104F5000F7FFA07E01210843A076A07EC007FCD108
:104F6000A08BE77626766576F8BD000040100040FD
:104F700010B5084805F030FC074C207000F086F8AA
:104F800000F00EF862B6054A0121490320781EF0B0
:104F900015FF10BD0D5000006803002000EE020058
:104FA0000A48002101704160094802680121890511
:104FB0008A43026002690A430261026810218A433F
:104FC000026002690A43026170470000600300202A
:104FD000C01000400B4900204A68520200D4012052
:104FE0004968C90601D40221084307490A7890425A
:104FF00006D00870002803D04968002900D008476F
:1050000070470000C01000406003002070B50C46DF
:1050100009040AD51EF0F6FC002801D01EF0CAFCD7
:1050200001212046C903484070BDE00701D001209E
:105030000AE0134DA00709D5FFF7CCFFA0220221FB
:1050400028781EF0BBFE0220604070BDA00405D58C
:10505000FCF768FF01260B4A760308E060040DD5D3
:1050600009A005F069FD7D22D2010126B603314673
:1050700028781EF0A3FE2046704070BD002070BD51
:105080006803002000EE02002A2000001CB50C4836
:1050900057210170A821017009492039CA7B0723D3
:1050A0001A43CA730021017000910B46012201913D
:1050B0001146044804F082FF002005F0C1FC1CBD2D
:1050C00040100040E4070000704710B500F0FEF803
:1050D00010BD10B500F01AF910BD10B500F02EF992
:1050E00010BD10B5FCF77AF810BD10B500F03AF914
:1050F00010BD10B500F04EF910BD10B500F064F908
:1051000010BD10B5FCF77AF8002010BD10B5FCF703
:105110008FF810BD10B5FCF79BF810BD10B5FCF76B
:10512000A7F810BD10B5FCF7B3F810BDFEB508AF79
:1051300070CF6F4670C7FCF7BBF8FEBDF0B585B009
:1051400084460AA8F1C804976F4671C7604600F00C
:1051500051F905B0F0BD38B5049C009400F08AF90F
:1051600038BD10B5FCF7B4F810BD38B5049C0094F8
:1051700000F09EF938BDFFB587B094468E4610A862
:10518000F7C806976F4677C762467146079800F0E2
:10519000ADF90BB0F0BD10B500F002FA10BD10B5BE
:1051A000FCF7A4F810BD10B5FCF7B2F810BD10B5AF
:1051B000FCF7C0F810BD10B5FCF7CCF810BD10B569
:1051C00000F00CFA10BD10B5FCF7D6F810BDFEB516
:1051D00008AF70CF6F4670C7FCF7E0F8FEBD38B57A
:1051E000049C009400F018FA38BD10B5FCF7F0F8F4
:1051F00010BD10B5FCF7FCF810BD10B5FCF708F9B0
:1052000010BDF0B585B00AACF0CC03976F4670C7FF
:10521000FCF70EF905B0F0BD10B5FCF71FF910BD95
:1052200010B5FCF72BF910BD10B5FCF737F910BD20
:1052300010B5FCF743F910BD70B55478157822020B
:105240002A43FCF74BF970BD10B5FCF751F910BDBE
:1052500010B500F0FFF910BD10B5FCF74DF910BD09
:1052600038B5049C009400F00DFA38BD10B5FCF779
:1052700055F910BD38B5049C009400F0B1FA38BD62
:1052800010B500F01BFA10BD10B5FCF75DF910BDAC
:1052900010B505280ED90C4CA0420BD2A14209D260
:1052A000814207D3FF20F530824203D2092B01D976
:1052B000A34201D3002010BD521C4A43D8008242B1
:1052C000F8DA012010BD0000810C0000F8B5074697
:1052D000084616460D460C301EF058FB040011D04F
:1052E000912020700E206070A5702046A7800C30A1
:1052F0002A463146A0601EF049FA0348214600784C
:105300001EF0B8FBF8BD00008606002070B505460B
:105310000C4606201EF03AFB01000BD091200870CD
:105320000F2048708D700120C87003488C80007871
:105330001EF0A0FB70BD00008606002010B50446DC
:1053400003201EF023FB010008D0912008701A20D2
:10535000487003488C7000781EF08CFB10BD000074
:105360008606002070B5064614460D4608201EF03D
:105370000DFB01000AD091200870052048708E7046
:105380008D8003488C7100781EF074FB70BD0000A6
:105390008606002070B5064614460D4608201EF00D
:1053A000F5FA01000CD0922008703E2048700820C9
:1053B00088708D808E710348CC7180781EF05AFB06
:1053C00070BD00008606002070B505460C4606201C
:1053D0001EF0DCFA010009D09120087030204870DE
:1053E0008D7003488C8000781EF044FB70BD000077
:1053F00086060020FFB5064681B017460D461620EA
:105400001EF0C4FA04002FD0912020703E2060705E
:105410000120A07030460026002808D03120E0701E
:1054200020460622002108301EF0A8FA06E0E670A9
:105430002046062208300A991EF0A8F9A580A77117
:105440000498E0710B98E0810C9820820D9860829E
:105450000E9820750548214600781EF00BFB082D9C
:1054600002D2034968000E5205B0F0BD8606002046
:10547000FC370020F8B507461C4615460E460C20A2
:105480001EF084FA01000FD0912008703E20487071
:1054900003208870CF708E80CD800C810698488163
:1054A000024800781EF0E6FAF8BD000086060020EB
:1054B000F8B507461C4615460E460E201EF066FA45
:1054C00001000FD0912008703E204870072088709E
:1054D0008F80CE800D814C810698888102480078AB
:1054E0001EF0C8FAF8BD000086060020FFB506468B
:1054F00081B017460D4622201EF048FA040048D01D
:10550000912020703E2060700A20A0703046002656
:10551000002814D03120E0702046062200210830F7
:105520001EF02CFA2046062200210E301EF026FA2C
:1055300020460622002114301EF020FA12E0E67008
:105540002046062208300A991EF020F9204606223D
:105550000E300B991EF01AF92046062214300C99D1
:105560001EF014F9A580A7710498E0710D9860836E
:105570000E98A0830F98E0832021109808550648C4
:10558000214600781EF076FA082D02D20349680001
:105590000E5205B0F0BD000086060020FC3700204A
:1055A000F8B5064615460F4610201EF0EFF9040028
:1055B00011D0922020703E2060700520A070A6803F
:1055C00008223946A01D1EF0E1F80348E5818078E5
:1055D00021461EF04FFAF8BD86060020F8B50646B3
:1055E00017460D460E201EF0D1F9040011D092206E
:1055F00020703E2060700420A070E670A580082214
:105600003946A01D1EF0C2F80248214600781EF05F
:1056100031FAF8BD86060020F8B507461C46154647
:105620000E460E201EF0B2F901000FD09120087036
:105630003E204870062088708F80CE800D814C817E
:1056400006988881024800781EF014FAF8BD000020
:105650008606002070B514460D4608201EF096F907
:1056600001000BD090200870132048700120887032
:105670008D800348CC8000781EF0FCF970BD0000DE
:10568000C8060020F8B507461C4615460E460C20F5
:105690001EF07CF901000DD0912008700C2048709C
:1056A0008F708E808D710C81069848810248007839
:1056B0001EF0E0F9F8BD000086060020FFB581B0BD
:1056C000444E02990025F068174602292CD0B18873
:1056D00000297CD07288CB19121D934271D84018D2
:1056E0003A4604991EF052F8B088C01980B2B080D2
:1056F0007188091D88425CD10C201EF047F9010019
:105700005ED090200870FF204870019848800220E9
:105710000871B088C880F06888602F4800781EF053
:10572000A9F9B580357044E004994A780B781102E4
:1057300019433A1F7180914222D10C201EF026F9A4
:1057400004003BD090202070FF20607001986080A2
:1057500002982071E780214938461EF033F8A06096
:10576000002809D03A4604991EF010F81A4821463C
:1057700000781EF07FF91CE020461EF079F81DE04D
:1057800091421BDD3178002903D0002801D01EF0A2
:105790006FF870881149001D80B21EF013F8F06098
:1057A000002814D03A4604991DF0F0FFB78001207C
:1057B0003070002005B0F0BD09E002E0B58006E0E1
:1057C000F068002801D01EF053F8B5803570012034
:1057D000F0E7000080060020C806002001800000DD
:1057E000FFB583B01C4615460E460C9F039811F07A
:1057F000CBFF002809D06846068045808480C7809A
:10580000FF226946039800F01DF807B0F0BD0000C4
:1058100010B50449642248600348022100781EF054
:10582000CDFA10BD600300206803002008B51346C0
:10583000034A00920A46012111F042FD08BD000012
:10584000A96501003EB500230192042402930A4693
:105850000094024B122111F03FFE3EBD4F66010045
:1058600008B51346034A00920A46132111F028FD99
:1058700008BD00007B6601001FB56946C881002293
:10588000FF2103206C4607C4034B03AA06210348EB
:1058900011F022FE04B010BD1F660100FFFF0000E2
:1058A0000148408970470000C006002013B5044835
:1058B0004079012803D101AA6946FFF722FC1CBDEB
:1058C000C006002070B50025254C3022257065707B
:1058D000E57025716571A571E5716581256120729D
:1058E000294620481EF04AF811F0F2FF26460C36F1
:1058F000307800280ED000011B491DF063FF606165
:10590000002807D0717821713178E1700A010021F7
:105910001EF034F81548217900784018C0B21249B9
:1059200020700001491C1DF04DFF2061002811D09E
:1059300021780A0100211EF021F80020FF2105E056
:1059400023690201D218401C5172C0B222789042E1
:10595000F6D301E025702571054812F067F870BD97
:10596000C00600200C380020044C0000F404002085
:10597000ED6901000A2A01D0012070474A780B78AE
:1059800012021A430280CA788B7812021A434280AC
:105990004A790B7912021A438280CA798B791202F2
:1059A0001A43C2804A7A0B7A1102194301810020FE
:1059B0007047042A01D0012070474A780B78120200
:1059C0001A430280CA788B78110219434180002063
:1059D0007047082A01D0012070474A780B781202DC
:1059E0001A430280CA788B7812021A4342804A799D
:1059F0000B7912021A438280CA798B7911021943FA
:105A0000C180002070470000F8B5214E0D46080403
:105A10002ED5307A1DF0F6FF04000BD020789028A8
:105A200005D16078132808D0204611F047FB2046A6
:105A30001DF0C0FF0120C00328E016490020097CAA
:105A4000A7780BE04200121992797378D218D2B27B
:105A50007270914200D27170401CC0B28742F1D87E
:105A600070780028E3D00121307A1EF055F8DEE787
:105A7000E8070CD011F010FD002806D0707800283F
:105A800003D00121307A1EF047F801206840F8BDAC
:105A9000C006002080320020042907D0052905D047
:105AA000062903D0072901D0022070470C22044B9D
:105AB0004A43D218403A1182907400207047000087
:105AC0000C38002070B50C4609880546042905D01D
:105AD000052903D0062901D0072929D160680028AB
:105AE00026D00121284611F0D5FF00281ED02846D7
:105AF00011F020FF0F498D420BD0002809D1618899
:105B0000002906D9208806280ED10B48008881423A
:105B10000AD20A480078002804D02146284610F00E
:105B20000FFE70BD162070BD1B2070BD142070BD0F
:105B3000022070BDFEFF0000CA060020C106002042
:105B4000024A001F5081517091707047C0060020BA
:105B500010B5801D80B205491DF034FE002803D029
:105B60000521C9431DF0C0FD10BD0000034C00001D
:105B70000B480A4900688A884261CA88C2618B88DA
:105B80004362CA88C2624363C2634364C2640989D0
:105B900081651F2141600349C1607047B432002014
:105BA000900300201F03000010B5FCF783F810BD20
:105BB00070B515461C46214A0B46916B90B00029E2
:105BC00002D0097B002934D1116C002902D0C97997
:105BD00000292ED1916C002902D0C979002928D141
:105BE000164940318E8E16498988890A8E4202D321
:105BF000072010B070BD11496031097F490618D5E2
:105C00006946C8700622194601A81DF0BFFD0AA802
:105C10001022294602301DF0B9FD06A810222146A7
:105C200002301DF0B3FD684601F0AAFB801B01287D
:105C300001D00C20DDE70020DBE700000C3A00205B
:105C4000803200201CB51B4B9A6B002A05D0147BB8
:105C5000002C02D0D27A002A11D11A6C002A05D069
:105C6000D479002C02D0127BD20708D19A6C002A7A
:105C700007D0D379002B04D0D27B002A01D0122088
:105C80001CBD0C4A0C4B40329B88928D9B0A9A4259
:105C90000BD26A46507000A8062202301DF076FD35
:105CA000684602F0C5F9012801D007201CBD00207C
:105CB0001CBD00000C3A002080320020F0B51F4CC3
:105CC00089B00D4606462146002006F052FA00280B
:105CD000F9D0A042F7D000210446012080052746D4
:105CE000074300910191029103910491059106915E
:105CF00007916A46D773390A9173390C517330464C
:105D000004AA694600F066FC6A46907F517F000253
:105D100009044018D17F40182870010A6970000CEE
:105D2000A8700121200A89030843EF702871200C14
:105D300040210843687109B0F0BD0000FFFF3F003B
:105D4000F8B544490C46C86A80342073020A62736D
:105D5000000CA073886AE073010A2174000C60745F
:105D60003D49002006F0F6F900270646791E384620
:105D700006F0FFF9384332467D1E0AE03146002026
:105D800006F0E8F906462946002006F0F2F9384305
:105D900032469104304E890C0143EFD0D343C143C6
:105DA00033401943EAD0FF2301461B0219402076F5
:105DB000090A617619020140090CA176000EE0760D
:105DC000100AC0212277084360770120214D0090FE
:105DD000A0352149002006F0BDF900270646791EAE
:105DE000384606F0C6F90146394330460A460243B2
:105DF000EFD0194BCA4343401A43EAD0FF230A4667
:105E00001B021A40130A0A46FF273F043A40CEB24B
:105E1000A677C7B2E377120C2A70090E6970800466
:105E2000AF70800EBC46E870277BBE4211D1667B06
:105E3000B3420ED1A37B9A420BD1E27B914208D1AF
:105E4000227C944505D1617C884202D100980028CB
:105E5000BFD1F8BD0C3A0020FF3F000010B500F0A4
:105E60001DF882228021002001F074FA10BD00008C
:105E700010B50648C078002804D1054804F0ACFCF1
:105E800000F0E4FC04490348C86310BDB4320020AC
:105E9000856B0000817C01000C3A002010B50B4896
:105EA000846B06F031FA00202073A0722071084C38
:105EB0000121E0781DF0E0FFE07802211DF0DCFF19
:105EC000E07804211DF0D8FF10BD00000C3A00203E
:105ED000B432002010B501F0EBFA002010BD000034
:105EE00010B51149886B002805D0027B002A02D02A
:105EF000C07A002811D1086C002805D0C279002A88
:105F000002D0007BC00708D1886C002807D0C17977
:105F1000002904D0C07B002801D0122010BD02F05F
:105F2000BFF8002010BD00000C3A0020FFB581B082
:105F30000D4600F081FA040022D01920C0018542EC
:105F40001ED8062D1CD30399814219D8A94217D314
:105F5000FF220499F432914212D80A9981420FD853
:105F60000498C900401C6843814209DDA07BC0073A
:105F700006D126468036B168480701D4880702D585
:105F8000122005B0F0BD20464030C585039A028638
:105F90000B9A42860C9A8286049A82820A9A074653
:105FA000C282E07902220028A07E02D000282ED0F2
:105FB00037E0002835D1E420005D800702D5114389
:105FC000B16022E0039885420BD02818410828468A
:105FD00006F0C0F8788221465231039813F02CF86D
:105FE00000E07D821048006E411C042901D9042084
:105FF00000E0401CF873204612F0C8FF208F0421F7
:106000000A303883B0680843B060122008E0E4200A
:10601000005D800701D41A20B3E711431320B1605B
:10602000A0760020ADE700000C3A0020017A4A0774
:10603000D30FF022125812781207D20F934204D1D4
:106040000422514001720020704701207047017AFC
:106050000A07D30FF022125812785207D20F934238
:1060600004D008225140017200207047012070477F
:10607000F8B506460021084604F0C4FB184F3868FE
:1060800000282AD01748006E012826D1982081596F
:10609000308E0025814201D30C1A02E0091A124801
:1060A0000C18124800688047A04203D9011B06D58E
:1060B000844201D3251A02E0211A0B480D180C481E
:1060C000807F4008A84205D27D21281AC900484394
:1060D000400900E0002039688847B0203073F8BDDF
:1060E000C40800200C3A00200000C0A88C03002047
:1060F0008032002001468031CA6C521CCA640A6D8D
:1061000001D1521C0A65120603D50122CA6400227D
:106110000A652030C1784A0602D520221143C17099
:106120007047000070B50546FF2000022C46803401
:10613000616F05E08A8902438A81616F096861673E
:106140000029F7D1E16F002906D08A8902438A81AC
:10615000E16F0968E167F6E7E06E002801D01DF005
:1061600087FB2C4620346078FF2801D01DF060FEAC
:106170002078FF2801D01DF05BFEA078FF2801D019
:106180001DF056FEA88800F0D9F80848806800285D
:106190000BD00748006E002807D1064CE0690028A4
:1061A00003D01DF065FB0020E06170BD803200204F
:1061B0000C3A0020B432002070B504461C480E464C
:1061C000C16D0025A14200D1C565FC200059002801
:1061D00004D0A0880022802101F0BCF8E08F0028C4
:1061E00004D0A0881322812101F0B4F8A0880522F0
:1061F000812101F0AFF8A57165734E200655E07955
:10620000002807D112F0AEFC012803D8012100209C
:1062100004F0F8FAE079012807D112F0B1FC012866
:1062200003D80221002004F0EDFA002070BD000028
:106230000C3A0020014680314A6C521C4A648A6C38
:1062400001D1521C8A64120603D501224A6400223D
:106250008A642322125C520609D5028F403043889B
:10626000D2180280012288689202904388607047A9
:1062700070B5044618206072EC20005900282BD01D
:106280000F21817021464031CA8DC270120A0271FD
:106290000A8E4271120AC31C82711D468A8A2A71B3
:1062A000120A6A71CA8A4272120A82728A7FC272A2
:1062B000098C0173090A417321460C2262310E30A8
:1062C0001DF064FA20462030C17804221143C170C9
:1062D00092206073002070BD012070BD70B505462E
:1062E00018206872EC204059002825D010212C4637
:1062F00081704034E18DC170090A0171218E4171B4
:10630000090AC31C81711A46A18A1171090A5171C7
:10631000E18A4172090A8172A17FC172218C0173E5
:10632000090A417329460C2262310E301DF02EFA03
:1063300097206873002070BD012070BD70B5164CA9
:106340000346206D002102460D461CE0FF265D3607
:10635000365A9E4215D1002904D0626D824204D182
:10636000616504E01168216501E002680A601DF0C2
:106370007FFA606D0560206E002809D0401E2066FF
:1063800004E0014600680028E0D1206E002802D118
:1063900000F004F8256570BD0C3A002070B5064D7C
:1063A0006C6B03E020461DF063FA2468002CF9D1E1
:1063B0000020686370BD00000C3A0020F8B51B4D4A
:1063C000686B002831D1288C1F21C9432130184C1B
:1063D0000840217C09010818103080B21B211DF0F3
:1063E000F1F9002821D00022124B686301461646BD
:1063F0009D1C16E0002A09D08D814E604E72277CCC
:1064000097420AD90F4610370F6007E08B81277C2F
:106410003F013F1810374F60F0E70E60521C92B2F8
:106420001031277C7F1C9742E4D8F8BD0C3A00203D
:106430008032002052FF000001460648006D05E052
:10644000FF225D32125A8A4202D000680028F7D13A
:10645000704700000C3A002030B50C4A0446094849
:10646000137C0021406B084D5B1C07E08289A2422F
:1064700007D0AA4205D0491CC9B210308B42F5D8CA
:10648000002030BD0C3A0020FFFF000080320020C9
:1064900010B51422002102481DF070FA10BD000052
:1064A0005C3A002070B5FF256135102128461DF0AB
:1064B00089F904462A4600211DF060FA002C0FD00D
:1064C0001F4D01232A6D002A0CD0686DFF3041302A
:1064D000818B491C89B2080400D50121104609E0CE
:1064E000002070BD19460AE0FF265D36365A8E42FE
:1064F00003D000680028F7D101E00028E9D1264642
:10650000FF364136B183002910D0002A12D0686DC1
:1065100004606C65286E401C2866696D0020086068
:10652000B18BA180A0712073A08870BD20461DF0A2
:106530009FF9F9E72C656C652B66FFF73FFFECE7E9
:106540000C3A002010B50648806C002806D0C079AF
:10655000002803D000F0E0F9002010BD0C2010BD91
:106560000C3A002010B50C46FFF766FF00280FD04C
:106570008179102901D0022010BD4E210C54C1791F
:10658000002903D031214173002010BD3021FAE7EA
:10659000122010BD70B504460D206072EC20005929
:1065A000002815D0054604202146A870FF31082296
:1065B0002D31E81C1DF0EAF82146FF31284604225F
:1065C00035310B301DF0E2F844206073002070BDBF
:1065D000012070BD30B54478037824021B198478FB
:1065E000C57824042D06641989B01B1900934479D9
:1065F000037924021B198479C57924042D066419B2
:106600001B190193447A037A24021B19847AC57AF0
:1066100024042D0664191B190293447B037B240276
:106620001B19847BC07B24040006201818180390D3
:106630004B7808781B02C0188B78CC781B04240692
:106640001B19C01804904B7908791B02C0188B796C
:10665000CC791B0424061B19C01805904B7A087AC4
:106660001B02C318887ACC7A000424060019181873
:1066700006904B7B087B1B02C0188B7BC97B1B04DD
:10668000090659184018079004A96846FAF78EFCC5
:10669000002009B030BD10B5092301464372803196
:1066A000CA6E002A0FD09370C279CB6E002A06D032
:1066B00008225C31D81C1DF069F8002010BD0822AA
:1066C0000146D431F6E7012010BD0000F8B50746B9
:1066D0002A48C1780020C04300294BD0002F49D060
:1066E00027490C6D002C45D00646E079012811D1D0
:1066F000608EA18D88420DD2627B012A0AD1254687
:1067000080356A6F002A05D1AA68002A02D1E27B8F
:10671000C02A03D098200159208E0EE0091A68691A
:10672000401E41430091A16F0098FAF795FA401C72
:1067300080B22086AA6900995118814201D30D1AAE
:1067400002E0091A0F480D18AE4200D92E462468FF
:10675000002CCAD10C4800688047B04201D8301ADA
:1067600006E0B04207D58642F9D2311A054808182A
:1067700038603046F8BD00213960F8BDB4320020E1
:106780000C3A00200000C0A88C030020F1B50025C1
:1067900082B02C460420029A290E121824020C43BF
:1067A000FF32290201321579401E0D4340B2002804
:1067B000F1DA0298C17C203040790818C7B2252F41
:1067C00001D3253FFFB202983A46C7740120002149
:1067D000FAF7CFFA28402140084302D00298877484
:1067E000FEBD002006460090324601200021FAF747
:1067F000C0FA28402140084303D00098401CC0B292
:106800000090761C76B2252EEEDB38460099FAF71A
:1068100023FA00273E460091324601200021FAF774
:10682000A8FA28402140084307D00098874202D1A7
:1068300002988674FEBD7F1C7FB2761C76B2252E30
:10684000EADBFEBD0021C1747047000070B505464B
:106850002948002404602948B022046021462848C1
:106860001DF08CF82748284AC570D07D117E0002A3
:1068700009044018917D254D41182148C162917E3F
:10688000D37E09021B04C918537EC91881620821EE
:10689000C18105821E4B43820175C3824175058308
:1068A00043830146FF2360310B774C778C77CC779D
:1068B00020310C704C708C70CC7020318B72DF24C6
:1068C000CC720B734C731F238B73D17B0184CA0072
:1068D000703242848184C2841B218183FF2149312B
:1068E000C1830C490163FBF769F9FFF7D1FD01F0A2
:1068F000E9FB00F0F5FD70BD7C060020C408002017
:106900000C3A0020B432002080320020D70700006B
:106910008081000000F9150070B50E48846C05F008
:10692000F3FC0D4DFF21E87801311DF0A5FA01219E
:10693000E87849021DF0A0FA0321002003F062FF6D
:106940000020E0712071A0718122802100F002FD01
:1069500070BD00000C3A0020B43200200449098CBC
:106960000170002141700349097C8170002070474B
:106970000C3A00208032002070B509214172EC21D0
:106980000958002933D014228A700246FF3224327B
:106990001346547E127E25021543CA1C1446CD7040
:1069A00002462D0AFF320D712232557F167F2A02D0
:1069B00032434A71120A8A715A7F1B7F12021A43AC
:1069C0002271120A62710246FF3242325378147801
:1069D0001A0222434A72120A8A7201462031CA7888
:1069E00004231A43CA70B2214173002070BD0120F4
:1069F00070BD70B509214172EC21095800292AD0D7
:106A000015228A700246FF3224321346547E127ECB
:106A100025021543CA1C14460246CD70FF322D0ACA
:106A200022320D71557F167F2A0232434A71120AB3
:106A30008A715A7F1B7F12021A432271120AFF3099
:106A40006271423042780378100218434872000A9B
:106A50008872002070BD012070BD10B5FFF7ECFCFE
:106A6000002805D0C179012902D1417B462901D0F6
:106A7000022010BD0146062220310A7147224273CE
:106A8000C87801221043C870002010BD70B50C46B4
:106A9000FFF7D2FC002802D0C179012901D00120E2
:106AA00070BD417B46292FD1A27BE17B1202891860
:106AB000627B237B12041B06D2188A1801468031A0
:106AC000CA62A37AE27A1B02D218637A257A1B047F
:106AD0002D065B19D2180A63A379E2791B02D2183A
:106AE000637925791B042D065B19D2184A63A378B4
:106AF000E2781B02D218637824781B0424061B1941
:106B0000D2188A6350214173002070BD70B50D46C4
:106B1000FFF792FC040006D02946FFF74DFB203416
:106B20002071002070BD122070BD01214172EC2146
:106B30000958002905D00B228A7074214173002066
:106B400070470120704701214172EC21095800294A
:106B50000AD012228A70A22141732030C178042207
:106B60001143C1700020704701207047012141721C
:106B70008030C06E002803D0132181700020704740
:106B80000120704770B50C460146200412D5084616
:106B90001CF038FF05000AD02878802801D0812811
:106BA00002D1284600F072F828461CF003FF0120AD
:106BB000C00363E03349E207886B8030002A05D0C8
:106BC0000068002800D08047012057E0A20705D5C3
:106BD0004068002800D0804702204FE0600703D5BE
:106BE000FFF73CF9042049E02648A206006C05D5D1
:106BF000806C002800D0804720203FE0E20605D5C9
:106C0000406C002800D08047102037E01D48A205C6
:106C1000806C06D5006E002800D08047012040021D
:106C20002CE0E20506D5C06D002800D08047FF208B
:106C3000013023E0134AE004157915D51248427853
:106C4000D2070FD000224270406903234278521DC0
:106C50001A43805CC00602D40889401C088128467B
:106C600000F0A2FA204670BDA00409D5CB798A793C
:106C70004979284601F030F901204003604070BD99
:106C8000002070BD0C3A0020D4320020F0B501780D
:106C900000248DB0802902D081297DD0E0E1FF4E13
:106CA000417835468035062977D006DC0B0003F0A5
:106CB0006BFF060D44F6F5F4F3F607296ED0812933
:106CC0006DD082296CD08629E8D185E14088FFF714
:106CD000B3FB050070D0E87B400602D403200DB062
:106CE000F0BD2E46AC758036F06F002823D0436887
:106CF000827A017AA8889B1CFEF7C2FA00280DD17F
:106D0000F06FFF228189120211438181F06F0068C8
:106D1000F067A88F002801D0401EA887F06F0028D8
:106D200009D0A8880022802100F014FB002801D19E
:106D30000120A8750BE2AC8709E24088FFF77CFBD5
:106D40000700C7D0F879012837D0B66C002EC1D023
:106D50006879800773D53420805D022870D00622C0
:106D6000002107A81CF00AFE354640352879022884
:106D700067D00622002109A81CF000FE0622A91DEA
:106D80000BA81CF003FDF98DB88D7A8D039204AB2E
:106D900013C309AA07A904E04FE107E12CE196E03B
:106DA000A7E00BA86B4607C324206B79B988C05DA8
:106DB0000022FEF7E0F985E00AE1B46B002C89D0EF
:106DC000687980073ED5254660352879022812D09B
:106DD0000622002107A81CF0D1FD687D022811D3EE
:106DE00021460622763109A81CF0D0FC216E06222D
:106DF0000BA8091D0FE02146062207A866311CF0EA
:106E0000C5FCEAE70622002109A81CF0B7FD2146CF
:106E1000062276310BA81CF0B9FC38462030798D5B
:106E20008479FB8DBA8D03AE1EC609AB07AA0BA9E8
:106E30006C460EC46B7DB98800790122B9E72FE05A
:106E400011E017E038462030798D8579FB8DBA8DB9
:106E500001AE2EC62146763100916034637DB9883B
:106E6000007901222CE031460622363107A81CF0B9
:106E70008DFC79E731460622463109A81CF086FCD4
:106E8000716D06220BA8091D1CF080FC706D02219B
:106E9000C0780843687176E775E05EE04CE0DFE0BB
:106EA000F88DB98D7A8D039030464630019200906E
:106EB00004940291403624207379B988C05D002281
:106EC000FEF73CF9F87B40210843F8733FE1B06CD2
:106ED00000287DD0C28A818AC38C02AD019316C579
:106EE000014646310091403000224379114602208C
:106EF0001FE0B06B0028ECD0697989070DD50594A7
:106F000006940023039404940094019401221946EA
:106F10003C200294FEF72FF919E101466E310091F1
:106F200001940294039460300494437B0122002175
:106F30003C20FEF703F90AE14088FFF77DFA0028BC
:106F4000C7D001464031CA8A00928B8A4A8A81881A
:106F500020300079FEF7FFF8F9E04088FFF76CFA7F
:106F60000028B6D0C1790129818807D02422135C7A
:106F70000246DC321846FEF722F9E8E02422135CD0
:106F80000246D432F6E74088FFF756FA00281FD0B1
:106F9000C11DFC314A7E097E12020A4301468388E4
:106FA000FF3114311846FEF7F6F8D0E04088FFF7BD
:106FB00043FA04000CD020464030C18A0091838AF5
:106FC000028EC18DA088FEF70AF9A07B042100E0A3
:106FD0007BE00843A073BAE04088FFF72DFA002851
:106FE00073D001464031CA8A00928B8A0A8EC98DBD
:106FF0008088FEF73FF9AAE04088FFF71DFA0028D5
:1070000063D00146FF3144314B7C0A460C7C1902A7
:10701000214300910146FF3142314B7C0C7C1B0225
:107020002343547D157D22022A434C7D0D7D210290
:1070300029438088FEF799F889E041781A296BD0B6
:1070400008DC05290ED0082934D00C2945D0132995
:1070500006D153E0302969D0572975D0FF2976D061
:1070600001203CE64088FFF7E7F905006AD0F420EC
:107070004659002E10D070681CF0FAFBE88F366875
:10708000401CE887002EF6D10204120C04D0A98817
:107090000120FEF7DDF8EC874E2001E00C3A0020DD
:1070A000425D2420A988405DFEF71FF82846FFF7BF
:1070B00039F84CE04088FFF7BFF9002842D046215C
:1070C000095C002902D0012201E03BE00022818816
:1070D00020300079FEF70DF839E04088FFF7ACF971
:1070E00000282FD0014640318A8900924B894A7A84
:1070F000818820300079FEF7B3F828E04088FFF758
:107100009BF905001ED0EA8F002A20D0A988012013
:10711000FEF79EF8EC871AE04088FFF78DF900280B
:1071200010D020300079FDF7D8FF10E04088FFF73D
:1071300083F9002806D0818820300079FDF7DDFF33
:1071400005E001E00220CAE54088FDF7BDFF002010
:10715000C5E570B505460024FF21012005F017F8AC
:107160002855641CE4B2082CF6D3002070BD000042
:10717000064A0021531880331B7B0370491CC9B297
:10718000401C0629F6D30020704700000C3A00206E
:1071900010B50C46FFF750F9002803D0007D207091
:1071A000002010BD022010BD10B5002803D00B2810
:1071B00003D8401E06E025200CE00C2804D0262829
:1071C00004D8801EC0B205E0262003E0272801D0A5
:1071D000122010BD05F062F8002010BD022141729E
:1071E000014680310A46C96E002907D00D238B70F5
:1071F0002030D16E0079C8700020704701207047A0
:1072000003224272EC221258002A07D011239370F5
:10721000D170203000791071002070470120704734
:1072200010B50C46FFF708F900280FD024210C54A4
:10723000817B4A070AD5FB221140817380300122ED
:107240008168920311438160002010BD122010BD9F
:10725000FFB581B016460F46FFF7EEF804463A49EF
:10726000B81F88426ED2481D86426BD8BE4269D391
:10727000FF220499F432914264D80A99814261D87C
:107280000498C900401C7043400081425ADD002C24
:1072900058D0A07B410749D5FB2108402546A07363
:1072A0004035EF852E86E079002808D020468030D2
:1072B00001228168520311438160102035E0688CFF
:1072C0002249884204D0B74202D12882608D09E069
:1072D000E88B0090002807D001463046F9F7BCFC47
:1072E0000099484368820AE0B8194108384604F01A
:1072F00031FF688221465231304611F09DFE14481C
:10730000006E411C042901D9042000E0401CE873F0
:10731000204611F03BFE208F04220A3028832046AD
:1073200080308168114381601120A07640340B9831
:1073300060860C98A0860498A0820A98E0820020BB
:1073400005B0F0BD1220FBE77B0C0000FFFF000042
:107350000C3A002070B5064614460D4604201CF079
:1073600015FB010007D00D704C7004484E80C078AA
:107370001CF080FB70BD042070BD0000B432002002
:10738000F0B5002787B00546384800970197029767
:1073900003973E46846F0CE0E078E978884206D196
:1073A0001022291D201D1CF0E3F9012842D0264699
:1073B000E46B002CF0D11A2140201CF003FA0400E9
:1073C00038D0E878E0700622291D201D1CF0DEF977
:1073D00020461A30294610221A31059004901CF0DC
:1073E00091FB1022694604981CF0C2F9002823D0B2
:1073F000A772294620462A3010222A3105461CF061
:1074000081FB1022694628461CF0B2F900281FD0E3
:10741000A774164D2046296B11F022FF002E23D0B1
:10742000F4631249E7634031888E401C80B288863D
:1074300007B0F0BD0020FBE70120A072E078022138
:107440000843E07221460C310598FEF737FCD0E77F
:107450000120A074E07802210843E0742146143131
:107460002846FEF72BFCD4E7AC67DAE70C3A00209D
:10747000F7B50E4815466E46846F0CE068464078B6
:10748000E178884206D10622211DB01C1CF070F95B
:10749000012804D0E46B002CF0D10020FEBD204672
:1074A00029462A3011F08EFEFEBD00000C3A002065
:1074B00070B50A4DFF26AC6F07E020781CF0B8FCD1
:1074C00026702046E46B1CF0D3F9002CF5D1002087
:1074D0000249A8674031888670BD00000C3A002040
:1074E00010B504490020888640398867FEF728FCDB
:1074F00010BD00004C3A002070B505460B48846F63
:107500000DE06878E178C007C00F884206D10622F6
:10751000211DA81C1CF02CF9012804D0E46B002CC0
:10752000EFD1002070BD204670BD00000C3A002055
:1075300070B505460848846F07E02046A91C2A302C
:1075400011F040FE012804D0E46B002CF5D100209E
:1075500070BD204670BD00000C3A0020F8B504460E
:107560008030016FC81C0A798446CB78100218431A
:107570002E4B821F9A4225D28B794D791B021926F8
:107580004A1C2B43F601B3421CD883421AD36546EA
:107590006F792D793F022F43FF25F435BE46AF4268
:1075A00010D8557A177A2D023D43B5420AD876464F
:1075B000761C4643EF00BE4204DACE7A002E03D09A
:1075C0009E4201D91E20F8BD668D0027864208D153
:1075D0009E4206D1A38D734503D1E38DAB4200D10A
:1075E000012723464033D885507915790002284376
:1075F0001886604645790679280230439882507A89
:10760000127A00021043D882C87AD883487B0A7B5A
:1076100000021043188420460C2262300E311CF008
:10762000B5F80420A0763846F8BD00007B0C0000B9
:1076300070B5F0210B58DA1C197914460A02DD786E
:107640000146FF312A434131CA805A1C9B79157982
:107650001B022B430B81637924791B0223434B814B
:10766000537A147A1A0222438A8111F006F970BD06
:10767000F02109584030CA7842724A790B791202D7
:107680001A434281CA798B7911021943818170476B
:1076900070B50F48046C04F037FE0025A571042175
:1076A000284603F0AFF80B4928208877E57125714B
:1076B000E0691CF0DDF82583E5612562064C1021A8
:1076C000E0781CF0D9FBE07820211CF0D5FB70BDE0
:1076D0000C3A002080320020B43200200021417298
:1076E000017A012289088900114301728030C06E3D
:1076F000002801D00020704701207047FFB583B0FB
:1077000015460F46FEF798FE04003AD02046FF309B
:1077100042300190417D007D0E020643AE4259D2B7
:10772000681E30183146F9F7ADFA87B23E48761D2B
:1077300006403846704380B20B211CF043F800909D
:1077400000286FD03848A838FEF786FE002836D0CB
:10775000017B81818034616F002915D0A16F0860A1
:10776000A067A16F00200860A06F4581A16F012074
:1077700048728020A16F00250872A16F00984860B0
:1077800017E0022007B0F0BD6067E9E7A06F069B35
:1077900041683046684308180199801C4A7D097D7C
:1077A00012020A4311466943C9181BF0EFFF6D1C12
:1077B000EDB2BD42EAD306981CF05AF827E01B4808
:1077C000026B002A02D01A490220904700981CF050
:1077D0004FF827E01448A838FEF73EFE00281AD0DC
:1077E000017B81818034616F002912D0A16F086014
:1077F000A067A16F00200860A06F4581A16F0120E4
:107800004872A06F07720698A16F801E4860002022
:10781000B8E76067ECE70548026B002A02D004492C
:10782000022090470720ADE7FCFF000080320020D7
:10783000AA55000030B5C37D0146027A8031002B85
:1078400009D04B6F5B681A704B6F427A5B685A7055
:10785000496F496805E0CB6E1A70CB6E427A5A7058
:10786000C96E1A4C437A226941339B090D68156031
:107870004D6855608D689560CD68D5600D6915615E
:107880004D6955618D699561CD69D5610D6A156246
:107890004D6A55628D6A9562CD6AD5620D6B15632E
:1078A0004D6B55638D6B9563CD6BD5634031403225
:1078B0005B1E1B061B0ED9D1407A0549401D80086E
:1078C0002269897C8000115030BD0000D432002034
:1078D00080320020114A916B002902D0097B0029D7
:1078E0000BD1116C002902D0C979002905D1916C06
:1078F000002904D0C979002901D0122070475070A6
:10790000064A80325179002802D00620014301E066
:10791000F920014051710020704700000C3A00200E
:1079200070B53849C96B00296AD0364A0028946B73
:1079300002D0012809D063E0002C61D0207B002810
:107940005ED0FEF7ABFA002070BD01260025F602DE
:10795000002C10D18847040018D026826682A576B4
:107960000720E076652005552649204606228C3101
:1079700066301BF00BFF207B012841D0A07E010761
:1079800006D00007000F012802D009E0032070BDD7
:1079900011F0F6F81C49097F8907890F88422FD01A
:1079A000A07E0107090FA17101280AD0208A628AEE
:1079B0008018400801229203A08290420BD9A28233
:1079C00014E00620A0821148E582C07832460421E6
:1079D0001CF0F4F90FE0022904D0062902D0202877
:1079E0000CD302E0A02800D2A020A0821021002009
:1079F00004F0B0FBE082E06F804770BD2020F4E728
:107A0000122070BD0C3A002080320020B4320020D9
:107A100070B504460D480D46C26B002A03D0806B3A
:107A2000002802D004E0122070BD904700280AD040
:107A3000E206D20E0277002C03D029461E301BF03E
:107A4000A5FE002070BD032070BD00000C3A002090
:107A5000FFB5294981B0C86B0B9D1E46174600280B
:107A600003D08C6B002C03D005E0122005B0F0BDD4
:107A70008047040015D0019820820298012100223D
:107A80006082012F0FD0022F0FD0032F0FD0042FB1
:107A90000FD0A2762046603046712B78002B1AD189
:107AA0000AE00320E2E7A176F4E7062002E00220E4
:107AB00000E01120A076EDE76B78002B0BD1AB78BE
:107AC000002B08D1EB78002B05D12B79002B02D1AC
:107AD0006B79002B09D001730A9941732046062265
:107AE00029466E301BF052FE00E002730C98E076DF
:107AF0000D98E0720020B9E70C3A002070B51546E9
:107B00000C46FEF799FC002827D0154A138CA34297
:107B100005D30146FF3124310C77230A04E00146E6
:107B2000FF3124310B771B0A4B77518CA94206D3C6
:107B30000146FF3142310D702A0A4A7005E00246C3
:107B4000FF3242321170090A51708030012281687F
:107B5000120311438160002070BD122070BD00002F
:107B60000C3A002010B5040024D01C498A6B002A6E
:107B700002D0107B00280BD1086C002802D0C079FD
:107B8000002805D1886C002804D0C079002801D0D5
:107B90000C2010BD0120887010480622214692302A
:107BA0001BF0F4FD62799309032B05D0900908D0EE
:107BB000012B0BD0122010BD084806222146983018
:107BC00008E00648062221469E3003E003480622CC
:107BD0002146A4301BF0DAFD002010BD0C3A002035
:107BE00070B51921084D890148432863AC6F06E040
:107BF0002078FF2802D0296B1CF05AF9E46B002C86
:107C0000F6D1002070BD00000C3A002010B50C46E3
:107C10001E494B6C002B05D00A6C002804D00128AB
:107C200007D00EE00C2010BD002A0AD0FFF730FD6F
:107C300029E0002A07D01046C179012901D0002986
:107C40000ED0122010BD9847002807D00021C17225
:107C500010224282828225221154EDE7032010BDBA
:107C6000428A012189038A4200D94182828A418A5B
:107C70008A4200D98182818A55225143090AC182F0
:107C80008473006C8047002010BD00000C3A002077
:107C900070B505460C480C46C26B002A03D0806BB9
:107CA000002802D004E0122070BD9047002808D0C0
:107CB000EA06D20E427721463E301BF067FD0020D7
:107CC00070BD032070BD00000C3A002010B5FEF717
:107CD000CFF80448024941660349816610BD00009F
:107CE000797E01000C3A0020217F010010B5044686
:107CF0000920214660728031C86E002811D00E2202
:107D00008270C86E08225C31C01C1BF03FFD20460B
:107D10002030C17804221143C170622060730020BA
:107D200010BD012010BD01214172EC21095800292C
:107D300005D005228A70522141730020704701202E
:107D4000704701214172EC210958002905D0062213
:107D50008A70542141730020704701207047F8B5A4
:107D60001C4616460F46FEF767FB050002D0E87971
:107D7000002801D00220F8BD2846FF3008223946ED
:107D800014301BF003FDE81DFC300676310A417605
:107D9000A17BE07B09024118607B227B0004120674
:107DA00080182E4608188036F062A17AE07A09021F
:107DB0004018617A227A0904120689184018306343
:107DC000A179E07909024018617922790904120643
:107DD000891840187063A178E0780902401861782A
:107DE00022780904120689184018B06328464030EA
:107DF0008179002904D00121C1712021B06851E0AE
:107E00001BF064FE02460020C3001146D9402B1827
:107E1000FF330133401C59770428F5D31BF056FE7D
:107E200002460020C3001146D9402B18FF332133EE
:107E3000401C59700428F5D32C46E81DFF34F93056
:107E40002134C27F217812028918827F407F120478
:107E5000000610180818B062E1782079090240186D
:107E6000A1786278090412068918401870621BF024
:107E70002DFE02460020C3001146D9402B18FF33C7
:107E80002133401C59710428F5D3A1796079090286
:107E90004018E179227A0904120689184018F06323
:107EA000B06840210843B0600020F8BD0222427251
:107EB000EC21095800290DD08A704E22125CCA703C
:107EC00001462031CA7808231A43CA70322141730F
:107ED0000020704707207047FFB505003A4881B081
:107EE0000469164603D00B2D03D86D1E06E0252528
:107EF0000AE00C2D04D0262D04D8AD1EEDB203E00F
:107F0000262501E0272D0FD1002E10D0012E19D0EB
:107F1000022E1AD0032E1BD0042E24D0052E25D0DD
:107F2000062E26D0072E27D0122005B0F0BD002740
:107F300004E0FAF7C3F8E11988707F1C02988742C1
:107F4000F7DB1EE0F021029A18E0AA21029A15E060
:107F5000002704E0FAF790F8E11988707F1C029876
:107F60008742F7DB0DE0FF21029A07E00021029A29
:107F700004E00F21029A01E0029A5521A01C1BF097
:107F8000FDFC3007000F2070029860700498810695
:107F90000298890E401D8008800021540498029A9E
:107FA000000601D5012100E00021284604F032FB43
:107FB000054800E000BFC1780029FBD003490889CB
:107FC000401C08810020B0E7D43200200C3A002089
:107FD00002214172014680310A46C96E002906D04D
:107FE00007238B70D16E407DC87000207047012040
:107FF0007047000006214172EC210958002912D077
:108000000C220A4B8A709A7BCA701A8A0A71120A69
:108010004A715A8A8A71120ACA71C17E4906490E8A
:10802000C176002070470720704700000C3A0020FE
:10803000F8B51A4F054600263C6F0CE06078697869
:10804000884206D10622A91CA01C1BF091FB012826
:108050001ED02646A468002CF0D119210C201BF05C
:10806000B1FB040015D0687860700622A91CA01C22
:108070001BF08CFB386F00280DD0002E00D0B460B0
:108080000020A06005484030818D491C8185012079
:10809000F8BD0020F8BD3C67F2E700000C3A002074
:1080A00070B5074D2C6F03E02046A4681BF0E0FB81
:1080B000002CF9D10020024928674031888570BD25
:1080C0000C3A00200249002008674031888570473B
:1080D0000C3A002073B50A486D46046F0CE06946FF
:1080E00060784978884206D10622A91CA01C1BF0A2
:1080F0003FFB012803D0A468002CF0D100207CBDF8
:108100000C3A002010B5044802F066FB03490872DF
:1081100000200860486010BD21810000D837002091
:1081200070B50D4CC80716D00AE0836842685D0838
:108130006D00D9078560C90F02D0002A00D0904792
:108140002068002805D0016821606268824200D161
:1081500061600028E9D170BDD837002010B5034810
:1081600002F03AFB0249087010BD00007581000062
:108170005406002010B5C8071DD008F09FFF04006A
:1081800013D00020A060204614F06EF9002806D01D
:10819000204614F069F98268A16851188160204670
:1081A0001AF0ACFE20461CF0F3F914F091F900210E
:1081B0001CF06AFA002010BD184A0020917A572559
:1081C0000B071649A8264031002B05DB0D700E70F9
:1081D000937A0824234393720D700E700523138144
:1081E0000E4F20373B8803246402A3433B80937ADD
:1081F00010242343937200220A700123BC79E40700
:1082000001D00020FAE77D242401401CA042F5D9CA
:108210000D700E708B710A70F0E7000000100040C6
:1082200070B594B0564802F0D7FA564E012530701A
:108230006846057014218180642101816A462946BF
:108240005148FBF7A3F85048324628321C21801CC5
:10825000FBF79CF84C48324608320721401CFBF7DC
:1082600095F8494801AA02210C30FBF78FF84648DF
:1082700002AA02210D30FBF789F83246443215215B
:108280000020FCF77FFD502421460320FBF732FD40
:1082900021460420FBF72EFD00246846009405715A
:1082A0000572057304746A4604213848FAF742FCE3
:1082B000012101AA8802FAF73DFC344802AA0121F3
:1082C000801FFAF737FC314804AA0121401FFAF752
:1082D00031FC2E4803AA0121801EFAF72BFC651EF3
:1082E0002846FCF7A5FC2846FBF7E2FD284602F0ED
:1082F00075F9112101A8F8F767FD254D11212868AE
:10830000009024A00068139007A8F8F75DFD686846
:1083100006900F210DA8F8F757FDA8680C901EA035
:1083200003C8129111906A461521002002F080F9CD
:10833000012113AA084602F07BF906AA15210220A2
:1083400002F076F90CAA1321032002F071F911AAA8
:108350000521042002F06CF93046A11E2030018076
:1083600044808480C4801C3802F058F930461030B4
:10837000FAF7D2FD012130781BF0CEFB14B070BDAE
:108380007D84000068010020050300000704000050
:10839000304A020002000000010203040500000050
:1083A00070B5144904460A88134B40899A4205D097
:1083B000FBF7B2F811A002F0BFFB70BD0880E089A6
:1083C0004880208A8880608A0A4DC8801922203D12
:1083D0001202082128781BF0F1FC1922D201042195
:1083E00028781BF0EBFCE289618909A002F0A4FB6C
:1083F00070BD000088010020FEFF0000436F6E6E1C
:10840000656374696F6E206D61782E2E2E0A0000F0
:10841000436F6E6E202578202D20496E74202578BC
:10842000200A000038B5818810480288914219D18D
:108430000121C9430180002141808180C18004461F
:10844000203C022120781BF017FD042120781BF02E
:1084500013FD01206946087001466A460448FAF790
:1084600095FF38BD03A002F067FB38BD88010020EE
:10847000050300004552522E2E0A000070B5264E0C
:108480000C46307886B0090408D51BF0BBFA0028EA
:1084900001D01BF08FFA0120C00338E0E10707D0BC
:1084A0001D4A5C3211464439FAF738FF01202EE0AC
:1084B000A10711D51922920102211BF07FFC0F2187
:1084C00001A8F8F781FC15481321C06800906846A0
:1084D00014F010FE02201AE0114922070D880AD577
:1084E00064210A4600910190002314212846FAF7DE
:1084F000A1FD08200BE060070CD52846FAF742FFE3
:108500001922D201042130781BF058FC042060406D
:1085100006B070BD0020FBE768010020304A020071
:1085200088010020F8B50E4D57260D4C0021A827D4
:10853000203D0028267027700ED001206871287118
:1085400000202070012012F02FF9267027700D20D6
:10855000287100202070F8BD29712170F8BD00003D
:108560004010004070B5314809210068C90181629E
:10857000826C0721090703238A435B07D2188264B0
:10858000836C0F2212030324934364031B19836437
:10859000836CCC0023438364C36C0C15A343C36476
:1085A000436D802423434365C36B934322029A188F
:1085B000C263C36B0A119343A4041B19C363C36B47
:1085C000DC000123E4089B07E418C463C46D0C437A
:1085D000C465C56D0C122543C565C56D0E133543C5
:1085E000C565C56D9543C565C56AA5435C122C1963
:1085F000C462C46A944305221206A218C262C26A07
:10860000032424032243C262C26A24012243C262B9
:10861000026B120912010263026BF024A24302638F
:10862000026B8A43D118016370BD000078060020F8
:10863000FFB53B480068826D012109048A438265C9
:1086400082680A4382600025014680312B468C46B1
:108650006E46C168FF240134A143C1604168220213
:1086600011434160C1682143C1606146C968C905C1
:10867000FBD500BF00BF00BF00BF6146C9680C0743
:108680004168240F914341600F2C01D06D1CEDB265
:10869000002110E0725CA2420BD91A4605E0B7181F
:1086A000203FFF7FB754521ED2B28A42F7D1745492
:1086B00003E0491CC9B29942ECD3994200D17454E9
:1086C000032D05D05B1CDBB2102BC2D3002D1ED0B6
:1086D0003178082902D93246C91E0DE0042902D991
:1086E0003246891E08E0012902D93246491E03E0BC
:1086F000002902D1032132461170816D0F22D2016F
:10870000914332781207520D11438165FFBD826D8E
:108710000F21C9018A430521C9015118F5E700005D
:108720007806002010B51A480068016D01231B046B
:108730009943016581685C0121438160C268102111
:108740000A43C260C2688A43C26000BF00BF00BF64
:10875000C2680A43C26041680122120311434160AA
:1087600001468031CA69D205FCD500BF00BF00BFF9
:10877000C969026DC906C90E1A430265026D520924
:1087800052010A4302658168A143816010BD000067
:1087900078060020F0B5FF4887B005686868FF21BB
:1087A000013188436860A86A09018843A862E86AC1
:1087B00010218843E862A8684A031043A8606868EB
:1087C000084368606868400840006860A86BF24A27
:1087D0000321104089034018A863686801231843E7
:1087E00068602C46803420694001C10F20698001F7
:1087F000C00F0029F7D00028F5D0206986066069EF
:10880000B60EC003400E01906868400840006860E2
:10881000A86BE721104009024018A8636868184354
:10882000686020694001C10F20698001C00F0029E4
:10883000F7D00028F5D020698006800E049060698A
:10884000C003400E06906868400840006860A86B4E
:10885000D321104009024018A86368681843686073
:1088600020694001C10F20698001C00F0029F7D0A5
:108870000028F5D020698006800E039060692721CA
:10888000C003400E02900398301A06464843F8F79A
:10889000F9F90007216A000F09090901084320625C
:1088A000262070432721F8F7EDF90007226A000E11
:1088B000F0218A4310432062252070432721F8F7D6
:1088C000E1F90007226A000D0F2109028A431043D3
:1088D0002062242070432721F8F7D4F90007226A88
:1088E000000C0F2109038A431043206223207043A8
:1088F0002721F8F7C7F90007226A000B0F210904A6
:108900008A4310432062222070432721F8F7BAF9E6
:108910000007226A000A0F2109058A4310432062DA
:10892000700130182721F8F7ADF90007216A000916
:108930000F273F06B9430843206270012721F8F74B
:10894000A1F9216A000709010909084320627001A1
:10895000801B2721F8F796F90007616A000F0909C3
:108960000901084360621E2070432721F8F78AF945
:108970000007616A000EF0229143084360621D20E7
:1089800070432721F8F77EF90007616A000D3A1459
:108990009143084360621C2070432721F8F772F965
:1089A0000007616A000C3A139143084360621B2080
:1089B00070432721F8F766F90007616A000B3A1245
:1089C00091430843606230461A2148432721F8F753
:1089D00059F90007616A000A3A119143084360623D
:1089E0003046192148432721F8F74CF90007616AFE
:1089F0000009B943084360623046182148432721E3
:108A0000F8F740F9616A0007090109090843606243
:108A10003046172148432721F8F734F90007A16AA7
:108A2000000F090909010843A0621620704327219D
:108A3000F8F728F90007A16A000EF02291430843D5
:108A4000A062152070432721F8F71CF90007A16ADE
:108A5000000D3A1491430843A0621420704327216B
:108A6000F8F710F90007A16A000C3A139143084384
:108A7000A062132070432721F8F704F90007A16AC8
:108A8000000B3A1291430843A06212207043272141
:108A9000F8F7F8F80007A16A000A3A119143084371
:108AA000A062300130182721F8F7ECF80007A16A1E
:108AB0000009B9430843A06230012721F8F7E2F822
:108AC000A16A0007090109090843A0623001801B5F
:108AD0002721F8F7D7F80007E16A000F0909090113
:108AE0000843E06230460E2148432721F8F7CAF8D0
:108AF0000007E26A000EF0218A431043E06230462C
:108B00000D2148432721F8F7BDF80007E26A000D60
:108B100039148A431043E06230460C214843272130
:108B2000F8F7B0F80007E26A000C39138A431043E3
:108B3000E06230460B2148432721F8F7A3F80007ED
:108B4000E26A000B39128A431043E06230460A2180
:108B500048432721F8F796F80007E26A000A39111E
:108B60008A431043E062F00030182721F8F78AF8B2
:108B70000007E16A00093A4691430843E062F000C9
:108B80002721F8F77FF8E16A00070901090908437E
:108B9000E06203E078060020FF00FEFFF000801B8B
:108BA0002721F8F76FF80007216B000F0909090169
:108BB000084320633046062148432721F8F762F82E
:108BC0000007010E206BF022904301432163B000A7
:108BD00030182721F8F756F80007226B000D3914DA
:108BE0008A4310432063B0002721F8F74BF80007B1
:108BF000226B000C39138A43104320637000301835
:108C00002721F8F73FF80007010B206B3A12904339
:108C10000143216370002721F8F734F80007226B25
:108C2000010A381182431143216330462721F8F7A6
:108C300029F80007226B000939468A431043206354
:108C4000206B00010009206304990398471A28212A
:108C50003846F8F717F80007616B000F090909019A
:108C60000843606378002821F8F70CF80007616B6F
:108C7000000EF022914308436063780038182821E1
:108C8000F8F700F80007616B000D0F221202914304
:108C900008436063B8002821F7F7F4FF0007616B11
:108CA000000C0F221203914308436063B800381888
:108CB0002821F7F7E7FF0007616B000B0F22120472
:108CC000914308436063062078432821F7F7DAFFD1
:108CD0000007616B000A0F2212059143084360638D
:108CE000F800C01B2821F7F7CDFF0007626B0009D1
:108CF0000F2109068A4310436063F8002821F7F723
:108D0000C1FF616B00070901090908436063F800AE
:108D100038182821F7F7B6FF0007A16B000F0909E3
:108D200009010843A06338460A2148432821F7F780
:108D3000A9FF0007A26B000EF0218A431043A06335
:108D400038460B2148432821F7F79CFF0007A26B08
:108D5000010D0F20000282431143A16338460C210C
:108D600048432821F7F78EFF0007A26B010C0F2064
:108D7000000382431143A16338460D214843282153
:108D8000F7F780FF0007A26B000B0F2109048A434D
:108D90001043A06338460E2148432821F7F772FF9D
:108DA0000007A26B010A0F20000582431143A16353
:108DB0003801C01B2821F7F765FF0007A26B0009E7
:108DC0000F2109068A431043A06338012821F7F7D1
:108DD00059FFA16B0007090109090843A063380185
:108DE00038182821F7F74EFF0007E16B000F09093B
:108DF00009010843E0633846122148432821F7F768
:108E000041FF0007E26B000EF0218A431043E0634C
:108E10003846132148432821F7F734FF0007E26B57
:108E2000000D0F2109028A431043E06338461421E4
:108E300048432821F7F726FF0007E26B010C0F20BB
:108E4000000382431143E16338461521484328213A
:108E5000F7F718FF0007E26B010B0F2000048243B5
:108E60001143E1633846162148432821F7F70AFFEA
:108E70000007E26B000A0F2109058A431043E063F3
:108E80003846172148432821F7F7FCFE0007E26B1C
:108E900000090F2109068A431043E0633846182170
:108EA00048432821F7F7EEFEE16B000709010909A5
:108EB0000843E0633846192148432821F7F7E2FECA
:108EC0000007216C000F0909090108432064384696
:108ED0001A2148432821F7F7D5FE0007226C000E1F
:108EE000F0218A431043206438461B21484328213F
:108EF000F7F7C8FE0007226C000D0F2109028A4314
:108F00001043206438461C2148432821F7F7BAFE55
:108F10000007226C000C0F2109038A4310432064D0
:108F200038461D2148432821F7F7ACFE0007226C84
:108F3000000B0F2109048A431043206438461E2188
:108F400048432821F7F79EFE0007226C000A0F21F4
:108F500009058A43104320647801C01B2821F7F7D4
:108F600091FE0007226C00090F2109068A43104375
:108F7000206478012821F7F785FE216C000709019C
:108F8000090908432064780138182821F7F77AFE88
:108F90000007616C000F0909090108436064384645
:108FA000222148432821F7F76DFE0007010E606C6F
:108FB000F02290430143616438462321484328212D
:108FC000F7F760FE0007626C010D0F20000282437C
:108FD000114361643846242148432821F7F752FEA3
:108FE0000007626C000C0F2109038A431043606480
:108FF0003846252148432821F7F744FE0007626CD4
:10900000000B0F2109048A4310436064384626216F
:1090100048432821F7F736FE0007626C010A0F204B
:1090200000058243114361643846272148432821C3
:10903000F7F728FE0007626C00090F2109068A4332
:1090400010436064384628214843F7F71BFE616CE3
:10905000000709010909084360643846292148438B
:109060002821F7F70FFE0007A16C000F090909017D
:109070000843A06438462A2148432821F7F702FE16
:109080000007A26C000EF0218A431043A064069AE8
:1090900002983946801A0A2200905043F7F7F2FDF1
:1090A000082108430007A16C000D0F221202914312
:1090B0000143A16400983946C2008018F7F7E2FD29
:1090C000082108430007A16C000C0F2212039143F2
:1090D0000143A16400983946C000F7F7D3FD082189
:1090E00008430007A16C000B0F22120491430143B7
:1090F000A16400983946C200101AF7F7C3FD082191
:1091000008430007A16C000A0F2212059143014396
:10911000A1640098062239465043F7F7B3FD0821B1
:1091200008430007A16C00090F2212069143014376
:10913000A1640098394682008018F7F7A3FD082142
:109140000843A16C0007090109090143A1640098C3
:1091500039468000F7F796FD082108430007E16CC7
:10916000000F090909010143E164009839464200F2
:109170008018F7F787FD082108430007E16C000E0F
:10918000F02291430143E164009839464000F7F72B
:1091900079FD082108430007E16C000D0F2212023F
:1091A00091430143E16439460098F7F76BFD0821CC
:1091B00008430007E16C000C0F22120391430143A6
:1091C000E16431460020F7F75DFD0007E16C000B1C
:1091D0000F22120491430143E164029A019831463F
:1091E000871A3846F7F74EFD0007E16C000A0F2298
:1091F000120591430143E16431467800F7F742FDDF
:109200000007E16C00090F22120691430143E1645B
:10921000780031463818F7F735FDE16C0007090191
:1092200009090143E1643146B800F7F72BFD000757
:10923000216D000F0909090101432165B80031467C
:109240003818F7F71FFD0007216D000EF02291433B
:1092500001432165062031467843F7F713FD0007E7
:10926000216D000D0F221202914301432165F80088
:109270003146C01BF7F706FD0007216D000C0F22D9
:1092800012039143014321653146F800F7F7FAFCD8
:109290000007216D000B0F22120491430143216549
:1092A000F80031463818F7F7EDFC0007216D000A89
:1092B0000F2212059143014321650A20314678436C
:1092C000F7F7E0FC0007216D00090F221206914319
:1092D0000143216569681020814369606968490814
:1092E00049006960A96A02021143A962E96A01435F
:1092F000E962A86B8109039889010143A963A86BFE
:109300007F2109068843029909060843A86307B02C
:10931000F0BD0000034800684168FF22013211439C
:10932000416070477806002070B52548244D427F83
:10933000A02020350C464243C907287EEB7E002939
:109340000AD0810706D5000600D410220421184651
:109350001AF034FD01202EE0A1070ED541070AD5F1
:10936000000603D508211846283202E028220821E9
:1093700018461AF023FD02201DE0610704D50020E5
:1093800015F040FA042016E0210705D5400701D565
:1093900000F0C2F808200EE0E0060ED50FF0B2FE95
:1093A0000848C079062805D11922E87E92011021CB
:1093B0001AF004FD1020604070BD002070BD000058
:1093C000EC320020D432002010B504464069002859
:1093D00017D0202200211B481AF0D0FA2022214663
:1093E00018481AF0D3F9174C20346068002801D0CF
:1093F0001AF03EFA0020134960608869002802D004
:1094000004E0012010BD0020C0438861487F00288F
:1094100001D128204877887F002801D1082088774B
:10942000C87F002801D11120C877FF20207060700C
:10943000A070E07048786077886860614868206153
:10944000002010BDEC320020F8B5174800688047B6
:10945000164EB168814225D0154F884201D3401A7B
:1094600001E0401AC019114D4409203DA87FA042D7
:1094700018D800F079F8A87FB2684101241A511871
:10948000B94202D30A4A52428918B160A042F0D9C7
:109490000848006801686A78C909C9015206520E75
:1094A00011430160F8BD00008C0300200C33002044
:1094B0000000C0A870060020F8B514480068804776
:1094C000134EB16881421FD0124A884201D3401A1C
:1094D00001E0401A8018C5060D4FED0E4409203FEB
:1094E000B87F0CE000F040F8B87FB2684101511835
:1094F000084A241A914201D352428918B160A0420D
:10950000F0D960012843F8BD0020F8BD8C0300208D
:109510000C3300200000C0A870B500F055FB114CC2
:1095200008212546607F203D68706069A860206939
:109530006860E07E1AF0A0FCE07E04211AF09CFC3A
:10954000207E810704D50022114622206B6905E0A8
:10955000400704D500226B6911462420984700205B
:10956000207670BD0C33002070B519490E46203EA0
:10957000487EF27F8018C0B27070202801D3203856
:109580007070C0B2487601252946B46981400C420A
:1095900016D100210A462B4693401C4201D0491C9B
:1095A000C9B2521C52B2202AF5DBF7F755FB002254
:1095B00010462B4683401C4205D08A4201D1707070
:1095C00070BD521C52B2401C40B22028F1DB70BD6D
:1095D0000C330020FEB5F84AF64F1646F9790025FF
:1095E00010782036052902D0062976D0D4E1C007AC
:1095F0004FD0B878C0071ED0BD70EF480022436935
:1096000011460120984780203871EC48007DC00742
:1096100001D04B2300E04E23E948816B0091826B1F
:109620008A42FAD1C818E749884201D34942401812
:10963000E549C8603AE0F878002837D00024FD708A
:1096400000F0C2FA78690268D1430906090E06D013
:109650007178FF2903D0D2B28A4200D00224D649C1
:109660000978090601D5002200E00246002102F037
:1096700049FD0146D048214343697A690220984751
:109680003D71307E800711D5F07E01211AF044FA39
:109690000CE0F878002809D0FD7000F095FAC64873
:1096A000002243691146012098473D713879C0076F
:1096B0009CD03D7100F088FA0FF024FDB8780006C8
:1096C000BD48436904D500221146112003E004E09F
:1096D00000221146122098475EE1C1077AD03978FE
:1096E000C90778D07C693D7001AA0021204602F0AC
:1096F00009FD050008D1F078FF2805D02178FF2961
:1097000002D0884200D00225AB480078000605D47C
:10971000002D05D168460079207016E0002D14D088
:1097200002F0F2FDA4487A6943692946032098476C
:109730007068B378F278002802D04178801C01E08C
:109740000021084600F060F905E1307E400718D599
:109750006078205C802814D1706800280CD03969AA
:10976000FF20086095483969807C48609748006808
:10977000C168490B4903C1608F4810220178114329
:109780000170706840783A2810D9914C216891484E
:1097900082689202920E162A10D082689202920E6D
:1097A0001A2A03D28268120C9206F1D180203871F5
:1097B0008248007DC0070FD04B220EE03022844B40
:1097C000D24380331A6082689202920E1A2AFAD328
:1097D0002160EBE7A0E06AE04E22794B986B0090A5
:1097E000986B00998842F9D188187649884201D34C
:1097F000494240187449C8600021774801F002F8D6
:10980000307E844640074DD57C696C4A6078127D75
:10981000C000A030F968D20702D01F30400902E032
:109820006E4A5043400C814201D3091A02E0091AE2
:1098300064480918F960B0680A46814201D3121AD7
:1098400002E0121A5F4812186378601C185C6346C5
:10985000C0001B0610D5824208D9121A07E0081A68
:1098600002E0091A57480818B06011E0821A202A4D
:109870000ED88142F5D3F2E7814201D3081A02E003
:10988000091A50480818B0606046802108433076B5
:10989000F07E02211AF040F9B07EC0065BD46078F9
:1098A000801E607044487A692946436951E079789E
:1098B000002920D07D703D710021084600F0A2FFF4
:1098C0003D4C2078C0060FD502F01EFD7068B378BD
:1098D000F27800281DD04178801C00F095F820789F
:1098E000EF210840207036E000F06EF900221146AA
:1098F000042063692EE03979C9072CD03D712E4CC4
:10990000C006E1D400F060F900221146142063691A
:1099100020E000210846E0E7787800281BD00024EA
:109920007D7000F051F978690168CA431206120E81
:1099300006D0F278FF2A03D0C9B2914200D00224A7
:109940000246002102F0DEFB204301461A487A69F4
:10995000436903209847307E400701D5FFF774FD27
:10996000174CA06B0090A06B00998842F9D1F06869
:10997000814201D3081A02E0091A124808187D2111
:109980000902884208D90FF0BDFBA06B0090A06BC4
:1099900000998842F9D1F160B07E400724D5F8796A
:1099A000062821D07068B378F278002818D0417862
:1099B000801C17E0D4320020EC32002080320020DE
:1099C000001000400000C0A8B4320020740600203F
:1099D00000E100E000C20040D5950000C710000083
:1099E0000021084600F010F8FEBD000010B5F8F7A1
:1099F000E5F8034800F0F0FE0249C876002010BDEB
:109A0000299300000C330020FFB5644D0C462868F4
:109A10009C46016881B0134689070ED0016DC908C4
:109A2000C900016501680822114301600168090746
:109A300003D500BF00BF00BF00BF59210165584ECC
:109A40003068C16A07221205914301225205891824
:109A5000C162C16A072212069143052212068918C3
:109A6000C162504800680168CA094F49D2014F7865
:109A70007F067F0E3A4302604A6882608A6802610C
:109A8000CA6842600A69C260286842680978520858
:109A90005200C907C90F0A434260434F614620374D
:109AA000FB70B9704068C00739D07868002806D1CB
:109AB0004921A01C19F086FE7860002810D001987A
:109AC000002810D0002C0ED07968B878087078681B
:109AD0002246447078680199801C19F057FE08E00E
:109AE000012005B0F0BD7968B87808707868002466
:109AF000447079682D484A780069921C19F046FE36
:109B00002B48817C29480269601D80088000115023
:109B100028480068C168490B49032143C160B87EE9
:109B200004210843B876214C40202070002060704A
:109B300020710521204800F065FE0620E0711F48D5
:109B4000816B0091816B009A9142F9D1FA60316882
:109B50001B4A00200B46803312890FE01C69E40188
:109B600009D5C86A072212051043C862C86A1201E3
:109B70009043C86204E000BF00BF401C8242EDDC9D
:109B800010480068002804D0C1680A684069024390
:109B90000A602968012008600020A2E790030020E5
:109BA0007806002070060020EC320020D43200201D
:109BB0008032002074060020D5950000001000407F
:109BC000B43200209803002070B50B4C00250B48E0
:109BD000A57605716068002801D019F049FE0021C2
:109BE0000846656000F00EFE0521002000F00AFE28
:109BF00002F08AFB002070BD0C330020D43200201C
:109C0000FFB5B54F83B038680C460068800701D0B7
:109C100002F07AFBB148B24D007E800708D5FFF70D
:109C20004BFC1028FBD3A97F490110398142F6D3A0
:109C300039685A200865AB480068C26A07210905DF
:109C40008A43012149055118C162C26A07210906E8
:109C50008A43052109065118C162A34800680168BA
:109C6000CA099F49D2014B785B065B0E1A4302601A
:109C70004A6882608A680261CA6842600A69C26092
:109C80003A6853680D785B085B00ED07ED0F2B43D6
:109C900053600A7802231A430A70944E8021B170EF
:109CA0000021F1708D4D0599297006996970C16A7E
:109CB00089088900C1620168DA069143016003984E
:109CC000002809D030692978017044702246801C30
:109CD000039919F05BFD02E03169287808607E483D
:109CE00000684068C00701D0002100E005218048DD
:109CF00000F088FD7D480521C1717A497D4E0968D3
:109D000000200B468033328910E01F69FF010AD51D
:109D1000CB6A07273F053B43CB62CF6A07231B066D
:109D20009F43CF620AE000BF00BF401C8242ECD8D4
:109D300004E000BF00BF00BF00BF401C8242F8D853
:109D40006D480068002804D001680A6880680243F2
:109D50000A60664F802038716848007DC00701D0D6
:109D60004B2200E04E226648816B0091816B009B84
:109D70009942F9D163499818884201D34942401861
:109D8000F060287E80071ED55F483E6900688047E6
:109D9000A968884201D3401A02E0411A59480818BC
:109DA0004F49C0080978C90606D55849022400065B
:109DB00040183969086006E0A41CE4B27470002100
:109DC0003155311948704D483A69817C601D8008D1
:109DD000800011504E4908688268520B520322439A
:109DE000826080684B4AC004C00C3A2805D91068CC
:109DF0000190484B501780331860374B02201B6886
:109E0000186008688068C004C00C3A2861D900BF97
:109E100000BF00BF00BF00BF00BF00BF00BF00BF4A
:109E200000BF00BF00BF00BF00BF00BF00BF00BF3A
:109E300000BF00BF00BF00BF00BF00BF00BF00BF2A
:109E400000BF00BF00BF00BF00BF00BF00BF00BF1A
:109E500000BF00BF00BF00BF00BF00BF00BF00BF0A
:109E600000BF00BF00BF00BF00BF00BF00BF00BFFA
:109E700000BF00BF00BF00BF00BF00BF00BF00BFEA
:109E800000BF00BF00BF00BF00BF00BF00BF00BFDA
:109E900000BF00BF00BF00BF00BF00BF00BF00BFCA
:109EA00000BF00BF00BF00BF00BF00BF00BF00BFBA
:109EB00000BF00BF00BF00BF00BF00BF00BF00BFAA
:109EC00000BF00BF00BF00BF00BF00BF00BF0198C0
:109ED0001060002007B0F0BD900300200C3300207C
:109EE000EC3200207806002070060020D4320020DA
:109EF000D5950000B4320020980300208032002065
:109F0000001000400000C0A88C030020FF02800069
:109F10007406002000E100E008B50448816B009160
:109F2000816B009A9142F9D1104608BD00100040A3
:109F300038B51648816B0091816B009A9142F9D136
:109F4000134C1046217DC90705D0124900F004FECC
:109F50008A04810B04E0192100F0FEFDCA05410AC4
:109F600011430D4A906988420DD0884201D2081AE7
:109F700007E0237DDB0701D0084B00E0084B181AEF
:109F80004018916138BD002038BD0000001000402D
:109F90008032002033030000B432002000796F08C3
:109FA00000603D080349302008740349012008601F
:109FB00070470000201000406C030020FFB581B006
:109FC0000C460746054600261AE0FF219131681E1F
:109FD000F6F758FE00290AD06421681EF6F752FEF3
:109FE000002907D00320A9078007C14202D1FF2022
:109FF0006F3001E0FF206E3080196D1E86B2ADB269
:10A0000035488542E1D80025012C25D9032C05D0FF
:10A01000A01E062816DDE00718D115E0FF219131BA
:10A020003846F6F719FE00290AD064213846F6F7BB
:10A0300013FE002901D0B80702D000201C3006E032
:10A040000120FBE7E00701D01E2000E01F2080195F
:10A05000641E86B2A4B2D7E7039818213018401EB8
:10A0600084B20498F6F7F8FDE120C00041430A9855
:10A070001E22504309180B984008081881B20B980B
:10A08000C00701D00120C0030A0402431348C17B6A
:10A090006B46C909C9011970C17B1B78C909C9017F
:10A0A0009942F4D1694609780029F0D00B49572329
:10A0B00020310B70A8230B70084B203B5C63447C61
:10A0C0008026344344745A63427C40231A434274CA
:10A0D0000D7005B0F0BD0000E40700002010004046
:10A0E000002908D0002A02D105E008C808C2491E8C
:10A0F000FBD200207047FD20704738B50D460400A4
:10A1000019D0002D17D00321684616F081FE69464C
:10A11000887840218006800E0843694688702A4668
:10A12000204617F09CFC040006D103226946E81C77
:10A1300019F02CFB00E00224204638BDF7B58CB0A6
:10A140000C9815460F46002831D0002D2FD0381D11
:10A150000A9080B2532119F035FB04003BD008F07F
:10A16000E1F806463A46201D0C9919F0CBFCF0B2F6
:10A170000990E0703004000E0890A0703002000ECC
:10A1800007906070370E277008F0C6F8014610225D
:10A1900001A819F0B7FC082000900A9805AB82B21C
:10A1A000214601A817F0C8FB060002D00FE00226E6
:10A1B00012E009982870089868700798A870EF70E6
:10A1C000082205A9281D19F09DFC08F0B1F82046C9
:10A1D00019F04EFB00E0132630460FB0F0BD000032
:10A1E00010B5024600F01EF80448062182701046A1
:10A1F000FBF752FC02480DF019FC10BD860600204A
:10A20000BD0F020005480649C078000702D5084680
:10A210000C3000E0002048600020704786060020D7
:10A22000D80600200A490020086048608860084875
:10A2300008490C30016008494160084981600849BB
:10A240000C30016007494160074981607047000098
:10A25000D80600205F1E02005D0E0200D9A3000098
:10A26000F7220200F91402007913020070B50646C5
:10A270000D4608460DF088FA00280ED0446B002CDD
:10A2800006D0E078022805D0032803D0042801D0A6
:10A29000122070BDA088A84201D0022070BD1022FB
:10A2A0003146E01D19F072FA20462C301021054687
:10A2B00016F0AEFD23461C332A46E11D204617F05A
:10A2C000FBFB207802210028607803D0032807D107
:10A2D000617009E0042802D0032803D000E0617017
:10A2E000002070BD05206070204616F065FD70BD31
:10A2F000F8B50D46080417D51B4EB07819F082FB4F
:10A30000040009D016F0F4FF002809D17078FF2866
:10A3100006D0214619F0AEFB0120C0036840F8BD0D
:10A32000204619F047FBF7E7E8070127002804D08B
:10A3300016F054FE28467840F8BD002D12D00124B6
:10A340000CE03846A04086B2354205D0304617F0C2
:10A35000E5FA28467040F8BD641CE4B20DF02CFB11
:10A36000A042EED80020F8BD860600207CB50D4640
:10A37000040015D0002D13D00322E91C684619F003
:10A3800005FA6946887840218006800E08436946B0
:10A39000887001AA204617F062FB040002D009E091
:10A3A000022407E00322294601A819F0E1F9012857
:10A3B00000D0012420467CBD05480649C0784007EE
:10A3C00002D50846183000E0002088600020704761
:10A3D00086060020D8060020FFB50F4683B01E4633
:10A3E00014465321102019F0EDF9050029D0002F53
:10A3F00022D069460C72200A487210220021284699
:10A4000019F0BCFA394628460C9A19F0BFF9002E0B
:10A4100005D008223146684619F0B8F904E0082250
:10A420000021684619F0AAFA2B4602AA6946039849
:10A43000FAF702FF044600E00224284619F018FA51
:10A4400000E01324204607B0F0BDFFB581B01F46E1
:10A4500003980DF099F9060005D0706B00250028CF
:10A4600004D011253AE0022005B0F0BD1320F9F721
:10A47000E3F9C4B21420F9F7DFF9C1B2002F2CD0F0
:10A48000387EA04229D3884227D85321702019F062
:10A4900099F90446706320001DD07022002119F044
:10A4A0006DFA00206070019921700299A1700399E2
:10A4B000A180E765A061E0700198002803D02046E4
:10A4C00016F08CFC054601206070002D06D0304649
:10A4D00016F04AFC02E0132500E002252846C3E7F7
:10A4E000FFB587B00998109D0E4600281FD0002D9B
:10A4F0001DD007980DF048F904001BD053211020FF
:10A5000019F060F9019000285FD069782878090275
:10A510004018A978EA7809041206891841180691AA
:10A52000A06A884208D3401C06D0022449E00220D9
:10A530000BB0F0BD1420FBE7002E02D0207980077D
:10A540003ED50822002102A819F018FA0A9F5321CB
:10A550003F1DB8B219F036F906002FD0301D0A9A07
:10A56000099919F0CFFA04222946304619F0CAFA9F
:10A57000214610221831019819F0C4FA08200090E1
:10A58000BAB202AB3146019817F0D6F904000CD1EB
:10A59000082202A904A819F0B5FA0822291D04A866
:10A5A00019F0E6F8012804D00124304619F060F9CA
:10A5B00007E00699079808F0C9FFF6E7132400E0C2
:10A5C0000124019819F054F900E013242046AFE764
:10A5D000014880697047000000E000E070B5054662
:10A5E000002409490948F9F7D3FC09480DF01EFA7F
:10A5F000E80706D0074B102211210748F9F79AFE09
:10A600000446204670BD000052320020FFFF0000CB
:10A610007D0B0200F0020020E0010020002803D0A2
:10A62000024948600020704711207047D001002087
:10A6300070B515460024030000F0A6FA05040A10C0
:10A64000171E2900152919D11522294611481BE08A
:10A65000012913D1012229460F4815E015290DD1F2
:10A660000C481522294615300EE0132906D1094859
:10A67000132229462A3007E0052901D0182407E0D3
:10A68000054805222946083019F080F800E0022428
:10A69000204670BD14320020D001002010B50B48B8
:10A6A00057210170A8210170084A8821403A118180
:10A6B0000189042211430181002101700A2010F058
:10A6C00073F80120FDF72EFF10BD00004010004080
:10A6D00070B50C46014620040AD5084619F092F9D7
:10A6E000002801D019F066F90120C003604070BD58
:10A6F0006004FCD0002632462046D040C00713D06C
:10A70000002901D00F2000E000200B498018496883
:10A71000C00045180120904086B2296868688847C3
:10A7200000202860686003E0521CD2B20F2AE3D3F5
:10A730002046704070BD0000700300200148406951
:10A7400070470000B432002070B519F0E7F81C2201
:10A7500000211E4819F012F91C4820220021503017
:10A7600019F00CF91A4D0020286168611748174C40
:10A770001C30007F50348107890F80080818410081
:10A7800040180D30C0B2A07006214843FF210231AD
:10A79000F03019F017F86860F030A860A1788900EF
:10A7A0000818E86019F028F919F0ECF96078094AFE
:10A7B0008100A86842506178491CC9B26170890063
:10A7C00042506078401C607070BD00006432002010
:10A7D00070030020D1A6000010B508490246487851
:10A7E0008B78984207D2064C8300A468E2504A78DE
:10A7F000521C4A7010BDFF2010BD0000B432002072
:10A8000070030020072902D2014A89005050704786
:10A8100064320020FEB5864D02E0804701F0DAFF89
:10A8200028680028F9D10124A0002858002807D062
:10A8300080477F481C30407D002801D0F7F73AFA66
:10A840002868002875D1641CE4B2072CECD3784C3E
:10A85000784E50346278F06821784B00C35A002B50
:10A8600004D1491CC9B221709142F5D3C9B29142B9
:10A8700011D24A00815A002383522078B3688200A3
:10A880009A5890472178F2684900535A034353522B
:10A890002078401C207020786178884201D3002005
:10A8A000207063480068002843D17069002840D0B8
:10A8B000804700283DD06169054609186161002183
:10A8C000C9435C4821610669002E29D00027B06881
:10A8D000A84201D8002000E0401BB06054481C3062
:10A8E000406A002804D02169B068814200D9206103
:10A8F000B06800280DD1718800291BD0307819F07C
:10A900000BF97068002801D0B06002E0B068002840
:10A9100010D0708800280DD03746F668002ED6D1AA
:10A92000434D1C35686A002803D00020414A6178F5
:10A9300014E07CE0002F06D0F068F8603046F6683E
:10A9400018F096FFEAE73B48F1680161F6E7D66840
:10A950004300F35A002B6AD1401CC0B28142F6D8A2
:10A960003349032082008A58002A60D1401CC0B2BB
:10A970000728F7D301A8FBF7A9FE02462E49401C81
:10A9800024D0EB7C019EB34251D22069471C16D0E3
:10A990002A7DD20702D01422504302E029225043DC
:10A9A0004008834243D2864200D23046C61A23482A
:10A9B000826B0092826B009B9A42F9D11DE09A4211
:10A9C00001D3D01A1FE0D01A40181CE02069421CA5
:10A9D0002DD02A7DD20702D01422504302E0292232
:10A9E00050434008EA7C824221D2861A1348826B87
:10A9F0000092826B009B9A42F9D19819884202D347
:10AA00000D4A52428018002802D0696A884702E045
:10AA10006A6A084690470006000E08D1208900287F
:10AA200005D0F7F76DFBFBF7A3F8F7F7A5F8FEBD28
:10AA300064320020700300200000C0A80010004015
:10AA400010B504460848C16A002900D08847074865
:10AA5000002C01D0046001E005490160054800F0C8
:10AA60000BF8002010BD0000803200208C03002075
:10AA7000199F0000319F000010B5034948618047CD
:10AA80000249886110BD000070030020B43200202C
:10AA900010B50446FAF710FA0A214843C0082146C7
:10AAA000F6F7DAF80A21401DF6F7D6F80149888151
:10AAB00010BD00000034004010B5E1204002FFF757
:10AAC000E7FF0548872181700321C1704021417053
:10AAD0000121817310BD000000340040F0B5144E18
:10AAE000FD23757A84247472124CA768002F07D056
:10AAF000A77B002F04D0A489E71FFF3FFA3F02D0B5
:10AB00007572FF20F0BD7D24E402A0420AD34027E5
:10AB1000491E07D3706008CA33609A233372B37A30
:10AB20007B4002D075721846F0BD001DF0E70000B2
:10AB300000180040803200200FB410B503A9044B68
:10AB4000044A029800F0E8F810BC08BC04B01847AA
:10AB50006D110100C8080020F8B5040C8BB2264620
:10AB600082B25E430D0C1046370C584336048019F0
:10AB70000021794116466E43370C3604801979411D
:10AB800026466E438919F8BD30B47446641E257894
:10AB9000641CAB4200D21D46635D5B00E31830BC11
:10ABA000184702E008C8121F08C1002AFAD17047EE
:10ABB0007047002001E001C1121F002AFBD170473D
:10ABC00010B51C4613468C4205D822461946F6F7A6
:10ABD000E0F8204610BD002010BD0000FFB504467F
:10ABE00081B080680D9E1D460F4600280ED0454955
:10ABF0000968002904D1002D02D00A2005B0F0BD5B
:10AC00004169002904D10B99002901D00720F5E7FB
:10AC1000002F40D0039802F081F8002870D0A0687F
:10AC200001218088C903421A49108A4204D203F0E4
:10AC30006BFA002119F09BFBA0684189C904C90C7B
:10AC40004181A0688780A168039AC8881205000B1B
:10AC50000003120D1043C880012212039043EA073B
:10AC6000D20CA1681043C880A1680A980872A16834
:10AC70000B988872A1680C984872A06840690028F7
:10AC800036D0204603F034FC0100A0682DD01830E7
:10AC90000BF0CAFA2CE080880028AFD00121C9034C
:10ACA000421A49108A4204D203F02EFA002119F008
:10ACB0005EFBA06800228280A1680123C8881B0374
:10ACC000000B0003C880A1689843C880A068027286
:10ACD000A0688272A0684272A0684189C904C90C48
:10ACE0004181A0684169002902D018300BF07EFA3A
:10ACF000002E02D0204604F0F8FF00207EE7FFE798
:10AD000003207BE71008002010B502998A78098893
:10AD100010F024FE10BD0000FFB591B00F460546AF
:10AD2000002606E025280AD0149A139990476D1C36
:10AD3000761C28780028F5D1304615B0F0BD0024E7
:10AD400000940121F34A029400E004436D1C2B7827
:10AD50000846203B98401042F7D128782A280ED088
:10AD6000022128780246303A092A15D8009A0A2387
:10AD70005A43303A80180C436D1C0090F1E701CF24
:10AD80000090002805DA0120400304430098404267
:10AD90000090022004436D1C28782E2815D1042031
:10ADA000044368786D1C2A280AD101CF6D1C0290DB
:10ADB0000BE002990A225143303940186D1C029071
:10ADC0002878014630390929F3D928786C2810D021
:10ADD00006DC4C281AD068280ED06A2817D104E067
:10ADE000742813D07A2812D110E0012040050443C2
:10ADF0000CE00121090501E0032109050C436978F4
:10AE0000814203D10120000524186D1C6D1C287897
:10AE100003906E281ED00CDC632831D004DC00289F
:10AE20008AD0582811D1B2E064287BD069280CD18F
:10AE300078E073282DD004DC6F2870D0702804D1FE
:10AE4000A7E075286CD078286BD0149A1399904796
:10AE5000761C62E06002400F022807D003280AD067
:10AE6000042838680AD006603F1D56E03868F1179C
:10AE700006604160F8E738680680F5E70670F3E79A
:10AE80003878694608740020487404A803900120AB
:10AE900003E0386803900020C0433F1D61070FD5D1
:10AEA000002101E00199491C029A0191914213DAB3
:10AEB0008142F7DB019A0399895C0029F2D10BE00A
:10AEC000002101E00199491C01918142FADB019ABC
:10AED0000399895C0029F5D101990098139A401AC9
:10AEE00000902146149B00F03BF901998019461807
:10AEF00007E0039803990078491C0391149A139969
:10AF000090470198401E0190401CF2D12146149BAD
:10AF1000139A009800F014F986196D1C09E741E0B6
:10AF200033E034E00A200021049005916002410FD3
:10AF3000022905D001CFC2179446032905D007E0A6
:10AF4000FF1DFF08FF0003CF06E000B2C2179446C2
:10AF5000042902D140B2C1178C46002261469445B3
:10AF600006DA0A460021404291418C462D2102E03A
:10AF7000210504D52B216A461176012103E0E10762
:10AF800001D02021F7E7019154E00A200BE01020C6
:10AF900009E01020049000210420044308200591BA
:10AFA000029003E008200021059104906002410F07
:10AFB000022905D001CF00229446032906D006E0DD
:10AFC000FF1DFF08FF0003CF8C4603E080B2042979
:10AFD00000D1C0B20021019121072BD5039970291E
:10AFE00006D0049A1021059B4A401A4305D00EE072
:10AFF00040216A461176012108E06146014306D0EE
:10B0000030216A4611760399517602210191049A02
:10B010000821059B4A401A430CD16146014301D1E6
:10B02000610707D530216A46117601210191029905
:10B03000491E02910399582904D037A103910FA901
:10B040000F910DE039A1F9E76146059B049AF5F7E8
:10B05000F7FE039B8C469B5C0F9A521E0F92137057
:10B0600061460143F0D10F9807A9081A20300390D8
:10B07000600704D5012000048443029801E0012008
:10B0800002900399884201DD401A00E00020411837
:10B090000290019809180098401A0090E00306D425
:10B0A0002146149B139A009800F05AF88619002044
:10B0B000049008E006A9085C149A13999047049834
:10B0C000401C761C049001998842F3DBE0030CD508
:10B0D0002146149B139A009800F042F8861904E068
:10B0E000149A302013999047761C0299481E0290BA
:10B0F0000029F5DC08E00F980F990078491C0F91A2
:10B10000149A13999047761C0399481E03900029BE
:10B11000F1DCFBE6092801003031323334353637B3
:10B120003839616263646566000000003031323393
:10B130003435363738394142434445460000000033
:10B14000F8B5044600251E461746880404D405E0D9
:10B1500039462020B0476D1C641EF9D52846F8BD3D
:10B16000FFB50446002581B01E46C80301D530272F
:10B1700000E02027880404D505E038460399B0474D
:10B180006D1C641EF9D5284605B0F0BD134610B5F8
:10B190000A461946F5F711FE10BD000070B500F023
:10B1A0001BFA1C214843042110F0AEFC0625ED4398
:10B1B000002818D00D4CE06000F00EFA1C21484326
:10B1C000042110F0A1FC00280DD00949086000F00E
:10B1D00003FA208000F000FA60800648A06006486C
:10B1E0006060002070BD284670BD00009C340020C7
:10B1F000A0050020504B020019B6000010B50CF05D
:10B200004BFA18214843042110F07EFC002803D09B
:10B2100003498860002010BD0620C04310BD000017
:10B22000BC05002070B506F03FFA441C06F036FA63
:10B2300044431C206043042110F066FC0625ED43C6
:10B24000002821D0114CE06006F02EFA461C06F0D2
:10B2500025FA46437000022110F056FC002813D056
:10B260000B49086106F020FA451C06F017FA454321
:10B27000258006F019FA451C06F010FA4543658052
:10B280000448A060002070BD284670BDBC38002076
:10B29000F4070020504B0200F8B53E4F38680028F4
:10B2A0002DD006F0FBF968214843042110F02CFC56
:10B2B00000286CD0384E002430621CE006F000FA02
:10B2C0004000022110F020FC002860D068222546B2
:10B2D00055432A46316A1032885006F0EBF90C21AA
:10B2E0004843042110F010FC002850D0316A30355A
:10B2F000641C4851E4B206F0D1F9A042DED82749D7
:10B3000038680968264D084309D006F0C7F94A2174
:10B310004843022110F0F8FB002838D0E86000F024
:10B32000C3FC28214843022110F0EEFB00282ED058
:10B33000194C8034606217F077FDE4214843042102
:10B3400010F0E2FB002822D0A06213F0D5FA00280A
:10B3500008D013F0D1FAC000042110F0D5FB00286A
:10B3600015D0E06212F096FB16214843022110F03E
:10B37000CBFB00280BD0206210F0C0FB8000042122
:10B3800010F0C2FB002802D068600020F8BD062043
:10B39000C043F8BDF407002030350020100800201D
:10B3A000E405002070B500240A4D12F0E7FE4000CD
:10B3B000022110F0A9FB002809D05421614349194A
:10B3C000641C24064860240EEFD0002070BD0620C7
:10B3D000C04370BD0439002070B500F065FC044620
:10B3E00017F022FD20184000022110F08DFB0625E9
:10B3F000ED4300280CD0074C606012F04BFB80003E
:10B40000022110F081FB002802D0A060002070BD56
:10B41000284670BDF405002070B518F08DFE482157
:10B420004843082110F070FB0626F643002838D068
:10B430001D4D002468600EE018F084FE8000042199
:10B4400010F062FB00282CD0482161436A68641C1C
:10B450008918E4B2486018F06FFEA042ECD813F0EF
:10B46000C7FA8001082110F04FFB002819D00024F2
:10B47000A86010E013F0B6FA0C21F5F7EDFB8000A0
:10B48000042110F041FB00280BD0A101AA68641C24
:10B490008918E4B2486013F0ABFAA042EAD8002061
:10B4A00070BD304670BD0000480600200368826809
:10B4B0009A4201D2436899548168491C816070475F
:10B4C0000149FF20087070473406002070B504461B
:10B4D000007EFF2801D102F063FA3221484305467D
:10B4E00000219635E0690A46012633468B40034227
:10B4F00001D0521CD2B2491CC9B22029F5D3E07D3B
:10B500006421C006C00E801A48434019FF212D3126
:10B510006430884200DC084670BD0000F7B582B098
:10B520001746054602F0E0F9044603980021281862
:10B53000401EC94386B2002C1BD0002D19D001201B
:10B54000C003854215D2002E13D0864211D2039833
:10B5500000280ED003F0A4FF2289411E511889B2A1
:10B56000864209D38D4207D8002F1FD0491C39804D
:10B570001CE0084605B0F0BD11480024009019E019
:10B580000098016A16206043081842880D498A42D3
:10B590000FD00188027D481E101880B28E4208D359
:10B5A000854206D8002F01D0401C38800520C043BA
:10B5B000E0E7641C12F06EFAA042E1DC0020D9E75B
:10B5C000B0350020FFFF00001C21484301490968F5
:10B5D00040187047A00500200148006800787047B7
:10B5E000AC05002010B50022D2430D21002001F04F
:10B5F0002DFA10BD10B5C08901F0D8FD10F0F3FB95
:10B6000000F020F8002803D0018A02480AF00CFE5E
:10B6100010BD000080340020416908394161C160DB
:10B62000418A08314182018A083101827047000055
:10B6300000487047AC340020014908717047000091
:10B64000AC34002010B5054817F0D2FC002801D01A
:10B65000002010BD01480068143810BDA40500206A
:10B6600030B5044625488FB0016C059107A90491B7
:10B670004830069107C801AB07C321486946808955
:10B68000C880A0694069002829D06078002832D09D
:10B69000401E6070207B8873A069028AC16804A87C
:10B6A00010F0E9FA154B04AA803B01A91448009454
:10B6B00003F026F8050010D0104912A02F31FFF733
:10B6C0003BFA294613A0FFF737FA1BA0FFF734FA1D
:10B6D0000A21C94320460AF08BFB0FB030BD074951
:10B6E00008A02F31FFF728FA14A0FFF725FA12A0BF
:10B6F000FFF722FAF1E71621C943EBE78048020081
:10B700003C0100204150505F4442472025733E20B9
:10B7100000000000556E61626C652073656E6420E8
:10B720006D6F64656C206D65737361676520286556
:10B7300072723A25642900000A0000004E554C4CF4
:10B7400020627566000000000149486070470000F3
:10B750003406002001480068C0787047AC0500201E
:10B7600002494878421C4A707047000038010020A6
:10B77000F8B5174818F0AAFD154811F031FC18F07B
:10B78000A5F969460090134C08786178124E40186C
:10B790006946497833460818694689780818694621
:10B7A000C978081860700020543301251C214143DA
:10B7B0008A194101C9188A612A468240401C0A77C9
:10B7C0000328F3DB0548FFF707F820700020F8BDD9
:10B7D000084802003801002040110020E1B70000B5
:10B7E00070B50A4A0C46002041018918097F2142A0
:10B7F00007D0400180180546FFF732FF287F6040E0
:10B8000070BD401C0328EFDB002070BD94110020A8
:10B8100070B505468AB0164816468069029006A89B
:10B820000C460190039004AA05A930460AF099FD40
:10B83000104901A802F033FE6846018A0023808A7D
:10B84000326800F02FF9014601A810F01FFA68468F
:10B85000028A818A01A80AF075FD00200346009043
:10B8600001AA2146284602F04BFF0AB070BD000035
:10B87000684B020003800000F0B504462568088884
:10B88000AD8B0026F64387B0A84210D1257DA807CE
:10B8900005D50879002802D00846163000E0481D7A
:10B8A00008A9097C07788906890EB94202D030467A
:10B8B00007B0F0BD0A49ED070968ED0F491B65891E
:10B8C0002489059104920F990395019300910294A4
:10B8D0000021401C0E9B0D9A01F08BF9E8E7000057
:10B8E0003035002070B506468AB01F481346006BFD
:10B8F000029006A80D460190039004AA05A91846D7
:10B900000AF02FFD6846808A04F0D6FA00280CD091
:10B910006846008A01F002FA002808D06A460188C9
:10B92000928A91421CD0112402E0042400E00024F9
:10B930000E4901A802F0B3FD214601A810F0A6F9B6
:10B940006846028A818A01A80AF0FCFC00200346AE
:10B95000009001AA2946304602F0D2FE0AB070BD1E
:10B96000012101F0C1F9E2E7684B02000380000009
:10B97000F7B529498AB0C96B029104A90191104613
:10B98000039110F0B2F925490646884242D824496D
:10B9900001A802F084FD304604F08EFA00280BD096
:10B9A0000024214601A810F071F9314601A810F0D9
:10B9B00055F9002C26D101E00424F2E7194C1A486D
:10B9C00000252746009013E00098416A282068432C
:10B9D00008180188B14209D1BC4201D1448805E070
:10B9E0004288214601A80AF0ADFC3C466D1CADB270
:10B9F00000F05AF9A842E7D8BC4203D0214601A87A
:10BA000010F02CF900200346009001AA0B990A9827
:10BA100002F076FE0DB0F0BD684B0200FF0F000093
:10BA200002800000FFFF0000B0350020F8B5064698
:10BA300000240B4D0B4F0CE02820696A6043081866
:10BA40000188B94204D04088B04201D10120F8BD3C
:10BA5000641C00F029F9A042EEDC0020F8BD0000D3
:10BA6000B0350020FFFF000030B50C480C4940689D
:10BA700085B0C068144688420ED1104610F04AF9CD
:10BA80000546204610F031F96946088100200390F0
:10BA90002946684604F06AFC05B030BDEC0700207A
:10BAA00002800000FFB581B0064604F005FA0700E9
:10BAB00035D0029801F032F90446049800281DD0D0
:10BAC000002C05D02088B04204D0112005B0F0BD74
:10BAD0000320FBE72546F87F1635012809D1207998
:10BAE000002808D01022681C0399F5F78DF900286A
:10BAF000ECD00B20EAE70120207118E0002C10D0D8
:10BB00002088B04206D11022A01D0399F5F77CF9D8
:10BB10000028DBD02088B04201D10620D6E70420DF
:10BB2000D4E7029801F0C8F804000DD0651D29463D
:10BB3000039802F091FA002808D00498002801D058
:10BB4000002020710920C1E70520BFE72680029868
:10BB500060801022681C0399F5F71BF9204604F059
:10BB600079F80020B2E7F0B589B01E4617460C46BA
:10BB7000002814D01022002117F02AF885B2002CDA
:10BB800011D023236A46314638460EF037FF00288D
:10BB900007D1284601F0C2F804000ED012E00720B9
:10BBA000C04309B0F0BD284601F0B8F8002802D023
:10BBB000002101F099F80020F3E7284601F07CF815
:10BBC00004001ED068460088208065806846807822
:10BBD000207100A91022A01D0331F5F7DAF82046E4
:10BBE000173004A9102205460331F5F7D2F8A01D3D
:10BBF000611D02F031FA21462846163102F02CFA76
:10BC0000D9E70820C043CCE730B50B480B49406862
:10BC100087B0C068144688420CD1104610F07AF8FC
:10BC2000054606AA05A920460AF09BFB2946684658
:10BC300004F09CFB07B030BDEC070020038000003F
:10BC400070B505468AB016481646406A029006A8A6
:10BC50000C460190039004AA05A930460AF081FB26
:10BC6000104901A802F01BFC6846018A0123808A62
:10BC70003268FFF717FF014601A810F007F8684681
:10BC8000028A818A01A80AF05DFB00200346009029
:10BC900001AA2146284602F033FD0AB070BD00001B
:10BCA000684B02000380000001480068007A70477A
:10BCB000AC050020FFB583B00C9C1646002C01D0CB
:10BCC000002708E001270398F5F728FD0421F9F77C
:10BCD0003FFF040014D0267004980125002805D0E9
:10BCE000049A601C06999047401C85B2300614D512
:10BCF000102103980BF0CEFE002804D0192616E080
:10BD0000132007B0F0BD621929462046FEF716FA47
:10BD10000C350646ADB2002809D1042069460880DA
:10BD200001944D800398F9F7CDFE0600E9D0002F6D
:10BD300002D0204617F09CFD3046E2E7F8B50746F2
:10BD4000069800901E4614463846FFF7B3FF0500DC
:10BD50000BD107480268002A07D0012C02D13078A5
:10BD6000401CC4B22146384690472846F8BD000022
:10BD70009006002010B513F06BFC10BD083807D0FA
:10BD80004168002904D04969002901D000680847AA
:10BD9000704770B50C46054600F005F82146284668
:10BDA00013F056FC70BD10B5044610460FF0B2FFFC
:10BDB0000146204601F0E8F810BDF0B51F460B46DD
:10BDC000014685B015460446213108220A9E1846D0
:10BDD0000391F5F719F800280FD101A8009020462B
:10BDE0003B4629464930039A01F0FEF8082201A992
:10BDF0003046F5F709F8002802D0002005B0F0BD64
:10BE00000120FBE7FFB51F4685B0484B0E9D0F9CF8
:10BE10009868002A0BD0027D002A08D00269002A07
:10BE200005D00120607020700020E0707AE0427D33
:10BE3000AA4200D21546C08AC20606D50A0704D512
:10BE4000032024260390042018E0000713D048079D
:10BE500011D048070A26400F09F07AF8401EC0B2F8
:10BE6000039032488068807D0007000F09F070F869
:10BE7000401EC0B202E00026304603962B490190D6
:10BE80008868027EBA4200D21746408B020708D566
:10BE9000059AD20605D524200090042002900320A4
:10BEA0001BE0400716D00598000713D00A20009029
:10BEB00005980007000F09F04BF8401EC0B2029031
:10BEC0001A488068807E4007400F09F041F8401E04
:10BED000C0B202E000200090029000993A464A4326
:10BEE0002B46734303219A4209D9022262702170C2
:10BEF0000299E170A0706771277109B0F0BD002E42
:10BF00000BD0002D09D06170022020700398E070E2
:10BF10000198A07065712571EFE7002060702070B6
:10BF2000E070A07060712071E7E700003406002027
:10BF300010B50C460AF0AFF9206010BD30B50546CB
:10BF40000D4887B0806C029004A80C4601900390C5
:10BF50000A4901A802F0A3FA01F0C2F8014601A8BB
:10BF60000FF094FE00200346009001AA21462846C7
:10BF700002F0C6FB07B030BD684B02000B8000002A
:10BF8000F8B504F0A5F9002801D0642130E001F0F3
:10BF9000BFFF002830D01A490878002804D00020BC
:10BFA0000870002816D101E00120F9E70024154DA2
:10BFB000154E27460AE0E420A96A60430818818BE1
:10BFC000B14202D0417901714771641C16F02CFF17
:10BFD000A042F0DC12F08EFF01F082F8012806D0BA
:10BFE00008480321783800F090FF002803D0074963
:10BFF00007480AF019F9F8BD18F0E2F8F8BD00009A
:10C00000B8050020B0350020FFFF00001027000019
:10C01000DC34002070B50546194886B0406D0290AA
:10C0200004A801900390AC6A0E46002C13D010684F
:10C030000078002801D001281FD1E17988420AD078
:10C04000E07103F02FFEE079002802D001F024F81F
:10C0500001E001F011F80B4901A802F020FA01F00B
:10C060003FF8014601A80FF011FE002003460090A2
:10C0700001AA3146284602F043FB06B070BD00001D
:10C08000684B02000B80000000B50849084B496866
:10C0900085B0C9681046994205D10FF03BFE0146B4
:10C0A000684604F063F905B000BD0000EC0700200D
:10C0B0000B800000F7B5064611F0B0FAFFF792FAD0
:10C0C00004001AD00E4D20460C300746E96A0FF0E6
:10C0D000B9FD002138460FF0D9FDB000C01CC1B237
:10C0E00038460FF0D3FD3846029A01990FF0C3FD90
:10C0F000EC6413F0A3FE0020FEBD0620C043FEBD8D
:10C100004037002030B5437803245B1D2343C45CD3
:10C11000E50601D5012030BD002903D0210601D557
:10C12000022030BD002A03D0C1182039C97F117008
:10C13000C1182039487F897F4907490D08430449C0
:10C14000420502D51F22D20210430880002030BDD4
:10C150009403002070B50D46044617F0B7FC2D1B64
:10C1600002460023E9172846F4F7C6FD081980B2F5
:10C1700070BD70B50D46044617F0A8FC00232D1BBA
:10C18000024628461946F4F7B7FD081970BD70B588
:10C190000D46044617F09AFC2D1B02460023E917B2
:10C1A0002846F4F7A9FD0819C0B270BDF0B5364EA7
:10C1B0009446326813689B0713D0136DDB08DB00CD
:10C1C0001365136808242343136013681B0703D502
:10C1D00000BF00BF00BF00BF136DDB08DB005B1CAE
:10C1E00013652A4F3B68DC6A07221205944301223B
:10C1F0005205A218DA62DD6A072424060522A54347
:10C200001206AA18DA62224A1368DA6A92089200C1
:10C21000921CDA621D680122120715431D601A681C
:10C220006546D209D2016D066D0E2A431A609860E8
:10C2300018615960D9603068416801231943416031
:10C240003968144D00200A4680322D890EE01769A6
:10C25000FF0108D5C86A072212051043C862C86AE0
:10C26000A043C86204E000BF00BF401C8542EEDC72
:10C2700009484068002804D0C1680A684069024340
:10C280000A6030680360F0BD90030020780600204B
:10C2900070060020B43200209403002010B5144A28
:10C2A000592113681965134909680B684024DB0993
:10C2B0002043DB014006400E03430B600E4808613B
:10C2C0000E48C8600E49002048701068416849084F
:10C2D000490041600B484068002804D0C1680B68E1
:10C2E000406903430B6011680120086010BD000025
:10C2F00090030020700600202941767155555500A5
:10C30000D43200209403002010B51448006801685E
:10C3100089070ED0016DC908C900016501680822AE
:10C32000114301600168090703D500BF00BF00BFCA
:10C3300000BF002202650A4B586800280AD04168F5
:10C340000C68806804430C60586801690B68406998
:10C3500003430B600348C27110BD0000900300202E
:10C3600094030020D4320020FFB5804C064620689C
:10C370000D46016881B0174689071AD0016DC908BA
:10C38000C900016501680823194301607848407DB0
:10C39000002801D0F5F78EFC20680168090703D555
:10C3A00000BF00BF00BF00BF016DC908C900891CE4
:10C3B0000165704A1068C16A07231B059943012370
:10C3C0005B05C918C162C16A07231B06994305238F
:10C3D0001B06C918C1626848006801687B06C90964
:10C3E000C9015B0E19430160866006614560C56046
:10C3F000C16A89088900C162016801231B0799434A
:10C4000001605E4D2B6898680499400B4003084317
:10C4100098605648006841680124214341605848AB
:10C420008178A14381701168564E00200C468034FB
:10C4300032890FE02669F60109D5CC6A0726360550
:10C440003443CC62CC6A3601B443CC620AE000BF0C
:10C4500000BF401C8242EDD804E000BF00BF00BF17
:10C4600000BF401C8242F8D89868474BC004C00CFB
:10C470003A2805D91F6830204349C04380310860FD
:10C4800042484068002804D001680A688068024376
:10C490000A60364802210068016028688068C0048C
:10C4A000C00C3A2860D900BF00BF00BF00BF00BF6A
:10C4B00000BF00BF00BF00BF00BF00BF00BF00BF84
:10C4C00000BF00BF00BF00BF00BF00BF00BF00BF74
:10C4D00000BF00BF00BF00BF00BF00BF00BF00BF64
:10C4E00000BF00BF00BF00BF00BF00BF00BF00BF54
:10C4F00000BF00BF00BF00BF00BF00BF00BF00BF44
:10C5000000BF00BF00BF00BF00BF00BF00BF00BF33
:10C5100000BF00BF00BF00BF00BF00BF00BF00BF23
:10C5200000BF00BF00BF00BF00BF00BF00BF00BF13
:10C5300000BF00BF00BF00BF00BF00BF00BF00BF03
:10C5400000BF00BF00BF00BF00BF00BF00BF00BFF3
:10C5500000BF00BF00BF00BF00BF00BF00BF00BFE3
:10C5600000BF00BF00BF1F6005B0F0BD90030020FA
:10C57000803200207806002070060020740600201B
:10C58000D4320020B432002000E100E09403002007
:10C5900010B51D4909688A68520B520302438A602C
:10C5A0003A282ED9194A1168194883689B029B0EB4
:10C5B0003E2BFAD083681B0CDB439B060CD08368B0
:10C5C0009B029B0E332B03D283681B0C9B06ECD182
:10C5D000FFF79AFE002010BD30230C4CDB43803463
:10C5E000236083681B0CDB439B06FAD083689B02A5
:10C5F0009B0E302B04D383689B029B0E332BF0D30E
:10C600001160012010BD00007406002000E100E070
:10C6100000C20040F0B5614E04463068174600681D
:10C620000D46800701D0FFF76FFE31685A2008657C
:10C630005B49002D0868026809D04023D2091C43D9
:10C64000D20163065B0E1A430260564A07E0D20924
:10C65000D20163065B0E1A430260524AD2438260E3
:10C66000096851484860514A11688868400B400386
:10C67000384388604E4B0020D870306843685B08B0
:10C680005B0043604B4B00201B8904E000BF00BFF0
:10C6900000BF00BF401C8342F8D88868464BC004E6
:10C6A000C00C3A2805D91D6830204349C043803169
:10C6B000086042484068002804D001680C6880681F
:10C6C00004430C6031680220086010688068C00470
:10C6D000C00C3A2860D900BF00BF00BF00BF00BF38
:10C6E00000BF00BF00BF00BF00BF00BF00BF00BF52
:10C6F00000BF00BF00BF00BF00BF00BF00BF00BF42
:10C7000000BF00BF00BF00BF00BF00BF00BF00BF31
:10C7100000BF00BF00BF00BF00BF00BF00BF00BF21
:10C7200000BF00BF00BF00BF00BF00BF00BF00BF11
:10C7300000BF00BF00BF00BF00BF00BF00BF00BF01
:10C7400000BF00BF00BF00BF00BF00BF00BF00BFF1
:10C7500000BF00BF00BF00BF00BF00BF00BF00BFE1
:10C7600000BF00BF00BF00BF00BF00BF00BF00BFD1
:10C7700000BF00BF00BF00BF00BF00BF00BF00BFC1
:10C7800000BF00BF00BF00BF00BF00BF00BF00BFB1
:10C7900000BF00BF00BF1D60F0BD0000900300207F
:10C7A0007006002029417671555555007406002009
:10C7B000D4320020B432002000E100E094030020D5
:10C7C0000249C8600249802008717047B4320020D5
:10C7D000D432002008B51148407D002801D0F5F77B
:10C7E00069FA0F4B1879000612D50E48816B00913B
:10C7F000816B009A9142F9D10B491046C968012218
:10C80000814202D8401A02D502E0081A00D51A71F6
:10C8100006488069002800D0804708BD803200208B
:10C82000D432002000100040B432002064320020D6
:10C830001CB50D2239A13D4816F09AFF002813D0EF
:10C840003B4800900120C00201906B46394A3A49AA
:10C850003A4800F037FF040011D0394939A0FEF7FB
:10C860006BF921463BA030E0354936A0FEF764F96C
:10C8700041A0FEF761F945A0FEF75EF9FEE708F07A
:10C88000E5FC2F48F43801F049F803F0F5F802F020
:10C89000B3FE3F48FEF758FF2948E43802F05CFE3B
:10C8A000044601F02BFD02F033F903F027FB00F002
:10C8B0001FFC00F021F903F0AFF92149002C21A061
:10C8C00006D0FEF739F9214632A0FEF735F921E00E
:10C8D000FEF732F938A0FEF72FF92CA0FEF72CF95D
:10C8E00013F024FE01F014FB00280AD0144915A00F
:10C8F000FEF722F936A0FEF71FF924A0FEF71CF977
:10C9000001E010F0D1FF0E490EA0FEF715F939A095
:10C91000FEF712F91DA0FEF70FF91CBD4D45534857
:10C920005F4C49425F56312E31000000264B020019
:10C93000CC080020F8470200184A0200E44902002F
:10C94000E84702004150505F4442472025733E2093
:10C9500000000000556E61626C6520736574206391
:10C960006F6E66696775726174696F6E2028657293
:10C97000723A256429000000686561642066696C6C
:10C9800065206572726F722E2E2E0A000A0000005A
:10C9900004000020496E697469616C697A696E6788
:10C9A000206D657368206661696C65642028657216
:10C9B0007220256429000000426C7565746F6F74E5
:10C9C0006820696E697469616C697A656400000049
:10C9D0004D657368206E6574776F726B2072657336
:10C9E000746F7265642066726F6D20666C61736827
:10C9F000000000004D65736820696E697469616CA0
:10CA0000697A65640000000030B50D46ADB001469E
:10CA10001446684616F005FB002809D06A462946E8
:10CA2000204616F00CFB002802D000202DB030BDAF
:10CA30001120FBE710B5084608F094FC08F07CFCD8
:10CA400010BD10B508F05AFC10BD0000F8B5144632
:10CA50000E46054617F028FC02462032334615499B
:10CA60001548009400F02CF8041E22D004F0CEF9F2
:10CA7000014620460C30062207460FF0FCF8012143
:10CA800038460FF0C0F80D48415D38460FF0FEF80B
:10CA9000606908306061E060608A08386082208ADE
:10CAA00008382082A06900210160416081604672DF
:10CAB0002046F8BDC9B500009C3400201C4B020084
:10CAC000F8B50D460746144601210A48069E00F0B7
:10CAD0000AFA002801D00020F8BD32462146384627
:10CAE0000FF050F8041EF7D00FF080F8A847A061AF
:10CAF0002046F8BD3835002010B5044800210160FB
:10CB000041600349034809F07BFB10BDA4050020E8
:10CB10001161010080340020F8B517460E46054625
:10CB20000FF06DF884694021C0C4207808434006A6
:10CB3000400E2070002020812846083C0FF056F857
:10CB4000E081607A0A21C008401C48436073607A23
:10CB50004007400F401C2073287C6969401C203925
:10CB60008877214614310A4816F00FFA094809F06F
:10CB700050FB00280BD107480021083000F0B3F922
:10CB80000006000E03D10021024809F04DFBF8BD5C
:10CB9000A405002080340020F0B5C3B00C46154633
:10CBA00001461F4616AA684616F0A6FA0A26F6435C
:10CBB000002814D008E006CC6846083C16F0C8FAF5
:10CBC00000280CD008346D1E002DF4D1694638467B
:10CBD00016F04AFA002802D0002043B0F0BD3046DB
:10CBE000FBE71CB50192009101226946FFF7D4FFD3
:10CBF0001CBDFFB589B01C46174615A80DC88C464C
:10CC000014990293019200900B46129E139D3A468E
:10CC1000614604A803F06CFF002F01D0082000E05B
:10CC200004203268002D01D0102100E00021019184
:10CC3000039000950292A38804A92268099800F045
:10CC4000BDFA050003D1A18830460EF0DCFF28466E
:10CC50000DB0F0BDFFB589B01C46154614A80DC82F
:10CC6000139F029301920090129E3B462A4604A80D
:10CC700003F03EFF002D01D0082000E004202268D0
:10CC8000002E01D0102100E00021019103900096B8
:10CC90000292A38804A9099800F0BAFB060007D104
:10CCA000002D01D0082100E0042120460EF0ABFF4A
:10CCB00030460DB0F0BD000070B50024084D094E9F
:10CCC00007E02820696A604308180188B14205D04E
:10CCD000641CFEF7E9FFA042F3DC002070BD0000F9
:10CCE000B0350020FFFF000038B50D4604464088EF
:10CCF000694608808D70084801F072FB002D02D053
:10CD0000204600F077FD0020C04320802221601DD6
:10CD1000F4F75AF838BD000009AD0000F8B5064632
:10CD200000240A4D0A4F0AE02820696A6043081867
:10CD30000188B94202D04188B14205D0641CFEF797
:10CD4000B3FFA042F0DC0020F8BD0000B0350020A9
:10CD5000FFFF0000FFB5064681B023480A9D1C4630
:10CD60000F46814207D0401E874209D1039800F048
:10CD700049FE002804D0002028701C48206030E0C4
:10CD80001948401E87420ED10E21194800F0E1F8E3
:10CD9000002808D0039802F001FB00280ED0001DE7
:10CDA000206000201CE0002E08D03846FFF7B6FFB8
:10CDB000002807D0F17F022907D00EE00020C043F1
:10CDC00005B0F0BD0720C043FAE70179002904D07F
:10CDD000014617312160807D02E0811D216040798C
:10CDE00028700020ECE70000FEFF0000C0350020A6
:10CDF00040360020CB06DB0E01229A40490989000B
:10CE00004358934343507047CB06DB0E01229A40B0
:10CE1000490989004358134343507047CB06DB0E42
:10CE200001229A40490989004358134343507047EF
:10CE3000CB06DB0E01229A4049098900435813436F
:10CE40004350704710B5CC06E40E0123A3404909B6
:10CE50008C000159002A01D0194300E09943015187
:10CE600010BD10B5CC06E40E0123A34049098C0087
:10CE70000159002A01D0194300E09943015110BD26
:10CE8000CB06DB0E01229A4010B549098B00C15830
:10CE90000C469443C450114201D0012010BD002023
:10CEA00010BDCB06DB0E01229A4010B549098B005C
:10CEB000C1580C469443C450114201D0012010BD0A
:10CEC000002010BDCB06DB0E01229A4010B54909A7
:10CED0008B00C1580C461443C450114201D00120AC
:10CEE00010BD002010BD4A0992008058C906C90E25
:10CEF000C840C007C00F70474A0992008058C90651
:10CF0000C90EC840C007C00F70474A099200805838
:10CF1000C906C90EC840C007C00F70474A09920031
:10CF20008058C906C90EC840C007C00F70474A09DB
:10CF300092008058C906C90EC840C007C00F70478C
:10CF40004A0992008058C906C90EC840C007C00FE0
:10CF500070474A0992008058C906C90EC840C007E8
:10CF6000C00F70474A0992008058C906C90EC840D0
:10CF7000C007C00F70474A0992008058C906C90E01
:10CF8000C840C007C00F704770B50E46050015D0E9
:10CF9000AC6A002C11D0002E16D06068002804D096
:10CFA0000269002A01D0284690477D20C000314602
:10CFB00041432046083009F037F970BD094804683C
:10CFC000002CFAD02568E6E72046083009F00EF973
:10CFD00060680028F1D041690029EED028468847D2
:10CFE00070BD0000E005002070B588B004461E4604
:10CFF00068460C9D1346017008221946401CF3F741
:10D00000C8FE02A93046013115F0B4FF04AB0D2271
:10D0100069462046FFF7E5FD040004D1082204A973
:10D020002846F3F7B6FE204608B070BD70B50E4630
:10D03000044601F059FD0146A07F002802D0254694
:10D04000893501E02546303530460EF01FFE294671
:10D050000822213130460EF00EFE064801683046A7
:10D060000EF0F0FD21460822283130460EF003FE76
:10D0700070BD00003035002010B503210448FFF7D3
:10D0800044FF002802D1034809F0B0F810BD0000A9
:10D0900038350020DC340020F8B500F039FF0028D6
:10D0A00014D000240B4D0C4F26460BE0E420A96A57
:10D0B00060430818818BB94203D00671467101F0B4
:10D0C00055FB641C15F0B0FEA042EFDC034809F0EC
:10D0D000EFF8F8BDB0350020FFFF0000DC34002081
:10D0E00002484068002800D0C0797047BC05002085
:10D0F00010B50249024809F083F810BD81BF000055
:10D10000DC3400200B4A10B50823D11A89680028A6
:10D1100005D019430848116009F0CAF810BD9943B9
:10D120001160FFF7DDFF0028F8D1034809F05EF831
:10D1300010BD000038350020DC3400207CB50446EA
:10D140008088002809D020460EF0E4FD002805D094
:10D15000012802D1204611F03FFE7CBD03F0B8F853
:10D160000028FAD1A088122801D01628F5D1102164
:10D1700020460EF0C7FD064620460EF09AFD0546F5
:10D1800000200090A088042805D120460EF09FFDC5
:10D19000019001A8009002F0D9F9846A002CDCD03B
:10D1A0006B462A4631460120A0477CBD10B501469A
:10D1B000014810F085F810BD9C340020FFB59BB0ED
:10D1C0001E98259E1746002803D0FF2000028642A5
:10D1D00003D30020C0431FB0F0BD01206946087092
:10D1E0000D2268441C99F3F7D4FD03A902310020F5
:10D1F000189115F0BBFE10AA69461B98FFF704FCB6
:10D200000028E8D12798082803D0002E08D0402015
:10D2100007E0002E01D0402000E00020192101E0AD
:10D220000020092108436946087000A80D2201303A
:10D230001C99F3F7AEFD1E98189980B215F096FE72
:10D2400004AA69461B98FFF7DFFB0028C3D1002E14
:10D250003ED0B0B2694615F089FE0024694604AAA2
:10D26000105D0B5D58400855641C022CF8D3002556
:10D27000B61C13E0684604A9249B0A5D5B5D6D1C27
:10D280005A400255641C102CF6D30A46014600246D
:10D29000103E1B98FFF7B8FB00289CD1102EE9D850
:10D2A0000020694604AA06E0249C135C645D634088
:10D2B0000B54401C6D1CB042F6D302E0905D8855C3
:10D2C000761C102EFAD31B98FFF79EFB002882D104
:10D2D0001E980F210507000309034018000C2D0FAD
:10D2E0001990002D00D11025002481E0661C864293
:10D2F00048D10120694608700D2268441C99F3F753
:10D3000048FDB0B2189915F031FE0CAA69461B9879
:10D31000FFF77AFB002899D1210108AE06E00A1830
:10D320000CABBA5C1B5C5A403254401CA842F6D38A
:10D3300026982A4608183146F3F72BFD002004AA48
:10D3400005E0115C335C59406B461954401CA842FF
:10D35000F7D328466946164602E0325C0A54401C60
:10D360001028FAD332461B98FFF74EFB002894D1C1
:10D3700010AB195C325C514014AA1154401C1028A7
:10D38000F7D334E00120694608700D2268441C99E7
:10D39000F3F7FFFCB0B2189915F0E8FD0CAA694646
:10D3A0001B98FFF731FB002891D1210108AE0A1824
:10D3B0000CABBA5C1B5C5A403254401C1028F6D3AC
:10D3C0002698102208183146F3F7E3FC002004A940
:10D3D0000A5C335C5A406B461A54401C1028F7D341
:10D3E0000A4619461B98FFF70FFB002893D1641CCF
:10D3F0001998844200D279E71E98279A391814A800
:10D40000F3F702FD002800D1E5E61020C043E2E674
:10D41000FFB597B0FF20219F00021646874203D335
:10D420000020C0431BB0F0BD0120694608700D22EA
:10D4300068441899F3F7ADFC03A902310020149158
:10D4400015F094FD0CAA69461798FFF7DDFA00283D
:10D45000E8D12398082803D0002F08D0402007E007
:10D46000002F01D0402000E00020192101E0002021
:10D47000092108436946087000A80D220130189957
:10D48000F3F787FC1A98149980B215F06FFD04AA7F
:10D4900069461798FFF7B8FA0028C3D1002F41D08A
:10D4A000B8B2694615F062FD002404AA6946105D11
:10D4B0000B5D58400855641C022CF8D30025BF1C96
:10D4C00013E004AB684620991A5D495D6D1C4A4023
:10D4D0000255641C102CF6D3014600241A46103F56
:10D4E0001798FFF791FA00289CD1102FE9D8002057
:10D4F00004A96C4606E0209B0A5C5B5D5A402254FE
:10D50000401C6D1CB842F6D3204602E0CA5DC255ED
:10D510007F1C102FFAD30A4601461798FFF774FABA
:10D52000002895D11A980F21050700030903401818
:10D53000000C2D0F1690002D00D1102500247DE049
:10D54000601C16991590884246D1002004A9270135
:10D5500006E03B180A5CF35C5A406B461A54401CC8
:10D56000A842F6D3284604E004A90A5C69460A5496
:10D57000401C1028F8D304AA69461798FFF744FA0C
:10D5800000288AD104A90CAA125C0B5C5A4010AB8B
:10D590001A54401C1028F6D30120694608700D2249
:10D5A00068441899F3F7F5FB1598149980B215F0B3
:10D5B000DDFC08AA69461798FFF726FA002893D1E0
:10D5C00007E0391808AB725C1B5C5A40229B401C78
:10D5D0005A54A842F5D330E0002004A927013B1893
:10D5E0000A5CF35C5A406B461A54401C1028F6D370
:10D5F0000A4619461798FFF707FA002891D101202B
:10D60000694608700D2268441899F3F7C2FB159813
:10D61000149980B215F0AAFC08AA69461798FFF77A
:10D62000F3F90028ADD1391808AB725C1B5C401CC3
:10D630005A40229B10285A54F5D3641C16988442F1
:10D6400000D27DE71A992298239A401810A9F3F77F
:10D65000A0FB0020E6E6000001484068704700009B
:10D66000BC05002070B513484468002C20D0002071
:10D6700002F0CCFA00212046403001804180A163B5
:10D68000E1630C460C4D0D4E0AE0E420A96A6043AC
:10D690000818818BB14202D0012102F099FB641C71
:10D6A00015F0C2FBA042F0DC0021054800F098FE16
:10D6B00070BD0000BC050020B0350020FFFF000059
:10D6C00063B00100FFB5474F81B01E460D46040010
:10D6D0007ED0002E7CD03068002879D0002D7FD0FD
:10D6E00000214148FFF708FC002802D0B80005B02F
:10D6F000F0BD2078801F232872D2607814286FD85C
:10D70000A078401E60286BD22079801E132867D233
:10D71000A01D0DF023F9002862D0A18A3348491FCB
:10D7200081425DD2618A491F814259D2E08A801EBE
:10D73000042855D2207E401E042851D2607E401E0F
:10D7400008284DD2A07E401E042849D2E07E801ECB
:10D750001D2845D2A08B401EFF2841D2A17F204624
:10D760001E30891E13293BD28088FF2188310A3858
:10D77000884235D22820005D002831D021461C4C3B
:10D78000216003996160287C022829D3698A68692D
:10D79000F3F762FA002901D0002003E0687C00283A
:10D7A000FAD0012000281BD03046A5600DF0C8F843
:10D7B000FDF732FE0446FDF70FFE0419FDF7F2FDFA
:10D7C0000419FDF769FD0419FDF7E8FC041900E0F0
:10D7D00006E0FDF713FD0419FDF724FD001986E7A7
:10D7E000384684E7FFFFFFFF383500200C0E0000AD
:10D7F000AC05002038B5044641886A46012008F08F
:10D80000C5FD01229203002801D0018810E0009894
:10D81000002813D0018801231B031943018063886A
:10D82000090B1B0509031B0D194301235B03194356
:10D8300011430180072011F00DF938BD608802F016
:10D8400049FE38BD10B5082011F004F9092011F087
:10D8500001F90C2011F0FEF810BD38B5044600881F
:10D8600069460EF04FFF0121002801D0817005E0CC
:10D870000098002806D08170218801800E2011F0C8
:10D88000E9F838BD208802F0C1FE38BD10B5062089
:10D8900011F0E0F810BD38B50446818B6A460020CF
:10D8A00008F074FD01229203002801D0018810E0E5
:10D8B0000098002813D0018801231B03194301801D
:10D8C000A38B090B1B0509031B0D194301235B03E4
:10D8D000994311430180072011F0BCF838BDA08B9B
:10D8E00002F07CFE38BD000001484068704700002F
:10D8F0009805002010B50849074A088000215268A1
:10D9000006E0D3680C011B191880401C80B2491C2A
:10D9100093688B42F5D810BD9805002081680029D6
:10D9200003D003494860002070470020C04370477F
:10D930009805002010B504490020088001460348DE
:10D9400000F04EFD10BD000098050020B9AC0100AC
:10D950004168491E416070473FB585B00D9D0C9CE4
:10D96000694601920B814B8103920B2B04D94168CC
:10D9700080234A7A1A434A7200214268C94351807F
:10D9800041682B46497ACA0906A90091224601A995
:10D9900003D012F0EDFA09B030BD12F04BFCFAE7FB
:10D9A00003484068002801D0807A704707207047FC
:10D9B000BC05002008B500920A4602A3202100F011
:10D9C000B1FA08BD7072646B0000000010B50C461F
:10D9D00088B00146074A6846F3F7FBF8002806D0EE
:10D9E000002C01D06846A047002008B010BD0120DF
:10D9F000FBE700005C38002001484068007A70476F
:10DA000098050020F8B5070021480ED00121C90370
:10DA10008F420AD24168CA6889681088381A80B271
:10DA2000814233D900011018F8BD002629E0C068F2
:10DA30003101441800250AE02C20A1686843081829
:10DA40003946009000F0A2FC00280FD16D1C20790F
:10DA5000A842F1DC00250FE02C20E168684308189B
:10DA60003946009000F092FC002804D0009800286D
:10DA700005D02046F8BD6D1C6079A842ECDC761C10
:10DA8000B6B2034840688168B142D0D80020F8BDE2
:10DA90009805002010B5FF22064C03E003785340A0
:10DAA000E25C401C0B46491EC9B2002BF6D1FF2098
:10DAB000801A10BD7854020030B502688088FF23B8
:10DAC000094C03E015785D40635D521C0546401E1D
:10DAD00080B2002DF6D14B40E05CCF2801D0002071
:10DAE00030BD012030BD0000785402000B4910B554
:10DAF000401807D0012808D0022809D003280BD1EC
:10DB0000012010BD00F00EF904E000F08DF801E0F6
:10DB100001F0A8FF0128F4D0002010BD0400FFFF91
:10DB2000FFB581B0002528E01748039A016A6820F4
:10DB300068430F180198818B384603F0EFFC0028EA
:10DB40001AD0002414E00C20396B60430E1804989E
:10DB500002990088C204D20C304608F0E3F900288C
:10DB600005D0304610F094FA0020307204E0641CB6
:10DB700003F0A0FDA042E6DC6D1C03F08FFDA8427F
:10DB8000D2DC05B0F0BD000030350020F8B5054608
:10DB900000240B4E0B4F0DE06820396A60430818D3
:10DBA000C189B14205D0B54201D0A94201D103F0EB
:10DBB00009FB641C03F072FDA042EDDCF8BD00001F
:10DBC000FFFF000030350020FFB581B01F4606463C
:10DBD00000241FE01248016A682060430D18039872
:10DBE000002802D0E878C00613D5002F02D0E878CC
:10DBF00080060ED50B48864202D0E889B04208D193
:10DC00002846029908F042F9002802D0284605B0BB
:10DC1000F0BD641C03F042FDA042DBDC0020F6E70F
:10DC200030350020FFFF000003484068002801D085
:10DC3000407A704702207047BC050020F8B50E46B8
:10DC4000074600240A4D0CE06820296A6043081842
:10DC50003246394603F062FC002801D00120F8BDAD
:10DC6000641C03F01BFDA042EEDC0020F8BD0000A8
:10DC700030350020FFB5002681B03546344616E029
:10DC80001048039A016A682060430F1838460199CA
:10DC900003F044FC002809D0012538460A9B049A69
:10DCA000029903F05FFC002800D00126641C03F0F9
:10DCB000F5FCA042E4DC002D02D0304605B0F0BDFA
:10DCC0000120FBE730350020F8B50746002519E0B4
:10DCD0000F48016A682068430E18F0890D49884290
:10DCE0000FD08F4201D0B8420BD1B46B03E0204675
:10DCF00008F045F92468002CF9D10021304603F0E2
:10DD00003AF96D1C03F0CAFCA842E1DCF8BD000042
:10DD100030350020FFFF000010B50088F3F7FEFC4F
:10DD200010BD000003484068002801D0007A704709
:10DD300002207047BC05002010B5F5F7EDFB10BDC3
:10DD400010B5034800214089F6F7C8F810BD00005F
:10DD50007007002002484068002800D00C3070474F
:10DD6000BC050020F8B51646154A1F465568002D1B
:10DD700024D02C464034228882421FD160888842B9
:10DD80001CD108F080FAAB6BEA6B181A8A4115DBDC
:10DD9000A079B04200D33046A071E079B04200D8FB
:10DDA0003046E071A0880749884201D2401CA0801B
:10DDB000AA6C002A02D0394630469047F8BD0000D0
:10DDC000BC050020FFFF000010B50021084600F050
:10DDD00001F810BDF3B589B000200E460390049001
:10DDE0000590FFF739FC0546254806AB07C807C371
:10DDF000288E69460883288D88832F462037787BB4
:10DE000008A988700024288E02F056F8039006A80E
:10DE10000490286800F09CFA00886946888201F026
:10DE20002DFA69468875288D002826D0787B0872DF
:10DE300001F018FE012800D10124FFF773FF01282B
:10DE400001D102200443FFF7EFFE012801D1042095
:10DE5000044300F0ADF9002801D00820044360BA63
:10DE600069464872000A887209980090032302AA42
:10DE70000A21019603A8FFF76FFD0BB0F0BD00006B
:10DE8000BC51020070B515460A4686B0064608A485
:10DE900001A9104601F05CFE002806D1234601AA24
:10DEA00010213046009500F03DF806B070BD00002E
:10DEB000696431323801000070B50F4E0546002408
:10DEC0006001801980694069002803D0641CE4B2B5
:10DED000032CF5D3032C0DD0284615F057FD014631
:10DEE000600180198269516181694D828169496946
:10DEF000002900D1002070BD9411002010B5017FD1
:10DF000082680248007815F059FF10BD38010020E2
:10DF100010B500210248FFF701F8C0B210BD0000A3
:10DF20003835002070B51646049D0A461C46014649
:10DF30002B463046FEF755FE002808DB2046F2F758
:10DF40004EFF02462B4621461846FEF74AFE70BD9C
:10DF5000F0B593B00E4607461C4615460FA925A0FE
:10DF600001F0F6FD002843D10BAB102239460FA873
:10DF7000FEF737FE00283BD10121684601700020E2
:10DF80000590069068460A9109900796089501AB9E
:10DF9000032205A90BA8FEF7FFFD002828D169463A
:10DFA000C87C01AB4006400E207001A805901020EF
:10DFB000069002200870032205A90BA8FEF7ECFDCD
:10DFC000002815D1102201A91898F2F7E2FE0320CB
:10DFD00069460870024601AB05A90BA8FEF7DCFDF7
:10DFE000002805D1102201A91998F2F7D2FE0020CD
:10DFF00013B0F0BD736D6B320000000030B5054604
:10E000000C4611A003C88BB009910890694610A076
:10E0100001F09EFD002815D104AB10222946684668
:10E02000FEF7DFFD00280DD16B46052208A904A8E4
:10E03000FEF7D7FD002805D10822204602A9F2F7F5
:10E04000A8FE00200BB030BD69643634010000002A
:10E05000736D6B330000000030B5054689B011A028
:10E0600000680C46089069460FA001F071FD002879
:10E0700015D104AB102229466846FEF7B2FD0028F0
:10E080000DD16B46042208A904A8FEF7AAFD0028BA
:10E0900005D16846C07B8006800E2070002009B044
:10E0A00030BD000069643601736D6B340000000000
:10E0B00010B50446837FC07F8B4201D000281CD05E
:10E0C000A177002903D0012818D1022013E00128EC
:10E0D00002D0022812D101E0002A0FD0204600F021
:10E0E000A5FF0748074900680968084302D0A08BCC
:10E0F00003F042F90020E077012010BD002010BDA0
:10E1000010080020F407002070B5064600240A4DD0
:10E110000CE01820A968604340184088B04204D140
:10E12000182044436018001D70BD641C09F0B4FA47
:10E13000A042EEDC002070BDBC05002010B50D2211
:10E1400009A10D4815F014FB002808D0FBF74EFC80
:10E150000446FAF703F8F9F7D5FF204610BD07A0EB
:10E16000FCF7EAFCFEE700004D4553485F4C49428E
:10E170005F56312E31000000264B02006D6573683A
:10E1800020686561642066696C65206572726F72D3
:10E190002E2E2E0A0000000010B50449097900292E
:10E1A00002D0012102F0AEF910BD00005035002070
:10E1B0000248007CC006C00F7047000050350020A8
:10E1C00070B50022164B114601264C00E418258E2E
:10E1D000854209D1C806C00E8640480980004833F0
:10E1E0001958B14319500EE0002A03D1002D01D176
:10E1F00022463032491C0829E7D3002A03D0108078
:10E20000187B304318730648001F017CC906C90FEC
:10E2100005D0C079002802D1072014F081FD70BD1F
:10E2200054350020F3B585B0002630E00598710024
:10E23000405A00282AD01E4C039020466430029099
:10E24000001D0190001D002524340090680007196E
:10E25000398E0398814216D129460298FEF78BFE2B
:10E26000002805D129460198FEF785FE002808D030
:10E2700029460098FEF7DCFD207B0121084320732E
:10E2800001E0002038866D1C082DDFD3761C06982F
:10E290008642CBD306482030017CC906C90F05D081
:10E2A000C079002802D1082014F03AFD07B0F0BD73
:10E2B0003035002010B50448C178012903D103F09E
:10E2C00091F911F053FA10BD5435002010B50548EE
:10E2D000007CC00602D40520C04310BD11F046FAF0
:10E2E00010BD00005035002003480079082801D0F7
:10E2F00000207047012070475035002010B50448B9
:10E300004068002803D00021024800F069F810BDE1
:10E3100098050020B9AC010030B589B015461E2221
:10E320001C46009201AB08A202F0C8FD002C06D0EA
:10E330002246294601A812F013FB09B030BD01A8FE
:10E3400012F0E4F8F9E70000646174610000000075
:10E350000349007949680001C9680818704700003E
:10E360009805002030B5002203790BE02C24856845
:10E3700054432C5B8C4203D12C214A43A81830BD56
:10E38000521CD2B29342F1D8002030BD002253007B
:10E390001B185B8A8B4203D151000818123070475A
:10E3A000521C062AF3D300207047F0B500234779AA
:10E3B00011E02C261D467543C468AE1CA65B8E4238
:10E3C00007D1645B944204D1C0682C214B43C01830
:10E3D000F0BD5B1CDBB29F42EBD80020F0BD00001B
:10E3E000F3B581B00746002429E0C0682101451833
:10E3F00000260CE02C20A9687043081802990091AF
:10E40000002C09D0002300222946B847761C287921
:10E41000B042EFDC00260EE00123F4E72C20E9688F
:10E420007043081802990091002C0ED0002301229D
:10E430002946B847761C6879B042EFDC641C044872
:10E4400040688168A142D0D8FEBD0123EFE70000FB
:10E450009805002010B50D4B5B68002B11D09C680F
:10E460008C420ED9DB68090159182C23534300282C
:10E4700004D04879904204D9C86805E008799042F0
:10E4800001D8002010BD8868C01810BD9805002074
:10E490000079002801D0002070470120704770B536
:10E4A000044680680D46002801D0A06802E020469E
:10E4B0000C30A060002120602046A180FF2D03D8F1
:10E4C000E9B20DF0E3FB70BD01200004854204D2E7
:10E4D000A9B220460DF0A8FB70BD2802010E20460F
:10E4E0000DF0D4FBA9B220460DF0B8FB70BD0000C2
:10E4F0008268002A08D0907A810907D0012909D0C2
:10E50000022913D0032915D0002070478006800E01
:10E51000642103E08006800E7D21C90048435189B3
:10E52000CA04F2D50905090F084170478006800E1C
:10E530000249F3E78006800E0149EFE7102700004B
:10E54000C0270900F0B506463A48EBB0806909904B
:10E550000BA808900A900020B468029003900490E1
:10E560000590079002A806903046FFF7F1FE00885C
:10E570006946888300F082FE69468877002C54D073
:10E58000A0881727FF43002852D0E0880005000D1F
:10E59000FEF7C4FB05004BD06089400B02D0E01BA6
:10E5A00007F024FEA0886A469081207A9074E18862
:10E5B000507C89044006C90F400EC90108435074BD
:10E5C0002888108169885181D17FE2884908D20466
:10E5D0004900D20F11436A46D17701F06DFC0590D6
:10E5E000002825D06089617AC004C00C4903084323
:10E5F000608120698288016808A80DF03CFB0D4805
:10E60000009008AB012205A9019630460DF0F4F9FF
:10E61000050007D060893146C004C00C60812846DF
:10E620000FF002FD28466BB0F0BD1220C043FAE7A0
:10E630003846F8E7FC4A0200F0B50E4685B00746BA
:10E6400003A9304606F092FC002854DB00254DE07B
:10E65000C068290144187889002807D00121C9031E
:10E66000884203D2218881423FD113E003218903EC
:10E670003F22411A120291420CD90121C903012201
:10E68000411A9203914205D3002D2ED1FFF72EFAA5
:10E6900000282AD00120039A0004824202D2217964
:10E6A000A06801E06179E06802AB01930092FB8809
:10E6B0007A8902F0CBFC040017D0B08861688842E8
:10E6C00013D330460DF0E9FA69460880B0884880D7
:10E6D000A3683246391D0298984769460988B06890
:10E6E0004018694630604888B0806D1C0348406817
:10E6F0008168A942ACD805B0F0BD000098050020A3
:10E70000FFB50C46488885B017490E9E1D46174632
:10E71000884208D0491E884205D0FEF7FFFA00283B
:10E720001ED0008820800020029003900490208852
:10E7300001F0C2FB029003940598FFF709FE0088E0
:10E740006946088200F09AFD6946887400953B4648
:10E75000002202A9019605980DF04EF909B0F0BD0E
:10E760000020C043FAE70000FEFF000038B5044671
:10E7700000F0BAF90146A07F002802D02046893077
:10E7800001E0204630302834044A009413680246E1
:10E7900021324930FEF728FC38BD0000303500201A
:10E7A000FFB581B00E460DF0A9F9204C81006068DC
:10E7B000F2F70AFB00251E482570846AF007C00F97
:10E7C000A07702270399002807D02046893000F05F
:10E7D0006FFA002807D1E77709E02046303000F0D3
:10E7E00067FA002803D00A20C04305B0F0BD0198A5
:10E7F000A08310480068002802D02020055501E0C1
:10E80000202007550A49049880390860B007C20FD4
:10E81000074802217838FEF715FB054820380574B3
:10E820002046FFF7A3FF0020DFE70000E4050020FB
:10E83000B035002038080020F8B5074680881D460E
:10E8400014460E46122806D3002E07D1384601F092
:10E8500017FE002802D00020C043F8BD207DCF2144
:10E860000840B107890E08432075B9882B46224617
:10E8700038680DF063FB00282FD00020C043E080F3
:10E880002968607B4978C0094906C001490E0843E0
:10E890006073400600D0FF20A073207DF721084060
:10E8A00029684978C909C900084320752868801C6F
:10E8B00014F03AFB20612868C01D14F029FB1022D7
:10E8C000D2436081032E01D0002804D0FF21090229
:10E8D000401AFB2804D81046F8BD0720C043F8BDF5
:10E8E000FCF738FF002802D120460DF0E5F80020A3
:10E8F000F8BD0000F0B50C4609680746487889B0B5
:10E900001646000601D5082500E0042511480068D8
:10E91000002807D0002B04A802D002F088F901E0FB
:10E9200002F06EF9324604A8216802F069F9A08865
:10E93000401B83B2A38022680020D11D009001AC4F
:10E9400023C404A93846D21DDB1FFEF737FC09B0EB
:10E95000F0BD000038080020F7B5044640680F46B7
:10E960004088434984B0884201D1012600E0002656
:10E970000025ED43002E04D038460DF002FA082899
:10E9800004D338460DF0FDF9042802D2284607B01A
:10E99000F0BD6068818838460DF0CCF92189384691
:10E9A0000DF0C8F9032138460DF0BCF9054600F01A
:10E9B0006DFC010C2970010A6970A8706068002E56
:10E9C000817A01D08020014338460DF0C1F92948F1
:10E9D000006800280CD0E07AC00709D003A8009096
:10E9E00002AB01AA0021206802F088FC002816D0A2
:10E9F000E07A592240084000E07220686B46817F2F
:10EA000051430A464032825C41311A7140180290EB
:10EA100020685922817F514369314018039016487C
:10EA200002210546FEF77AFA134C083C2178081AB1
:10EA3000C007010E68460079014338460DF088F999
:10EA400002212846FEF76AFA2168069B0A1A39460F
:10EA5000029800F013F8002899D102212846FEF709
:10EA60005DFA2168039A091A386800F075F98EE793
:10EA7000FFFF00001008002038350020F0B50C46DC
:10EA800009680746487889B01646000601D508256A
:10EA900000E0042513480068002807D0002B04A8D4
:10EAA00002D002F0C4F801E002F0AAF8324604A84D
:10EAB000216802F0A5F822680020D11D01AB00906A
:10EAC00023C3A38804A93846D21DDB1FFEF7A0FC90
:10EAD000060003D1294620460DF095F8304609B0CE
:10EAE000F0BD00003808002010B50024002803D035
:10EAF000807F002800D0012402210448FEF70EFA8E
:10EB0000002801D002200443204610BD38350020E3
:10EB100070B50024184E194D06E02046E4225043FB
:10EB2000A96A1C300E52641C14F07EF9A042F4DC79
:10EB3000002404E028206043696A641C0E52FDF73B
:10EB4000B3F8A042F6DC002406E02046162250432B
:10EB5000296A801C0E52641C0EF09CFFA042F4DC5B
:10EB6000064807490C3807F04BFB04480549743840
:10EB700007F098FB70BD0000FFFF0000B0350020DB
:10EB8000A160010031ED0000FEB504460E46454887
:10EB900002210190FEF7C2F9424F0146083F384674
:10EBA00060303D46009080353868002904D0A0428E
:10EBB00021D1002E1FD11AE0A0421CD0A0421AD8A9
:10EBC00001462A31A14216D3401CA04203D3A042E1
:10EBD0000BD1002E0BD10FF08FFEC100E86AF2F7C7
:10EBE000F3F800203C60786013E0002E03D000981A
:10EBF000007C602801D20020FEBD002E09D101F06A
:10EC0000EBFA002805D00198202102680A4302602F
:10EC1000F1E7324602210198FEF714F9002000992D
:10EC2000002E087417D03C600026044601270DE032
:10EC3000E86AF10040180188002906D0817800298F
:10EC400002D00460446000E08770761C0FF054FE30
:10EC5000B042EDDC00E0786007F01CFA014660206D
:10EC6000F1F7FAFF104941430E486C3007F0DCFA27
:10EC700000240E4E0CE02046E42250430246A96ACE
:10EC80001C328A5AB24202D00818FFF76FFD641C8A
:10EC900014F0CAF8A042EEDC002001F00DF80120CB
:10ECA000FEBD00003835002080EE3600FFFF00007A
:10ECB0007FB504460D46002002902146204639319A
:10ECC00011300191009003AB012202A92846FFF701
:10ECD0003FF9002820D1102229462046F2F759F8A2
:10ECE0006846007B2074214621312846FFF786F9CB
:10ECF000002811D109480068002807D0224628467C
:10ED0000293207A1FFF7BEF8002805D12246284680
:10ED1000493205A1FFF7B6F804B070BD38080020ED
:10ED20006E6B696B000000006E6B626B0000000090
:10ED300070B5084D08E02046012200210C3000F09B
:10ED400033F820460DF04FF828460DF022F8040065
:10ED5000F1D170BD4835002030B589B0044600209F
:10ED600015460A46009001900290039001A91046B2
:10ED7000013114F0FFF802A80722E11D0130F2F77B
:10ED800008F804AA69462846FDF73EFE002809D186
:10ED900004AA21184B78155C401C6B404B70062868
:10EDA000F7DB002009B030BDF0B58BB015460E463C
:10EDB000074615F079FAB9881630884277D315F0EE
:10EDC00073FA163014F0E2FD040070D000200990B0
:10EDD00008940A9015F068FA69461630C88418211C
:10EDE00068460A94F1F7F0FF69460E73FFF790F852
:10EDF000002859D008AB6A4629463846FFF71CFD63
:10EE0000002851D108A80CF048FF69468883888CF7
:10EE1000C88328480068002805D0022D03D109893D
:10EE2000384600F06BFC68464089FEF75FFE00281C
:10EE300005D168464089FEF7E5FD002804D0684604
:10EE4000007D4021084303E06846007DBF21084063
:10EE50006946087508A801F077F8801D0BD168464F
:10EE6000154AC08A516880000B58DB0BDB030B503E
:10EE70006846C08A107068464089002809D0012180
:10EE8000C903884205D26846007D41060CD4C009FA
:10EE90000AD16946898B0A98401869460890C88B40
:10EEA000888408A800F00AF8204614F083FD0BB00F
:10EEB000F0BD000038080020E4050020F8B5064643
:10EEC000087D0C468106607B8A0F4006400E012AB1
:10EED00004D001287DD9880F03D00AE0012878D01A
:10EEE000F9E700F0BFFD012803D0FEF71BFF012862
:10EEF0006FD1207D8006800F022803D1FEF712FF1C
:10EF0000012866D1207D8006800F44D000F0B6F93C
:10EF1000014600220120FDF799FD050059D0207D12
:10EF20008006800F01280BD031684878C009C001E5
:10EF30004870627B31685206520E521E1043487070
:10EF40002846B2880C30316800900CF094FE21689D
:10EF500059208A7F424310461346413069330818CE
:10EF6000CF1840328B5C217D490707D5EA681178BC
:10EF7000C909C9011170EA6819431170294E227D2F
:10EF80003168D207D20F8A1A00230099FFF776FD65
:10EF9000002842D102E000F075FDB9E7217D30681C
:10EFA000C907C90F411A3A46E868FFF7D5FE00289D
:10EFB00033D11D480068002817D0FEF7B3FE0128A2
:10EFC00004D0207D8006800F01280ED16189009831
:10EFD00000E025E000F08CFC002806D060890028C5
:10EFE00003D00121C903884217D3207D8006800FFA
:10EFF00004D001280CD002280FD102E000F032FD2D
:10F0000001E0FEF78FFE012800D00020002804D088
:10F01000002211462846FDF77FFD28460CF0E3FE4E
:10F02000F8BD00003035002038080020F8B5014652
:10F030000646893159220C463030F1F7AAFE592193
:10F040002046F1F7C1FE304600F09AFE0025114F30
:10F050001BE02820796A68430C182088B18B88420D
:10F0600012D1207900280FD0214616311122601DBF
:10F070000091F1F78EFE11210098F1F7A5FE002016
:10F080002071204600F0E6FD6D1CFCF70DFEA84245
:10F09000DFDCF8BDB035002010B504460B48006831
:10F0A000002806D0002C01D0A08B00E00848FEF715
:10F0B0000BFE08480068002806D0FEF733FE012842
:10F0C00002D1204600F028FB10BD0000F40700200C
:10F0D000FFFF000038080020FFB50446406881B0FB
:10F0E000807A1F461546FF2803D1FEF759FC616858
:10F0F0008872029900220C3120460091FFF72CFC07
:10F10000060057D12E480068002821D06068817A17
:10F1100001291DD08188009800F0EAFB002817D053
:10F1200060688088002813D00121C90388420FD26B
:10F13000002D3FD02B68002B03D000213A46084613
:10F1400098476A68002A35D039460020904731E058
:10F1500060688088FEF7CAFC002805D16068808856
:10F16000FEF750FC00281CD0002D06D02B68002B89
:10F1700003D000213A460846984702980CF03FFD1C
:10F18000014610480CF01CFE002D05D06A68002ACC
:10F1900002D03946002090470A480C3807F088F81A
:10F1A00008E06068807A012804D03A46294602982F
:10F1B000FDF7B2FC02980CF016FE304605B0F0BD2B
:10F1C0003808002048350020F8B5FDF789FF0128F0
:10F1D00011D0FDF751FF244C2068002805D0FEF720
:10F1E000A1FD022801D0206880472048006800283F
:10F1F00004D0804704E0FDF74FFFECE700F0EAFCA5
:10F200001B480068002800D080471A4DA86A878BE9
:10F2100000F046F90090284680380668A86A022166
:10F22000847F28467838FDF779FE002801D0022037
:10F230000443334622463846009900F037F900244B
:10F240000D4E0BE01620296A604309184888B04229
:10F2500003D00A7D098800F095F9641C0EF01AFCB1
:10F26000A042EFDCF8BD00003808002010080020A4
:10F27000F4070020B0350020FFFF0000024840687E
:10F28000002800D000797047BC05002070B5114DF2
:10F290006C68601C686000F05FFD28460221083041
:10F2A000FDF73CFE002813D10B49686888420FD94E
:10F2B000002000F001FE00280AD00120FDF722FF07
:10F2C00028680121401CFFF75FFC0020FFF7E4FEE7
:10F2D000204670BD3035002000E5B000F7B582B0A3
:10F2E0000F46050007D00022FCF718F9002827DB9D
:10F2F0000024174E20E0012500240DE06A4639461F
:10F300002846FCF70BF900280BD0801D01D0002502
:10F3100007E068460588641C0EF0BCFB801CA04218
:10F32000ECDC002D0CD0E3E71620316A60430818AE
:10F330000188002907D0641C0EF0ACFBA042F3DC6E
:10F34000002005B0F0BD0580077504994180F8E7FD
:10F35000B035002070B50024084D0AE01620296A57
:10F36000604308180188002902D0012100F008F844
:10F37000641C0EF08FFBA042F0DC70BDB0350020A5
:10F3800010B50446002901D0FEF767FA002020805E
:10F390001021201DF1F718FD10BD000070B50546C5
:10F3A00000240A4E0BE01620316A604308180188D9
:10F3B000A94203D8027D8918A94205D8641C0EF021
:10F3C00069FBA042EFDC002070BD0000B0350020DA
:10F3D0007CB5044600F07CFF002803D1FEF798FDC1
:10F3E00000283CD1A088062839D320460CF06FFCB9
:10F3F000009020460CF08EFC6946087120460CF007
:10F4000089FC6946487102211548FDF799FD0028DD
:10F4100004D014480099C06A884220D16E467179A0
:10F420002546A0888907104CC90E091949798842D8
:10F4300015D302210A48FDF783FD002807D168464D
:10F4400040798007C00E00190079002807D168466E
:10F45000407929468007C00E2258304690477CBD2F
:10F4600040360020403700208850020010B50A497D
:10F470004968814202D00420C04310BD0FF044F916
:10F48000044606488068426B002A02D00021022010
:10F490009047204610BD0000403600203406002072
:10F4A00001480088704700009805002030B4054CE2
:10F4B000A468A46B002C02D0A44630BC604730BCCA
:10F4C00070470000340600207FB5064C6568E4688C
:10F4D000029200910195039402226946FDF75CFBBC
:10F4E00004B070BD7855020008B500920A4602A328
:10F4F0002021FEF717FD08BD7072636B000000004D
:10F500001FB50B4600210091019102910391014624
:10F5100091226846FDF765FB04B010BD7FB500245D
:10F52000082502930094039501941923FDF746FEE4
:10F5300004B070BD7FB500240825029300940395A4
:10F5400001941923FDF764FF04B070BD0148806881
:10F55000704700003406002010B5040008D00649AA
:10F56000064806F04DFE064884600FF0CDF810BD49
:10F570000020C04310BD0000CDD20100B8370020EC
:10F5800034060020034B9B68DB6B002B00D0184730
:10F59000704700003406002070B586B0164601ADF5
:10F5A0000A4607A320210095FEF7BCFC040004D105
:10F5B0000D22E91C3046F1F7ECFB204606B070BD89
:10F5C0007072736E0000000008B50092034A0B468B
:10F5D00052890088024900F049FE08BD500700200A
:10F5E0003C38002003488068006C002800D00047A9
:10F5F000704700003406002010B50249024806F0AA
:10F60000FFFD10BDF5DB01009837002010B58AB072
:10F610000024049010200094019402940394089212
:10F620000691059007900990032204A96846FDF70A
:10F63000B3FA0AB010BD000010B50348002140899C
:10F64000F4F74CFC10BD00001007002010B5024973
:10F65000F4F79EFC002010BD3C380020FFB5254D7E
:10F660000121A86881B00143A9600835C00716468A
:10F67000C00F03D00120C04305B0F0BD1E4F386855
:10F68000002804D0002000F0F9F8002814D000244D
:10F690003146049B019A0298FFF782F806000DD0CC
:10F6A00028684008400028603868002802D0002CF4
:10F6B00000D080473046DFE70124E9E70D4900200C
:10F6C00048600A98FEF716F90A48102290300B9904
:10F6D000F1F75FFB00F01BFB06488030806A00F00A
:10F6E0004FFB002000F0E8FA012000F0A7FA00200C
:10F6F000C2E70000303500203408002010B528385B
:10F70000027A012A04D0022A01D101F067FC10BD5F
:10F7100001F043FC10BD000070B506000DD0124D85
:10F7200000242046542148432858002802D031465E
:10F7300013F0DAFA641CF4D070BD00240B4D0C4EAB
:10F740000CE02046E42250430246A96A1C328A5A41
:10F75000B24202D00818FFF7DFFF641C13F064FB0D
:10F76000A042EEDC70BD000004390020B03500205E
:10F77000FFFF0000F8B518490878002804D00228D7
:10F7800005D00320C043F8BD0120C043F8BD0025CB
:10F79000124F2E4654206843C419206800280AD00E
:10F7A000207A012801D0022805D126722068132171
:10F7B0000088FEF7C1FA2068008800F00FF96D1C80
:10F7C000E8D0FEF7BDFA0448067004481C3806F07D
:10F7D0000DFD0020F8BD00002C0800200439002099
:10F7E000034800218185016B816228307047000049
:10F7F0000439002070B5FEF78BFB002803D00024ED
:10F800000C4D0D4E10E00520C04370BDE420A96AE8
:10F8100060430818818BB14205D02021095C022980
:10F8200001D000F00BF8641C13F0FEFAA042EDDCEE
:10F83000002070BDB0350020FFFF000010B5044669
:10F8400001212030017006F026FD60620548E421A8
:10F85000806A201AF1F716FA03498861034806F016
:10F8600027FD10BDB03500202C080020E83800200E
:10F87000002120221154416270470000F1B51A4E58
:10F880003078002804D0012805D00320C043F8BDFB
:10F890000120C043F8BD00252F465420134968437A
:10F8A00044182068002814D0217A032911D1009926
:10F8B000002904D000881321FEF73EFA05E0B16864
:10F8C000002901D0FFF7D2FD277220680088FFF7DA
:10F8D000BDFE6D1CE1D0FFF7AFFE044837701C3849
:10F8E00006F084FC0020F8BD2C080020043900201C
:10F8F000F3B500208DB00E4607460B9054203946D4
:10F90000414322480C182248806D019003A80090C2
:10F9100002902068002833D0207A022805D01D4AA2
:10F9200096421CD001280DD02AE0002505E0606831
:10F930006900415AB14223D06D1C0EF01FFCA84251
:10F94000F5DC0CE0002505E060686900415AB14231
:10F9500005D06D1C0EF012FCA842F5DC10E0012170
:10F9600068460CF0FCF90D988288016868460CF036
:10F9700082F96A460021206800F00EF801200B9001
:10F980007F1CBBD00B980FB0F0BD000004390020E5
:10F9900078560200FFFF000070B515460C4606467B
:10F9A00001F032FB00280BD0007A03280BD0002096
:10F9B000032C0AD00021884209D00020C04370BD2A
:10F9C0000420C04370BD0120F2E70121F3E72A467D
:10F9D000214630460EF06CFA70BD000010B50249A9
:10F9E000F4F7D6FA002010BD4C38002010B50028DE
:10F9F00008D02021054800F00BF8044908462030C3
:10FA0000F1F7E3F80148203010BD00005C38002019
:10FA1000F8B50E46050004D0002E02D00024B70829
:10FA20000FE00520C043F8BD14F050F80146A000D7
:10FA3000401901700A0A4270090C8170090AC170EC
:10FA4000641CA742F0D8B00709D014F03FF800902A
:10FA5000B207A000920F40196946F1F79AF9002009
:10FA6000F8BD000003484068002801D04079704785
:10FA700002207047BC050020014901200870704732
:10FA8000BC05002002484068002800D080797047FB
:10FA9000BC05002010B500211E48FDF72DFA0028F6
:10FAA00036D01C48002408380460446084607430F8
:10FAB00006F09CFBFDF7D6FD00F036F800F0A2FB47
:10FAC00015480068002802D00120FEF765FB1348A6
:10FAD0000068002802D01248FEF758F8FFF74AFEE7
:10FAE000FDF7B0FE0E210F48FDF706FA002801D001
:10FAF000FFF730FC07487830046144618461C461D9
:10FB000000F063F8FDF7B8FAFDF714FFFFF76AFDA0
:10FB100010BD00003835002010080020F407002038
:10FB2000FFFF00004036002070B50024074D06E0BE
:10FB3000A968A001401801210FF0E4FA641C0EF03E
:10FB400057FFA042F4DCFDF7A1FE70BD480600207F
:10FB50007FB50546002000900190029003900C466E
:10FB60002846F1F73CF90246234629466846FDF748
:10FB700038F8C0B204B070BD70B51D460E46032AF9
:10FB800018D1A888012815D918460CF0C3F804002C
:10FB900010D0A888A0420DD328460CF0BBF8641EF4
:10FBA000AC8029280DD02A2805D02B2802D1284640
:10FBB000FDF7C4FA70BD002231462846FFF7F4F87D
:10FBC00070BD2846FFF704FC70BD10B5FCF739FF87
:10FBD00010BD00001CB50549486889680191009076
:10FBE00003496846FCF726FF00201CBD1C4B0200A1
:10FBF00079FB000008B500920A4602A32021FEF717
:10FC000091F908BD7072736B000000000149088013
:10FC1000704700004806002010B50549054806F069
:10FC2000EFFA10F0D9FE044810F06EFE10BD00008F
:10FC300079260200003600201C06002001B5FFF7DF
:10FC4000C3FA69460248FEF7CBFB002008BD00005E
:10FC5000A5BA010038B5044641886A46012006F07D
:10FC600095FB01229203002801D0018810E0009842
:10FC7000002813D0018801231B03194301806388E6
:10FC8000090B1B0509031B0D194301235B031943D2
:10FC90009143018007200EF0DDFE38BD204612F0B2
:10FCA00061FC38BD10B50C200EF0D4FE10BD10B5AF
:10FCB0000B200EF0CFFE10BD10B5044609200EF04B
:10FCC000C9FE002C02D10A200EF0C4FE10BD10B5F2
:10FCD0000F200EF0BFFE10BD10B5C18801221143E8
:10FCE000C1800D200EF0B6FE10BD10B5C1880422F3
:10FCF0001143C1800D200EF0ADFE10BD10B5C188BE
:10FD000002221143C1800D200EF0A4FE10BD10B5DB
:10FD100008200EF09FFE10BD38B5044600886946E5
:10FD20000CF0F0FC002802D00021817004E0009863
:10FD3000002805D0218801800E200EF08BFE38BDF2
:10FD4000204612F075FC38BD10B50121C1700620A7
:10FD50000EF080FE10BD000010B510F07BFB0028F7
:10FD600008D010F077FB014604484068F0F774FFB4
:10FD7000002902D10A200EF06DFE10BD30350020A2
:10FD800038B50446818B6A46002006F0FFFA01224E
:10FD90009203002801D0018810E00098002813D0B9
:10FDA000018801231B0319430180A38B090B1B0549
:10FDB00009031B0D194301235B0399439143018000
:10FDC00007200EF047FE38BD204612F0F7FB38BD85
:10FDD000F8B505461A480F464068002809D0018E3C
:10FDE000AA8B914205D105F049FB002F01D0FFF706
:10FDF0005EFF0024134E0BE02820716A6043081850
:10FE00000188AA8B914202D13946FCF76DFF641C30
:10FE1000FBF74AFFA042EFDC0B480068002802D045
:10FE2000A88BFDF7B3FE002F02D02846FDF733FD67
:10FE3000E4212846F0F7C8FF0020C043A883F8BD9E
:10FE4000BC050020B0350020F4070020FFB581B0CC
:10FE50001E460025164F25E0E420B96A68430C18B9
:10FE6000A18B144881421CD0009601A90EC92046DE
:10FE70003030FBF7A2FF002801D000210CE0E07F2A
:10FE800000280ED0009601A90EC920468930FBF744
:10FE900094FF002805D001210A980170204605B082
:10FEA000F0BD6D1C12F0C0FFA842D5DC0020F6E7C3
:10FEB000B0350020FFFF000070B506460D480E4D1E
:10FEC000864201D1A86A70BD00240DE02146E422DB
:10FED0005143A86A1C31405AB04204D1E421A86AB7
:10FEE0004C43001970BD641C12F09EFFA042EDDC73
:10FEF000002070BDFFFF0000B035002070B5002469
:10FF00000E4D08E048206968604340180C492830CD
:10FF100006F076F9641C14F00FF9A042F2DC00241C
:10FF200007E0A968A00140180649243006F068F9E6
:10FF3000641C0EF05DFDA042F3DC70BD480600209D
:10FF400001F001007DEF0100F0B50546002089B009
:10FF5000C04306900790002668460674067353480F
:10FF60000C46006800280BD020686189808BFDF763
:10FF700065FE217DC0014906490E0143217503E05C
:10FF8000207D4006400E2075092128460BF089FE91
:10FF900047480068002812D0FEF70AF900280ED062
:10FFA000207D8006800F0AD1FEF79EF9002802D03E
:10FFB000207D400703D40520C04309B0F0BD28468A
:10FFC0000BF06BFE69468882A888C8822868007892
:10FFD000C0090DD0207D410601D4C009EDD003A891
:10FFE000009006AB04AA214628460EF0DFF823E075
:10FFF0000120087306A80090A8880027FF43002866
:020000040001F9
:100000001BD00021204605F04FFF002815D12846BF
:100010000BF080FE0146207D020705D52A462046CA
:10002000009B00F01BFE07E0420601D4C00925D06A
:100030002A4620460EF01EFE07461D48006800288E
:100040000AD0FEF7B5F8002806D0FEF74DF90028D3
:1000500002D02046FEF72EF96946898AA868401822
:1000600069462860C88AA88010480068002819D00E
:10007000207DC00916D0002F02D013E03746DCE700
:1000800006990798C943C04301436846007B0BD0DB
:1000900006AB694661C12146064C6846027C24686D
:1000A0000020A047384688E70023F2E7F407002045
:1000B00010080020FC070020FFB5044688880025B2
:1000C000ED4387B00E4600280CD0FF2181318842D5
:1000D00003D91420C0430BB0F0BD30460BF051FEE5
:1000E000042801D22846F6E714F0DEF8B188001D96
:1000F000884204D260688022417A1143417205A887
:100100000090606806AB828841882068FCF722FE78
:100110000028E0D1E07A6946097D8007800F8900D8
:100120000843E0726068407AC00904D030460BF0A2
:1001300028FE082803D2E07AFD21084002E0E07A98
:1001400002210843E072606801218088C90301220E
:10015000411A9203914203D2FDF7D6FF054600E013
:10016000002502211A48FCF7F4FE014618482789A9
:1001700008380268511A42686068838804910197C0
:1001800000950293039240881249884202D0491E8A
:10019000884201D1012100E00021E07A3346800746
:1001A000C20F0698FCF756FD002894D16068099AA2
:1001B000407AC1090020009000290A9B3146204660
:1001C00002D00FF0D5FE86E710F034F883E7000088
:1001D00038350020FEFF000070B50024084D09E00E
:1001E0004820696860434018807E002801D00120C3
:1001F00070BD641C13F0A0FFA042F1DC002070BDB4
:100200004806002070B50024064D06E048206968C5
:10021000604340180FF04CF8641C13F08DFFA042AF
:10022000F4DC70BD4806002030B589B00C460546A8
:1002300069460CA0FFF78CFC002811D104AB1022FA
:1002400029466846FCF7CDFC002809D16846C08BDA
:10025000012140BA8004800CC9034018208000208E
:1002600009B030BD7674616400000000FFB583B052
:10027000154668460C9AC28000201E460F4603466B
:10028000009012241B210398F4F784FC02900028AC
:100290001BD06846C28831460298F0F77AFD39468D
:1002A0000398F4F739F8C00708D068468580002223
:1002B00001A90398F4F752FA040003D01B2101A806
:1002C000F4F7AEFC204607B0F0BD0620C043FAE7C5
:1002D00010B502210248FCF733FEC0B210BD000089
:1002E0004036002010B56421014805F09DFF10BD87
:1002F0009837002010B5CA7850070AD408469206ED
:100300001430002A01DA496801E07D21C90005F0B6
:100310008BFF10BD10B5D078F7210840D07014467F
:10032000800606D4606B002803D00BF05CFD002033
:10033000606310BD10B501790023DB4300290ED1A5
:10034000826A002A0BD007494A60990010608181B7
:1003500010460549103005F053FF002010BD184627
:1003600010BD0000EC070020C12E020070B5084D42
:1003700004466A68002A0AD090686060217000F024
:100380005BF968684168002901D02046884770BD44
:10039000EC07002070B5084D04466A68002A0AD0B0
:1003A00090682060217100F053F9686801690029A4
:1003B00001D02046884770BD08080020F8B51E46C9
:1003C00017460D46FDF748F900280ED0094C002DC0
:1003D0000ED00723621C314638460AF00FFB002876
:1003E00002D1012020700020F8BD0720C043F8BDD5
:1003F0000020F7E71406002070B505460179846AED
:100400000020C043002931D1002C2FD0617902296E
:100410002CD8E179012929D8A17A7F2926D8400052
:10042000134EA88131780220002900D16071114952
:100430000968002900D160720F490968002900D1BC
:10044000207220460D490C3005F0DAFE0020C04332
:1004500020860021A1632560E163746007F01CF928
:1004600018214143B068F0F7AFFC002070BD0000D8
:10047000BC050020F40700203808002021560100A8
:1004800070B5016880880D18281F12F056FD0446CB
:100490002846083812F051FD44400C4800218A00DB
:1004A0008258A24201D1012070BD491C0829F6DB07
:1004B000074A91688B00C450491CC817400F401868
:1004C000C008C000081A9060002070BDE035002010
:1004D000E405002000B587B0034605A2192168464F
:1004E00013F000F8684610F011F807B000BD0000E6
:1004F00062742F6D6573682F4170704B65792F257D
:1005000078000000F8B50E460546FDF7A5F8314C19
:100510000746002D11D1207BC1060ED580060CD4D4
:10052000E079032809D20AF0AFF8207BFB210840CC
:10053000F107490F08432073F8BDFFF7F5FA20468D
:100540001430009005F052FE2248A1885C30806A89
:10055000808B00F0B5FE207B00258006002801DAA4
:10056000258201E0A08820821B484168002904D030
:10057000207BC00601D502208847A580207BF7217B
:100580000840C0B2FB21E5710840A5716573C0B297
:10059000CF21E570084025646564C0B2012108439D
:1005A000A5642073F88D000701D5FDF70DFC0948FF
:1005B000001F002E02D000210171F8BD032101713E
:1005C0000AF0ECF87D21C9004143009805F02CFEAB
:1005D000F8BD0000543500201008002000B587B099
:1005E000034605A21921684612F07CFF68460FF009
:1005F0008DFF07B000BD000062742F6D6573682F1A
:100600004E65744B65792F257800000000B585B0E4
:10061000034605A21421684612F064FF68460FF0F5
:1006200075FF05B000BD000062742F6D6573682F03
:100630004E6F64652F25780010B50448002140688E
:10064000C1608160103005F0D1FD10BDEC070020C5
:1006500010B5044800214068C1608160143005F085
:10066000C5FD10BD0808002001B50E210C48FCF79F
:1006700067FC002813D004210948FCF723FC00285C
:1006800004D1012269460220FBF714FD0548806869
:10069000426B002A03D0684601780120904708BDCC
:1006A000403600203406002070B5054680680028DA
:1006B0000ED0416900290BD08088002808D0284638
:1006C000FDF716FF010003D0A868183005F0ACFD57
:1006D0000748006800280AD0002460004019408ABA
:1006E000002801D0FDF76CFD641C062CF5D370BD0D
:1006F00010080020F8B50C4606460BF042FB2179A5
:100700006279490092008918091D884202D211209D
:10071000C043F8BD618830460BF0A0FA217930461D
:100720000BF0B4FA617930460BF0B0FA002508E01E
:100730002C20A16868430818018830460BF08EFA17
:100740006D1C2079A842F3DC00250CE02C20E16828
:1007500068430F18798830460BF080FA39883046A4
:100760000BF07CFA6D1C6079A842EFDC0020F8BD2C
:1007700000B5084985B049681046C968022906D104
:1007800002900BF0C7FA01466846FFF7EFFD05B08F
:1007900000BD0000EC07002070B506460024FDF700
:1007A000A3F8054620480078002800D001241F48FF
:1007B0000068002801D0022004431D48006800287A
:1007C00001D0042004431B480068002801D0082001
:1007D0000443298830460BF041FA698830460BF013
:1007E0003DFAA98830460BF039FA0EF085F801463B
:1007F00030460BF033FA214630460BF02FFA002436
:100800000BE0E86821014118002C0BD00022304693
:10081000FFF770FF002804D1641CA868A042F0D83C
:10082000002070BD0122F2E7BC050020380800203E
:10083000F407002010080020F3B59EB001681C9159
:1008400043681B93844687681A97C0681790139073
:10085000604600696246189052691692119262468B
:100860009269159210926246D269149212920022F5
:100870001F9D6C1C661C2D7824782D0624042C43A7
:10088000A64634462478761C250274462543741CFB
:100890001F9434786E462C43950019957451A646E2
:1008A00006250446EC410B260546F5416C40192609
:1008B0000546F5416C40119E05463540109E864325
:1008C00075406619604C199D6559129C2C19351993
:1008D00074462C19A64602250C46EC410D460D2601
:1008E000F54165400C461626F44165401C467C40A7
:1008F0001E460C403E4074402D19109C1294119CD1
:10090000109411907446139813971F460B46611963
:10091000521C7044102AABD36DE0541C2407A50E62
:100920006C4664590726A6467546F5411226F441E1
:1009300065407446E4086540941E24071D95A50E85
:100940006C46655911262C46F441AE461326F541F6
:100950006C407546AD0A6C40A6461407A50E6E465F
:1009600019957659D51F2D07AC0E6D462D59744635
:1009700076191D9D2C193419199D6E467451062641
:100980000546A646F54106460B24E6416E4005465F
:100990001924E54134466C40119E05463540109EB1
:1009A000864375406619284D94002C59129D65198F
:1009B000751974462C19A64602250C46EC410D46C5
:1009C0000D26F54165400C461626F44165401C464F
:1009D0007C401E460C403E4074402D19109C1294E1
:1009E000119C11901398139710941F4674460B4650
:1009F00061197044521C402A8FD31C9A52186146C8
:100A00000A601B99CA1861464A601A99CA19614658
:100A10008A60139A17998A186146CA60189909184A
:100A2000604601611199169841186046416110991C
:100A300015984118604681611299149841186046D2
:100A4000C16120B0F0BD0000E051020070B51C4D46
:100A50000246002912D001290FD100F0E7FA040064
:100A60000BD06868002805D04268002A02D0002117
:100A7000204690476068401E606070BD10490020AD
:100A80000831C3005B185B68002B11D0401CF8D004
:100A9000002000280FD002804168491C416069682D
:100AA0000029EAD00A68002AE7D00021904770BDEB
:100AB000C0004018EDE71046F2F72EFD70BD0000B3
:100AC0000007002030B50023084D0CE0CC5C44400A
:100AD000200124092C5D6040C0B204010009285C9B
:100AE0004440E0B25B1C9342F0D330BD6050020042
:100AF000F8B51F46069E089D079B0446002901D0B5
:100B0000022000E001202070D0071843611C12F081
:100B100031FA611D384612F029FAE11D304612F013
:100B200025FA21460931284612F024FAF8BD0000C2
:100B3000F8B5002016460C46034600901F221749C0
:100B40001748FBF7BDFF051E27D0207AC007010E0E
:100B500028460C3007460BF099F8E079C10904D01B
:100B60004106490E3846803102E04106490E3846BA
:100B70000BF08CF80322211D38460BF07CF82188FD
:100B800038460BF051F8618838460BF04DF8B288C2
:100B9000384631680BF06FF82846F8BDB1110100F6
:100BA000BC380020FFB581B01E46154613490B9F87
:100BB0000C9C0198FDF773FC394601980BF066F820
:100BC000314601980BF04AF80A9901980BF046F863
:100BD000002D09D0042101980BF015F804222146BC
:100BE000F0F7D7F805B0F0BD022101980BF00BF833
:100BF0002178017061784170F4E700003E800000C8
:100C000010B5002303704C7844708C788470CC78D5
:100C1000C4700C7904714C79447189798171C37104
:100C2000014603720931104612F0A4F910BD10B547
:100C300003230370002343708C788470CC78C470D5
:100C40000C7904714C79447189798171C3710146C1
:100C500003720931104612F08DF910BDFFB581B055
:100C600004466846017A15464E06760E07D00A2ECF
:100C700009D0207D400627D4002005B0F0BD2046D5
:100C800013F054F9F9E7A888032802D20020C043E2
:100C9000F3E71A49608909880027884212D1104673
:100CA0000BF038F84606760E28460BF002F803469D
:100CB000607B61894006400E301A401CC2B2208918
:100CC000FDF750F83846D8E70D4F3868002803D0B4
:100CD000FDF76EFA002808D00A480368002B09D0F7
:100CE0002A46214630469847C7E72A4621463046DD
:100CF0003B68F8E70720C043BFE700004806002034
:100D0000000800201808002030B505460D4887B0BF
:100D1000006E029004A80C46019003900A4901A8B5
:100D2000FDF7BDFBFCF73CFE014601A80AF0AEFF53
:100D300000200346009001AA21462846FDF7E0FC6A
:100D400007B030BD684B02000E80000030B504468D
:100D5000154887B0C06E029004A801900390A06A65
:100D60000D4600280BD0116809787F2919D8012970
:100D700017D0827A8A4202D08172FEF793FF0B4924
:100D800001A8FDF78CFBFCF70BFE014601A80AF059
:100D90007DFF00200346009001AA29462046FDF76A
:100DA000AFFC07B030BD0000684B02000E800000B1
:100DB00070B506461448E4B0C068029004A80190DB
:100DC00003900D4610460AF0A5FF040000D0002451
:100DD00068464089002814D0022101A8FDF75FFB76
:100DE000214601A80AF052FF01A8FFF7D5FC002810
:100DF00007DB00200346009001AA29463046FDF794
:100E00007FFC64B070BD0000684B0200024840687F
:100E1000002800D101487047AC05002008060400F6
:100E20000148806870470000AC05002010B50C46F2
:100E300006F0C2FC002804D040882146F4F751F99E
:100E400010BD122010BD000010B500F037F90028C9
:100E500006D0846803480121007812F071FC201A42
:100E600010BD0000540600203EB504464906154654
:100E7000490E10460AF06CFFFEF712FB6946088027
:100E800020884880C87980210843C009C00169468C
:100E9000C871032101A8EFF797FF02210648FCF76C
:100EA00061F805492A4608390968081A0290694616
:100EB0002046FFF73DFE3EBD3835002038B50D0019
:100EC00080881C46049943BA009201D003A200E036
:100ED00007A2204612F006FB38BD000062742F6D99
:100EE0006573682F566E642F25782F2573000000D8
:100EF00062742F6D6573682F5369672F25782F25CE
:100F000073000000F0B50546144887B08069019071
:100F100004A8009002900E46E889FEF7CDFF074630
:100F2000012168460AF01BFF062168460AF06BFEA5
:100F300004463846FDF7D8FD2070094804220068B1
:100F400003A900BA0390601CEFF723FF66716A469D
:100F500002212846FFF788FF07B0F0BD8855020040
:100F60003035002010B5044638300AF029FF206CD7
:100F7000401C206410BD10B50446FFF7C3FF0100FC
:100F800002D02046FFF7EEFF10BD10B5F1F7F6F8DE
:100F9000002801D00D20C04310BD70B50E000546DD
:100FA00017D0002405E068686100405AB04210D0B4
:100FB000641C0DF0E3F8A042F5DC002405E068684D
:100FC0006100405A002805D0641C0DF0D7F8A042FB
:100FD000F5DC70BD68686100465270BD70B50D00EB
:100FE00006460AD000240AE070686100405AA84210
:100FF00004D1002071686200885270BD641C0DF03D
:10100000BDF8A042F0DC70BD074A002154234B43D9
:10101000D358834203D15420414388187047491C58
:10102000F4D000207047000004390020064A002157
:10103000CB00D35A834202D1C80080187047491CA4
:10104000F6D000207047000008070020FFB581B0EF
:10105000164600240A9F0B9D29E02C20019960432D
:101060004018032189033F22711A1202286091421D
:1010700006D90121C9030122711A9203914204D2B7
:101080003146FDF783F900280FD0286804990AF04B
:1010900099FC002809D02868006A03E00168B94279
:1010A0000AD00C3081680029F8D1641CE4B202989F
:1010B0008442D2D30020286005B0F0BD0249086800
:1010C000884200D1002070475806002010B50A4819
:1010D000044611F094FF00280CD121680A682260B0
:1010E0006068884200D162601839C889FCF75EF8F0
:1010F0000AF079FE10BD00000435002030B483688A
:101100000C46002B03D0204630BC11461847122055
:1011100030BCC0437047F0B4046815460E46002C3E
:1011200005D029463046A446F0BC1A466047F0BCBC
:101130001220C0437047F0B4446815460E46002C98
:1011400005D029463046A446F0BC1A466047F0BC9C
:101150001220C043704700207047C268002A01D0A7
:10116000084610471220C043704700000249CA7A5F
:10117000082AFCD00872704700340040F8B50024FB
:101180000A4D2646BF27A0004119FF310131C86C26
:10119000002809D0CE6481690A7A3A400A720AF0BE
:1011A00022FE641C032CEED3F8BD00004036002064
:1011B000034900220969D24340000A52401870478F
:1011C000F4070020F8B504461D484268002A05D0FF
:1011D000E078800602D5208802219047204614300E
:1011E00005F004F82188E08900F06AF8606B0027B8
:1011F000002802D00AF0F7FD6763204638300CF073
:1012000047FF002508E00C20216B68430E1830468C
:101210000CF03EFF37726D1C00F04CFAA842F2DC75
:10122000E078C721084040084000FB2108402764BF
:10123000E07000F045FA41002069EFF7C5FDF8BD08
:10124000F407002010B50C460846403461897D2221
:10125000D20051434C3004F0E7FF608940006081C8
:1012600010BD000010B50C4AD3795B1C011E0B4861
:10127000D37108D003210171107B4007C10F0020FA
:10128000FFF740F910BD01210171104604491430E7
:1012900004F0CAFF10BD0000543500205035002076
:1012A0004C04000010B50021C94301800021418099
:1012B0008180C18042210830EFF786FD10BD00001B
:1012C000F8B50D46064600240B4F0EE04A20F9689B
:1012D000604340184188A94206D10188B14203D138
:1012E000FFF7E0FF0020F8BD641C00F0D7F9A04232
:1012F000ECDC0720C043F8BDE4050020FFB581B059
:101300001F460E46054600242DE01A494A20C968AA
:10131000604340180188AA8B914223D1002E02D04D
:101320004188B1421ED10399002906D0A97F4A0104
:10133000891809180A7A03990A70002F05D0A97F25
:101340004A0189180918093139600A99002906D01B
:10135000A97F4A01891808180A99193008600020E5
:1013600005B0F0BD641C00F099F9A042CDDC072067
:10137000C043F5E7E405002070B5054600240C4E97
:1013800010E04A20F168604340184188002908D0E5
:101390000188A94205D10146212229310830EFF701
:1013A000F8FC641C00F07AF9A042EADC70BD000091
:1013B000E4050020F7B504461B486688006886B03F
:1013C000002808D01948008D864204D1FEF768F83D
:1013D0000646658802E0FEF763F805460120694687
:1013E000087202AF3046093111F0BCFDF91C2846E5
:1013F00011F0B8FDA088791D11F0B4FDE088F91D49
:1014000011F0B0FD0798092241014018031919464F
:101410001846193109300191009002A90833089843
:10142000FCF796FD09B0F0BD100800203035002013
:10143000F8B50024074605460D4E893711E04A20CD
:10144000F168604340184188002909D00188AA8BBF
:10145000914205D13A460121FFF7ACFF002805D1A2
:10146000641C00F01BF9A042E9DC0020F8BD00007C
:10147000E4050020FFB583B01E460F46002539E085
:1014800023494A20C9686843441803982188808BFF
:1014900081422ED13878217A4006400E88420ED102
:1014A00005990C9800912246029021463B4619323C
:1014B0000196093103980AF0BDFC002820D003985A
:1014C000C07F002815D0387841062920005D490EDC
:1014D00081420ED105990C98009122460290214636
:1014E0003B463A3201962A3103980AF0A3FC0028C1
:1014F00008D06D1C00F0D2F8A842C1DC0720C04320
:1015000007B0F0BD307D0221084330750020F7E7B9
:10151000E405002010B50EF073F910BD70B5054656
:10152000C078164680061BD5E889884218D1002E5F
:1015300008D00120C003864204D21146284604F098
:10154000A5FC70BD002407E028696100405AB04244
:1015500001D1012070BD641C00F0B2F8A042F3DCA0
:10156000002070BDFFB581B01746002500F09CF843
:101570000499884221D3002412E00198016B0C20C9
:1015800060430E18002F08D038880299C204D20C8C
:10159000304604F0C7FC00280CD1307A641C451991
:1015A00000F088F8A042E8DC00F07EF8411B0498C7
:1015B000814202D9012005B0F0BD0020FBE7000008
:1015C00010B5074A002909D1508210466421143011
:1015D00004F02AFE02490420091F087110BD000012
:1015E0005435002010B50446C078012807D1207B6F
:1015F0000421C841490740181C21C84120732046D6
:10160000143004F0F3FDFEF7E0FA034906200871F8
:101610000020E071E07010BD5035002070B5054627
:10162000846A10680E460278002A01D0012A1AD175
:10163000002C14D0607A904211D00B48006800282A
:1016400008D06272FEF72EFB607A002802D10748AC
:10165000FCF79CFAE08D400701D5FCF7B5FB31465D
:1016600028460EF0CDF870BDF4070020FFFF000003
:1016700000B50849084B496885B0C96810469942C9
:1016800005D10AF047FB01466846FEF76FFE05B03C
:1016900000BD0000EC070020118000000148006838
:1016A000807E7047AC05002001480068C07E70470E
:1016B000AC05002001480068007E7047AC050020A2
:1016C00001480068407E7047AC050020002917D013
:1016D000002815D0012804D0022805D0032807D0FF
:1016E0000CE04879C02207E048798006800E04E0CB
:1016F00048798006800E40221043487101207047CF
:101700000020704710B5054C606B002803D012F024
:1017100051F900206063207E607610BDFC0400203B
:10172000F0B54D4D0746686B87B00E4600281CD1BA
:10173000002F7DD0002E7BD0384600F04FFA68761F
:10174000297E884211D300240AE0E96B2001401869
:101750000622FF2111F0FDFF002805D1641CE4B230
:10176000287E8442F1D3C4B26C76687E297E88429A
:1017700070D2696B00290DD08A680024002A27D016
:10178000062148432130C0B21C2112F079FA686B5F
:10179000846050E0062148432030C0B23A46102110
:1017A00012F06EFA1822FF21684612F0E7F8687E00
:1017B0006A467030C0B2182112F062FA687EE96B96
:1017C000000140181022394611F0E0FF6E6332E04C
:1017D0000A69002A09D0062148432230C0B21C21E0
:1017E00012F04EFA686B046125E04A69002A09D0BC
:1017F000062148432330C0B2102112F041FA686B31
:10180000446118E0CA68002A18D0062148432430F1
:10181000C0B2102112F034FA686B0621C268687EEB
:10182000103248432530C0B2042112F029FA00E0FA
:1018300010E0686BC460002007B0F0BD687C002831
:1018400001D000F083FBA87C002801D000F046FB0B
:1018500000F0E6FB0120EFE7FC040020F7B588B0BC
:10186000044620220021684612F088F86A46148057
:101870005B480425817B1177FF2101310A9E4A00D4
:101880008B000224002E50D087786E463771C778BF
:101890007771069E4079BC467608C7077600FF0F31
:1018A0003E4306968607069E01D5264300E0A643E2
:1018B0000696C6064A4F069E01D50E4300E08E43AB
:1018C0000696810606993E4601D5114300E09143F4
:1018D00006914106069901D5194300E09943400756
:1018E0000691084601D5284300E0A84306906046CB
:1018F000002805D001A810223A49023011F046FF15
:101900003179002905D00998002802D00698204393
:1019100006906846807D002900D001210843694671
:101920008875717850E0042150E0077A6E4637716F
:10193000477A7771069EC07ABC467608C70776005C
:10194000FF0F3E4306968607069E01D5264300E01C
:10195000A6430696C606224F069E01D50E4300E01A
:101960008E430696810606993E4601D5114300E056
:10197000914306914106069901D5194300E0994328
:1019800040070691084601D5284300E0A843069089
:101990006046002806D0134901A8102210310230F9
:1019A00011F0F4FEB17A002905D00998002802D080
:1019B0000698204306906846807D002900D00121CA
:1019C000084369468875F1790029ACD10843694616
:1019D000887568460A99F1F7ADFD0BB0F0BD0000BF
:1019E000FC04002000340020F0B5064687B0062035
:1019F00041430C9D1446082B1BD02131CFB21C2231
:101A00000021684611F0BAFF6A461C21384612F0E0
:101A1000F3F800280BD16846807EC01F092806D83D
:101A2000E107C90F2B466A463046F1F7D7FD07B0EC
:101A3000F0BD2231E2E7000070B500252C460A4EC9
:101A40000CE0F16B200140180622FF2111F081FE0D
:101A5000002801D16D1CEDB2641CE4B2307E8442DA
:101A6000EFD3284670BD0000FC0400207FB50D4672
:101A700006214843044616462034E0B26A46102147
:101A800012F0BAF8002806D10622FF21684611F0AC
:101A900060FE002802D0002004B070BD6846808936
:101AA000002EC3B202D02B43DBB200E0AB4398421E
:101AB0000AD068468381E0B26A46102112F0E0F84D
:101AC0000248007D12F078F80120E5E7FC040020D0
:101AD00070B500200446064D04E0204600F00AF8E8
:101AE000641CE4B2297E8C4201D20028F5D070BD7E
:101AF000FC040020F0B5384E0546707E91B085425A
:101B000009D10121F07D11F009FE0221F07D11F0D3
:101B100005FEFFF7F7FD2C460620444327462037F5
:101B2000F8B207AA102112F067F8002806D10622A1
:101B3000FF2107A811F00DFE002803D0002528463C
:101B400011B0F0BD1022FF2107A811F017FF1C22D1
:101B5000FF21684611F012FF1822FF210BA811F097
:101B60000DFFF8B207AA102112F08AF807462046A6
:101B70002130C0B26A461C2112F082F80743204689
:101B80002230C0B26A461C2112F07AF80743204680
:101B90002330C0B26A46102112F072F80743204683
:101BA0002430C0B26A46102112F06AF80743253487
:101BB000E0B26A46042112F063F8044670353C43F3
:101BC000E8B20BAA182112F05BF820430546307DDD
:101BD00011F0F2FFB3E70000FC04002070B50646E8
:101BE00000240A4D0CE0E96B200140180622314622
:101BF00011F0BEFD002801D0204670BD641CE4B287
