:020000040000FA
:1000000000800020A500000001000020AF000000DB
:1000100000000000000000000000000000000000E0
:10002000000000000000000000000000AF00000021
:100030000000000000000000B1000000B30000005C
:10004000051D0000B5000000B5000000B50000006F
:10005000B5000000B5000000B5000000C1100000B0
:10006000B5000000B5000000B5000000B5000000BC
:10007000B5000000B5000000B5000000B5000000AC
:10008000B5000000B5000000B5000000B50000009C
:100090000348854600F0CCF8004800471D380000B2
:1000A000008000200448804704480047FEE7FEE740
:1000B000FEE7FEE7FEE70000D11C00009100000013
:1000C00030B50B46014600202022012409E00D46F0
:1000D000D5409D4205D31D469540491B2546954078
:1000E00040191546521E002DF1DC30BD70B50024BC
:1000F0002546002801DA01244042002901DA0125C1
:100100004942FFF7DDFFAC4200D04042002C00D056
:10011000494270BD03460B439B0703D009E008C961
:10012000121F08C0042AFAD203E00B780370401CA7
:10013000491C521EF9D27047D2B201E00270401C35
:10014000491EFBD270470022F6E710B513460A4657
:1001500004461946FFF7F0FF204610BD10B50446CF
:1001600005E00B780370401C002B00D0491C521E88
:10017000F7D2204610BDCAB2401E4178401C8A42C8
:1001800002D00029F9D100207047421C0178401CA0
:100190000029FBD1801A704703460A780270401C80
:1001A000491C002AF9D1184670470321001D401E42
:1001B000037812021A43491EF9D5104670470346C8
:1001C00003220870000A491C521EFAD518467047CF
:1001D000F0B51FB40646002082B0054640240191C8
:1001E00000901BE0019922460F46304600F042F88D
:1001F000049A059B801A994110D31046194622464D
:1002000000F028F8361A8F4101972246012000217C
:10021000009F00F01FF838184D4100902046641EE2
:100220000028DFDC019B00982946324607B0F0BD6C
:10023000064C0125064E05E0E36807CC2B430C3C39
:1002400098471034B442F7D3FFF726FFB86D00008B
:10025000E86D000010B5202A04DB0146203A9140E9
:10026000002010BD914020239C1A0346E34019430F
:10027000904010BD10B5202A04DB0846203AD0403B
:10028000002110BD0B46D340D0402024A21A91403B
:100290000843194610BD70B58C180578401C6B07D3
:1002A0005B0F01D10378401C2A1106D10278401C53
:1002B00003E006780E70401C491C5B1EF9D12B0729
:1002C00005D40023521E0DD40B70491CFAE70378A5
:1002D000401CCB1A921C03E01D780D70491C5B1C5E
:1002E000521EF9D5A142D8D3002070BD30B5174BAE
:1002F0000022154C5B790DE03C2555432D192D6BE3
:10030000854205D1002803D0002914D00A7012E0DC
:10031000521CD2B29A42EFD3002210E03C25554342
:100320002D196D6B854208D1002806D0002902D016
:1003300080200243EAE7012030BD521CD2B29A422B
:10034000ECD3002030BD0000C00D00200C010020C7
:1003500070B500240A4D0B4E0DE03C20604340195F
:10036000016A052905D18169002902D0042100F024
:1003700081FC641CE4B270798442EED370BD00004D
:10038000C00D00200C010020F0B51A480222816B3C
:100390008B0001468039CA50174FFA89836B9B0046
:1003A0005B18DA63826B154B856B1C68144B6243D8
:1003B000D218AD006D18AA67C26B521CC263826B63
:1003C000521C8263856B0F4A1278954201D3002537
:1003D0008563866B0125B6008D51816B6143C91819
:1003E000B9810564C16B5300D318994200D9C26327
:1003F000F0BD00003441002000900040EC390020A6
:10040000600400200E010020034902680A6042686F
:100410004A60806888607047003A00200649026898
:100420000A6042684A6082688A60C268CA6000697D
:100430000861002070470000EC39002010B500F082
:1004400043FE10BD00B500F0EDF9024A0021D16273
:1004500000BD0000A83900200148008CC0B27047E0
:10046000A839002006494979884201D30020704705
:100470003C214143034A0023505C53507047000025
:100480000C010020C00D00200120704770B5FFF75F
:10049000D9FF0446C0070CD0164D17A0296B01F0F8
:1004A0009BFC1AA0696B01F097FC1DA0A96B01F0E1
:1004B00093FC60070ED5FFF7CFFF0546022802D355
:1004C0001C49012048701CA001F086FC29461EA092
:1004D00001F082FCE0060CD500242046FFF7C2FFA5
:1004E000010002D0204600F03DF8641CE4B2042C68
:1004F000F3D370BDA8390020556E726561636843FF
:100500006F646520A3BA25640A000000556E726509
:1005100061636850726F746F20A3BA25640A00008B
:10052000556E7265616368506F727420A3BA25645A
:100530000A00000074000020737461747573203D1C
:100540002031210A0000000047494E545F535441B6
:10055000545F5048595F4348414E4745202530324B
:10056000780A0000F8B505460C46480716D5002164
:10057000284600F031FB014600901AA001F02CFC47
:10058000009800280AD0002D03D11B4E7078032854
:1005900014D06A461949284600F056FA200702D5B9
:1005A00017A001F019FCE00602D51BA001F014FC15
:1005B000600602D51CA001F00FFCF8BD1DA001F0E3
:1005C0000BFC6A462249284600F03EFA042070706F
:1005D0000021284600F044F903F00CF91DA001F0B9
:1005E000FBFBDBE752656365697665204C656E2031
:1005F0003D20253032780A0074000020903700201A
:1006000054435020436F6E6E65637420537563636B
:100610006573730A000000005443502044697363FB
:100620006F6E6E6563740A005443502054696D6F99
:1006300075740A00656E7465722072656365206961
:100640006E74215354415455533D330D0A0000003C
:1006500018020020737461747573203D2034210AE0
:1006600000000000F8B50F4604463F493F481E46CB
:10067000154681420ED83E4981420BD83D49814200
:1006800008D83D49814205D83C49814202D83C49BD
:10069000814201D9FB20F8BD44213A48FFF753FDC0
:1006A00018213948FFF74FFD042221463548FFF74E
:1006B00031FD344C04223946201DFFF72BFD204626
:1006C000062231460C30FFF725FD002D2CD02046A8
:1006D000042229460830FFF71DFD2C4D3222A86860
:1006E0000127C106C90E6971C105090FA970C104AE
:1006F000090FE9708104C90F29714103C90EA16175
:100700000102C90E5143E161C101C90F002902D0A4
:10071000216C394321648001C00F03D0206C022179
:100720000843206400260BE0FF206072A0720020C6
:100730002072D2E73146002000F0C0FA761CF6B2F3
:1007400068798642F6D300F0DDFD01F065F80D48CA
:100750000F495830676201600E494160092181608C
:100760002F700020F8BD00002004002000000120B0
:1007700060040020C00D0020B00E0020CC2200201C
:10078000D8340020A8390020103A00200C010020A5
:10079000204E0000983A0000F0B585B01C46154682
:1007A0000E460746FFF770FE012802D0FC2005B078
:1007B000F0BD0F490D4808604B20C0000090432059
:1007C000C00001900B4802900A2003902B20049057
:1007D0006846FFF723FE23462A4631463846FFF790
:1007E00041FF044603F0E2F92046E0E78424550285
:1007F00014010020F811000010B50848808CC007D3
:100800000AD000F081FF00F039FF054802F06AF9D4
:1008100000F08AFDFFF79CFD10BD0000A839002004
:10082000283A002010B50B4900204A790A490B4BA1
:100830000BE03C2444431C59002C04D0C86A10220D
:100840001043C86203E0401CC0B29042F1D3888DCF
:10085000C0B210BD0C010020A8390020C00D00203E
:100860003C22124B4243D21810B5114B5B7998428F
:1008700001D31A2010BD136A052B01D0172010BD1B
:10088000D269022A05D0032A06D0002A07D0F72011
:1008900010BD00F06FFA04E000F042FA01E000F051
:1008A00027FA40B200F064FC10BD0000C00D00202B
:1008B0000C010020F8B50C46002101700D465A4984
:1008C000497908E03C22594B6A43D218126A002A3F
:1008D00003D06D1CEDB28D42F4D38D4201D32020A4
:1008E000F8BD0570E069002805D002281FD0032854
:1008F00069D02120F8BD208DC0B203F073FC060042
:1009000075D04B48694600680090304603F017FCEC
:10091000E06A00906946304603F01DFC3C204349E4
:10092000684342184349304603F072FC3FE006F04A
:10093000D5F8060075D0E06A00900F20000703F09C
:10094000DAF90746009907200F40400703F0D3F972
:10095000874205D03849684602F02CFB002806D0B3
:10096000208D364982B2304605F014FF12E030483F
:10097000694600680090208D82B2304605F00AFF7B
:10098000002809D1E06A0090A08C694682B2304606
:1009900005F04EFF002802D000F0EAFBF8BD3C2035
:1009A0002249684342182649304606F0A4F805203B
:1009B000266320626946204801F0F0FF2946204660
:1009C00000F07CF92BE004F011FB060029D0184858
:1009D000694600680090208D82B2304603F064FDC5
:1009E000070005D0304603F0DDFD3846D4E718E0B7
:1009F0003C200E4968434118304603F053FD11492D
:100A0000304604F027F826630520666320622946F5
:100A1000204600F053F96946074801F0BFFF002067
:100A2000F8BD1120F8BD00000C010020C00D002011
:100A3000A8390020AD180000283A00202B6D0000D6
:100A4000291B0000ED0C0000F7B582B004990022CC
:100A50000D680A603C2148435D494618306A052804
:100A600002D0172005B0F0BD002D17D07469B06812
:100A70000090F168401E0918B069A84200D20546EE
:100A8000039800287AD067198F4209D2042D07D91C
:100A90002A462146FFF73EFB3C467FE01A20E1E76D
:100AA0004C48007C800724D50F1B7F1CAF4200D32D
:100AB0002F46042F05D93A4621460398FFF72AFB13
:100AC00004E0BAB22146039800F04AFD0398009C66
:100AD000C019BD4262D9EF1B042F04D93A46214602
:100AE000FFF718FB03E0BAB2214600F039FDE41924
:100AF00054E000203EE0039A23781370039A641CAC
:100B0000521C8C4200D9009C401CA84246D223783B
:100B10001370521C641C8C4200D9009C401CA842DB
:100B20003CD223781370521C641C8C4200D9009C68
:100B3000401CA84232D223781370521C641C8C4291
:100B400000D9009C401CA84228D223781370521C64
:100B5000641C8C4200D9009C401CA8421ED2237801
:100B60001370521C641C03928C4200D9009C401CE0
:100B7000A84213D2A842BED310E0FFE76019884212
:100B800003D2042D01D9044608E0002004E0641CCF
:100B90008C4200D9009C401CA842F8D30498056000
:100BA0007461B069411BB16102D1B068706130619C
:100BB000F069032809D1B289306B511A89B2418595
:100BC000F2688A4201D105F071FA00204AE700007C
:100BD000C00D0020EC3900203C225043034A80180D
:100BE000002901D042690A6080697047C00D002069
:100BF00010B53C230D4C43431B191C6A052C03D034
:100C000000201060172010BDDB69002B05D0022BDF
:100C100006D0032B07D0FA2010BD00F09DFE10BDBA
:100C200000F0DEFF10BD00F0FDFE10BDC00D002085
:100C300000B50E490A6812180A600D4A1178002999
:100C400013D0D188081880B27D210901D080884254
:100C50000BD30020D080FFF7FFFB012805D150788F
:100C600003F030FA5078401C507000BD880100201D
:100C70000C01002070B504780546082913D007DC64
:100C800001290BD002290BD0042916D1042008E039
:100C900010290AD0402910D1402002E0012000E0B4
:100CA0000220044308E00820FBE710200443686B9F
:100CB000002801D003F076FC2C6070BD70B50546AD
:100CC0003C2041430848081804463C21FFF73BFA02
:100CD000002D04D020463C222946FFF71BFAA068CD
:100CE0002061606170BD0000C00D002070470000F1
:100CF0003C21484310B509494418206B002803D013
:100D0000216A052902D006E0172010BD03F084FAFD
:100D1000002020632062002010BD0000C00D0020D4
:100D2000F8B50E463C214843114900254418606B34
:100D30002F46002803D003F035FC05462762206BC0
:100D4000002810D0002E04D0012E06D0022E06D08E
:100D500008E003F027FC054604E0012100E0002143
:100D600003F0C2FA2762284600F002FAF8BD00003C
:100D7000C00D00203C21484310B509494418206BA0
:100D8000002803D0216A052902D006E0172010BDF3
:100D900005F0B4FE002020632062002010BD00009A
:100DA000C00D002070B5FFB081B015460C46064658
:100DB0006A4600F011FC2418204601F05BFF0A345B
:100DC000030001F019F80D18081218181218121261
:100DD0001218181218002078287060786870A078AF
:100DE000A870E078E870241D05E06A462146304688
:100DF00000F0F2FB24187FB0204601B070BD000067
:100E0000F7B5264C0746207886B00E46012813D940
:100E1000234DA868401CA8600A2002F0CDFC21499F
:100E2000A868884208D920A000F0D6FF0020A8605A
:100E30002070022009B0F0BD207801280CD118499B
:100E40007D2235235201891C384600F0A3FF022180
:100E5000217019A000F0C0FF2078022812D10302EF
:100E60001A4A3146002000F021FB059005AA1749D7
:100E70003846FFF7BDFE002807D10320207014A0DC
:100E800000F0AAFF2078042801D00020D2E70F4903
:100E90006846089A02F033FFCCE700007500002096
:100EA00068000020204E0000444E53204661696CCB
:100EB00021212121210A00002032207374617475E0
:100EC00073203D202564210A000000001802002044
:100ED000737461747573203D2033210A0000000093
:100EE00010B5FFB081B00C466A4600F075FB2018C3
:100EF0007FB0001D01B010BD70B53C4957220A708B
:100F0000A8220A70394A403A537BDF2423405373A6
:100F1000D37BFD242340D37300230B703449CB7063
:100F2000CC78DB252C43CC70CD7804242543CD70C0
:100F3000FF250D714E79C0252E434E718E793609ED
:100F400036018E718E7926438E71CC792C43CC710B
:100F5000CC79A406A40ECC710B764C7E01231C43E5
:100F60004C768C7EE406E40E8C768C7E20252C4319
:100F70008C768C7E10252C438C768C7EFB252C4029
:100F80008C768C7E1C438C76C8831A48184B447927
:100F900020331C7204795C72C4789C728478DC7291
:100FA00044781C7300785873508B40231843508347
:100FB0001148114A806B803A80008018806F8881C8
:100FC0000A48803005680D490D4A098812880C4688
:100FD00011430B461D4305604169E443144321401E
:100FE000416181681943816070BD0000401000407C
:100FF00000900040820000203441002008010020C1
:101000000A01002070B51549CA6B002A09D04A6B45
:101010000C469200803C1219956F928F93B2002279
:1010200005E0002070BDAE5C8654521C92B29A421C
:10103000F9D3486B002280002250486B401C486363
:10104000042800D34A630648C1784906490EC17096
:10105000C17880221143C170184670BD3441002010
:101060000090004030B5124A13689B009B18DC6862
:10107000002305E005785B1C2570401C9BB2641CB6
:101080008B42F7D301240B48802303600A48418137
:1010900011688900891889890181C1790822114361
:1010A000C17104488038036004480460002030BDEA
:1010B0007841002080E100E0009000401C01002009
:1010C00010B5FFF7BBF910BDF8B5234C26797006B3
:1010D00003D5FFF759F940202071300704D51F4987
:1010E0000020086008202071F0062ED5012000F0B5
:1010F00001FB1B4D1B4F400710D5012000F0AAF843
:10110000E8681949194A0988128811430843E860B8
:10111000E07904210843E07102200FE0002000F094
:1011200099F8A8681049114A0988128811430843A0
:10113000A860E079FB210840E07101203862F86A7C
:1011400004210843F86210202071B00702D06079B2
:1011500003202071F8BD0000009000401C01002019
:10116000C0100040A8390020080100200A0100201A
:10117000002805D0FF210131081A0249C0B2085CDD
:1011800070470000006D000000B5124A0B0000F02F
:1011900033FE0504071016191F00516B81430AE046
:1011A000516B81435163116B01431163116A814398
:1011B0000DE0516B01435163116B8143F5E7516BB6
:1011C000814301E0516B01435163116A0143116294
:1011D00000BD000080100040054A00211378037014
:1011E000491CC9B2401C521C0629F7D370470000A5
:1011F000080604007CB504466846FFF7EDFF0021B1
:101200006A460520535C451A491CC9B26355062934
:10121000F8D37CBD10B50C480089C1B20B069A0FFB
:101220000A48022A05D0012A04D09A0F06D07D2050
:10123000000210BDC906C90E054801E0C906C90E65
:10124000FEF73EFF10BD0000001000400048E8011E
:1012500000389C1C70B5074C00252070A570E57007
:10126000257105486571A11D0068FEF7A8FF65702E
:1012700070BD00008C4100208801002070B5144929
:1012800005460878002816D00C46881DFEF78DFF0D
:101290007D21281AC90088420CD9A11D2846FEF7D5
:1012A0008EFFE078A17800020843052808D90020C5
:1012B000FFF7D0FF70BD2846891DFEF780FF70BD87
:1012C000401CA070000AE07000F03AFA70BD000007
:1012D0008C41002010B504460020FFF7BBFF0748F3
:1012E000002C07D00121417005480222C16A114338
:1012F000C16210BD0021417010BD00008C41002072
:10130000A839002010B50548FFF7F6FD0449002074
:10131000086004490120086210BD00004F0200006F
:101320001C010020A8390020F8B5324C60680090FC
:101330003148016A01295CD00099A268C069891A04
:101340004008814215D30098A0602D4962782B484F
:101350000988002A08D082680A4205D100226270FA
:1013600082680A43826002E0C2680A43C26005F0F4
:101370006DF90098E168401A2249884203D3009829
:10138000E06001F037FB2048C16800290AD00099CD
:10139000E269891A7D22D200914203D30099E1616A
:1013A00040688047194DFF262868F536002816D07A
:1013B00000982169401AB04205D30098206128693D
:1013C000002800D0804700986169401A104988427F
:1013D00005D3009860616869002800D080470098B4
:1013E000A169401AB04201D90098A0610098FFF7A6
:1013F00045FFF8BD84010020A8390020C01000403E
:101400000A01002088130000CC410020103A00207F
:1014100060EA000001490120C8637047A839002034
:10142000F8B5064600256846057069463046FEF761
:101430005DFF00280BD0684600781349020607D5E7
:101440004006400E3C225043401845630562F8BDFB
:101450003C22424354180D4949798842F7D2E06949
:101460000328F4D1367C20463C21FEF76CFE092E81
:1014700008D00A2E06D040212046FFF7FBFB25634B
:101480002562F8BD1021F7E7C00D00200C010020F7
:1014900010B5054C23636263A1636061E06A0121BA
:1014A0000843E06210BD0000A8390020FFB52B4AB8
:1014B0000D461188FFB082B00346491C89B283985B
:1014C000118002F037FED902FF31013189B202F0FA
:1014D00031FE012102F02EFE002102F02BFE002140
:1014E00002F028FE002102F025FE0446294601A84C
:1014F000FEF752FE01AE3046FEF747FE80B2009086
:101500002E213046FEF737FE070002D0B81B85B209
:1015100000E0009D2570641C002D12D02A46314643
:101520002046FEF71BFE6419002F07D0009876199D
:10153000401B401E80B2761C0090E1E70020207026
:10154000641C0121204602F0F5FD012102F0F2FDAC
:1015500083997FB0401A80B206B0F0BD68000020C9
:1015600003E00B780370401C491C1346521E92B2D4
:10157000002BF6D170470000F0B51C220C46144039
:10158000144A57268D07134BA827AD0F403A002861
:101590001E701F7010D0080603D5D07BFD210840B7
:1015A000D073907A204390720A482038C17B294337
:1015B000C17300201870F0BD080603D5D07B02214E
:1015C0000843D073907AA043907202482038C17BC0
:1015D000A943EDE740100040F0B5844600200446E2
:1015E00005462E270B78491C002C00D1401C1E06F6
:1015F000B60F032E0AD1002C00D1401C9B0609789F
:101600009B0C6344C91801240B78491C002B10D093
:10161000002C05D1C01803E00E781670491C521C2E
:101620001E465B1E9BB2002EF6D11770521C6D1C1D
:10163000D8E7002D01D11770521C00211170F0BDA8
:10164000F8B50D4E57270C4C0025A821203E002848
:1016500027700ED0A8202070012070713071257085
:1016600002F0B8F82770A82020700D203071257086
:10167000F8BD21703571FAE74010004010B5124CEA
:10168000206C00281CD111A000F0A6FBA06B8100EB
:10169000204680384158002901D0002010BDA26B9F
:1016A000012192008150A06B0C4A128850430C4AD1
:1016B00082180C488281C27904231A43C2712164C2
:1016C000206CC0B210BD0000344100205175617221
:1016D000794574685278446D610D0A00EC39002038
:1016E000600400200090004001480079704700002D
:1016F0000C010020C006C00E2021084301490871DA
:101700000888704720900040F8B50C4E0025B46959
:1017100011E02046FFF784FE204603F00FFFE0684B
:10172000002D01D0E86000E0B06121460220E768AA
:1017300002F0FCF93C46002CEBD1F8BD2C01002056
:1017400038B5064C0020616800916060694620460B
:1017500001F024F90098606038BD0000283A0020AC
:10176000F0B52B4D2A4904275722A824284E203DA6
:101770002031030000F040FB0D080E161B1F24282B
:101780002C32373C41462F000A700C70F07BFB2254
:10179000104003E00A700C70F07B3843F073C820EF
:1017A000288118E00A700C705120C000F8E70A7018
:1017B0000C701848F4E70A700C7081208000EFE785
:1017C0000A700C708820EBE70A700C700220E7E7C3
:1017D0000A700C702F8100200870F0BD0A700C7028
:1017E00093208000DCE70A700C700A484D30D7E780
:1017F0000A700C7095208000D2E70A700C704B20A4
:10180000C000CDE70A700C7002485C30C8E70000E9
:10181000201000400202000030B587B000251D4CAA
:10182000039504951A48059520620C386062001DE6
:10183000A062001DE06201F093FF042203A8616A28
:10184000FEF768FC042204A8E16AFEF763FC0422A8
:1018500005A8A16AFEF75EFC06220F48216AFEF782
:1018600059FC0E4805600E4805600B482B3802F005
:10187000E3F90C4802900C490748019105AB04AA12
:10188000009503A92B3802F09FF907B030BD000086
:10189000B439002084010020533A002024010020A4
:1018A000280100203D2A0000A12A0000FFB504699C
:1018B0000546C168601E81B00F1803980026406875
:1018C000417802780802104302F017FA0005000F71
:1018D00080004142039802F092FB002802D00020D1
:1018E00005B0F0BD0398002834D0002C0CD0E86877
:1018F000002809D0039842894168931912199EB2B1
:10190000BA4212D900220CE0039802F056FB21E003
:101910000B782370491C641CBC4200D9AC68521C73
:1019200092B243899342F3D80AE0002205E00B7893
:10193000521C2370491C92B2641C43899342F6D80E
:1019400000680028D7D1039802F037FBA8692C6102
:101950008019A8610120C3E7F7B53C2148432F490E
:101960000025146884B04018156016460290002CBB
:1019700014D00598002811D00298006B03902848D5
:10198000006C800700D4C7256D1CADB2C82D40D8AF
:10199000B920C000844204D9009004E01A2007B0A6
:1019A000F0BD2046009481B20022104602F00CFAED
:1019B000070030D07868009A0599FEF7ABFB18490C
:1019C0000020C8633946039802F040FC0190384675
:1019D00002F0F3FA1248C06B002802D101980028E7
:1019E0000DDA0020306040210298FFF743F901989A
:1019F000002802DAFFF7BCFBD1E7FA20CFE7316815
:101A00000098081830600099059840180590641AED
:101A1000BAD10020C3E71120C1E70000C00D0020AB
:101A2000A8390020F7B50025146882B017462E4665
:101A30001560002C15D00399002912D03C21484391
:101A400037494018006B01903648006C800700D47D
:101A5000C726761CB6B2C82E06D93868002850D1E1
:101A600056E01A2005B0F0BD0198007C042801D092
:101A70001720F7E72B48006C800701D5FEF7BCFE66
:101A800001984030C08D0090002807D0254D443586
:101A9000287CC00704D10098844201D91120E1E7D5
:101AA0000098844200D8009468680099884200D267
:101AB0000090019803F030FB1A484430007CC007C6
:101AC000009802D082B2012301E082B20023039980
:101AD000019804F0E7FD050005D0681C01981BD0B3
:101AE00003F01AFB14E0019803F016FB0546396871
:101AF0000098081838600099039840180390641AF9
:101B000001D10020AEE707484430007CC007A0D1D7
:101B10002846FFF72DFBA5E703F0FEFAF3E70000E8
:101B2000C00D0020A8390020FFB505460469C06833
:101B3000611E4718A96B002681B09446002902D087
:101B4000AC68611E4718110006D0002C01D0002897
:101B500004D1084602F031FA05B0F0BD4B8948685F
:101B60009A1996B21A19BA420ED9002308E00278DF
:101B70002270401C641CBC4200D9AC685B1C9BB248
:101B80004A899A42F3D80AE0002305E002785B1CF8
:101B90002270401C9BB2641C4A899A42F6D809689C
:101BA0000029DBD101200003864200D906466046A9
:101BB00002F003FAAF6B002F0DD00498FEF7F5FA90
:101BC00000960146AB6828460A9AB8470020A861EB
:101BD000A8682861C0E7A8692C618019A861BBE7E3
:101BE000F7B50025146884B016461560002C17D090
:101BF0000599002914D03C21484327494018006B1F
:101C000002902648006C800700D4C7256D1CADB239
:101C1000C82D3CD817208001844204D3009004E0F2
:101C20001A2007B0F0BD2046009481B20022104671
:101C300002F0CAF807002CD07868009A0599FEF7E0
:101C400069FA16490020C8633946029804F070FF0B
:101C50000190384602F0B1F91048C06B002802D15B
:101C60000198002809DA002030600198002802DA83
:101C7000FFF77EFAD5E7FA20D3E731680098081815
:101C800030600099059840180590641ABED1002074
:101C9000C7E71120C5E70000C00D0020A8390020CB
:101CA00010B510210120FFF767FC032001F084FD2F
:101CB0000220FFF755FD05498A6A481502438A62EA
:101CC0000321FFF761FA00F053F810BD80100040C7
:101CD00010B50B4857210170A8210170084A8821CE
:101CE000403A1181018904221143018100210170D0
:101CF0000A2001F06FFD0120FFF7A2FC10BD0000DB
:101D00004010004010B50A20FEF792FF024881798A
:101D1000FF221143817110BD0020004008490222BA
:101D20000A7000220A704001C86088798871012019
:101D300088700A7804231A430A70024908607047C1
:101D40000020004000E100E010B50446FFF762FA11
:101D50000A214843C0082146FEF7B2F90A21401D76
:101D6000FEF7AEF90149888110BD00000034004043
:101D700010B5E1204002FFF7E7FF05488721817099
:101D80000321C170402141700121817310BD000009
:101D9000003400407FB590B00E461C4615463C21ED
:101DA0006846FEF7D0F9042231460BA8FEF7B2F9D7
:101DB00002200790074802904320C00003900A9534
:101DC0000994694610A8FEF775FD01F013FD14B0E3
:101DD00070BD0000783500200FB410B503A9044B86
:101DE000044A029800F024F810BC08BC04B018475C
:101DF000652C00001402002030B47446641E25785F
:101E0000641CAB4200D21D46635D5B00E31830BC2E
:101E1000184702E008C8121F08C1002AFAD170470B
:101E20007047002001E001C1121F002AFBD170475A
:101E3000FFB591B00F460546002606E025280AD0DA
:101E4000149A139990476D1C761C28780028F5D1B8
:101E5000304615B0F0BD002400940121F34A0294ED
:101E600000E004436D1C2B780846203B984010424C
:101E7000F7D128782A280ED0022128780246303A55
:101E8000092A15D8009A0A235A43303A80180C437D
:101E90006D1C0090F1E701CF0090002805DA0120C9
:101EA00040030443009840420090022004436D1C0C
:101EB00028782E2815D10420044368786D1C2A2820
:101EC0000AD101CF6D1C02900BE002990A22514306
:101ED000303940186D1C02902878014630390929A4
:101EE000F3D928786C2810D006DC4C281AD0682842
:101EF0000ED06A2817D104E0742813D07A2812D1A2
:101F000010E00120400504430CE00121090501E037
:101F1000032109050C436978814203D101200005A2
:101F200024186D1C6D1C287803906E281ED00CDCC4
:101F3000632831D004DC00288AD0582811D1B2E0BF
:101F400064287BD069280CD178E073282DD004DC7C
:101F50006F2870D0702804D1A7E075286CD078283D
:101F60006BD0149A13999047761C62E06002400F80
:101F7000022807D003280AD0042838680AD006604F
:101F80003F1D56E03868F11706604160F8E7386891
:101F90000680F5E70670F3E7387869460874002094
:101FA000487404A80390012003E0386803900020DF
:101FB000C0433F1D61070FD5002101E00199491C75
:101FC000029A0191914213DA8142F7DB019A039957
:101FD000895C0029F2D10BE0002101E00199491C44
:101FE00001918142FADB019A0399895C0029F5D1BC
:101FF00001990098139A401A00902146149B00F012
:102000003BF901998019461807E003980399007875
:10201000491C0391149A139990470198401E01900E
:10202000401CF2D12146149B139A009800F014F939
:1020300086196D1C09E741E033E034E00A200021F5
:10204000049005916002410F022905D001CFC2170B
:102050009446032905D007E0FF1DFF08FF0003CFCA
:1020600006E000B2C2179446042902D140B2C1175B
:102070008C4600226146944506DA0A460021404219
:1020800091418C462D2102E0210504D52B216A4681
:102090001176012103E0E10701D02021F7E701914A
:1020A00054E00A200BE0102009E0102004900021E9
:1020B0000420044308200591029003E00820002139
:1020C000059104906002410F022905D001CF002242
:1020D0009446032906D006E0FF1DFF08FF0003CF4A
:1020E0008C4603E080B2042900D1C0B200210191E6
:1020F00021072BD50399702906D0049A1021059B3E
:102100004A401A4305D00EE040216A46117601216B
:1021100008E06146014306D030216A4611760399F2
:10212000517602210191049A0821059B4A401A43E5
:102130000CD16146014301D1610707D530216A46C0
:102140001176012101910299491E029103995829A2
:1021500004D037A103910FA90F910DE039A1F9E740
:102160006146059B049AFEF733F8039B8C469B5C03
:102170000F9A521E0F92137061460143F0D10F98CF
:1021800007A9081A20300390600704D50120000435
:102190008443029801E0012002900399884201DD06
:1021A000401A00E000204118029001980918009898
:1021B000401A0090E00306D42146149B139A00981D
:1021C00000F05AF886190020049008E006A9085C7F
:1021D000149A139990470498401C761C0490019916
:1021E0008842F3DBE0030CD52146149B139A009838
:1021F00000F042F8861904E0149A302013999047B1
:10220000761C0299481E02900029F5DC08E00F9820
:102210000F990078491C0F91149A13999047761CD6
:102220000399481E03900029F1DCFBE60928010010
:10223000303132333435363738396162636465663C
:1022400000000000303132333435363738394142FE
:102250004344454600000000F8B5044600251E46EC
:102260001746880404D405E039462020B0476D1C89
:10227000641EF9D52846F8BDFFB50446002581B097
:102280001E46C80301D5302700E02027880404D566
:1022900005E038460399B0476D1C641EF9D5284601
:1022A00005B0F0BD70B504000ED0256A002D0BD02E
:1022B000A87C082808D10846FDF777FFA96A88425C
:1022C00002D1204600F09CF870BD0000F8B5050072
:1022D00010D02C6A002C10D00022FF21353110467E
:1022E00001F072FD606100280AD0E27C4249002AB8
:1022F00009D00BE00920C043F8BD0820C043F8BD59
:102300000020C043F8BD4A68521C4A6049682160F9
:1023100041680120A1610870A16900264870A16987
:1023200006208870A069C670206800F0A9FCA16929
:10233000091DFDF744FFA069310A06724172A069C8
:10234000310A8672C172A16900200C31FDF737FF96
:10235000A07C0A2803D0052801D0042804D1A16953
:1023600068680C31FDF72BFFA16900201031FDF7E3
:1023700026FFA16900201431FDF721FFA16900208B
:102380001831FDF71CFF0020294620318A7A82424D
:1023900003D92A182032D27A00E0002207461C37DF
:1023A000A369401C80B2DA551028EFD30020014603
:1023B0002C31A269401C80B256544028F7D300202B
:1023C00001466C31A269401C80B256548028F7D374
:1023D0000A4800F055FCA169EC31FDF7F0FEA68338
:1023E00000200146A269F0315054401C80B24428BC
:1023F000F7D30020F8BD00000C0200206353826375
:10240000F8B50546046A002000900C21204600F033
:10241000EFF82846FFF75AFF060046D10122352182
:10242000204600F05AF80421204600F066F8042205
:102430003221204600F051F8A06A01F05CFC014610
:10244000204600F062F804223621204600F045F8CC
:10245000606A01F050FC0146204600F056F8072261
:102460003D21204600F039F829462B31204600F066
:102470006DF8204600F0A4F8A08BF03081B26069BE
:1024800001F0F0FDA169A06A0C31FDF798FE6F68BC
:102490000098686000954323074A6169606804F00A
:1024A00062FB28466F6000F009F8E07C401CE07495
:1024B0000420E0833046F8BD2F6D000010B50028E1
:1024C0000AD0046A002C07D06069002801D001F00E
:1024D00074FD00206061A06110BD10B5838B84691C
:1024E000E4185B1C8383E0342174818B83695B185F
:1024F000491C8183E0331A7410BD828B83699B1859
:10250000521C8283E0331974704710B5828B836943
:102510000C0E9B18521C8283E0331C74828B8469DE
:102520000B0CA418521C8283E0342374828B8469C0
:102530000B0AA418521C8283E0342374828B8369B3
:102540009B18521C8283E033197410BD10B5828B26
:10255000836901249B18521C8283E0331C74828B94
:1025600083690C789B18521C8283E0331C74828B25
:1025700083694C789B18521C8283E0331C74828BD5
:1025800083698C789B18521C8283E0331C74828B85
:102590008369CC789B18521C8283E0331C74828B35
:1025A00083690C799B18521C8283E0331C744B792D
:1025B000818B82695218491C8183E032137410BDEB
:1025C000002814D0818B8269FF235218491C818313
:1025D000E0321374002305E082695218491C81839C
:1025E000E0321374818B4429F6D38A07F4D1704703
:1025F000827C8A4202D081740021C174704700003D
:10260000F7B584B006007DD0069840892B287AD390
:102610000698456801202C460F3400F033FB6178A2
:1026200022780902114388427CD1414800F02AFBFC
:1026300001466079227900021043814272D1012063
:10264000C00200F01FFB0146E078A27800021043B0
:10265000814267D1374800F015FBAA7B6B7B1102E2
:10266000194388425ED121460E31042202A800910E
:10267000FDF750FD21461831042203A80191FDF712
:1026800049FD7068002805D00399814202D10127D5
:102690003B4601E000273B462246083202A930466D
:1026A00004F0D6FAE079A1790002084300F0EAFAD2
:1026B000012802D0022835D126E0002F32D0022096
:1026C00000F0E0FAA071000AE0710422009901987C
:1026D000FDF720FD0422311D0098FDF71BFD0621AA
:1026E000491EC9B26018027A82746B185A70059A32
:1026F0000029525C02720598405CD871F0D1B26931
:1027000006990DE011E00DE002A93046FFF7CAFD81
:1027100009480168002905D0C268002A02D002A930
:1027200030469047069801F048FC07B0F0BD000025
:102730000406000006080000103A002070B50500ED
:1027400011D04C6820461B300646FDF72EFDA968C7
:102750006A6808400A40904205D10023E21D3146D4
:10276000284604F075FA70BDFEB50E4604461546BF
:102770000F21304601F043FC002802D00120C04365
:10278000FEBD2146284600F015FC002801D0284B4C
:102790002FE02846FDF709FD07460F20000701F04E
:1027A000AAFA07400720400701F0A5FA874227D17F
:1027B000012168460170002141705E218170284628
:1027C000FDF7F3FC01F097FA4002410E6846C17034
:1027D0002846FDF7EAFC01F08EFA010A684601710D
:1027E0002846FDF7E2FC01F086FA01466846417191
:1027F0006B4622462B323146204600F0E1F8FEBD02
:102800002846FDF7D2FCA168626808400A40904261
:1028100004D0E068002807D025460C35324629460A
:10282000204600F007F8FEBD0320C043FEBD0000B7
:10283000336D0000F7B586B006980D462B3000903A
:102840000020C043019014462846069900F0B2FBD0
:10285000002827D12846FDF7A8FC06460F200007D0
:1028600001F049FA06400720400701F044FA864289
:1028700018D0002D16D02846FDF797FC002811D05F
:102880000121284600F066F900280DDB144E0701EF
:1028900070683918887A002808D0012808D0002CE0
:1028A00006D00EE00920C04309B0F0BD01208872B7
:1028B000FEF7B0FD2946069800F070F80190002C54
:1028C0000BD070683B18987A022806D121461B1D50
:1028D000009A069800F074F801900198E4E700006F
:1028E0007C010020FFB581B01F4600222B21032070
:1028F00001F06AFA06004AD075680D982C460F342C
:1029000000F0C0F9A071000AE0710620401EC0B2BC
:102910003A5C21180A720B9A125C8A7403990A5C59
:1029200029184A70029A0028125CCA71EED120461A
:1029300004220E300A99FDF7EDFB204604221830E0
:102940000C99FDF7E7FB012000F09CF92070000ACC
:1029500060700120C00200F095F9A070000AE070DC
:102960000C4800F08FF92071000A60710A4800F0ED
:1029700089F96873000AA873019831468269904703
:102980000446304601F019FB204605B0F0BD00209A
:10299000C043FAE704060000060800001FB5012343
:1029A0000393064C021D0346009202912B330194BF
:1029B0001946A21FFFF796FF04B010BD396D000045
:1029C000F8B54D680E4607460624641EE4B2281981
:1029D000195D4170115DC171002CF6D10120C0025A
:1029E00000F050F96873000AA873BA693146384696
:1029F0009047F8BD30B50F4900200F4C4B6814E0EC
:102A00000101C918CA7A521CD2B2CA728D7A022D3B
:102A100002D0012D03D006E0F02A02D203E0022A00
:102A200001D300228A72401CC0B2E1688142E7D81B
:102A300030BD00007C010020EC39002070B5044658
:102A400040680D46817B427B0802104300F01AF972
:102A50000121C902401A04D0062816D00F49C842E5
:102A60000AD121462846FFF769FE0E21C9432046B8
:102A700001F0C5FA002803D0204601F09EFA0AE0D2
:102A80002946204600F060FB05E0294622462B310E
:102A90002846FFF7B5FD002070BD00004F66FFFF20
:102AA00010B5FFB081B0044668460B496062FDF77F
:102AB00073FB204665212030E56181746E21C1746D
:102AC000064860610648A061204600F02DFD7FB0F9
:102AD000002001B010BD00008040002069270000E8
:102AE000BD36000070B505461648C16B002927D0D9
:102AF000154A5178491C5170144A80211160C06BED
:102B0000134A0006000E11601AD0284600F06AFD34
:102B1000040015D06068817B427B0802104300F0FE
:102B2000B1F80121C902401A01D0062805D12A694D
:102B3000294620469047002802D0204601F03DFA61
:102B400070BD0000344100208401002080E100E0DD
:102B500000E100E0F3B5414887B0C76800247DB2CA
:102B600002943F4901950394009507984E68002808
:102B70004DD0084600780590000104908019807AB5
:102B8000022844D10798FDF710FB04997158884238
:102B90003DD1059840B209B0F0BDAF4204D120014B
:102BA0008019807A002809D02001059080190490AE
:102BB000807A012804D0022816D026E065B224E0ED
:102BC0000798002807D0FDF7F0FA05997158884258
:102BD00001D123483FE004980399C07A884214D376
:102BE00061B20191039010E00798002805D0FDF72D
:102BF000DCFA059971588842EBD004980299C07AA2
:102C0000884202D361B200910290641CE4B2A742F0
:102C1000C3D80020C043AF4202D10899C907BAD037
:102C200008998907B7D4AF4201D9ECB206E0009900
:102C30008F4202D801998F42ADD9CCB22701002032
:102C4000BD19A8720798002802D0FDF7AEFAF0511E
:102C500000210348E972047060B29CE7EC3900205F
:102C60007C0100200249CA7A082AFCD00872704709
:102C700000340040017840780902401880B2704763
:102C800000BA704740BA704710B50A46032100F0F9
:102C9000FBF810BDF3B54568044668782978000252
:102CA00089B0084301F029F80005000F8000414277
:102CB00007900091204601F0A2F9002824D1208934
:102CC000042821D366683078032802D00828F5D17B
:102CD0001BE0707C327C0002104331460831377AA9
:102CE000000A0D4601900422103103A8FDF712FAE4
:102CF0003807800E28188178C0780902014373785C
:102D0000019A0398FEF7C4FBB6E02846103001266E
:102D10000490FDF74AFA07460F20000700F0EBFF8A
:102D200007400720400700F0E6FF874200D1002659
:102D30000A99049800F03EF9002802D0FEF7D4FC6E
:102D40009AE0FEF7D1FC00287ED0002E7CD02089AE
:102D5000082879D3204600F0D2F8002874D1222127
:102D6000204601F04CF900281DD02046079901F0BB
:102D700046F9002868D121890022022001F024F8B8
:102D8000060079D0214601F0CEF8002874D175688C
:102D90003046009901F033F900286DD1204601F04A
:102DA0000CF9344606E02121C943204601F027F9F9
:102DB000002861D128460C30666806900490FDF723
:102DC000F4F907460390284610300090FDF7EDF91E
:102DD0000499FDF7F4F938460099FDF7F0F900275A
:102DE00037702848FFF74EFF0146F078B2780002AE
:102DF00010430122D2028142104607D8FFF742FF5A
:102E0000F178B27809021143401C05E0FFF73AFF60
:102E1000F178B278090211434018B070000AF070DE
:102E2000687A297A0002084300F067FF0121C0B2E6
:102E3000C9034018FFF726FF2872000A6872380A93
:102E4000AF72E872142100E016E0284600F051F855
:102E5000A872000AE8722046079901F0D0F800280D
:102E60000AD10A9801210191029080230022009743
:102E70002046069900F0A8FA204601F09EF80BB013
:102E8000F0BD0000FFF70000F7B50E4682B000224B
:102E90002421012000F098FF050028D002986C68DA
:102EA0004768267004986070002626716671A671C6
:102EB000E67102981C22416868680830FDF72AF91B
:102EC000A670300AE0706989204600F012F8A07000
:102ED000000AE07001203A46019080230C32002164
:102EE0000096284600F056FA284601F066F805B02C
:102EF000F0BD10B500F042FCC04380B210BDF8B583
:102F000000252E46044601270FE06189606800F025
:102F100035FC4019010C80B20D18A07AC00703D00F
:102F2000B81BC6B268BA85B22468002CEDD1002E59
:102F300001D068BA85B2E84380B2F8BDFFB500257C
:102F400081B02E46044601270FE06189606800F0D9
:102F500015FC4019010C80B20D18A07AC00703D0EF
:102F6000B81BC6B268BA85B22468002CEDD1002E19
:102F700001D068BA85B20298FDF717F981B24919F4
:102F8000000C44180398FDF710F981B20919000CE0
:102F900044180498FFF776FE04190A98FFF772FEAA
:102FA0000019010C80B20818010C0818C04380B247
:102FB00005B0F0BD10B50C46FDF7F7F80246411C10
:102FC00013D0002A11D03121095D89070BD5616822
:102FD000914208D0A0681346034001408B4202D1C1
:102FE0001043401C01D0002010BD012010BDF7B5DA
:102FF0008EB004460F981426008D009060680790EC
:10300000C179827908020025104300F076FEC104E0
:10301000C90C05910121490308400A902089143800
:1030200087B200981438C117490F08900818400358
:10303000000C09907FE00898874201DC012000E045
:10304000002005990A9AC904C90C11430B91002864
:103050001AD0384680B2069000221421022000F0D7
:10306000B3FE0490002817D0406814220799FDF79A
:1030700051F8049840680C9060688019606060891D
:10308000801B6081069E26E0084601214903084313
:103090000B900998C000DDE70020C04311B0F0BDDF
:1030A0006589B54200D93546002D13D00222002192
:1030B000032000F089FE010042D0606848600D8165
:1030C0004D81049800F00AFF701B0604360C04D0F2
:1030D0002468E5E72468002EE2D12E460B98FFF71E
:1030E000D1FD0C998871000AC8710698143080B21D
:1030F000FFF7C8FD01460C988170090AC1700C9851
:1031000000218172C17214210C98FFF7F2FE0C9914
:103110008872000AC8720F98109A436904999847F8
:10312000049800F04AFF06980999381A87B2059862
:10313000401880B20590002F00D07CE70020ADE75A
:10314000049800F03AFFA7E7F3B585B0012003909B
:1031500005980E464568687829780002084300F013
:10316000CCFD000B042803D0059800F026FF06E1F3
:10317000687829780002084300F0BFFD0005000FC1
:1031800080000090E878A9780002084300F0B5FDBF
:1031900004460598418900988142E5D30598008945
:1031A000A042E1D328460099FFF7A3FE0028DBD117
:1031B0002146059800F056FF012002900F2034466A
:1031C000000700F098FD0720400700F094FD20461E
:1031D00000F01EFD002820D0201D1ED06768002FA3
:1031E0001BD0284610300190FCF7DFFFB84223D0F7
:1031F00021460198FFF7DEFE00281DD10198FCF75B
:10320000D4FF07460F20000700F075FD0740072098
:10321000400700F070FD87420ED00298002804D0CD
:10322000002002905748046800E02468B44200D1AE
:103230002468002CCBD101E0002C2DD1687A297AAA
:103240000002084300F059FDC0B211280ED10098C9
:103250002918C87889780002084300F04EFD4428F8
:1032600004D1002034460390002E15D1687A297AC3
:103270000002084300F041FDC0B211280CD10098B3
:103280002918C87889780002084300F036FD3E49C5
:10329000884201D134461FE0039800281CD02846FC
:1032A0000C300746FCF781FF002815D03146384620
:1032B000FFF780FE002800D056E73846FCF775FF80
:1032C00007460F20000700F016FD074007204007C3
:1032D00000F011FD8742EFD0002CEDD02B48FFF716
:1032E000D1FCE979AA79090211430842E4D1284CBA
:1032F00031466660A560059800F03AFF00283BD192
:10330000687A297A0002084300F0F7FCC0B201286D
:1033100015D006280ED01128314607D02846103087
:103320000646FFF747FE00280ED022E0059803F07E
:10333000C3FA21E03146059801F0C4FB1CE0314698
:103340000598FFF7A7FC17E03046FCF72EFF06466E
:103350000F20000700F0CFFC06400720400700F0D8
:10336000CAFC864205D00598022145600598FFF702
:103370008BFC059800F021FE00206060A06000201A
:1033800007B0F0BD240100206C070000FF3F0000E3
:1033900000020020FFB583B01F46164610460C9D64
:1033A0000D9C00F097F800280AD002903B46324668
:1033B000009501940499039800F006F807B0F0BD59
:1033C0000320C043FAE70000FFB581B0064603982A
:1033D0000C9D1F46002865D0142001460090304601
:1033E00000F00DFE002803D00120C04305B0F0BD61
:1033F0007468607A217A0002084300F07EFCC0B253
:1034000039020843FFF73EFC2072010A617200F0A6
:1034100074FC000A0B9900020843FFF733FC20728A
:10342000000A60720398FCF7C0FE21461031FCF7D9
:10343000C6FE05200A9900020843012189030843BA
:1034400080B2FFF71FFC2070000A60703089FFF720
:1034500019FCA070000AE0700020A0711C4FE07100
:103460003888FFF70FFC2071000A60713888401C13
:1034700038800298002803D0FCF797FE002802D17C
:10348000281D00D0686821460C31FCF798FE00200A
:10349000A072E07220460099FFF72BFDA072000A8F
:1034A000E07202E0706810300390288D002808D088
:1034B0003189814205D929463046039AFFF797FDA5
:1034C00094E76B6931462846039A98478EE70000D7
:1034D0000002002070B505461148046811E020463E
:1034E00000F096FB00280BD02846FCF75EFE014654
:1034F000A068626801400240914201D1204670BD3F
:103500002468002CEBD1074C2068002805D000F07F
:103510007FFB002801D0206870BD002070BD000036
:103520002401002028010020F8B504462546062085
:1035300020352249A8720A6A00202618135C20361A
:10354000401CC0B2F3720628F7D31E4F1C480F630D
:1035500088633846203848631B48C8631B490026E7
:103560000E601B4A3046127804E083005B185E60F0
:10357000401CC0B29042F8D3002004E083005B18E6
:10358000DF60401CC0B29042F8D31048C421C43858
:10359000FCF7D9FD0D480121443801640D4921850E
:1035A00033216974806B0C490988484304494018E9
:1035B0000A4988810A480660F8BD0000840100209D
:1035C00060040020803A0020200400207841002080
:1035D0000F010020DC050000EC39002000900040C5
:1035E0001C010020F8B50027304880213D460160CD
:1035F0002F4C606B621A80008018C06B636B80B2C6
:103600009B009B189B6F636B9B00D258D2B20092B9
:10361000264A803A1160009A022A19D1002817D050
:10362000401C81B20322104600F0CEFB05003AD0C8
:10363000791E00F0E4FC2E467F1CFFB2052F01D955
:103640000020F8BD7068FDF7DDFC3668002EF3D170
:10365000164880210160E26B00231648002A02D040
:10366000009A022A0FD00278134E521CD2B2027076
:103670003678B2420ED30370E06B401EE063E06B1D
:10368000002805D006E00370E06B401EE06301E017
:10369000A06B6063054880380160002D03D00121D4
:1036A000284600F0ACFC2846F8BD000080E100E0B0
:1036B00034410020840100200E010020F3B50025D4
:1036C00081B02C46691E029800F099FC20481E4FDC
:1036D000016A1E4A1F4804E0641C944206D801296E
:1036E00004D00368002BF7D1029C0EE0002101609A
:1036F0000B20C043FEBD66896168A81985B23246B9
:103700003846FCF707FD2468BF19002CF3D1124A94
:103710000D48136801219B009B1859601168491CD2
:10372000116011680D4B1B78994201D30021116083
:103730003C2D00D23C252946FDF794FC012102983E
:1037400000F05DFC0020FEBD803A0020FFFF00007D
:10375000A83900201C010020784100200F01002022
:1037600010B500F0F5F800F0EBF903488068002888
:1037700000D0804710BD0000CC41002010B50022D1
:1037800007E00378891E1C02437889B22343D218CC
:10379000801C0129F5D8002902D0007800021218F7
:1037A000100C91B24018010C02D0010C80B2081824
:1037B00080B2FFF767FA10BD70B500247D2605467C
:1037C000F60004E0304600F005F8641CA4B2AC42F8
:1037D000F8D370BD002109E0012200BF00BF1346ED
:1037E000521E92B2002BF8D1491C89B28142F3D308
:1037F0007047000010B5002803D0014601A0FEF775
:10380000EBFA10BD6D53746F7049664572726F723A
:103810003A20253032580D0A000000001CB5002463
:10382000FEF73EFA2248FDF7E5FC214B1A1F111F57
:10383000081FFCF7B1FFFFF7DDFF1EA0FEF7CCFA73
:103840002348FEF76BFA234980200860224D02E0EE
:103850003220FFF7B1FF286A0228F9D31FA0FEF734
:10386000BBFA134D0E3DFCF7C7FFFCF7DBFF00284A
:1038700001D0FCF70BFE002CF5D10D4901AA891DE2
:103880002878FDF7BDFA0028EDD001240128EAD1FF
:10389000074919A0891DFEF79FFA6846C079009074
:1038A000684683794279017918A0FEF795FADAE73C
:1038B0008200002043483537784E45544C696249B0
:1038C0006E697420537563636573730D0A0000009D
:1038D0001027000000E100E0A839002043483537F8
:1038E0003920444E5320636C69656E7420637265A1
:1038F000617465A3A10D0A00446F6D61696E206E4D
:10390000616D653A2573200A000000002048545478
:1039100050735F49503D25642E25642E25642E2565
:10392000640A0A0010B500280FD008494A6890427E
:103930000BD38A68904208D2002208380271CA6804
:10394000904200D2C86000F0CBFB10BDC80100203F
:1039500030B51049104A0868104CC01C800880001F
:10396000486013890125DB1C23400380002343802A
:1039700003719368DB1C9B089B001B188B601D71F7
:103980001589ED1C25401D801289D21C22405A80C9
:10399000C86030BDC8010020EC390020FCFF0000E9
:1039A000F0B500284AD02849C31C0B400C2B00D28C
:1039B0000C23264CA068C01C8508AD009D4241D355
:1039C0002348C6684268B11A89B2EC1A38E0501828
:1039D0000579002D33D105886D1A083D9D422ED3FF
:1039E00004881F46641A14370125083CBC4215D3CD
:1039F000CB1808339CB2131900271F7107881F804A
:103A00005980048005711988104B9B68DB1C9B084A
:103A10009B00994203D0931CCC5200E005710C49E5
:103A2000B0420AD18C68CB681D79002D05D0A34225
:103A300003D01B889B18CB60F6E70830F0BD515AC5
:103A40008C42C4D80020F0BDFCFF0000EC390020FF
:103A5000C8010020F8B5324AC91C11400C2900D217
:103A60000C21304A9268D21C920892008A4210D3EC
:103A70002D4B5C68A0420DD39A6890420AD2024650
:103A8000083A131B15889BB2EE1A083EB6B2B14233
:103A900001D90020F8BDB142FCD02D19AC462F79D8
:103AA000214DED68AE46204D6D68AD1C002F1BD03A
:103AB0000F461437B742EDD8591808318EB21A4F55
:103AC000A119714500D2F96000240C7114880C8092
:103AD0004B801680134A09889268D21C9208920083
:103AE0009142D7D04E53F8BD5918664608313688F2
:103AF00089B20096E64502D10B4E6718F76064184C
:103B000000262671009E26806380064B11809B68EC
:103B10002288DB1C9B089B009A42E4D05153F8BDDD
:103B2000FCFF0000EC390020C8010020002904D06F
:103B30008200024883580B608150704798410020F2
:103B4000F0B50020401C80B20828FBD30E490F4A74
:103B50008868C01C8408A4000020002386009351BC
:103B6000450007E09759276094510F687F5B3C1927
:103B70005B1C9BB24F687F5B9F42F3D8401C80B2B6
:103B80000828EAD3F0BD0000D801002098410020A9
:103B9000082801D300207047034982008858002874
:103BA000F9D003688B507047984100200EB5054846
:103BB000009040100190052002906846FCF724FC1C
:103BC0000EBD0000204E0000F8B504460025089FF9
:103BD00006986560A56026462036E5607574256206
:103BE0000A4DE06128783075401C28702046276116
:103BF00000F013F8079920468847002801D00020DC
:103C0000F8BD6868206020466C60F8BD2001002087
:103C10002030407CC007C00F704770B51D46164667
:103C2000044600F01BF83146204600F059F82946BA
:103C3000204600F007F870BD014988607047000019
:103C40002001002010B50446002904D00846FCF7E6
:103C5000ACFAE06010BD0020FBE70000F8B50546B7
:103C60000F4600260846FCF7A0FA6968884228D06B
:103C7000194800680FE001686A6891420AD1012181
:103C8000C46800F031FB3146761C2046F6B2642948
:103C900001D902E0C0680028EDD1104804680EE0A8
:103CA000002C0BD02068002808D06968884205D114
:103CB000002F0DD03846FCF778FA2060E468002C1D
:103CC000EED1002F06D03846FCF76FFA6860F8BDD9
:103CD0000020F2E70020F9E7400100203C0100202D
:103CE00010B50446002904D00846FCF75EFAA0602F
:103CF00010BD0020FBE700BA704740BA7047F0B52E
:103D0000044600202080608016460D460846FEF7D7
:103D1000B1FF2080A81CFEF7ADFF02040121002A9C
:103D200000DAA1704204120FE270420500D5217141
:103D3000820500D56171C20500D5A171020600D5CA
:103D4000E1710007000F2072281DFEF793FF6081CC
:103D5000A81DFEF78FFFA08128460830FEF78AFFD6
:103D6000E08128460A30FEF785FF29460C31208283
:103D7000002705E02846FDF7B3F87F1C0146BFB2D7
:103D80006089B842F6D8002706E032462846FDF79B
:103D900009F87F1C0146BFB2A089B842F5D80020BF
:103DA000E18901E0401C80B28142FBD80020218AD9
:103DB00001E0401C80B28142FBD8207A002801D06B
:103DC0000020F0BD0120F0BDF8B5002516460F46D5
:103DD000002806D0012805D0022804D0032878D175
:103DE00002E0142514350E35002E49D0012E5FD087
:103DF000022E5DD0032E6CD10720FFF7C9FE040010
:103E000067D026730020206060191330B0436060D3
:103E1000314827814068ED1C3930A908B04389003A
:103E2000401AB84200D9384680B201216081E18150
:103E30003D1A00941DE00720FFF7AAFE00281BD0C2
:103E400006730021417301600099AAB208602249FB
:103E5000028149683931890889008A4200D229469D
:103E600089B202464181103242600122C2816D1A3C
:103E70000090002DDFDC26E0204600F09EF828E0D0
:103E8000284613308108F81C800889008000081833
:103E900080B2FFF785FD04001BD060191330800845
:103EA00080006060278167810020206020730AE025
:103EB0000620FFF76DFE04000BD000206060278114
:103EC0006781206026730120E08100206073204616
:103ED000F8BD0020F8BD0000EC39002010B5002826
:103EE0000FD000290DD004E003890C891B19038130
:103EF00010460268002AF7D102890B89D218028184
:103F0000016010BD10B50C46FFF7E8FF204600F039
:103F1000D2F810BD002102E0491C0068C9B2002897
:103F2000FAD108467047F8B500270C4605463E46CC
:103F3000002805D0002C03D028892189884202D28C
:103F40000920C043F8BD6889C11B6089801B81427C
:103F500001DB80B200E088B200906068009A8119AD
:103F60006868C019FCF7D6F80098381887B200982E
:103F7000301886B26889B84201D12D68002760895F
:103F8000B04201D824680026002C06D0608921891F
:103F9000884202D12068002808D1002D09D0688904
:103FA0002989884205D12868002802D00820C0430A
:103FB000F8BD002CC7D10020F8BD70B5002815D081
:103FC0000024C189491E0904090CC1810DD1017B5E
:103FD000056803290BD001290CD002290AD0FFF76C
:103FE000A1FC641CE4B22800EBD1204670BD014660
:103FF000072001E001460620FFF798FDF1E710B524
:10400000002909D0002807D0002907DA4A4293B2D4
:1040100042899A4224D302E0002010BD8BB2027B79
:104020004468002A06D0032A04D0022A0AD0012AB2
:1040300008D015E0621A0346103342609A4208D253
:1040400044600DE000290BDA42899A4208D3621AD3
:104050004260428952184281028951180181DBE78E
:10406000012010BD70B502898A4223D98A1A0D46F3
:10407000044605E0281A85B220898018208124682A
:104080006089A842F6D3207B00280AD16089A84223
:1040900007D0A088001B401981B22046FFF7DAFC48
:1040A0000446658125812068002801D0FFF785FF3F
:1040B0000020206070BD002802D0C189491CC18148
:1040C00070470000C107044803D0FF211F3141623F
:1040D00070470249FBE70000009000401E01040009
:1040E00030B5134902884B68D2189C1C90420ED000
:1040F0001579002D0BD18D68AA4208D0CD68954264
:1041000000D1C860158805801288C51A15534288E9
:10411000D21882420BD01579002D08D1CD68854286
:1041200000D1CA60018811800088D11A015330BDC6
:10413000C80100200A0A02704170801C704710B547
:104140000446002905D00846FCF72FF8206000201F
:1041500010BD0020FAE710B50446002905D0084636
:10416000FCF723F86060002010BD0020FAE7000093
:10417000F3B583B00020009003984668707A317AD6
:1041800000020843FFF7B9FDC0B2019014480025B2
:1041900004681FE0217C0198814216D16769002FD5
:1041A00013D033460C33A0692146039AB847002840
:1041B0000BD00020039001200090002D05D0E06876
:1041C000E86007480168E160046025460098E468FB
:1041D000002801D1002CDDD1009805B0F0BD000011
:1041E000C401002070B505460020FFF7D1FC040093
:1041F00009D01C21FBF7A7FF25748020E07203483B
:104200000168E1600460204670BD0000C401002028
:10421000826141617047000010B50B490A68824213
:104220000AD1D2680A6009E0D168002903D081422E
:1042300001D1C168D1600A46002AF5D101460020AB
:10424000FFF774FC10BD0000C401002010B5021D72
:1042500000F001F810BDF7B50E46044684B01421F5
:104260003046FFF7CCFE0027FF4300280AD000228B
:1042700011460120FFF7A8FD05000BD03146FFF7DE
:1042800041FE0AE013213546C9433046FFF7B7FE29
:10429000002802D0384607B0F0BD0698FFF71AF99B
:1042A000002817D0002C1DD0216800291AD02146E3
:1042B000227CA37A019202900093E37A2846069A20
:1042C000FFF782F80446B54202D02846FFF775FE94
:1042D0002046E0E7B54202D02846FFF76EFE0320F5
:1042E000C043D8E7011DE3E7F3B50446007C87B07F
:1042F0000A283ED0A06D0390606A0290002C42D044
:1043000020680490201D00D0606805909420055915
:10431000278B268C606900902046FDF781F82146A6
:104320001A4801F02DF9A06F002801D001F0CBFF51
:10433000606F002801D001F0C6FFE06F002801D0B7
:1043400001F0C1FF21460220FFF7F0FB002D03D052
:104350000421C9430098A8470898002807D005AB56
:1043600004AA009701960299039801F019FF09B079
:10437000F0BD06482146001D01F002F92146022049
:10438000FFF7D4FBF3E700200490BDE740010020D5
:10439000F8B507460220FFF7FBFB3E4C3E4D0600FA
:1043A00040D1287C400701D40020F8BD00210846F8
:1043B000A668A26906E0136BF31A8B4201D3194673
:1043C0001046D268002AF6D1002802D00121FFF75A
:1043D0008BFF0220FFF7DCFB060023D17F1E7F202E
:1043E000844600206269A168FEB2864600910DE015
:1043F000517CB14209D8614507D8176B009BDB1B84
:10440000734502D39E4610468C46D268002AEFD1EF
:10441000002802D00121FFF767FF0220FFF7B8FB59
:10442000060035D0AC21FBF78EFE40207074C10130
:104430003018C18500230386A98831857185B37240
:104440008021F17243226968D200914200D911465D
:104450003187062101818380C180C91FF186012136
:10446000418200F0F7FD7066B065F064B066A06848
:1044700030633420835530460849803081600849D4
:104480000A6882614A68C26189680162A92083550D
:104490003046F8BD2C010020EC3900204D600000B2
:1044A000003A002041617047F7B50746007C82B0B2
:1044B0001446002803D00C20C04305B0F0BD002CEA
:1044C00002D100F099FD04463548056811E0288BBB
:1044D000A0420DD1002D4BD02E68002E48D003985D
:1044E000002845D0FBF761FE002841D0B0423FD004
:1044F000ED68002DEBD12A4D103D6E6913E0308B35
:10450000A0420FD1002E33D03068009000282FD069
:10451000039800282CD0FBF748FE002828D00099EB
:10452000884225D0F668002EE9D1EE6813E0308B82
:10453000A0420FD1002E1BD030680090002817D069
:104540000398002814D0FBF730FE002810D0009903
:1045500088420DD0F668002EE9D1AE690CE0308BB0
:10456000A04208D10398FBF720FE3168884202D1AF
:104570000A20C043A1E7F668002EF0D10398002876
:1045800008D0FBF712FE002804D004223846039915
:10459000FBF7C0FD3C83E868F8600020EF608CE723
:1045A0003C01002070B50546007C05260300FDF7A0
:1045B00023FC08051D2B35354A4A3D4A2846FCF7A1
:1045C0002FFF24480024C168A94201D1C96807E02F
:1045D000C161002905D0C968A942F9D1E968C0695B
:1045E000C1600020E860294602200AE00024284635
:1045F000FCF716FF17482946103000F0C1FF294686
:104600000320FFF793FA23E000242846FCF708FF75
:1046100010482946143000F0B3FFE4E70121284692
:1046200001F05EFE040009D12E7407E00121284646
:1046300001F056FE040001D109202874002D07D096
:10464000002C02D004E0002402E0284600F064FDC3
:10465000204670BD2C01002010B504460846FEF728
:1046600039FF002808D0008D002805D0283880B2F6
:10467000844200D220460446204610BDFFB58FB0CC
:10468000119919980143129880070143EE4877D099
:104690001199002902D11099002971D10F9811990F
:1046A00040300690C28D0F9820300D908A4205D27E
:1046B0008178802001430D98817050E1109802901C
:1046C00019980991C00701D0042100E00021199830
:1046D000800701D50C2000E00020081807900F98F3
:1046E000876E0698008E0590D84841680120C00367
:1046F000FBF7E6FC01460598814202D9D44988427D
:1047000001D90D98D4E7002603960F98018F0798DA
:10471000081A0999884200DB084680B200900420FC
:10472000FFF736FA04006ED0002525606560002E84
:1047300027D00398046018980394C00723D00799E2
:1047400000980022401881B21046FFF73DFB6060E0
:104750000028E8D0FFF7DEFB01460598081880B274
:1047600005901098002807D06068009A4168079863
:1047700008180299FBF7CEFC60684068A06026E04C
:10478000EFE00646D7E7002210460799FFF71CFB2B
:1047900060600028C7D0FFF7BDFB014605980818E8
:1047A00080B205900998002811D0012203200099B9
:1047B000FFF70AFB010021D00598401C80B205904C
:1047C000029848600298A0606068FFF787FB9F48E6
:1047D00041680120C003FBF773FC01460598814244
:1047E00011D301469A4881420DD80098A081142126
:1047F0006068FFF704FC002805D105E06068FFF75A
:10480000DCFB002060609FE06068406820610F98DA
:10481000008BFEF737FA21690870000A48700F987C
:10482000008CFEF72FFA21698870000AC87038469C
:10483000FEF726FA2169091DFBF7C1FC2069290A48
:104840008574C17482483C38FEF71CFA226905461B
:10485000517B127B090211430D401298FEF712FAA8
:1048600005432069290A057341731998A0732169CA
:10487000487B097B00020843FFF73FFA07990522AE
:104880008908800609031203800E89180843FEF781
:10489000F9F921690873000A4873009909987F188B
:1048A000401A80B209900298401802900998002896
:1048B00000D02AE70F98456F002D72D000E0054622
:1048C00028680028FBD1002D6BD02969487B097B23
:1048D00000020843FFF711FA800700D00120A989E0
:1048E000C84277D02969487B097B00020843FFF75B
:1048F00004FA80076ED11298800702D0129801281E
:1049000068D1A889B18941180F98008F814261D878
:10491000A87BB17B88425DD12869001DFBF745FC6F
:10492000FFF7E9F9A98947183069001DFBF73DFC3D
:10493000FFF7E1F987424DD1079970681431494278
:10494000FFF75DFB00280ED00D9881788020014391
:104950000D98002E817002D0304601F0B4FC00208A
:10496000C04313B0F0BD70684189002909D10168C6
:104970007160002101600599491E89B20591FFF718
:104980001CFB1298C0070DD00120FEF77BF92969A6
:104990004A7B0B7B12021A4310430873000A4873C8
:1049A0000AE014E071686868FFF798FAA889B1898D
:1049B0004018A88130682860B44202D1A8892C46EA
:1049C000009031460420FFF7B1F804E002E00F98B0
:1049D000466700E02E601298800703D01198401CB3
:1049E00080B211901298C00705D00D9820218078D0
:1049F00008430D9988700F98816E119809180F98C7
:104A000081660698C18D1198081A0699002CC885F0
:104A100006990598088614D00098002811D02069BE
:104A200000280ED0189880070BD40820FEF72AF92A
:104A300021694A7B0B7B12021A4310430873000A58
:104A4000487300208DE70000F6FFFFFFEC390020DF
:104A5000FCFF00008030416170470000F8B5184845
:104A60000026446928E0254680352A68002A0FD0B0
:104A7000AF68002F04D0002321466069B84704E0E6
:104A800000232146184601F0E1FA002800D12860F1
:104A9000761CF6B2642E11D825462035A878C107B9
:104AA00009D002210843A870204600F035FBA87801
:104AB00080088000A870E468002CD4D1F8BD000004
:104AC0002C010020F0B50746ED4D87B040680C463C
:104AD000A8604178027808021043FFF70EF900053C
:104AE000000F7968800040186860A96848780978E4
:104AF00000020843FFF701F90005000F8000414262
:104B00003846FFF77CFA00287ED1388914287BD3F9
:104B1000A86821461030FEF74DFA0028F4D1A868A5
:104B20001030FBF742FB04460F200007FFF7E3F8C5
:104B3000044007204007FFF7DEF8844264D038893C
:104B40000090AA680623114638460C311032FEF751
:104B5000F5F90028D8D16868417B027B0802104330
:104B6000FFF7CBF8000B800041423846FFF747FAC9
:104B70000028C9D169684878097800020843FFF71E
:104B8000BCF8014668680170090A4170C1788278F2
:104B900008021043FFF7B1F8014668688170090AFE
:104BA000C170001DFBF701FBFFF7A5F869680C4613
:104BB000091DFBF704FBE86020460830FBF7F5FA17
:104BC000FFF799F869680C460831FBF7F8FA286195
:104BD000E07BA17B00020843FFF78FF8014668687D
:104BE0008173090AC173417B027B08021043FFF7FE
:104BF00084F88006800E28703989800700D0012053
:104C000008186880002600E0B8E09E4804689C48C8
:104C10000194806801460C31103004909848069148
:104C200045683EE068782A78218C00021043814272
:104C300035D1E878AA78218B0002104381422ED129
:104C40000698FBF7B2FA6168884228D10498FBF70E
:104C5000ACFA2168884222D1002E05D0E068F060CD
:104C600088480199E1600460002C1CD0864900202E
:104C700008603A898A817A684F608A60804A0D614B
:104C800050612646507080363268002A7BD0B56865
:104C9000002D7AD0002321466069A8477AE0264695
:104CA000E468002CBED1794804681EE068782A7850
:104CB000218C00021043814216D1E878AA78218B1A
:104CC0000002104381420FD10698FBF76EFA61682B
:104CD000884209D10498FBF768FA2168884203D119
:104CE000204601F077FC49E0E468002CDED16848FA
:104CF00000260468009421E0002C0AD02068069069
:104D0000002806D00498FBF750FA01460698814225
:104D100012D1E878AA78218B0002104381420BD18E
:104D2000002E05D0E068F06059480099E160046009
:104D3000204600F0DDF821E02646E468002CDBD1B7
:104D4000687B297B00024E4C0843FEF7D6FF4007E4
:104D500014D4616848780A7800021043CA788B78C6
:104D60001102194300910190A3686188E0681A4616
:104D7000411810320C33206901F012FA3846FFF75F
:104D80001CF907B0F0BD08E0FFE7002321461846F4
:104D900001F05CF90028F1D13060394D2046AC615A
:104DA00000F01CFC401D61D0687801071BD505A9E7
:104DB0002046FBF79BFA012802D1207C022855D01F
:104DC0002046FCF72DFB7269002A03D00521C94358
:104DD0006069904721462B4800F0D2FB2146022013
:104DE000FEF7A4FE42E0C00603D52046FCF718FB00
:104DF000F0E76C20025B002A05D07368002B02D01C
:104E00002146606998476A69002A17D02878000708
:104E100003D5507B012108435073B768002F04D09D
:104E2000002321466069B84704E000232146184664
:104E300001F00CF9002801D06869306068782F46CD
:104E400080060ED5B668002E05D000231A462146EE
:104E50006069B04705E000231A462146184601F074
:104E6000F5F80020B861204600F056F90026064CFF
:104E7000AE616068002884D0FFF79FF8666080E725
:104E8000E401002040010020B8410020440100203E
:104E90003C0100207CB50446002214210120FEF7CD
:104EA00093FF050022D0A06D401EFDF7E9FE0346EA
:104EB00000222946204600F0A3FA064628890090E1
:104EC0000623221D21462846FEF738F83074000AD2
:104ED00070740621002001910090E37A221D214682
:104EE0002846FEF757FA2846FFF767F87CBD000012
:104EF000FEB53C4D06462878C10616D56968487847
:104F00000A7800021043CA788B7811021943009185
:104F100001906988E868AB68411828691A46401C06
:104F200010320C3301F03CF959E0800757D5707C02
:104F3000FFF72EFA04004BD0AF683846103001D08E
:104F4000FBF733F92060308B208338460C3001D0DA
:104F5000FBF72BF960606A6850781178000208430B
:104F6000208403202074E868411C6162E162D17BE7
:104F7000937B0A0221461A4340318A838A82401E6B
:104F8000206670696061F069E0613089FF219A31C3
:104F90000840208114480168E1600460204600F068
:104FA00087FA208F211DFFF757FB20870020012162
:104FB000019102460090014612232046FFF75EFB56
:104FC000050008D000212046FFF78EF92846FEBDD7
:104FD0000020C043FEBD204600F09EF8FEBD00202C
:104FE000FEBD0000E40100204001002010B540207B
:104FF000FFF7CEF910BD000030B51548134D4469D8
:105000004188491C89B24180A94202D90121090382
:1050100041802146438803E00A8B9A42F0D0C96858
:105020000029F9D1826903E0118B9942E8D0D26856
:10503000002AF9D1064910310A6803E0118B994220
:10504000DED0D268002AF9D198B230BDFF7F0000CF
:105050002C01002002498A6848688018486070471F
:105060002C010020F8B50C4601690546487B097BF8
:1050700000020843FEF741FE254FC00727D0204617
:1050800001F021F9002441E0707B317B00020843EC
:10509000FEF733FEC00716D01E48FDF7F3FD296961
:1050A0000646487B097B000208430640FEF725FEC2
:1050B0008006800E01210843FDF7E4FD06432869C0
:1050C000310A067341732046246801F0EBF8002C86
:1050D0001CD020690646001DFBF767F80146A08931
:1050E000FA680818A9898918081ACDD52069001D01
:1050F000FBF75BF8AA89F9685218121A002A05DD35
:10510000401A81B2A9816868FEF7ACFF2C60F8BD37
:10511000E4010020C0FF0000F0B504467D4885B0E2
:105120000068A04202D1002005B0F0BD204640300A
:1051300003900399808B498A884200D308460290E5
:1051400020462030656F00908078800712D5002DB2
:105150000CD02869001DFBF728F8FEF7CCFDE16CA8
:10516000401AA98941180298814203D9204601F0CA
:10517000C2F8D9E7A66F002E01D199E00646306843
:105180000028FBD194E0A06F002812D000984422A0
:105190008078014610420CD1606F002806D002686A
:1051A000002A06D18089228F904202D2A02001429B
:1051B00076D028686067207C022812D01020FDF786
:1051C00061FD01462869427B037B12021A431143A9
:1051D0000173090A4173009880788108009889005A
:1051E00081702146284600F097F82869001DFAF7DB
:1051F000DCFFFEF780FD29690746487B097B00023A
:105200000843FEF77AFD800700D00120A9893818ED
:105210004018A16D091A00D5A0652969487B097B52
:1052200000020843FEF769FD800701D0012100E07C
:105230000021A889C14237D000202860A06F002833
:1052400011D02869001DFAF7B0FFFEF754FD07469C
:105250003069001DFAF7A9FFFEF74DFD381A20D579
:105260002046783003E0A5671CE0019800680190B3
:10527000006800280ED00069001DFAF796FFFEF7BF
:105280003AFD07462869001DFAF78FFFFEF733FD48
:10529000381AEAD40198006828600198056006E091
:1052A00017E035602E4602E0284600F0FBFF656FF0
:1052B000002D28D02869001DFAF777FFFEF71BFDA7
:1052C000E16C401AA98941180298814200D85AE736
:1052D00001E0002D17D02646A036307A002812D1E2
:1052E0002869001DFAF761FFFEF705FDE16C401A21
:1052F000A98941180398808B814204D90020803409
:105300006062012030720098807841060098490E52
:10531000817008E7FC0100207CB505460C46486A10
:10532000FDF7AEFC29690831FAF749FF608DFDF7FA
:10533000A9FC29698873000AC873618D606A4018E6
:10534000E0622E69A87B1436C00707D02A48812165
:10535000406889040843FDF793FC3060002C02D0BC
:105360002068002808D1201DFEF7B4F8002841D09D
:10537000011D07D0406820603620205E0026401CBA
:1053800002D002E00020F6E7E686E06B002809D1B3
:105390001A480068E0632869001DFAF706FFFEF767
:1053A000AAFC20646968288A8A880623801A4A89A8
:1053B000121A4A8169680A89101A0881696828697D
:1053C00048602869310A067441746868221D0189A1
:1053D00000912146FDF7B2FD2969221D0874000ADB
:1053E0004874A07A062101910090E37A214668680A
:1053F000FDF7D0FF7CBD0000EC3900203401002017
:10540000F8B505461F461646008B4C68FDF73AFC7A
:105410002070000A6070288CFDF734FCA070000A30
:10542000E070211D3846FAF7CAFE686AFDF728FCCD
:1054300021460831FAF7C3FE1C48FDF723FC617BC7
:10544000227B0902074611430F401020FDF71AFC8A
:1054500007432773380A6073688DFDF713FCA07348
:10546000000AE0730027A774E774607B217B0002C9
:105470000843FEF742FCF117890F891989100522AC
:10548000800609031203800E8918084380B2FDF7D5
:10549000F9FB2073000A60732774380A6074698D01
:1054A000686A4018E8622046F8BD0000C0FF0000AE
:1054B000F8B5204E05467468617B227B08021043D4
:1054C0001434FEF71AFC000B05281CD97168487BC0
:1054D000097B00020843FEF710FC000B401F80040C
:1054E000000C0021144B0CE0625C002A0BD0012A56
:1054F0000AD0022A0AD062185278002A03D0511822
:1055000089B28142F0D3F8BD491CF9E76218567898
:10551000042EF8D1091D8142F5D8D6789778320249
:105520003A435E6852BA964201D3002A00D132460D
:105530002A87E5E7E4010020EC39002070B5044635
:10554000007C00281BD00A2819D0012817D0254636
:10555000803528680026002802D0FEF72EFD2E6038
:105560000020C043E086E06F00F0ADFEE667606FAC
:1055700000F0A9FEA06F00F0A6FE6667A66770BDEA
:1055800070B50C460168A14202D1C96801600BE008
:10559000114806E0C968A14203D1C069E168C16051
:1055A00002E0C1610029F5D100252046E560FFF742
:1055B000C5FF207C0A280CD001280AD020462030C4
:1055C0008178CA0705D00222114381702046FFF777
:1055D000A3FD257470BD00002C010020FEB504461B
:1055E000C84F254638782035410700291BDA207C32
:1055F000022813D0606AF9680A1A13D4228D801821
:10560000081A00280EDC7878082108437870A878FA
:1056100040084000A8700520C043FEBDA06D396958
:105620008842F0D06CE180070CD5207C022809D09C
:10563000032807D0A87802210843A8702046FFF766
:105640006BFD5DE1B048A92100682063002008558A
:105650002046FFF72DFF207C2646801E40360300A3
:10566000FCF7CAFB080565BEC3F0BEEFEEB23878A2
:10567000C106D7D5800748D5A06F0069001DFAF78D
:1056800094FDFEF738FB3969401C88423AD1F08D11
:10569000401CF085F8680246401C6062E164E062EC
:1056A0007968521EC87B897B00020843B0830420BE
:1056B00022662074208F211DFEF7CEFF0A2120874D
:1056C0004143B182718A012900D140007082308E3D
:1056D000401E3086A16F0868A06700280ED0002009
:1056E000E086B072084600F0DDFD8C200359002BE7
:1056F000A0D000222146606998479BE70020C04364
:10570000E086EFE73878C0068CD5796848780A7863
:1057100000021043CA788B7811021943009101905E
:105720007988F868BB6841181A46386948E03878C3
:10573000C1064AD5E16C3869411A012930D4A16DFE
:10574000411A00292CDC04202074E369002B0CD0C2
:105750000022214660699847002806D00121204692
:10576000FEF7C2FD0420C043FEBD778A204600F04C
:10577000D3F8B08D002801D0401EB085208F012FB6
:1057800000D1400070825F48407880061CD5A87820
:1057900002210843A8702046FFF7BEFC072062E004
:1057A0007A685178137809021943D37894781A02E9
:1057B0002243009201917A88F968BB6889181A46D9
:1057C00010320C3300F0ECFC9AE0800707D5606AD9
:1057D000F968401E884202D1204600F07AFC8FE032
:1057E000204600F099F87878CFE7204600F094F84A
:1057F0007878800638782FD5C00624D5A06D396911
:10580000884220D1A87802210843A8702046FFF7DB
:1058100083FC2046FFF792FE3C480168A14202D17A
:10582000C968016057E03A4806E0C968A14203D15F
:105830000068E168C1604EE001600029F5D14AE0EE
:1058400050E02FE011E0A87802210843A87020461C
:10585000FFF762FC082006E0C00651D5A06D39694B
:1058600088424DD1062020744AE0204600F054F8CA
:105870007878800644D5A87802210843A87020468D
:10588000FFF74AFC2046FFF759FE20480168A14275
:10589000C6D01F4802E0C968A142C9D001600029F2
:1058A000F9D118E0204600F037F83878C00627D53F
:1058B000A06D3969884223D12046FFF73FFE134887
:1058C0000168A142ACD0124802E0C968A142AFD041
:1058D00001600029F9D10A2020740E480168E160B6
:1058E00004600DE0204600F017F83878C00607D5B0
:1058F000A06D3969884203D1787810210843787007
:105900000020FEBDE4010020340100204001002001
:105910004801002044010020FEB50446F848264610
:1059200000782036C00600287EDA25464035A88B50
:105930000190636EF249C0180090206ECA688446D8
:10594000871A0846416800690CD4944501D11F1A92
:1059500008D4834215D1CB7B8F7B1B023B43019F35
:10596000BB420ED9CB7B8F7B19023943A9832266B8
:10597000606606D02146A0310A7A002A01D00022B2
:105980000A72E26C811A00292ADC0021DC4BA9850D
:105990005B88002B22D1AF8B636EDF19009B9F4287
:1059A0001CD13623E35E002B18DB824216D1287C03
:1059B0000146401C884200D92874287C032807D956
:1059C000688A218F411889B2814200D969829CE09E
:1059D000032802D1204600F0A4FB96E0297494E04D
:1059E000012975D4A36DC21A002A71DCB27853075D
:1059F00004D5FB231A40B270AA8A6A820022AA72D6
:105A00000423EB5EEF88DB10DB192B81A985EB8D7E
:105A10005918E9852A74E064207C04282FD36F8A02
:105A2000A88A8742208F00E0B2E004D2381880B202
:105A3000B84208D823E040433946FAF757FBC0196B
:105A400080B287421BD2688219E03868A067A88DAF
:105A500000280BD03969487B097B00020843FEF718
:105A60004CF9C00702D0A88D401EA8857868FEF7C3
:105A700051FA298E081A2886384600F013FCA06FC8
:105A8000002822D00069001DFAF78FFBFEF733F9DA
:105A90000746A06F0169487B097B00020843FEF7B7
:105AA0002CF9800700D001203818A76FB989411858
:105AB00093480069081A0028C7DD002F05D0002090
:105AC000E0860020307520E002E00020C043F7E7C8
:105AD0000020A88519E038686067A88D00280BD0E1
:105AE0003969487B097B00020843FEF706F9C007C5
:105AF00002D0A88D401EA8857868FEF70BFA298E83
:105B0000081A2886384600F0CDFB606F00281DD0AB
:105B10000069001DFAF749FBFEF7EDF80746606FD4
:105B20000169487B097B00020843FEF7E6F880071D
:105B300000D001203818676FB98941187048006992
:105B4000411A03D4A16D401A0028C4DDE06B00287F
:105B50001ED06B49226C0969511A19D56949098807
:105B6000081A0421695ECA10801A00B2091809B225
:105B7000A980002801DA404200B20622AA5EC910BC
:105B80009310C01A1018E880081828810020E063DC
:105B90005B4D6B88002B7DD0626AE968501A012842
:105BA0002AD4CB18D31A5B1C002B25DC56494F682E
:105BB000798981420BDA3989091A8AB2002303E014
:105BC0003A817B813F68401A79898142F8DB404203
:105BD00001B23846FEF713FA4B4879688160AB8909
:105BE000626A8189D31AC91A818101691046091D27
:105BF000EA60FAF7E4FA08E0881A0AD5B1780220D8
:105C00000143B1702046FFF787FA606AE968081A15
:105C10007ED4218D606A4218E9688A1A521C002AD3
:105C200076DC884275D1384F3969487B097B0002A0
:105C30000843FEF762F8800701D0012100E000214F
:105C40003148808908182E4980B24880218D8142D0
:105C500040D22D4D2969487B097B00020843FEF79D
:105C60004CF8C00714D02948FDF70CF807462869FE
:105C7000417B027B080210430740FEF73EF83E21BD
:105C80000840FCF7FFFF07432869390A077341738F
:105C9000208D00E0C1E1A8812969487B097B0002D1
:105CA0000843FEF72AF8800702D5A889401EA8817C
:105CB000A9896868FEF7D6F92969487B097B000243
:105CC0000843FEF71AF8800700D00120A989401880
:105CD0000B494880E06F002811D00B480169487BD0
:105CE000097B00020843FEF708F8C00704D111E061
:105CF0000168E16700F0D6FAE06F0028F8D189E08A
:105D0000E401002034010020B8410020C0FF000061
:105D10007FE1FBE0E76F3AE0687B297B0002084304
:105D2000FDF7EBFFC0072ED0C5480069417B027B21
:105D300008021043FDF7E1FF800724D4C148FCF7B7
:105D4000A1FF0546BE480169487B097B0002084364
:105D50000540FDF7D2FF8006800E01210843FCF7C5
:105D600091FFB74928430969020A08734A73FDF78E
:105D7000C4FF800701D0012100E00021B0488089E4
:105D80000818B149488038463F6800F08BFA002F68
:105D90003FD038690546001DFAF707FA0146B88971
:105DA0000918A948C26840881018401AB4D5386943
:105DB000001DFAF7FAF90146A348C568408828187B
:105DC000401A002825DDE06F0069001DFAF7EDF9A3
:105DD000401B9B4DA8812869427B017B1002084330
:105DE000FDF78BFF800702D5A889401EA881A989ED
:105DF0006868FEF737F92969487B097B0002084388
:105E0000FDF77BFF800700D00120A98940188E494B
:105E10004880E7678C4D6888E96809186162218DC0
:105E2000081A2085204600F01FFC854841680A8931
:105E3000002A02D06961002141600169487B097B29
:105E400000020843FDF759FFC0074AD068782021B7
:105E50000843687045E0E8600098417B027B0802D7
:105E60001043FDF74AFF800700D00120BA89616A1C
:105E70008918401860623969487B097B0002084331
:105E8000FDF73BFF800700D00120B9894018218D24
:105E9000081A2085204600F0E7FB79680889002869
:105EA00008D06869002802D0FEF718F800E06961A0
:105EB000002078603969487B097B00020843FDF7C0
:105EC0001CFFC00708D06878202108436870207C38
:105ED000042801D1072020743868E067384600F0B4
:105EE000E1F9E76F002F07D038690090001DFAF73D
:105EF0005CF9616A8842AED0B078C10702D0400830
:105F0000400095E001210843B070FEBD204600F03E
:105F1000F2F9E66F002E18D04B480027C5683069AB
:105F2000001DFAF742F90090A84213D14448B18904
:105F300080898842E9D9424800F0A2F90028E4D0DB
:105F4000002F38D0386031462BE03D4800F098F9FA
:105F5000E067FEBD002F27D03869001DFAF725F94C
:105F6000281A012829D40098281A401C002824DC6B
:105F7000334800F085F90400EBD03869001DFAF7CA
:105F800014F9B98942183049C968521A002A05DD46
:105F9000081A81B2B9817868FEF764F83146204664
:105FA0003C60FFF75FF8FEBD281A06D5244800F0D4
:105FB00067F90028F7D0E067C5E73168002924D1E8
:105FC0000098281A002820DD3069417B027B0802F6
:105FD0001043FDF792FEC007E5D1194800F050F9D3
:105FE00030600028DFD03069001DFAF7DEF8B18993
:105FF00042181549C968521A002AD4DD081A81B21C
:10600000B1817068FEF72EF8FEBD37460E0086D1CE
:10601000FEBD204600F06FF9FEBD606AE9680A1A0D
:1060200005D4228D8018081A401C0028F4DDB078B1
:1060300002210843B0702046FFF76EF8FEBD000055
:10604000B8410020C0FF0000E401002010B514009A
:10605000084606D0218900F00BF82046FDF7ADFF79
:1060600001E0002B01D0002010BDFEF79BFA10BD0F
:1060700070B50446008D0C4D401881B221856868CA
:10608000814200D92085204600F0EEFA696889082F
:10609000814208D820462030817802221143817045
:1060A0002046FFF739F870BDEC39002010B50185A6
:1060B00004464185002901D000F0D6FA2046203060
:1060C00081780222114381702046FFF725F80120D4
:1060D00010BDF8B5866F0446002E21D030682546E5
:1060E0007435A06700E02D68286800280ED000698C
:1060F000001DFAF75AF8FDF7FEFD07463069001D4E
:10610000FAF753F8FDF7F7FD381AECD42868306039
:10611000214640312E60887A401C88720020E0635E
:10612000F8BD70B50446806F002820D02546203584
:10613000A87840071BD42046FFF7CBFF204640300D
:10614000428A818B8A4201D9490800E05108818244
:10615000228F8BB251008B4200D28182818A530000
:10616000D21889184182A87804210843A87070BD0C
:1061700010B5816F002912D000E011460A68002A8C
:10618000FBD1426F0A60816F00228267416701463E
:1061900040318B7A5B1C8B72C263FEF7BDFF10BD72
:1061A000FFB50E4683B01F46002214210120FDF7E3
:1061B0000BFE05005ED06C680C98FCF763FD207048
:1061C000000A60700D98FCF75DFDA070000AE07099
:1061D0000398FCF755FD211DF9F7F1FF3046FCF758
:1061E0004FFD21460831F9F7EAFF2348FCF74AFD45
:1061F000617B227B0902064611430E401420FCF706
:1062000041FD06432673300A60731C48808880B2C3
:10621000FCF738FDA073000AE0730026A674E6744C
:10622000607B217B00020843FDF767FD80060521A6
:10623000800E09034018FCF725FD2073000A6073E7
:106240002674300A60742889009006233A4628464E
:106250000599FCF773FE2074000A6074062000960E
:10626000019080233A4628460599FDF793F8284681
:10627000FDF7A3FE07B0F0BDC0FF0000EC39002021
:1062800070B505460420FDF783FC040008D01422F5
:106290002946F9F73FFF6068FDF70DFF204670BD06
:1062A000002070BD70B500250446002809D0606844
:1062B000002802D0FDF781FE054621460420FDF7A7
:1062C00035FC284670BD70B5002405E00568FFF771
:1062D000E9FF0019C4B228460028F7D1204670BD56
:1062E0001CB500230122019300920B4600221146A7
:1062F000FEF7C4F91CBD7CB50446002632461421C5
:106300000120FDF761FD050029D02046203081786D
:10631000890889008170A06DFCF7B2FC0346324603
:1063200029462046FFF76CF8064628890090062388
:10633000221D21462846FCF701FE3074000A7074C5
:10634000A07A062101910090E37A221D2146284679
:10635000FDF720F82846FDF730FE00207CBD012027
:10636000C0437CBDF0B597488BB0007E964E06903A
:10637000B0680027401CB0600797746906E1384692
:106380007F1CFFB264287DD800250895227C022A54
:1063900006D14A20015D0698814201D1012554E0D1
:1063A000214640318B7A0698834201D1012543E092
:1063B0002046A0308446007A002813D0234680333C
:1063C000596A824A491C5962825C914234D3002145
:1063D0005962072802D26146401C0872204600F02C
:1063E00079F929E03620205E002801DB401CE08698
:1063F000A06F002820D03620205E01281CDB022A56
:1064000008D00420085ECA88C0108018704AD25C88
:10641000904008810020E086488A8A8B904200D311
:10642000104640088882228F904201D25000888214
:106430004A822046FFF79CFE207C062805D1206B6F
:10644000B168081A282800D96D1C207A000736D5B3
:10645000207C042801D0072831D120468030026AF0
:10646000C16904914A4380690990FF211018F531F0
:10647000F9F726FE0146206BB268101A019081429E
:1064800005D200E09CE001206D1C089017E020463A
:10649000A0300090407A0499484309994018FF21A0
:1064A000F531F9F70DFE01460198814207D22046E9
:1064B000FEF7F0FC00980099407A401C4872E06FAB
:1064C00000280CD0216BB2684823521A195F0623AA
:1064D00059438A4203D3FFF7F6FE0020E067207C91
:1064E000032802D0092807D00BE0216BB068401ABE
:1064F000282806D96D1C04E0216BB068401AF028EA
:10650000F8D8002D29D02046FAF78AFF2046FFF759
:1065100015F80798002802D0E168C16001E0E06842
:10652000706194200259002A03D00421C943606994
:1065300090470898002809D0218C208B0191009069
:10654000231D2246616AA06DFFF72AFE2146022024
:10655000E568FDF7EBFA2C4618E020462030017D77
:10656000491CC9B20175427D91420DD300210175CC
:1065700090200259002A04D02146606990470028E3
:1065800002D12046FEF7C8FD0794E468002C00D035
:10659000F5E60025B46911E02046FAF741FF2046F0
:1065A000FEF7CCFFE068002D01D0E86000E0B061AC
:1065B00021460220E768FDF7B9FA3C46002CEBD1F2
:1065C0000BB0F0BDA83900202C0100200F6D000099
:1065D000176D00007CB51B4C21784A0730D4224649
:1065E00052888B071CD5436AE168CD1A1DD4058DEE
:1065F0005B19CB1A002B18DC6368891858781D7852
:1066000000022843DD789E782B02334300930190EB
:10661000A36820691A4610320C33FFF7C1FD0FE062
:10662000C90702D0084909680163002A08D0014659
:1066300020318A7802231A438A70FEF76DFD7CBDF3
:1066400000207CBDE40100203401002010B5FEF7DD
:1066500005FA04480178491C0170C80701D0FFF70A
:1066600081FE10BD2C01002030B50D49058D496813
:10667000446A4A08018F63198A4200D21146C26AED
:106680008918591A02D44585981A30BDA11A0029D3
:1066900001DD002100E0111B4185002030BD00001C
:1066A000EC3900201CB5047C042C08D0072C06D043
:1066B000022C04D0032C02D00720C0431CBD002AAA
:1066C00006D00024009301942346FDF7D7FF1CBD9C
:1066D00000201CBDFEB5846F0546002C02D16C6FF6
:1066E000002C53D02169487B097B00020843FDF749
:1066F00004FBC00702D0A089002827D00020152164
:10670000009000220120FDF75FFB06003ED02069CB
:10671000001DF9F74AFD0346002231462846FEF7E0
:106720006FFE07460098002814D01948FCF7AAFA13
:10673000797B3A7B0902044611430C401120FCF797
:10674000A1FA04433C73200A787307E00120142166
:106750000090D6E7A06871680078087530890090CD
:1067600006232A1D29463046FCF7E8FB3874000A48
:1067700078740621002001910090EB7A2A1D2946A9
:106780003046FCF707FE3046FDF717FCFEBD000063
:10679000C0FF0000F7B50546234882B01446002626
:1067A000076817E0BD4201D1012612E0788AA042B5
:1067B0000FD1002F2BD038680090002827D00398E5
:1067C000002824D0F9F7F1FC002820D00099884255
:1067D0001DD0FF68002FE5D10398002801D0F9F7FC
:1067E000E4FC2860002C16D10F4801240168240322
:1067F00008460E4A07E04B8AA34203D1641CA4B2A8
:10680000014600E0C968002905D09442F3D10A206E
:10681000C04305B0F0BD6C82002E03D10248016870
:10682000E96005600020F4E778010020FF7F0000A8
:1068300070B51646428A0D460446002A04D1014628
:10684000FFF7A8FF00281FD1002D0ED02846F9F72A
:10685000ACFC6060A682217C042211432174002CD0
:1068600007D02168002902D00FE00020F1E7211DA8
:106870000FD0002809D0201DFCF72CFE002801D0E5
:10688000406807E00320C04370BD211D01D00028EF
:1068900001D10020206007490868024604E08442D4
:1068A00001D1002070BDC0680028F8D1E2600C6002
:1068B000F7E7000078010020F3B5456807466878DF
:1068C0002978000289B00843FDF717FA0005000F88
:1068D00080003989083088420ED86878297800020B
:1068E0000843FDF70AFA0005000F800041423846D0
:1068F000FDF785FB002804D03846FDF75EFB0BB0A2
:10690000F0BD78680590284610300A990290FCF78F
:1069100051FB049005984178027808021043FDF776
:10692000ECF903900598C178827808021043FDF7CE
:10693000E4F900240690442805D00020009001903E
:10694000644804686AE0039843286FD10A98006A93
:1069500000286BD04668002E68D0301D0BD07068C0
:106960000090002807D028460C30F9F71EFC01469D
:10697000009881425AD1344661E000200790618A34
:106980000698814241D10498002804D1002C18D0E7
:106990002068002815D00298F9F707FC0146206806
:1069A00081420ED00F200E460007FDF7A4F90640E5
:1069B00007204007FDF79FF9864202D0049800287F
:1069C00021D0012007900198002803D1207C4007A6
:1069D00000D40194A18A0398814216D1201D08D0C9
:1069E0006668002E05D028460C30F9F7DEFBB04271
:1069F0000BD10098002814D0E168C16035480168C7
:106A0000E16004600DE0009407E00798009400281E
:106A100003D031490698884203D0E468002CACD1F9
:106A200001E0002C0BD1019C002C08D10298F9F751
:106A3000BCFB01460A984068814200D05CE705989B
:106A4000C1798279080210430AD03889009029461A
:106A500011230C313846029AFCF770FA0028EDD168
:106A60000721C9433846FDF7CAFA0028E6D1002CB1
:106A70000BD0A669002EE1D0039800902B460C3372
:106A80003A462146E069B04739E704980028D5D155
:106A90000298F9F78AFB04460F200007FDF72BF94F
:106AA000044007204007FDF726F98442C6D06878E5
:106AB000297800020843FDF720F90005000F810046
:106AC00038460831FDF79BFA03213846FCF7DCF81D
:106AD00012E70000780100206C07000010B50120CB
:106AE000FDF756F8040004D02021F9F72CFB802094
:106AF000E072204610BDC2618161704710B50B493C
:106B00000A6882420AD1D2680A6009E0D168002985
:106B100003D0814201D1C168D1600A46002AF5D173
:106B200001460120FDF702F810BD000078010020A9
:106B300010B5838A021D00F001F810BDF8B50746B4
:106B40001D460E4614461046FCF7C4FC002807D02C
:106B500000902B4622463146384600F004F8F8BD36
:106B60000320C043F8BDFFB5428A85B00F460546F5
:106B7000002A04D10146FFF70DFE002812D108219A
:106B80003846FDF73CFA00280ED0002208210120EB
:106B9000FDF71AF9040003D03946FDF7B3F904E014
:106BA0000020C04309B0F0BD3C46688A6668FCF727
:106BB00069F83070000A70700898FCF763F8B070DC
:106BC000000AF0700020B071F071002D0ED028681E
:106BD00000280BD00E99496888420BD0BC4202D0E5
:106BE0002046FDF7EAF90820C043DBE70E98001DB8
:106BF000039000E003952089FCF744F83071000A07
:106C00007071287CC00710D1208900901123204684
:106C1000079A0399FCF792F9010AB071F171002803
:106C200003D1401EB071000AF071A87A11216B46A1
:106C30000E9A07C3EB7A2046079A0399FCF7C4FB28
:106C40000546BC4202D02046FDF7B7F92846A9E721
:106C5000FFB581B0044615460298F9F7A6FA092651
:106C60006168F643884203D10120FAF733FB19E04B
:106C70000299002916D0002814D021460298FCF76A
:106C800099F900280ED10298F9F78FFA07460F20DC
:106C90000007FDF730F8074007204007FDF72BF805
:106CA000874202D1304605B0F0BD04990298FBF747
:106CB00051FF0100F7D40B01084902204A689918D6
:106CC000887206209A18CC60401EC0B214182B5C43
:106CD00023710028F8D1C872E5E700007C0100208C
:106CE00004000400040004000A000500050006007A
:106CF0001C002000AC0020001400200010006002E6
:106D0000001112131415161718191A1B1C1D1E1F1B
:106D100003060C1830607801010101010101010135
:106D2000010101010101010101010100000000FF59
:106D3000FFFFFFFFFFFFFFFFFF000000000000005C
:106D400046494E5F574149545F31000046494E5F06
:106D5000574149545F32000045535441424C495316
:106D600048454400434C4F534544000053594E5F3F
:106D70005243564400000000434C4F53494E4700D5
:106D80004C4153545F41434B000000004C49535465
:106D9000454E000054494D455F574149540000009D
:106DA000434C4F53455F57414954000053594E5F80
:106DB00053454E5400000000E86D00000000002024
:106DC00068000000121E0000506E000068000020E5
:106DD000B001000096020000B86E0000180200200A
:106DE00028420000221E000018490024887A5722F9
:106DF00005071648A8234030002D05DB02700370FC
:106E00008D7A082635438D720270037005250D8139
:106E10000E4F20373D8803267602B5433D808D7A9C
:106E2000102635438D72002101700125BE79F607C9
:106E300001D00024FAE77D263601641CB442F5D95E
:106E40000270037085710170F0E7000000100040CF
:106E5000111B117201811DC0A801C8041501FFFF9B
:106E6000FF00117684C2E40203047777772E7763FC
:106E7000682E636E12100A238027031A6E1923648A
:106E80006D1A8C041AAC041A6C041A58041A4004C3
:106E90001A4C041AA0041A78041A80041A94048163
:106EA00013D834024420CBCC224823F06C1AE004DF
:086EB0000B2EB00E6043CDABC8
:040000050000009166
:00000001FF
