:020000040000FA
:1000000000800020A500000079230000AF00000060
:1000100000000000000000000000000000000000E0
:10002000000000000000000000000000AF00000021
:100030000000000000000000B1000000B30000005C
:10004000B5000000B5000000B5000000B5000000DC
:10005000B5000000791F0000B5000000B5000000E9
:10006000B5000000B5000000B5000000B5000000BC
:10007000613E0000B5000000B5000000B5000000C2
:10008000B5000000B5000000B5000000B50000009C
:100090000348854600F0D8FE00480047F5CA000036
:1000A000008000200448804704480047FEE7FEE740
:1000B000FEE7FEE7FEE7000065400000910000005B
:1000C0002E4611462D1B804145402D1AC91ABF41AD
:1000D0007940C91B47408946A846210CA4B2204656
:1000E00095B2120C68434D43544351432204240CEF
:1000F000801861412A042C0C80186141340CB6B27E
:100100009DB21B0C32466A4365435E4363432C0435
:100110002D0C12196B413404350C12196B417640C9
:1001200052187341494645468046080C89B20C4630
:100130002E0CADB269437443454370432604240C2E
:10014000891960412E042D0C891968417940784045
:1001500064407F10514142416741404609185A416D
:100160007B41704700B5FFF7ABFF03B451469246A1
:1001700033C922462F46121A8F41B641724077404A
:10018000921BB74184B45A469B460FCA801A9941C4
:10019000BF4178407940C01BB9417740BC4603B4A9
:1001A000FFF78EFF54465D46764000196941724163
:1001B000734192469B463CBC03B4FFF781FF30BCC1
:1001C00066466746704071407240734076106041E9
:1001D000694154415D415240564157410CBC9046E3
:1001E000994612184B415046594644414D414641AB
:1001F0004F4100BD01B590B006B492468B46104603
:1002000030C808300CC9083103B4FFF7ABFF06A8AB
:100210000CC004A842464B460CC006BCF0B48A464B
:10022000934630C90CCAFFF79DFF40464946B04689
:10023000B946C0BC80197941C0BC72417B4106AF50
:100240000FC7BA46404046464F46444145414641A5
:10025000474106BC9446F0B4FFC9001BA941B24116
:10026000BB416440A4416040614062406340001B68
:10027000A141A241A3416646A44655460FC5AB46DF
:1002800080468946FFCE241A8D4196419F414040C9
:1002900080414440454046404740241A85418641BC
:1002A0008741614648405946F0C101B442464B4639
:1002B000FFF758FF01BC844642404340444045405C
:1002C00046404740F0B408A9F0C949464140A2461B
:1002D00044464010604054466041694172417B4150
:1002E00064406441A2460CACF0CC001969417241F3
:1002F0007B41A1460CAC0FC40FBC4C4644414D4160
:1003000056415F410021494150468A4640100FBC8A
:1003100044414D4156415F41804608A8F0C04046E7
:1003200066465546644075416641401971417241C7
:1003300073410CAF0FC7FFBC1B184C4155414641E0
:1003400090469946A246AB46B4464F413CBC42411A
:100350004B4100267441754176413F1A8A4140461F
:10036000494683418C4100208541864160464018C2
:10037000844650464741BE46404642414B41444177
:100380004D4100277E4103BC361879417F415846D4
:100390001218904662465341994653465C41A24624
:1003A00045415E41414114BC7A4100277C417F4177
:1003B000ED1A8641634670469941824100239C4173
:1003C0009F41A646BB46544624185D4167467E4180
:1003D00041417A417746474158465841DB1A8246A7
:1003E00040465841BB464F465F418446B9465C4152
:1003F0009D419E41994101239A4100235846574609
:1004000058419F419046624683464B46D2197B41F4
:100410007C41002045414641414101BC7CC0012551
:100420003D4042465B466A417B410EC000BDA0B2E2
:10043000210C02464A4340434943D30B52048018DF
:100440005941641BB6417440A41BAAB22B0C15463B
:100450005D4352435B43EE0B6D045219734100261A
:1004600052187341250CA4B22146694364436D437D
:10047000CE0B4904641875411146091BAA411D465B
:100480000026B34109186A417341704700B5204600
:100490002946801BB941924150405140801A9141F8
:1004A00080468946B246FFF7C2FF54463D46824623
:1004B0008B4694461F46FFF7BAFF64460019794100
:1004C000724173411F468446444688464D469146D4
:1004D000FFF7ADFF644645464E46241A8D4130462F
:1004E000394690419941002296419741524612194E
:1004F0005B466B416446444145464D4100204641C0
:1005000047415046594600BD01B590B002B4F0C90C
:10051000FFF7BCFFF0B405AC0FC4049C1034F0CC62
:10052000FFF7B4FFA046A946B246BB46F0BC00198F
:10053000694172417B4144464D4656465F4680467E
:10054000002044414541464147414046FFB4089C94
:10055000FFCC241A8D4196419F4180414440454043
:1005600046404740241A854186418741FFF78EFF68
:10057000C043C943D243DB43E443ED43F643FF4367
:10058000A046A946B246BB46241BF0BC6041694167
:1005900072417B41A44609AC0FC4644640466041A9
:1005A00080464946694189465246724192465B46B9
:1005B0007B419B4600204041844605A8FFC80019A6
:1005C000694172417B4109AC0FC46846F0C841469D
:1005D0004C4149464D4151464E4159464F410DA867
:1005E000F0C0F0BC61460022D24351410A116418A8
:1005F000554156415741F0C001B09CE601B519C9BB
:10060000E0CA401973417C4180469946A24660C9C0
:1006100018CA5D4166411AC985CA414153417C41AE
:1006200000277F41001A4246B8464F46A14654462D
:10063000424192464741BB46444185418641814102
:100640000120834100204A4642414746874198465F
:100650005B4693465246D9E601B519C9E0CA401B2C
:10066000B341BC4180469946A24660C918CA9D4123
:10067000A6411AC985CA81419341BC41BF41424646
:100680009846A3464B465446C0E6012102C00021CD
:10069000002206C006C006C002C020387047F0B570
:1006A00001A2FFF7A7FDF0BD03000000000000005D
:1006B000FFFFFFFFFBFFFFFFFEFFFFFFFFFFFFFF4F
:1006C000FDFFFFFF04000000F0B5002200230CB482
:1006D0000CB40CB401220CB46A46FFF78BFD08B0D1
:1006E000F0BD01B50FA200F0E3F80098403005A17D
:1006F00000F020F804D003A00099403100F01AF86F
:1007000002BD0000DFBDC42962DF9CD89030847830
:10071000CD05F0ACD62E21F7AB20A2E534488704F6
:100720001D0630DC402030211311134113411341C9
:100730000145000070B56D1BEE43082208C810C9C2
:10074000A34132441242F9D16D41284670BDF0B543
:1007500001246542A846A41A082620C980CBAF41CF
:10076000574365432F4480C046443642F5D1F0BD1F
:1007700030B53CC93CC03CC93CC030BD202202441D
:100780000B780370013101309042F9D17047F4B514
:10079000042641B40027B846B946BA46BB46BC4613
:1007A000BE4602987840EFF30080800F1CC9424398
:1007B0004343444390449944A2441CC942434343A5
:1007C000444393449C44A64448310137082FE8D160
:1007D00041BC42464B4654461CC05A46634674468A
:1007E0001CC0F839F839F839013ED2D1F1BD0EA25A
:1007F0005EE001A25CE00000802030138010401415
:10080000502161105111711130433022531585155B
:100810003213414402104022131123430032324369
:10082000034242122144000080207815603160406C
:10083000011000510130002170244022641444331F
:100840001343434101100244000081460F460FCF7D
:10085000C607F517F60F0024401969416A41634144
:100860000FB40FCF6041614172416B41002464417C
:10087000E7075E083743DE0755082E43D5074C08C7
:100880002543CC0743081C43C30748461030F0C03B
:100890001F460FBC5E083743DE0755082E43D507B9
:1008A0004C082543CC0743081C434846F0C070471A
:1008B000F0B598B020230C46CD18EE1870B404465D
:1008C000C518EE1870B406ACE518EE1870B43C24E8
:1008D0006D461388023204B49A002240AA5899083F
:1008E0002140695898092040285804A59E0A2640AE
:1008F00003D0AE59B04704BCE9E722B0F0BD000018
:10090000F501000009050000FD0500005906000082
:100910004B08000005B5002907D002B40198014634
:10092000FFF7F2FD02BC0139F7D103BC0246FFF725
:1009300061FC00BD01B5FFC8FFB4089801216A46FB
:10094000FFF7E8FF0898FFC8FFB410980146FFF7CB
:10095000DBFD10980146FFF7D7FD1098FFC8FFB4E4
:100960001898694608AAFFF745FC08A81899FFF7E8
:10097000FFFE189F00240CA210570132155D86005F
:1009800004D588B068463946FFF7F2FE3846F1B222
:100990002A466A4490B4FFF7BDFF90BC0234162C7F
:1009A000E9D131B000BD000001208200840088A0A0
:1009B00020000800042002400180016000A0F1B581
:1009C0004030FFC8FFB46846FFF7B4FF694688B0FF
:1009D0006846FFF799FD08A96A460846FFF70AFC32
:1009E000694610980246FFF705FC08A910982030C8
:1009F0000246FFF7FFFB11B0F0BD4242C3171340A0
:100A0000D217104018437047F0B544464D4656463D
:100A10005F46F3B4C0B01E0408A81146FFF7AEFE4F
:100A20006846FFF732FE08A86946FFF783FE01D14A
:100A300042B0C4E008A870A1FFF77CFE0138F7D0EF
:100A4000684608A90A6801231A405A4016446AA356
:100A5000FFF77DFE18A900980007000F01226C46E1
:100A600001255308E35CD7077F0FFB401B071B0FD3
:100A700001271F406F403F01C01B087001312B430D
:100A800018460132402AECD108704199E0B0E0B03C
:100A90006846FFF773FEFFF771FE68464EA1FFF749
:100AA00049FE013802D160B060B0C1E708A84AA190
:100AB000FFF740FE0138F6D068466946FFF7EFFDC4
:100AC00008A808A9FFF7EBFD6846FFF70AFE002813
:100AD000E9D010A8FFF7D9FD0146FFF7E0FDA8A86F
:100AE0006946FFF784FE18AC07252046A8A9FFF742
:100AF0003FFEFFF73DFEFFF73BFE20460146603913
:100B0000FFF777FE6034013DEFD1E8AF013F387861
:100B1000013F40B2FFF771FF4208C0A86946FFF7E6
:100B200036FED8AD0424C0A80146FFF760FE013CA4
:100B3000F9D13878013F40B2C40FFFF75EFF420899
:100B4000E8A86946FFF723FEF0A80146224622A343
:100B5000FFF7FDFDAF4203DAA8A8C0A9FFF747FEE3
:100B6000C0A8E8A9FFF745FEAF42DBDA6846FFF709
:100B70008CFDD0A86946FFF7DDFD821DE8A818A905
:100B8000FFF705FE74B074B06846FFF718FF6846BB
:100B90006946FFF799FD08A808A9FFF795FD08A881
:100BA00008A9F2B20CA3FFF7D2FD18986946FFF727
:100BB000E5FD360C01D0FFF7E1FD01201AB0F0BCD5
:100BC000A046A946B246BB46F0BD0A4612A1012383
:100BD0001AE7002318E70000FFFFFFFFFFFFFFFFFA
:100BE000FFFFFFFF00000000000000000000000009
:100BF00001000000FFFFFFFF512563FCC2CAB9F3EB
:100C0000849E17A7ADFAE6BCFFFFFFFFFFFFFFFFC3
:100C100000000000FFFFFFFF96C298D84539A1F4FD
:100C2000A033EB2D817D0377F240A463E5E6BCF8A9
:100C300047422CE1F2D1176BF551BF376840B6CB74
:100C4000CE5E316B5733CE2B169E0F7C4AEBE78E70
:100C50009B7F1AFEE242E34F30B50B46014600206F
:100C60002022012409E00D46D5409D4205D31D46B2
:100C70009540491B2546954040191546521E002DAA
:100C8000F1DC30BD70B500242546002801DA0124CE
:100C90004042002901DA01254942FFF7DDFFAC425D
:100CA00000D04042002C00D0494270BDF8B500246D
:100CB0002546002904DA0E46012400214042B141B4
:100CC000002B04DA1E46002352420125B34100F0F6
:100CD0007AF88C4617461E46AC4203D000254042A7
:100CE0008D41AC46002C02D0002657429E41614601
:100CF0003A46334601B0F0BD10B5202A04DB014668
:100D0000203A9140002010BD914020239C1A0346B8
:100D1000E3401943904010BD10B503461C460C43F8
:100D2000A40703D009E010C9121F10C3042AFAD285
:100D300003E00C781C70491C5B1C521EF9D210BDDC
:100D4000D2B201E00270401C491EFBD27047002263
:100D5000F6E710B513460A4604461946FFF7F0FFBA
:100D6000204610BD421C0178401C0029FBD1801A8E
:100D7000704710B5002200E0521C835C8C5CA342DB
:100D800001D1002BF8D1D8B2E1B2401A10BD30B574
:100D900004460020034600E05B1C934203D2E05C63
:100DA000CD5C401BF8D030BD30B505460020034671
:100DB00000E05B1C934205D2EC5CC85C201A01D1B8
:100DC000002CF6D130BDF0B51FB40646002082B02D
:100DD00005464024019100901BE0019922460F46F0
:100DE000304600F020F8049A059B801A994110D3F0
:100DF000104619462246FFF77FFF361A8F410197AA
:100E0000224601200021009FFFF776FF38184D4150
:100E100000902046641E0028DFDC019B00982946D4
:100E2000324607B0F0BD10B5202A04DB0846203A50
:100E3000D040002110BD0B46D340D0402024A21A40
:100E400091400843194610BD064C0125064E05E0A9
:100E5000E36807CC2B430C3C98471034B442F7D3DB
:100E6000FFF71AF95C5A01007C5A010070B58C1822
:100E70000578401C6B075B0F01D10378401C2A11D9
:100E800006D10278401C03E006780E70401C491C15
:100E90005B1EF9D12B0705D40023521E0DD40B7015
:100EA000491CFAE70378401CCB1A921C03E01D781A
:100EB0000D70491C5B1C521EF9D5A142D8D30020ED
:100EC00070BD00000448C17E80221143C1760F210D
:100ED00001762121417670474010004010B5124C38
:100EE0002068C0051FD50320206000200821401C79
:100EF0002268C0B20A4322600EE02268920510D434
:100F0000222807D90948026B002A0AD001210320B0
:100F1000904706E0401CC0B22268D205EDD50028FB
:100F2000E5D10020206010BD80C30040882E002045
:100F300070B514460D460646FFF7D0FF2D480368EE
:100F40001968062291431960316899627168D96203
:100F5000B1681963F1685963296899616968D96151
:100F6000A9681962E9685962596802229143596077
:100F70005D6801210D435D601D680D431D6000E04B
:100F800000BF59688907FBD5596891435960996931
:100F9000217001688969090A617001688969090C11
:100FA000A17001688969090EE1700068C169217149
:100FB000C169090A6171C169090CA171C169090E90
:100FC000E171016A2172016A090A6172016A090C00
:100FD000A172016A090EE172416A2173416A090A2C
:100FE0006173416A090CA173406A000EE07300202E
:100FF00070BD00007C02002010B500F0EDFF02493A
:1010000000F018FF002010BD060400000148006E2B
:10101000704700006C34002010B501F0B7F810BD27
:101020000A7802700A88120A42704888801C80B2CE
:1010300070470000064910B5884202D100F02CFF2D
:1010400010BD0BF091FB0028FAD1172010BD000055
:10105000FEFF000038B505464A6800200C46002A0D
:1010600003D00321104612F09FFE009023461B225E
:101070000249284604F002FB38BD000021100000A0
:1010800010B5094803F08CF80849087004F088FD91
:1010900000F03CFE064800F0F1FE012000210003B4
:1010A00011F0FAF910BD0000B5100000000000209A
:1010B000B9C3000010B50C46C80717D00C490DA0E5
:1010C00003F01EFA0EA003F01BFA0EA003F018FAAC
:1010D00006F0D6F8002802D011F03CF904E0012017
:1010E00011F000FD07F029FF0120604010BD000055
:1010F000B54B01004150505F4442472025733E20CC
:10110000000000000A000000044803490068016074
:101110000349C16270470000A52208018002002037
:10112000784E010010B5074C5D202168086501F07C
:10113000DDF920680021016503484279521C4271A3
:10114000C17110BD9C010020DC2E002070B52C491F
:10115000002048602B4800892B4CC0B2810902292D
:1011600004D0012908D0810916D026E0C820A0802B
:101170001020E080E8201FE0C506ED0E2D20294656
:101180008001FFF769FDA08029467820FFF764FD04
:10119000E08029461D480DE0C506ED0E2946C02019
:1011A000FFF75AFDA08029460820FFF755FDE08093
:1011B0002946E820FFF750FD2081164914480860B1
:1011C0001649154808601749154808601749164818
:1011D000086018491648184C086018492068012210
:1011E000D2020861801848610120487100F062F95C
:1011F000607D002802D112492020086070BD0000E7
:10120000A001002000100040BC2E0020980D00001E
:1012100000C000408402002000C300407C02002087
:1012200000C200409C01002000D000408802002045
:1012300000C1004080020020882E0020DC2E00200B
:1012400000E100E0F8B55648006881680127C9054B
:101250000025544C544E00292EDA81683A029143FD
:101260008160207840060CD550485149006888427A
:1012700006D15049886BE0608A6B9042FAD100E059
:1012800080472078384320706570E079062803D0C5
:1012900043495D2009680865306800280AD0016963
:1012A0000A68406902430A60316808680268896810
:1012B0000A4302606571A560394B18688168890529
:1012C00021D581680122520291438160A078384380
:1012D000A070E57038480068C16A89088900891CD7
:1012E000C1620168D20411430160306800280AD04D
:1012F00041680A68806802430A603168C868026809
:1013000049690A43026018688168890717D58168AE
:10131000022291438160E770A5705D21016530680C
:1013200000280AD001690A68406902430A603168EE
:101330000868026889680A4302606571A5601868D8
:101340008168C90715D08168490849008160257006
:101350006770306800280AD041680A6880680243D4
:101360000A603168C868026849690A4302606571A9
:10137000A56018688168C90603D581681022914369
:1013800081608168490703D58168042291438160A7
:101390008168090703D58168082291438160F8BDFF
:1013A0009C010020DC2E0020A401002098010020D8
:1013B000D53D0000001000408002002070B50446BA
:1013C0000068002828D00121000C4903884223D15D
:1013D000A088002820D020460622FF21163012F0D7
:1013E00018FD01281AD0A2880021206812F016FEEC
:1013F000342200212D4812F011FE342221462B48C0
:1014000012F024FD2948062216300021054612F06C
:1014100000FD012804D008E0022070BD032070BD4B
:1014200023490622284612F011FD2048818900290F
:1014300002D1012149028181827B0121002A00D150
:101440008173C27B002A01D11B22C273027C002A55
:1014500001D105220274427C002A00D14174817CB2
:10146000002901D114218174817F002901D1282113
:101470008177C17C002908D0827FE17C920889189D
:10148000C174617F002904D005E0817F89082D3176
:10149000F6E702214177806A002803D0804703499C
:1014A0003431488102F034FE002070BD882E0020C7
:1014B0000806040010B500F0A7F800F041FD00F0A8
:1014C000AFFFFFF721FE0B4C5D202168086501F09E
:1014D000BFF801F07DFE01F083F801F007F806483F
:1014E00001214171226800211165C171FFF7F6FCED
:1014F00010BD00009C010020DC2E002030B58DB016
:10150000122227A12B4812F093FC002841D02A4830
:1015100057210170A82101705121274AC900403A82
:101520001181002101702648244A4261254A07247E
:10153000D3691B021B0A45042B43D36181610461FB
:10154000016902229143016134220021684612F0B0
:1015500065FD1D48009001204003694688801B20DE
:10156000C873052008740120487414208874FB2077
:10157000800202900D2008771448089014480A90C1
:101580000846FFF71BFF010007D012A002F0B8FFCA
:10159000FEE718A002F0B4FFFEE70DB030BD00007A
:1015A00043483537785F424C455F4C49425F56317E
:1015B0002E3800000C4E010040100040FEFFFF00DE
:1015C00000E000E004ED00E06C0E00205940000057
:1015D000B11C00004C494220696E6974206572722A
:1015E0006F7220636F64653A202578202E2E2E0AB4
:1015F00000000000686561642066696C65206572A2
:10160000726F722E2E2E0A000A48094900680A6974
:1016100002610A69426149698161C161826801218F
:1016200049030A438260C2680A43C26070470000EF
:10163000DC2E00208402002030B5104A0346517A87
:10164000FD20842454720E4CA568002D07D0A57B84
:10165000002D04D0A489E51FFF3DFA3D02D0517250
:10166000FF2030BD7D24E402A34205D35360A620B1
:101670001072907A40235840517230BD00180040DB
:10168000882E0020F8B504460025C00501D00120B1
:10169000F8BD112069460870334E0020307070701C
:1016A000324F802078720878113008703048007905
:1016B0000007000F0D2802D0012000F091FE6946BE
:1016C0000878113008702A488179890701D00220F2
:1016D000F8BD6A461178113111708179890704D1FA
:1016E0001178442901D157213170117811311170CD
:1016F0008079800707D11078552804D13078572891
:1017000001D1A820707010781130107030785728EF
:101710000ED17178A8290BD11178662908D17C6087
:101720007D21C9028C4201D2882100E08421797296
:10173000117811311170572809D17078A82806D175
:101740001078772803D1A62038727889C5B2002096
:1017500010703070707080207872402D01D003209E
:10176000F8BD0020F8BD000068010020001800400E
:1017700020100040F7B50446002682B00D468007D1
:1017800002D0012005B0F0BD1120694608703D4827
:101790000021017041703C4F8020787269460878C2
:1017A00011300870394800790007000F0D2802D069
:1017B000012000F015FE69460878113008703349A1
:1017C0008879800701D00220DCE76A461078113062
:1017D00010708879C00705D11078442802D12948B3
:1017E000572202706A461078113010708879C0074D
:1017F00008D11078552805D122480178572901D100
:10180000A82141701078113010701E4A10785728A6
:101810000ED15178A8290BD169460978662907D1DC
:101820007D23DB029C4201D2882100E08421797271
:101830006B46197811311970572816D15078A8289D
:1018400013D11878772810D100209A230AE07C6001
:1018500002CD39603B727989241DCEB2402E04D16D
:10186000001D80B204998842F1D3002069460870B7
:101870001070507080207872402E01D0032081E7D4
:1018800000207FE768010020001800402010004081
:1018900010B504460AF032FF002805D00078132264
:1018A000214600F003F810BD122010BDF7B5054623
:1018B0001E4812261E4F0C46814208D1B8680028E7
:1018C00032D00268002A2FD028469047FEBD174824
:1018D000401C844219D1B868002806D00268002A4A
:1018E00003D028469047002806D02846029908F0E1
:1018F00055FC060005D017E07D7002983870002076
:10190000FEBD7D70029838700EE008460AF0F6FEC3
:10191000002809D00078A84201D00320FEBD20464F
:10192000029900F08BFAFEBD3046FEBDFEFF0000BE
:10193000540400207CB50D46104904460869002275
:10194000002805D08388A34204D002460068F7E748
:1019500001207CBD002A02D00168116001E002680C
:101960000A6112F0D5FA6946204600F063F80028B3
:10197000EFD1002DEDD0019929607CBD80040020BD
:1019800070B50A4C0025A04208D1002082008C527C
:101990005218401C95700328F8DB70BD09F0F8F868
:1019A0000028FAD00480857070BD0000FFFF0000A1
:1019B000F8B50E460746069900240798002902D07C
:1019C0000B242046F8BD022B01D00D24F9E75178F5
:1019D00012780D0215432946814301D08024F0E797
:1019E0003846F16800F009F8A842EAD02A4638469D
:1019F000F16800F009F80446E3E710B509F0C8F80B
:101A0000002800D0807810BD70B514460E460546FB
:101A100009F0BEF8002806D13146054809F0B8F8AB
:101A2000002803D005808470002070BD112070BD97
:101A3000FFFF000070B5114A0B46014654690020B3
:101A4000002C06D0A5686D898D4204D020462468FC
:101A5000F6E7012070BD002802D02168016001E096
:101A600020685061002B04D00822211D184612F076
:101A7000EDF9204612F04CFA002070BD80040020E1
:101A8000F0B5104A536919E09C686589A84214D3DF
:101A90009E887219824210D900220CE017013F196A
:101AA0007F89874205D1002900D00D8010010019DF
:101AB000F0BD521C92B2B242F0D31B68002BE3D1AE
:101AC0000020F0BD800400207CB516460C4605467B
:101AD000FFF79CFA11490978884201D316207CBD92
:101AE00001A9284609F03EF81728F8D0002E10D09A
:101AF0000020694608802088FFF7C2FF69460888F1
:101B000000F00EF80146012228460AF0CBFD00281D
:101B1000E5D121462846FFF79DFA7CBDF10400205F
:101B200000B508F0DBFF002801D0807800BD102050
:101B300000BD0000F8B5069F1E461546162928D0A0
:101B40000CDC09291FD004DC05291CD0062911D181
:101B50001BE0112917D012290CD118E01D2916D02D
:101B600004DC172915D01B2904D110E052290ED00E
:101B7000D2290CD00124114A95420CD1FFF75AFA10
:101B8000001B85B20BE00224F5E70724F3E70324EA
:101B9000F1E70524EFE7D22901D10C35ADB2601988
:101BA00080B2394600F0BCF9002805D0002E00D0E4
:101BB0003580614212F0F8F8F8BD0000FFFF000028
:101BC00010B508F09BFF002801D012F0A1F910BD5C
:101BD00000B5124A0B0002F0BBFC050407101619F1
:101BE0001F00516B81430AE0516B81435163116BBC
:101BF00001431163116A81430DE0516B014351634D
:101C0000116B8143F5E7516B814301E0516B014357
:101C10005163116A0143116200BD00008010004051
:101C200000B5124A0B0002F093FC050407101619C8
:101C30001F00516981430AE0516981435161116973
:101C400001431161116881430DE051690143516104
:101C500011698143F5E75169814301E0516901430D
:101C6000516111680143116000BD0000C0100040C7
:101C700010B50C480089C1B20B069A0F0A48022A17
:101C800005D0012A04D09A0F06D07D20000210BD95
:101C9000C906C90E054801E0C906C90EFEF7DCFFFA
:101CA00010BD0000001000400048E80100389C1CF6
:101CB000F8B5094CE77E267E657EFFF703F9A07E26
:101CC00001210843A076A07EC007FCD1A08BE77657
:101CD00026766576F8BD00004010004010B5084833
:101CE00002F05EFA074C207000F086F800F00EF863
:101CF00062B6054A01214903207812F0ABFA10BD03
:101D0000791D00007401002000EE02000A48002145
:101D10000170416009480268012189058A43026017
:101D200002690A430261026810218A430260026963
:101D30000A430261704700006C010020C01000409F
:101D40000B4900204A68520200D401204968C906A4
:101D500001D40221084307490A78904206D008704E
:101D6000002803D04968002900D0084770470000C8
:101D7000C01000406C01002070B50C4609040AD563
:101D800012F090F9002801D012F064F901212046E8
:101D9000C903484070BDE00701D001200AE0134D9F
:101DA000A00709D5FFF7CCFFA0220221287812F066
:101DB00051FA0220604070BDA00405D5FFF77AFB00
:101DC00001260B4A760308E060040DD509A002F055
:101DD00097FB7D22D2010126B6033146287812F006
:101DE00039FA2046704070BD002070BD740100209B
:101DF00000EE02002A2000001CB50C48572101709B
:101E0000A821017009492039CA7B07231A43CA73E4
:101E10000021017000910B460122019111460448F6
:101E200002F02AF8002002F0EFFA1CBD401000403A
:101E3000E407000010B500F009F810BD10B5FFF779
:101E4000DBF810BD10B5FFF7E7F810BD70B505461B
:101E50000C46062012F0EAF801000BD09120087021
:101E60000F2048708D700120C87003488C80007866
:101E700012F050F970BD00000E05002010B50449A5
:101E80006422486003480221007812F0E3F910BD93
:101E90006C01002074010020014840897047000057
:101EA000F004002070B50C4609880546042905D0C9
:101EB000052903D0062901D0072929D16068002807
:101EC00026D0012128460AF057FC00281ED02846BB
:101ED0000AF04AFC0F498D420BD0002809D16188D5
:101EE000002906D9208806280ED10B480088814297
:101EF0000AD20A480078002804D0214628460AF071
:101F000063FB70BD162070BD1B2070BD142070BD1A
:101F1000022070BDFEFF0000FA040020F104002042
:101F200010B5801D80B2054911F09CFF002803D038
:101F30000521C94311F038FF10BD0000034C00001B
:101F40000B480A4900688A884261CA88C2618B8846
:101F50004362CA88C2624363C2634364C26409893C
:101F600081651F2141600349C1607047BC2E00207C
:101F70009C0100201F03000010B5FFF763F910BD9E
:101F800001460648006D05E0FF225D32125A8A4282
:101F900002D000680028F7D1704700006C340020A0
:101FA00030B50C4A04460948137C0021406B084DAB
:101FB0005B1C07E08289A24207D0AA4205D0491CD7
:101FC000C9B210308B42F5D8002030BD6C340020EF
:101FD000FFFF0000882E002010B50C46FFF7D0FF51
:101FE00000280FD08179102901D0022010BD4E2188
:101FF0000C54C179002903D031214173002010BD58
:102000003021FAE7122010BD30B54478037824025D
:102010001B198478C57824042D06641989B01B190E
:1020200000934479037924021B198479C579240427
:102030002D0664191B190193447A037A24021B1993
:10204000847AC57A24042D0664191B190293447BF3
:10205000037B24021B19847BC07B24040006201808
:10206000181803904B7808781B02C0188B78CC782E
:102070001B0424061B19C01804904B7908791B0215
:10208000C0188B79CC791B0424061B19C018059045
:102090004B7A087A1B02C318887ACC7A000424068B
:1020A0000019181806904B7B087B1B02C0188B7B0D
:1020B000C97B1B04090659184018079004A96846F3
:1020C000FEF736FF002009B030BD0000F8B5074626
:1020D0002A48C1780020C04300294BD0002F49D0A6
:1020E00027490C6D002C45D00646E079012811D116
:1020F000608EA18D88420DD2627B012A0AD12546CD
:1021000080356A6F002A05D1AA68002A02D1E27BD5
:10211000C02A03D098200159208E0EE0091A686960
:10212000401E41430091A16F0098FEF795FD401CB1
:1021300080B22086AA6900995118814201D30D1AF4
:1021400002E0091A0F480D18AE4200D92E46246845
:10215000002CCAD10C4800688047B04201D8301A20
:1021600006E0B04207D58642F9D2311A0548081870
:1021700038603046F8BD00213960F8BDBC2E002023
:102180006C3400200000C0A898010020FFB583B087
:1021900015460F46FFF7F4FE04003AD02046FF3004
:1021A00042300190417D007D0E020643AE4259D27D
:1021B000681E30183146FEF765FD87B23E48761D31
:1021C00006403846704380B20B2111F04BFE009060
:1021D00000286FD03848A838FFF7E2FE002836D034
:1021E000017B81818034616F002915D0A16F086067
:1021F000A067A16F00200860A06F4581A16F01203A
:1022000048728020A16F00250872A16F0098486075
:1022100017E0022007B0F0BD6067E9E7A06F069BFA
:1022200041683046684308180199801C4A7D097D41
:1022300012020A4311466943C91811F007FE6D1CCA
:10224000EDB2BD42EAD3069811F062FE27E01B48CA
:10225000026B002A02D01A4902209047009811F020
:1022600057FE27E01448A838FFF79AFE00281AD036
:10227000017B81818034616F002912D0A16F0860D9
:10228000A067A16F00200860A06F4581A16F0120A9
:102290004872A06F07720698A16F801E48600020E8
:1022A000B8E76067ECE70548026B002A02D00449F2
:1022B000022090470720ADE7FCFF0000882E002099
:1022C000AA55000010B5044801F06AFF03490872DE
:1022D00000200860486010BDE1220000903200201C
:1022E00070B50D4CC80716D00AE0836842685D08D7
:1022F0006D00D9078560C90F02D0002A00D0904731
:102300002068002805D0016821606268824200D1FF
:1023100061600028E9D170BD9032002010B50348FB
:1023200001F03EFF0249087010BD00003523000097
:102330006402002010B5C8071DD008F077F804002B
:1023400013D00020A06020460CF024FA002806D00C
:1023500020460CF01FFA8268A1685118816020465F
:1023600011F02CF9204612F001FB0CF047FA002185
:1023700012F078FB002010BD184A0020917A5725F2
:102380000B071649A8264031002B05DB0D700E7097
:10239000937A0824234393720D700E7005231381E2
:1023A0000E4F20373B8803246402A3433B80937A7B
:1023B00010242343937200220A700123BC79E4079E
:1023C00001D00020FAE77D242401401CA042F5D969
:1023D0000D700E708B710A70F0E700000010004065
:1023E000F8B50E4D57260D4C0021A827203D00289A
:1023F000267027700ED0012068712871002020708F
:1024000001200AF067FB267027700D20287100203C
:102410002070F8BD29712170F8BD00004010004007
:1024200070B5314809210068C9018162826C0721B9
:10243000090703238A435B07D2188264836C0F2247
:1024400012030324934364031B198364836CCC003D
:1024500023438364C36C0C15A343C364436D80247E
:1024600023434365C36B934322029A18C263C36B31
:102470000A119343A4041B19C363C36BDC0001233B
:10248000E4089B07E418C463C46D0C43C465C56DC0
:102490000C122543C565C56D0E133543C565C56D65
:1024A0009543C565C56AA5435C122C19C462C46A0C
:1024B000944305221206A218C262C26A03242403AE
:1024C0002243C262C26A24012243C262026B120921
:1024D00012010263026BF024A2430263026B8A437F
:1024E000D118016370BD000088020020FFB53B4891
:1024F0000068826D012109048A43826582680A436B
:1025000082600025014680312B468C466E46C168AC
:10251000FF240134A143C16041682202114341609C
:10252000C1682143C1606146C968C905FBD500BFC8
:1025300000BF00BF00BF6146C9680C074168240F97
:10254000914341600F2C01D06D1CEDB2002110E0D1
:10255000725CA2420BD91A4605E0B718203FFF7FF4
:10256000B754521ED2B28A42F7D1745403E0491CC8
:10257000C9B29942ECD3994200D17454032D05D0CD
:102580005B1CDBB2102BC2D3002D1ED03178082982
:1025900002D93246C91E0DE0042902D93246891EED
:1025A00008E0012902D93246491E03E0002902D180
:1025B000032132461170816D0F22D201914332788E
:1025C0001207520D11438165FFBD826D0F21C901B4
:1025D0008A430521C9015118F5E70000880200204F
:1025E00010B51A480068016D01231B049943016569
:1025F00081685C0121438160C26810210A43C26086
:10260000C2688A43C26000BF00BF00BFC2680A43FD
:10261000C2604168012212031143416001468031CA
:10262000CA69D205FCD500BF00BF00BFC969026DF1
:10263000C906C90E1A430265026D520952010A43C6
:1026400002658168A143816010BD000088020020FE
:10265000F0B5FF4887B005686868FF2101318843FD
:102660006860A86A09018843A862E86A1021884363
:10267000E862A8684A031043A86068680843686075
:102680006868400840006860A86BF24A0321104067
:1026900089034018A86368680123184368602C46C2
:1026A000803420694001C10F20698001C00F0029DA
:1026B000F7D00028F5D0206986066069B60EC00301
:1026C000400E01906868400840006860A86BE721F0
:1026D000104009024018A8636868184368602069C0
:1026E0004001C10F20698001C00F0029F7D00028E8
:1026F000F5D020698006800E04906069C003400E0A
:1027000006906868400840006860A86BD3211040BC
:1027100009024018A863686818436860206940018E
:10272000C10F20698001C00F0029F7D00028F5D023
:1027300020698006800E039060692721C003400E47
:1027400002900398301A06464843FEF79BFA0007AA
:10275000216A000F090909010843206226207043FD
:102760002721FEF78FFA0007226A000EF0218A4324
:1027700010432062252070432721FEF783FA0007CB
:10278000226A000D0F2109028A431043206224208F
:1027900070432721FEF776FA0007226A000C0F210A
:1027A00009038A4310432062232070432721FEF748
:1027B00069FA0007226A000B0F2109048A431043BB
:1027C0002062222070432721FEF75CFA0007226A6C
:1027D000000A0F2109058A43104320627001301856
:1027E0002721FEF74FFA0007216A00090F273F064D
:1027F000B9430843206270012721FEF743FA216A9A
:10280000000709010909084320627001801B272184
:10281000FEF738FA0007616A000F09090901084349
:1028200060621E2070432721FEF72CFA0007616AC0
:10283000000EF0229143084360621D20704327215F
:10284000FEF720FA0007616A000D3A14914308432D
:1028500060621C2070432721FEF714FA0007616AAA
:10286000000C3A139143084360621B2070432721F8
:10287000FEF708FA0007616A000B3A129143084319
:10288000606230461A2148432721FEF7FBF9000712
:10289000616A000A3A119143084360623046192187
:1028A00048432721FEF7EEF90007616A0009B943A2
:1028B000084360623046182148432721FEF7E2F9B9
:1028C000616A00070901090908436062304617215F
:1028D00048432721FEF7D6F90007A16A000F09092E
:1028E00009010843A062162070432721FEF7CAF9A8
:1028F0000007A16A000EF02291430843A062152050
:1029000070432721FEF7BEF90007A16A000D3A14B3
:1029100091430843A062142070432721FEF7B2F9C7
:102920000007A16A000C3A1391430843A0621320E8
:1029300070432721FEF7A6F90007A16A000B3A129F
:1029400091430843A062122070432721FEF79AF9B1
:102950000007A16A000A3A1191430843A0623001BE
:1029600030182721FEF78EF90007A16A0009B94344
:102970000843A06230012721FEF784F9A16A00070D
:10298000090109090843A0623001801B2721FEF7D5
:1029900079F90007E16A000F090909010843E062BB
:1029A00030460E2148432721FEF76CF90007E26A02
:1029B000000EF0218A431043E06230460D21484367
:1029C0002721FEF75FF90007E26A000D39148A43F8
:1029D0001043E06230460C2148432721FEF752F9AC
:1029E0000007E26A000C39138A431043E062304664
:1029F0000B2148432721FEF745F90007E26A000B47
:102A000039128A431043E06230460A2148432721A5
:102A1000FEF738F90007E26A000A39118A431043C9
:102A2000E062F00030182721FEF72CF90007E16A78
:102A300000093A4691430843E062F0002721FEF77F
:102A400021F9E16A0007090109090843E06203E08E
:102A500088020020FF00FEFFF000801B2721FEF708
:102A600011F90007216B000F0909090108432063D0
:102A70003046062148432721FEF704F90007010EDE
:102A8000206BF022904301432163B00030182721CE
:102A9000FEF7F8F80007226B000D39148A43104343
:102AA0002063B0002721FEF7EDF80007226B000C31
:102AB00039138A4310432063700030182721FEF732
:102AC000E1F80007010B206B3A12904301432163A8
:102AD00070002721FEF7D6F80007226B010A381193
:102AE00082431143216330462721FEF7CBF80007CC
:102AF000226B000939468A4310432063206B000192
:102B00000009206304990398471A28213846FEF7E4
:102B1000B9F80007616B000F0909090108436063F8
:102B200078002821FEF7AEF80007616B000EF02256
:102B3000914308436063780038182821FEF7A2F813
:102B40000007616B000D0F2212029143084360637E
:102B5000B8002821FEF796F80007616B000C0F22E1
:102B60001203914308436063B80038182821FEF728
:102B700089F80007616B000B0F2212049143084390
:102B80006063062078432821FEF77CF80007616B1C
:102B9000000A0F221205914308436063F800C01B2E
:102BA0002821FEF76FF80007626B00090F21090664
:102BB0008A4310436063F8002821FEF763F8616BD5
:102BC00000070901090908436063F8003818282143
:102BD000FEF758F80007A16B000F09090901084327
:102BE000A06338460A2148432821FEF74BF8000726
:102BF000A26B000EF0218A431043A06338460B21DC
:102C000048432821FEF73EF80007A26B010D0F2074
:102C1000000282431143A16338460C214843282116
:102C2000FEF730F80007A26B010C0F20000382436F
:102C30001143A16338460D2148432821FEF722F8AD
:102C40000007A26B000B0F2109048A431043A06305
:102C500038460E2148432821FEF714F80007A26BDE
:102C6000010A0F20000582431143A1633801C01BF4
:102C70002821FEF707F80007A26B00090F210906BB
:102C80008A431043A06338012821FDF7FBFFA16BA5
:102C90000007090109090843A063380138182821F1
:102CA000FDF7F0FF0007E16B000F09090901084378
:102CB000E0633846122148432821FDF7E3FF00076F
:102CC000E26B000EF0218A431043E0633846132183
:102CD00048432821FDF7D6FF0007E26B000D0F21C6
:102CE00009028A431043E0633846142148432821EF
:102CF000FDF7C8FF0007E26B010C0F2000038243C1
:102D00001143E1633846152148432821FDF7BAFFF6
:102D10000007E26B010B0F20000482431143E163C3
:102D20003846162148432821FDF7ACFF0007E26B27
:102D3000000A0F2109058A431043E0633846172132
:102D400048432821FDF79EFF0007E26B00090F2191
:102D500009068A431043E063384618214843282176
:102D6000FDF790FFE16B0007090109090843E063E3
:102D70003846192148432821FDF784FF0007216CBC
:102D8000000F090909010843206438461A21484305
:102D90002821FDF777FF0007226C000EF0218A43FF
:102DA0001043206438461B2148432821FDF76AFF61
:102DB0000007226C000D0F2109028A431043206492
:102DC00038461C2148432821FDF75CFF0007226C90
:102DD000000C0F2109038A431043206438461D214B
:102DE00048432821FDF74EFF0007226C000B0F21FE
:102DF00009048A431043206438461E214843282191
:102E0000FDF740FF0007226C000A0F2109058A43E5
:102E1000104320647801C01B2821FDF733FF000711
:102E2000226C00090F2109068A43104320647801AF
:102E30002821FDF727FF216C000709010909084334
:102E40002064780138182821FDF71CFF0007616C09
:102E5000000F0909090108436064384622214843EC
:102E60002821FDF70FFF0007010E606CF022904350
:102E7000014361643846232148432821FDF702FFBE
:102E80000007626C010D0F20000282431143616450
:102E90003846242148432821FDF7F4FE0007626CE0
:102EA000000C0F2109038A43104360643846252132
:102EB00048432821FDF7E6FE0007626C000B0F2156
:102EC00009048A4310436064384626214843282178
:102ED000FDF7D8FE0007626C010A0F20000582434F
:102EE000114361643846272148432821FDF7CAFE73
:102EF0000007626C00090F2109068A4310436064D1
:102F0000384628214843FDF7BDFE616C00070901E2
:102F10000909084360643846292148432821FDF700
:102F2000B1FE0007A16C000F090909010843A06464
:102F300038462A2148432821FDF7A4FE0007A26C49
:102F4000000EF0218A431043A064069A0298394685
:102F5000801A0A2200905043FDF794FE082108438E
:102F60000007A16C000D0F22120291430143A164DE
:102F700000983946C2008018FDF784FE08210843F6
:102F80000007A16C000C0F22120391430143A164BE
:102F900000983946C000FDF775FE08210843000778
:102FA000A16C000B0F22120491430143A16400980D
:102FB0003946C200101AFDF765FE082108430007D4
:102FC000A16C000A0F22120591430143A1640098ED
:102FD000062239465043FDF755FE082108430007F5
:102FE000A16C00090F22120691430143A1640098CD
:102FF000394682008018FDF745FE08210843A16C80
:103000000007090109090143A164009839468000BD
:10301000FDF738FE082108430007E16C000F09099D
:1030200009010143E1640098394642008018FDF728
:1030300029FE082108430007E16C000EF0229143AD
:103040000143E164009839464000FDF71BFE08216A
:1030500008430007E16C000D0F2212029143014367
:10306000E16439460098FDF70DFE0821084300078A
:10307000E16C000C0F22120391430143E1643146DD
:103080000020FDF7FFFD0007E16C000B0F2212048A
:1030900091430143E164029A01983146871A384608
:1030A000FDF7F0FD0007E16C000A0F2212059143C5
:1030B0000143E16431467800FDF7E4FD0007E16C6F
:1030C00000090F22120691430143E1647800314662
:1030D0003818FDF7D7FDE16C000709010909014324
:1030E000E1643146B800FDF7CDFD0007216D000F0A
:1030F0000909090101432165B80031463818FDF777
:10310000C1FD0007216D000EF022914301432165AE
:10311000062031467843FDF7B5FD0007216D000D0F
:103120000F221202914301432165F8003146C01B72
:10313000FDF7A8FD0007216D000C0F22120391433B
:10314000014321653146F800FDF79CFD0007216D24
:10315000000B0F221204914301432165F800314610
:103160003818FDF78FFD0007216D000A0F221205A8
:103170009143014321650A2031467843FDF782FDE2
:103180000007216D00090F221206914301432165BA
:10319000696810208143696069684908490069606D
:1031A000A96A02021143A962E96A0143E962A86BB4
:1031B0008109039889010143A963A86B7F2109064E
:1031C0008843029909060843A86307B0F0BD0000D0
:1031D000034800684168FF22013211434160704793
:1031E0008802002070B52548244D427FA02020355C
:1031F0000C464243C907287EEB7E00290AD081078E
:1032000006D5000600D410220421184611F022F839
:1032100001202EE0A1070ED541070AD5000603D5EF
:1032200008211846283202E028220821184611F009
:1032300011F802201DE0610704D500200DF07EFB8F
:10324000042016E0210705D5400701D500F0C2F89B
:1032500008200EE0E0060ED509F04CFB0848C079C6
:10326000062805D11922E87E9201102110F0F2FF04
:103270001020604070BD002070BD0000F42E0020C2
:10328000DC2E002010B504464069002817D020220B
:1032900000211B4810F0C2FE20222146184810F0E1
:1032A000D5FD174C20346068002801D010F030FEA6
:1032B0000020134960608869002802D004E00120E2
:1032C00010BD0020C0438861487F002801D128201C
:1032D0004877887F002801D108208877C87F002898
:1032E00001D11120C877FF2020706070A070E070BD
:1032F000487860778868606148682061002010BD68
:10330000F42E0020F8B5174800688047164EB168C3
:10331000814225D0154F884201D3401A01E0401A5E
:10332000C019114D4409203DA87FA04218D800F0D3
:1033300079F8A87FB2684101241A5118B94202D322
:103340000A4A52428918B160A042F0D90848006880
:1033500001686A78C909C9015206520E1143016019
:10336000F8BD000098010020142F00200000C0A824
:1033700080020020F8B5144800688047134EB168F9
:1033800081421FD0124A884201D3401A01E0401AFC
:103390008018C5060D4FED0E4409203FB87F0CE0A4
:1033A00000F040F8B87FB26841015118084A241A69
:1033B000914201D352428918B160A042F0D9600114
:1033C0002843F8BD0020F8BD98010020142F0020EC
:1033D0000000C0A870B500F055FB114C082125462F
:1033E000607F203D68706069A86020696860E07E49
:1033F00010F06AFFE07E042110F066FF207E810756
:1034000004D50022114622206B6905E0400704D54F
:1034100000226B691146242098470020207670BD59
:10342000142F002070B519490E46203E487EF27FC9
:103430008018C0B27070202801D320387070C0B2DC
:10344000487601252946B46981400C4216D10021F5
:103450000A462B4693401C4201D0491CC9B2521C5B
:1034600052B2202AF5DBFDF7F7FB002210462B466F
:1034700083401C4205D08A4201D1707070BD521C3D
:1034800052B2401C40B22028F1DB70BD142F002046
:10349000FEB5F84AF64F1646F97900251078203621
:1034A000052902D0062976D0D4E1C0074FD0B878DC
:1034B000C0071ED0BD70EF480022436911460120AD
:1034C000984780203871EC48007DC00701D04B231D
:1034D00000E04E23E948816B0091826B8A42FAD169
:1034E000C818E749884201D349424018E549C860F5
:1034F0003AE0F878002837D00024FD7000F0C2FAD6
:1035000078690268D1430906090E06D07178FF294F
:1035100003D0D2B28A4200D00224D64909780906E3
:1035200001D5002200E00246002102F0B3FA014674
:10353000D048214343697A69022098473D71307E23
:10354000800711D5F07E012110F036FE0CE0F878EE
:10355000002809D0FD7000F095FAC64800224369A2
:103560001146012098473D713879C0079CD03D71C4
:1035700000F088FA09F0BEF9B8780006BD48436942
:1035800004D500221146112003E004E00022114678
:10359000122098475EE1C1077AD03978C90778D000
:1035A0007C693D7001AA0021204602F073FA0500F3
:1035B00008D1F078FF2805D02178FF2902D0884271
:1035C00000D00225AB480078000605D4002D05D1B7
:1035D00068460079207016E0002D14D002F082FABF
:1035E000A4487A6943692946032098477068B378EC
:1035F000F278002802D04178801C01E000210846C2
:1036000000F060F905E1307E400718D56078205C55
:10361000802814D1706800280CD03969FF20086018
:1036200095483969807C486097480068C168490BB3
:103630004903C1608F4810220178114301707068FE
:1036400040783A2810D9914C2168914882689202BA
:10365000920E162A10D082689202920E1A2A03D273
:103660008268120C9206F1D1802038718248007D68
:10367000C0070FD04B220EE03022844BD243803360
:103680001A6082689202920E1A2AFAD32160EBE73E
:10369000A0E06AE04E22794B986B0090986B0099FD
:1036A0008842F9D188187649884201D349424018A6
:1036B0007449C8600021774800F088FD307E844658
:1036C00040074DD57C696C4A6078127DC000A030FF
:1036D000F968D20702D01F30400902E06E4A504319
:1036E000400C814201D3091A02E0091A6448091802
:1036F000F960B0680A46814201D3121A02E0121A38
:103700005F4812186378601C185C6346C0001B0693
:1037100010D5824208D9121A07E0081A02E0091AE5
:1037200057480818B06011E0821A202A0ED881424A
:10373000F5D3F2E7814201D3081A02E0091A504892
:103740000818B0606046802108433076F07E022180
:1037500010F032FDB07EC0065BD46078801E6070D1
:1037600044487A692946436951E07978002920D094
:103770007D703D710021084600F028FD3D4C207809
:10378000C0060FD502F0AEF97068B378F278002861
:103790001DD04178801C00F095F82078EF2108407A
:1037A000207036E000F06EF90022114604206369B3
:1037B0002EE03979C9072CD03D712E4CC006E1D4DA
:1037C00000F060F9002211461420636920E0002116
:1037D0000846E0E7787800281BD000247D7000F0D0
:1037E00051F978690168CA431206120E06D0F278C0
:1037F000FF2A03D0C9B2914200D002240246002120
:1038000002F048F9204301461A487A6943690320C7
:103810009847307E400701D5FFF774FD174CA06B29
:103820000090A06B00998842F9D1F068814201D3E1
:10383000081A02E0091A124808187D210902884274
:1038400008D909F057F8A06B0090A06B0099884246
:10385000F9D1F160B07E400724D5F879062821D04F
:103860007068B378F278002818D04178801C17E08F
:10387000DC2E0020F42E0020882E002000100040B6
:103880000000C0A8BC2E00208402002000E100E05F
:1038900000C2004091340000C7100000002108461B
:1038A00000F010F8FEBD000010B5FDF74FFC034816
:1038B00000F076FC0249C876002010BDE53100001A
:1038C000142F0020FFB5644D0C4628689C46016803
:1038D00081B0134689070ED0016DC908C900016582
:1038E00001680822114301600168090703D500BF80
:1038F00000BF00BF00BF59210165584E3068C16A42
:10390000072212059143012252058918C162C16A3A
:10391000072212069143052212068918C1625048F7
:1039200000680168CA094F49D2014F787F067F0EAF
:103930003A4302604A6882608A680261CA684260EB
:103940000A69C26028684268097852085200C907AB
:10395000C90F0A434260434F61462037FB70B9707C
:103960004068C00739D07868002806D14921A01CDA
:1039700010F078FA7860002810D00198002810D054
:10398000002C0ED07968B8780870786822464470A8
:1039900078680199801C10F059FA08E0012005B000
:1039A000F0BD7968B8780870786800244470796848
:1039B0002D484A780069921C10F048FA2B48817C07
:1039C00029480269601D800880001150284800685D
:1039D000C168490B49032143C160B87E04210843F3
:1039E000B876214C402020700020607020710521A5
:1039F000204800F0EBFB0620E0711F48816B00912E
:103A0000816B009A9142F9D1FA6031681B4A00201B
:103A10000B46803312890FE01C69E40109D5C86A9E
:103A2000072212051043C862C86A12019043C86297
:103A300004E000BF00BF401C8242EDDC104800687B
:103A4000002804D0C1680A68406902430A602968F6
:103A5000012008600020A2E79C01002088020020CD
:103A600080020020F42E0020DC2E0020882E002072
:103A7000840200209134000000100040BC2E002081
:103A8000A401002070B50B4C00250B48A5760571EC
:103A90006068002801D010F03BFA002108466560FC
:103AA00000F094FB0521002000F090FB02F01AF8D2
:103AB000002070BD142F0020DC2E0020FFB5B54F74
:103AC00083B038680C460068800701D002F00AF81D
:103AD000B148B24D007E800708D5FFF74BFC102897
:103AE000FBD3A97F490110398142F6D339685A20A6
:103AF0000865AB480068C26A072109058A430121AD
:103B000049055118C162C26A072109068A43052185
:103B100009065118C162A34800680168CA099F4993
:103B2000D2014B785B065B0E1A4302604A688260E2
:103B30008A680261CA6842600A69C2603A6853686A
:103B40000D785B085B00ED07ED0F2B4353600A789F
:103B500002231A430A70944E8021B1700021F17043
:103B60008D4D0599297006996970C16A8908890087
:103B7000C1620168DA06914301600398002809D008
:103B800030692978017044702246801C039910F036
:103B90005DF902E03169287808607E480068406875
:103BA000C00701D0002100E00521804800F00EFB95
:103BB0007D480521C1717A497D4E096800200B4678
:103BC0008033328910E01F69FF010AD5CB6A0727CD
:103BD0003F053B43CB62CF6A07231B069F43CF625F
:103BE0000AE000BF00BF401C8242ECD804E000BFE6
:103BF00000BF00BF00BF401C8242F8D86D4800687B
:103C0000002804D001680A68806802430A60664F91
:103C1000802038716848007DC00701D04B2200E049
:103C20004E226648816B0091816B009B9942F9D1CD
:103C300063499818884201D349424018F060287EB1
:103C400080071ED55F483E6900688047A9688842A2
:103C500001D3401A02E0411A594808184F49C008D8
:103C60000978C90606D55849022400064018396962
:103C7000086006E0A41CE4B27470002131553119CB
:103C800048704D483A69817C601D80088000115061
:103C90004E4908688268520B520322438260806852
:103CA0004B4AC004C00C3A2805D910680190484B13
:103CB000501780331860374B02201B681860086863
:103CC0008068C004C00C3A2861D900BF00BF00BFA3
:103CD00000BF00BF00BF00BF00BF00BF00BF00BFEC
:103CE00000BF00BF00BF00BF00BF00BF00BF00BFDC
:103CF00000BF00BF00BF00BF00BF00BF00BF00BFCC
:103D000000BF00BF00BF00BF00BF00BF00BF00BFBB
:103D100000BF00BF00BF00BF00BF00BF00BF00BFAB
:103D200000BF00BF00BF00BF00BF00BF00BF00BF9B
:103D300000BF00BF00BF00BF00BF00BF00BF00BF8B
:103D400000BF00BF00BF00BF00BF00BF00BF00BF7B
:103D500000BF00BF00BF00BF00BF00BF00BF00BF6B
:103D600000BF00BF00BF00BF00BF00BF00BF00BF5B
:103D700000BF00BF00BF00BF00BF00BF00BF00BF4B
:103D800000BF00BF00BF00BF00BF0198106000204F
:103D900007B0F0BD9C010020142F0020F42E00205D
:103DA0008802002080020020DC2E002091340000D8
:103DB000BC2E0020A4010020882E0020001000400E
:103DC0000000C0A898010020FF02800084020020AB
:103DD00000E100E008B50448816B0091816B009A16
:103DE0009142F9D1104608BD0010004038B5164880
:103DF000816B0091816B009A9142F9D1134C10466E
:103E0000217DC90705D0124900F08AFB8A04810B85
:103E100004E0192100F084FBCA05410A11430D4A50
:103E2000906988420DD0884201D2081A07E0237DAC
:103E3000DB0701D0084B00E0084B181A40189161CD
:103E400038BD002038BD000000100040882E002042
:103E500033030000BC2E002000796F0800603D088D
:103E600003493020087403490120086070470000AE
:103E70002010004078010020FFB581B00C460746B5
:103E8000054600261AE0FF219131681EFCF7FAFE74
:103E900000290AD06421681EFCF7F4FE002907D02F
:103EA0000320A9078007C14202D1FF206F3001E043
:103EB000FF206E3080196D1E86B2ADB23548854246
:103EC000E1D80025012C25D9032C05D0A01E0628F9
:103ED00016DDE00718D115E0FF2191313846FCF7D7
:103EE000BBFE00290AD064213846FCF7B5FE002944
:103EF00001D0B80702D000201C3006E00120FBE70B
:103F0000E00701D01E2000E01F208019641E86B249
:103F1000A4B2D7E7039818213018401E84B2049841
:103F2000FCF79AFEE120C00041430A981E2250434C
:103F300009180B984008081881B20B98C00701D0E7
:103F40000120C0030A0402431348C17B6B46C90920
:103F5000C9011970C17B1B78C909C9019942F4D103
:103F6000694609780029F0D00B49572320310B709E
:103F7000A8230B70084B203B5C63447C80263443B1
:103F800044745A63427C40231A4342740D7005B056
:103F9000F0BD0000E407000020100040002908D018
:103FA000002A02D105E008C808C2491EFBD2002041
:103FB0007047FD207047F7B58CB00C9815460F463A
:103FC000002831D0002D2FD0381D0A9080B2532107
:103FD0000FF048FF04003BD006F036FD06463A4697
:103FE000201D0C9910F0DEF8F0B20990E07030045A
:103FF000000E0890A0703002000E07906070370E1F
:10400000277006F01BFD0146102201A810F0CAF827
:10401000082000900A9805AB82B2214601A80EF054
:104020006DFD060002D00FE0022612E0099828700C
:10403000089868700798A870EF70082205A9281DD5
:1040400010F0B0F806F006FD20460FF061FF00E02A
:10405000132630460FB0F0BD01488069704700005C
:1040600000E000E010B50B4857210170A821017055
:10407000084A8821403A11810189042211430181B3
:10408000002101700A2008F025FD0120FEF7A8F9A3
:1040900010BD00004010004070B50C4601462004E1
:1040A0000AD508460FF0FEFF002801D00FF0D2FF1E
:1040B0000120C003604070BD6004FCD00026324681
:1040C0002046D040C00713D0002901D00F2000E0C7
:1040D00000200B4980184968C00045180120904015
:1040E00086B229686868884700202860686003E015
:1040F000521CD2B20F2AE3D32046704070BD00009C
:104100007C0100200148406970470000BC2E00205F
:1041100070B50FF053FF1C2200211E480FF07EFFE8
:104120001C482022002150300FF078FF1A4D00204B
:10413000286168611748174C1C30007F5034810794
:10414000890F80080818410040180D30C0B2A070D7
:1041500006214843FF210231F0300FF083FE6860F2
:10416000F030A860A17889000818E8600FF094FF8B
:1041700010F056F86078094A8100A86842506178CA
:10418000491CC9B26170890042506078401C60705F
:1041900070BD00006C2E00207C01002099400000C2
:1041A00010B50849024648788B78984207D2064CE9
:1041B0008300A468E2504A78521C4A7010BDFF2068
:1041C00010BD0000BC2E00207C010020072902D277
:1041D000014A8900505070476C2E0020FEB5864D74
:1041E00002E0804701F0AEFC28680028F9D10124E4
:1041F000A0002858002807D080477F481C30407D09
:10420000002801D0FDF71EF82868002875D1641C2D
:10421000E4B2072CECD3784C784E50346278F068D6
:1042200021784B00C35A002B04D1491CC9B221701C
:104230009142F5D3C9B2914211D24A00815A00236A
:1042400083522078B36882009A5890472178F268A8
:104250004900535A034353522078401C2070207861
:104260006178884201D300202070634800680028EC
:1042700043D17069002840D0804700283DD0616953
:104280000546091861610021C9435C48216106693E
:10429000002E29D00027B068A84201D8002000E0F5
:1042A000401BB06054481C30406A002804D021698B
:1042B000B068814200D92061B06800280DD17188B2
:1042C00000291BD030780FF077FF7068002801D0EC
:1042D000B06002E0B068002810D0708800280DD0CF
:1042E0003746F668002ED6D1434D1C35686A002843
:1042F00003D00020414A617814E07CE0002F06D012
:10430000F068F8603046F6680FF002FEEAE73B48D6
:10431000F1680161F6E7D6684300F35A002B6AD1D1
:10432000401CC0B28142F6D83349032082008A582B
:10433000002A60D1401CC0B20728F7D301A8FDF7BE
:10434000C5FE02462E49401C24D0EB7C019EB342A0
:1043500051D22069471C16D02A7DD20702D01422E0
:10436000504302E0292250434008834243D2864210
:1043700000D23046C61A2348826B0092826B009BA3
:104380009A42F9D11DE09A4201D3D01A1FE0D01A07
:1043900040181CE02069421C2DD02A7DD20702D093
:1043A0001422504302E0292250434008EA7C824212
:1043B00021D2861A1348826B0092826B009B9A422C
:1043C000F9D19819884202D30D4A52428018002828
:1043D00002D0696A884702E06A6A08469047000688
:1043E000000E08D12089002805D0FDF70DF9FDF752
:1043F000A7FDFCF789FEFEBD6C2E00207C0100208D
:104400000000C0A80010004010B504460848C16A6A
:10441000002900D088470748002C01D0046001E043
:1044200005490160054800F00BF8002010BD0000B0
:10443000882E002098010020D53D0000ED3D0000B1
:1044400010B50349486180470249886110BD0000EA
:104450007C010020BC2E002010B50446FDF708FCAE
:104460000A214843C0082146FCF7F6FB0A21401DFB
:10447000FCF7F2FB0149888110BD000000340040C8
:1044800010B5E1204002FFF7E7FF05488721817062
:104490000321C170402141700121817310BD0000D2
:1044A00000340040F0B5144EFD23757A84247472F4
:1044B000124CA768002F07D0A77B002F04D0A48937
:1044C000E71FFF3FFA3F02D07572FF20F0BD7D2449
:1044D000E402A0420AD34027491E07D3706008CAED
:1044E00033609A233372B37A7B4002D075721846D8
:1044F000F0BD001DF0E7000000180040882E0020ED
:104500000FB410B503A9044B044A029800F0E8F870
:1045100010BC08BC04B01847DDA400002005002032
:10452000F8B5040C8BB2264682B25E430D0C1046E1
:10453000370C5843360480190021794116466E43E2
:10454000370C36048019794126466E438919F8BD27
:1045500030B47446641E2578641CAB4200D21D46FC
:10456000635D5B00E31830BC184702E008C8121F07
:1045700008C1002AFAD170477047002001E001C14C
:10458000121F002AFBD1704710B51C4613468C42FF
:1045900005D822461946FCF7BFFB204610BD002077
:1045A00010BD0000FFB5044681B080680D9E1D4619
:1045B0000F4600280ED045490968002904D1002D76
:1045C00002D00A2005B0F0BD4169002904D10B9941
:1045D000002901D00720F5E7002F40D0039801F013
:1045E00055FD002870D0A06801218088C903421AB7
:1045F00049108A4204D202F03FFF002110F0A5F8D2
:10460000A0684189C904C90C4181A0688780A1685C
:10461000039AC8881205000B0003120D1043C880CE
:10462000012212039043EA07D20CA1681043C8800C
:10463000A1680A980872A1680B988872A1680C9802
:104640004872A0684069002836D0204603F008F977
:104650000100A0682DD0183007F04AFE2CE08088B9
:104660000028AFD00121C903421A49108A4204D25E
:1046700002F002FF002110F068F8A068002282809A
:10468000A1680123C8881B03000B0003C880A16830
:104690009843C880A0680272A0688272A0684272C3
:1046A000A0684189C904C90C4181A06841690029F9
:1046B00002D0183007F0FEFD002E02D0204604F094
:1046C000CCFC00207EE7FFE703207BE7A00300206F
:1046D00010B502998A78098809F0D6FA10BD000051
:1046E000FFB591B00F460546002606E025280AD002
:1046F000149A139990476D1C761C28780028F5D1E0
:10470000304615B0F0BD002400940121F34A029414
:1047100000E004436D1C2B780846203B9840104273
:10472000F7D128782A280ED0022128780246303A7C
:10473000092A15D8009A0A235A43303A80180C43A4
:104740006D1C0090F1E701CF0090002805DA0120F0
:1047500040030443009840420090022004436D1C33
:1047600028782E2815D10420044368786D1C2A2847
:104770000AD101CF6D1C02900BE002990A2251432D
:10478000303940186D1C02902878014630390929CB
:10479000F3D928786C2810D006DC4C281AD0682869
:1047A0000ED06A2817D104E0742813D07A2812D1C9
:1047B00010E00120400504430CE00121090501E05F
:1047C000032109050C436978814203D101200005CA
:1047D00024186D1C6D1C287803906E281ED00CDCEC
:1047E000632831D004DC00288AD0582811D1B2E0E7
:1047F00064287BD069280CD178E073282DD004DCA4
:104800006F2870D0702804D1A7E075286CD0782864
:104810006BD0149A13999047761C62E06002400FA7
:10482000022807D003280AD0042838680AD0066076
:104830003F1D56E03868F11706604160F8E73868B8
:104840000680F5E70670F3E73878694608740020BB
:10485000487404A80390012003E038680390002006
:10486000C0433F1D61070FD5002101E00199491C9C
:10487000029A0191914213DA8142F7DB019A03997E
:10488000895C0029F2D10BE0002101E00199491C6B
:1048900001918142FADB019A0399895C0029F5D1E3
:1048A00001990098139A401A00902146149B00F039
:1048B0003BF901998019461807E00398039900789D
:1048C000491C0391149A139990470198401E019036
:1048D000401CF2D12146149B139A009800F014F961
:1048E00086196D1C09E741E033E034E00A2000211D
:1048F000049005916002410F022905D001CFC21733
:104900009446032905D007E0FF1DFF08FF0003CFF1
:1049100006E000B2C2179446042902D140B2C11782
:104920008C4600226146944506DA0A460021404240
:1049300091418C462D2102E0210504D52B216A46A8
:104940001176012103E0E10701D02021F7E7019171
:1049500054E00A200BE0102009E010200490002110
:104960000420044308200591029003E00820002160
:10497000059104906002410F022905D001CF002269
:104980009446032906D006E0FF1DFF08FF0003CF71
:104990008C4603E080B2042900D1C0B2002101910D
:1049A00021072BD50399702906D0049A1021059B65
:1049B0004A401A4305D00EE040216A461176012193
:1049C00008E06146014306D030216A46117603991A
:1049D000517602210191049A0821059B4A401A430D
:1049E0000CD16146014301D1610707D530216A46E8
:1049F0001176012101910299491E029103995829CA
:104A000004D037A103910FA90F910DE039A1F9E767
:104A10006146059B049AFCF7D6F9039B8C469B5C88
:104A20000F9A521E0F92137061460143F0D10F98F6
:104A300007A9081A20300390600704D5012000045C
:104A40008443029801E0012002900399884201DD2D
:104A5000401A00E0002041180290019809180098BF
:104A6000401A0090E00306D42146149B139A009844
:104A700000F05AF886190020049008E006A9085CA6
:104A8000149A139990470498401C761C049001993D
:104A90008842F3DBE0030CD52146149B139A00985F
:104AA00000F042F8861904E0149A302013999047D8
:104AB000761C0299481E02900029F5DC08E00F9848
:104AC0000F990078491C0F91149A13999047761CFE
:104AD0000399481E03900029F1DCFBE60928010038
:104AE0003031323334353637383961626364656664
:104AF0000000000030313233343536373839414226
:104B00004344454600000000F8B5044600251E4613
:104B10001746880404D405E039462020B0476D1CB0
:104B2000641EF9D52846F8BDFFB50446002581B0BE
:104B30001E46C80301D5302700E02027880404D58D
:104B400005E038460399B0476D1C641EF9D5284628
:104B500005B0F0BD134610B50A461946FCF7F0F84B
:104B600010BD000070B500F01BFA1C214843042161
:104B700009F060F90625ED43002818D00D4CE060DF
:104B800000F00EFA1C214843042109F053F90028D3
:104B90000DD00949086000F003FA208000F000FA07
:104BA00060800648A06006486060002070BD28460E
:104BB00070BD0000502F0020B0010020744E010095
:104BC000E14F000010B507F059FD182148430421BA
:104BD00009F030F9002803D003498860002010BD97
:104BE0000620C04310BD0000CC01002070B505F0C8
:104BF00013FF441C05F00AFF44431C2060430421BA
:104C000009F018F90625ED43002821D0114CE06089
:104C100005F002FF461C05F0F9FE46437000022134
:104C200009F008F9002813D00B49086105F0F4FEDB
:104C3000451C05F0EBFE4543258005F0EDFE451CC7
:104C400005F0E4FE454365800448A060002070BD87
:104C5000284670BD1C33002084030020744E0100E0
:104C6000F8B53E4F386800282DD005F0CFFE6821FA
:104C70004843042109F0DEF800286CD0384E0024A7
:104C800030621CE005F0D4FE4000022109F0D2F8A9
:104C9000002860D06822254655432A46316A1032E2
:104CA000885005F0BFFE0C214843042109F0C2F8EA
:104CB000002850D0316A3035641C4851E4B205F008
:104CC000A5FEA042DED8274938680968264D08436A
:104CD00009D005F09BFE4A214843022109F0AAF8B9
:104CE000002838D0E86000F0C3FC282148430221A6
:104CF00009F0A0F800282ED0194C803460620EF024
:104D0000F3FBE4214843042109F094F8002822D061
:104D1000A0620BF08DFE002808D00BF089FEC000C9
:104D2000042109F087F8002815D0E0620AF060FF3E
:104D300016214843022109F07DF800280BD020629B
:104D400009F072F88000042109F074F8002802D0FC
:104D500068600020F8BD0620C043F8BD8403002031
:104D6000E42F0020A0030020F401002070B50024EF
:104D70000A4D0BF0B1FA4000022109F05BF800285F
:104D800009D0542161434919641C24064860240E4B
:104D9000EFD0002070BD0620C04370BD64330020FA
:104DA00070B500F065FC04460EF09EFB2018400034
:104DB000022109F03FF80625ED4300280CD0074CEE
:104DC00060600AF015FF8000022109F033F8002826
:104DD00002D0A060002070BD284670BD04020020F3
:104DE00070B50FF097FB48214843082109F022F8DD
:104DF0000626F643002838D01D4D002468600EE0DA
:104E00000FF08EFB8000042109F014F800282CD04C
:104E1000482161436A68641C8918E4B248600FF055
:104E200079FBA042ECD80BF07FFE8001082109F04D
:104E300001F8002819D00024A86010E00BF06EFEE5
:104E40000C21FBF709FF8000042108F0F3FF002884
:104E50000BD0A101AA68641C8918E4B248600BF069
:104E600063FEA042EAD8002070BD304670BD00004D
:104E700058020020036882689A4201D2436899541C
:104E80008168491C816070470149FF2008707047A4
:104E90004402002070B50446007EFF2801D101F0D5
:104EA00037FF32214843054600219635E0690A461E
:104EB000012633468B40034201D0521CD2B2491C1A
:104EC000C9B22029F5D3E07D6421C006C00E801A46
:104ED00048434019FF212D316430884200DC0846E8
:104EE00070BD0000F7B582B01746054601F0B4FE6C
:104EF0000446039800212818401EC94386B2002C9E
:104F00001BD0002D19D00120C003854215D2002EE0
:104F100013D0864211D2039800280ED003F078FCFB
:104F20002289411E511889B2864209D38D4207D881
:104F3000002F1FD0491C39801CE0084605B0F0BD89
:104F400011480024009019E00098016A162060437F
:104F5000081842880D498A420FD00188027D481EF8
:104F6000101880B28E4208D3854206D8002F01D097
:104F7000401C38800520C043E0E7641C0AF038FE7E
:104F8000A042E1DC0020D9E764300020FFFF0000F0
:104F90001C2148430149096840187047B0010020AE
:104FA0000148006800787047BC01002010B500225D
:104FB000D2430D21002000F001FF10BD10B5C089C3
:104FC00001F0ACFA09F0A5F800F020F8002803D0B1
:104FD000018A024807F08CF910BD0000342F002030
:104FE000416908394161C160418A08314182018AC1
:104FF000083101827047000000487047602F002090
:105000000149087170470000602F002010B5054865
:105010000EF04EFB002801D0002010BD01480068B2
:10502000143810BDB401002030B5044625488FB0B7
:10503000016C059107A904914830069107C801AB9E
:1050400007C3214869468089C880A0694069002853
:1050500029D06078002832D0401E6070207B887391
:10506000A069028AC16804A808F09BFF154B04AA36
:10507000803B01A91448009402F0FAFC050010D00E
:10508000104912A02F31FFF73BFA294613A0FFF772
:1050900037FA1BA0FFF734FA0A21C943204606F06D
:1050A0000BFF0FB030BD074908A02F31FFF728FADA
:1050B00014A0FFF725FA12A0FFF722FAF1E7162154
:1050C000C943EBE75C4C01003C0100204150505FBC
:1050D0004442472025733E2000000000556E616267
:1050E0006C652073656E64206D6F64656C206D6502
:1050F000737361676520286572723A256429000020
:105100000A0000004E554C4C2062756600000000FD
:1051100001494860704700004402002001480068CF
:10512000C0787047BC01002002494878421C4A7090
:105130007047000038010020F8B517480FF0B4FAA6
:1051400015480AF0E3F80FF011F869460090134C87
:1051500008786178124E4018694649783346081835
:105160006946897808186946C9780818607000206F
:10517000543301251C2141438A194101C9188A6110
:105180002A468240401C0A770328F3DB0548FFF7D4
:1051900007F820700020F8BDE44B01003801002022
:1051A000980D0020A951000070B50A4A0C46002055
:1051B00041018918097F214207D040018018054626
:1051C000FFF732FF287F604070BD401C0328EFDBF3
:1051D000002070BDEC0D002070B505468AB0164861
:1051E00016468069029006A80C460190039004AA16
:1051F00005A9304607F019F9104901A802F007FB8C
:105200006846018A0023808A326800F02FF901463F
:1052100001A808F0D1FE6846028A818A01A807F039
:10522000F5F800200346009001AA2146284602F026
:105230001FFC0AB070BD00008C4E0100038000000E
:10524000F0B5044625680888AD8B0026F64387B084
:10525000A84210D1257DA80705D50879002802D0DD
:105260000846163000E0481D08A9097C0778890621
:10527000890EB94202D0304607B0F0BD0A49ED07A9
:105280000968ED0F491B65892489059104920F99DE
:1052900003950193009102940021401C0E9B0D9AEE
:1052A00000F05FFEE8E70000E42F002070B506463E
:1052B0008AB01F481346006B029006A80D46019065
:1052C000039004AA05A9184607F0AFF86846808A3B
:1052D00003F0AAFF00280CD06846008A00F0D6FE32
:1052E000002808D06A460188928A91421CD0112475
:1052F00002E0042400E000240E4901A802F087FA2D
:10530000214601A808F058FE6846028A818A01A851
:1053100007F07CF800200346009001AA2946304699
:1053200002F0A6FB0AB070BD012100F095FEE2E795
:105330008C4E010003800000F7B529498AB0C96B83
:10534000029104A901911046039108F064FE2549D9
:105350000646884242D8244901A802F058FA30464D
:1053600003F062FF00280BD00024214601A808F0BA
:1053700023FE314601A808F007FE002C26D101E0EB
:105380000424F2E7194C1A4800252746009013E040
:105390000098416A2820684308180188B14209D161
:1053A000BC4201D1448805E04288214601A807F0AB
:1053B0002DF83C466D1CADB200F05AF9A842E7D872
:1053C000BC4203D0214601A808F0DEFD00200346C0
:1053D000009001AA0B990A9802F04AFB0DB0F0BDAB
:1053E0008C4E0100FF0F000002800000FFFF000054
:1053F00064300020F8B5064600240B4D0B4F0CE03E
:105400002820696A604308180188B94204D040889E
:10541000B04201D10120F8BD641C00F029F9A0427E
:10542000EEDC0020F8BD000064300020FFFF00002B
:1054300030B50C480C49406885B0C06814468842B5
:105440000ED1104608F0FCFD0546204608F0E3FDAD
:1054500069460881002003902946684604F03EF919
:1054600005B030BD7C03002002800000FFB581B094
:10547000064603F0D9FE070035D0029800F006FE7C
:105480000446049800281DD0002C05D02088B04286
:1054900004D0112005B0F0BD0320FBE72546F87FBE
:1054A0001635012809D12079002808D01022681C5F
:1054B0000399FBF76CFC0028ECD00B20EAE70120F5
:1054C000207118E0002C10D02088B04206D11022A4
:1054D000A01D0399FBF75BFC0028DBD02088B042BD
:1054E00001D10620D6E70420D4E7029800F09CFD05
:1054F00004000DD0651D2946039801F065FF0028C2
:1055000008D00498002801D0002020710920C1E7AC
:105510000520BFE72680029860801022681C03994E
:10552000FBF7FAFB204603F04DFD0020B2E7F0B593
:1055300089B01E4617460C46002814D010220021C0
:105540000DF0A6FE85B2002C11D023236A46314609
:10555000384607F0E9FB002807D1284600F096FD01
:1055600004000ED012E00720C04309B0F0BD284669
:1055700000F08CFD002802D0002100F06DFD00201D
:10558000F3E7284600F050FD04001ED0684600886E
:105590002080658068468078207100A91022A01DB7
:1055A0000331FBF7B9FB2046173004A9102205464A
:1055B0000331FBF7B1FBA01D611D01F005FF214682
:1055C0002846163101F000FFD9E70820C043CCE798
:1055D00030B50B480B49406887B0C0681446884214
:1055E0000CD1104608F02CFD054606AA05A9204658
:1055F00006F01BFF2946684604F070F807B030BD7E
:105600007C0300200380000070B505468AB0164870
:105610001646406A029006A80C460190039004AA20
:1056200005A9304606F001FF104901A802F0EFF885
:105630006846018A0123808A3268FFF717FF014616
:1056400001A808F0B9FC6846028A818A01A806F020
:10565000DDFE00200346009001AA2146284602F004
:1056600007FA0AB070BD00008C4E010003800000F4
:1056700001480068007A7047BC010020FFB583B084
:105680000C9C1646002C01D0002708E00127039847
:10569000FBF7D0FC0421FCF743FC040014D0267077
:1056A00004980125002805D0049A601C06999047AB
:1056B000401C85B2300614D51021039807F05CF821
:1056C000002804D0192616E0132007B0F0BD621997
:1056D00029462046FEF76FFC0C350646ADB2002881
:1056E00009D104206946088001944D800398FCF795
:1056F000D9FB0600E9D0002F02D020460EF008FCAE
:105700003046E2E710B50BF0BFFF10BD083807D0F8
:105710004168002904D04969002901D00068084780
:10572000704770B50C46054600F005F8214628463E
:105730000BF0AAFF70BD10B50446104608F080FCBF
:105740000146204600F0D8FD10BDF0B51F460B46BF
:10575000014685B015460446213108220A9E1846A6
:105760000391FBF714FB00280FD101A800902046FD
:105770003B4629464930039A00F0EEFD082201A974
:105780003046FBF704FB002802D0002005B0F0BD36
:105790000120FBE7FFB51F4685B0484B0E9D0F9CCF
:1057A0009868002A0BD0027D002A08D00269002ADE
:1057B00005D00120607020700020E0707AE0427D0A
:1057C000AA4200D21546C08AC20606D50A0704D5E9
:1057D000032024260390042018E0000713D0480774
:1057E00011D048070A26400F05F042FD401EC0B206
:1057F000039032488068807D0007000F05F038FD77
:10580000401EC0B202E00026304603962B490190AC
:105810008868027EBA4200D21746408B020708D53C
:10582000059AD20605D5242000900420029003207A
:105830001BE0400716D00598000713D00A200090FF
:1058400005980007000F05F013FD401EC0B202903E
:105850001A488068807E4007400F05F009FD401E11
:10586000C0B202E000200090029000993A464A43FC
:105870002B46734303219A4209D902226270217098
:105880000299E170A0706771277109B0F0BD002E18
:105890000BD0002D09D06170022020700398E070B9
:1058A0000198A07065712571EFE70020607020708D
:1058B000E070A07060712071E7E7000044020020F2
:1058C00010B50C4606F04BFD206010BD30B5054606
:1058D0000D4887B0806C029004A80C46019003909C
:1058E0000A4901A801F093FF00F0B2FD014601A8AA
:1058F00008F062FB00200346009001AA21462846DA
:1059000002F0B6F807B030BD8C4E01000B800000ED
:10591000F8B503F095FE002801D0642130E001F0D5
:10592000AFFC002830D01A490878002804D00020A5
:105930000870002816D101E00120F9E70024154D78
:10594000154E27460AE0E420A96A60430818818BB7
:10595000B14202D0417901714771641C0DF0C4FD60
:10596000A042F0DC0BF062FB00F072FD012806D0D3
:1059700008480321783800F080FC002803D007494C
:10598000074806F0B5FCF8BD0EF008FEF8BD0000B3
:10599000C801002064300020FFFF00001027000035
:1059A000902F002070B50546194886B0406D0290D2
:1059B00004A801900390AC6A0E46002C13D0106826
:1059C0000078002801D001281FD1E17988420AD04F
:1059D000E07103F01FFBE079002802D000F014FD15
:1059E00001E000F001FD0B4901A801F010FF00F0FB
:1059F0002FFD014601A808F0DFFA002003460090C1
:105A000001AA3146284602F033F806B070BD000006
:105A10008C4E01000B80000000B50849084B496816
:105A200085B0C9681046994205D108F009FB0146C6
:105A3000684603F053FE05B000BD00007C03002063
:105A40000B800000F7B5064609F096FEFFF7AEFAA8
:105A500004001AD00E4D20460C300746E96A08F0C3
:105A600087FA0021384608F0A7FAB000C01CC1B27E
:105A7000384608F0A1FA3846029A019908F091FADE
:105A8000EC640CF0F7F90020FEBD0620C043FEBD1B
:105A9000F831002030B5437803245B1D2343C45CF8
:105AA000E50601D5012030BD002903D0210601D52E
:105AB000022030BD002A03D0C1182039C97F1170DF
:105AC000C1182039487F897F4907490D0843044997
:105AD000420502D51F22D20210430880002030BDAB
:105AE000A001002010B514480068016889070ED095
:105AF000016DC908C90001650168082211430160F0
:105B00000168090703D500BF00BF00BF00BF002226
:105B100002650A4B586800280AD041680C68806802
:105B200004430C60586801690B68406903430B60CB
:105B30000348C27110BD00009C010020A00100209C
:105B4000DC2E002008B51148407D002801D0FBF76D
:105B500079FB0F4B1879000612D50E48816B009126
:105B6000816B009A9142F9D10B491046C968012214
:105B7000814202D8401A02D502E0081A00D51A71F3
:105B800006488069002800D0804708BD882E002084
:105B9000DC2E002000100040BC2E00206C2E0020C7
:105BA0001CB50D2239A13D480EF042F9002813D052
:105BB0003B4800900120C00201906B46394A3A49A7
:105BC0003A4800F037FF040011D0394939A0FEF7F8
:105BD00097FC21463BA030E0354936A0FEF790FC0B
:105BE00041A0FEF78DFC45A0FEF78AFCFEE705F01C
:105BF00091FB2F48F43801F049F803F0F5F802F072
:105C0000B3FE3F48FFF784FA2948E43802F05CFE0F
:105C1000044601F02BFD02F033F903F027FB00F0FE
:105C20001FFC00F021F903F0AFF92149002C21A05D
:105C300006D0FEF765FC214632A0FEF761FC21E0AC
:105C4000FEF75EFC38A0FEF75BFC2CA0FEF758FCCC
:105C50000CF088FC01F014FB00280AD0144915A0B0
:105C6000FEF74EFC36A0FEF74BFC24A0FEF748FCE6
:105C700001E009F0C7FE0E490EA0FEF741FC39A075
:105C8000FEF73EFC1DA0FEF73BFC1CBD4D455348F6
:105C90005F4C49425F56312E310000004A4E0100F0
:105CA00024050020D44B0100F44D0100C04D01003B
:105CB000C44B01004150505F4442472025733E20B1
:105CC00000000000556E61626C652073657420638E
:105CD0006F6E66696775726174696F6E2028657290
:105CE000723A256429000000686561642066696C69
:105CF00065206572726F722E2E2E0A000A00000057
:105D000004000020496E697469616C697A696E6784
:105D1000206D657368206661696C65642028657212
:105D20007220256429000000426C7565746F6F74E1
:105D30006820696E697469616C697A656400000045
:105D40004D657368206E6574776F726B2072657332
:105D5000746F7265642066726F6D20666C61736823
:105D6000000000004D65736820696E697469616C9C
:105D7000697A65640000000030B50D46ADB001469B
:105D8000144668460DF0ADFC002809D06A46294645
:105D900020460DF0B4FC002802D000202DB030BD0C
:105DA0001120FBE710B5084605F040FB05F028FB85
:105DB00010BD10B505F006FB10BD0000F8B5144687
:105DC0000E4605460EF05EFC02462032334615496B
:105DD0001548009400F02CF8041E22D004F0CEF9EF
:105DE000014620460C300622074608F0DAF8012169
:105DF000384608F09EF80D48415D384608F0DCF85A
:105E0000606908306061E060608A08386082208ADA
:105E100008382082A06900210160416081604672DB
:105E20002046F8BD914F0000502F0020404E010049
:105E3000F8B50D460746144601210A48069E00F0B3
:105E40000AFA002801D00020F8BD32462146384623
:105E500008F02EF8041EF7D008F05EF8A847A061FD
:105E60002046F8BDEC2F002010B504480021016049
:105E700041600349034806F027FA10BDB401002031
:105E8000D9C10000342F0020F8B517460E4605464C
:105E900008F04BF884694021C0C4207808434006CC
:105EA000400E2070002020812846083C08F034F87D
:105EB000E081607A0A21C008401C48436073607A20
:105EC0004007400F401C2073287C6969401C203922
:105ED0008877214614310A480DF0B7FB094806F0CF
:105EE000FCF900280BD107480021083000F0B3F975
:105EF0000006000E03D10021024806F0F9F9F8BDB2
:105F0000B4010020342F0020F0B5C3B00C46154674
:105F100001461F4616AA68460DF04EFC0A26F643B7
:105F2000002814D008E006CC6846083C0DF070FC50
:105F300000280CD008346D1E002DF4D16946384677
:105F40000DF0F2FB002802D0002043B0F0BD304637
:105F5000FBE71CB50192009101226946FFF7D4FFCF
:105F60001CBDFFB589B01C46174615A80DC88C4648
:105F700014990293019200900B46129E139D3A468B
:105F8000614604A803F06CFF002F01D0082000E058
:105F900004203268002D01D0102100E00021019181
:105FA000039000950292A38804A92268099800F042
:105FB000BDFA050003D1A188304607F0BAFF284694
:105FC0000DB0F0BDFFB589B01C46154614A80DC82C
:105FD000139F029301920090129E3B462A4604A80A
:105FE00003F03EFF002D01D0082000E004202268CD
:105FF000002E01D0102100E00021019103900096B5
:106000000292A38804A9099800F0BAFB060007D100
:10601000002D01D0082100E00421204607F089FF6F
:1060200030460DB0F0BD000070B50024084D094E9B
:1060300007E02820696A604308180188B14205D04A
:10604000641CFFF715FBA042F3DC002070BD0000CC
:1060500064300020FFFF000038B50D46044640883C
:10606000694608808D70084801F072FB002D02D04F
:10607000204600F077FD0020C04320802221601DD3
:10608000FAF765FE38BD0000D1460000F8B50646B7
:1060900000240A4D0A4F0AE02820696A6043081864
:1060A0000188B94202D04188B14205D0641CFFF793
:1060B000DFFAA042F0DC0020F8BD000064300020D0
:1060C000FFFF0000FFB5064681B023480A9D1C462D
:1060D0000F46814207D0401E874209D1039800F045
:1060E00049FE002804D0002028701C48206030E0C1
:1060F0001948401E87420ED10E21194800F0E1F8E0
:10610000002808D0039802F001FB00280ED0001DE3
:10611000206000201CE0002E08D03846FFF7B6FFB4
:10612000002807D0F17F022907D00EE00020C043ED
:1061300005B0F0BD0720C043FAE70179002904D07B
:10614000014617312160807D02E0811D2160407988
:1061500028700020ECE70000FEFF000074300020F3
:10616000F8300020CB06DB0E01229A404909890055
:106170004358934343507047CB06DB0E01229A40AD
:10618000490989004358134343507047CB06DB0E3F
:1061900001229A40490989004358134343507047EC
:1061A000CB06DB0E01229A4049098900435813436C
:1061B0004350704710B5CC06E40E0123A3404909B3
:1061C0008C000159002A01D0194300E09943015184
:1061D00010BD10B5CC06E40E0123A34049098C0084
:1061E0000159002A01D0194300E09943015110BD23
:1061F000CB06DB0E01229A4010B549098B00C1582D
:106200000C469443C450114201D0012010BD00201F
:1062100010BDCB06DB0E01229A4010B549098B0058
:10622000C1580C469443C450114201D0012010BD06
:10623000002010BDCB06DB0E01229A4010B54909A3
:106240008B00C1580C461443C450114201D00120A8
:1062500010BD002010BD4A0992008058C906C90E21
:10626000C840C007C00F70474A0992008058C9064D
:10627000C90EC840C007C00F70474A099200805835
:10628000C906C90EC840C007C00F70474A0992002E
:106290008058C906C90EC840C007C00F70474A09D8
:1062A00092008058C906C90EC840C007C00F704789
:1062B0004A0992008058C906C90EC840C007C00FDD
:1062C00070474A0992008058C906C90EC840C007E5
:1062D000C00F70474A0992008058C906C90EC840CD
:1062E000C007C00F70474A0992008058C906C90EFE
:1062F000C840C007C00F704770B50E46050015D0E6
:10630000AC6A002C11D0002E16D06068002804D092
:106310000269002A01D0284690477D20C0003146FE
:1063200041432046083005F0E3FF70BD094804688A
:10633000002CFAD02568E6E72046083005F0BAFFC1
:1063400060680028F1D041690029EED028468847CE
:1063500070BD0000F001002070B588B004461E46F4
:1063600068460C9D1346017008221946401CFAF736
:10637000D3FC02A9304601310DF05CF904AB0D22CB
:1063800069462046FFF7E5FD040004D1082204A970
:106390002846FAF7C1FC204608B070BD70B50E461D
:1063A000044601F059FD0146A07F002802D0254691
:1063B000893501E025463035304607F0FDFD294698
:1063C00008222131304607F0ECFD064801683046CE
:1063D00007F0CEFD214608222831304607F0E1FDC6
:1063E00070BD0000E42F002010B503210448FFF722
:1063F00044FF002802D1034805F05CFF10BD0000F7
:10640000EC2F0020902F0020F8B500F039FF002875
:1064100014D000240B4D0C4F26460BE0E420A96A53
:1064200060430818818BB94203D00671467101F0B0
:1064300055FB641C0DF058F8A042EFDC034805F052
:106440009BFFF8BD64300020FFFF0000902F00206C
:1064500002484068002800D0C0797047CC01002075
:1064600010B50249024805F02FFF10BD1159000078
:10647000902F00200B4A10B50823D11A89680028F4
:1064800005D019430848116005F076FF10BD994307
:106490001160FFF7DDFF0028F8D1034805F00AFF7F
:1064A00010BD0000EC2F0020902F00207CB504468A
:1064B0008088002809D0204607F0C2FD002805D0BA
:1064C000012802D120460AF023FD7CBD03F0B8F874
:1064D0000028FAD1A088122801D01628F5D1102161
:1064E000204607F0A5FD0646204607F078FD054644
:1064F00000200090A088042805D1204607F07DFDEB
:10650000019001A8009002F0D9F9846A002CDCD037
:106510006B462A4631460120A0477CBD10B5014696
:10652000014808F07CFF10BD502F0020FFB59BB044
:106530001E98259E1746002803D0FF2000028642A1
:1065400003D30020C0431FB0F0BD0120694608708E
:106550000D2268441C99FAF7DFFB03A902310020E1
:1065600018910DF063F810AA69461B98FFF704FC18
:106570000028E8D12798082803D0002E08D0402012
:1065800007E0002E01D0402000E00020192101E0AA
:106590000020092108436946087000A80D22013037
:1065A0001C99FAF7B9FB1E98189980B20DF03EF8C5
:1065B00004AA69461B98FFF7DFFB0028C3D1002E11
:1065C0003ED0B0B269460DF031F80024694604AA05
:1065D000105D0B5D58400855641C022CF8D3002553
:1065E000B61C13E0684604A9249B0A5D5B5D6D1C24
:1065F0005A400255641C102CF6D30A46014600246A
:10660000103E1B98FFF7B8FB00289CD1102EE9D84C
:106610000020694604AA06E0249C135C645D634084
:106620000B54401C6D1CB042F6D302E0905D8855BF
:10663000761C102EFAD31B98FFF79EFB002882D100
:106640001E980F210507000309034018000C2D0FA9
:106650001990002D00D11025002481E0661C86428F
:1066600048D10120694608700D2268441C99FAF748
:1066700053FBB0B218990CF0D9FF0CAA69461B98CD
:10668000FFF77AFB002899D1210108AE06E00A182D
:106690000CABBA5C1B5C5A403254401CA842F6D387
:1066A00026982A4608183146FAF736FB002004AA35
:1066B00005E0115C335C59406B461954401CA842FC
:1066C000F7D328466946164602E0325C0A54401C5D
:1066D0001028FAD332461B98FFF74EFB002894D1BE
:1066E00010AB195C325C514014AA1154401C1028A4
:1066F000F7D334E00120694608700D2268441C99E4
:10670000FAF70AFBB0B218990CF090FF0CAA694690
:106710001B98FFF731FB002891D1210108AE0A1820
:106720000CABBA5C1B5C5A403254401C1028F6D3A8
:106730002698102208183146FAF7EEFA002004A92C
:106740000A5C335C5A406B461A54401C1028F7D33D
:106750000A4619461B98FFF70FFB002893D1641CCB
:106760001998844200D279E71E98279A391814A8FC
:10677000FAF70DFB002800D1E5E61020C043E2E661
:10678000FFB597B0FF20219F00021646874203D332
:106790000020C0431BB0F0BD0120694608700D22E7
:1067A00068441899FAF7B8FA03A902310020149145
:1067B0000CF03CFF0CAA69461798FFF7DDFA002899
:1067C000E8D12398082803D0002F08D0402007E004
:1067D000002F01D0402000E00020192101E000201E
:1067E000092108436946087000A80D220130189954
:1067F000FAF792FA1A98149980B20CF017FF04AACB
:1068000069461798FFF7B8FA0028C3D1002F41D086
:10681000B8B269460CF00AFF002404AA6946105D6C
:106820000B5D58400855641C022CF8D30025BF1C92
:1068300013E004AB684620991A5D495D6D1C4A401F
:106840000255641C102CF6D3014600241A46103F52
:106850001798FFF791FA00289CD1102FE9D8002053
:1068600004A96C4606E0209B0A5C5B5D5A402254FA
:10687000401C6D1CB842F6D3204602E0CA5DC255EA
:106880007F1C102FFAD30A4601461798FFF774FAB7
:10689000002895D11A980F21050700030903401815
:1068A000000C2D0F1690002D00D1102500247DE046
:1068B000601C16991590884246D1002004A9270132
:1068C00006E03B180A5CF35C5A406B461A54401CC5
:1068D000A842F6D3284604E004A90A5C69460A5493
:1068E000401C1028F8D304AA69461798FFF744FA09
:1068F00000288AD104A90CAA125C0B5C5A4010AB88
:106900001A54401C1028F6D30120694608700D2245
:1069100068441899FAF700FA1598149980B20CF0A7
:1069200085FE08AA69461798FFF726FA002893D132
:1069300007E0391808AB725C1B5C5A40229B401C74
:106940005A54A842F5D330E0002004A927013B188F
:106950000A5CF35C5A406B461A54401C1028F6D36C
:106960000A4619461798FFF707FA002891D1012027
:10697000694608700D2268441899FAF7CDF9159800
:10698000149980B20CF052FE08AA69461798FFF7D6
:10699000F3F90028ADD1391808AB725C1B5C401CC0
:1069A0005A40229B10285A54F5D3641C16988442EE
:1069B00000D27DE71A992298239A401810A9FAF775
:1069C000ABF90020E6E6000001484068704700008F
:1069D000CC01002070B513484468002C20D0002062
:1069E00002F0CCFA00212046403001804180A163B2
:1069F000E1630C460C4D0D4E0AE0E420A96A6043A9
:106A00000818818BB14202D0012102F099FB641C6D
:106A10000CF06AFDA042F0DC0021054800F098FE71
:106A200070BD0000CC01002064300020FFFF00009A
:106A30008FD30000FFB5474F81B01E460D460400BE
:106A40007ED0002E7CD03068002879D0002D7FD0F9
:106A500000214148FFF708FC002802D0B80005B02B
:106A6000F0BD2078801F232872D2607814286FD858
:106A7000A078401E60286BD22079801E132867D230
:106A8000A01D06F001F9002862D0A18A3348491FF1
:106A900081425DD2618A491F814259D2E08A801EBB
:106AA000042855D2207E401E042851D2607E401E0C
:106AB00008284DD2A07E401E042849D2E07E801EC8
:106AC0001D2845D2A08B401EFF2841D2A17F204621
:106AD0001E30891E13293BD28088FF2188310A3855
:106AE000884235D22820005D002831D021461C4C38
:106AF000216003996160287C022829D3698A68692A
:106B0000FAF7AAF8002901D0002003E0687C0028E9
:106B1000FAD0012000281BD03046A56006F0A6F868
:106B2000FEF75EF90446FEF73BF90419FEF71EF97D
:106B30000419FEF795F80419FEF714F8041900E09B
:106B400006E0FEF73FF80419FEF750F8001986E753
:106B5000384684E7FFFFFFFFEC2F00200C0E0000FB
:106B6000BC01002038B5044641886A46012005F082
:106B700071FC01229203002801D0018810E00098E6
:106B8000002813D0018801231B0319430180638867
:106B9000090B1B0509031B0D194301235B03194353
:106BA00011430180072009F0F1FF38BD608802F031
:106BB00049FE38BD10B5082009F0E8FF092009F0AA
:106BC000E5FF0C2009F0E2FF10BD38B5044600884F
:106BD000694607F02DFF0121002801D0817005E0F2
:106BE0000098002806D08170218801800E2009F0CD
:106BF000CDFF38BD208802F0C1FE38BD10B506209B
:106C000009F0C4FF10BD38B50446818B6A460020E8
:106C100005F020FC01229203002801D0018810E039
:106C20000098002813D0018801231B031943018019
:106C3000A38B090B1B0509031B0D194301235B03E0
:106C4000994311430180072009F0A0FF38BDA08BB4
:106C500002F07CFE38BD000001484068704700002B
:106C6000A801002010B50849074A08800021526891
:106C700006E0D3680C011B191880401C80B2491C27
:106C800093688B42F5D810BDA801002081680029C7
:106C900003D003494860002070470020C04370477C
:106CA000A801002010B504490020088001460348CF
:106CB00000F04EFD10BD0000A8010020E5CF00004F
:106CC0004168491E416070473FB585B00D9D0C9CE1
:106CD000694601920B814B8103920B2B04D94168C9
:106CE00080234A7A1A434A7200214268C94351807C
:106CF00041682B46497ACA0906A90091224601A992
:106D000003D00BF051F909B030BD0BF0AFFAFAE740
:106D100003484068002801D0807A704707207047F8
:106D2000CC01002008B500920A4602A3202100F001
:106D3000B1FA08BD7072646B0000000010B50C461B
:106D400088B00146074A6846F9F743FF002806D095
:106D5000002C01D06846A047002008B010BD0120DB
:106D6000FBE70000BC32002001484068007A704711
:106D7000A8010020F8B5070021480ED00121C90361
:106D80008F420AD24168CA6889681088381A80B26E
:106D9000814233D900011018F8BD002629E0C068EF
:106DA0003101441800250AE02C20A1686843081826
:106DB0003946009000F0A2FC00280FD16D1C20790C
:106DC000A842F1DC00250FE02C20E1686843081898
:106DD0003946009000F092FC002804D0009800286A
:106DE00005D02046F8BD6D1C6079A842ECDC761C0D
:106DF000B6B2034840688168B142D0D80020F8BDDF
:106E0000A801002010B5FF22064C03E00378534090
:106E1000E25C401C0B46491EC9B2002BF6D1FF2094
:106E2000801A10BD5457010030B502688088FF23D6
:106E3000094C03E015785D40635D521C0546401E19
:106E400080B2002DF6D14B40E05CCF2801D000206D
:106E500030BD012030BD0000545701000B4910B572
:106E6000401807D0012808D0022809D003280BD1E8
:106E7000012010BD00F00EF904E000F08DF801E0F3
:106E800001F0A8FF0128F4D0002010BD0400FFFF8E
:106E9000FFB581B0002528E01748039A016A6820F1
:106EA00068430F180198818B384603F0EFFC0028E7
:106EB0001AD0002414E00C20396B60430E1804989B
:106EC00002990088C204D20C304605F08FF80028E1
:106ED00005D0304609F08AF90020307204E0641CC5
:106EE00003F0A0FDA042E6DC6D1C03F08FFDA8427C
:106EF000D2DC05B0F0BD0000E42F0020F8B5054657
:106F000000240B4E0B4F0DE06820396A60430818CF
:106F1000C189B14205D0B54201D0A94201D103F0E7
:106F200009FB641C03F072FDA042EDDCF8BD00001B
:106F3000FFFF0000E42F0020FFB581B01F4606468A
:106F400000241FE01248016A682060430D1803986E
:106F5000002802D0E878C00613D5002F02D0E878C8
:106F600080060ED50B48864202D0E889B04208D18F
:106F70002846029904F0EEFF002802D0284605B00A
:106F8000F0BD641C03F042FDA042DBDC0020F6E70C
:106F9000E42F0020FFFF000003484068002801D0D4
:106FA000407A704702207047CC010020F8B50E46A9
:106FB000074600240A4D0CE06820296A604308183F
:106FC0003246394603F062FC002801D00120F8BDAA
:106FD000641C03F01BFDA042EEDC0020F8BD0000A5
:106FE000E42F0020FFB5002681B03546344616E078
:106FF0001048039A016A682060430F1838460199C7
:1070000003F044FC002809D0012538460A9B049A65
:10701000029903F05FFC002800D00126641C03F0F5
:10702000F5FCA042E4DC002D02D0304605B0F0BDF6
:107030000120FBE7E42F0020F8B50746002519E002
:107040000F48016A682068430E18F0890D4988428C
:107050000FD08F4201D0B8420BD1B46B03E0204671
:1070600004F0F1FF2468002CF9D10021304603F030
:107070003AF96D1C03F0CAFCA842E1DCF8BD00003F
:10708000E42F0020FFFF000010B50088F9F7D2FFC1
:1070900010BD000003484068002801D0007A704706
:1070A00002207047CC01002010B5FAF7F1FB10BDAB
:1070B00010B5034800214089FAF73CFC10BD0000E0
:1070C0000003002002484068002800D00C307047C0
:1070D000CC010020F8B51646154A1F465568002D0C
:1070E00024D02C464034228882421FD160888842B6
:1070F0001CD105F02CF9AB6BEA6B181A8A4115DB31
:10710000A079B04200D33046A071E079B04200D8F7
:107110003046E071A0880749884201D2401CA08017
:10712000AA6C002A02D0394630469047F8BD0000CC
:10713000CC010020FFFF000010B50021084600F040
:1071400001F810BDF3B589B000200E4603900490FD
:107150000590FFF739FC0546254806AB07C807C36D
:10716000288E69460883288D88832F462037787BB0
:1071700008A988700024288E02F056F8039006A80B
:107180000490286800F09CFA00886946888201F023
:107190002DFA69468875288D002826D0787B0872DC
:1071A00001F018FE012800D10124FFF773FF012828
:1071B00001D102200443FFF7EFFE012801D1042092
:1071C000044300F0ADF9002801D00820044360BA60
:1071D00069464872000A887209980090032302AA3F
:1071E0000A21019603A8FFF76FFD0BB0F0BD000068
:1071F000E054010070B515460A4686B0064608A45C
:1072000001A9104601F05CFE002806D1234601AA20
:1072100010213046009500F03DF806B070BD00002A
:10722000696431323801000070B50F4E0546002404
:107230006001801980694069002803D0641CE4B2B1
:10724000032CF5D3032C0DD028460CF0EFFE01469D
:10725000600180198269516181694D828169496942
:10726000002900D1002070BDEC0D002010B5017F79
:107270008268024800780CF0EDFF10BD3801002054
:1072800010B500210248FFF701F8C0B210BD0000A0
:10729000EC2F002070B51646049D0A461C46014698
:1072A0002B463046FEF755FE002808DB2046F9F74E
:1072B00059FD02462B4621461846FEF74AFE70BD90
:1072C000F0B593B00E4607461C4615460FA925A0FB
:1072D00001F0F6FD002843D10BAB102239460FA870
:1072E000FEF737FE00283BD10121684601700020DF
:1072F0000590069068460A9109900796089501AB9B
:10730000032205A90BA8FEF7FFFD002828D1694636
:10731000C87C01AB4006400E207001A805901020EB
:10732000069002200870032205A90BA8FEF7ECFDC9
:10733000002815D1102201A91898F9F7EDFC0320B7
:1073400069460870024601AB05A90BA8FEF7DCFDF3
:10735000002805D1102201A91998F9F7DDFC0020B9
:1073600013B0F0BD736D6B320000000030B5054600
:107370000C4611A003C88BB009910890694610A073
:1073800001F09EFD002815D104AB10222946684665
:10739000FEF7DFFD00280DD16B46052208A904A8E1
:1073A000FEF7D7FD002805D10822204602A9F9F7EB
:1073B000B3FC00200BB030BD69643634010000001E
:1073C000736D6B330000000030B5054689B011A025
:1073D00000680C46089069460FA001F071FD002876
:1073E00015D104AB102229466846FEF7B2FD0028ED
:1073F0000DD16B46042208A904A8FEF7AAFD0028B7
:1074000005D16846C07B8006800E2070002009B040
:1074100030BD000069643601736D6B3400000000FC
:1074200010B50446837FC07F8B4201D000281CD05A
:10743000A177002903D0012818D1022013E00128E8
:1074400002D0022812D101E0002A0FD0204600F01D
:10745000A5FF0748074900680968084302D0A08BC8
:1074600003F042F90020E077012010BD002010BD9C
:10747000A00300208403002070B5064600240A4DB6
:107480000CE01820A968604340184088B04204D13D
:10749000182044436018001D70BD641C05F0EEF810
:1074A000A042EEDC002070BDCC01002010B50D2202
:1074B00009A10D480CF0BCFC002808D0FCF7F4F939
:1074C0000446FAF72BFFFAF7FDFE204610BD07A091
:1074D000FDF716F8FEE700004D4553485F4C494262
:1074E0005F56312E310000004A4E01006D65736811
:1074F00020686561642066696C65206572726F72D0
:107500002E2E2E0A0000000010B50449097900292A
:1075100002D0012102F0AEF910BD000004300020BD
:107520000248007CC006C00F7047000004300020F5
:1075300070B50022164B114601264C00E418258E2A
:10754000854209D1C806C00E8640480980004833EC
:107550001958B14319500EE0002A03D1002D01D172
:1075600022463032491C0829E7D3002A03D0108074
:10757000187B304318730648001F017CC906C90FE9
:1075800005D0C079002802D107200BF029FF70BD7B
:1075900008300020F3B585B0002630E00598710072
:1075A000405A00282AD01E4C039020466430029096
:1075B000001D0190001D002524340090680007196B
:1075C000398E0398814216D129460298FEF78BFE28
:1075D000002805D129460198FEF785FE002808D02D
:1075E00029460098FEF7DCFD207B0121084320732B
:1075F00001E0002038866D1C082DDFD3761C06982C
:107600008642CBD306482030017CC906C90F05D07D
:10761000C079002802D108200BF0E2FE07B0F0BDCF
:10762000E42F002010B50448C178012903D103F0EC
:1076300091F90AF0B7F810BD0830002010B50548E0
:10764000007CC00602D40520C04310BD0AF0AAF891
:1076500010BD00000430002003480079082801D044
:1076600000207047012070470430002010B5044806
:107670004068002803D00021024800F069F810BDDE
:10768000A8010020E5CF000030B589B015461E22C4
:107690001C46009201AB08A202F0C8FD002C06D0E7
:1076A0002246294601A80BF077F909B030BD01A8A0
:1076B0000AF048FFF9E7000064617461000000000F
:1076C0000349007949680001C9680818704700003B
:1076D000A801002030B5002203790BE02C24856836
:1076E00054432C5B8C4203D12C214A43A81830BD53
:1076F000521CD2B29342F1D8002030BD0022530078
:107700001B185B8A8B4203D1510008181230704756
:10771000521C062AF3D300207047F0B500234779A6
:1077200011E02C261D467543C468AE1CA65B8E4234
:1077300007D1645B944204D1C0682C214B43C0182C
:10774000F0BD5B1CDBB29F42EBD80020F0BD000017
:10775000F3B581B00746002429E0C068210145182F
:1077600000260CE02C20A9687043081802990091AB
:10777000002C09D0002300222946B847761C28791E
:10778000B042EFDC00260EE00123F4E72C20E9688C
:107790007043081802990091002C0ED0002301229A
:1077A0002946B847761C6879B042EFDC641C04486F
:1077B00040688168A142D0D8FEBD0123EFE70000F8
:1077C000A801002010B50D4B5B68002B11D09C6800
:1077D0008C420ED9DB68090159182C235343002829
:1077E00004D04879904204D9C86805E008799042ED
:1077F00001D8002010BD8868C01810BDA801002065
:107800000079002801D0002070470120704770B532
:10781000044680680D46002801D0A06802E020469A
:107820000C30A060002120602046A180FF2D03D8ED
:10783000E9B206F0C1FB70BD01200004854204D20C
:10784000A9B2204606F086FB70BD2802010E204634
:1078500006F0B2FBA9B2204606F096FB70BD000010
:107860008268002A08D0907A810907D0012909D0BE
:10787000022913D0032915D0002070478006800EFE
:10788000642103E08006800E7D21C90048435189B0
:10789000CA04F2D50905090F084170478006800E19
:1078A0000249F3E78006800E0149EFE71027000048
:1078B000C0270900F0B506463A48EBB08069099048
:1078C0000BA808900A900020B468029003900490DE
:1078D0000590079002A806903046FFF7F1FE008859
:1078E0006946888300F082FE69468877002C54D070
:1078F000A0881727FF43002852D0E0880005000D1C
:10790000FEF7C4FB05004BD06089400B02D0E01BA2
:1079100004F0D0FCA0886A469081207A9074E188B7
:10792000507C89044006C90F400EC90108435074B9
:107930002888108169885181D17FE2884908D20462
:107940004900D20F11436A46D17701F06DFC0590D2
:10795000002825D06089617AC004C00C490308431F
:10796000608120698288016808A806F01AFB0D482A
:10797000009008AB012205A90196304606F0D2F925
:10798000050007D060893146C004C00C60812846DC
:1079900008F0F8FB28466BB0F0BD1220C043FAE7B0
:1079A0003846F8E7204E0100F0B50E4685B0074690
:1079B00003A9304603F06AFC002854DB00254DE0A3
:1079C000C068290144187889002807D00121C9031B
:1079D000884203D2218881423FD113E003218903E9
:1079E0003F22411A120291420CD90121C9030122FE
:1079F000411A9203914205D3002D2ED1FFF72EFAA2
:107A000000282AD00120039A0004824202D2217960
:107A1000A06801E06179E06802AB01930092FB8805
:107A20007A8902F0CBFC040017D0B08861688842E4
:107A300013D3304606F0C7FA69460880B0884880FC
:107A4000A3683246391D0298984769460988B0688C
:107A50004018694630604888B0806D1C0348406813
:107A60008168A942ACD805B0F0BD0000A801002093
:107A7000FFB50C46488885B017490E9E1D4617462F
:107A8000884208D0491E884205D0FEF7FFFA002838
:107A90001ED000882080002002900390049020884F
:107AA00001F0C2FB029003940598FFF709FE0088DD
:107AB0006946088200F09AFD6946887400953B4645
:107AC000002202A90196059806F02CF909B0F0BD34
:107AD0000020C043FAE70000FEFF000038B504466E
:107AE00000F0BAF90146A07F002802D02046893074
:107AF00001E0204630302834044A009413680246DE
:107B000021324930FEF728FC38BD0000E42F002068
:107B1000FFB581B00E4606F087F9204C8100606801
:107B2000F9F715F900251E482570846AF007C00F83
:107B3000A07702270399002807D02046893000F05B
:107B40006FFA002807D1E77709E02046303000F0CF
:107B500067FA002803D00A20C04305B0F0BD0198A1
:107B6000A08310480068002802D02020055501E0BD
:107B7000202007550A49049880390860B007C20FD1
:107B8000074802217838FEF715FB054820380574B0
:107B90002046FFF7A3FF0020DFE70000F4010020EC
:107BA00064300020C8030020F8B5074680881D46D1
:107BB00014460E46122806D3002E07D1384601F08F
:107BC00017FE002802D00020C043F8BD207DCF2141
:107BD0000840B107890E08432075B9882B46224614
:107BE000386806F041FB00282FD00020C043E08019
:107BF0002968607B4978C0094906C001490E0843DD
:107C00006073400600D0FF20A073207DF72108405C
:107C100029684978C909C900084320752868801C6B
:107C20000BF0E2FC20612868C01D0BF0D1FC102293
:107C3000D2436081032E01D0002804D0FF21090225
:107C4000401AFB2804D81046F8BD0720C043F8BDF1
:107C5000FDF764FA002802D1204606F0C3F80020A0
:107C6000F8BD0000F0B50C4609680746487889B0B1
:107C70001646000601D5082500E0042511480068D5
:107C8000002807D0002B04A802D002F088F901E0F8
:107C900002F06EF9324604A8216802F069F9A08862
:107CA000401B83B2A38022680020D11D009001AC4C
:107CB00023C404A93846D21DDB1FFEF737FC09B0E8
:107CC000F0BD0000C8030020F7B5044640680F4629
:107CD0004088434984B0884201D1012600E0002653
:107CE0000025ED43002E04D0384606F0E0F90828C0
:107CF00004D3384606F0DBF9042802D2284607B040
:107D0000F0BD60688188384606F0AAF921893846B6
:107D100006F0A6F90321384606F09AF9054600F068
:107D20006DFC010C2970010A6970A8706068002E52
:107D3000817A01D080200143384606F09FF9294816
:107D4000006800280CD0E07AC00709D003A8009092
:107D500002AB01AA0021206802F088FC002816D09E
:107D6000E07A592240084000E07220686B46817F2B
:107D700051430A464032825C41311A7140180290E8
:107D800020685922817F5143693140180390164879
:107D900002210546FEF77AFA134C083C2178081AAE
:107DA000C007010E684600790143384606F066F9BF
:107DB00002212846FEF76AFA2168069B0A1A39460C
:107DC000029800F013F8002899D102212846FEF706
:107DD0005DFA2168039A091A386800F075F98EE790
:107DE000FFFF0000A0030020EC2F0020F0B50C46A0
:107DF00009680746487889B01646000601D5082567
:107E000000E0042513480068002807D0002B04A8D0
:107E100002D002F0C4F801E002F0AAF8324604A849
:107E2000216802F0A5F822680020D11D01AB009066
:107E300023C3A38804A93846D21DDB1FFEF7A0FC8C
:107E4000060003D12946204606F073F8304609B0F3
:107E5000F0BD0000C803002010B50024002803D0A6
:107E6000807F002800D0012402210448FEF70EFA8A
:107E7000002801D002200443204610BDEC2F002032
:107E800070B50024184E194D06E02046E4225043F8
:107E9000A96A1C300E52641C0BF026FBA042F4DCD5
:107EA000002404E028206043696A641C0E52FDF738
:107EB000DFFBA042F6DC002406E0204616225043F9
:107EC000296A801C0E52641C07F092FEA042F4DC6A
:107ED000064807490C3804F0F7F904480549743896
:107EE00004F044FA70BD0000FFFF00006430002081
:107EF00069C10000A1800000FEB504460E46454859
:107F000002210190FEF7C2F9424F0146083F384670
:107F100060303D46009080353868002904D0A0428A
:107F200021D1002E1FD11AE0A0421CD0A0421AD8A5
:107F300001462A31A14216D3401CA04203D3A042DD
:107F40000BD1002E0BD108F073FDC100E86AF8F7E1
:107F5000FEFE00203C60786013E0002E03D0009805
:107F6000007C602801D20020FEBD002E09D101F066
:107F7000EBFA002805D00198202102680A4302602C
:107F8000F1E7324602210198FEF714F9002000992A
:107F9000002E087417D03C600026044601270DE02F
:107FA000E86AF10040180188002906D0817800298C
:107FB00002D00460446000E08770761C08F038FD51
:107FC000B042EDDC00E0786004F0C8F801466020C3
:107FD000F8F742FE104941430E486C3004F088F92E
:107FE00000240E4E0CE02046E42250430246A96ACB
:107FF0001C328A5AB24202D00818FFF76FFD641C87
:108000000BF072FAA042EEDC002001F00DF8012026
:10801000FEBD0000EC2F002080EE3600FFFF0000C8
:108020007FB504460D460020029021462046393196
:1080300011300191009003AB012202A92846FFF7FD
:108040003FF9002820D1102229462046F8F764FE87
:108050006846007B2074214621312846FFF786F9C7
:10806000002811D109480068002807D02246284678
:10807000293207A1FFF7BEF8002805D1224628467D
:10808000493205A1FFF7B6F804B070BDC80300205F
:108090006E6B696B000000006E6B626B000000008D
:1080A00070B5084D08E02046012200210C3000F098
:1080B00033F8204606F02DF8284606F000F80400B4
:1080C000F1D170BDFC2F002030B589B004460020EE
:1080D00015460A46009001900290039001A91046AF
:1080E00001310BF0A7FA02A80722E11D0130F8F7D1
:1080F00013FE04AA69462846FDF73EFE002809D172
:1081000004AA21184B78155C401C6B404B70062864
:10811000F7DB002009B030BDF0B58BB015460E4638
:1081200007460CF0AFFAB9881630884277D30CF0C6
:10813000A9FA16300BF07AFF040070D000200990E5
:1081400008940A900CF09EFA69461630C8841821EB
:1081500068460A94F8F7FBFD69460E73FFF790F83E
:10816000002859D008AB6A4629463846FFF71CFD5F
:10817000002851D108A805F026FF69468883888C1D
:10818000C88328480068002805D0022D03D109893A
:10819000384600F06BFC68464089FEF75FFE002819
:1081A00005D168464089FEF7E5FD002804D0684601
:1081B000007D4021084303E06846007DBF21084060
:1081C0006946087508A801F077F8801D0BD168464C
:1081D000154AC08A516880000B58DB0BDB030B503B
:1081E0006846C08A107068464089002809D001217D
:1081F000C903884205D26846007D41060CD4C009F7
:108200000AD16946898B0A98401869460890C88B3C
:10821000888408A800F00AF820460BF01BFF0BB07A
:10822000F0BD0000C8030020F4010020F8B50646A8
:10823000087D0C468106607B8A0F4006400E012AAD
:1082400004D001287DD9880F03D00AE0012878D016
:10825000F9E700F0BFFD012803D0FEF71BFF01285E
:108260006FD1207D8006800F022803D1FEF712FF18
:10827000012866D1207D8006800F44D000F0B6F939
:10828000014600220120FDF799FD050059D0207D0F
:108290008006800F01280BD031684878C009C001E2
:1082A0004870627B31685206520E521E104348706D
:1082B0002846B2880C303168009005F072FE2168C3
:1082C00059208A7F424310461346413069330818CB
:1082D000CF1840328B5C217D490707D5EA681178B9
:1082E000C909C9011170EA6819431170294E227D2C
:1082F0003168D207D20F8A1A00230099FFF776FD62
:10830000002842D102E000F075FDB9E7217D306818
:10831000C907C90F411A3A46E868FFF7D5FE002899
:1083200033D11D480068002817D0FEF7B3FE01289E
:1083300004D0207D8006800F01280ED1618900982D
:1083400000E025E000F08CFC002806D060890028C1
:1083500003D00121C903884217D3207D8006800FF6
:1083600004D001280CD002280FD102E000F032FD29
:1083700001E0FEF78FFE012800D00020002804D085
:10838000002211462846FDF77FFD284605F0C1FE74
:10839000F8BD0000E42F0020C8030020F8B5014616
:1083A0000646893159220C463030F8F7B5FC592180
:1083B0002046F8F7CCFC304600F09AFE0025114F1D
:1083C0001BE02820796A68430C182088B18B88420A
:1083D00012D1207900280FD0214616311122601DBC
:1083E0000091F8F799FC11210098F8F7B0FC0020F3
:1083F0002071204600F0E6FD6D1CFDF739F9A8421A
:10840000DFDCF8BD6430002010B504460B4800687E
:10841000002806D0002C01D0A08B00E00848FEF711
:108420000BFE08480068002806D0FEF733FE01283E
:1084300002D1204600F028FB10BD0000840300207C
:10844000FFFF0000C8030020FFB50446406881B06C
:10845000807A1F461546FF2803D1FEF759FC616854
:108460008872029900220C3120460091FFF72CFC03
:10847000060057D12E480068002821D06068817A14
:1084800001291DD08188009800F0EAFB002817D050
:1084900060688088002813D00121C90388420FD268
:1084A000002D3FD02B68002B03D000213A46084610
:1084B00098476A68002A35D039460020904731E055
:1084C00060688088FEF7CAFC002805D16068808853
:1084D000FEF750FC00281CD0002D06D02B68002B86
:1084E00003D000213A4608469847029805F01DFD42
:1084F0000146104805F0FAFD002D05D06A68002AF3
:1085000002D03946002090470A480C3803F034FF67
:1085100008E06068807A012804D03A46294602982B
:10852000FDF7B2FC029805F0F4FD304605B0F0BD51
:10853000C8030020FC2F0020F8B5FDF789FF0128B3
:1085400011D0FDF751FF244C2068002805D0FEF71C
:10855000A1FD022801D0206880472048006800283B
:1085600004D0804704E0FDF74FFFECE700F0EAFCA1
:108570001B480068002800D080471A4DA86A878BE6
:1085800000F046F90090284680380668A86A022163
:10859000847F28467838FDF779FE002801D0022034
:1085A0000443334622463846009900F037F9002448
:1085B0000D4E0BE01620296A604309184888B04226
:1085C00003D00A7D098800F095F9641C07F010FBC0
:1085D000A042EFDCF8BD0000C8030020A00300208B
:1085E0008403002064300020FFFF00000248406840
:1085F000002800D000797047CC01002070B5114DE3
:108600006C68601C686000F05FFD2846022108303D
:10861000FDF73CFE002813D10B49686888420FD94A
:10862000002000F001FE00280AD00120FDF722FF03
:1086300028680121401CFFF75FFC0020FFF7E4FEE3
:10864000204670BDE42F002000E5B000F7B582B0F1
:108650000F46050007D00022FCF744FC002827DB6A
:108660000024174E20E0012500240DE06A4639461B
:108670002846FCF737FC00280BD0801D01D00025D0
:1086800007E068460588641C07F0B2FA801CA04227
:10869000ECDC002D0CD0E3E71620316A60430818AB
:1086A0000188002907D0641C07F0A2FAA042F3DC7D
:1086B000002005B0F0BD0580077504994180F8E7FA
:1086C0006430002070B50024084D0AE01620296AA5
:1086D000604308180188002902D0012100F008F841
:1086E000641C07F085FAA042F0DC70BD6430002005
:1086F00010B50446002901D0FEF767FA002020805B
:108700001021201DF8F723FB10BD000070B50546B1
:1087100000240A4E0BE01620316A604308180188D5
:10872000A94203D8027D8918A94205D8641C07F024
:108730005FFAA042EFDC002070BD00006430002032
:108740007CB5044600F07CFF002803D1FEF798FDBD
:1087500000283CD1A088062839D3204605F04DFCDE
:108760000090204605F06CFC69460871204605F033
:1087700067FC6946487102211548FDF799FD0028FC
:1087800004D014480099C06A884220D16E4671799D
:108790002546A0888907104CC90E091949798842D5
:1087A00015D302210A48FDF783FD002807D168464A
:1087B00040798007C00E00190079002807D168466B
:1087C000407929468007C00E2258304690477CBD2C
:1087D000F8300020F8310020AC53010010B50A49F0
:1087E0004968814202D00420C04310BD08F028F837
:1087F000044606488068426B002A02D0002102200D
:108800009047204610BD0000F830002044020020B0
:108810000148008870470000A801002030B4054CD2
:10882000A468A46B002C02D0A44630BC604730BCC6
:1088300070470000440200207FB5064C6568E4687C
:10884000029200910195039402226946FDF75CFBB8
:1088500004B070BD5458010008B500920A4602A346
:108860002021FEF717FD08BD7072636B0000000049
:108870001FB50B4600210091019102910391014621
:1088800091226846FDF765FB04B010BD7FB500245A
:10889000082502930094039501941923FDF746FEE1
:1088A00004B070BD7FB500240825029300940395A1
:1088B00001941923FDF764FF04B070BD014880687E
:1088C000704700004402002010B5040008D006499B
:1088D000064803F0F9FC0648846007F0B1FF10BDBC
:1088E0000020C04310BD000029F4000070320020B9
:1088F00044020020034B9B68DB6B002B00D0184721
:10890000704700004402002070B586B0164601ADE5
:108910000A4607A320210095FEF7BCFC040004D101
:108920000D22E91C3046F8F7F7F9204606B070BD75
:108930007072736E0000000008B50092034A0B4687
:1089400052890088024900F049FE08BDE00200207B
:108950009C32002003488068006C002800D000474B
:10896000704700004402002010B50249024803F09D
:10897000ABFC10BD51FD00005032002010B58AB094
:10898000002404901020009401940294039408920F
:108990000691059007900990032204A96846FDF707
:1089A000B3FA0AB010BD000010B503480021408999
:1089B000F8F7C0FF10BD0000A002002010B502496A
:1089C000F8F7DEFF002010BD9C320020FFB5254DDA
:1089D0000121A86881B00143A9600835C007164687
:1089E000C00F03D00120C04305B0F0BD1E4F386852
:1089F000002804D0002000F0F9F8002814D000244A
:108A00003146049B019A0298FFF782F806000DD0C8
:108A100028684008400028603868002802D0002CF0
:108A200000D080473046DFE70124E9E70D49002008
:108A300048600A98FEF716F90A48102290300B9900
:108A4000F8F76AF900F01BFB06488030806A00F0F6
:108A50004FFB002000F0E8FA012000F0A7FA002008
:108A6000C2E70000E42F0020C403002010B528381E
:108A7000027A012A04D0022A01D101F067FC10BD5C
:108A800001F043FC10BD000070B506000DD0124D82
:108A900000242046542148432858002802D031465B
:108AA0000AF082FC641CF4D070BD00240B4D0C4E07
:108AB0000CE02046E42250430246A96A1C328A5A3E
:108AC000B24202D00818FFF7DFFF641C0AF00CFD69
:108AD000A042EEDC70BD0000643300206430002052
:108AE000FFFF0000F8B518490878002804D00228D4
:108AF00005D00320C043F8BD0120C043F8BD0025C8
:108B0000124F2E4654206843C419206800280AD00A
:108B1000207A012801D0022805D12672206813216D
:108B20000088FEF7C1FA2068008800F00FF96D1C7C
:108B3000E8D0FEF7BDFA0448067004481C3803F07C
:108B4000B9FB0020F8BD0000BC0300206433002006
:108B5000034800218185016B816228307047000045
:108B60006433002070B5FEF78BFB002803D000248F
:108B70000C4D0D4E10E00520C04370BDE420A96AE5
:108B800060430818818BB14205D02021095C02297D
:108B900001D000F00BF8641C0AF0A6FCA042EDDC4A
:108BA000002070BD64300020FFFF000010B50446B7
:108BB00001212030017003F0D2FB60620548E421FE
:108BC000806A201AF8F75EF803498861034803F0C9
:108BD000D3FB10BD64300020BC03002048330020CC
:108BE000002120221154416270470000F1B51A4E55
:108BF0003078002804D0012805D00320C043F8BDF8
:108C00000120C043F8BD00252F4654201349684376
:108C100044182068002814D0217A032911D1009922
:108C2000002904D000881321FEF73EFA05E0B16860
:108C3000002901D0FFF7D2FD277220680088FFF7D6
:108C4000BDFE6D1CE1D0FFF7AFFE044837701C3845
:108C500003F030FB0020F8BDBC030020643300208B
:108C6000F3B500208DB00E4607460B9054203946D0
:108C7000414322480C182248806D019003A80090BF
:108C800002902068002833D0207A022805D01D4A9F
:108C900096421CD001280DD02AE0002505E060682E
:108CA0006900415AB14223D06D1C07F015FBA84260
:108CB000F5DC0CE0002505E060686900415AB1422E
:108CC00005D06D1C07F008FBA842F5DC10E001217F
:108CD000684605F0DAF90D9882880168684605F063
:108CE00060F96A460021206800F00EF801200B9020
:108CF0007F1CBBD00B980FB0F0BD00006433002088
:108D000054590100FFFF000070B515460C46064699
:108D100001F032FB00280BD0007A03280BD0002092
:108D2000032C0AD00021884209D00020C04370BD26
:108D30000420C04370BD0120F2E70121F3E72A4679
:108D40002146304607F062F970BD000010B50249B7
:108D5000F8F716FE002010BDAC32002010B5002838
:108D600008D02021054800F00BF8044908462030BF
:108D7000F7F72BFF0148203010BD0000BC32002067
:108D8000F8B50E46050004D0002E02D00024B70826
:108D90000FE00520C043F8BD0BF0E8F90146A00044
:108DA000401901700A0A4270090C8170090AC170E9
:108DB000641CA742F0D8B00709D00BF0D7F9009097
:108DC000B207A000920F40196946F7F7A5FF0020EF
:108DD000F8BD000003484068002801D04079704782
:108DE00002207047CC010020014901200870704723
:108DF000CC01002002484068002800D080797047EC
:108E0000CC01002010B500211E48FDF72DFA0028E6
:108E100036D01C48002408380460446084607430F4
:108E200003F048FAFDF7D6FD00F036F800F0A2FB9B
:108E300015480068002802D00120FEF765FB1348A2
:108E40000068002802D01248FEF758F8FFF74AFEE3
:108E5000FDF7B0FE0E210F48FDF706FA002801D0FD
:108E6000FFF730FC07487830046144618461C461D5
:108E700000F063F8FDF7B8FAFDF714FFFFF76AFD9D
:108E800010BD0000EC2F0020A00300208403002070
:108E9000FFFF0000F830002070B50024074D06E009
:108EA000A968A0014018012108F0C8F9641C07F066
:108EB0003BFEA042F4DCFDF7A1FE70BD580200208D
:108EC0007FB50546002000900190029003900C466B
:108ED0002846F7F747FF0246234629466846FDF72E
:108EE00038F8C0B204B070BD70B51D460E46032AF6
:108EF00018D1A888012815D9184605F0A1F8040052
:108F000010D0A888A0420DD3284605F099F8641E19
:108F1000AC8029280DD02A2805D02B2802D128463C
:108F2000FDF7C4FA70BD002231462846FFF7F4F879
:108F300070BD2846FFF704FC70BD10B5FCF739FF83
:108F400010BD00001CB50549486889680191009072
:108F500003496846FCF726FF00201CBD404E010077
:108F6000E98E000008B500920A4602A32021FEF710
:108F700091F908BD7072736B000000000149088010
:108F8000704700005802002010B50549054803F05D
:108F90009BF909F03DFD044809F0D2FC10BD00002A
:108FA000392D0100B43000202C02002001B5FFF75C
:108FB000C3FA69460248FEF7CBFB002008BD00005B
:108FC000D1DD000038B5044641886A46012003F02F
:108FD00041FA01229203002801D0018810E0009894
:108FE000002813D0018801231B03194301806388E3
:108FF000090B1B0509031B0D194301235B031943CF
:1090000091430180072007F0C1FD38BD204609F0DB
:1090100009FE38BD10B50C2007F0B8FD10BD10B525
:109020000B2007F0B3FD10BD10B50446092007F072
:10903000ADFD002C02D10A2007F0A8FD10BD10B52F
:109040000F2007F0A3FD10BD10B5C1880122114308
:10905000C1800D2007F09AFD10BD10B5C188042213
:109060001143C1800D2007F091FD10BD10B5C188DE
:1090700002221143C1800D2007F088FD10BD10B5FC
:10908000082007F083FD10BD38B504460088694606
:1090900005F0CEFC002802D00021817004E0009889
:1090A000002805D0218801800E2007F06FFD38BD13
:1090B000204609F01DFE38BD10B50121C170062003
:1090C00007F064FD10BD000010B509F0DFF90028BD
:1090D00008D009F0DBF9014604484068F7F7BCFD09
:1090E000002902D10A2007F051FD10BDE42F002015
:1090F00038B50446818B6A46002003F0ABF90122A3
:109100009203002801D0018810E00098002813D0B5
:10911000018801231B0319430180A38B090B1B0545
:1091200009031B0D194301235B03994391430180FC
:10913000072007F02BFD38BD204609F09FFD38BD04
:10914000F8B505461A480F464068002809D0018E38
:10915000AA8B914205D102F0F5F9002F01D0FFF75B
:109160005EFF0024134E0BE02820716A604308184C
:109170000188AA8B914202D13946FCF76DFF641C2D
:10918000FCF776FAA042EFDC0B480068002802D01A
:10919000A88BFDF7B3FE002F02D02846FDF733FD64
:1091A000E4212846F7F7D3FD0020C043A883F8BD8B
:1091B000CC0100206430002084030020FFB581B082
:1091C0001E460025164F25E0E420B96A68430C18B6
:1091D000A18B144881421CD0009601A90EC92046DB
:1091E0003030FCF7B2FA002801D000210CE0E07F1B
:1091F00000280ED0009601A90EC920468930FCF740
:10920000A4FA002805D001210A980170204605B073
:10921000F0BD6D1C0AF068F9A842D5DC0020F6E725
:1092200064300020FFFF000070B506460D480E4D6B
:10923000864201D1A86A70BD00240DE02146E422D7
:109240005143A86A1C31405AB04204D1E421A86AB3
:109250004C43001970BD641C0AF046F9A042EDDCD5
:10926000002070BDFFFF00006430002070B50024B6
:109270000E4D08E048206968604340180C492830CA
:1092800003F022F8641C0BF045F9A042F2DC002444
:1092900007E0A968A00140180649243003F014F83B
:1092A000641C07F041FCA042F3DC70BD58020020B2
:1092B00039110100B5100100F0B50546002089B054
:1092C000C04306900790002668460674067353480C
:1092D0000C46006800280BD020686189808BFDF760
:1092E00065FE217DC0014906490E0143217503E059
:1092F000207D4006400E20750921284604F067FEB7
:1093000047480068002812D0FEF70AF900280ED05E
:10931000207D8006800F0AD1FEF79EF9002802D03A
:10932000207D400703D40520C04309B0F0BD284686
:1093300004F049FE69468882A888C88228680078B7
:10934000C0090DD0207D410601D4C009EDD003A88D
:10935000009006AB04AA2146284606F0D5FF23E07C
:109360000120087306A80090A8880027FF43002862
:109370001BD00021204602F0FBFD002815D1284615
:1093800004F05EFE0146207D020705D52A462046F0
:10939000009B00F01BFE07E0420601D4C00925D067
:1093A0002A46204607F002FD07461D4800680028AF
:1093B0000AD0FEF7B5F8002806D0FEF74DF90028D0
:1093C00002D02046FEF72EF96946898AA86840181F
:1093D00069462860C88AA88010480068002819D00B
:1093E000207DC00916D0002F02D013E03746DCE7FD
:1093F00006990798C943C04301436846007B0BD0D8
:1094000006AB694661C12146064C6846027C246869
:109410000020A047384688E70023F2E784030020B5
:10942000A00300208C030020FFB504468888002597
:10943000ED4387B00E4600280CD0FF2181318842D1
:1094400003D91420C0430BB0F0BD304604F02FFE0A
:10945000042801D22846F6E70BF014F9B188001D64
:10946000884204D260688022417A1143417205A883
:109470000090606806AB828841882068FCF722FE75
:109480000028E0D1E07A6946097D8007800F8900D5
:109490000843E0726068407AC00904D0304604F0A6
:1094A00006FE082803D2E07AFD21084002E0E07AB7
:1094B00002210843E072606801218088C90301220B
:1094C000411A9203914203D2FDF7D6FF054600E010
:1094D000002502211A48FCF7F4FE014618482789A6
:1094E00008380268511A42686068838804910197BD
:1094F00000950293039240881249884202D0491E87
:10950000884201D1012100E00021E07A3346800742
:10951000C20F0698FCF756FD002894D16068099A9E
:10952000407AC1090020009000290A9B314620465C
:1095300002D008F039FD86E708F098FE83E70000C6
:10954000EC2F0020FEFF000070B50024084D09E05C
:109550004820696860434018807E002801D00120BF
:1095600070BD641C0AF0D6FFA042F1DC002070BD83
:109570005802002070B50024064D06E048206968B6
:109580006043401807F030FF641C0AF0C3FFA0429C
:10959000F4DC70BD5802002030B589B00C46054699
:1095A00069460CA0FFF78CFC002811D104AB1022F7
:1095B00029466846FCF7CDFC002809D16846C08BD7
:1095C000012140BA8004800CC9034018208000208B
:1095D00009B030BD7674616400000000FFB583B04F
:1095E000154668460C9AC28000201E460F46034668
:1095F000009012241B210398F8F79CFA029000288F
:109600001BD06846C28831460298F7F785FB394679
:109610000398F8F7F2F9C00708D068468580002261
:1096200001A90398F8F750FA040003D01B2101A800
:10963000F8F7C6FA204607B0F0BD0620C043FAE7A7
:1096400010B502210248FCF733FEC0B210BD000085
:10965000F830002010B56421014802F049FE10BD29
:109660005032002010B5CA7850070AD40846920636
:109670001430002A01DA496801E07D21C90002F0B6
:1096800037FE10BD10B5D078F7210840D0701446D1
:10969000800606D4606B002803D004F03AFD002059
:1096A000606310BD10B501790023DB4300290ED1A2
:1096B000826A002A0BD007494A60990010608181B4
:1096C00010460549103002F0FFFD002010BD18467D
:1096D00010BD00007C0300208135010070B5084DED
:1096E00004466A68002A0AD090686060217000F021
:1096F0005BF968684168002901D02046884770BD41
:109700007C03002070B5084D04466A68002A0AD020
:1097100090682060217100F053F9686801690029A0
:1097200001D02046884770BD98030020F8B51E463A
:1097300017460D46FDF748F900280ED0094C002DBC
:109740000ED00723621C3146384603F0EDFA00289C
:1097500002D1012020700020F8BD0720C043F8BDD1
:109760000020F7E72402002070B505460179846ADD
:109770000020C043002931D1002C2FD0617902296B
:109780002CD8E179012929D8A17A7F2926D840004F
:10979000134EA88131780220002900D1607111494F
:1097A0000968002900D160720F490968002900D1B9
:1097B000207220460D490C3002F086FD0020C04387
:1097C00020860021A1632560E163746002F056FFEA
:1097D00018214143B068F7F7BAFA002070BD0000C5
:1097E000CC01002084030020C8030020E9B600005B
:1097F00070B5016880880D18281F09F0FEFE044628
:109800002846083809F0F9FE44400C4800218A0037
:109810008258A24201D1012070BD491C0829F6DB03
:10982000074A91688B00C450491CC817400F401864
:10983000C008C000081A9060002070BD943000205D
:10984000F401002000B587B0034605A2192168463F
:109850000AF0A8F9684608F075FE07B000BD0000E0
:1098600062742F6D6573682F4170704B65792F2579
:1098700078000000F8B50E460546FDF7A5F8314C16
:109880000746002D11D1207BC1060ED580060CD4D1
:10989000E079032809D203F08DF8207BFB210840F2
:1098A000F107490F08432073F8BDFFF7F5FA20468A
:1098B0001430009002F0FEFC2248A1885C30806ADF
:1098C000808B00F0B5FE207B00258006002801DAA1
:1098D000258201E0A08820821B484168002904D02D
:1098E000207BC00601D502208847A580207BF72178
:1098F0000840C0B2FB21E5710840A5716573C0B294
:10990000CF21E570084025646564C0B20121084399
:10991000A5642073F88D000701D5FDF70DFC0948FB
:10992000001F002E02D000210171F8BD032101713A
:1099300003F0CAF87D21C9004143009802F0D8FC29
:10994000F8BD000008300020A003002000B587B05B
:10995000034605A2192168460AF024F9684608F072
:10996000F1FD07B000BD000062742F6D6573682FB4
:109970004E65744B65792F257800000000B585B0E1
:10998000034605A2142168460AF00CF9684608F05F
:10999000D9FD05B000BD000062742F6D6573682F9E
:1099A0004E6F64652F25780010B50448002140688B
:1099B000C1608160103002F07DFC10BD7C0300208E
:1099C00010B5044800214068C1608160143002F085
:1099D00071FC10BD9803002001B50E210C48FCF766
:1099E00067FC002813D004210948FCF723FC002859
:1099F00004D1012269460220FCF724F8054880685A
:109A0000426B002A03D0684601780120904708BDC8
:109A1000F83000204402002070B505468068002818
:109A20000ED0416900290BD08088002808D0284634
:109A3000FDF716FF010003D0A868183002F058FCAB
:109A40000748006800280AD0002460004019408AB6
:109A5000002801D0FDF76CFD641C062CF5D370BD09
:109A6000A0030020F8B50C46064604F020FB21793F
:109A70006279490092008918091D884202D211209A
:109A8000C043F8BD6188304604F07EFA2179304643
:109A900004F092FA6179304604F08EFA002508E06D
:109AA0002C20A168684308180188304604F06CFA3D
:109AB0006D1C2079A842F3DC00250CE02C20E16825
:109AC00068430F187988304604F05EFA39883046CA
:109AD00004F05AFA6D1C6079A842EFDC0020F8BD52
:109AE00000B5084985B049681046C968022906D101
:109AF000029004F0A5FA01466846FFF7EFFD05B0B5
:109B000000BD00007C03002070B506460024FDF770
:109B1000A3F8054620480078002800D001241F48FB
:109B20000068002801D0022004431D480068002876
:109B300001D0042004431B480068002801D00820FD
:109B400004432988304604F01FFA6988304604F03F
:109B50001BFAA988304604F017FA06F069FF01469F
:109B6000304604F011FA2146304604F00DFA002484
:109B70000BE0E86821014118002C0BD00022304690
:109B8000FFF770FF002804D1641CA868A042F0D839
:109B9000002070BD0122F2E7CC010020C8030020A4
:109BA00084030020A0030020F3B59EB001681C913F
:109BB00043681B93844687681A97C0681790139070
:109BC0006046006962461890526916921192624688
:109BD0009269159210926246D269149212920022F2
:109BE0001F9D6C1C661C2D7824782D0624042C43A4
:109BF000A64634462478761C250274462543741CF8
:109C00001F9434786E462C43950019957451A646DE
:109C100006250446EC410B260546F5416C40192605
:109C20000546F5416C40119E05463540109E864321
:109C300075406619604C199D6559129C2C1935198F
:109C400074462C19A64602250C46EC410D460D26FD
:109C5000F54165400C461626F44165401C467C40A3
:109C60001E460C403E4074402D19109C1294119CCD
:109C7000109411907446139813971F460B46611960
:109C8000521C7044102AABD36DE0541C2407A50E5F
:109C90006C4664590726A6467546F5411226F441DE
:109CA00065407446E4086540941E24071D95A50E82
:109CB0006C46655911262C46F441AE461326F541F3
:109CC0006C407546AD0A6C40A6461407A50E6E465C
:109CD00019957659D51F2D07AC0E6D462D59744632
:109CE00076191D9D2C193419199D6E46745106263E
:109CF0000546A646F54106460B24E6416E4005465C
:109D00001924E54134466C40119E05463540109EAD
:109D1000864375406619284D94002C59129D65198B
:109D2000751974462C19A64602250C46EC410D46C1
:109D30000D26F54165400C461626F44165401C464B
:109D40007C401E460C403E4074402D19109C1294DD
:109D5000119C11901398139710941F4674460B464C
:109D600061197044521C402A8FD31C9A52186146C4
:109D70000A601B99CA1861464A601A99CA19614655
:109D80008A60139A17998A186146CA601899091847
:109D90006046016111991698411860464161109919
:109DA00015984118604681611299149841186046CF
:109DB000C16120B0F0BD00000455010070B51C4D1C
:109DC0000246002912D001290FD100F0E7FA040061
:109DD0000BD06868002805D04268002A02D0002114
:109DE000204690476068401E606070BD10490020AA
:109DF0000831C3005B185B68002B11D0401CF8D001
:109E0000002000280FD002804168491C4160696829
:109E10000029EAD00A68002AE7D00021904770BDE7
:109E2000C0004018EDE71046F7F732FD70BD0000A6
:109E30009002002030B50023084D0CE0CC5C44407B
:109E4000200124092C5D6040C0B204010009285C97
:109E50004440E0B25B1C9342F0D330BD8453010018
:109E6000F8B51F46069E089D079B0446002901D0B1
:109E7000022000E001202070D0071843611C09F087
:109E8000D9FB611D384609F0D1FBE11D304609F0D0
:109E9000CDFB21460931284609F0CCFBF8BD000076
:109EA000F8B5002016460C46034600901F221749BD
:109EB0001748FBF7BDFF051E27D0207AC007010E0B
:109EC00028460C30074604F077F8E079C10904D041
:109ED0004106490E3846803102E04106490E3846B7
:109EE00004F06AF80322211D384604F05AF821884C
:109EF000384604F02FF86188384604F02BF8B28811
:109F00003846316804F04DF82846F8BD21A5000018
:109F10001C330020FFB581B01E46154613490B9F28
:109F20000C9C0198FDF773FC3946019804F044F845
:109F30003146019804F028F80A99019804F024F8B1
:109F4000002D09D00421019803F0F3FF04222146DB
:109F5000F6F7E2FE05B0F0BD0221019803F0E9FF3B
:109F60002178017061784170F4E700003E800000C4
:109F700010B5002303704C7844708C788470CC78D2
:109F8000C4700C7904714C79447189798171C37101
:109F9000014603720931104609F04CFB10BD10B5A3
:109FA00003230370002343708C788470CC78C470D2
:109FB0000C7904714C79447189798171C3710146BE
:109FC00003720931104609F035FB10BDFFB581B0B1
:109FD00004466846017A15464E06760E07D00A2ECC
:109FE00009D0207D400627D4002005B0F0BD2046D2
:109FF0000AF08AF9F9E7A888032802D20020C043B2
:10A00000F3E71A49608909880027884212D110466F
:10A0100004F016F84606760E284603F0E0FF0346E5
:10A02000607B61894006400E301A401CC2B2208914
:10A03000FDF750F83846D8E70D4F3868002803D0B0
:10A04000FDF76EFA002808D00A480368002B09D0F3
:10A050002A46214630469847C7E72A4621463046D9
:10A060003B68F8E70720C043BFE700005802002024
:10A0700090030020A803002030B505460D4887B0A6
:10A08000006E029004A80C46019003900A4901A8B2
:10A09000FDF7BDFBFCF73CFE014601A803F08CFF79
:10A0A00000200346009001AA21462846FDF7E0FC67
:10A0B00007B030BD8C4E01000E80000030B5044664
:10A0C000154887B0C06E029004A801900390A06A62
:10A0D0000D4600280BD0116809787F2919D801296D
:10A0E00017D0827A8A4202D08172FEF793FF0B4921
:10A0F00001A8FDF78CFBFCF70BFE014601A803F05D
:10A100005BFF00200346009001AA29462046FDF788
:10A11000AFFC07B030BD00008C4E01000E80000087
:10A1200070B506461448E4B0C068029004A80190D7
:10A1300003900D46104603F083FF040000D0002476
:10A1400068464089002814D0022101A8FDF75FFB72
:10A15000214601A803F030FF01A8FFF7D5FC002835
:10A1600007DB00200346009001AA29463046FDF790
:10A170007FFC64B070BD00008C4E01000248406856
:10A18000002800D101487047BC01002008060400E7
:10A190000148806870470000BC01002010B50C46E3
:10A1A00002F0C4FA002804D040882146F7F746FEA2
:10A1B00010BD122010BD000010B500F037F90028C6
:10A1C00006D0846803480121007809F019FE201A9E
:10A1D00010BD0000640200203EB504464906154645
:10A1E000490E104603F04AFFFEF712FB694608804D
:10A1F00020884880C87980210843C009C001694689
:10A20000C871032101A8F6F7A2FD02210648FCF758
:10A2100061F805492A4608390968081A0290694612
:10A220002046FFF73DFE3EBDEC2F002038B50D0067
:10A2300080881C46049943BA009201D003A200E032
:10A2400007A2204609F0AEFC38BD000062742F6DF5
:10A250006573682F566E642F25782F2573000000D4
:10A2600062742F6D6573682F5369672F25782F25CA
:10A2700073000000F0B50546144887B0806901906E
:10A2800004A8009002900E46E889FEF7CDFF07462D
:10A290000121684603F0F9FE0621684603F049FEF5
:10A2A00004463846FDF7D8FD2070094804220068AE
:10A2B00003A900BA0390601CF6F72EFD66716A468A
:10A2C00002212846FFF788FF07B0F0BD645801005F
:10A2D000E42F002010B50446383003F007FF206C4F
:10A2E000401C206410BD10B50446FFF7C3FF0100F9
:10A2F00002D02046FFF7EEFF10BD10B5F7F7C2F908
:10A30000002801D00D20C04310BD70B50E000546D9
:10A3100017D0002405E068686100405AB04210D0B0
:10A32000641C05F0D9FFA042F5DC002405E0686854
:10A330006100405A002805D0641C05F0CDFFA04202
:10A34000F5DC70BD68686100465270BD70B50D00E7
:10A3500006460AD000240AE070686100405AA8420C
:10A3600004D1002071686200885270BD641C05F041
:10A37000B3FFA042F0DC70BD074A002154234B43D9
:10A38000D358834203D15420414388187047491C55
:10A39000F4D000207047000064330020064A0021FA
:10A3A000CB00D35A834202D1C80080187047491CA1
:10A3B000F6D000207047000098020020FFB581B061
:10A3C000164600240A9F0B9D29E02C20019960432A
:10A3D0004018032189033F22711A1202286091421A
:10A3E00006D90121C9030122711A9203914204D2B4
:10A3F0003146FDF783F900280FD02868049903F04F
:10A4000077FC002809D02868006A03E00168B94297
:10A410000AD00C3081680029F8D1641CE4B202989B
:10A420008442D2D30020286005B0F0BD02490868FC
:10A43000884200D1002070476802002010B50A4809
:10A44000044609F03CF900280CD121680A68226012
:10A450006068884200D162601839C889FCF75EF8EC
:10A4600003F057FE10BD0000B82F002030B4836801
:10A470000C46002B03D0204630BC11461847122052
:10A4800030BCC0437047F0B4046815460E46002C3B
:10A4900005D029463046A446F0BC1A466047F0BCB9
:10A4A0001220C0437047F0B4446815460E46002C95
:10A4B00005D029463046A446F0BC1A466047F0BC99
:10A4C0001220C043704700207047C268002A01D0A4
:10A4D000084610471220C043704700000249CA7A5C
:10A4E000082AFCD00872704700340040F8B50024F8
:10A4F0000A4D2646BF27A0004119FF310131C86C23
:10A50000002809D0CE6481690A7A3A400A7203F0C1
:10A5100000FE641C032CEED3F8BD0000F8300020D0
:10A52000034900220969D24340000A52401870478B
:10A5300084030020F8B504461D484268002A05D06F
:10A54000E078800602D5208802219047204614300A
:10A5500001F0B0FE2188E08900F06AF8606B002706
:10A56000002802D003F0D5FD67632046383005F09F
:10A570003DFE002508E00C20216B68430E18304694
:10A5800005F034FE37726D1C00F04CFAA842F2DC84
:10A59000E078C721084040084000FB2108402764BC
:10A5A000E07000F045FA41002069F6F7D0FBF8BDF5
:10A5B0008403002010B50C460846403461897D2292
:10A5C000D20051434C3001F093FE6089400060811D
:10A5D00010BD000010B50C4AD3795B1C011E0B485E
:10A5E000D37108D003210171107B4007C10F0020F7
:10A5F000FFF740F910BD01210171104604491430E4
:10A6000001F076FE10BD000008300020043000206C
:10A610004C04000010B50021C94301800021418095
:10A620008180C18042210830F6F791FB10BD000007
:10A63000F8B50D46064600240B4F0EE04A20F96897
:10A64000604340184188A94206D10188B14203D134
:10A65000FFF7E0FF0020F8BD641C00F0D7F9A0422E
:10A66000ECDC0720C043F8BDF4010020FFB581B049
:10A670001F460E46054600242DE01A494A20C968A7
:10A68000604340180188AA8B914223D1002E02D04A
:10A690004188B1421ED10399002906D0A97F4A0101
:10A6A000891809180A7A03990A70002F05D0A97F22
:10A6B0004A0189180918093139600A99002906D018
:10A6C000A97F4A01891808180A99193008600020E2
:10A6D00005B0F0BD641C00F099F9A042CDDC072064
:10A6E000C043F5E7F401002070B5054600240C4E88
:10A6F00010E04A20F168604340184188002908D0E2
:10A700000188A94205D10146212229310830F6F7F6
:10A7100003FB641C00F07AF9A042EADC70BD000083
:10A72000F4010020F7B504461B486688006886B02F
:10A73000002808D01948008D864204D1FEF768F839
:10A740000646658802E0FEF763F805460120694683
:10A75000087202AF3046093108F064FFF91C284640
:10A7600008F060FFA088791D08F05CFFE088F91D03
:10A7700008F058FF079809224101401803191946AB
:10A780001846193109300191009002A90833089840
:10A79000FCF796FD09B0F0BDA0030020E42F0020D7
:10A7A000F8B50024074605460D4E893711E04A20CA
:10A7B000F168604340184188002909D00188AA8BBC
:10A7C000914205D13A460121FFF7ACFF002805D19F
:10A7D000641C00F01BF9A042E9DC0020F8BD000079
:10A7E000F4010020FFB583B01E460F46002539E076
:10A7F00023494A20C9686843441803982188808BFC
:10A8000081422ED13878217A4006400E88420ED1FE
:10A8100005990C9800912246029021463B46193238
:10A8200001960931039803F09BFC002820D003987F
:10A83000C07F002815D0387841062920005D490ED8
:10A8400081420ED105990C98009122460290214632
:10A850003B463A3201962A31039803F081FC0028E6
:10A8600008D06D1C00F0D2F8A842C1DC0720C0431C
:10A8700007B0F0BD307D0221084330750020F7E7B6
:10A88000F401002010B506F0D7FF10BD70B50546E5
:10A89000C078164680061BD5E889884218D1002E5C
:10A8A00008D00120C003864204D21146284601F098
:10A8B00051FB70BD002407E028696100405AB04296
:10A8C00001D1012070BD641C00F0B2F8A042F3DC9D
:10A8D000002070BDFFB581B01746002500F09CF840
:10A8E0000499884221D3002412E00198016B0C20C6
:10A8F00060430E18002F08D038880299C204D20C89
:10A90000304601F073FB00280CD1307A641C4519E5
:10A9100000F088F8A042E8DC00F07EF8411B0498C3
:10A92000814202D9012005B0F0BD0020FBE7000004
:10A9300010B5074A002909D150821046642114300D
:10A9400001F0D6FC02490420091F087110BD000067
:10A950000830002010B50446C078012807D1207BBC
:10A960000421C841490740181C21C84120732046D2
:10A97000143001F09FFCFEF7E0FA0349062008714D
:10A980000020E071E07010BD0430002070B5054675
:10A99000846A10680E460278002A01D0012A1AD172
:10A9A000002C14D0607A904211D00B480068002827
:10A9B00008D06272FEF72EFB607A002802D10748A9
:10A9C000FCF79CFAE08D400701D5FCF7B5FB31465A
:10A9D000284606F031FF70BD84030020FFFF000011
:10A9E00000B50849084B496885B0C96810469942C6
:10A9F00005D103F025FB01466846FEF76FFE05B062
:10AA000000BD00007C0300201180000001480068A8
:10AA1000807E7047BC01002001480068C07E7047FE
:10AA2000BC01002001480068007E7047BC01002086
:10AA300001480068407E7047BC0100200148006961
:10AA4000704700001C3500200148406900687047CD
:10AA50001C35002010B5064A50690168491C016088
:10AA6000D078FF2803D00121890309F0A5FB10BD90
:10AA70001C35002070B50C00054612D0A0780528C2
:10AA800006D10620FAF7BCFA60890021FFF796F993
:10AA9000A078062805D1FAF7B3FAA0880121FFF7BC
:10AAA0008DF9FAF7A9FA0574FAF7A6FA002114301D
:10AAB00001F01EFC70BD0000074A002106234B4335
:10AAC000D35A834203D10620414388187047491C5A
:10AAD0000329F3DB00207047883500200146064833
:10AAE000406906E0826852898A4201D1001D7047A0
:10AAF00000680028F6D170478004002000B50F29B7
:10AB00002ED00BDC0B00F9F723FD0F232323232387
:10AB10002B252B232B232B232B272300182917D05E
:10AB200008DC10390B00F9F713FD08131B1B131376
:10AB3000131919131E290BD006DC192908D01B295B
:10AB40000ED01D2904D10BE0522909D0D22907D0FB
:10AB5000002000BDC06800BD006800BD806800BD69
:10AB6000406800BD10B50C46FFF7A6FF00280DD0C9
:10AB7000002C00D020608078FE2803D0FF2803D06E
:10AB8000162010BD172010BD002010BD022010BDE2
:10AB900000229300CB5A834202D1900040187047A4
:10ABA000521C032AF5DB002070470000FEB54C68FC
:10ABB000089D6678277834020E783C43022E02D135
:10ABC000054EB44201D00120FEBD0224009501943F
:10ABD000F6F7EEFEFEBD00000229000010B506F0FB
:10ABE0004DFE10BD70B50546846A10680E460378A8
:10ABF000002B01D0012B1AD10D480068002812D07B
:10AC0000FCF748FA02280ED0002C0CD01068217AEC
:10AC10000078814207D02072FEF7FCF9E08D8007B2
:10AC200001D5FCF789FA3146284606F027FE70BDAB
:10AC3000C803002000B50849084B496885B0C968B9
:10AC40001046994205D103F0FBF901466846FEF72C
:10AC500045FD05B000BD00007C030020148000000D
:10AC600070B50C460546074907A0F9F749FC0AA04C
:10AC7000F9F746FC09A0F9F743FC2146284600F005
:10AC80009FF870BD784D01004150505F444247200D
:10AC900025733E2000000000200000000A00000094
:10ACA00070B586B016460C460546182221496846FE
:10ACB000F6F732F8FAF738FA6946087009F056FAEA
:10ACC0003221F5F7C9FF02911A491BA00E39F9F795
:10ACD00017FC607A08234106E356E288490E1AA061
:10ACE000F9F70EFC21A0F9F70BFC30680178012080
:10ACF000000307F0D1FB607A4106490EFF200A29C4
:10AD000001D069460873E188002909D00122D203E5
:10AD1000914205D200210291694608736420019096
:10AD2000684606F033FE2146284600F049F806B092
:10AD300070BD0000944D01004150505F44424720D7
:10AD400025733E200000000074746C3A2030782592
:10AD5000303278206473743A20307825303478208B
:10AD6000727373693A202564000000000A00000035
:10AD700010B514460B490CA0F9F7C2FB0EA0F9F769
:10AD8000BFFB0EA0F9F7BCFB01231B03184605F01F
:10AD9000B1FA21680978814202D0184607F07CFB9D
:10ADA00010BD0000AC4D01004150505F44424720AF
:10ADB00025733E2000000000200000000A00000073
:10ADC00030B5054620488DB08069029004A80C4635
:10ADD000019003901D4901A8FCF719FD0120000313
:10ADE00005F088FA014601A803F0E6F8164918A014
:10ADF000F9F786FB607AE2884106490E18A0F9F758
:10AE00007FFB1DA0F9F77CFB607A4106490E00200C
:10AE10000A2902D0FF21A17200E0A0720090002355
:10AE200001AA21462846FCF723FE04000AD0064961
:10AE300007A0F9F765FB214610A0F9F761FB0EA00A
:10AE4000F9F75EFB0DB030BD584D010004820000E3
:10AE50004150505F4442472025733E2000000000CF
:10AE600074746C3A20307825303278206473743AE8
:10AE700020307825303478000A00000073656E6455
:10AE800020737461747573206661696C65643A201F
:10AE90002564000010B52449C96C00291BD0017934
:10AEA00021484030007A814215D104211F48FBF728
:10AEB000FFF9002801D104F05FFC0E211B48FBF7CD
:10AEC000F7F9002808D00A211848FBF7A2F9002852
:10AED00002D006F02DFF10BD0B211448FBF799F9A5
:10AEE0000028F8D00C211148FBF750F90E210F482B
:10AEF000FBF7DEF9002807D00D210C48FBF789F994
:10AF0000002801D006F0FEFB0E210848FBF7D0F91F
:10AF10000028E0D107210548FBF77BF90028DAD0AB
:10AF200006F0F2FC10BD0000F8310020F8300020DF
:10AF3000F8B5144D06462878B0421ED0FAF736F818
:10AF400004001AD02878FF2818D000250E48C16ABE
:10AF500020460C30074603F00BF83146384603F024
:10AF60002BF80121384603F027F800222946204615
:10AF7000FAF78AFF204603F0CCF8F8BD2E70034D97
:10AF8000E4E7000044020020F8310020A45301004F
:10AF9000F8B50F46234C4179627C00798D088242D6
:10AFA00002D1FFF7C5FFF8BD1E4E217C203E88422E
:10AFB0000AD0521C904207D12074B06B03F069F89C
:10AFC000FF20A074E07401E08842ECD1E07CA8424C
:10AFD0000BD3A8420DD1B16B172209795043081A3F
:10AFE000C01CB988C0B2814203D0022004F0B0FF77
:10AFF000F8BD0120A17CA84001420090F8D0B06BC0
:10B0000017214D430068ED1E4019BA883968F5F7DD
:10B0100083FEA07C00998843A074E9D104F0A4FDCC
:10B02000F8BD00001832002070B5044640790D4686
:10B0300082080CD0012A15D0022A07D102211C480F
:10B04000FBF736F9002801D005F0ECFB70BD0E21AE
:10B050001748FBF72DF90028F8D12946204601F0C2
:10B06000FDFB70BD0E211248FBF722F90028F8D035
:10B07000A8880028F5D10E210D48FBF719F9002802
:10B08000EFD003210A48FBF7D5F80028E9D10421C5
:10B090000748FBF767F804F06FFB06488068016B10
:10B0A000002901D00120884704F038FD70BD000060
:10B0B000F830002044020020F3B5284C0646617C9D
:10B0C0000079FF2581B0814202D1FFF731FFFEBD3B
:10B0D000029802F084FF214F203FB96B88803079BD
:10B0E0002074029802F0ACFF2075B96B88880028A4
:10B0F00015D0C988884212D871798A0801D01428DD
:10B100000DD98808E074A07CC1070CD0C043C0B240
:10B1100000F0AEF8401EC5B2E07CA84203D2022087
:10B1200004F016FFFEBDA07C002800D00546707913
:10B1300081080120491C8840401E2840A0740298C4
:10B1400082880168B86B0068F5F7E6FDA07C4008CE
:10B150004000A074E6D104F007FDFEBD18320020C7
:10B16000F7B50F4604465321102008F07BFE064633
:10B170005321102008F076FE0546002E34D0002D15
:10B180002DD01022002108F049FF324629462046E2
:10B19000F6F73AFF040023D13078000609D5294696
:10B1A000304601F071FA3A461349284609F0EEFBA1
:10B1B00003E03946304601F067FA3878000609D5D1
:10B1C0002946384601F060FA0B492846029A09F0F0
:10B1D000DDFB05E03846029901F056FA00E0132441
:10B1E000304608F095FE00E01324002D02D02846DA
:10B1F00008F08EFE2046FEBD035A010008464A1E96
:10B200001178491C11707047014880687047000030
:10B21000CC010020002101231A468A40024202D0BC
:10B22000491CC8B27047491CC9B22029F4D3002078
:10B230007047F8B505468888144604280F46084626
:10B2400008D202F0E8FE0146002020702846FCF7F4
:10B2500041FAF8BD02F0DFFE0646384602F0DBFE9A
:10B2600002460120207031462846FCF756FAF8BD08
:10B2700010B5034620200124411E22468A401A426E
:10B2800002D10806000EF7D110BD000070B50446CB
:10B2900000680D460178144A880906D0012804D0B8
:10B2A000022808D003281DD10CE07F291AD020469F
:10B2B00002F0C6FE13E0A088022813D3204602F055
:10B2C0008EFE0CE0A08803280CD3204602F0B8FEC6
:10B2D00000042860204602F09EFE2968084328608A
:10B2E000002070BD104670BDFFFFFFFF10B50A467D
:10B2F0000B780F32DB0900D087230F3014786400FD
:10B300005C400470401E8A4203D01378DB09521E51
:10B31000F4E710BD70B516480021C1600161144CFE
:10B320000120207505F0F2FA607505F0E9FA114D7B
:10B33000686005F0E5FAA8606868002802D10E4848
:10B340006860A86005F0E2FA064605F0E7FA864272
:10B3500002D12520687004E005F0D8FA687005F085
:10B36000D5FA60750548F8F71BFF207270BD000024
:10B37000AC2F0020D8010020D6BE898EB90901006B
:10B3800010B50B46012806D0032813D0112801D18F
:10B3900009F0B2F810BD03F009FA05F0B7FA084C4D
:10B3A000617D884201D1FFF749F80120207509F03D
:10B3B00059F810BD1146184600F066F810BD00009F
:10B3C000AC2F002010B50D4C2078002813D00020A1
:10B3D0002070207A012108F001FD207A042108F074
:10B3E00073FF207A042108F0F9FC207A102108F07C
:10B3F000E3FE002010BD0120C04310BDAC2F002093
:10B4000010B5094C2078002802D00120C04310BD9F
:10B4100001202070207A102108F0E0FC207A012120
:10B4200008F0CAFE002010BDAC2F00200149486082
:10B4300070470000AC2F002070B504461838C08952
:10B44000FBF76CF80F4DE96805E0A14202D101203D
:10B45000C04370BD09680029F7D102F066FD0949B3
:10B460000020206008690C31002807D004604C607F
:10B47000287A022108F0A0FE002070BD4C600C600C
:10B48000F6E70000AC2F0020F0B51B4D0C46297DDF
:10B4900085B0042927D1012129752978002929D0CF
:10B4A000012823D0022821D0607806281ED9801FC9
:10B4B000C6B2002703A8E7570622A11C0130F5F702
:10B4C0002BFC00216846017308340294C680029860
:10B4D0000090684686806C68002C07D003460322E3
:10B4E000394603A8A0472878002803D000F006F8C2
:10B4F0000420287505B0F0BDAC2F002010B5F8F77A
:10B50000C1FA07480749407D48700846F7F7BAFE78
:10B510000023FF2219461846F8F7D4F910BD0000A1
:10B52000AC2F0020D801002010B5002803D004491A
:10B53000884201D1FF2010BDFFF79AFE10BD000028
:10B54000FFFF000010B50022028501464285203130
:10B550004A730A730C3000F0ADFE10BDFFB505460E
:10B56000294889B0806E029004A8019003901E467D
:10B570001746062101A8AC6AFCF749F9394601A82B
:10B5800002F01AFD002E08D0092101A802F0D1FC1A
:10B5900009223146F5F7C0FB2BE0218D01A802F00E
:10B5A000F3FC608D002806D0012806D01749884298
:10B5B00005D1FF2108E0002106E0012104E0401E42
:10B5C000FFF756FE401CC1B201A802F0F5FC26466A
:10B5D0002036317B01A802F0EFFC717B01A802F05C
:10B5E000EBFCE18D01A802F0CFFC218E01A802F056
:10B5F000CBFC00200090034601AA28460A99FCF7DC
:10B6000037FA0DB0F0BD00008C4F0100FFFF0000C5
:10B61000FEB51E4617460D46FBF754FD040022D02A
:10B6200028460025002821D008236A46314638469E
:10B6300001F07AFB002818D169460888A0832046CB
:10B640008978203001706946C978417069468888D8
:10B650006084C8880005000DA084C888C0040DD58A
:10B66000681EE0830BE00720C043FEBDA583204693
:10B67000E583203045700570658400E0E583002097
:10B68000FEBD000030B5174885B040681446C0685C
:10B69000062825D1104602F0D3FC0546204602F0CC
:10B6A000BAFC69460881204602F0CAFC69468872E5
:10B6B000204602F0C5FC6946C872204602F0C0FC74
:10B6C00069460873204602F0BBFC6946C8812046E3
:10B6D00002F0B6FC6946088229466846FDF7FEFF7F
:10B6E00005B030BD7C03002010B504460C3C808CB6
:10B6F000FDF79AFD002807D0608D002803D0214671
:10B700000348FBF71FFD10BD0020208510BD000081
:10B710008C4E0100002807D0FF2806D0112804D045
:10B72000411A0120884080B27047014870470000EC
:10B73000FFFF000010B51446002917D12C20005D32
:10B740000121FFF7E7FF7D21C90048430104090CEF
:10B7500006D0608D012803D920460C3000F0C8FDCA
:10B76000608D0349884201D0401E608510BD0000F5
:10B77000FFFF0000F7B50746254888B0406F0290EC
:10B7800004A801900390BC6A00F0E1FDE56BA26B98
:10B790002E46131A8D4101DA002508E0101A8E4159
:10B7A0007D223146D2000023F5F780FA85B219498F
:10B7B00001A8FCF72CF801A80A9902F0FDFB40341F
:10B7C000218801A802F0E0FB618801A802F0DCFBFF
:10B7D0002846FFF7A9FE014601A802F0EDFBA0886C
:10B7E000FFF7A2FE014601A802F0E6FBA17901A83D
:10B7F00002F0E2FBE17901A802F0DEFB0020034643
:10B80000009001AA38460999FCF732F90BB0F0BD57
:10B810008C4F01003C80000030B518481849406842
:10B8200085B0C0681446884225D1104602F008FC55
:10B830000546204602F0EFFB69460881204602F0EB
:10B84000EAFB69464881204602F0FAFB6946087324
:10B85000204602F0F5FB69464873204602F0F0FBF3
:10B8600069468873204602F0EBFB6946C873294697
:10B870006846FDF733FF05B030BD00007C030020B3
:10B880003C80000000B50949094B496885B0C9688A
:10B890001046994207D102F0D3FB69460872002195
:10B8A0006846FDF72FFF05B000BD0000980300209B
:10B8B0000780000010B5846A002C0AD02060204662
:10B8C0000749143000F000FD06484168002903D004
:10B8D00003E00020C04310BD4460002010BD000004
:10B8E000A535010098030020FEB5866A15460F466F
:10B8F000104602F0A5FB0290284602F08CFB74680B
:10B900000346002C07D0A988286800900191B988C7
:10B910003046029AA047FEBDF0B505461248E5B094
:10B920000069029004A80190039017460E4628462D
:10B93000AC6A00F01BF8002C13D0384602F06BFB09
:10B9400001466846408900280BD001AA284600F02D
:10B95000E6F800200346009001AA31462846FCF78D
:10B9600087F865B0F0BD0000E852010070B5846A48
:10B970000546002C0BD0104602F04DFB01466068D6
:10B98000002804D08268002A01D02846904770BD64
:10B9900030B505460E48E5B04068029004A8019015
:10B9A00003900C46104602F036FB0146684640897B
:10B9B00000280BD001AA284600F0B1F80020034669
:10B9C000009001AA21462846FCF752F865B030BD28
:10B9D000E852010010B50D4886B040681446C068B2
:10B9E000052811D1104602F02BFB6946087220464B
:10B9F00002F011FB69464881A088039020680490FA
:10BA000000216846FDF77EFE06B010BD98030020B9
:10BA100070B505461048E4B0C069029004A80190D2
:10BA2000039016460C46284600F018F8304602F0FF
:10BA3000F2FA01466846408900280BD001AA284640
:10BA400000F06DF800200346009001AA2146284628
:10BA5000FCF70EF864B070BDE8520100F8B5846AD6
:10BA600017460546002C10D0104602F0E9FA0646AB
:10BA7000384602F0D0FA02466068002805D0C36854
:10BA8000002B02D0314628469847F8BDF3B583B065
:10BA90000398846A002C35D004210498FBF7B7FE84
:10BAA0000121049802F045FA07460221049802F0A9
:10BAB00040FA0546FBF7D0F806466068002815D026
:10BAC0000068002812D0049802F0F1FA6946087163
:10BAD000049802AA016880880B1801A80090606889
:10BAE000394604680398A04700280DD03088287094
:10BAF000000A68700020387069460871684600794D
:10BB000005B0F0BD0020FBE7684600892870000AF8
:10BB1000687068460179049802F00BFAEEE7F7B511
:10BB200082B002981646846A002C27D00521104660
:10BB3000FBF76DFE0121304602F0FBF90546304669
:10BB4000039902F021FA60680027002815D04068A8
:10BB5000002812D0304602F0AAFA6946001F087188
:10BB6000B18830682A46431801A80090606803999C
:10BB700044680298A047002802D02F7005B0F0BD9D
:10BB800068460179304602F0D4F9F7E710B505F0C0
:10BB900097FE10BD70B50C46054600F005F821462D
:10BBA000284605F08DFE70BD10B50446104602F023
:10BBB00047FA0F2808D8A1680F234A891B020007FB
:10BBC0009A43000D02434A8110BD000000B50949A7
:10BBD000094B496885B0C9681046994207D102F0FF
:10BBE0002FFA6946087200216846FDF78BFD05B003
:10BBF00000BD0000980300203780000010B5846865
:10BC00002169FFF743FF012109030028608901D062
:10BC1000084300E088436081002010BD70B5002615
:10BC2000846AF6430546002C13D0A868002814D077
:10BC30000B49416120460B49083000F045FB28467E
:10BC40002560FBF7DDFD002801D0074804600020D7
:10BC500070BDFBF7D5FD0028FAD0304670BD00005E
:10BC6000FDBB00000D570000F001002010B5088852
:10BC7000401C80B208F0DAF9002802D001210170DE
:10BC8000401C10BD10B5481E0178491E0A06120E50
:10BC9000027001D108F0DEF910BD10B500231A467C
:10BCA000FFF75CFC10BD0000F7B582B00298146885
:10BCB000856A6078217806020E430120C0030121C5
:10BCC000301A8903884201D2012240E0A07811286D
:10BCD00001D9FF2802D1E078102801D90F2236E0DF
:10BCE00020797F2801D9FF2843D1A1796279080200
:10BCF00010430190217AE0790F0207431E488742E2
:10BD000037D83846FDF790FA00281FD02E852846F0
:10BD1000E17820300090017301980007000FE8855A
:10BD20002F86002E15D0A0780121FFF7F3FC68853F
:10BD3000009821794173E07800280ED0A07800287F
:10BD40000BD028460C3000F017FB0AE004222346F3
:10BD50000BE02846FFF7F6FB03E028460C3000F026
:10BD6000A9FAFDF75CF900231A4603990298FFF738
:10BD7000F5FB05B0F0BD0000FF0F000010B500227C
:10BD8000FFF7F8FC10BDF7B500981746856A104616
:10BD900002F041F90646384602F03DF904463846BD
:10BDA00002F04EF907460120C003002E01D0864262
:10BDB00050D20122211A920391424BD3FF21090252
:10BDC000611AFB2946D9002C05D0844203D2FCF726
:10BDD0001FFDA0423ED1112F3CD87F21002E20D044
:10BDE000002C1ED0002F24D02846403006804480EE
:10BDF00081710021C171818001213846FFF78AFCE1
:10BE00007D21C900484304462E4640367088FDF720
:10BE1000B5F8002C0FD000F09AFAE2170019514142
:10BE20000BE0002228464030028042808171C271BE
:10BE300082800024E8E700200146E963A86300222D
:10BE400001990098FFF796FC002C03D10020B080E8
:10BE5000B071F071FEBD000010B58869406900281E
:10BE600005D003484A68097F007808F0F3F910BD4F
:10BE70003801002010B5064906A0F8F741FB09A0DB
:10BE8000F8F73EFB0BA0F8F73BFBFCF7BBFF10BD40
:10BE9000524B01004150505F4442472025733E20E1
:10BEA000000000002062745F6D6573685F726573E7
:10BEB000657420000A00000010B5044640690B4676
:10BEC000002805D04268002A02D018462169904710
:10BED000A069406908F0BEF8A1690020486110BD62
:10BEE00070B59069144640690D46002812D0002DA7
:10BEF00010D0094909A0F8F703FB29460BA0F8F771
:10BF0000FFFA12A0F8F7FCFA1148217F64220078AA
:10BF100008F0A0F970BD0000814C01004150505F55
:10BF20004442472025733E2000000000556E6162A8
:10BF30006C652073656E6420696E64696361746505
:10BF400020286572723A2564290000000A0000006A
:10BF5000380100200288002A07D08A4205D8007ADA
:10BF60001018884201D90120704700207047000056
:10BF7000F8B50E460546F9F7D1F8002822D1287DFC
:10BF80008106890F01291DD040061BD504F050FD04
:10BF9000002818D00024144F20E0F86AE10040186F
:10BFA0000188002916D02A89914216D1297DC90716
:10BFB000817809D0002915D008E0306002E02946D8
:10BFC00008F066FB0020F8BD002903D141682A690A
:10BFD000914207D2002EF2D0EFE7641C04F028FD56
:10BFE000A042DADC0120F8BD64300020FEB5046810
:10BFF00016460F46002C24D020460C3001A9009094
:10C0000002F04CF80521009801F0E1FF009801F0E2
:10C01000E6FF05460321009801F0D9FF009801F0E2
:10C02000DEFF6A4692886169400489186A46E160C9
:10C03000C00CD1882182AF4203D1864201D10120B8
:10C04000FEBD0020FEBDF8B50446008A002510287C
:10C0500001D00020F8BD20460C306946064602F0AB
:10C060001DF80121304601F0B2FF304601F0E8FF33
:10C07000C0091BD00321304601F0A9FF0221304640
:10C0800001F0A5FF0221304601F0A1FF0121304659
:10C0900001F0CEFF00784006400E022806D10125AF
:10C0A0000621304601F0C4FF01214171694609882B
:10C0B000606940186946E060488820822846F8BDDB
:10C0C0002021084361381A2801D20120704700203E
:10C0D000704730380A2801D201207047002070478D
:10C0E000202802D00938052801D2012070470020FD
:10C0F000704741381A2801D201207047002070474C
:10C100007CB5154D10462C46002208341E460029E9
:10C1100012D005236A46314600F006FE00281AD1E7
:10C120000098286068460079C107C90F04200029DB
:10C13000216807D0014306E02A602168042081437A
:10C14000216007E081436846216000794108024888
:10C150006030017400207CBDE42F0020014800689D
:10C1600080787047BC01002010B5FFF7F7FF01464B
:10C170006020F4F771FD16490A7C8018C0B208747B
:10C1800060280FD20120FCF74FFFFFF7E7FF0146C1
:10C190006020F4F761FD0F4941430D48143000F071
:10C1A000A7F810BD0A4802215838FAF76FF800289E
:10C1B00009D00120FAF75EF90548002160380068CF
:10C1C000FBF79AFE10BD0120FCF72EFF10BD00000A
:10C1D0004430002080EE360038B5344807F068FA65
:10C1E000002801D0002404E0304807F04FFA04464C
:10C1F000143C002C1CD0207A410616D5217B002946
:10C2000007D020461830FFF717F9207AC10910D05F
:10C2100039E0BF21084020722068002805D042681C
:10C22000002A02D00020616890472046F8F7C6FE39
:10C2300038BD80210843207207F098FF00906846BF
:10C2400080780099401800906846C078009940189E
:10C25000009080B20A21F4F7FFFC207A8009800167
:10C2600008432072617B8006800E081820822168B6
:10C27000002908D00B68002B05D0217B6268484359
:10C2800080B200219847207B401E20730748016838
:10C290006161143404604168002900D14460F8F7FA
:10C2A000B5FE018A024800F023F838BDB401002031
:10C2B000342F002010B58169002902D008F024FB3A
:10C2C00010BD0020C04310BD00B5034600F04EF87D
:10C2D0000020D8601861986100BD10B50C3008F0DE
:10C2E000DDFB81004018C117490F0818C01010BDB0
:10C2F0000A4610B50146024800F004F810BD0000DF
:10C3000090320020F8B50024174606460D46002A54
:10C3100002DA1224E44318E0A869002804D0B042ED
:10C3200002D01324E44310E0B04204D1084608F0E0
:10C33000EBFA040009D4F8000521AE61F4F7A2FC81
:10C34000014628460C3008F059FB2046F8BD10B5D0
:10C35000F7F7D8FE81004018C008002110BD10B5C5
:10C36000F7F7D0FE81004018C00810BD002202601F
:10C37000826041607047000010B50146014800F03E
:10C3800003F810BD9032002070B58B6801251D4365
:10C390000024DA078D60D20F09D10C604268002AB0
:10C3A00006D011604160007A012107F005FF70BDE1
:10C3B00041600160F7E7000010B504460A490BA090
:10C3C000F8F79EF821460DA0F8F79AF80EA0F8F7B6
:10C3D00097F8012C04D0022C01D105F073FD10BD9B
:10C3E00005F022FB10BD0000AC4B01004150505F36
:10C3F0004442472025733E20000000006B6579739E
:10C40000203A2025642000000A00000070B505468F
:10C410001007000C01431446284601F0B5FD200525
:10C42000010E284601F0C8FD70BD70B503685C7848
:10C430001D7823022B431B051B0D0B8001688B7895
:10C440004C781902214309091180032101F0BFFD35
:10C4500070BD0000F7B5002617463446166014E09C
:10C460000F48610040680D182888C10401D43D6060
:10C470000AE08104CA0F00998A4205D1010501989A
:10C48000090D814200D12E46641CF9F7F1F80546EA
:10C4900007F02AF82818A042E2DC3046FEBD000072
:10C4A00004020020F8B506460D46104601F0B3FD23
:10C4B0000A49044688420BD8FCF7B6FE002808D08B
:10C4C00000210091C37F22462946304605F034FA08
:10C4D000F8BD042000230090F5E70000FF0F0000E6
:10C4E000F7B582B01446104601F095FD0746204688
:10C4F00001F0A6FD0546204887423AD83846FCF7A9
:10C5000093FE04000BD0A81E022832D2E07F002642
:10C51000002808D0012809D0022809D022E00420F0
:10C520000023009020E0022D23D01BE0022D02D03A
:10C53000032D05D016E00220E0770120A0770EE061
:10C540002046FBF72BFF0D480D490068096808439A
:10C5500003D003980088FEF7C7F8E677A677204651
:10C56000FBF7BCFA0096E37F3A460399029805F080
:10C57000E3F905B0F0BD0000FF0F0000A0030020AC
:10C580008403002030B50E480E49406885B0C0686D
:10C590001446884211D1104601F052FD054620464E
:10C5A00001F039FD69464881204601F049FD6946A0
:10C5B000087229466846FDF791F805B030BD0000C5
:10C5C0007C03002017800000F3B5488881B00D4639
:10C5D000002803D025490988884201D91B20FEBDC7
:10C5E0000421686807F0E0FBA978044601706888B8
:10C5F0001F4E010A61702978A17028880227010A5C
:10C60000E1706888001D85B20198B04211D10C20FC
:10C6100007F00CFD01000AD0902008704E800F71C9
:10C62000CD8014488C60007807F074FD16E013206C
:10C63000FEBD23462A460021F5F704FC0E490028DA
:10C6400007D002280CD007280CD012280CD01F28A5
:10C65000EED10878002801D0401E08700020FEBDF1
:10C660001420FEBD0420FEBD0220FEBDFA04002001
:10C67000FEFF0000F8040020F104002001480068DB
:10C68000007C7047BC01002010B500230F22845CA1
:10C6900064001C438C54835C521EDB09D2B20F2A07
:10C6A000F5D910BD70B514460D46064600F026F8C3
:10C6B000002808D00379C06A00280CD01221194044
:10C6C000102905D00BE00C48864213D0142070BD11
:10C6D000002C02D103E0D8060CD4052070BDD90689
:10C6E00001D40F2070BD002804D0807EA84201D262
:10C6F0000C2070BD002070BDFEFF000030B50A4A5E
:10C70000002113780CE03C2455684C43641964887C
:10C71000844203D13C204143481930BD491CC9B271
:10C720009942F0D3002030BD18050020F0B50C4D23
:10C7300000210C4E2C780FE03C226B684A43D7183E
:10C740007F88B74206D09A5C824203D13C204143A5
:10C75000C818F0BD491CC9B2A142EDD30020F0BDFC
:10C7600018050020FFFF000000B5FFF7C7FF0028F5
:10C7700000D0808A00BD000010B50C4605498842F3
:10C7800006D0FFF7BBFF002803D00079204000D07F
:10C79000012010BDFEFF0000F8B5164916A0F7F7FE
:10C7A000AFFE18A0F7F7ACFE17A0F7F7A9FEFAF74F
:10C7B00067FD00281AD0154C0325AD036585144E7E
:10C7C0002046A68518300090FCF750FC0027A7846F
:10C7D0000098FCF739FC0F4C6582A6822046FCF7D6
:10C7E00045FCA7812046FCF72FFCF8BD03F00AF9B1
:10C7F000F8BD00002E4B01004150505F44424720DD
:10C8000025733E20000000000A00000050000020B8
:10C81000FFCF00003C01002010B5084908A0F7F741
:10C820006FFE0BA0F7F76CFE0AA0F7F769FE0A4847
:10C830000121007807F048FD10BD0000244B0100E5
:10C840004150505F4442472025733E2000000000C5
:10C85000200000000A00000000000020F8B5064695
:10C8600088880F46102816D302211E48F9F720FDAC
:10C870001C4C2546FF342035013400280CD0E06ADA
:10C880003168884207D1287D002804D10022114652
:10C890000120F9F7D7F8F8BD134810228068016825
:10C8A0003868F4F774FA0028F5D10F488068016BF6
:10C8B000002901D0012088473068E0620221094840
:10C8C000F9F764FCA06B01F0E4FB08490848FFF7A6
:10C8D0000FFD002211460120F9F7B4F80020287559
:10C8E000F8BD0000F83000204402002060EA00009B
:10C8F00070320020F8B519490126886A184D0028C1
:10C900001AD08047174F04467889002820D0A042CB
:10C9100001D2214600E00146A04200D32046081A79
:10C920003C2815DD0D48C06A002800D080476E7194
:10C93000F4F7C0FD7C81F8BD68790021002805D19D
:10C94000A868401CA8600007F5D56E71A96002E0D8
:10C9500068790028EFD0F4F7E5FBF8BD882E0020B9
:10C96000DC2E0020BC2E002030B510481049406855
:10C9700085B0C0681546884215D1104601F04BFBC2
:10C980000446284601F047FB002804D1284601F060
:10C9900057FB002800D0012069460C81039000213C
:10C9A0006846FCF79BFE05B030BD00007C0300200C
:10C9B0002E80000030B589B00024164803940494FA
:10C9C00007C805AB07C31448134D806A6946828BBC
:10C9D0008A82803D2A8D0A83029005A80390FBF786
:10C9E00017FF69460882FBF701FE69468874088ACA
:10C9F000042340BA0884688E08AA40BA48840548CF
:10CA0000052128380090019402A8FAF75DF909B0D1
:10CA100030BD0000245901006430002070B5064686
:10CA2000224888B0006D029004A8019003900D4642
:10CA3000104601F0F0FA040034D00120C003844213
:10CA400030D21B4901A8FAF7E2FE214601A801F005
:10CA50009BFA18480068002826D001231A46214670
:10CA60001548FAF769FA00281ED01430FFF735FC94
:10CA70006421F4F707F90446E1B201A801F09CFA39
:10CA80002004010E01A801F097FA2002010E01A86E
:10CA900001F092FA00200346009001AA2946304690
:10CAA000FAF7E6FF08B070BD0024E5E78C4F0100FF
:10CAB0002E80000084030020FFFF00000148006872
:10CAC000808C7047BC01002001480068C08C704712
:10CAD000BC01002000220AE0022101E000BF00BFEB
:10CAE0000B46491E89B2002BF8D1521C92B28242E9
:10CAF000F2D370470E498A6A481502438A620321BD
:10CB0000F5F766F8F7F7BCFC0A490BA0F7F7F8FC55
:10CB10000A4909A0F7F7F4FCF4F7F0FCF5F7DEF8A2
:10CB2000FAF7C4FCF4F7ACFAF7F758FBFCE700009F
:10CB3000801000400C4E010025730A004A4E01008F
:10CB4000F8B5434E434FB06A808BB84201D1002004
:10CB5000F8BD41480068002802D00120FCF746F8E3
:10CB600000252CE0E420B16A68430918888BB8429C
:10CB700024D00C46303108460091FBF751FA0028CA
:10CB80001CD1E07F00280BD0214689310846FBF7F5
:10CB900047FA002804D059210098F4F7D8F80DE09E
:10CBA0002E480068002803D000202021085502E00C
:10CBB0000221202001552046FAF790FF6D1C06F057
:10CBC00093FCA842CEDC22482038007C60280BD29F
:10CBD000FFF7C4FA01466020F4F73EF820494143CC
:10CBE0001B480C38FFF784FB00211E48FAF7B0FD04
:10CBF000FAF768FA00280BD0818B002908D0C18B86
:10CC0000002905D02021095C002901D0FFF7B4FBE1
:10CC1000F9F7DAFE002811D013490A78002A0DD05E
:10CC20004A7802718A784271CA7882710A79C2712F
:10CC30004A7902728A794272C97981720448002164
:10CC40007838F9F799FA0020FCF7B0F97FE700008F
:10CC500064300020FFFF0000C4030020C803002050
:10CC600080EE3600199A0000240200200449026870
:10CC70000A60406848600020886002490860704788
:10CC80002C330020AC0300208178491E052921D2D5
:10CC90004178491E04291DD2C178C91FD72919D24C
:10CCA0000179891E1F2915D24179491E042911D203
:10CCB0000189FF2276320C3991420BD28179491ECB
:10CCC000042907D2817A491E042903D20078C01EA4
:10CCD000122801D30020704701207047FFB581B0B2
:10CCE000070014D0694605F063FC0E4D064600248B
:10CCF000E000285832463946F4F756F8002809D0A3
:10CD0000641C0C2CF4D30720C04305B0F0BD0020F8
:10CD1000C043FAE7E00002AE40190ECE4468009826
:10CD2000A047F2E72453010070B51C4615460E4695
:10CD300003462246294630469847002803DBA04296
:10CD400002D00020C04370BD002070BDF7B5374849
:10CD50008CB04069059007A80490069015461046CF
:10CD600001F059F906005FD00120C00386425BD272
:10CD7000284601F050F90190286800903046F9F7F4
:10CD8000F9FF002700280AD003AA2946FEF751FA26
:10CD900004000FD00C98A0420ED10D2031E0A888DD
:10CDA0000024042804D0002069460873012028E0EC
:10CDB0000120F9E7022024E0019D2846F8F71AFB3C
:10CDC000002807D00020420011198989A94203D107
:10CDD000384616E0032014E0401C0328F3D314491E
:10CDE00000204200121992898A4206D14100081996
:10CDF00085812046FCF728F9EAE7401C0328F0D398
:10CE00000520019A00990291019000926846027BE8
:10CE10003346214604A8FDF77DF8002304AA0097B5
:10CE20000D990C98FAF724FE0FB0F0BD8C4F01005D
:10CE3000FFFF0000F7B531488CB0C06A039005A829
:10CE4000029004901646104601F0E5F8040052D016
:10CE50000120C00384424ED220463768F9F78AFF8A
:10CE600000280CD001AA3146FEF7E3F9050011D0E5
:10CE700000266846007900280ED021490EE0B088CF
:10CE80000025042804D00020694608710126F0E737
:10CE90000120F9E70226ECE71949891E02A8FAF7F2
:10CEA000B6FC314602A801F087F8214602A801F03D
:10CEB0006BF868460079002801D0042200E00222C5
:10CEC000394602A801F06DF8002D0CD00D4E00245B
:10CED000600040198189B14202D002A801F054F8E3
:10CEE000641C032CF4D300200346009002AA0D9981
:10CEF0000C98FAF7BDFD0FB0F0BD00008C4F01009B
:10CF00004E800000FFFF000030B510481049406817
:10CF100085B0C0681446884216D1104601F090F8DA
:10CF20000546204601F077F8204601F074F8A08805
:10CF3000042802D3204601F06EF8204601F06BF879
:10CF400029466846FCF7CAFB05B030BD7C030020CB
:10CF50003E800000F7B522488CB0006A059007A813
:10CF6000049006901746104601F055F8050028D0A9
:10CF70000120C003854224D2384601F04CF80090CD
:10CF800028463E68F9F7F6FE00281CD003AA394669
:10CF9000FEF74FF9040021D00122009900F074FE41
:10CFA000019002966846027B2B46214604A8FCF7B6
:10CFB000B1FF00200346009004AA0D990C98FAF7DF
:10CFC00057FD0FB0F0BDB8880024042804D000201D
:10CFD000694608730120E3E70120F9E70220DFE753
:10CFE0008C4F010070B50446806816460D46002837
:10CFF00005D00460A06826491830FFF765F9254977
:10D00000002042001219401C91810328F9D300200E
:10D01000014642001219401C51820628F9D31E48CD
:10D0200040688089281A00112071002E06D0E86817
:10D030002C21201AF3F726FE607117E0A8682C2136
:10D04000201AF3F71FFE60712088002806D00128FF
:10D0500008D0022813D0032808D114E00F486062DA
:10D060000F4802E00F4860620F482062606A0028A3
:10D0700004D08168002901D02046884770BD0B4844
:10D0800060620B48F1E70B4860620B48EDE7000077
:10D0900035D30000FFFF0000A80100207C4E0100F6
:10D0A0000850010044570100245601004852010075
:10D0B00058520100E4580100A8580100F7B586B0A5
:10D0C00015460026104600F0A6FF04001FD00120E0
:10D0D000C00384421BD220462F68F9F74BFE00287C
:10D0E00017D004AA2946FEF7A4F800281CD08168AE
:10D0F00000291BD08E8800216A46127C009201AD67
:10D1000083C5334622460799069804F0D3FC09B03C
:10D11000F0BDA9880020042904D000216A461174BA
:10D120000121E9E70121F9E70221E5E70721E3E72A
:10D13000F7B58AB01746104600F06DFF060045D0DF
:10D140000120C003864241D2384600F064FF0790B8
:10D15000384600F060FFC1040005000DC90F0690BD
:10D160000591384600F06CFF05467F2801D9FF2D58
:10D170002CD1384600F064FF0190384600F060FF83
:10D180000090386808903046F9F7F4FD00281FD069
:10D1900004AA3946FEF74DF8040024D00098012275
:10D1A0000290009503922046059B069A0799F7F78F
:10D1B000F9F96A46127C0899009202900194039151
:10D1C0003246079B0B990A9804F074FC0DB0F0BD31
:10D1D000B8880024042804D000206946087401207F
:10D1E000E7E70120F9E70220E3E7000030B519483E
:10D1F0001949406885B0C0681546884227D1104655
:10D2000000F01EFF0446284600F005FF284600F007
:10D2100002FF69460881284600F0FDFE00226946AB
:10D2200000050A73000D4881284600F009FF694691
:10D230004873284600F004FF69468873284600F0CA
:10D24000FFFE6946C87321466846FCF747FA05B0F9
:10D2500030BD00007C03002019800000F7B58AB0C3
:10D260001746104600F0D7FE060061D00120C0032B
:10D2700086425DD21021384600F0DAFE0290384630
:10D2800000F0C9FEC1040005000DC90F069005910C
:10D29000384600F0D5FE05467F2801D9FF2D47D13D
:10D2A000384600F0CDFE0190384600F0C9FE0090EF
:10D2B000386808903046F9F75DFD00280CD004AAC4
:10D2C0003946FDF7B6FF040013D007A9029807F00E
:10D2D00011FA002812D01DE0B8880024042806D0D6
:10D2E00000206946087400208883012012E0012094
:10D2F000F7E700206946888302200BE000980122AE
:10D300000095039202906846818B2046059B069A01
:10D31000F7F748F96A46127C089900920194039144
:10D3200002906A46938B32460B990A9804F0C2FB2E
:10D330000DB0F0BD70B50446183C2068FAF790FABD
:10D3400005466089400B10D0206802F0BFFE00281F
:10D350000AD06089C004C00C6081002D04D0204632
:10D3600029461830FEF7C4FF70BD002DFCD061695E
:10D37000206888470028F7D16089400B03D02046F9
:10D380001830FEF797FF2068FAF794FA70BD70B571
:10D390001546044600F0A8FA002802D02046FBF704
:10D3A00065FE00231A4629462046FAF76DF9606AA1
:10D3B000002804D0C168002901D02046884770BDEC
:10D3C000FEB51D4616460C00074665D0102200210A
:10D3D000204605F05DFF80B2010AC2B23846FAF776
:10D3E000F1F9070058D06946204605F0E1F80190B0
:10D3F0000098002850D02AA1019AF3F7D5FC002408
:10D40000002815D028A1019A0098F3F7CDFC002838
:10D410001ED026A1019A0098F3F7C6FC002828D058
:10D4200023A1019A0098F3F7BFFC002828D033E02D
:10D43000214A089B3946002047007F18401CBA81CA
:10D440000328F9D3002E12D0062218460C310BE027
:10D45000384612300C21089F0190F3F778FC002E1B
:10D4600005D00C2238460199A847002800DB204649
:10D47000FEBD2A4631463846089B00F01FF8FEBD27
:10D48000786A002808D00468002C05D02A46314666
:10D490003846089BA047FEBD0720C043FEBD0000E4
:10D4A00062696E640000000073756200707562004E
:10D4B0006461746100000000FFFF0000FEB50446D7
:10D4C00080681E461746002832D001252D0300290A
:10D4D00031D008236A4631463846FFF725FC00283C
:10D4E00025D16A46A16810888880A1685288C888BA
:10D4F0001205000B0003120D1043C8806A46D27952
:10D50000A843D206D20F12031043A1686A46C8800E
:10D51000A16810790872A16890798872A168507921
:10D520004872A0684189C904C90C41810020FEBD30
:10D530000020C043FEBD00228280A168C888000B85
:10D540000003C880A168A843C880A0680272A068D0
:10D550008272A0684272E4E7F7B586B014461046BE
:10D5600000F059FD060050D00120C00386424CD285
:10D57000204600F050FD0546206804903046F9F73B
:10D58000F9FB00280DD003AA2146FDF752FE040046
:10D5900010D0032080032149281A88420CD3012788
:10D5A00027E0A088042803D0002069460873F6E726
:10D5B0000120FAE702271CE029462046FAF79EF8E8
:10D5C000002801D0002714E041000919498A0029E8
:10D5D0001DD0401C0628F7D306281CD00027204663
:10D5E000FBF744FD0E480068002802D02846F9F7F2
:10D5F0009FFF6846017B04980291019033463A46AA
:10D6000000950799069804F0B7FA09B0F0BD4100FB
:10D6100009194D82E0E70527EBE70000013F000014
:10D62000A0030020F7B586B01446104600F0F3FCC6
:10D6300005004AD00120C003854246D2204600F0B2
:10D64000EAFC6946088228462768F9F793FB002818
:10D650000FD003AA2146FDF7ECFD060012D0684664
:10D66000008A03218903401A194988420CD30124F6
:10D670001FE0A088042803D0002069460873F6E75D
:10D680000120FAE7022414E0124800240068002870
:10D6900003D0012104A8F9F77DFF6846018A3046CE
:10D6A000FAF72CF8002804D0002101803046FBF75F
:10D6B000DDFC6946087B098A0290019700912B46A0
:10D6C00022460799069804F057FA09B0F0BD000009
:10D6D000013F0000A0030020F7B584B017460E46B6
:10D6E000104600F098FC04002AD00120C0038442B8
:10D6F00026D220463D68F9F73DFB002822D003AA38
:10D700003946FDF796FD070026D01448006800282A
:10D7100004D0384606211230F9F73CFF384600F0B5
:10D72000E3F83846FBF7A2FC00226846007B0021A4
:10D7300000910290234601953146049804F01CFAAA
:10D7400007B0F0BDB888042804D0002069460873EB
:10D750000122EAE70120F9E70222E6E7A003002020
:10D76000F0B507462A488BB0C06C029004A801901F
:10D7700003900E461546104600F04DFC040035D0CF
:10D780000120C003844231D2284600F044FC0090BE
:10D79000204901A8FAF73BF82046F9F7EBFA0028F0
:10D7A00026D00099F9F796FF050023D0002101A8A3
:10D7B00000F002FC214601A800F0E6FB01A8009958
:10D7C00000F0E2FB002460004019418A002902D0E9
:10D7D00001A800F0D9FB641C062CF4D300200346FA
:10D7E000009001AA31463846FAF742F90BB0F0BD75
:10D7F000012100E0022101A800F0DEFB214601A882
:10D8000000F0C2FB01A8009900F0BEFBE6E70000B3
:10D810000C4F01002A800000F0B5074630488DB05B
:10D82000806D029005A8019003900E4615461046A3
:10D8300000F0F1FB04003ED00120C00384423AD244
:10D84000284600F0E8FB0490284600F0E4FB009036
:10D85000244901A8F9F7DBFF2046F9F78BFA0028E5
:10D860002BD0009A0499F9F758FF050027D0002122
:10D8700001A800F0A1FB214601A800F085FB01A84A
:10D88000049900F081FB01A8009900F07DFB0024C1
:10D8900060004019418A002902D001A800F074FB01
:10D8A000641C062CF4D300200346009001AA3146E4
:10D8B0003846FAF7DDF80DB0F0BD012100E0022195
:10D8C00001A800F079FB214601A800F05DFB01A84A
:10D8D000049900F059FB01A8009900F055FBE2E71C
:10D8E0000C4F01002C800000F1B500252C462F467E
:10D8F000009869000E18708A0121C903421A491064
:10D900008A420DD3002814D00C480068002804D0A7
:10D91000304612300121F9F73DFE7782641C08E0A1
:10D92000F9F7AAFD641C7782002802D0002106F0D6
:10D930000CFF6D1C062DDBD32046F8BDA003002094
:10D94000F7B586B01446104600F065FB07004BD0D3
:10D950000120C003874247D2204600F05CFB064608
:10D96000206804903846F9F705FA00280DD003AA7C
:10D970002146FDF75EFC050010D0032080031B4903
:10D98000301A88420CD3012422E0A088042803D056
:10D99000002069460873F6E70120FAE7022417E041
:10D9A00013480068002804D0284606211230F9F7F1
:10D9B000F1FD2846FFF798FF6E8200242846FBF70A
:10D9C00055FB0B480068002802D03046F9F7B0FD3F
:10D9D0006846017B0498029101903B4622460096DE
:10D9E0000799069804F0C8F809B0F0BD013F00009F
:10D9F000A003002030B510481049406885B0C068C9
:10DA00001446884216D1104600F01AFB05462046FF
:10DA100000F001FB204600F0FEFAA088042802D3A3
:10DA2000204600F0F8FA204600F0F5FA294668464C
:10DA3000FBF754FE05B030BD7C0300201F800000C2
:10DA4000F7B586B01446104600F0E5FA050054D04C
:10DA50000120C003854250D21021204600F0E8FA90
:10DA6000009028462668F9F785F9002700280CD091
:10DA700003AA2146FDF7DDFB040011D004A900989C
:10DA800006F038FE07002CD10EE0A088042805D04F
:10DA90000020694608730F82012722E00120F8E781
:10DAA0006846078202271CE06846018A2046F9F78B
:10DAB00025FE002815D141000919498A00291ED0E8
:10DAC000401C0628F7D306281FD0114800680028FC
:10DAD00003D06846008AF9F72BFD2046FBF7C6FA0B
:10DAE00000276946087B098A0290019600912B461F
:10DAF0003A460799069804F03FF809B0F0BD694628
:10DB00004200098A12195182DDE70527E9E7000082
:10DB1000A0030020F7B586B01646104600F07BFA49
:10DB200004004ED00120C00384424AD21021304666
:10DB300000F07EFA009020463768F9F71BF90025BF
:10DB4000002823D003AA3146FDF773FB060028D036
:10DB500004A9009806F0F9FD02466846008A0028EC
:10DB600024D019480068002803D0012104A8F9F73F
:10DB700011FD6846018A3046F9F7C0FD002814D02F
:10DB800005803046FBF772FA00220FE0B0880428C7
:10DB900005D00020694608730D82012206E00120AD
:10DBA000F8E768460582022200E00C226946087BFD
:10DBB000098A02900197009123460799069803F07D
:10DBC000DBFF09B0F0BD0000A0030020F7B586B070
:10DBD0000020694608821446104600F01CFA060030
:10DBE0004DD00120C003864249D21021204600F0CA
:10DBF0001FFA009030462768F9F7BCF8002818D0C3
:10DC000003AA2146FDF715FB05001CD01D4800683E
:10DC1000002804D0284606211230F9F7BBFC28461C
:10DC2000FFF762FE04A9009806F064FD04000CD022
:10DC300019E0A088042804D0002069460873012454
:10DC400011E00120F9E702240DE06846008A6882AD
:10DC50002846FBF70BFA0B480068002803D06846FB
:10DC6000008AF9F765FC6946087B098A02900197EA
:10DC70000091334622460799069803F07DFF09B0CC
:10DC8000F0BD0000A0030020F0B5074685B01646A1
:10DC90000D460846F7F7AEFB002825D000246000AB
:10DCA000C0198189A94219D110498181002E02D061
:10DCB0003846FBF7C9F9B86800280FD0C0880005BE
:10DCC000000DA8420AD100200090019003460246B0
:10DCD0000146029003963846F6F764FC641C032C58
:10DCE000DDD3002005B0F0BD0320FBE7FFFF0000FF
:10DCF00070B50B4C0022A51C661C53001B189B8999
:10DD00008B4205D0A34205D1A94201D0B14201D135
:10DD1000012070BD521C032AEFD3002070BD00000B
:10DD2000FCFF0000FFB581B01D460E46F9F7A8FACA
:10DD3000002815D0284600F0BAF90024E44304284E
:10DD400044D306F09FFC0746083706F0E9FB0C2198
:10DD50004843874208D906F095FC0146083107E0A0
:10DD60000520C04305B0F0BD06F0DAFB0C214143AD
:10DD7000FF208130814211D206F084FC074608372B
:10DD800006F0CEFB0C214843874203D906F07AFC0B
:10DD9000083003E006F0C4FB0C214843A988001FAB
:10DDA000884202DA1420C043DCE70398002806D139
:10DDB000706841880198FFF79BFF002806D029462C
:10DDC00030460B9B0A9AFBF72FFBCBE72046C9E7AF
:10DDD000416A009B002904D04A68002A01D01978C2
:10DDE0001047704770B50F4C2178C1824A1C2270D1
:10DDF0008B0061680589CA586D04D20BD2036D0C83
:10DE00002A43CA50C38A00695204520CC0039B00C3
:10DE10000243CA5000F008F801462078F2F71CFFD0
:10DE2000217070BDF40100200148006880797047BE
:10DE3000BC010020F8B5002704460D46002907D094
:10DE40000846FDF7E7F90121401E8140A94201D0B3
:10DE50000020F8BDA00704D0A007800F0421081AF5
:10DE60000419114811490268002A04D10A68121DD8
:10DE70009208920002600D498E682946B0180092FF
:10DE8000F2F7EAFE681A6D1E084A28402118526807
:10DE90007118914206D2054BB14203D9009A99609C
:10DEA000101837183846F8BDAC0300202C3300207A
:10DEB000F7B50546408800280FD028880BE02C884D
:10DEC00081B2611A1C24EB6861435C18A56021795A
:10DED000002904D0401E0028F1DC0020FEBD01987E
:10DEE0000026002809D0A86801A900680368204618
:10DEF000984760610028F1D000E066610120207140
:10DF0000667126600198608226826069E060688898
:10DF1000401E68802046FEBD10B58168C968401A61
:10DF20001C21F2F7AFFE80B210BD0179491C0171CE
:10DF3000704730B503460C46006899884518184666
:10DF400000F0B5F8A04200D2FEE79888001998804A
:10DF5000284630BD03B56A46918849BA91800221AE
:10DF6000FFF7E7FF6A4611790170517941700CBDE6
:10DF700013B5019909BA01910421FFF7DAFF0422D0
:10DF800001A9F2F7C9FE1CBD03B56A4691889180CC
:10DF90000221FFF7CEFF6A46117901705179417075
:10DFA0000CBD70B50D4614461146FFF7C2FF224660
:10DFB0002946F2F7B1FE70BD10B50C460121FFF7FE
:10DFC000B8FF047010BD01688068081A7047828825
:10DFD000521A82800268511801600846704708B5DD
:10DFE00001686B460A781A70497859700221FFF768
:10DFF000EEFF6B46188840BA08BD38B50446016884
:10E0000004226846F2F788FE04212046FFF7DFFF6E
:10E01000009800BA38BD08B501686B460A781A70D6
:10E02000497859700221FFF7D2FF6B46188808BD66
:10E03000838802685B1A838051180160104670471C
:10E0400000B501680B780121FFF7C1FF184600BD3C
:10E050000268521A026083885918818010467047FE
:10E0600003B56A46918849BA91800221FFF7F0FF13
:10E070006A4611790170517941700CBD10B50C469A
:10E080000121FFF7E5FF047010BD8268511801609F
:10E0900070470021818081680160704770B50C462F
:10E0A0000546FFF790FF2080A888608070BD8268D9
:10E0B0000168891AC2888088511A081A704770B599
:10E0C000064605F0D8FA051E0FD004464079C00771
:10E0D00008D0304605F0CFFA206061794908490040
:10E0E0006171F2E700202060284670BD30B50A4615
:10E0F000012503E054792C4354711A461368002B10
:10E10000F8D14368002B02D01960426030BD06C0D0
:10E1100030BD70B5044600251FE0207900281ED0D0
:10E12000401E0006000E207119D1A0684188491CCC
:10E1300041804168002901D0204688476169002953
:10E1400009D06379A26820469B0703D492681268BD
:10E1500092689047656124682560002CDDD170BD10
:10E16000FFB53E4D1878297881B0C907C009C90F9D
:10E170000B9E4840317D0C9C49084900084330758E
:10E180000020A080A06820601F4620460A99FFF763
:10E19000D0FE39460A9AF2F7BFFD317D2868C907DB
:10E1A000C90F411A2068039AF9F78EFF002803D09F
:10E1B0000720C04305B0F0BD2068401D05F008FAF7
:10E1C0003081002803D00121C903884202D30020F6
:10E1D000C043EFE7307D8006800F23D100251DE08E
:10E1E0002068401D05F0F4F901461D48AF00406865
:10E1F000C05B4004400C81420ED12068801C05F0B9
:10E20000F3F9C1031648C90B4068C059C00B8142DD
:10E2100002D10120C043CDE76D1CADB2FFF704FE73
:10E22000A842DDD80F480068002804D0307D810660
:10E23000890F03290BD00948317D0068C907C90F30
:10E24000421A002321460298F9F70CFDB2E7034970
:10E25000C0070968C00F0A1A0123F3E7E42F002062
:10E26000F4010020C8030020FFB583B01F46154607
:10E27000002646E02D48816AE42070430C183FD008
:10E28000A08B2B4988423BD02A482B49006809685B
:10E29000084308D02B4600972046049A0399FCF7C0
:10E2A000A1FA002834D00398007841064020005D90
:10E2B000490E81420CD104986946A1C122462146EB
:10E2C000693241312046039BFFF74AFF002822D0E4
:10E2D000E07F002814D00398007841069920005D63
:10E2E000490E81420CD104986946A1C122462146BB
:10E2F000C2329A312046039BFFF732FF00280FD02D
:10E30000761C05F0F1F8B042B4DC002007B0F0BD97
:10E31000287D042106E0A08BA88001202C60F5E771
:10E32000287D022108432875F5E7000064300020AD
:10E33000FFFF000084030020A0030020F7B502982F
:10E34000FFF769FE2A49064688423AD8FAF76CFF79
:10E35000040017D10025274F0EE02846E422504341
:10E36000B96A1C30095A2448814204D1E421B86AB0
:10E370004D43441904E06D1C05F0B6F8A842ECDCEE
:10E38000002C0DD0A08BB04202980DD12146006820
:10E3900010223031F2F7FBFC002803D006230BE0FB
:10E3A000052309E0002307E0016820463030F9F733
:10E3B00037FE002806D0102332460199009803F05A
:10E3C00019FCFEBDA6832046FAF792FE2046F9F717
:10E3D00085FB0A480068002806D00021202001554E
:10E3E0002046FAF751FBDDE7022020342070D9E700
:10E3F000FF0F000064300020FFFF0000C803002072
:10E4000070B506460D461046FFF705FE0B4904465B
:10E4100088420ED8FAF708FF002804D02988A142C4
:10E4200008D10C2300E0002322462946304603F0A1
:10E43000E1FB70BD0121FAF783FEF4E7FF0F000056
:10E44000F7B51B4888B0006F029004A801900390B4
:10E45000184901A8F9F7DBF9174C0025174F264694
:10E4600011E0E420B96A68430818828BB24208D0F0
:10E47000B44201D1144604E0214601A8FDF7C6FFCD
:10E4800034466D1CADB205F02FF8A842E9D8B4426D
:10E4900003D0214601A8FFF777FD00200346009036
:10E4A00001AA09990898F9F7E3FA0BB0F0BD00004A
:10E4B0000C4F010043800000FFFF0000643000208B
:10E4C000FFB50725ED438BB01F460E4600282AD026
:10E4D0001022002104F0DCFE80B20A90FAF7A4FEBC
:10E4E0000446002E19D021236A4639460D98FEF7BE
:10E4F0001BFC002818D104A801306F460990002C9D
:10E5000014D038781022C007C00FA07738784008A0
:10E51000E07720463030791C2FE0002C03D000211A
:10E52000FAF70EFE31E028460FB0F0BD0025194E77
:10E530000EE02846E4225043B16A1C30095A1648BE
:10E54000814204D1E421B06A4D43441904E06D1CBA
:10E5500004F0CAFFA842ECDC002C18D00A98A08373
:10E56000684600781022C007C00FA0776846007880
:10E57000791C4008E07720463030F2F7CDFB20468A
:10E58000102289300999F2F7C7FB0020CCE7082058
:10E59000C043C9E764300020FFFF000030B50A48DF
:10E5A0000A49406885B0C068144688420AD11046BE
:10E5B000FFF746FD05462046FFF72DFD2946684634
:10E5C000FBF78CF805B030BD7C03002044800000D0
:10E5D000F7B515460F461046FFF71DFD25490646BF
:10E5E00088423CD8FAF720FE040009D0E07F0028DA
:10E5F00008D0012816D002281CD003280AD119E01F
:10E60000042327E02146102230312868F2F7BFFBAF
:10E61000002824D0204689302968F9F701FD002818
:10E620000CD016E02146102289312868F2F7AFFBA2
:10E63000002801D00B230DE000230BE00E480F490A
:10E640000068096808430BD02046FCF7A9F80028A9
:10E6500006D0102332463946009803F0CBFAFEBDAF
:10E660000120E0772046FAF743FD2046F9F736FA15
:10E67000E2E70000FF0F0000A00300208403002059
:10E6800010B586B01C461046002913D012236A46E6
:10E690002146FEF749FB00280AD100A910220A48AA
:10E6A0000231F2F739FB68460088F8F7DBFA002000
:10E6B00006B010BDF8F7F6FA0348103800210161E2
:10E6C00041618161C161F2E77430002000B5094900
:10E6D000094B496885B0C9681046994207D1FFF7D0
:10E6E000AFFC6946087200216846FAF7F7FF05B0EB
:10E6F00000BD00007C0300202580000030B50546E9
:10E700000D4887B04068029004A80C460190039021
:10E710000A4901A8F9F77BF8F9F768FF014601A853
:10E72000FFF74AFC00200346009001AA2146284634
:10E73000F9F79EF907B030BD0C4F010025800000AD
:10E7400030B50446114887B00069029004A80190D2
:10E750000390A06A0D46002804D011680978017161
:10E76000FAF758FC0A4901A8F9F751F8F9F73EFF02
:10E77000014601A8FFF720FC00200346009001AAF3
:10E7800029462046F9F774F907B030BD0C4F010057
:10E7900025800000002804D003494968814201D146
:10E7A00000207047006870476802002010B502F032
:10E7B000ADF8114C617D884202D102F0AFF806E05D
:10E7C00002F0ACF8617D884203D102F0AFF86075C9
:10E7D00010BD02F0ABF8617D884202D102F096F8DC
:10E7E000F5E7252903D0262903D02520EFE72620A9
:10E7F000EDE72720EBE70000AC2F002010B5FBF77A
:10E8000015FE002801D0806810BD0020C04310BD57
:10E8100030B50E480E49406885B0C068144688423D
:10E8200011D11046FFF70CFC05462046FFF7F3FB1D
:10E83000694648812046FFF703FC6946087229466D
:10E840006846FAF74BFF05B030BD00007C0300209E
:10E8500048800000F0B507461A4887B0C06F0290A4
:10E8600004A8019003900E461046FFF7D4FB16490A
:10E87000054688421ED8154901A8F8F7C8FF284662
:10E88000FAF7D2FC040017D0002101A8FFF794FB8F
:10E8900020342478294601A8FFF776FB214601A8F9
:10E8A000FFF78AFB00200346009001AA3146384654
:10E8B000F9F7DEF807B0F0BD042101A8FFF77CFBF3
:10E8C0000024E7E70C4F0100FF0F00004880000024
:10E8D000F7B5264888B08068029004A8019003909C
:10E8E00014460F461046FFF796FB2149064688421C
:10E8F0003AD82046FFF7A4FB040001D0012C33D105
:10E900001C4901A8F8F783FF3046FAF78DFC050093
:10E9100011D0002101A8FFF74FFB314601A8FFF7F6
:10E9200033FB15480068002811D0002C28460CD075
:10E93000FAF73CF90BE0042101A8FFF73DFB314653
:10E9400001A8FFF721FB214603E0FAF749F920353A
:10E95000297801A8FFF730FB00200346009001AAA8
:10E9600039460898F9F784F80BB0F0BD8C4F0100D8
:10E97000FF0F000048800000C803002030B50546A6
:10E980000B4887B0806B04AA0C460290019209499B
:10E99000039201A8F8F73BFF00200346009001AA6C
:10E9A00021462846F9F764F8FAF72CFA07B030BD8B
:10E9B0008C4F01004A800000F0B585B01E46174616
:10E9C0000D46002814D01022002104F061FC84B20E
:10E9D000002D11D013236A4631463846FEF7A4F9BC
:10E9E000002807D12046F9F791FE00280ED015E047
:10E9F0000720C04305B0F0BD2046F9F787FE002888
:10EA000002D00021F9F774FE0020F3E7684602887F
:10EA1000817C2046F9F71AFE002806D000A91022B2
:10EA2000001D0231F2F778F9EEE70820C043E1E774
:10EA3000F8B500250E4607462C460D600AE0094849
:10EA4000A100806808180188002909D0B94200D1C6
:10EA50000546641C01F0CCF8A042F0DC2846F8BD65
:10EA60003060F6E70402002070B50023084E0CE089
:10EA7000CC5C2409355D5C000555CD5C24182D0760
:10EA80002D0F755D5B1C65709BB29342F0D370BD1A
:10EA90005F4C0100027C012A01D808467047491EDC
:10EAA0005018521E904370470022835C8B4201D065
:10EAB00001207047521C082AF7D30020704710B578
:10EAC000044601460722FF20FBF7B4F9E1798142B1
:10EAD00001D1002010BD012010BD10B50446014633
:10EAE0000722FF20FBF7A6F9E07110BD10B5002347
:10EAF0001A4600F052FB10BDF0B58BB01D00044665
:10EB000009921BD0A2890B0C20685A43101889B2B5
:10EB10000818089000216069FBF7D7FC00280ED187
:10EB2000207C2E46401E864314D033466069099AE5
:10EB30000899FBF7B8FC07001FD102E000200BB0DA
:10EB4000F0BD0898AD1B80190890099880190990AC
:10EB5000002D12D02A4668460999F2F7DDF8207C8C
:10EB6000FF22411B68464019F2F7EAF8237C6A4607
:10EB700060690899FBF797FC074601216069FBF77C
:10EB8000A4FC3846DBE770B50A4604460823416812
:10EB9000FFF7B2FF054608212046FFF77BFF6168BB
:10EBA000081A6060284670BDFFB589B00998202713
:10EBB000007C1C46401E164687431BE0A74201D23C
:10EBC0003D4600E025462B466A460A99099800F022
:10EBD0006CF8002807D12A4669463046F2F7D7F884
:10EBE000002802D001200DB0F0BD0A98641B401926
:10EBF00076190A90002CE1D10020F4E7FFB589B026
:10EC000009982026007C0F46401E86431C4631464C
:10EC10006846F2F795F80EE0A64201D2354600E0CC
:10EC200025462B466A4639460998FFF7BDFF00285E
:10EC300004D1641B7F19002CEED100200DB0F0BD73
:10EC400070B515460A4604462B468168FFF754FF07
:10EC5000064629462046FFF71DFFA1684018A06020
:10EC6000304670BD70B50D0C2D0404468389FF221B
:10EC70002946FFF7C3FF002816DDA1892A0C20686A
:10EC800051430D1800216069FBF71FFC00280BD1D0
:10EC9000A28929466069FBF7E9FB002804D101211C
:10ECA0006069FBF712FC002070BD70B585890E0C01
:10ECB000046875432C1989B209194069FBF7E3FB15
:10ECC00070BDF0B595B005460821FFF7E3FE044698
:10ECD00068680FA9000C00040F90284600F09FF907
:10ECE000A8890F9908234018011B02AA28460E91F3
:10ECF000FFF7DBFF00287EDBFF2102A8FFF7D4FE31
:10ED0000002879D00E98001B139002A8FFF7D7FEB9
:10ED1000002814D00EA9284600F058F9002876D112
:10ED20000E98109004AA0EA9284600F099F8002821
:10ED30006DD104A8FFF7C3FE002860D107E00E984C
:10ED40006946000C4989000408180E90E8E76868D5
:10ED500011906A4611A92846119C00F081F80028FC
:10ED600055D169460888098A884204D16846FFF768
:10ED7000A6FE002803D0686811998842E9D110984E
:10ED800084423CD16846808A002838D01098694671
:10ED9000000C498A00040F1828896946488204A893
:10EDA000FFF79BFE69468C8A297C2020491E8843F8
:10EDB000129016E01298A04201D2064600E02646C4
:10EDC000334606AA39462846FFF76FFF00280BD1C5
:10EDD000324606A92846FFF733FF002804D1A41BBA
:10EDE000BF19002CE6D10020002810D104A9284624
:10EDF000FFF7C9FE01E00AE005E0002807D11399FA
:10EE0000109888428CD128460F99FFF72BFF15B038
:10EE1000F0BD70B50026F6430446002914D06161A8
:10EE20004A692260488AA0810D7CE581497C217471
:10EE3000202909D8002807D001461046F1F722FF03
:10EE4000002901D1022D01D2304670BD204600F0CC
:10EE5000F3F80028F9D101206074002070BD000093
:10EE6000FEB50C46174605460821FFF713FE064679
:10EE700008233A4628462168FFF717FF002808D1E3
:10EE8000206880192060AA8981B2921B914201D02A
:10EE90000020FEBD1C49020C15D0401A014620601E
:10EEA00008236A462846FFF700FF0028F1D1FF211A
:10EEB0006846FFF7F9FD00280AD06846FFF7FFFD16
:10EEC000002807D011E0EA891204511A4018E5E73A
:10EED000686816E06846A9894088891B884204DA78
:10EEE0003146F1F7B9FE002904D02146284600F04A
:10EEF0006DF8FEBD20686946000C0004206049885A
:10EF000040182060C4E700000000010038B500246C
:10EF1000009400F001F838BDFFB50546407C83B091
:10EF20001F4600280CD008212846FFF7B3FDA98909
:10EF30004000081AB84206D20020C04307B0F0BD16
:10EF40000D20C043FAE76E680024029617E06A4677
:10EF500002A92846029EFFF783FF0028EED16846EB
:10EF600001880498814206D16846FFF7A8FD002871
:10EF700001D1641CA4B268680299884202D00C983E
:10EF80008442E4D968680299884204D168460188BD
:10EF90000498814206D168468388002B02D00C98E1
:10EFA000844202D20720C043C8E76946300C498832
:10EFB00000040918BB4200D93B462846059AFFF7D2
:10EFC00074FE0028BAD168468088B7E7F3B583B0ED
:10EFD0000F4608210398FFF75DFD06463868841B3D
:10EFE000250C2D043C6015E008236A462146039851
:10EFF000FFF75BFE002810D16846FFF760FD002890
:10F0000007D16A4651889288280C000489180D1887
:10F010003C60A41BAC42E7D8002005B0F0BD012342
:10F020000A681B04D2180A60C089130C834202D1FB
:10F030000004101A08607047FEB504460020074619
:10F04000009008212046FFF725FD064600251BE01D
:10F05000A18928044018811B0823FF222046009123
:10F06000FFF7CCFD00280DD07F1CBFB269462046BB
:10F07000FFF7D5FF0823FF2220460099FFF7BEFDCA
:10F08000002804D06D1CADB2E089A842E0D8E08928
:10F09000B84202D10B20C043FEBDA8420CD100985B
:10F0A0000823811BFF222046FFF7A8FD002803D17B
:10F0B00069462046FFF7B3FF0098811B000C00044F
:10F0C0006160A0602EE0082301AA2046FFF7EDFD55
:10F0D0000028E1D1FF2101A8FFF7E6FC002832D08B
:10F0E00001A8FFF7ECFC002819D100986946000C34
:10F0F0000004A060C9884018A060694609892046BC
:10F10000FFF7C8FCA1684018A0606168814206D181
:10F1100068460089002802D00C20C043FEBD60680C
:10F12000801B60606168A0688142CCD20BE0431A0A
:10F13000FF222046FFF762FD0028EFDB07D0217C8D
:10F14000A0684018A060A16860688842EFD8606835
:10F150006946000C000400902046FFF760FFA38979
:10F16000FF2220460099FFF749FD0028D6DBD5D0C5
:10F1700020466168FFF776FD0028CFD16068A1893D
:10F18000000C72000004891A08186060000C00046A
:10F19000A0602046FFF795FDFEBDFFB587B00027B4
:10F1A00004460397407C1D4600282FD008212046A6
:10F1B000FFF770FC029029462046FFF76BFC0646DD
:10F1C0000298A18942008018081AA84222D3002D73
:10F1D00002D0099800281DD06068049005906A4606
:10F1E00004A92046FFF73CFE002811D1684601889B
:10F1F0000898814204D16846FFF761FC00280FD0CF
:10F2000060680499884208D00846E7E70D20C043AB
:10F210000BB0F0BD0020C043FAE70398002816D0D9
:10F2200005986946000C49880004091868468088DA
:10F23000002D09D0A8420CD12B462046099AFFF791
:10F24000B3FC0028E4DD04E00028E1D001E0002D5B
:10F250000BD0002E02D00298301887B20026E08929
:10F26000B04204D10F20C043D2E70020D0E7A1680C
:10F270006068C91988421AD369460898099E0881AE
:10F28000208948818D81FF20887302A8FFF725FC23
:10F290002A4631462046FFF7D3FC002803D102A9B5
:10F2A0002046FFF770FC0028B2D12846B0E70821BD
:10F2B0002046FFF7EFFB0021C9436A461181002178
:10F2C0009181A188091851816168A289090C0904FA
:10F2D000101A0818606002A8FFF7FFFB02A9204679
:10F2E000FFF751FC0590211D2046FFF798FE60684E
:10F2F000000C0004A0600598002889D12046FFF783
:10F30000E0FC002884D1761CA9E7000010B5B4B059
:10F31000044618A804F03CFB6068042200BA16906A
:10F3200016A96846FFF7A0FB1DA000886946088162
:10F33000214602A8062208310130FFF795FB2C2058
:10F340006946487500208875214605A810220E31AF
:10F350000230FFF789FB3622694618A804F044FB07
:10F36000012805D00F4910A0F5F7CAF812A00AE04D
:10F3700018A90EA804F0ACFA01280BD009490AA07C
:10F38000F5F7BEF812A0F5F7BBF819A0F5F7B8F835
:10F3900034B010BD0EA91EC916481EC0F8E7000003
:10F3A0002C000000704C01004150505F4442472047
:10F3B00025733E2000000000556E61626C6520558B
:10F3C0007064617465205368613235360000000056
:10F3D000556E61626C652047656E6572617465206B
:10F3E0007368613235362076616C75650000000007
:10F3F0000A0000005C0E002070B5002380241D462A
:10F40000934202D2C65CCE5404E0934201D1CC5464
:10F4100000E0CD545B1CDBB2102BF1D370BDC06893
:10F420001C2251434018704710B508484068002816
:10F4300002D0F9F7D3F910BD0549002209208A74DA
:10F44000FAF7CAFA01F0FCF910BD0000F83000200C
:10F4500018320020F0B5154602460B4600202B431B
:10F46000C043634E85B0002A28D0344658340394F4
:10F47000604C012A2AD0022A3AD0032A1CD1002942
:10F480007DD001297CD002297BD003297AD00026A7
:10F49000002E11D0A1684A8B32420DD0097EA942BC
:10F4A0000AD3082E6FD005215148F6F76FFEA068E9
:10F4B0002946426A3046904705B0F0BD002BFBD18B
:10F4C0000020B065F065306670660FE0002BF3D168
:10F4D000A068027D0169B01A6830F1F71DFCA068D0
:10F4E000017D1020411A0398F1F731FC0020E3E779
:10F4F0000B00F5F72DF8050406080A0C0E0001278D
:10F5000008E0022706E0042704E0082702E01027AD
:10F5100000E00027002FCFD0A168CA8A3A42CBD0A2
:10F52000497DA942C8D30E213148F6F7C1FE002813
:10F5300003D007212E48F6F729FE102F24D00421EE
:10F540006846F9F71DFC2C49A80040188038C16FA7
:10F550000098F1F781FB26480A0C6430130A0091E9
:10F56000037042700A0A8270C1700020B065F065B5
:10F570003066204800998068C26938469BE72CE0D5
:10F580002DE02EE02FE030E029466846F9F7F8FB41
:10F5900000246F460CE0385D2421F1F75DFB3955FE
:10F5A0000A2901D2303100E037313955641CE4B208
:10F5B000AC42F0D3002078552A4669460398F1F70B
:10F5C000ABFB1020411B70195830F1F7C0FB094804
:10F5D0008068016A684688476EE7012658E7022678
:10F5E00056E7042654E7082652E706215CE70000A8
:10F5F000F8300020440200203454010070B50C465D
:10F6000005460521FEF741FD21462846FEF7D4FCBC
:10F6100070BD0000F0B504468DB00E215348F6F7DA
:10F6200047FE00287ED05248406B05900AA80490FF
:10F6300006902078002804D0601C03F0CFFF01283A
:10F6400001D002208AE0E0780128FAD84949896887
:10F65000C96A002903D0002801D0012200E000225D
:10F6600009214248F6F7B5FD207908900128E8D82D
:10F67000607907900828E4D8A01D03F0AFFF099037
:10F680004009DED1257A082DDBD82046093003F069
:10F69000A5FF07460009D4D1344E2178F289B089FC
:10F6A000F8F7D4FFB060002857D002A80190009569
:10F6B0003946079B089A0998F6F76CF830460B22F2
:10F6C00021468930F1F728FB022104A8FFF796FFB5
:10F6D000002104A8FEF770FC09213046F6F7E8FD8A
:10F6E000C1B204A8FEF768FC6846417A04A8FEF798
:10F6F00063FC6846C17A04A8FEF75EFC6846417B5D
:10F7000004A8FEF759FC0499304605229430491CA0
:10F71000F1F702FB04A800F061FB00281BD168464A
:10F72000027B00E017E0817A007AFFF793FE002861
:10F7300002D0022000F00CFC09210C48F6F7B8FDBD
:10F74000002803D00B488068C06A80477068002892
:10F7500007D002F0EDFA0DB0F0BD052000F0F8FB87
:10F76000F9E70A210148F6F711FDF4E7F830002027
:10F77000245401004402002010B50348FCF79AFD10
:10F78000FAF7B4FE10BD00005032002010B50B494E
:10F790000BA0F4F7B5FE0EA0F4F7B2FE0DA0F4F73F
:10F7A000AFFE04F0E3FC0C49F1F756FA0B480A18D7
:10F7B0000B480121007804F04DFD10BD394B0100CC
:10F7C0004150505F4442472025733E200000000016
:10F7D000200000000A0000007017000088130000DD
:10F7E0000000002070B50E210E48F6F761FD0028DC
:10F7F00017D00C4D0E212846AC68F6F759FD0028AD
:10F800000FD02046F9F740FC00202946FF22203186
:10F81000A8600A75FAF7E0F8227D21886088F9F778
:10F8200069F870BDF830002010B501461022084874
:10F83000F1F772FA06480E213838F6F739FD00283C
:10F8400002D002F0EDFA10BD01F05CFF10BD000027
:10F8500030310020F0B504463B489DB0C06F0A909F
:10F860001AA83A4909900B90C81FFE380CAA0E46F8
:10F870000546F9F777FB002801D007200FE010AA12
:10F8800031462846F9F740F80028F6D102AB224667
:10F8900010A90CA8F8F7FAFF002804D0062000F001
:10F8A00057FB1DB0F0BD14AA31462846F7F73AFAC7
:10F8B0000028E2D106A803F091FE18906846807EE9
:10F8C00006AC03341990204603F088FE0604A01C01
:10F8D00003F084FE0643201D03F080FE0746082146
:10F8E00009A8FFF78BFE09A800F078FA0028D8D104
:10F8F0001648FF21F938164D01752868002809D0EF
:10F9000014480068002805D013484068002801D03A
:10F91000012400E0002414A800970190334602A8B7
:10F92000199A1899F9F752F80028BAD128680028CE
:10F9300003D0002C01D0F9F715F904487D21090105
:10F940005F30FCF7D5FCACE72454010011320020F5
:10F95000C8030020C4030020F830002010B5014681
:10F960002022274803F053FE25480E211438F6F7CD
:10F970009FFC234C0C34002827D020460621203839
:10F98000F6F796FC00280FD1204605212038F6F71F
:10F990008FFC002808D1204607212038F6F788FC84
:10F9A000002802D00420207510BD15480C21143801
:10F9B000F6F77EFC002802D001F0A4FE10BD10482E
:10F9C0000D211438F6F7E2FB10BD0D48092114385B
:10F9D000F6F76EFC002810D00520207508480C2191
:10F9E0001438F6F7D3FB064807211438F6F711FC54
:10F9F0000028E9D001F088FF10BD02F099F910BD90
:10FA00000C31002010B5002003F06CF8F7F738FC3B
:10FA1000002809D1F9F796FAF6F7F6FC0448034AEC
:10FA20000121007804F016FC10BD0000C027090079
:10FA30000000002010B50078F9F7CEFF10BD0000DF
:10FA400010B507210648F6F7E4FB002807D000218F
:10FA50000348F6F72DFC002801D001F053FE10BD3D
:10FA6000F830002010B50446294888B0806801901D
:10FA700003A8009002902178002902D00020F6F718
:10FA80003BFC24482178017201216846FFF7B6FD4E
:10FA9000F7F76AF901466846FEF78EFA01216846D3
:10FAA000FEF758FA1C4CA068817A6846FEF784FA83
:10FAB000A0680069002801D0012100E0002168460B
:10FAC000FEF77AFAA068417D6846FEF775FAA068ED
:10FAD000C18A6846FEF73EFAA068017E6846FEF7D6
:10FAE0006BFAA068418B6846FEF734FA0948009922
:10FAF0000B220930491CF1F70FF9684600F06EF946
:10FB0000002803D1034802216038017508B010BDF8
:10FB100024540100783100204402002000B5104830
:10FB200085B0C06F019003A8009002900021684644
:10FB3000FFF764FD0B48017C6846FEF73DFA00982C
:10FB40004178084880300172684600F047F9002883
:10FB500003D1044801212030017505B000BD00002B
:10FB6000A4530100F830002070B51E4E1E49B06B42
:10FB70000068057830467830FCF7BAFB344620340C
:10FB8000217DB06BF7F750F9002814D0207CFBF7EB
:10FB9000CFF9207C607400202074F01F0821F93810
:10FBA000F6F786FB002801D0032002E00A2D03D3DC
:10FBB000022000F0CDF970BD092D04D00948E038CD
:10FBC000007DA842F0D1094AE90088188388B06B0B
:10FBD0005B1C8488A342EBD100685158401C8847C5
:10FBE00070BD0000F831002060EA0000CC53010035
:10FBF000024800682030007A70470000BC010020F5
:10FC000070B5064690B00E212348F6F751FB224C02
:10FC10002546D935993400280BD000211E48F6F727
:10FC2000B5FA402231462846F1F776F8FFF7A4FDF1
:10FC300010E0402231462046F1F76EF809211648BF
:10FC4000F6F736FB002805D001211348F6F730FB04
:10FC500000281BD00E211048F6F72AFB002800D000
:10FC60002C4620222146684603F0D1FC2022A11810
:10FC700008A803F0CCFC09496846F7F75FF80028AC
:10FC800002D0072000F064F910B070BD00210248D6
:10FC9000F6F77CFAF8E70000F83000205DF9000084
:10FCA0001FB51D4A0446014610466B462030F8F742
:10FCB000C3FD002801D0072008E017491022203991
:10FCC0006846F1F764F8002803D0042000F040F9FA
:10FCD0001FBD11480E215838F6F7EAFA0E4A103ABD
:10FCE000002802D01146224600E021460A4BC133CB
:10FCF0001846B138F8F742FE0028DCD106480E213C
:10FD00005838F6F7D5FA002802D001F099FF1FBD48
:10FD100002F086F81FBD00005031002010B50649E2
:10FD200006A0F4F7EDFB08A0F4F7EAFB07A0F4F750
:10FD3000E7FBFFF767FE10BD474B01004150505FE6
:10FD40004442472025733E20000000000A000000C6
:10FD500070B502211E48F6F7ABFA00281AD004212C
:10FD60001B48F6F7A5FA002802D07D24240100E004
:10FD7000184CFCF7ECFA164DFF224132FF23525982
:10FD800045335B59821A9941E017A21A884102DA79
:10FD900000F048FD70BD0024A0004119FF31013181
:10FDA000C86C0028F6D08269127A52060CD4621C04
:10FDB000032A05D2096D002902D00022114601E074
:10FDC00000220549F6F760F8641C032CE4D370BDEB
:10FDD000F8300020307500005002002010B50446B5
:10FDE0000A490B48FCF784FA0A480068002808D042
:10FDF00009484068002804D022460321F8F784FF10
:10FE000010BD204600F00AF810BD000060EA0000B6
:10FE100070320020C4030020F8300020FEB50446F4
:10FE2000FFF7AAFCF5F7C2F805000BD00E214648F3
:10FE3000F6F73EFA011E4548017A08D07F2904D022
:10FE4000491C09E00620C043FEBD002104E0002952
:10FE500001D0FF29F4D180210172C8B202903B4E3B
:10FE60002846403E0C300746F16AFEF781F83846D6
:10FE70000299FEF7A1F82079142801D8002006E0A5
:10FE80001438C0B21721F0F7E7FE401CC0B280065C
:10FE9000010E3846FEF790F8A1883846FEF75AF86A
:10FEA00021792068F6F7AEFF01463846FEF784F860
:10FEB000F564A088142800D31420C5B22A46384619
:10FEC0002168FEF76EF829462046FEF780F80125E6
:10FED0002FE0032D04D3FAF709FB1120C043FEBD28
:10FEE000F5F764F800282BD01749AF007918FF31D7
:10FEF0000131C864A188172900D31721C9B2009124
:10FF00000C30F16A0190FEF733F802990198FEF780
:10FF100053F8BF1CF9B20198FEF74EF82168009A19
:10FF20000198FEF73EF820460099FEF750F86D1C48
:10FF3000EDB2A0880028CCD101F09CFF0020FEBDCE
:10FF4000FAF7D4FA7EE70000F830002038320020BB
:10FF500010B5044686B00E210F48F6F7A9F900281F
:10FF600004D02046F9F738FD06B010BD0B48092132
:10FF70008068019003A8009002906846FFF73EFB5E
:10FF800021466846FEF718F86846FFF727FF082164
:10FF90000148F6F7FBF8E7E7F8300020A454010029
:10FFA00070B504460078002827D16278500824D123
:10FFB000144DA868807A82421FD109211248F6F7B1
:10FFC00008F909211048F6F773F9002804D0A86849
:10FFD000C068002800D080470B4805222146943095
:10FFE000F0F79AFE08480321203001752279E17864
:10FFF000A078FFF72FFA002802DA0220FFF7A8FF07
:020000040001F9
:1000000070BD000044020020F8300020F7B514460F
:100010000E460098F7F738F8C01E85B2A088B706DC
:10002000BF0EA84209D239462046FEF727F8A2881B
:100030002168009800F032F8FEBD39464031204674
:10004000FEF71CF82A462168009800F027F8294698
:100050002046FDF7BCFF80371BE0401CA8420BD2B6
:10006000C020314601432046FEF708F8A2882168E7
:10007000009800F013F80FE039462046FDF7FEFF28
:100080002A462168009800F009F829462046FDF725
:100090009EFFA0880028E0D10020FEBD70B50A4D6B
:1000A0002B466C681B78002C01D0022B06D0AC6864
:1000B000002C01D0012B03D0002070BDA04770BDE3
:1000C000F8F73AFC70BD0000BC03002070B506468E
:1000D0002B48EAB0C068079009A806900890002055
:1000E000B468039004900590A1886A461182217A31
:1000F00091750090029003A801903046F7F7E0FA5E
:1001000000886A461081F8F771FA6A469072D07AD0
:10011000E1884008C9044000C90F0843D072002C90
:1001200027D0E0880005000DF5F7B0FF050023D0CB
:100130002888F9F779F800902888694688816888C6
:10014000C88120698288016806A8FDF72AFF6089B6
:100150000722410B490352038918C004C00C014314
:1001600061813346064A06A96846F9F75DF96AB027
:1001700070BD1220C043FAE71720C043F7E7000024
:10018000204E010070B58D680C46002D1ED0688988
:10019000400B05D0687AC1083220491C41430FE06A
:1001A0000846F7F75DFB060007D0FCF7D8F8E968CA
:1001B000401AB04203D3012102E0002100E0311ACD
:1001C000002903D0A0681830FCF792F870BD10B574
:1001D0009468002909D1617A60894907400B490F69
:1001E000884202D1FCF7BBF8E06010BD70B505464F
:1001F000002409E0284603F052FA046041794908D6
:1002000049004171FDF785FF284603F05FFA002899
:10021000F0D070BDF8B5074615460E4654785068C4
:1002200001E0641EE4B20178401C002901D0002CDA
:10023000F7D1A878002803D0002C01D0641EE4B2C6
:10024000287881070DD5E978102902D0082904D033
:1002500007E0002C05D0A41E02E0002C01D0641E93
:10026000E4B2C00703D007E020213846B04720465B
:10027000641EE4B20028F7D1A978002901D03846DD
:10028000B0472878800710D5E878102802D00828D1
:100290000FD00AE030213846B0472878400701D512
:1002A000582100E078213846B0472878C00705D1AA
:1002B00009E03021F7E730213846B0472046641E78
:1002C000E4B20028F7D16C6801E03846B0472178E5
:1002D000641C0029F9D1F8BD014800680079704715
:1002E000BC0100200B4610B501461846F0F714FD7E
:1002F000002010BD03494968014201D10120704727
:1003000000207047C0100040FFB5C5B00020049029
:1003100045981E460068039045980C46808805283D
:100320007ED304A92046FBF723FE002878D10121C3
:100330004598FDF74CFE4598FDF751FE81074004B6
:10034000C50CCF0E4598FDF77BFE4109C006394329
:10035000C00E01910290814262D8BE48217D0068A2
:10036000C907C90F401A010A02062069431BDB04B2
:10037000DB0CC01A02433260716002984E99401C37
:100380000690087000251AE0B348A9018068228908
:100390000818018A914211D1418A628991420DD196
:1003A0000CCE8768083EC168BA1A99410CD2C17D4B
:1003B000490603D5012100F041FF04E06D1C00F067
:1003C000B3FBA842E0DC0020050043D03168AA68F6
:1003D0007068EB68891A9841A2D30398AA7D0078C7
:1003E000029982421CD1E87D0090C206D20E8A4258
:1003F00016D1298A20890590814211D1688A67899E
:10040000B8420DD10098217D80060907C00FC90FA1
:10041000884205D1009840065ED4ED69012000E0D5
:1004200083E00021521CF0F767FC401E85427CD11E
:1004300000980096C00901950290A37B2068394678
:10044000059A01F0D5F8049800284BD0214604F015
:100450001FF947E0207D0007C00F00F053FE02990E
:1004600005464D436D1C00F059FB85420FD9207D98
:100470000021C009009601910290A37B2289618925
:10048000206801F0B5F81420C04349B0F0BD7348AE
:100490000068002810D0207DC1090DD040060BD483
:1004A0004E98334600780090206862892189808BBD
:1004B000F6F798FD002818D032462046029B039993
:1004C00000F040FE05001DD0E87D217D4006400E75
:1004D000C909C9010843E875019801278740E869FF
:1004E000074212D00120C043CFE7207D0021C00980
:1004F000009601910290A37B22896189206801F016
:1005000077F866E00820C043BFE702990198884267
:10051000E87D0BD18006C00F00F0F4FD029948433E
:10052000459989884018A8820CE008E08006C00F31
:1005300000F0E8FD014645988088814202D0002005
:10054000C043A2E7FBF70BFF286228462430009047
:10055000FBF7C3FE00280AD1F6F7E2FF002806D118
:100560002846F4F797FC01460098FBF7C1FE207D72
:100570000007C00F00F0C6FD00F0CAFD01996A68CF
:1005800089005050002814D045998A880968F0F7EE
:10059000C3FBE86900210743EF610120069AF0F7E9
:1005A000ABFB401E874217D04799012008700020FE
:1005B0006BE7207D0021C009009601910290A37B8A
:1005C00022896189206801F013F80121284600F092
:1005D00035FE0620C04358E70498002802D0214683
:1005E00004F056F84798022101700098FBF762FE6C
:1005F000E87DE969C009009601910290A37B2289F8
:100600006189206800F0F4FF207D000712D51448AE
:100610000022806C019005A800900290694628464F
:1006200000F0CEFD0398334601786A462046F9F77C
:10063000CDFC08E0039823464078C209039801786E
:10064000284600F0DDFA04460021284600F0F6FDB9
:1006500020461AE7E42F00205802002084030020DF
:10066000B454010030B50546104887B0C069029007
:1006700004A80C46019003900D4901A8F7F7C7F8AC
:10068000F8F7A8FB014601A8FDF796FCF8F7B2FBC6
:10069000014601A8FDF790FC00200346009001AA46
:1006A00021462846F7F7E4F907B030BD0C4F0100AA
:1006B00028800000F0B50646204887B0806A029086
:1006C00004A801900390B46A0F46002C1CD0106857
:1006D0000078002801D001282ED16179022903D0A9
:1006E000814203D0012502E0002506E0002560716B
:1006F00010684078A071F8F78DFCE08DC00703D03A
:10070000002D01D0F6F718FD0D4901A8F7F77FF885
:10071000F8F760FB014601A8FDF74EFCF8F76AFB0D
:10072000014601A8FDF748FC00200346009001AAFD
:1007300039463046F7F79CF907B0F0BD0C4F010081
:100740002880000030B50B480B49406885B0C06870
:10075000144688420CD11046FDF772FC054620462F
:10076000FDF76EFC6946087229466846F8F7B6FF41
:1007700005B030BD7C03002028800000FFB5044692
:1007800087B016460F460089F6F7F4FA002803D022
:100790000720C0430BB0F0BD2089F7F7B7FF002555
:1007A000ED43002816D00C49227D0968D207D20FEC
:1007B000891A628923890293059111990091039204
:1007C000019604970121001D109B0A9AF5F7C9FBB9
:1007D0000028DFD02846DDE7E42F002070B5104C5C
:1007E000002903D00020E070606470BDE179491CED
:1007F000E1710B4960820720091F0871FCF75EF95F
:100800000546FCF75BF9012801D9012001E0FCF75E
:1008100055F9291A20461430FBF76AFD70BD000017
:100820000830002010B500F00BF804488068426BD7
:10083000002A02D000210120904710BD4402002070
:1008400070B52248FBF736FD2048F838007A0028BA
:1008500003D000210846F5F74FFD0E211C48F5F79F
:1008600027FD1B4C002805D0A068002802D00021DD
:10087000F7F73EFF17480068002804D0606800289A
:1008800001D0F6F71DFAFEF777FFFF215931104826
:10089000F0F75DFA0D48FF2158380F4D41740B4CAD
:1008A0006868783C002803D0FDF7F3FB686801E036
:1008B000F8F74EF9A0630120F8F750FA002801D0AC
:1008C000002070BD0D20C04370BD000070320020BC
:1008D000F8300020C40300204402002000B5064880
:1008E0000649406885B0C068884203D10021684647
:1008F000F8F7F4FE05B000BD7C0300204A8000003C
:1009000001480068C06A7047BC01002002480068C6
:100910002030007C70470000BC01002002480068C5
:100920002030407C70470000BC0100200248006875
:100930002030807C70470000BC010020F8B51C4CC2
:10094000207E81072FD52746203F3E781120304357
:1009500038700020174D20770021637822780846F0
:10096000F3F7ACF8F5F7EEF82879C00702D0207F4E
:10097000401C03E0E878C007F4D000202077F3F7AC
:1009800081F8207F002805D0C008E5D0F2F722FDCD
:100990003E70F8BD207E802108432076E07E012154
:1009A00003F00AFCF4E74007F3D5F2F713FDF8BDB6
:1009B000142F0020DC2E002070B51C4D0C46287D25
:1009C000890708D5022804D0FFF7A0FF687503F057
:1009D00049FD022025E0210703D503F08DFD082005
:1009E0001FE0E10703D000F083F8012019E0610760
:1009F00003D500F07DF8042013E0E10613D50428A8
:100A00000ED10A481830007841078007014301D40D
:100A1000F3F738F8287A042103F056FC01202875F2
:100A20001020604070BD002070BD0000AC2F002081
:100A30000148006840787047BC010020FFB581B0D4
:100A4000002808D01022002102F022FC002486B2E7
:100A50002746234D0DE00720C04305B0F0BDE86AEE
:100A6000E100415AB14203D1E86AE100441805E0CF
:100A7000641CFFF7DDFFA042F1DC3C460298002831
:100A800002D0002C0CD012E0002C01D0276067604F
:100A90000020E2E7E86AE100405A002817D0641C11
:100AA000FFF7C6FFA042F5DC3C46002C15D004231E
:100AB0006A4604990398FCF737F90028CDD10098CD
:100AC0000102090AC001C00F6160A070E0E7E96A95
:100AD000E0000E52E96A0C18E7E70820C043BCE7C3
:100AE0006430002001480068808A7047BC01002003
:100AF00010B5094C207D02280DD0207800280AD09E
:100B0000FDF754FE04202075FAF7F8FC207A102235
:100B1000042103F09FFB10BDAC2F002001480068AA
:100B2000C0897047BC01002001480068007B704705
:100B3000BC01002010B5817E002916D0017F491E1E
:100B40000906090E017710D1418A0122D20300293A
:100B500001D0914202D3437F002B07D0437E9B06F6
:100B600008D000212830FBF7C3FB10BD002100F0A6
:100B700019FC10BD002907D0914205D2C17E322256
:100B80005143FF319131EDE73221EBE770B501467A
:100B900018480546F5F7F0FA164C083C2089400540
:100BA000400F01D0002419E006212846F5F777FB15
:100BB00000280DD01049A068084206D0FFF792FF28
:100BC000044602F05FFB844202D2FFF78BFF01E094
:100BD00002F058FB7D21C900484304460748FBF753
:100BE0007CFB002801D0A04203DB21460348FBF731
:100BF0007FFB70BDEC2F002080F80000B430002097
:100C0000FFB507466548F1B0C06B0A9010A809907F
:100C10000B90B8681D460002000A0490B98A164677
:100C2000002A01D0082000E00420401C814203D2A9
:100C30000020C04375B0F0BD59480068002802D0BC
:100C4000287D400670D568890121C9030122411A17
:100C50009203914202D2F6F70FFC00E000200C90C4
:100C600070A8007A0F908009C00703D04D48002477
:100C7000059089E00E214C48F5F723FB00281ED093
:100C8000324609A9384600F09BFA09980890069068
:100C9000B98A002E01D0082000E00420081A694615
:100CA000C8830020888306A909A8019100903346D3
:100CB00028460C9A0499FFF761FD00280CD03246B3
:100CC00009A9384600F07CFA099808900690B98A7C
:100CD000002E04D0082003E00220C0431FE00420BF
:100CE000081A6946C883002088832E48297D8038E9
:100CF00000686A892B89C907C90F401A05900293B9
:100D000006A800900C9927480392019109AB32463E
:100D100001211030F5F725F900288BD1801EE880DD
:100D200006A92846F6F740FE32E005982822416AD7
:100D3000204650430D9008180E90324609A93846B7
:100D400000F03EFA099808900690B98A002E01D06A
:100D5000082000E00420081A6946C8830020888320
:100D600006A80F9A0092039009A90598019602918E
:100D7000416A0D980C9B09182846049AF4F760FA0A
:100D8000002807D0641CA4B2F4F772FCA042CCD8AF
:100D900000204FE70E984088C1E70000B4540100DE
:100DA0008403002064300020F8300020F7B58AB0BA
:100DB0001646044603F066FC001D03F037F90700F1
:100DC00013D0002007900697089003F05BFC69465B
:100DD000001DC8830897B088052809D2384603F05B
:100DE00039F90020C0430DB0F0BD0820C043FAE738
:100DF00044480068002802D0207D40067AD56089EA
:100E00000121C9030122411A9203914202D2F6F74D
:100E100033FB00E000200990B088001FB08008A8D4
:100E2000007B05908009C00701D000255EE00E21FF
:100E30003548F5F746FA00280FD000206946888328
:100E40000898069006A80190009600232169204684
:100E5000099AFFF793FC002822D000206946888376
:100E6000089806902948217D0068C907C90F401AD3
:100E7000628921892369059002A80EC006A8009006
:100E80000999224801913346002201219030F5F75B
:100E900068F8050007D0384603F0DCF82846A2E7DA
:100EA0000220C04301E00120C043E08006A92046A3
:100EB000F6F77AFD1EE015486A468030416A282020
:100EC00068430918002004919083089A0692059BB4
:100ED00006AA009301900296039222692046099B7C
:100EE000F4F7AEF900280AD06D1CADB2F4F7C0FBE0
:100EF000A842E0D8384603F0ADF8002073E7049824
:100F00004088D2E784030020F8300020E42F00203E
:100F1000FEB506468088152873D330680024414FFB
:100F200000900FE0E420B96A60430D18A98B3E4899
:100F3000814206D01522A81D0099EFF728FF00284E
:100F400008D0641C02F0D0FAA042EBDC0024002C94
:100F50005DD101E02C46FAE730463768FDF770F8BE
:100F6000054608213046FDF763F804463046FDF794
:100F700044F8029001A83368009029462046029A5E
:100F8000F8F71CF904004BD0E07F022803D1684633
:100F90000079002844D039461522A01DEFF7BCFE89
:100FA0000020F8F741F9002802D0A08B00282ED1AC
:100FB0001C48032178380646F5F75FF900280AD067
:100FC00002213046F5F759F9A907C90F884202D125
:100FD0000020F5F74FFAA807C10F0298F6F78CFF2B
:100FE00006466846E9070279C90F2046F6F718FA5F
:100FF000050002D02046F6F771FD002E02D0002039
:1010000003E00DE0002D02D02046F7F7FDF9F5F7DB
:101010001FFA012804D16079FF2801D2401C6071B9
:10102000FEBD000064300020FFFF0000F8B5FBF7B4
:1010300096F90746002429E01948816AE4206043B4
:101040000D18A88B174988421FD028681649381AEE
:10105000884206D22979154A514352108918814293
:1010600013D8002211460220F4F7A8FE060013D080
:1010700031460C312846F5F791F92A460C4930469D
:10108000F4F702FF3046FDF744F8641C02F02CFA36
:10109000A042D1DC0020F8BD0620C043F8BD00000E
:1010A00064300020FFFF0000C02709001027000067
:1010B000604E01003EB50446243CFBF750F9216A1E
:1010C000401A0F49884204D90021204600F0B6F8A2
:1010D0003EBDE07DE1692246C009083200920191DF
:1010E0000290237E228A618A206800F081FA2046DD
:1010F000F3F7D0FE014620462430FBF7F9F83EBD59
:1011000060EA0000002801D0082070470C207047DA
:1011100001B50448002200686946036810469847F4
:1011200008BD0000744E0100024A0146126800200A
:1011300092681047744E010010B5283800F08EF9FF
:1011400010BD0000FFB581B01F46054600241B4EB0
:1011500006E0B168A0014018C17D490607D5641CAE
:10116000FFF7E2FCA042F4DC002005B0F0BDC17D39
:1011700040221143C17529680160C17DDF22114001
:101180002A7D1207D20F52011143C175039906C976
:10119000C2608160C17DFA0649094901D20E11433E
:1011A000C175029909788175A97B01762989018227
:1011B000698941820021C161D7E7000058020020FF
:1011C000F7B504460020888088680E460025086030
:1011D00023E08006C00FFFF795FF0746E07D8006FD
:1011E000C00FFFF78FFFA18A6843081A8742E07D8E
:1011F00004DA8006C00FFFF785FF06E08006C00F07
:10120000FFF780FFA18A6843081A6168AA0089581D
:1012100002463046FCF7C5FE6D1CE07DC106C90ED6
:10122000A942D6DA800608D40298B188002801D0F5
:10123000082000E00420081AB080FEBDF3B5044683
:1012400081B02430FBF736F81C480068002814D021
:10125000E07DC10911D0C206D20E01200021521C2E
:10126000E569EFF749FD401E854206D02346628AB4
:10127000218A08332068F5F70BFE00252F4609E088
:101280006068AE008059002803D0FFF74DFF60680A
:1012900087516D1CE07DC006C00EA842F0DAE07DEB
:1012A000BF210840E0750298002805D00021A16008
:1012B0002760E16027826782FEBD00008403002072
:1012C00070B50646507E14460D4640060CD4206A82
:1012D000002809D00368002B06D03046626A984780
:1012E000607E402108436076002D02D02046FFF743
:1012F00021FC70BD10B50846FFF71CFC10BD038A29
:101300008B4204D1408A904201D1012070470020D5
:101310007047F7B5044600890D46C604207EF60CDA
:101320008006C00FFFF7EEFE0746207E8006C00F46
:10133000FFF7E8FEA18A6843081A8742207E04DA94
:101340008006C00FFFF7DEFE06E08006C00FFFF745
:10135000D9FEA18A6843081AC7B2A17D0298FCF79A
:101360002BFE207E4006C00FC101B0090143029848
:10137000FCF722FEB006010EE80801430298FCF7D4
:101380001BFE6807010E207EC006C00E01430298B6
:10139000FCF712FE6068A90041583A460298FCF733
:1013A00000FEFEBDF8B50F460546466A046A00F029
:1013B000E7F8284600F018F8002C05D06268002AEB
:1013C00002D0314638469047F8BD70B504464068B3
:1013D0008D004059FFF7A8FE616800204851A07EAB
:1013E000401EA07670BD000070B504462830FAF7A4
:1013F00061FF002626626662A660E660266026829D
:101400006682607E35464006400E607609E0606880
:10141000A9004058002803D0E9B22046FFF7D5FFC5
:101420006D1C207EC006C00EA84202DBA07E0028F4
:10143000EDD10948A6768268202113468B430A42E3
:10144000836008D000680021F6F756FD002802D01E
:101450000020F6F7D9FF70BDE42F002070B50446D8
:10146000464886B007C803AB07C320686946808B2F
:101470008881207E800200B2000CC881608A0882C8
:10148000E07E887500200090019002902068009016
:1014900003A80190208A0881E07D8872C87A217EA5
:1014A00040084000C90908436946C872A17D800709
:1014B000800F890008436946C872607F002838D1D0
:1014C0001621C9432046FFF76DFF06B070BD616865
:1014D00080000858002823D0E17D00220120F4F785
:1014E0006DFC050031D028460C3009210646FCF77A
:1014F000CCFD607E32468106890E2046FFF709FF4B
:10150000207F1E4A401C20772346083A2946684619
:10151000F6F79AFF002803D0207F401E207714E0C2
:10152000607E0621C8410121890640181A21C84160
:101530006076607E217E8006C906800EC90E8842D4
:10154000C5D9607E800980016076207F002811D196
:10155000608A002809D00121C903884205D2E17EB2
:1015600032204143FF31913100E0322120462830C2
:10157000FAF7BEFE607F401E6077A6E7BC5401000C
:10158000F1B500242546194F1FE048202E4646435A
:10159000786800993018884216D0417EC90913D066
:1015A000428A018A0098FFF7AAFE00280CD0002C7E
:1015B00008D07868A16830188368C068E268591A52
:1015C000904101D2786834186D1C02F0A3FFA84244
:1015D000DBDC002C08D0607E00214006400E6076E7
:1015E00020462830FAF784FEF8BD0000580200209B
:1015F000F0B58BB00027129E224C9C460D460397F7
:1016000004971ACC059107940693838B69468B82C5
:101610000A8362468A77029005A80390002E02D0C2
:10162000F7F7F6F800E0284669460882F6F7DEFF8D
:101630006946887410980088C404E40CF5F770FFBC
:10164000002805D1002D03D00120C003854202D31C
:1016500000200BB0F0BDA000F1030843010A08AA66
:10166000117050701198010C0B0A9370D170010A1F
:101670001171507100970623002102A80197F5F718
:1016800023FBE6E7D454010070B50446124886B047
:10169000406B029004A801900390A06A0E460028B7
:1016A00017D00830FAF719FE7D21C900EFF7EAFAE2
:1016B000C5B20A4901A8F6F7AAF8294601A8FCF71D
:1016C0007BFC00200346009001AA31462046F6F735
:1016D000CFF906B070BD0000E8520100078000009D
:1016E00070B504000D460CD02368002B03D00A46C9
:1016F0000021084698476368002B02D02946002045
:10170000984770BD30B5254889B0006C019003A89A
:1017100023490090029008460D462030F7F7A8F8BC
:10172000002822D11E4A2946103210461446643839
:10173000F7F792F8002818D11948102120380546EB
:10174000F7F71EFB002810D105216846FDF756FF6C
:1017500010216846FCF7EDFB114A0346103A294672
:101760002046F7F769F8002804D00720FEF7F0FBC1
:1017700009B030BD6846FEF731FB0028F8D10848B3
:101780000E216838F4F794FD05494839002802D045
:1017900005200875ECE70620FBE700002454010053
:1017A0006031002010B50348007C0007C00F00F036
:1017B00003F810BD0430002011B51D4889B0014662
:1017C00018310EC902AC0EC41A496B46896A8A8B5D
:1017D0001A81184A803A128D9A81C06A079002A82D
:1017E00005910690F7F714F8124C6B4698835C3C11
:1017F000E078002808D0012803D0207B022108438C
:10180000207300200AB010BD002109480123019176
:10181000009009AA194605A8F5F756FA0028F1D153
:10182000217BFD22114021730121E170EAE70000D4
:10183000F45801006430002070B504460D4886B0AD
:10184000406C029004A8019003900E460A4901A83A
:10185000A56AF5F7DCFF697A01A8FCF7ADFB00206B
:101860000346009001AA31462046F6F701F906B07A
:1018700070BD00008C4F01001180000030B505469E
:101880000D4887B0806F029004A80C460190039029
:101890000A4901A8F5F7BBFFF5F7FCFB014601A8D3
:1018A000FCF78AFB00200346009001AA2146284647
:1018B000F6F7DEF807B030BD8C4E01001480000052
:1018C00030B504460E4887B0806A029004A80D46E1
:1018D000019003900B4901A8F5F799FFA068408992
:1018E0000005010F01A8FCF767FB002003460090EC
:1018F00001AA29462046F6F7BBF807B030BD000024
:10190000E85201003780000000B5094885B0806DBD
:10191000019003A80090029004216846FDF76EFE36
:101920006846FEF75BFA03480521017505B000BD66
:101930002454010018310020FFB50646114887B035
:10194000C06D029004A8109C0D46019003901F46A4
:101950000D4901A8F5F75BFF214601A8FCF72CFB18
:1019600001A80999FCF710FB394601A8FCF724FBF4
:1019700000200346009001AA29463046F6F778F881
:101980000BB0F0BD8C4F01001780000070B505460C
:101990001020F5F749FC040020D018222946EFF763
:1019A000BBF9A06913490C30F5F731FFA06929781C
:1019B0000C30FCF701FBA069FF2101310C30FCF772
:1019C000E3FA01200003FEF795FC0146A0690C3004
:1019D000FCF7F2FA2046F5F749FC70BD064907A06E
:1019E000F2F78EFD09A0F2F78BFD0EA0F2F788FD4D
:1019F00070BD0000A801D400B04C01004150505F00
:101A00004442472025733E2000000000556E61626D
:101A10006C6520616C6C6F636174652062756666CD
:101A2000657273000A00000000B587B0154916A062
:101A3000F2F766FD17A0F2F763FD17A0F2F760FD5D
:101A40001049182211316846EFF766F9F3F76CFB7D
:101A5000694608700120000302F04AFCF5F710FC0B
:101A6000002804D06846FFF791FF07B000BD054984
:101A700005A0F2F745FD09A0F2F742FD06A0F2F736
:101A80003FFDF2E76F4B01004150505F4442472059
:101A900025733E20000000000A0000004C6F6361C7
:101AA0006C2044657620556E70726F766973696F2D
:101AB0006E656400FFB589B02D48129E406B0290A0
:101AC00004A8159D01900390149F139C294901A817
:101AD000F5F79DFE394601A8FCF76EFA01A80B99AF
:101AE000FCF752FA002F07D0072101A8FCF721FAD2
:101AF0000721EFF72CF91DE001A80C99FCF744FA37
:101B0000A068C0880105C004C00F090D000301438F
:101B100001A8FCF739FAA068017A01A8FCF74CFA91
:101B2000A068817A01A8FCF747FAA068417A01A869
:101B3000FCF742FA002E08D0042101A8FCF7F9F9BD
:101B400004222946EFF7E8F807E0022101A8FCF794
:101B5000F0F92978017069784170002000900346FF
:101B600001AA0A990998F5F783FF0DB0F0BD0000AE
:101B70000C4F010019800000FFB589B01B48129E70
:101B8000006C029004A8019003901F46149D139CC2
:101B9000174901A8F5F73BFE01A80B99FCF70CFAD1
:101BA000394601A8FCF7F0F9314601A8FCF7ECF939
:101BB000002D08D0042101A8FCF7BBF9042221461E
:101BC000EFF7AAF807E0022101A8FCF7B2F92178A3
:101BD00001706178417000200090034601AA0A99C3
:101BE0000998F5F745FF0DB0F0BD00000C4F01005E
:101BF0001F800000F0B505460F4887B0406E029088
