:020000040000FA
:1000000000800020A500000029820000AF00000051
:1000100000000000000000000000000000000000E0
:10002000000000000000000000000000AF00000021
:100030000000000000000000B1000000B30000005C
:10004000B5000000B5000000B5000000B5000000DC
:10005000B5000000195C0000B5000000B50000000C
:10006000B5000000B5000000B5000000B5000000BC
:1000700015A00000B5000000B5000000B5000000AC
:10008000B5000000B5000000B5000000B50000009C
:100090000348854600F016FF0048004785A8010088
:1000A000008000200448804704480047FEE7FEE740
:1000B000FEE7FEE7FEE700000DA70000910000004C
:1000C0002E4611462D1B804145402D1AC91ABF41AD
:1000D0007940C91B47408946A846210CA4B2204656
:1000E00095B2120C68434D43544351432204240CEF
:1000F000801861412A042C0C80186141340CB6B27E
:100100009DB21B0C32466A4365435E4363432C0435
:100110002D0C12196B413404350C12196B417640C9
:1001200052187341494645468046080C89B20C4630
:100130002E0CADB269437443454370432604240C2E
:10014000891960412E042D0C891968417940784045
:1001500064407F10514142416741404609185A416D
:100160007B41704700B5FFF7ABFF03B451469246A1
:1001700033C922462F46121A8F41B641724077404A
:10018000921BB74184B45A469B460FCA801A9941C4
:10019000BF4178407940C01BB9417740BC4603B4A9
:1001A000FFF78EFF54465D46764000196941724163
:1001B000734192469B463CBC03B4FFF781FF30BCC1
:1001C00066466746704071407240734076106041E9
:1001D000694154415D415240564157410CBC9046E3
:1001E000994612184B415046594644414D414641AB
:1001F0004F4100BD01B590B006B492468B46104603
:1002000030C808300CC9083103B4FFF7ABFF06A8AB
:100210000CC004A842464B460CC006BCF0B48A464B
:10022000934630C90CCAFFF79DFF40464946B04689
:10023000B946C0BC80197941C0BC72417B4106AF50
:100240000FC7BA46404046464F46444145414641A5
:10025000474106BC9446F0B4FFC9001BA941B24116
:10026000BB416440A4416040614062406340001B68
:10027000A141A241A3416646A44655460FC5AB46DF
:1002800080468946FFCE241A8D4196419F414040C9
:1002900080414440454046404740241A85418641BC
:1002A0008741614648405946F0C101B442464B4639
:1002B000FFF758FF01BC844642404340444045405C
:1002C00046404740F0B408A9F0C949464140A2461B
:1002D00044464010604054466041694172417B4150
:1002E00064406441A2460CACF0CC001969417241F3
:1002F0007B41A1460CAC0FC40FBC4C4644414D4160
:1003000056415F410021494150468A4640100FBC8A
:1003100044414D4156415F41804608A8F0C04046E7
:1003200066465546644075416641401971417241C7
:1003300073410CAF0FC7FFBC1B184C4155414641E0
:1003400090469946A246AB46B4464F413CBC42411A
:100350004B4100267441754176413F1A8A4140461F
:10036000494683418C4100208541864160464018C2
:10037000844650464741BE46404642414B41444177
:100380004D4100277E4103BC361879417F415846D4
:100390001218904662465341994653465C41A24624
:1003A00045415E41414114BC7A4100277C417F4177
:1003B000ED1A8641634670469941824100239C4173
:1003C0009F41A646BB46544624185D4167467E4180
:1003D00041417A417746474158465841DB1A8246A7
:1003E00040465841BB464F465F418446B9465C4152
:1003F0009D419E41994101239A4100235846574609
:1004000058419F419046624683464B46D2197B41F4
:100410007C41002045414641414101BC7CC0012551
:100420003D4042465B466A417B410EC000BDA0B2E2
:10043000210C02464A4340434943D30B52048018DF
:100440005941641BB6417440A41BAAB22B0C15463B
:100450005D4352435B43EE0B6D045219734100261A
:1004600052187341250CA4B22146694364436D437D
:10047000CE0B4904641875411146091BAA411D465B
:100480000026B34109186A417341704700B5204600
:100490002946801BB941924150405140801A9141F8
:1004A00080468946B246FFF7C2FF54463D46824623
:1004B0008B4694461F46FFF7BAFF64460019794100
:1004C000724173411F468446444688464D469146D4
:1004D000FFF7ADFF644645464E46241A8D4130462F
:1004E000394690419941002296419741524612194E
:1004F0005B466B416446444145464D4100204641C0
:1005000047415046594600BD01B590B002B4F0C90C
:10051000FFF7BCFFF0B405AC0FC4049C1034F0CC62
:10052000FFF7B4FFA046A946B246BB46F0BC00198F
:10053000694172417B4144464D4656465F4680467E
:10054000002044414541464147414046FFB4089C94
:10055000FFCC241A8D4196419F4180414440454043
:1005600046404740241A854186418741FFF78EFF68
:10057000C043C943D243DB43E443ED43F643FF4367
:10058000A046A946B246BB46241BF0BC6041694167
:1005900072417B41A44609AC0FC4644640466041A9
:1005A00080464946694189465246724192465B46B9
:1005B0007B419B4600204041844605A8FFC80019A6
:1005C000694172417B4109AC0FC46846F0C841469D
:1005D0004C4149464D4151464E4159464F410DA867
:1005E000F0C0F0BC61460022D24351410A116418A8
:1005F000554156415741F0C001B09CE601B519C9BB
:10060000E0CA401973417C4180469946A24660C9C0
:1006100018CA5D4166411AC985CA414153417C41AE
:1006200000277F41001A4246B8464F46A14654462D
:10063000424192464741BB46444185418641814102
:100640000120834100204A4642414746874198465F
:100650005B4693465246D9E601B519C9E0CA401B2C
:10066000B341BC4180469946A24660C918CA9D4123
:10067000A6411AC985CA81419341BC41BF41424646
:100680009846A3464B465446C0E6012102C00021CD
:10069000002206C006C006C002C020387047F0B570
:1006A00001A2FFF7A7FDF0BD03000000000000005D
:1006B000FFFFFFFFFBFFFFFFFEFFFFFFFFFFFFFF4F
:1006C000FDFFFFFF04000000F0B5002200230CB482
:1006D0000CB40CB401220CB46A46FFF78BFD08B0D1
:1006E000F0BD01B50FA200F0E3F80098403005A17D
:1006F00000F020F804D003A00099403100F01AF86F
:1007000002BD0000DFBDC42962DF9CD89030847830
:10071000CD05F0ACD62E21F7AB20A2E534488704F6
:100720001D0630DC402030211311134113411341C9
:100730000145000070B56D1BEE43082208C810C9C2
:10074000A34132441242F9D16D41284670BDF0B543
:1007500001246542A846A41A082620C980CBAF41CF
:10076000574365432F4480C046443642F5D1F0BD1F
:1007700030B53CC93CC03CC93CC030BD202202441D
:100780000B780370013101309042F9D17047F4B514
:10079000042641B40027B846B946BA46BB46BC4613
:1007A000BE4602987840EFF30080800F1CC9424398
:1007B0004343444390449944A2441CC942434343A5
:1007C000444393449C44A64448310137082FE8D160
:1007D00041BC42464B4654461CC05A46634674468A
:1007E0001CC0F839F839F839013ED2D1F1BD0EA25A
:1007F0005EE001A25CE00000802030138010401415
:10080000502161105111711130433022531585155B
:100810003213414402104022131123430032324369
:10082000034242122144000080207815603160406C
:10083000011000510130002170244022641444331F
:100840001343434101100244000081460F460FCF7D
:10085000C607F517F60F0024401969416A41634144
:100860000FB40FCF6041614172416B41002464417C
:10087000E7075E083743DE0755082E43D5074C08C7
:100880002543CC0743081C43C30748461030F0C03B
:100890001F460FBC5E083743DE0755082E43D507B9
:1008A0004C082543CC0743081C434846F0C070471A
:1008B000F0B598B020230C46CD18EE1870B404465D
:1008C000C518EE1870B406ACE518EE1870B43C24E8
:1008D0006D461388023204B49A002240AA5899083F
:1008E0002140695898092040285804A59E0A2640AE
:1008F00003D0AE59B04704BCE9E722B0F0BD000018
:10090000F501000009050000FD0500005906000082
:100910004B08000005B5002907D002B40198014634
:10092000FFF7F2FD02BC0139F7D103BC0246FFF725
:1009300061FC00BD01B5FFC8FFB4089801216A46FB
:10094000FFF7E8FF0898FFC8FFB410980146FFF7CB
:10095000DBFD10980146FFF7D7FD1098FFC8FFB4E4
:100960001898694608AAFFF745FC08A81899FFF7E8
:10097000FFFE189F00240CA210570132155D86005F
:1009800004D588B068463946FFF7F2FE3846F1B222
:100990002A466A4490B4FFF7BDFF90BC0234162C7F
:1009A000E9D131B000BD000001208200840088A0A0
:1009B00020000800042002400180016000A0F1B581
:1009C0004030FFC8FFB46846FFF7B4FF694688B0FF
:1009D0006846FFF799FD08A96A460846FFF70AFC32
:1009E000694610980246FFF705FC08A910982030C8
:1009F0000246FFF7FFFB11B0F0BD4242C3171340A0
:100A0000D217104018437047F0B544464D4656463D
:100A10005F46F3B4C0B01E0408A81146FFF7AEFE4F
:100A20006846FFF732FE08A86946FFF783FE01D14A
:100A300042B0C4E008A870A1FFF77CFE0138F7D0EF
:100A4000684608A90A6801231A405A4016446AA356
:100A5000FFF77DFE18A900980007000F01226C46E1
:100A600001255308E35CD7077F0FFB401B071B0FD3
:100A700001271F406F403F01C01B087001312B430D
:100A800018460132402AECD108704199E0B0E0B03C
:100A90006846FFF773FEFFF771FE68464EA1FFF749
:100AA00049FE013802D160B060B0C1E708A84AA190
:100AB000FFF740FE0138F6D068466946FFF7EFFDC4
:100AC00008A808A9FFF7EBFD6846FFF70AFE002813
:100AD000E9D010A8FFF7D9FD0146FFF7E0FDA8A86F
:100AE0006946FFF784FE18AC07252046A8A9FFF742
:100AF0003FFEFFF73DFEFFF73BFE20460146603913
:100B0000FFF777FE6034013DEFD1E8AF013F387861
:100B1000013F40B2FFF771FF4208C0A86946FFF7E6
:100B200036FED8AD0424C0A80146FFF760FE013CA4
:100B3000F9D13878013F40B2C40FFFF75EFF420899
:100B4000E8A86946FFF723FEF0A80146224622A343
:100B5000FFF7FDFDAF4203DAA8A8C0A9FFF747FEE3
:100B6000C0A8E8A9FFF745FEAF42DBDA6846FFF709
:100B70008CFDD0A86946FFF7DDFD821DE8A818A905
:100B8000FFF705FE74B074B06846FFF718FF6846BB
:100B90006946FFF799FD08A808A9FFF795FD08A881
:100BA00008A9F2B20CA3FFF7D2FD18986946FFF727
:100BB000E5FD360C01D0FFF7E1FD01201AB0F0BCD5
:100BC000A046A946B246BB46F0BD0A4612A1012383
:100BD0001AE7002318E70000FFFFFFFFFFFFFFFFFA
:100BE000FFFFFFFF00000000000000000000000009
:100BF00001000000FFFFFFFF512563FCC2CAB9F3EB
:100C0000849E17A7ADFAE6BCFFFFFFFFFFFFFFFFC3
:100C100000000000FFFFFFFF96C298D84539A1F4FD
:100C2000A033EB2D817D0377F240A463E5E6BCF8A9
:100C300047422CE1F2D1176BF551BF376840B6CB74
:100C4000CE5E316B5733CE2B169E0F7C4AEBE78E70
:100C50009B7F1AFEE242E34F30B50B46014600206F
:100C60002022012409E00D46D5409D4205D31D46B2
:100C70009540491B2546954040191546521E002DAA
:100C8000F1DC30BD70B500242546002801DA0124CE
:100C90004042002901DA01254942FFF7DDFFAC425D
:100CA00000D04042002C00D0494270BDF8B500246D
:100CB0002546002904DA0E46012400214042B141B4
:100CC000002B04DA1E46002352420125B34100F0F6
:100CD000B7F88C4617461E46AC4203D0002540426A
:100CE0008D41AC46002C02D0002657429E41614601
:100CF0003A46334601B0F0BDF0B51FB486B00020CF
:100D00000090019002900698069980B2049007988E
:100D1000090C02040014114307900027089D09984C
:100D200006913E463C4603900398A9B20204000C8B
:100D3000039004982D0C154348430021224600F0EF
:100D400018F8C719714110340E46402CECDB3846B8
:100D5000029A00F00EF8009A019B80180090594109
:100D600002980191103002904028CCDB00980BB023
:100D7000F0BD10B5202A04DB0146203A9140002046
:100D800010BD914020239C1A0346E3401943904034
:100D900010BD10B503461C460C43A40703D009E060
:100DA00010C9121F10C3042AFAD203E00C781C7079
:100DB000491C5B1C521EF9D210BDD2B201E0027078
:100DC000401C491EFBD270470022F6E710B51346BF
:100DD0000A4604461946FFF7F0FF204610BD421CA4
:100DE0000178401C0029FBD1801A704710B5002201
:100DF00000E0521C835C8C5CA34201D1002BF8D133
:100E0000D8B2E1B2401A10BD30B504460020034606
:100E100000E05B1C934203D2E05CCD5C401BF8D049
:100E200030BD30B505460020034600E05B1C934210
:100E300005D2EC5CC85C201A01D1002CF6D130BD83
:100E4000F0B51FB40646002082B00546402401914B
:100E500000901BE0019922460F46304600F020F832
:100E6000049A059B801A994110D3104619462246D0
:100E7000FFF77FFF361A8F4101972246012000219C
:100E8000009FFFF776FF38184D4100902046641E02
:100E90000028DFDC019B00982946324607B0F0BDF0
:100EA00010B5202A04DB0846203AD040002110BDAE
:100EB0000B46D340D0402024A21A91400843194643
:100EC00010BD0000064C0125064E05E0E36807CC86
:100ED0002B430C3C98471034B442F7D3FFF7DCF8AF
:100EE000E86002000861020070B58C180578401CAB
:100EF0006B075B0F01D10378401C2A1106D10278E1
:100F0000401C03E006780E70401C491C5B1EF9D1A2
:100F10002B0705D40023521E0DD40B70491CFAE791
:100F20000378401CCB1A921C03E01D780D70491CFD
:100F30005B1C521EF9D5A142D8D3002070BD000021
:100F40000448C17E80221143C1760F210176212100
:100F5000417670474010004010B5124C2068C00523
:100F60001FD50320206000200821401C2268C0B249
:100F70000A4322600EE02268920510D4222807D985
:100F80000948026B002A0AD001210320904706E09D
:100F9000401CC0B22268D205EDD50028E5D1002062
:100FA000206010BD80C30040A433002070B51446FB
:100FB0000D460646FFF7D0FF2D4803681968062244
:100FC00091431960316899627168D962B168196397
:100FD000F1685963296899616968D961A9681962DA
:100FE000E968596259680222914359605D6801219C
:100FF0000D435D601D680D431D6000E000BF596832
:101000008907FBD559689143596099692170016836
:101010008969090A617001688969090CA170016810
:101020008969090EE1700068C1692171C169090A05
:101030006171C169090CA171C169090EE171016A8F
:101040002172016A090A6172016A090CA172016ABE
:10105000090EE172416A2173416A090A6173416AAA
:10106000090CA173406A000EE073002070BD0000FF
:101070000007002070B50C460546FFF76DFF2848B5
:101080000268106820218843E907890E0843106030
:101090008034E06C1061206D5061E0699061206ADD
:1010A000D061606A1062A06A5062E06A9062206B50
:1010B000D062606B1063A06B5063E06B9060206C3B
:1010C000D060D168236C1748994204D0026B002A83
:1010D0001ED0202107E0916AE36A994206D0026B94
:1010E000002A15D021210320904711E0D169236AFD
:1010F000994204D0026B002A0AD02221F3E7116939
:10110000E36C994206D0026B002A01D02321EAE762
:10111000012070BD1068402108431060002070BDA0
:1011200000070020A433002070B50C460546FFF7E9
:1011300013FF28480268106820218843E907890EB8
:10114000084310608034606C1061A06C5061E069ED
:101150009061206AD061606A1062A06A5062E06AA1
:101160009062206BD062606B1063A06B5063E06B89
:101170009060206CD060D168236C1748994204D0ED
:10118000026B002A1ED0102107E0916AE36A99429F
:1011900006D0026B002A15D011210320904711E0E0
:1011A000D169236A994204D0026B002A0AD0122125
:1011B000F3E71169636C994206D0026B002A01D0F3
:1011C0001321EAE7012070BD106840210843106038
:1011D000002070BD00070020A433002010B505F0EA
:1011E000F9F9024903F0ADFF002010BD060400002C
:1011F0000148006E70470000343B002008B500280D
:1012000008D0002906D0002A04D01088002801D078
:10121000002008BD1220694608706A460121034873
:1012200003F08BFF6946087808BD0000350C00000C
:1012300008B504F0F5FC694608706A4601210348C8
:1012400003F07BFF6946087808BD000027200000F6
:1012500008B504F02FFD694608706A46012103486D
:1012600003F06BFF6946087808BD000011200000FC
:1012700008B504F067FE694608706A460121034814
:1012800003F05BFF6946087808BD000029200000D4
:1012900008B504F05DFE694608706A4601210348FE
:1012A00003F04BFF6946087808BD000010200000DD
:1012B000FEB508AF70CF6F4670C704F06FFE0446EE
:1012C000024903F03EFF2046FEBD0000132000004F
:1012D00008B505F06FF9694608706A4601210248B1
:1012E00003F02BFF002008BD0E20000038B5044697
:1012F00005F0EBFB694608704C70200A88706A465E
:101300000321024803F019FF002038BD1B20000014
:1013100038B5044605F0F2FB694608704C70200AA7
:1013200088706A460321024803F007FF002038BD99
:101330001A2000000EB500A8013005F042FF6946F2
:1013400008706A460921024803F0F7FE00200EBD2E
:101350001820000008B500A8013005F037FB6946E9
:1013600008706A460421034803F0E7FE69460878DE
:1013700008BD00000220000038B5044605F088FFD3
:10138000694608704C70200A88706A46032102483A
:1013900003F0D3FE002038BD212000007FB50446B5
:1013A00008A861C8009002960195204605F088FFC4
:1013B000694608734C73200A887303AA0321034803
:1013C00003F0BBFE002004B070BD00002020000030
:1013D00008B506F0B7FA694608706A460121034865
:1013E00003F0ABFE6946087808BD00002D20000020
:1013F00008B506F045FB694608706A4601210348B6
:1014000003F09BFE6946087808BD00000820000034
:1014100008B506F0BDFA694608706A46012103481E
:1014200003F08BFE6946087808BD00000A20000022
:10143000F0B585B00AACF0CC03976F4670C706F0E4
:101440003FFB6946087404AA0121034803F075FEB6
:101450006946087C05B0F0BD0620000008B506F01E
:10146000B9FB694608706A460121034803F065FE2E
:101470006946087808BD00000520000008B506F0A0
:10148000E7FB694608706A460121034803F055FEF0
:101490006946087808BD00002E20000008B506F057
:1014A000EDFB694608706A460121034803F045FEDA
:1014B0006946087808BD00000C20000008B506F059
:1014C0001FFC694608706A460121034803F035FE97
:1014D0006946087808BD00000920000010B506F034
:1014E00076FC024903F02DFE002010BD19200000FB
:1014F00010B505F043FB10BD1CB500A8013005F088
:101500006FFE694608706A460721034803F015FE1E
:10151000694608781CBD00000910000038B500A914
:101520000446033105F06CFE694608704C70200AD1
:1015300088706A460421034803F0FFFD6946087875
:1015400038BD00000514000010B506F00FF910BDFD
:101550000A7802708A7842704A88120A8270097981
:10156000C170042070470A7802700988090A417026
:101570000220704708888004000C70478A78027047
:1015800088780128088804D012214843401C80B282
:1015900070478000FAE70A7802700A88120A4270DF
:1015A0004888801C80B270470A7802700A88120A44
:1015B00042708A7882704A88120AC2708888001D38
:1015C00080B27047088870478A7802700888498816
:1015D0004843401C80B270478A7802700888498866
:1015E0004843401C80B2704708887047088870479D
:1015F0007FB515460446022901D0102903D1022BDC
:1016000004D0102B02D0002004B070BD994202D14A
:101610000A46294607E01029694607D000F00EF86F
:1016200010226946284622F0D7F8EDE7104600F070
:1016300005F8102269462046F5E7000070B50C4613
:1016400005000CD0002C0AD010220649204622F0BA
:10165000D1F82878207368786073012070BD00206D
:1016600070BD0000C45D020008B500220B46009268
:10167000012202490AF0CAFB08BD00005115000012
:1016800008B50A88172A07D300220B4600920322C6
:1016900002490AF0BBFB08BD022008BD6715000027
:1016A00008B500210B46192200910AF0AFFB08BDD6
:1016B00038B5054608880C4600280DD0606800281B
:1016C0000AD0012122F044F8009023460722034962
:1016D00028460AF09BFB38BD022038BD7515000076
:1016E00038B5054688780C46012801D0022810D16B
:1016F000208800280DD0606800280AD0022122F03E
:1017000027F8009023460522034928460AF07EFB6D
:1017100038BD022038BD00007D150000064910B517
:10172000884202D104F0F4F810BD16F0A7F80028A2
:10173000FAD1172010BD0000FEFF000038B50546A5
:101740004A6800200C46002A03D00321104621F0ED
:10175000FFFF009023461D22024928460AF012FB93
:1017600038BD00009715000038B505464A680020CE
:101770000C46002A03D00321104621F0E9FF009017
:1017800023461B22024928460AF0FCFA38BD000015
:101790009715000002480021016041607047000079
:1017A000240700200098022B01D0042070475178B4
:1017B0001278090211430180002070470098012B24
:1017C00001D004207047117801700020704770B577
:1017D000049C1E461546062B1BD368782978000208
:1017E00008432080E878A97800020843608002203E
:1017F00020710246291D601D21F0FCFFB01F2081D1
:10180000062E03D0AD1DE560002070BD0020E06015
:10181000FAE7042070BD0098042B01D00420704723
:1018200051781378090219430180D178927809021E
:101830001143418000207047F8B5C4880D46002C44
:101840002BD086683778390601D4002010E00D2CA3
:1018500023D30C3CA4B23119009140882346324670
:10186000012108F075FE002801D0022000E00120CF
:1018700079062870C90FBA066970920EAA70641EA4
:101880002204120CAA8002D0761CAE6001E0002275
:10189000AA60022803D1002901D00120F8BD002050
:1018A000F8BD10B50298042B14D3517814780902AE
:1018B00021430180D1789478090221434180191F86
:1018C0008180042B02D0121D826001E00021816022
:1018D000002010BD042010BD0098042B01D004206E
:1018E000704751781378090219430180D1789278B2
:1018F0000902114341800020704710B5029811463B
:10190000062B03D0142B03D0042010BD022200E0CC
:10191000102202714A780B7812021A430280CA78A8
:101920008B7812021A4342800279401D091D21F072
:1019300061FF002010BD0098D90706D1022B04D00A
:101940005908818002600020704704207047009889
:10195000022B01D0042070475178127809021143FC
:1019600001800020704710B5029C022B11D3207219
:10197000617250781178000208432080981E6080C0
:10198000022B02D0921C626001E000206060002007
:1019900010BD042010BD000038B5054688680C460F
:1019A000002802D0052121F0D3FE00902346172203
:1019B000024928460AF02AFA38BD0000A91500009D
:1019C00038B5054648680C46002802D0012121F0B0
:1019D000BFFE009023460D22024928460AF016FA5F
:1019E00038BD0000C515000038B5054608880C460E
:1019F00000280DD0606800280AD0022121F0A8FE3E
:101A0000009023461122034928460AF0FFF938BD09
:101A1000022038BDC915000038B5054608880C46B7
:101A200000280DD0606800280AD0022121F090FE25
:101A3000009023460922034928460AF0E7F938BDF9
:101A4000022038BDD915000038B5054648680C4657
:101A500000280AD0012121F07BFE009023460F22AE
:101A6000034928460AF0D2F938BD022038BD0000EB
:101A7000E915000038B505464A6800200C46002AE2
:101A800003D00121104621F063FE009023460B2273
:101A9000024928460AF0BAF938BD0000ED150000E9
:101AA00001490860704700002407002070B5054612
:101AB00008480C46854205D0172C03D303F028FFB5
:101AC000A04201D2012070BD2146284615F096FFA4
:101AD00070BD0000FEFF000008B500210B46132278
:101AE00000910AF093F908BD10B501F085FB06F0EE
:101AF000CFFB094808F0A8FE084C20700AF000FF50
:101B000003F086FA064803F0BBFE4B229201022145
:101B1000207822F087F910BD251B0000000000206E
:101B2000B561010030B58BB00C46C80708D01BF07A
:101B300007F9002802D020460BB030BD01203CE060
:101B4000A0073CD51F4D288A00282ED01E491FA073
:101B500009F02AF8298A21A009F026F825A009F021
:101B600023F819491C2214316846FFF712F9288A14
:101B70006946888022F0C4FC694688711EA20FCA9B
:101B800007AD0FC5042207A9684622F0C9FD050666
:101B90002D0E0AD00C490DA009F006F829461AA00E
:101BA00009F002F813A008F0FFFF1B484B22520176
:101BB0000221007822F036F902206040BCE70020C4
:101BC000BAE700001C1200206C5002004150505F28
:101BD0004442472025733E20000000006170705F82
:101BE0006E6F6465735B315D2041444452202578FB
:101BF000000000000A0000000001020304050607BF
:101C000008090B0C0D0E0F107472616E7320666163
:101C1000696C6564202564000000002004480349C5
:101C2000006801600349C16270470000A5220801F5
:101C300004070020784E010010B5074C5D20216894
:101C4000086506F02DFD20680021016503484279F2
:101C5000521C4271C17110BD1C040020F8330020D9
:101C600070B52C49002048602B4800892B4CC0B22D
:101C70008109022904D0012908D0810916D026E063
:101C8000C820A0801020E080E8201FE0C506ED0EEF
:101C90002D2029468001FEF7DFFFA080294678200D
:101CA000FEF7DAFFE08029461D480DE0C506ED0E7F
:101CB0002946C020FEF7D0FFA08029460820FEF765
:101CC000CBFFE0802946E820FEF7C6FF20811649B9
:101CD00014480860164915480860174915480860F7
:101CE00017491648086018491648184C08601849E2
:101CF00020680122D20208618018486101204871E1
:101D000000F062F9607D002802D1124920200860AD
:101D100070BD00002004002000100040D8330020D7
:101D2000980D000000C000400807002000C30040DC
:101D30000007002000C200401C04002000D000402A
:101D40000C07002000C1004004070020A43300203D
:101D5000F833002000E100E0F8B5564800688168DB
:101D60000127C9050025544C544E00292EDA8168FC
:101D70003A0291438160207840060CD55048514981
:101D80000068884206D15049886BE0608A6B9042B7
:101D9000FAD100E080472078384320706570E07900
:101DA000062803D043495D2009680865306800288B
:101DB0000AD001690A68406902430A60316808680C
:101DC000026889680A4302606571A560394B18682A
:101DD0008168890521D58168012252029143816081
:101DE000A0783843A070E57038480068C16A890857
:101DF0008900891CC1620168D20411430160306806
:101E000000280AD041680A68806802430A60316885
:101E1000C868026849690A430260186881688907CE
:101E200017D58168022291438160E770A5705D211A
:101E30000165306800280AD001690A6840690243D8
:101E40000A6031680868026889680A43026065713F
:101E5000A56018688168C90715D0816849084900DC
:101E6000816025706770306800280AD041680A6870
:101E7000806802430A603168C868026849690A4399
:101E800002606571A56018688168C90603D581681C
:101E90001022914381608168490703D5816804223B
:101EA000914381608168090703D5816808229143C5
:101EB0008160F8BD1C040020F833002024040020B9
:101EC00018040020899F0000001000400407002033
:101ED00070B504460068002828D00121000C490391
:101EE000884223D1A088002820D020460622FF2146
:101EF000163021F062FC01281AD0A2880021206847
:101F000021F070FD342200212D4821F06BFD342298
:101F100021462B4821F06EFC29480622163000216C
:101F2000054621F04AFC012804D008E0022070BDDB
:101F3000032070BD23490622284621F05BFC20487F
:101F40008189002902D1012149028181827B0121FD
:101F5000002A00D18173C27B002A01D11B22C273E7
:101F6000027C002A01D105220274427C002A00D1A1
:101F70004174817C002901D114218174817F002961
:101F800001D128218177C17C002908D0827FE17CA2
:101F900092088918C174617F002904D005E0817F0F
:101FA00089082D31F6E702214177806A002803D0A5
:101FB000804703493431488108F0FEFB002070BDA2
:101FC000A43300200806040010B500F0EBF803F07D
:101FD00007FE06F0FFFAFFF721FE0B4C5D2021689B
:101FE000086506F00FFC07F0CDF906F0D3FB06F00C
:101FF00057FB064801214171226800211165C1711A
:10200000FEF7AAFF10BD00001C040020F8330020DA
:1020100030B58DB0122227A12B4821F0DDFB00281E
:1020200041D02A4857210170A82101705121274A27
:10203000C900403A1181002101702648244A4261BA
:10204000254A0724D3691B021B0A45042B43D3618D
:1020500081610461016902229143016134220021FE
:10206000684621F0BFFC1D480090012040036946EE
:1020700088801B20C8730520087401204874142030
:102080008874FB20800202900D2008771448089085
:1020900014480A900846FFF71BFF010007D012A062
:1020A00008F082FDFEE718A008F07EFDFEE70DB007
:1020B00030BD000043483537785F424C455F4C499E
:1020C000425F56312E380000A052020040100040FE
:1020D000FEFFFF0000E000E004ED00E03813002008
:1020E00041A60000B54F00004C494220696E69745A
:1020F000206572726F7220636F64653A20257820C4
:102100002E2E2E0A00000000686561642066696C4E
:1021100065206572726F722E2E2E0A0070B50E4BFE
:1021200000209989002901D10C4999810E210124AF
:10213000A4039A8915462540CD405204120C05434C
:10214000E8B25604D50BF60F75401543491EC9B2C7
:102150009D810629EDD870BD343B0020FF7F000033
:1021600070B50E4B00205989002901D10C495981C5
:1021700008214C015A8915462540CD40054352009F
:10218000E8B2550A56097540ED07ED0F1543491E93
:1021900009065D81090EEDD170BD0000343B0020C1
:1021A000FF0100000A48094900680A6902610A69DA
:1021B000426149698161C1618268012149030A4321
:1021C0008260C2680A43C26070470000F833002092
:1021D0000807002030B5104A0346517AFD208424B8
:1021E00054720E4CA568002D07D0A57B002D04D09D
:1021F000A489E51FFF3DFA3D02D05172FF2030BD9A
:102200007D24E402A34205D35360A6201072907A85
:1022100040235840517230BD00180040A4330020C4
:10222000F8B504460025C00501D00120F8BD1120F5
:1022300069460870334E002030707070324F802035
:102240007872087811300870304800790007000F64
:102250000D2802D0012006F09DF96946087811305A
:1022600008702A488179890701D00220F8BD6A46A2
:102270001178113111708179890704D111784429BD
:1022800001D1572131701178113111708079800797
:1022900007D11078552804D13078572801D1A820CB
:1022A0007070107811301070307857280ED1717816
:1022B000A8290BD11178662908D17C607D21C9023B
:1022C0008C4201D2882100E0842179721178113189
:1022D0001170572809D17078A82806D1107877286E
:1022E00003D1A62038727889C5B2002010703070F2
:1022F000707080207872402D01D00320F8BD00203E
:10230000F8BD0000E7030020001800402010004046
:10231000F7B50446002682B00D46800702D00120A2
:1023200005B0F0BD1120694608703D4800210170DC
:1023300041703C4F802078726946087811300870EF
:10234000394800790007000F0D2802D0012006F05F
:1023500021F9694608781130087033498879800777
:1023600001D00220DCE76A461078113010708879BD
:10237000C00705D11078442802D12948572202709D
:102380006A461078113010708879C00708D110782B
:10239000552805D122480178572901D1A82141703B
:1023A0001078113010701E4A107857280ED15178CD
:1023B000A8290BD169460978662907D17D23DB025C
:1023C0009C4201D2882100E0842179726B46197801
:1023D00011311970572816D15078A82813D11878C0
:1023E000772810D100209A230AE07C6002CD396062
:1023F0003B727989241DCEB2402E04D1001D80B2DB
:1024000004998842F1D3002069460870107050701A
:1024100080207872402E01D0032081E700207FE7E2
:10242000E70300200018004020100040F8B5002409
:102430000F4E274613E0F06B250128180622FF21D6
:1024400021F0D0FAF06B06222818FF21801D21F020
:10245000C9FAF06B28188781641C8773E4B2307E58
:102460008442E8D3002021F09DFB307E7076F8BDD9
:102470008805002070B50C460146012080020A1A2A
:1024800000252B48130008F0B7FB20111316181A6B
:102490001D1F21232527292B32343648393B3D3F48
:1024A000434848484848484848464148007800E082
:1024B0004078207039E08078FBE7C078F9E7102297
:1024C0001C4910E00079F4E74079F2E7006A13E074
:1024D0008079EEE7C079ECE7007AEAE7407AE8E74E
:1024E000144910221031204621F084F91DE0807A31
:1024F000DFE7C07ADDE7406A206016E0007BD8E7BE
:10250000407BD6E7807BD4E7407CD2E7807CD0E775
:102510000FF08EFBCDE7807DCBE7192904D208466A
:1025200001F0DCF9208000E00225284670BD0000A3
:10253000880500202435002010B5044600F0D4F8AA
:102540000248C4750FF0AEFC10BD000088050020E5
:10255000FFB58FB0064600200C900D901F460CAAC8
:10256000304600F09DFA454D0446287E84425AD2FA
:1025700020460FF077FC0646042F04D0A8790228E5
:1025800003D0002002E02878F9E7012000903B46C4
:102590003246214611980FF023FB1422002101A896
:1025A00021F020FA20460621484300902430C0B292
:1025B00001AA102121F054FB002813D11022FF2181
:1025C00001A821F0FAF800280CD1009805AA2530BE
:1025D000C0B2042121F044FBF107C90F01AA1198F0
:1025E00001F0F4FB7034E0B206AA182121F038FBA8
:1025F000002811D106A80FF047FC0024A10006A86E
:1026000008180188002903D08278119801F044FF4E
:10261000641CE4B2062CF1D3B00706D5E97D11980D
:1026200001F028FF01E0082F02D0042F13D021E091
:10263000A87902281ED10022314611980FF00AFA1B
:10264000A86A002816D04368002B13D00022114638
:10265000119898470EE0287802280BD12979119813
:10266000002900D001216A78002A00D004221143F9
:1026700001F072FB002013B0F0BD000088050020BF
:10268000F8B501F0C1F900282BD1164D0026E87CE1
:10269000012801D000241CE00FF016FBEE7400208E
:1026A0002A7EE96B04E003015B18401C9E73C0B2F4
:1026B0009042F8D310E0E86B27013818807B01289E
:1026C00005D120460FF012FBE86B38188673641CA6
:1026D000E4B2287E8442EED3502021F085FA0FF038
:1026E000E1FBF8BD88050020F8B5354EFF20F075F8
:1026F00000273776334CF763A07B302148434221D3
:1027000021F094F8F063002825D02046807B41001A
:1027100040183076002413E0F06B250128180622BB
:10272000FF2121F05FF9F06B06222818FF21801DA0
:1027300021F058F9F06B28188781641C8773E4B284
:10274000307E8442E8D31F488068002801D0B776E5
:1027500001E08020B076307E70760124776334709B
:102760007770B770F77010220021174821F03AF9FE
:102770003771772575713762B471F7711248377206
:10278000777210220021103021F02CF9B772F57207
:1027900077623773052070731020B073F7730220CF
:1027A0003074B762F76237637774F774347504482E
:1027B0007475B47505494830016005494160F8BD3C
:1027C00088050020A433002024350020B521010015
:1027D0007D21010010B506490C46483CA162E0622B
:1027E000E17D182001F0D8FAE07D01F0EFFD10BD89
:1027F000D005002070B5264D0C4608040FD5E87DA5
:1028000021F034F9050006D00FF0F2FB002802D0C9
:10281000284621F003F90120C003604070BDA007E5
:102820000BD5002108460FF077F802214C40002814
:1028300025D1E87D21F0A4F91FE0E00721D0686BE5
:1028400080880FF007FC01214C40002817D0A86AAF
:1028500000280DD04368002B0AD0686B00228088C6
:102860009847A96A686B00224B68808803219847C3
:10287000287D21F0D5F90FF041F8204670BD0121E7
:10288000D7E7600702D50420484070BD002070BD26
:10289000880500207FB5044680787F4D801F0300A7
:1028A00008F0AAF90AF4F7F7A41306F0F778B9F7D5
:1028B000A96A2046002907D00C68002CFBD0437B76
:1028C000027B4189C01CA047E3E060780026002815
:1028D00047D1A079C00744D0686B002841D11022AD
:1028E0000021684621F07EF86169002903D00622A4
:1028F0006846103107E0A08814F0EAFE0028E3D013
:10290000811D0622684620F075FF69468889A179F5
:102910004907C90F0843694688810FF089F9297E64
:1029200088420BD1A87D002801D0FFF77FFD5B48CE
:10293000026B002A02D00121082090470FF078F99D
:10294000297E8842A87E02D10121084301E0400887
:102950004000A876214668460EF0DEFF002812D01F
:102960001526A86A002855D04368002B52D06278FB
:10297000A08801219847002E4CD0A96AA0884B68F6
:102980003246032173E00221E87D21F0F9F80020AE
:1029900004B070BD6078062817D1A08814F098FEA6
:1029A000060012D0287C012804D0022808D0032871
:1029B0000BD114E07179A08800220FF04BF804E0ED
:1029C000A1883078052201F039FAA86A002860D081
:1029D0004368002B5DD06278A088022147E0002286
:1029E00041201146000100F0F7F8E9E7E078002205
:1029F000211D00F055F8297E88424AD2062148431D
:102A000025302246C0B20C32042121F06DF9287D18
:102A100021F006F93DE0287B002802D0A088697BE0
:102A200028E028780028A08823D014F051FE060062
:102A30002FD0A07AC0070BD07079002808D0A189C8
:102A4000890505D46A46B11D00F02AF8002814D083
:102A500022467179A08808320EF0FCFFA86A00288F
:102A600017D04368002B14D00022A0881146984745
:102A70000FE0052101F0D2F90BE0A0880321F9E76E
:102A800000E003E0A08800F031FA02E0A088FFF740
:102A9000F7FD01207CE7000088050020A43300201A
:102AA000F0B52E4E85B0347E15460F46002806D070
:102AB000012804D0022811D003284BD121E0084678
:102AC0000FF088F9317E0446884243D2002D41D070
:102AD00006223946284620F08DFE3BE000240BE01C
:102AE000F16B2001401806223946801D20F074FE4B
:102AF000002826D1641CE4B2307E8442F0D3C4B2F4
:102B00001FE0002419E02046062148432330C0B2CC
:102B10006A46102121F0A4F800280CD11022FF21D0
:102B2000684620F04AFE002805D13946684601F083
:102B3000E1F8002805D0641CE4B2307E8442E2D380
:102B4000DDE7307E844205D2002D03D029462046A1
:102B50000FF068F9204605B0F0BD000088050020A0
:102B6000F8B50E4619491525194F884214D100248D
:102B700009E03246022120460FF074F8002800D008
:102B80000025641CE4B2387E8442F2D3002E1BD0B0
:102B9000104814F0BBFE17E014F09AFD040012D0A8
:102BA00060790022A11DFFF77BFF397E884204D2A5
:102BB000324602210FF056F80025002E04D02046A0
:102BC0000FF0B2F900E014252846F8BDFFFF000021
:102BD00088050020291F0100F0B50746012080026A
:102BE0001546381A89B00024BC4ABD4E030008F0CF
:102BF00003F82011181F262D333A3F464D545B62CF
:102C00006970757CEFEEEDECEBEA89E9E8AAAAF3CE
:102C1000F6E5E4EB012971D1287802286ED83070EE
:102C200059E10129F7D128780128F7D8707052E1CD
:102C30000129F0D128780428F0D8B0704BE101299F
:102C4000E9D128780128E9D8F07044E11029E2D1CF
:102C500010222946A348ADE00129DCD128780128BB
:102C6000DCD8307137E10129D5D12878707132E193
:102C70000429D0D128689042D0D830622BE10129B4
:102C8000C9D128780228C9D8B07124E10129C2D15C
:102C900028780128C2D8F0711DE10129BBD128781C
:102CA0000428BBD8307216E10129B4D12878012854
:102CB000B4D870720FE11029ADD18A48102229468C
:102CC000103077E00129A6D128780128A6D8B07263
:102CD00001E101299FD12878F072FCE004290DD18F
:102CE000286890420AD87062F5E0002906D100F009
:102CF0008BFE002803D00120F074ECE074E00EF0AD
:102D0000E3FF1CE007296FD10622691C684620F00A
:102D100071FD287800226946FFF7C2FE0546307E25
:102D2000854239D200F070FE002805D0F26B0120F8
:102D3000290189188873CEE028460EF0D7FF50206D
:102D400020F052FF96E007294ED10622691C07A801
:102D500020F050FD2878002207A9FFF7A1FE317E60
:102D600088421BD20621484305462135E8B26A460F
:102D70001C2120F075FF00280ED15B48874201D14D
:102D8000012000E0FF206946C876E8B26A461C21AF
:102D900020F0AAFF307D4BE002249CE0B07E0028AA
:102DA000FAD05148874214D10120F0764C480722CE
:102DB0002946403020F01EFD8DE05EE07AE00EE016
:102DC0000AE075E06FE067E07BE04AE041E039E06F
:102DD00031E00020F0767EE0002070757BE0002777
:102DE000012070753D461BE066E0284606214843F9
:102DF00006462136F0B26A461C2120F031FF002839
:102E00000CD16846C07EFF2808D0FF206946C876EE
:102E10000127F0B26A461C2120F066FF6D1CEDB25E
:102E20002F48007E8542E0D3002F54D02C48007DEF
:102E300020F0F6FE4FE001293ED1287801283BD84A
:102E4000307348E0012937D12878092834D87073C5
:102E500041E0012930D12878C11F09292CD8B0734D
:102E600039E0012928D1717C28787074002932D189
:102E7000012830D10FF016F82DE001291CD1B17CCA
:102E80002878B074002903D1012801D10FF00AF885
:102E9000B07C02F0E2F91EE001290DD12878032868
:102EA0000AD8307417E0012906D12878307512E06D
:102EB0000120BDE7012901D018240CE02878B07565
:102EC00009E0192F00D367E70229FCD12988384689
:102ED00000F062FF0446204609B0F0BD3F420F00FB
:102EE00088050020243500201A040000FEB506469F
:102EF000002001900290304614F0EAFB040017D045
:102F0000144FB879022813D0607901AAA11DFFF7E8
:102F1000C7FD0546387E85420BD228460EF0A2FF3B
:102F20000246012000900823294630460EF058FE44
:102F3000FEBDB879002807D00128F9D161790022B7
:102F400030460EF087FDFEBD0521304600F066FFDD
:102F5000FEBD000088050020F7B516491525164E60
:102F6000174688420FD1002409E03A4620460199CD
:102F70000EF0E4FF002800D00025641CE4B2307E8F
:102F80008442F2D313E014F0A3FB00280ED043795F
:102F9000811D00221846FFF783FD317E884206D24C
:102FA0003A4601990EF0CAFF002500E01425284694
:102FB000FEBD0000FFFF00008805002001490860F9
:102FC00070470000DC05002070B50C460146032068
:102FD00000020A1A00252548130007F00DFE130B06
:102FE0000D10171A1E2125292B2D3133393B3D3D5C
:102FF00035373D00407811E010221D4902E01C49A0
:1030000010221031204620F0F5FB2DE040692060B1
:103010002AE0164906221E31F4E7C078207023E02A
:10302000124982782431EDE7114902791F39E9E725
:10303000407AF3E7807AF1E70C4906221831E1E79C
:10304000C07AEBE7007BE9E7C0890AE0008A08E084
:10305000007AE3E74079E1E7192904D2084600F055
:103060003DFC208000E00225284670BDE0050020E0
:1030700083350020F8B5164CFF20207000256570C0
:103080000320A0700126E670062765611920E781FC
:10309000C001208220461F222946243020F0A2FCB5
:1030A00020460221243001704670877025711F224E
:1030B0000021084820F096FC204606220021183006
:1030C00020F090FC6571A571FF20E071F8BD000053
:1030D000E005002064350020FFB583B01C4615468E
:1030E0000E460C9F039814F0F3FA002817D0C189FC
:1030F000B14207D3A94205D8018AA14202D1408A30
:10310000B8420ED06846068045808480C7806946F4
:103110000D9A039802F0CEFB002007B0F0BD1420FA
:10312000FBE71820F9E7000010B52548007F80076D
:1031300044D0244C2078FF2840D1234807F084FB5A
:103140002070FF283AD0214900240C602049214AF0
:103150000C700421117000F0C7FD102200211E48E0
:1031600020F040FC102200211C4820F03BFC1C48B1
:103170001E4904601B48184A04701B48047007204D
:1031800008701B4810210470022020F069FD134ACA
:103190001021032020F064FD10220F49154820F073
:1031A00029FB144810220D49103020F023FB042184
:1031B0000B4A084620F054FD002010BD182010BD19
:1031C000A4330020E005002059320000D80500207B
:1031D000E8050020E105002083350020933500201C
:1031E000F4050020E9050020EA050020EB05002099
:1031F000EC0500204435002010B504F09FFD104878
:1032000007F022FB02F096FB0E4807F01DFB00F0D2
:1032100071FB0D4807F018FB01F0B4FA0B4807F0FA
:1032200013FB07F015F80A4807F00EFBFFF784F9C7
:10323000084807F009FB00F0C9FEFFF775FF10BD55
:10324000795A0000053C00009148000061A300008D
:10325000F52700004D410000FEB54A4C0D4608041C
:1032600048D5207820F002FC040040D04648007881
:10327000002808D02078454ED02808D0A22802D0B7
:10328000912821D014E0204610F036F82CE0A078E8
:1032900000280DD0052807D0082809D006280BD013
:1032A0000728F0D1A0881BE0608919E0007B04E0CA
:1032B000204610F021F802E0E0790828E3D1214609
:1032C000307820F00BFC12E060780E28F0D1A08856
:1032D0002F498842ECD1A0688178427808021043D7
:1032E00014F0F6F90028E1D1204620F097FB0120E8
:1032F000C00345E068040BD50421264A084620F0A7
:10330000F3FC2548007820F08BFC0120800337E097
:10331000E80736D021480078002830D014F00EFBA2
:103320001F49097F8907890F884203D30320694613
:1033300008700CE01B486946007808701A4806229D
:103340000078487000A81949023020F053FA184854
:10335000694600780872174800784872207800F0B3
:10336000E5FA00280BD014490620087013490968B3
:10337000002904D00A68002A01D0002190470120CA
:103380006840FEBDE0050020E6050020E7050020BE
:1033900005140000F40500209C050020E305002032
:1033A000A4330020E9050020EA050020F8050020EC
:1033B000EB050020EC050020E8050020D8050020E2
:1033C0007CB514460D4601F0DDFA002D02D02846EA
:1033D000FFF700FA0C480078002801D011207CBDCE
:1033E000002C01D0094804600A48009008490B48A5
:1033F000019102780A48084B01780A48007800F0E9
:10340000EFF900207CBD0000E8050020D805002071
:10341000F40500209335002083350020E5050020C9
:10342000E1050020E005002010B501F057FF10BDB8
:10343000F8B50C465E491646421819210025C90107
:103440005C4F130007F0D8FB120A1017A81C3E525D
:103450006970778188A8A3A8A88F98A8102C73D129
:103460001022314654486CE0102C6DD15248102285
:103470003146103065E0042C66D13068786190E008
:10348000012C61D1F97830784A4AF8701278002915
:103490000AD0002807D1387A022801D0052802D1A5
:1034A000104600F0F1F97CE000287AD0387A012843
:1034B00003D0032801D0042873D10121104620F045
:1034C0005FFB6EE01F2C60D83A481F220021243099
:1034D00020F088FA374822463146243020F08AF915
:1034E000344BBC7024332246012112E01F2C4CD8EF
:1034F00031481F2200211F3820F074FA2E4822463E
:1035000031461F3820F076F92B4B3C711F3B224689
:103510000021387800F0D6FC48E0012C35D1307815
:10352000042832D878723CE0012C2ED13078032860
:103530002BD8B87235E0062C27D11E48062231461A
:10354000183020F057F92CE01FE0012C1DD1307805
:1035500007281AD8F87224E0012C16D130780328F5
:1035600013D838731DE03088022C0ED106280CD3F6
:1035700088420AD8F88114E03088022C05D1062848
:1035800003D3884201D838820BE0182509E0012CCA
:10359000FBD13078787104E0192801D2022C02D0D6
:1035A00002252846F8BD318800F0F6FB0546F8E70D
:1035B000FFFCFFFFE00500208335002010B5044626
:1035C00014F086F8002805D000781322214600F078
:1035D00035FC10BD122010BDF8B50E46070048D0CE
:1035E000388814F075F8050041D0234AA96BD078CB
:1035F000022806D0012804D0287B082803D1002EF9
:1036000001D0122436E0002901D0112432E01B49F8
:103610002C2020F00BF90446A863200025D02C2292
:10362000002120F0DFF9388860801C22391D201D20
:1036300020F0E0F8022020700F483A880178287BBB
:10364000082810D00020231D06F037FF0446002E66
:1036500003D0314628461DF0A5FF002C0AD028468D
:103660000EF0D4FE06E00120EDE7132402E014245E
:1036700000E002242046F8BD1A070020144700008D
:10368000FFB51F4881B0C0781E4617460D46022878
:1036900018D0012816D0002F30D0019814F018F857
:1036A000040029D0E06A002801D020F015F91C217F
:1036B000384620F0ABF8E062011E1BD0207B0828C2
:1036C00003D00DE0122005B0F0BD002E08D0887E9A
:1036D00000900B4612330A8A01981EF0ABFA00E004
:1036E00000202179002D01D0062200E004221143A0
:1036F0002171E8E71320E6E71420E4E70220E2E77F
:103700001A07002010B50548C078000701D5044805
:1037100000E000200FF0F8FC10BD00001A070020A8
:103720003807002070B51A4C0546012120780EF0AC
:1037300093FE1848C1780A20014223D0257016480C
:103740000FF0DCFC606800281AD1207800281DD01A
:103750000001072120F06AF86060002810D021786D
:103760000A01002120F03EF90020FF21626803E0F9
:103770000301401CD154C0B223789842F8D305E02D
:10378000132070BD002020700FF0B8FC002070BD29
:103790002C0700201A0700200C39002009490020BE
:1037A000087048608860094807490160084941601D
:1037B00008498160034808490C30016007494160AD
:1037C000704700002C070020592301000C3900200D
:1037D0007D2C0100D92B010039220100712201004A
:1037E000F8B50224079F1D461646042919D004DCAB
:1037F000012907D0022945D10BE008291BD00C294B
:1038000040D129E000F040F904003BD100F094F9E8
:1038100038E000F039F9040034D13046FFF782FF78
:1038200030E000F031F904002CD13A4628460699E0
:1038300000F064FA20E000F027F9040022D13A46B3
:103840002846069900F05AFA3046FFF76BFFFFF75B
:1038500059FF06F00FFD15E000F016F9040011D134
:103860003A462846069900F049FA3046FFF75AFFD3
:10387000FFF748FF06F0FEFC00F05EF900F044F9A7
:1038800006F0D2FD2046F8BD70B5104C2168002925
:1038900019D00978814214D10D4D0221287820F0E9
:1038A0001FFB0C48002646802878042120F018FBD6
:1038B00009484671216803204870002001F0D5FCBA
:1038C00070BD032070BD122070BD00003C040020BC
:1038D0001A0700204007002050340020192801D387
:1038E0000248704702494000085A7047FFFF000035
:1038F0007034002010B5044600F08AF800F062F938
:10390000FFF74CFFFFF7B6FB0649FF23CB70002201
:103910008A700A710448052143700470204602F041
:10392000F3F810BD503400201A070020F3B5304ED4
:103930000024306883B0002802D0112005B0F0BD0B
:103940002C4D0521E878084201D11220F6E72A49DA
:103950004968002905D00978002902D0C00702D0A3
:1039600008E01020EAE700F04FF8074613F0C8FF20
:10397000874207D304980078022803D0032801D097
:10398000122432E01D490C201FF050FF3060002847
:103990002AD003990170002141700A22801C0499E9
:1039A0001FF028FF164EB078032806D00FF066FEF1
:1039B00004001AD00EF01EFD17E00EF0A3FD6946BC
:1039C00006F0D3FB68460FF089F801203071112012
:1039D000FFF784FF0006000E707106D02878094AB0
:1039E000042120F00DFA00E013242046A6E7000091
:1039F0003C0400201A070020400700201747000061
:103A0000503400200077010010B513F063FF10BDA3
:103A10001A4800210170417041608160C1600161FC
:103A2000416181611648B4220180428001229203E3
:103A30008280A022C2800281102242818281502392
:103A4000C381038242828282C2827D2302831B0160
:103A500043838183C18301840F234384094B83847F
:103A60000723C3840285012242857E22D2438285B8
:103A7000C1850186491E4186704700002804002048
:103A80007034002080BB000070B50E460546202231
:103A9000002109481FF0A6FF074C0848E570C670D2
:103AA00001F012FC002803D000202070122070BD0D
:103AB0000121217070BD0000503400201A07002041
:103AC0007FB504460D46084613F002FE002817D0C5
:103AD0000C48844212D21022002168461FF082FF57
:103AE00069460C70200A4870200C8870200EC8703F
:103AF0002946684606F0F2FB04B070BD0220FBE7E1
:103B00001220F9E740420F0010B50848C07840077E
:103B100007D507480FF004FB00200649C043C880C2
:103B200010BD00200FF0FCFA10BD00001A070020A5
:103B30005007002050340020F8B51E4C0025606866
:103B4000002802D01FF0C8FE6560E068002802D09F
:103B50001FF0C2FEE560184E0527F078384224D0E9
:103B600016480FF0D7FAF07838421CD014492020BC
:103B70001FF05CFE6060002815D0202200211FF09D
:103B800031FF0F492020491E1FF050FEE060002841
:103B900005D0202200211FF025FF0020F8BD60681D
:103BA0001FF09AFE65601320F8BD00200FF0B2FAF6
:103BB000F3E70000400700201A0700201839002012
:103BC000164700000948FF21017000214180416033
:103BD0008160C160074806490160074941600749A3
:103BE0008160024906481031086070474007002094
:103BF0007927010018390020092801007D360100CD
:103C0000E9260100FEB5354F354D0C4608041FD599
:103C100038781FF02BFF061E17D03078A22806D068
:103C20007D7830460FF070F900280AD102E02C4868
:103C3000C578F6E7FF2D04D0314628461FF04EFF29
:103C4000E6E730461FF0EAFEE2E70120C00341E06C
:103C5000E0070126234900280AD04868002804D03C
:103C60004168002901D00020884720467040FEBDF1
:103C7000A00709D5C868002804D04168002901D0F0
:103C800001208847022025E0600725D568790028B3
:103C90001FD0401E0006000E68711AD14869002826
:103CA00008D02E71C868002804D04168002901D0CE
:103CB000012088476946E86806F057FA68460EF022
:103CC0000DFF1120FFF70AFE68713878042120F0FB
:103CD00007F904206040FEBD0020FEBD1A07002049
:103CE000503400202804002001494870704700002B
:103CF0001A07002010B506F071FB10BD70B5154C09
:103D00000E46626121610546E0601022FF213046C7
:103D10001FF053FD012806D01022002130461FF06D
:103D20004CFD012803D1102120691DF02DFA10222D
:103D3000FF2128461FF041FD012806D01022002156
:103D400028461FF03AFD012803D11021E0681DF03C
:103D50001BFA70BD503400207FB50C46054613F0A9
:103D6000B7FC002814D0826B007B042802D01220FC
:103D700004B070BD002A00D0947D684621461DF035
:103D800095FF044B6A46022128461DF011FFEFE71C
:103D90001420EDE79F21020070B50C460546192856
:103DA00002D20848844201D1022070BD112D04D1F5
:103DB0003C20604380B201F06BFA034968000C526A
:103DC000002070BDFFFF00007034002070B50E466B
:103DD00011491546CB78022B17D0012B15D0002D99
:103DE00017D013F075FC040011D0002E03D02079F9
:103DF00002210843207120461022294618301FF066
:103E0000F9FC2869A062002070BD122070BD14204A
:103E100070BD022070BD00001A07002038B50C46A6
:103E2000054613F055FC002806D068460470694624
:103E300028461DF0ABFE38BD142038BDF7B5054649
:103E40001E4812261E4F0C46814208D1B868002831
:103E500032D00268002A2FD028469047FEBD17486E
:103E6000401C844219D1B868002806D00268002A94
:103E700003D028469047002806D0284602990DF026
:103E8000D1F8060005D017E07D7002983870002048
:103E9000FEBD7D70029838700EE0084613F018FCE5
:103EA000002809D00078A84201D00320FEBD20469A
:103EB000029901F04EF9FEBD3046FEBDFEFF000046
:103EC0002804002070B51446024620481E46C078DB
:103ED0000523184224D01E4D00296B68E86802D0E3
:103EE000002B1DD001E000281AD0202C2CD2002C51
:103EF00001D0002E28D02A70002913D01F220021C3
:103F0000581C1FF06FFD686822463146401C1FF0A8
:103F100071FC696820460C70491C01F0A2F970BD63
:103F2000122070BD1F220021401C1FF05BFDE868BD
:103F300022463146401C1FF05DFCE96820460C70AB
:103F4000491C01F0ADF970BD022070BD1A070020B8
:103F50004007002010B5094A014613790020002BC4
:103F60000BD101231371C90707D0134664331846D8
:103F700010220421403800F02FFA10BD1005002057
:103F80007CB50D461049044608690022002805D07A
:103F90008388A34204D002460068F7E701207CBD75
:103FA000002A02D00168116001E002680A611FF076
:103FB00093FC6946204600F0E3FA0028EFD1002D7B
:103FC000EDD0019929607CBD10050020F8B50446AC
:103FD00000F096FE00F046F8114F134EFC701149A8
:103FE000304600F027F81149C0201FF01FFC0022C6
:103FF0001346B86194010653002124180C254D4343
:104000006519AB80491CEB600529F7DB521C032ABC
:10401000F0DBF8787870064813F0ACFCF8BD0000CF
:1040200010050020E6340020FFFF000001470000DB
:10403000553D010070B50A4C0025A04208D1002072
:1040400082008C525218401C95700328F8DB70BD1A
:104050000FF051FE0028FAD00480857070BD00007A
:10406000FFFF0000F0B51E4920200870FF204870B7
:104070008870C8700126CE8000200881C860086161
:104080000B4602241C3348611C70164A5A600A46CB
:10409000087124321470144D556016725081D3602B
:1040A0001474124F15466F612E766883E9612021E2
:1040B000545413460E4D59185D6208725885D862E3
:1040C000302154540B4C0323511854630B72508706
:1040D000094ACA600249094A643105C10860F0BD55
:1040E000100500201E530200205302002653020038
:1040F0003E5302002C530200E63400202D480100FC
:10410000F8B50E460746069900240798002902D004
:104110000B242046F8BD022B01D00D24F9E751787D
:1041200012780D0215432946814301D08024F0E71F
:104130003846F16800F042F9A842EAD02A463846EB
:10414000F16800F0F1F90446E3E7000070B50D46B0
:1041500008041AD50E48C0781FF088FC04000FD060
:104160002078B02809D120460FF08CFF002804D019
:1041700020462179083000F0A5FD20461FF04EFCB6
:1041800001212846C903484070BD002070BD0000D1
:1041900010050020FFB585B000200F9F0090087A21
:1041A0000E9D1C460E46C0060BD507980FF09CFDD1
:1041B00003007DD00A2231460598984700900028D8
:1041C00016D13078022815D007980FF0B3FD0028DB
:1041D000EFD0006884460028EBD011991098224651
:1041E0000097029101902B46314664460598A047FE
:1041F00009B0F0BD706829224178007809020143B6
:104200001202881A91427CD00BDC6948081A13D03C
:10421000012811D0022817D00328D5D1002F53D060
:104220009BE001287ED002286DD0032877D0042897
:10423000CAD1002F68D090E0002F6FD1F0680178CC
:1042400029800278416884E0002F67D1F0684178C6
:1042500000780F02074304202880F06804A9007842
:104260002070F06840786070384600F0AFF90600C2
:1042700022D06846028A03AB4E493046F76800F008
:1042800003FA00280AD1337802214B487268FDF7FF
:10429000AFF9002802D1474869468881387802285A
:1042A0000CD10222201D79681FF0A4FA288800E0B2
:1042B0007CE0801C288001E0684687816846808910
:1042C000A070000AE0706FE001202880F0680021F3
:1042D000007820707089401C80B200F077F90028C7
:1042E00013D0298802788918891C2980817A617005
:1042F0004189090AA17002784168E01C1FF07AFA2E
:1043000052E00CE00EE026E03BE028880422001D8D
:1043100028800021601C1FF065FB45E01DE0002F98
:1043200027D01AE0F0681FF0EEFD80B2B84201D24B
:1043300007205DE7874201D1002006E01099C919E6
:10434000814201D3C01B00E01098288082B2F0683F
:10435000C1192046D2E7002F01D00B2048E7F168B1
:10436000059800F02BF8022129802070000A607067
:104370001AE002202880F06800782070F068407809
:10438000F5E70721F0682980017821704178617094
:104390008178A1704188090AE170017921718179E0
:1043A0006171C088000AA071009821E70E201FE704
:1043B00000280000FFFF00002253020010B50FF09C
:1043C0009AFC002800D0807810BD00000149887058
:1043D00070470000100500207CB51E4605001CD06B
:1043E000684601808270019500F0D2FA04001FD166
:1043F000002E1DD0688900280FD00E490C201FF018
:1044000015FA002813D000210160698981800A4AC9
:1044100086601169002903D107E002207CBD1146A6
:104420000A68002AFBD1086002E0106100E0132452
:1044300020467CBD0547000010050020F8B50C4C57
:104440000746A07815460E46FF280FD00A201FF019
:10445000D1FA01000AD0B12008704F8000204870C6
:104460000871CE800D81A0781FF038FBF8BD0000E8
:104470001005002070B50C4605460649FFF79EFF63
:10448000800704D52146284600F0DEFA70BD0120E1
:1044900070BD0000E63400200EB56B461A81FE2385
:1044A000002201930092022302AA00F001F80EBD3F
:1044B000FFB583B0174602A90D9E049800F086F858
:1044C00004002AD0684600890FF034FC002822D06E
:1044D0004568002D1FD00C98019600903A46214661
:1044E000069B0398A847050018D1FE2E16D0207809
:1044F000022813D160684178027808020949104304
:1045000088420BD17878397802020A4304990398DB
:10451000FFF794FF02E00E2500E00125284607B0D2
:10452000F0BD00000229000070B514460E46054695
:104530000FF0E1FB002806D1314605480FF0DBFB08
:10454000002803D005808470002070BD112070BD4C
:10455000FFFF000010B50178B0290BD14178002988
:1045600008D10179122906D01B2903D140880121E5
:1045700001F0D4F910BD417C0129F7D010BD000035
:1045800070B5114A0B46014654690020002C06D034
:10459000A5686D898D4204D020462468F6E7012085
:1045A00070BD002802D02168016001E020685061E0
:1045B000002B04D00822211D18461FF01BF92046AD
:1045C0001FF08AF9002070BD10050020F0B5104AD8
:1045D000536919E09C686589A84214D39E887219B2
:1045E000824210D900220CE017013F197F898742CF
:1045F00005D1002900D00D8010010019F0BD521C1A
:1046000092B2B242F0D31B68002BE3D10020F0BD80
:1046100010050020FFB51B4883B0002345692DE03D
:10462000AE68002470890190A888009016E02101EE
:1046300088194289039FBA420ED3049FBA420BD80D
:10464000069A002A0FD01346715C4068059AFCF761
:10465000CFFF002807D10023641CA4B20098844235
:10466000E5D3002B09D00C98002802D00C990198B2
:1046700008802001801907B0F0BD2D68002DCFD132
:104680000020F8E710050020FEB5174600256A4611
:104690009580044640891D4A1E46904208D001AAD2
:1046A0000092401C237880B26268FFF7B3FF054692
:1046B0002378022116486268FCF79AFF002807D188
:1046C0002378022113486268FCF792FF002801D08A
:1046D00060890EE0237802210F486268FCF788FFAA
:1046E00000280DD0002D03D068468088B84203D042
:1046F000384610F0BFF904E06889401E80B200E03F
:104700006089002E00D030802846FEBDFFFF0000EB
:10471000205302002253020026530200FFB583B04B
:104720000E461D46174601A903980FF0FDF8040038
:1047300022D1002F0FD0694608803088FFF746FF4E
:104740006946088800F0BCF901460122039812F07E
:1047500093FF002811D131460398FCF7EFFF0400C6
:104760000AD1FF2D08D0019B1E22194604489B1C2C
:1047700010F08BF90198C570204607B0F0BD00001D
:10478000DD48010010B50446FDF704F80749FF2095
:10479000087048700020486088608C7004212046B2
:1047A00001F0B2F900F004F810BD0000040500208B
:1047B00070B500200D4D0E4B0446FF2206214143EB
:1047C0005D52C918CA708A70401C0C710328F5DB51
:1047D0000120C043188007480FF03CFA0648FDF757
:1047E0005FF9064813F0C6F8002070BDFFFF000017
:1047F000D434002025490100074901005D4801002B
:104800007CB516460C460546FCF7F2FC11490978C2
:10481000884201D316207CBD01A928460FF084F8F8
:104820001728F8D0002E10D0002069460880208874
:10483000FFF7CCFE6946088800F042F901460122E4
:10484000284612F019FF0028E5D121462846FCF73A
:104850008BFF7CBD55070020F8B51C4615460E465B
:10486000074612F035FF00280DD0017B07480829C4
:104870002B4632463946009403D000780FF06AF890
:10488000F8BD4078FAE70120F8BD000004050020DB
:10489000F0B587B00F46080470D5394EB0781FF0D8
:1048A000E5F8040064D02078A0285ED10120694694
:1048B00008732046FCF7C0FF050041D168468078A8
:1048C00000280BD0142809D0152807D01A2805D0A5
:1048D0001C2803D001461F3920290BD8B1680029B4
:1048E0002ED06946497800292AD1694608740620E5
:1048F00008751FE0C0070AD07368002B05D06088D8
:1049000003AA6946984705461AE0062518E0B368E9
:10491000002B06D0608803AA69469847050001D19C
:104920000EE0062568464078002809D16946887857
:1049300008740D7500204882608804A9FCF794FE75
:104940006846007B002804D0A068002801D01EF033
:10495000C3FF002D05D168468078122805D01B289A
:1049600003D16088012100F0D9FF20461FF056F8DE
:104970000120C003784007B0F0BDFFE70020FAE750
:10498000040500200149087070470000040500205C
:1049900070B504464568008800284AD02B7802216B
:1049A00025486A68FCF724FE002807D12B780221ED
:1049B00022486A68FCF71CFE00283AD0A078C01F85
:1049C000092834D81E4EF08800282ED021880818D7
:1049D00001210904884228D81A490C201EF026FF1C
:1049E000050020D0002207E011016368F0880A3139
:1049F0005852401CF080521C20889042F4DC002069
:104A0000286008222146281D1EF0F4FE7069002847
:104A100001D105E0084601680029FBD1056000E0EE
:104A20007561002070BD132070BD012070BD18207D
:104A300070BD022070BD000020530200225302000E
:104A40001005002002470000FEB50E46074600256F
:104A50000223194A194901200095FFF7DBFD0400E4
:104A600027D023200090002304221D21384600F087
:104A7000E3F8029000281AD06089694688800420F3
:104A8000C880029901200870029833464570029947
:104A9000FF20887002990022C87001A93846FFF7EC
:104AA0003DFE040006D002981EF016FF02E0152419
:104AB00000E001242046FEBD3E530200FFFF00003F
:104AC00000B50EF0EDFE002801D0807800BD10206A
:104AD00000BD00B50EF0E4FE002800D0008800BD47
:104AE0007CB50D46044612F0F3FD29462046FCF73E
:104AF000DDFF002812D168468580204612F0E8FDCF
:104B000000280BD0027B01A90748082A009106D093
:104B10007F230022214600780EF01CFF7CBD7F23FE
:104B2000002221464078F7E70405002010B504462E
:104B30000B4688060DD51046FFF7C2FF014601223D
:104B4000204612F099FD052801D00F2800D1082039
:104B500010BD882003420CD01046FFF7B1FF01467C
:104B6000180701D5012200E00022204612F084FD42
:104B700010BD880701D5002010BD032010BD10B561
:104B80000346C8060DD51046FFF79AFF01460122DD
:104B9000184612F071FD052801D00F2800D1082019
:104BA00010BD480705D51046FFF78AFF01460122D0
:104BB00006E0480608D51046FFF782FF01460022AE
:104BC000184612F059FD10BDC80701D0002010BDD5
:104BD000022010BD70B51D4603460C4688060DD553
:104BE0001046FFF76DFF01460122184612F044FD02
:104BF000052801D00F2800D1082070BD882004426C
:104C000014D01046FFF75CFF0146200701D50122B2
:104C100000E00022184612F02FFD002808D0697A23
:104C20000029EAD0297A002902D170BD880701D570
:104C3000002070BD032070BDF8B5069F1E461546C6
:104C4000162928D00CDC09291FD004DC05291CD02A
:104C5000062911D11BE0112917D012290CD118E017
:104C60001D2916D004DC172915D01B2904D110E00A
:104C700052290ED0D2290CD00124114A95420CD1D0
:104C8000FCF74CFD001B85B20BE00224F5E707247E
:104C9000F3E70324F1E70524EFE7D22901D10C352E
:104CA000ADB2601980B2394600F08AFF002805D005
:104CB000002E00D0358061421EF04AFDF8BD000094
:104CC000FFFF000010B50EF0FBFD002801D01EF024
:104CD00003FE10BD10B5094A014653790020002B90
:104CE0000BD101235371C90707D01346A4331846CB
:104CF000102209219038FFF76FFB10BD54040020EB
:104D0000F0B500213D4C0222A1603D4D22700846C5
:104D10002954401C80B21628FAD36270374BE180C8
:104D2000A27050200C331880A02058801846818033
:104D30007D20C000D880E27001233048237161716A
:104D4000143002702F4C4460037241812E4CC460B9
:104D5000064602742D4F77613446337671831034E2
:104D6000143EE660202402550646294F3419776226
:104D700023727185F562302402550546234E6E6319
:104D80002C1923726987133DE560402402550546BE
:104D9000204E6E642C19237261810E3DE560502413
:104DA00002550546194E2C196E6523726181123D1C
:104DB000E560602402550546174E6E662C19237275
:104DC0006181083DE5607024025505460F4E2C199F
:104DD0006E6723726181113DE560802402550F4AA0
:104DE00080304260037241816A1CC2600C48A0326C
:104DF00010600C48506010468160F0BD54040020E3
:104E0000A434002020530200B452020026530200B2
:104E100034530200365302003C5302004653020052
:104E2000B94F01000151010070B51646214A0D46E7
:104E3000114600241431030005F0DEFE0A06133883
:104E40003818382128383138152D2AD81622002153
:104E500019481EF0C7FD2A46314617481EF0CAFC05
:104E600025E0022D1DD13088D08020E0082D18D1FA
:104E70001048082231460C30FBF78BFF17E0012D5C
:104E80000FD1CA690B4930783C3105E0012D08D1BA
:104E9000CA6B084930785C3110F0FAF807E0012D50
:104EA00001D0182403E03078107100E0022420467D
:104EB00070BD000054040020A434002000B5124A44
:104EC0000B0005F099FE0504071016191F00516B21
:104ED00081430AE0516B81435163116B01431163BC
:104EE000116A81430DE0516B01435163116B8143A2
:104EF000F5E7516B814301E0516B01435163116A46
:104F00000143116200BD000080100040054A0021ED
:104F100013780370491CC9B2401C521C0629F7D3F0
:104F2000704700000806040010B50C480089C1B2A3
:104F30000B069A0F0A48022A05D0012A04D09A0FBC
:104F400006D07D20000210BDC906C90E054801E04B
:104F5000C906C90EFBF780FE10BD0000001000401E
:104F60000048E80100389C1C1148807C01280DD0C5
:104F700003280ED007280FD00F2810D01C2811D0DE
:104F8000222811D0322811D0002070471320C043AE
:104F900070470D20C04370470720C0437047022070
:104FA000C0437047012070470220704703207047BC
:104FB000A4330020F8B5094CE77E267E657EFBF71A
:104FC000BFFFA07E01210843A076A07EC007FCD1D0
:104FD000A08BE77626766576F8BD0000401000408D
:104FE00010B5084805F030FC074C207000F086F83A
:104FF00000F00EF862B6054A0121490320781EF040
:1050000011FF10BD7D500000F403002000EE0200EF
:105010000A480021017041600948026801218905A0
:105020008A43026002690A430261026810218A43CE
:10503000026002690A43026170470000EC0300202D
:10504000C01000400B4900204A68520200D40120E1
:105050004968C90601D40221084307490A789042E9
:1050600006D00870002803D04968002900D00847FE
:1050700070470000C0100040EC03002070B50C46E3
:1050800009040AD51EF0F2FC002801D01EF0C6FC6F
:1050900001212046C903484070BDE00701D001202E
:1050A0000AE0134DA00709D5FFF7CCFFA02202218B
:1050B00028781EF0B7FE0220604070BDA00405D520
:1050C000FCF782FF01260B4A760308E060040DD549
:1050D00009A005F069FD7D22D2010126B603314603
:1050E00028781EF09FFE2046704070BD002070BDE5
:1050F000F403002000EE02002A2000001CB50C483A
:1051000057210170A821017009492039CA7B072362
:105110001A43CA730021017000910B4601220191CC
:105120001146044804F082FF002005F0C1FC1CBDBC
:1051300040100040E4070000704710B500F0FEF892
:1051400010BD10B500F01AF910BD10B500F02EF921
:1051500010BD10B5FCF742F810BD10B500F03AF9DB
:1051600010BD10B500F04EF910BD10B500F064F997
:1051700010BD10B5FCF742F8002010BD10B5FCF7CB
:1051800057F810BD10B5FCF763F810BD10B5FCF76B
:105190006FF810BD10B5FCF77BF810BDFEB508AF79
:1051A00070CF6F4670C7FCF783F8FEBDF0B585B0D1
:1051B00084460AA8F1C804976F4671C7604600F09C
:1051C00051F905B0F0BD38B5049C009400F08AF99F
:1051D00038BD10B5FCF77CF810BD38B5049C0094C0
:1051E00000F09EF938BDFFB587B094468E4610A8F2
:1051F000F7C806976F4677C762467146079800F072
:10520000ADF90BB0F0BD10B500F002FA10BD10B54D
:10521000FCF76CF810BD10B5FCF77AF810BD10B5AE
:10522000FCF788F810BD10B5FCF794F810BD10B568
:1052300000F00CFA10BD10B5FCF79EF810BDFEB5DD
:1052400008AF70CF6F4670C7FCF7A8F8FEBD38B541
:10525000049C009400F018FA38BD10B5FCF7B8F8BB
:1052600010BD10B5FCF7C4F810BD10B5FCF7D0F8B0
:1052700010BDF0B585B00AACF0CC03976F4670C78F
:10528000FCF7D6F805B0F0BD10B5FCF7E7F810BD97
:1052900010B5FCF7F3F810BD10B5FCF7FFF810BD22
:1052A00010B5FCF70BF910BD70B5547815782202D3
:1052B0002A43FCF713F970BD10B5FCF719F910BDBE
:1052C00010B500F0FFF910BD10B5FCF715F910BDD1
:1052D00038B5049C009400F00DFA38BD10B5FCF709
:1052E0001DF910BD38B5049C009400F0B1FA38BD2A
:1052F00010B500F01BFA10BD10B5FCF725F910BD74
:1053000010B505280ED90C4CA0420BD2A14209D2EF
:10531000814207D3FF20F530824203D2092B01D905
:10532000A34201D3002010BD521C4A43D800824240
:10533000F8DA012010BD0000810C0000F8B5074626
:10534000084616460D460C301EF054FB040011D0E2
:10535000912020700E206070A5702046A7800C3030
:105360002A463146A0601EF045FA034821460078DF
:105370001EF0B4FBF8BD00001A07002070B505460A
:105380000C4606201EF036FB01000BD09120087061
:105390000F2048708D700120C87003488C80007801
:1053A0001EF09CFB70BD00001A07002010B50446DB
:1053B00003201EF01FFB010008D0912008701A2066
:1053C000487003488C7000781EF088FB10BD000008
:1053D0001A07002070B5064614460D4608201EF038
:1053E00009FB01000AD091200870052048708E70DA
:1053F0008D8003488C7100781EF070FB70BD00003A
:105400001A07002070B5064614460D4608201EF007
:10541000F1FA01000CD0922008703E20487008205C
:1054200088708D808E710348CC7180781EF056FB99
:1054300070BD00001A07002070B505460C46062016
:105440001EF0D8FA010009D0912008703020487071
:105450008D7003488C8000781EF040FB70BD00000A
:105460001A070020FFB5064681B017460D461620E4
:105470001EF0C0FA04002FD0912020703E206070F2
:105480000120A07030460026002808D03120E070AE
:1054900020460622002108301EF0A4FA06E0E6703D
:1054A0002046062208300A991EF0A4F9A580A771AB
:1054B0000498E0710B98E0810C9820820D9860822E
:1054C0000E9820750548214600781EF007FB082D30
:1054D00002D2034968000E5205B0F0BD1A07002041
:1054E00024390020F8B507461C4615460E460C2008
:1054F0001EF080FA01000FD0912008703E20487005
:1055000003208870CF708E80CD800C8106984881F2
:10551000024800781EF0E2FAF8BD00001A070020E9
:10552000F8B507461C4615460E460E201EF062FAD8
:1055300001000FD0912008703E204870072088702D
:105540008F80CE800D814C8106988881024800783A
:105550001EF0C4FAF8BD00001A070020FFB5064689
:1055600081B017460D4622201EF044FA040048D0B0
:10557000912020703E2060700A20A07030460026E6
:10558000002814D03120E070204606220021083087
:105590001EF028FA2046062200210E301EF022FAC4
:1055A00020460622002114301EF01CFA12E0E6709C
:1055B0002046062208300A991EF01CF920460622D1
:1055C0000E300B991EF016F92046062214300C9965
:1055D0001EF010F9A580A7710498E0710D98608302
:1055E0000E98A0830F98E083202110980855064854
:1055F000214600781EF072FA082D02D20349680095
:105600000E5205B0F0BD00001A070020243900201A
:10561000F8B5064615460F4610201EF0EBF90400BB
:1056200011D0922020703E2060700520A070A680CE
:1056300008223946A01D1EF0DDF80348E581807878
:1056400021461EF04BFAF8BD1A070020F8B50646B1
:1056500017460D460E201EF0CDF9040011D0922001
:1056600020703E2060700420A070E670A5800822A3
:105670003946A01D1EF0BEF80248214600781EF0F3
:105680002DFAF8BD1A070020F8B507461C46154646
:105690000E460E201EF0AEF901000FD091200870CA
:1056A0003E204870062088708F80CE800D814C810E
:1056B00006988881024800781EF010FAF8BD0000B4
:1056C0001A07002070B514460D4608201EF092F906
:1056D00001000BD0902008701320487001208870C2
:1056E0008D800348CC8000781EF0F8F970BD000072
:1056F0005C070020F8B507461C4615460E460C20F0
:105700001EF078F901000DD0912008700C2048702F
:105710008F708E808D710C810698488102480078C8
:105720001EF0DCF9F8BD00001A070020FFB581B0BB
:10573000444E02990025F068174602292CD0B18802
:1057400000297CD07288CB19121D934271D8401861
:105750003A4604991EF04EF8B088C01980B2B08065
:105760007188091D88425CD10C201EF043F90100AC
:105770005ED090200870FF20487001984880022079
:105780000871B088C880F06888602F4800781EF0E3
:10579000A5F9B580357044E004994A780B78110278
:1057A00019433A1F7180914222D10C201EF022F938
:1057B00004003BD090202070FF2060700198608032
:1057C00002982071E780214938461EF02FF8A0602A
:1057D000002809D03A4604991EF00CF81A482146D0
:1057E00000781EF07BF91CE020461EF075F81DE0E5
:1057F00091421BDD3178002903D0002801D01EF032
:105800006BF870881149001D80B21EF00FF8F0602F
:10581000002814D03A4604991DF0ECFFB78001200F
:105820003070002005B0F0BD09E002E0B58006E070
:10583000F068002801D01EF04FF8B58035700120C7
:10584000F0E70000140700205C0700200180000042
:10585000FFB583B01C4615460E460C9F039811F009
:1058600037FF002809D06846068045808480C780BD
:10587000FF226946039800F01DF807B0F0BD000054
:1058800010B50449642248600348022100781EF0E4
:10589000C9FA10BDEC030020F403002008B513463C
:1058A000034A00920A46012111F0AEFC08BD000037
:1058B000F16401003EB500230192042402930A46DC
:1058C0000094024B122111F0ABFD3EBD9765010023
:1058D00008B51346034A00920A46132111F094FCBE
:1058E00008BD0000C36501001FB56946C8810022DC
:1058F000FF2103206C4607C4034B03AA062103487B
:1059000011F08EFD04B010BD67650100FFFF0000BF
:1059100001484089704700005407002013B504482F
:105920004079012803D101AA6946FFF722FC1CBD7A
:105930005407002070B50025254C30222570657075
:10594000E57025716571A571E5716581256120722C
:10595000294620481EF046F811F05EFF26460C3618
:10596000307800280ED000011B491DF05FFF6061F8
:10597000002807D0717821713178E1700A01002187
:105980001EF030F81548217900784018C0B212494D
:1059900020700001491C1DF049FF2061002811D032
:1059A00021780A0100211EF01DF80020FF2105E0EA
:1059B00023690201D218401C5172C0B22278904271
:1059C000F6D301E025702571054811F0D3FF70BDB5
:1059D0005407002034390020044C000080050020CA
:1059E000356901000A2A01D0012070474A780B78F6
:1059F00012021A430280CA788B7812021A4342803C
:105A00004A790B7912021A438280CA798B79120281
:105A10001A43C2804A7A0B7A11021943018100208D
:105A20007047042A01D0012070474A780B7812028F
:105A30001A430280CA788B781102194341800020F2
:105A40007047082A01D0012070474A780B7812026B
:105A50001A430280CA788B7812021A4342804A792C
:105A60000B7912021A438280CA798B791102194389
:105A7000C180002070470000F8B5214E0D46080493
:105A80002ED5307A1DF0F2FF04000BD0207890283C
:105A900005D16078132808D0204611F0B3FA2046CB
:105AA0001DF0BCFF0120C00328E016490020097C3E
:105AB000A7780BE04200121992797378D218D2B20B
:105AC0007270914200D27170401CC0B28742F1D80E
:105AD00070780028E3D00121307A1EF051F8DEE71B
:105AE000E8070CD011F07CFC002806D07078002864
:105AF00003D00121307A1EF043F801206840F8BD40
:105B000054070020A4330020042907D0052905D01C
:105B1000062903D0072901D0022070470C22044B2C
:105B20004A43D218403A1182907400207047000016
:105B30003439002070B50C4609880546042905D083
:105B4000052903D0062901D0072929D1606800283A
:105B500026D00121284611F041FF00281ED02846FA
:105B600011F08CFE0F498D420BD0002809D16188BD
:105B7000002906D9208806280ED10B4800888142CA
:105B80000AD20A480078002804D02146284610F09E
:105B90007BFD70BD162070BD1B2070BD142070BD34
:105BA000022070BDFEFF00005E07002055070020A8
:105BB000024A001F508151709170704754070020B5
:105BC00010B5801D80B205491DF030FE002803D0BD
:105BD0000521C9431DF0BCFD10BD0000034C0000B1
:105BE0000B480A4900688A884261CA88C2618B886A
:105BF0004362CA88C2624363C2634364C264098960
:105C000081651F2141600349C1607047D83300207E
:105C10001C0400201F03000010B5FCF79DF810BD08
:105C200070B515461C46214A0B46916B90B0002971
:105C300002D0097B002934D1116C002902D0C97926
:105C400000292ED1916C002902D0C979002928D1D0
:105C5000164940318E8E16498988890A8E4202D3B0
:105C6000072010B070BD11496031097F490618D571
:105C70006946C8700622194601A81DF0BBFD0AA896
:105C80001022294602301DF0B5FD06A8102221463B
:105C900002301DF0AFFD684601F0AAFB801B012811
:105CA00001D00C20DDE70020DBE70000343B0020C2
:105CB000A43300201CB51B4B9A6B002A05D0147B23
:105CC000002C02D0D27A002A11D11A6C002A05D0F9
:105CD000D479002C02D0127BD20708D19A6C002A0A
:105CE00007D0D379002B04D0D27B002A01D0122018
:105CF0001CBD0C4A0C4B40329B88928D9B0A9A42E9
:105D00000BD26A46507000A8062202301DF072FDC8
:105D1000684602F0C5F9012801D007201CBD00200B
:105D20001CBD0000343B0020A4330020F0B51F4C04
:105D300089B00D4606462146002006F082FA00286A
:105D4000F9D0A042F7D00021044601208005274663
:105D500007430091019102910391049105910691ED
:105D600007916A46D773390A9173390C51733046DB
:105D700004AA694600F066FC6A46907F517F0002E3
:105D800009044018D17F40182870010A6970000C7E
:105D9000A8700121200A89030843EF702871200CA4
:105DA00040210843687109B0F0BD0000FFFF3F00CB
:105DB000F8B544490C46C86A80342073020A6273FD
:105DC000000CA073886AE073010A2174000C6074EF
:105DD0003D49002006F026FA00270646791E38467F
:105DE00006F02FFA384332467D1E0AE03146002085
:105DF00006F018FA06462946002006F022FA384333
:105E000032469104304E890C0143EFD0D343C14355
:105E100033401943EAD0FF2301461B021940207684
:105E2000090A617619020140090CA176000EE0769C
:105E3000100AC0212277084360770120214D00908D
:105E4000A0352149002006F0EDF900270646791E0D
:105E5000384606F0F6F90146394330460A46024311
:105E6000EFD0194BCA4343401A43EAD0FF230A46F6
:105E70001B021A40130A0A46FF273F043A40CEB2DB
:105E8000A677C7B2E377120C2A70090E69708004F6
:105E9000AF70800EBC46E870277BBE4211D1667B96
:105EA000B3420ED1A37B9A420BD1E27B914208D13F
:105EB000227C944505D1617C884202D1009800285B
:105EC000BFD1F8BD343B0020FF3F000010B500F00B
:105ED0001DF882228021002001F074FA10BD00001C
:105EE00010B50648C078002804D1054804F0ACFC81
:105EF00000F0E4FC04490348C86310BDD833002017
:105F0000F56B0000897B0100343B002010B50B4885
:105F1000846B06F061FA00202073A0722071084C97
:105F20000121E0781DF0DCFFE07802211DF0D8FFB0
:105F3000E07804211DF0D4FF10BD0000343B0020A8
:105F4000D833002010B501F0EBFA002010BD00009E
:105F500010B51149886B002805D0027B002A02D0B9
:105F6000C07A002811D1086C002805D0C279002A17
:105F700002D0007BC00708D1886C002807D0C17907
:105F8000002904D0C07B002801D0122010BD02F0EF
:105F9000BFF8002010BD0000343B0020FFB581B0E9
:105FA0000D4600F081FA040022D01920C00185427C
:105FB0001ED8062D1CD30399814219D8A94217D3A4
:105FC000FF220499F432914212D80A9981420FD8E3
:105FD0000498C900401C6843814209DDA07BC007CA
:105FE00006D126468036B168480701D4880702D515
:105FF000122005B0F0BD20464030C585039A0286C8
:106000000B9A42860C9A8286049A82820A9A0746E2
:10601000C282E07902220028A07E02D000282ED081
:1060200037E0002835D1E420005D800702D5114318
:10603000B16022E0039885420BD028184108284619
:1060400006F0F0F8788221465231039812F078FF7A
:1060500000E07D821048006E411C042901D9042013
:1060600000E0401CF873204612F014FF208F04213A
:106070000A303883B0680843B060122008E0E4209A
:10608000005D800701D41A20B3E711431320B160EB
:10609000A0760020ADE70000343B0020017A4A07DB
:1060A000D30FF022125812781207D20F934204D164
:1060B0000422514001720020704701207047017A8C
:1060C0000A07D30FF022125812785207D20F9342C8
:1060D00004D008225140017200207047012070470F
:1060E000F8B506460021084604F0C4FB184F38688E
:1060F00000282AD01748006E012826D198208159FF
:10610000308E0025814201D30C1A02E0091A124890
:106110000C18124800688047A04203D9011B06D51D
:10612000844201D3251A02E0211A0B480D180C48AD
:10613000807F4008A84205D27D21281AC900484323
:10614000400900E0002039688847B0203073F8BD6E
:1061500050090020343B00200000C0A81804002093
:10616000A433002001468031CA6C521CCA640A6DF7
:1061700001D1521C0A65120603D50122CA6400220D
:106180000A652030C1784A0602D520221143C17029
:106190007047000070B50546FF2000022C46803491
:1061A000616F05E08A8902438A81616F09686167CE
:1061B0000029F7D1E16F002906D08A8902438A813C
:1061C000E16F0968E167F6E7E06E002801D01DF095
:1061D00083FB2C4620346078FF2801D01DF05CFE44
:1061E0002078FF2801D01DF057FEA078FF2801D0AD
:1061F0001DF052FEA88800F0D9F8084880680028F1
:106200000BD00748006E002807D1064CE069002833
:1062100003D01DF061FB0020E06170BDA4330020BD
:10622000343B0020D833002070B504461C480E468D
:10623000C16D0025A14200D1C565FC200059002890
:1062400004D0A0880022802101F0BCF8E08F002853
:1062500004D0A0881322812101F0B4F8A08805227F
:10626000812101F0AFF8A57165734E200655E079E4
:10627000002807D112F0FAFB012803D801210020E1
:1062800004F0F8FAE079012807D112F0FDFB0128AB
:1062900003D80221002004F0EDFA002070BD0000B8
:1062A000343B0020014680314A6C521C4A648A6C9F
:1062B00001D1521C8A64120603D501224A640022CD
:1062C0008A642322125C520609D5028F403043882B
:1062D000D218028001228868920290438860704739
:1062E00070B5044618206072EC20005900282BD0AD
:1062F0000F21817021464031CA8DC270120A02718D
:106300000A8E4271120AC31C82711D468A8A2A7142
:10631000120A6A71CA8A4272120A82728A7FC27231
:10632000098C0173090A417321460C2262310E3037
:106330001DF060FA20462030C17804221143C1705C
:1063400092206073002070BD012070BD70B50546BD
:1063500018206872EC204059002825D010212C46C6
:1063600081704034E18DC170090A0171218E417143
:10637000090AC31C81711A46A18A1171090A517157
:10638000E18A4172090A8172A17FC172218C017375
:10639000090A417329460C2262310E301DF02AFA97
:1063A00097206873002070BD012070BD70B5164C39
:1063B0000346206D002102460D461CE0FF265D3697
:1063C000365A9E4215D1002904D0626D824204D112
:1063D000616504E01168216501E002680A601DF052
:1063E0007BFA606D0560206E002809D0401E206693
:1063F00004E0014600680028E0D1206E002802D1A8
:1064000000F004F8256570BD343B002070B5064DE2
:106410006C6B03E020461DF05FFA2468002CF9D174
:106420000020686370BD0000343B0020F8B51B4DB0
:10643000686B002831D1288C1F21C9432130184CAA
:106440000840217C09010818103080B21B211DF082
:10645000EDF9002821D00022124B68630146164650
:106460009D1C16E0002A09D08D814E604E72277C5B
:1064700097420AD90F4610370F6007E08B81277CBF
:106480003F013F1810374F60F0E70E60521C92B288
:106490001031277C7F1C9742E4D8F8BD343B0020A4
:1064A000A433002052FF000001460648006D05E0BD
:1064B000FF225D32125A8A4202D000680028F7D1CA
:1064C00070470000343B002030B50C4A04460948B0
:1064D000137C0021406B084D5B1C07E08289A242BF
:1064E00007D0AA4205D0491CC9B210308B42F5D85A
:1064F000002030BD343B0020FFFF0000A43300200B
:1065000010B51422002102481DF06CFA10BD0000E5
:10651000843B002070B5FF256135102128461DF011
:1065200085F904462A4600211DF05CFA002C0FD0A4
:106530001F4D01232A6D002A0CD0686DFF304130B9
:10654000818B491C89B2080400D50121104609E05D
:10655000002070BD19460AE0FF265D36365A8E428D
:1065600003D000680028F7D101E00028E9D12646D1
:10657000FF364136B183002910D0002A12D0686D51
:1065800004606C65286E401C2866696D00200860F8
:10659000B18BA180A0712073A08870BD20461DF032
:1065A0009BF9F9E72C656C652B66FFF73FFFECE77D
:1065B000343B002010B50648806C002806D0C07916
:1065C000002803D000F0E0F9002010BD0C2010BD21
:1065D000343B002010B50C46FFF766FF00280FD0B3
:1065E0008179102901D0022010BD4E210C54C179AF
:1065F000002903D031214173002010BD3021FAE77A
:10660000122010BD70B504460D206072EC200059B8
:10661000002815D0054604202146A870FF31082225
:106620002D31E81C1DF0E6F82146FF3128460422F2
:1066300035310B301DF0DEF844206073002070BD52
:10664000012070BD30B54478037824021B1984788A
:10665000C57824042D06641989B01B190093447968
:10666000037924021B198479C57924042D06641941
:106670001B190193447A037A24021B19847AC57A80
:1066800024042D0664191B190293447B037B240206
:106690001B19847BC07B2404000620181818039063
:1066A0004B7808781B02C0188B78CC781B04240622
:1066B0001B19C01804904B7908791B02C0188B79FC
:1066C000CC791B0424061B19C01805904B7A087A54
:1066D0001B02C318887ACC7A000424060019181803
:1066E00006904B7B087B1B02C0188B7BC97B1B046D
:1066F000090659184018079004A96846FAF756FC8D
:10670000002009B030BD10B5092301464372803125
:10671000CA6E002A0FD09370C279CB6E002A06D0C1
:1067200008225C31D81C1DF065F8002010BD08223D
:106730000146D431F6E7012010BD0000F8B5074648
:106740002A48C1780020C04300294BD0002F49D0EF
:1067500027490C6D002C45D00646E079012811D15F
:10676000608EA18D88420DD2627B012A0AD1254616
:1067700080356A6F002A05D1AA68002A02D1E27B1F
:10678000C02A03D098200159208E0EE0091A6869AA
:10679000401E41430091A16F0098FAF75DFA401C3A
:1067A00080B22086AA6900995118814201D30D1A3E
:1067B00002E0091A0F480D18AE4200D92E4624688F
:1067C000002CCAD10C4800688047B04201D8301A6A
:1067D00006E0B04207D58642F9D2311A05480818BA
:1067E00038603046F8BD00213960F8BDD83300204C
:1067F000343B00200000C0A818040020F1B500259B
:1068000082B02C460420029A290E121824020C434E
:10681000FF32290201321579401E0D4340B2002893
:10682000F1DA0298C17C203040790818C7B2252FD0
:1068300001D3253FFFB202983A46C77401200021D8
:10684000FAF797FA28402140084302D0029887744B
:10685000FEBD002006460090324601200021FAF7D6
:1068600088FA28402140084303D00098401CC0B259
:106870000090761C76B2252EEEDB38460099FAF7AA
:10688000EBF900273E460091324601200021FAF73D
:1068900070FA28402140084307D00098874202D16F
:1068A00002988674FEBD7F1C7FB2761C76B2252EC0
:1068B000EADBFEBD0021C1747047000070B50546DB
:1068C0002948002404602948B02204602146284851
:1068D0001DF088F82748284AC570D07D117E000237
:1068E00009044018917D254D41182148C162917ECF
:1068F000D37E09021B04C918537EC918816208217E
:10690000C18105821E4B43820175C3824175058397
:1069100043830146FF2360310B774C778C77CC772C
:1069200020310C704C708C70CC7020318B72DF2455
:10693000CC720B734C731F238B73D17B0184CA0001
:10694000703242848184C2841B218183FF214931BA
:10695000C1830C490163FBF783F9FFF7D1FD01F017
:10696000E9FB00F0F5FD70BD100700205009002084
:10697000343B0020D8330020A4330020D707000088
:106980008081000000F9150070B50E48846C05F098
:1069900023FD0D4DFF21E87801311DF0A1FA012101
:1069A000E87849021DF09CFA0321002003F062FF01
:1069B0000020E0712071A0718122802100F002FD91
:1069C00070BD0000343B0020D83300200449098CFE
:1069D0000170002141700349097C817000207047DB
:1069E000343B0020A433002070B509214172EC2112
:1069F0000958002933D014228A700246FF3224320B
:106A00001346547E127E25021543CA1C1446CD70CF
:106A100002462D0AFF320D712232557F167F2A025F
:106A200032434A71120A8A715A7F1B7F12021A433B
:106A30002271120A62710246FF3242325378147890
:106A40001A0222434A72120A8A7201462031CA7817
:106A500004231A43CA70B2214173002070BD012083
:106A600070BD70B509214172EC21095800292AD066
:106A700015228A700246FF3224321346547E127E5B
:106A800025021543CA1C14460246CD70FF322D0A5A
:106A900022320D71557F167F2A0232434A71120A43
:106AA0008A715A7F1B7F12021A432271120AFF3029
:106AB0006271423042780378100218434872000A2B
:106AC0008872002070BD012070BD10B5FFF7ECFC8E
:106AD000002805D0C179012902D1417B462901D086
:106AE000022010BD0146062220310A71472242735E
:106AF000C87801221043C870002010BD70B50C4644
:106B0000FFF7D2FC002802D0C179012901D0012071
:106B100070BD417B46292FD1A27BE17B12028918EF
:106B2000627B237B12041B06D2188A18014680312F
:106B3000CA62A37AE27A1B02D218637A257A1B040E
:106B40002D065B19D2180A63A379E2791B02D218C9
:106B5000637925791B042D065B19D2184A63A37843
:106B6000E2781B02D218637824781B0424061B19D0
:106B7000D2188A6350214173002070BD70B50D4654
:106B8000FFF792FC040006D02946FFF74DFB2034A6
:106B90002071002070BD122070BD01214172EC21D6
:106BA0000958002905D00B228A70742141730020F6
:106BB00070470120704701214172EC2109580029DA
:106BC0000AD012228A70A22141732030C178042297
:106BD0001143C170002070470120704701214172AC
:106BE0008030C06E002803D01321817000207047D0
:106BF0000120704770B50C460146200412D50846A6
:106C00001CF034FF05000AD02878802801D08128A4
:106C100002D1284600F072F828461CF0FFFE012041
:106C2000C00363E03349E207886B8030002A05D057
:106C30000068002800D08047012057E0A20705D552
:106C40004068002800D0804702204FE0600703D54D
:106C5000FFF73CF9042049E02648A206006C05D560
:106C6000806C002800D0804720203FE0E20605D558
:106C7000406C002800D08047102037E01D48A20556
:106C8000806C06D5006E002800D0804701204002AD
:106C90002CE0E20506D5C06D002800D08047FF201B
:106CA000013023E0134AE004157915D512484278E3
:106CB000D2070FD000224270406903234278521D50
:106CC0001A43805CC00602D40889401C088128460B
:106CD00000F0A2FA204670BDA00409D5CB798A79CC
:106CE0004979284601F030F901204003604070BD29
:106CF000002070BD343B0020F8330020F0B501784F
:106D000000248DB0802902D081297DD0E0E1FF4EA2
:106D1000417835468035062977D006DC0B0003F034
:106D20006BFF060D44F6F5F4F3F607296ED08129C2
:106D30006DD082296CD08629E8D185E14088FFF7A3
:106D4000B3FB050070D0E87B400602D403200DB0F1
:106D5000F0BD2E46AC758036F06F002823D0436816
:106D6000827A017AA8889B1CFEF7C2FA00280DD10E
:106D7000F06FFF228189120211438181F06F006858
:106D8000F067A88F002801D0401EA887F06F002868
:106D900009D0A8880022802100F014FB002801D12E
:106DA0000120A8750BE2AC8709E24088FFF77CFB65
:106DB0000700C7D0F879012837D0B66C002EC1D0B3
:106DC0006879800773D53420805D022870D0062250
:106DD000002107A81CF006FE354640352879022818
:106DE00067D00622002109A81CF0FCFD0622A91D7F
:106DF0000BA81CF0FFFCF98DB88D7A8D039204ABC3
:106E000013C309AA07A904E04FE107E12CE196E0CA
:106E1000A7E00BA86B4607C324206B79B988C05D37
:106E20000022FEF7E0F985E00AE1B46B002C89D07E
:106E3000687980073ED5254660352879022812D02A
:106E40000622002107A81CF0CDFD687D022811D381
:106E500021460622763109A81CF0CCFC216E0622C0
:106E60000BA8091D0FE02146062207A866311CF079
:106E7000C1FCEAE70622002109A81CF0B3FD214667
:106E8000062276310BA81CF0B5FC38462030798DEF
:106E90008479FB8DBA8D03AE1EC609AB07AA0BA978
:106EA0006C460EC46B7DB98800790122B9E72FE0EA
:106EB00011E017E038462030798D8579FB8DBA8D49
:106EC00001AE2EC62146763100916034637DB988CB
:106ED000007901222CE031460622363107A81CF049
:106EE00089FC79E731460622463109A81CF082FC6C
:106EF000716D06220BA8091D1CF07CFC706D02212F
:106F0000C0780843687176E775E05EE04CE0DFE04A
:106F1000F88DB98D7A8D03903046463001920090FD
:106F200004940291403624207379B988C05D002210
:106F3000FEF73CF9F87B40210843F8733FE1B06C61
:106F400000287DD0C28A818AC38C02AD019316C508
:106F5000014646310091403000224379114602201B
:106F60001FE0B06B0028ECD0697989070DD5059436
:106F7000069400230394049400940194012219467A
:106F80003C200294FEF72FF919E101466E31009181
:106F900001940294039460300494437B0122002105
:106FA0003C20FEF703F90AE14088FFF77DFA00284C
:106FB000C7D001464031CA8A00928B8A4A8A8188AA
:106FC00020300079FEF7FFF8F9E04088FFF76CFA0F
:106FD0000028B6D0C1790129818807D02422135C0A
:106FE0000246DC321846FEF722F9E8E02422135C60
:106FF0000246D432F6E74088FFF756FA00281FD041
:10700000C11DFC314A7E097E12020A430146838873
:10701000FF3114311846FEF7F6F8D0E04088FFF74C
:1070200043FA04000CD020464030C18A0091838A84
:10703000028EC18DA088FEF70AF9A07B042100E032
:107040007BE00843A073BAE04088FFF72DFA0028E0
:1070500073D001464031CA8A00928B8A0A8EC98D4C
:107060008088FEF73FF9AAE04088FFF71DFA002864
:1070700063D00146FF3144314B7C0A460C7C190237
:10708000214300910146FF3142314B7C0C7C1B02B5
:107090002343547D157D22022A434C7D0D7D210220
:1070A00029438088FEF799F889E041781A296BD046
:1070B00008DC05290ED0082934D00C2945D0132925
:1070C00006D153E0302969D0572975D0FF2976D0F1
:1070D00001203CE64088FFF7E7F905006AD0F4207C
:1070E0004659002E10D070681CF0F6FBE88F366809
:1070F000401CE887002EF6D10204120C04D0A988A7
:107100000120FEF7DDF8EC874E2001E0343B002043
:10711000425D2420A988405DFEF71FF82846FFF74E
:1071200039F84CE04088FFF7BFF9002842D04621EB
:10713000095C002902D0012201E03BE000228188A5
:1071400020300079FEF70DF839E04088FFF7ACF900
:1071500000282FD0014640318A8900924B894A7A13
:10716000818820300079FEF7B3F828E04088FFF7E7
:107170009BF905001ED0EA8F002A20D0A9880120A3
:10718000FEF79EF8EC871AE04088FFF78DF900289B
:1071900010D020300079FDF7D8FF10E04088FFF7CD
:1071A00083F9002806D0818820300079FDF7DDFFC3
:1071B00005E001E00220CAE54088FDF7BDFF0020A0
:1071C000C5E570B505460024FF21012005F047F80C
:1071D0002855641CE4B2082CF6D3002070BD0000D2
:1071E000064A0021531880331B7B0370491CC9B227
:1071F000401C0629F6D3002070470000343B0020D5
:1072000010B50C46FFF750F9002803D0007D207020
:10721000002010BD022010BD10B5002803D00B289F
:1072200003D8401E06E025200CE00C2804D02628B8
:1072300004D8801EC0B205E0262003E0272801D034
:10724000122010BD05F092F8002010BD02214172FD
:10725000014680310A46C96E002907D00D238B7084
:107260002030D16E0079C87000207047012070472F
:1072700003224272EC221258002A07D01123937085
:10728000D1702030007910710020704701207047C4
:1072900010B50C46FFF708F900280FD024210C5434
:1072A000817B4A070AD5FB2211408173803001227D
:1072B0008168920311438160002010BD122010BD2F
:1072C000FFB581B016460F46FFF7EEF804463A497F
:1072D000B81F88426ED2481D86426BD8BE4269D321
:1072E000FF220499F432914264D80A99814261D80C
:1072F0000498C900401C7043400081425ADD002CB4
:1073000058D0A07B410749D5FB2108402546A073F2
:107310004035EF852E86E079002808D02046803061
:1073200001228168520311438160102035E0688C8E
:107330002249884204D0B74202D12882608D09E0F8
:10734000E88B0090002807D001463046F9F784FC0E
:107350000099484368820AE0B8194108384604F0A9
:1073600061FF688221465231304611F0E9FD144830
:10737000006E411C042901D9042000E0401CE87380
:10738000204611F087FD208F04220A3028832046F2
:1073900080308168114381601120A07640340B98C1
:1073A00060860C98A0860498A0820A98E08200204B
:1073B00005B0F0BD1220FBE77B0C0000FFFF0000D2
:1073C000343B002070B5064614460D4604201CF0E0
:1073D00011FB010007D00D704C7004484E80C0783E
:1073E0001CF07CFB70BD042070BD0000D833002071
:1073F000F0B5002787B005463848009701970297F7
:1074000003973E46846F0CE0E078E978884206D125
:107410001022291D201D1CF0DFF9012842D026462C
:10742000E46B002CF0D11A2140201CF0FFF904007D
:1074300038D0E878E0700622291D201D1CF0DAF90A
:1074400020461A30294610221A31059004901CF06B
:107450008DFB1022694604981CF0BEF9002823D049
:10746000A772294620462A3010222A3105461CF0F0
:107470007DFB1022694628461CF0AEF900281FD07B
:10748000A774164D2046296B11F06EFE002E23D0F6
:10749000F4631249E7634031888E401C80B28886CD
:1074A00007B0F0BD0020FBE70120A072E0780221C8
:1074B0000843E07221460C310598FEF737FCD0E70F
:1074C0000120A074E07802210843E07421461431C1
:1074D0002846FEF72BFCD4E7AC67DAE7343B002004
:1074E000F7B50E4815466E46846F0CE06846407846
:1074F000E178884206D10622211DB01C1CF06CF9EF
:10750000012804D0E46B002CF0D10020FEBD204601
:1075100029462A3011F0DAFDFEBD0000343B002080
:1075200070B50A4DFF26AC6F07E020781CF0B4FC64
:1075300026702046E46B1CF0CFF9002CF5D100201A
:107540000249A8674031888670BD0000343B0020A6
:1075500010B504490020888640398867FEF728FC6A
:1075600010BD0000743B002070B505460B48846FC9
:107570000DE06878E178C007C00F884206D1062286
:10758000211DA81C1CF028F9012804D0E46B002C54
:10759000EFD1002070BD204670BD0000343B0020BC
:1075A00070B505460848846F07E02046A91C2A30BC
:1075B00011F08CFD012804D0E46B002CF5D10020E3
:1075C00070BD204670BD0000343B0020F8B5044675
:1075D0008030016FC81C0A798446CB7810021843AA
:1075E0002E4B821F9A4225D28B794D791B02192688
:1075F0004A1C2B43F601B3421CD883421AD365467A
:107600006F792D793F022F43FF25F435BE46AF42F7
:1076100010D8557A177A2D023D43B5420AD87646DE
:10762000761C4643EF00BE4204DACE7A002E03D029
:107630009E4201D91E20F8BD668D0027864208D1E2
:107640009E4206D1A38D734503D1E38DAB4200D199
:10765000012723464033D885507915790002284305
:107660001886604645790679280230439882507A18
:10767000127A00021043D882C87AD883487B0A7BEA
:1076800000021043188420460C2262300E311CF098
:10769000B1F80420A0763846F8BD00007B0C00004D
:1076A00070B5F0210B58DA1C197914460A02DD78FE
:1076B0000146FF312A434131CA805A1C9B79157912
:1076C0001B022B430B81637924791B0223434B81DB
:1076D000537A147A1A0222438A8111F052F870BD4B
:1076E000F02109584030CA7842724A790B79120267
:1076F0001A434281CA798B791102194381817047FB
:1077000070B50F48046C04F067FE0025A5710421D4
:10771000284603F0AFF80B4928208877E5712571DA
:10772000E0691CF0D9F82583E5612562064C10213B
:10773000E0781CF0D5FBE07820211CF0D1FB70BD77
:10774000343B0020A4330020D833002000214172B4
:10775000017A012289088900114301728030C06ECC
:10776000002801D00020704701207047FFB583B08A
:1077700015460F46FEF798FE04003AD02046FF302B
:1077800042300190417D007D0E020643AE4259D247
:10779000681E30183146F9F775FA87B23E48761DF3
:1077A00006403846704380B20B211CF03FF8009031
:1077B00000286FD03848A838FEF786FE002836D05B
:1077C000017B81818034616F002915D0A16F086031
:1077D000A067A16F00200860A06F4581A16F012004
:1077E00048728020A16F00250872A16F0098486040
:1077F00017E0022007B0F0BD6067E9E7A06F069BC5
:1078000041683046684308180199801C4A7D097D0B
:1078100012020A4311466943C9181BF0EBFF6D1CA5
:10782000EDB2BD42EAD306981CF056F827E01B489B
:10783000026B002A02D01A490220904700981CF0DF
:107840004BF827E01448A838FEF73EFE00281AD06F
:10785000017B81818034616F002912D0A16F0860A3
:10786000A067A16F00200860A06F4581A16F012073
:107870004872A06F07720698A16F801E48600020B2
:10788000B8E76067ECE70548026B002A02D00449BC
:10789000022090470720ADE7FCFF0000A433002042
:1078A000AA55000030B5C37D0146027A8031002B15
:1078B00009D04B6F5B681A704B6F427A5B685A70E5
:1078C000496F496805E0CB6E1A70CB6E427A5A70E8
:1078D000C96E1A4C437A226941339B090D681560C1
:1078E0004D6855608D689560CD68D5600D691561EE
:1078F0004D6955618D699561CD69D5610D6A1562D6
:107900004D6A55628D6A9562CD6AD5620D6B1563BD
:107910004D6B55638D6B9563CD6BD56340314032B4
:107920005B1E1B061B0ED9D1407A0549401D8008FD
:107930002269897C8000115030BD0000F83300209E
:10794000A4330020114A916B002902D0097B002941
:107950000BD1116C002902D0C979002905D1916C95
:10796000002904D0C979002901D012207047507035
:10797000064A80325179002802D00620014301E0F6
:10798000F92001405171002070470000343B002075
:1079900070B53849C96B00296AD0364A0028946B03
:1079A00002D0012809D063E0002C61D0207B0028A0
:1079B0005ED0FEF7ABFA002070BD01260025F6026E
:1079C000002C10D18847040018D026826682A57644
:1079D0000720E076652005552649204606228C3191
:1079E00066301BF007FF207B012841D0A07E0107F5
:1079F00006D00007000F012802D009E0032070BD67
:107A000011F042F81C49097F8907890F88422FD05D
:107A1000A07E0107090FA17101280AD0208A628A7D
:107A20008018400801229203A08290420BD9A282C2
:107A300014E00620A0821148E582C0783246042175
:107A40001CF0F0F90FE0022904D0062902D020280A
:107A50000CD302E0A02800D2A020A0821021002098
:107A600004F0E0FBE082E06F804770BD2020F4E787
:107A7000122070BD343B0020A4330020D8330020F6
:107A800070B504460D480D46C26B002A03D0806BCA
:107A9000002802D004E0122070BD904700280AD0D0
:107AA000E206D20E0277002C03D029461E301BF0CE
:107AB000A1FE002070BD032070BD0000343B0020FB
:107AC000FFB5294981B0C86B0B9D1E46174600289B
:107AD00003D08C6B002C03D005E0122005B0F0BD64
:107AE0008047040015D001982082029801210022CD
:107AF0006082012F0FD0022F0FD0032F0FD0042F41
:107B00000FD0A2762046603046712B78002B1AD118
:107B10000AE00320E2E7A176F4E7062002E0022073
:107B200000E01120A076EDE76B78002B0BD1AB784D
:107B3000002B08D1EB78002B05D12B79002B02D13B
:107B40006B79002B09D001730A99417320460622F4
:107B500029466E301BF04EFE00E002730C98E07672
:107B60000D98E0720020B9E7343B002070B515464F
:107B70000C46FEF799FC002827D0154A138CA34227
:107B800005D30146FF3124310C77230A04E0014676
:107B9000FF3124310B771B0A4B77518CA94206D356
:107BA0000146FF3142310D702A0A4A7005E0024653
:107BB000FF3242321170090A51708030012281680F
:107BC000120311438160002070BD122070BD0000BF
:107BD000343B002010B5040024D01C498A6B002AD5
:107BE00002D0107B00280BD1086C002802D0C0798D
:107BF000002805D1886C002804D0C079002801D065
:107C00000C2010BD012088701048062221469230B9
:107C10001BF0F0FD62799309032B05D0900908D081
:107C2000012B0BD0122010BD0848062221469830A7
:107C300008E00648062221469E3003E0034806225B
:107C40002146A4301BF0D6FD002010BD343B00209F
:107C500070B51921084D890148432863AC6F06E0CF
:107C60002078FF2802D0296B1CF056F9E46B002C19
:107C7000F6D1002070BD0000343B002010B50C464A
:107C80001E494B6C002B05D00A6C002804D001283B
:107C900007D00EE00C2010BD002A0AD0FFF730FDFF
:107CA00029E0002A07D01046C179012901D0002916
:107CB0000ED0122010BD9847002807D00021C172B5
:107CC00010224282828225221154EDE7032010BD4A
:107CD000428A012189038A4200D94182828A418AEB
:107CE0008A4200D98182818A55225143090AC18280
:107CF0008473006C8047002010BD0000343B0020DE
:107D000070B505460C480C46C26B002A03D0806B48
:107D1000002802D004E0122070BD9047002808D04F
:107D2000EA06D20E427721463E301BF063FD00206A
:107D300070BD032070BD0000343B002010B5FEF77D
:107D4000CFF80448024941660349816610BD00002E
:107D5000817D0100343B0020297E010010B50446DE
:107D60000920214660728031C86E002811D00E2291
:107D70008270C86E08225C31C01C1BF03BFD20469F
:107D80002030C17804221143C1706220607300204A
:107D900010BD012010BD01214172EC2109580029BC
:107DA00005D005228A7052214173002070470120BE
:107DB000704701214172EC210958002905D00622A3
:107DC0008A70542141730020704701207047F8B534
:107DD0001C4616460F46FEF767FB050002D0E87901
:107DE000002801D00220F8BD2846FF30082239467D
:107DF00014301BF0FFFCE81DFC300676310A41769A
:107E0000A17BE07B09024118607B227B0004120603
:107E100080182E4608188036F062A17AE07A0902AE
:107E20004018617A227A09041206891840183063D2
:107E3000A179E079090240186179227909041206D2
:107E4000891840187063A178E078090240186178B9
:107E500022780904120689184018B0632846403079
:107E60008179002904D00121C1712021B06851E03D
:107E70001BF060FE02460020C3001146D9402B18BB
:107E8000FF330133401C59770428F5D31BF052FE11
:107E900002460020C3001146D9402B18FF3321337E
:107EA000401C59700428F5D32C46E81DFF34F930E6
:107EB0002134C27F217812028918827F407F120408
:107EC000000610180818B062E178207909024018FD
:107ED000A1786278090412068918401870621BF0B4
:107EE00029FE02460020C3001146D9402B18FF335B
:107EF0002133401C59710428F5D3A1796079090216
:107F00004018E179227A0904120689184018F063B2
:107F1000B06840210843B0600020F8BD02224272E0
:107F2000EC21095800290DD08A704E22125CCA70CB
:107F300001462031CA7808231A43CA70322141739E
:107F40000020704707207047FFB505003A4881B010
:107F50000469164603D00B2D03D86D1E06E02525B7
:107F60000AE00C2D04D0262D04D8AD1EEDB203E09E
:107F7000262501E0272D0FD1002E10D0012E19D07B
:107F8000022E1AD0032E1BD0042E24D0052E25D06D
:107F9000062E26D0072E27D0122005B0F0BD0027D0
:107FA00004E0FAF7DDF8E11988707F1C0298874237
:107FB000F7DB1EE0F021029A18E0AA21029A15E0F0
:107FC000002704E0FAF7AAF8E11988707F1C0298EC
:107FD0008742F7DB0DE0FF21029A07E00021029AB9
:107FE00004E00F21029A01E0029A5521A01C1BF027
:107FF000F9FC3007000F2070029860700498810629
:108000000298890E401D8008800021540498029A2D
:10801000000601D5012100E00021284604F062FBA2
:10802000054800E000BFC1780029FBD0034908895A
:10803000401C08810020B0E7F8330020343B0020CA
:1080400002214172014680310A46C96E002906D0DC
:1080500007238B70D16E407DC870002070470120CF
:108060007047000006214172EC210958002912D006
:108070000C220A4B8A709A7BCA701A8A0A71120AF9
:108080004A715A8A8A71120ACA71C17E4906490E1A
:10809000C17600207047072070470000343B002065
:1080A000F8B51A4F054600263C6F0CE060786978F9
:1080B000884206D10622A91CA01C1BF08DFB0128BA
:1080C0001ED02646A468002CF0D119210C201BF0EC
:1080D000ADFB040015D0687860700622A91CA01CB6
:1080E0001BF088FB386F00280DD0002E00D0B46044
:1080F0000020A06005484030818D491C8185012009
:10810000F8BD0020F8BD3C67F2E70000343B0020DA
:1081100070B5074D2C6F03E02046A4681BF0DCFB14
:10812000002CF9D10020024928674031888570BDB4
:10813000343B0020024900200867403188857047A1
:10814000343B002073B50A486D46046F0CE0694665
:1081500060784978884206D10622A91CA01C1BF031
:108160003BFB012803D0A468002CF0D100207CBD8B
:10817000343B002010B5044802F066FB0349087246
:1081800000200860486010BD918100000039002087
:1081900070B50D4CC80716D00AE0836842685D08C8
:1081A0006D00D9078560C90F02D0002A00D0904722
:1081B0002068002805D0016821606268824200D1F1
:1081C00061600028E9D170BD0039002010B5034876
:1081D00002F03AFB0249087010BD0000E581000082
:1081E000E806002010B5C8071DD009F063F80400A8
:1081F00013D00020A060204614F03CFA002806D0DE
:10820000204614F037FA8268A16851188160204630
:108210001BF030F820461CF039FD14F05FFA002105
:108220001CF030FE002010BD184A0020917A57251E
:108230000B071649A8264031002B05DB0D700E7088
:10824000937A0824234393720D700E7005231381D3
:108250000E4F20373B8803246402A3433B80937A6C
:1082600010242343937200220A700123BC79E4078F
:1082700001D00020FAE77D242401401CA042F5D95A
:108280000D700E708B710A70F0E700000010004056
:1082900070B594B0564802F0D7FA564E01253070AA
:1082A0006846057014218180642101816A4629464F
:1082B0005148FBF7BDF85048324628321C21801C3B
:1082C000FBF7B6F84C48324608320721401CFBF752
:1082D000AFF8494801AA02210C30FBF7A9F846483B
:1082E00002AA02210D30FBF7A3F8324644321521D1
:1082F0000020FCF799FD502421460320FBF74CFD9C
:1083000021460420FBF748FD0024684600940571CF
:108310000572057304746A4604213848FAF75CFC58
:10832000012101AA8802FAF757FC344802AA012168
:10833000801FFAF751FC314804AA0121401FFAF7C7
:108340004BFC2E4803AA0121801EFAF745FC651E4E
:108350002846FCF7BFFC2846FBF7FCFD284602F048
:1083600075F9112101A8F8F72FFD254D1121286875
:10837000009024A00068139007A8F8F725FD68680E
:1083800006900F210DA8F8F71FFDA8680C901EA0FD
:1083900003C8129111906A461521002002F080F95D
:1083A000012113AA084602F07BF906AA1521022032
:1083B00002F076F90CAA1321032002F071F911AA38
:1083C0000521042002F06CF93046A11E2030018006
:1083D00044808480C4801C3802F058F93046103044
:1083E000FAF7ECFD012130781BF0CAFB14B070BD28
:1083F000ED840000F40100200503000007040000E4
:108400002C520200020000000102030405000000DB
:1084100070B5144904460A88134B40899A4205D026
:10842000FBF7CCF811A002F0BFFB70BD0880E0891B
:108430004880208A8880608A0A4DC8801922203DA1
:108440001202082128781BF0EDFC1922D201042128
:1084500028781BF0E7FCE289618909A002F0A4FBFF
:1084600070BD000014020020FEFF0000436F6E6E1E
:10847000656374696F6E206D61782E2E2E0A000080
:10848000436F6E6E202578202D20496E742025784C
:10849000200A000038B5818810480288914219D11D
:1084A0000121C9430180002141808180C1800446AF
:1084B000203C022120781BF013FD042120781BF0C2
:1084C0000FFD01206946087001466A460448FAF724
:1084D000AFFF38BD03A002F067FB38BD14020020D7
:1084E000050300004552522E2E0A000070B5264E9C
:1084F0000C46307886B0090408D51BF0B7FA00287E
:1085000001D01BF08BFA0120C00338E0E10707D04F
:108510001D4A5C3211464439FAF752FF01202EE021
:10852000A10711D51922920102211BF07BFC0F211A
:1085300001A8F8F749FC15481321C0680090684667
:1085400015F0C4F802201AE0114922070D880AD557
:1085500064210A4600910190002314212846FAF76D
:10856000BBFD08200BE060070CD52846FAF75CFF3E
:108570001922D201042130781BF054FC0420604001
:1085800006B070BD0020FBE7F40100202C52020071
:1085900014020020F8B50E4D57260D4C0021A827D7
:1085A000203D0028267027700ED0012068712871A8
:1085B00000202070012012F055F9267027700D2040
:1085C000287100202070F8BD29712170F8BD0000CD
:1085D0004010004070B5314809210068C90181622E
:1085E000826C0721090703238A435B07D218826440
:1085F000836C0F2212030324934364031B198364C7
:10860000836CCC0023438364C36C0C15A343C36405
:10861000436D802423434365C36B934322029A181E
:10862000C263C36B0A119343A4041B19C363C36BD6
:10863000DC000123E4089B07E418C463C46D0C4309
:10864000C465C56D0C122543C565C56D0E13354354
:10865000C565C56D9543C565C56AA5435C122C19F2
:10866000C462C46A944305221206A218C262C26A96
:10867000032424032243C262C26A24012243C26249
:10868000026B120912010263026BF024A24302631F
:10869000026B8A43D118016370BD00000C070020F3
:1086A000FFB53B480068826D012109048A43826559
:1086B00082680A4382600025014680312B468C4641
:1086C0006E46C168FF240134A143C16041682202A3
:1086D00011434160C1682143C1606146C968C90551
:1086E000FBD500BF00BF00BF00BF6146C9680C07D3
:1086F0004168240F914341600F2C01D06D1CEDB2F5
:10870000002110E0725CA2420BD91A4605E0B718AE
:10871000203FFF7FB754521ED2B28A42F7D1745421
:1087200003E0491CC9B29942ECD3994200D1745478
:10873000032D05D05B1CDBB2102BC2D3002D1ED045
:108740003178082902D93246C91E0DE0042902D920
:108750003246891E08E0012902D93246491E03E04B
:10876000002902D1032132461170816D0F22D201FE
:10877000914332781207520D11438165FFBD826D1E
:108780000F21C9018A430521C9015118F5E70000ED
:108790000C07002010B51A480068016D01231B0466
:1087A0009943016581685C0121438160C2681021A1
:1087B0000A43C260C2688A43C26000BF00BF00BFF4
:1087C000C2680A43C260416801221203114341603A
:1087D00001468031CA69D205FCD500BF00BF00BF89
:1087E000C969026DC906C90E1A430265026D5209B4
:1087F00052010A4302658168A143816010BD0000F7
:108800000C070020F0B5FF4887B005686868FF21B5
:10881000013188436860A86A09018843A862E86A50
:1088200010218843E862A8684A031043A86068687A
:10883000084368606868400840006860A86BF24AB6
:108840000321104089034018A86368680123184376
:1088500068602C46803420694001C10F2069800186
:10886000C00F0029F7D00028F5D02069860660697E
:10887000B60EC003400E0190686840084000686072
:10888000A86BE721104009024018A86368681843E4
:10889000686020694001C10F20698001C00F002974
:1088A000F7D00028F5D020698006800E049060691A
:1088B000C003400E06906868400840006860A86BDE
:1088C000D321104009024018A86368681843686003
:1088D00020694001C10F20698001C00F0029F7D035
:1088E0000028F5D020698006800E0390606927215A
:1088F000C003400E02900398301A06464843F8F72A
:10890000C1F90007216A000F090909010843206223
:10891000262070432721F8F7B5F90007226A000ED8
:10892000F0218A4310432062252070432721F8F765
:10893000A9F90007226A000D0F2109028A4310439A
:108940002062242070432721F8F79CF90007226A4F
:10895000000C0F2109038A43104320622320704337
:108960002721F8F78FF90007226A000B0F2109046D
:108970008A4310432062222070432721F8F782F9AE
:108980000007226A000A0F2109058A43104320626A
:10899000700130182721F8F775F90007216A0009DE
:1089A0000F273F06B9430843206270012721F8F7DB
:1089B00069F9216A00070901090908432062700169
:1089C000801B2721F8F75EF90007616A000F09098B
:1089D0000901084360621E2070432721F8F752F90D
:1089E0000007616A000EF0229143084360621D2077
:1089F00070432721F8F746F90007616A000D3A1421
:108A00009143084360621C2070432721F8F73AF92C
:108A10000007616A000C3A139143084360621B200F
:108A200070432721F8F72EF90007616A000B3A120C
:108A300091430843606230461A2148432721F8F7E2
:108A400021F90007616A000A3A1191430843606204
:108A50003046192148432721F8F714F90007616AC5
:108A60000009B94308436062304618214843272172
:108A7000F8F708F9616A000709010909084360620B
:108A80003046172148432721F8F7FCF80007A16A70
:108A9000000F090909010843A0621620704327212D
:108AA000F8F7F0F80007A16A000EF022914308439E
:108AB000A062152070432721F8F7E4F80007A16AA7
:108AC000000D3A1491430843A062142070432721FB
:108AD000F8F7D8F80007A16A000C3A13914308434D
:108AE000A062132070432721F8F7CCF80007A16A91
:108AF000000B3A1291430843A062122070432721D1
:108B0000F8F7C0F80007A16A000A3A119143084338
:108B1000A062300130182721F8F7B4F80007A16AE5
:108B20000009B9430843A06230012721F8F7AAF8E9
:108B3000A16A0007090109090843A0623001801BEE
:108B40002721F8F79FF80007E16A000F09090901DA
:108B50000843E06230460E2148432721F8F792F897
:108B60000007E26A000EF0218A431043E0623046BB
:108B70000D2148432721F8F785F80007E26A000D28
:108B800039148A431043E06230460C2148432721C0
:108B9000F8F778F80007E26A000C39138A431043AB
:108BA000E06230460B2148432721F8F76BF80007B5
:108BB000E26A000B39128A431043E06230460A2110
:108BC00048432721F8F75EF80007E26A000A3911E6
:108BD0008A431043E062F00030182721F8F752F87A
:108BE0000007E16A00093A4691430843E062F00059
:108BF0002721F8F747F8E16A000709010909084346
:108C0000E06203E00C070020FF00FEFFF000801B85
:108C10002721F8F737F80007216B000F0909090130
:108C2000084320633046062148432721F8F72AF8F5
:108C30000007010E206BF022904301432163B00036
:108C400030182721F8F71EF80007226B000D3914A1
:108C50008A4310432063B0002721F8F713F8000778
:108C6000226B000C39138A431043206370003018C4
:108C70002721F8F707F80007010B206B3A12904301
:108C80000143216370002721F7F7FCFF0007226BE7
:108C9000010A381182431143216330462721F7F737
:108CA000F1FF0007226B000939468A431043206315
:108CB000206B00010009206304990398471A2821BA
:108CC0003846F7F7DFFF0007616B000F090909015C
:108CD0000843606378002821F7F7D4FF0007616B31
:108CE000000EF02291430843606378003818282171
:108CF000F7F7C8FF0007616B000D0F2212029143C6
:108D000008436063B8002821F7F7BCFF0007616BD8
:108D1000000C0F221203914308436063B800381817
:108D20002821F7F7AFFF0007616B000B0F22120439
:108D3000914308436063062078432821F7F7A2FF98
:108D40000007616B000A0F2212059143084360631C
:108D5000F800C01B2821F7F795FF0007626B000998
:108D60000F2109068A4310436063F8002821F7F7B2
:108D700089FF616B00070901090908436063F80076
:108D800038182821F7F77EFF0007A16B000F0909AB
:108D900009010843A06338460A2148432821F7F710
:108DA00071FF0007A26B000EF0218A431043A063FD
:108DB00038460B2148432821F7F764FF0007A26BD0
:108DC000010D0F20000282431143A16338460C219C
:108DD00048432821F7F756FF0007A26B010C0F202C
:108DE000000382431143A16338460D2148432821E3
:108DF000F7F748FF0007A26B000B0F2109048A4315
:108E00001043A06338460E2148432821F7F73AFF64
:108E10000007A26B010A0F20000582431143A163E2
:108E20003801C01B2821F7F72DFF0007A26B0009AE
:108E30000F2109068A431043A06338012821F7F760
:108E400021FFA16B0007090109090843A06338014C
:108E500038182821F7F716FF0007E16B000F090902
:108E600009010843E0633846122148432821F7F7F7
:108E700009FF0007E26B000EF0218A431043E06314
:108E80003846132148432821F7F7FCFE0007E26B20
:108E9000000D0F2109028A431043E0633846142174
:108EA00048432821F7F7EEFE0007E26B010C0F2084
:108EB000000382431143E1633846152148432821CA
:108EC000F7F7E0FE0007E26B010B0F20000482437E
:108ED0001143E1633846162148432821F7F7D2FEB3
:108EE0000007E26B000A0F2109058A431043E06383
:108EF0003846172148432821F7F7C4FE0007E26BE4
:108F000000090F2109068A431043E06338461821FF
:108F100048432821F7F7B6FEE16B0007090109096C
:108F20000843E0633846192148432821F7F7AAFE91
:108F30000007216C000F0909090108432064384625
:108F40001A2148432821F7F79DFE0007226C000EE6
:108F5000F0218A431043206438461B2148432821CE
:108F6000F7F790FE0007226C000D0F2109028A43DB
:108F70001043206438461C2148432821F7F782FE1D
:108F80000007226C000C0F2109038A431043206460
:108F900038461D2148432821F7F774FE0007226C4C
:108FA000000B0F2109048A431043206438461E2118
:108FB00048432821F7F766FE0007226C000A0F21BC
:108FC00009058A43104320647801C01B2821F7F764
:108FD00059FE0007226C00090F2109068A4310433D
:108FE000206478012821F7F74DFE216C0007090164
:108FF000090908432064780138182821F7F742FE50
:109000000007616C000F09090901084360643846D4
:10901000222148432821F7F735FE0007010E606C36
:10902000F0229043014361643846232148432821BC
:10903000F7F728FE0007626C010D0F200002824343
:10904000114361643846242148432821F7F71AFE6A
:109050000007626C000C0F2109038A43104360640F
:109060003846252148432821F7F70CFE0007626C9B
:10907000000B0F2109048A431043606438462621FF
:1090800048432821F7F7FEFD0007626C010A0F2014
:109090000005824311436164384627214843282153
:1090A000F7F7F0FD0007626C00090F2109068A43FB
:1090B00010436064384628214843F7F7E3FD616CAC
:1090C000000709010909084360643846292148431B
:1090D0002821F7F7D7FD0007A16C000F0909090146
:1090E0000843A06438462A2148432821F7F7CAFDDF
:1090F0000007A26C000EF0218A431043A064069A78
:1091000002983946801A0A2200905043F7F7BAFDB8
:10911000082108430007A16C000D0F2212029143A1
:109120000143A16400983946C2008018F7F7AAFDF0
:10913000082108430007A16C000C0F221203914381
:109140000143A16400983946C000F7F79BFD082150
:1091500008430007A16C000B0F2212049143014346
:10916000A16400983946C200101AF7F78BFD082158
:1091700008430007A16C000A0F2212059143014326
:10918000A1640098062239465043F7F77BFD082179
:1091900008430007A16C00090F2212069143014306
:1091A000A1640098394682008018F7F76BFD08210A
:1091B0000843A16C0007090109090143A164009853
:1091C00039468000F7F75EFD082108430007E16C8F
:1091D000000F090909010143E16400983946420082
:1091E0008018F7F74FFD082108430007E16C000ED7
:1091F000F02291430143E164009839464000F7F7BB
:1092000041FD082108430007E16C000D0F22120206
:1092100091430143E16439460098F7F733FD082193
:1092200008430007E16C000C0F2212039143014335
:10923000E16431460020F7F725FD0007E16C000BE3
:109240000F22120491430143E164029A01983146CE
:10925000871A3846F7F716FD0007E16C000A0F225F
:10926000120591430143E16431467800F7F70AFDA6
:109270000007E16C00090F22120691430143E164EB
:10928000780031463818F7F7FDFCE16C000709015A
:1092900009090143E1643146B800F7F7F3FC000720
:1092A000216D000F0909090101432165B80031460C
:1092B0003818F7F7E7FC0007216D000EF022914304
:1092C00001432165062031467843F7F7DBFC0007B0
:1092D000216D000D0F221202914301432165F80018
:1092E0003146C01BF7F7CEFC0007216D000C0F22A2
:1092F00012039143014321653146F800F7F7C2FCA0
:109300000007216D000B0F221204914301432165D8
:10931000F80031463818F7F7B5FC0007216D000A50
:109320000F2212059143014321650A2031467843FB
:10933000F7F7A8FC0007216D00090F2212069143E0
:1093400001432165696810208143696069684908A3
:1093500049006960A96A02021143A962E96A0143EE
:10936000E962A86B8109039889010143A963A86B8D
:109370007F2109068843029909060843A86307B0BC
:10938000F0BD0000034800684168FF22013211432C
:10939000416070470C07002070B52548244D427F7E
:1093A000A02020350C464243C907287EEB7E0029C9
:1093B0000AD0810706D5000600D4102204211846E1
:1093C0001AF030FD01202EE0A1070ED541070AD585
:1093D000000603D508211846283202E02822082179
:1093E00018461AF01FFD02201DE0610704D5002079
:1093F00015F0F6FC042016E0210705D5400701D53D
:1094000000F0C2F808200EE0E0060ED50FF0FEFDD9
:109410000848C079062805D11922E87E920110215A
:109420001AF000FD1020604070BD002070BD0000EB
:1094300010340020F833002010B50446406900289D
:1094400017D0202200211B481AF0CCFA20222146F6
:1094500018481AF0CFF9174C20346068002801D062
:109460001AF03AFA0020134960608869002802D097
:1094700004E0012010BD0020C0438861487F00281F
:1094800001D128204877887F002801D108208877DB
:10949000C87F002801D11120C877FF20207060709C
:1094A000A070E070487860778868606148682061E3
:1094B000002010BD10340020F8B517480068804720
:1094C000164EB168814225D0154F884201D3401A0B
:1094D00001E0401AC019114D4409203DA87FA04267
:1094E00018D800F079F8A87FB2684101241A511801
:1094F000B94202D30A4A52428918B160A042F0D957
:109500000848006801686A78C909C9015206520E04
:1095100011430160F8BD0000180400203034002021
:109520000000C0A804070020F8B514480068804770
:10953000134EB16881421FD0124A884201D3401AAB
:1095400001E0401A8018C5060D4FED0E4409203F7A
:10955000B87F0CE000F040F8B87FB26841015118C4
:10956000084A241A914201D352428918B160A0429C
:10957000F0D960012843F8BD0020F8BD1804002090
:10958000303400200000C0A870B500F055FB114C2D
:1095900008212546607F203D68706069A8602069C9
:1095A0006860E07E1AF09CFCE07E04211AF098FCD2
:1095B000207E810704D50022114622206B6905E038
:1095C000400704D500226B691146242098470020EB
:1095D000207670BD3034002070B519490E46203E0B
:1095E000487EF27F8018C0B27070202801D32038E6
:1095F0007070C0B2487601252946B46981400C429A
:1096000016D100210A462B4693401C4201D0491C2A
:10961000C9B2521C52B2202AF5DBF7F71DFB00221B
:1096200010462B4683401C4205D08A4201D17070FF
:1096300070BD521C52B2401C40B22028F1DB70BDFC
:1096400030340020FEB5F84AF64F1646F979002569
:1096500010782036052902D0062976D0D4E1C0073B
:109660004FD0B878C0071ED0BD70EF4800224369C4
:1096700011460120984780203871EC48007DC007D2
:1096800001D04B2300E04E23E948816B0091826BAF
:109690008A42FAD1C818E749884201D349424018A2
:1096A000E549C8603AE0F878002837D00024FD701A
:1096B00000F0C2FA78690268D1430906090E06D0A3
:1096C0007178FF2903D0D2B28A4200D00224D64951
:1096D0000978090601D5002200E00246002102F0C7
:1096E00079FD0146D048214343697A6902209847B1
:1096F0003D71307E800711D5F07E01211AF040FACD
:109700000CE0F878002809D0FD7000F095FAC64802
:10971000002243691146012098473D713879C007FE
:109720009CD03D7100F088FA0FF070FCB87800060C
:10973000BD48436904D500221146112003E004E02E
:1097400000221146122098475EE1C1077AD039788D
:10975000C90778D07C693D7001AA0021204602F03B
:1097600039FD050008D1F078FF2805D02178FF29C0
:1097700002D0884200D00225AB480078000605D40C
:10978000002D05D168460079207016E0002D14D018
:1097900002F022FEA4487A694369294603209847CB
:1097A0007068B378F278002802D04178801C01E01C
:1097B0000021084600F060F905E1307E400718D529
:1097C0006078205C802814D1706800280CD039693A
:1097D000FF20086095483969807C48609748006898
:1097E000C168490B4903C1608F48102201781143B9
:1097F0000170706840783A2810D9914C21689148DE
:1098000082689202920E162A10D082689202920EFC
:109810001A2A03D28268120C9206F1D18020387184
:109820008248007DC0070FD04B220EE03022844BCF
:10983000D24380331A6082689202920E1A2AFAD3B7
:109840002160EBE7A0E06AE04E22794B986B009034
:10985000986B00998842F9D188187649884201D3DB
:10986000494240187449C8600021774801F002F865
:10987000307E844640074DD57C696C4A6078127D05
:10988000C000A030F968D20702D01F30400902E0C2
:109890006E4A5043400C814201D3091A02E0091A72
:1098A00064480918F960B0680A46814201D3121A67
:1098B00002E0121A5F4812186378601C185C634655
:1098C000C0001B0610D5824208D9121A07E0081AF8
:1098D00002E0091A57480818B06011E0821A202ADD
:1098E0000ED88142F5D3F2E7814201D3081A02E093
:1098F000091A50480818B060604680210843307645
:10990000F07E02211AF03CF9B07EC0065BD460788C
:10991000801E607044487A692946436951E079782D
:10992000002920D07D703D710021084600F0A2FF83
:109930003D4C2078C0060FD502F04EFD7068B3781C
:10994000F27800281DD04178801C00F095F820782E
:10995000EF210840207036E000F06EF90022114639
:10996000042063692EE03979C9072CD03D712E4C53
:10997000C006E1D400F060F90022114614206369AA
:1099800020E000210846E0E7787800281BD000247A
:109990007D7000F051F978690168CA431206120E11
:1099A00006D0F278FF2A03D0C9B2914200D0022437
:1099B0000246002102F00EFC204301461A487A6953
:1099C000436903209847307E400701D5FFF774FDB7
:1099D000174CA06B0090A06B00998842F9D1F068F9
:1099E000814201D3081A02E0091A124808187D21A1
:1099F0000902884208D90FF009FBA06B0090A06B08
:109A000000998842F9D1F160B07E400724D5F879F9
:109A1000062821D07068B378F278002818D04178F1
:109A2000801C17E0F833002010340020A4330020FD
:109A3000001000400000C0A8D83300200807002014
:109A400000E100E000C2004045960000C7100000A1
:109A50000021084600F010F8FEBD000010B5F8F730
:109A6000FFF8034800F0F0FE0249C876002010BD60
:109A70009993000030340020FFB5644D0C462868EF
:109A80009C46016881B0134689070ED0016DC90854
:109A9000C9000165016808221143016001680907D6
:109AA00003D500BF00BF00BF00BF59210165584E5C
:109AB0003068C16A072212059143012252058918B4
:109AC000C162C16A07221206914305221206891853
:109AD000C162504800680168CA094F49D2014F78F5
:109AE0007F067F0E3A4302604A6882608A6802619C
:109AF000CA6842600A69C2602868426809785208E8
:109B00005200C907C90F0A434260434F61462037DC
:109B1000FB70B9704068C00739D07868002806D15A
:109B20004921A01C19F082FE7860002810D001980D
:109B3000002810D0002C0ED07968B87808707868AA
:109B40002246447078680199801C19F053FE08E0A1
:109B5000012005B0F0BD7968B878087078680024F5
:109B6000447079682D484A780069921C19F042FEC9
:109B70002B48817C29480269601D800880001150B3
:109B800028480068C168490B49032143C160B87E79
:109B900004210843B876214C4020207000206070DA
:109BA00020710521204800F065FE0620E0711F4865
:109BB000816B0091816B009A9142F9D1FA60316812
:109BC0001B4A00200B46803312890FE01C69E40118
:109BD00009D5C86A072212051043C862C86A120173
:109BE0009043C86204E000BF00BF401C8242EDDC2D
:109BF00010480068002804D0C1680A684069024320
:109C00000A602968012008600020A2E71C040020E7
:109C10000C0700200407002010340020F833002037
:109C2000A4330020080700204596000000100040E3
:109C3000D83300202404002070B50B4C00250B48BD
:109C4000A57605716068002801D019F045FE002155
:109C50000846656000F00EFE0521002000F00AFEB7
:109C600002F0BAFB002070BD30340020F833002031
:109C7000FFB5B54F83B038680C460068800701D047
:109C800002F0AAFBB148B24D007E800708D5FFF76D
:109C90004BFC1028FBD3A97F490110398142F6D330
:109CA00039685A200865AB480068C26A072109056F
:109CB0008A43012149055118C162C26A0721090678
:109CC0008A43052109065118C162A348006801684A
:109CD000CA099F49D2014B785B065B0E1A430260AA
:109CE0004A6882608A680261CA6842600A69C26022
:109CF0003A6853680D785B085B00ED07ED0F2B4366
:109D000053600A7802231A430A70944E8021B1707E
:109D10000021F1708D4D0599297006996970C16A0D
:109D200089088900C1620168DA06914301600398DD
:109D3000002809D030692978017044702246801CBF
:109D4000039919F057FD02E03169287808607E48D0
:109D500000684068C00701D0002100E0052180486C
:109D600000F088FD7D480521C1717A497D4E096862
:109D700000200B468033328910E01F69FF010AD5AD
:109D8000CB6A07273F053B43CB62CF6A07231B06FD
:109D90009F43CF620AE000BF00BF401C8242ECD864
:109DA00004E000BF00BF00BF00BF401C8242F8D8E3
:109DB0006D480068002804D001680A688068024382
:109DC0000A60664F802038716848007DC00701D066
:109DD0004B2200E04E226648816B0091816B009B14
:109DE0009942F9D163499818884201D349424018F1
:109DF000F060287E80071ED55F483E690068804776
:109E0000A968884201D3401A02E0411A594808184B
:109E10004F49C0080978C90606D5584902240006EA
:109E200040183969086006E0A41CE4B2747000218F
:109E30003155311948704D483A69817C601D800860
:109E4000800011504E4908688268520B5203224329
:109E5000826080684B4AC004C00C3A2805D910685B
:109E60000190484B501780331860374B02201B6815
:109E7000186008688068C004C00C3A2861D900BF27
:109E800000BF00BF00BF00BF00BF00BF00BF00BFDA
:109E900000BF00BF00BF00BF00BF00BF00BF00BFCA
:109EA00000BF00BF00BF00BF00BF00BF00BF00BFBA
:109EB00000BF00BF00BF00BF00BF00BF00BF00BFAA
:109EC00000BF00BF00BF00BF00BF00BF00BF00BF9A
:109ED00000BF00BF00BF00BF00BF00BF00BF00BF8A
:109EE00000BF00BF00BF00BF00BF00BF00BF00BF7A
:109EF00000BF00BF00BF00BF00BF00BF00BF00BF6A
:109F000000BF00BF00BF00BF00BF00BF00BF00BF59
:109F100000BF00BF00BF00BF00BF00BF00BF00BF49
:109F200000BF00BF00BF00BF00BF00BF00BF00BF39
:109F300000BF00BF00BF00BF00BF00BF00BF01984F
:109F40001060002007B0F0BD1C0400203034002059
:109F5000103400200C07002004070020F8330020F4
:109F600045960000D833002024040020A4330020AC
:109F7000001000400000C0A818040020FF0280006C
:109F80000807002000E100E008B50448816B00915B
:109F9000816B009A9142F9D1104608BD0010004033
:109FA00038B51648816B0091816B009A9142F9D1C6
:109FB000134C1046217DC90705D0124900F004FE5C
:109FC0008A04810B04E0192100F0FEFDCA05410A54
:109FD00011430D4A906988420DD0884201D2081A77
:109FE00007E0237DDB0701D0084B00E0084B181A7F
:109FF0004018916138BD002038BD000000100040BD
:10A00000A433002033030000D833002000796F0808
:10A0100000603D08034930200874034901200860AE
:10A020007047000020100040F8030020FFB581B009
:10A030000C460746054600261AE0FF219131681EAE
:10A04000F6F720FE00290AD06421681EF6F71AFEF2
:10A05000002907D00320A9078007C14202D1FF20B1
:10A060006F3001E0FF206E3080196D1E86B2ADB2F8
:10A0700035488542E1D80025012C25D9032C05D08F
:10A08000A01E062816DDE00718D115E0FF2191314A
:10A090003846F6F7E1FD00290AD064213846F6F784
:10A0A000DBFD002901D0B80702D000201C3006E0FB
:10A0B0000120FBE7E00701D01E2000E01F208019EF
:10A0C000641E86B2A4B2D7E7039818213018401E48
:10A0D00084B20498F6F7C0FDE120C00041430A981D
:10A0E0001E22504309180B984008081881B20B989B
:10A0F000C00701D00120C0030A0402431348C17BFA
:10A100006B46C909C9011970C17B1B78C909C9010E
:10A110009942F4D1694609780029F0D00B495723B8
:10A1200020310B70A8230B70084B203B5C63447CF0
:10A130008026344344745A63427C40231A43427459
:10A140000D7005B0F0BD0000E407000020100040D5
:10A15000002908D0002A02D105E008C808C2491E1B
:10A16000FBD200207047FD20704738B50D46040033
:10A1700019D0002D17D00321684617F005F869465D
:10A18000887840218006800E0843694688702A46F8
:10A19000204617F020FE040006D103226946E81C81
:10A1A00019F028FB00E00224204638BDF7B58CB03A
:10A1B0000C9815460F46002831D0002D2FD0381DA1
:10A1C0000A9080B2532119F031FB04003BD008F013
:10A1D000A5F906463A46201D0C9919F0C7FCF0B2C5
:10A1E0000990E0703004000E0890A0703002000E5C
:10A1F00007906070370E277008F08AF90146102228
:10A2000001A819F0B3FC082000900A9805AB82B2AF
:10A21000214601A817F04CFD060002D00FE00226EF
:10A2200012E009982870089868700798A870EF7075
:10A23000082205A9281D19F099FC08F075F9204697
:10A2400019F04AFB00E0132630460FB0F0BD0000C5
:10A2500010B5024600F01EF8044806218270104630
:10A26000FBF752FC02480DF085FB10BD1A070020D9
:10A270003513020005480649C078000702D5084694
:10A280000C3000E000204860002070471A070020D2
:10A290006C0700200A490020086048608860084870
:10A2A00008490C300160084941600849816008494B
:10A2B0000C30016007494160074981607047000028
:10A2C0006C070020D7210200D511020049A400002C
:10A2D0006F26020071180200F116020070B50646E2
:10A2E0000D4608460DF0F4F900280ED0446B002C02
:10A2F00006D0E078022805D0032803D0042801D036
:10A30000122070BDA088A84201D0022070BD10228A
:10A310003146E01D19F06EFA20462C30102105461A
:10A3200016F032FF23461C332A46E11D204617F063
:10A330007FFD207802210028607803D0032807D110
:10A34000617009E0042802D0032803D000E06170A6
:10A35000002070BD05206070204616F0E9FE70BD3B
:10A36000F8B50D46080417D51B4EB07819F07EFBE2
:10A37000040009D017F078F9002809D17078FF2877
:10A3800006D0214619F0AAFB0120C0036840F8BDA1
:10A39000204619F043FBF7E7E8070127002804D01F
:10A3A00016F0D8FF28467840F8BD002D12D00124C1
:10A3B0000CE03846A04086B2354205D0304617F052
:10A3C00069FC28467040F8BD641CE4B20DF098FAB0
:10A3D000A042EED80020F8BD1A0700207CB50D463B
:10A3E000040015D0002D13D00322E91C684619F093
:10A3F00001FA6946887840218006800E0843694644
:10A40000887001AA204617F0E6FC040002D009E09B
:10A41000022407E00322294601A819F0DDF90128EA
:10A4200000D0012420467CBD05480649C07840077D
:10A4300002D50846183000E00020886000207047F0
:10A440001A0700206C070020FFB50F4683B01E4698
:10A4500014465321102019F0E9F9050029D0002FE6
:10A4600022D069460C72200A487210220021284628
:10A4700019F0B8FA394628460C9A19F0BBF9002EA3
:10A4800005D008223146684619F0B4F904E00822E4
:10A490000021684619F0A6FA2B4602AA69460398DD
:10A4A000FAF702FF044600E00224284619F014FAE5
:10A4B00000E01324204607B0F0BDFFB581B01F4671
:10A4C00003980DF005F9060005D0706B00250028F3
:10A4D00004D011253AE0022005B0F0BD1320F9F7B1
:10A4E000FDF9C4B21420F9F7F9F9C1B2002F2CD04C
:10A4F000387EA04229D3884227D85321702019F0F2
:10A5000095F90446706320001DD07022002119F0D7
:10A5100069FA00206070019921700299A170039975
:10A52000A180E765A061E0700198002803D0204673
:10A5300016F010FE054601206070002D06D0304652
:10A5400016F0CEFD02E0132500E002252846C3E701
:10A55000FFB587B00998109D0E4600281FD0002D2A
:10A560001DD007980DF0B4F804001BD05321102023
:10A5700019F05CF9019000285FD069782878090209
:10A580004018A978EA78090412068918411806913A
:10A59000A06A884208D3401C06D0022449E0022069
:10A5A0000BB0F0BD1420FBE7002E02D0207980070D
:10A5B0003ED50822002102A819F014FA0A9F53215F
:10A5C0003F1DB8B219F032F906002FD0301D0A9A9B
:10A5D000099919F0CBFA04222946304619F0C6FA37
:10A5E000214610221831019819F0C0FA0820009075
:10A5F000BAB202AB3146019817F05AFB04000CD1F5
:10A60000082202A904A819F0B1FA0822291D04A8F9
:10A6100019F0E2F8012804D00124304619F05CF961
:10A6200007E00699079809F08DF8F6E7132400E093
:10A630000124019819F050F900E013242046AFE7F7
:10A64000014880697047000000E000E070B50546F1
:10A65000002409490948F9F7EDFC09480DF08AF989
:10A66000E80706D0074B102211210748F9F7B4FE7E
:10A670000446204670BD000076330020FFFF000036
:10A68000F50E02007C0300206C020020002803D09D
:10A690000249486000207047112070475C0200208A
:10A6A00070B515460024030000F0A6FA05040A1050
:10A6B000171E2900152919D11522294611481BE01A
:10A6C000012913D1012229460F4815E015290DD182
:10A6D0000C481522294615300EE0132906D10948E9
:10A6E000132229462A3007E0052901D0182407E063
:10A6F000054805222946083019F07CF800E00224BC
:10A70000204670BD383300205C02002010B50B4895
:10A7100057210170A8210170084A8821403A11810F
:10A720000189042211430181002101700A2010F0E7
:10A7300099F80120FDF72EFF10BD000040100040E9
:10A7400070B50C46014620040AD5084619F08EF96A
:10A75000002801D019F062F90120C003604070BDEB
:10A760006004FCD0002632462046D040C00713D0FB
:10A77000002901D00F2000E000200B498018496813
:10A78000C00045180120904086B229686868884753
:10A7900000202860686003E0521CD2B20F2AE3D385
:10A7A0002046704070BD0000FC0300200148406955
:10A7B00070470000D833002070B519F0E3F81C2270
:10A7C00000211E4819F00EF91C48202200215030AB
:10A7D00019F008F91A4D0020286168611748174CD4
:10A7E0001C30007F50348107890F80080818410011
:10A7F00040180D30C0B2A07006214843FF2102313D
:10A80000F03019F013F86860F030A860A178890082
:10A810000818E86019F024F919F0E8F96078094A95
:10A820008100A86842506178491CC9B261708900F2
:10A8300042506078401C607070BD0000883300207A
:10A84000FC03002041A7000010B5084902464878E3
:10A850008B78984207D2064C8300A468E2504A786D
:10A86000521C4A7010BDFF2010BD0000D8330020DC
:10A87000FC030020072902D2014A8900505070478A
:10A8800088330020FEB5864D02E0804702F00AF8CA
:10A8900028680028F9D10124A0002858002807D0F2
:10A8A00080477F481C30407D002801D0F7F754FADC
:10A8B0002868002875D1641CE4B2072CECD3784CCE
:10A8C000784E50346278F06821784B00C35A002BE0
:10A8D00004D1491CC9B221709142F5D3C9B2914249
:10A8E00011D24A00815A002383522078B368820033
:10A8F0009A5890472178F2684900535A03435352BB
:10A900002078401C207020786178884201D3002094
:10A91000207063480068002843D17069002840D047
:10A92000804700283DD06169054609186161002112
:10A93000C9435C4821610669002E29D00027B06810
:10A94000A84201D8002000E0401BB06054481C30F1
:10A95000406A002804D02169B068814200D9206192
:10A96000B06800280DD1718800291BD0307819F00B
:10A9700007F97068002801D0B06002E0B0680028D4
:10A9800010D0708800280DD03746F668002ED6D13A
:10A99000434D1C35686A002803D00020414A617885
:10A9A00014E07CE0002F06D0F068F8603046F668CE
:10A9B00018F092FFEAE73B48F1680161F6E7D668D4
:10A9C0004300F35A002B6AD1401CC0B28142F6D832
:10A9D0003349032082008A58002A60D1401CC0B24B
:10A9E0000728F7D301A8FBF7A9FE02462E49401C11
:10A9F00024D0EB7C019EB34251D22069471C16D073
:10AA00002A7DD20702D01422504302E0292250436B
:10AA10004008834243D2864200D23046C61A2348B9
:10AA2000826B0092826B009B9A42F9D11DE09A42A0
:10AA300001D3D01A1FE0D01A40181CE02069421C34
:10AA40002DD02A7DD20702D01422504302E02922C1
:10AA500050434008EA7C824221D2861A1348826B16
:10AA60000092826B009B9A42F9D19819884202D3D6
:10AA70000D4A52428018002802D0696A884702E0D5
:10AA80006A6A084690470006000E08D1208900280F
:10AA900005D0F7F787FBFBF7A3F8F7F7BFF8FEBD84
:10AAA00088330020FC0300200000C0A800100040F4
:10AAB00010B504460848C16A002900D088470748F5
:10AAC000002C01D0046001E005490160054800F058
:10AAD0000BF8002010BD0000A43300201804002053
:10AAE000899F0000A19F000010B50349486180477D
:10AAF0000249886110BD0000FC030020D83300200B
:10AB000010B50446FAF710FA0A214843C008214656
:10AB1000F6F7A2F80A21401DF6F79EF80149888150
:10AB200010BD00000034004010B5E1204002FFF7E6
:10AB3000E7FF0548872181700321C17040214170E2
:10AB40000121817310BD000000340040F0B5144EA7
:10AB5000FD23757A84247472124CA768002F07D0E5
:10AB6000A77B002F04D0A489E71FFF3FFA3F02D044
:10AB70007572FF20F0BD7D24E402A0420AD3402775
:10AB8000491E07D3706008CA33609A233372B37AC0
:10AB90007B4002D075721846F0BD001DF0E7000042
:10ABA00000180040A43300200FB410B503A9044BD3
:10ABB000044A029800F0E8F810BC08BC04B018473A
:10ABC0006513010054090020F8B5040C8BB2264629
:10ABD00082B25E430D0C1046370C58433604801980
:10ABE0000021794116466E43370C360480197941AD
:10ABF00026466E438919F8BD30B47446641E257824
:10AC0000641CAB4200D21D46635D5B00E31830BCA0
:10AC1000184702E008C8121F08C1002AFAD170477D
:10AC20007047002001E001C1121F002AFBD17047CC
:10AC300010B51C4613468C4205D822461946F6F735
:10AC4000A8F8204610BD002010BD0000FFB5044646
:10AC500081B080680D9E1D460F4600280ED04549E4
:10AC60000968002904D1002D02D00A2005B0F0BDEA
:10AC70004169002904D10B99002901D00720F5E78B
:10AC8000002F40D0039802F0E3F8002870D0A068AD
:10AC900001218088C903421A49108A4204D203F074
:10ACA000D9FA002119F0A7FBA0684189C904C90C91
:10ACB0004181A0688780A168039AC8881205000BAB
:10ACC0000003120D1043C880012212039043EA07CB
:10ACD000D20CA1681043C880A1680A980872A168C4
:10ACE0000B988872A1680C984872A0684069002887
:10ACF00036D0204603F0A2FC0100A0682DD0183009
:10AD00000BF0F4F92CE080880028AFD00121C903B2
:10AD1000421A49108A4204D203F09CFA002119F029
:10AD20006AFBA06800228280A1680123C8881B03F7
:10AD3000000B0003C880A1689843C880A068027215
:10AD4000A0688272A0684272A0684189C904C90CD7
:10AD50004181A0684169002902D018300BF0A8F9A0
:10AD6000002E02D0204605F004F900207EE7FFE720
:10AD700003207BE79C08002010B502998A78098897
:10AD800010F0F2FE10BD0000FFB591B00F46054671
:10AD9000002606E025280AD0149A139990476D1CC6
:10ADA000761C28780028F5D1304615B0F0BD002477
:10ADB00000940121F34A029400E004436D1C2B78B7
:10ADC0000846203B98401042F7D128782A280ED018
:10ADD000022128780246303A092A15D8009A0A2317
:10ADE0005A43303A80180C436D1C0090F1E701CFB4
:10ADF0000090002805DA01204003044300984042F7
:10AE00000090022004436D1C28782E2815D10420C0
:10AE1000044368786D1C2A280AD101CF6D1C02906A
:10AE20000BE002990A225143303940186D1C029000
:10AE30002878014630390929F3D928786C2810D0B0
:10AE400006DC4C281AD068280ED06A2817D104E0F6
:10AE5000742813D07A2812D110E001204005044351
:10AE60000CE00121090501E0032109050C43697883
:10AE7000814203D10120000524186D1C6D1C287827
:10AE800003906E281ED00CDC632831D004DC00282F
:10AE90008AD0582811D1B2E064287BD069280CD11F
:10AEA00078E073282DD004DC6F2870D0702804D18E
:10AEB000A7E075286CD078286BD0149A1399904726
:10AEC000761C62E06002400F022807D003280AD0F7
:10AED000042838680AD006603F1D56E03868F1172C
:10AEE00006604160F8E738680680F5E70670F3E72A
:10AEF0003878694608740020487404A8039001203B
:10AF000003E0386803900020C0433F1D61070FD560
:10AF1000002101E00199491C029A0191914213DA42
:10AF20008142F7DB019A0399895C0029F2D10BE099
:10AF3000002101E00199491C01918142FADB019A4B
:10AF40000399895C0029F5D101990098139A401A58
:10AF500000902146149B00F03BF901998019461896
:10AF600007E0039803990078491C0391149A1399F8
:10AF700090470198401E0190401CF2D12146149B3D
:10AF8000139A009800F014F986196D1C09E741E046
:10AF900033E034E00A200021049005916002410F63
:10AFA000022905D001CFC2179446032905D007E036
:10AFB000FF1DFF08FF0003CF06E000B2C217944652
:10AFC000042902D140B2C1178C4600226146944543
:10AFD00006DA0A460021404291418C462D2102E0CA
:10AFE000210504D52B216A461176012103E0E107F2
:10AFF00001D02021F7E7019154E00A200BE0102056
:10B0000009E0102004900021042004430820059149
:10B01000029003E008200021059104906002410F96
:10B02000022905D001CF00229446032906D006E06C
:10B03000FF1DFF08FF0003CF8C4603E080B2042908
:10B0400000D1C0B20021019121072BD503997029AD
:10B0500006D0049A1021059B4A401A4305D00EE001
:10B0600040216A461176012108E06146014306D07D
:10B0700030216A4611760399517602210191049A92
:10B080000821059B4A401A430CD16146014301D176
:10B09000610707D530216A46117601210191029995
:10B0A000491E02910399582904D037A103910FA991
:10B0B0000F910DE039A1F9E76146059B049AF5F778
:10B0C000BFFE039B8C469B5C0F9A521E0F9213701F
:10B0D00061460143F0D10F9807A9081A2030039068
:10B0E000600704D5012000048443029801E0012098
:10B0F00002900399884201DD401A00E000204118C7
:10B100000290019809180098401A0090E00306D4B4
:10B110002146149B139A009800F05AF886190020D3
:10B12000049008E006A9085C149A139990470498C3
:10B13000401C761C049001998842F3DBE0030CD597
:10B140002146149B139A009800F042F8861904E0F7
:10B15000149A302013999047761C0299481E029049
:10B160000029F5DC08E00F980F990078491C0F9131
:10B17000149A13999047761C0399481E039000294E
:10B18000F1DCFBE609280100303132333435363743
:10B190003839616263646566000000003031323323
:10B1A00034353637383941424344454600000000C3
:10B1B000F8B5044600251E461746880404D405E069
:10B1C00039462020B0476D1C641EF9D52846F8BDCD
:10B1D000FFB50446002581B01E46C80301D53027BF
:10B1E00000E02027880404D505E038460399B047DD
:10B1F0006D1C641EF9D5284605B0F0BD134610B588
:10B200000A461946F5F7D9FD10BD000070B500F0EB
:10B210001BFA1C214843042110F07CFD0625ED4358
:10B22000002818D00D4CE06000F00EFA1C214843B5
:10B23000042110F06FFD00280DD00949086000F0CE
:10B2400003FA208000F000FA60800648A0600648FB
:10B250006060002070BD284670BD0000C035002031
:10B260002C0600209C53020089B6000010B50CF09B
:10B27000B7F918214843042110F04CFD002803D0F1
:10B2800003498860002010BD0620C04310BD0000A7
:10B290005006002070B506F003FB441C06F0FAFAD5
:10B2A00044431C206043042110F034FD0625ED4387
:10B2B000002821D0114CE06006F0F2FA461C06F09E
:10B2C000E9FA46437000022110F024FD002813D053
:10B2D0000B49086106F0E4FA451C06F0DBFA454329
:10B2E000258006F0DDFA451C06F0D4FA454365805A
:10B2F0000448A060002070BD284670BDE4390020DD
:10B30000800800209C530200F8B53E4F38680028A2
:10B310002DD006F0BFFA68214843042110F0FAFC52
:10B3200000286CD0384E002430621CE006F0C4FACD
:10B330004000022110F0EEFC002860D06822254673
:10B3400055432A46316A1032885006F0AFFA0C2174
:10B350004843042110F0DEFC002850D0316A30351B
:10B36000641C4851E4B206F095FAA042DED82749A1
:10B3700038680968264D084309D006F08BFA4A213F
:10B380004843022110F0C6FC002838D0E86000F0E5
:10B39000F3FC28214843022110F0BCFC00282ED0E9
:10B3A000194C8034606217F0FBFEE421484304210D
:10B3B00010F0B0FC002822D0A06213F08BFD002812
:10B3C00008D013F087FDC000042110F0A3FC002872
:10B3D00015D0E06212F070FE16214843022110F0F1
:10B3E00099FC00280BD0206210F08EFC8000042114
:10B3F00010F090FC002802D068600020F8BD062004
:10B40000C043F8BD80080020543600209C0800206E
:10B410007806002070B500240A4D13F0A7F940000B
:10B42000022110F077FC002809D05421614349190A
:10B43000641C24064860240EEFD0002070BD062056
:10B44000C04370BD2C3A002070B500F095FC044656
:10B4500017F0A6FE20184000022110F05BFC062524
:10B46000ED4300280CD0074C606012F025FE8000F0
:10B47000022110F04FFC002802D0A060002070BD17
:10B48000284670BD8806002070B518F07DFE482162
:10B490004843082110F03EFC0626F643002838D029
:10B4A0001D4D002468600EE018F074FE8000042139
:10B4B00010F030FC00282CD0482161436A68641CDD
:10B4C0008918E4B2486018F05FFEA042ECD813F08F
:10B4D0007DFD8001082110F01DFC002819D00024FA
:10B4E000A86010E013F06CFD0C21F5F7B5FB8000AF
:10B4F000042110F00FFC00280BD0A101AA68641CE5
:10B500008918E4B2486013F061FDA042EAD8002037
:10B5100070BD304670BD0000DC0600200368826804
:10B520009A4201D2436899548168491C81607047EE
:10B530000149FF2008707047C806002070B5044616
:10B54000007EFF2801D102F0FDFA32214843054672
:10B5500000219635E0690A46012633468B400342B6
:10B5600001D0521CD2B2491CC9B22029F5D3E07DCA
:10B570006421C006C00E801A48434019FF212D31B6
:10B580006430884200DC084670BD0000F7B582B028
:10B590001746054602F07AFA044603980021281857
:10B5A000401EC94386B2002C1BD0002D19D00120AB
:10B5B000C003854215D2002E13D0864211D20398C3
:10B5C00000280ED004F04AF82289411E511889B291
:10B5D000864209D38D4207D8002F1FD0491C3980DD
:10B5E0001CE0084605B0F0BD11480024009019E0A9
:10B5F0000098016A16206043081842880D498A4263
:10B600000FD00188027D481E101880B28E4208D3E8
:10B61000854206D8002F01D0401C38800520C04349
:10B62000E0E7641C12F048FDA042E1DC0020D9E70D
:10B63000D4360020FFFF00001C214843014909685F
:10B64000401870472C0600200148006800787047B9
:10B650003806002010B50022D2430D21002001F051
:10B660008FFA10BD10B5C08901F03AFE10F0C1FC90
:10B6700000F01CF9002803D0018A02480AF036FDC8
:10B6800010BD0000A4350020416908394161C16046
:10B69000418A08314182018A0831018270470000E5
:10B6A000F0B52C489FB0006C1D9004A800242A4ED1
:10B6B0001C900194029403941E90708837460C3FAE
:10B6C000002802D1B868006880896946C880B088BF
:10B6D0000881F169486900282AD0F279002A21D02E
:10B6E000521EF271307C6A4690730A8AC9681CA89F
:10B6F00010F0C7FB0094B868002300681CAA01A9D9
:10B7000003F0A4F805001FD0124914A02931FFF757
:10B710004BFA294615A0FFF747FA1DA0FFF744FA98
:10B72000F069406918F07AF9F06944611FB0F0BD22
:10B7300008490AA02931FFF737FA16A0FFF734FAB3
:10B7400013A0FFF731FAF1E701213878B26818F059
:10B7500069FBEBE750510200B40100204150505FFB
:10B760004442472025733E2000000000556E616270
:10B770006C652073656E64206D6F64656C206D650B
:10B78000737361676520286572723A256429000029
:10B790000A0000004E554C4C206275660000000007
:10B7A00030B52A489FB0806F1D9004A81C901E9051
:10B7B0000020274C019002900390608825462C3D84
:10B7C000002802D1A868006880896946C880A088DE
:10B7D0000881E0694169002929D0E179002932D046
:10B7E000491EE171217C6A469173028AC1681CA8D6
:10B7F00010F047FB0094A868144B0068803B1CAA1B
:10B8000001A903F023F804000FD0104911A05E3104
:10B81000FFF7CAF9214613A0FFF7C6F91AA0FFF7F0
:10B82000C3F921460A4819F074FA1FB030BD074920
:10B8300008A05E31FFF7B8F914A0FFF7B5F912A020
:10B84000FFF7B2F9F1E71621C943EBE750510200C7
:10B85000D40100204150505F4442472025733E20D0
:10B8600000000000556E61626C652073656E642097
:10B870006D6F64656C206D65737361676520286505
:10B8800072723A25642900000A0000004E554C4CA3
:10B89000206275660000000000487047D035002027
:10B8A0000149087170470000D035002010B50548E7
:10B8B00017F05AFD002801D0002010BD0148006893
:10B8C000143810BD30060020014948607047000060
:10B8D000C806002001480068C0787047380600207C
:10B8E00070B505468AB0164816468069029006A8CB
:10B8F0000C460190039004AA05A930460AF0D5FC35
:10B90000104901A802F071FE6846018A0023808A6E
:10B91000326800F02FF9014601A810F0BDFA684620
:10B92000028A818A01A80AF0B1FC00200346009037
:10B9300001AA2146284602F089FF0AB070BD000026
:10B940003C57020003800000F0B5044625680888D3
:10B95000AD8B0026F64387B0A84210D1257DA807FD
:10B9600005D50879002802D00846163000E0481DA9
:10B9700008A9097C07788906890EB94202D03046A9
:10B9800007B0F0BD0A49ED070968ED0F491B65894D
:10B990002489059104920F990395019300910294D3
:10B9A0000021401C0E9B0D9A01F0BDF9E8E7000054
:10B9B0005436002070B506468AB01F481346006B07
:10B9C000029006A80D460190039004AA05A9184606
:10B9D0000AF06BFC6846808A04F0B2FB00280CD0A9
:10B9E0006846008A01F034FA002808D06A460188C7
:10B9F000928A91421CD0112402E0042400E0002429
:10BA00000E4901A802F0F1FD214601A810F044FA08
:10BA10006846028A818A01A80AF038FC00200346A1
:10BA2000009001AA2946304602F010FF0AB070BD0E
:10BA3000012101F0F3F9E2E73C5702000380000026
:10BA4000F7B529498AB0C96B029104A90191104642
:10BA5000039110F050FA25490646884242D82449FD
:10BA600001A802F0C2FD304604F06AFB00280BD0AA
:10BA70000024214601A810F00FFA314601A810F069
:10BA8000F3F9002C26D101E00424F2E7194C1A48FE
:10BA900000252746009013E00098416A282068435B
:10BAA00008180188B14209D1BC4201D1448805E09F
:10BAB0004288214601A80AF0E9FB3C466D1CADB264
:10BAC00000F05AF9A842E7D8BC4203D0214601A8A9
:10BAD00010F0CAF900200346009001AA0B990A98B9
:10BAE00002F0B4FE0DB0F0BD3C570200FF0F0000A5
:10BAF00002800000FFFF0000D4360020F8B50646A3
:10BB000000240B4D0B4F0CE02820696A6043081895
:10BB10000188B94204D04088B04201D10120F8BD6B
:10BB2000641C00F029F9A042EEDC0020F8BD000002
:10BB3000D4360020FFFF000030B50C480C494068A7
:10BB400085B0C068144688420ED1104610F0E8F95E
:10BB50000546204610F0CFF9694608810020039081
:10BB60002946684604F0EAFD05B030BD48060020CD
:10BB700002800000FFB581B0064604F0E1FA07003C
:10BB800035D0029801F064F90446049800281DD0CD
:10BB9000002C05D02088B04204D0112005B0F0BDA3
:10BBA0000320FBE72546F87F1635012809D12079C7
:10BBB000002808D01022681C0399F5F725F9002801
:10BBC000ECD00B20EAE70120207118E0002C10D007
:10BBD0002088B04206D11022A01D0399F5F714F970
:10BBE0000028DBD02088B04201D10620D6E704200F
:10BBF000D4E7029801F0FAF804000DD0651D29463B
:10BC0000039802F0CFFA002808D00498002801D049
:10BC1000002020710920C1E70520BFE72680029897
:10BC200060801022681C0399F5F7B3F8204604F0F1
:10BC300055F90020B2E7F0B589B01E4617460C460C
:10BC4000002814D01022002117F07EF985B2002CB4
:10BC500011D023236A46314638460EF02DFF0028C6
:10BC600007D1284601F0F4F804000ED012E00720B6
:10BC7000C04309B0F0BD284601F0EAF8002802D020
:10BC8000002101F0CBF80020F3E7284601F0AEF8E0
:10BC900004001ED068460088208065806846807851
:10BCA000207100A91022A01D0331F5F772F820467B
:10BCB000173004A9102205460331F5F76AF8A01DD4
:10BCC000611D02F06FFA21462846163102F06AFA29
:10BCD000D9E70820C043CCE730B50B480B49406892
:10BCE00087B0C068144688420CD1104610F018F98D
:10BCF000054606AA05A920460AF0D7FA294668464D
:10BD000004F01CFD07B030BD480600200380000091
:10BD100070B505468AB016481646406A029006A8D5
:10BD20000C460190039004AA05A930460AF0BDFA1A
:10BD3000104901A802F059FC6846018A0123808A53
:10BD40003268FFF717FF014601A810F0A5F8684612
:10BD5000028A818A01A80AF099FA0020034600901D
:10BD600001AA2146284602F071FD0AB070BD00000C
:10BD70003C5702000380000001480068007A7047C9
:10BD800038060020FFB583B00C9C1646002C01D06D
:10BD9000002708E001270398F5F7C0FC0421F9F714
:10BDA0000FFF040014D0267004980125002805D048
:10BDB000049A601C06999047401C85B2300614D541
:10BDC000102103980BF00AFE002804D0192616E073
:10BDD000132007B0F0BD621929462046FEF7E6F9A8
:10BDE0000C350646ADB2002809D10420694608800A
:10BDF00001944D800398F9F79DFE0600E9D0002FCD
:10BE000002D0204617F068FD3046E2E7F8B5074655
:10BE1000069800901E4614463846FFF7B3FF05000B
:10BE20000BD107480268002A07D0012C02D13078D4
:10BE3000401CC4B22146384690472846F8BD000051
:10BE40002407002010B513F0F1FE10BD083807D00C
:10BE50004168002904D04969002901D000680847D9
:10BE6000704770B50C46054600F005F82146284697
:10BE700013F0DCFE70BD10B50446104610F050F80B
:10BE80000146204601F01AF910BDF0B51F460B46D9
:10BE9000014685B015460446213108220A9E1846FF
:10BEA0000391F4F7B1FF00280FD101A800902046BC
:10BEB0003B4629464930039A01F030F9082201A98E
:10BEC0003046F4F7A1FF002802D0002005B0F0BDF5
:10BED0000120FBE7FFB51F4685B0484B0E9D0F9C28
:10BEE0009868002A0BD0027D002A08D00269002A37
:10BEF00005D00120607020700020E0707AE0427D63
:10BF0000AA4200D21546C08AC20606D50A0704D541
:10BF1000032024260390042018E0000713D04807CC
:10BF200011D048070A26400F08F0F4FF401EC0B2A7
:10BF3000039032488068807D0007000F08F0EAFF18
:10BF4000401EC0B202E00026304603962B49019005
:10BF50008868027EBA4200D21746408B020708D595
:10BF6000059AD20605D524200090042002900320D3
:10BF70001BE0400716D00598000713D00A20009058
:10BF800005980007000F08F0C5FF401EC0B20290E0
:10BF90001A488068807E4007400F08F0BBFF401EB3
:10BFA000C0B202E000200090029000993A464A4355
:10BFB0002B46734303219A4209D9022262702170F1
:10BFC0000299E170A0706771277109B0F0BD002E71
:10BFD0000BD0002D09D06170022020700398E07012
:10BFE0000198A07065712571EFE7002060702070E6
:10BFF000E070A07060712071E7E70000C8060020C3
:10C0000010B50C460AF0A9F8206010BD30B5054601
:10C010000D4887B0806C029004A80C4601900390F4
:10C020000A4901A802F0E1FA01F0F4F8014601A87A
:10C030000FF032FF00200346009001AA2146284657
:10C0400002F004FC07B030BD3C5702000B8000003A
:10C05000F8B504F081FA002801D0642130E001F045
:10C06000FDFF002830D01A490878002804D00020AD
:10C070000870002816D101E00120F9E70024154DD1
:10C08000154E27460AE0E420A96A60430818818B10
:10C09000B14202D0417901714771641C17F080F8F8
:10C0A000A042F0DC13F014FA01F0B4F8012806D035
:10C0B00008480321783800F0C2FF002803D0074960
:10C0C00007480AF013F8F8BD18F0E4F8F8BD0000CE
:10C0D00044060020D4360020FFFF00001027000097
:10C0E0000036002070B50546194886B0406D0290B4
:10C0F00004A801900390AC6A0E46002C13D010687F
:10C100000078002801D001281FD1E17988420AD0A7
:10C11000E07103F00BFFE079002802D001F056F83F
:10C1200001E001F043F80B4901A802F05EFA01F0CA
:10C1300071F8014601A80FF0AFFE00200346009001
:10C1400001AA3146284602F081FB06B070BD00000E
:10C150003C5702000B80000000B50849084B4968B5
:10C1600085B0C9681046994205D10FF0D9FE014645
:10C17000684604F0E3FA05B000BD00004806002060
:10C180000B800000F7B5064611F034FDFFF762FAA8
:10C1900004001AD00E4D20460C300746E96A0FF015
:10C1A00057FE002138460FF077FEB000C01CC1B228
:10C1B00038460FF071FE3846029A01990FF061FE81
:10C1C000EC6414F095F80020FEBD0620C043FEBDCF
:10C1D0006838002030B5437803245B1D2343C45CDA
:10C1E000E50601D5012030BD002903D0210601D587
:10C1F000022030BD002A03D0C1182039C97F117038
:10C20000C1182039487F897F4907490D08430449EF
:10C21000420502D51F22D20210430880002030BD03
:10C220002004002070B50D46044617F083FC2D1B3A
:10C2300002460023E9172846F4F75EFD081980B28C
:10C2400070BD70B50D46044617F074FC00232D1B1D
:10C25000024628461946F4F74FFD081970BD70B51F
:10C260000D46044617F066FC2D1B02460023E91715
:10C270002846F4F741FD0819C0B270BDF0B5364E3E
:10C280009446326813689B0713D0136DDB08DB00FC
:10C290001365136808242343136013681B0703D531
:10C2A00000BF00BF00BF00BF136DDB08DB005B1CDD
:10C2B00013652A4F3B68DC6A07221205944301226A
:10C2C0005205A218DA62DD6A072424060522A54376
:10C2D0001206AA18DA62224A1368DA6A92089200F1
:10C2E000921CDA621D680122120715431D601A684C
:10C2F0006546D209D2016D066D0E2A431A60986018
:10C3000018615960D9603068416801231943416060
:10C310003968144D00200A4680322D890EE01769D5
:10C32000FF0108D5C86A072212051043C862C86A0F
:10C33000A043C86204E000BF00BF401C8542EEDCA1
:10C3400009484068002804D0C1680A68406902436F
:10C350000A6030680360F0BD1C0400200C07002058
:10C3600004070020D83300202004002010B5144A10
:10C37000592113681965134909680B684024DB09C2
:10C380002043DB014006400E03430B600E4808616A
:10C390000E48C8600E49002048701068416849087E
:10C3A000490041600B484068002804D0C1680B6810
:10C3B000406903430B6011680120086010BD000054
:10C3C0001C040020040700202941767155555500B2
:10C3D000F83300202004002010B5144800680168DC
:10C3E00089070ED0016DC908C900016501680822DE
:10C3F000114301600168090703D500BF00BF00BFFA
:10C4000000BF002202650A4B586800280AD0416824
:10C410000C68806804430C60586801690B684069C7
:10C4200003430B600348C27110BD00001C040020D0
:10C4300020040020F8330020FFB5804C0646206819
:10C440000D46016881B0174689071AD0016DC908E9
:10C45000C900016501680823194301607848407DDF
:10C46000002801D0F5F778FC20680168090703D59A
:10C4700000BF00BF00BF00BF016DC908C900891C13
:10C480000165704A1068C16A07231B05994301239F
:10C490005B05C918C162C16A07231B0699430523BE
:10C4A0001B06C918C1626848006801687B06C90993
:10C4B000C9015B0E19430160866006614560C56075
:10C4C000C16A89088900C162016801231B07994379
:10C4D00001605E4D2B6898680499400B4003084347
:10C4E00098605648006841680124214341605848DB
:10C4F0008178A14381701168564E00200C4680342B
:10C5000032890FE02669F60109D5CC6A072636057F
:10C510003443CC62CC6A3601B443CC620AE000BF3B
:10C5200000BF401C8242EDD804E000BF00BF00BF46
:10C5300000BF401C8242F8D89868474BC004C00C2A
:10C540003A2805D91F6830204349C043803108602C
:10C5500042484068002804D001680A6880680243A5
:10C560000A60364802210068016028688068C004BB
:10C57000C00C3A2860D900BF00BF00BF00BF00BF99
:10C5800000BF00BF00BF00BF00BF00BF00BF00BFB3
:10C5900000BF00BF00BF00BF00BF00BF00BF00BFA3
:10C5A00000BF00BF00BF00BF00BF00BF00BF00BF93
:10C5B00000BF00BF00BF00BF00BF00BF00BF00BF83
:10C5C00000BF00BF00BF00BF00BF00BF00BF00BF73
:10C5D00000BF00BF00BF00BF00BF00BF00BF00BF63
:10C5E00000BF00BF00BF00BF00BF00BF00BF00BF53
:10C5F00000BF00BF00BF00BF00BF00BF00BF00BF43
:10C6000000BF00BF00BF00BF00BF00BF00BF00BF32
:10C6100000BF00BF00BF00BF00BF00BF00BF00BF22
:10C6200000BF00BF00BF00BF00BF00BF00BF00BF12
:10C6300000BF00BF00BF1F6005B0F0BD1C0400209C
:10C64000A43300200C070020040700200807002066
:10C65000F8330020D833002000E100E0200400205F
:10C6600010B51D4909688A68520B520302438A605B
:10C670003A282ED9194A1168194883689B029B0EE3
:10C680003E2BFAD083681B0CDB439B060CD08368DF
:10C690009B029B0E332B03D283681B0C9B06ECD1B1
:10C6A000FFF79AFE002010BD30230C4CDB43803492
:10C6B000236083681B0CDB439B06FAD083689B02D4
:10C6C0009B0E302B04D383689B029B0E332BF0D33D
:10C6D0001160012010BD00000807002000E100E00B
:10C6E00000C20040F0B5614E04463068174600684D
:10C6F0000D46800701D0FFF76FFE31685A200865AC
:10C700005B49002D0868026809D04023D2091C4308
:10C71000D20163065B0E1A430260564A07E0D20953
:10C72000D20163065B0E1A430260524AD243826012
:10C73000096851484860514A11688868400B4003B5
:10C74000384388604E4B0020D870306843685B08DF
:10C750005B0043604B4B00201B8904E000BF00BF1F
:10C7600000BF00BF401C8342F8D88868464BC00415
:10C77000C00C3A2805D91D6830204349C043803198
:10C78000086042484068002804D001680C6880684E
:10C7900004430C6031680220086010688068C0049F
:10C7A000C00C3A2860D900BF00BF00BF00BF00BF67
:10C7B00000BF00BF00BF00BF00BF00BF00BF00BF81
:10C7C00000BF00BF00BF00BF00BF00BF00BF00BF71
:10C7D00000BF00BF00BF00BF00BF00BF00BF00BF61
:10C7E00000BF00BF00BF00BF00BF00BF00BF00BF51
:10C7F00000BF00BF00BF00BF00BF00BF00BF00BF41
:10C8000000BF00BF00BF00BF00BF00BF00BF00BF30
:10C8100000BF00BF00BF00BF00BF00BF00BF00BF20
:10C8200000BF00BF00BF00BF00BF00BF00BF00BF10
:10C8300000BF00BF00BF00BF00BF00BF00BF00BF00
:10C8400000BF00BF00BF00BF00BF00BF00BF00BFF0
:10C8500000BF00BF00BF00BF00BF00BF00BF00BFE0
:10C8600000BF00BF00BF1D60F0BD00001C04002021
:10C87000040700202941767155555500080700200E
:10C88000F8330020D833002000E100E0200400202D
:10C890000249C8600249802008717047D8330020DF
:10C8A000F833002008B51148407D002801D0F5F785
:10C8B00053FA0F4B1879000612D50E48816B009180
:10C8C000816B009A9142F9D10B491046C968012247
:10C8D000814202D8401A02D502E0081A00D51A7126
:10C8E00006488069002800D0804708BDA433002096
:10C8F000F833002000100040D83300208833002097
:10C900001FB50D2249A14D4816F066FF00281AD028
:10C910004B4802904B4803904B48F8F7F7FA062231
:10C9200049494A4816F066FF02AB474A4849494818
:10C9300000F09AFF04000AD0474948A0FEF734F9F6
:10C9400021464AA034E052A0FEF72EF9FEE708F097
:10C950005FFC544801F0B4F800203C4A0346103212
:10C9600001018C182372401C53520728F8D303F09E
:10C97000C7F902F01FFF3448C01DFEF7A5FF494864
:10C98000103002F0C7FE044601F05EFD02F066F9C9
:10C9900003F0F8FB00F046FC00F048F903F080FAE1
:10C9A0002D49002C2DA006D0FEF7FEF821463EA012
:10C9B000FEF7FAF82DE0FEF7F7F844A0FEF7F4F8DA
:10C9C00048A0FEF7F1F813F013FF01F047FB002831
:10C9D0000AD0214921A0FEF7E7F843A0FEF7E4F8CA
:10C9E00040A0FEF7E1F818E02E4901200090203920
:10C9F00000232C4801911A461946303802F00CFFEA
:10CA000004000AD0144915A0FEF7CEF821463FA035
:10CA1000CEE734A0FEF7C8F81FBD0F490FA0FEF700
:10CA2000C3F841A0FEF7C0F8F3E700004D455348B6
:10CA30005F4C49425F56312E3100000072530200B4
:10CA400058090020B4080000010000200C1200204A
:10CA500014520200E05102005C5002004150505F4D
:10CA60004442472025733E2000000000556E61625D
:10CA70006C652073657420636F6E6669677572619B
:10CA800074696F6E20286572723A2564290000006F
:10CA9000686561642066696C65206572726F722ECC
:10CAA0002E2E0A00284F0200496E697469616C6974
:10CAB0007A696E67206D657368206661696C65646C
:10CAC000202865727220256429000000426C75657B
:10CAD000746F6F746820696E697469616C697A65D6
:10CAE000640000000A0000004D657368206E6574E4
:10CAF000776F726B20726573746F726564206672F3
:10CB00006F6D20666C6173680000000053656C6691
:10CB100020507269766973696F6E696E6720286547
:10CB200072722025642900004D65736820696E6962
:10CB30007469616C697A65640000000030B50D4667
:10CB4000ADB001461446684616F027FC002809D00F
:10CB50006A462946204616F02EFC002802D0002006
:10CB60002DB030BD1120FBE710B5084608F0DCFB06
:10CB700008F0C4FB10BD10B508F0A2FB10BD00000A
:10CB8000F8B514460E46054617F0F8FB024620326B
:10CB9000334615491548009400F02CF8041E22D0A5
:10CBA00004F030FA014620460C30062207460FF00A
:10CBB00068F9012138460FF02CF90D48415D3846DF
:10CBC0000FF06AF9606908306061E060608A0838D7
:10CBD0006082208A08382082A069002101604160BB
:10CBE000816046722046F8BD39B60000C03500208D
:10CBF00068530200F8B50D460746144601210A485D
:10CC0000069E00F00AFA002801D00020F8BD324646
:10CC1000214638460FF0BCF8041EF7D00FF0ECF8B0
:10CC2000A847A0612046F8BD5C36002010B5044836
:10CC30000021016041600349034809F043FA10BD37
:10CC400030060020D55F0100A4350020F8B5174656
:10CC50000E4605460FF0D9F884694021C0C42078FB
:10CC600008434006400E2070002020812846083CE2
:10CC70000FF0C2F8E081607A0A21C008401C4843E6
:10CC80006073607A4007400F401C2073287C6969FC
:10CC9000401C20398877214614310A4816F031FBB0
:10CCA000094809F018FA00280BD10748002108307C
:10CCB00000F0B3F90006000E03D10021024809F08C
:10CCC00015FAF8BD30060020A4350020F0B5C3B039
:10CCD0000C46154601461F4616AA684616F0C8FBC4
:10CCE0000A26F643002814D008E006CC6846083C23
:10CCF00016F0EAFB00280CD008346D1E002DF4D18C
:10CD00006946384616F06CFB002802D0002043B07C
:10CD1000F0BD3046FBE71CB5019200910122694647
:10CD2000FFF7D4FF1CBDFFB589B01C46174615A8F8
:10CD30000DC88C4614990293019200900B46129EE6
:10CD4000139D3A46614604A803F0CEFF002F01D0A0
:10CD5000082000E004203268002D01D0102100E0FE
:10CD600000210191039000950292A38804A92268F2
:10CD7000099800F0BDFA050003D1A18830460FF0F4
:10CD800048F828460DB0F0BDFFB589B01C461546E1
:10CD900014A80DC8139F029301920090129E3B4667
:10CDA0002A4604A803F0A0FF002D01D0082000E0CF
:10CDB00004202268002E01D0102100E00021019102
:10CDC000039000960292A38804A9099800F0BAFB88
:10CDD000060007D1002D01D0082100E004212046E3
:10CDE0000FF017F830460DB0F0BD000070B500240C
:10CDF000084D094E07E02820696A60430818018839
:10CE0000B14205D0641CFEF7B7FFA042F3DC00205E
:10CE100070BD0000D4360020FFFF000038B50D467D
:10CE200004464088694608808D70084801F07EFB02
:10CE3000002D02D0204600F0AFFD0020C04320802E
:10CE40002221601DF3F7C0FF38BD000079AD00005E
:10CE5000F8B5064600240A4D0A4F0AE02820696A00
:10CE6000604308180188B94202D04188B14205D018
:10CE7000641CFEF781FFA042F0DC0020F8BD00003A
:10CE8000D4360020FFFF0000FFB5064681B02348DE
:10CE90000A9D1C460F46814207D0401E874209D199
:10CEA000039800F081FE002804D0002028701C4860
:10CEB000206030E01948401E87420ED10E211948EB
:10CEC00000F0E1F8002808D0039802F00DFB0028DC
:10CED0000ED0001D206000201CE0002E08D0384637
:10CEE000FFF7B6FF002807D0F17F022907D00EE038
:10CEF0000020C04305B0F0BD0720C043FAE7017928
:10CF0000002904D0014617312160807D02E0811D97
:10CF10002160407928700020ECE70000FEFF00004F
:10CF2000E436002068370020CB06DB0E01229A4051
:10CF3000490989004358934343507047CB06DB0EA1
:10CF400001229A40490989004358134343507047CE
:10CF5000CB06DB0E01229A4049098900435813434E
:10CF600043507047CB06DB0E01229A4049098900E5
:10CF7000435813434350704710B5CC06E40E0123C9
:10CF8000A34049098C000159002A01D0194300E04F
:10CF90009943015110BD10B5CC06E40E0123A34006
:10CFA00049098C000159002A01D0194300E0994336
:10CFB000015110BDCB06DB0E01229A4010B5490984
:10CFC0008B00C1580C469443C450114201D001203B
:10CFD00010BD002010BDCB06DB0E01229A4010B51B
:10CFE00049098B00C1580C469443C450114201D0EA
:10CFF000012010BD002010BDCB06DB0E01229A409F
:10D0000010B549098B00C1580C461443C450114255
:10D0100001D0012010BD002010BD4A0992008058A7
:10D02000C906C90EC840C007C00F70474A09920020
:10D030008058C906C90EC840C007C00F70474A09CA
:10D0400092008058C906C90EC840C007C00F70477B
:10D050004A0992008058C906C90EC840C007C00FCF
:10D0600070474A0992008058C906C90EC840C007D7
:10D07000C00F70474A0992008058C906C90EC840BF
:10D08000C007C00F70474A0992008058C906C90EF0
:10D09000C840C007C00F70474A0992008058C906AF
:10D0A000C90EC840C007C00F70474A099200805897
:10D0B000C906C90EC840C007C00F704770B50E46FC
:10D0C000050015D0AC6A002C11D0002E16D0606877
:10D0D000002804D00269002A01D0284690477D200C
:10D0E000C000314641432046083008F0FFFF70BDC4
:10D0F00009480468002CFAD02568E6E72046083085
:10D1000008F0D6FF60680028F1D041690029EED010
:10D110002846884770BD00007406002070B588B0AE
:10D1200004461E4668460C9D1346017008221946A7
:10D13000401CF3F72EFE02A93046013116F0D6F856
:10D1400004AB0D2269462046FFF7E5FD040004D13B
:10D15000082204A92846F3F71CFE204608B070BD3B
:10D1600070B50E46044601F065FD0146A07F00281B
:10D1700002D02546893501E02546303530460EF08F
:10D180008BFE29460822213130460EF07AFE0648F1
:10D19000016830460EF05CFE2146082228313046F8
:10D1A0000EF06FFE70BD00005436002010B5032154
:10D1B0000448FFF744FF002802D1034808F078FF35
:10D1C00010BD00005C36002000360020F8B500F0ED
:10D1D00045FF002814D000240B4D0C4F26460BE0D1
:10D1E000E420A96A60430818818BB94203D0067114
:10D1F000467101F061FB641C15F0D2FFA042EFDC28
:10D20000034808F0B7FFF8BDD4360020FFFF000048
:10D210000036002002484068002800D0C0797047DE
:10D220005006002010B50249024808F04BFF10BD1F
:10D2300051C00000003600200B4A10B50823D11A57
:10D240008968002805D019430848116008F092FF4A
:10D2500010BD99431160FFF7DDFF0028F8D10348A6
:10D2600008F026FF10BD00005C36002000360020CC
:10D270007CB504468088002809D020460EF050FE78
:10D28000002805D0012802D1204612F093F87CBD79
:10D2900003F062F90028FAD1A088122801D01628DC
:10D2A000F5D1102120460EF033FE064620460EF042
:10D2B00006FE054600200090A088042805D12046DF
:10D2C0000EF00BFE019001A8009002F01DFA846A96
:10D2D000002CDCD06B462A4631460120A0477CBD9D
:10D2E00010B50146014810F0D7FA10BDC035002036
:10D2F000FFB59BB01E98259E1746002803D0FF203F
:10D300000002864203D30020C0431FB0F0BD0120BD
:10D31000694608700D2268441C99F3F73AFD03A989
:10D3200002310020189115F0DDFF10AA69461B9804
:10D33000FFF704FC0028E8D12798082803D0002E26
:10D3400008D0402007E0002E01D0402000E000205F
:10D35000192101E00020092108436946087000A84E
:10D360000D2201301C99F3F714FD1E98189980B214
:10D3700015F0B8FF04AA69461B98FFF7DFFB0028E9
:10D38000C3D1002E3ED0B0B2694615F0ABFF0024E9
:10D39000694604AA105D0B5D58400855641C022CB8
:10D3A000F8D30025B61C13E0684604A9249B0A5D47
:10D3B0005B5D6D1C5A400255641C102CF6D30A4666
:10D3C00001460024103E1B98FFF7B8FB00289CD1B3
:10D3D000102EE9D80020694604AA06E0249C135CBC
:10D3E000645D63400B54401C6D1CB042F6D302E0F8
:10D3F000905D8855761C102EFAD31B98FFF79EFB84
:10D40000002882D11E980F21050700030903401848
:10D41000000C2D0F1990002D00D11025002481E063
:10D42000661C864248D10120694608700D22684476
:10D430001C99F3F7AEFCB0B2189915F053FF0CAA83
:10D4400069461B98FFF77AFB002899D1210108AEA5
:10D4500006E00A180CABBA5C1B5C5A403254401C04
:10D46000A842F6D326982A4608183146F3F791FCCD
:10D47000002004AA05E0115C335C59406B46195446
:10D48000401CA842F7D328466946164602E0325CA3
:10D490000A54401C1028FAD332461B98FFF74EFB63
:10D4A000002894D110AB195C325C514014AA11547D
:10D4B000401C1028F7D334E00120694608700D2283
:10D4C00068441C99F3F765FCB0B2189915F00AFF8F
:10D4D0000CAA69461B98FFF731FB002891D1210166
:10D4E00008AE0A180CABBA5C1B5C5A403254401CA4
:10D4F0001028F6D32698102208183146F3F749FC75
:10D50000002004A90A5C335C5A406B461A54401C44
:10D510001028F7D30A4619461B98FFF70FFB00287F
:10D5200093D1641C1998844200D279E71E98279AF7
:10D53000391814A8F3F768FC002800D1E5E610209C
:10D54000C043E2E6FFB597B0FF20219F00021646D8
:10D55000874203D30020C0431BB0F0BD01206946C1
:10D5600008700D2268441899F3F713FC03A90231DF
:10D570000020149115F0B6FE0CAA69461798FFF723
:10D58000DDFA0028E8D12398082803D0002F08D01E
:10D59000402007E0002F01D0402000E000201921AA
:10D5A00001E00020092108436946087000A80D2207
:10D5B00001301899F3F7EDFB1A98149980B215F021
:10D5C00091FE04AA69461798FFF7B8FA0028C3D15C
:10D5D000002F41D0B8B2694615F084FE002404AA99
:10D5E0006946105D0B5D58400855641C022CF8D349
:10D5F0000025BF1C13E004AB684620991A5D495D05
:10D600006D1C4A400255641C102CF6D301460024C0
:10D610001A46103F1798FFF791FA00289CD1102F57
:10D62000E9D8002004A96C4606E0209B0A5C5B5DFB
:10D630005A402254401C6D1CB842F6D3204602E0EA
:10D64000CA5DC2557F1C102FFAD30A4601461798AF
:10D65000FFF774FA002895D11A980F2105070003E7
:10D6600009034018000C2D0F1690002D00D1102535
:10D6700000247DE0601C16991590884246D1002058
:10D6800004A9270106E03B180A5CF35C5A406B468C
:10D690001A54401CA842F6D3284604E004A90A5CA8
:10D6A00069460A54401C1028F8D304AA6946179802
:10D6B000FFF744FA00288AD104A90CAA125C0B5C7B
:10D6C0005A4010AB1A54401C1028F6D3012069466A
:10D6D00008700D2268441899F3F75BFB15981499AC
:10D6E00080B215F0FFFD08AA69461798FFF726FAE1
:10D6F000002893D107E0391808AB725C1B5C5A40D4
:10D70000229B401C5A54A842F5D330E0002004A9C3
:10D7100027013B180A5CF35C5A406B461A54401CC4
:10D720001028F6D30A4619461798FFF707FA00287B
:10D7300091D10120694608700D2268441899F3F7C9
:10D7400028FB1598149980B215F0CCFD08AA6946FB
:10D750001798FFF7F3F90028ADD1391808AB725CC0
:10D760001B5C401C5A40229B10285A54F5D3641C61
:10D770001698844200D27DE71A992298239A40187D
:10D7800010A9F3F706FB0020E6E61CB51C46049B37
:10D79000019313460094002202F010FF1CBD00000C
:10D7A000014840687047000050060020FEB5074E53
:10D7B000099C089DB44202D10020C043FEBD012651
:10D7C0000296009501940DF089F9FEBDFFFF00005F
:10D7D0007FB50D4614460A4E0999089AB14203D105
:10D7E0000020C04304B070BD039100260093029254
:10D7F0000146019623462A4602480DF0C9FDF1E78D
:10D80000FFFF00001B80000070B513484468002C27
:10D8100020D0002002F03EFB002120464030018055
:10D820004180A163E1630C460C4D0D4E0AE0E420FB
:10D83000A96A60430818818BB14202D0012102F02D
:10D840000BFC641C15F0ACFCA042F0DC0021054888
:10D8500000F06CFE70BD000050060020D4360020A1
:10D86000FFFF0000C7B10100FFB5474F81B01E4662
:10D870000D4604007ED0002E7CD03068002879D080
:10D88000002D7FD000214148FFF7D0FB002802D0B7
:10D89000B80005B0F0BD2078801F232872D26078D0
:10D8A00014286FD8A078401E60286BD22079801E83
:10D8B000132867D2A01D0DF0AFF8002862D0A18A0E
:10D8C0003348491F81425DD2618A491F814259D242
:10D8D000E08A801E042855D2207E401E042851D2A2
:10D8E000607E401E08284DD2A07E401E042849D2EA
:10D8F000E07E801E1D2845D2A08B401EFF2841D20D
:10D90000A17F20461E30891E13293BD28088FF212B
:10D9100088310A38884235D22820005D002831D06D
:10D9200021461C4C216003996160287C022829D380
:10D93000698A6869F3F790F9002901D0002003E0B3
:10D94000687C0028FAD0012000281BD03046A56052
:10D950000DF054F8FDF798FD0446FDF775FD041928
:10D96000FDF758FD0419FDF7CFFC0419FDF74EFC37
:10D97000041900E006E0FDF779FC0419FDF78AFCC4
:10D98000001986E7384684E7FFFFFFFF5C3600207A
:10D990000C0E00003806002038B5044641886A465F
:10D9A000012008F097FC01229203002801D0018891
:10D9B00010E00098002813D0018801231B031943AD
:10D9C00001806388090B1B0509031B0D1943012303
:10D9D0005B03194311430180072011F029FB38BD77
:10D9E000608802F05FFF38BD10B5082011F020FB01
:10D9F000092011F01DFB0C2011F01AFB10BD38B5E9
:10DA00000446008869460FF07FF90121002801D003
:10DA1000817005E00098002806D08170218801807F
:10DA20000E2011F005FB38BD208802F0D7FF38BD6D
:10DA300010B5062011F0FCFA10BD38B50446818BF4
:10DA40006A46002008F046FC01229203002801D01B
:10DA5000018810E00098002813D0018801231B03DF
:10DA600019430180A38B090B1B0509031B0D1943E7
:10DA700001235B03994311430180072011F0D8FA79
:10DA800038BDA08B02F092FF38BD0000014840680D
:10DA9000704700002406002010B50849074A088096
:10DAA0000021526806E0D3680C011B191880401C45
:10DAB00080B2491C93688B42F5D810BD2406002023
:10DAC0008168002903D00349486000207047002086
:10DAD000C04370472406002010B504490020088088
:10DAE0000146034800F022FD10BD0000240600207E
:10DAF0001DAE01004168491E416070473FB585B0C9
:10DB00000D9D0C9C694601920B814B8103920B2B5E
:10DB100004D9416880234A7A1A434A720021426834
:10DB2000C943518041682B46497ACA0906A9009128
:10DB3000224601A903D012F003FC09B030BD12F057
:10DB400061FDFAE703484068002801D0807A7047F9
:10DB5000072070475006002008B500920A4602A32D
:10DB6000202100F085FA08BD7072646B000000008F
:10DB700010B50C4688B00146074A6846F3F729F805
:10DB8000002806D0002C01D06846A047002008B02D
:10DB900010BD0120FBE700008439002001484068E7
:10DBA000007A704724060020F8B5070021480ED0FF
:10DBB0000121C9038F420AD24168CA688968108866
:10DBC000381A80B2814233D900011018F8BD0026FE
:10DBD00029E0C0683101441800250AE02C20A16822
:10DBE000684308183946009000F076FC00280FD1F1
:10DBF0006D1C2079A842F1DC00250FE02C20E168A3
:10DC0000684308183946009000F066FC002804D0EC
:10DC10000098002805D02046F8BD6D1C6079A84208
:10DC2000ECDC761CB6B2034840688168B142D0D8BB
:10DC30000020F8BD2406002010B5FF22064C03E0AA
:10DC400003785340E25C401C0B46491EC9B2002BCE
:10DC5000F6D1FF20801A10BD1C5E020030B50268AC
:10DC60008088FF23094C03E015785D40635D521CFA
:10DC70000546401E80B2002DF6D14B40E05CCF2817
:10DC800001D0002030BD012030BD00001C5E02002C
:10DC90000B4910B5401807D0012808D0022809D038
:10DCA00003280BD1012010BD00F00EF904E000F0B4
:10DCB0008DF801E002F01AF80128F4D0002010BD20
:10DCC0000400FFFFFFB581B0002528E01748039A44
:10DCD000016A682068430F180198818B384603F069
:10DCE00019FD00281AD0002414E00C20396B604381
:10DCF0000E18049802990088C204D20C304608F02D
:10DD000073F8002805D0304610F0BAFC00203072BD
:10DD100004E0641C03F0CAFDA042E6DC6D1C03F0C5
:10DD2000B9FDA842D2DC05B0F0BD00005436002099
:10DD3000F8B5054600240B4E0B4F0DE06820396AFC
:10DD400060430818C189B14205D0B54201D0A9424B
:10DD500001D103F033FB641C03F09CFDA042EDDC19
:10DD6000F8BD0000FFFF000054360020FFB581B071
:10DD70001F46064600241FE01248016A68206043DF
:10DD80000D180398002802D0E878C00613D5002F9C
:10DD900002D0E87880060ED50B48864202D0E8898A
:10DDA000B04208D12846029907F0D3FF002802D0DC
:10DDB000284605B0F0BD641C03F06CFDA042DBDC1E
:10DDC0000020F6E754360020FFFF000003484068BB
:10DDD000002801D0407A704702207047500600208A
:10DDE000F8B50E46074600240A4D0CE06820296A63
:10DDF000604308183246394603F08CFC002801D0F5
:10DE00000120F8BD641C03F045FDA042EEDC0020BB
:10DE1000F8BD000054360020FFB5002681B035461D
:10DE2000344616E01048039A016A682060430F18D0
:10DE30003846019903F06EFC002809D001253846C8
:10DE40000A9B049A029903F089FC002800D001265D
:10DE5000641C03F01FFDA042E4DC002D02D030461C
:10DE600005B0F0BD0120FBE754360020F8B50746A9
:10DE7000002519E00F48016A682068430E18F089F0
:10DE80000D4988420FD08F4201D0B8420BD1B46BFC
:10DE900003E0204607F0D5FF2468002CF9D10021CB
:10DEA000304603F064F96D1C03F0F4FCA842E1DC99
:10DEB000F8BD000054360020FFFF000010B50088B8
:10DEC000F3F72CFC10BD000003484068002801D087
:10DED000007A7047022070475006002010B5F5F711
:10DEE0006DFB10BD10B5034800214089F6F748F8D6
:10DEF00010BD00000408002002484068002800D03F
:10DF00000C30704750060020F8B51646154A1F46DB
:10DF10005568002D24D02C464034228882421FD1DF
:10DF2000608888421CD108F010F9AB6BEA6B181AB4
:10DF30008A4115DBA079B04200D33046A071E07968
:10DF4000B04200D83046E071A0880749884201D22B
:10DF5000401CA080AA6C002A02D039463046904767
:10DF6000F8BD000050060020FFFF000010B50021A2
:10DF7000084600F001F810BDF3B589B000200E4648
:10DF8000039004900590FFF70BFC0546254806AB6F
:10DF900007C807C3288E69460883288D88832F46C3
:10DFA0002037787B08A988700024288E02F0C8F8F2
:10DFB000039006A80490286800F070FA008869466B
:10DFC000888201F001FA69468875288D002826D0DC
:10DFD000787B087201F08AFE012800D10124FFF746
:10DFE00073FF012801D102200443FFF7EFFE01284F
:10DFF00001D10420044300F081F9002801D0082059
:10E00000044360BA69464872000A88720998009011
:10E01000032302AA0A21019603A8FFF76FFD0BB0A4
:10E02000F0BD0000905D020070B515460A4686B04E
:10E03000064608A401A9104601F0CEFE002806D12C
:10E04000234601AA10213046009500F011F806B0D1
:10E0500070BD0000696431323801000010B5002144
:10E060000248FEF7F5FFC0B210BD00005C3600208C
:10E0700070B51646049D0A461C4601462B4630469E
:10E08000FEF749FE002808DB2046F2F7A8FE02460C
:10E090002B4621461846FEF73EFE70BDF0B593B004
:10E0A0000E4607461C4615460FA925A001F094FE12
:10E0B000002843D10BAB102239460FA8FEF72BFEE8
:10E0C00000283BD101216846017000200590069090
:10E0D00068460A9109900796089501AB032205A9A5
:10E0E0000BA8FEF7F3FD002828D16946C87C01ABD8
:10E0F0004006400E207001A80590102006900220D6
:10E100000870032205A90BA8FEF7E0FD002815D131
:10E11000102201A91898F2F73CFE03206946087006
:10E12000024601AB05A90BA8FEF7D0FD002805D1DA
:10E13000102201A91998F2F72CFE002013B0F0BDAF
:10E14000736D6B320000000030B505460C4611A01F
:10E1500003C88BB009910890694610A001F03CFEFD
:10E16000002815D104AB102229466846FEF7D3FDDE
:10E1700000280DD16B46052208A904A8FEF7CBFDA7
:10E18000002805D10822204602A9F2F702FE00204D
:10E190000BB030BD6964363401000000736D6B3321
:10E1A0000000000030B5054689B011A000680C469B
:10E1B000089069460FA001F00FFE002815D104ABAE
:10E1C000102229466846FEF7A6FD00280DD16B46B1
:10E1D000042208A904A8FEF79EFD002805D1684680
:10E1E000C07B8006800E2070002009B030BD00008A
:10E1F00069643601736D6B340000000010B504468D
:10E20000837FC07F8B4201D000281CD0A1770029DA
:10E2100003D0012818D1022013E0012802D00228DF
:10E2200012D101E0002A0FD0204600F0A5FF0748D8
:10E23000074900680968084302D0A08B03F098F9E9
:10E240000020E077012010BD002010BD9C080020B8
:10E250008008002070B5064600240A4D0CE0182006
:10E26000A968604340184088B04204D11820444354
:10E270006018001D70BD641C09F0B2F9A042EEDC0C
:10E28000002070BD5006002010B50D2209A10D48D8
:10E2900015F0A2FA002808D0FBF7E0FB0446F9F7D6
:10E2A00095FFF9F767FF204610BD07A0FCF77CFC3F
:10E2B000FEE700004D4553485F4C49425F56312E02
:10E2C00031000000725302006D657368206865615B
:10E2D000642066696C65206572726F722E2E2E0A3C
:10E2E0000000000010B504490979002902D001217D
:10E2F00002F0F0FA10BD0000743600200248007CE5
:10E30000C006C00F704700007436002070B50022B0
:10E31000164B114601264C00E418258E854209D182
:10E32000C806C00E86404809800048331958B143DA
:10E3300019500EE0002A03D1002D01D122463032BF
:10E34000491C0829E7D3002A03D01080187B3043EA
:10E3500018730648001F017CC906C90F05D0C07993
:10E36000002802D1072014F097FE70BD78360020F7
:10E37000F3B585B0002630E005987100405A0028BA
:10E380002AD01E4C0390204664300290001D01905C
:10E39000001D00252434009068000719398E039869
:10E3A000814216D129460298FEF77FFE002805D14A
:10E3B00029460198FEF779FE002808D029460098E2
:10E3C000FEF7D0FD207B01210843207301E00020EF
:10E3D00038866D1C082DDFD3761C06988642CBD379
:10E3E00006482030017CC906C90F05D0C079002835
:10E3F00002D1082014F050FE07B0F0BD54360020C2
:10E4000010B50448C178012903D103F0E7F911F0F0
:10E410009BFC10BD7836002010B50548007CC00676
:10E4200002D40520C04310BD11F08EFC10BD0000C9
:10E430007436002003480079082801D00020704776
:10E44000012070477436002010B504484068002849
:10E4500003D00021024800F069F810BD2406002016
:10E460001DAE010030B589B015461E221C46009233
:10E4700001AB08A202F01EFE002C06D0224629465F
:10E4800001A812F0CFFB09B030BD01A812F0A0F92D
:10E49000F9E700006461746100000000034900793D
:10E4A00049680001C9680818704700002406002068
:10E4B00030B5002203790BE02C24856854432C5B93
:10E4C0008C4203D12C214A43A81830BD521CD2B231
:10E4D0009342F1D8002030BD002253001B185B8A04
:10E4E0008B4203D15100081812307047521C062A83
:10E4F000F3D300207047F0B50023477911E02C26B4
:10E500001D467543C468AE1CA65B8E4207D1645B92
:10E51000944204D1C0682C214B43C018F0BD5B1C51
:10E52000DBB29F42EBD80020F0BD0000F3B581B014
:10E530000746002429E0C0682101451800260CE0A8
:10E540002C20A9687043081802990091002C09D06A
:10E55000002300222946B847761C2879B042EFDC18
:10E5600000260EE00123F4E72C20E9687043081828
:10E5700002990091002C0ED0002301222946B847B1
:10E58000761C6879B042EFDC641C044840688168FE
:10E59000A142D0D8FEBD0123EFE7000024060020F1
:10E5A00010B50D4B5B68002B11D09C688C420ED9C6
:10E5B000DB68090159182C235343002804D04879FB
:10E5C000904204D9C86805E00879904201D800203B
:10E5D00010BD8868C01810BD2406002000790028EE
:10E5E00001D0002070470120704770B50446806854
:10E5F0000D46002801D0A06802E020460C30A06043
:10E60000002120602046A180FF2D03D8E9B20DF043
:10E6100043FC70BD01200004854204D2A9B220460B
:10E620000DF008FC70BD2802010E20460DF034FCF0
:10E63000A9B220460DF018FC70BD00008268002AC7
:10E6400008D0907A810907D0012909D0022913D076
:10E65000032915D0002070478006800E642103E056
:10E660008006800E7D21C90048435189CA04F2D535
:10E670000905090F084170478006800E0249F3E73B
:10E680008006800E0149EFE710270000C02709002F
:10E69000F0B506463A48EBB0806909900BA808909F
:10E6A0000A900020B46802900390049005900790AF
:10E6B00002A806903046FFF7F1FE0088694688837D
:10E6C00000F082FE69468877002C54D0A088172776
:10E6D000FF43002852D0E0880005000DFEF7B8FB8C
:10E6E00005004BD06089400B02D0E01B07F0E0FC36
:10E6F000A0886A469081207A9074E188507C8904D1
:10E700004006C90F400EC901084350742888108183
:10E7100069885181D17FE2884908D2044900D20F2B
:10E7200011436A46D17701F00BFD0590002825D0F2
:10E730006089617AC004C00C490308436081206984
:10E740008288016808A80DF09CFB0D48009008AB7A
:10E75000012205A9019630460DF054FA050007D0B4
:10E7600060893146C004C00C608128460FF054FF18
:10E7700028466BB0F0BD1220C043FAE73846F8E7F0
:10E7800048530200F0B50E4685B0074603A930464F
:10E7900006F0CEFB002854DB00254DE0C0682901BF
:10E7A00044187889002807D00121C903884203D280
:10E7B000218881423FD113E0032189033F22411A7E
:10E7C000120291420CD90121C9030122411A92037C
:10E7D000914205D3002D2ED1FFF75AFA00282AD0F6
:10E7E0000120039A0004824202D22179A06801E04C
:10E7F0006179E06802AB01930092FB887A8902F0AC
:10E8000021FD040017D0B0886168884213D33046D8
:10E810000DF049FB69460880B0884880A3683246FD
:10E82000391D0298984769460988B06840186946BA
:10E8300030604888B0806D1C034840688168A942F8
:10E84000ACD805B0F0BD000024060020FFB50C4692
:10E85000488885B017490E9E1D461746884208D045
:10E86000491E884205D0FEF7F3FA00281ED0008822
:10E8700020800020029003900490208801F060FC2A
:10E88000029003940598FFF709FE00886946088204
:10E8900000F09AFD6946887400953B46002202A963
:10E8A000019605980DF0AEF909B0F0BD0020C04307
:10E8B000FAE70000FEFF000038B5044600F0BAF9A0
:10E8C0000146A07F002802D02046893001E0204682
:10E8D00030302834044A009413680246213249300B
:10E8E000FEF71CFC38BD000054360020FFB581B097
:10E8F0000E460DF009FA204C81006068F2F764FAC8
:10E9000000251E482570846AF007C00FA0770227F3
:10E910000399002807D02046893000F06FFA0028BC
:10E9200007D1E77709E02046303000F067FA002889
:10E9300003D00A20C04305B0F0BD0198A083104861
:10E940000068002802D02020055501E0202007554E
:10E950000A49049880390860B007C20F07480221AD
:10E960007838FEF709FB0548203805742046FFF784
:10E97000A3FF0020DFE7000078060020D436002047
:10E98000C4080020F8B5074680881D4614460E4688
:10E99000122806D3002E07D1384601F059FF00286F
:10E9A00002D00020C043F8BD207DCF210840B10730
:10E9B000890E08432075B9882B46224638680DF029
:10E9C000C3FB00282FD00020C043E0802968607B73
:10E9D0004978C0094906C001490E084360734006E2
:10E9E00000D0FF20A073207DF721084029684978D6
:10E9F000C909C900084320752868801C14F050FC20
:10EA000020612868C01D14F03FFC1022D2436081B1
:10EA1000032E01D0002804D0FF210902401AFB2850
:10EA200004D81046F8BD0720C043F8BDFCF752FFDC
:10EA3000002802D120460DF045F90020F8BD000065
:10EA4000F0B50C4609680746487889B016460006B6
:10EA500001D5082500E0042511480068002807D0EA
:10EA6000002B04A802D002F0DEF901E002F0C4F9A4
:10EA7000324604A8216802F0BFF9A088401B83B287
:10EA8000A38022680020D11D009001AC23C404A9FA
:10EA90003846D21DDB1FFEF72BFC09B0F0BD00008D
:10EAA000C4080020F7B5044640680F464088434933
:10EAB00084B0884201D1012600E000260025ED4304
:10EAC000002E04D038460DF062FA082804D33846E8
:10EAD0000DF05DFA042802D2284607B0F0BD606848
:10EAE000818838460DF02CFA218938460DF028FA35
:10EAF000032138460DF01CFA054600F06DFC010CB0
:10EB00002970010A6970A8706068002E817A01D0AE
:10EB10008020014338460DF021FA2948006800287A
:10EB20000CD0E07AC00709D003A8009002AB01AA7C
:10EB30000021206802F0DEFC002816D0E07A59227D
:10EB400040084000E07220686B46817F51430A46CE
:10EB50004032825C41311A7140180290206859227B
:10EB6000817F5143693140180390164802210546C0
:10EB7000FEF76EFA134C083C2178081AC007010E04
:10EB800068460079014338460DF0E8F9022128462D
:10EB9000FEF75EFA2168069B0A1A3946029800F0D1
:10EBA00013F8002899D102212846FEF751FA21686E
:10EBB000039A091A386800F075F98EE7FFFF000024
:10EBC0009C0800205C360020F0B50C46096807461A
:10EBD000487889B01646000601D5082500E00425CE
:10EBE00013480068002807D0002B04A802D002F0C8
:10EBF0001AF901E002F000F9324604A8216802F097
:10EC0000FBF822680020D11D01AB009023C3A3882C
:10EC100004A93846D21DDB1FFEF794FC060003D181
:10EC2000294620460DF0F5F8304609B0F0BD000049
:10EC3000C408002010B50024002803D0807F0028DD
:10EC400000D0012402210448FEF702FA002801D076
:10EC500002200443204610BD5C36002070B500241D
:10EC6000184E194D06E02046E4225043A96A1C3094
:10EC70000E52641C14F094FAA042F4DC002404E068
:10EC800028206043696A641C0E52FDF775F8A042A3
:10EC9000F6DC002406E0204616225043296A801C38
:10ECA0000E52641C0FF008FAA042F4DC0648074933
:10ECB0000C3807F007FA04480549743807F054FA8D
:10ECC00070BD0000FFFF0000D4360020655F01002A
:10ECD0007DEE0000FEB504460E4645480221019037
:10ECE000FEF7B6F9424F0146083F384660303D46D0
:10ECF000009080353868002904D0A04221D1002E30
:10ED00001FD11AE0A0421CD0A0421AD801462A31D5
:10ED1000A14216D3401CA04203D3A0420BD1002E27
:10ED20000BD110F0D7F8C100E86AF2F74DF80020D7
:10ED30003C60786013E0002E03D00098007C6028CF
:10ED400001D20020FEBD002E09D101F089FB002870
:10ED500005D00198202102680A430260F1E732469B
:10ED600002210198FEF708F900200099002E08748E
:10ED700017D03C600026044601270DE0E86AF10048
:10ED800040180188002906D08178002902D004604B
:10ED9000446000E08770761C10F09CF8B042EDDC17
:10EDA00000E0786007F0D8F801466020F1F754FFE2
:10EDB000104941430E486C3007F098F900240E4E7C
:10EDC0000CE02046E42250430246A96A1C328A5ACB
:10EDD000B24202D00818FFF76FFD641C14F0E0F98E
:10EDE000A042EEDC002001F0ABF80120FEBD0000E7
:10EDF0005C36002080EE3600FFFF00007FB5044641
:10EE00000D460020029021462046393111300191F3
:10EE1000009003AB012202A92846FFF73FF9002822
:10EE200020D1102229462046F1F7B3FF6846007B27
:10EE30002074214621312846FFF786F9002811D198
:10EE400009480068002807D022462846293207A131
:10EE5000FFF7EAF8002805D122462846493205A1E5
:10EE6000FFF7E2F804B070BDC40800206E6B696B58
:10EE7000000000006E6B626B0000000070B5084D72
:10EE800008E02046012200210C3000F033F8204633
:10EE90000DF0AFF828460DF082F80400F1D170BDF6
:10EEA0006C36002030B589B00446002015460A466D
:10EEB000009001900290039001A91046013114F0D6
:10EEC00015FA02A80722E11D0130F1F762FF04AA3A
:10EED00069462846FDF732FE002809D104AA211808
:10EEE0004B78155C401C6B404B700628F7DB00200C
:10EEF00009B030BDF0B58BB015460E46074615F08B
:10EF00003DFAB9881630884277D315F037FA1630B3
:10EF100014F070FD040070D00020099008940A904D
:10EF200015F02CFA69461630C884182168460A94F0
:10EF3000F1F74AFF69460E73FFF790F8002859D0A1
:10EF400008AB6A4629463846FFF71CFD002851D118
:10EF500008A80CF0A8FF69468883888CC8832848D5
:10EF60000068002805D0022D03D10989384600F039
:10EF700009FD68464089FEF78BFE002805D16846EA
:10EF80004089FEF711FE002804D06846007D40212C
:10EF9000084303E06846007DBF21084069460875C4
:10EFA00008A801F015F9801D0BD16846154AC08AE2
:10EFB000516880000B58DB0BDB030B506846C08A9E
:10EFC000107068464089002809D00121C903884291
:10EFD00005D26846007D41060CD4C0090AD16946B5
:10EFE000898B0A98401869460890C88B888408A8BD
:10EFF00000F00AF8204614F011FD0BB0F0BD00003F
:10F00000C408002078060020F8B50646087D0C46A6
:10F010008106607B8A0F4006400E012A04D0012839
:10F020007DD9880F03D00AE0012878D0F9E700F0F5
:10F030005DFE012803D0FEF747FF01286FD1207D38
:10F040008006800F022803D1FEF73EFF012866D11B
:10F05000207D8006800F44D000F0B6F901460022E2
:10F060000120FDF78DFD050059D0207D8006800F21
:10F0700001280BD031684878C009C0014870627B14
:10F0800031685206520E521E104348702846B2880C
:10F090000C30316800900CF0F4FE216859208A7F12
:10F0A000424310461346413069330818CF184032A6
:10F0B0008B5C217D490707D5EA681178C909C90128
:10F0C0001170EA6819431170294E227D3168D20708
:10F0D000D20F8A1A00230099FFF776FD002842D14B
:10F0E00002E000F013FEB9E7217D3068C907C90FBF
:10F0F000411A3A46E868FFF7D5FE002833D11D488B
:10F100000068002817D0FEF7DFFE012804D0207D1C
:10F110008006800F01280ED16189009800E025E06B
:10F1200000F02AFD002806D06089002803D00121C4
:10F13000C903884217D3207D8006800F04D00128A0
:10F140000CD002280FD102E000F0D0FD01E0FEF764
:10F15000BBFE012800D00020002804D00022114668
:10F160002846FDF773FD28460CF043FFF8BD00006C
:10F1700054360020C4080020F8B5014606468931FF
:10F1800059220C463030F1F704FE59212046F1F7A0
:10F190001BFE304600F038FF0025114F1BE02820F1
:10F1A000796A68430C182088B18B884212D1207983
:10F1B00000280FD0214616311122601D0091F1F771
:10F1C000E8FD11210098F1F7FFFD00202071204695
:10F1D00000F084FE6D1CFCF7CFFDA842DFDCF8BD1B
:10F1E000D436002010B504460B480068002806D02D
:10F1F000002C01D0A08B00E00848FEF737FE08483D
:10F200000068002806D0FEF75FFE012802D12046E4
:10F2100000F0C6FB10BD000080080020FFFF0000CA
:10F22000C4080020FFB50446406881B0807A1F46BC
:10F230001546FF2803D1FEF785FC616888720299A4
:10F2400000220C3120460091FFF72CFC060057D11C
:10F250002E480068002821D06068817A01291DD0DD
:10F260008188009800F088FC002817D060688088AA
:10F27000002813D00121C90388420FD2002D3FD0AE
:10F280002B68002B03D000213A46084698476A684D
:10F29000002A35D039460020904731E060688088E8
:10F2A000FEF7F6FC002805D160688088FEF77CFC3C
:10F2B00000281CD0002D06D02B68002B03D0002185
:10F2C0003A460846984702980CF09FFD01461048C0
:10F2D0000CF07CFE002D05D06A68002A02D0394669
:10F2E000002090470A480C3806F044FF08E06068A8
:10F2F000807A012804D03A4629460298FDF7A6FCF8
:10F3000002980CF076FE304605B0F0BDC40800202F
:10F310006C360020F8B5FDF77DFF012811D0FDF710
:10F3200045FF244C2068002805D0FEF7CDFD0228BB
:10F3300001D02068804720480068002804D080471A
:10F3400004E0FDF743FFECE700F088FD1B48006890
:10F35000002800D080471A4DA86A878B00F07EF9FC
:10F360000090284680380668A86A0221847F2846D3
:10F370007838FDF76DFE002801D0022004433346A3
:10F3800022463846009900F06FF900240D4E0BE03C
:10F390001620296A604309184888B04203D00A7DC4
:10F3A000098800F0CDF9641C0EF086FEA042EFDC67
:10F3B000F8BD0000C40800209C0800208008002040
:10F3C000D4360020FFFF000002484068002800D02B
:10F3D000007970475006002070B5114D6C68601CB4
:10F3E000686000F0FDFD284602210830FDF730FE80
:10F3F000002813D10B49686888420FD9002000F01B
:10F400009FFE00280AD00120FDF716FF2868012181
:10F41000401CFFF75FFC0020FFF7E4FE204670BDB4
:10F420005436002000E5B000F7B582B00F46050065
:10F4300007D00022FCF7AAF8002827DB0024174E8B
:10F4400020E0012500240DE06A4639462846FCF7F5
:10F450009DF800280BD0801D01D0002507E06846EC
:10F460000588641C0EF028FE801CA042ECDC002DF8
:10F470000CD0E3E71620316A6043081801880029A0
:10F4800007D0641C0EF018FEA042F3DC002005B08B
:10F49000F0BD0580077504994180F8E7D436002057
:10F4A00070B50024084D0AE01620296A6043081848
:10F4B0000188002902D0012100F008F8641C0EF038
:10F4C000FBFDA042F0DC70BDD436002010B5044630
:10F4D000002901D0FEF793FA002020801021201D82
:10F4E000F1F772FC10BD000070B5054600240A4E0D
:10F4F0000BE01620316A604308180188A94203D83E
:10F50000027D8918A94205D8641C0EF0D5FDA042E1
:10F51000EFDC002070BD0000D4360020F8B50E46A8
:10F5200007461C4615460E211648FDF7A3FD002888
:10F5300008D002211348FDF75FFD002805D0032005
:10F54000C043F8BD1220C043F8BD04210E4800F0AE
:10F55000A3FB0D487F21143001720A488581C681C2
:10F560000474FF300130806B0CF003FD102239462B
:10F570000020FCF707FE04210248FDF7E9FC00200B
:10F58000F8BD000068370020943800207CB50446A0
:10F5900000F0E2FF002803D1FEF760FD00283CD117
:10F5A000A088062839D320460CF097FC009020460E
:10F5B0000CF0B6FC6946087120460CF0B1FC6946B7
:10F5C000487102211548FDF755FD002804D0144864
:10F5D0000099C06A884220D16E4671792546A0887C
:10F5E0008907104CC90E09194979884215D302219F
:10F5F0000A48FDF73FFD002807D16846407980079B
:10F60000C00E00190079002807D1684640792946C4
:10F610008007C00E2258304690477CBD68370020D6
:10F62000683800205C5C020010B50A4949688142D4
:10F6300002D00420C04310BD0FF054FB044606481E
:10F640008068426B002A02D00021022090472046A9
:10F6500010BD000068370020C8060020014800885F
:10F66000704700002406002030B4054CA468A46B49
:10F67000002C02D0A44630BC604730BC704700006C
:10F68000C80600207FB5064C6568E46802920091C8
:10F690000195039402226946FDF718FB04B070BD82
:10F6A0001C5F020008B500920A4602A32021FEF763
:10F6B000DFFC08BD7072636B000000001FB50B46D5
:10F6C0000021009101910291039101469122684627
:10F6D000FDF721FB04B010BD7FB50024082502937F
:10F6E0000094039501941923FDF702FE04B070BD48
:10F6F0007FB50024082502930094039501941923F3
:10F70000FDF720FF04B070BD01488068704700001D
:10F71000C806002010B5040008D00649064806F0C7
:10F72000D1FC064884600FF0DDFA10BD0020C04314
:10F7300010BD0000A5D80100E0380020C806002058
:10F74000034B9B68DB6B002B00D018477047000011
:10F75000C806002070B586B0164601AD0A4607A35C
:10F7600020210095FEF784FC040004D10D22E91C41
:10F770003046F1F70EFB204606B070BD7072736E16
:10F780000000000008B50092034A0B465289008829
:10F79000024900F0AFFE08BDE407002064390020F4
:10F7A00003488068006C002800D0004770470000C4
:10F7B000C806002010B50249024806F083FC10BDBF
:10F7C000E5E10100C038002010B58AB000240490A3
:10F7D00010200094019402940394089206910590DD
:10F7E00007900990032204A96846FDF76FFA0AB052
:10F7F00010BD000010B5034800214089F4F7C0FB9C
:10F8000010BD0000A407002010B50249F4F712FC57
:10F81000002010BD64390020FFB5254D0121A868E6
:10F8200081B00143A9600835C0071646C00F03D058
:10F830000120C04305B0F0BD1E4F3868002804D039
:10F84000002000F05FF9002814D000243146049B0A
:10F85000019A0298FFF74AF806000DD02868400880
:10F86000400028603868002802D0002C00D0804773
:10F870003046DFE70124E9E70D49002048600A9897
:10F88000FEF70AF90A48102290300B99F1F781FA35
:10F8900000F081FB06488030806A00F0B5FB002054
:10F8A00000F04EFB012000F00DFB0020C2E700003D
:10F8B00054360020C0080020FFB50C4681B01D461C
:10F8C000164600210A48FDF7B1FB0027FF43002838
:10F8D0000CD0204600F034FC002807D02B463246DE
:10F8E00021460198FFF71AFE05B0F0BD3846FBE748
:10F8F0005C36002070B50D46FEF7B0FB0524E443EE
:10F90000002815D00E210E48FDF7B4FB002808D0C2
:10F9100000F022FE002807D0002D05D00FF0E2F9FC
:10F9200008E00120C04370BD00F016FE002801D0A1
:10F93000204670BD0E210248FDF7F6FA002070BD8A
:10F940006837002010B5FEF789FB0524E443002842
:10F9500005D002210A48FDF78DFB002801D0204682
:10F9600010BD0E210648FDF785FB002802D00120BE
:10F97000C04310BD0E210248FDF7EAFA002010BD79
:10F980006837002010B52838027A012A04D0022AEC
:10F9900001D101F01FFC10BD01F0FBFB10BD000008
:10F9A00070B506000DD0124D002420465421484366
:10F9B0002858002802D0314613F052FB641CF4D0C2
:10F9C00070BD00240B4D0C4E0CE02046E422504349
:10F9D0000246A96A1C328A5AB24202D00818FFF7BE
:10F9E000DFFF641C13F0DCFBA042EEDC70BD000006
:10F9F0002C3A0020D4360020FFFF0000F8B518494B
:10FA00000878002804D0022805D00320C043F8BDA0
:10FA10000120C043F8BD0025124F2E4654206843F4
:10FA2000C419206800280AD0207A012801D00228B1
:10FA300005D12672206813210088FEF74FFA20684E
:10FA4000008800F00FF96D1CE8D0FEF74BFA04486F
:10FA5000067004481C3806F02BFB0020F8BD00009F
:10FA6000B80800202C3A0020034800218185016B52
:10FA700081622830704700002C3A002070B5FEF7F4
:10FA8000EDFA002803D000240C4D0D4E10E00520A7
:10FA9000C04370BDE420A96A60430818818BB1425D
:10FAA00005D02021095C022901D000F00BF8641C6C
:10FAB00013F076FBA042EDDC002070BDD4360020B0
:10FAC000FFFF000010B5044601212030017006F050
:10FAD00044FB60620548E421806A201AF1F7D2F8FD
:10FAE00003498861034806F045FB10BDD436002069
:10FAF000B8080020103A0020002120221154416251
:10FB000070470000F1B51A4E3078002804D0012863
:10FB100005D00320C043F8BD0120C043F8BD002537
:10FB20002F4654201349684344182068002814D0F5
:10FB3000217A032911D10099002904D000881321CA
:10FB4000FEF7CCF905E0B168002901D0FFF76CFDA4
:10FB5000277220680088FFF757FE6D1CE1D0FFF781
:10FB600049FE044837701C3806F0A2FA0020F8BDA0
:10FB7000B80800202C3A0020F3B500208DB00E46C6
:10FB800007460B9054203946414322480C1822481E
:10FB9000806D019003A8009002902068002833D067
:10FBA000207A022805D01D4A96421CD001280DD08B
:10FBB0002AE0002505E060686900415AB14223D07F
:10FBC0006D1C0EF0D3FDA842F5DC0CE0002505E02D
:10FBD00060686900415AB14205D06D1C0EF0C6FD47
:10FBE000A842F5DC10E0012168460CF0BEF90D9842
:10FBF0008288016868460CF044F96A460021206852
:10FC000000F00EF801200B907F1CBBD00B980FB0BA
:10FC1000F0BD00002C3A00201C600200FFFF000035
:10FC200070B515460C46064601F0EAFA00280BD0DE
:10FC3000007A03280BD00020032C0AD00021884230
:10FC400009D00020C04370BD0420C04370BD012016
:10FC5000F2E70121F3E72A46214630460EF020FC68
:10FC600070BD000010B50249F4F7E4F9002010BDA2
:10FC70007439002010B5002808D02021054800F074
:10FC80000BF8044908462030F0F79FFF0148203068
:10FC900010BD000084390020F8B50E46050004D0E0
:10FCA000002E02D00024B7080FE00520C043F8BDA5
:10FCB00013F040FF0146A000401901700A0A42708B
:10FCC000090C8170090AC170641CA742F0D8B00702
:10FCD00009D013F02FFF0090B207A000920F401937
:10FCE0006946F1F756F80020F8BD00000348406867
:10FCF000002801D04079704702207047500600204C
:10FD000001490120087070475006002002484068F1
:10FD1000002800D0807970475006002010B50021DF
:10FD20001E48FDF783F9002836D01C480024083807
:10FD3000046044608460743006F0BAF9FDF764FD35
:10FD400000F036F800F0A2FB15480068002802D049
:10FD50000120FEF7C7FA13480068002802D01248B5
:10FD6000FDF7E6FFFFF74AFEFDF73EFE0E210F48C6
:10FD7000FDF75CF9002801D0FFF792FB07487830C7
:10FD8000046144618461C46100F063F8FDF70EFA18
:10FD9000FDF7A2FEFFF704FD10BD00005C36002059
:10FDA0009C08002080080020FFFF0000683700202A
:10FDB00070B50024074D06E0A968A0014018012194
:10FDC0000FF08EFC641C0FF001F9A042F4DCFDF78B
:10FDD0002FFE70BDDC0600207FB505460020009098
:10FDE0000190029003900C462846F0F7F8FF024677
:10FDF000234629466846FCF78EFFC0B204B070BDAA
:10FE000070B51D460E46032A18D1A888012815D9B9
:10FE100018460CF085F8040010D0A888A0420DD335
:10FE200028460CF07DF8641EAC8029280DD02A28C5
:10FE300005D02B2802D12846FDF71AFA70BD002202
:10FE400031462846FFF756F870BD2846FFF79EFB5F
:10FE500070BD10B5FCF78FFE10BD00001CB5054944
:10FE6000486889680191009003496846FCF77CFE68
:10FE700000201CBD6853020001FE000008B500927E
:10FE80000A4602A32021FEF7F3F808BD7072736BD7
:10FE9000000000000149088070470000DC060020D7
:10FEA00010B50549054806F00DF910F0F7FE0448B5
:10FEB00010F08CFE10BD0000F12902002437002054
:10FEC000B006002001B5FFF725FA69460248FEF7A3
:10FED0002DFB002008BD0000B1BC010038B5044670
:10FEE00041886A46012006F0F5F9012292030028B4
:10FEF00001D0018810E00098002813D00188012368
:10FF00001B03194301806388090B1B0509031B0DA3
:10FF1000194301235B0319439143018007200FF02C
:10FF200087F838BD204612F0D9FC38BD10B50C203A
:10FF30000FF07EF810BD10B50B200FF079F810BD52
:10FF400010B5044609200FF073F8002C02D10A20E6
:10FF50000FF06EF810BD10B50F200FF069F810BD4E
:10FF600010B5C18801221143C1800D200FF060F847
:10FF700010BD10B5C18804221143C1800D200FF0BF
:10FF800057F810BD10B5C18802221143C1800D2061
:10FF90000FF04EF810BD10B508200FF049F810BD55
:10FFA00038B50446008869460CF0AEFE002802D041
:10FFB0000021817004E00098002805D0218801808C
:10FFC0000E200FF035F838BD204612F0EDFC38BD9C
:10FFD00010B50121C17006200FF02AF810BD0000F5
:10FFE00010B510F0ADFB002808D010F0A9FB0146B9
:10FFF00004484068F0F730FE002902D10A200FF0D3
:020000040001F9
:1000000017F810BD5436002038B50446818B6A4677
:10001000002006F05FF901229203002801D0018838
:1000200010E00098002813D0018801231B03194316
:100030000180A38B090B1B0509031B0D1943012329
:100040005B0399439143018007200EF0F1FF38BD17
:10005000204612F06FFC38BDF8B505461A480F4629
:100060004068002809D0018EAA8B914205D105F085
:10007000E7F9002F01D0FFF75EFF0024134E0BE0DD
:100080002820716A604308180188AA8B914202D126
:100090003946FCF7C3FE641CFBF76EFEA042EFDCA2
:1000A0000B480068002802D0A88BFDF741FE002F06
:1000B00002D02846FDF7C1FCE4212846F0F784FE73
:1000C0000020C043A883F8BD50060020D43600208D
:1000D00080080020FFB581B01E460025164F25E0A0
:1000E000E420B96A68430C18A18B144881421CD0E3
:1000F000009601A90EC920463030FBF7C6FE002845
:1001000001D000210CE0E07F00280ED0009601A96C
:100110000EC920468930FBF7B8FE002805D0012122
:100120000A980170204605B0F0BD6D1C13F038F838
:10013000A842D5DC0020F6E7D4360020FFFF0000FF
:1001400070B506460D480E4D864201D1A86A70BDB5
:1001500000240DE02146E4225143A86A1C31405A94
:10016000B04204D1E421A86A4C43001970BD641C5C
:1001700013F016F8A042EDDC002070BDFFFF000078
:10018000D436002070B500240E4D08E04820696880
:10019000604340180C49283005F094FF641C13F0AC
:1001A000F3FFA042F2DC002407E0A968A001401898
:1001B0000649243005F086FF641C0EF007FFA042BC
:1001C000F3DC70BDDC060020DDF5010059F501000F
:1001D000F0B50546002089B0C04306900790002680
:1001E00068460674067353480C46006800280BD016
:1001F00020686189808BFDF7F3FD217DC0014906F0
:10020000490E0143217503E0207D4006400E207514
:10021000092128460BF04BFE47480068002812D001
:10022000FEF76CF800280ED0207D8006800F0AD1E2
:10023000FEF700F9002802D0207D400703D40520F6
:10024000C04309B0F0BD28460BF02DFE69468882F8
:10025000A888C88228680078C0090DD0207D410692
:1002600001D4C009EDD003A8009006AB04AA214632
:1002700028460EF089FA23E00120087306A80090B2
:10028000A8880027FF4300281BD00021204605F046
:100290006DFD002815D128460BF042FE0146207D59
:1002A000020705D52A462046009B00F0D3FD07E053
:1002B000420601D4C00925D02A4620460EF0C8FFC8
:1002C00007461D48006800280AD0FEF717F80028E6
:1002D00006D0FEF7AFF8002802D02046FEF790F8CF
:1002E0006946898AA868401869462860C88AA88033
:1002F00010480068002819D0207DC00916D0002FB2
:1003000002D013E03746DCE706990798C943C0439B
:1003100001436846007B0BD006AB694661C12146AC
:10032000064C6846027C24680020A047384688E7CF
:100330000023F2E7800800209C08002088080020A5
:10034000FFB5044688880025ED4387B00E46002897
:100350000CD0FF218131884203D91420C0430BB057
:10036000F0BD30460BF013FE042801D22846F6E714
:1003700014F004F8B188001D884204D2606880221D
:10038000417A1143417205A80090606806AB8288EB
:1003900041882068FCF778FD0028E0D1E07A6946C2
:1003A000097D8007800F89000843E0726068407A09
:1003B000C00904D030460BF0EAFD082803D2E07AE9
:1003C000FD21084002E0E07A02210843E072606803
:1003D00001218088C9030122411A9203914203D26C
:1003E000FDF738FF054600E0002502211A48FCF71A
:1003F0004AFE01461848278908380268511A42689F
:100400006068838804910197009502930392408865
:100410001249884202D0491E884201D1012100E0E0
:100420000021E07A33468007C20F0698FCF7ACFC47
:10043000002894D16068099A407AC1090020009090
:1004400000290A9B3146204602D00FF079FF86E74B
:1004500010F0D8F883E700005C360020FEFF0000B3
:1004600070B50024084D09E04820696860434018D1
:10047000807E002801D0012070BD641C13F084FE32
:10048000A042F1DC002070BDDC06002070B5002425
:10049000064D06E048206968604340180FF0F6F901
:1004A000641C13F071FEA042F4DC70BDDC06002079
:1004B00030B589B00C46054669460CA0FFF78CFCA8
:1004C000002811D104AB102229466846FCF723FC12
:1004D000002809D16846C08B012140BA8004800CF5
:1004E000C90340182080002009B030BD76746164D3
:1004F00000000000FFB583B0154668460C9AC28024
:1005000000201E460F460346009012241B2103982C
:10051000F4F792FB029000281BD06846C28831464F
:100520000298F0F736FC39460398F3F747FFC00707
:1005300008D068468580002201A90398F4F760F985
:10054000040003D01B2101A8F4F7BCFB204607B030
:10055000F0BD0620C043FAE710B502210248FCF7BF
:1005600089FDC0B210BD00006837002010B56421BD
:10057000014805F0BBFD10BDC038002010B5CA7899
:1005800050070AD4084692061430002A01DA496856
:1005900001E07D21C90005F0A9FD10BD10B5D0789E
:1005A000F7210840D0701446800606D4606B0028FE
:1005B00003D00BF01EFD0020606310BDF0B51546A2
:1005C0000A461E461D4903468DB04869029007A899
:1005D00001901C31039083C9139C059104900697E8
:1005E0006846038282821649284600F00DFA0028E8
:1005F0001ED1294601A8FDF7F8FF314601A8129A3D
:1006000005F044FE002C04D01022214601A80BF076
:1006100038FC002000900B480023406801AA0068C5
:1006200004A9FEF713F9040004D000F001FA2046F3
:100630000DB0F0BD00F014FAFAE7000054550200C6
:10064000038000004806002010B501790023DB4339
:1006500000290ED1826A002A0BD007494A6099000E
:100660001060818110460549103005F02BFD0020F7
:1006700010BD184610BD00004806002039320200A7
:1006800010B5044619491AA0FAF78EFA1BA0FAF71A
:100690008BFA1BA0FAF788FA0CF020FB00280ED08A
:1006A0002178FF2916D0C1680A682146904715486D
:1006B0007D22D2000121007813F0B4FB10BD0B495C
:1006C0000BA0FAF771FA10A0FAF76EFA0CA0FAF77D
:1006D0006BFA10BD054906A0FAF766FA11A0616829
:1006E000FAF762FA06A0FAF75FFAE0E703500200B1
:1006F0004150505F4442472025733E2000000000D7
:100700000A00000000000020556E61626C652066E2
:10071000696E6420556E626C6F636B6564204E6F0A
:10072000646500004F70636F646520307825303455
:10073000782C2074696D656F7574000070B5084D74
:1007400004466A68002A0AD090686060217000F050
:100750006FF968684168002901D02046884770BD5C
:100760004806002070B5084D04466A68002A0AD081
:1007700090682060217100F067F9686801690029BC
:1007800001D02046884770BD94080020F8B51E4669
:1007900017460D46FDF704F800280ED0094C002D31
:1007A0000ED00723621C314638460AF085F900282E
:1007B00002D1012020700020F8BD0720C043F8BD01
:1007C0000020F7E7A806002070B505460179846A85
:1007D0000020C043002931D1002C2FD0617902299B
:1007E0002CD8E179012929D8A17A7F2926D840007F
:1007F000134EA88131780220002900D1607111497F
:100800000968002900D160720F490968002900D1E8
:10081000207220460D490C3005F054FC0020C043E6
:1008200020860021A1632560E163746006F0D8FE94
:1008300018214143B068F0F7C7FA002070BD0000EE
:100840005006002080080020C4080020E555010063
:1008500070B5016880880D18281F12F02AFD044623
:100860002846083812F025FD44400C4800218A0033
:100870008258A24201D1012070BD491C0829F6DB33
:10088000074A91688B00C450491CC817400F401894
:10089000C008C000081A9060002070BD0437002016
:1008A0007806002000B587B0034605A219216846E6
:1008B00012F01EFF68460FF08BFF07B000BD00006E
:1008C00062742F6D6573682F4170704B65792F25A9
:1008D00078000000F8B50E460546FCF761FF314C84
:1008E0000746002D11D1207BC1060ED580060CD401
:1008F000E079032809D209F025FF207BFB2108407D
:10090000F107490F08432073F8BDFFF751FA20465D
:100910001430009005F0CCFB2248A1885C30806A3E
:10092000808B00F0C9FD207B00258006002801DABD
:10093000258201E0A08820821B484168002904D05C
:10094000207BC00601D502208847A580207BF721A7
:100950000840C0B2FB21E5710840A5716573C0B2C3
:10096000CF21E570084025646564C0B201210843C9
:10097000A5642073F88D000701D5FDF7F7FA094843
:10098000001F002E02D000210171F8BD032101716A
:1009900009F062FF7D21C9004143009805F0A6FBE4
:1009A000F8BD0000783600209C08002000B587B014
:1009B000034605A21921684612F09AFE68460FF018
:1009C00007FF07B000BD000062742F6D6573682FCC
:1009D0004E65744B65792F257800000000B585B011
:1009E000034605A21421684612F082FE68460FF005
:1009F000EFFE05B000BD000062742F6D6573682FB7
:100A00004E6F64652F257800084A5268002A05D089
:100A1000D368002B05D00320C04370470020C0439B
:100A20007047D160906000207047000048060020A9
:100A300010B5044800214068C1608160103005F0A5
:100A400037FB10BD4806002010B50448002140685F
:100A5000C1608160143005F02BFB10BD94080020AC
:100A600010B5034801684068103005F03FFB10BD29
:100A70004806002001B50E210C48FCF7FBFA0028BF
:100A800013D004210948FCF7B7FA002804D1012249
:100A900069460220FBF776FB05488068426B002A16
:100AA00003D0684601780120904708BD68370020D0
:100AB000C806002070B50546806800280ED0416940
:100AC00000290BD08088002808D02846FDF7B6FD05
:100AD000010003D0A868183005F008FB074800683B
:100AE00000280AD0002460004019408A002801D064
:100AF000FDF70CFC641C062CF5D370BD9C0800208F
:100B0000F8B50C4606460BF042FA217962794900A5
:100B100092008918091D884202D21120C043F8BDF5
:100B2000618830460BF0A0F9217930460BF0B4F91A
:100B3000617930460BF0B0F9002508E02C20A1685F
:100B400068430818018830460BF08EF96D1C207937
:100B5000A842F3DC00250CE02C20E16868430F1864
:100B6000798830460BF080F9398830460BF07CF9F3
:100B70006D1C6079A842EFDC0020F8BD00B5084983
:100B800085B049681046C968022906D102900BF069
:100B9000C7F901466846FFF7D1FD05B000BD00006A
:100BA0004806002070B506460024FCF76FFF054696
:100BB00020480078002800D001241F480068002841
:100BC00001D0022004431D480068002801D0042001
:100BD00004431B480068002801D0082004432988EA
:100BE00030460BF041F9698830460BF03DF9A98891
:100BF00030460BF039F90EF06DF9014630460BF036
:100C000033F9214630460BF02FF900240BE0E86859
:100C100021014118002C0BD000223046FFF770FF55
:100C2000002804D1641CA868A042F0D8002070BD40
:100C30000122F2E750060020C408002080080020AE
:100C40009C08002070B51C4D0246002912D00129D5
:100C50000FD100F0E7FA04000BD06868002805D037
:100C60004268002A02D00021204690476068401E5A
:100C7000606070BD104900200831C3005B185B68DC
:100C8000002B11D0401CF8D0002000280FD002808B
:100C90004168491C416069680029EAD00A68002A55
:100CA000E7D00021904770BDC0004018EDE7104626
:100CB000F2F784FC70BD00009407002030B50023DB
:100CC000084D0CE0CC5C4440200124092C5D6040C0
:100CD000C0B204010009285C4440E0B25B1C9342AE
:100CE000F0D330BD345C0200F8B51F46069E089D67
:100CF000079B0446002901D0022000E0012020705B
:100D0000D0071843611C12F0F1FA611D384612F049
:100D1000E9FAE11D304612F0E5FA2146093128468C
:100D200012F0E4FAF8BD0000F8B5002016460C46B3
:100D3000034600901F2217491748FBF75BFF051E6B
:100D400027D0207AC007010E28460C3007460BF04A
:100D5000A3F8E079C10904D04106490E3846803134
:100D600002E04106490E38460BF096F80322211D99
:100D700038460BF086F8218838460BF05BF861881E
:100D800038460BF057F8B288384631680BF079F8DE
:100D90002846F8BDA9130100E4390020FFB581B051
:100DA0001E46154613490B9F0C9C0198FDF71DFC30
:100DB000394601980BF070F8314601980BF054F861
:100DC0000A9901980BF050F8002D09D004210198E0
:100DD0000BF01FF804222146EFF7DBFF05B0F0BD52
:100DE000022101980BF015F82178017061784170AB
:100DF000F4E700003E80000010B5002303704C783B
:100E000044708C788470CC78C4700C7904714C79FF
:100E1000447189798171C3710146037209311046A9
:100E200012F064FA10BD10B5032303700023437061
:100E30008C788470CC78C4700C7904714C794471CE
:100E400089798171C371014603720931104612F02C
:100E50004DFA10BDFFB581B004466846017A1546CB
:100E60004E06760E07D00A2E09D0207D400627D4E4
:100E7000002005B0F0BD204613F080F8F9E7A888FF
:100E8000032802D20020C043F3E71A496089098889
:100E90000027884212D110460BF042F84606760E23
:100EA00028460BF00CF80346607B61894006400E33
:100EB000301A401CC2B22089FDF726F83846D8E720
:100EC0000D4F3868002803D0FDF718FA002808D025
:100ED0000A480368002B09D02A4621463046984725
:100EE000C7E72A46214630463B68F8E70720C0435B
:100EF000BFE70000DC0600208C080020A4080020CA
:100F000030B505460D4887B0006E029004A80C4627
:100F1000019003900A4901A8FDF767FBFCF712FE58
:100F2000014601A80AF0B8FF00200346009001AA7C
:100F300021462846FDF78AFC07B030BD3C57020029
:100F40000E80000030B50446154887B0C06E029090
:100F500004A801900390A06A0D4600280BD01168E8
:100F600009787F2919D8012917D0827A8A4202D0BC
:100F70008172FEF7DBFF0B4901A8FDF736FBFCF79A
:100F8000E1FD014601A80AF087FF0020034600901A
:100F900001AA29462046FDF759FC07B030BD0000E4
:100FA0003C5702000E80000070B506461448E4B0BD
:100FB000C068029004A8019003900D4610460AF004
:100FC000AFFF040000D0002468464089002814D0F8
:100FD000022101A8FDF709FB214601A80AF05CFFE8
:100FE00001A8FFF7DFFD002807DB00200346009083
:100FF00001AA29463046FDF729FC64B070BD000007
:101000003C57020002484068002800D10148704760
:101010003806002008060400014880687047000078
:101020003806002010B50C4606F06AFB002804D0F4
:1010300040882146F4F78DF810BD122010BD000045
:1010400010B500F037F9002806D084680348012164
:10105000007812F0A9FB201A10BD0000E80600205D
:101060003EB5044649061546490E10460AF076FF7D
:10107000FEF7F4FA6946088020884880C879802104
:101080000843C009C0016946C871032101A8EFF7F0
:101090009BFE02210648FBF7FFFF05492A46083957
:1010A0000968081A029069462046FFF73DFE3EBDDA
:1010B0005C36002038B50D0080881C46049943BA80
:1010C000009201D003A200E007A2204612F010FB1C
:1010D00038BD000062742F6D6573682F566E642FE3
:1010E00025782F257300000062742F6D6573682FBB
:1010F0005369672F25782F2573000000F0B505464A
:10110000144887B08069019004A8009002900E46B0
:10111000E889FFF715F80746012168460AF025FF20
:10112000062168460AF075FE04463846FDF782FD42
:10113000207009480422006803A900BA0390601CCB
:10114000EFF727FE66716A4602212846FFF788FFFF
:1011500007B0F0BD2C5F02005436002010B50446E5
:1011600038300AF033FF206C401C206410BD10B5ED
:101170000446FFF7C3FF010002D02046FFF7EEFF51
:1011800010BD10B5F1F74CF8002801D00D20C04378
:1011900010BD70B50E00054617D0002405E0686844
:1011A0006100405AB04210D0641C0DF0DFFAA0423A
:1011B000F5DC002405E068686100405A002805D08D
:1011C000641C0DF0D3FAA042F5DC70BD68686100C4
:1011D000465270BD70B50D0006460AD000240AE0E4
:1011E00070686100405AA84204D100207168620012
:1011F000885270BD641C0DF0B9FAA042F0DC70BDDD
:10120000074A002154234B43D358834203D154202F
:10121000414388187047491CF4D0002070470000F3
:101220002C3A0020064A0021CB00D35A834202D137
:10123000C80080187047491CF6D000207047000095
:101240009C070020FFB581B0164600240A9F0B9D25
:1012500029E02C20019960434018032189033F2293
:10126000711A12022860914206D90121C903012294
:10127000711A9203914204D23146FDF72DF90028EC
:101280000FD0286804990AF0A3FC002809D0286828
:10129000006A03E00168B9420AD00C308168002975
:1012A000F8D1641CE4B202988442D2D300202860B2
:1012B00005B0F0BD02490868884200D1002070479F
:1012C000EC06002010B50A48044612F054F8002835
:1012D0000CD121680A6822606068884200D162608F
:1012E0001839C889FBF7FCFF0AF083FE10BD000027
:1012F0002836002030B483680C46002B03D02046EB
:1013000030BC11461847122030BCC0437047F0B4BF
:10131000046815460E46002C05D029463046A446E2
:10132000F0BC1A466047F0BC1220C0437047F0B4CE
:10133000446815460E46002C05D029463046A44682
:10134000F0BC1A466047F0BC1220C0437047002032
:101350007047C268002A01D0084610471220C043D7
:10136000704700000249CA7A082AFCD00872704708
:1013700000340040F8B500240A4D2646BF27A000DF
:101380004119FF310131C86C002809D0CE64816950
:101390000A7A3A400A720AF02CFE641C032CEED33F
:1013A000F8BD000068370020034900220969D243D4
:1013B00040000A524018704780080020F8B50446E3
:1013C0001D484268002A05D0E078800602D52088B2
:1013D000022190472046143004F06AFE2188E089FB
:1013E00000F06AF8606B0027002802D00AF001FEC6
:1013F0006763204638300DF043F9002508E00C20E3
:10140000216B68430E1830460DF03AF937726D1CA7
:1014100000F04CFAA842F2DCE078C721084040080E
:101420004000FB2108402764E07000F045FA4100CD
:101430002069EFF7C9FCF8BD8008002010B50C4604
:101440000846403461897D22D20051434C3004F07B
:101450004DFE60894000608110BD000010B50C4A4F
:10146000D3795B1C011E0B48D37108D00321017195
:10147000107B4007C10F0020FFF72CFA10BD01219F
:10148000017110460449143004F030FE10BD000014
:1014900078360020743600204C04000010B500217E
:1014A000C9430180002141808180C18042210830F0
:1014B000EFF78AFC10BD0000F8B50D460646002483
:1014C0000B4F0EE04A20F968604340184188A9425A
:1014D00006D10188B14203D1FFF7E0FF0020F8BD3B
:1014E000641C00F0D7F9A042ECDC0720C043F8BD33
:1014F00078060020FFB581B01F460E460546002441
:101500002DE01A494A20C968604340180188AA8B17
:10151000914223D1002E02D04188B1421ED10399BD
:10152000002906D0A97F4A01891809180A7A039967
:101530000A70002F05D0A97F4A01891809180931BE
:1015400039600A99002906D0A97F4A01891808182C
:101550000A9919300860002005B0F0BD641C00F045
:1015600099F9A042CDDC0720C043F5E778060020BA
:1015700070B5054600240C4E10E04A20F168604327
:1015800040184188002908D00188A94205D10146A8
:10159000212229310830EFF7FCFB641C00F07AF9B6
:1015A000A042EADC70BD000078060020F7B50446D2
:1015B0001B486688006886B0002808D01948008D4E
:1015C000864204D1FEF74AF80646658802E0FEF737
:1015D00045F8054601206946087202AF30460931D8
:1015E00011F07CFEF91C284611F078FEA088791DC8
:1015F00011F074FEE088F91D11F070FE07980922C1
:101600004101401803191946184619310930019152
:10161000009002A908330898FCF740FD09B0F0BD1E
:101620009C08002054360020F8B5002407460546E3
:101630000D4E893711E04A20F16860434018418817
:10164000002909D00188AA8B914205D13A4601218F
:10165000FFF7ACFF002805D1641C00F01BF9A04285
:10166000E9DC0020F8BD000078060020FFB583B05B
:101670001E460F46002539E023494A20C9686843C1
:10168000441803982188808B81422ED13878217AA2
:101690004006400E88420ED105990C9800912246D2
:1016A000029021463B4619320196093103980AF00F
:1016B000C7FC002820D00398C07F002815D03878B8
:1016C00041062920005D490E81420ED105990C98F2
:1016D00000912246029021463B463A3201962A3139
:1016E00003980AF0ADFC002808D06D1C00F0D2F879
:1016F000A842C1DC0720C04307B0F0BD307D022105
:10170000084330750020F7E77806002010B50EF08A
:1017100065FB10BD70B50546C078164680061BD522
:10172000E889884218D1002E08D00120C0038642E3
:1017300004D21146284604F00CFB70BD002407E0DB
:1017400028696100405AB04201D1012070BD641C7B
:1017500000F0B2F8A042F3DC002070BDFFB581B00C
:101760001746002500F09CF80499884221D30024F4
:1017700012E00198016B0C2060430E18002F08D076
:1017800038880299C204D20C304604F02DFB0028A0
:101790000CD1307A641C451900F088F8A042E8DCCE
:1017A00000F07EF8411B0498814202D9012005B067
:1017B000F0BD0020FBE7000010B5074A002909D161
:1017C000508210466421143004F090FC0249042039
:1017D000091F087110BD00007836002010B50446BE
:1017E000C078012807D1207B0421C841490740184F
:1017F0001C21C84120732046143004F059FCFEF728
:1018000028FB0349062008710020E071E07010BD3C
:101810007436002070B50546846A10680E4602785A
:10182000002A01D0012A1AD1002C14D0607A9042EB
:1018300011D00B480068002808D06272FEF776FBD2
:10184000607A002802D10748FCF772FAE08D400761
:1018500001D5FCF78BFB314628460EF0BFFA70BD70
:1018600080080020FFFF000000B50849084B4968C8
:1018700085B0C9681046994205D10AF051FB01466E
:101880006846FEF75BFF05B000BD0000480600207B
:101890001180000001480068807E704738060020F3
:1018A00001480068C07E7047380600200148006883
:1018B000007E70473806002001480068407E70476F
:1018C00038060020002917D0002815D0012804D0A0
:1018D000022805D0032807D00CE04879C02207E091
:1018E00048798006800E04E048798006800E402208
:1018F00010434871012070470020704710B5054C17
:10190000606B002803D012F089F800206063207E0D
:10191000607610BD88050020F0B54D4D0746686B18
:1019200087B00E4600281CD1002F7DD0002E7BD022
:10193000384600F04FFA6876297E884211D3002499
:101940000AE0E96B200140180622FF2111F035FF63
:10195000002805D1641CE4B2287E8442F1D3C4B2CD
:101960006C76687E297E884270D2696B00290DD022
:101970008A680024002A27D0062148432130C0B2BB
:101980001C2112F0B1F9686B846050E006214843D5
:101990002030C0B23A46102112F0A6F91822FF21D9
:1019A000684612F01FF8687E6A467030C0B218218F
:1019B00012F09AF9687EE96B00014018102239464E
:1019C00011F018FF6E6332E00A69002A09D006217F
:1019D00048432230C0B21C2112F086F9686B0461C2
:1019E00025E04A69002A09D0062148432330C0B2C5
:1019F000102112F079F9686B446118E0CA68002A76
:101A000018D0062148432430C0B2102112F06CF9DE
:101A1000686B0621C268687E103248432530C0B228
:101A2000042112F061F900E010E0686BC46000204E
:101A300007B0F0BD687C002801D000F083FBA87CD3
:101A4000002801D000F046FB00F0E6FB0120EFE7A4
:101A500088050020F7B588B004462022002168469A
:101A600011F0C0FF6A4614805B480425817B117722
:101A7000FF2101310A9E4A008B000224002E50D023
:101A800087786E463771C7787771069E4079BC4675
:101A90007608C7077600FF0F3E4306968607069E28
:101AA00001D5264300E0A6430696C6064A4F069E89
:101AB00001D50E4300E08E430696810606993E4608
:101AC00001D5114300E0914306914106069901D5E5
:101AD000194300E0994340070691084601D5284381
:101AE00000E0A84306906046002805D001A8102217
:101AF0003A49023011F07EFE3179002905D009986B
:101B0000002802D00698204306906846807D002970
:101B100000D00121084369468875717850E004219E
:101B200050E0077A6E463771477A7771069EC07A21
:101B3000BC467608C7077600FF0F3E430696860729
:101B4000069E01D5264300E0A6430696C606224F10
:101B5000069E01D50E4300E08E4306968106069947
:101B60003E4601D5114300E0914306914106069996
:101B700001D5194300E0994340070691084601D575
:101B8000284300E0A84306906046002806D0134989
:101B900001A810221031023011F02CFEB17A002978
:101BA00005D00998002802D0069820430690684680
:101BB000807D002900D00121084369468875F179AC
:101BC0000029ACD108436946887568460A99F1F73F
:101BD00003FD0BB0F0BD0000880500202435002077
:101BE000F0B5064687B0062041430C9D1446082BED
:101BF0001BD02131CFB21C220021684611F0F2FE29
