:020000040000FA
:1000000000800020A5000000E9230000AF000000F0
:1000100000000000000000000000000000000000E0
:10002000000000000000000000000000AF00000021
:100030000000000000000000B1000000B30000005C
:10004000B5000000B5000000B5000000B5000000DC
:10005000B5000000E91F0000B5000000B500000079
:10006000B5000000B5000000B5000000B5000000BC
:10007000D13E0000B5000000B5000000B500000052
:10008000B5000000B5000000B5000000B50000009C
:100090000348854600F0D8FE00480047B1CB000079
:1000A000008000200448804704480047FEE7FEE740
:1000B000FEE7FEE7FEE70000D540000091000000EB
:1000C0002E4611462D1B804145402D1AC91ABF41AD
:1000D0007940C91B47408946A846210CA4B2204656
:1000E00095B2120C68434D43544351432204240CEF
:1000F000801861412A042C0C80186141340CB6B27E
:100100009DB21B0C32466A4365435E4363432C0435
:100110002D0C12196B413404350C12196B417640C9
:1001200052187341494645468046080C89B20C4630
:100130002E0CADB269437443454370432604240C2E
:10014000891960412E042D0C891968417940784045
:1001500064407F10514142416741404609185A416D
:100160007B41704700B5FFF7ABFF03B451469246A1
:1001700033C922462F46121A8F41B641724077404A
:10018000921BB74184B45A469B460FCA801A9941C4
:10019000BF4178407940C01BB9417740BC4603B4A9
:1001A000FFF78EFF54465D46764000196941724163
:1001B000734192469B463CBC03B4FFF781FF30BCC1
:1001C00066466746704071407240734076106041E9
:1001D000694154415D415240564157410CBC9046E3
:1001E000994612184B415046594644414D414641AB
:1001F0004F4100BD01B590B006B492468B46104603
:1002000030C808300CC9083103B4FFF7ABFF06A8AB
:100210000CC004A842464B460CC006BCF0B48A464B
:10022000934630C90CCAFFF79DFF40464946B04689
:10023000B946C0BC80197941C0BC72417B4106AF50
:100240000FC7BA46404046464F46444145414641A5
:10025000474106BC9446F0B4FFC9001BA941B24116
:10026000BB416440A4416040614062406340001B68
:10027000A141A241A3416646A44655460FC5AB46DF
:1002800080468946FFCE241A8D4196419F414040C9
:1002900080414440454046404740241A85418641BC
:1002A0008741614648405946F0C101B442464B4639
:1002B000FFF758FF01BC844642404340444045405C
:1002C00046404740F0B408A9F0C949464140A2461B
:1002D00044464010604054466041694172417B4150
:1002E00064406441A2460CACF0CC001969417241F3
:1002F0007B41A1460CAC0FC40FBC4C4644414D4160
:1003000056415F410021494150468A4640100FBC8A
:1003100044414D4156415F41804608A8F0C04046E7
:1003200066465546644075416641401971417241C7
:1003300073410CAF0FC7FFBC1B184C4155414641E0
:1003400090469946A246AB46B4464F413CBC42411A
:100350004B4100267441754176413F1A8A4140461F
:10036000494683418C4100208541864160464018C2
:10037000844650464741BE46404642414B41444177
:100380004D4100277E4103BC361879417F415846D4
:100390001218904662465341994653465C41A24624
:1003A00045415E41414114BC7A4100277C417F4177
:1003B000ED1A8641634670469941824100239C4173
:1003C0009F41A646BB46544624185D4167467E4180
:1003D00041417A417746474158465841DB1A8246A7
:1003E00040465841BB464F465F418446B9465C4152
:1003F0009D419E41994101239A4100235846574609
:1004000058419F419046624683464B46D2197B41F4
:100410007C41002045414641414101BC7CC0012551
:100420003D4042465B466A417B410EC000BDA0B2E2
:10043000210C02464A4340434943D30B52048018DF
:100440005941641BB6417440A41BAAB22B0C15463B
:100450005D4352435B43EE0B6D045219734100261A
:1004600052187341250CA4B22146694364436D437D
:10047000CE0B4904641875411146091BAA411D465B
:100480000026B34109186A417341704700B5204600
:100490002946801BB941924150405140801A9141F8
:1004A00080468946B246FFF7C2FF54463D46824623
:1004B0008B4694461F46FFF7BAFF64460019794100
:1004C000724173411F468446444688464D469146D4
:1004D000FFF7ADFF644645464E46241A8D4130462F
:1004E000394690419941002296419741524612194E
:1004F0005B466B416446444145464D4100204641C0
:1005000047415046594600BD01B590B002B4F0C90C
:10051000FFF7BCFFF0B405AC0FC4049C1034F0CC62
:10052000FFF7B4FFA046A946B246BB46F0BC00198F
:10053000694172417B4144464D4656465F4680467E
:10054000002044414541464147414046FFB4089C94
:10055000FFCC241A8D4196419F4180414440454043
:1005600046404740241A854186418741FFF78EFF68
:10057000C043C943D243DB43E443ED43F643FF4367
:10058000A046A946B246BB46241BF0BC6041694167
:1005900072417B41A44609AC0FC4644640466041A9
:1005A00080464946694189465246724192465B46B9
:1005B0007B419B4600204041844605A8FFC80019A6
:1005C000694172417B4109AC0FC46846F0C841469D
:1005D0004C4149464D4151464E4159464F410DA867
:1005E000F0C0F0BC61460022D24351410A116418A8
:1005F000554156415741F0C001B09CE601B519C9BB
:10060000E0CA401973417C4180469946A24660C9C0
:1006100018CA5D4166411AC985CA414153417C41AE
:1006200000277F41001A4246B8464F46A14654462D
:10063000424192464741BB46444185418641814102
:100640000120834100204A4642414746874198465F
:100650005B4693465246D9E601B519C9E0CA401B2C
:10066000B341BC4180469946A24660C918CA9D4123
:10067000A6411AC985CA81419341BC41BF41424646
:100680009846A3464B465446C0E6012102C00021CD
:10069000002206C006C006C002C020387047F0B570
:1006A00001A2FFF7A7FDF0BD03000000000000005D
:1006B000FFFFFFFFFBFFFFFFFEFFFFFFFFFFFFFF4F
:1006C000FDFFFFFF04000000F0B5002200230CB482
:1006D0000CB40CB401220CB46A46FFF78BFD08B0D1
:1006E000F0BD01B50FA200F0E3F80098403005A17D
:1006F00000F020F804D003A00099403100F01AF86F
:1007000002BD0000DFBDC42962DF9CD89030847830
:10071000CD05F0ACD62E21F7AB20A2E534488704F6
:100720001D0630DC402030211311134113411341C9
:100730000145000070B56D1BEE43082208C810C9C2
:10074000A34132441242F9D16D41284670BDF0B543
:1007500001246542A846A41A082620C980CBAF41CF
:10076000574365432F4480C046443642F5D1F0BD1F
:1007700030B53CC93CC03CC93CC030BD202202441D
:100780000B780370013101309042F9D17047F4B514
:10079000042641B40027B846B946BA46BB46BC4613
:1007A000BE4602987840EFF30080800F1CC9424398
:1007B0004343444390449944A2441CC942434343A5
:1007C000444393449C44A64448310137082FE8D160
:1007D00041BC42464B4654461CC05A46634674468A
:1007E0001CC0F839F839F839013ED2D1F1BD0EA25A
:1007F0005EE001A25CE00000802030138010401415
:10080000502161105111711130433022531585155B
:100810003213414402104022131123430032324369
:10082000034242122144000080207815603160406C
:10083000011000510130002170244022641444331F
:100840001343434101100244000081460F460FCF7D
:10085000C607F517F60F0024401969416A41634144
:100860000FB40FCF6041614172416B41002464417C
:10087000E7075E083743DE0755082E43D5074C08C7
:100880002543CC0743081C43C30748461030F0C03B
:100890001F460FBC5E083743DE0755082E43D507B9
:1008A0004C082543CC0743081C434846F0C070471A
:1008B000F0B598B020230C46CD18EE1870B404465D
:1008C000C518EE1870B406ACE518EE1870B43C24E8
:1008D0006D461388023204B49A002240AA5899083F
:1008E0002140695898092040285804A59E0A2640AE
:1008F00003D0AE59B04704BCE9E722B0F0BD000018
:10090000F501000009050000FD0500005906000082
:100910004B08000005B5002907D002B40198014634
:10092000FFF7F2FD02BC0139F7D103BC0246FFF725
:1009300061FC00BD01B5FFC8FFB4089801216A46FB
:10094000FFF7E8FF0898FFC8FFB410980146FFF7CB
:10095000DBFD10980146FFF7D7FD1098FFC8FFB4E4
:100960001898694608AAFFF745FC08A81899FFF7E8
:10097000FFFE189F00240CA210570132155D86005F
:1009800004D588B068463946FFF7F2FE3846F1B222
:100990002A466A4490B4FFF7BDFF90BC0234162C7F
:1009A000E9D131B000BD000001208200840088A0A0
:1009B00020000800042002400180016000A0F1B581
:1009C0004030FFC8FFB46846FFF7B4FF694688B0FF
:1009D0006846FFF799FD08A96A460846FFF70AFC32
:1009E000694610980246FFF705FC08A910982030C8
:1009F0000246FFF7FFFB11B0F0BD4242C3171340A0
:100A0000D217104018437047F0B544464D4656463D
:100A10005F46F3B4C0B01E0408A81146FFF7AEFE4F
:100A20006846FFF732FE08A86946FFF783FE01D14A
:100A300042B0C4E008A870A1FFF77CFE0138F7D0EF
:100A4000684608A90A6801231A405A4016446AA356
:100A5000FFF77DFE18A900980007000F01226C46E1
:100A600001255308E35CD7077F0FFB401B071B0FD3
:100A700001271F406F403F01C01B087001312B430D
:100A800018460132402AECD108704199E0B0E0B03C
:100A90006846FFF773FEFFF771FE68464EA1FFF749
:100AA00049FE013802D160B060B0C1E708A84AA190
:100AB000FFF740FE0138F6D068466946FFF7EFFDC4
:100AC00008A808A9FFF7EBFD6846FFF70AFE002813
:100AD000E9D010A8FFF7D9FD0146FFF7E0FDA8A86F
:100AE0006946FFF784FE18AC07252046A8A9FFF742
:100AF0003FFEFFF73DFEFFF73BFE20460146603913
:100B0000FFF777FE6034013DEFD1E8AF013F387861
:100B1000013F40B2FFF771FF4208C0A86946FFF7E6
:100B200036FED8AD0424C0A80146FFF760FE013CA4
:100B3000F9D13878013F40B2C40FFFF75EFF420899
:100B4000E8A86946FFF723FEF0A80146224622A343
:100B5000FFF7FDFDAF4203DAA8A8C0A9FFF747FEE3
:100B6000C0A8E8A9FFF745FEAF42DBDA6846FFF709
:100B70008CFDD0A86946FFF7DDFD821DE8A818A905
:100B8000FFF705FE74B074B06846FFF718FF6846BB
:100B90006946FFF799FD08A808A9FFF795FD08A881
:100BA00008A9F2B20CA3FFF7D2FD18986946FFF727
:100BB000E5FD360C01D0FFF7E1FD01201AB0F0BCD5
:100BC000A046A946B246BB46F0BD0A4612A1012383
:100BD0001AE7002318E70000FFFFFFFFFFFFFFFFFA
:100BE000FFFFFFFF00000000000000000000000009
:100BF00001000000FFFFFFFF512563FCC2CAB9F3EB
:100C0000849E17A7ADFAE6BCFFFFFFFFFFFFFFFFC3
:100C100000000000FFFFFFFF96C298D84539A1F4FD
:100C2000A033EB2D817D0377F240A463E5E6BCF8A9
:100C300047422CE1F2D1176BF551BF376840B6CB74
:100C4000CE5E316B5733CE2B169E0F7C4AEBE78E70
:100C50009B7F1AFEE242E34F30B50B46014600206F
:100C60002022012409E00D46D5409D4205D31D46B2
:100C70009540491B2546954040191546521E002DAA
:100C8000F1DC30BD70B500242546002801DA0124CE
:100C90004042002901DA01254942FFF7DDFFAC425D
:100CA00000D04042002C00D0494270BDF8B500246D
:100CB0002546002904DA0E46012400214042B141B4
:100CC000002B04DA1E46002352420125B34100F0F6
:100CD0007AF88C4617461E46AC4203D000254042A7
:100CE0008D41AC46002C02D0002657429E41614601
:100CF0003A46334601B0F0BD10B5202A04DB014668
:100D0000203A9140002010BD914020239C1A0346B8
:100D1000E3401943904010BD10B503461C460C43F8
:100D2000A40703D009E010C9121F10C3042AFAD285
:100D300003E00C781C70491C5B1C521EF9D210BDDC
:100D4000D2B201E00270401C491EFBD27047002263
:100D5000F6E710B513460A4604461946FFF7F0FFBA
:100D6000204610BD421C0178401C0029FBD1801A8E
:100D7000704710B5002200E0521C835C8C5CA342DB
:100D800001D1002BF8D1D8B2E1B2401A10BD30B574
:100D900004460020034600E05B1C934203D2E05C63
:100DA000CD5C401BF8D030BD30B505460020034671
:100DB00000E05B1C934205D2EC5CC85C201A01D1B8
:100DC000002CF6D130BDF0B51FB40646002082B02D
:100DD00005464024019100901BE0019922460F46F0
:100DE000304600F020F8049A059B801A994110D3F0
:100DF000104619462246FFF77FFF361A8F410197AA
:100E0000224601200021009FFFF776FF38184D4150
:100E100000902046641E0028DFDC019B00982946D4
:100E2000324607B0F0BD10B5202A04DB0846203A50
:100E3000D040002110BD0B46D340D0402024A21A40
:100E400091400843194610BD064C0125064E05E0A9
:100E5000E36807CC2B430C3C98471034B442F7D3DB
:100E6000FFF71AF9D4620100F462010070B58C1822
:100E70000578401C6B075B0F01D10378401C2A11D9
:100E800006D10278401C03E006780E70401C491C15
:100E90005B1EF9D12B0705D40023521E0DD40B7015
:100EA000491CFAE70378401CCB1A921C03E01D781A
:100EB0000D70491C5B1C521EF9D5A142D8D30020ED
:100EC00070BD00000448C17E80221143C1760F210D
:100ED00001762121417670474010004010B5124C38
:100EE0002068C0051FD50320206000200821401C79
:100EF0002268C0B20A4322600EE02268920510D434
:100F0000222807D90948026B002A0AD001210320B0
:100F1000904706E0401CC0B22268D205EDD50028FB
:100F2000E5D10020206010BD80C30040AC2F002020
:100F300070B514460D460646FFF7D0FF2D480368EE
:100F40001968062291431960316899627168D96203
:100F5000B1681963F1685963296899616968D96151
:100F6000A9681962E9685962596802229143596077
:100F70005D6801210D435D601D680D431D6000E04B
:100F800000BF59688907FBD5596891435960996931
:100F9000217001688969090A617001688969090C11
:100FA000A17001688969090EE1700068C169217149
:100FB000C169090A6171C169090CA171C169090E90
:100FC000E171016A2172016A090A6172016A090C00
:100FD000A172016A090EE172416A2173416A090A2C
:100FE0006173416A090CA173406A000EE07300202E
:100FF00070BD00001003002010B501F025F8024973
:1010000000F050FF002010BD060400000148006EF3
:10101000704700008C35002010B501F0EFF810BDCE
:101020000A7802700A88120A42704888801C80B2CE
:1010300070470000064910B5884202D100F064FFF5
:1010400010BD0BF035FB0028FAD1172010BD0000B1
:10105000FEFF000038B505464A6800200C46002A0D
:1010600003D00321104612F06FFE009023461B228E
:101070000249284604F06AFB38BD00002110000038
:1010800010B5094803F0C4F8084C207004F0F0FDD6
:1010900000F074FE064800F029FF4B229201022165
:1010A000207813F0A7F810BDB51000000000002054
:1010B0007DC2000030B58BB00C46C80708D00DF0DB
:1010C000D5FF002802D020460BB030BD01203CE007
:1010D000A0073CD51F4D288A00282ED01E491FA0EE
:1010E00003F046FA298A21A003F042FA25A003F072
:1010F0003FFA19491C2214316846FFF70DFE288A71
:101100006946888013F086FB694688711EA20FCA63
:1011100007AD0FC5042207A9684613F08BFC05062E
:101120002D0E0AD00C490DA003F022FA29461AA070
:1011300003F01EFA13A003F01BFA1B481922D20178
:101140000221007813F056F802206040BCE700202E
:10115000BAE70000740E0020705301004150505F48
:101160004442472025733E20000000006170705FFC
:101170006E6F6465735B315D204144445220257875
:10118000000000000A000000000102030405060739
:1011900008090B0C0D0E0F107472616E73206661DE
:1011A000696C656420256400000000200448034940
:1011B000006801600349C16270470000A522080170
:1011C00014030020784E010010B5074C5D20216803
:1011D000086501F0C3F920680021016503484279E0
:1011E000521C4271C17110BD280200200030002045
:1011F00070B52C49002048602B4800892B4CC0B2A8
:101200008109022904D0012908D0810916D026E0DD
:10121000C820A0801020E080E8201FE0C506ED0E69
:101220002D2029468001FFF717FDA0802946782050
:10123000FFF712FDE08029461D480DE0C506ED0EC2
:101240002946C020FFF708FDA08029460820FFF7A7
:1012500003FDE0802946E820FFF7FEFC20811649C7
:101260001448086016491548086017491548086071
:1012700017491648086018491648184C086018495C
:1012800020680122D202086180184861012048715B
:1012900000F062F9607D002802D112492020086028
:1012A00070BD00002C02002000100040E02F002044
:1012B000980D000000C000401803002000C300404B
:1012C0001003002000C200402802002000D000408F
:1012D0001C03002000C1004014030020AC2F00209C
:1012E0000030002000E100E0F8B556480068816851
:1012F0000127C9050025544C544E00292EDA816877
:101300003A0291438160207840060CD550485149FB
:101310000068884206D15049886BE0608A6B904231
:10132000FAD100E080472078384320706570E0797A
:10133000062803D043495D20096808653068002805
:101340000AD001690A68406902430A603168086886
:10135000026889680A4302606571A560394B1868A4
:101360008168890521D581680122520291438160FB
:10137000A0783843A070E57038480068C16A8908D1
:101380008900891CC1620168D20411430160306880
:1013900000280AD041680A68806802430A60316800
:1013A000C868026849690A43026018688168890749
:1013B00017D58168022291438160E770A5705D2195
:1013C0000165306800280AD001690A684069024353
:1013D0000A6031680868026889680A4302606571BA
:1013E000A56018688168C90715D081684908490057
:1013F000816025706770306800280AD041680A68EB
:10140000806802430A603168C868026849690A4313
:1014100002606571A56018688168C90603D5816896
:101420001022914381608168490703D581680422B5
:10143000914381608168090703D58168082291433F
:101440008160F8BD2802002000300020300200201A
:1014500024020020453E000000100040140300203C
:1014600070B504460068002828D00121000C49030B
:10147000884223D1A088002820D020460622FF21C0
:10148000163012F096FC01281AD0A288002120689C
:1014900012F094FD342200212D4812F08FFD3422E9
:1014A00021462B4812F0A2FC2948062216300021C2
:1014B000054612F07EFC012804D008E0022070BD31
:1014C000032070BD23490622284612F08FFC2048D5
:1014D0008189002902D1012149028181827B012178
:1014E000002A00D18173C27B002A01D11B22C27362
:1014F000027C002A01D105220274427C002A00D11C
:101500004174817C002901D114218174817F0029DB
:1015100001D128218177C17C002908D0827FE17C1C
:1015200092088918C174617F002904D005E0817F89
:1015300089082D31F6E702214177806A002803D01F
:10154000804703493431488102F01AFE002070BD03
:10155000AC2F00200806040010B500F0A7F800F03A
:1015600027FD00F095FFFFF721FE0B4C5D20216861
:10157000086501F0A5F801F063FE01F069F800F0DC
:10158000EDFF064801214171226800211165C171FA
:10159000FFF7A4FC10BD000028020020003000204E
:1015A00030B58DB0122227A12B4812F011FC002873
:1015B00041D02A4857210170A82101705121274AA2
:1015C000C900403A1181002101702648244A426135
:1015D000254A0724D3691B021B0A45042B43D36108
:1015E0008161046101690222914301613422002179
:1015F000684612F0E3FC1D48009001204003694654
:1016000088801B20C87305200874012048741420AA
:101610008874FB20800202900D20087714480890FF
:1016200014480A900846FFF71BFF010007D012A0DC
:1016300002F09EFFFEE718A002F09AFFFEE70DB051
:1016400030BD000043483537785F424C455F4C4918
:10165000425F56312E3800002C55010040100040EA
:10166000FEFFFF0000E000E004ED00E0900F00202E
:10167000C9400000211D00004C494220696E697478
:10168000206572726F7220636F64653A202578203E
:101690002E2E2E0A00000000686561642066696CC9
:1016A00065206572726F722E2E2E0A000A48094953
:1016B00000680A6902610A69426149698161C16120
:1016C0008268012149030A438260C2680A43C260FA
:1016D00070470000003000201803002030B5104A89
:1016E0000346517AFD20842454720E4CA568002DC7
:1016F00007D0A57B002D04D0A489E51FFF3DFA3D4E
:1017000002D05172FF2030BD7D24E402A34205D3F4
:101710005360A6201072907A40235840517230BD19
:1017200000180040AC2F0020F8B504460025C00585
:1017300001D00120F8BD112069460870334E002009
:1017400030707070324F80207872087811300870D5
:10175000304800790007000F0D2802D0012000F06A
:1017600077FE69460878113008702A488179890720
:1017700001D00220F8BD6A461178113111708179CB
:10178000890704D11178442901D15721317011788A
:10179000113111708079800707D11078552804D154
:1017A0003078572801D1A82070701078113010704F
:1017B000307857280ED17178A8290BD11178662975
:1017C00008D17C607D21C9028C4201D2882100E0D1
:1017D00084217972117811311170572809D17078EC
:1017E000A82806D11078772803D1A62038727889E6
:1017F000C5B2002010703070707080207872402D5B
:1018000001D00320F8BD0020F8BD0000F401002045
:101810000018004020100040F7B50446002682B0B2
:101820000D46800702D0012005B0F0BD11206946A9
:1018300008703D480021017041703C4F8020787253
:101840006946087811300870394800790007000FA0
:101850000D2802D0012000F0FBFD69460878113008
:10186000087033498879800701D00220DCE76A4696
:101870001078113010708879C00705D1107844288D
:1018800002D12948572202706A4610781130107030
:101890008879C00708D11078552805D122480178E9
:1018A000572901D1A82141701078113010701E4ABB
:1018B000107857280ED15178A8290BD1694609789C
:1018C000662907D17D23DB029C4201D2882100E0FA
:1018D000842179726B46197811311970572816D105
:1018E0005078A82813D11878772810D100209A238F
:1018F0000AE07C6002CD39603B727989241DCEB24A
:10190000402E04D1001D80B204998842F1D30020FA
:10191000694608701070507080207872402E01D097
:10192000032081E700207FE7F40100200018004039
:101930002010004010B504460AF084FE002805D0AF
:1019400000781322214600F003F810BD122010BDCC
:10195000F7B505461E4812261E4F0C46814208D197
:10196000B868002832D00268002A2FD02846904755
:10197000FEBD1748401C844219D1B868002806D023
:101980000268002A03D028469047002806D028463F
:10199000029908F0FFFC060005D017E07D70029860
:1019A00038700020FEBD7D70029838700EE0084649
:1019B0000AF048FE002809D00078A84201D0032090
:1019C000FEBD2046029900F071FAFEBD3046FEBD14
:1019D000FEFF0000E00400207CB50D4610490446DF
:1019E00008690022002805D08388A34204D002465B
:1019F0000068F7E701207CBD002A02D00168116071
:101A000001E002680A6112F053FA6946204600F0CC
:101A100063F80028EFD1002DEDD0019929607CBD3D
:101A20000C05002070B50A4C0025A04208D100200A
:101A300082008C525218401C95700328F8DB70BD50
:101A400009F0A2F90028FAD00480857070BD00006A
:101A5000FFFF0000F8B50E460746069900240798D8
:101A6000002902D00B242046F8BD022B01D00D2402
:101A7000F9E7517812780D0215432946814301D0C8
:101A80008024F0E73846F16800F009F8A842EAD06F
:101A90002A463846F16800F009F80446E3E710B535
:101AA00009F072F9002800D0807810BD70B5144696
:101AB0000E46054609F068F9002806D1314605486A
:101AC00009F062F9002803D005808470002070BD01
:101AD000112070BDFFFF000070B5114A0B46014692
:101AE00054690020002C06D0A5686D898D4204D071
:101AF00020462468F6E7012070BD002802D0216846
:101B0000016001E020685061002B04D00822211DF3
:101B1000184612F06BF9204612F0CAF9002070BD89
:101B20000C050020F0B5104A536919E09C686589DE
:101B3000A84214D39E887219824210D900220CE068
:101B400017013F197F89874205D1002900D00D80F8
:101B500010010019F0BD521C92B2B242F0D31B68C2
:101B6000002BE3D10020F0BD0C0500207CB516460B
:101B70000C460546FFF74AFA11490978884201D315
:101B800016207CBD01A9284609F0E8F81728F8D0EE
:101B9000002E10D00020694608802088FFF7C2FF81
:101BA0006946088800F00EF80146012228460AF02E
:101BB0001DFD0028E5D121462846FFF74BFA7CBDE4
:101BC0007D05002000B509F085F8002801D0807857
:101BD00000BD102000BD0000F8B5069F1E4615464A
:101BE000162928D00CDC09291FD004DC05291CD0BB
:101BF000062911D11BE0112917D012290CD118E0A8
:101C00001D2916D004DC172915D01B2904D110E09A
:101C100052290ED0D2290CD00124114A95420CD160
:101C2000FFF708FA001B85B20BE00224F5E7072452
:101C3000F3E70324F1E70524EFE7D22901D10C35BE
:101C4000ADB2601980B2394600F0A2F9002805D083
:101C5000002E00D03580614212F076F8F8BD000009
:101C6000FFFF000010B509F045F8002801D012F080
:101C70001FF910BD00B5124A0B0002F0A1FC0504CB
:101C8000071016191F00516B81430AE0516B814305
:101C90005163116B01431163116A81430DE0516B74
:101CA00001435163116B8143F5E7516B814301E0BF
:101CB000516B01435163116A0143116200BD000081
:101CC00080100040054A002113780370491CC9B2F6
:101CD000401C521C0629F7D3704700000806040078
:101CE00010B50C480089C1B20B069A0F0A48022AA7
:101CF00005D0012A04D09A0F06D07D20000210BD25
:101D0000C906C90E054801E0C906C90EFEF7A4FFC1
:101D100010BD0000001000400048E80100389C1C85
:101D2000F8B5094CE77E267E657EFFF7CBF8A07EEE
:101D300001210843A076A07EC007FCD1A08BE776E6
:101D400026766576F8BD00004010004010B50848C2
:101D500002F05EFA074C207000F086F800F00EF8F2
:101D600062B6054A01214903207812F043FA10BDFA
:101D7000E91D00000002002000EE02000A480021D8
:101D80000170416009480268012189058A430260A7
:101D900002690A430261026810218A4302600269F3
:101DA0000A43026170470000F8010020C0100040A3
:101DB0000B4900204A68520200D401204968C90634
:101DC00001D40221084307490A78904206D00870DE
:101DD000002803D04968002900D008477047000058
:101DE000C0100040F801002070B50C4609040AD567
:101DF00012F028F9002801D012F0FCF80121204649
:101E0000C903484070BDE00701D001200AE0134D2E
:101E1000A00709D5FFF7CCFFA0220221287812F0F5
:101E2000E9F90220604070BDA00405D5FFF794FBDE
:101E300001260B4A760308E060040DD509A002F0E4
:101E400097FB7D22D2010126B6033146287812F095
:101E5000D1F92046704070BD002070BD0002002006
:101E600000EE02002A2000001CB50C48572101702A
:101E7000A821017009492039CA7B07231A43CA7374
:101E80000021017000910B46012201911146044886
:101E900002F02AF8002002F0EFFA1CBD40100040CA
:101EA000E407000010B500F009F810BD10B5FFF709
:101EB000A3F810BD10B5FFF7AFF810BD70B505461B
:101EC0000C46062012F082F801000BD09120087019
:101ED0000F2048708D700120C87003488C800078F6
:101EE00012F0E8F870BD00009A05002010B5044912
:101EF0006422486003480221007812F07BF910BD8B
:101F0000F8010020000200200148408970470000CD
:101F10007C05002070B50C4609880546042905D0CB
:101F2000052903D0062901D0072929D16068002896
:101F300026D0012128460AF0C3FB00281ED02846DF
:101F40000AF0B6FB0F498D420BD0002809D16188F9
:101F5000002906D9208806280ED10B480088814226
:101F60000AD20A480078002804D0214628460AF000
:101F7000CFFA70BD162070BD1B2070BD142070BD3F
:101F8000022070BDFEFF0000860500207D050020B8
:101F900010B5801D80B2054911F034FF002803D030
:101FA0000521C94311F0D0FE10BD0000034C000014
:101FB0000B480A4900688A884261CA88C2618B88D6
:101FC0004362CA88C2624363C2634364C2640989CC
:101FD00081651F2141600349C1607047E02F0020E7
:101FE000280200201F03000010B5FFF77DF910BD87
:101FF00001460648006D05E0FF225D32125A8A4212
:1020000002D000680028F7D1704700008C3500200E
:1020100030B50C4A04460948137C0021406B084D3A
:102020005B1C07E08289A24207D0AA4205D0491C66
:10203000C9B210308B42F5D8002030BD8C3500205D
:10204000FFFF0000AC2F002010B50C46FFF7D0FFBB
:1020500000280FD08179102901D0022010BD4E2117
:102060000C54C179002903D031214173002010BDE7
:102070003021FAE7122010BD30B5447803782402ED
:102080001B198478C57824042D06641989B01B199E
:1020900000934479037924021B198479C5792404B7
:1020A0002D0664191B190193447A037A24021B1923
:1020B000847AC57A24042D0664191B190293447B83
:1020C000037B24021B19847BC07B24040006201898
:1020D000181803904B7808781B02C0188B78CC78BE
:1020E0001B0424061B19C01804904B7908791B02A5
:1020F000C0188B79CC791B0424061B19C0180590D5
:102100004B7A087A1B02C318887ACC7A000424061A
:102110000019181806904B7B087B1B02C0188B7B9C
:10212000C97B1B04090659184018079004A9684682
:10213000FEF7FEFE002009B030BD0000F8B50746EE
:102140002A48C1780020C04300294BD0002F49D035
:1021500027490C6D002C45D00646E079012811D1A5
:10216000608EA18D88420DD2627B012A0AD125465C
:1021700080356A6F002A05D1AA68002A02D1E27B65
:10218000C02A03D098200159208E0EE0091A6869F0
:10219000401E41430091A16F0098FEF75DFD401C79
:1021A00080B22086AA6900995118814201D30D1A84
:1021B00002E0091A0F480D18AE4200D92E462468D5
:1021C000002CCAD10C4800688047B04201D8301AB0
:1021D00006E0B04207D58642F9D2311A0548081800
:1021E00038603046F8BD00213960F8BDE02F00208E
:1021F0008C3500200000C0A824020020FFB583B069
:1022000015460F46FFF7F4FE04003AD02046FF3093
:1022100042300190417D007D0E020643AE4259D20C
:10222000681E30183146FEF72DFD87B23E48761DF8
:1022300006403846704380B20B2111F0E3FD009058
:1022400000286FD03848A838FFF7E2FE002836D0C3
:10225000017B81818034616F002915D0A16F0860F6
:10226000A067A16F00200860A06F4581A16F0120C9
:1022700048728020A16F00250872A16F0098486005
:1022800017E0022007B0F0BD6067E9E7A06F069B8A
:1022900041683046684308180199801C4A7D097DD1
:1022A00012020A4311466943C91811F09FFD6D1CC3
:1022B000EDB2BD42EAD3069811F0FAFD27E01B48C3
:1022C000026B002A02D01A4902209047009811F0B0
:1022D000EFFD27E01448A838FFF79AFE00281AD02F
:1022E000017B81818034616F002912D0A16F086069
:1022F000A067A16F00200860A06F4581A16F012039
:102300004872A06F07720698A16F801E4860002077
:10231000B8E76067ECE70548026B002A02D0044981
:10232000022090470720ADE7FCFF0000AC2F002003
:10233000AA55000010B5044801F06AFF034908726D
:1023400000200860486010BD51230000B033002019
:1023500070B50D4CC80716D00AE0836842685D0866
:102360006D00D9078560C90F02D0002A00D09047C0
:102370002068002805D0016821606268824200D18F
:1023800061600028E9D170BDB033002010B503486A
:1023900001F03EFF0249087010BD0000A5230000B7
:1023A000F802002010B5C8071DD008F03BF9040062
:1023B00013D00020A06020460CF0F2FA002806D0CE
:1023C00020460CF0EDFA8268A16851188160204621
:1023D00011F04CFA204612F0DBFD0CF015FB002149
:1023E00012F0D2FE002010BD184A0020917A572525
:1023F0000B071649A8264031002B05DB0D700E7027
:10240000937A0824234393720D700E700523138171
:102410000E4F20373B8803246402A3433B80937A0A
:1024200010242343937200220A700123BC79E4072D
:1024300001D00020FAE77D242401401CA042F5D9F8
:102440000D700E708B710A70F0E7000000100040F4
:10245000F8B50E4D57260D4C0021A827203D002829
:10246000267027700ED0012068712871002020701E
:1024700001200AF08DFB267027700D2028710020A6
:102480002070F8BD29712170F8BD00004010004097
:1024900070B5314809210068C9018162826C072149
:1024A000090703238A435B07D2188264836C0F22D7
:1024B00012030324934364031B198364836CCC00CD
:1024C00023438364C36C0C15A343C364436D80240E
:1024D00023434365C36B934322029A18C263C36BC1
:1024E0000A119343A4041B19C363C36BDC000123CB
:1024F000E4089B07E418C463C46D0C43C465C56D50
:102500000C122543C565C56D0E133543C565C56DF4
:102510009543C565C56AA5435C122C19C462C46A9B
:10252000944305221206A218C262C26A032424033D
:102530002243C262C26A24012243C262026B1209B0
:1025400012010263026BF024A2430263026B8A430E
:10255000D118016370BD00001C030020FFB53B488B
:102560000068826D012109048A43826582680A43FA
:1025700082600025014680312B468C466E46C1683C
:10258000FF240134A143C16041682202114341602C
:10259000C1682143C1606146C968C905FBD500BF58
:1025A00000BF00BF00BF6146C9680C074168240F27
:1025B000914341600F2C01D06D1CEDB2002110E061
:1025C000725CA2420BD91A4605E0B718203FFF7F84
:1025D000B754521ED2B28A42F7D1745403E0491C58
:1025E000C9B29942ECD3994200D17454032D05D05D
:1025F0005B1CDBB2102BC2D3002D1ED03178082912
:1026000002D93246C91E0DE0042902D93246891E7C
:1026100008E0012902D93246491E03E0002902D10F
:10262000032132461170816D0F22D201914332781D
:102630001207520D11438165FFBD826D0F21C90143
:102640008A430521C9015118F5E700001C03002049
:1026500010B51A480068016D01231B0499430165F8
:1026600081685C0121438160C26810210A43C26015
:10267000C2688A43C26000BF00BF00BFC2680A438D
:10268000C26041680122120311434160014680315A
:10269000CA69D205FCD500BF00BF00BFC969026D81
:1026A000C906C90E1A430265026D520952010A4356
:1026B00002658168A143816010BD00001C030020F9
:1026C000F0B5FF4887B005686868FF21013188438D
:1026D0006860A86A09018843A862E86A10218843F3
:1026E000E862A8684A031043A86068680843686005
:1026F0006868400840006860A86BF24A03211040F7
:1027000089034018A86368680123184368602C4651
:10271000803420694001C10F20698001C00F002969
:10272000F7D00028F5D0206986066069B60EC00390
:10273000400E01906868400840006860A86BE7217F
:10274000104009024018A86368681843686020694F
:102750004001C10F20698001C00F0029F7D0002877
:10276000F5D020698006800E04906069C003400E99
:1027700006906868400840006860A86BD32110404C
:1027800009024018A863686818436860206940011E
:10279000C10F20698001C00F0029F7D00028F5D0B3
:1027A00020698006800E039060692721C003400ED7
:1027B00002900398301A06464843FEF763FA000772
:1027C000216A000F0909090108432062262070438D
:1027D0002721FEF757FA0007226A000EF0218A43EC
:1027E00010432062252070432721FEF74BFA000793
:1027F000226A000D0F2109028A431043206224201F
:1028000070432721FEF73EFA0007226A000C0F21D1
:1028100009038A4310432062232070432721FEF7D7
:1028200031FA0007226A000B0F2109048A43104382
:102830002062222070432721FEF724FA0007226A33
:10284000000A0F2109058A431043206270013018E5
:102850002721FEF717FA0007216A00090F273F0614
:10286000B9430843206270012721FEF70BFA216A61
:10287000000709010909084320627001801B272114
:10288000FEF700FA0007616A000F09090901084311
:1028900060621E2070432721FEF7F4F90007616A89
:1028A000000EF0229143084360621D2070432721EF
:1028B000FEF7E8F90007616A000D3A1491430843F6
:1028C00060621C2070432721FEF7DCF90007616A73
:1028D000000C3A139143084360621B207043272188
:1028E000FEF7D0F90007616A000B3A1291430843E2
:1028F000606230461A2148432721FEF7C3F90007DA
:10290000616A000A3A119143084360623046192116
:1029100048432721FEF7B6F90007616A0009B94369
:10292000084360623046182148432721FEF7AAF980
:10293000616A0007090109090843606230461721EE
:1029400048432721FEF79EF90007A16A000F0909F5
:1029500009010843A062162070432721FEF792F96F
:102960000007A16A000EF02291430843A0621520DF
:1029700070432721FEF786F90007A16A000D3A147B
:1029800091430843A062142070432721FEF77AF98F
:102990000007A16A000C3A1391430843A062132078
:1029A00070432721FEF76EF90007A16A000B3A1267
:1029B00091430843A062122070432721FEF762F979
:1029C0000007A16A000A3A1191430843A06230014E
:1029D00030182721FEF756F90007A16A0009B9430C
:1029E0000843A06230012721FEF74CF9A16A0007D5
:1029F000090109090843A0623001801B2721FEF765
:102A000041F90007E16A000F090909010843E06282
:102A100030460E2148432721FEF734F90007E26AC9
:102A2000000EF0218A431043E06230460D214843F6
:102A30002721FEF727F90007E26A000D39148A43BF
:102A40001043E06230460C2148432721FEF71AF973
:102A50000007E26A000C39138A431043E0623046F3
:102A60000B2148432721FEF70DF90007E26A000B0E
:102A700039128A431043E06230460A214843272135
:102A8000FEF700F90007E26A000A39118A43104391
:102A9000E062F00030182721FEF7F4F80007E16A41
:102AA00000093A4691430843E062F0002721FEF70F
:102AB000E9F8E16A0007090109090843E06203E057
:102AC0001C030020FF00FEFFF000801B2721FEF703
:102AD000D9F80007216B000F090909010843206399
:102AE0003046062148432721FEF7CCF80007010EA7
:102AF000206BF022904301432163B000301827215E
:102B0000FEF7C0F80007226B000D39148A4310430A
:102B10002063B0002721FEF7B5F80007226B000CF8
:102B200039138A4310432063700030182721FEF7C1
:102B3000A9F80007010B206B3A129043014321636F
:102B400070002721FEF79EF80007226B010A38115A
:102B500082431143216330462721FEF793F8000793
:102B6000226B000939468A4310432063206B000121
:102B70000009206304990398471A28213846FEF774
:102B800081F80007616B000F0909090108436063C0
:102B900078002821FEF776F80007616B000EF0221E
:102BA000914308436063780038182821FEF76AF8DB
:102BB0000007616B000D0F2212029143084360630E
:102BC000B8002821FEF75EF80007616B000C0F22A9
:102BD0001203914308436063B80038182821FEF7B8
:102BE00051F80007616B000B0F2212049143084358
:102BF0006063062078432821FEF744F80007616BE4
:102C0000000A0F221205914308436063F800C01BBD
:102C10002821FEF737F80007626B00090F2109062B
:102C20008A4310436063F8002821FEF72BF8616B9C
:102C300000070901090908436063F80038182821D2
:102C4000FEF720F80007A16B000F090909010843EE
:102C5000A06338460A2148432821FEF713F80007ED
:102C6000A26B000EF0218A431043A06338460B216B
:102C700048432821FEF706F80007A26B010D0F203C
:102C8000000282431143A16338460C2148432821A6
:102C9000FDF7F8FF0007A26B010C0F200003824331
:102CA0001143A16338460D2148432821FDF7EAFF6F
:102CB0000007A26B000B0F2109048A431043A06395
:102CC00038460E2148432821FDF7DCFF0007A26BA0
:102CD000010A0F20000582431143A1633801C01B84
:102CE0002821FDF7CFFF0007A26B00090F2109067D
:102CF0008A431043A06338012821FDF7C3FFA16B6D
:102D00000007090109090843A06338013818282180
:102D1000FDF7B8FF0007E16B000F0909090108433F
:102D2000E0633846122148432821FDF7ABFF000736
:102D3000E26B000EF0218A431043E0633846132112
:102D400048432821FDF79EFF0007E26B000D0F218D
:102D500009028A431043E06338461421484328217E
:102D6000FDF790FF0007E26B010C0F200003824388
:102D70001143E1633846152148432821FDF782FFBE
:102D80000007E26B010B0F20000482431143E16353
:102D90003846162148432821FDF774FF0007E26BEF
:102DA000000A0F2109058A431043E06338461721C2
:102DB00048432821FDF766FF0007E26B00090F2159
:102DC00009068A431043E063384618214843282106
:102DD000FDF758FFE16B0007090109090843E063AB
:102DE0003846192148432821FDF74CFF0007216C84
:102DF000000F090909010843206438461A21484395
:102E00002821FDF73FFF0007226C000EF0218A43C6
:102E10001043206438461B2148432821FDF732FF28
:102E20000007226C000D0F2109028A431043206421
:102E300038461C2148432821FDF724FF0007226C57
:102E4000000C0F2109038A431043206438461D21DA
:102E500048432821FDF716FF0007226C000B0F21C5
:102E600009048A431043206438461E214843282120
:102E7000FDF708FF0007226C000A0F2109058A43AD
:102E8000104320647801C01B2821FDF7FBFE0007DA
:102E9000226C00090F2109068A431043206478013F
:102EA0002821FDF7EFFE216C0007090109090843FD
:102EB0002064780138182821FDF7E4FE0007616CD2
:102EC000000F09090901084360643846222148437C
:102ED0002821FDF7D7FE0007010E606CF022904319
:102EE000014361643846232148432821FDF7CAFE87
:102EF0000007626C010D0F200002824311436164E0
:102F00003846242148432821FDF7BCFE0007626CA7
:102F1000000C0F2109038A431043606438462521C1
:102F200048432821FDF7AEFE0007626C000B0F211D
:102F300009048A4310436064384626214843282107
:102F4000FDF7A0FE0007626C010A0F200005824316
:102F5000114361643846272148432821FDF792FE3A
:102F60000007626C00090F2109068A431043606460
:102F7000384628214843FDF785FE616C00070901AA
:102F80000909084360643846292148432821FDF790
:102F900079FE0007A16C000F090909010843A0642C
:102FA00038462A2148432821FDF76CFE0007A26C11
:102FB000000EF0218A431043A064069A0298394615
:102FC000801A0A2200905043FDF75CFE0821084356
:102FD0000007A16C000D0F22120291430143A1646E
:102FE00000983946C2008018FDF74CFE08210843BE
:102FF0000007A16C000C0F22120391430143A1644E
:1030000000983946C000FDF73DFE0821084300073F
:10301000A16C000B0F22120491430143A16400989C
:103020003946C200101AFDF72DFE0821084300079B
:10303000A16C000A0F22120591430143A16400987C
:10304000062239465043FDF71DFE082108430007BC
:10305000A16C00090F22120691430143A16400985C
:10306000394682008018FDF70DFE08210843A16C47
:103070000007090109090143A1640098394680004D
:10308000FDF700FE082108430007E16C000F090965
:1030900009010143E1640098394642008018FDF7B8
:1030A000F1FD082108430007E16C000EF022914376
:1030B0000143E164009839464000FDF7E3FD082133
:1030C00008430007E16C000D0F22120291430143F7
:1030D000E16439460098FDF7D5FD08210843000753
:1030E000E16C000C0F22120391430143E16431466D
:1030F0000020FDF7C7FD0007E16C000B0F22120452
:1031000091430143E164029A01983146871A384697
:10311000FDF7B8FD0007E16C000A0F22120591438C
:103120000143E16431467800FDF7ACFD0007E16C36
:1031300000090F22120691430143E16478003146F1
:103140003818FDF79FFDE16C0007090109090143EB
:10315000E1643146B800FDF795FD0007216D000FD1
:103160000909090101432165B80031463818FDF706
:1031700089FD0007216D000EF02291430143216576
:10318000062031467843FDF77DFD0007216D000DD7
:103190000F221202914301432165F8003146C01B02
:1031A000FDF770FD0007216D000C0F221203914303
:1031B000014321653146F800FDF764FD0007216DEC
:1031C000000B0F221204914301432165F8003146A0
:1031D0003818FDF757FD0007216D000A0F22120570
:1031E0009143014321650A2031467843FDF74AFDAA
:1031F0000007216D00090F2212069143014321654A
:1032000069681020814369606968490849006960FC
:10321000A96A02021143A962E96A0143E962A86B43
:103220008109039889010143A963A86B7F210906DD
:103230008843029909060843A86307B0F0BD00005F
:10324000034800684168FF22013211434160704722
:103250001C03002070B52548244D427FA020203556
:103260000C464243C907287EEB7E00290AD081071D
:1032700006D5000600D410220421184610F0BAFF2B
:1032800001202EE0A1070ED541070AD5000603D57F
:1032900008211846283202E028220821184610F09A
:1032A000A9FF02201DE0610704D500200DF036FEC5
:1032B000042016E0210705D5400701D500F0C2F82B
:1032C00008200EE0E0060ED509F098FA0848C0790B
:1032D000062805D11922E87E9201102110F08AFFFC
:1032E0001020604070BD002070BD0000183000202C
:1032F0000030002010B504464069002817D0202275
:1033000000211B4810F05AFE20222146184810F0D8
:103310006DFD174C20346068002801D010F0C8FD06
:103320000020134960608869002802D004E0012071
:1033300010BD0020C0438861487F002801D12820AB
:103340004877887F002801D108208877C87F002827
:1033500001D11120C877FF2020706070A070E0704C
:10336000487860778868606148682061002010BDF7
:1033700018300020F8B5174800688047164EB1682D
:10338000814225D0154F884201D3401A01E0401AEE
:10339000C019114D4409203DA87FA04218D800F063
:1033A00079F8A87FB2684101241A5118B94202D3B2
:1033B0000A4A52428918B160A042F0D90848006810
:1033C00001686A78C909C9015206520E11430160A9
:1033D000F8BD000024020020383000200000C0A802
:1033E00014030020F8B5144800688047134EB168F4
:1033F00081421FD0124A884201D3401A01E0401A8C
:103400008018C5060D4FED0E4409203FB87F0CE033
:1034100000F040F8B87FB26841015118084A241AF8
:10342000914201D352428918B160A042F0D96001A3
:103430002843F8BD0020F8BD2402002038300020C9
:103440000000C0A870B500F055FB114C08212546BE
:10345000607F203D68706069A86020696860E07ED8
:1034600010F002FFE07E042110F0FEFE207E8107B6
:1034700004D50022114622206B6905E0400704D5DF
:1034800000226B691146242098470020207670BDE9
:103490003830002070B519490E46203E487EF27F34
:1034A0008018C0B27070202801D320387070C0B26C
:1034B000487601252946B46981400C4216D1002185
:1034C0000A462B4693401C4201D0491CC9B2521CEB
:1034D00052B2202AF5DBFDF7BFFB002210462B4637
:1034E00083401C4205D08A4201D1707070BD521CCD
:1034F00052B2401C40B22028F1DB70BD38300020B1
:10350000FEB5F84AF64F1646F979002510782036B0
:10351000052902D0062976D0D4E1C0074FD0B8786B
:10352000C0071ED0BD70EF4800224369114601203C
:10353000984780203871EC48007DC00701D04B23AC
:1035400000E04E23E948816B0091826B8A42FAD1F8
:10355000C818E749884201D349424018E549C86084
:103560003AE0F878002837D00024FD7000F0C2FA65
:1035700078690268D1430906090E06D07178FF29DF
:1035800003D0D2B28A4200D00224D6490978090673
:1035900001D5002200E00246002102F0E3FA0146D4
:1035A000D048214343697A69022098473D71307EB3
:1035B000800711D5F07E012110F0CEFD0CE0F878E7
:1035C000002809D0FD7000F095FAC6480022436932
:1035D0001146012098473D713879C0079CD03D7154
:1035E00000F088FA09F00AF9B8780006BD48436986
:1035F00004D500221146112003E004E00022114608
:10360000122098475EE1C1077AD03978C90778D08F
:103610007C693D7001AA0021204602F0A3FA050052
:1036200008D1F078FF2805D02178FF2902D0884200
:1036300000D00225AB480078000605D4002D05D146
:1036400068460079207016E0002D14D002F0B2FA1E
:10365000A4487A6943692946032098477068B3787B
:10366000F278002802D04178801C01E00021084651
:1036700000F060F905E1307E400718D56078205CE5
:10368000802814D1706800280CD03969FF200860A8
:1036900095483969807C486097480068C168490B43
:1036A0004903C1608F48102201781143017070688E
:1036B00040783A2810D9914C21689148826892024A
:1036C000920E162A10D082689202920E1A2A03D203
:1036D0008268120C9206F1D1802038718248007DF8
:1036E000C0070FD04B220EE03022844BD2438033F0
:1036F0001A6082689202920E1A2AFAD32160EBE7CE
:10370000A0E06AE04E22794B986B0090986B00998C
:103710008842F9D188187649884201D34942401835
:103720007449C8600021774800F088FD307E8446E7
:1037300040074DD57C696C4A6078127DC000A0308E
:10374000F968D20702D01F30400902E06E4A5043A8
:10375000400C814201D3091A02E0091A6448091891
:10376000F960B0680A46814201D3121A02E0121AC7
:103770005F4812186378601C185C6346C0001B0623
:1037800010D5824208D9121A07E0081A02E0091A75
:1037900057480818B06011E0821A202A0ED88142DA
:1037A000F5D3F2E7814201D3081A02E0091A504822
:1037B0000818B0606046802108433076F07E022110
:1037C00010F0CAFCB07EC0065BD46078801E6070CA
:1037D00044487A692946436951E07978002920D024
:1037E0007D703D710021084600F028FD3D4C207899
:1037F000C0060FD502F0DEF97068B378F2780028C1
:103800001DD04178801C00F095F82078EF21084009
:10381000207036E000F06EF9002211460420636942
:103820002EE03979C9072CD03D712E4CC006E1D469
:1038300000F060F9002211461420636920E00021A5
:103840000846E0E7787800281BD000247D7000F05F
:1038500051F978690168CA431206120E06D0F2784F
:10386000FF2A03D0C9B2914200D0022402460021AF
:1038700002F078F9204301461A487A694369032027
:103880009847307E400701D5FFF774FD174CA06BB9
:103890000090A06B00998842F9D1F068814201D371
:1038A000081A02E0091A124808187D210902884204
:1038B00008D908F0A3FFA06B0090A06B0099884284
:1038C000F9D1F160B07E400724D5F879062821D0DF
:1038D0007068B378F278002818D04178801C17E01F
:1038E0000030002018300020AC2F002000100040D5
:1038F0000000C0A8E02F00201803002000E100E035
:1039000000C2004001350000C71000000021084639
:1039100000F010F8FEBD000010B5FDF769FC03488B
:1039200000F076FC0249C876002010BD5532000038
:1039300038300020FFB5644D0C4628689C4601686D
:1039400081B0134689070ED0016DC908C900016511
:1039500001680822114301600168090703D500BF0F
:1039600000BF00BF00BF59210165584E3068C16AD1
:10397000072212059143012252058918C162C16ACA
:10398000072212069143052212068918C162504887
:1039900000680168CA094F49D2014F787F067F0E3F
:1039A0003A4302604A6882608A680261CA6842607B
:1039B0000A69C26028684268097852085200C9073B
:1039C000C90F0A434260434F61462037FB70B9700C
:1039D0004068C00739D07868002806D14921A01C6A
:1039E00010F010FA7860002810D00198002810D04C
:1039F000002C0ED07968B878087078682246447038
:103A000078680199801C10F0F1F908E0012005B0F8
:103A1000F0BD7968B87808707868002444707968D7
:103A20002D484A780069921C10F0E0F92B48817CFF
:103A300029480269601D80088000115028480068EC
:103A4000C168490B49032143C160B87E0421084382
:103A5000B876214C40202070002060702071052134
:103A6000204800F0EBFB0620E0711F48816B0091BD
:103A7000816B009A9142F9D1FA6031681B4A0020AB
:103A80000B46803312890FE01C69E40109D5C86A2E
:103A9000072212051043C862C86A12019043C86227
:103AA00004E000BF00BF401C8242EDDC104800680B
:103AB000002804D0C1680A68406902430A60296886
:103AC000012008600020A2E7280200201C0300203B
:103AD000140300201830002000300020AC2F0020FC
:103AE000180300200135000000100040E02F0020E6
:103AF0003002002070B50B4C00250B48A5760571EF
:103B00006068002801D010F0D3F9002108466560F4
:103B100000F094FB0521002000F090FB02F04AF831
:103B2000002070BD3830002000300020FFB5B54FB8
:103B300083B038680C460068800701D002F03AF87C
:103B4000B148B24D007E800708D5FFF74BFC102826
:103B5000FBD3A97F490110398142F6D339685A2035
:103B60000865AB480068C26A072109058A4301213C
:103B700049055118C162C26A072109068A43052115
:103B800009065118C162A34800680168CA099F4923
:103B9000D2014B785B065B0E1A4302604A68826072
:103BA0008A680261CA6842600A69C2603A685368FA
:103BB0000D785B085B00ED07ED0F2B4353600A782F
:103BC00002231A430A70944E8021B1700021F170D3
:103BD0008D4D0599297006996970C16A8908890017
:103BE000C1620168DA06914301600398002809D098
:103BF00030692978017044702246801C039910F0C6
:103C0000F5F802E03169287808607E48006840686D
:103C1000C00701D0002100E00521804800F00EFB24
:103C20007D480521C1717A497D4E096800200B4607
:103C30008033328910E01F69FF010AD5CB6A07275C
:103C40003F053B43CB62CF6A07231B069F43CF62EE
:103C50000AE000BF00BF401C8242ECD804E000BF75
:103C600000BF00BF00BF401C8242F8D86D4800680A
:103C7000002804D001680A68806802430A60664F21
:103C8000802038716848007DC00701D04B2200E0D9
:103C90004E226648816B0091816B009B9942F9D15D
:103CA00063499818884201D349424018F060287E41
:103CB00080071ED55F483E6900688047A968884232
:103CC00001D3401A02E0411A594808184F49C00868
:103CD0000978C90606D558490224000640183969F2
:103CE000086006E0A41CE4B274700021315531195B
:103CF00048704D483A69817C601D800880001150F1
:103D00004E4908688268520B5203224382608068E1
:103D10004B4AC004C00C3A2805D910680190484BA2
:103D2000501780331860374B02201B6818600868F2
:103D30008068C004C00C3A2861D900BF00BF00BF32
:103D400000BF00BF00BF00BF00BF00BF00BF00BF7B
:103D500000BF00BF00BF00BF00BF00BF00BF00BF6B
:103D600000BF00BF00BF00BF00BF00BF00BF00BF5B
:103D700000BF00BF00BF00BF00BF00BF00BF00BF4B
:103D800000BF00BF00BF00BF00BF00BF00BF00BF3B
:103D900000BF00BF00BF00BF00BF00BF00BF00BF2B
:103DA00000BF00BF00BF00BF00BF00BF00BF00BF1B
:103DB00000BF00BF00BF00BF00BF00BF00BF00BF0B
:103DC00000BF00BF00BF00BF00BF00BF00BF00BFFB
:103DD00000BF00BF00BF00BF00BF00BF00BF00BFEB
:103DE00000BF00BF00BF00BF00BF00BF00BF00BFDB
:103DF00000BF00BF00BF00BF00BF019810600020DF
:103E000007B0F0BD28020020383000201830002014
:103E10001C030020140300200030002001350000A6
:103E2000E02F002030020020AC2F002000100040C6
:103E30000000C0A824020020FF0280001803002018
:103E400000E100E008B50448816B0091816B009AA5
:103E50009142F9D1104608BD0010004038B516480F
:103E6000816B0091816B009A9142F9D1134C1046FD
:103E7000217DC90705D0124900F08AFB8A04810B15
:103E800004E0192100F084FBCA05410A11430D4AE0
:103E9000906988420DD0884201D2081A07E0237D3C
:103EA000DB0701D0084B00E0084B181A401891615D
:103EB00038BD002038BD000000100040AC2F0020AD
:103EC00033030000E02F002000796F0800603D08F8
:103ED000034930200874034901200860704700003E
:103EE0002010004004020020FFB581B00C460746B8
:103EF000054600261AE0FF219131681EFCF7C2FE3C
:103F000000290AD06421681EFCF7BCFE002907D0F6
:103F10000320A9078007C14202D1FF206F3001E0D2
:103F2000FF206E3080196D1E86B2ADB235488542D5
:103F3000E1D80025012C25D9032C05D0A01E062888
:103F400016DDE00718D115E0FF2191313846FCF766
:103F500083FE00290AD064213846FCF77DFE002943
:103F600001D0B80702D000201C3006E00120FBE79A
:103F7000E00701D01E2000E01F208019641E86B2D9
:103F8000A4B2D7E7039818213018401E84B20498D1
:103F9000FCF762FEE120C00041430A981E22504314
:103FA00009180B984008081881B20B98C00701D077
:103FB0000120C0030A0402431348C17B6B46C909B0
:103FC000C9011970C17B1B78C909C9019942F4D193
:103FD000694609780029F0D00B49572320310B702E
:103FE000A8230B70084B203B5C63447C8026344341
:103FF00044745A63427C40231A4342740D7005B0E6
:10400000F0BD0000E407000020100040002908D0A7
:10401000002A02D105E008C808C2491EFBD20020D0
:104020007047FD207047F7B58CB00C9815460F46C9
:10403000002831D0002D2FD0381D0A9080B2532196
:104040000FF0E0FE04003BD006F0FAFD06463A46CB
:10405000201D0C9910F076F8F0B20990E070300451
:10406000000E0890A0703002000E07906070370EAE
:10407000277006F0DFFD0146102201A810F062F85B
:10408000082000900A9805AB82B2214601A80EF0E4
:104090008DFE060002D00FE0022612E0099828707B
:1040A000089868700798A870EF70082205A9281D65
:1040B00010F048F806F0CAFD20460FF0F9FE00E0C7
:1040C000132630460FB0F0BD0148806970470000EC
:1040D00000E000E010B50B4857210170A8210170E5
:1040E000084A8821403A1181018904221143018143
:1040F000002101700A2008F04BFD0120FEF7A8F90D
:1041000010BD00004010004070B50C460146200470
:104110000AD508460FF096FF002801D00FF06AFF7D
:104120000120C003604070BD6004FCD00026324610
:104130002046D040C00713D0002901D00F2000E056
:1041400000200B4980184968C000451801209040A4
:1041500086B229686868884700202860686003E0A4
:10416000521CD2B20F2AE3D32046704070BD00002B
:10417000080200200148406970470000E02F00203D
:1041800070B50FF0EBFE1C2200211E480FF016FF49
:104190001C482022002150300FF010FF1A4D002043
:1041A000286168611748174C1C30007F5034810724
:1041B000890F80080818410040180D30C0B2A07067
:1041C00006214843FF210231F0300FF01BFE6860EA
:1041D000F030A860A17889000818E8600FF02CFF83
:1041E0000FF0EEFF6078094A8100A86842506178BC
:1041F000491CC9B26170890042506078401C6070EF
:1042000070BD0000902F002008020020094100002E
:1042100010B50849024648788B78984207D2064C78
:104220008300A468E2504A78521C4A7010BDFF20F7
:1042300010BD0000E02F002008020020072902D254
:10424000014A890050507047902F0020FEB5864DDE
:1042500002E0804701F0DEFC28680028F9D1012443
:10426000A0002858002807D080477F481C30407D98
:10427000002801D0FDF738F82868002875D1641CA3
:10428000E4B2072CECD3784C784E50346278F06866
:1042900021784B00C35A002B04D1491CC9B22170AC
:1042A0009142F5D3C9B2914211D24A00815A0023FA
:1042B00083522078B36882009A5890472178F26838
:1042C0004900535A034353522078401C20702078F1
:1042D0006178884201D3002020706348006800287C
:1042E00043D17069002840D0804700283DD06169E3
:1042F0000546091861610021C9435C4821610669CE
:10430000002E29D00027B068A84201D8002000E084
:10431000401BB06054481C30406A002804D021691A
:10432000B068814200D92061B06800280DD1718841
:1043300000291BD030780FF00FFF7068002801D0E3
:10434000B06002E0B068002810D0708800280DD05E
:104350003746F668002ED6D1434D1C35686A0028D2
:1043600003D00020414A617814E07CE0002F06D0A1
:10437000F068F8603046F6680FF09AFDEAE73B48CF
:10438000F1680161F6E7D6684300F35A002B6AD161
:10439000401CC0B28142F6D83349032082008A58BB
:1043A000002A60D1401CC0B20728F7D301A8FDF74E
:1043B000C5FE02462E49401C24D0EB7C019EB34230
:1043C00051D22069471C16D02A7DD20702D0142270
:1043D000504302E0292250434008834243D28642A0
:1043E00000D23046C61A2348826B0092826B009B33
:1043F0009A42F9D11DE09A4201D3D01A1FE0D01A97
:1044000040181CE02069421C2DD02A7DD20702D022
:104410001422504302E0292250434008EA7C8242A1
:1044200021D2861A1348826B0092826B009B9A42BB
:10443000F9D19819884202D30D4A524280180028B7
:1044400002D0696A884702E06A6A08469047000617
:10445000000E08D12089002805D0FDF727F9FDF7C7
:10446000A7FDFCF7A3FEFEBD902F00200802002050
:104470000000C0A80010004010B504460848C16AFA
:10448000002900D088470748002C01D0046001E0D3
:1044900005490160054800F00BF8002010BD000040
:1044A000AC2F002024020020453E00005D3E0000AD
:1044B00010B50349486180470249886110BD00007A
:1044C00008020020E02F002010B50446FDF708FC8C
:1044D0000A214843C0082146FCF7BEFB0A21401DC3
:1044E000FCF7BAFB0149888110BD00000034004090
:1044F00010B5E1204002FFF7E7FF054887218170F2
:104500000321C170402141700121817310BD000061
:1045100000340040F0B5144EFD23757A8424747283
:10452000124CA768002F07D0A77B002F04D0A489C6
:10453000E71FFF3FFA3F02D07572FF20F0BD7D24D8
:10454000E402A0420AD34027491E07D3706008CA7C
:1045500033609A233372B37A7B4002D07572184667
:10456000F0BD001DF0E7000000180040AC2F002057
:104570000FB410B503A9044B044A029800F0E8F800
:1045800010BC08BC04B01847D5A60000AC0500203C
:10459000F8B5040C8BB2264682B25E430D0C104671
:1045A000370C5843360480190021794116466E4372
:1045B000370C36048019794126466E438919F8BDB7
:1045C00030B47446641E2578641CAB4200D21D468C
:1045D000635D5B00E31830BC184702E008C8121F97
:1045E00008C1002AFAD170477047002001E001C1DC
:1045F000121F002AFBD1704710B51C4613468C428F
:1046000005D822461946FCF787FB204610BD00203E
:1046100010BD0000FFB5044681B080680D9E1D46A8
:104620000F4600280ED045490968002904D1002D05
:1046300002D00A2005B0F0BD4169002904D10B99D0
:10464000002901D00720F5E7002F40D0039801F0A2
:10465000B7FD002870D0A06801218088C903421AE4
:1046600049108A4204D202F0ADFF002110F04DF84B
:10467000A0684189C904C90C4181A0688780A168EC
:10468000039AC8881205000B0003120D1043C8805E
:10469000012212039043EA07D20CA1681043C8809C
:1046A000A1680A980872A1680B988872A1680C9892
:1046B0004872A0684069002836D0204603F076F999
:1046C0000100A0682DD0183007F074FD2CE0808820
:1046D0000028AFD00121C903421A49108A4204D2EE
:1046E00002F070FF002110F010F8A0680022828014
:1046F000A1680123C8881B03000B0003C880A168C0
:104700009843C880A0680272A0688272A068427252
:10471000A0684189C904C90C4181A0684169002988
:1047200002D0183007F028FD002E02D0204604F0F9
:10473000D8FD00207EE7FFE703207BE72C04002064
:1047400010B502998A78098809F0A4FB10BD000011
:10475000FFB591B00F460546002606E025280AD091
:10476000149A139990476D1C761C28780028F5D16F
:10477000304615B0F0BD002400940121F34A0294A4
:1047800000E004436D1C2B780846203B9840104203
:10479000F7D128782A280ED0022128780246303A0C
:1047A000092A15D8009A0A235A43303A80180C4334
:1047B0006D1C0090F1E701CF0090002805DA012080
:1047C00040030443009840420090022004436D1CC3
:1047D00028782E2815D10420044368786D1C2A28D7
:1047E0000AD101CF6D1C02900BE002990A225143BD
:1047F000303940186D1C029028780146303909295B
:10480000F3D928786C2810D006DC4C281AD06828F8
:104810000ED06A2817D104E0742813D07A2812D158
:1048200010E00120400504430CE00121090501E0EE
:10483000032109050C436978814203D10120000559
:1048400024186D1C6D1C287803906E281ED00CDC7B
:10485000632831D004DC00288AD0582811D1B2E076
:1048600064287BD069280CD178E073282DD004DC33
:104870006F2870D0702804D1A7E075286CD07828F4
:104880006BD0149A13999047761C62E06002400F37
:10489000022807D003280AD0042838680AD0066006
:1048A0003F1D56E03868F11706604160F8E7386848
:1048B0000680F5E70670F3E738786946087400204B
:1048C000487404A80390012003E038680390002096
:1048D000C0433F1D61070FD5002101E00199491C2C
:1048E000029A0191914213DA8142F7DB019A03990E
:1048F000895C0029F2D10BE0002101E00199491CFB
:1049000001918142FADB019A0399895C0029F5D172
:1049100001990098139A401A00902146149B00F0C8
:104920003BF901998019461807E00398039900782C
:10493000491C0391149A139990470198401E0190C5
:10494000401CF2D12146149B139A009800F014F9F0
:1049500086196D1C09E741E033E034E00A200021AC
:10496000049005916002410F022905D001CFC217C2
:104970009446032905D007E0FF1DFF08FF0003CF81
:1049800006E000B2C2179446042902D140B2C11712
:104990008C4600226146944506DA0A4600214042D0
:1049A00091418C462D2102E0210504D52B216A4638
:1049B0001176012103E0E10701D02021F7E7019101
:1049C00054E00A200BE0102009E0102004900021A0
:1049D0000420044308200591029003E008200021F0
:1049E000059104906002410F022905D001CF0022F9
:1049F0009446032906D006E0FF1DFF08FF0003CF01
:104A00008C4603E080B2042900D1C0B2002101919C
:104A100021072BD50399702906D0049A1021059BF4
:104A20004A401A4305D00EE040216A461176012122
:104A300008E06146014306D030216A4611760399A9
:104A4000517602210191049A0821059B4A401A439C
:104A50000CD16146014301D1610707D530216A4677
:104A60001176012101910299491E02910399582959
:104A700004D037A103910FA90F910DE039A1F9E7F7
:104A80006146059B049AFCF79EF9039B8C469B5C50
:104A90000F9A521E0F92137061460143F0D10F9886
:104AA00007A9081A20300390600704D501200004EC
:104AB0008443029801E0012002900399884201DDBD
:104AC000401A00E00020411802900198091800984F
:104AD000401A0090E00306D42146149B139A0098D4
:104AE00000F05AF886190020049008E006A9085C36
:104AF000149A139990470498401C761C04900199CD
:104B00008842F3DBE0030CD52146149B139A0098EE
:104B100000F042F8861904E0149A30201399904767
:104B2000761C0299481E02900029F5DC08E00F98D7
:104B30000F990078491C0F91149A13999047761C8D
:104B40000399481E03900029F1DCFBE609280100C7
:104B500030313233343536373839616263646566F3
:104B600000000000303132333435363738394142B5
:104B70004344454600000000F8B5044600251E46A3
:104B80001746880404D405E039462020B0476D1C40
:104B9000641EF9D52846F8BDFFB50446002581B04E
:104BA0001E46C80301D5302700E02027880404D51D
:104BB00005E038460399B0476D1C641EF9D52846B8
:104BC00005B0F0BD134610B50A461946FCF7B8F813
:104BD00010BD000070B500F01BFA1C2148430421F1
:104BE00009F02EFA0625ED43002818D00D4CE060A0
:104BF00000F00EFA1C214843042109F021FA002894
:104C00000DD00949086000F003FA208000F000FA96
:104C100060800648A06006486060002070BD28469D
:104C200070BD0000743000203C020020945501004B
:104C30005150000010B507F0C5FC1821484304216D
:104C400009F0FEF9002803D003498860002010BD58
:104C50000620C04310BD00006002002070B505F0C2
:104C6000D7FF441C05F0CEFF44431C2060430421C1
:104C700009F0E6F90625ED43002821D0114CE0604B
:104C800005F0C6FF461C05F0BDFF4643700002213B
:104C900009F0D6F9002813D00B49086105F0B8FFD8
:104CA000451C05F0AFFF4543258005F0B1FF451CCD
:104CB00005F0A8FF454365800448A060002070BD52
:104CC000284670BD3C34002010040020945501009B
:104CD000F8B53E4F386800282DD005F093FF6821C5
:104CE0004843042109F0ACF900286CD0384E002468
:104CF00030621CE005F098FF4000022109F0A0F9A5
:104D0000002860D06822254655432A46316A103271
:104D1000885005F083FF0C214843042109F090F9E5
:104D2000002850D0316A3035641C4851E4B205F097
:104D300069FFA042DED8274938680968264D084334
:104D400009D005F05FFF4A214843022109F078F9B4
:104D5000002838D0E86000F0F3FC28214843022105
:104D600009F06EF900282ED0194C803460620EF0E4
:104D700013FDE4214843042109F062F9002822D000
:104D8000A0620CF045F9002808D00CF041F9C000F1
:104D9000042109F055F9002815D0E0620BF03CFA27
:104DA00016214843022109F04BF900280BD020625C
:104DB00009F040F98000042109F042F9002802D0EE
:104DC00068600020F8BD0620C043F8BD1004002034
:104DD000083100202C0400208802002070B5002437
:104DE0000A4D0BF073FD4000022109F029F900285B
:104DF00009D0542161434919641C24064860240EDB
:104E0000EFD0002070BD0620C04370BD8434002068
:104E100070B500F095FC04460EF0BEFC2018400072
:104E2000022109F00DF90625ED4300280CD0074CAE
:104E300060600BF0F1F98000022109F001F900280F
:104E400002D0A060002070BD284670BD98020020EE
:104E500070B50FF023FB48214843082109F0F0F812
:104E60000626F643002838D01D4D002468600EE069
:104E70000FF01AFB8000042109F0E2F800282CD082
:104E8000482161436A68641C8918E4B248600FF0E5
:104E900005FBA042ECD80CF037F98001082109F09D
:104EA000CFF8002819D00024A86010E00CF026F9F3
:104EB0000C21FBF7D1FE8000042109F0C1F8002885
:104EC0000BD0A101AA68641C8918E4B248600CF0F8
:104ED0001BF9A042EAD8002070BD304670BD00002A
:104EE000EC020020036882689A4201D24368995418
:104EF0008168491C816070470149FF200870704734
:104F0000D802002070B50446007EFF2801D101F0D0
:104F1000D1FF32214843054600219635E0690A4613
:104F2000012633468B40034201D0521CD2B2491CA9
:104F3000C9B22029F5D3E07D6421C006C00E801AD5
:104F400048434019FF212D316430884200DC084677
:104F500070BD0000F7B582B01746054601F04EFF60
:104F60000446039800212818401EC94386B2002C2D
:104F70001BD0002D19D00120C003854215D2002E70
:104F800013D0864211D2039800280ED003F01EFDE4
:104F90002289411E511889B2864209D38D4207D811
:104FA000002F1FD0491C39801CE0084605B0F0BD19
:104FB00011480024009019E00098016A162060430F
:104FC000081842880D498A420FD00188027D481E88
:104FD000101880B28E4208D3854206D8002F01D027
:104FE000401C38800520C043E0E7641C0BF014F936
:104FF000A042E1DC0020D9E788310020FFFF00005B
:105000001C21484301490968401870473C020020B0
:1050100001480068007870474802002010B500225F
:10502000D2430D21002000F063FF10BD10B5C089F0
:1050300001F00EFB09F073F900F01CF9002803D011
:10504000018A024807F0B6F810BD00005830002071
:10505000416908394161C160418A08314182018A50
:105060000831018270470000F0B52C489FB0006CF9
:105070001D9004A800242A4E1C90019402940394CD
:105080001E90708837460C3F002802D1B86800682F
:1050900080896946C880B0880881F169486900281C
:1050A0002AD0F279002A21D0521EF271307C6A4651
:1050B00090730A8AC9681CA809F079F80094B86846
:1050C000002300681CAA01A902F078FD05001FD08A
:1050D000124914A02931FFF74BFA294615A0FFF712
:1050E00047FA1DA0FFF744FAF06940690EF082FF0D
:1050F000F06944611FB0F0BD08490AA02931FFF7EB
:1051000037FA16A0FFF734FA13A0FFF731FAF1E7E8
:1051100001213878B2680FF06DF8EBE750540100C8
:10512000B40100204150505F4442472025733E2087
:1051300000000000556E61626C652073656E64202E
:105140006D6F64656C206D6573736167652028659C
:1051500072723A25642900000A0000004E554C4C3A
:10516000206275660000000030B52A489FB0806F4D
:105170001D9004A81C901E900020274C01900290C6
:105180000390608825462C3D002802D1A86800685D
:1051900080896946C880A0880881E0694169002942
:1051A00029D0E179002932D0491EE171217C6A467B
:1051B0009173028AC1681CA808F0F9FF0094A868DE
:1051C000144B0068803B1CAA01A902F0F7FC040004
:1051D0000FD0104911A05E31FFF7CAF9214613A084
:1051E000FFF7C6F91AA0FFF7C3F921460A480FF0E6
:1051F00012FF1FB030BD074908A05E31FFF7B8F9B4
:1052000014A0FFF7B5F912A0FFF7B2F9F1E71621E4
:10521000C943EBE750540100D40100204150505FD6
:105220004442472025733E2000000000556E616215
:105230006C652073656E64206D6F64656C206D65B0
:10524000737361676520286572723A2564290000CE
:105250000A0000004E554C4C2062756600000000AC
:1052600000487047843000200149087170470000F1
:105270008430002010B505480EF072FB002801D0E4
:10528000002010BD01480068143810BD4002002005
:105290000149486070470000D802002001480068BA
:1052A000C07870474802002070B505468AB016489D
:1052B00016468069029006A80C460190039004AA45
:1052C00005A9304607F055F8104901A802F045FB42
:1052D0006846018A0023808A326800F02FF901466F
:1052E00001A808F06FFF6846028A818A01A807F0CA
:1052F00031F800200346009001AA2146284602F01A
:105300005DFC0AB070BD000034590100038000004C
:10531000F0B5044625680888AD8B0026F64387B0B3
:10532000A84210D1257DA80705D50879002802D00C
:105330000846163000E0481D08A9097C0778890650
:10534000890EB94202D0304607B0F0BD0A49ED07D8
:105350000968ED0F491B65892489059104920F990D
:1053600003950193009102940021401C0E9B0D9A1D
:1053700000F091FEE8E700000831002070B5064615
:105380008AB01F481346006B029006A80D46019094
:10539000039004AA05A9184606F0EBFF6846808A28
:1053A00004F086F800280CD06846008A00F008FF58
:1053B000002808D06A460188928A91421CD01124A4
:1053C00002E0042400E000240E4901A802F0C5FA1E
:1053D000214601A808F0F6FE6846028A818A01A8E3
:1053E00006F0B8FF00200346009001AA2946304687
:1053F00002F0E4FB0AB070BD012100F0C7FEE2E755
:105400003459010003800000F7B529498AB0C96BFF
:10541000029104A901911046039108F002FF254969
:105420000646884242D8244901A802F096FA30463E
:1054300004F03EF800280BD00024214601A808F013
:10544000C1FE314601A808F0A5FE002C26D101E0DE
:105450000424F2E7194C1A4800252746009013E06F
:105460000098416A2820684308180188B14209D190
:10547000BC4201D1448805E04288214601A806F0DB
:1054800069FF3C466D1CADB200F05AF9A842E7D85E
:10549000BC4203D0214601A808F07CFE0020034650
:1054A000009001AA0B990A9802F088FB0DB0F0BD9C
:1054B00034590100FF0F000002800000FFFF0000D0
:1054C00088310020F8B5064600240B4D0B4F0CE048
:1054D0002820696A604308180188B94204D04088CE
:1054E000B04201D10120F8BD641C00F029F9A042AE
:1054F000EEDC0020F8BD000088310020FFFF000036
:1055000030B50C480C49406885B0C06814468842E4
:105510000ED1104608F09AFE0546204608F081FE9E
:1055200069460881002003902946684604F0BEFAC7
:1055300005B030BD5802002002800000FFB581B0E8
:10554000064603F0B5FF070035D0029800F038FE9C
:105550000446049800281DD0002C05D02088B042B5
:1055600004D0112005B0F0BD0320FBE72546F87FED
:105570001635012809D12079002808D01022681C8E
:105580000399FBF704FC0028ECD00B20EAE701208C
:10559000207118E0002C10D02088B04206D11022D3
:1055A000A01D0399FBF7F3FB0028DBD02088B04255
:1055B00001D10620D6E70420D4E7029800F0CEFD02
:1055C00004000DD0651D2946039801F0A3FF0028B3
:1055D00008D00498002801D0002020710920C1E7DC
:1055E0000520BFE72680029860801022681C03997E
:1055F000FBF792FB204603F029FE0020B2E7F0B54E
:1056000089B01E4617460C46002814D010220021EF
:105610000DF096FF85B2002C11D023236A46314647
:10562000384607F0DFFB002807D1284600F0C8FD08
:1056300004000ED012E00720C04309B0F0BD284698
:1056400000F0BEFD002802D0002100F09FFD0020E8
:10565000F3E7284600F082FD04001ED0684600886B
:105660002080658068468078207100A91022A01DE6
:105670000331FBF751FB2046173004A910220546E1
:105680000331FBF749FBA01D611D01F043FF2146DB
:105690002846163101F03EFFD9E70820C043CCE789
:1056A00030B50B480B49406887B0C0681446884243
:1056B0000CD1104608F0CAFD054606AA05A92046E9
:1056C00006F057FE2946684604F0F0F907B030BDF1
:1056D000580200200380000070B505468AB01648C5
:1056E0001646406A029006A80C460190039004AA50
:1056F00005A9304606F03DFE104901A802F02DF93B
:105700006846018A0123808A3268FFF717FF014645
:1057100001A808F057FD6846028A818A01A806F0B0
:1057200019FE00200346009001AA2146284602F0F7
:1057300045FA0AB070BD0000345901000380000032
:1057400001480068007A704748020020FFB583B026
:105750000C9C1646002C01D0002708E00127039876
:10576000FBF768FC0421FCF713FC040014D026703E
:1057700004980125002805D0049A601C06999047DA
:10578000401C85B2300614D51021039806F098FF0E
:10579000002804D0192616E0132007B0F0BD6219C6
:1057A00029462046FEF73FFC0C350646ADB20028E0
:1057B00009D104206946088001944D800398FCF7C4
:1057C000A9FB0600E9D0002F02D020460EF070FBA6
:1057D0003046E2E710B50CF047FA10BD083807D0A4
:1057E0004168002904D04969002901D000680847B0
:1057F000704770B50C46054600F005F8214628466E
:105800000CF032FA70BD10B50446104608F01EFDCB
:105810000146204600F00AFE10BDF0B51F460B46BB
:10582000014685B015460446213108220A9E1846D5
:105830000391FBF7ACFA00280FD101A80090204695
:105840003B4629464930039A00F020FE082201A970
:105850003046FBF79CFA002802D0002005B0F0BDCE
:105860000120FBE7FFB51F4685B0484B0E9D0F9CFE
:105870009868002A0BD0027D002A08D00269002A0D
:1058800005D00120607020700020E0707AE0427D39
:10589000AA4200D21546C08AC20606D50A0704D518
:1058A000032024260390042018E0000713D04807A3
:1058B00011D048070A26400F05F0BCFC401EC0B2BC
:1058C000039032488068807D0007000F05F0B2FC2D
:1058D000401EC0B202E00026304603962B490190DC
:1058E0008868027EBA4200D21746408B020708D56C
:1058F000059AD20605D524200090042002900320AA
:105900001BE0400716D00598000713D00A2000902E
:1059100005980007000F05F08DFC401EC0B20290F4
:105920001A488068807E4007400F05F083FC401EC7
:10593000C0B202E000200090029000993A464A432B
:105940002B46734303219A4209D9022262702170C7
:105950000299E170A0706771277109B0F0BD002E47
:105960000BD0002D09D06170022020700398E070E8
:105970000198A07065712571EFE7002060702070BC
:10598000E070A07060712071E7E70000D80200208D
:1059900010B50C4606F045FC206010BD30B505463C
:1059A0000D4887B0806C029004A80C4601900390CB
:1059B0000A4901A801F0D1FF00F0E4FD014601A869
:1059C00008F000FC00200346009001AA214628466A
:1059D00002F0F4F807B030BD345901000B8000002C
:1059E000F8B503F071FF002801D0642130E001F028
:1059F000EDFC002830D01A490878002804D0002097
:105A00000870002816D101E00120F9E70024154DA7
:105A1000154E27460AE0E420A96A60430818818BE6
:105A2000B14202D0417901714771641C0DF0B4FE9E
:105A3000A042F0DC0BF0EAFD00F0A4FD012806D046
:105A400008480321783800F0B2FC002803D0074949
:105A5000074806F0AFFBF8BD0EF0A6FDF8BD00004C
:105A60005402002088310020FFFF000010270000B2
:105A7000B430002070B50546194886B0406D0290DC
:105A800004A801900390AC6A0E46002C13D0106855
:105A90000078002801D001281FD1E17988420AD07E
:105AA000E07103F0FBFBE079002802D000F046FD36
:105AB00001E000F033FD0B4901A801F04EFF00F0BA
:105AC00061FD014601A808F07DFB0020034600901F
:105AD00001AA3146284602F071F806B070BD0000F8
:105AE000345901000B80000000B50849084B496893
:105AF00085B0C9681046994205D108F0A7FB014658
:105B0000684603F0D3FF05B000BD00005802002036
:105B10000B800000F7B506460AF01CF9FFF77EFA85
:105B200004001AD00E4D20460C300746E96A08F0F2
:105B300025FB0021384608F045FBB000C01CC1B26F
:105B4000384608F03FFB3846029A019908F02FFBCF
:105B5000EC640CF0EBFB0020FEBD0620C043FEBD54
:105B60001833002030B5437803245B1D2343C45C05
:105B7000E50601D5012030BD002903D0210601D55D
:105B8000022030BD002A03D0C1182039C97F11700E
:105B9000C1182039487F897F4907490D08430449C6
:105BA000420502D51F22D20210430880002030BDDA
:105BB0002C02002010B514480068016889070ED037
:105BC000016DC908C900016501680822114301601F
:105BD0000168090703D500BF00BF00BF00BF002256
:105BE00002650A4B586800280AD041680C68806832
:105BF00004430C60586801690B68406903430B60FB
:105C00000348C27110BD0000280200202C020020B1
:105C10000030002008B51148407D002801D0FBF776
:105C200063FB0F4B1879000612D50E48816B00916B
:105C3000816B009A9142F9D10B491046C968012243
:105C4000814202D8401A02D502E0081A00D51A7122
:105C500006488069002800D0804708BDAC2F00208E
:105C60000030002000100040E02F0020902F002086
:105C70001FB50D2249A14D480EF0AAF800281AD0F0
:105C80004B4802904B4803904B48FCF71BF8062208
:105C900049494A480EF0AAF802AB474A48494948E0
:105CA00000F09AFF04000AD0474948A0FEF760FCC4
:105CB00021464AA034E052A0FEF75AFCFEE705F068
:105CC0000BFB544801F0B4F800203C4A0346103264
:105CD00001018C182372401C53520728F8D303F09B
:105CE000C7F902F01FFF3448C01DFFF7D1FA494839
:105CF000103002F0C7FE044601F05EFD02F066F9C6
:105D000003F0F8FB00F046FC00F048F903F080FADD
:105D10002D49002C2DA006D0FEF72AFC21463EA0DE
:105D2000FEF726FC2DE0FEF723FC44A0FEF720FC46
:105D300048A0FEF71DFC0CF079FD01F047FB0028A0
:105D40000AD0214921A0FEF713FC43A0FEF710FC66
:105D500040A0FEF70DFC18E02E49012000902039EC
:105D600000232C4801911A461946303802F00CFFE6
:105D700004000AD0144915A0FEF7FAFB21463FA003
:105D8000CEE734A0FEF7F4FB1FBD0F490FA0FEF7CE
:105D9000EFFB41A0FEF7ECFBF3E700004D45534855
:105DA0005F4C49425F56312E310000006A550100B8
:105DB000B0050020B408000001000020640E00209F
:105DC00014550100E0540100605301004150505F40
:105DD0004442472025733E2000000000556E61625A
:105DE0006C652073657420636F6E66696775726198
:105DF00074696F6E20286572723A2564290000006C
:105E0000686561642066696C65206572726F722EC8
:105E10002E2E0A002C520100496E697469616C696A
:105E20007A696E67206D657368206661696C656468
:105E3000202865727220256429000000426C756577
:105E4000746F6F746820696E697469616C697A65D2
:105E5000640000000A0000004D657368206E6574E0
:105E6000776F726B20726573746F726564206672EF
:105E70006F6D20666C6173680000000053656C668E
:105E800020507269766973696F6E696E6720286544
:105E900072722025642900004D65736820696E695F
:105EA0007469616C697A65640000000030B50D4664
:105EB000ADB00146144668460DF06BFD002809D0D0
:105EC0006A46294620460DF072FD002802D00020C7
:105ED0002DB030BD1120FBE710B5084605F088FA5B
:105EE00005F070FA10BD10B505F04EFA10BD0000B7
:105EF000F8B514460E4605460EF0CAFB024620329F
:105F0000334615491548009400F02CF8041E22D0A1
:105F100004F030FA014620460C300622074608F00D
:105F200046F90121384608F00AF90D48415D384626
:105F300008F048F9606908306061E060608A0838FC
:105F40006082208A08382082A069002101604160B7
:105F5000816046722046F8BD015000007430002078
:105F600060550100F8B50D460746144601210A4860
:105F7000069E00F00AFA002801D00020F8BD324643
:105F80002146384608F09AF8041EF7D008F0CAF8FF
:105F9000A847A0612046F8BD1031002010B5044884
:105FA0000021016041600349034806F0EFF810BD8D
:105FB000400200209DC0000058300020F8B5174670
:105FC0000E46054608F0B7F884694021C0C4207821
:105FD00008434006400E2070002020812846083CDF
:105FE00008F0A0F8E081607A0A21C008401C48430C
:105FF0006073607A4007400F401C2073287C6969F9
:10600000401C20398877214614310A480DF075FC70
:10601000094806F0C4F800280BD1074800210830D1
:1060200000F0B3F90006000E03D10021024806F08B
:10603000C1F8F8BD4002002058300020F0B5C3B0D0
:106040000C46154601461F4616AA68460DF00CFD83
:106050000A26F643002814D008E006CC6846083C1F
:106060000DF02EFD00280CD008346D1E002DF4D14B
:10607000694638460DF0B0FC002802D0002043B03D
:10608000F0BD3046FBE71CB5019200910122694644
:10609000FFF7D4FF1CBDFFB589B01C46174615A8F5
:1060A0000DC88C4614990293019200900B46129EE3
:1060B000139D3A46614604A803F0CEFF002F01D09D
:1060C000082000E004203268002D01D0102100E0FB
:1060D00000210191039000950292A38804A92268EF
:1060E000099800F0BDFA050003D1A188304608F0F8
:1060F00026F828460DB0F0BDFFB589B01C46154600
:1061000014A80DC8139F029301920090129E3B4663
:106110002A4604A803F0A0FF002D01D0082000E0CB
:1061200004202268002E01D0102100E000210191FE
:10613000039000960292A38804A9099800F0BAFB84
:10614000060007D1002D01D0082100E004212046DF
:1061500007F0F5FF30460DB0F0BD000070B500242B
:10616000084D094E07E02820696A60430818018835
:10617000B14205D0641CFFF7E3FAA042F3DC002033
:1061800070BD000088310020FFFF000038B50D46CB
:1061900004464088694608808D70084801F07EFBFF
:1061A000002D02D0204600F0AFFD0020C04320802B
:1061B0002221601DFAF7CBFD38BD000041470000E9
:1061C000F8B5064600240A4D0A4F0AE02820696AFD
:1061D000604308180188B94202D04188B14205D015
:1061E000641CFFF7ADFAA042F0DC0020F8BD00000F
:1061F00088310020FFFF0000FFB5064681B023482C
:106200000A9D1C460F46814207D0401E874209D195
:10621000039800F081FE002804D0002028701C485C
:10622000206030E01948401E87420ED10E211948E7
:1062300000F0E1F8002808D0039802F00DFB0028D8
:106240000ED0001D206000201CE0002E08D0384633
:10625000FFF7B6FF002807D0F17F022907D00EE034
:106260000020C04305B0F0BD0720C043FAE7017924
:10627000002904D0014617312160807D02E0811D94
:106280002160407928700020ECE70000FEFF00004C
:106290009831002018320020CB06DB0E01229A40F4
:1062A000490989004358934343507047CB06DB0E9E
:1062B00001229A40490989004358134343507047CB
:1062C000CB06DB0E01229A4049098900435813434B
:1062D00043507047CB06DB0E01229A4049098900E2
:1062E000435813434350704710B5CC06E40E0123C6
:1062F000A34049098C000159002A01D0194300E04C
:106300009943015110BD10B5CC06E40E0123A34002
:1063100049098C000159002A01D0194300E0994332
:10632000015110BDCB06DB0E01229A4010B5490980
:106330008B00C1580C469443C450114201D0012037
:1063400010BD002010BDCB06DB0E01229A4010B517
:1063500049098B00C1580C469443C450114201D0E6
:10636000012010BD002010BDCB06DB0E01229A409B
:1063700010B549098B00C1580C461443C450114252
:1063800001D0012010BD002010BD4A0992008058A4
:10639000C906C90EC840C007C00F70474A0992001D
:1063A0008058C906C90EC840C007C00F70474A09C7
:1063B00092008058C906C90EC840C007C00F704778
:1063C0004A0992008058C906C90EC840C007C00FCC
:1063D00070474A0992008058C906C90EC840C007D4
:1063E000C00F70474A0992008058C906C90EC840BC
:1063F000C007C00F70474A0992008058C906C90EED
:10640000C840C007C00F70474A0992008058C906AB
:10641000C90EC840C007C00F70474A099200805893
:10642000C906C90EC840C007C00F704770B50E46F8
:10643000050015D0AC6A002C11D0002E16D0606873
:10644000002804D00269002A01D0284690477D2008
:10645000C000314641432046083005F0ABFE70BD18
:1064600009480468002CFAD02568E6E72046083081
:1064700005F082FE60680028F1D041690029EED065
:106480002846884770BD00008402002070B588B09F
:1064900004461E4668460C9D1346017008221946A4
:1064A000401CFAF739FC02A9304601310DF01AFA06
:1064B00004AB0D2269462046FFF7E5FD040004D138
:1064C000082204A92846FAF727FC204608B070BD28
:1064D00070B50E46044601F065FD0146A07F002818
:1064E00002D02546893501E025463035304607F093
:1064F00069FE294608222131304607F058FE064839
:106500000168304607F03AFE21460822283130461D
:1065100007F04DFE70BD00000831002010B50321CA
:106520000448FFF744FF002802D1034805F024FE89
:1065300010BD000010310020B4300020F8B500F08C
:1065400045FF002814D000240B4D0C4F26460BE0CD
:10655000E420A96A60430818818BB94203D0067110
:10656000467101F061FB641C0DF016F9A042EFDCEE
:10657000034805F063FEF8BD88310020FFFF0000EE
:10658000B430002002484068002800D0C07970472D
:106590006002002010B50249024805F0F7FD10BD69
:1065A000E1590000B43000200B4A10B50823D11A7D
:1065B0008968002805D019430848116005F03EFE9F
:1065C00010BD99431160FFF7DDFF0028F8D10348A3
:1065D00005F0D2FD10BD000010310020B4300020C5
:1065E0007CB504468088002809D0204607F02EFE9E
:1065F000002805D0012802D120460AF079FF7CBD91
:1066000003F062F90028FAD1A088122801D01628D8
:10661000F5D11021204607F011FE0646204607F06E
:10662000E4FD054600200090A088042805D12046FE
:1066300007F0E9FD019001A8009002F01DFA846ABC
:10664000002CDCD06B462A4631460120A0477CBD99
:1066500010B50146014809F0CFF910BD7430002093
:10666000FFB59BB01E98259E1746002803D0FF203B
:106670000002864203D30020C0431FB0F0BD0120BA
:10668000694608700D2268441C99FAF745FB03A976
:106690000231002018910DF021F910AA69461B98CB
:1066A000FFF704FC0028E8D12798082803D0002E23
:1066B00008D0402007E0002E01D0402000E000205C
:1066C000192101E00020092108436946087000A84B
:1066D0000D2201301C99FAF71FFB1E98189980B201
:1066E0000DF0FCF804AA69461B98FFF7DFFB0028B1
:1066F000C3D1002E3ED0B0B269460DF0EFF80024B1
:10670000694604AA105D0B5D58400855641C022CB4
:10671000F8D30025B61C13E0684604A9249B0A5D43
:106720005B5D6D1C5A400255641C102CF6D30A4662
:1067300001460024103E1B98FFF7B8FB00289CD1AF
:10674000102EE9D80020694604AA06E0249C135CB8
:10675000645D63400B54401C6D1CB042F6D302E0F4
:10676000905D8855761C102EFAD31B98FFF79EFB80
:10677000002882D11E980F21050700030903401845
:10678000000C2D0F1990002D00D11025002481E060
:10679000661C864248D10120694608700D22684473
:1067A0001C99FAF7B9FAB0B218990DF097F80CAA3B
:1067B00069461B98FFF77AFB002899D1210108AEA2
:1067C00006E00A180CABBA5C1B5C5A403254401C01
:1067D000A842F6D326982A4608183146FAF79CFABA
:1067E000002004AA05E0115C335C59406B46195443
:1067F000401CA842F7D328466946164602E0325CA0
:106800000A54401C1028FAD332461B98FFF74EFB5F
:10681000002894D110AB195C325C514014AA115479
:10682000401C1028F7D334E00120694608700D227F
:1068300068441C99FAF770FAB0B218990DF04EF846
:106840000CAA69461B98FFF731FB002891D1210162
:1068500008AE0A180CABBA5C1B5C5A403254401CA0
:106860001028F6D32698102208183146FAF754FA61
:10687000002004A90A5C335C5A406B461A54401C41
:106880001028F7D30A4619461B98FFF70FFB00287C
:1068900093D1641C1998844200D279E71E98279AF4
:1068A000391814A8FAF773FA002800D1E5E6102089
:1068B000C043E2E6FFB597B0FF20219F00021646D5
:1068C000874203D30020C0431BB0F0BD01206946BE
:1068D00008700D2268441899FAF71EFA03A90231CC
:1068E000002014910CF0FAFF0CAA69461798FFF7E4
:1068F000DDFA0028E8D12398082803D0002F08D01B
:10690000402007E0002F01D0402000E000201921A6
:1069100001E00020092108436946087000A80D2203
:1069200001301899FAF7F8F91A98149980B20CF016
:10693000D5FF04AA69461798FFF7B8FA0028C3D113
:10694000002F41D0B8B269460CF0C8FF002404AA59
:106950006946105D0B5D58400855641C022CF8D345
:106960000025BF1C13E004AB684620991A5D495D01
:106970006D1C4A400255641C102CF6D301460024BD
:106980001A46103F1798FFF791FA00289CD1102F54
:10699000E9D8002004A96C4606E0209B0A5C5B5DF8
:1069A0005A402254401C6D1CB842F6D3204602E0E7
:1069B000CA5DC2557F1C102FFAD30A4601461798AC
:1069C000FFF774FA002895D11A980F2105070003E4
:1069D00009034018000C2D0F1690002D00D1102532
:1069E00000247DE0601C16991590884246D1002055
:1069F00004A9270106E03B180A5CF35C5A406B4689
:106A00001A54401CA842F6D3284604E004A90A5CA4
:106A100069460A54401C1028F8D304AA69461798FE
:106A2000FFF744FA00288AD104A90CAA125C0B5C77
:106A30005A4010AB1A54401C1028F6D30120694666
:106A400008700D2268441899FAF766F91598149998
:106A500080B20CF043FF08AA69461798FFF726FAA0
:106A6000002893D107E0391808AB725C1B5C5A40D0
:106A7000229B401C5A54A842F5D330E0002004A9C0
:106A800027013B180A5CF35C5A406B461A54401CC1
:106A90001028F6D30A4619461798FFF707FA002878
:106AA00091D10120694608700D2268441899FAF7BF
:106AB00033F91598149980B20CF010FF08AA6946B2
:106AC0001798FFF7F3F90028ADD1391808AB725CBD
:106AD0001B5C401C5A40229B10285A54F5D3641C5E
:106AE0001698844200D27DE71A992298239A40187A
:106AF00010A9FAF711F90020E6E61CB51C46049B24
:106B0000019313460094002202F010FF1CBD000008
:106B1000014840687047000060020020FEB5074E43
:106B2000099C089DB44202D10020C043FEBD01264D
:106B300002960095019406F067F9FEBDFFFF000084
:106B40007FB50D4614460A4E0999089AB14203D101
:106B50000020C04304B070BD039100260093029250
:106B60000146019623462A46024806F0A7FDF1E7B2
:106B7000FFFF00001B80000070B513484468002C24
:106B800020D0002002F03EFB002120464030018052
:106B90004180A163E1630C460C4D0D4E0AE0E420F8
:106BA000A96A60430818818BB14202D0012102F02A
:106BB0000BFC641C0CF0F0FDA042F0DC0021054849
:106BC00000F06CFE70BD00006002002088310020E3
:106BD000FFFF0000F3D40000FFB5474F81B01E4611
:106BE0000D4604007ED0002E7CD03068002879D07D
:106BF000002D7FD000214148FFF7D0FB002802D0B4
:106C0000B80005B0F0BD2078801F232872D26078CC
:106C100014286FD8A078401E60286BD22079801E7F
:106C2000132867D2A01D06F08DF8002862D0A18A33
:106C30003348491F81425DD2618A491F814259D23E
:106C4000E08A801E042855D2207E401E042851D29E
:106C5000607E401E08284DD2A07E401E042849D2E6
:106C6000E07E801E1D2845D2A08B401EFF2841D209
:106C7000A17F20461E30891E13293BD28088FF2128
:106C800088310A38884235D22820005D002831D06A
:106C900021461C4C216003996160287C022829D37D
:106CA000698A6869F9F7D8FF002901D0002003E05C
:106CB000687C0028FAD0012000281BD03046A5604F
:106CC00006F032F8FEF7C4F80446FEF7A1F80419FE
:106CD000FEF784F80419FDF7FBFF0419FDF77AFFAE
:106CE000041900E006E0FDF7A5FF0419FDF7B6FF63
:106CF000001986E7384684E7FFFFFFFF10310020C8
:106D00000C0E00004802002038B5044641886A464F
:106D1000012005F043FB01229203002801D00188E5
:106D200010E00098002813D0018801231B031943A9
:106D300001806388090B1B0509031B0D19430123FF
:106D40005B0319431143018007200AF00FFA38BD95
:106D5000608802F05FFF38BD10B508200AF006FA1F
:106D600009200AF003FA0C200AF000FA10BD38B529
:106D700004460088694608F05DF90121002801D029
:106D8000817005E00098002806D08170218801807C
:106D90000E200AF0EBF938BD208802F0D7FF38BD8D
:106DA00010B506200AF0E2F910BD38B50446818B13
:106DB0006A46002005F0F2FA01229203002801D071
:106DC000018810E00098002813D0018801231B03DC
:106DD00019430180A38B090B1B0509031B0D1943E4
:106DE00001235B0399431143018007200AF0BEF998
:106DF00038BDA08B02F092FF38BD0000014840680A
:106E0000704700003402002010B50849074A088086
:106E10000021526806E0D3680C011B191880401C41
:106E200080B2491C93688B42F5D810BD3402002013
:106E30008168002903D00349486000207047002082
:106E4000C04370473402002010B504490020088078
:106E50000146034800F022FD10BD0000340200206E
:106E600049D100004168491E416070473FB585B077
:106E70000D9D0C9C694601920B814B8103920B2B5B
:106E800004D9416880234A7A1A434A720021426831
:106E9000C943518041682B46497ACA0906A9009125
:106EA000224601A903D00BF069FA09B030BD0BF0FE
:106EB000C7FBFAE703484068002801D0807A704792
:106EC000072070476002002008B500920A4602A31E
:106ED000202100F085FA08BD7072646B000000008C
:106EE00010B50C4688B00146074A6846F9F771FEAE
:106EF000002806D0002C01D06846A047002008B02A
:106F000010BD0120FBE70000DC3300200148406891
:106F1000007A704734020020F8B5070021480ED0EF
:106F20000121C9038F420AD24168CA688968108862
:106F3000381A80B2814233D900011018F8BD0026FA
:106F400029E0C0683101441800250AE02C20A1681E
:106F5000684308183946009000F076FC00280FD1ED
:106F60006D1C2079A842F1DC00250FE02C20E1689F
:106F7000684308183946009000F066FC002804D0E9
:106F80000098002805D02046F8BD6D1C6079A84205
:106F9000ECDC761CB6B2034840688168B142D0D8B8
:106FA0000020F8BD3402002010B5FF22064C03E09B
:106FB00003785340E25C401C0B46491EC9B2002BCB
:106FC000F6D1FF20801A10BDCC5F010030B50268F9
:106FD0008088FF23094C03E015785D40635D521CF7
:106FE0000546401E80B2002DF6D14B40E05CCF2814
:106FF00001D0002030BD012030BD0000CC5F010079
:107000000B4910B5401807D0012808D0022809D034
:1070100003280BD1012010BD00F00EF904E000F0B0
:107020008DF801E002F01AF80128F4D0002010BD1C
:107030000400FFFFFFB581B0002528E01748039A40
:10704000016A682068430F180198818B384603F065
:1070500019FD00281AD0002414E00C20396B60437D
:107060000E18049802990088C204D20C304604F02D
:107070001FFF002805D0304609F0B2FB0020307217
:1070800004E0641C03F0CAFDA042E6DC6D1C03F0C2
:10709000B9FDA842D2DC05B0F0BD000008310020E7
:1070A000F8B5054600240B4E0B4F0DE06820396AF9
:1070B00060430818C189B14205D0B54201D0A94248
:1070C00001D103F033FB641C03F09CFDA042EDDC16
:1070D000F8BD0000FFFF000008310020FFB581B0BF
:1070E0001F46064600241FE01248016A68206043DC
:1070F0000D180398002802D0E878C00613D5002F99
:1071000002D0E87880060ED50B48864202D0E88986
:10711000B04208D12846029904F07FFE002802D030
:10712000284605B0F0BD641C03F06CFDA042DBDC1A
:107130000020F6E708310020FFFF00000348406808
:10714000002801D0407A704702207047600200207A
:10715000F8B50E46074600240A4D0CE06820296A5F
:10716000604308183246394603F08CFC002801D0F1
:107170000120F8BD641C03F045FDA042EEDC0020B8
:10718000F8BD000008310020FFB5002681B035466B
:10719000344616E01048039A016A682060430F18CD
:1071A0003846019903F06EFC002809D001253846C5
:1071B0000A9B049A029903F089FC002800D001265A
:1071C000641C03F01FFDA042E4DC002D02D0304619
:1071D00005B0F0BD0120FBE708310020F8B50746F7
:1071E000002519E00F48016A682068430E18F089ED
:1071F0000D4988420FD08F4201D0B8420BD1B46BF9
:1072000003E0204604F081FE2468002CF9D100211F
:10721000304603F064F96D1C03F0F4FCA842E1DC95
:10722000F8BD000008310020FFFF000010B5008805
:10723000F9F700FF10BD000003484068002801D0A6
:10724000007A7047022070476002002010B5FAF7FC
:1072500071FB10BD10B5034800214089FAF7BCFB53
:1072600010BD00009403002002484068002800D0B0
:107270000C30704760020020F8B51646154A1F46CC
:107280005568002D24D02C464034228882421FD1DC
:10729000608888421CD104F0BCFFAB6BEA6B181A03
:1072A0008A4115DBA079B04200D33046A071E07965
:1072B000B04200D83046E071A0880749884201D228
:1072C000401CA080AA6C002A02D039463046904764
:1072D000F8BD000060020020FFFF000010B5002193
:1072E000084600F001F810BDF3B589B000200E4645
:1072F000039004900590FFF70BFC0546254806AB6C
:1073000007C807C3288E69460883288D88832F46BF
:107310002037787B08A988700024288E02F0C8F8EE
:10732000039006A80490286800F070FA0088694667
:10733000888201F001FA69468875288D002826D0D8
:10734000787B087201F08AFE012800D10124FFF742
:1073500073FF012801D102200443FFF7EFFE01284B
:1073600001D10420044300F081F9002801D0082055
:10737000044360BA69464872000A8872099800900E
:10738000032302AA0A21019603A8FFF76FFD0BB0A1
:10739000F0BD0000885F010070B515460A4686B052
:1073A000064608A401A9104601F0CEFE002806D129
:1073B000234601AA10213046009500F011F806B0CE
:1073C00070BD0000696431323801000010B5002141
:1073D0000248FEF7F5FFC0B210BD000010310020DA
:1073E00070B51646049D0A461C4601462B4630469B
:1073F000FEF749FE002808DB2046F9F7B3FC0246F9
:107400002B4621461846FEF73EFE70BDF0B593B000
:107410000E4607461C4615460FA925A001F094FE0E
:10742000002843D10BAB102239460FA8FEF72BFEE4
:1074300000283BD10121684601700020059006908C
:1074400068460A9109900796089501AB032205A9A1
:107450000BA8FEF7F3FD002828D16946C87C01ABD4
:107460004006400E207001A80590102006900220D2
:107470000870032205A90BA8FEF7E0FD002815D12E
:10748000102201A91898F9F747FC032069460870F3
:10749000024601AB05A90BA8FEF7D0FD002805D1D7
:1074A000102201A91998F9F737FC002013B0F0BD9C
:1074B000736D6B320000000030B505460C4611A01C
:1074C00003C88BB009910890694610A001F03CFEFA
:1074D000002815D104AB102229466846FEF7D3FDDB
:1074E00000280DD16B46052208A904A8FEF7CBFDA4
:1074F000002805D10822204602A9F9F70DFC00203A
:107500000BB030BD6964363401000000736D6B331D
:107510000000000030B5054689B011A000680C4697
:10752000089069460FA001F00FFE002815D104ABAA
:10753000102229466846FEF7A6FD00280DD16B46AD
:10754000042208A904A8FEF79EFD002805D168467C
:10755000C07B8006800E2070002009B030BD000086
:1075600069643601736D6B340000000010B5044689
:10757000837FC07F8B4201D000281CD0A1770029D7
:1075800003D0012818D1022013E0012802D00228DC
:1075900012D101E0002A0FD0204600F0A5FF0748D5
:1075A000074900680968084302D0A08B03F098F9E6
:1075B0000020E077012010BD002010BD2C04002029
:1075C0001004002070B5064600240A4D0CE0182077
:1075D000A968604340184088B04204D11820444351
:1075E0006018001D70BD641C04F0ECFFA042EEDCCE
:1075F000002070BD6002002010B50D2209A10D48C9
:107600000CF0E6FB002808D0FCF786F90446FAF7F0
:10761000BDFEFAF78FFE204610BD07A0FCF7A8FFBD
:10762000FEE700004D4553485F4C49425F56312EFE
:10763000310000006A5501006D657368206865615E
:10764000642066696C65206572726F722E2E2E0A38
:107650000000000010B504490979002902D0012179
:1076600002F0F0FA10BD0000283100200248007C32
:10767000C006C00F704700002831002070B50022FE
:10768000164B114601264C00E418258E854209D17F
:10769000C806C00E86404809800048331958B143D7
:1076A00019500EE0002A03D1002D01D122463032BC
:1076B000491C0829E7D3002A03D01080187B3043E7
:1076C00018730648001F017CC906C90F05D0C07990
:1076D000002802D107200BF0DBFF70BD2C31002009
:1076E000F3B585B0002630E005987100405A0028B7
:1076F0002AD01E4C0390204664300290001D019059
:10770000001D00252434009068000719398E039865
:10771000814216D129460298FEF77FFE002805D146
:1077200029460198FEF779FE002808D029460098DE
:10773000FEF7D0FD207B01210843207301E00020EB
:1077400038866D1C082DDFD3761C06988642CBD375
:1077500006482030017CC906C90F05D0C079002831
:1077600002D108200BF094FF07B0F0BD08310020D3
:1077700010B50448C178012903D103F0E7F90AF0F4
:1077800001FB10BD2C31002010B50548007CC0065F
:1077900002D40520C04310BD0AF0F4FA10BD000069
:1077A0002831002003480079082801D000207047C4
:1077B000012070472831002010B504484068002897
:1077C00003D00021024800F069F810BD3402002007
:1077D00049D1000030B589B015461E221C460092E2
:1077E00001AB08A202F01EFE002C06D0224629465C
:1077F00001A80BF035FA09B030BD01A80BF006F86E
:10780000F9E7000064617461000000000349007939
:1078100049680001C9680818704700003402002058
:1078200030B5002203790BE02C24856854432C5B8F
:107830008C4203D12C214A43A81830BD521CD2B22D
:107840009342F1D8002030BD002253001B185B8A00
:107850008B4203D15100081812307047521C062A7F
:10786000F3D300207047F0B50023477911E02C26B0
:107870001D467543C468AE1CA65B8E4207D1645B8F
:10788000944204D1C0682C214B43C018F0BD5B1C4E
:10789000DBB29F42EBD80020F0BD0000F3B581B011
:1078A0000746002429E0C0682101451800260CE0A5
:1078B0002C20A9687043081802990091002C09D067
:1078C000002300222946B847761C2879B042EFDC15
:1078D00000260EE00123F4E72C20E9687043081825
:1078E00002990091002C0ED0002301222946B847AE
:1078F000761C6879B042EFDC641C044840688168FB
:10790000A142D0D8FEBD0123EFE7000034020020E1
:1079100010B50D4B5B68002B11D09C688C420ED9C2
:10792000DB68090159182C235343002804D04879F7
:10793000904204D9C86805E00879904201D8002037
:1079400010BD8868C01810BD3402002000790028DE
:1079500001D0002070470120704770B50446806850
:107960000D46002801D0A06802E020460C30A0603F
:10797000002120602046A180FF2D03D8E9B206F047
:1079800021FC70BD01200004854204D2A9B220462A
:1079900006F0E6FB70BD2802010E204606F012FC40
:1079A000A9B2204606F0F6FB70BD00008268002AEE
:1079B00008D0907A810907D0012909D0022913D073
:1079C000032915D0002070478006800E642103E053
:1079D0008006800E7D21C90048435189CA04F2D532
:1079E0000905090F084170478006800E0249F3E738
:1079F0008006800E0149EFE710270000C02709002C
:107A0000F0B506463A48EBB0806909900BA808909B
:107A10000A900020B46802900390049005900790AB
:107A200002A806903046FFF7F1FE00886946888379
:107A300000F082FE69468877002C54D0A088172772
:107A4000FF43002852D0E0880005000DFEF7B8FB88
:107A500005004BD06089400B02D0E01B04F08CFB8A
:107A6000A0886A469081207A9074E188507C8904CD
:107A70004006C90F400EC901084350742888108180
:107A800069885181D17FE2884908D2044900D20F28
:107A900011436A46D17701F00BFD0590002825D0EF
:107AA0006089617AC004C00C490308436081206981
:107AB0008288016808A806F07AFB0D48009008ABA0
:107AC000012205A90196304606F032FA050007D0DA
:107AD00060893146C004C00C6081284608F04CFE25
:107AE00028466BB0F0BD1220C043FAE73846F8E7ED
:107AF00040550100F0B50E4685B0074603A9304653
:107B000003F0A6FB002854DB00254DE0C0682901E6
:107B100044187889002807D00121C903884203D27C
:107B2000218881423FD113E0032189033F22411A7A
:107B3000120291420CD90121C9030122411A920378
:107B4000914205D3002D2ED1FFF75AFA00282AD0F2
:107B50000120039A0004824202D22179A06801E048
:107B60006179E06802AB01930092FB887A8902F0A8
:107B700021FD040017D0B0886168884213D33046D5
:107B800006F027FB69460880B0884880A368324623
:107B9000391D0298984769460988B06840186946B7
:107BA00030604888B0806D1C034840688168A942F5
:107BB000ACD805B0F0BD000034020020FFB50C4683
:107BC000488885B017490E9E1D461746884208D042
:107BD000491E884205D0FEF7F3FA00281ED000881F
:107BE00020800020029003900490208801F060FC27
:107BF000029003940598FFF709FE00886946088201
:107C000000F09AFD6946887400953B46002202A95F
:107C10000196059806F08CF909B0F0BD0020C0432C
:107C2000FAE70000FEFF000038B5044600F0BAF99C
:107C30000146A07F002802D02046893001E020467E
:107C400030302834044A0094136802462132493007
:107C5000FEF71CFC38BD000008310020FFB581B0E4
:107C60000E4606F0E7F9204C81006068F9F76FF8DE
:107C700000251E482570846AF007C00FA0770227F0
:107C80000399002807D02046893000F06FFA0028B9
:107C900007D1E77709E02046303000F067FA002886
:107CA00003D00A20C04305B0F0BD0198A08310485E
:107CB0000068002802D02020055501E0202007554B
:107CC0000A49049880390860B007C20F07480221AA
:107CD0007838FEF709FB0548203805742046FFF781
:107CE000A3FF0020DFE70000880200208831002089
:107CF00054040020F8B5074680881D4614460E46F9
:107D0000122806D3002E07D1384601F059FF00286B
:107D100002D00020C043F8BD207DCF210840B1072C
:107D2000890E08432075B9882B462246386806F02C
:107D3000A1FB00282FD00020C043E0802968607B91
:107D40004978C0094906C001490E084360734006DE
:107D500000D0FF20A073207DF721084029684978D2
:107D6000C909C900084320752868801C0BF094FDE0
:107D700020612868C01D0BF083FD1022D243608172
:107D8000032E01D0002804D0FF210902401AFB284D
:107D900004D81046F8BD0720C043F8BDFDF77EFAB1
:107DA000002802D1204606F023F90020F8BD00008B
:107DB000F0B50C4609680746487889B016460006B3
:107DC00001D5082500E0042511480068002807D0E7
:107DD000002B04A802D002F0DEF901E002F0C4F9A1
:107DE000324604A8216802F0BFF9A088401B83B284
:107DF000A38022680020D11D009001AC23C404A9F7
:107E00003846D21DDB1FFEF72BFC09B0F0BD000089
:107E100054040020F7B5044640680F4640884349A3
:107E200084B0884201D1012600E000260025ED4300
:107E3000002E04D0384606F040FA082804D338460D
:107E400006F03BFA042802D2284607B0F0BD60686D
:107E50008188384606F00AFA2189384606F006FA83
:107E60000321384606F0FAF9054600F06DFC010CD6
:107E70002970010A6970A8706068002E817A01D0AB
:107E800080200143384606F0FFF9294800680028A1
:107E90000CD0E07AC00709D003A8009002AB01AA79
:107EA0000021206802F0DEFC002816D0E07A59227A
:107EB00040084000E07220686B46817F51430A46CB
:107EC0004032825C41311A71401802902068592278
:107ED000817F5143693140180390164802210546BD
:107EE000FEF76EFA134C083C2178081AC007010E01
:107EF000684600790143384606F0C6F90221284653
:107F0000FEF75EFA2168069B0A1A3946029800F0CD
:107F100013F8002899D102212846FEF751FA21686A
:107F2000039A091A386800F075F98EE7FFFF000020
:107F30002C04002010310020F0B50C4609680746DB
:107F4000487889B01646000601D5082500E00425CA
:107F500013480068002807D0002B04A802D002F0C4
:107F60001AF901E002F000F9324604A8216802F093
:107F7000FBF822680020D11D01AB009023C3A38829
:107F800004A93846D21DDB1FFEF794FC060003D17E
:107F90002946204606F0D3F8304609B0F0BD00006F
:107FA0005404002010B50024002803D0807F00284E
:107FB00000D0012402210448FEF702FA002801D073
:107FC00002200443204610BD1031002070B500246B
:107FD000184E194D06E02046E4225043A96A1C3091
:107FE0000E52641C0BF0D8FBA042F4DC002404E029
:107FF00028206043696A641C0E52FDF7A1FBA04271
:10800000F6DC002406E0204616225043296A801C34
:108010000E52641C08F000F9A042F4DC064807493F
:108020000C3804F0B3F804480549743804F000F93A
:1080300070BD0000FFFF0000883100202DC000004F
:10804000ED810000FEB504460E4645480221019030
:10805000FEF7B6F9424F0146083F384660303D46CC
:10806000009080353868002904D0A04221D1002E2C
:108070001FD11AE0A0421CD0A0421AD801462A31D2
:10808000A14216D3401CA04203D3A0420BD1002E24
:108090000BD108F0BDFFC100E86AF8F758FE0020D8
:1080A0003C60786013E0002E03D00098007C6028CC
:1080B00001D20020FEBD002E09D101F089FB00286D
:1080C00005D00198202102680A430260F1E7324698
:1080D00002210198FEF708F900200099002E08748B
:1080E00017D03C600026044601270DE0E86AF10045
:1080F00040180188002906D08178002902D0046048
:10810000446000E08770761C08F082FFB042EDDC2E
:1081100000E0786003F084FF01466020F8F79CFDE2
:10812000104941430E486C3004F044F800240E4ED0
:108130000CE02046E42250430246A96A1C328A5AC7
:10814000B24202D00818FFF76FFD641C0BF024FB4D
:10815000A042EEDC002001F0ABF80120FEBD0000E3
:108160001031002080EE3600FFFF00007FB504468E
:108170000D460020029021462046393111300191F0
:10818000009003AB012202A92846FFF73FF900281F
:1081900020D1102229462046F8F7BEFD6846007B14
:1081A0002074214621312846FFF786F9002811D195
:1081B00009480068002807D022462846293207A12E
:1081C000FFF7EAF8002805D122462846493205A1E2
:1081D000FFF7E2F804B070BD540400206E6B696BC9
:1081E000000000006E6B626B0000000070B5084D6F
:1081F00008E02046012200210C3000F033F8204630
:1082000006F08DF8284606F060F80400F1D170BD44
:108210002031002030B589B00446002015460A46BA
:10822000009001900290039001A9104601310BF0DB
:1082300059FB02A80722E11D0130F8F76DFD04AAE1
:1082400069462846FDF732FE002809D104AA211804
:108250004B78155C401C6B404B700628F7DB002008
:1082600009B030BDF0B58BB015460E4607460CF090
:108270000FFAB9881630884277D30CF009FA163015
:108280000BF0A4FE040070D00020099008940A901E
:108290000CF0FEF969461630C884182168460A9425
:1082A000F8F755FD69460E73FFF790F8002859D08E
:1082B00008AB6A4629463846FFF71CFD002851D115
:1082C00008A805F086FF69468883888CC8832848FB
:1082D0000068002805D0022D03D10989384600F036
:1082E00009FD68464089FEF78BFE002805D16846E7
:1082F0004089FEF711FE002804D06846007D402129
:10830000084303E06846007DBF21084069460875C0
:1083100008A801F015F9801D0BD16846154AC08ADE
:10832000516880000B58DB0BDB030B506846C08A9A
:10833000107068464089002809D00121C90388428D
:1083400005D26846007D41060CD4C0090AD16946B1
:10835000898B0A98401869460890C88B888408A8B9
:1083600000F00AF820460BF045FE0BB0F0BD00000F
:108370005404002088020020F8B50646087D0C460B
:108380008106607B8A0F4006400E012A04D0012836
:108390007DD9880F03D00AE0012878D0F9E700F0F2
:1083A0005DFE012803D0FEF747FF01286FD1207D35
:1083B0008006800F022803D1FEF73EFF012866D118
:1083C000207D8006800F44D000F0B6F901460022DF
:1083D0000120FDF78DFD050059D0207D8006800F1E
:1083E00001280BD031684878C009C0014870627B11
:1083F00031685206520E521E104348702846B28809
:108400000C303168009005F0D2FE216859208A7F37
:10841000424310461346413069330818CF184032A2
:108420008B5C217D490707D5EA681178C909C90124
:108430001170EA6819431170294E227D3168D20704
:10844000D20F8A1A00230099FFF776FD002842D147
:1084500002E000F013FEB9E7217D3068C907C90FBB
:10846000411A3A46E868FFF7D5FE002833D11D4887
:108470000068002817D0FEF7DFFE012804D0207D19
:108480008006800F01280ED16189009800E025E068
:1084900000F02AFD002806D06089002803D00121C1
:1084A000C903884217D3207D8006800F04D001289D
:1084B0000CD002280FD102E000F0D0FD01E0FEF761
:1084C000BBFE012800D00020002804D00022114665
:1084D0002846FDF773FD284605F021FFF8BD000092
:1084E0000831002054040020F8B5014606468931C1
:1084F00059220C463030F8F70FFC59212046F8F786
:1085000026FC304600F038FF0025114F1BE02820E4
:10851000796A68430C182088B18B884212D120797F
:1085200000280FD0214616311122601D0091F8F766
:10853000F3FB11210098F8F70AFC00202071204677
:1085400000F084FE6D1CFDF7FBF8A842DFDCF8BDEF
:108550008831002010B504460B480068002806D07A
:10856000002C01D0A08B00E00848FEF737FE084839
:108570000068002806D0FEF75FFE012802D12046E1
:1085800000F0C6FB10BD000010040020FFFF00003B
:1085900054040020FFB50446406881B0807A1F462D
:1085A0001546FF2803D1FEF785FC616888720299A1
:1085B00000220C3120460091FFF72CFC060057D119
:1085C0002E480068002821D06068817A01291DD0DA
:1085D0008188009800F088FC002817D060688088A7
:1085E000002813D00121C90388420FD2002D3FD0AB
:1085F0002B68002B03D000213A46084698476A684A
:10860000002A35D039460020904731E060688088E4
:10861000FEF7F6FC002805D160688088FEF77CFC38
:1086200000281CD0002D06D02B68002B03D0002181
:108630003A4608469847029805F07DFD01461048E5
:1086400005F05AFE002D05D06A68002A02D039468E
:10865000002090470A480C3803F0F0FD08E06068FD
:10866000807A012804D03A4629460298FDF7A6FCF4
:10867000029805F054FE304605B0F0BD54040020C9
:1086800020310020F8B5FDF77DFF012811D0FDF75E
:1086900045FF244C2068002805D0FEF7CDFD0228B8
:1086A00001D02068804720480068002804D0804717
:1086B00004E0FDF743FFECE700F088FD1B4800688D
:1086C000002800D080471A4DA86A878B00F07EF9F9
:1086D0000090284680380668A86A0221847F2846D0
:1086E0007838FDF76DFE002801D0022004433346A0
:1086F00022463846009900F06FF900240D4E0BE039
:108700001620296A604309184888B04203D00A7DC0
:10871000098800F0CDF9641C07F07EFDA042EFDC73
:10872000F8BD0000540400202C0400201004002098
:1087300088310020FFFF000002484068002800D078
:10874000007970476002002070B5114D6C68601CA4
:10875000686000F0FDFD284602210830FDF730FE7C
:10876000002813D10B49686888420FD9002000F017
:108770009FFE00280AD00120FDF716FF286801217E
:10878000401CFFF75FFC0020FFF7E4FE204670BDB1
:108790000831002000E5B000F7B582B00F460500B3
:1087A00007D00022FCF7D6FB002827DB0024174E59
:1087B00020E0012500240DE06A4639462846FCF7F2
:1087C000C9FB00280BD0801D01D0002507E06846BA
:1087D0000588641C07F020FD801CA042ECDC002D05
:1087E0000CD0E3E71620316A60430818018800299D
:1087F00007D0641C07F010FDA042F3DC002005B098
:10880000F0BD0580077504994180F8E788310020A4
:1088100070B50024084D0AE01620296A6043081844
:108820000188002902D0012100F008F8641C07F03B
:10883000F3FCA042F0DC70BD8831002010B5044686
:10884000002901D0FEF793FA002020801021201D7E
:10885000F8F77DFA10BD000070B5054600240A4EF9
:108860000BE01620316A604308180188A94203D83A
:10887000027D8918A94205D8641C07F0CDFCA042EE
:10888000EFDC002070BD000088310020F8B50E46F6
:1088900007461C4615460E211648FDF7A3FD002885
:1088A00008D002211348FDF75FFD002805D0032002
:1088B000C043F8BD1220C043F8BD04210E4800F0AB
:1088C000A3FB0D487F21143001720A488581C681BF
:1088D0000474FF300130806B05F0E1FC1022394652
:1088E0000020FDF717F904210248FDF7E9FC0020FC
:1088F000F8BD000018320020443300207CB5044647
:1089000000F0E2FF002803D1FEF760FD00283CD113
:10891000A088062839D3204605F075FC0090204633
:1089200005F094FC69460871204605F08FFC694605
:10893000487102211548FDF755FD002804D0144860
:108940000099C06A884220D16E4671792546A08878
:108950008907104CC90E09194979884215D302219B
:108960000A48FDF73FFD002807D168464079800797
:10897000C00E00190079002807D1684640792946C1
:108980008007C00E2258304690477CBD1832002028
:1089900018330020545E010010B50A49496881422D
:1089A00002D00420C04310BD08F03AFA044606483D
:1089B0008068426B002A02D00021022090472046A6
:1089C00010BD000018320020D802002001480088A5
:1089D000704700003402002030B4054CA468A46B3A
:1089E000002C02D0A44630BC604730BC7047000069
:1089F000D80200207FB5064C6568E46802920091B9
:108A00000195039402226946FDF718FB04B070BD7E
:108A1000CC60010008B500920A4602A32021FEF7AF
:108A2000DFFC08BD7072636B000000001FB50B46D1
:108A30000021009101910291039101469122684623
:108A4000FDF721FB04B010BD7FB50024082502937B
:108A50000094039501941923FDF702FE04B070BD44
:108A60007FB50024082502930094039501941923EF
:108A7000FDF720FF04B070BD01488068704700001A
:108A8000D802002010B5040008D00649064803F0BB
:108A90007DFB0648846008F0C3F910BD0020C04388
:108AA00010BD000005FA000090330020D80200201D
:108AB000034B9B68DB6B002B00D01847704700000E
:108AC000D802002070B586B0164601AD0A4607A34D
:108AD00020210095FEF784FC040004D10D22E91C3E
:108AE0003046F8F719F9204606B070BD7072736E03
:108AF0000000000008B50092034A0B465289008826
:108B0000024900F0AFFE08BD74030020BC33002012
:108B100003488068006C002800D0004770470000C0
:108B2000D802002010B50249024803F02FFB10BD07
:108B3000450301007033002010B58AB00024049072
:108B400010200094019402940394089206910590D9
:108B500007900990032204A96846FDF76FFA0AB04E
:108B600010BD000010B5034800214089F8F734FF1C
:108B700010BD00003403002010B50249F8F752FF81
:108B8000002010BDBC330020FFB5254D0121A86891
:108B900081B00143A9600835C0071646C00F03D055
:108BA0000120C04305B0F0BD1E4F3868002804D036
:108BB000002000F05FF9002814D000243146049B07
:108BC000019A0298FFF74AF806000DD0286840087D
:108BD000400028603868002802D0002C00D0804770
:108BE0003046DFE70124E9E70D49002048600A9894
:108BF000FEF70AF90A48102290300B99F8F78CF822
:108C000000F081FB06488030806A00F0B5FB002050
:108C100000F04EFB012000F00DFB0020C2E7000039
:108C20000831002050040020FFB50C4681B01D46DD
:108C3000164600210A48FDF7B1FB0027FF43002834
:108C40000CD0204600F034FC002807D02B463246DA
:108C500021460198FFF71AFE05B0F0BD3846FBE744
:108C60001031002070B50D46FEF7B0FB0524E4433B
:108C7000002815D00E210E48FDF7B4FB002808D0BF
:108C800000F022FE002807D0002D05D008F0C8F81B
:108C900008E00120C04370BD00F016FE002801D09E
:108CA000204670BD0E210248FDF7F6FA002070BD87
:108CB0001832002010B5FEF789FB0524E443002894
:108CC00005D002210A48FDF78DFB002801D020467F
:108CD00010BD0E210648FDF785FB002802D00120BB
:108CE000C04310BD0E210248FDF7EAFA002010BD76
:108CF0001832002010B52838027A012A04D0022A3E
:108D000001D101F01FFC10BD01F0FBFB10BD000004
:108D100070B506000DD0124D002420465421484362
:108D20002858002802D031460AF096FC641CF4D082
:108D300070BD00240B4D0C4E0CE02046E422504345
:108D40000246A96A1C328A5AB24202D00818FFF7BA
:108D5000DFFF641C0AF020FDA042EEDC70BD0000C5
:108D60008434002088310020FFFF0000F8B5184946
:108D70000878002804D0022805D00320C043F8BD9D
:108D80000120C043F8BD0025124F2E4654206843F1
:108D9000C419206800280AD0207A012801D00228AE
:108DA00005D12672206813210088FEF74FFA20684B
:108DB000008800F00FF96D1CE8D0FEF74BFA04486C
:108DC000067004481C3803F0D7F90020F8BD0000F5
:108DD0004804002084340020034800218185016B71
:108DE00081622830704700008434002070B5FEF79F
:108DF000EDFA002803D000240C4D0D4E10E00520A4
:108E0000C04370BDE420A96A60430818818BB14259
:108E100005D02021095C022901D000F00BF8641C68
:108E20000AF0BAFCA042EDDC002070BD88310020C1
:108E3000FFFF000010B5044601212030017003F04F
:108E4000F0F960620548E421806A201AF7F71AFFFA
:108E500003498861034803F0F1F910BD883100200F
:108E6000480400206834002000212022115441626F
:108E700070470000F1B51A4E3078002804D0012860
:108E800005D00320C043F8BD0120C043F8BD002534
:108E90002F4654201349684344182068002814D0F2
:108EA000217A032911D10099002904D000881321C7
:108EB000FEF7CCF905E0B168002901D0FFF76CFDA1
:108EC000277220680088FFF757FE6D1CE1D0FFF77E
:108ED00049FE044837701C3803F04EF90020F8BDF5
:108EE0004804002084340020F3B500208DB00E46E5
:108EF00007460B9054203946414322480C1822481B
:108F0000806D019003A8009002902068002833D063
:108F1000207A022805D01D4A96421CD001280DD087
:108F20002AE0002505E060686900415AB14223D07B
:108F30006D1C07F0CBFCA842F5DC0CE0002505E039
:108F400060686900415AB14205D06D1C07F0BEFC53
:108F5000A842F5DC10E00121684605F09CF90D9867
:108F600082880168684605F022F96A460021206877
:108F700000F00EF801200B907F1CBBD00B980FB0B7
:108F8000F0BD000084340020CC610100FFFF000030
:108F900070B515460C46064601F0EAFA00280BD0DB
:108FA000007A03280BD00020032C0AD0002188422D
:108FB00009D00020C04370BD0420C04370BD012013
:108FC000F2E70121F3E72A462146304607F018FB75
:108FD00070BD000010B50249F8F724FD002010BD57
:108FE000CC33002010B5002808D02021054800F01F
:108FF0000BF8044908462030F7F7E7FD0148203018
:1090000010BD0000DC330020F8B50E46050004D08A
:10901000002E02D00024B7080FE00520C043F8BDA1
:109020000BF074F80146A000401901700A0A427062
:10903000090C8170090AC170641CA742F0D8B007FE
:1090400009D00BF063F80090B207A000920F40190E
:109050006946F7F761FE0020F8BD0000034840684C
:10906000002801D04079704702207047600200203C
:1090700001490120087070476002002002484068E2
:10908000002800D0807970476002002010B50021D0
:109090001E48FDF783F9002836D01C480024083804
:1090A000046044608460743003F066F8FDF764FD8A
:1090B00000F036F800F0A2FB15480068002802D046
:1090C0000120FEF7C7FA13480068002802D01248B2
:1090D000FDF7E6FFFFF74AFEFDF73EFE0E210F48C3
:1090E000FDF75CF9002801D0FFF792FB07487830C4
:1090F000046144618461C46100F063F8FDF70EFA15
:10910000FDF7A2FEFFF704FD10BD000010310020A6
:109110002C04002010040020FFFF00001832002063
:1091200070B50024074D06E0A968A0014018012190
:1091300008F074FB641C07F0E7FFA042F4DCFDF7C5
:109140002FFE70BDEC0200207FB505460020009088
:109150000190029003900C462846F7F703FE024662
:10916000234629466846FCF78EFFC0B204B070BDA6
:1091700070B51D460E46032A18D1A888012815D9B6
:10918000184605F063F8040010D0A888A0420DD35B
:10919000284605F05BF8641EAC8029280DD02A28EB
:1091A00005D02B2802D12846FDF71AFA70BD0022FF
:1091B00031462846FFF756F870BD2846FFF79EFB5C
:1091C00070BD10B5FCF78FFE10BD00001CB5054941
:1091D000486889680191009003496846FCF77CFE65
:1091E00000201CBD605501007191000008B500927F
:1091F0000A4602A32021FEF7F3F808BD7072736BD4
:10920000000000000149088070470000EC020020C7
:1092100010B50549054802F0B9FF09F05DFD0448A5
:1092200009F0F2FC10BD0000E92F0100D831002048
:10923000C002002001B5FFF725FA69460248FEF793
:109240002DFB002008BD0000DDDF000038B504461E
:1092500041886A46012003F0A1F801229203002808
:1092600001D0018810E00098002813D00188012364
:109270001B03194301806388090B1B0509031B0DA0
:10928000194301235B03194391430180072007F031
:109290006DFF38BD204609F01DFE38BD10B50C200D
:1092A00007F064FF10BD10B50B2007F05FFF10BD85
:1092B00010B50446092007F059FF002C02D10A20FE
:1092C00007F054FF10BD10B50F2007F04FFF10BD81
:1092D00010B5C18801221143C1800D2007F046FF5F
:1092E00010BD10B5C18804221143C1800D2007F0C4
:1092F0003DFF10BD10B5C18802221143C1800D2071
:1093000007F034FF10BD10B5082007F02FFF10BD87
:1093100038B504460088694605F08CFE002802D066
:109320000021817004E00098002805D02188018088
:109330000E2007F01BFF38BD204609F031FE38BD76
:1093400010B50121C170062007F010FF10BD00000C
:1093500010B509F013FA002808D009F00FFA0146F9
:1093600004484068F7F778FC002902D10A2007F08A
:10937000FDFE10BD0831002038B50446818B6A46D9
:10938000002003F00BF801229203002801D001888D
:1093900010E00098002813D0018801231B03194313
:1093A0000180A38B090B1B0509031B0D1943012326
:1093B0005B03994391430180072007F0D7FE38BD36
:1093C000204609F0B3FD38BDF8B505461A480F46EA
:1093D0004068002809D0018EAA8B914205D102F085
:1093E00093F8002F01D0FFF75EFF0024134E0BE02F
:1093F0002820716A604308180188AA8B914202D123
:109400003946FCF7C3FE641CFCF79AF9A042EFDC76
:109410000B480068002802D0A88BFDF741FE002F02
:1094200002D02846FDF7C1FCE4212846F7F78FFC5F
:109430000020C043A883F8BD6002002088310020CE
:1094400010040020FFB581B01E460025164F25E010
:10945000E420B96A68430C18A18B144881421CD0DF
:10946000009601A90EC920463030FCF7D6F9002835
:1094700001D000210CE0E07F00280ED0009601A969
:109480000EC920468930FCF7C8F9002805D0012113
:109490000A980170204605B0F0BD6D1C0AF07CF9F9
:1094A000A842D5DC0020F6E788310020FFFF00004D
:1094B00070B506460D480E4D864201D1A86A70BDB2
:1094C00000240DE02146E4225143A86A1C31405A91
:1094D000B04204D1E421A86A4C43001970BD641C59
:1094E0000AF05AF9A042EDDC002070BDFFFF000039
:1094F0008831002070B500240E4D08E048206968CE
:10950000604340180C49283002F040FE641C0AF009
:10951000C5FFA042F2DC002407E0A968A0014018C2
:109520000649243002F032FE641C07F0EDFDA04233
:10953000F3DC70BDEC020020191701009516010044
:10954000F0B50546002089B0C0430690079000267C
:1095500068460674067353480C46006800280BD012
:1095600020686189808BFDF7F3FD217DC0014906EC
:10957000490E0143217503E0207D4006400E207511
:109580000921284604F029FE47480068002812D027
:10959000FEF76CF800280ED0207D8006800F0AD1DF
:1095A000FEF700F9002802D0207D400703D40520F3
:1095B000C04309B0F0BD284604F00BFE694688821E
:1095C000A888C88228680078C0090DD0207D41068F
:1095D00001D4C009EDD003A8009006AB04AA21462F
:1095E000284607F081F923E00120087306A80090BF
:1095F000A8880027FF4300281BD00021204602F046
:1096000019FC002815D1284604F020FE0146207DD3
:10961000020705D52A462046009B00F0D3FD07E04F
:10962000420601D4C00925D02A46204607F0AEFEE6
:1096300007461D48006800280AD0FEF717F80028E2
:1096400006D0FEF7AFF8002802D02046FEF790F8CB
:109650006946898AA868401869462860C88AA8802F
:1096600010480068002819D0207DC00916D0002FAE
:1096700002D013E03746DCE706990798C943C04398
:1096800001436846007B0BD006AB694661C12146A9
:10969000064C6846027C24680020A047384688E7CC
:1096A0000023F2E7100400202C04002018040020FE
:1096B000FFB5044688880025ED4387B00E46002894
:1096C0000CD0FF218131884203D91420C0430BB054
:1096D000F0BD304604F0F1FD042801D22846F6E73B
:1096E0000AF0D6FFB188001D884204D2606880224B
:1096F000417A1143417205A80090606806AB8288E8
:1097000041882068FCF778FD0028E0D1E07A6946BE
:10971000097D8007800F89000843E0726068407A05
:10972000C00904D0304604F0C8FD082803D2E07A0E
:10973000FD21084002E0E07A02210843E0726068FF
:1097400001218088C9030122411A9203914203D268
:10975000FDF738FF054600E0002502211A48FCF716
:109760004AFE01461848278908380268511A42689B
:109770006068838804910197009502930392408862
:109780001249884202D0491E884201D1012100E0DD
:109790000021E07A33468007C20F0698FCF7ACFC44
:1097A000002894D16068099A407AC109002000908D
:1097B00000290A9B3146204602D008F0DFFD86E7EB
:1097C00008F03EFF83E7000010310020FEFF00009C
:1097D00070B50024084D09E04820696860434018CE
:1097E000807E002801D0012070BD641C0AF056FE66
:1097F000A042F1DC002070BDEC02002070B5002416
:10980000064D06E0482069686043401808F0DCF81F
:10981000641C0AF043FEA042F4DC70BDEC020020A0
:1098200030B589B00C46054669460CA0FFF78CFCA4
:10983000002811D104AB102229466846FCF723FC0E
:10984000002809D16846C08B012140BA8004800CF1
:10985000C90340182080002009B030BD76746164CF
:1098600000000000FFB583B0154668460C9AC28020
:1098700000201E460F460346009012241B21039829
:10988000F8F7AAF9029000281BD06846C288314632
:109890000298F7F741FA39460398F8F700F9C0073C
:1098A00008D068468580002201A90398F8F75EF980
:1098B000040003D01B2101A8F8F7D4F9204607B013
:1098C000F0BD0620C043FAE710B502210248FCF7BC
:1098D00089FDC0B210BD00001832002010B564210F
:1098E000014802F067FC10BD7033002010B5CA7843
:1098F00050070AD4084692061430002A01DA496853
:1099000001E07D21C90002F055FC10BD10B5D078F2
:10991000F7210840D0701446800606D4606B0028FA
:1099200003D004F0FCFC0020606310BDF0B51546C8
:109930000A461E461D4903468DB04869029007A895
:1099400001901C31039083C9139C059104900697E4
:109950006846038282821649284600F00DFA0028E4
:109960001ED1294601A8FDF7F8FF314601A8129A39
:1099700002F0F0FC002C04D01022214601A804F0D3
:1099800016FC002000900B480023406801AA0068E4
:1099900004A9FEF713F9040004D000F001FA2046F0
:1099A0000DB0F0BD00F014FAFAE700004C570100CA
:1099B000038000005802002010B501790023DB432A
:1099C00000290ED1826A002A0BD007494A6099000B
:1099D0001060818110460549103002F0D7FB00204D
:1099E00010BD184610BD000058020020313801009B
:1099F00010B5044619491AA0FAF7BAFD1BA0FAF7E8
:109A0000B7FD1BA0FAF7B4FD05F0FEFA00280ED052
:109A10002178FF2916D0C1680A6821469047154869
:109A20007D22D200012100780AF0E4FB10BD0B4931
:109A30000BA0FAF79DFD10A0FAF79AFD0CA0FAF71B
:109A400097FD10BD054906A0FAF792FD11A06168C7
:109A5000FAF78EFD06A0FAF78BFDE0E70753010049
:109A60004150505F4442472025733E2000000000D3
:109A70000A00000000000020556E61626C652066DF
:109A8000696E6420556E626C6F636B6564204E6F07
:109A9000646500004F70636F646520307825303452
:109AA000782C2074696D656F7574000070B5084D71
:109AB00004466A68002A0AD090686060217000F04D
:109AC0006FF968684168002901D02046884770BD59
:109AD0005802002070B5084D04466A68002A0AD072
:109AE00090682060217100F067F9686801690029B9
:109AF00001D02046884770BD24040020F8B51E46DA
:109B000017460D46FDF704F800280ED0094C002D2D
:109B10000ED00723621C3146384603F063F9002853
:109B200002D1012020700020F8BD0720C043F8BDFD
:109B30000020F7E7B802002070B505460179846A75
:109B40000020C043002931D1002C2FD06179022997
:109B50002CD8E179012929D8A17A7F2926D840007B
:109B6000134EA88131780220002900D1607111497B
:109B70000968002900D160720F490968002900D1E5
:109B8000207220460D490C3002F000FB0020C0433B
:109B900020860021A1632560E163746002F012FD5C
:109BA00018214143B068F7F7D2F8002070BD0000DB
:109BB000600200201004002054040020ADB6000014
:109BC00070B5016880880D18281F09F06EFE0446E4
:109BD0002846083809F069FE44400C4800218A00F4
:109BE0008258A24201D1012070BD491C0829F6DB30
:109BF000074A91688B00C450491CC817400F401891
:109C0000C008C000081A9060002070BDB831002064
:109C10008802002000B587B0034605A219216846D6
:109C20000AF062F8684608F0F1FD07B000BD0000D8
:109C300062742F6D6573682F4170704B65792F25A5
:109C400078000000F8B50E460546FCF761FF314C80
:109C50000746002D11D1207BC1060ED580060CD4FD
:109C6000E079032809D202F003FF207BFB210840A2
:109C7000F107490F08432073F8BDFFF751FA20465A
:109C80001430009002F078FA2248A1885C30806A93
:109C9000808B00F0C9FD207B00258006002801DABA
:109CA000258201E0A08820821B484168002904D059
:109CB000207BC00601D502208847A580207BF721A4
:109CC0000840C0B2FB21E5710840A5716573C0B2C0
:109CD000CF21E570084025646564C0B201210843C6
:109CE000A5642073F88D000701D5FDF7F7FA094840
:109CF000001F002E02D000210171F8BD0321017167
:109D000002F040FF7D21C9004143009802F052FA61
:109D1000F8BD00002C3100202C04002000B587B0D5
:109D2000034605A21921684609F0DEFF684608F0DF
:109D30006DFD07B000BD000062742F6D6573682F64
:109D40004E65744B65792F257800000000B585B00D
:109D5000034605A21421684609F0C6FF684608F0CC
:109D600055FD05B000BD000062742F6D6573682F4E
:109D70004E6F64652F257800084A5268002A05D086
:109D8000D368002B05D00320C04370470020C04398
:109D90007047D1609060002070470000580200209A
:109DA00010B5044800214068C1608160103002F0A5
:109DB000E3F910BD5802002010B5044800214068A6
:109DC000C1608160143002F0D7F910BD2404002076
:109DD00010B5034801684068103002F0EBF910BD7F
:109DE0005802002001B50E210C48FCF7FBFA0028B0
:109DF00013D004210948FCF7B7FA002804D1012246
:109E000069460220FBF786FE05488068426B002AFF
:109E100003D0684601780120904708BD1832002021
:109E2000D802002070B50546806800280ED0416930
:109E300000290BD08088002808D02846FDF7B6FD01
:109E4000010003D0A868183002F0B4F90748006890
:109E500000280AD0002460004019408A002801D060
:109E6000FDF70CFC641C062CF5D370BD2C040020FF
:109E7000F8B50C46064604F020FA217962794900CB
:109E800092008918091D884202D21120C043F8BDF2
:109E90006188304604F07EF92179304604F092F969
:109EA0006179304604F08EF9002508E02C20A16885
:109EB000684308180188304604F06CF96D1C20795D
:109EC000A842F3DC00250CE02C20E16868430F1861
:109ED0007988304604F05EF93988304604F05AF942
:109EE0006D1C6079A842EFDC0020F8BD00B5084980
:109EF00085B049681046C968022906D1029004F06D
:109F0000A5F901466846FFF7D1FD05B000BD000088
:109F10005802002070B506460024FCF76FFF054686
:109F200020480078002800D001241F48006800283D
:109F300001D0022004431D480068002801D00420FD
:109F400004431B480068002801D0082004432988E6
:109F5000304604F01FF96988304604F01BF9A988DF
:109F6000304604F017F907F053F80146304604F084
:109F700011F92146304604F00DF900240BE0E868A1
:109F800021014118002C0BD000223046FFF770FF52
:109F9000002804D1641CA868A042F0D8002070BD3D
:109FA0000122F2E760020020540400201004002087
:109FB0002C04002070B51C4D0246002912D0012946
:109FC0000FD100F0E7FA04000BD06868002805D034
:109FD0004268002A02D00021204690476068401E57
:109FE000606070BD104900200831C3005B185B68D9
:109FF000002B11D0401CF8D0002000280FD0028088
:10A000004168491C416069680029EAD00A68002A51
:10A01000E7D00021904770BDC0004018EDE7104622
:10A02000F7F788FC70BD00002403002030B5002342
:10A03000084D0CE0CC5C4440200124092C5D6040BC
:10A04000C0B204010009285C4440E0B25B1C9342AA
:10A05000F0D330BD2C5E0100F8B51F46069E089D6A
:10A06000079B0446002901D0022000E00120207057
:10A07000D0071843611C09F035FC611D384609F012
:10A080002DFCE11D304609F029FC21460931284606
:10A0900009F028FCF8BD0000F8B5002016460C4673
:10A0A000034600901F2217491748FBF75BFF051E68
:10A0B00027D0207AC007010E28460C30074604F04E
:10A0C00081F8E079C10904D04106490E3846803153
:10A0D00002E04106490E384604F074F80322211DBF
:10A0E000384604F064F82188384604F039F861886D
:10A0F000384604F035F8B2883846316804F057F82D
:10A100002846F8BD19A700003C340020FFB581B0F7
:10A110001E46154613490B9F0C9C0198FDF71DFC2C
:10A120003946019804F04EF83146019804F032F8AF
:10A130000A99019804F02EF8002D09D00421019805
:10A1400003F0FDFF04222146F6F7E6FD05B0F0BD61
:10A150000221019803F0F3FF2178017061784170CA
:10A16000F4E700003E80000010B5002303704C7837
:10A1700044708C788470CC78C4700C7904714C79FC
:10A18000447189798171C3710146037209311046A6
:10A1900009F0A8FB10BD10B5032303700023437022
:10A1A0008C788470CC78C4700C7904714C794471CB
:10A1B00089798171C371014603720931104609F032
:10A1C00091FB10BDFFB581B004466846017A154683
:10A1D0004E06760E07D00A2E09D0207D400627D4E1
:10A1E000002005B0F0BD20460AF052F8F9E7A88833
:10A1F000032802D20020C043F3E71A496089098886
:10A200000027884212D1104604F020F84606760E48
:10A21000284603F0EAFF0346607B61894006400E52
:10A22000301A401CC2B22089FDF726F83846D8E71C
:10A230000D4F3868002803D0FDF718FA002808D021
:10A240000A480368002B09D02A4621463046984721
:10A25000C7E72A46214630463B68F8E70720C04357
:10A26000BFE70000EC0200201C04002034040020A2
:10A2700030B505460D4887B0006E029004A80C4624
:10A28000019003900A4901A8FDF767FBFCF712FE55
:10A29000014601A803F096FF00200346009001AAA2
:10A2A00021462846FDF78AFC07B030BD345901002D
:10A2B0000E80000030B50446154887B0C06E02908D
:10A2C00004A801900390A06A0D4600280BD01168E5
:10A2D00009787F2919D8012917D0827A8A4202D0B9
:10A2E0008172FEF7DBFF0B4901A8FDF736FBFCF797
:10A2F000E1FD014601A803F065FF00200346009040
:10A3000001AA29462046FDF759FC07B030BD0000E0
:10A31000345901000E80000070B506461448E4B0C0
:10A32000C068029004A8019003900D46104603F007
:10A330008DFF040000D0002468464089002814D016
:10A34000022101A8FDF709FB214601A803F03AFF0D
:10A3500001A8FFF7DFFD002807DB0020034600907F
:10A3600001AA29463046FDF729FC64B070BD000003
:10A370003459010002484068002800D10148704764
:10A380004802002008060400014880687047000069
:10A390004802002010B50C4602F06CF9002804D0E9
:10A3A00040882146F7F782FD10BD122010BD000045
:10A3B00010B500F037F9002806D084680348012161
:10A3C000007809F0EDFC201A10BD0000F802002012
:10A3D0003EB5044649061546490E104603F054FFA3
:10A3E000FEF7F4FA6946088020884880C879802101
:10A3F0000843C009C0016946C871032101A8F6F7E6
:10A40000A6FC02210648FBF7FFFF05492A4608394A
:10A410000968081A029069462046FFF73DFE3EBDD6
:10A420001031002038B50D0080881C46049943BACD
:10A43000009201D003A200E007A2204609F054FCDC
:10A4400038BD000062742F6D6573682F566E642FDF
:10A4500025782F257300000062742F6D6573682FB7
:10A460005369672F25782F2573000000F0B5054646
:10A47000144887B08069019004A8009002900E46AD
:10A48000E889FFF715F807460121684603F003FF46
:10A490000621684603F053FE04463846FDF782FD68
:10A4A000207009480422006803A900BA0390601CC8
:10A4B000F6F732FC66716A4602212846FFF788FFEC
:10A4C00007B0F0BDDC6001000831002010B5044683
:10A4D000383003F011FF206C401C206410BD10B513
:10A4E0000446FFF7C3FF010002D02046FFF7EEFF4E
:10A4F00010BD10B5F7F718F9002801D00D20C043A2
:10A5000010BD70B50E00054617D0002405E0686840
:10A510006100405AB04210D0641C06F0D7F9A04246
:10A52000F5DC002405E068686100405A002805D089
:10A53000641C06F0CBF9A042F5DC70BD68686100D0
:10A54000465270BD70B50D0006460AD000240AE0E0
:10A5500070686100405AA84204D10020716862000E
:10A56000885270BD641C06F0B1F9A042F0DC70BDE9
:10A57000074A002154234B43D358834203D154202C
:10A58000414388187047491CF4D0002070470000F0
:10A5900084340020064A0021CB00D35A834202D1E2
:10A5A000C80080187047491CF6D000207047000092
:10A5B0002C030020FFB581B0164600240A9F0B9D96
:10A5C00029E02C20019960434018032189033F2290
:10A5D000711A12022860914206D90121C903012291
:10A5E000711A9203914204D23146FDF72DF90028E9
:10A5F0000FD02868049903F081FC002809D028684E
:10A60000006A03E00168B9420AD00C308168002971
:10A61000F8D1641CE4B202988442D2D300202860AE
:10A6200005B0F0BD02490868884200D1002070479B
:10A63000FC02002010B50A48044609F098F90028E9
:10A640000CD121680A6822606068884200D162608B
:10A650001839C889FBF7FCFF03F061FE10BD00004C
:10A66000DC30002030B483680C46002B03D0204639
:10A6700030BC11461847122030BCC0437047F0B4BC
:10A68000046815460E46002C05D029463046A446DF
:10A69000F0BC1A466047F0BC1220C0437047F0B4CB
:10A6A000446815460E46002C05D029463046A4467F
:10A6B000F0BC1A466047F0BC1220C043704700202F
:10A6C0007047C268002A01D0084610471220C043D4
:10A6D000704700000249CA7A082AFCD00872704705
:10A6E00000340040F8B500240A4D2646BF27A000DC
:10A6F0004119FF310131C86C002809D0CE6481694D
:10A700000A7A3A400A7203F00AFE641C032CEED364
:10A71000F8BD000018320020034900220969D24325
:10A7200040000A524018704710040020F8B5044653
:10A730001D484268002A05D0E078800602D52088AE
:10A74000022190472046143001F016FD2188E0894F
:10A7500000F06AF8606B0027002802D003F0DFFDEC
:10A7600067632046383006F03BF8002508E00C20EF
:10A77000216B68430E18304606F032F837726D1CB4
:10A7800000F04CFAA842F2DCE078C721084040080B
:10A790004000FB2108402764E07000F045FA4100CA
:10A7A0002069F6F7D4FAF8BD1004002010B50C4665
:10A7B0000846403461897D22D20051434C3001F07B
:10A7C000F9FC60894000608110BD000010B50C4AA2
:10A7D000D3795B1C011E0B48D37108D00321017192
:10A7E000107B4007C10F0020FFF72CFA10BD01219C
:10A7F000017110460449143001F0DCFC10BD00006A
:10A800002C310020283100204C04000010B500211C
:10A81000C9430180002141808180C18042210830EC
:10A82000F6F795FA10BD0000F8B50D46064600246F
:10A830000B4F0EE04A20F968604340184188A94256
:10A8400006D10188B14203D1FFF7E0FF0020F8BD37
:10A85000641C00F0D7F9A042ECDC0720C043F8BD2F
:10A8600088020020FFB581B01F460E460546002431
:10A870002DE01A494A20C968604340180188AA8B14
:10A88000914223D1002E02D04188B1421ED10399BA
:10A89000002906D0A97F4A01891809180A7A039964
:10A8A0000A70002F05D0A97F4A01891809180931BB
:10A8B00039600A99002906D0A97F4A018918081829
:10A8C0000A9919300860002005B0F0BD641C00F042
:10A8D00099F9A042CDDC0720C043F5E788020020AB
:10A8E00070B5054600240C4E10E04A20F168604324
:10A8F00040184188002908D00188A94205D10146A5
:10A90000212229310830F6F707FA641C00F07AF9A1
:10A91000A042EADC70BD000088020020F7B50446C2
:10A920001B486688006886B0002808D01948008D4A
:10A93000864204D1FEF74AF80646658802E0FEF733
:10A9400045F8054601206946087202AF30460931D4
:10A9500008F0C0FFF91C284608F0BCFFA088791D4C
:10A9600008F0B8FFE088F91D08F0B4FF0798092245
:10A97000410140180319194618461931093001914F
:10A98000009002A908330898FCF740FD09B0F0BD1B
:10A990002C04002008310020F8B5002407460546A5
:10A9A0000D4E893711E04A20F16860434018418814
:10A9B000002909D00188AA8B914205D13A4601218C
:10A9C000FFF7ACFF002805D1641C00F01BF9A04282
:10A9D000E9DC0020F8BD000088020020FFB583B04C
:10A9E0001E460F46002539E023494A20C9686843BE
:10A9F000441803982188808B81422ED13878217A9F
:10AA00004006400E88420ED105990C9800912246CE
:10AA1000029021463B46193201960931039803F012
:10AA2000A5FC002820D00398C07F002815D03878D6
:10AA300041062920005D490E81420ED105990C98EE
:10AA400000912246029021463B463A3201962A3135
:10AA5000039803F08BFC002808D06D1C00F0D2F89E
:10AA6000A842C1DC0720C04307B0F0BD307D022101
:10AA7000084330750020F7E78802002010B507F082
:10AA8000CBF910BD70B50546C078164680061BD5BB
:10AA9000E889884218D1002E08D00120C0038642E0
:10AAA00004D21146284601F0B8F970BD002407E031
:10AAB00028696100405AB04201D1012070BD641C78
:10AAC00000F0B2F8A042F3DC002070BDFFB581B009
:10AAD0001746002500F09CF80499884221D30024F1
:10AAE00012E00198016B0C2060430E18002F08D073
:10AAF00038880299C204D20C304601F0D9F90028F6
:10AB00000CD1307A641C451900F088F8A042E8DCCA
:10AB100000F07EF8411B0498814202D9012005B063
:10AB2000F0BD0020FBE7000010B5074A002909D15D
:10AB3000508210466421143001F03CFB024904208D
:10AB4000091F087110BD00002C31002010B504460B
:10AB5000C078012807D1207B0421C841490740184B
:10AB60001C21C84120732046143001F005FBFEF77C
:10AB700028FB0349062008710020E071E07010BD39
:10AB80002831002070B50546846A10680E460278A8
:10AB9000002A01D0012A1AD1002C14D0607A9042E8
:10ABA00011D00B480068002808D06272FEF776FBCF
:10ABB000607A002802D10748FCF772FAE08D40075E
:10ABC00001D5FCF78BFB3146284607F025F970BD0F
:10ABD00010040020FFFF000000B50849084B496839
:10ABE00085B0C9681046994205D103F02FFB014694
:10ABF0006846FEF75BFF05B000BD0000580200206C
:10AC00001180000001480068807E704748020020E3
:10AC100001480068C07E7047480200200148006873
:10AC2000007E70474802002001480068407E70475F
:10AC30004802002001480069704700003C360020AF
:10AC400001484069006870473C36002010B5064A4C
:10AC500050690168491C0160D078FF2803D00121A8
:10AC6000890309F079FA10BD3C36002070B50C005C
:10AC7000054612D0A078052806D10620FAF7F4FA86
:10AC800060890021FFF796F9A078062805D1FAF728
:10AC9000EBFAA0880121FFF78DF9FAF7E1FA0574C4
:10ACA000FAF7DEFA0021143001F084FA70BD0000DA
:10ACB000074A002106234B43D35A834203D106207F
:10ACC000414388187047491C0329F3DB0020704773
:10ACD000A836002001460648406906E0826852898D
:10ACE0008A4201D1001D704700680028F6D17047E4
:10ACF0000C05002000B50F292ED00BDC0B00F9F756
:10AD00005FFC0F23232323232B252B232B232B23F0
:10AD10002B272300182917D008DC10390B00F9F76E
:10AD20004FFC08131B1B1313131919131E290BD0E7
:10AD300006DC192908D01B290ED01D2904D10BE0EF
:10AD4000522909D0D22907D0002000BDC06800BD1B
:10AD5000006800BD806800BD406800BD10B50C46AD
:10AD6000FFF7A6FF00280DD0002C00D020608078CF
:10AD7000FE2803D0FF2803D0162010BD172010BDD9
:10AD8000002010BD022010BD00229300CB5A834248
:10AD900002D1900040187047521C032AF5DB0020B6
:10ADA00070470000FEB54C68089D6678277834022D
:10ADB0000E783C43022E02D1054EB44201D0012050
:10ADC000FEBD022400950194F6F744FEFEBD00008E
:10ADD0000229000010B507F041F810BD70B5054616
:10ADE000846A10680E460378002B01D0012B1AD11B
:10ADF0000D480068002812D0FCF71EFA02280ED079
:10AE0000002C0CD01068217A0078814207D0207283
:10AE1000FEF744FAE08D800701D5FCF75FFA314672
:10AE2000284607F01BF870BD5404002000B50849FF
:10AE3000084B496885B0C9681046994205D103F0AE
:10AE400005FA01466846FEF731FE05B000BD000078
:10AE5000580200201480000010B52449C96C002954
:10AE60001BD0017921484030007A814215D104215C
:10AE70001F48FBF7B7FA002801D104F06BFF0E2141
:10AE80001B48FBF7AFFA002808D00A211848FBF747
:10AE90005AFA002802D007F0A7F910BD0B21144878
:10AEA000FBF751FA0028F8D00C211148FBF708FAFB
:10AEB0000E210F48FBF796FA002807D00D210C4809
:10AEC000FBF741FA002801D006F00CFF0E210848DC
:10AED000FBF788FA0028E0D107210548FBF733FA91
:10AEE0000028DAD007F000F810BD00001833002069
:10AEF00018320020F8B5144D06462878B0421ED00E
:10AF0000FAF78CF804001AD02878FF2818D000250A
:10AF10000E48C16A20460C30074603F02FF931462F
:10AF2000384603F04FF90121384603F04BF900226F
:10AF300029462046FBF742F8204603F0F0F9F8BD19
:10AF40002E70034DE4E70000D802002018330020E3
:10AF50004C5E0100F8B50F46234C4179627C0079C4
:10AF60008D08824202D1FFF7C5FFF8BD1E4E217C3D
:10AF7000203E88420AD0521C904207D12074B06B08
:10AF800003F08DF9FF20A074E07401E08842ECD159
:10AF9000E07CA8420BD3A8420DD1B16B17220979EE
:10AFA0005043081AC01CB988C0B2814203D00220A5
:10AFB00005F0C8FAF8BD0120A17CA840014200902C
:10AFC000F8D0B06B17214D430068ED1E4019BA88C8
:10AFD0003968F5F7A1FEA07C00998843A074E9D1F7
:10AFE00005F0D6F8F8BD00003833002070B50446EF
:10AFF00040790D4682080CD0012A15D0022A07D1CB
:10B0000002211C48FBF7EEF9002801D005F0FAFEFA
:10B0100070BD0E211748FBF7E5F90028F8D1294645
:10B02000204601F09FFB70BD0E211248FBF7DAF9B4
:10B030000028F8D0A8880028F5D10E210D48FBF78C
:10B04000D1F90028EFD003210A48FBF78DF9002839
:10B05000E9D104210748FBF71FF904F07BFE0648FD
:10B060008068016B002901D00120884705F06AF84B
:10B0700070BD000018320020D8020020F3B5284C23
:10B080000646617C0079FF2581B0814202D1FFF73D
:10B0900031FFFEBD029803F0A8F8214F203FB96BA5
:10B0A000888030792074029803F0D0F82075B96B4D
:10B0B0008888002815D0C988884212D871798A08F2
:10B0C00001D014280DD98808E074A07CC1070CD0E9
:10B0D000C043C0B200F0AEF8401EC5B2E07CA8424A
:10B0E00003D2022005F02EFAFEBDA07C002800D07D
:10B0F0000546707981080120491C8840401E28407F
:10B10000A074029882880168B86B0068F5F704FEA5
:10B11000A07C40084000A074E6D105F039F8FEBDDF
:10B1200038330020F7B50F4604465321102008F0AD
:10B1300069FE06465321102008F064FE0546002EE5
:10B1400034D0002D2DD01022002108F037FF3246D8
:10B1500029462046F6F790FF040023D130780006F8
:10B1600009D52946304601F033FA3A4613492846B4
:10B1700009F09EFF03E03946304601F029FA38789D
:10B18000000609D52946384601F022FA0B4928461F
:10B19000029A09F08DFF05E03846029901F018FA8D
:10B1A00000E01324304608F083FE00E01324002D55
:10B1B00002D0284608F07CFE2046FEBD7B620100DE
:10B1C00008464A1E1178491C117070470148806872
:10B1D0007047000060020020002101231A468A40C7
:10B1E000024202D0491CC8B27047491CC9B220298A
:10B1F000F4D300207047F8B5054688881446042823
:10B200000F46084608D203F00CF8014600202070D3
:10B210002846FCF705FBF8BD03F003F80646384660
:10B2200002F0FFFF02460120207031462846FCF75D
:10B230001AFBF8BD10B5034620200124411E22460A
:10B240008A401A4202D10806000EF7D110BD000054
:10B2500070B5044600680D460178144A880906D086
:10B26000012804D0022808D003281DD10CE07F2932
:10B270001AD0204602F0EAFF13E0A088022813D378
:10B28000204602F0B2FF0CE0A08803280CD3204631
:10B2900002F0DCFF00042860204602F0C2FF2968AB
:10B2A00008432860002070BD104670BDFFFFFFFFFF
:10B2B00010B50A460B780F32DB0900D087230F3018
:10B2C000147864005C400470401E8A4203D01378F6
:10B2D000DB09521EF4E710BD70B516480021C160AD
:10B2E0000161144C0120207505F000FE607505F029
:10B2F000F7FD114D686005F0F3FDA860686800284F
:10B3000002D10E486860A86005F0F0FD064605F021
:10B31000F5FD864202D12520687004E005F0E6FDC7
:10B32000687005F0E3FD60750548F8F771FF20725D
:10B3300070BD0000D03000206C020020D6BE898E87
:10B34000990F010010B50B46012806D0032813D031
:10B35000112801D109F094F810BD03F02DFB05F080
:10B36000C5FD084C617D884201D1FFF763F90120DA
:10B37000207509F03BF810BD1146184600F066F83C
:10B3800010BD0000D030002010B50D4C20780028F2
:10B3900013D000202070207A012108F0EFFC207AE1
:10B3A000042108F061FF207A042108F0E7FC207AEC
:10B3B000102108F0D1FE002010BD0120C04310BDB7
:10B3C000D030002010B5094C2078002802D0012090
:10B3D000C04310BD01202070207A102108F0CEFC5F
:10B3E000207A012108F0B8FE002010BDD0300020E6
:10B3F0000149486070470000D030002070B5044615
:10B400001838C089FBF724F90F4DE96805E0A1421F
:10B4100002D10120C04370BD09680029F7D102F0B4
:10B420008AFE09490020206008690C31002807D0F5
:10B4300004604C60287A022108F08EFE002070BD66
:10B440004C600C60F6E70000D0300020F0B51B4DDA
:10B450000C46297D85B0042927D101212975297839
:10B46000002929D0012823D0022821D0607806287D
:10B470001ED9801FC6B2002703A8E7570622A11CC9
:10B480000130F5F749FC0021684601730834029445
:10B49000C68002980090684686806C68002C07D0B1
:10B4A00003460322394603A8A0472878002803D082
:10B4B00000F006F80420287505B0F0BDD03000205B
:10B4C00010B5F8F717FB07480749407D4870084654
:10B4D000F7F710FF0023FF2219461846F8F72AFA5B
:10B4E00010BD0000D03000206C02002010B50028F4
:10B4F00003D00449884201D1FF2010BDFFF79AFE16
:10B5000010BD0000FFFF000010B5002202850146BB
:10B51000428520314A730A730C3000F02DFE10BDB5
:10B52000FFB50546294889B0806E029004A80190B5
:10B5300003901E461746062101A8AC6AFCF70DFAD7
:10B54000394601A802F03EFE002E08D0092101A8CC
:10B5500002F0F5FD09223146F5F7DEFB2BE0218DE7
:10B5600001A802F017FE608D002806D0012806D041
:10B570001749884205D1FF2108E0002106E001219A
:10B5800004E0401EFFF756FE401CC1B201A802F0C5
:10B5900019FE26462036317B01A802F013FE717B8E
:10B5A00001A802F00FFEE18D01A802F0F3FD218E4B
:10B5B00001A802F0EFFD00200090034601AA2846F2
:10B5C0000A99FCF7FBFA0DB0F0BD0000345A0100F7
:10B5D000FFFF0000FEB51E4617460D46FBF744FE72
:10B5E000040022D028460025002821D008236A46DE
:10B5F0003146384601F0F6FB002818D16946088824
:10B60000A08320468978203001706946C97841704E
:10B61000694688886084C8880005000DA084C888B1
:10B62000C0040DD5681EE0830BE00720C043FEBDBB
:10B63000A5832046E583203045700570658400E0D1
:10B64000E5830020FEBD000030B5174885B0406896
:10B650001446C068062825D1104602F0F7FD0546BD
:10B66000204602F0DEFD69460881204602F0EEFD2C
:10B6700069468872204602F0E9FD6946C872204694
:10B6800002F0E4FD69460873204602F0DFFD6946DA
:10B69000C881204602F0DAFD6946088229466846DC
:10B6A000FEF704FA05B030BD5802002010B504467C
:10B6B0000C3C808CFDF7FCFE002807D0608D002834
:10B6C00003D021460348FBF70FFE10BD0020208564
:10B6D00010BD000034590100002807D0FF2806D013
:10B6E000112804D0411A0120884080B270470148D7
:10B6F00070470000FFFF000010B51446002917D165
:10B700002C20005D0121FFF7E7FF7D21C9004843A0
:10B710000104090C06D0608D012803D920460C30A5
:10B7200000F048FD608D0349884201D0401E6085CD
:10B7300010BD0000FFFF0000F7B50746254888B0A0
:10B74000406F029004A801900390BC6A00F061FD74
:10B75000E56BA26B2E46131A8D4101DA002508E035
:10B76000101A8E417D223146D2000023F5F79EFA51
:10B7700085B2194901A8FCF7F0F801A80A9902F06E
:10B7800021FD4034218801A802F004FD618801A850
:10B7900002F000FD2846FFF7A9FE014601A802F0CD
:10B7A00011FDA088FFF7A2FE014601A802F00AFDE4
:10B7B000A17901A802F006FDE17901A802F002FDDD
:10B7C00000200346009001AA38460999FCF7F6F9D3
:10B7D0000BB0F0BD345A01003C80000030B5184871
:10B7E0001849406885B0C0681446884225D1104683
:10B7F00002F02CFD0546204602F013FD6946088143
:10B80000204602F00EFD69464881204602F01EFDEA
:10B8100069460873204602F019FD694648732046C0
:10B8200002F014FD69468873204602F00FFD694658
:10B83000C87329466846FEF739F905B030BD0000E7
:10B84000580200203C80000000B50949094B4968B6
:10B8500085B0C9681046994207D102F0F7FC6946E5
:10B86000087200216846FEF735F905B000BD0000FA
:10B87000240400200780000010B5846A002C0AD040
:10B88000206020460749143000F080FC06484168DB
:10B89000002903D003E00020C04310BD4460002015
:10B8A00010BD00005538010024040020FEB5866A52
:10B8B00015460F46104602F0C9FC0290284602F0D9
:10B8C000B0FC74680346002C07D0A9882868009053
:10B8D0000191B9883046029AA047FEBDF0B50546F1
:10B8E0001248E5B00069029004A801900390174641
:10B8F0000E462846AC6A00F01BF8002C13D03846E0
:10B9000002F08FFC01466846408900280BD001AA4E
:10B91000284600F0E6F800200346009001AA3146D0
:10B920002846FCF74BF965B0F0BD0000905D0100C2
:10B9300070B5846A0546002C0BD0104602F071FCED
:10B9400001466068002804D08268002A01D0284699
:10B95000904770BD30B505460E48E5B0406802908E
:10B9600004A8019003900C46104602F05AFC0146D0
:10B970006846408900280BD001AA284600F0B1F89B
:10B9800000200346009001AA21462846FCF716F93C
:10B9900065B030BD905D010010B50D4886B04068BF
:10B9A0001446C068052811D1104602F04FFC6946C4
:10B9B0000872204602F035FC69464881A088039051
:10B9C0002068049000216846FEF784F806B010BD98
:10B9D0002404002070B505461048E4B0C069029008
:10B9E00004A80190039016460C46284600F018F86B
:10B9F000304602F016FC01466846408900280BD00C
:10BA000001AA284600F06DF800200346009001AA24
:10BA100021462846FCF7D2F864B070BD905D010065
:10BA2000F8B5846A17460546002C10D0104602F07F
:10BA30000DFC0646384602F0F4FB0246606800281A
:10BA400005D0C368002B02D0314628469847F8BD80
:10BA5000F3B583B00398846A002C35D00421049890
:10BA6000FBF77BFF0121049802F069FB07460221E6
:10BA7000049802F064FB0546FBF7C0F906466068CF
:10BA8000002815D00068002812D0049802F015FC98
:10BA900069460871049802AA016880880B1801A8F9
:10BAA00000906068394604680398A04700280DD0CC
:10BAB00030882870000A6870002038706946087164
:10BAC0006846007905B0F0BD0020FBE768460089B4
:10BAD0002870000A687068460179049802F02FFB0C
:10BAE000EEE7F7B582B002981646846A002C27D09C
:10BAF00005211046FBF731FF0121304602F01FFB04
:10BB000005463046039902F045FB6068002700288F
:10BB100015D04068002812D0304602F0CEFB6946AE
:10BB2000001F0871B18830682A46431801A80090A8
:10BB30006068039944680298A047002802D02F70DB
:10BB400005B0F0BD68460179304602F0F8FAF7E733
:10BB500010B506F0A5F910BD70B50C46054600F00D
:10BB600005F82146284606F09BF970BD10B504463D
:10BB7000104602F06BFB0F2808D8A1680F234A89F2
:10BB80001B0200079A43000D02434A8110BD0000CA
:10BB900000B50949094B496885B0C9681046994202
:10BBA00007D102F053FB6946087200216846FDF791
:10BBB00091FF05B000BD0000240400203780000084
:10BBC00010B584682169FFF743FF012109030028AC
:10BBD000608901D0084300E088436081002010BDE7
:10BBE00070B50026846AF6430546002C13D0A86879
:10BBF000002814D00B49416120460B49083000F061
:10BC0000C5FA28462560FBF7A1FE002801D00748A9
:10BC10000460002070BDFBF799FE0028FAD0304682
:10BC200070BD0000C1BB0000DD5700008402002091
:10BC300010B50888401C80B208F0C8F9002802D06E
:10BC400001210170401C10BD10B5481E0178491E2D
:10BC50000A06120E027001D108F0CCF910BD10B521
:10BC600000231A46FFF75CFC10BD0000F7B582B058
:10BC700002981468856A6078217806020E430120D4
:10BC8000C0030121301A8903884201D2012240E019
:10BC9000A078112801D9FF2802D1E078102801D915
:10BCA0000F2236E020797F2801D9FF2843D1A179DE
:10BCB0006279080210430190217AE0790F0207436C
:10BCC0001E48874237D83846FDF7F2FB00281FD0C0
:10BCD0002E852846E17820300090017301980007F6
:10BCE000000FE8852F86002E15D0A0780121FFF7E0
:10BCF000F3FC6885009821794173E07800280ED024
:10BD0000A07800280BD028460C3000F097FA0AE003
:10BD1000042223460BE02846FFF7F6FB03E0284603
:10BD20000C3000F029FAFDF7BEFA00231A460399F9
:10BD30000298FFF7F5FB05B0F0BD0000FF0F000013
:10BD400010B50022FFF7F8FC10BDF7B500981746B4
:10BD5000856A104602F065FA0646384602F061FA36
:10BD60000446384602F072FA07460120C003002E4E
:10BD700001D0864250D20122211A920391424BD324
:10BD8000FF210902611AFB2946D9002C05D0844203
:10BD900003D2FCF71BFEA0423ED1112F3CD87F21DD
:10BDA000002E20D0002C1ED0002F24D0284640305A
:10BDB0000680448081710021C17181800121384653
:10BDC000FFF78AFC7D21C900484304462E464036D1
:10BDD0007088FDF717FA002C0FD000F01AFAE2175E
:10BDE000001951410BE00022284640300280428079
:10BDF0008171C27182800024E8E700200146E96376
:10BE0000A863002201990098FFF796FC002C03D14B
:10BE10000020B080B071F071FEBD0288002A07D00A
:10BE20008A4205D8007A1018884201D9012070474B
:10BE300000207047F8B50E460546F9F72FFA00289E
:10BE400022D1287D8106890F01291DD040061BD5EE
:10BE500005F0DEF8002818D00024144F20E0F86A1E
:10BE6000E10040180188002916D02A89914216D194
:10BE7000297DC907817809D0002915D008E03060F4
:10BE800002E0294608F00AFC0020F8BD002903D191
:10BE900041682A69914207D2002EF2D0EFE7641C74
:10BEA00005F0B6F8A042DADC0120F8BD88310020A8
:10BEB000FEB5046816460F46002C24D020460C30F0
:10BEC00001A9009002F0F0F90521009802F085F92F
:10BED000009802F08AF905460321009802F07DF9E6
:10BEE000009802F082F96A469288616940048918D4
:10BEF0006A46E160C00CD1882182AF4203D18642FC
:10BF000001D10120FEBD0020FEBDF8B50446008A27
:10BF10000025102801D00020F8BD20460C306946CD
:10BF2000064602F0C1F90121304602F056F93046CA
:10BF300002F08CF9C0091BD00321304602F04DF904
:10BF40000221304602F049F90221304602F045F95B
:10BF50000121304602F072F900784006400E0228B6
:10BF600006D101250621304602F068F90121417110
:10BF700069460988606940186946E06048882082FF
:10BF80002846F8BD2021084361381A2801D2012033
:10BF900070470020704730380A2801D201207047CE
:10BFA00000207047202802D00938052801D201203E
:10BFB00070470020704741381A2801D2012070478D
:10BFC000002070477CB5154D10462C4600220834E1
:10BFD0001E46002912D005236A46314600F002FFB2
:10BFE00000281AD10098286068460079C107C90F57
:10BFF00004200029216807D0014306E02A60216857
:10C0000004208143216007E0814368462160007974
:10C01000410802486030017400207CBD08310020D6
:10C0200001480068807870474802002010B5FFF78B
:10C03000F7FF01466020F4F70FFE16490A7C8018CE
:10C04000C0B2087460280FD20120FDF731F9FFF764
:10C05000E7FF01466020F4F7FFFD0F4941430D481B
:10C06000143000F0A7F810BD0A4802215838FAF73A
:10C07000A7F9002809D00120FAF796FA054800210F
:10C0800060380068FBF7DEFF10BD0120FDF710F9F6
:10C0900010BD00006831002080EE360038B534480D
:10C0A00007F05EFC002801D0002404E0304807F0CF
:10C0B00045FC0446143C002C1CD0207A410616D5C1
:10C0C000217B002907D020461830FFF797F9207A06
:10C0D000C10910D039E0BF21084020722068002833
:10C0E00005D04268002A02D00020616890472046AF
:10C0F000F8F79CFF38BD80210843207208F006F84D
:10C100000090684680780099401800906846C07892
:10C1100000994018009080B20A21F4F79DFD207A22
:10C120008009800108432072617B8006800E081818
:10C1300020822168002908D00B68002B05D0217BC4
:10C140006268484380B200219847207B401E2073DC
:10C15000074801686161143404604168002900D116
:10C160004460F9F787F8018A024800F023F838BDE7
:10C17000400200205830002010B58169002902D00B
:10C1800008F0D4FE10BD0020C04310BD00B503462A
:10C1900000F04EF80020D8601861986100BD10B51D
:10C1A0000C3009F00DF881004018C117490F08182C
:10C1B000C01010BD0A4610B50146024800F004F850
:10C1C00010BD0000B0330020F8B500241746064625
:10C1D0000D46002A02DA1224E44318E0A869002878
:10C1E00004D0B04202D01324E44310E0B04204D1A2
:10C1F000084608F09BFE040009D4F8000521AE6152
:10C20000F4F740FD014628460C3008F089FF20462F
:10C21000F8BD10B5F7F7AEFF81004018C008002147
:10C2200010BD10B5F7F7A6FF81004018C00810BD7B
:10C2300000220260826041607047000010B5014634
:10C24000014800F003F810BDB033002070B58B68D2
:10C2500001251D430024DA078D60D20F09D10C603F
:10C260004268002A06D011604160007A012107F07F
:10C2700073FF70BD41600160F7E7000010B5044630
:10C280008CB0204920A0F8F773F9214622A0F8F7D6
:10C290006FF922A0F8F76CF9214C208A00282ED0E3
:10C2A000184919A0F8F764F9218A1EA0F8F760F977
:10C2B0001AA0F8F75DF913491C220C316846F4F70F
:10C2C0002BFD208A6946888008F0A4FA69468871A7
:10C2D00018A00FC807AC0FC4102207A9684608F0C1
:10C2E0002DFC0406240E0AD0064907A0F8F740F9F1
:10C2F000214614A0F8F73CF908A0F8F739F90CB07A
:10C3000010BD0000385301004150505F44424720A7
:10C3100025733E2000000000256400000A00000094
:10C32000740E00206E6F6465315F61646472202555
:10C3300078000000000102030405060708090B0C41
:10C340000D0E0F107772697465206661696C656403
:10C350002025640070B505461007000C0143144603
:10C36000284601F017FF2005010E284601F02AFF9C
:10C3700070BD70B503685C781D7823022B431B05E4
:10C380001B0D0B8001688B784C7819022143090939
:10C390001180032101F021FF70BD0000F7B50026D8
:10C3A00017463446166014E00F48610040680D18C7
:10C3B0002888C10401D43D600AE08104CA0F0099B5
:10C3C0008A4205D101050198090D814200D12E460E
:10C3D000641CF9F7B5F9054607F0DEF92818A04204
:10C3E000E2DC3046FEBD000098020020F8B50646AB
:10C3F0000D46104601F015FF0A49044688420BD845
:10C40000FDF756F8002808D000210091C37F22468E
:10C410002946304605F080FDF8BD04200023009039
:10C42000F5E70000FF0F0000F7B582B01446104694
:10C4300001F0F7FE0746204601F008FF05462048B8
:10C4400087423AD83846FDF733F804000BD0A81ECF
:10C45000022832D2E07F0026002808D0012809D027
:10C46000022809D022E004200023009020E0022DC1
:10C4700023D01BE0022D02D0032D05D016E00220B0
:10C48000E0770120A0770EE02046FCF72DF80D485C
:10C490000D4900680968084303D003980088FEF737
:10C4A0001FFAE677A6772046FBF7BEFB0096E37FF0
:10C4B0003A460399029805F02FFD05B0F0BD000043
:10C4C000FF0F00002C0400201004002030B50E489F
:10C4D0000E49406885B0C0681446884211D11046A4
:10C4E00001F0B4FE0546204601F09BFE69464881F6
:10C4F000204601F0ABFE6946087229466846FDF702
:10C50000D5FA05B030BD00005802002017800000A9
:10C51000F3B5488881B00D46002803D02549098825
:10C52000884201D91B20FEBD0421686807F00CFC7D
:10C53000A9780446017068881F4E010A6170297845
:10C54000A17028880227010AE1706888001D85B261
:10C550000198B04211D10C2007F038FD01000AD03B
:10C56000902008704E800F71CD8014488C60007848
:10C5700007F0A0FD16E01320FEBD23462A46002149
:10C58000F5F798FC0E49002807D002280CD00728A0
:10C590000CD012280CD01F28EED10878002801D02A
:10C5A000401E08700020FEBD1420FEBD0420FEBD0C
:10C5B0000220FEBD86050020FEFF0000840500204D
:10C5C0007D05002001480068007C7047480200207B
:10C5D00010B500230F22845C64001C438C54835CE0
:10C5E000521EDB09D2B20F2AF5D910BD70B5144620
:10C5F0000D46064600F026F8002808D00379C06AE8
:10C6000000280CD012211940102905D00BE00C484D
:10C61000864213D0142070BD002C02D103E0D8064E
:10C620000CD4052070BDD90601D40F2070BD0028A0
:10C6300004D0807EA84201D20C2070BD002070BDC5
:10C64000FEFF000030B50A4A002113780CE03C24BC
:10C6500055684C4364196488844203D13C204143AB
:10C66000481930BD491CC9B29942F0D3002030BDF1
:10C67000A4050020F0B50C4D00210C4E2C780FE0E5
:10C680003C226B684A43D7187F88B74206D09A5C31
:10C69000824203D13C204143C818F0BD491CC9B2B5
:10C6A000A142EDD30020F0BDA4050020FFFF000053
:10C6B00000B5FFF7C7FF002800D0808A00BD00004A
:10C6C00010B50C460549884206D0FFF7BBFF00288D
:10C6D00003D00079204000D0012010BDFEFF0000F3
:10C6E00010B50C460A490BA0F7F742FF21460DA0F2
:10C6F000F7F73EFF0EA0F7F73BFF052C03D0012014
:10C70000FCF7D8FA10BD01210846FCF7ABFA10BDC2
:10C710008A5201004150505F4442472025733E2019
:10C7200000000000726561736F6E202578000000C4
:10C730000A00000010B5054905A0F7F719FF07A08A
:10C74000F7F716FF06A0F7F713FF10BD80520100A0
:10C750004150505F4442472025733E2000000000B6
:10C760000A000000F8B5064688880F46102816D340
:10C7700002211E48F9F736FE1C4C2546FF342035B1
:10C78000013400280CD0E06A3168884207D1287D46
:10C79000002804D1002211460120F9F7BBF9F8BDA9
:10C7A00013481022806801683868F4F7F0FA00280E
:10C7B000F5D10F488068016B002901D0012088471E
:10C7C0003068E06202210948F9F77AFDA06B01F0B8
:10C7D00066FD08490848FFF7EDFC002211460120DC
:10C7E000F9F798F900202875F8BD000018320020EC
:10C7F000D802002060EA000090330020F8B5194903
:10C800000126886A184D00281AD08047174F044621
:10C810007889002820D0A04201D2214600E00146BC
:10C82000A04200D32046081A3C2815DD0D48C06AF6
:10C83000002800D080476E71F4F78EFE7C81F8BD31
:10C8400068790021002805D1A868401CA86000076D
:10C85000F5D56E71A96002E068790028EFD0F4F791
:10C86000B3FCF8BDAC2F002000300020E02F0020EA
:10C8700070B50C464968054600291BD01348C142D3
:10C88000134914A00CD1F7F773FE16A0F7F770FE4A
:10C890001BA0F7F76DFE0421284600F0BBF870BD21
:10C8A000F7F766FE17A06168F7F762FE14A0F7F7C6
:10C8B0005FFE70BD064907A0F7F75AFE17A0F7F70D
:10C8C00057FE0FA0F7F754FE0221E5E7C37FFFFFF5
:10C8D000C15201004150505F4442472025733E2021
:10C8E000000000006C6F63616C2076656E646F728F
:10C8F000204D6F64656C2042696E646564000000C1
:10C900000A000000556E6B6E6F776E204F70636F7C
:10C910006465202830782530347829006C6F636195
:10C920006C204170706C69636174696F6E204B6537
:10C9300079204164646564007CB5017A0024012992
:10C9400002D002292AD111E016490091018880887D
:10C9500001230022FAF7D1F8050020D0114912A0D6
:10C96000BA31F7F705FE294613A012E01D4A01214E
:10C97000019200910188808801230A46FAF7CEF8D7
:10C9800005000CD0074908A0BA31F7F7F1FD294698
:10C9900015A0F7F7EDFD1EA0F7F7EAFD01242046EC
:10C9A0007CBD00001C5201004150505F44424720B2
:10C9B00025733E2000000000556E61626C65207496
:10C9C0006F20616464696E67204170706C69636197
:10C9D00074696F6E206B65792028657272202564FA
:10C9E00029000000D7070000556E61626C65207455
:10C9F0006F2042696E64696E672076656E646F723F
:10CA0000204D6F64656C20286572722025642900B2
:10CA10000A000000C288120B1203521CC28001726D
:10CA20007047000030B510481049406885B0C068B4
:10CA30001546884215D1104601F0F3FB04462846FE
:10CA400001F0EFFB002804D1284601F0FFFB00288D
:10CA500000D0012069460C81039000216846FDF753
:10CA600025F805B030BD0000580200202E800000DF
:10CA700030B589B0002416480394049407C805AB68
:10CA800007C31448134D806A6946828B8A82803DB1
:10CA90002A8D0A83029005A80390FBF797FF694649
:10CAA0000882FBF749FE69468874088A042340BA65
:10CAB0000884688E08AA40BA4884054805212838A9
:10CAC0000090019402A8FAF7D1F909B030BD000036
:10CAD0009C6101008831002070B50646224888B06C
:10CAE000006D029004A8019003900D46104601F0DD
:10CAF00098FB040034D00120C003844230D21B498B
:10CB000001A8FAF72AFF214601A801F043FB1848C3
:10CB10000068002826D001231A4621461548FAF756
:10CB2000DDFA00281ED01430FFF739FB6421F4F73A
:10CB3000A9F80446E1B201A801F044FB2004010E6B
:10CB400001A801F03FFB2002010E01A801F03AFB11
:10CB500000200346009001AA29463046FBF72EF834
:10CB600008B070BD0024E5E7345A01002E800000B3
:10CB700010040020FFFF000001480068808C70470F
:10CB80004802002001480068C08C7047480200201D
:10CB900000220AE0022101E000BF00BF0B46491E4F
:10CBA00089B2002BF8D1521C92B28242F2D3704764
:10CBB0000E498A6A481502438A620321F5F75AF83A
:10CBC000F7F796FC0A490BA0F7F7D2FC0A4909A02F
:10CBD000F7F7CEFCF4F7E4FCF5F7B8F8FAF70CFD3C
:10CBE000F4F74EFAF7F732FBFCE700008010004044
:10CBF0002C55010025730A006A550100F8B5434E13
:10CC0000434FB06A808BB84201D10020F8BD414843
:10CC10000068002802D00120FCF72CF900252CE048
:10CC2000E420B16A68430918888BB84224D00C46C6
:10CC3000303108460091FBF799FA00281CD1E07FBB
:10CC400000280BD0214689310846FBF78FFA0028CF
:10CC500004D059210098F4F77AF80DE02E480068C6
:10CC6000002803D000202021085502E002212020C6
:10CC700001552046FAF7D8FF6D1C06F08DFDA8423D
:10CC8000CEDC22482038007C60280BD2FFF7C8F9A0
:10CC900001466020F3F7E0FF204941431B480C3870
:10CCA000FFF788FA00211E48FAF7F8FDFAF7DCFAD8
:10CCB00000280BD0818B002908D0C18B002905D01A
:10CCC0002021095C002901D0FFF7B8FAF9F720FF0D
:10CCD000002811D013490A78002A0DD04A78027131
:10CCE0008A784271CA7882710A79C2714A7902726D
:10CCF0008A794272C9798172044800217838F9F73B
:10CD0000D5FA0020FCF796FA7FE700008831002072
:10CD1000FFFF0000500400205404002080EE360085
:10CD2000259E0000B8020020044902680A6040689D
:10CD30004860002088600249086070474C34002039
:10CD4000380400208178491E052921D24178491EE6
:10CD500004291DD2C178C91FD72919D20179891E8A
:10CD60001F2915D24179491E042911D20189FF22B8
:10CD700076320C3991420BD28179491E042907D2AF
:10CD8000817A491E042903D20078C01E122801D3DB
:10CD90000020704701207047FFB581B0070014D014
:10CDA000694605F069FD0E4D06460024E00028584E
:10CDB00032463946F3F7F8FF002809D0641C0C2CE2
:10CDC000F4D30720C04305B0F0BD0020C043FAE70C
:10CDD000E00002AE40190ECE44680098A047F2E78A
:10CDE000CC5D010070B51C4615460E460346224632
:10CDF000294630469847002803DBA04202D0002095
:10CE0000C04370BD002070BDFFB51D460B462449D0
:10CE10008BB0CA6A169E029207AA159C3431019201
:10CE2000039286C9049106970592694608828B820F
:10CE3000002E01D01B4E01E01A4EB61C1949304697
:10CE4000491CFCF799FF002825D1314601A8FAF7C3
:10CE500084FD01A80D9901F09DF9294601A801F072
:10CE600099F91148844203D0214601A801F092F9B2
:10CE700001A8149901F08EF9002000900B480023BE
:10CE8000406801AA006804A9FAF798FE040004D0DB
:10CE9000FCF786FF20460FB0F0BDFCF799FFFAE7DC
:10CEA0004C5701003D800000FFFF000058020020A9
:10CEB000F7B537488CB04069059007A804900690F4
:10CEC0001546104601F0ADF906005FD00120C00301
:10CED00086425BD2284601F0A4F9019028680090B0
:10CEE0003046FAF719F8002700280AD003AA294685
:10CEF000FEF781F904000FD00C98A0420ED10D204E
:10CF000031E0A8880024042804D000206946087372
:10CF1000012028E00120F9E7022024E0019D2846B5
:10CF2000F8F7D0FA002807D00020420011198989AB
:10CF3000A94203D1384616E0032014E0401C032820
:10CF4000F3D3144900204200121992898A4206D173
:10CF50004100081985812046FCF7BAF9EAE7401C30
:10CF60000328F0D30520019A0099029101900092C4
:10CF70006846027B3346214604A8FDF7C7F8002324
:10CF800004AA00970D990C98FAF718FE0FB0F0BD9F
:10CF9000345A0100FFFF0000F7B531488CB0C06A79
:10CFA000039005A8029004901646104601F039F946
:10CFB000040052D00120C00384424ED2204637687C
:10CFC000F9F7AAFF00280CD001AA3146FEF713F9A1
:10CFD000050011D000266846007900280ED02149AE
:10CFE0000EE0B0880025042804D0002069460871AE
:10CFF0000126F0E70120F9E70226ECE71949891E2E
:10D0000002A8FAF7AAFC314602A801F0DBF8214693
:10D0100002A801F0BFF868460079002801D0042278
:10D0200000E00222394602A801F0C1F8002D0CD020
:10D030000D4E0024600040198189B14202D002A83F
:10D0400001F0A8F8641C032CF4D3002003460090E0
:10D0500002AA0D990C98FAF7B1FD0FB0F0BD0000CF
:10D06000345A01004E800000FFFF000030B5104828
:10D070001049406885B0C0681446884216D11046F1
:10D0800001F0E4F80546204601F0CBF8204601F017
:10D09000C8F8A088042802D3204601F0C2F8204630
:10D0A00001F0BFF829466846FCF700FD05B030BD29
:10D0B000580200203E800000F7B522488CB0006A7C
:10D0C000059007A8049006901746104601F0A9F8AD
:10D0D000050028D00120C003854224D2384601F043
:10D0E000A0F8009028463E68F9F716FF00281CD0EB
:10D0F00003AA3946FEF77FF8040021D001220099E7
:10D1000000F0C8FE019002966846027B2B4621463D
:10D1100004A8FCF7FBFF00200346009004AA0D9929
:10D120000C98FAF74BFD0FB0F0BDB8880024042826
:10D1300004D00020694608730120E3E70120F9E7E5
:10D140000220DFE7345A010070B5044680681646B5
:10D150000D46002805D00460A06826491830FFF766
:10D1600015F82549002042001219401C918103281E
:10D17000F9D30020014642001219401C51820628B2
:10D18000F9D31E4840688089281A00112071002EAA
:10D1900006D0E8682C21201AF3F774FD607117E0BF
:10D1A000A8682C21201AF3F76DFD607120880028F3
:10D1B00006D0012808D0022813D0032808D114E093
:10D1C0000F4860620F4802E00F4860620F4820621B
:10D1D000606A002804D08168002901D02046884771
:10D1E00070BD0B4860620B48F1E70B4860620B486A
:10D1F000EDE7000099D40000FFFF0000340200209A
:10D2000024590100B05A0100BC5601009C55010090
:10D21000F05C0100005D01005C6101002061010023
:10D22000F7B586B015460026104600F0FAFF040058
:10D230001FD00120C00384421BD220462F68F9F77B
:10D240006BFE002817D004AA2946FDF7D4FF00285A
:10D250001CD0816800291BD08E8800216A46127C70
:10D26000009201AD83C5334622460799069804F023
:10D270007DFE09B0F0BDA9880020042904D000215A
:10D280006A4611740121E9E70121F9E70221E5E786
:10D290000721E3E7F7B58AB01746104600F0C1FF53
:10D2A000060045D00120C003864241D2384600F036
:10D2B000B8FF0790384600F0B4FFC1040005000D28
:10D2C000C90F06900591384600F0C0FF05467F283B
:10D2D00001D9FF2D2CD1384600F0B8FF0190384617
:10D2E00000F0B4FF0090386808903046F9F714FE5B
:10D2F00000281FD004AA3946FDF77DFF040024D082
:10D30000009801220290009503922046059B069A00
:10D310000799F7F77FF96A46127C08990092029004
:10D32000019403913246079B0B990A9804F01EFE64
:10D330000DB0F0BDB8880024042804D00020694650
:10D3400008740120E7E70120F9E70220E3E7000085
:10D3500030B519481949406885B0C06815468842FB
:10D3600027D1104600F072FF0446284600F059FF0E
:10D37000284600F056FF69460881284600F051FF14
:10D380000022694600050A73000D4881284600F016
:10D390005DFF69464873284600F058FF6946887368
:10D3A000284600F053FF6946C87321466846FCF7DB
:10D3B0007DFB05B030BD0000580200201980000040
:10D3C000F7B58AB01746104600F02BFF060061D073
:10D3D0000120C00386425DD21021384600F02EFFA6
:10D3E0000290384600F01DFFC1040005000DC90F72
:10D3F00006900591384600F029FF05467F2801D99F
:10D40000FF2D47D1384600F021FF0190384600F04B
:10D410001DFF0090386808903046F9F77DFD002820
:10D420000CD004AA3946FDF7E6FE040013D007A984
:10D43000029807F03FF9002812D01DE0B8880024B8
:10D44000042806D000206946087400208883012043
:10D4500012E00120F7E700206946888302200BE0F4
:10D46000009801220095039202906846818B204625
:10D47000059B069AF7F7CEF86A46127C0899009247
:10D480000194039102906A46938B32460B990A9855
:10D4900004F06CFD0DB0F0BD70B50446183C20687A
:10D4A000FAF784FA05466089400B10D0206803F033
:10D4B00007F900280AD06089C004C00C6081002DE3
:10D4C00004D0204629461830FEF774FE70BD002DAA
:10D4D000FCD06169206888470028F7D16089400B3B
:10D4E00003D020461830FEF747FE2068FAF788FA86
:10D4F00070BD70B51546044600F0FCFA002802D055
:10D500002046FBF7F7FE00231A4629462046FAF785
:10D5100061F9606A002804D0C168002901D0204662
:10D52000884770BDFEB51D4616460C00074665D0FF
:10D5300010220021204606F003F880B2010AC2B290
:10D540003846FAF7E5F9070058D06946204605F055
:10D5500093F901900098002850D02AA1019AF3F77E
:10D5600023FC0024002815D028A1019A0098F3F785
:10D570001BFC00281ED026A1019A0098F3F714FC8A
:10D58000002828D023A1019A0098F3F70DFC002869
:10D5900028D033E0214A089B3946002047007F18F5
:10D5A000401CBA810328F9D3002E12D00622184657
:10D5B0000C310BE0384612300C21089F0190F3F734
:10D5C000C6FB002E05D00C2238460199A84700283A
:10D5D00000DB2046FEBD2A4631463846089B00F057
:10D5E0001FF8FEBD786A002808D00468002C05D01A
:10D5F0002A4631463846089BA047FEBD0720C04357
:10D60000FEBD000062696E64000000007375620078
:10D61000707562006461746100000000FFFF00002B
:10D62000FEB5044680681E461746002832D0012504
:10D630002D03002931D008236A4631463846FFF7CA
:10D64000D1FB002825D16A46A16810888880A1688E
:10D650005288C8881205000B0003120D1043C880C1
:10D660006A46D279A843D206D20F12031043A168AA
:10D670006A46C880A16810790872A168907988729A
:10D68000A16850794872A0684189C904C90C4181D8
:10D690000020FEBD0020C043FEBD00228280A168A4
:10D6A000C888000B0003C880A168A843C880A06890
:10D6B0000272A0688272A0684272E4E7FFB5254852
:10D6C0008FB01E46C3681B9C029307AB01931430B6
:10D6D000039389C8199D04900697059368460182B3
:10D6E00082821D490F98FCF747FB00282DD101A825
:10D6F0000F99FAF732F9314601A800F04BFD002DE1
:10D7000005D01022294601A800F051FD03E001A830
:10D71000189900F03FFD1148844203D0214601A82A
:10D7200000F038FD01A81A9900F034FD00200090A7
:10D730000B480023406801AA006804A9FAF73EFAE2
:10D74000040004D0FCF72CFB204613B0F0BDFCF71E
:10D750003FFBFAE7CC5701001F800000FFFF0000ED
:10D7600058020020F7B586B01446104600F059FD67
:10D77000060050D00120C00386424CD2204600F063
:10D7800050FD0546206804903046F9F7C5FB002897
:10D790000DD003AA2146FDF72EFD040010D0032072
:10D7A00080032149281A88420CD3012727E0A0884A
:10D7B000042803D0002069460873F6E70120FAE741
:10D7C00002271CE029462046FAF73EF8002801D03F
:10D7D000002714E041000919498A00291DD0401C86
:10D7E0000628F7D306281CD000272046FBF782FD29
:10D7F0000E480068002802D02846F9F73FFF684627
:10D80000017B04980291019033463A4600950799AE
:10D81000069804F00DFC09B0F0BD410009194D82D5
:10D82000E0E70527EBE70000013F00002C040020A3
:10D83000F7B586B01446104600F0F3FC05004AD058
:10D840000120C003854246D2204600F0EAFC69462A
:10D85000088228462768F9F75FFB00280FD003AA43
:10D860002146FDF7C8FC060012D06846008A032155
:10D870008903401A194988420CD301241FE0A0886B
:10D88000042803D0002069460873F6E70120FAE770
:10D89000022414E0124800240068002803D001216B
:10D8A00004A8F9F71DFF6846018A3046F9F7CCFF56
:10D8B000002804D0002101803046FBF71BFD69469B
:10D8C000087B098A0290019700912B46224607990E
:10D8D000069804F0ADFB09B0F0BD0000013F000068
:10D8E0002C040020F7B584B017460E46104600F011
:10D8F00098FC04002AD00120C003844226D220468E
:10D900003D68F9F709FB002822D003AA3946FDF744
:10D9100072FC070026D014480068002804D038465E
:10D9200006211230F9F7DCFE384600F0E3F83846FD
:10D93000FBF7E0FC00226846007B0021009102908A
:10D94000234601953146049804F072FB07B0F0BD00
:10D95000B888042804D00020694608730122EAE749
:10D960000120F9E70222E6E72C040020F0B5074683
:10D970002A488BB0C06C029004A8019003900E4618
:10D980001546104600F04DFC040035D00120C003C0
:10D99000844231D2284600F044FC0090204901A87E
:10D9A000F9F7DBFF2046F9F7B7FA002826D00099EF
:10D9B000F9F736FF050023D0002101A800F002FC92
:10D9C000214601A800F0E6FB01A8009900F0E2FB67
:10D9D000002460004019418A002902D001A800F00B
:10D9E000D9FB641C062CF4D300200346009001AA46
:10D9F00031463846FAF7E2F80BB0F0BD012100E0FD
:10DA0000022101A800F0DEFB214601A800F0C2FBC4
:10DA100001A8009900F0BEFBE6E70000B459010040
:10DA20002A800000F0B5074630488DB0806D029026
:10DA300005A8019003900E461546104600F0F1FB34
:10DA400004003ED00120C00384423AD2284600F0B0
:10DA5000E8FB0490284600F0E4FB0090244901A86C
:10DA6000F9F77BFF2046F9F757FA00282BD0009AE8
:10DA70000499F9F7F8FE050027D0002101A800F06D
:10DA8000A1FB214601A800F085FB01A8049900F044
:10DA900081FB01A8009900F07DFB00246000401983
:10DAA000418A002902D001A800F074FB641C062CF6
:10DAB000F4D300200346009001AA31463846FAF715
:10DAC0007DF80DB0F0BD012100E0022101A800F0B9
:10DAD00079FB214601A800F05DFB01A8049900F044
:10DAE00059FB01A8009900F055FBE2E7B459010089
:10DAF0002C800000F1B500252C462F4600986900C7
:10DB00000E18708A0121C903421A49108A420DD3A6
:10DB1000002814D00C480068002804D03046123089
:10DB20000121F9F7DDFD7782641C08E0F9F74AFD71
:10DB3000641C7782002802D0002106F0E6FD6D1CEF
:10DB4000062DDBD32046F8BD2C040020F7B586B0A7
:10DB50001446104600F065FB07004BD00120C003BF
:10DB6000874247D2204600F05CFB064620680490BE
:10DB70003846F9F7D1F900280DD003AA2146FDF760
:10DB80003AFB050010D0032080031B49301A88425D
:10DB90000CD3012422E0A088042803D00020694689
:10DBA0000873F6E70120FAE7022417E0134800683B
:10DBB000002804D0284606211230F9F791FD2846A6
:10DBC000FFF798FF6E8200242846FBF793FB0B4873
:10DBD0000068002802D03046F9F750FD6846017B06
:10DBE0000498029101903B462246009607990698B8
:10DBF00004F01EFA09B0F0BD013F00002C04002023
:10DC000030B510481049406885B0C0681446884255
:10DC100016D1104600F01AFB0546204600F001FB25
:10DC2000204600F0FEFAA088042802D3204600F027
:10DC3000F8FA204600F0F5FA29466846FBF736FF69
:10DC400005B030BD580200201F800000F7B586B037
:10DC50001446104600F0E5FA050054D00120C00338
:10DC6000854250D21021204600F0E8FA0090284664
:10DC70002668F9F751F9002700280CD003AA21469D
:10DC8000FDF7B9FA040011D004A9009806F012FDBE
:10DC900007002CD10EE0A088042805D0002069469A
:10DCA00008730F82012722E00120F8E76846078207
:10DCB00002271CE06846018A2046F9F7C5FD0028C6
:10DCC00015D141000919498A00291ED0401C062897
:10DCD000F7D306281FD011480068002803D06846F3
:10DCE000008AF9F7CBFC2046FBF704FB00276946C6
:10DCF000087B098A0290019600912B463A460799C3
:10DD0000069804F095F909B0F0BD69464200098A09
:10DD100012195182DDE70527E9E700002C040020F5
:10DD2000F7B586B01646104600F07BFA04004ED0D8
:10DD30000120C00384424AD21021304600F07EFA0E
:10DD4000009020463768F9F7E7F80025002823D02F
:10DD500003AA3146FDF74FFA060028D004A900981F
:10DD600006F0D3FC02466846008A002824D01948F1
:10DD70000068002803D0012104A8F9F7B1FC684627
:10DD8000018A3046F9F760FD002814D0058030463E
:10DD9000FBF7B0FA00220FE0B088042805D000207D
:10DDA000694608730D82012206E00120F8E7684603
:10DDB0000582022200E00C226946087B098A029053
:10DDC0000197009123460799069804F031F909B0AC
:10DDD000F0BD00002C040020F7B586B00020694695
:10DDE00008821446104600F01CFA06004DD00120AF
:10DDF000C003864249D21021204600F01FFA00904D
:10DE000030462768F9F788F8002818D003AA214679
:10DE1000FDF7F1F905001CD01D480068002804D06A
:10DE2000284606211230F9F75BFC2846FFF762FE10
:10DE300004A9009806F03EFC04000CD019E0A0886C
:10DE4000042804D0002069460873012411E0012051
:10DE5000F9E702240DE06846008A68822846FBF74D
:10DE600049FA0B480068002803D06846008AF9F791
:10DE700005FC6946087B098A0290019700913346A8
:10DE800022460799069804F0D3F809B0F0BD0000C7
:10DE90002C040020F0B5074685B016460D4608460E
:10DEA000F7F710FB002825D000246000C0198189F5
:10DEB000A94219D110498181002E02D03846FBF7C2
:10DEC00007FAB86800280FD0C0880005000DA842E6
:10DED0000AD10020009001900346024601460290BC
:10DEE00003963846F6F796FB641C032CDDD300201E
:10DEF00005B0F0BD0320FBE7FFFF000070B50B4C41
:10DF00000022A51C661C53001B189B898B4205D060
:10DF1000A34205D1A94201D0B14201D1012070BD77
:10DF2000521C032AEFD3002070BD0000FCFF00004C
:10DF3000FFB581B01D460E46F9F748FA002815D006
:10DF4000284600F0BAF90024E443042844D306F03C
:10DF50009FFB0746083706F0A7FA0C214843874283
:10DF600008D906F095FB0146083107E00520C043BB
:10DF700005B0F0BD06F098FA0C214143FF20813036
:10DF8000814211D206F084FB0746083706F08CFA6E
:10DF90000C214843874203D906F07AFB083003E09E
:10DFA00006F082FA0C214843A988001F884202DA51
:10DFB0001420C043DCE70398002806D1706841882C
:10DFC0000198FFF79BFF002806D0294630460B9B9F
:10DFD0000A9AFBF76DFBCBE72046C9E7416A009B35
:10DFE000002904D04A68002A01D0197810477047E8
:10DFF00070B50F4C2178C1824A1C22708B00616879
:10E000000589CA586D04D20BD2036D0C2A43CA503D
:10E01000C38A00695204520CC0039B000243CA50D9
:10E0200000F008F801462078F2F716FE217070BD66
:10E03000880200200148006880797047480200206B
:10E04000F8B5002704460D46002907D00846FDF71D
:10E05000C3F80121401E8140A94201D00020F8BD33
:10E06000A00704D0A007800F0421081A0419114842
:10E0700011490268002A04D10A68121D9208920010
:10E0800002600D498E682946B0180092F2F7E4FD4F
:10E09000681A6D1E084A284021185268711891426A
:10E0A00006D2054BB14203D9009A9960101837186F
:10E0B0003846F8BD380400204C340020F7B505463A
:10E0C000408800280FD028880BE02C8881B2611A84
:10E0D0001C24EB6861435C18A5602179002904D0F9
:10E0E000401E0028F1DC0020FEBD0198002600281B
:10E0F00009D0A86801A900680368204698476061B4
:10E100000028F1D000E06661012020716671266070
:10E110000198608226826069E0606888401E68809D
:10E120002046FEBD10B58168C968401A1C21F2F76F
:10E13000A9FD80B210BD0179491C0171704730B54D
:10E1400003460C46006899884518184600F0B5F853
:10E15000A04200D2FEE7988800199880284630BD7A
:10E1600003B56A46918849BA91800221FFF7E7FF1B
:10E170006A4611790170517941700CBD13B501994E
:10E1800009BA01910421FFF7DAFF042201A9F2F78D
:10E19000C3FD1CBD03B56A46918891800221FFF73B
:10E1A000CEFF6A4611790170517941700CBD70B58E
:10E1B0000D4614461146FFF7C2FF22462946F2F7E4
:10E1C000ABFD70BD10B50C460121FFF7B8FF047020
:10E1D00010BD01688068081A70478288521A8280D0
:10E1E0000268511801600846704708B501686B461F
:10E1F0000A781A70497859700221FFF7EEFF6B46D2
:10E20000188840BA08BD38B504460168042268463B
:10E21000F2F782FD04212046FFF7DFFF009800BAE5
:10E2200038BD08B501686B460A781A70497859708C
:10E230000221FFF7D2FF6B46188808BD8388026869
:10E240005B1A8380511801601046704700B5016861
:10E250000B780121FFF7C1FF184600BD0268521A72
:10E2600002608388591881801046704703B56A465A
:10E27000918849BA91800221FFF7F0FF6A4611792F
:10E280000170517941700CBD10B50C460121FFF7AA
:10E29000E5FF047010BD82685118016070470021CD
:10E2A000818081680160704770B50C460546FFF7B4
:10E2B00090FF2080A888608070BD82680168891AFC
:10E2C000C2888088511A081A704770B5064605F052
:10E2D0002AFB051E0FD004464079C00708D03046FF
:10E2E00005F021FB20606179490849006171F2E77E
:10E2F00000202060284670BD30B50A46012503E0A5
:10E3000054792C4354711A461368002BF8D1436892
:10E31000002B02D01960426030BD06C030BD70B520
:10E32000044600251FE0207900281ED0401E00066C
:10E33000000E207119D1A0684188491C41804168B4
:10E34000002901D0204688476169002909D06379F6
:10E35000A26820469B0703D492681268926890478F
:10E36000656124682560002CDDD170BDFFB53E4D90
:10E370001878297881B0C907C009C90F0B9E484099
:10E38000317D0C9C49084900084330750020A0806D
:10E39000A06820601F4620460A99FFF7D0FE394644
:10E3A0000A9AF2F7B9FC317D2868C907C90F411AEA
:10E3B0002068039AF9F72EFF002803D00720C043F6
:10E3C00005B0F0BD2068401D05F05AFA30810028E4
:10E3D00003D00121C903884202D30020C043EFE7E4
:10E3E000307D8006800F23D100251DE02068401D70
:10E3F00005F046FA01461D48AF004068C05B400486
:10E40000400C81420ED12068801C05F045FAC10302
:10E410001648C90B4068C059C00B814202D1012087
:10E42000C043CDE76D1CADB2FFF704FEA842DDD8B6
:10E430000F480068002804D0307D8106890F032929
:10E440000BD00948317D0068C907C90F421A002363
:10E4500021460298F9F7ACFCB2E70349C007096806
:10E46000C00F0A1A0123F3E70831002088020020B8
:10E4700054040020FFB583B01F461546002646E031
:10E480002D48816AE42070430C183FD0A08B2B49A3
:10E4900088423BD02A482B4900680968084308D0C5
:10E4A0002B4600972046049A0399FCF797FA002818
:10E4B00034D00398007841064020005D490E814227
:10E4C0000CD104986946A1C12246214669324131E6
:10E4D0002046039BFFF74AFF002822D0E07F002858
:10E4E00014D00398007841069920005D490E8142BE
:10E4F0000CD104986946A1C122462146C2329A3104
:10E500002046039BFFF732FF00280FD0761C05F052
:10E5100043F9B042B4DC002007B0F0BD287D0421EF
:10E5200006E0A08BA88001202C60F5E7287D022161
:10E5300008432875F5E7000088310020FFFF000040
:10E54000100400202C040020F7B50298FFF769FEA4
:10E550002A49064688423AD8FAF7AAFF040017D19A
:10E560000025274F0EE02846E4225043B96A1C30AC
:10E57000095A2448814204D1E421B86A4D43441920
:10E5800004E06D1C05F008F9A842ECDC002C0DD06D
:10E59000A08BB04202980DD1214600681022303184
:10E5A000F2F7F5FB002803D006230BE0052309E072
:10E5B000002307E0016820463030F9F7D7FD002836
:10E5C00006D0102332460199009803F06FFDFEBD7E
:10E5D000A6832046FAF7D0FE2046F9F725FB0A4825
:10E5E0000068002806D00021202001552046FAF7B7
:10E5F0008FFBDDE7022020342070D9E7FF0F0000F9
:10E6000088310020FFFF00005404002070B506464A
:10E610000D461046FFF705FE0B49044688420ED80A
:10E62000FAF746FF002804D02988A14208D10C231C
:10E6300000E0002322462946304603F037FD70BD36
:10E640000121FAF7C1FEF4E7FF0F0000F7B51B4800
:10E6500088B0006F029004A801900390184901A8A7
:10E66000F9F77BF9174C0025174F264611E0E420F7
:10E67000B96A68430818828BB24208D0B44201D10B
:10E68000144604E0214601A8FDF764FE34466D1CE3
:10E69000ADB205F081F8A842E9D8B44203D02146D2
:10E6A00001A8FFF777FD00200346009001AA099911
:10E6B0000898F9F783FA0BB0F0BD0000B4590100D7
:10E6C00043800000FFFF000088310020FFB50725D0
:10E6D000ED438BB01F460E4600282AD010220021A1
:10E6E00004F02EFF80B20A90FAF7E2FE0446002EF4
:10E6F00019D021236A4639460D98FEF773FB00288E
:10E7000018D104A801306F460990002C14D0387835
:10E710001022C007C00FA07738784008E077204665
:10E720003030791C2FE0002C03D00021FAF74CFE8A
:10E7300031E028460FB0F0BD0025194E0EE0284606
:10E74000E4225043B16A1C30095A1648814204D170
:10E75000E421B06A4D43441904E06D1C05F01CF837
:10E76000A842ECDC002C18D00A98A08368460078F8
:10E770001022C007C00FA07768460078791C4008B7
:10E78000E07720463030F2F7C7FA20461022893071
:10E790000999F2F7C1FA0020CCE70820C043C9E785
:10E7A00088310020FFFF000030B50A480A49406860
:10E7B00085B0C068144688420AD11046FFF746FD6E
:10E7C00005462046FFF72DFD29466846FBF76EF902
:10E7D00005B030BD5802002044800000F7B5154652
:10E7E0000F461046FFF71DFD2549064688423CD8D6
:10E7F000FAF75EFE040009D0E07F002808D0012867
:10E8000016D002281CD003280AD119E0042327E0DF
:10E810002146102230312868F2F7B9FA002824D0B6
:10E82000204689302968F9F7A1FC00280CD016E0B1
:10E830002146102289312868F2F7A9FA002801D070
:10E840000B230DE000230BE00E480F490068096818
:10E8500008430BD02046FCF79FF8002806D0102371
:10E8600032463946009803F021FCFEBD0120E077D6
:10E870002046FAF781FD2046F9F7D6F9E2E70000D5
:10E88000FF0F00002C0400201004002010B586B0FB
:10E890001C461046002913D012236A462146FEF773
:10E8A000A1FA00280AD100A910220A480231F2F781
:10E8B00033FA68460088F8F7A7FA002006B010BDC2
:10E8C000F8F7C2FA03481038002101614161816103
:10E8D000C161F2E79831002000B50949094B496848
:10E8E00085B0C9681046994207D1FFF7AFFC694669
:10E8F000087200216846FBF7D9F805B000BD00009A
:10E90000580200202580000030B505460D4887B02C
:10E910004068029004A80C46019003900A4901A89F
:10E92000F9F71BF8F9F708FF014601A8FFF74AFCC1
:10E9300000200346009001AA21462846F9F73EF937
:10E9400007B030BDB45901002580000030B5044641
:10E95000114887B00069029004A801900390A06A52
:10E960000D46002804D0116809780171FAF796FC69
:10E970000A4901A8F8F7F1FFF9F7DEFE014601A800
:10E98000FFF720FC00200346009001AA29462046FC
:10E99000F9F714F907B030BDB45901002580000023
:10E9A000002804D003494968814201D10020704702
:10E9B00000687047FC02002010B502F097FA114C75
:10E9C000617D884202D102F099FA06E002F096FADF
:10E9D000617D884203D102F099FA607510BD02F0A2
:10E9E00095FA617D884202D102F080FAF5E7252987
:10E9F00003D0262903D02520EFE72620EDE72720A6
:10EA0000EBE70000D030002010B5FBF70BFE00282C
:10EA100001D0806810BD0020C04310BD70B50C4609
:10EA200006461546144915A0F5F7A2FD16A0F5F700
:10EA30009FFD16A0F5F79CFD204600F09DF80028EC
:10EA400002D0C188C9040BD42B462246314600F0BF
:10EA50002FF8002805D00E49C160012100F0CCFA42
:10EA600070BD054905A0F5F783FD0AA0F5F780FD07
:10EA700006A0F5F77DFD70BDFC5201004150505FCE
:10EA80004442472025733E20000000000A00000099
:10EA9000EC510100556E61626C6520616C6C6F63B6
:10EAA000617465206E6F6465206F626A65637400CF
:10EAB00070B5214D04000CD104012C5B002C17D043
:10EAC000401C0728F8D30024002C14D0A1802280F9
:10EAD000638000210B01E85A002818D0904216D01C
:10EAE0005819C088C30412D4800410D4012012E045
:10EAF00000014419E8E7114911A0F5F739FD14A008
:10EB0000F5F736FD1AA0F5F733FD002070BD491C5E
:10EB10000729DFD300204103E088012252039043FC
:10EB20000843E080800404D412480121007805F0F5
:10EB300013FB204670BD0000740E0020A752010098
:10EB40004150505F4442472025733E2000000000A2
:10EB50004E6F2046726565204E6F6465204F626A75
:10EB600065637420417661696C61626C65000000C8
:10EB70000A00000000000020064A00210B01D35AC1
:10EB8000834202D1080180187047491C0729F5D338
:10EB900000207047740E002030B50E480E494068C2
:10EBA00085B0C0681446884211D11046FFF74EFB6D
:10EBB00005462046FFF735FB694648812046FFF7AA
:10EBC00045FB6946087229466846FAF76FFF05B0AB
:10EBD00030BD00005802002048800000F0B5074614
:10EBE0001A4887B0C06F029004A8019003900E46A7
:10EBF0001046FFF716FB1649054688421ED81549F0
:10EC000001A8F8F7AAFE2846FAF752FC040017D02C
:10EC1000002101A8FFF7D6FA20342478294601A85C
:10EC2000FFF7B8FA214601A8FFF7CCFA0020034607
:10EC3000009001AA31463846F8F7C0FF07B0F0BD92
:10EC4000042101A8FFF7BEFA0024E7E7B459010048
:10EC5000FF0F000048800000F7B5264888B08068A4
:10EC6000029004A80190039014460F461046FFF747
:10EC7000D8FA2149064688423AD82046FFF7E6FAF4
:10EC8000040001D0012C33D11C4901A8F8F765FE1E
:10EC90003046FAF70DFC050011D0002101A8FFF75E
:10ECA00091FA314601A8FFF775FA15480068002867
:10ECB00011D0002C28460CD0FAF7BCF80BE0042148
:10ECC00001A8FFF77FFA314601A8FFF763FA214652
:10ECD00003E0FAF7C9F82035297801A8FFF772FA9E
:10ECE00000200346009001AA39460898F8F766FF0D
:10ECF0000BB0F0BD345A0100FF0F00004880000047
:10ED00005404002030B505460B4887B0806B04AA38
:10ED10000C46029001920949039201A8F8F71DFEE2
:10ED200000200346009001AA21462846F8F746FF36
:10ED3000FAF7ACF907B030BD345A01004A80000040
:10ED400070B50C4649680546002910D01A480918C4
:10ED500023D0222919491AA015D0F5F709FC1CA0C7
:10ED60006168F5F705FC20A0F5F702FC70BD1349BA
:10ED700013A0F5F7FDFB1DA0F5F7FAFB1AA0F5F7B8
:10ED8000F7FB022114E0F5F7F3FB1FA0F5F7F0FB0A
:10ED900015A0F5F7EDFB03210AE0084908A0F5F7F7
:10EDA000E7FB20A0F5F7E4FB0FA0F5F7E1FB04215A
:10EDB000284600F021F970BDE57FFFFFB852010041
:10EDC0004150505F4442472025733E200000000020
:10EDD000556E6B6E6F776E204F70636F6465202881
:10EDE00030782530347829000A0000006E6F6465A1
:10EDF000204170706C69636174696F6E204B657936
:10EE000020416464656400006E6F64652076656E01
:10EE1000646F72204D6F64656C2042696E64656436
:10EE2000000000006E6F64652076656E646F72206E
:10EE30004D6F64656C205375627363726970746999
:10EE40006F6E205365740000F0B585B01E461746FE
:10EE50000D46002814D01022002104F071FB84B26A
:10EE6000002D11D013236A4631463846FDF7BAFF0C
:10EE7000002807D12046F9F7EFFC00280ED015E056
:10EE80000720C04305B0F0BD2046F9F7E5FC002897
:10EE900002D00021F9F7D2FC0020F3E7684602888F
:10EEA000817C2046F9F778FC002806D000A91022C2
:10EEB000001D0231F1F730FFEEE70820C043E1E723
:10EEC0007CB5017A0024012906D00023214A0229B9
:10EED00014D003293BD123E01F4900910188808889
:10EEE00001230022F7F709FE050031D01A491BA0C3
:10EEF000AF31F5F73DFB29461CA023E000930192BA
:10EF00000188808801230A46F7F708FE05001FD014
:10EF1000114912A0AF31F5F72BFB29461EA011E0D5
:10EF2000009301920188032380889B030A46F7F728
:10EF300007FE05000CD0084908A0AF31F5F718FB13
:10EF400029461FA0F5F714FB2AA0F5F711FB0124B1
:10EF500020467CBDD70700001C5201004150505F85
:10EF60004442472025733E2000000000556E616238
:10EF70006C6520746F20616464696E6720417070F5
:10EF80006C69636174696F6E206B657920286572A6
:10EF90007220256429000000556E61626C65207442
:10EFA0006F2042696E64696E672076656E646F7269
:10EFB000204D6F64656C20286572722025642900DD
:10EFC000556E61626C6520746F20536574207665A0
:10EFD0006E646F72204D6F64656C2053756273634D
:10EFE00072697074696F6E202865727220256429B9
:10EFF000000000000A000000C288120B1203D21C9D
:10F00000C280017270470000094A00200101535A72
:10F01000002B08D08918C988CB0404D4890402D4F1
:10F02000000180187047401C0728EFD3002070476C
:10F03000740E0020F8B500250E4607462C460D60DC
:10F040000AE00948A100806808180188002909D051
:10F05000B94200D10546641C01F0DEF8A042F0DCA4
:10F060002846F8BD3060F6E79802002010B5FFF79B
:10F07000CBFF040025D0E0880205010B401E0005EF
:10F080000903000D0143120DE180002A25D0E0683C
:10F0900041682046884700281ED0E08801210903E6
:10F0A0000843E080194A00200101535A002B1FD069
:10F0B0008918C988CB041BD4890419D5000180188C
:10F0C0001AE0134913A0F5F753FA16A0F5F750FA12
:10F0D0001BA0F5F74DFA002010BD0D490DA0F5F766
:10F0E00047FA18A0F5F744FA15A0F5F741FAD4E766
:10F0F000401C0728D8D300200028EDD0C188012269
:10F1000052039143C180012010BD0000740E002005
:10F11000955201004150505F4442472025733E20E4
:10F1200000000000556E61626C652066696E6420A7
:10F13000556E626C6F636B6564204E6F6465000092
:10F140000A00000052616E204F7574206F662052D5
:10F15000657472616E736D6974000000027C012A2F
:10F1600001D808467047491E5018521E90437047F8
:10F170000022835C8B4201D001207047521C082A78
:10F18000F7D30020704710B5044601460722FF2040
:10F19000FAF74CFFE179814201D1002010BD012036
:10F1A00010BD10B5044601460722FF20FAF73EFFC6
:10F1B000E07110BD10B500231A4600F052FB10BDDF
:10F1C000F0B58BB01D00044609921BD0A2890B0C30
:10F1D00020685A43101889B2081808900021606905
:10F1E000FBF76FFA00280ED1207C2E46401E864386
:10F1F00014D033466069099A0899FBF750FA070062
:10F200001FD102E000200BB0F0BD0898AD1B8019A3
:10F210000890099880190990002D12D02A46684656
:10F220000999F1F779FD207CFF22411B68464019BE
:10F23000F1F786FD237C6A4660690899FBF72FFA8F
:10F24000074601216069FBF73CFA3846DBE770B5F9
:10F250000A46044608234168FFF7B2FF0546082125
:10F260002046FFF77BFF6168081A6060284670BD82
:10F27000FFB589B009982027007C1C46401E164621
:10F2800087431BE0A74201D23D4600E025462B46BE
:10F290006A460A99099800F06CF8002807D12A46B6
:10F2A00069463046F1F773FD002802D001200DB009
:10F2B000F0BD0A98641B401976190A90002CE1D120
:10F2C0000020F4E7FFB589B009982026007C0F469E
:10F2D000401E86431C4631466846F1F731FD0EE07C
:10F2E000A64201D2354600E025462B466A463946FD
:10F2F0000998FFF7BDFF002804D1641B7F19002C7B
:10F30000EED100200DB0F0BD70B515460A4604469A
:10F310002B468168FFF754FF064629462046FFF733
:10F320001DFFA1684018A060304670BD70B50D0C7F
:10F330002D0404468389FF222946FFF7C3FF0028D6
:10F3400016DDA1892A0C206851430D18002160693F
:10F35000FBF7B7F900280BD1A28929466069FBF7B2
:10F3600081F9002804D101216069FBF7AAF9002086
:10F3700070BD70B585890E0C046875432C1989B26F
:10F3800009194069FBF77BF970BDF0B595B00546EA
:10F390000821FFF7E3FE044668680FA9000C00048B
:10F3A0000F90284600F09FF9A8890F99082340186C
:10F3B000011B02AA28460E91FFF7DBFF00287EDB27
:10F3C000FF2102A8FFF7D4FE002879D00E98001B79
:10F3D000139002A8FFF7D7FE002814D00EA92846E4
:10F3E00000F058F9002876D10E98109004AA0EA9C2
:10F3F000284600F099F800286DD104A8FFF7C3FE55
:10F40000002860D107E00E986946000C4989000485
:10F4100008180E90E8E7686811906A4611A9284616
:10F42000119C00F081F8002855D169460888098AA6
:10F43000884204D16846FFF7A6FE002803D068681A
:10F4400011998842E9D1109884423CD16846808A5B
:10F45000002838D010986946000C498A00040F181B
:10F4600028896946488204A8FFF79BFE69468C8A72
:10F47000297C2020491E8843129016E01298A04251
:10F4800001D2064600E02646334606AA39462846FB
:10F49000FFF76FFF00280BD1324606A92846FFF779
:10F4A00033FF002804D1A41BBF19002CE6D1002093
:10F4B000002810D104A92846FFF7C9FE01E00AE0A0
:10F4C00005E0002807D11399109888428CD128466E
:10F4D0000F99FFF72BFF15B0F0BD70B50026F6436E
:10F4E0000446002914D061614A692260488AA081DB
:10F4F0000D7CE581497C2174202909D8002807D09A
:10F5000001461046F1F7BEFB002901D1022D01D2C0
:10F51000304670BD204600F0F3F80028F9D10120F4
:10F520006074002070BD0000FEB50C46174605460D
:10F530000821FFF713FE064608233A4628462168AD
:10F54000FFF717FF002808D1206880192060AA89DA
:10F5500081B2921B914201D00020FEBD1C49020CD9
:10F5600015D0401A0146206008236A462846FFF756
:10F5700000FF0028F1D1FF216846FFF7F9FD0028C0
:10F580000AD06846FFF7FFFD002807D011E0EA899E
:10F590001204511A4018E5E7686816E06846A98920
:10F5A0004088891B884204DA3146F1F755FB00296F
:10F5B00004D02146284600F06DF8FEBD206869465B
:10F5C000000C00042060498840182060C4E7000057
:10F5D0000000010038B50024009400F001F838BDA7
:10F5E000FFB50546407C83B01F4600280CD008219B
:10F5F0002846FFF7B3FDA9894000081AB84206D291
:10F600000020C04307B0F0BD0D20C043FAE76E688C
:10F610000024029617E06A4602A92846029EFFF7D8
:10F6200083FF0028EED1684601880498814206D104
:10F630006846FFF7A8FD002801D1641CA4B26868E1
:10F640000299884202D00C988442E4D968680299F1
:10F65000884204D1684601880498814206D16846F0
:10F660008388002B02D00C98844202D20720C0432A
:10F67000C8E76946300C498800040918BB4200D924
:10F680003B462846059AFFF774FE0028BAD1684623
:10F690008088B7E7F3B583B00F4608210398FFF7DA
:10F6A0005DFD06463868841B250C2D043C6015E082
:10F6B00008236A4621460398FFF75BFE002810D115
:10F6C0006846FFF760FD002807D16A465188928896
:10F6D000280C000489180D183C60A41BAC42E7D824
:10F6E000002005B0F0BD01230A681B04D2180A608F
:10F6F000C089130C834202D10004101A08607047BD
:10F70000FEB5044600200746009008212046FFF77A
:10F7100025FD064600251BE0A18928044018811B11
:10F720000823FF2220460091FFF7CCFD00280DD0D2
:10F730007F1CBFB269462046FFF7D5FF0823FF2292
:10F7400020460099FFF7BEFD002804D06D1CADB225
:10F75000E089A842E0D8E089B84202D10B20C0433A
:10F76000FEBDA8420CD100980823811BFF22204631
:10F77000FFF7A8FD002803D169462046FFF7B3FF35
:10F780000098811B000C00046160A0602EE008233B
:10F7900001AA2046FFF7EDFD0028E1D1FF2101A8D5
:10F7A000FFF7E6FC002832D001A8FFF7ECFC0028A8
:10F7B00019D100986946000C0004A060C98840185F
:10F7C000A060694609892046FFF7C8FCA168401877
:10F7D000A0606168814206D168460089002802D095
:10F7E0000C20C043FEBD6068801B60606168A0683B
:10F7F0008142CCD20BE0431AFF222046FFF762FD84
:10F800000028EFDB07D0217CA0684018A060A16829
:10F8100060688842EFD860686946000C0004009078
:10F820002046FFF760FFA389FF2220460099FFF7DB
:10F8300049FD0028D6DBD5D020466168FFF776FD6C
:10F840000028CFD16068A189000C72000004891AD9
:10F8500008186060000C0004A0602046FFF795FDCA
:10F86000FEBDFFB587B0002704460397407C1D46C8
:10F8700000282FD008212046FFF770FC029029466F
:10F880002046FFF76BFC06460298A18942008018CB
:10F89000081AA84222D3002D02D0099800281DD0B2
:10F8A0006068049005906A4604A92046FFF73CFE74
:10F8B000002811D1684601880898814204D1684621
:10F8C000FFF761FC00280FD060680499884208D0D7
:10F8D0000846E7E70D20C0430BB0F0BD0020C04351
:10F8E000FAE70398002816D005986946000C498865
:10F8F0000004091868468088002D09D0A8420CD160
:10F900002B462046099AFFF7B3FC0028E4DD04E00B
:10F910000028E1D001E0002D0BD0002E02D002988B
:10F92000301887B20026E089B04204D10F20C043CE
:10F93000D2E70020D0E7A1686068C91988421AD3CD
:10F9400069460898099E0881208948818D81FF2099
:10F95000887302A8FFF725FC2A4631462046FFF7A8
:10F96000D3FC002803D102A92046FFF770FC002831
:10F97000B2D12846B0E708212046FFF7EFFB00216F
:10F98000C9436A46118100219181A18809185181DA
:10F990006168A289090C0904101A0818606002A89D
:10F9A000FFF7FFFB02A92046FFF751FC0590211D40
:10F9B0002046FFF798FE6068000C0004A0600598E0
:10F9C000002889D12046FFF7E0FC002884D1761C6E
:10F9D000A9E770B5002380241D46934202D2C65C7D
:10F9E000CE5404E0934201D1CC5400E0CD545B1CD2
:10F9F000DBB2102BF1D370BDC0681C2251434018FC
:10FA00007047000010B508484068002802D0F8F799
:10FA1000C3FF10BD0549002209208A74FAF7E2F9F4
:10FA200001F0FEF910BD000018320020383300202C
:10FA3000F0B5154602460B4600202B43C043634EEB
:10FA400085B0002A28D0344658340394604C012AEB
:10FA50002AD0022A3AD0032A1CD100297DD00129BC
:10FA60007CD002297BD003297AD00026002E11D029
:10FA7000A1684A8B32420DD0097EA9420AD3082ED2
:10FA80006FD005215148F6F71BFCA0682946426A51
:10FA90003046904705B0F0BD002BFBD10020B0658B
:10FAA000F065306670660FE0002BF3D1A068027D30
:10FAB0000169B01A6830F1F72FF9A068017D1020B4
:10FAC000411A0398F1F743F90020E3E70B00F4F73C
:10FAD00077FD050406080A0C0E00012708E002273E
:10FAE00006E0042704E0082702E0102700E00027D2
:10FAF000002FCFD0A168CA8A3A42CBD0497DA94213
:10FB0000C8D30E213148F6F76DFC002803D0072139
:10FB10002E48F6F7D5FB102F24D004216846F9F7BC
:10FB200073FA2C49A80040188038C16F0098F1F78B
:10FB300093F826480A0C6430130A0091037042704F
:10FB40000A0A8270C1700020B065F06530662048F6
:10FB500000998068C26938469BE72CE02DE02EE0D2
:10FB60002FE030E029466846F9F74EFA00246F4648
:10FB70000CE0385D2421F1F76FF839550A2901D2DC
:10FB8000303100E037313955641CE4B2AC42F0D377
:10FB9000002078552A4669460398F1F7BDF81020F1
:10FBA000411B70195830F1F7D2F809488068016A92
:10FBB000684688476EE7012658E7022656E704267E
:10FBC00054E7082652E706215CE7000018320020BF
:10FBD000D8020020DC5E010070B50C460546052108
:10FBE000FEF759FB21462846FEF7ECFA70BD0000EF
:10FBF000F0B504468DB00E215348F6F7F3FB00280C
:10FC00007ED05248406B05900AA804900690207858
:10FC1000002804D0601C03F039FE012801D0022026
:10FC20008AE0E0780128FAD849498968C96A002938
:10FC300003D0002801D0012200E00022092142481F
:10FC4000F6F761FB207908900128E8D860790790E1
:10FC50000828E4D8A01D03F019FE09904009DED160
:10FC6000257A082DDBD82046093003F00FFE074621
:10FC70000009D4D1344E2178F289B089F8F78CFD8F
:10FC8000B060002857D002A8019000953946079B24
:10FC9000089A0998F5F7E6FD30460B22214689308F
:10FCA000F1F73AF8022104A8FFF796FF002104A813
:10FCB000FEF788FA09213046F6F794FBC1B204A892
:10FCC000FEF780FA6846417A04A8FEF77BFA684698
:10FCD000C17A04A8FEF776FA6846417B04A8FEF7CD
:10FCE00071FA0499304605229430491CF1F714F852
:10FCF00004A800F06DFB00281BD16846027B00E0E1
:10FD000017E0817A007AFFF793FE002802D00220E4
:10FD100000F018FC09210C48F6F764FB002803D01A
:10FD20000B488068C06A80477068002807D002F0DE
:10FD30005BFA0DB0F0BD052000F004FCF9E70A21E4
:10FD40000148F6F7BDFAF4E718320020CC5E010056
:10FD5000D802002010B50348FCF70EFAFAF7C2FCEF
:10FD600010BD00007033002070B50D4606461D49D9
:10FD70001DA0F4F7FDFB1FA0F4F7FAFB1EA0F4F79B
:10FD8000F7FB0120F8F796FF04000AD0154916A0EA
:10FD9000F4F7EEFB214619A0F4F7EAFB16A0F4F7FE
:10FDA000E7FB2846FEF7E8FE002802D0C188C90418
:10FDB0000CD401232A463146FEF77AFE002806D0ED
:10FDC0000849EE39C1600121FCF724FE70BD0549E8
:10FDD00005A0F4F7CDFB12A0F4F7CAFB06A0F4F7D8
:10FDE000C7FB70BDE25201004150505F44424720C2
:10FDF00025733E20000000000A000000556E61627D
:10FE00006C656420456E61626C652050726F766926
:10FE1000736F6E657220286572723A25642900003E
:10FE2000556E61626C6520616C6C6F6361746520F6
:10FE30006E6F6465206F626A6563740070B50E2131
:10FE40000E48F6F7CFFA002817D00C4D0E212846A1
:10FE5000AC68F6F7C7FA00280FD02046F9F758FA31
:10FE600000202946FF222031A8600A75F9F7BAFF61
:10FE7000227D21886088F8F71BFE70BD18320020B3
:10FE800010B5014610220848F0F746FF06480E213B
:10FE90003838F6F7A7FA002802D002F01DFA10BD94
:10FEA00001F020FF10BD000050320020F0B50446E4
:10FEB0003B489DB0C06F0A901AA83A4909900B9030
:10FEC000C81FFE380CAA0E460546F9F78FF9002820
:10FED00001D007200FE010AA31462846F8F7F2FDBE
:10FEE0000028F6D102AB224610A90CA8F8F7ACFD09
:10FEF000002804D0062000F025FB1DB0F0BD14AA98
:10FF000031462846F6F7E0FF0028E2D106A803F0C4
:10FF1000BDFC18906846807E06AC033419902046DC
:10FF200003F0B4FC0604A01C03F0B0FC0643201D43
:10FF300003F0ACFC0746082109A8FFF74DFE09A80D
:10FF400000F046FA0028D8D11648FF21F938164D9E
:10FF500001752868002809D014480068002805D0D9
:10FF600013484068002801D0012400E0002414A8B0
:10FF700000970190334602A8199A1899F8F704FEE1
:10FF80000028BAD12868002803D0002C01D0F8F747
:10FF90002DFF04487D2109015F30FCF70BF9ACE728
:10FFA000CC5E0100313300205404002050040020B6
:10FFB0001832002010B501462022274803F07FFCAC
:10FFC00025480E211438F6F70DFA234C0C3400287E
:10FFD00027D0204606212038F6F704FA00280FD152
:10FFE000204605212038F6F7FDF9002808D12046E3
:10FFF00007212038F6F7F6F9002802D004202075F2
:020000040001F9
:1000000010BD15480C211438F6F7ECF9002802D081
:1000100001F068FE10BD10480D211438F6F750F9B4
:1000200010BD0D4809211438F6F7DCF9002810D06E
:100030000520207508480C211438F6F741F90648C8
:1000400007211438F6F77FF90028E9D001F04CFFBA
:1000500010BD02F0C9F810BD2C32002010B5007898
:10006000F9F7C0FE10BD000010B507210648F6F7ED
:100070006AF9002807D000210348F6F7B3F90028F1
:1000800001D001F02FFE10BD1832002010B504463B
:10009000294888B08068019003A8009002902178D8
:1000A000002902D00020F6F7C1F924482178017216
:1000B00001216846FFF790FDF6F728FF01466846E4
:1000C000FEF780F801216846FEF74AF81C4CA0684C
:1000D000817A6846FEF776F8A0680069002801D0AA
:1000E000012100E000216846FEF76CF8A068417D20
:1000F0006846FEF767F8A068C18A6846FEF730F8E0
:10010000A068017E6846FEF75DF8A068418B6846EE
:10011000FEF726F8094800990B220930491CF0F730
:10012000FBFD684600F054F9002803D10348022182
:100130006038017508B010BDCC5E01009832002017
:10014000D802002000B5104885B0C06F019003A808
:100150000090029000216846FFF73EFD0B48017CAD
:100160006846FEF72FF80098417808488030017201
:10017000684600F02DF9002803D104480121203001
:10018000017505B000BD00004C5E01001832002072
:1001900070B51E4E1E49B06B006805783046783049
:1001A000FCF708F834462034217DB06BF6F70EFFDB
:1001B000002814D0207CFAF79DFE207C607400207B
:1001C0002074F01F0821F938F6F70CF9002801D047
:1001D000032002E00A2D03D3022000F0B3F970BD22
:1001E000092D04D00948E038007DA842F0D1094A21
:1001F000E90088188388B06B5B1C8488A342EBD12C
:1002000000685158401C884770BD0000183300201A
:1002100060EA0000745E0100024800682030007A45
:10022000704700004802002070B5064690B00E21CD
:100230002348F6F7D7F8224C2546D93599340028BB
:100240000BD000211E48F6F73BF8402231462846E5
:10025000F0F762FDFFF77EFD10E0402231462046B8
:10026000F0F75AFD09211648F6F7BCF8002805D02A
:1002700001211348F6F7B6F800281BD00E211048CC
:10028000F6F7B0F8002800D02C4620222146684618
:1002900003F015FB2022A11808A803F010FB094960
:1002A0006846F6F71DFE002802D0072000F04AF944
:1002B00010B070BD00210248F6F702F8F8E7000020
:1002C00018320020B5FF00001FB51D4A0446014644
:1002D00010466B462030F8F78DFB002801D0072030
:1002E00008E01749102220396846F0F750FD002831
:1002F00003D0042000F026F91FBD11480E21583804
:10030000F6F770F80E4A103A002802D0114622463D
:1003100000E021460A4BC1331846B138F8F70CFC0F
:100320000028DCD106480E215838F6F75BF8002883
:1003300002D001F0E1FE1FBD01F0CEFF1FBD0000A5
:100340007032002070B502211E48F6F74BF80028E5
:100350001AD004211B48F6F745F8002802D07D2466
:10036000240100E0184CFBF754FF164DFF224132E8
:10037000FF23525945335B59821A9941E017A21A5B
:10038000884102DA00F03EFD70BD0024A000411952
:10039000FF310131C86C0028F6D08269127A52060A
:1003A0000CD4621C032A05D2096D002902D0002258
:1003B000114601E000220549F5F700FE641C032CFC
:1003C000E4D370BD1832002030750000E402002034
:1003D00010B504460A490B48FBF7ECFE0A480068D2
:1003E000002808D009484068002804D0224603218C
:1003F000F8F7CEFD10BD204600F00AF810BD000051
:1004000060EA0000903300205004002018320020E1
:10041000FEB50446FFF79EFCF4F700FE05000BD086
:100420000E214648F5F7DEFF011E4548017A08D047
:100430007F2904D0491C09E00620C043FEBD0021ED
:1004400004E0002901D0FF29F4D180210172C8B253
:1004500002903B4E2846403E0C300746F16AFDF7BD
:100460008DFE38460299FDF7ADFE2079142801D89B
:10047000002006E01438C0B21721F0F7EDFB401C55
:10048000C0B28006010E3846FDF79CFEA1883846B2
:10049000FDF766FE21792068F6F786FD01463846AD
:1004A000FDF790FEF564A088142800D31420C5B28F
:1004B0002A4638462168FDF77AFE29462046FDF790
:1004C0008CFE01252FE0032D04D3FAF70BF9112040
:1004D000C043FEBDF4F7A2FD00282BD01749AF00A2
:1004E0007918FF310131C864A188172900D3172179
:1004F000C9B200910C30F16A0190FDF73FFE0299FC
:100500000198FDF75FFEBF1CF9B20198FDF75AFE96
:100510002168009A0198FDF74AFE20460099FDF7F0
:100520005CFE6D1CEDB2A0880028CCD101F0FEFE6F
:100530000020FEBDFAF7D6F87EE700001832002052
:100540005833002010B5044686B00E210F48F5F749
:1005500049FF002804D02046F9F744FC06B010BD3E
:100560000B4809218068019003A80090029068461A
:10057000FFF732FB21466846FDF724FE6846FFF789
:1005800027FF08210148F5F79BFEE7E71832002016
:100590004C5F010070B504460078002827D16278CE
:1005A000500824D1144DA868807A82421FD10921B5
:1005B0001248F5F7A8FE09211048F5F713FF0028A7
:1005C00004D0A868C068002800D080470B480522E6
:1005D00021469430F0F7A0FB084803212030017534
:1005E0002279E178A078FFF723FA002802DA0220C6
:1005F000FFF7A8FF70BD0000D802002018320020CD
:10060000F7B514460E460098F6F710FEC01E85B2E8
:10061000A088B706BF0EA84209D239462046FDF78A
:1006200033FEA2882168009800F032F8FEBD3946FA
:1006300040312046FDF728FE2A462168009800F048
:1006400027F829462046FDF7C8FD80371BE0401CEF
:10065000A8420BD2C020314601432046FDF714FECC
:10066000A2882168009800F013F80FE03946204670
:10067000FDF70AFE2A462168009800F009F829468D
:100680002046FDF7AAFDA0880028E0D10020FEBD8D
:1006900070B50A4D2B466C681B78002C01D0022BDC
:1006A00006D0AC68002C01D0012B03D0002070BD17
:1006B000A04770BDF8F71EFA70BD00004804002086
:1006C00070B506462B48EAB0C068079009A80690A6
:1006D00008900020B468039004900590A1886A46B1
:1006E0001182217A91750090029003A80190304602
:1006F000F7F78CF800886A461081F8F71DF86A460B
:100700009072D07AE1884008C9044000C90F0843BC
:10071000D072002C27D0E0880005000DF5F750FDC1
:10072000050023D02888F8F7C3FE00902888694682
:1007300088816888C88120698288016806A8FDF7D9
:1007400036FD60890722410B490352038918C00412
:10075000C00C014361813346064A06A96846F8F792
:10076000A7FF6AB070BD1220C043FAE71720C0434C
:10077000F7E700004055010070B58D680C46002D6C
:100780001ED06889400B05D0687AC1083220491C08
:1007900041430FE00846F7F709F9060007D0FBF7D9
:1007A00040FDE968401AB04203D3012102E0002174
:1007B00000E0311A002903D0A0681830FBF7FAFCDA
:1007C00070BD10B59468002909D1617A6089490724
:1007D000400B490F884202D1FBF723FDE06010BDBA
:1007E00070B50546002409E0284603F0B0F804601F
:1007F0004179490849004171FDF791FD284603F010
:10080000BDF80028F0D070BDF8B5074615460E4675
:100810005478506801E0641EE4B20178401C00295D
:1008200001D0002CF7D1A878002803D0002C01D0EB
:10083000641EE4B2287881070DD5E978102902D02A
:10084000082904D007E0002C05D0A41E02E0002CEB
:1008500001D0641EE4B2C00703D007E0202138466F
:10086000B0472046641EE4B20028F7D1A9780029D9
:1008700001D03846B0472878800710D5E87810288E
:1008800002D008280FD00AE030213846B047287837
:10089000400701D5582100E078213846B047287834
:1008A000C00705D109E03021F7E730213846B047CD
:1008B0002046641EE4B20028F7D16C6801E0384697
:1008C000B0472178641C0029F9D1F8BD01480068BF
:1008D00000797047480200200B4610B501461846C3
:1008E000F0F71AFA002010BDFFB5C5B00020049043
:1008F00045981E460068039045980C468088052858
:100900007ED304A92046FBF795FA002878D101216F
:100910004598FDF762FC4598FDF767FC81074004A8
:10092000C50CCF0E4598FDF791FC4109C00639432F
:10093000C00E01910290814262D8BE48217D0068BC
:10094000C907C90F401A010A02062069431BDB04CC
:10095000DB0CC01A02433260716002984E99401C51
:100960000690087000251AE0B348A9018068228922
:100970000818018A914211D1418A628991420DD1B0
:100980000CCE8768083EC168BA1A99410CD2C17D65
:10099000490603D5012100F041FF04E06D1C00F081
:1009A000B3FBA842E0DC0020050043D03168AA6810
:1009B0007068EB68891A9841A2D30398AA7D0078E1
:1009C000029982421CD1E87D0090C206D20E8A4272
:1009D00016D1298A20890590814211D1688A6789B8
:1009E000B8420DD10098217D80060907C00FC90FBC
:1009F000884205D1009840065ED4ED69012000E0F0
:100A000083E00021521CF0F777F9401E85427CD12B
:100A100000980096C00901950290A37B2068394692
:100A2000059A01F0D5F8049800284BD0214603F030
:100A300035FE47E0207D0007C00F00F053FE02990D
:100A400005464D436D1C00F059FB85420FD9207DB2
:100A50000021C009009601910290A37B228961893F
:100A6000206801F0B5F81420C04349B0F0BD7348C8
:100A70000068002810D0207DC1090DD040060BD49D
:100A80004E98334600780090206862892189808BD7
:100A9000F6F77AFB002818D032462046029B0399CD
:100AA00000F040FE05001DD0E87D217D4006400E8F
:100AB000C909C9010843E875019801278740E86919
:100AC000074212D00120C043CFE7207D0021C0099A
:100AD000009601910290A37B22896189206801F030
:100AE00077F866E00820C043BFE702990198884282
:100AF000E87D0BD18006C00F00F0F4FD0299484359
:100B0000459989884018A8820CE008E08006C00F4B
:100B100000F0E8FD014645988088814202D000201F
:100B2000C043A2E7FBF77DFB2862284624300090F3
:100B3000FBF735FB00280AD1F6F798FD002806D10F
:100B40002846F4F7DFF901460098FBF733FB207DD8
:100B50000007C00F00F0C6FD00F0CAFD01996A68E9
:100B600089005050002814D045998A880968F0F708
:100B7000D3F8E86900210743EF610120069AF0F7F6
:100B8000BBF8401E874217D047990120087000200B
:100B90006BE7207D0021C009009601910290A37BA4
:100BA00022896189206801F013F80121284600F0AC
:100BB00035FE0620C04358E70498002802D021469D
:100BC00003F06CFD4798022101700098FBF7D4FAFE
:100BD000E87DE969C009009601910290A37B228912
:100BE0006189206800F0F4FF207D000712D51448C9
:100BF0000022806C019005A800900290694628466A
:100C000000F0CEFD0398334601786A462046F9F796
:100C1000D9FA08E0039823464078C209039801787E
:100C2000284600F0DDFA04460021284600F0F6FDD3
:100C300020461AE708310020EC02002010040020B2
:100C40005C5F010030B50546104887B0C06902906E
:100C500004A80C46019003900D4901A8F6F77DFE0B
:100C6000F8F7FCF9014601A8FDF7ACFAF8F706FA27
:100C7000014601A8FDF7A6FA00200346009001AA4C
:100C800021462846F6F79AFF07B030BDB459010057
:100C900028800000F0B50646204887B0806A0290A0
:100CA00004A801900390B46A0F46002C1CD0106871
:100CB0000078002801D001282ED16179022903D0C3
:100CC000814203D0012502E0002506E00025607185
:100CD00010684078A071F8F7E1FAE08DC00703D002
:100CE000002D01D0F6F7FAFA0D4901A8F6F735FE06
:100CF000F8F7B4F9014601A8FDF764FAF8F7BEF970
:100D0000014601A8FDF75EFA00200346009001AA03
:100D100039463046F6F752FF07B0F0BDB45901002E
:100D20002880000030B50B480B49406885B0C0688A
:100D3000144688420CD11046FDF788FA0546204635
:100D4000FDF784FA6946087229466846F8F7AEFE50
:100D500005B030BD5802002028800000FFB50446D1
:100D600087B016460F460089F6F7D6F8002803D05C
:100D70000720C0430BB0F0BD2089F7F76DFD0025BB
:100D8000ED43002816D00C49227D0968D207D20F06
:100D9000891A62892389029305911199009103921E
:100DA000019604970121001D109B0A9AF5F773F92B
:100DB0000028DFD02846DDE70831002070B5104C50
:100DC000002903D00020E070606470BDE179491C07
:100DD000E1710B4960820720091F0871FBF7CCFE07
:100DE0000546FBF7C9FE012801D9012001E0FBF708
:100DF000C3FE291A20461430FBF7DCF970BD000051
:100E00002C31002010B500F00BF804488068426BCC
:100E1000002A02D000210120904710BDD8020020F6
:100E200070B52248FBF7A8F92048F838007A002866
:100E300003D000210846F5F7F9FA0E211C48F5F712
:100E4000D1FA1B4C002805D0A068002802D0002150
:100E5000F7F7F4FC17480068002804D06068002801
:100E600001D0F5F7FFFFFEF775FFFF21593110485C
:100E7000EFF76DFF0D48FF2158380F4D41740B4CB3
:100E80006868783C002803D0FDF709FA686801E03B
:100E9000F7F7A2FFA0630120F8F7A4F8002801D01B
:100EA000002070BD0D20C04370BD000090330020B5
:100EB0001832002050040020D802002000B5064857
:100EC0000649406885B0C068884203D10021684661
:100ED000F8F7ECFD05B000BD580200204A80000084
:100EE00001480068C06A7047480200200248006854
:100EF0002030007C70470000480200200248006853
:100F00002030407C70470000480200200248006802
:100F10002030807C7047000048020020F8B51C4C4F
:100F2000207E81072FD52746203F3E781120304371
:100F300038700020174D207700216378227808460A
:100F4000F2F7F4FDF4F766FE2879C00702D0207F9F
:100F5000401C03E0E878C007F4D000202077F2F7C7
:100F6000C9FD207F002805D0C008E5D0F2F76AFA55
:100F70003E70F8BD207E802108432076E07E01216E
:100F800003F0EAF8F4E74007F3D5F2F75BFAF8BDAF
:100F9000383000200030002070B51C4D0C46287DF4
:100FA000890708D5022804D0FFF7A0FF687503F071
:100FB0001DFA022025E0210703D503F061FA08207D
:100FC0001FE0E10703D000F083F8012019E061077A
:100FD00003D500F07DF8042013E0E10613D50428C2
:100FE0000ED10A481830007841078007014301D428
:100FF000F2F780FD287A042103F036F901202875E4
:101000001020604070BD002070BD0000D030002076
:10101000014800684078704748020020FFB581B061
:10102000002808D01022002102F08AFA002486B29B
:101030002746234D0DE00720C04305B0F0BDE86A08
:10104000E100415AB14203D1E86AE100441805E0E9
:10105000641CFFF7DDFFA042F1DC3C46029800284B
:1010600002D0002C0CD012E0002C01D02760676069
:101070000020E2E7E86AE100405A002817D0641C2B
:10108000FFF7C6FFA042F5DC3C46002C15D0042338
:101090006A4604990398FBF7A5FE0028CDD1009875
:1010A0000102090AC001C00F6160A070E0E7E96AAF
:1010B000E0000E52E96A0C18E7E70820C043BCE7DD
:1010C0008831002001480068808A7047480200206B
:1010D00010B5094C207D02280DD0207800280AD0B8
:1010E000FDF76AFC04202075FAF7EAF9207A10224D
:1010F000042103F07FF810BDD030002001480068C3
:10110000C08970474802002001480068007B704792
:101110004802002010B5817E002916D0017F491EAB
:101120000906090E017710D1418A0122D203002954
:1011300001D0914202D3437F002B07D0437E9B0610
:1011400008D000212830FBF735F810BD002100F051
:1011500019FC10BD002907D0914205D2C17E322270
:101160005143FF319131EDE73221EBE770B5014694
:1011700018480546F5F79AF8164C083C20894005B2
:10118000400F01D0002419E006212846F5F721F987
:1011900000280DD01049A068084206D0FFF792FF42
:1011A000044602F0C7F9844202D2FFF78BFF01E048
:1011B00002F0C0F97D21C900484304460748FAF708
:1011C000EEFF002801D0A04203DB21460348FAF7D6
:1011D000F1FF70BD1031002080F80000D8310020F0
:1011E000FFB507466548F1B0C06B0A9010A809909A
:1011F0000B90B8681D460002000A0490B98A164692
:10120000002A01D0082000E00420401C814203D2C3
:101210000020C04375B0F0BD59480068002802D0D6
:10122000287D400670D568890121C9030122411A31
:101230009203914202D2F6F7C5F900E000200C902B
:1012400070A8007A0F908009C00703D04D48002491
:10125000059089E00E214C48F5F7CDF800281ED006
:10126000324609A9384600F09BFA09980890069082
:10127000B98A002E01D0082000E00420081A69462F
:10128000C8830020888306A909A8019100903346ED
:1012900028460C9A0499FFF761FD00280CD03246CD
:1012A00009A9384600F07CFA099808900690B98A96
:1012B000002E04D0082003E00220C0431FE00420D9
:1012C000081A6946C883002088832E48297D803803
:1012D00000686A892B89C907C90F401A05900293D3
:1012E00006A800900C9927480392019109AB324659
:1012F00001211030F4F7CFFE00288BD1801EE8804A
:1013000006A92846F6F7F6FB32E005982822416A3E
:10131000204650430D9008180E90324609A93846D1
:1013200000F03EFA099808900690B98A002E01D084
:10133000082000E00420081A6946C883002088833A
:1013400006A80F9A0092039009A9059801960291A8
:10135000416A0D980C9B09182846049AF3F7D8FFA8
:10136000002807D0641CA4B2F4F7EAF9A042CCD854
:1013700000204FE70E984088C1E700005C5F010045
:10138000100400208831002018320020F7B58AB000
:101390001646044603F07CF9001D02F017FE070014
:1013A00013D0002007900697089003F071F9694662
:1013B000001DC8830897B088052809D2384602F076
:1013C00019FE0020C0430DB0F0BD0820C043FAE76D
:1013D00044480068002802D0207D40067AD5608904
:1013E0000121C9030122411A9203914202D2F6F768
:1013F000E9F800E000200990B088001FB08008A83C
:10140000007B05908009C00701D000255EE00E2119
:101410003548F4F7F0FF00280FD000206946888394
:101420000898069006A8019000960023216920469E
:10143000099AFFF793FC002822D000206946888390
:10144000089806902948217D0068C907C90F401AED
:10145000628921892369059002A80EC006A8009020
:101460000999224801913346002201219030F4F776
:1014700012FE050007D0384602F0BCFD2846A2E760
:101480000220C04301E00120C043E08006A92046BD
:10149000F6F730FB1EE015486A468030416A282086
:1014A00068430918002004919083089A0692059BCE
:1014B00006AA009301900296039222692046099B96
:1014C000F3F726FF00280AD06D1CADB2F4F738F907
:1014D000A842E0D8384602F08DFD002073E704985A
:1014E0004088D2E710040020183200200831002084
:1014F000FEB506468088152873D330680024414F16
:1015000000900FE0E420B96A60430D18A98B3E48B3
:10151000814206D01522A81D0099EFF738FC00285B
:1015200008D0641C02F038F9A042EBDC0024002C47
:101530005DD101E02C46FAE730463768FCF786FEBD
:10154000054608213046FCF779FE04463046FCF794
:101550005AFE029001A83368009029462046029A5C
:10156000F7F770FF04004BD0E07F022803D16846F4
:101570000079002844D039461522A01DEFF7CCFB96
:101580000020F7F795FF002802D0A08B00282ED16D
:101590001C48032178380646F4F709FF00280AD0D2
:1015A00002213046F4F703FFA907C90F884202D190
:1015B0000020F4F7F9FFA807C10F0298F6F742FDE3
:1015C00006466846E9070279C90F2046F5F7CEFFBF
:1015D000050002D02046F6F727FB002E02D000209F
:1015E00003E00DE0002D02D02046F6F7B3FFF4F73C
:1015F000C9FF012804D16079FF2801D2401C607125
:10160000FEBD000088310020FFFF0000F8B5FAF7AA
:1016100008FE0746002429E01948816AE420604357
:101620000D18A88B174988421FD028681649381A08
:10163000884206D22979154A5143521089188142AD
:1016400013D8002211460220F4F752FC060013D0F2
:1016500031460C312846F4F73BFF2A460C49304608
:10166000F4F7ACFC3046FCF75AFE641C02F094F828
:10167000A042D1DC0020F8BD0620C043F8BD000028
:1016800088310020FFFF0000C0270900102700005C
:10169000805501003EB50446243CFAF7C2FD216A9C
:1016A000401A0F49884204D90021204600F0B6F8BC
:1016B0003EBDE07DE1692246C009083200920191F9
:1016C0000290237E228A618A206800F081FA2046F7
:1016D000F3F718FC014620462430FAF76BFD3EBDB7
:1016E00060EA0000002801D0082070470C207047F5
:1016F00001B504480022006869460368104698470F
:1017000008BD000094550100024A014612680020FD
:10171000926810479455010010B5283800F08EF9F2
:1017200010BD0000FFB581B01F46054600241B4ECA
:1017300006E0B168A0014018C17D490607D5641CC8
:10174000FFF7E2FCA042F4DC002005B0F0BDC17D53
:1017500040221143C17529680160C17DDF2211401B
:101760002A7D1207D20F52011143C175039906C990
:10177000C2608160C17DFA0649094901D20E114358
:10178000C175029909788175A97B01762989018241
:10179000698941820021C161D7E70000EC02002085
:1017A000F7B504460020888088680E46002508604A
:1017B00023E08006C00FFFF795FF0746E07D800617
:1017C000C00FFFF78FFFA18A6843081A8742E07DA8
:1017D00004DA8006C00FFFF785FF06E08006C00F21
:1017E000FFF780FFA18A6843081A6168AA00895838
:1017F00002463046FCF7DBFC6D1CE07DC106C90EDD
:10180000A942D6DA800608D40298B188002801D00F
:10181000082000E00420081AB080FEBDF3B504469D
:1018200081B02430FAF7A8FC1C480068002814D0C6
:10183000E07DC10911D0C206D20E01200021521C48
:10184000E569EFF759FA401E854206D02346628AC1
:10185000218A08332068F5F7EDFB00252F4609E0C3
:101860006068AE008059002803D0FFF74DFF606824
:1018700087516D1CE07DC006C00EA842F0DAE07D05
:10188000BF210840E0750298002805D00021A16022
:101890002760E16027826782FEBD000010040020FF
:1018A00070B50646507E14460D4640060CD4206A9C
:1018B000002809D00368002B06D03046626A98479A
:1018C000607E402108436076002D02D02046FFF75D
:1018D00021FC70BD10B50846FFF71CFC10BD038A43
:1018E0008B4204D1408A904201D1012070470020F0
:1018F0007047F7B5044600890D46C604207EF60CF5
:101900008006C00FFFF7EEFE0746207E8006C00F60
:10191000FFF7E8FEA18A6843081A8742207E04DAAE
:101920008006C00FFFF7DEFE06E08006C00FFFF75F
:10193000D9FEA18A6843081AC7B2A17D0298FCF7B4
:1019400041FC207E4006C00FC101B009014302984E
:10195000FCF738FCB006010EE80801430298FCF7DA
:1019600031FC6807010E207EC006C00E01430298BC
:10197000FCF728FC6068A90041583A460298FCF739
:1019800016FCFEBDF8B50F460546466A046A00F02F
:10199000E7F8284600F018F8002C05D06268002A05
:1019A00002D0314638469047F8BD70B504464068CD
:1019B0008D004059FFF7A8FE616800204851A07EC5
:1019C000401EA07670BD000070B504462830FAF7BE
:1019D000D3FB002626626662A660E6602660268249
:1019E0006682607E35464006400E607609E060689B
:1019F000A9004058002803D0E9B22046FFF7D5FFE0
:101A00006D1C207EC006C00EA84202DBA07E00280E
:101A1000EDD10948A6768268202113468B430A42FD
:101A2000836008D000680021F6F70CFB002802D084
:101A30000020F6F78FFD70BD0831002070B5044618
:101A4000464886B007C803AB07C320686946808B49
:101A50008881207E800200B2000CC881608A0882E2
:101A6000E07E887500200090019002902068009030
:101A700003A80190208A0881E07D8872C87A217EBF
:101A800040084000C90908436946C872A17D800723
:101A9000800F890008436946C872607F002838D1EA
:101AA0001621C9432046FFF76DFF06B070BD61687F
:101AB00080000858002823D0E17D00220120F4F79F
:101AC00017FA050031D028460C3009210646FCF7EC
:101AD000E2FB607E32468106890E2046FFF709FF51
:101AE000207F1E4A401C20772346083A2946684634
:101AF000F6F750FD002803D0207F401E207714E029
:101B0000607E0621C8410121890640181A21C8417A
:101B10006076607E217E8006C906800EC90E8842EE
:101B2000C5D9607E800980016076207F002811D1B0
:101B3000608A002809D00121C903884205D2E17ECC
:101B400032204143FF31913100E0322120462830DC
:101B5000FAF730FB607F401E6077A6E7645F010004
:101B6000F1B500242546194F1FE048202E46464374
:101B7000786800993018884216D0417EC90913D080
:101B8000428A018A0098FFF7AAFE00280CD0002C98
:101B900008D07868A16830188368C068E268591A6C
:101BA000904101D2786834186D1C02F077FCA8428D
:101BB000DBDC002C08D0607E00214006400E607601
:101BC00020462830FAF7F6FAF8BD0000EC020020B3
:101BD000F0B58BB00027129E224C9C460D46039711
:101BE00004971ACC059107940693838B69468B82E0
:101BF0000A8362468A77029005A80390002E02D0DD
