:020000040000FA
:1000000000800020F501000001400020FF010000F9
:1000100000000000000000000000000000000000E0
:10002000000000000000000000000000FF010000D0
:1000300000000000000000000102000003020000B8
:100040000502000005020000050200000502000094
:10005000050200004F10000005020000050200002C
:100060000502000005020000050200000502000074
:10007000F510000005020000050200000502000066
:100080000502000005020000050200000502000054
:100090000348854601F010F900480047B50100000B
:1000A0000080002010B50C4608040AD52C480078C2
:1000B0000FF090FF002801D00FF064FF0120C00373
:1000C00006E0E00705D02648001D02F07DFE012075
:1000D000604010BD7CB5234808F094F8204D694677
:1000E000287001200870032008716A4601211E480B
:1000F00002F012FF612001AA0121C00002F00CFFF2
:1001000019482A460C321021801C02F005FF1648BF
:100110002A461C320D21401C02F0FEFE50242146CE
:10012000032003F07FFB2146042003F07BFB012129
:1001300028780FF0D9FF7CBD10B5012809D002281E
:1001400009D0032809D0062802D108A008F0E4F954
:1001500010BD09A0FAE70CA0F8E70FA0F6E7000031
:1001600020420020A5000000050300004572726FC8
:10017000722E2E0A00000000496E697469616C6974
:100180007A65642E2E0A0000416476657274697384
:10019000696E672E2E0A000057616974696E6720C8
:1001A000666F72206164766572746973696E672E1A
:1001B0002E0A00000C498A6A481502438A6203210C
:1001C00000F090FB00F095FD084909A008F0A4F9A3
:1001D00000F0ADFE00F02BFF02F070FDFFF77AFF9C
:1001E00008F02EF8FCE7000080100040FA0401003F
:1001F00025730A000448804704480047FEE7FEE7ED
:10020000FEE7FEE7FEE7000011020000910000009B
:1002100010B5FF4857210170A8210170FC4A8821C0
:10022000403A1181018904221143018100210170AA
:100230000A2000F021FD012000F06BFC10BDF0B59C
:10024000F34EF34D04275722A824203E403DF049A9
:10025000030008F089F90D080E161B1F24282C3204
:10026000373C41462F000A700C70F07BFB22104097
:1002700003E00A700C70F07B3843F073C8202881CB
:1002800018E00A700C705120C000F8E70A700C707A
:10029000E048F4E70A700C7081208000EFE70A70F4
:1002A0000C708820EBE70A700C700220E7E70A70F8
:1002B0000C702F8100200870F0BD0A700C70932024
:1002C0008000DCE70A700C70D2484D30D7E70A7026
:1002D0000C7095208000D2E70A700C704B20C00093
:1002E000CDE70A700C70CB485C30C8E7C84810B541
:1002F00040380089C1B20B069A0FC748022A05D0C0
:10030000012A04D09A0F06D07D20000210BDC90634
:10031000C90EC24801E0C906C90E00F013FF10BDA6
:10032000BB4A57211170A8211170B94940394B15AA
:100330000028088904D018430881002010707047F5
:100340009843F9E7B24A57211170A8211170B049BA
:1003500020390028C87B05D004231843C873002027
:1003600010707047FB231840F8E7A9498A7B800783
:1003700092089200800F024357200870A82008704E
:100380008A73002008707047A1498A7B8F231A4026
:100390000001024357200870A82008708A730020CB
:1003A000087070479A4A203A917B80078908890033
:1003B000800F0143964857230370A823037091735D
:1003C000002101707047924A203A917B0907090F7A
:1003D000000101438E4857230370A82303709173D3
:1003E000002101707047FEB5894800274038008918
:1003F000C0B201068A0F022A4CD00124A403012AAC
:100400004CD0890F56D00524002000902005000D07
:1004100001907F482038848900267D495722304644
:100420000A70A8220A7001238B74794957220A7036
:10043000A8220A70764A203A948100220A708A7CA7
:100440009207FCD50A8A8A7C9207FCD48A7C9207A0
:10045000FCD5098A019A7F1C891A0DB2FFB2002DC2
:1004600037D02946714305D5012834D0411C32D0FC
:10047000002830D02E4602943046009900F078FED5
:1004800000B2211A8CB202998C4249D1002D45DD6F
:10049000641C44E00220624CC043B6E7C506ED0E82
:1004A0002946604800F04EFE0019C40B2320C043CB
:1004B000401B09E0C506ED0E29465B4800F042FEF0
:1004C0000019C40BA81C4042294600F051FE00B29E
:1004D0009BE70020FEBD002E03DA761EF04306B235
:1004E00002E06D1EE84305B2B5420FDD48485721D2
:1004F0000170A8210170464A0299203A9181002199
:1005000001707D20C0007043019903E07D20C00090
:100510006843114600F02CFE80B2FEBD641EA4B2FA
:10052000142F82D3FF20FEBDFFB581B00C460746D5
:10053000054600261AE0FF219131681E00F018FEE2
:1005400000290AD06421681E00F012FE002907D09D
:100550000320A9078007C14202D1FF206F3001E0CC
:10056000FF206E3080196D1E86B2ADB22F488542D5
:10057000E1D80025012C25D9032C05D0A01E062882
:1005800016DDE00718D115E0FF219131384600F063
:10059000D9FD00290AD06421384600F0D3FD002996
:1005A00001D0B80702D000201C3006E00120FBE794
:1005B000E00701D01E2000E01F208019641E86B2D3
:1005C000A4B2D7E7039818213018401E84B20498CB
:1005D00000F0B8FDE120C00041430A981E225043BC
:1005E00009180B984008081881B20B98C00701D071
:1005F0000120C0030A04024305482038C17B6B4632
:10060000C909C9011970C17B1B78C909C9010FE06B
:1006100040100040020200000048E80100389C1C25
:100620001313000000180D8F00688909E40700000B
:100630009942E3D1694609780029DFD0A6495723BA
:100640000B70A8230B70A44B403B5C63447C80265A
:10065000344344745A63427C40231A4342740D70FD
:1006600005B0F0BDFFB507469B4883B04038C06B6E
:100670000E4684049848A40C2038418B008B01223C
:100680004900D203904201D3012000E00020081865
:1006900000909248388010E00199002925D064210B
:1006A000284600F04FFD002901D0A8071DD0FF20EB
:1006B0006E30201A6D1C84B23D803D88FF2191313F
:1006C000284600F03FFD0191002911D06421284601
:1006D00000F038FD002901D0A80709D0FF206E30B6
:1006E000A042D9D90020308049E0FF206F30E0E7F8
:1006F000FF206F30F4E73588012D04D0062D18D97E
:10070000E8071AD117E03888FF219131019000F0F5
:1007100019FD00290BD06421019800F013FD002978
:1007200002D00198800702D000201C3006E0012092
:10073000FBE7E80701D01E2000E01F20201A84B24A
:100740006D1CA8B23080012804D0062817D9C00734
:100750001AD117E03888FF210546913100F0F2FCEC
:1007600000290AD06421284600F0ECFC002901D0C1
:10077000A80702D000201C3007E00120FBE73078FA
:10078000C00701D01E2000E01F20A042B3D930884E
:10079000641C401C30800598E12104800901009808
:1007A00000F0D0FC069A108008463C2100F0CAFCFC
:1007B0000C9908803C21009800F0C4FC0D98018041
:1007C00007B0F0BD444908B52039CA7B6B46D20951
:1007D000D2011A70CA7B1B78D209D2019A42F4D195
:1007E0006A461278002AF0D03B4A57231370A82398
:1007F0001370394B403B5863487C4023184348747E
:100800000020107008BD34494039886B8A6B8242E1
:10081000FBD1704710B5304A57211170A8211170D3
:100820002D4920394B7CE82423404B744B7C102409
:10083000204303434B740020107010BD00B50346E5
:10084000FFF7E1FF2649C018884201D94942401804
:100850000104090C02D00121090440181E49572245
:100860000A70A8220A701C4A403A50631A4820387D
:10087000427C20231A4342740020087000BD0021EE
:10088000002802D0012802D002E0202100E010213F
:10089000114857220270A82202700F4A203A537C56
:1008A0008B4353740021017070470B492039002895
:1008B000087C02D0402108407047C009C001704741
:1008C00005492039002804D0012801D110200874DE
:1008D00070472020FBE7000040100040E4070000C4
:1008E0000000C0A800B5524A0B0007F03DFE050409
:1008F000071016191F00516B81430AE0516B8143A9
:100900005163116B01431163116A81430DE0516B17
:1009100001435163116B8143F5E7516B814301E062
:10092000516B01435163116A0143116200BD404A9A
:1009300000B540320B0007F017FE0504071016192A
:100940001F00516981430AE0516981435161116976
:1009500001431161116881430DE051690143516107
:1009600011698143F5E75169814301E05169014310
:10097000516111680143116000BD2D4A002906D064
:10098000012907D0022908D0032913D10CE0918A4C
:10099000814304E0918A814308E0918A0143918276
:1009A000D16A0143D16205E0918A01439182916A43
:1009B000014391629083118A0143118270471C4B5D
:1009C0001B4A4033002906D0012907D0022908D04C
:1009D000032913D10CE0D18A814304E0D18A8143F9
:1009E00008E0D18A0143D182D9680143D96005E08A
:1009F000D18A0143D182996801439960D083518A99
:100A00000143518270470A4A803A0028108B01D076
:100A1000084300E0884310837047054A803A002865
:100A2000508B01D0084300E088435083704700009A
:100A300080100040F8B5624D5726614CA827203D34
:100A400000282670277028880ED02115084328809A
:100A50000A2000F011F926702770288861150843D4
:100A6000288000202070F8BD032149028843F7E761
:100A7000F0B5534C57261C228B07514DA8270A402E
:100A80009B0F403C00282E702F7010D0080603D515
:100A9000E07BFD210840E073A07A1043A072484833
:100AA0002038C17B1943C17300202870F0BD0806AF
:100AB00003D5E07B02210843E073A07A9043A07243
:100AC0003F482038C17B9943EDE730B53C4C572374
:100AD0003B4AA825403C002813701570E06804D0FC
:100AE0008843E0600020107030BD0843F9E730B55E
:100AF000334C5723324AA825403C00281370157008
:100B0000A07B04D00843A0730020107030BD884340
:100B1000F9E7F8B52A4D5726294C0021A827203D92
:100B20000028267027700ED00120687128710020DF
:100B30002070012000F0A0F8267027700D20287189
:100B400000202070F8BD29712170F8BD1D48016991
:100B500004229143016130BF7047194B57241C7028
:100B6000A8251D7016494039887B082210438873D8
:100B70000920134E0003203E308000271F70886B31
:100B80008A6B8242FBD1104A0A30904201D952420C
:100B900080180204120C02D00122120480183022A4
:100BA00032741C701D7048632F2070741F701C708D
:100BB0001D70052008811F7040BF20BF20BFFEE7C9
:100BC0004010004000ED00E00000C0A83C490628AD
:100BD00005D04979012282401140084670470878C3
:100BE000082108407047364857210170A82101703C
:100BF00081790122114381710021017070473149CF
:100C00000968016000202F49C043803108607047A7
:100C10002C49086070472C48806970472849572242
:100C20000A70A8220A700028887905D0042210438F
:100C30008871002008707047FB221040F8E72049B7
:100C400057220A70A8220A700028887905D002224B
:100C500010438871002008707047FD221040F8E7AB
:100C6000174857210170A821017081791022114382
:100C7000817100210170704700220AE0022101E029
:100C800000BF00BF0B46491E89B2002BF8D1521C91
:100C900092B28242F2D3704770B500247D26054699
:100CA000F60004E03046FFF7E7FF641CA4B2AC4254
:100CB000F8D370BD0549CA7A082AFCD0087270477B
:100CC0004010004000E100E000E000E0003400409F
:100CD00010B50446FFF70AFB0A214843C008214625
:100CE00000F030FA0A21401D00F02CFA22498881D8
:100CF00010BD10B5E1204002FFF7EAFF1E48872132
:100D000081700321C170402141700121817310BDA8
:100D100019498A789206920E800102438A707047C0
:100D2000154A0028507806D00843507010780821E2
:100D30000843107070478843507070470E498020F8
:100D4000487070470C4A07E0D37A082B04D0037828
:100D50001372491E89B2401C0029F5D17047014623
:100D60000020054A04E0137A401C0B7080B2491C35
:100D7000937A002BF7D1704700340040F0B5564A03
:100D80000021157E547E01261676507E08231843D6
:100D900050769676907EC007FCD19676937EDB07E0
:100DA000FCD1978B4D4B401CBB43591880B2102887
:100DB000F3D308310809517EF7231940517615768F
:100DC00054760121C902081A00B2F0BD0288002938
:100DD0000DD0012911D0022915D0032906D140498F
:100DE0004A4391013F4A8918090C01807047F92153
:100DF00089004A4391013C4AF5E73949491E4A4373
:100E000091013A4AEFE736494A439101384AEAE705
:100E100080010901C01C08432F49487670478001B2
:100E20000901401D08432C49487670472A48C17E75
:100E300080221143C1760F2101762121417670472E
:100E400025480E210176032141767047224823214F
:100E500041760821817670471F4801218176817E85
:100E6000C907FCD1808B0005000D70471A49082284
:100E70008A76C877887EC006FCD4888B0005000D72
:100E8000704770B51B4D4021AB6B9AB21C0C144BD4
:100E90003E335843C00A0301002C05D09001203393
:100EA00018182201801A13E0686B040C010A091952
:100EB0000918050EC9B28D4201D0FF2070BD114640
:100EC000E4B2520800049A184C431219000B101A8D
:100ED00000F04EF970BD000040100040FF0F000010
:100EE000E60300008014340040B0370080C23700B1
:100EF000402136000006040010B5FFF774FA0228FE
:100F000001D9FFF770FA10BDF8B5534CE77E267E85
:100F1000657EFFF78BFFA07E01210843A076A07EAF
:100F2000C007FCD1A08BE77626766576F8BD30B594
:100F30008DB0122249A14E480EF002FF002841D088
:100F4000454857210170A82101705121424AC9002A
:100F5000403A1181002101704748464A4261474AA0
:100F60000724D3691B021B0A45042B43D36181610B
:100F70000461016902229143016134220021684623
:100F80000EF0E4FF3E48009001204003694688804F
:100F90001B20C8730520087401204874142088742D
:100FA000FB20800202900D200877364808903648D2
:100FB0000A90084601F00AF8010007D033A007F0B4
:100FC000ABFAFEE739A007F0A7FAFEE70DB030BD97
:100FD00070B50C4609040AD50EF0FCFF002801D0BC
:100FE0000EF0D0FF01212046C903484070BDE00744
:100FF00002D00120604070BD314DA00405D501F044
:1010000061F801262F4A760308E060040DD52EA072
:1010100007F082FA7D22D2010126B60331462878F4
:101020000FF0B4F92046704070BD002070BD10B5BF
:10103000264807F0E7F8224C207000F063F862B60B
:10104000204A0121490320780FF0A0F910BD10B506
:1010500000F000FF10BD000040100040434835374D
:10106000785F424C455F4C49425F56312E38000054
:10107000FA040100FEFFFF0000E000E004ED00E0E4
:1010800018450020170C0000090F00004C494220B1
:10109000696E6974206572726F7220636F64653A5D
:1010A000202578202E2E2E0A00000000686561643D
:1010B0002066696C65206572726F722E2E2E0A0092
:1010C0004942002000EE02002A200000D10F00005B
:1010D0000104090C02D001210904401816495722C5
:1010E0000A70A8220A701449403948631349002045
:1010F0000860704710493020203908740F490120DA
:10110000086070471CB50C4857210170A821017078
:1011100009492039CA7B07231A43CA730021017089
:1011200000910B460122019111460548FFF7FCF999
:10113000002007F09BF91CBD401000404C420020ED
:10114000E407000030B50B460146002020220124B0
:1011500009E00D46D5409D4205D31D469540491BEB
:101160002546954040191546521E002DF1DC30BD34
:1011700070B500242546002801DA012440420029E8
:1011800001DA01254942FFF7DDFFAC4200D04042C1
:10119000002C00D0494270BDF0B51FB486B00020CD
:1011A0000090019002900698069980B204900798EA
:1011B000090C02040014114307900027089D0998A8
:1011C00006913E463C4603900398A9B20204000CE7
:1011D000039004982D0C154348430021224600F04B
:1011E00018F8C719714110340E46402CECDB384614
:1011F000029A00F00EF8009A019B80180090594165
:1012000002980191103002904028CCDB00980BB07E
:10121000F0BD10B5202A04DB0146203A91400020A1
:1012200010BD914020239C1A0346E340194390408F
:1012300010BD03460B439B0703D009E008C9121FEA
:1012400008C0042AFAD203E00B780370401C491C42
:10125000521EF9D27047F0B51FB40646002082B086
:1012600005464024019100901BE0019922460F465B
:10127000304600F033F8049A059B801A994110D348
:10128000104619462246FFF7C4FF361A8F410197D0
:10129000224601200021009FFFF7BBFF38184D4177
:1012A00000902046641E0028DFDC019B0098294640
:1012B000324607B0F0BD0000064C0125064E05E0A1
:1012C000E36807CC2B430C3C98471034B442F7D367
:1012D000FEF7E2FEF40501002406010010B5202A05
:1012E00004DB0846203AD040002110BD0B46D34015
:1012F000D0402024A21A91400843194610BD70B571
:101300008C180578401C6B075B0F01D10378401CDB
:101310002A1106D10278401C03E006780E70401CAA
:10132000491C5B1EF9D12B0705D40023521E0DD496
:101330000B70491CFAE70378401CCB1A921C03E09F
:101340001D780D70491C5B1C521EF9D5A142D8D3E3
:10135000002070BD10B5124C2068C0051FD50320B9
:10136000206000200821401C2268C0B20A4322608D
:101370000EE02268920510D4222807D90948026B92
:10138000002A0AD001210320904706E0401CC0B289
:101390002268D205EDD50028E5D10020206010BDDF
:1013A00080C300403465002070B514460D460646E3
:1013B000FFF7D0FF2D480368196806229143196092
:1013C000316899627168D962B1681963F1685963CB
:1013D000296899616968D961A9681962E9685962DF
:1013E00059680222914359605D6801210D435D6097
:1013F0001D680D431D6000E000BF59688907FBD5DB
:101400005968914359609969217001688969090A8D
:10141000617001688969090CA17001688969090E08
:10142000E1700068C1692171C169090A6171C1690E
:10143000090CA171C169090EE171016A2172016A89
:10144000090A6172016A090CA172016A090EE1724E
:10145000416A2173416A090A6173416A090CA173E7
:10146000406A000EE073002070BD00008043002041
:1014700010B504F0C7F9024903F01FF9002010BDB0
:101480000604000008B5002808D0002906D0002A6C
:1014900004D01088002801D0002008BD1220694621
:1014A00008706A460121034803F003F96946087889
:1014B00008BD0000350C000008B503F057FE694672
:1014C00008706A460121034803F0F3F8694608787A
:1014D00008BD00002720000008B503F091FE694612
:1014E00008706A460121034803F0E3F8694608786A
:1014F00008BD00001120000008B503F0C9FF6946CF
:1015000008706A460121034803F0D3F86946087859
:1015100008BD00002920000008B503F0BFFF6946A0
:1015200008706A460121034803F0C3F86946087849
:1015300008BD000010200000FEB508AF70CF6F4658
:1015400070C703F0D1FF0446024903F0B6F8204605
:10155000FEBD00001320000008B504F043F9694601
:1015600008706A460121024803F0A3F8002008BD74
:101570000E20000038B5044604F0B4FA694608703D
:101580004C70200A88706A460321024803F091F8E3
:10159000002038BD1B20000038B5044604F0BBFA1B
:1015A000694608704C70200A88706A460321024818
:1015B00003F07FF8002038BD1A2000000EB500A807
:1015C000013004F0DEFD694608706A4609210248D0
:1015D00003F06FF800200EBD1820000008B500A829
:1015E000013004F071FA694608706A460421034824
:1015F00003F05FF86946087808BD0000022000008B
:1016000038B5044604F0F6FD694608704C70200AAF
:1016100088706A460321024803F04BF8002038BD69
:10162000212000007FB5044608A861C800900296FA
:101630000195204604F0F6FD694608734C73200AB4
:10164000887303AA0321034803F033F8002004B091
:1016500070BD00002020000008B505F02BF8694699
:1016600008706A460121034803F023F869460878A8
:1016700008BD00002D20000008B505F0B9F8694646
:1016800008706A460121034803F013F86946087898
:1016900008BD00000820000008B505F031F86946D3
:1016A00008706A460121034803F003F86946087888
:1016B00008BD00000A200000F0B585B00AACF0CCEF
:1016C00003976F4670C705F0B3F86946087404AA1B
:1016D0000121034802F0EDFF6946087C05B0F0BD2A
:1016E0000620000008B505F02DF9694608706A4625
:1016F0000121034802F0DDFF6946087808BD0000BB
:101700000520000008B505F05BF9694608706A46D7
:101710000121034802F0CDFF6946087808BD0000AA
:101720002E20000008B505F061F9694608706A4688
:101730000121034802F0BDFF6946087808BD00009A
:101740000C20000008B505F093F9694608706A4658
:101750000121034802F0ADFF6946087808BD00008A
:101760000920000010B505F0A1F9024902F0A5FF1B
:10177000002010BD1920000010B504F00CFA10BDB7
:101780001CB500A8013004F00BFD694608706A46DC
:101790000721034802F08DFF694608781CBD000050
:1017A0000910000010B504F0E9FE10BD0A780270BF
:1017B0008A7842704A88120A82700979C1700420BE
:1017C00070470A7802700988090A41700220704740
:1017D00008888004000C70478A7802708878012895
:1017E000088804D012214843401C80B27047800012
:1017F000FAE70A7802700A88120A42704888801C48
:1018000080B270470A7802700A88120A42708A7899
:1018100082704A88120AC2708888001D80B27047A0
:10182000088870478A780270088849884843401CB5
:1018300080B270478A780270088849884843401C03
:1018400080B2704708887047088870477FB5154692
:101850000446022901D0102903D1022B04D0102BF9
:1018600002D0002004B070BD994202D10A46294638
:1018700007E01029694607D000F00EF810226946EB
:1018800028460EF05DFAEDE7104600F005F810224C
:1018900069462046F5E7000070B50C4605000CD0FF
:1018A000002C0AD01022064920460EF057FA28785C
:1018B000207368786073012070BD002070BD000047
:1018C0009C05010008B500220B4600920122024946
:1018D00007F018F808BD0000AD17000008B50A8829
:1018E000172A07D300220B4600920322024907F071
:1018F00009F808BD022008BDC317000008B5002183
:101900000B461922009106F0FDFF08BD38B50546CB
:1019100008880C4600280DD0606800280AD00121F4
:101920000EF0CAF90090234607220349284606F024
:10193000E9FF38BD022038BDD117000038B5054693
:1019400088780C46012801D0022810D12088002870
:101950000DD0606800280AD002210EF0ADF9009089
:10196000234605220349284606F0CCFF38BD022055
:1019700038BD0000D9170000064910B5884202D1D1
:1019800003F070FA10BD0BF0B7FE0028FAD1172053
:1019900010BD0000FEFF000038B505464A68002073
:1019A0000C46002A03D0032110460EF085F9009062
:1019B00023461D220249284606F060FF38BD00007C
:1019C000F3170000024800210160416070470000E9
:1019D000A44300200098022B01D0042070475178C6
:1019E0001278090211430180002070470098012BF2
:1019F00001D004207047117801700020704770B545
:101A0000049C1E461546062B1BD3687829780002D5
:101A100008432080E878A97800020843608002200B
:101A200020710246291D601D0EF098F9B01F20811B
:101A3000062E03D0AD1DE560002070BD0020E060E3
:101A4000FAE7042070BD0098042B01D004207047F1
:101A500051781378090219430180D17892780902EC
:101A60001143418000207047F8B5C4880D46002C12
:101A70002BD086683778390601D4002010E00D2C71
:101A800023D30C3CA4B2311900914088234632463E
:101A9000012106F0C1FA002801D0022000E0012057
:101AA00079062870C90FBA066970920EAA70641E72
:101AB0002204120CAA8002D0761CAE6001E0002243
:101AC000AA60022803D1002901D00120F8BD00201E
:101AD000F8BD10B50298042B14D35178147809027C
:101AE00021430180D1789478090221434180191F54
:101AF0008180042B02D0121D826001E000218160F0
:101B0000002010BD042010BD0098042B01D004203B
:101B1000704751781378090219430180D17892787F
:101B20000902114341800020704710B50298114608
:101B3000062B03D0142B03D0042010BD022200E09A
:101B4000102202714A780B7812021A430280CA7876
:101B50008B7812021A4342800279401D091D0EF053
:101B6000FDF8002010BD0098D90706D1022B04D043
:101B70005908818002600020704704207047009857
:101B8000022B01D0042070475178127809021143CA
:101B900001800020704710B5029C022B11D32072E7
:101BA000617250781178000208432080981E60808E
:101BB000022B02D0921C626001E0002060600020D5
:101BC00010BD042010BD000038B5054688680C46DD
:101BD000002802D005210EF06FF80090234617224E
:101BE0000249284606F08EFE38BD000005180000A8
:101BF00038B5054648680C46002802D001210EF091
:101C00005BF8009023460D220249284606F07AFE32
:101C100038BD00002118000038B5054608880C467C
:101C200000280DD0606800280AD002210EF044F888
:101C30000090234611220349284606F063FE38BD72
:101C4000022038BD2518000038B5054608880C4626
:101C500000280DD0606800280AD002210EF02CF870
:101C60000090234609220349284606F04BFE38BD62
:101C7000022038BD3518000038B5054648680C46C6
:101C800000280AD001210EF017F8009023460F22F9
:101C90000349284606F036FE38BD022038BD000054
:101CA0004518000038B505464A6800200C46002A51
:101CB00003D0012110460DF0FFFF009023460B22B8
:101CC0000249284606F01EFE38BD000049180000F3
:101CD0000149086070470000A443002070B5054624
:101CE00008480C46854205D0172C03D303F0BAF8F8
:101CF000A04201D2012070BD214628460BF0A0FD74
:101D000070BD0000FEFF000008B500210B46132245
:101D1000009106F0F7FD08BD044803490068016022
:101D20000349C16270470000A522080184430020D6
:101D3000784E010010B5074C5D202168086505F05C
:101D4000A9F820680021016503484279521C4271BC
:101D5000C17110BD704200208865002070B52C490B
:101D6000002048602B4800892B4CC0B28109022911
:101D700004D0012908D0810916D026E0C820A0800F
:101D80001020E080E8201FE0C506ED0E2D2029463A
:101D90008001FFF7D7F9A08029467820FFF7D2F914
:101DA000E08029461D480DE0C506ED0E2946C020FD
:101DB000FFF7C8F9A08029460820FFF7C3F9E080A3
:101DC0002946E820FFF7BEF920811649144808602B
:101DD00016491548086017491548086017491648FC
:101DE000086018491648184C0860184920680122F4
:101DF000D2020861801848610120487100F062F940
:101E0000607D002802D112492020086070BD0000CA
:101E1000744200200010004068650020980D00000A
:101E200000C000408843002000C3004080430020E1
:101E300000C200407042002000D000408C430020CF
:101E400000C10040844300203465002088650020E4
:101E500000E100E0F8B55648006881680127C9052F
:101E60000025544C544E00292EDA81683A029143E1
:101E70008160207840060CD550485149006888425E
:101E800006D15049886BE0608A6B9042FAD100E03D
:101E900080472078384320706570E079062803D0A9
:101EA00043495D2009680865306800280AD0016947
:101EB0000A68406902430A603168086802688968F4
:101EC0000A4302606571A560394B1868816889050D
:101ED00021D581680122520291438160A078384364
:101EE000A070E57038480068C16A89088900891CBB
:101EF000C1620168D20411430160306800280AD031
:101F000041680A68806802430A603168C8680268EC
:101F100049690A43026018688168890717D5816892
:101F2000022291438160E770A5705D2101653068F0
:101F300000280AD001690A68406902430A603168D2
:101F40000868026889680A4302606571A5601868BC
:101F50008168C90715D081684908490081602570EA
:101F60006770306800280AD041680A6880680243B8
:101F70000A603168C868026849690A43026065718D
:101F8000A56018688168C90603D58168102291434D
:101F900081608168490703D581680422914381608B
:101FA0008168090703D58168082291438160F8BDE3
:101FB0007042002088650020784200206C4200209A
:101FC0008D7B0000001000408443002070B5044663
:101FD0000068002828D00121000C4903884223D141
:101FE000A088002820D020460622FF2116300DF0C0
:101FF00098FE01281AD0A288002120680DF0A6FFC3
:10200000342200212D480DF0A1FF342221462B4817
:102010000DF0A4FE294806221630002105460DF0D9
:1020200080FE012804D008E0022070BD032070BDAE
:102030002349062228460DF091FE20488189002977
:1020400002D1012149028181827B0121002A00D134
:102050008173C27B002A01D11B22C273027C002A39
:1020600001D105220274427C002A00D14174817C96
:10207000002901D114218174817F002901D12821F7
:102080008177C17C002908D0827FE17C9208891881
:10209000C174617F002904D005E0817F89082D315A
:1020A000F6E702214177806A002803D08047034980
:1020B0003431488106F05EF8002070BD34650020A0
:1020C0000806040010B500F065F803F033F804F0DA
:1020D0007BFEFFF721FE0B4C5D202168086504F0B4
:1020E0008BFF05F049FD04F04FFF04F0D3FE0648D6
:1020F00001214171226800211165C171FFF72AF9A0
:1021000010BD0000704200208865002070B50E4BA5
:1021100000209989002901D10C4999810E210124BF
:10212000A4039A8915462540CD405204120C05435C
:10213000E8B25604D50BF60F75401543491EC9B2D7
:102140009D810629EDD870BD2C670020FF7F00001F
:1021500070B50E4B00205989002901D10C495981D5
:1021600008214C015A8915462540CD4005435200AF
:10217000E8B2550A56097540ED07ED0F1543491EA3
:1021800009065D81090EEDD170BD00002C670020AD
:10219000FF0100000A48094900680A6902610A69EA
:1021A000426149698161C1618268012149030A4331
:1021B0008260C2680A43C2607047000088650020E0
:1021C0008843002030B5104A0346517AFD2084240C
:1021D00054720E4CA568002D07D0A57B002D04D0AD
:1021E000A489E51FFF3DFA3D02D05172FF2030BDAA
:1021F0007D24E402A34205D35360A6201072907A96
:1022000040235840517230BD001800403465002012
:10221000F8B500240F4E274613E0F06B250128186F
:102220000622FF210DF092FEF06B06222818FF21F6
:10223000801D0DF08BFEF06B28188781641C87735E
:10224000E4B2307E8442E8D300200DF05FFF307EA0
:102250007076F8BDC044002070B50C4601460120E0
:1022600080020A1A00252B48130006F07DF9201180
:102270001316181A1D1F21232527292B32343648FF
:10228000393B3D3F4348484848484848484641480C
:10229000007800E04078207039E08078FBE7C07873
:1022A000F9E710221C4910E00079F4E74079F2E7E1
:1022B000006A13E08079EEE7C079ECE7007AEAE79C
:1022C000407AE8E714491022103120460DF046FD0F
:1022D0001DE0807ADFE7C07ADDE7406A206016E023
:1022E000007BD8E7407BD6E7807BD4E7407CD2E711
:1022F000807CD0E706F0FAFFCDE7807DCBE7192997
:1023000004D2084601F050F8208000E0022528465B
:1023100070BD0000C04400200C67002010B50446CA
:1023200000F03CF80248C47507F01AF910BD00002F
:10233000C0440020F8B501F0CDF800282BD1164D8F
:102340000026E87C012801D000241CE007F01AF8E0
:10235000EE7400202A7EE96B04E003015B18401C48
:102360009E73C0B29042F8D310E0E86B2701381892
:10237000807B012805D1204607F016F8E86B381855
:102380008673641CE4B2287E8442EED350200DF0A4
:10239000DFFE07F0E5F8F8BDC0440020F8B5354E83
:1023A000FF20F07500273776334CF763A07B302190
:1023B000484342210DF0EEFCF063002825D0204672
:1023C000807B410040183076002413E0F06B25013B
:1023D00028180622FF210DF0B9FDF06B06222818FF
:1023E000FF21801D0DF0B2FDF06B28188781641C61
:1023F0008773E4B2307E8442E8D31F4880680028A7
:1024000001D0B77601E08020B076307E707601246E
:10241000776334707770B770F77010220021174817
:102420000DF094FD3771772575713762B471F771CE
:102430001248377277721022002110300DF086FD9D
:10244000B772F57277623773052070731020B0731E
:10245000F77302203074B762F76237637774F774EA
:10246000347504487475B4750549483001600549F0
:102470004160F8BDC0440020346500200C67002096
:10248000719800003998000070B5264D0C4608047C
:102490000FD5E87D0DF09EFD050006D007F006F98A
:1024A000002802D028460DF06DFD0120C0036040D9
:1024B00070BDA0070BD50021084606F08BFD022158
:1024C0004C40002825D1E87D0DF00EFE1FE0E0070E
:1024D00021D0686B808807F01BF901214C4000284F
:1024E00017D0A86A00280DD04368002B0AD0686B6B
:1024F000002280889847A96A686B00224B68808810
:1025000003219847287D0DF03FFE06F055FD20463B
:1025100070BD0121D7E7600702D50420484070BD97
:10252000002070BDC04400207FB5044680787F4DF8
:10253000801F030006F018F80AF4F7F7A41306F05A
:10254000F778B9F7A96A2046002907D00C68002C53
:10255000FBD0437B027B4189C01CA047E3E060784D
:102560000026002847D1A079C00744D0686B002816
:1025700041D11022002168460DF0E8FC6169002974
:1025800003D006226846103107E0A0880AF0DEFF7B
:102590000028E3D0811D062268460DF0DFFB694666
:1025A0008889A1794907C90F08436946888106F0DF
:1025B0009DFE297E88420BD1A87D002801D0FFF71F
:1025C00027FE5B48026B002A02D0012108209047B9
:1025D00006F08CFE297E8842A87E02D101210843A4
:1025E00001E040084000A8762146684606F0F2FC6B
:1025F000002812D01526A86A002855D04368002B61
:1026000052D06278A08801219847002E4CD0A96A48
:10261000A0884B683246032173E00221E87D0DF06B
:1026200063FD002004B070BD6078062817D1A08833
:102630000AF08CFF060012D0287C012804D0022862
:1026400008D003280BD114E07179A088002206F08D
:102650005FFD04E0A1883078052201F00DF9A86A39
:10266000002860D04368002B5DD06278A0880221EA
:1026700047E0002241201146000100F0F7F8E9E7A9
:10268000E0780022211D00F055F8297E88424AD2C8
:102690000621484325302246C0B20C3204210DF0F9
:1026A000D7FD287D0DF070FD3DE0287B002802D08D
:1026B000A088697B28E028780028A08823D00AF029
:1026C00045FF06002FD0A07AC0070BD070790028F4
:1026D00008D0A189890505D46A46B11D00F02AF801
:1026E000002814D022467179A088083206F010FD27
:1026F000A86A002817D04368002B14D00022A088B5
:10270000114698470FE0052101F0A6F80BE0A088DC
:102710000321F9E700E003E0A08800F031FA02E0CD
:10272000A088FFF707FE01207CE70000C0440020DE
:1027300034650020F0B52E4E85B0347E15460F4628
:10274000002806D0012804D0022811D003284BD13C
:1027500021E0084606F09CFE317E0446884243D2C2
:10276000002D41D00622394628460DF0F7FA3BE00D
:1027700000240BE0F16B2001401806223946801D31
:102780000DF0DEFA002826D1641CE4B2307E8442CB
:10279000F0D3C4B21FE0002419E0204606214843CC
:1027A0002330C0B26A4610210DF00EFD00280CD176
:1027B0001022FF2168460DF0B4FA002805D13946F1
:1027C000684600F0FDFF002805D0641CE4B2307EAE
:1027D0008442E2D3DDE7307E844205D2002D03D06F
:1027E0002946204606F07CFE204605B0F0BD0000DC
:1027F000C0440020F8B50E4619491525194F8842E6
:1028000014D1002409E032460221204606F088FD5A
:10281000002800D00025641CE4B2387E8442F2D344
:10282000002E1BD010480AF0AFFF17E00AF08EFE12
:10283000040012D060790022A11DFFF77BFF397ED2
:10284000884204D23246022106F06AFD0025002E9D
:1028500004D0204606F0C6FE00E014252846F8BD48
:10286000FFFF0000C0440020E5950000F0B50746DA
:10287000012080021546381A89B00024BC4ABD4E9A
:10288000030005F071FE2011181F262D333A3F4634
:102890004D545B626970757CEFEEEDECEBEA89E913
:1028A000E8AAAAF3F6E5E4EB012971D12878022819
:1028B0006ED8307059E10129F7D128780128F7D86E
:1028C000707052E10129F0D128780428F0D8B07056
:1028D0004BE10129E9D128780128E9D8F07044E1D9
:1028E0001029E2D110222946A348ADE00129DCD10C
:1028F00028780128DCD8307137E10129D5D1287832
:10290000707132E10429D0D128689042D0D8306269
:102910002BE10129C9D128780228C9D8B07124E156
:102920000129C2D128780128C2D8F0711DE10129FE
:10293000BBD128780428BBD8307216E10129B4D164
:1029400028780128B4D870720FE11029ADD18A48D7
:1029500010222946103077E00129A6D128780128D5
:10296000A6D8B07201E101299FD12878F072FCE06D
:1029700004290DD1286890420AD87062F5E0002938
:1029800006D100F0A7FD002803D00120F074ECE090
:1029900074E006F0F7FC1CE007296FD10622691CE1
:1029A00068460DF0DBF9287800226946FFF7C2FE81
:1029B0000546307E854239D200F08CFD002805D0D6
:1029C000F26B0120290189188873CEE0284606F0B1
:1029D000EBFC50200DF0BCFB96E007294ED10622FF
:1029E000691C07A80DF0BAF92878002207A9FFF79B
:1029F000A1FE317E88421BD206214843054621357F
:102A0000E8B26A461C210DF0DFFB00280ED15B48BE
:102A1000874201D1012000E0FF206946C876E8B274
:102A20006A461C210DF014FC307D4BE002249CE032
:102A3000B07E0028FAD05148874214D10120F076A8
:102A40004C480722294640300DF088F98DE05EE0C1
:102A50007AE00EE00AE075E06FE067E07BE04AE0D4
:102A600041E039E031E00020F0767EE00020707532
:102A70007BE00027012070753D461BE066E028469C
:102A80000621484306462136F0B26A461C210DF065
:102A90009BFB00280CD16846C07EFF2808D0FF2091
:102AA0006946C8760127F0B26A461C210DF0D0FBBA
:102AB0006D1CEDB22F48007E8542E0D3002F54D02C
:102AC0002C48007D0DF060FB4FE001293ED12878B5
:102AD00001283BD8307348E0012937D128780928EC
:102AE00034D8707341E0012930D12878C11F0929F9
:102AF0002CD8B07339E0012928D1717C2878707402
:102B0000002932D1012830D106F02AFD2DE001291B
:102B10001CD1B17C2878B074002903D1012801D1DF
:102B200006F01EFDB07C01F054FE1EE001290DD11F
:102B3000287803280AD8307417E0012906D12878AC
:102B4000307512E00120BDE7012901D018240CE006
:102B50002878B07509E0192F00D367E70229FCD166
:102B60002988384600F05EFE0446204609B0F0BDD4
:102B70003F420F00C04400200C6700201A040000F0
:102B8000FEB5064600200190029030460AF0DEFCB9
:102B9000040017D0144FB879022813D0607901AA25
:102BA000A11DFFF7C7FD0546387E85420BD228469A
:102BB00006F0B6FC02460120009008232946304664
:102BC00006F06CFBFEBDB879002807D00128F9D1CA
:102BD00061790022304606F09BFAFEBD05213046A1
:102BE00000F03AFEFEBD0000C0440020F7B51649D3
:102BF0001525164E174688420FD1002409E03A46A3
:102C00002046019906F0F8FC002800D00025641C3D
:102C1000E4B2307E8442F2D313E00AF097FC00283D
:102C20000ED04379811D00221846FFF783FD317EC7
:102C3000884206D23A46019906F0DEFC002500E003
:102C400014252846FEBD0000FFFF0000C044002000
:102C500010B5114C2078FF281BD1104805F0D2FA8E
:102C60002070FF2815D00E4A002111600D4A0E4B2E
:102C7000117001221A700D4B03221A700C4A0D4B71
:102C8000117007221A700C4A117000F093FD002099
:102C900010BD182010BD0000304300201D2D000085
:102CA0002C430020384300203143002039430020CA
:102CB0003A4300203B4300203C43002010B502F083
:102CC000B5FB104805F09EFA02F0DEF80E4805F05C
:102CD00099FA00F075FB0D4805F094FA01F0CAF975
:102CE0000B4805F08FFA05F017F80A4805F08AFA44
:102CF000FFF714FB084805F085FA00F049FEFFF7DE
:102D0000A7FF10BDCD4F0000D136000029410000C3
:102D1000297E000089240000113B00003EB5214DB2
:102D20000C46080411D528780DF054F9050009D097
:102D30000178912903D0D02901D107F055FD28460B
:102D40000DF020F90120C0032AE0E00729D0164841
:102D50000078002823D01548694600780870144888
:102D600006220078487000A8124902300CF0F6FFE5
:102D7000114869460078087210480078487228782F
:102D800000F03AFB00280AD00D49062008700D49D2
:102D90000968002903D00968002900D0884701206C
:102DA00060403EBD304300203343002039430020C3
:102DB0003A430020484300203B4300203C4300208E
:102DC000384300202C4300201CB50B49097800290A
:102DD00001D011201CBD002801D008490860002046
:102DE00000900346024601900548017805480078A6
:102DF00000F05CFA00201CBD384300202C4300206A
:102E0000314300203043002070B50C4601460320BA
:102E100000020A1A00252548130005F0A5FB130B34
:102E20000D10171A1E2125292B2D3133393B3D3D1D
:102E300035373D00407811E010221D4902E01C4961
:102E40001022103120460CF089FF2DE040692060EF
:102E50002AE0164906221E31F4E7C078207023E0EC
:102E6000124982782431EDE7114902791F39E9E7E7
:102E7000407AF3E7807AF1E70C4906221831E1E75E
:102E8000C07AEBE7007BE9E7C0890AE0008A08E046
:102E9000007AE3E74079E1E7192904D2084600F017
:102EA00083FA208000E00225284670BD30430020D0
:102EB0007B660020F8B5164CFF2020700025657059
:102EC0000320A0700126E670062765611920E781BE
:102ED000C001208220461F22294624300DF036F8FA
:102EE00020460221243001704670877025711F2210
:102EF000002108480DF02AF820460622002118304B
:102F00000DF024F86571A571FF20E071F8BD000097
:102F1000304300205C660020F8B50C465E4916463A
:102F2000421819210025C9015C4F130005F01CFB54
:102F3000120A1017A81C3E526970778188A8A3A8AE
:102F4000A88F98A8102C73D11022314654486CE0F9
:102F5000102C6DD1524810223146103065E0042CFF
:102F600066D13068786190E0012C61D1F9783078D1
:102F70004A4AF870127800290AD0002807D1387A16
:102F8000022801D0052802D1104600F0E3F97CE0C8
:102F900000287AD0387A012803D0032801D00428E9
:102FA00073D1012110460DF09FF86EE01F2C60D800
:102FB0003A481F22002124300CF0C8FF374822462F
:102FC000314624300CF0CAFE344BBC702433224608
:102FD000012112E01F2C4CD831481F2200211F383C
:102FE0000CF0B4FF2E48224631461F380CF0B6FED6
:102FF0002B4B3C711F3B22460021387800F080FCAF
:1030000048E0012C35D13078042832D878723CE081
:10301000012C2ED1307803282BD8B87235E0062C3D
:1030200027D11E480622314618300CF097FE2CE0BE
:103030001FE0012C1DD1307807281AD8F87224E03F
:10304000012C16D13078032813D838731DE030884E
:10305000022C0ED106280CD388420AD8F88114E03D
:103060003088022C05D1062803D3884201D8388243
:103070000BE0182509E0012CFBD13078787104E0D1
:10308000192801D2022C02D002252846F8BD318829
:1030900000F0C8FB0546F8E7FFFCFFFF30430020C7
:1030A0007B660020F8B50E46070048D038880AF045
:1030B0004DFA050041D0234AA96BD078022806D0EA
:1030C000012804D0287B082803D1002E01D0122427
:1030D00036E0002901D0112432E01B492C200CF0ED
:1030E00059FE0446A863200025D02C2200210CF0B4
:1030F0002DFF388860801C22391D201D0CF02EFE0B
:10310000022020700F483A880178287B082810D0C8
:103110000020231D04F035FF0446002E03D0314665
:1031200028460BF02BFC002C0AD0284606F0CCFCDD
:1031300006E00120EDE7132402E0142400E002245D
:103140002046F8BD9A43002014470000FFB51F48F1
:1031500081B0C0781E4617460D46022818D00128B7
:1031600016D0002F30D001980AF0F0F9040029D0D1
:10317000E06A002801D00CF063FE1C2138460CF0F8
:10318000F9FDE062011E1BD0207B082803D00DE072
:10319000122005B0F0BD002E08D0887E00900B46AE
:1031A00012330A8A01980BF031FF00E000202179E8
:1031B000002D01D0062200E0042211432171E8E72E
:1031C0001320E6E71420E4E70220E2E79A43002018
:1031D00010B50548C078000701D5044800E000207C
:1031E00007F0F0FA10BD00009A430020B843002019
:1031F00070B51A4C05460121207806F08BFC184862
:10320000C1780A20014223D02570164807F0D4FA6D
:10321000606800281AD1207800281DD000010721FD
:103220000CF0B8FD6060002810D021780A01002160
:103230000CF08CFE0020FF21626803E00301401CBB
:10324000D154C0B223789842F8D305E0132070BD62
:103250000020207007F0B0FA002070BDAC430020C1
:103260009A4300209C6600200949002008704860AD
:103270008860094807490160084941600849816040
:10328000034808490C30016007494160704700005D
:10329000AC430020159A00009C66002039A3000072
:1032A00095A20000F59800002D990000F8B50224C1
:1032B000079F1D461646042919D004DC012907D0B2
:1032C000022945D10BE008291BD00C2940D129E067
:1032D00000F040F904003BD100F094F938E000F030
:1032E00039F9040034D13046FFF782FF30E000F0B6
:1032F00031F904002CD13A462846069900F064FAC8
:1033000020E000F027F9040022D13A462846069929
:1033100000F05AFA3046FFF76BFFFFF759FF04F051
:103320000DFD15E000F016F9040011D13A462846CB
:10333000069900F049FA3046FFF75AFFFFF748FFB9
:1033400004F0FCFC00F05EF900F044F904F0D0FD5C
:103350002046F8BD70B5104C2168002919D00978B5
:10336000814214D10D4D022128780DF06DF80C48E2
:1033700000264680287804210DF066F80948467139
:10338000216803204870002001F02BFA70BD032053
:1033900070BD122070BD0000904200209A430020B2
:1033A000C0430020A0650020192801D302487047BF
:1033B00002494000085A7047FFFF0000C065002026
:1033C00010B5044600F08AF800F062F9FFF74CFFF0
:1033D000FFF770FD0649FF23CB7000228A700A7147
:1033E0000448052143700470204601F037FE10BDEB
:1033F000A06500209A430020F3B5304E00243068C9
:1034000083B0002802D0112005B0F0BD2C4D05215D
:10341000E878084201D11220F6E72A4949680029D4
:1034200005D00978002902D0C00702D008E010209A
:10343000EAE700F04FF807460AF0A0F9874207D301
:1034400004980078022803D0032801D0122432E027
:103450001D490C200CF09EFC306000282AD00399F6
:103460000170002141700A22801C04990CF076FC46
:10347000164EB078032806D007F094FB04001AD04B
:1034800006F016FB17E006F09BFB694604F0D1FB43
:10349000684606F081FE012030711120FFF784FF9D
:1034A0000006000E707106D02878094A04210CF03D
:1034B0005BFF00E013242046A6E7000090420020B6
:1034C0009A430020C043002017470000A065002059
:1034D0000077010010B50AF03BF910BD1A48002131
:1034E0000170417041608160C16001614161816131
:1034F0001648B42201804280012292038280A022D9
:10350000C28002811022428182815023C3810382C2
:1035100042828282C2827D2302831B014383818394
:10352000C18301840F234384094B83840723C3840D
:103530000285012242857E22D2438285C185018691
:10354000491E4186704700007C420020C065002073
:1035500080BB000070B50E460546202200210948B8
:103560000CF0F4FC074C0848E570C67001F068F9EF
:10357000002803D000202070122070BD012121708E
:1035800070BD0000A06500209A4300207FB504466E
:103590000D46084609F0DAFF002817D00C4884428F
:1035A00012D21022002168460CF0D0FC69460C7043
:1035B000200A4870200C8870200EC8702946684682
:1035C00004F0F0FB04B070BD0220FBE71220F9E725
:1035D00040420F0010B50848C078400707D507489B
:1035E00007F0FCF800200649C043C88010BD002049
:1035F00007F0F4F810BD00009A430020D0430020EB
:10360000A0650020F8B51E4C00256068002802D097
:103610000CF016FC6560E068002802D00CF010FC8D
:10362000E560184E0527F078384224D0164807F098
:10363000CFF8F07838421CD0144920200CF0AAFBB7
:103640006060002815D0202200210CF07FFC0F497B
:103650002020491E0CF09EFBE060002805D02022AF
:1036600000210CF073FC0020F8BD60680CF0E8FB52
:1036700065601320F8BD002007F0AAF8F3E700000A
:10368000C04300209A430020A8660020164700008F
:103690000948FF2101700021418041608160C160C3
:1036A00007480649016007494160074981600249AE
:1036B0000648103108607047C0430020359E000066
:1036C000A8660020C59E0000A5AB0000A59D0000D7
:1036D000FEB5354F354D0C4608041FD538780CF033
:1036E00079FC061E17D03078A22806D07D783046A7
:1036F00006F068FF00280AD102E02C48C578F6E7FA
:10370000FF2D04D0314628460CF09CFCE6E73046FD
:103710000CF038FCE2E70120C00341E0E00701269D
:10372000234900280AD04868002804D041680029AD
:1037300001D00020884720467040FEBDA00709D573
:10374000C868002804D04168002901D001208847BA
:10375000022025E0600725D5687900281FD0401E8B
:103760000006000E68711AD14869002808D02E7131
:10377000C868002804D04168002901D0012088478A
:103780006946E86804F055FA684606F005FD112020
:10379000FFF70AFE6871387804210CF055FE04200A
:1037A0006040FEBD0020FEBD9A430020A0650020C1
:1037B0007C42002001494870704700009A43002075
:1037C00010B504F06FFB10BD70B5154C0E4662616C
:1037D00021610546E0601022FF2130460CF0A1FA7D
:1037E000012806D01022002130460CF09AFA012858
:1037F00003D1102120690AF0B3FE1022FF212846D0
:103800000CF08FFA012806D01022002128460CF077
:1038100088FA012803D11021E0680AF0A1FE70BDEA
:10382000A065002070B50C460546192802D208484C
:10383000844201D1022070BD112D04D13C2060438F
:1038400080B200F0E1FF034968000C52002070BD17
:10385000FFFF0000C065002038B50C46054609F0A2
:1038600075FE002806D068460470694628460BF0AD
:1038700079FB38BD142038BDF7B505461E48122621
:103880001E4F0C46814208D1B868002832D0026829
:10389000002A2FD028469047FEBD1748401C84427E
:1038A00019D1B868002806D00268002A03D028463B
:1038B0009047002806D02846029905F053FB0600E1
:1038C00005D017E07D70029838700020FEBD7D7035
:1038D000029838700EE0084609F038FE002809D03A
:1038E0000078A84201D00320FEBD2046029900F0D6
:1038F000ECFEFEBD3046FEBDFEFF00007C42002017
:1039000070B51446024620481E46C078052318426A
:1039100024D01E4D00296B68E86802D0002B1DD012
:1039200001E000281AD0202C2CD2002C01D0002E2F
:1039300028D02A70002913D01F220021581C0CF017
:1039400005FB686822463146401C0CF007FA69689E
:1039500020460C70491C00F040FF70BD122070BD65
:103960001F220021401C0CF0F1FAE8682246314683
:10397000401C0CF0F3F9E96820460C70491C00F07B
:103980004BFF70BD022070BD9A430020C043002051
:10399000F8B5044600F088FD00F046F8114F134ECC
:1039A000FC701149304600F027F81149C0200CF096
:1039B000F1F900221346B86194010653002124183E
:1039C0000C254D436519AB80491CEB600529F7DBDD
:1039D000521C032AF0DBF8787870064809F0ECFEF8
:1039E000F8BD0000B44200201E660020FFFF00006A
:1039F000014700007DB2000070B50A4C0025A042CE
:103A000008D1002082008C525218401C9570032867
:103A1000F8DB70BD07F003FC0028FAD00480857045
:103A200070BD0000FFFF0000F0B51E4920200870A7
:103A3000FF2048708870C8700126CE800020088161
:103A4000C86008610B4602241C3348611C70164A8A
:103A50005A600A46087124321470144D556016726B
:103A60005081D3601474124F15466F612E766883AF
:103A7000E9612021545413460E4D59185D620872B5
:103A80005885D862302154540B4C03235118546389
:103A90000B725087094ACA600249094A643105C15C
:103AA0000860F0BDB44200207205010074050100F9
:103AB0007A05010092050100800501001E660020C4
:103AC00055BD0000F8B50E46074606990024079834
:103AD000002902D00B242046F8BD022B01D00D2472
:103AE000F9E7517812780D0215432946814301D038
:103AF0008024F0E73846F16800F042F9A842EAD0A5
:103B00002A463846F16800F0ADF90446E3E70000C4
:103B100070B50D4608041AD50E48C0780CF05AFA54
:103B200004000FD02078B02809D1204607F03EFDD0
:103B3000002804D020462179083000F0ADFC204652
:103B40000CF020FA01212846C903484070BD00202E
:103B500070BD0000B4420020FFB585B000200F9F6B
:103B60000090087A0E9D1C460E46C0060BD507989D
:103B700007F04EFB03007DD00A2231460598984796
:103B80000090002816D13078022815D0079807F049
:103B900065FB0028EFD0006884460028EBD011991F
:103BA000109822460097029101902B4631466446B8
:103BB0000598A04709B0F0BD7068292241780078C7
:103BC000090201431202881A91427CD00BDC694839
:103BD000081A13D0012811D0022817D00328D5D1F4
:103BE000002F53D09BE001287ED002286DD00328FF
:103BF00077D00428CAD1002F68D090E0002F6FD171
:103C0000F068017829800278416884E0002F67D14C
:103C1000F068417800780F02074304202880F0689C
:103C200004A900782070F06840786070384600F091
:103C300045F9060022D06846028A03AB4E49304659
:103C4000F76800F099F900280AD1337802214B482F
:103C50007268FDF7FBFD002802D14748694688815C
:103C6000387802280CD10222201D79680CF076F8F1
:103C7000288800E07CE0801C288001E0684687817D
:103C800068468089A070000AE0706FE001202880FB
:103C9000F0680021007820707089401C80B200F02C
:103CA0000DF9002813D0298802788918891C2980E9
:103CB000817A61704189090AA17002784168E01C2B
:103CC0000CF04CF852E00CE00EE026E03BE02888D7
:103CD0000422001D28800021601C0CF037F945E00B
:103CE0001DE0002F27D01AE0F0680CF0C0FB80B276
:103CF000B84201D207205DE7874201D1002006E0EB
:103D00001099C919814201D3C01B00E01098288086
:103D100082B2F068C1192046D2E7002F01D00B20F3
:103D200048E7F168059800F02BF8022129802070FF
:103D3000000A60701AE002202880F0680078207085
:103D4000F0684078F5E70721F06829800178217054
:103D5000417861708178A1704188090AE170017928
:103D6000217181796171C088000AA071009821E7F2
:103D70000E201FE700280000FFFF0000760501006D
:103D800010B507F04CFA002800D0807810BD000074
:103D9000F8B50C4C0746A07815460E46FF280FD004
:103DA0000A200CF0DBF801000AD0B12008704F8027
:103DB000002048700871CE800D81A0780CF042F987
:103DC000F8BD0000B442002070B50C460546064917
:103DD000FFF7D6FF800704D52146284600F01EFADB
:103DE00070BD012070BD00001E660020FFB583B0CD
:103DF000174602A90D9E049800F060F804002AD02E
:103E00006846008907F02AFA002822D04568002D6C
:103E10001FD00C98019600903A462146069B0398C5
:103E2000A847050018D1FE2E16D02078022813D1FD
:103E300060684178027808020949104388420BD132
:103E40007878397802020A4304990398FFF7A0FFB3
:103E500002E00E2500E00125284607B0F0BD000075
:103E60000229000070B514460E46054607F0D7F942
:103E7000002806D13146054807F0D1F9002803D0C3
:103E800005808470002070BD112070BDFFFF000010
:103E900010B50178B0290BD14178002908D10179FA
:103EA000122906D01B2903D14088012100F0E0FF30
:103EB00010BD417C0129F7D010BD0000F0B5104ABB
:103EC000536919E09C686589A84214D39E887219C9
:103ED000824210D900220CE017013F197F898742E6
:103EE00005D1002900D00D8010010019F0BD521C31
:103EF00092B2B242F0D31B68002BE3D10020F0BD98
:103F0000B4420020FFB51B4883B0002345692DE073
:103F1000AE68002470890190A888009016E0210105
:103F200088194289039FBA420ED3049FBA420BD824
:103F3000069A002A0FD01346715C4068059AFDF777
:103F400085FC002807D10023641CA4B20098844299
:103F5000E5D3002B09D00C98002802D00C990198C9
:103F600008802001801907B0F0BD2D68002DCFD149
:103F70000020F8E7B4420020FEB5174600256A4647
:103F80009580044640891D4A1E46904208D001AAE9
:103F90000092401C237880B26268FFF7B3FF0546A9
:103FA0002378022116486268FDF750FC002807D1EB
:103FB0002378022113486268FDF748FC002801D0ED
:103FC00060890EE0237802210F486268FDF73EFC0D
:103FD00000280DD0002D03D068468088B84203D059
:103FE000384607F0DBFF04E06889401E80B200E03D
:103FF0006089002E00D030802846FEBDFFFF000003
:1040000074050100760501007A050100FFB583B053
:104010000E461D46174601A9039806F019FF040035
:1040200022D1002F0FD0694608803088FFF746FF65
:104030006946088800F02EF901460122039809F02C
:1040400059FA002811D131460398FDF7A5FC040068
:104050000AD1FF2D08D0019B1E22194604489B1C43
:1040600007F0A7FF0198C570204607B0F0BD00001B
:1040700005BE000010B50446FDF7A4FC0749FF206B
:10408000087048700020486088608C7004212046C9
:1040900000F0E4FF00F004F810BD0000A84200208A
:1040A00070B500200D4D0E4B0446FF220621414302
:1040B0005D52C918CA708A70401C0C710328F5DB68
:1040C0000120C0431880074807F058F80648FDF75C
:1040D000FFFD064809F070FB002070BDFFFF0000E7
:1040E0000C6600204DBE00002FBE000085BD000004
:1040F000F8B51C4615460E46074609F027FA002873
:104100000DD0017B074808292B46324639460094DA
:1041100003D0007806F0B2FEF8BD4078FAE701203F
:10412000F8BD0000A8420020F0B587B00F46080493
:1041300070D5394EB0780BF04DFF040064D0207874
:10414000A0285ED10120694608732046FDF78CFC4B
:10415000050041D16846807800280BD0142809D08A
:10416000152807D01A2805D01C2803D001461F396E
:1041700020290BD8B16800292ED06946497800293A
:104180002AD169460874062008751FE0C0070AD0C6
:104190007368002B05D0608803AA694698470546D6
:1041A0001AE0062518E0B368002B06D0608803AA41
:1041B00069469847050001D10EE00625684640781B
:1041C000002809D16946887808740D750020488256
:1041D000608804A9FDF776FB6846007B002804D0C0
:1041E000A068002801D00BF02BFE002D05D16846F9
:1041F0008078122805D01B2803D16088012100F0A7
:1042000037FE20460BF0BEFE0120C003784007B009
:10421000F0BDFFE70020FAE7A8420020FEB50E46F9
:10422000074600250223194A194901200095FFF786
:1042300069FE040027D023200090002304221D21C2
:10424000384600F0E3F8029000281AD060896946E9
:1042500088800420C88002990120087002983346A3
:1042600045700299FF20887002990022C87001A948
:104270003846FFF7CBFE040006D002980BF0E0FDB5
:1042800002E0152400E001242046FEBD9205010055
:10429000FFFF000000B506F097FD002801D08078F0
:1042A00000BD102000BD00B506F08EFD002800D036
:1042B000008800BD7CB50D46044609F047F9294643
:1042C0002046FDF70BFD002812D168468580204668
:1042D00009F03CF900280BD0027B01A90748082A05
:1042E000009106D07F2300222146007806F0C6FD0B
:1042F0007CBD7F23002221464078F7E7A8420020BA
:1043000010B504460B4688060DD51046FFF7C2FFD0
:1043100001460122204609F0EDF8052801D00F28BA
:1043200000D1082010BD882003420CD01046FFF7B2
:10433000B1FF0146180701D5012200E00022204606
:1043400009F0D8F810BD880701D5002010BD032062
:1043500010BD10B50346C8060DD51046FFF79AFFED
:1043600001460122184609F0C5F8052801D00F289A
:1043700000D1082010BD480705D51046FFF78AFF79
:104380000146012206E0480608D51046FFF782FFE5
:1043900001460022184609F0ADF810BDC80701D04B
:1043A000002010BD022010BD70B51D4603460C460E
:1043B00088060DD51046FFF76DFF0146012218460D
:1043C00009F098F8052801D00F2800D1082070BD09
:1043D0008820044214D01046FFF75CFF01462007F6
:1043E00001D5012200E00022184609F083F80028D8
:1043F00008D0697A0029EAD0297A002902D170BD53
:10440000880701D5002070BD032070BDF8B5069F58
:104410001E461546162928D00CDC09291FD004DCBD
:1044200005291CD0062911D11BE0112917D012290A
:104430000CD118E01D2916D004DC172915D01B2932
:1044400004D110E052290ED0D2290CD00124114AF7
:1044500095420CD1FDF790FA001B85B20BE00224C7
:10446000F5E70724F3E70324F1E70524EFE7D22972
:1044700001D10C35ADB2601980B2394600F04AFE68
:10448000002805D0002E00D0358061420BF014FCCE
:10449000F8BD0000FFFF000010B506F0A5FC0028E5
:1044A00001D00BF0CDFC10BDF0B500213D4C022237
:1044B000A1603D4D227008462954401C80B2162848
:1044C000FAD36270374BE180A27050200C33188011
:1044D000A0205880184681807D20C000D880E270DE
:1044E0000123304823716171143002702F4C4460F5
:1044F000037241812E4CC460064602742D4F7761D1
:104500003446337671831034143EE660202402551D
:104510000646294F3419776223727185F56230247B
:1045200002550546234E6E632C1923726987133D8D
:10453000E560402402550546204E6E642C19237216
:1045400061810E3DE560502402550546194E2C1937
:104550006E6523726181123DE56060240255054657
:10456000174E6E662C1923726181083DE560702438
:10457000025505460F4E2C196E6723726181113D5D
:10458000E560802402550F4A803042600372418109
:104590006A1CC2600C48A03210600C485060104683
:1045A0008160F0BDD4430020B46600207405010092
:1045B000AC0501007A050100880501008A050100AB
:1045C000900501009A05010079C00000C1C10000FA
:1045D00070B51646214A0D461146002414310300D9
:1045E00003F0C2FF0A06133838183821283831384A
:1045F000152D2AD81622002119480BF0A7FC2A46AF
:10460000314617480BF0AAFB25E0022D1DD130885A
:10461000D08020E0082D18D11048082231460C30F7
:10462000FCF707FE17E0012D0FD1CA690B4930785E
:104630003C3105E0012D08D1CA6B084930785C3166
:1046400007F086FD07E0012D01D0182403E0307843
:10465000107100E00224204670BD0000D443002009
:10466000B46600201148807C01280DD003280ED0AC
:1046700007280FD00F2810D01C2811D0222811D0C5
:10468000322811D0002070471320C04370470D20FE
:10469000C04370470720C04370470220C0437047A3
:1046A00001207047022070470320704734650020C6
:1046B000704710B500F0FAF810BD10B500F016F90B
:1046C00010BD10B500F02AF910BD10B5FCF7D0FEF2
:1046D00010BD10B500F036F910BD10B500F04AF964
:1046E00010BD10B500F060F910BD10B5FCF7CAFEA2
:1046F000002010BD10B5FCF7DFFE10BD10B5FCF7B3
:10470000EBFE10BD10B5FCF7F7FE10BD10B5FCF7C1
:1047100003FF10BDFEB508AF70CF6F4670C7FCF742
:104720000BFFFEBDF0B585B084460AA8F1C804971A
:104730006F4671C7604600F04DF905B0F0BD38B561
:10474000049C009400F086F938BD10B5FCF704FF16
:1047500010BD38B5049C009400F09AF938BDFFB53F
:1047600087B094468E4610A8F7C806976F4677C75D
:1047700062467146079800F0A9F90BB0F0BD10B57C
:1047800000F0FEF910BD10B5FCF7F4FE10BD10B539
:10479000FCF702FF10BD10B5FCF710FF10BD10B5FF
:1047A000FCF71CFF10BD10B500F008FA10BD10B5E5
:1047B000FCF726FF10BDFEB508AF70CF6F4670C77F
:1047C000FCF730FFFEBD38B5049C009400F014FAED
:1047D00038BD10B5FCF740FF10BD10B5FCF74CFF1D
:1047E00010BD10B5FCF758FF10BDF0B585B00AAC90
:1047F000F0CC03976F4670C7FCF75EFF05B0F0BDC5
:1048000010B5FCF76FFF10BD10B5FCF77BFF10BDB6
:1048100010B5FCF787FF10BD10B5FCF793FF10BD76
:1048200070B55478157822022A43FCF79BFF70BDBF
:1048300010B5FCF7A1FF10BD10B500F0FBF910BDDD
:1048400010B5FCF79DFF10BD38B5049C009400F036
:1048500009FA38BD38B5049C009400F0B1FA38BDAF
:1048600010B500F01BFA10BD10B5FCF79BFF10BD92
:1048700010B505280ED90C4CA0420BD2A14209D28A
:10488000814207D3FF20F530824203D2092B01D9A0
:10489000A34201D3002010BD521C4A43D8008242DB
:1048A000F8DA012010BD0000810C0000F8B50746C1
:1048B000084616460D460C300BF050FB040011D094
:1048C000912020700E206070A5702046A7800C30CB
:1048D0002A463146A0600BF041FA03482146007891
:1048E0000BF0B0FBF8BD00009A43002070B5054600
:1048F0000C4606200BF032FB01000BD09120087013
:104900000F2048708D700120C87003488C8000789B
:104910000BF098FB70BD00009A43002010B50446D0
:1049200003200BF01BFB010008D0912008701A2017
:10493000487003488C7000780BF084FB10BD0000B9
:104940009A43002070B5064614460D4608200BF029
:1049500005FB01000AD091200870052048708E7078
:104960008D8003488C7100780BF06CFB70BD0000EB
:104970009A43002070B5064614460D4608200BF0F9
:10498000EDFA01000CD0922008703E2048700820FB
:1049900088708D808E710348CC7180780BF052FB4B
:1049A00070BD00009A43002070B505460C460620F5
:1049B0000BF0D4FA010009D0912008703020487023
:1049C0008D7003488C8000780BF03CFB70BD0000BC
:1049D0009A430020FFB5064681B017460D461620C3
:1049E0000BF0BCFA04002FD0912020703E206070A4
:1049F0000120A07030460026002808D03120E07049
:104A000020460622002108300BF0A0FA06E0E670EE
:104A10002046062208300A990BF0A0F9A580A7715C
:104A20000498E0710B98E0810C9820820D986082C8
:104A30000E9820750548214600780BF003FB082DE1
:104A400002D2034968000E5205B0F0BD9A4300201F
:104A5000CA660020F8B507461C4615460E460C20CF
:104A60000BF07CFA01000FD0912008703E204870B6
:104A700003208870CF708E80CD800C81069848818D
:104A8000024800780BF0DEFAF8BD00009A430020DF
:104A9000F8B507461C4615460E460E200BF05EFA8A
:104AA00001000FD0912008703E20487007208870C8
:104AB0008F80CE800D814C810698888102480078D5
:104AC0000BF0C0FAF8BD00009A430020FFB506467F
:104AD00081B017460D4622200BF040FA040048D062
:104AE000912020703E2060700A20A0703046002681
:104AF000002814D03120E070204606220021083022
:104B00000BF024FA2046062200210E300BF01EFA8C
:104B100020460622002114300BF018FA12E0E6704D
:104B20002046062208300A990BF018F92046062282
:104B30000E300B990BF012F92046062214300C9916
:104B40000BF00CF9A580A7710498E0710D986083B3
:104B50000E98A0830F98E0832021109808550648EE
:104B6000214600780BF06EFA082D02D20349680046
:104B70000E5205B0F0BD00009A430020CA66002026
:104B8000F8B5064615460F4610200BF0E7F904006D
:104B900011D0922020703E2060700520A070A68069
:104BA00008223946A01D0BF0D9F80348E58180782A
:104BB00021460BF047FAF8BD9A430020F8B50646A7
:104BC00017460D460E200BF0C9F9040011D09220B3
:104BD00020703E2060700420A070E670A58008223E
:104BE0003946A01D0BF0BAF80248214600780BF0B8
:104BF00029FAF8BD9A430020F8B507461C46154629
:104C00000E460E200BF0AAF901000FD0912008707B
:104C10003E204870062088708F80CE800D814C81A8
:104C200006988881024800780BF00CFAF8BD000065
:104C30009A43002070B514460D4608200BF08EF9FB
:104C400001000BD09020087013204870012088705C
:104C50008D800348CC8000780BF0F4F970BD000023
:104C60008C440020F8B507461C4615460E460C201D
:104C70000BF074F901000DD0912008700C204870E1
:104C80008F708E808D710C81069848810248007863
:104C90000BF0D8F9F8BD00009A430020FFB581B0B1
:104CA000444E02990025F068174602292CD0B1889D
:104CB00000297CD07288CB19121D934271D84018FC
:104CC0003A4604990BF04AF8B088C01980B2B08017
:104CD0007188091D88425CD10C200BF03FF901005E
:104CE0005ED090200870FF20487001984880022014
:104CF0000871B088C880F06888602F4800780BF091
:104D0000A1F9B580357044E004994A780B78110216
:104D100019433A1F7180914222D10C200BF01EF9E9
:104D200004003BD090202070FF20607001986080CC
:104D300002982071E780214938460BF02BF8A060DB
:104D4000002809D03A4604990BF008F81A48214681
:104D500000780BF077F91CE020460BF071F81DE0AD
:104D600091421BDD3178002903D0002801D00BF0DF
:104D700067F870881149001D80B20BF00BF8F060E5
:104D8000002814D03A4604990AF0E8FFB7800120C1
:104D90003070002005B0F0BD09E002E0B58006E00B
:104DA000F068002801D00BF04BF8B5803570012079
:104DB000F0E70000944300208C44002001800000B4
:104DC000FFB583B01C4615460E460C9F039808F0AD
:104DD000BDFB002809D06846068045808480C780D6
:104DE000FF226946039800F00FF807B0F0BD0000FD
:104DF00008B51346034A00920A46012108F048F913
:104E000008BD000079C300003EB5002301920424D0
:104E100002930A460094024B122108F045FA3EBD67
:104E20001FC4000008B51346034A00920A46132126
:104E300008F02EF908BD00004BC400001FB56946FC
:104E4000C8810022FF2103206C4607C4034B03AA3C
:104E50000621034808F028FA04B010BDEFC3000093
:104E6000FFFF000001484089704700008444002093
:104E700013B504484079012803D101AA6946FFF718
:104E800034FC1CBD8444002070B50025254C302224
:104E900025706570E57025716571A571E571658195
:104EA00025612072294620480BF050F808F0F2FBEB
:104EB00026460C36307800280ED000011B490AF037
:104EC00069FF6061002807D0717821713178E17045
:104ED0000A0100210BF03AF81548217900784018B2
:104EE000C0B2124920700001491C0AF053FF206132
:104EF000002811D021780A0100210BF027F80020AA
:104F0000FF2105E023690201D218401C5172C0B292
:104F100022789042F6D301E025702571054808F00B
:104F20004BFC70BD84440020DC660020044C000073
:104F300024430020BDC700000A2A01D00120704789
:104F40004A780B7812021A430280CA788B781202D0
:104F50001A4342804A790B7912021A438280CA7935
:104F60008B7912021A43C2804A7A0B7A11021943D2
:104F7000018100207047042A01D0012070474A783F
:104F80000B7812021A430280CA788B7811021943F7
:104F9000418000207047082A01D0012070474A78DC
:104FA0000B7812021A430280CA788B7812021A43D5
:104FB00042804A790B7912021A438280CA798B792E
:104FC00011021943C180002070470000F8B5214E3E
:104FD0000D4608042ED5307A0AF0FCFF04000BD0F1
:104FE0002078902805D16078132808D0204607F053
:104FF0004DFF20460AF0C6FF0120C00328E01649F5
:105000000020097CA7780BE042001219927973788E
:10501000D218D2B27270914200D27170401CC0B2EC
:105020008742F1D870780028E3D00121307A0BF064
:105030005BF8DEE7E8070CD008F016F9002806D088
:105040007078002803D00121307A0BF04DF8012050
:105050006840F8BD8444002034650020042907D04E
:10506000052905D0062903D0072901D00220704761
:105070000C22044B4A43D218403A1182907400200B
:1050800070470000DC66002070B50C4609880546B4
:10509000042905D0052903D0062901D0072929D1E3
:1050A0006068002826D00121284608F0B9FB0028B6
:1050B0001ED0284608F020FB0F498D420BD0002857
:1050C00009D16188002906D9208806280ED10B480D
:1050D000008881420AD20A480078002804D021467C
:1050E000284607F015FA70BD162070BD1B2070BD54
:1050F000142070BD022070BDFEFF00008E44002011
:1051000085440020024A001F508151709170704701
:105110008444002010B5801D80B205490AF03AFE93
:10512000002803D00521C9430AF0C6FD10BD0000C8
:10513000034C00000B480A4900688A884261CA880B
:10514000C2618B884362CA88C2624363C26343649C
:10515000C264098981651F2141600349C1607047AC
:1051600068650020704200201F03000070B51546DE
:105170001C46214A0B46916B90B0002902D0097B56
:10518000002934D1116C002902D0C97900292ED10F
:10519000916C002902D0C979002928D116494031E3
:1051A0008E8E16498988890A8E4202D3072010B054
:1051B00070BD11496031097F490618D56946C8702C
:1051C0000622194601A80AF0C9FD0AA8102229469C
:1051D00002300AF0C3FD06A81022214602300AF070
:1051E000BDFD684601F0B6F8801B012801D00C20F7
:1051F000DDE70020DBE700002C670020346500209D
:105200001CB51B4B9A6B002A05D0147B002C02D0D6
:10521000D27A002A11D11A6C002A05D0D479002C38
:1052200002D0127BD20708D19A6C002A07D0D3791A
:10523000002B04D0D27B002A01D012201CBD0C4AC6
:105240000C4B40329B88928D9B0A9A420BD26A4645
:10525000507000A8062202300AF080FD684601F076
:1052600049FD012801D007201CBD00201CBD000005
:105270002C67002034650020F0B51F4C89B00D4626
:1052800006462146002003F090FB0028F9D0A042FA
:10529000F7D00021044601208005274607430091EE
:1052A00001910291039104910591069107916A463B
:1052B000D773390A9173390C5173304604AA694681
:1052C00000F0B8FA6A46907F517F00020904401846
:1052D000D17F40182870010A6970000CA870012164
:1052E000200A89030843EF702871200C40210843ED
:1052F000687109B0F0BD0000FFFF3F00F8B54449F8
:105300000C46C86A80342073020A6273000CA073D2
:10531000886AE073010A2174000C60743D49002022
:1053200003F034FB00270646791E384603F03DFBA8
:10533000384332467D1E0AE03146002003F026FB4A
:1053400006462946002003F030FB384332469104DC
:10535000304E890C0143EFD0D343C143334019434E
:10536000EAD0FF2301461B0219402076090A617624
:1053700019020140090CA176000EE076100AC02146
:105380002277084360770120214D0090A035214904
:10539000002003F0FBFA00270646791E384603F08A
:1053A00004FB0146394330460A460243EFD0194B0D
:1053B000CA4343401A43EAD0FF230A461B021A405D
:1053C000130A0A46FF273F043A40CEB2A677C7B277
:1053D000E377120C2A70090E69708004AF70800E9A
:1053E000BC46E870277BBE4211D1667BB3420ED12A
:1053F000A37B9A420BD1E27B914208D1227C944557
:1054000005D1617C884202D100980028BFD1F8BD47
:105410002C670020FF3F000010B500F01DF882222D
:105420008021002000F080FF10BD000010B506486C
:10543000C078002804D1054802F0E4FE00F0BCFA70
:1054400004490348C86310BD68650020B55B0000CF
:10545000B1D800002C67002010B50B48846B03F016
:10546000F7FA00202073A0722071084C0121E07827
:105470000AF0EAFFE07802210AF0E6FFE078042172
:105480000AF0E2FF10BD00002C67002068650020D4
:1054900010B500F0F7FF002010BD000010B5114955
:1054A000886B002805D0027B002A02D0C07A002831
:1054B00011D1086C002805D0C279002A02D0007BE7
:1054C000C00708D1886C002807D0C179002904D012
:1054D000C07B002801D0122010BD01F043FC002049
:1054E00010BD00002C670020FFB581B00D4600F014
:1054F00043F9040022D01920C00185421ED8062D90
:105500001CD30399814219D8A94217D3FF220499C9
:10551000F432914212D80A9981420FD80498C900F6
:10552000401C6843814209DDA07BC00706D12646A6
:105530008036B168480701D4880702D5122005B02B
:10554000F0BD20464030C585039A02860B9A4286FC
:105550000C9A8286049A82820A9A0746C282E0796D
:1055600002220028A07E02D000282ED037E000289A
:1055700035D1E420005D800702D51143B16022E0FF
:10558000039885420BD028184108284603F0FEF9FD
:10559000788221465231039808F0C0FD00E07D82F8
:1055A0001048006E411C042901D9042000E0401C71
:1055B000F873204608F05CFD208F04210A30388300
:1055C000B0680843B060122008E0E420005D800766
:1055D00001D41A20B3E711431320B160A076002054
:1055E000ADE700002C67002070B50546FF200002E3
:1055F0002C468034616F05E08A8902438A81616F9D
:10560000096861670029F7D1E16F002906D08A890E
:1056100002438A81E16F0968E167F6E7E06E0028DE
:1056200001D00AF00DFC2C4620346078FF2801D010
:105630000AF0E6FE2078FF2801D00AF0E1FEA0780B
:10564000FF2801D00AF0DCFEA88800F055F80848D1
:10565000806800280BD00748006E002807D1064C50
:10566000E069002803D00AF0EBFB0020E06170BD88
:10567000346500202C6700206865002070B5044662
:105680001C480E46C16D0025A14200D1C565FC2015
:105690000059002804D0A0880022802100F044FE98
:1056A000E08F002804D0A0881322812100F03CFE66
:1056B000A0880522812100F037FEA57165734E2078
:1056C0000655E079002807D108F0B6FC012803D878
:1056D0000121002002F0ACFDE079012807D108F09B
:1056E000B9FC012803D80221002002F0A1FD00200E
:1056F00070BD00002C67002070B5164C0346206D6D
:10570000002102460D461CE0FF265D36365A9E42B9
:1057100015D1002904D0626D824204D1616504E094
:105720001168216501E002680A600AF089FB606D7A
:105730000560206E002809D0401E206604E0014666
:1057400000680028E0D1206E002802D100F004F8A3
:10575000256570BD2C67002070B5064D6C6B03E0AD
:1057600020460AF06DFB2468002CF9D10020686304
:1057700070BD00002C67002001460648006D05E062
:10578000FF225D32125A8A4202D000680028F7D107
:10579000704700002C67002030B50C4A04460948C9
:1057A000137C0021406B084D5B1C07E08289A242FC
:1057B00007D0AA4205D0491CC9B210308B42F5D897
:1057C000002030BD2C670020FFFF00003465002062
:1057D00010B51422002102480AF0B8FB10BD0000E9
:1057E0007C67002010B50648806C002806D0C07980
:1057F000002803D000F046F9002010BD0C2010BD99
:105800002C67002010B50C46FFF7B6FF00280FD01C
:105810008179102901D0022010BD4E210C54C1798C
:10582000002903D031214173002010BD3021FAE757
:10583000122010BD30B54478037824021B198478F7
:10584000C57824042D06641989B01B190093447986
:10585000037924021B198479C57924042D0664195F
:105860001B190193447A037A24021B19847AC57A9E
:1058700024042D0664191B190293447B037B240224
:105880001B19847BC07B2404000620181818039081
:105890004B7808781B02C0188B78CC781B04240640
:1058A0001B19C01804904B7908791B02C0188B791A
:1058B000CC791B0424061B19C01805904B7A087A72
:1058C0001B02C318887ACC7A000424060019181821
:1058D00006904B7B087B1B02C0188B7BC97B1B048B
:1058E000090659184018079004A96846FBF75CFDA3
:1058F000002009B030BD0000F8B507462A48C1783D
:105900000020C04300294BD0002F49D027490C6DFF
:10591000002C45D00646E079012811D1608EA18D7A
:1059200088420DD2627B012A0AD1254680356A6FF2
:10593000002A05D1AA68002A02D1E27BC02A03D03E
:1059400098200159208E0EE0091A6869401E4143D3
:105950000091A16F0098FBF7F5FB401C80B22086F8
:10596000AA6900995118814201D30D1A02E0091A5F
:105970000F480D18AE4200D92E462468002CCAD11B
:105980000C4800688047B04201D8301A06E0B042A7
:1059900007D58642F9D2311A0548081838603046D2
:1059A000F8BD00213960F8BD686500202C67002033
:1059B0000000C0A86C42002070B5054629480024AC
:1059C00004602948B0220460214628480AF0BEFA43
:1059D0002748284AC570D07D117E0002090440186E
:1059E000917D254D41182148C162917ED37E0902E7
:1059F0001B04C918537EC91881620821C181058220
:105A00001E4B43820175C382417505834383014662
:105A1000FF2360310B774C778C77CC7720310C707B
:105A20004C708C70CC7020318B72DF24CC720B7375
:105A30004C731F238B73D17B0184CA007032428464
:105A40008184C2841B218183FF214931C1830C4998
:105A50000163FCF783F9FFF7BBFE01F095F900F055
:105A600029FD70BD90430020104500202C670020C8
:105A70006865002034650020D707000080810000A1
:105A800000F9150070B50E48846C02F0E1FF0D4D71
:105A9000FF21E87801310AF0D7FC0121E8784902BA
:105AA0000AF0D2FC0321002002F0C2FB0020E071CA
:105AB0002071A0718122802100F036FC70BD0000B1
:105AC0002C670020686500200449098C01700021C2
:105AD00041700349097C8170002070472C670020C9
:105AE0003465002010B5FFF747FE002805D0C179C6
:105AF000012902D1417B462901D0022010BD014677
:105B0000062220310A7147224273C87801221043CD
:105B1000C870002010BD70B50C46FFF72DFE0028A0
:105B200002D0C179012901D0012070BD417B4629F5
:105B30002FD1A27BE17B12028918627B237B1204A6
:105B40001B06D2188A1801468031CA62A37AE27A0B
:105B50001B02D218637A257A1B042D065B19D21812
:105B60000A63A379E2791B02D218637925791B04B1
:105B70002D065B19D2184A63A378E2781B02D2186B
:105B8000637824781B0424061B19D2188A635021D9
:105B90004173002070BD70B50D46FFF7EDFD0400A8
:105BA00006D02946FFF76AFD20342071002070BD21
:105BB000122070BD70B50C460146200412D508466F
:105BC0000AF008FA05000AD02878802801D0812838
:105BD00002D1284600F072F828460AF0D3F90120D5
:105BE000C00363E03349E207886B8030002A05D0A8
:105BF0000068002800D08047012057E0A20705D5A3
:105C00004068002800D0804702204FE0600703D59D
:105C1000FFF702FC042049E02648A206006C05D5E7
:105C2000806C002800D0804720203FE0E20605D5A8
:105C3000406C002800D08047102037E01D48A205A6
:105C4000806C06D5006E002800D0804701204002FD
:105C50002CE0E20506D5C06D002800D08047FF206B
:105C6000013023E0134AE004157915D51248427833
:105C7000D2070FD000224270406903234278521DA0
:105C80001A43805CC00602D40889401C088128465B
:105C900000F096FA204670BDA00409D5CB798A7928
:105CA0004979284600F0AAFF01204003604070BDFA
:105CB000002070BD2C67002088650020F0B50178B9
:105CC00000248DB0802902D081297DD0E0E1FF4EF3
:105CD000417835468035062977D006DC0B0002F086
:105CE00043FC060D44F6F5F4F3F607296ED081293E
:105CF0006DD082296CD08629E8D185E14088FFF7F4
:105D00003BFD050070D0E87B400602D403200DB0B7
:105D1000F0BD2E46AC758036F06F002823D0436866
:105D2000827A017AA8889B1CFEF79AFD00280DD183
:105D3000F06FFF228189120211438181F06F0068A8
:105D4000F067A88F002801D0401EA887F06F0028B8
:105D500009D0A8880022802100F0E6FA002801D1AD
:105D60000120A8750BE2AC8709E24088FFF704FD2B
:105D70000700C7D0F879012837D0B66C002EC1D003
:105D80006879800773D53420805D022870D00622A0
:105D9000002107A80AF0DAF83546403528790228AC
:105DA00067D00622002109A80AF0D0F80622A91D12
:105DB0000BA809F0D3FFF98DB88D7A8D039204AB4F
:105DC00013C309AA07A904E04FE107E12CE196E01B
:105DD000A7E00BA86B4607C324206B79B988C05D88
:105DE0000022FEF7BCFC85E00AE1B46B002C89D0F0
:105DF000687980073ED5254660352879022812D07B
:105E00000622002107A80AF0A1F8687D022811D314
:105E100021460622763109A809F0A0FF216E06224C
:105E20000BA8091D0FE02146062207A8663109F0DC
:105E300095FFEAE70622002109A80AF087F8214623
:105E4000062276310BA809F089FF38462030798D7B
:105E50008479FB8DBA8D03AE1EC609AB07AA0BA9C8
:105E60006C460EC46B7DB98800790122B9E72FE03A
:105E700011E017E038462030798D8579FB8DBA8D99
:105E800001AE2EC62146763100916034637DB9881B
:105E9000007901222CE031460622363107A809F0AC
:105EA0005DFF79E731460622463109A809F056FF21
:105EB000716D06220BA8091D09F050FF706D0221BB
:105EC000C0780843687176E775E05EE04CE0DFE09B
:105ED000F88DB98D7A8D039030464630019200904E
:105EE00004940291403624207379B988C05D002261
:105EF000FEF718FCF87B40210843F8733FE1B06CD3
:105F000000287DD0C28A818AC38C02AD019316C558
:105F1000014646310091403000224379114602206B
:105F20001FE0B06B0028ECD0697989070DD5059486
:105F300006940023039404940094019401221946CA
:105F40003C200294FEF70BFC19E101466E310091F2
:105F500001940294039460300494437B0122002155
:105F60003C20FEF7DFFB0AE14088FFF705FC002834
:105F7000C7D001464031CA8A00928B8A4A8A8188FA
:105F800020300079FEF7DBFBF9E04088FFF7F4FBF7
:105F90000028B6D0C1790129818807D02422135C5A
:105FA0000246DC321846FEF7FEFBE8E02422135CD2
:105FB0000246D432F6E74088FFF7DEFB00281FD008
:105FC000C11DFC314A7E097E12020A4301468388C4
:105FD000FF3114311846FEF7D2FBD0E04088FFF7BE
:105FE000CBFB04000CD020464030C18A0091838A4C
:105FF000028EC18DA088FEF7E6FBA07B042100E0A5
:106000007BE00843A073BAE04088FFF7B5FB0028A7
:1060100073D001464031CA8A00928B8A0A8EC98D9C
:106020008088FEF717FCAAE04088FFF7A5FB002850
:1060300063D00146FF3144314B7C0A460C7C190287
:10604000214300910146FF3142314B7C0C7C1B0205
:106050002343547D157D22022A434C7D0D7D210270
:1060600029438088FEF775FB89E041781A296BD0B7
:1060700008DC05290ED0082934D00C2945D0132975
:1060800006D153E0302969D0572975D0FF2976D041
:1060900001203CE64088FFF76FFB05006AD0F42042
:1060A0004659002E10D0706809F0CAFEE88F366895
:1060B000401CE887002EF6D10204120C04D0A988F7
:1060C0000120FEF7B9FBEC874E2001E02C67002091
:1060D000425D2420A988405DFEF7FBFA2846FFF7C1
:1060E00083FA4CE04088FFF747FB002842D0462166
:1060F000095C002902D0012201E03BE000228188F6
:1061000020300079FEF7E9FA39E04088FFF734FBE8
:1061100000282FD0014640318A8900924B894A7A63
:10612000818820300079FEF78FFB28E04088FFF758
:1061300023FB05001ED0EA8F002A20D0A988012069
:10614000FEF77AFBEC871AE04088FFF715FB002882
:1061500010D020300079FEF7B4FA10E04088FFF745
:106160000BFB002806D0818820300079FEF7B9FAB1
:1061700005E001E00220CAE54088FEF799FA002018
:10618000C5E570B505460024FF21012002F01BFC87
:106190002855641CE4B2082CF6D3002070BD000022
:1061A000064A0021531880331B7B0370491CC9B277
:1061B000401C0629F6D30020704700002C67002001
:1061C00010B5002803D00B2803D8401E06E0252078
:1061D0000CE00C2804D0262804D8801EC0B205E0AC
:1061E000262003E0272801D0122010BD02F0FAFB80
:1061F000002010BD10B50C46FFF7BEFA00280FD0E6
:1062000024210C54817B4A070AD5FB22114081735B
:10621000803001228168920311438160002010BD0B
:10622000122010BDFFB581B016460F46FFF7A4FA45
:1062300004463A49B81F88426ED2481D86426BD840
:10624000BE4269D3FF220499F432914264D80A997C
:10625000814261D80498C900401C704340008142CB
:106260005ADD002C58D0A07B410749D5FB210840BE
:106270002546A0734035EF852E86E079002808D0AA
:106280002046803001228168520311438160102032
:1062900035E0688C2249884204D0B74202D1288276
:1062A000608D09E0E88B0090002807D00146304659
:1062B000FAF748FF0099484368820AE0B819410894
:1062C000384602F063FB688221465231304607F0BF
:1062D00025FF1448006E411C042901D9042000E068
:1062E000401CE873204607F0C3FE208F04220A30CA
:1062F0002883204680308168114381601120A07678
:1063000040340B9860860C98A0860498A0820A9866
:10631000E082002005B0F0BD1220FBE77B0C0000FE
:10632000FFFF00002C67002070B5064614460D469E
:10633000042009F013FE010007D00D704C700448D2
:106340004E80C07809F07EFE70BD042070BD000054
:1063500068650020F0B5002787B0054638480097EB
:106360000197029703973E46846F0CE0E078E97846
:10637000884206D11022291D201D09F0E1FC0128C8
:1063800042D02646E46B002CF0D11A21402009F0BF
:1063900001FD040038D0E878E0700622291D201D98
:1063A00009F0DCFC20461A30294610221A310590EB
:1063B000049009F08FFE10226946049809F0C0FC91
:1063C000002823D0A772294620462A3010222A31DD
:1063D000054609F07FFE10226946284609F0B0FC08
:1063E00000281FD0A774164D2046296B07F032FFF6
:1063F000002E23D0F4631249E7634031888E401C9D
:1064000080B2888607B0F0BD0020FBE70120A072B3
:10641000E07802210843E07221460C310598FEF72E
:106420002BFFD0E70120A074E07802210843E0743C
:10643000214614312846FEF71FFFD4E7AC67DAE7A0
:106440002C670020F7B50E4815466E46846F0CE0A9
:1064500068464078E178884206D10622211DB01CAA
:1064600009F06EFC012804D0E46B002CF0D1002070
:10647000FEBD204629462A3007F09EFEFEBD0000E4
:106480002C67002070B50A4DFF26AC6F07E020781E
:1064900009F0B6FF26702046E46B09F0D1FC002C11
:1064A000F5D100200249A8674031888670BD000000
:1064B0002C67002010B50449002088864039886781
:1064C000FEF71CFF10BD00006C67002070B505468C
:1064D0000B48846F0DE06878E178C007C00F8842F0
:1064E00006D10622211DA81C09F02AFC012804D08F
:1064F000E46B002CEFD1002070BD204670BD000081
:106500002C67002070B505460848846F07E02046D8
:10651000A91C2A3007F050FE012804D0E46B002C9F
:10652000F5D1002070BD204670BD00002C67002012
:1065300070B50F48046C02F08BFA0025A571042198
:10654000284601F075FE0B4928208877E5712571F2
:10655000E06909F075FC2583E5612562064C102190
:10656000E07809F071FFE078202109F06DFF70BD3F
:106570002C6700203465002068650020FFB583B0DB
:1065800015460F46FFF7F8F804003AD02046FF30D2
:1065900042300190417D007D0E020643AE4259D249
:1065A000681E30183146FAF7E3FD87B23E48761D83
:1065B00006403846704380B20B2109F0EBFB009097
:1065C00000286FD03848A838FFF7E6F8002836D002
:1065D000017B81818034616F002915D0A16F086033
:1065E000A067A16F00200860A06F4581A16F012006
:1065F00048728020A16F00250872A16F0098486042
:1066000017E0022007B0F0BD6067E9E7A06F069BC6
:1066100041683046684308180199801C4A7D097D0D
:1066200012020A4311466943C91809F097FB6D1C11
:10663000EDB2BD42EAD3069809F002FC27E01B4800
:10664000026B002A02D01A4902209047009809F0F4
:10665000F7FB27E01448A838FFF79EF800281AD067
:10666000017B81818034616F002912D0A16F0860A5
:10667000A067A16F00200860A06F4581A16F012075
:106680004872A06F07720698A16F801E48600020B4
:10669000B8E76067ECE70548026B002A02D00449BE
:1066A000022090470720ADE7FCFF00003465002082
:1066B000AA550000114A916B002902D0097B0029DC
:1066C0000BD1116C002902D0C979002905D1916C38
:1066D000002904D0C979002901D0122070475070D8
:1066E000064A80325179002802D00620014301E099
:1066F000F920014051710020704700002C670020F4
:1067000070B53849C96B00296AD0364A0028946BA5
:1067100002D0012809D063E0002C61D0207B002842
:106720005ED0FEF799FE002070BD01260025F6021E
:10673000002C10D18847040018D026826682A576E6
:106740000720E076652005552649204606228C3133
:10675000663009F003FB207B012841D0A07E0107B1
:1067600006D00007000F012802D009E0032070BD09
:1067700007F070FC1C49097F8907890F88422FD0D8
:10678000A07E0107090FA17101280AD0208A628A20
:106790008018400801229203A08290420BD9A28265
:1067A00014E00620A0821148E582C0783246042118
:1067B00009F0ECFD0FE0022904D0062902D02028C0
:1067C0000CD302E0A02800D2A020A082102100203B
:1067D00002F0DCF8E082E06F804770BD2020F4E733
:1067E000122070BD2C6700203465002068650020F1
:1067F00070B504460D480D46C26B002A03D0806B6D
:10680000002802D004E0122070BD904700280AD072
:10681000E206D20E0277002C03D029461E3009F082
:106820009DFA002070BD032070BD00002C67002081
:10683000FFB5294981B0C86B0B9D1E46174600283D
:1068400003D08C6B002C03D005E0122005B0F0BD06
:106850008047040015D0019820820298012100226F
:106860006082012F0FD0022F0FD0032F0FD0042FE3
:106870000FD0A2762046603046712B78002B1AD1BB
:106880000AE00320E2E7A176F4E7062002E0022016
:1068900000E01120A076EDE76B78002B0BD1AB78F0
:1068A000002B08D1EB78002B05D12B79002B02D1DE
:1068B0006B79002B09D001730A9941732046062297
:1068C00029466E3009F04AFA00E002730C98E0762F
:1068D0000D98E0720020B9E72C67002070B51546CE
:1068E0000C46FEF749FF002827D0154A138CA34217
:1068F00005D30146FF3124310C77230A04E0014619
:10690000FF3124310B771B0A4B77518CA94206D3F8
:106910000146FF3142310D702A0A4A7005E00246F5
:10692000FF3242321170090A5170803001228168B1
:10693000120311438160002070BD122070BD000061
:106940002C67002010B5040024D01C498A6B002A53
:1069500002D0107B00280BD1086C002802D0C0792F
:10696000002805D1886C002804D0C079002801D007
:106970000C2010BD0120887010480622214692305C
:1069800009F0ECF962799309032B05D0900908D03E
:10699000012B0BD0122010BD08480622214698304A
:1069A00008E00648062221469E3003E003480622FE
:1069B0002146A43009F0D2F9002010BD2C67002038
:1069C00070B51921084D890148432863AC6F06E072
:1069D0002078FF2802D0296B09F052FDE46B002CCF
:1069E000F6D1002070BD00002C67002010B50C46C9
:1069F0001E494B6C002B05D00A6C002804D00128DE
:106A000007D00EE00C2010BD002A0AD0FFF790FD41
:106A100029E0002A07D01046C179012901D00029B8
:106A20000ED0122010BD9847002807D00021C17257
:106A300010224282828225221154EDE7032010BDEC
:106A4000428A012189038A4200D94182828A418A8D
:106A50008A4200D98182818A55225143090AC18222
:106A60008473006C8047002010BD00002C6700205C
:106A700070B505460C480C46C26B002A03D0806BEB
:106A8000002802D004E0122070BD9047002808D0F2
:106A9000EA06D20E427721463E3009F05FF9002027
:106AA00070BD032070BD00002C670020F8B51C46A7
:106AB00016460F46FEF760FE050002D0E879002872
:106AC00001D00220F8BD2846FF3008223946143094
:106AD00009F044F9E81DFC300676310A4176A17BC5
:106AE000E07B09024118607B227B000412068018BB
:106AF0002E4608188036F062A17AE07A0902401822
:106B0000617A227A09041206891840183063A17943
:106B1000E07909024018617922790904120689187E
:106B200040187063A178E0780902401861782278F3
:106B30000904120689184018B0632846403081794C
:106B4000002904D00121C1712021B06851E009F071
:106B5000A5FA02460020C3001146D9402B18FF3386
:106B60000133401C59770428F5D309F097FA0246FF
:106B70000020C3001146D9402B18FF332133401C9D
:106B800059700428F5D32C46E81DFF34F930213420
:106B9000C27F217812028918827F407F120400068A
:106BA00010180818B062E178207909024018A1781D
:106BB00062780904120689184018706209F06EFAAA
:106BC00002460020C3001146D9402B18FF33213361
:106BD000401C59710428F5D3A17960790902401845
:106BE000E179227A0904120689184018F063B06826
:106BF00040210843B0600020F8BD0000FFB505004B
:106C00003A4881B00469164603D00B2D03D86D1E97
:106C100006E025250AE00C2D04D0262D04D8AD1E53
:106C2000EDB203E0262501E0272D0FD1002E10D074
:106C3000012E19D0022E1AD0032E1BD0042E24D0E0
:106C4000052E25D0062E26D0072E27D0122005B0DF
:106C5000F0BD002704E0FBF77BFAE11988707F1C88
:106C600002988742F7DB1EE0F021029A18E0AA2181
:106C7000029A15E0002704E0FBF748FAE119887052
:106C80007F1C02988742F7DB0DE0FF21029A07E0A4
:106C90000021029A04E00F21029A01E0029A552194
:106CA000A01C09F053F93007000F207002986070A3
:106CB000049881060298890E401D800880002154A6
:106CC0000498029A000601D5012100E0002128461F
:106CD00002F044F8054800E000BFC1780029FBD06D
:106CE00003490889401C08810020B0E7886500201E
:106CF0002C670020F8B51A4F054600263C6F0CE0C3
:106D000060786978884206D10622A91CA01C09F087
:106D100017F801281ED02646A468002CF0D11921AE
:106D20000C2009F037F8040015D06878607006224E
:106D3000A91CA01C09F012F8386F00280DD0002EF5
:106D400000D0B4600020A06005484030818D491C0F
:106D500081850120F8BD0020F8BD3C67F2E7000006
:106D60002C67002070B5074D2C6F03E02046A46807
:106D700009F066F8002CF9D100200249286740315B
:106D8000888570BD2C6700200249002008674031CB
:106D9000888570472C67002073B50A486D46046FDC
:106DA0000CE0694660784978884206D10622A91C21
:106DB000A01C08F0C5FF012803D0A468002CF0D166
:106DC00000207CBD2C67002070B531480921006887
:106DD000C9018162826C0721090703238A435B078B
:106DE000D2188264836C0F2212030324934364033A
:106DF0001B198364836CCC0023438364C36C0C1520
:106E0000A343C364436D802423434365C36B93430F
:106E100022029A18C263C36B0A119343A4041B197C
:106E2000C363C36BDC000123E4089B07E418C4635D
:106E3000C46D0C43C465C56D0C122543C565C56D95
:106E40000E133543C565C56D9543C565C56AA54334
:106E50005C122C19C462C46A944305221206A2185B
:106E6000C262C26A032424032243C262C26A2401AA
:106E70002243C262026B120912010263026BF02408
:106E8000A2430263026B8A43D118016370BD000004
:106E90008C430020FFB53B480068826D0121090446
:106EA0008A43826582680A438260002501468031F8
:106EB0002B468C466E46C168FF240134A143C16055
:106EC0004168220211434160C1682143C1606146AB
:106ED000C968C905FBD500BF00BF00BF00BF614640
:106EE000C9680C074168240F914341600F2C01D001
:106EF0006D1CEDB2002110E0725CA2420BD91A4663
:106F000005E0B718203FFF7FB754521ED2B28A4225
:106F1000F7D1745403E0491CC9B29942ECD39942A9
:106F200000D17454032D05D05B1CDBB2102BC2D3EF
:106F3000002D1ED03178082902D93246C91E0DE035
:106F4000042902D93246891E08E0012902D93246B5
:106F5000491E03E0002902D1032132461170816DE0
:106F60000F22D201914332781207520D11438165ED
:106F7000FFBD826D0F21C9018A430521C901511846
:106F8000F5E700008C43002010B51A480068016D39
:106F900001231B049943016581685C0121438160E1
:106FA000C26810210A43C260C2688A43C26000BF3F
:106FB00000BF00BFC2680A43C260416801221203D9
:106FC0001143416001468031CA69D205FCD500BF3A
:106FD00000BF00BFC969026DC906C90E1A43026528
:106FE000026D520952010A4302658168A143816022
:106FF00010BD00008C430020F0B5FF4887B0056845
:107000006868FF21013188436860A86A09018843E4
:10701000A862E86A10218843E862A8684A0310431E
:10702000A860686808436860686840084000686055
:10703000A86BF24A0321104089034018A8636868CE
:107040000123184368602C46803420694001C10F39
:1070500020698001C00F0029F7D00028F5D02069F1
:1070600086066069B60EC003400E0190686840084D
:1070700040006860A86BE721104009024018A8632F
:1070800068681843686020694001C10F2069800169
:10709000C00F0029F7D00028F5D020698006800EA7
:1070A00004906069C003400E069068684008400084
:1070B0006860A86BD321104009024018A863686873
:1070C0001843686020694001C10F20698001C00F2A
:1070D0000029F7D00028F5D020698006800E0390A3
:1070E00060692721C003400E02900398301A0646BB
:1070F0004843FAF73DF80007216A000F0909090122
:1071000008432062262070432721FAF731F8000750
:10711000226A000EF0218A4310432062252070432A
:107120002721FAF725F80007226A000D0F2109022E
:107130008A4310432062242070432721FAF718F86D
:107140000007226A000C0F2109038A4310432062C2
:10715000232070432721FAF70BF80007226A000B5F
:107160000F2109048A431043206222207043272103
:10717000F9F7FEFF0007226A000A0F2109058A437A
:1071800010432062700130182721F9F7F1FF000742
:10719000216A00090F273F06B943084320627001A6
:1071A0002721F9F7E5FF216A0007090109090843CA
:1071B00020627001801B2721F9F7DAFF0007616A5E
:1071C000000F09090901084360621E20704327214E
:1071D000F9F7CEFF0007616A000EF02291430843E1
:1071E00060621D2070432721F9F7C2FF0007616A22
:1071F000000D3A149143084360621C20704327211C
:10720000F9F7B6FF0007616A000C3A13914308438F
:1072100060621B2070432721F9F7AAFF0007616A0B
:10722000000B3A1291430843606230461A214843EA
:107230002721F9F79DFF0007616A000A3A1191437F
:10724000084360623046192148432721F9F790FF2F
:107250000007616A0009B94308436062304618219B
:1072600048432721F9F784FF616A000709010909EA
:10727000084360623046172148432721F9F778FF19
:107280000007A16A000F090909010843A06216203E
:1072900070432721F9F76CFF0007A16A000EF02266
:1072A00091430843A062152070432721F9F760FF3E
:1072B0000007A16A000D3A1491430843A06214200C
:1072C00070432721F9F754FF0007A16A000C3A1315
:1072D00091430843A062132070432721F9F748FF28
:1072E0000007A16A000B3A1291430843A0621220E2
:1072F00070432721F9F73CFF0007A16A000A3A1101
:1073000091430843A062300130182721F9F730FF7C
:107310000007A16A0009B9430843A0623001272190
:10732000F9F726FFA16A0007090109090843A062CD
:107330003001801B2721F9F71BFF0007E16A000FCE
:10734000090909010843E06230460E21484327211C
:10735000F9F70EFF0007E26A000EF0218A4310439E
:10736000E06230460D2148432721F9F701FF00076D
:10737000E26A000D39148A431043E06230460C2162
:1073800048432721F9F7F4FE0007E26A000C39139D
:107390008A431043E06230460B2148432721F9F726
:1073A000E7FE0007E26A000B39128A431043E062ED
:1073B00030460A2148432721F9F7DAFE0007E26A3E
:1073C000000A39118A431043E062F0003018272187
:1073D000F9F7CEFE0007E16A00093A4691430843F7
:1073E000E062F0002721F9F7C3FEE16A0007090116
:1073F00009090843E06203E08C430020FF00FEFF20
:10740000F000801B2721F9F7B3FE0007216B000F66
:107410000909090108432063304606214843272112
:10742000F9F7A6FE0007010E206BF02290430143FE
:107430002163B00030182721F9F79AFE0007226B6C
:10744000000D39148A4310432063B0002721F9F757
:107450008FFE0007226B000C39138A431043206310
:10746000700030182721F9F783FE0007010B206B0D
:107470003A1290430143216370002721F9F778FE07
:107480000007226B010A3811824311432163304601
:107490002721F9F76DFE0007226B000939468A4360
:1074A00010432063206B00010009206304990398B6
:1074B000471A28213846F9F75BFE0007616B000F79
:1074C000090909010843606378002821F9F750FE93
:1074D0000007616B000EF02291430843606378005F
:1074E00038182821F9F744FE0007616B000D0F22C0
:1074F0001202914308436063B8002821F9F738FE6F
:107500000007616B000C0F22120391430843606374
:10751000B80038182821F9F72BFE0007616B000B23
:107520000F22120491430843606306207843282108
:10753000F9F71EFE0007616B000A0F221205914346
:1075400008436063F800C01B2821F9F711FE00070B
:10755000626B00090F2109068A4310436063F8003B
:107560002821F9F705FE616B0007090109090843A5
:107570006063F80038182821F9F7FAFD0007A16BBD
:10758000000F090909010843A06338460A2148434E
:107590002821F9F7EDFD0007A26B000EF0218A43C8
:1075A0001043A06338460B2148432821F9F7E0FD3A
:1075B0000007A26B010D0F20000282431143A1635B
:1075C00038460C2148432821F9F7D2FD0007A26B69
:1075D000010C0F20000382431143A16338460D21A3
:1075E00048432821F9F7C4FD0007A26B000B0F21C7
:1075F00009048A431043A06338460E2148432821DA
:10760000F9F7B6FD0007A26B010A0F2000058243BF
:107610001143A1633801C01B2821F9F7A9FD000718
:10762000A26B00090F2109068A431043A0633801A9
:107630002821F9F79DFDA16B0007090109090843FD
:10764000A063380138182821F9F792FD0007E16B93
:10765000000F090909010843E06338461221484335
:107660002821F9F785FD0007E26B000EF0218A431F
:107670001043E0633846132148432821F9F778FD89
:107680000007E26B000D0F2109028A431043E063FB
:107690003846142148432821F9F76AFD0007E26BB8
:1076A000010C0F20000382431143E163384615218A
:1076B00048432821F9F75CFD0007E26B010B0F201E
:1076C000000482431143E1633846162148432821D0
:1076D000F9F74EFD0007E26B000A0F2109058A4306
:1076E0001043E0633846172148432821F9F740FD4D
:1076F0000007E26B00090F2109068A431043E0638B
:107700003846182148432821F9F732FDE16B00077C
:10771000090109090843E063384619214843282133
:10772000F9F726FD0007216C000F0909090108433C
:10773000206438461A2148432821F9F719FD00072B
:10774000226C000EF0218A431043206438461B212E
:1077500048432821F9F70CFD0007226C000D0F218A
:1077600009028A431043206438461C2148432821DB
:10777000F9F7FEFC0007226C000C0F2109038A4375
:107780001043206438461D2148432821F9F7F0FCB6
:107790000007226C000B0F2109048A431043206468
:1077A00038461E2148432821F9F7E2FC0007226CE5
:1077B000000A0F2109058A43104320647801C01B89
:1077C0002821F9F7D5FC0007226C00090F210906D2
:1077D0008A431043206478012821F9F7C9FC216C01
:1077E0000007090109090843206478013818282195
:1077F000F9F7BEFC0007616C000F09090901084395
:1078000060643846222148432821F9F7B1FC00077B
:10781000010E606CF02290430143616438462321DD
:1078200048432821F9F7A4FC0007626C010D0F20E2
:1078300000028243114361643846242148432821D1
:10784000F9F796FC0007626C000C0F2109038A43CC
:10785000104360643846252148432821F9F788FC05
:107860000007626C000B0F2109048A431043606417
:107870003846262148432821F9F77AFC0007626C34
:10788000010A0F2000058243114361643846272115
:1078900048432821F9F76CFC0007626C00090F21AE
:1078A00009068A4310436064384628214843F9F7A3
:1078B0005FFC616C000709010909084360643846F0
:1078C000292148432821F9F753FC0007A16C000F38
:1078D000090909010843A06438462A2148432821A0
:1078E000F9F746FC0007A26C000EF0218A43104312
:1078F000A064069A02983946801A0A2200905043E2
:10790000F9F736FC082108430007A16C000D0F228F
:10791000120291430143A16400983946C2008018C5
:10792000F9F726FC082108430007A16C000C0F2280
:10793000120391430143A16400983946C000F9F74E
:1079400017FC082108430007A16C000B0F2212044A
:1079500091430143A16400983946C200101AF9F717
:1079600007FC082108430007A16C000A0F2212053A
:1079700091430143A1640098062239465043F9F728
:10798000F7FB082108430007A16C00090F2212062B
:1079900091430143A1640098394682008018F9F7A9
:1079A000E7FB08210843A16C00070901090901430D
:1079B000A164009839468000F9F7DAFB08210843F2
:1079C0000007E16C000F090909010143E164009817
:1079D000394642008018F9F7CBFB0821084300071D
:1079E000E16C000EF02291430143E16400983946B6
:1079F0004000F9F7BDFB082108430007E16C000DCA
:107A00000F22120291430143E16439460098F9F7CD
:107A1000AFFB082108430007E16C000C0F221203A2
:107A200091430143E16431460020F9F7A1FB0007CF
:107A3000E16C000B0F22120491430143E164029AAE
:107A400001983146871A3846F9F792FB0007E16C36
:107A5000000A0F22120591430143E1643146780088
:107A6000F9F786FB0007E16C00090F22120691432B
:107A70000143E164780031463818F9F779FBE16C8D
:107A80000007090109090143E1643146B800F9F72B
:107A90006FFB0007216D000F0909090101432165F2
:107AA000B80031463818F9F763FB0007216D000E66
:107AB000F022914301432165062031467843F9F7CE
:107AC00057FB0007216D000D0F2212029143014365
:107AD0002165F8003146C01BF9F74AFB0007216D0C
:107AE000000C0F2212039143014321653146F80037
:107AF000F9F73EFB0007216D000B0F2212049143A2
:107B000001432165F80031463818F9F731FB0007C9
:107B1000216D000A0F2212059143014321650A20BD
:107B200031467843F9F724FB0007216D00090F2245
:107B30001206914301432165696810208143696001
:107B40006968490849006960A96A02021143A9628B
:107B5000E96A0143E962A86B81090398890101433D
:107B6000A963A86B7F210906884302990906084387
:107B7000A86307B0F0BD0000034800684168FF2219
:107B800001321143416070478C43002008B504481E
:107B9000816B0091816B009A9142F9D1104608BD2A
:107BA0000010004038B51648816B0091816B009A37
:107BB0009142F9D1134C1046217DC90705D01249D5
:107BC00000F0BAFC8A04810B04E0192100F0B4FC37
:107BD000CA05410A11430D4A906988420DD0884276
:107BE00001D2081A07E0237DDB0701D0084B00E033
:107BF000084B181A4018916138BD002038BD0000AC
:107C00000010004034650020330300006865002048
:107C100000796F0800603D08002908D0002A02D1D1
:107C200005E008C808C2491EFBD200207047FD20AD
:107C3000704738B50D46040019D0002D17D0032128
:107C4000684606F08DFC6946887840218006800EE3
:107C50000843694688702A46204607F0A6FA0400C1
:107C600006D103226946E81C08F078F800E00224F7
:107C7000204638BDF7B58CB00C9815460F46002845
:107C800031D0002D2FD0381D0A9080B2532108F03A
:107C900081F804003BD001F09FFF06463A46201DC4
:107CA0000C9908F017FAF0B20990E0703004000E59
:107CB0000890A0703002000E07906070370E277099
:107CC00001F084FF0146102201A808F003FA082001
:107CD00000900A9805AB82B2214601A807F0D2F9BC
:107CE000060002D00FE0022612E0099828700898DA
:107CF00068700798A870EF70082205A9281D08F081
:107D0000E9F901F06FFF204608F09AF800E0132629
:107D100030460FB0F0BD000010B5024600F01EF86E
:107D20000448062182701046FDF798F9024805F0D4
:107D300043FD10BD9A4300200DE7000005480649A9
:107D4000C078000702D508460C3000E000204860EB
:107D5000002070479A4300209C4400200A490020DC
:107D6000086048608860084808490C30016008498C
:107D700041600849816008490C3001600749416051
:107D800007498160704700009C44002093F5000083
:107D9000ADE50000117F00002BFA000049EC000067
:107DA000C9EA000070B506460D46084605F0CEFB50
:107DB00000280ED0446B002C06D0E078022805D0B5
:107DC000032803D0042801D0122070BDA088A84247
:107DD00001D0022070BD10223146E01D07F0BEFF29
:107DE00020462C301021054606F0BAFB23461C33F2
:107DF0002A46E11D204607F005FA207802210028D6
:107E0000607803D0032807D1617009E0042802D00C
:107E1000032803D000E06170002070BD0520607071
:107E2000204606F071FB70BDF8B50D46080417D565
:107E30001B4EB07808F0CEF8040009D006F000FE22
:107E4000002809D17078FF2806D0214608F0FAF8FA
:107E50000120C0036840F8BD204608F093F8F7E71A
:107E6000E8070127002804D006F060FC2846784087
:107E7000F8BD002D12D001240CE03846A04086B297
:107E8000354205D0304607F0F1F828467040F8BD7D
:107E9000641CE4B205F072FCA042EED80020F8BDEC
:107EA0009A4300207CB50D46040015D0002D13D058
:107EB0000322E91C684607F051FF69468878402193
:107EC0008006800E08436946887001AA204607F0A4
:107ED0006CF9040002D009E0022407E003222946DD
:107EE00001A807F02DFF012800D0012420467CBD09
:107EF00005480649C078400702D50846183000E01A
:107F000000208860002070479A4300209C44002095
:107F1000FFB50F4683B01E4614465321102007F0CC
:107F200039FF050029D0002F22D069460C72200AA3
:107F3000487210220021284608F008F839462846E1
:107F40000C9A07F00BFF002E05D008223146684638
:107F500007F004FF04E008220021684607F0F6FF5E
:107F60002B4602AA69460398FCF75AFC044600E037
:107F70000224284607F064FF00E01324204607B0DF
:107F8000F0BDFFB581B01F46039805F0DFFA06008B
:107F900005D0706B0025002804D011253AE002209E
:107FA00005B0F0BD1320FBF7FFF9C4B21420FBF7B6
:107FB000FBF9C1B2002F2CD0387EA04229D38842D1
:107FC00027D85321702007F0E5FE04467063200097
:107FD0001DD07022002107F0B9FF002060700199C8
:107FE00021700299A1700399A180E765A061E070FA
:107FF0000198002803D0204606F098FA0546012093
:108000006070002D06D0304606F056FA02E01325C7
:1080100000E002252846C3E7FFB587B00998109D08
:108020000E4600281FD0002D1DD0079805F08EFAAF
:1080300004001BD05321102007F0ACFE0190002853
:108040005FD06978287809024018A978EA7809048D
:108050001206891841180691A06A884208D3401C6C
:1080600006D0022449E002200BB0F0BD1420FBE74B
:10807000002E02D0207980073ED50822002102A8D8
:1080800007F064FF0A9F53213F1DB8B207F082FE3C
:1080900006002FD0301D0A9A099908F01BF8042217
:1080A0002946304608F016F821461022183101986A
:1080B00008F010F808200090BAB202AB31460198DF
:1080C00006F0E0FF04000CD1082202A904A808F081
:1080D00001F80822291D04A807F032FE012804D067
:1080E0000124304607F0ACFE07E00699079802F03D
:1080F000BDFDF6E7132400E00124019807F0A0FE7F
:1081000000E013242046AFE770B50C46014620047A
:108110000AD5084607F05EFF002801D007F032FFBD
:108120000120C003604070BD6004FCD000263246D0
:108130002046D040C00713D0002901D00F2000E016
:1081400000200B4980184968C00045180120904064
:1081500086B229686868884700202860686003E064
:10816000521CD2B20F2AE3D32046704070BD0000EB
:108170005042002070B507F0B9FE1C2200211E48B5
:1081800007F0E4FE1C4820220021503007F0DEFEFC
:108190001A4D0020286168611748174C1C30007F79
:1081A00050348107890F80080818410040180D30AD
:1081B000C0B2A07006214843FF210231F03007F021
:1081C000E9FD6860F030A860A17889000818E860CF
:1081D00007F0FAFE07F0BEFF6078094A8100A86840
:1081E00042506178491CC9B2617089004250607880
:1081F000401C607070BD00001865002050420020D7
:108200000981000010B50849024648788B789842E9
:1082100007D2064C8300A468E2504A78521C4A7088
:1082200010BDFF2010BD00006865002050420020F6
:10823000072902D2014A8900505070471865002072
:10824000FEB5864D02E0804700F05EFE28680028FB
:10825000F9D10124A0002858002807D080477F4882
:108260001C30407D002801D0F9F7F4FD2868002873
:1082700075D1641CE4B2072CECD3784C784E5034A2
:108280006278F06821784B00C35A002B04D1491C56
:10829000C9B221709142F5D3C9B2914211D24A00BC
:1082A000815A002383522078B36882009A589047FD
:1082B0002178F2684900535A034353522078401CF6
:1082C000207020786178884201D3002020706348B4
:1082D0000068002843D17069002840D080470028FA
:1082E0003DD061690546091861610021C9435C48B8
:1082F00021610669002E29D00027B068A84201D864
:10830000002000E0401BB06054481C30406A002848
:1083100004D02169B068814200D92061B06800288A
:108320000DD1718800291BD0307807F0DDFE706810
:10833000002801D0B06002E0B068002810D070883A
:1083400000280DD03746F668002ED6D1434D1C3597
:10835000686A002803D00020414A617814E07CE07C
:10836000002F06D0F068F8603046F66807F068FD28
:10837000EAE73B48F1680161F6E7D6684300F35A43
:10838000002B6AD1401CC0B28142F6D83349032089
:1083900082008A58002A60D1401CC0B20728F7D357
:1083A00001A8FDF7A9FA02462E49401C24D0EB7C17
:1083B000019EB34251D22069471C16D02A7DD207B4
:1083C00002D01422504302E0292250434008834245
:1083D00043D2864200D23046C61A2348826B0092AE
:1083E000826B009B9A42F9D11DE09A4201D3D01AC8
:1083F0001FE0D01A40181CE02069421C2DD02A7DB5
:10840000D20702D01422504302E0292250434008F0
:10841000EA7C824221D2861A1348826B0092826BD8
:10842000009B9A42F9D19819884202D30D4A5242D0
:108430008018002802D0696A884702E06A6A084604
:1084400090470006000E08D12089002805D0F9F7D2
:10845000A1FEFCF76FFEF9F75FFCFEBD186500207A
:10846000504200200000C0A80010004010B5044693
:108470000848C16A002900D088470748002C01D06D
:10848000046001E005490160054800F00BF8002098
:1084900010BD0000346500206C4200208D7B000080
:1084A000A57B000010B503494861804702498861F7
:1084B00010BD00005042002068650020F0B5144E49
:1084C000FD23757A84247472124CA768002F07D09C
:1084D000A77B002F04D0A489E71FFF3FFA3F02D0FB
:1084E0007572FF20F0BD7D24E402A0420AD340272C
:1084F000491E07D3706008CA33609A233372B37A77
:108500007B4002D075721846F0BD001DF0E70000F8
:1085100000180040346500200FB410B503A9044BC7
:10852000044A029800F03CF810BC08BC04B018479C
:10853000B50C000014450020F8B5040C8BB226469B
:1085400082B25E430D0C1046370C58433604801936
:108550000021794116466E43370C36048019794163
:1085600026466E438919F8BD30B47446641E2578DA
:10857000641CAB4200D21D46635D5B00E31830BC57
:10858000184702E008C8121F08C1002AFAD1704734
:108590007047002001E001C1121F002AFBD1704783
:1085A000FFB58FB00F460446002606E025280AD006
:1085B000129A11999047641C761C20780028F5D1F6
:1085C000304613B0F0BD00250121A14A009500E01E
:1085D0000543641C23780846203B98401042F7D19D
:1085E00020782E2815D1042005436078641C2A28A1
:1085F0000AD101CF641C00900BE000990A2251437C
:1086000030394018641C009020780146303909291F
:10861000F3D920786C280ED004DC4C2813D06A28BB
:1086200012D104E074280ED07A280DD10BE001207D
:108630004005054307E00121090562780D438242A8
:1086400001D16D18641C641C2078864669284AD0C4
:1086500008DC0028B4D058286DD0632810D06428D6
:1086600008D140E070286BD0732812D0752860D0F4
:10867000782860D0129A704611999047761CE5E0F0
:108680003878694608720020487202A801900120DB
:1086900003E0386801900020C0433F1D69070CD5F6
:1086A000002500E06D1C00998D420FDA8542F9DB50
:1086B0000199495D0029F5D108E0002500E06D1C15
:1086C0008542FCDB0199495D0029F8D1761907E064
:1086D000019801990078491C0191129A11999047CB
:1086E0006D1EF5D2B2E00A20029000216802400F10
:1086F000039102280CD001CFC117844600290DDA5E
:108700006246084652420021814194462D2008E0ED
:10871000FF1DFF08FF0003CF8446EFE7280504D5BF
:108720002B206A46107401203CE0E8073AD0202054
:10873000F7E70A2000E0102000210391029007E0F3
:10874000102002900021042005430820039100908E
:108750006802400F022810D001CF0021844600207B
:108760000D9028071FD5704670280CD0029A102053
:10877000039B42401A430CD015E0FF1DFF08FF0089
:1087800003CF8446EBE740206A46107401200D9029
:108790000CE06046084306D030206A4610747046EC
:1087A000507402200D907046582804D029A00190E2
:1087B0000DA80E900DE02CA0F9E76046039B029AED
:1087C000F8F749FD019B84469B5C0E9A521E0E925F
:1087D000137060460843F0D10E9805A9081A20309E
:1087E0000190680701D5009801E0012000900199EF
:1087F000884203DD01460198081A00E000200025A8
:10880000009006E004A8129A405D119990476D1CF3
:10881000761C0D988542F5DB04E0129A3020119900
:108820009047761C0099481E00900029F5DC08E06E
:108830000E980E990078491C0E91129A1199904742
:10884000761C0199481E01900029F1DC641CB4E6F5
:108850000928010030313233343536373839616216
:1088600063646566000000003031323334353637DA
:10887000383941424344454600000000FFB583B00B
:108880000C9C1646002C01D0002708E00127039815
:10889000F9F772F80421FCF73DFC040014D02670AF
:1088A00004980125002805D0049A601C0699904779
:1088B000401C85B2300614D51021039804F0B0FF97
:1088C000002804D0192616E0132007B0F0BD621965
:1088D00029462046FFF7CEF90C350646ADB20028F2
:1088E00009D104206946088001944D800398FCF763
:1088F000CBFB0600E9D0002F02D0204607F0A0FAFB
:108900003046E2E7F8B50746069800901E46144642
:108910003846FFF7B3FF05000BD107480268002A6D
:1089200007D0012C02D13078401CC4B22146384611
:1089300090472846F8BD0000A443002030B5437896
:1089400003245B1D2343C45CE50601D5012030BD33
:10895000002903D0210601D5022030BD002A03D012
:10896000C1182039C97F1170C1182039487F897F0B
:108970004907490D08430449420502D51F22D20286
:1089800010430880002030BD7442002070B50D46B1
:10899000044607F083FB2D1B02460023E9172846F7
:1089A000F8F7FAFB081980B270BD70B50D460446A1
:1089B00007F074FB00232D1B024628461946F8F7E2
:1089C000EBFB081970BD70B50D46044607F066FB59
:1089D0002D1B02460023E9172846F8F7DDFB08198E
:1089E000C0B270BD10B5144A5921136819651349F6
:1089F00009680B684024DB092043DB014006400E78
:108A000003430B600E4808610E48C8600E49002001
:108A10004870106841684908490041600B48406847
:108A2000002804D0C1680B68406903430B601168DB
:108A30000120086010BD0000704200208443002027
:108A400029417671555555008865002074420020F3
:108A500010B514480068016889070ED0016DC90877
:108A6000C900016501680822114301600168090716
:108A700003D500BF00BF00BF00BF002202650A4B44
:108A8000586800280AD041680C68806804430C606C
:108A9000586801690B68406903430B600348C27161
:108AA00010BD000070420020744200208865002044
:108AB000FFB5804C064620680D46016881B0174618
:108AC00089071AD0016DC908C9000165016808232A
:108AD000194301607848407D002801D0F9F7BAF9C0
:108AE00020680168090703D500BF00BF00BF00BFB1
:108AF000016DC908C900891C0165704A1068C16A06
:108B000007231B05994301235B05C918C162C16A8C
:108B100007231B06994305231B06C918C162684831
:108B2000006801687B06C909C9015B0E1943016031
:108B3000866006614560C560C16A89088900C162B6
:108B4000016801231B07994301605E4D2B689868FB
:108B50000499400B400308439860564800684168F8
:108B600001242143416058488178A14381701168F4
:108B7000564E00200C46803432890FE02669F601FB
:108B800009D5CC6A072636053443CC62CC6A360157
:108B9000B443CC620AE000BF00BF401C8242EDD863
:108BA00004E000BF00BF00BF00BF401C8242F8D8F5
:108BB0009868474BC004C00C3A2805D91F6830207C
:108BC0004349C0438031086042484068002804D0CF
:108BD00001680A68806802430A603648022100681A
:108BE000016028688068C004C00C3A2860D900BFC2
:108BF00000BF00BF00BF00BF00BF00BF00BF00BF7D
:108C000000BF00BF00BF00BF00BF00BF00BF00BF6C
:108C100000BF00BF00BF00BF00BF00BF00BF00BF5C
:108C200000BF00BF00BF00BF00BF00BF00BF00BF4C
:108C300000BF00BF00BF00BF00BF00BF00BF00BF3C
:108C400000BF00BF00BF00BF00BF00BF00BF00BF2C
:108C500000BF00BF00BF00BF00BF00BF00BF00BF1C
:108C600000BF00BF00BF00BF00BF00BF00BF00BF0C
:108C700000BF00BF00BF00BF00BF00BF00BF00BFFC
:108C800000BF00BF00BF00BF00BF00BF00BF00BFEC
:108C900000BF00BF00BF00BF00BF00BF00BF00BFDC
:108CA00000BF00BF00BF00BF00BF00BF00BF1F600C
:108CB00005B0F0BD70420020346500208C430020D8
:108CC00084430020884300208865002068650020D8
:108CD00000E100E07442002010B51D4909688A686F
:108CE000520B520302438A603A282ED9194A11685E
:108CF000194883689B029B0E3E2BFAD083681B0C9D
:108D0000DB439B060CD083689B029B0E332B03D264
:108D100083681B0C9B06ECD1FFF79AFE002010BD68
:108D200030230C4CDB438034236083681B0CDB4313
:108D30009B06FAD083689B029B0E302B04D383687A
:108D40009B029B0E332BF0D31160012010BD00005D
:108D50008843002000E100E000C20040F0B5614E11
:108D600004463068174600680D46800701D0FFF7BB
:108D70006FFE31685A2008655B49002D086802685B
:108D800009D04023D2091C43D20163065B0E1A436B
:108D90000260564A07E0D209D20163065B0E1A430D
:108DA0000260524AD2438260096851484860514A81
:108DB00011688868400B4003384388604E4B0020A0
:108DC000D870306843685B085B0043604B4B002001
:108DD0001B8904E000BF00BF00BF00BF401C8342EE
:108DE000F8D88868464BC004C00C3A2805D91D68DD
:108DF00030204349C0438031086042484068002821
:108E000004D001680C68806804430C60316802205B
:108E1000086010688068C004C00C3A2860D900BFA0
:108E200000BF00BF00BF00BF00BF00BF00BF00BF4A
:108E300000BF00BF00BF00BF00BF00BF00BF00BF3A
:108E400000BF00BF00BF00BF00BF00BF00BF00BF2A
:108E500000BF00BF00BF00BF00BF00BF00BF00BF1A
:108E600000BF00BF00BF00BF00BF00BF00BF00BF0A
:108E700000BF00BF00BF00BF00BF00BF00BF00BFFA
:108E800000BF00BF00BF00BF00BF00BF00BF00BFEA
:108E900000BF00BF00BF00BF00BF00BF00BF00BFDA
:108EA00000BF00BF00BF00BF00BF00BF00BF00BFCA
:108EB00000BF00BF00BF00BF00BF00BF00BF00BFBA
:108EC00000BF00BF00BF00BF00BF00BF00BF00BFAA
:108ED00000BF00BF00BF00BF00BF00BF00BF1D60DC
:108EE000F0BD0000704200208443002029417671CB
:108EF000555555008843002088650020686500208E
:108F000000E100E07442002008B51148407D0028CF
:108F100001D0F8F79FFF0F4B1879000612D50E48C5
:108F2000816B0091816B009A9142F9D10B491046F7
:108F3000C9680122814202D8401A02D502E0081A0B
:108F400000D51A7106488069002800D0804708BD06
:108F5000346500208865002000100040686500200E
:108F60001865002010B50C4604F008FB002804D05A
:108F700040882146FBF7A9FB10BD122010BD002937
:108F800017D0002815D0012804D0022805D00328C6
:108F900007D00CE04879C02207E048798006800EAF
:108FA00004E048798006800E402210434871012079
:108FB000704700207047000010B5054C606B00281A
:108FC00003D006F0DFFF00206063207E607610BDD6
:108FD000C0440020F0B54D4D0746686B87B00E4683
:108FE00000281CD1002F7DD0002E7BD0384600F009
:108FF0004FFA6876297E884211D300240AE0E96B93
:10900000200140180622FF2106F08BFE002805D122
:10901000641CE4B2287E8442F1D3C4B26C76687ECC
:10902000297E884270D2696B00290DD08A6800249D
:10903000002A27D0062148432130C0B21C2107F066
:1090400007F9686B846050E0062148432030C0B2C5
:109050003A46102107F0FCF81822FF21684606F076
:1090600075FF687E6A467030C0B2182107F0F0F8CC
:10907000687EE96B000140181022394606F06EFE4A
:109080006E6332E00A69002A09D006214843223083
:10909000C0B21C2107F0DCF8686B046125E04A6966
:1090A000002A09D0062148432330C0B2102107F01E
:1090B000CFF8686B446118E0CA68002A18D006210E
:1090C00048432430C0B2102107F0C2F8686B062173
:1090D000C268687E103248432530C0B2042107F0D0
:1090E000B7F800E010E0686BC460002007B0F0BD86
:1090F000687C002801D000F083FBA87C002801D008
:1091000000F046FB00F0E6FB0120EFE7C044002042
:10911000F7B588B0044620220021684606F016FF05
:109120006A4614805B480425817B1177FF21013159
:109130000A9E4A008B000224002E50D087786E468B
:109140003771C7787771069E4079BC467608C707A5
:109150007600FF0F3E4306968607069E01D52643FE
:1091600000E0A6430696C6064A4F069E01D50E436A
:1091700000E08E430696810606993E4601D51143CE
:1091800000E0914306914106069901D5194300E09C
:10919000994340070691084601D5284300E0A843BB
:1091A00006906046002805D001A810223A490230F6
:1091B00006F0D4FD3179002905D00998002802D0A5
:1091C0000698204306906846807D002900D0012142
:1091D000084369468875717850E0042150E0077AA9
:1091E0006E463771477A7771069EC07ABC4676081C
:1091F000C7077600FF0F3E4306968607069E01D5F9
:10920000264300E0A6430696C606224F069E01D5D9
:109210000E4300E08E430696810606993E4601D530
:10922000114300E0914306914106069901D5194387
:1092300000E0994340070691084601D5284300E025
:10924000A84306906046002806D0134901A81022C2
:109250001031023006F082FDB17A002905D009985C
:10926000002802D00698204306906846807D002999
:1092700000D00121084369468875F1790029ACD1F5
:1092800008436946887568460A99F9F70BFF0BB0E1
:10929000F0BD0000C04400200C670020F0B5064679
:1092A00087B0062041430C9D1446082B1BD021316A
:1092B000CFB21C220021684606F048FE6A461C21F7
:1092C000384606F081FF00280BD16846807EC01F1B
:1092D000092806D8E107C90F2B466A463046F9F738
:1092E00035FF07B0F0BD2231E2E7000070B5002580
:1092F0002C460A4E0CE0F16B200140180622FF219B
:1093000006F00FFD002801D16D1CEDB2641CE4B223
:10931000307E8442EFD3284670BD0000C044002058
:109320007FB50D4606214843044616462034E0B278
:109330006A46102106F048FF002806D10622FF21C8
:10934000684606F0EEFC002802D0002004B070BD94
:1093500068468089002EC3B202D02B43DBB200E006
:10936000AB4398420AD068468381E0B26A46102136
:1093700006F06EFF0248007D06F006FF0120E5E7DB
:10938000C044002070B500200446064D04E020468D
:1093900000F00AF8641CE4B2297E8C4201D2002855
:1093A000F5D070BDC0440020F0B5384E0546707E43
:1093B00091B0854209D10121F07D06F097FC022190
:1093C000F07D06F093FCFFF7F7FD2C4606204443A2
:1093D00027462037F8B207AA102106F0F5FE00282C
:1093E00006D10622FF2107A806F09BFC002803D027
:1093F0000025284611B0F0BD1022FF2107A806F075
:10940000A5FD1C22FF21684606F0A0FD1822FF21C1
:109410000BA806F09BFDF8B207AA102106F018FF72
:10942000074620462130C0B26A461C2106F010FFD4
:10943000074320462230C0B26A461C2106F008FFCE
:10944000074320462330C0B26A46102106F000FFD1
:10945000074320462430C0B26A46102106F0F8FEC9
:1094600007432534E0B26A46042106F0F1FE0446C3
:1094700070353C43E8B20BAA182106F0E9FE204300
:109480000546307D06F080FEB3E70000C0440020B2
:1094900070B5064600240A4D0CE0E96B2001401827
:1094A0000622314606F04CFC002801D0204670BD53
:1094B000641CE4B2287E8442EFD3C0B270BD0000C9
:1094C000C044002000229300CB5A834202D1900076
:1094D00040187047521CD2B2062AF4D300207047BD
:1094E0007FB50D460D49097E88420CD2002D0AD069
:1094F000062148432030C0B26A46102106F064FEBF
:10950000040003D007E0022004B070BD06226946C3
:10951000284606F023FC2046F6E70000C044002061
:109520001FB5062148432030C0B26A46102106F01C
:109530004BFE002802D0002004B010BD6846808990
:10954000C0B2F9E700218A00835A491CDB438352E9
:1095500012189378C9B2DB4393700629F3D370478E
:1095600070B500241E4E1FE0F06B25012A1820461E
:10957000062148432030C0B2102106F025FE002805
:1095800010D0F06B06222818FF2106F0DFFCF06BEC
:1095900006222818FF21801D06F0D8FCF16B002060
:1095A00069188881641CE4B2307E8442DCD3FFF702
:1095B0009DFE317E8842B07E02D10121084301E048
:1095C00040084000B076707C002801D000F018F907
:1095D000B07C002801D000F0DBF800F07BF970BD12
:1095E000C044002010B503494088C97DFAF7ECFB60
:1095F00010BD0000C044002070B50E46054606218F
:1096000048438AB014462030C0B206AA102106F0A2
:10961000DBFD002846D10622FF2106A806F081FBCB
:1096200000283FD17035E8B26A46182106F0CCFD1B
:10963000002834D16846FFF785FF002E06D0694622
:109640003046FFF73FFF00280DD015E0182200211B
:10965000684606F066FB002821D1182200216846E2
:1096600006F074FC10E0002C1CD069460020FFF7C7
:1096700029FF002816D006808178A1420FD084707F
:10968000002C01D10021018007490120C8736846E0
:10969000FFF758FFE8B26A46182106F0D9FD01200D
:1096A0000AB070BD0020FBE7C044002070B501780F
:1096B0000125B02907D0B12913D0D02923D1F8F73B
:1096C00033FF05461FE0044600791E2803D1608859
:1096D0000021F9F78FF8204621790830FAF7DCFEEF
:1096E00011E0017900290ED1084C0026E6730289A9
:1096F000C1884088F9F77AFAE07B002803D0E67346
:10970000207D06F041FD284670BD0000C0440020C9
:1097100070B51C4C0646A06B1B4D86B000280BD1C3
:1097200020461C3000900223184A29460120FAF7EF
:10973000E9FBA063002823D0FF230393022200212A
:1097400005A86B4607C304ABA28B3046A16BFAF7A2
:1097500003FA002808D16846028A002A04D0A06BC8
:1097600041893046F9F742FA0023A28B2946A06BC3
:10977000FAF702FCA063002802D0002006B070BDFA
:109780000120FBE7C0440020FFFF0000800501002E
:10979000F0B589B0FAF7B6FF0024184F26E0F86B51
:1097A000260130180622FF2106F0BBFA00281BD143
:1097B000F86B30184079800902281CD0012520461A
:1097C000062148432330C0B26A46102106F0FCFC53
:1097D00004AA1021022006F0F7FCF86B04AB311844
:1097E0006A462846FAF786FF641CE4B2387E844253
:1097F000D5D309B0F0BD0025E1E70000C04400204A
:1098000070B5FAF783FF00240A4E0FE0F06B2501D4
:1098100028180622FF2106F084FA002804D1F06BF4
:1098200029180020FAF76AFF641CE4B2307E8442F3
:10983000ECD370BDC044002070B514460D460646FA
:1098400003F084FE00280DD0017B084808290AD0C7
:10985000C06A002806D04368002B03D02246294660
:109860003046984770BD006BF3E70000C04400200D
:10987000FFB581B01D4616460C46084603F066FE4D
:1098800000280ED0007B124A08280CD0D06A00288D
:1098900017D00768002F14D02B4632462146019876
:1098A000B84705B0F0BD106B002802D00768002F44
:1098B000F2D12146506A06E001212046F9F7CCFF9B
:1098C000EFE72146106AF9F761FE0028F4D1E8E7D6
:1098D000C044002008B5FFF709FD012801D9022086
:1098E00000E00A20694608706A4601210520FAF75F
:1098F0006FFE08BD10B50C4A0A4B1268994206D19A
:10990000002A0DD01178814207D0032010BD0548F0
:10991000401C814204D1002A02D0FAF716FF10BD84
:10992000122010BDFEFF00009442002030B587B029
:10993000032817D0344A002590421BD1887800288C
:109940005CD032490B68002B58D0059502950395E1
:10995000049500950195DA7819781B1D01F056F8E9
:1099600001200CE0488900908C880B89CA88C8784F
:10997000214612E0244A521C904203D1022000F0FA
:10998000BDF83BE0204A921D904209D1887800281A
:1099900034D000231A461946009501F067F82DE0EF
:1099A000194A0C32904229D0194A904229D148795B
:1099B0000C46122822D1E389A28961892089FAF70D
:1099C00057FF002804D01720F9F7EEFC002800D03C
:1099D0000120694608832179608806AAFBF722FAEC
:1099E0006846008B002809D1E08901950295009016
:1099F000A389628921896088FAF78CFE012007B06B
:109A000030BD0020FBE700000D2000009442002044
:109A1000FFFF00000A4A10B5904202D18868007822
:109A200007E0074A521C904208D188680078002855
:109A300002D001F0F7F810BD012010BD002010BDCC
:109A40000B20000000290ED000280CD04879800996
:109A50008001C02803D0402803D002207047012095
:109A600070470320704700207047FFB50020087042
:109A70001F2A1BD2904219D21C5C401CC5B2002C7C
:109A800014D06619964211D85F5D384601F015F979
:109A900000280BD0641E0C700098874203D158191F
:109AA000401C04B0F0BD761EF0B2E3E70020F8E7FA
:109AB00010B5044C2068002803D006F0C1F900203E
:109AC000206010BD9042002070B5846B0546002CCC
:109AD00013D0206A002801D006F0B2F9606A00288D
:109AE00001D006F0ADF9A06A002801D006F0A8F96F
:109AF000204606F0A5F90020A86370BD10B5044CFF
:109B0000A069002803D006F09BF90020A06110BDD9
:109B10007C420020F3B51E4E0546706881B00028D7
:109B200024D0002418E070682701381880680028C5
:109B300005D006F085F97168002079188860706892
:109B40003818C068002805D006F07AF9716800203E
:109B50007918C860641CE4B2AC42E4D302980028CF
:109B6000706804D006F06CF900207060FEBD00281B
:109B7000FCD02A01002106F0E9F90021FF227068DB
:109B800003E00B01491CC254C9B2A942F9D3FEBD7E
:109B9000AC430020002805D104488078002801D07B
:109BA000034870470148183070470000A065002046
:109BB000984200200148807870470000A06500208E
:109BC0000148C06870470000A06500200148006996
:109BD00070470000A0650020014840690068704798
:109BE000A065002010B5064A50690168491C016053
:109BF000D078FF2803D00121890306F075FA10BD43
:109C0000A065002070B5064D064CE888A04205D03E
:109C100005490A780549FBF7F7F8EC8070BD0000AC
:109C2000A0650020FFFF00009A4300209E42002014
:109C3000FFB581B00B9F0A9E0D9D039803F086FC33
:109C400004007AD0019800282ED10498400720798A
:109C500002D51221084303E010210843FD210840EA
:109C6000207130460C99384308432843207924D08A
:109C7000042108432071002D07D02869A0622046E6
:109C800010222946183006F069F80298002818D0EA
:109C9000002F09D0E06A002801D006F0D1F81C217D
:109CA000384606F067F8E062A46B002C45D0002E21
:109CB0001CD0206A00280ED014E0FB21084020713F
:109CC000F2E7002EF0D0E06A002801D006F0B8F8E4
:109CD0001C213046E5E747211C2006F05BF8206296
:109CE000002803D01C22314606F038F80C980028D2
:109CF0000DD0606A002806D14721162006F04AF8E8
:109D00006062002803D016220C9906F027F8002D77
:109D10000DD0A06A002806D14721142006F03AF899
:109D2000A062002803D01422294606F017F83B460B
:109D3000049A0399019804F0E5FA05B0F0BDF3B573
:109D400081B0019803F002FC05002AD00E2006F035
:109D500005F9040025D01820F9F726FB0606360E73
:109D600000D12E78D0202070002767700B20A070C3
:109D70000622A91DE01C05F0F1FF0298C107012091
:109D8000002901D0207300E02773019961810299B5
:109D9000890701D5607300E067732146304606F0FD
:109DA00051F9FEBDFEB501261F4D032809D01F4AFB
:109DB000904227D188780C2821D011281FD0304616
:109DC000FEBDC8781A4F0C461A2803D1A088F9881E
:109DD000884214D0A08803F0B9FB002801D0E188A4
:109DE000C181608900902389E288A188E07800F031
:109DF0003DFEA088F9888842E1D1FD80DFE7FFF7CA
:109E000001FFDCE7A8420DD10C4649790020122958
:109E1000D6D1694688802179608801AAFAF7E8FFDF
:109E20000120FEBD0020FEBDFFFF0000132000004A
:109E3000A065002070B581881F4A914213D11F4947
:109E400080680968007800290BD0002805D101201E
:109E50004870FAF7C6FC002801D000F02DFE012062
:109E600070BD002070BD144AD21C91421AD8521EF7
:109E7000914201D1012400E000248068104E057851
:109E80003078FF28EBD0042006F068F80100E6D017
:109E9000D02008704D7002208870CC70307806F0A9
:109EA000D1F8DCE7044A121D9142DAD180680078CB
:109EB00000F00EFF70BD0000062000009042002060
:109EC000C043002070B502461B481C4C01680026A8
:109ED000184D2078012A0BD0002908D0E1784907D5
:109EE00005D5022106F0B0FA6E80FFF7E1FD70BDE6
:109EF0006A88002A03D0124B1B79002B05D0002959
:109F0000F5D00878F9F726FA70BD3C2A0FD2022165
:109F100006F09AFA68880B4948430B49F7F728F985
:109F200002462078022106F031FA6E8070BD3C3A7C
:109F30006A8070BDC0430020904200209A430020F8
:109F4000A065002040420F007102000070B5144669
:109F50000D4603F05EFC0C49042809D088680028EF
:109F600010D04268002A0DD021462846904770BD87
:109F70000969002906D00B68002B03D0214628462A
:109F8000984770BD012070BD7C420020F0B587B0BD
:109F900004005AD02E48A179C6782E4F002924D02B
:109FA000F8680425002804D04168002901D0002069
:109FB00088472146E07908310691FFF743FDE071BB
:109FC0008446237D628A218AE089029003A80EC01C
:109FD000A08801950090E07862463146069B00F02B
:109FE00015FDE078002806D016E0B869082500289D
:109FF000DFD00678DDE7628A218AE08902901723A4
:10A0000003A80EC0069800900195E379A18801226B
:10A01000304603F037FAE070B869002802D0042017
:10A02000FFF76CFD787800280FD03978FEF79AFF9B
:10A0300000280AD0E078312805D00095A288034690
:10A04000797804F0C7F90020787007B0F0BD0000FF
:10A05000A06500207C420020F8B50446FF268088D9
:10A0600003F074FA050009D02E782F7BFFF72CFD42
:10A07000284604F021FAA08803F0B0FB114D68785F
:10A08000002808D0864206D12978FEF76BFF002809
:10A090000AD1687008E0FF2E06D00097A379A28845
:10A0A000A078314604F096F9A08803F0B2FB0428AA
:10A0B00007D10548A188C288914202D10021C94335
:10A0C000C180F8BD7C420020A0650020F0B587B0BB
:10A0D00004005BD02E48A179C6782E4F002925D0E8
:10A0E000F8680425002804D04168002901D0002028
:10A0F00088472146E07914310691FFF7A3FCE0710F
:10A10000844620231B5DE28BA18B608B029003A809
:10A110000EC0A08801950090E07862463146069B0B
:10A1200000F074FCE078002806D016E0B869082535
:10A130000028DED00678DCE7E28BA18B608B0290F2
:10A14000172303A80EC0069800900195E379A18813
:10A150000122304603F096F9E070B869002802D079
:10A160000420FFF7CBFC787800280FD03978FEF771
:10A17000F9FE00280AD0E078312805D00095A288A1
:10A180000346797804F026F90020787007B0F0BD16
:10A19000A06500207C42002010B5094CA278002A5E
:10A1A0000CD001460622074805F0D8FDA0780549E5
:10A1B000FEF7E5FE0348FAF723FB10BD002010BDB3
:10A1C000A06500209842002070B5164D0646E8783C
:10A1D000FF2814D00A2005F0C1FE04000FD0D020C3
:10A1E000207066700820A070A878E07006220E49E2
:10A1F000201D05F0B3FDE878214605F023FF2879FE
:10A2000001280ED108481C38C068002803D0806897
:10A21000002800D080470548054A0078042106F050
:10A22000A3F870BDA0650020984200209A4300204A
:10A230000077010010B586B0044603A91448F8F76A
:10A24000E3FD134804A9401CF8F7DEFD6846E388E7
:10A25000018A8B4203D822898089824205D2A08854
:10A260002021FAF7A4FA06B010BD834200D2E080A4
:10A270008A4200D92181A189002001900091029099
:10A2800063892289E188A088FAF795FAEBE7000054
:10A2900011030000F8B5070041D0F87800283DD040
:10A2A0007D68002D3AD01620F9F77EF840B20026DE
:10A2B000009030E00F2169560098814228DB1D484C
:10A2C0008068002824D0142005F048FE04001FD028
:10A2D000D0202070002060701020A0702878E070DE
:10A2E000E87BA074687820710622A91C601D05F027
:10A2F00035FD287AE07229462046062209310C30C5
:10A3000005F02CFD0B4821468068007805F09AFE88
:10A31000761CF6B21035F878B042CBD8F8BD0548B7
:10A3200080680028FAD0002000F0E6FA002000F053
:10A330000DFCF8BDAC430020F1B584B004980028B2
:10A340007ED0C07800287CD004984468002C78D057
:10A350001620F9F729F840B2002702901CE12046A8
:10A360002030082101904156029881426ADB9349CE
:10A3700000258968284600297ED0217801290CD043
:10A380002346227A093303A90120FFF76EFB002838
:10A3900000D005782178042914D088498968497843
:10A3A00003290FD0002D0DD000290BD0002863D039
:10A3B000012902D002295FD101E0A80700E0E807E7
:10A3C000002859D06078A11CFFF73CFB009060701A
:10A3D0007A4800254068002857D0002617E04968D1
:10A3E00030010A5CFF2A10D04018427800998A4256
:10A3F0000BD10622A11C801C05F0A2FC002804D071
:10A400006E48310140680D1805E0761CF6B26B49C4
:10A4100008788642E3D3002D37D02078042872D004
:10A42000A868002818D00178227A914206D12146E6
:10A430000931401C05F084FC012871D0207802E02D
:10A44000B1E0AEE0A5E004285FD0A868002803D002
:10A4500005F0F6FC0020A860207A5949401C05F060
:10A4600099FC00280DD02178042957D0A860217AC2
:10A470000170227A214600E043E00931401C05F0DA
:10A480006DFC207A002850D153E02678042E50D05D
:10A490004A4A516800294CD00020137805E0020197
:10A4A0008A5CFF2A25D0401CC0B29842F7D3002D09
:10A4B0003FD02E70607868700622A11CA81C05F0A1
:10A4C0004DFC207A3E49401C491C05F063FC0028E5
:10A4D0000BD0217804290FD0A860217A0170214681
:10A4E000227A0931401C05F039FC207A00281CD161
:10A4F00004E000014518DAE7E860EEE7207801287B
:10A5000013D016E0FFE7E8688BE7E8680028A3D0DF
:10A5100005F096FC0020E8609EE701E0E860A6E711
:10A520001520F8F741FF002803D12448806800284F
:10A5300003D12248406800282BD1207A143005F03E
:10A540000DFD050025D0D020287000266E700D204E
:10A55000A8702078E87001980622007AE872607886
:10A560002871A11C681D05F0F9FB227A2A73207A54
:10A57000002807D02846143021460931286105F00B
:10A58000EDFB00E02E610D4829468068007805F05B
:10A5900059FD7F1CFFB229340498C078B84200D915
:10A5A000DDE605B0F0BD054880680028F9D0002040
:10A5B00000F0A2F9002000F0C9FAF2E7AC43002055
:10A5C0001E47000070B50178744D912902D0A22970
:10A5D00073D04FE04178052908D0714C714B0E299A
:10A5E00007D00F296AD03E2969D043E0FFF734FD38
:10A5F0001CE082886C4900258A4219D181680E7856
:10A60000491C002E06D1002904D0654806221830C6
:10A6100005F0A4FB207801282CD1002E02D0257053
:10A62000304624E002202070FAF7B9F8012070BD0E
:10A630005E498A4220D18668002E1BD030780028DF
:10A6400006D1B1787278080210432081F0786070EA
:10A65000207802280ED13078002801D0257005E03E
:10A660000320207061782089FAF74CFD307800F0E3
:10A67000ABF9DBE7002070BD4C49C91C8A4204D10C
:10A6800080680078FFF7A0FDD0E7494951180429F8
:10A6900007D8D9680029C9D009680029C6D08847D9
:10A6A00070BD424909318A420AD159680029BDD09A
:10A6B0000B68002BBAD0014634E067E016E034E0C6
:10A6C0003A490A318A4203D1816809780029ADD01C
:10A6D000364C0C34A242CDD199680029A6D04A68E4
:10A6E000002AA3D001462046904770BD01468288CB
:10A6F0002E480B30824203D02C481730824204D1BE
:10A700009868002892D043680AE0284811308242B5
:10A71000B0D1E088A842F3D01869002886D0036839
:10A72000002B83D01046984770BD8178012914D042
:10A730000A2915D0022916D00B2919D003291FD0B8
:10A74000062920D0072995D18188082992D2C0886E
:10A750004900184A001F50528CE7FFF717FC65E7C5
:10A76000FFF7B4FC62E7596800298DD0496803E01F
:10A770005968002988D08968002985D0884755E71D
:10A780000246808806E0FFF755FD4FE74388024602
:10A7900029461846FFF7DAFB70BD0000FFFF0000F6
:10A7A000A06500207C42002009100000022000006B
:10A7B000FADFFFFFCA6600200149486070470000C9
:10A7C0007C42002001498860704700007C420020E4
:10A7D0000149C860704700007C42002001490861BF
:10A7E000704700007C420020F8B582780626274F8B
:10A7F000274D002A09D0022A1BD0032A01D0042A9F
:10A8000038D14078002836D02AE04178002927D175
:10A81000C11C06221F4805F0A1FA012028701F481C
:10A820001D4B027801213878F9F76AF8002817D112
:10A8300017E004464078002812D11448E1780078E7
:10A84000002907D01749164B0A780021F9F758F864
:10A85000607002E0012105F047FC6078002809D013
:10A860002E7011480068002804D00168002901D02A
:10A8700028788847F8BD032A05D00C4900200870C5
:10A8800003202870EDE70220FBE7000030430020A2
:10A89000384300204E430020544300203243002020
:10A8A0005C660020344300202C430020334300200A
:10A8B000F8B507460E46084602F048FE020019D0D9
:10A8C0001820F8F771FD05062D0E00D11578062029
:10A8D00005F044FB04000DD00622002105F036FBF4
:10A8E000D020207067700E20A070A68021462846D8
:10A8F00005F0A8FBF8BD0000F8B505463148002476
:10A90000806800285CD0002D10D12E494A68002AAA
:10A910000CD00020097807E00301D35CFF2B01D0A5
:10A92000641CE4B2401CC0B28842F5D3E000083099
:10A9300005F014FB060007D1082005F00FFB0024EA
:10A9400013250646002831D0D020307001207570C4
:10A95000B070F470002C21D03546083500277560A2
:10A9600015E051683801095CFF290ED02970516843
:10A97000641E4118497869705168E4B24118062292
:10A98000A81C891C05F0EAF908357F1CFFB20D4AA6
:10A990001078874204D2002CE3D101E000207060DF
:10A9A000084831468068007805F04CFB054C0021D2
:10A9B0002078FFF7AFF8A06805F042FA0020A06009
:10A9C000F8BD0000AC43002070B50F4D0646E87896
:10A9D000FF2817D00E2005F0C1FA040012D0D020B5
:10A9E000207066700020A070294606221831E01CF5
:10A9F00005F0B4F92889608168782073E8782146E9
:10AA000005F020FB70BD0000A0650020FFB50746E3
:10AA100081B01D461646162005F0A0FA040022D08B
:10AA2000D020207005206770A070E670002D05D042
:10AA300006222946201D05F091F904E00622002196
:10AA4000201D05F083FA0A9860810B9820730C98FA
:10AA5000E0810D9820820E9860820F982075214623
:10AA6000029805F0EFFA05B0F0BD0000FFB581B027
:10AA70001E4617460D460C2005F070FA040016D04D
:10AA8000284602F063FD002801D0007801E0094863
:10AA9000C078D0212170019961700721A170A58033
:10AAA000E78026810A996181214605F0CBFA05B03D
:10AAB000F0BD0000A065002070B50C4D044628686C
:10AAC000002811D0032005F049FA010008D0D02059
:10AAD00008704C70032088702868007805F0B2FA7E
:10AAE000002C01D0FEF7E4FF70BD00009042002072
:10AAF000FFB581B01F460E46084602F027FD05004F
:10AB000022D0102005F02AFA04001DD010220021C6
:10AB100005F01CFA1820F8F747FC0006000E00D1DB
:10AB20002878D0212170019961700F21A170A68031
:10AB30000399217267720A99A1720B99E1720C99BB
:10AB4000E160214605F07EFA05B0F0BD10B504467F
:10AB50001520F8F729FC002801D0012100E0002190
:10AB60002046F9F755FE10BDFFB5074681B01D46DA
:10AB70000E460E2005F0F2F9040010D0D02020700F
:10AB8000002060700C20A070A6800622A01D0399F2
:10AB900005F0E4F82573F8B2214605F053FA05B044
:10ABA000F0BD0000F0B51C4F85B03868002831D0EA
:10ABB0000320F8F7F9FB06460420F8F7F5FB0546F5
:10ABC00004A91648F7F748FB6846017C1448002999
:10ABD000807806D0032802D0002806D003E00224A3
:10ABE00004E0002801D0012400E000243968C8787E
:10ABF000091DFEF7C4F93A68D77A937A0090111DBF
:10AC000001A88AC09278234629463046F9F7EDFD1F
:10AC100005B0F0BD0120FBE7904200201F040000BA
:10AC2000A065002070B504460E488068002818D042
:10AC30000D4D002C0DD10220F8F7B6FB020003D019
:10AC40002878012105F0A2FB0120FFF77FFF040017
:10AC500006D02878012105F0F7FB2046FFF74CFECF
:10AC6000012070BDAC4300209A43002070B50C4613
:10AC700002F06CFC05001FD01820AC62F8F794FBC2
:10AC80000606360E00D12E78102005F067F9040074
:10AC900012D0D0202070002060700920A070687948
:10ACA000E0700622A91D201D05F058F8A86AE06092
:10ACB0002146304605F0C6F970BD002803D017289C
:10ACC00003D3FF2801D00020704701207047000007
:10ACD000F1B52D4E82B03068002842D040782B4D1F
:10ACE000012814D0287900283AD1032005F036F93C
:10ACF000010009D0D02008700298487004208870A4
:10AD00003068007805F09EF9FEF7D2FE28E0204872
:10AD1000204F4368002B19D01A78694601205B1C2C
:10AD2000FEF7A3FE002811D00078C0070ED0012046
:10AD3000F8F73AFB04463C2814D33878164A022127
:10AD400005F012FB12483C3C448016E00020F8F766
:10AD50002BFB0CE00020287102E00298FFF7ACFE0C
:10AD60000120FEBD0D480E496043F6F701FA0200CE
:10AD700003D03878022105F009FB316802204870C1
:10AD800028790028E9D0E5E790420020A06500205E
:10AD9000C04300209A4300200077010040420F008A
:10ADA00071020000074A002106234B43D35A834215
:10ADB00003D10620414388187047491C0329F3DB5F
:10ADC000002070470C66002001460648406906E0F6
:10ADD000826852898A4201D1001D704700680028AC
:10ADE000F6D17047B442002000B50F292ED00BDCFD
:10ADF0000B00FDF7B9FB0F23232323232B252B2344
:10AE00002B232B232B272300182917D008DC1039DC
:10AE10000B00FDF7A9FB08131B1B131313191913C0
:10AE20001E290BD006DC192908D01B290ED01D299C
:10AE300004D10BE0522909D0D22907D0002000BD4F
:10AE4000C06800BD006800BD806800BD406800BDEE
:10AE500010B50C46FFF7A6FF00280DD0002C00D03F
:10AE600020608078FE2803D0FF2803D0162010BD74
:10AE7000172010BD002010BD022010BDFFB581B00D
:10AE800001980A9D1E461746FF2813D0202005F082
:10AE900065F804001DD0B0202070677002986080B3
:10AEA0002671002D09D0204618222946083004F0CA
:10AEB00055FF08E0022005B0F0BD20461822002111
:10AEC000083005F043F82146019805F0BBF8002052
:10AED000F1E71320EFE7002070470020704738B5F6
:10AEE0004C88088884420ED300280CD0002200929F
:10AEF0000B794A1D2146F9F705F8002801D00020FA
:10AF000038BD0A2038BD012038BD0000F3B585B03A
:10AF100006980026078840883446B84215D3002F8B
:10AF200013D00020694688800290002069468881FD
:10AF300000900698002341881A463846F8F7E2FF49
:10AF400005005AD0002C03D00CE0012007B0F0BD62
:10AF50002220009003AB354A05210598F9F756FAEF
:10AF600004000BD068468088002832D0684680797B
:10AF70000128287811D0102843D101E01120E5E7FD
:10AF8000A87A207068891022000A6070A41C2046EC
:10AF9000696804F0E3FE10340DE0022831D1A87A8C
:10AFA000207068890222000A6070A41C204669682B
:10AFB00004F0D4FEA41C69468888401C80B28880B6
:10AFC000B0421AD269891948814216D07F1CBFB29B
:10AFD000ABE702942878022808D002206A469071D4
:10AFE00012219089F6F7AEF8C6B2C9E7012069468A
:10AFF000887188898005060ED1E768468088002818
:10B0000012D001A90598F6F799FC00280AD001ABE7
:10B01000052216210598F9F76BF8002802D002984E
:10B0200004F00EFF002091E70A208FE7FFFF0000E9
:10B0300038B505460C4608886946F8F73FFF0028F2
:10B0400007D0017A6846028823462846F9F758F95E
:10B0500038BD012038BD000038B50C46498820882D
:10B06000814219D3002817D02379621D02210B4891
:10B07000F6F7ECFB00280DD00020009023796188C2
:10B080002088621DF8F73EFF002801D0002038BD5F
:10B090000A2038BD102038BD012038BD74050100DC
:10B0A00038B54C88088884420ED300280CD0002282
:10B0B00000920B794A1D2146F8F724FF002801D0A1
:10B0C000002038BD0A2038BD012038BDF8B50D4636
:10B0D0000646002428E0286861004018417802787C
:10B0E000080210436946F8F7E9FE002810D0017AFB
:10B0F000684602883046F9F72CF9002812D02A68F1
:10B100006100535C13702A68491C515C5170F8BD92
:10B11000296860000A5C0A702968401C085C487055
:10B120000120F8BD641CA4B2A888A042D3D8002096
:10B13000F8BD38B5044608886946F8F7BFFE002810
:10B1400006D0017A684602882046F9F702F938BD30
:10B15000012038BD38B505460C4608886946F8F721
:10B16000ADFE002807D0017A6846028823462846AB
:10B17000F9F71AF938BD012038BD0000014988608F
:10B1800070470000A842002010B50446801C00F063
:10B1900017FFFF20E07010BD1CB504466846017122
:10B1A0004271204602F0D2F900280BD0027B01A99F
:10B1B0000748082A009106D07E2300222146007805
:10B1C000FFF75CFE1CBD7E23002221464078F7E796
:10B1D000A8420020F8B50024064627460C2060430C
:10B1E0008519A8882D1D00280ED0A868002801D038
:10B1F00004F026FE0C220021284604F0A7FE641C61
:10B20000E4B22F80052CE9D30020C0433080F8BD84
:10B2100000B500F023F8002800D0806800BD0022AF
:10B220009300CB5A834202D1900040187047521CC1
:10B23000032AF5DB00207047074A002192698B0141
:10B24000D35A834202D1880180187047491CC9B281
:10B250000329F4D300207047B4420020064909694D
:10B26000002906D08A88824201D18868704709681F
:10B27000F6E7002070470000B44200207CB5064687
:10B28000012906D0022922D1012102F0C9FA0028A1
:10B290001DD13046FFF7D0FF002801D0FFF79AFFFD
:10B2A00001A80C4D00900223094A29460120F8F715
:10B2B00029FE0AE03046E168F8F79EFB684682887E
:10B2C000002329462046F8F757FE0400F2D17CBD42
:10B2D00080050100FFFF0000F3B5002083B00246A7
:10B2E000054604460C21049B6143C9188B88091D3F
:10B2F000002B0ED0002A1BD093421ED14B888342D4
:10B300001BD189884B199DB20818641C80B2052C8A
:10B31000E8DB022C39DB00200190002D0DD01C4908
:10B32000284604F037FD0090002807D0002625E0CD
:10B330008D8848881A464019E7E7002005B0F0BD1F
:10B340000C20049970434718F9683F1D00290DD05F
:10B35000019B0098BA88C01804F000FDB9880198D4
:10B36000081880B20190B86804F06AFD002E04D07D
:10B370000C220021384604F0E9FD761CA642DFDBF2
:10B3800004990098C860049805810120D6E7000060
:10B3900004470000F3B5074683B000254088FFF757
:10B3A0004BFF0290002803D0387A012807D047E0ED
:10B3B0007888F6F7A3FA002856D105B0F0BD3846D4
:10B3C00008300299FFF788FF002817D0029C182147
:10B3D000E088019100902389A188E2687888241D83
:10B3E000F8F704FD0546162805D0002D28D004984E
:10B3F0002188018024E00020A06021E000260C20AC
:10B400000299704340188188041D002918D0042E29
:10B410001ED0008A00281BD016206288009201905E
:10B42000A3887888A268F8F7E1FC0546162811D0B1
:10B43000002D02D0049821880180761C052EDEDBC9
:10B440000298FFF7C7FE002D09D0162D05D00DE09C
:10B450001820E2E70020A060EFE7002506E07888EA
:10B46000F6F74CFA002801D01620A6E72846A4E7F4
:10B47000F3B50446074689B008344088F6F77CFAED
:10B48000079004A800900025237961882088621D18
:10B49000F8F738FD059000286FD00798401F0890F6
:10B4A0000898854269DA397907983D4BC01F80B208
:10B4B000002203910093019202901E466946083EC5
:10B4C0000A8A7888F3680599F8F746FB002821D1A5
:10B4D0002089328990421DD1E068F16804F030FC87
:10B4E000002817D02F4E706800280AD11120009034
:10B4F000788800232C4A0721F8F788FF002803D01A
:10B5000070600598468906E00A982188018011201C
:10B510000BB0F0BD00266846028A618806AB05982C
:10B52000F8F72AFD0590002E1AD01E49320A486805
:10B5300046556D1C4B68A8B21A54401C059A80B23F
:10B54000002A10D06A464B68128B1A546A46128B36
:10B55000401C496880B2120A0A54401C85B29FE719
:10B5600000289DD109E00F4AFF2153681954401C5F
:10B57000526880B21154401C85B2002D0AD009488F
:10B58000A908018078880749F6F7C0F90028BFD0DC
:10B590001620BDE70A98218801800A20B8E700003C
:10B5A000BC420020F4650020FFFF0000F0B589B028
:10B5B0000446002769468F8201208B4D0874E86895
:10B5C000002807D1F9F74EFC884904F0E3FBE86056
:10B5D00000281ED018220021854804F0B7FC2079ED
:10B5E000834E411CC9B20691022816D006283BD0D2
:10B5F00008283ED00A2841D00C286DD00E287DD0D6
:10B6000010287CD012287BD016287AD0182879D020
:10B61000DBE06846007C09B0F0BD6088082808D2ED
:10B62000744A4100515A002903D1734AFB21FBF7A8
:10B6300055F9F9F717FC308060886D49F6F74EF937
:10B6400000282189308805D0814200D320812089BB
:10B650003080BEE0814200D3208121896088F8F7E4
:10B6600029FEB2E00699ADE005A92046FFF700FFEC
:10B670008BE005A9204600F0FDF986E0208907A9A6
:10B68000F8F71CFC05005ED015200090608808AB20
:10B690005A4A0B21F8F7BAFE7060031E47D069467C
:10B6A0002079098C029101970096039069468A8B54
:10B6B00060882946F8F750FA050034D160884C4973
:10B6C000F6F7F0FA3CE0706804F0BAFB002D7CD08D
:10B6D0002089694688825AE0208907A9F8F7EEFB9D
:10B6E000050030D016200090608808AB434A0D2139
:10B6F000F8F78CFE7060031E19D004E028E02CE0FF
:10B7000030E035E03DE069460A8C2079618901919D
:10B7100000960292039069468A8B60882946F8F762
:10B720001BFA050008D0162DCDD10025CBE72089C6
:10B730006946888211252CE060882D49F6F758FA71
:10B74000002846D141E0208969460125888220E011
:10B7500005A9204600F02EFA17E005A9204600F0C2
:10B76000BFF812E004AA05A9204600F0ABFA0CE0ED
:10B7700005A9204600F044F8050008D16846077482
:10B7800023E005A92046FFF705FE05001DD0162D74
:10B790001FD06078142818D0207930706846808ACD
:10B7A0007080357160881249F6F78CF800280CD04B
:10B7B000012560880E4B2A461621F8F799FC0028CF
:10B7C00003D029460A48F8F767FE2046F8F760FBE1
:10B7D0001FE76088064B1621069AF8F789FC0028B7
:10B7E00000D03FE7F1E70000B4420020034700002B
:10B7F000F4650020CA66002048080000FFFF000032
:10B80000F0B5044685B00E46054608340027008989
:10B8100004A9F8F753FB03005BD0187A800613D510
:10B820006846008AFFF7F4FC070008D068881222F7
:10B830001946B847070007D02088308047E02088A5
:10B8400030800E2005B0F0BD6888FFF7F5FC0100E0
:10B8500006D12248FFF7F0FC01000DD0688808806F
:10B8600000200C22424352189288002A08D0401C23
:10B870000528F6DB09202DE0208830800920E1E74B
:10B880000C22504340182146001D04F067FA0C2298
:10B89000214601A804F062FA10200090A28868886E
:10B8A00000231721F8F7B2FD039000280BD0A288DF
:10B8B000A16804F053FA688801A9F6F785F9002811
:10B8C00005D01620BEE7208830801120BAE7384620
:10B8D000B8E7012021883180B4E70000FFFF0000B5
:10B8E000F3B5024689B00832064604924088F6F75E
:10B8F00043F8079005A8049A00901379518810889E
:10B90000521DF8F7FFFA002504462F46002C20D0E0
:10B910006A46217A7088928AF8F71BFD070015D1D4
:10B9200031790798504B801F0890039180B2002214
:10B9300000930192029019460839CB6869468A8AB9
:10B9400070882146F8F708F9070005D00A98618940
:10B950000180002D70D079E0002D0DD04348418842
:10B96000414808380089021D91426FD14019089959
:10B97000001D88426ADC10E01220009070880023CD
:10B980003B4A1121F8F742FD38490028486036D07B
:10B99000354808380089001D48803449A07A4A6833
:10B9A00006AB505562896D1C4968A8B2120A0A5448
:10B9B000401C85B2049841886846828A2046F8F780
:10B9C000DBFA040021D06A462849108B4A6850559A
:10B9D0006A46128B6D1C4B68A8B2120A1A54401C9E
:10B9E00085B248682049401908390A89C96804F0B5
:10B9F000B5F91D4808380089281885B286E70A98E5
:10BA00006189018011200BB0F0BD1849FF22486800
:10BA100042556D1CA8B24B68134D1A54401C84B299
:10BA20004868083D00192A89E96804F097F92889CF
:10BA3000201885B28DE7FFE70498002F01880A9847
:10BA4000018000D10A273846DDE7FFE7074C28468A
:10BA50006188F5F777FB208070882146F6F7DCF8DF
:10BA60000028D0D01620CEE7BC420020F46500208C
:10BA7000FFFF0000F3B5054687B0083005902F8919
:10BA80006888F5F779FF0024001F0194049004985A
:10BA9000A0426FDB06A80090059803794188421DFB
:10BAA0003846F8F72FFA060064D06A467789317A6B
:10BAB0006888128BF8F74DFC019000285AD128793C
:10BAC0000499394B89B202910022009301920390AC
:10BAD00019460839CB6869460A8B68883146F8F7F9
:10BAE0003BF80190002845D1002C08D02F48418810
:10BAF0002D4808380089801C81423DD110E0132078
:10BB00000090688800232A4A0921F8F77FFC27491A
:10BB10000028486028D0244808380089801C4880C4
:10BB200021480838008901190498814222DC1F4904
:10BB3000B07A4A6810557289641C4B68A0B2120A28
:10BB40001A54401C184E84B24868083E00193289C5
:10BB5000F16804F003F93089201884B21448874250
:10BB600095D07F1CBFB292E708980780112009B0DA
:10BB7000F0BDFFE7002C0DD00C4E20467188F5F784
:10BB8000E1FA308068883146F6F75EF80028EED09A
:10BB90001620ECE70198002801D10A2001900898AE
:10BBA00007800198E3E70000BC420020F465002014
:10BBB000FFFF0000F3B5044687B0083005906088A9
:10BBC000F5F7DAFE0646002560E005986900006892
:10BBD0004018417802780802104306A90490F8F74B
:10BBE0006DF901001DD02079BAB2334F02920023C3
:10BBF0000097019303903A46083AD3686A466088F2
:10BC0000128BF7F7A9FF070016D008980499018056
:10BC10002A484068002801D004F012F9384609B0DB
:10BC2000F0BD08990498088024484068002801D095
:10BC300004F006F90120F2E7204F786800280AD1C5
:10BC400014200090608800231D4A0F21F8F7DEFBC6
:10BC5000786000282BD01849388808390A89521C86
:10BC60008218B24202D9321A521E0A81134A0F4672
:10BC7000526810180A89C96804F070F80F483989A9
:10BC8000008840180D496D1C0880ADB20598808869
:10BC9000A84204D90948771E0088B84295DB60881D
:10BCA0000649F5F7E9FF0028B9D01620B7E708994B
:10BCB000049808801120B2E7BC420020F4650020FF
:10BCC000FFFF0000F7B5044684B005461746083468
:10BCD000008902A9F8F7F2F8030032D0187A80063A
:10BCE0000ED568460089FFF793FA060006D06888EB
:10BCF00012221946B047002802D023E00E2021E08E
:10BD0000607A002801D0522000E0287900260096B1
:10BD100001906388218868886268F8F767F80028CE
:10BD200002D016280BD00DE0607A002810D1688868
:10BD3000F5F7EAFF002800D0162007B0F0BD3E70EE
:10BD400006E00120059922880A80617A0029F4D052
:10BD50000020F2E7FEB54C68089D6678277834022B
:10BD60000E783C43022E02D1054EB44201D0012090
:10BD7000FEBD022400950194F7F7A4FEFEBD00006D
:10BD800002290000F8B505461D48854224D0461C0E
:10BD9000002922D001292CD002291DD101212846B9
:10BDA00001F03EFD002817D12846FEF7FBFF0400F6
:10BDB00012D0A0780026FF280DD0FE2806D00096CD
:10BDC000E0781E2314222946FFF758F82046FFF793
:10BDD000DBF9FF20A0702671F8BD2846FEF7E2FFD0
:10BDE0000028F9D13046FEF7DDFF0028F4D00580A9
:10BDF000F8BD2846FEF7D6FF0400F9D02680D8E724
:10BE0000FEFF000038B5040010D0A078FF280DD048
:10BE1000FE280BD0002000902188E0781E231722F6
:10BE2000FFF72CF8FE20A070FF20E07038BD10B5A1
:10BE30000C46FEF7B7FF002806D00279511CA1423C
:10BE400002D1D109C901017110BD0000F7B5887890
:10BE500000258AB00C461E2802D0122819D115E000
:10BE60000A98FEF79FFF050025D0A878FE2822D06B
:10BE7000FF2820D000200090A378E87800220A99BB
:10BE8000FEF7FCFF2846FFF77FF914E060780128F1
:10BE900014D00A98FEF786FF05000FD02A79002AF1
:10BEA0000CD0100607D4A1780A98FFF775F9287905
:10BEB00080210843287100200DB0F0BDA17848080A
:10BEC000C200344810188038876FC66F32484078F7
:10BED000FF280DD019290BD2002F09D0002E07D032
:10BEE0002078002802D16278002A03D0122901D0DC
:10BEF00006274CE003A90091A3886178A268B8479F
:10BF0000070044D103A90A98B047070020D0607801
:10BF100000283CD1A078694608710F72A0780E28DD
:10BF20000FD08889C88001A90A98F5F7CBFC0700D3
:10BF30002DD001AB012216210A98F8F7D9F807464F
:10BF400025E0039841780278080210436946E9E742
:10BF5000A378042B1BD003A800900F480022407840
:10BF60000A99FEF78BFF070011D1A17803A8FEF70D
:10BF70003BFF002802D00C9900200870A0781228FE
:10BF800002D16178012902D0002D00D028713846F5
:10BF900092E7000010050100B442002000B50346FE
:10BFA000F8F781F9002802D01818401E83B218460D
:10BFB00000BD10B51924A401624304F09FF910BD1F
:10BFC00010B5040008D02078FF2805D0FE2803D043
:10BFD00004F016FAFF20207010BD0000F7B50F46E0
:10BFE00004465321102003F0D5FE064653211020AD
:10BFF00003F0D0FE0546002E34D0002D2DD01022A7
:10C00000002103F0A3FF324629462046F9F712FC2F
:10C01000040023D13078000609D52946304601F0C6
:10C0200023FA3A461349284604F05CFA03E03946FD
:10C03000304601F019FA3878000609D52946384605
:10C0400001F012FA0B492846029A04F04BFA05E077
:10C050003846029901F008FA00E01324304603F054
:10C06000EFFE00E01324002D02D0284603F0E8FE86
:10C070002046FEBDCD050100F8B5069800261D46F8
:10C0800014460F46002801D00B20F8BD3878002157
:10C09000022801D0198016E07868427803781002EF
:10C0A0001843294BC21A984225D007DC274A801A28
:10C0B0000BD0012817D0022804D13DE0012A1FD05F
:10C0C000A32A39D0298001263BE0F86804F0CFF993
:10C0D00082B20798824200D902462A80F968204637
:10C0E00003F03CFE2DE0F8680221008829802070D2
:10C0F000000A607025E0062028800246F968EEE715
:10C10000F868002816D0082129800178217001885C
:10C11000090A61708178A1704188090AE17001798A
:10C1200021718188090A61718179A171C088000A31
:10C13000E07106E0298004E001202880F86800789A
:10C1400020703046F8BD0000032A0000002A0000DD
:10C1500010B50B78840702D50224234301E0FD24A7
:10C1600023400B7003060B7802D58024234301E0A3
:10C170005B065B0E0B7003070B7802D50824234384
:10C1800001E0F72423400B7083060B7802D52024AE
:10C19000234301E0DF2423400B708221084203D1B6
:10C1A000010701D4810603D510780C21084304E06F
:10C1B000002803D11078F3210840107010BD000052
:10C1C000FFB581B0087800240A9E1F460D4602285C
:10C1D00013D168684178027808021043394A811AFD
:10C1E00090425ED005DC3849401A0AD0012804D1BB
:10C1F0002DE0012943D0A42962D00124204605B0B6
:10C20000F0BDE86804F033F980B2864205D8F01931
:10C210000090152803D90D24F0E70724EEE7E8681D
:10C220003A468019039903F099FD0098162180B2CF
:10C230000A1AE9680818002103F088FE234880687C
:10C240000028DBD00268002AD8D0002112E0002E9E
:10C2500013D1022BDFD10398E968427803781002EA
:10C2600018430880194880680028C7D00268002A4F
:10C27000C4D0012101989047C0E70B24BEE7002EEF
:10C28000FBD1062BC7D10622E868039903F066FDAF
:10C290000E4880680028B1D00268002AAED0032181
:10C2A000E8E7002EE9D1012BB5D1039800780028EA
:10C2B00003D0012801D08024A0E7E96808709DE739
:10C2C00003249BE7022A0000002A0000D443002038
:10C2D000FFB581B00498164600280CD001210198C2
:10C2E00001F09EFA002809D0214F00253878002E51
:10C2F00006D0387905E0012005B0F0BD1420FBE739
:10C300003D7985421AD23A6929018C186188002941
:10C3100002D06D1CEDB2F4E7002C0FD0002E0FD030
:10C320001449202003F036FDE060002806D02022CA
:10C33000002103F00BFE4035658003E01520DBE7AC
:10C340000020E060002020700198E080002E08D0DE
:10C35000707A2072B88AE168301A001100090877F3
:10C3600001E002982072049804600020C4E70000F5
:10C3700084440020024C00000A7802700A88120AE5
:10C3800042700B880222012B02D0022B07D011E051
:10C390008A7882704988090AC17004220AE08A7882
:10C3A00082704A88120AC2700A7902718988090A61
:10C3B00041710622104670470A7802700A88120AF4
:10C3C00042708A7882704A88120AC2700A790271B1
:10C3D0008A88120A42718A798271CA88120AC271E5
:10C3E0000A7A02720989090A41720A2070470A789A
:10C3F00002700A88120A42708A7882704988090A93
:10C40000C170042070470A7802700A88120A4270CC
:10C410008A7882704988090AC170042070470A78B6
:10C4200002700A88120A42708A7882704A88120A58
:10C43000C2700A7902718A88120A42718A798271FD
:10C44000C988090AC171082070470A7802700988F2
:10C45000090A417002207047F8B50D4606460024CF
:10C4600017E0396920014718387800280FD0F8887C
:10C47000B0420CD1072D02D17888F8F7DFFC2A46AC
:10C480000021384600F0EDF9384600F0FFF8641C52
:10C49000E4B2164F38798442E3D3002D18D0F8BDAA
:10C4A000396920014518287800280FD0687AFF28BC
:10C4B0000CD0E888B04209D1284600F0B9FF142119
:10C4C000284600F04EFA284600F0E0F8641CE4B27A
:10C4D00038788442E4D304242046641CE4B2FF226A
:10C4E000314600F0EDF8082CF6D3F8BD8444002066
:10C4F00070B504460D464088F8F7A0FC2A46002196
:10C50000204600F0AEF9204600F0C0F870BD0000F3
:10C51000F3B5488881B00D46002803D02549098825
:10C52000884201D91B20FEBD0421686803F0C4FBCA
:10C53000A9780446017068881F4E010A6170297845
:10C54000A17028880227010AE1706888001D85B261
:10C550000198B04211D10C2003F000FD01000AD077
:10C56000902008704E800F71CD8014488C60007848
:10C5700003F068FD16E01320FEBD23462A46002185
:10C58000F8F772F90E49002807D002280CD00728C6
:10C590000CD012280CD01F28EED10878002801D02A
:10C5A000401E08700020FEBD1420FEBD0420FEBD0C
:10C5B0000220FEBD8E440020FEFF00008C440020BF
:10C5C0008544002030B5094C05460021237809E058
:10C5D0002269080180184288002A01D0AA4204D0AA
:10C5E000491CC9B29942F3D3002030BD84440020D5
:10C5F00030B50A4A0446002113780AE0156908019B
:10C6000040194588002D02D00579A54204D0491C67
:10C61000C9B29942F2D3002030BD0000844400200A
:10C6200030B50A4B0021DC780BE05D690A01AA5A9B
:10C63000002A04D0824202D10801401930BD491CB1
:10C64000C9B2A142F1D3002030BD000084440020D3
:10C6500070B50D4D064600222C7910E02B691001B3
:10C66000C0184388002B08D0C388B34205D1C368E3
:10C67000002B02D05B888B4204D0521CD2B2A24263
:10C68000ECD3002070BD00008444002070B5C46865
:10C690000546002C0CD0E068002801D003F0D0FB48
:10C6A0006069002801D003F0CBFB204603F0C8FBF3
:10C6B00010220021284603F049FCFF20687270BD5B
:10C6C0000C23584310B5094BC418303C608988428C
:10C6D0000BD16068002808D0FF2A02D0017891426F
:10C6E00003D103F0ADFB0020606010BDDC660020CC
:10C6F000F3B5C46889B00026054602AF002C20D0EF
:10C70000E068002802D003F09BFBE66020886946C1
:10C710004881608888812089C881608A4882208A0F
:10C7200008826888088100960197E988287A64233E
:10C730000A9A00F03DF90A986077668226820BB06B
:10C74000F0BD0C220021384603F000FC68886946E1
:10C75000088100960197E988287A64230A9A00F0F4
:10C7600027F9ECE770B50C46054612220021204659
:10C7700003F0ECFB002D1DD0287F01010E4842691B
:10C78000515A2180297F42690901891849886180AD
:10C790004189A1802988E18069882181A9886181F6
:10C7A000E988A1812989E181297F40690901081867
:10C7B000C088208270BD00008444002010B504466B
:10C7C000084884420DD0012907D0022909D101214E
:10C7D000204601F025F8002803D100212046FFF76C
:10C7E0003BFE10BDFEFF000010B50721FFF734FE31
:10C7F00010BD10B5040009D06088002806D01721AC
:10C80000204600F0AEF82046FFF740FF10BDF0B51F
:10C81000002689B015460446002907D000960196E7
:10C82000E5880A46007A6023294616E01622002190
:10C8300002A803F08BFB6846058102AF002D06D1EC
:10C84000608869464881391DE068FFF78BFF0197D2
:10C8500000963246E188207A602300F0A9F809B0FA
:10C86000F0BD10B588B0002901D000230AE06B4666
:10C870009A8142881A81C368002B02D05A886B467D
:10C880005A8102AB002201930092C4880A46007AC2
:10C890006023214600F08CF808B010BD7FB5C26857
:10C8A0000D460446002A21D0508869464881622DF1
:10C8B00006D01849107F096800014018C08812E0AE
:10C8C0001548D1880088814200D20846C1B2107C48
:10C8D000528A801AC0B2002A01D1801CC0B240180E
:10C8E000401EF4F745FC6946888104E006220021D9
:10C8F00002A803F02BFB60886946088102A900208A
:10C9000001910090E188207A2B46002200F050F837
:10C910007FBD0000984400208E440020F8B50746F3
:10C9200015460E460C2003F019FB040017D0A0207A
:10C930002070002066806070002D05D008222946F6
:10C94000201D03F00BFA04E008220021201D03F053
:10C95000FDFA2146384603F075FB0020F8BD0120A2
:10C96000F8BD7CB50446007804280AD0022815D00A
:10C97000062813D0032803D100222046FFF771FFB9
:10C980007CBD002000900190E5880A46207A1323A0
:10C99000294600F00DF8E188122205E00022204629
:10C9A000FFF735FFE18814220520FFF789FE7CBDE3
:10C9B000FFB581B01E46174620200B9D03F0CEFA2E
:10C9C00004001AD0A22020706770029860800A9834
:10C9D00020716671002D06D02046182229460830A5
:10C9E00003F0BCF905E0204618220021083003F0CE
:10C9F000ADFA2146019803F025FB05B0F0BD00001B
:10CA0000F0B507460D4C00200146257812E0236959
:10CA10000A019E5C002E0BD0D218D268002A07D0E3
:10CA2000127F63691201D218BA4201D1401CC0B210
:10CA3000491CC9B2A942EAD3F0BD000084440020D9
:10CA4000022A01D2012070474A780B7812021A4359
:10CA50000280012A02D0022A06D00FE0CA788B7821
:10CA600011021943418009E0CA788B7812021A43F7
:10CA700042804A790B791102194381800020704766
:10CA80000A2A01D0012070474A780B7812021A4313
:10CA90000280CA788B7812021A4342804A790B7955
:10CAA00012021A438280CA798B7912021A43C28019
:10CAB0004A7A0B7A11021943018100207047042A37
:10CAC00001D0012070474A780B7812021A43028085
:10CAD000CA788B7811021943418000207047042ADC
:10CAE00001D0012070474A780B7812021A43028065
:10CAF000CA788B7811021943418000207047F8B53D
:10CB000006460020706008790D46022825D1E98884
:10CB1000042922D3A868427803781702C278807863
:10CB200014021F430443381D814216D1042C0AD03D
:10CB3000052C08D0062C06D0072C04D02046FFF781
:10CB400041FD002809D0778034800321C943A868BB
:10CB500003F0B2F870600020F8BD0120F8BD022A91
:10CB600001D0012070474A780B78110219430180E7
:10CB7000002070470A7802704A784270CA788B7831
:10CB80001102194341807047FEB50646144650888D
:10CB900000220D467F2808D90220694608804A8075
:10CBA00060888880E9B26A460BE0A188172904D31F
:10CBB000E088172801D3814207D268460280E9B293
:10CBC0006A463046F8F714F9FEBD02922088FFF756
:10CBD00027FD07002FD0FFF713FF397A884207D2CD
:10CBE00002AB3A46FF213046FFF772FB002801D026
:10CBF000042221E002982189C06801806188418077
:10CC0000A1888180E188C180B9880181FB68002BFF
:10CC10000FD0E9B22246304698470A490246884278
:10CC20000AD102980621017005711E2100F0EAFB6D
:10CC3000FEBD002200E0022229463046029B00F0A1
:10CC40005BFAFEBDFFFF0000F7B5087802278AB047
:10CC500013460C4606280AD0122832D0142846D093
:10CC60000026162850D068460684497878E0A278D5
:10CC7000194602A8FFF723FF050069D1684600891D
:10CC8000FFF7A0FC060010D038480090627802AB95
:10CC900007210A9800F0FCF9022200213046FFF734
:10CCA000E0FD3046FFF7F2FC51E069460F84088949
:10CCB000488448898884617808AA0A98F8F798F81F
:10CCC00045E06288194602A8F8F765F905003ED1EB
:10CCD0002748818900293AD0617802AA01920091FF
:10CCE0002378807B00220A99FFF762FE2FE062889A
:10CCF000194602A8F8F720F9050028D1617802AAA0
:10CD00000A98FFF741FF22E06288194602A8F8F767
:10CD100032F905001BD1684601890A98FFF798FC93
:10CD2000002817D0C0686946028849898918090413
:10CD3000090C01800BD0C068002808D00D4800788D
:10CD4000002804D00C480121007803F0CDF92846D2
:10CD50000DB0F0BD69460F844E84088988846178DF
:10CD600008AA0A98F8F744F83046F1E707C400002B
:10CD7000DC660020854400208C440020F7B588B094
:10CD80000D464878FFF734FC0127044600282FD0D1
:10CD90000020207160802E78012E06D0072E0AD048
:10CDA000132E18D0152E20D022E0AA7802A80A99B6
:10CDB000FFF746FE17E02078032819D1AA7802A8C9
:10CDC0000A99FFF78CFE05004BD101220021204675
:10CDD000FFF747FD45E02078042809D1AA7802A88A
:10CDE0000A99FFF7BCFE05463BE02078022802D0F6
:10CDF00000200BB0F0BDAA7802A80A99FFF740FE08
:10CE000005002ED16846008A0021002824D16846FA
:10CE100000890246403A402A07D26A465289172AB8
:10CE200003D36A469289172A06D2E168488060884F
:10CE3000F8F704F802210FE06A46E068D289028020
:10CE40006A46128942806A46528982806A4692897D
:10CE5000C2800120207000276846028A2046FFF722
:10CE6000D6FC204600F0E4FA02A9002001910090CF
:10CE7000207A33462A460899FFF79AFD002F02D000
:10CE80002046FFF703FC2846B3E7000030B587B023
:10CE900004464588014602A8FFF731FE03990029A0
:10CEA0001AD068460089052819D0042849D00628D8
:10CEB00047D0072845D002A9284600F059F8002895
:10CEC00008D0A068002801D002F0BAFF012128464E
:10CED000F7F7CEFF07B030BD0028F7D0F1E768467E
:10CEE00040890428EDD301A8FFF744FE6846C088B6
:10CEF000182809D3012069460882172048824979F9
:10CF000004AA2846F7F774FF68464189C088001DC7
:10CF1000814202D02846FFF767FC68460079039AF1
:10CF2000C00701A9284603D0121DFFF727FF02E022
:10CF3000121DFFF789FE0028C3D02846FFF754FCD6
:10CF4000BFE70C21484309494018303801880029BF
:10CF5000B7D0807802AA2946FFF7E0FC0028B0D1BC
:10CF6000684600890428B1D1B4E70000DC660020DF
:10CF7000F3B583B00D460888FFF724FB060076D092
:10CF8000F468002C73D0F188039881426FD1208916
:10CF9000002874D0401E80B22081217F0A013A49C6
:10CFA00009685118C988884203D163213046FFF7C8
:10CFB00075FC6069002828D16868417802780F0202
:10CFC00017436A88B91C8A420DD10121C94302F076
:10CFD00073FE68606F80307A2A460399FFF79EFCE3
:10CFE000002845D00EE02949384602F0D3FE6061A2
:10CFF00027830121C943686802F05EFE6860688883
:10D00000801E68806069002837D06A88608B238B17
:10D010001118994201D9042132E0237F1F011A4BD4
:10D020001B68FB185B88994225D8616908186968F4
:10D0300002F094FE6888618B401880B26083218B77
:10D04000884214D170886946088060690190208BFD
:10D050004880307A6A460399FFF760FC002802D0C6
:10D06000606902F0EDFE0020606160832083012092
:10D0700005B0F0BD03E0052102E0092100E0062132
:10D080003046FFF735FAF2E798440020014C0000E3
:10D09000FFB583B00E461546022117200C9FF8F706
:10D0A00039F8040023D0002F03D0201D0699B8477B
:10D0B00000E0002026706570A070010AE1706946EA
:10D0C000001D4880052008800A4801940078002847
:10D0D000039802D0FFF71CFA01E000F0B1F9050057
:10D0E00002D0204602F0ACFE284607B0F0BD132067
:10D0F000FBE7000085440020F0B585B015460E46DC
:10D1000007461C460A22002101A802F01FFF6846BC
:10D110008581002D12D16088694688801548008875
:10D120000881E068002809D0134A017F12680901CC
:10D13000891849886A46D180008950810F4800903B
:10D14000F2B201AB15213846FFF7A2FF060007D067
:10D15000002D05D02046FFF799FA304605B0F0BD06
:10D160000120207000202071024601462046FFF772
:10D170004EFBF2E78E44002098440020B9C3000023
:10D180001CB504281DD30C210F4A41438C18303C98
:10D190006168002915D00D4A1278002A0FD06A461E
:10D1A000108001912089508060896946FFF7B0F9AD
:10D1B000002802D0606802F043FE00206060012079
:10D1C0001CBD00201CBD0000DC6600208544002042
:10D1D000F8B5214F3E7834462048210100680D18EB
:10D1E000287801282DD1E96800292AD0C8680028AC
:10D1F00027D0088800281AD019480078002814D0B1
:10D20000164821010068081800F09CF8010003D0BE
:10D210002846FFF76DFA1DE01248641C007884422E
:10D2200001D23C7001E0002038700120F8BD487F39
:10D23000FF2806D128466221FFF730FBE96800206D
:10D2400048770848641C0078E4B2844200D3002484
:10D25000B442C1D10020F8BD8B440020944400208A
:10D26000854400208844002010B50520FFF788FF82
:10D2700000280ED10620FFF783FF002809D10420E3
:10D28000FFF77EFF002804D10720FFF779FF002871
:10D2900001D0012010BD034800780028FAD0FFF724
:10D2A00097FF10BD88440020FFB583B014460D469B
:10D2B0000C9F0E9A0D991E46062D13D001AB0398B4
:10D2C000FFF706F800281BD10198052207701C4BB8
:10D2D00042801978FF2915D00171491C1970142D4D
:10D2E00014D018E06088FFF76DF90190002806D08F
:10D2F000C068408820800198C0880390E4E702203D
:10D3000007B0F0BD012119700171E8E76280019852
:10D310002189C06801810198009602792346294637
:10D320000398FFF7B5FE040003D00198FFF7AEF9AC
:10D3300003E01E21019800F065F82046E0E70000B8
:10D340008A440020F1B582B00298C4682C48E6886F
:10D350000088B04200D20646608A002804D0218AA4
:10D36000081AB04204DB05E0208A801CB04201D2DA
:10D3700085B200E0354602212846F7F7CBFE0700CC
:10D380003AD060886946088001974D80608A0028FD
:10D390000BD1207C3870208A000A7870BF1CB542FF
:10D3A00001D2258A01E0AD1EADB2618AE0682A464D
:10D3B0004118384602F0D2FC02986946C088FFF74F
:10D3C000A7F8060003D0384602F03AFD15E02088A1
:10D3D000401E80B22080618A491989B26182228A06
:10D3E000914204D2002808D1FF20607705E0002197
:10D3F0000298FFF77DF900E013263046FEBD0000DD
:10D400008E44002010B50446064848430649F3F709
:10D4100099FE0246234609332146044802F06EFF76
:10D4200010BD000040420F0071020000F3C7000071
:10D4300010B50446407A02F0E3FFFF20607210BD91
:10D440000A880C235A43074BD218303A5368002BF2
:10D4500001D0162070474B68536050814888108176
:10D4600000207047DC66002010B500230F22845C8A
:10D4700064001C438C54835C521EDB09D2B20F2A19
:10D48000F5D910BDFFB581B01D4617460E460846BA
:10D4900000F05CF8002802D0112005B0F0BD14485F
:10D4A00000F054F8040020D065710622A01D0A99EE
:10D4B00002F054FC66802771019820700025E56217
:10D4C0000B9820730C98E0810D9820820E98608252
:10D4D0000F98A08200F0B8F82086656300213046DE
:10D4E000A56300F0FDFE0020D7E71520D5E700007A
:10D4F000FFFF000070B514460D46064600F026F802
:10D50000002808D00379C06A00280CD012211940E5
:10D51000102905D00BE00C48864213D0142070BDB2
:10D52000002C02D103E0D8060CD4052070BDD9062A
:10D5300001D40F2070BD002804D0807EA84201D203
:10D540000C2070BD002070BDFEFF000030B50A4AFF
:10D55000002113780CE03C2455684C43641964881E
:10D56000844203D13C204143481930BD491CC9B213
:10D570009942F0D3002030BD24430020F0B50C4D7B
:10D5800000210C4E2C780FE03C226B684A43D718E0
:10D590007F88B74206D09A5C824203D13C20414347
:10D5A000C818F0BD491CC9B2A142EDD30020F0BD9E
:10D5B00024430020FFFF000030B50B4A00211478FF
:10D5C0000DE03C2355684B435B191B8E834204D10D
:10D5D0003C2041434819408830BD491CC9B2A14292
:10D5E000EFD3024830BD000024430020FFFF0000BD
:10D5F00030B5134B0020134D1C781DE03C215A68B8
:10D60000414389184A88AA4214D0496B002911D095
:10D610000A78012A02D0002A04D00BE049780C29AC
:10D6200003D807E049780C2904D23C2148435968C3
:10D63000401830BD401CC0B2A042DFD3002030BD36
:10D6400024430020FFFF000030B5114C00210846A4
:10D6500023780AE03C226568424352191579002D6F
:10D6600001D0128E1143401CC0B29842F2D3480838
:10D67000C04381B2012004E0CA0704D14908401C1C
:10D68000C0B29842F8D30121814088B230BD000079
:10D690002443002070B51348134C007F8107890F85
:10D6A0008008081820701BD03C2148430F4902F025
:10D6B00071FB6060002002460D4B07E03C2165686D
:10D6C000414349194B800A71401CCA622178884243
:10D6D000F4DB084900208300401CCA500C28FADB08
:10D6E00070BD00003465002024430020019000003C
:10D6F000FFFF00002C66002000B5FFF727FF002881
:10D7000000D0808A00BD000030B50F4B00200F4CC8
:10D710001A7814E03C215D68414349194D88A542BF
:10D720000BD0496B002908D04978C91F092904D8B2
:10D730003C2148435968401830BD401CC0B290425B
:10D74000E8D3002030BD000024430020FFFF00008C
:10D7500030B5094A0020014614780AE03C23556898
:10D760004B435B191B79002B01D0401CC0B2491CF4
:10D77000C9B2A142F2D330BD244300200148007851
:10D780007047000024430020F8B505000FD00024A6
:10D79000074E084F08E03C207168604340184188FC
:10D7A000B94200D0A847641C30788442F3DBF8BD4E
:10D7B00024430020FFFF0000074A00218B00D358BC
:10D7C000002B05D0491CC9B20C29F7D31320704790
:10D7D00089005050002070472C66002010B5FFF7DC
:10D7E000B5FE040013D06088012100F079FDE06AE5
:10D7F000002801D002F024FB3C220021204602F048
:10D80000A5FB0020C04360800020207110BD0220D5
:10D8100010BD00B5FFF79AFE002800D0007B00BDC8
:10D8200010B50C460549884206D0FFF78FFE002848
:10D8300003D00079204000D0012010BDFEFF000081
:10D8400010B50C46FFF782FE002802D0818AA14263
:10D8500001D1012010BD8482002010BD10B51248F6
:10D86000846B207B012817D160792721252803D0DC
:10D87000262811D1E07E10E0E07E82070DD526201B
:10D880006071204600F012FBE07E400704D5074897
:10D890000221C07802F028FC10BD4007FCD5617160
:10D8A000204600F003FB10BD2C67002068650020B7
:10D8B00010B51121942002F06DFA04001CD00F481D
:10D8C000942284630021204602F040FB0120207155
:10D8D0009020A0720A49204680300A698260496916
:10D8E000C1600321A1730749E16707490160074946
:10D8F0004160F6F7B7FE6073204610BD2C6700202C
:10D900008865002011D900001DDA00005DD80000F4
:10D91000FEB5404E0027B46B3146254660350A46B9
:10D9200068798C3201928B6B6633002809D0923172
:10D930000091012808D0022811D0032830D01220ED
:10D94000FEBD0622019903E0B078002802D006222D
:10D95000184647E02F4906229831184642E02F71B9
:10D96000287B002817D020466C30F8F7AFFD2066E2
:10D9700000280DD000F04AFC216E887A002807D0DC
:10D98000022028712046062266300C3102F0E6F9AA
:10D990002879022828D001202871062201991FE049
:10D9A0002F71287B002817D020466C30F8F78EFDA9
:10D9B000206600280DD000F029FC216E887A00280E
:10D9C00007D0022028712046062266300C3102F072
:10D9D000C5F92879022807D001202871009906226C
:10D9E0002046663002F0BAF97078002808D0E87C4A
:10D9F0008009012804D120466C30F8F783FD2066A9
:10DA00000120207304483770C078012102F06CFBBC
:10DA10000020FEBD2C6700206865002070B5204EF8
:10DA2000B46B207B012837D13078401CC5B23570EB
:10DA30001920A18A8001F3F785FBA84203D800F0E2
:10DA400081FB00203070E07E164DC10705D02521F6
:10DA500040076171800F06D10EE0810708D52621AD
:10DA60006171400708D5E878022102F03DFB03E030
:10DA7000400701D527206071A07E01280DD00E211E
:10DA80000120FAF7A0FFA18A4218E878012102F0EC
:10DA90007DFC204600F00AFA70BDA28AF5E700007E
:10DAA0002C67002068650020F0B5F5480026846BDF
:10DAB000F44DA07A85B095282BD094287ED0962856
:10DAC00025D1A878C1079120002978D0A072FAF753
:10DAD000BFFF00210846FAF7ABFBEB4D2868002892
:10DAE00015D04068002812D00220694608707520C1
:10DAF000005D4870E07B0872214600A8062276315E
:10DB0000023002F02BF9286841686846884705B062
:10DB1000F0BDE878C0077DD0DA4DEE70264680363D
:10DB200022460F320021F068FAF708FFA87100289A
:10DB300071D1F06840788006800E2072801F1F2807
:10DB400069D8F06800780007000F6072052801D0DE
:10DB50000328EDD12046F168663006220831019095
:10DB600002F0EEF8002856D0F068274600786037BB
:10DB70004006C00F78752046F16876300622891C71
:10DB8000009002F0EBF8BE4825464078002830D0DF
:10DB9000787D00282DD0F87E8009012829D1286EB3
:10DBA000002815D0817C002912D0C07802210843BA
:10DBB0007875216E082202A8891C01E02EE152E14D
:10DBC000F3F737FB009A03990298F8F73BFC2EE035
:10DBD000A8790007000F01281ED028467430F8F7F6
:10DBE00091FC2866002804D0C0780221084378758B
:10DBF0001FE0A8790007000F01280DD0E87AC107BF
:10DC000002D0697A03290ED0800712D5687A0528D8
:10DC100009D00EE0EAE0E7E0284606226E300099DF
:10DC200002F08EF803E0A96F686FF9F7B5F80028E5
:10DC300099D0607A0528A07906D001077FD0000727
:10DC4000000F06287BD0CFE0010703D00007000FAC
:10DC50000128F8D18A4D686E00286DD0FAF7F8FED9
:10DC60002846406E8047F7F787FD050064D0874857
:10DC70000068804729468031C860F0682F46C37B22
:10DC8000827B1B02D218037C407C1B040006181800
:10DC90001018E867F0682037C27C037D12021B046D
:10DCA000807CD21810180860F068407DF871F06828
:10DCB000C17D827D080210432885F068417E027E86
:10DCC000080210436885F068C17E827E0802104316
:10DCD000A885F068417F027F08021043E885F1685B
:10DCE000E81D0522FD301E3102F038F8F068684961
:10DCF0002030C078C006C00E7871F0682030C0783F
:10DD00004009B871688D801F884209D2A88DFF2113
:10DD1000F431884204D8E98D1920C001814207D925
:10DD2000FF354135A88BF7F7E7FC5DE007E003E03E
:10DD30005348816E28468847F7F78EFB9AE0042007
:10DD4000A071617F891DE171B1680870E079B168E7
:10DD50008006800E48707879C00702D13879022891
:10DD600004D1B0684022017811430170B0680622E6
:10DD7000801C019901F0F2FFB0682146627F3E31BC
:10DD8000083001F0EBFFE079424D401D8008B26899
:10DD9000A97C80001154E079FAF79EFF3E495A2091
:10DDA00009680865E079374AC00080211171297D32
:10DDB000FF301930C90702D01F30430902E037494C
:10DDC0004843430C3648816B0091816B009A914225
:10DDD000F9D13449D018884201D349424018324918
:10DDE000C8609620A07292E6922040E0287901282F
:10DDF000F9D12E719220A072FAF72AFE002108466E
:10DE0000FAF716FA68790028EDD1A868401CA860D6
:10DE10000007E8D501206871AE6078E6A878C007F1
:10DE20001DD0A079010705D00007000F012801D0FF
:10DE30000628D9D19520A072802028711848122375
:10DE4000816B0091816B009A9142F9D11549D018EC
:10DE5000884201D3494240181349C86057E62879DF
:10DE60000128C1D053E629790129BCD12E71A072B5
:10DE7000FAF7EEFD00210846FAF7DAF947E6000066
:10DE80002C670020886500202C4300206C42002075
:10DE90007B0C00003465002070420020C710000099
:10DEA000001000400000C0A868650020F8B50446D6
:10DEB0005648C06D00287DD1A07E26460007000F81
:10DEC000254660368035A071012826D0207F801D30
:10DED0008106890EE171A968A0790870227F214628
:10DEE000A8681E31083001F039FF70792746800795
:10DEF000663700280DDA206E00280AD0807A0028C4
:10DF000007D002203071216E062238460C3101F014
:10DF100025FF7079C00728D124E00C21E171A968A0
:10DF2000012008707079274680076E3700280DDAC7
:10DF3000206E00280AD0817C002907D0C07C707335
:10DF4000216E06223846143101F008FF707B00284C
:10DF500004D0A86880220178114301700622394656
:10DF6000A868BFE73079022804D1A8684022017868
:10DF700011430170A968E0794870A8680622394603
:10DF8000801C01F0EBFEE079214E401D8008AA685C
:10DF9000B17C8000115492211E4DA172E8790028B5
:10DFA00001D0FAF755FD1C495A2009680865E07947
:10DFB000C00000E029E080212971317DFF30193057
:10DFC000C90702D01F30430902E014494843430CFB
:10DFD0001348816B0091816B009A9142F9D11149EC
:10DFE000D018884201D3494240180F49C860002127
:10DFF0000E48FAF71DF90120E8719420A072E37928
:10E0000062790B490B48FAF753FDF8BD2C670020E5
:10E01000346500208865002070420020C710000091
:10E02000001000400000C0A868650020A9DA0000C8
:10E0300055555500D6BE898E0548016D002004E077
:10E04000CA79002A00D1401C09680029F8D170471C
:10E050002C6700200548016D002004E0CA79012AE0
:10E0600000D1401C09680029F8D170472C670020B6
:10E07000F0B5064685B004210020FAF7A4FC01465D
:10E0800030464030009001822248006E01283CD981
:10E090000098318F008B0125401A00994F8A9821F2
:10E0A00089597843401804901B48C07B22304008AF
:10E0B0000B300390781E029025E016482821046D4D
:10E0C0002846484300220499D2434018019013E0A7
:10E0D000B44202D12468002C19D020468030416916
:10E0E000B94205D1019A8069101AF3F72BF80A4654
:10E0F0000398824203D32468002CE9D107E0002C66
:10E1000005D00298AD1CA842D7D805B0F0BD009844
:10E110000582FAE72C6700203465002030B5002224
:10E12000074C07E00D889D4202D8D8B2088030BD68
:10E13000521CD2B2A35C8342F9D8FF2BF2D130BD7E
:10E14000DD050100F8B519490126886A184D002837
:10E150001AD08047174F04467889002820D0A04263
:10E1600001D2214600E00146A04200D32046081A11
:10E170003C2815DD0D48C06A002800D080476E712C
:10E18000F3F7A0FF7C81F8BD68790021002805D154
:10E19000A868401CA8600007F5D56E71A96002E070
:10E1A00068790028EFD0F3F7C5FDF8BD346500208D
:10E1B000886500206865002010B588B00C460021F5
:10E1C00000910191029103910491059106910791AB
:10E1D000E1786A46D173217991736179517304AA08
:10E1E0006946F7F727FB6A46D07F217888420AD133
:10E1F000907F6178884206D1507FA178884202D111
:10E20000012008B010BD0020FBE7000010B5044657
:10E210000F48806F02E0A04203D0C06B0028FAD103
:10E2200010BD0028FCD0002CFAD0A07A002805D020
:10E23000214620460C311A30F7F71EF8A07C002842
:10E24000EED02146204614312A30F7F715F810BDDC
:10E250002C670020034610B50A461946014802F013
:10E260004DF810BD69E2000070B5124D0446A86F6C
:10E2700002E0A04203D0C06B0028FAD170BD002894
:10E28000FCD0002CFAD0A07A002805D021462046E8
:10E290000C311A30F6F7F0FFA07C002805D021469B
:10E2A000204614312A30F6F7E7FF2046296BFFF7A6
:10E2B000D1FF70BD2C67002070B5002380241D465F
:10E2C000934202D2C65CCE5404E0934201D1CC54B6
:10E2D00000E0CD545B1CDBB2102BF1D370BD00000D
:10E2E000F8B5074D0E4607460024A0002A58002A1C
:10E2F00002D0314638469047641C0C2CF5D3F8BD4B
:10E300002C660020FFB581B00298FFF71FF90700C7
:10E310005ED0BE6B002E5BD0316A1820002900D081
:10E320003420B16A002900D014300499002900D0AB
:10E330001C30716A002900D0163001F00FFE04462F
:10E34000250045D01822002101F000FE1820F5F725
:10E350002BF80006000E009001D138780090D020F4
:10E360002870019868700A20A8700298A880039805
:10E37000A871306A1834002806D0AC6020461C22F0
:10E380001C34316A01F0EAFCB06A002806D0EC6067
:10E39000204614221434B16A01F0E0FC04980028ED
:10E3A00006D02C6120461C221C34049901F0D6FCB6
:10E3B000706A002805D06C6120461622716A01F04F
:10E3C000CDFC2946009801F03DFE3846FBF77CFB6A
:10E3D00005B0F0BDFFB581B006461C4615460820C5
:10E3E0000A9F01F0BBFD01000AD0D02008704E70DA
:10E3F000062088708D808C71CF71029801F022FE0A
:10E4000005B0F0BD70B5446B0546E06D4069C105CF
:10E4100003D5A1698988C9050BD4810503D5A169F4
:10E420008988890505D440050CD5A06980884005F8
:10E4300008D506206070204600F0B8F860781228F1
:10E4400002D070BD122060706888002100F010F8C2
:10E4500070BD01461020002909D08A69002A06D023
:10E46000C96D002903D0D078102800D3087E7047EA
:10E470007FB50D46FFF76AF804001AD0606B0028DC
:10E4800017D0014660314EC903966E460EC6837999
:10E49000828801782846FBF7CBFB204600F00CF879
:10E4A000FFF732F9002804D002480121807801F0FA
:10E4B0001BFE7FBD9A43002070B5446B0546002CBF
:10E4C0001DD0A069002801D001F0BAFC206E002800
:10E4D00001D001F0B5FC606E002801D001F0B0FC65
:10E4E000A06E002801D001F0ABFCE06E002801D046
:10E4F00001F0A6FC204601F0A3FC00206863288EF2
:10E5000000F0AAFD70BD00001FB5014604461022B0
:10E510001C31684601F022FCA088034B6A46112199
:10E5200000F032FD04B010BD6DF400001FB5040012
:10E530000FD0694600F04DFD20780028A08801D05A
:10E54000054B00E0054B6A46072100F01DFD04B0B5
:10E5500010BD0120FBE70000C5F4000065F50000D8
:10E5600070B50D46064600240BE001F097FD82B21F
:10E57000100A3055641CE4B2AC4202D23255641C1D
:10E58000E4B2AC42F1D370BD1FB50146044610227F
:10E590002C31684601F0E2FBA088034B6A4611214A
:10E5A00000F0F2FC04B010BDA5F40000F8B504467C
:10E5B000007801282AD16078122506280BD00C2873
:10E5C00025D010260D2857D00E2872D00F286FD0D6
:10E5D000102814D019E0A0694068C10503D5E16D89
:10E5E000898AC90513D4810503D5E16D898A890516
:10E5F0005FD4400509D5E06D808A400505D5FBF75D
:10E60000E5FA0146A08800F0EDF86570F8BD206ECF
:10E6100000280DD153211C2001F0BCFB20660028EE
:10E6200028D01C22002101F091FC206E002821D06E
:10E63000807E002804D12046FFF70BFF216E8876EC
:10E6400010220021206E01F081FC206E817E0029C5
:10E6500003D0112901D2FFF783FF01F01FFD216EC6
:10E660000882206E08211230FFF77AFFA088216E01
:10E6700000F07CF80D2023E0206E002805D0024633
:10E68000018A1232A08800F099F8A06940688105DB
:10E6900005D5E16D898A890501D50E2010E0400578
:10E6A000B3D5E06D808A4005AFD5667009E000E023
:10E6B00010E0FBF785FA0146A08800F075F80F20FE
:10E6C0006070A088FEF742FF002816D0C08941087C
:10E6D000421813E0FBF76EFA01280BD00120002747
:10E6E000FBF758FA0246A088394600F049F8A069BD
:10E6F0008088D4E700200127F2E710220248012198
:10E70000807801F043FEF8BD9A43002070B50C46B6
:10E710000546FEF71BFF426B002A06D09188A942EE
:10E7200003D1012C01D1FFF7C7FE70BD70B5FEF714
:10E730005FFF040017D0656B002D14D029780A48BC
:10E74000002901D0406800E08068002804D04168BA
:10E75000002901D0284688476878122803D16088AC
:10E760000021FFF785FE70BD9C44002010B50A46CD
:10E77000024B112100F008FC10BD0000DFF3000087
:10E780001FB5044668461346017006221946401C10
:10E7900001F0E4FA034B6A460821204600F0F4FB3E
:10E7A0001FBD0000FFF3000010B50A46024B112107
:10E7B00000F0EAFB10BD000023F400001FB5044682
:10E7C00068461346018008221946801C01F0C6FAEB
:10E7D000034B6A460B21204600F0D6FB1FBD00000C
:10E7E00043F4000010B50A46024B112100F0CCFBA7
:10E7F00010BD000073F5000070B586B0044600201F
:10E8000069460874A06805782B00F9F7ADFE0C2C5A
:10E8100007070F1215181B1E2124272C01F06EF874
:10E8200012281DD10620694608743DE001F037F832
:10E8300016E001F053F813E001F040F810E000F0AA
:10E84000EBFF0DE001F017F80AE001F005F807E032
:10E8500000F0F1FF04E001F0D9F801E001F0CCF89C
:10E86000002802D01CE00720DEE76088FEF76EFE7D
:10E8700003460720002B10D01A7B1049082A0AD023
:10E88000896800290AD00E68002E07D06A462946FA
:10E890001846B04702E04968F3E708206946087463
:10E8A0006846007C002805D0608804A900F05AFB67
:10E8B00006B070BD608800F0B9FBF9E79C44002009
:10E8C000F8B50D460746FEF741FE002849D0446BD7
:10E8D0001026002C07D0A088B84204D16078062802
:10E8E00004D0112831D0002D3DD036E020782249C7
:10E8F000002826D0E06D4069C20705D0A2691279D0
:10E90000D20701D0072006E0820706D5A269127956
:10E91000920702D50920607023E0400705D5A06961
:10E920000079400701D50B20F5E74868002818D08A
:10E930004168002915D0204688476078122802D007
:10E940000FE08868F2E7002103E0002D00D03225B7
:10E9500029463846FFF78CFD03E039462846FBF789
:10E96000A7FF0120F8BD3846FEF7F0FD0028F4D0DF
:10E97000017931430171F0E79C44002010B5044651
:10E98000104886B0806800281AD00268002A17D084
:10E990000A786B461A704A785A708A789A70CA78E0
:10E9A000DA704968019103686A4601212046984758
:10E9B000002805D069460874608804A900F0D2FADE
:10E9C00006B010BD9C44002070B51C4E0546306852
:10E9D000002832D0002D13D10278002A04D008225A
:10E9E0000A3001F0BBF908E00822801C01F0B6F9FA
:10E9F000F5F7D1FE00281CD00125306800281BD077
:10EA0000122001F0ABFA04000DD0C1202070657017
:10EA100031681022A01C891C01F0A0F93068214641
:10EA2000407801F00FFB306801F00AFA00203060F6
:10EA300002E0316801200870012070BD9C44002074
:10EA400010B50178922902D0A0292ED014E0417887
:10EA50000E2902D03E290AD00EE08188184A914240
:10EA60000AD18268511C1078FFF7AEFF10BD817883
:10EA7000052903D0082913D0002010BD0446808842
:10EA8000FEF7C7FE042818D10E488068002814D06D
:10EA90008368002B11D0E289A088A11D984710BD82
:10EAA00081798088FFF70CFF10BD0446FFF7A4FEB4
:10EAB000A068002801D001F0C3F9012010BD0000BA
:10EAC000182000009C440020F7B58CB0154606467F
:10EAD000FEF73CFD446B10220021684601F036FA37
:10EAE000002C35D0A088B04232D1207800282FD118
:10EAF000607806280FD0216E002929D01128088AB5
:10EB000019D0A84224D1082212310D9801F018F929
:10EB1000012859D01CE02246214608AB4C322C314A
:10EB2000E01D00F020FC002812D12046FFF791FCE8
:10EB3000024608A944E0A84206D1082212310D98E5
:10EB400001F0FEF8012836D032213046FFF790FC64
:10EB50003046FEF7FBFC374F04000CD0E16A002979
:10EB600009D0088AA84206D1082212310D9801F076
:10EB7000E7F801282BD030480078022846D02F48EB
:10EB8000007800284BD01022002104A801F0DEF903
:10EB900006222B4904A801F0E1F804A96A460846B8
:10EBA000F6F748FE69463046F5F7F1FD3A6B002A64
:10EBB0003ED003213AE02046FFF74BFC216E02468F
:10EBC000684601F0CBF80FE0216E8A7EF8E7E16A33
:10EBD00068468A7E01F0C2F81A480078002808D0FA
:10EBE000E06AC07E012804D069463046F5F7CFFDC3
:10EBF0001EE00F213046F5F71BFE3A6B002A02D0CB
:10EC000002210720904700200FB0F0BD0F213046B1
:10EC1000F5F70EFE3A6B002A0AD0042106E03046D2
:10EC2000F5F7B1FD3A6B002A02D001210720904789
:10EC30000120E9E734650020DB440020DA440020AD
:10EC4000B8650020D54400207FB504460078002830
:10EC500072D1607806280BD0072811D00B25082820
:10EC60006ED009286AD00A2869D00B2818D01DE078
:10EC7000E06D4069C10707D0A1690979C90703D0D0
:10EC8000206E00281CD022E0810703D5A1690979F4
:10EC9000890770D4400709D5A0690079400705D5D8
:10ECA000FAF794FF0146A088FFF79CFDE06D4069EC
:10ECB000C10571D5A1698988C9056DD50C2090E081
:10ECC00053211C2001F066F82066002832D020462F
:10ECD000FFF7BFFB216E102288760021206E01F025
:10ECE00035F9206E817E002917D0102915D8414AA8
:10ECF0001278002A0FD010220021684601F026F970
:10ED000006223D49684601F029F869460846226E08
:10ED1000F6F790FD01E0FFF723FC01F0BFF9216E4B
:10ED20000882206E08211230FFF71AFCA088216E9D
:10ED3000FFF71CFD082025E054E001E01BE02CE07B
:10ED4000206E002805D00246018A1232A088FFF703
:10ED500035FDE06D4069810705D5A169097989070D
:10ED600001D509200EE04007A0D5A0690079400731
:10ED70009CD5657007E0FAF723FF0146A088FFF7EE
:10ED800013FD0A206070A088FEF7E0FB00282AD05F
:10ED9000C0894108421827E012E0FAF70BFF01286A
:10EDA0000BD001200026FAF7F5FE0246A088314676
:10EDB000FFF7E6FCE06D007DD5E700200126F2E7D5
:10EDC000810505D5A1698988890501D50E2008E04E
:10EDD000400505D5A0698088400501D5102000E0D8
:10EDE000122060707FBD102204480121807801F05C
:10EDF000CDFA7FBDDA440020B86500209A43002098
:10EE000070B5044680690D46002801D0112070BD00
:10EE10005321102000F0BEFFA061002807D010226F
:10EE2000294600F09BFF2078002802D06DE01320D7
:10EE300070BDE16DA36948691B79C207DB07D20F7A
:10EE4000DB0F9A4202D0400840004861E16DA3699F
:10EE500048691B7982079B07D20FDB0F9A4202D0C9
:10EE6000022290434861E16DA36948691B7942071A
:10EE70005B07D20FDB0F9A4202D004229043486115
:10EE8000E16DA36948691B7902071B07D20FDB0FED
:10EE90009A4202D0082290434861E16DA369486913
:10EEA0009B88C205DB05D20FDB0F9A4203D0FF22FD
:10EEB000013290434861E16DA36948699B888205EE
:10EEC0009B05D20FDB0F9A4203D0012252029043DE
:10EED0004861E16DA36948699B8842055B05D20FD3
:10EEE000DB0F9A4203D00122920290434861E16D08
:10EEF000A36948699B8802051B05D20FDB0F9A4264
:10EF000003D00122D202904348616878002805D0DE
:10EF1000E06D4078002801D005201BE0A87840076C
:10EF200005D4E06D807C400701D4012012E02078F8
:10EF3000002803D0E16D2878097802E0E06D297897
:10EF40000078052809D2052907D282008018044AD2
:10EF50008018405CE070002070BD182070BD00007B
:10EF6000B405010070B50C460A460546054B022162
:10EF700000F00AF8064621782846FFF779FA30466D
:10EF800070BD00008DF400007CB516460A460546AB
:10EF90000620694608804A801C4603211046F6F781
:10EFA000B9F8019000280ED001463046A047040071
:10EFB00005D169462846F6F767F8040004D00198A1
:10EFC00000F03EFF00E01324284600F02FF8204612
:10EFD0007CBD10B50B46002811D0C16D00290ED0A4
:10EFE00009781970C16D49785970C26D927C9A7018
:10EFF000C16D097ED970C06D4069586010BD102286
:10F000000021184600F0A2FF10BD000038B5064CE4
:10F01000049D6468002C05D0A468002C02D00095E3
:10F02000A04738BD022038BD9C44002070B505467D
:10F030001220F4F7B9F904000AD02846FEF786FA40
:10F04000002805D0018E03482246807801F09EF901
:10F0500070BD00009A430020014610B50248807838
:10F0600001F0F2F910BD00009A43002010B5FEF740
:10F07000A3FA0349884202D01721FFF7F9F910BD1E
:10F08000FFFF0000FFB50F4689B015465321102041
:10F0900000F080FE05905321102000F07BFE0690CA
:10F0A0000598002878D00698002870D00246059967
:10F0B0000998FCF793FF04006AD15321102000F057
:10F0C00069FE08905321102000F064FE0490089817
:10F0D000002853D0049800284BD028460F3001094F
:10F0E0000DD0280709D00020491E8EB2002807D075
:10F0F0003001C019049A05990CE00120F4E70026BC
:10F100002A073001120FC0196946FFF7D5F8684683
:10F11000049A069901F0E6F910220021089800F0FF
:10F1200015FF00250DE02801C1196A46089801F075
:10F13000D9F96946089A0998F6F77CFB6D1C0446D4
:10F14000ADB2B54202D2002CEDD013E0002C11D1AB
:10F150006A460499089801F0C5F96946089A099821
:10F16000F6F768FB0446129A08990C9800F0F6FD31
:10F1700000E01324089800F063FE00E013240498D4
:10F18000002805D000F05CFE02E005E0FFE7132454
:10F19000059800F055FE00E013240698002801D0E1
:10F1A00000F04EFE20460DB0F0BDF8B50F46064605
:10F1B00015465321302000F0EDFD040020D0302210
:10F1C000002100F0C3FE10223146204600F082FFED
:10F1D0002046032239461D3000F07CFF224621469E
:10F1E000203210312046F6F725FB214603222D312F
:10F1F000284600F06FFF204600F022FE0020F8BDF8
:10F200001320F8BDFFB58DB005003AD0A888FEF7F1
:10F210009DF9040035D005A92846FFF7DAFE2878C5
:10F22000002810D0FAF7C6FC009060790190002009
:10F23000FAF7B0FC0746A61D09A905A800F042F997
:10F240000BA9A8690FE0FAF7B5FC0190607900906E
:10F250000020FAF79FFC0646A71D09A9A86900F03F
:10F2600031F90BA905A800F07DF9019910980291D8
:10F27000049009AB0BAA019703960F990E9800F022
:10F2800002F811B0F0BDFFB589B01F465321302000
:10F29000129E149D00F07EFD040060D030220021FB
:10F2A00000F054FE10222046099900F013FF1022AE
:10F2B0000021684600F04AFE072268460B9900F0DC
:10F2C00009FF01A807223946033000F003FF01219E
:10F2D0000020002D6A4601D0917300E09073002E4B
:10F2E00001D0D17300E0D0731022002104A800F0F7
:10F2F0002DFE062205A8139900F0ECFE06A80622B2
:10F300000230159900F0E6FE1022A01806460A9970
:10F3100000F0E0FE6946304600F056F82246203202
:10F32000174631462046F6F785FA050013D110221C
:10F330003946304600F012FD04A9304600F044F88A
:10F340003A4631462046F6F775FA05461022394608
:10F35000169800F0BFFE204600F072FD00E0132575
:10F3600028460DB0F0BDFFB5074681B01D461646D4
:10F370005321302000F00EFD040021D01022394628
:10F3800000F0A8FE2046103008220746029900F03F
:10F39000A1FE204608223146183000F09BFE22468E
:10F3A0002032164639462046F6F744FA0746102220
:10F3B0003146284600F08EFE204600F041FD00E078
:10F3C0001327384605B0F0BD10B50022835C8C5C75
:10F3D00063408354521CD2B2102AF7D310BD10B52B
:10F3E0000B000AD0002808D006211970014610220F
:10F3F000581C00F0B3FC002010BD022010BD10B559
:10F400000B000CD000280AD009211970017859701E
:10F41000411C0622981C00F0A1FC002010BD022017
:10F4200010BD10B50B000AD0002808D008211970B3
:10F4300001461022581C00F091FC002010BD022053
:10F4400010BD10B50B000FD000280DD0072119708A
:10F450000178597001880822090A9970811CD81C0A
:10F4600000F07CFC002010BD022010BD10B50B0088
:10F470000AD0002808D00321197001461022581C18
:10F4800000F06CFC002010BD022010BD002907D048
:10F49000002805D005220A700078487000207047C7
:10F4A0000220704710B50B000AD0002808D00421B4
:10F4B000197001461022581C00F050FC002010BDAD
:10F4C000022010BD0A4600B50146012000F001F8F7
:10F4D00000BDF0B5002A43D0002941D01070087853
:10F4E0005070487890708878D070C8781071002774
:10F4F00057718888C3050120002B00DA50718B8872
:10F5000002249B05002B02DA5379234353718B8825
:10F5100004255B05002B02DA53792B4353718B884A
:10F5200008261B05002B02DA537933435371977178
:10F530000B79DB0700D090710879800702D59079AC
:10F54000204390710879400702D590792843907143
:10F550000879000702D59079304390710020F0BD02
:10F560000220F0BD0A4600B501460220FFF7B1FFB8
:10F5700000BD10B50B000AD0002808D00A21197070
:10F5800001461022581C00F0E9FB002010BD0220AB
:10F5900010BDF0B5446B002589B017460646002C17
:10F5A0007DD0A288708882427AD12278002A78D0D1
:10F5B0000B2976D8891E0B00F8F7D6FF0A060C1A1D
:10F5C000BE49618699ABCC9C3946204600F0C5F80F
:10F5D0000546BFE02046102239463C3000F0BEFB15
:10F5E0002046FEF7D1FF002800D00825052069E05D
:10F5F00020464C3010223946064600F0AFFB05ABE2
:10F600003246E11D2046FFF7FDFD214610223C3128
:10F6100005A800F095FB012801D004259AE02246B8
:10F6200001AB2C323146E01DFFF79DFE00280BD1C7
:10F630002046FEF70EFF00900023A0881A4601A97D
:10F64000F8F766FC002800D0082506203AE060782C
:10F6500007284FD1606E002806D153211C2000F0EE
:10F6600099FB6066002845D01022394600F076FBF1
:10F670002046FEF7EEFE616E8876082022E0606E7E
:10F68000002837D06178082934D139880182606E2A
:10F690000822B91C123000F061FBE06D02E051E07D
:10F6A0004EE027E04069810705D5A16909798907FE
:10F6B00001D5092006E0400727D5A0690079400759
:10F6C00023D50B20607045E06078092812D1A06E28
:10F6D000002806D10121162000F05CFBA06600285E
:10F6E00003D01022394600F039FB0A20EAE760789F
:10F6F0000A2801D007252DE0A06E0622791C1030C3
:10F7000000F02CFBE06D007DD5E73046FEF77AFE79
:10F7100020E0E06E002806D15321142000F03AFBCF
:10F72000E06600280CD01022394600F017FB0020BC
:10F73000E16EC0430861E8E73978FEF799FE09E019
:10F74000082507E00B2905D1137871883078B21DA0
:10F75000FBF70AFA284609B0F0BDF8B50446FFF7F2
:10F760004FFB002803D0182854D10320F8BDE06DCA
:10F77000807CC00709D0A06980788007800F0128AD
:10F7800003D1A07901210843A071E0780326042564
:10F79000022817D003280BD0042813D0274626466A
:10F7A00002211C372C3601280FD0052814D007E081
:10F7B000A0880221FAF7C3FAA0792843A0716670E5
:10F7C0000020F8BDA0880121F4E76170102200211B
:10F7D000E01D00F0BBFB0EE0617010220021E01D77
:10F7E00000F0B4FBE16D1022E01D891C00F0B6FAB8
:10F7F000A0792843A07110213046FEF7B1FE3B46A8
:10F800003246E11D2046FFF7FDFC2046FEF77CFE58
:10F810000028D6D00820F8BD10B50B46002808D027
:10F82000002B06D0411C1022184600F097FA002049
:10F8300010BD022010BD10B50B4600280AD0002BC9
:10F8400008D041781970811C0622581C00F086FAF5
:10F85000002010BD022010BD10B50B46002808D0B6
:10F86000002B06D0411C1022184600F077FA002029
:10F8700010BD022010BD10B50B4600280DD0002B86
:10F880000BD082784478110221431980C11C0822D0
:10F89000981C00F063FA002010BD022010BD10B5C6
:10F8A0000B46002808D0002B06D0411C1022184619
:10F8B00000F054FA002010BD022010BD002809D02D
:10F8C000002907D042780A704078401E092803D2E8
:10F8D00000207047022070471820704710B50B4673
:10F8E000002808D0002B06D0411C1022184600F03A
:10F8F00035FA002010BD022010BD000070B50C4686
:10F90000002810D0002C0ED04178217081786170D1
:10F91000C178A1700179E1704179CA073249626802
:10F9200003D00A4302E0022070BD8A43626041793D
:10F930008A072E49626801D50A4300E08A43626063
:10F9400041794A072A49626801D50A4300E08A439F
:10F95000626041790A072749626801D50A4300E0DD
:10F960008A4362608179C90703D01146012211439D
:10F9700001E051084900616081798A070221002A6B
:10F98000626801DA0A4300E08A43626081794A07CB
:10F990000421002A626801DA0A4300E08A436260B7
:10F9A0008079010708200029114601DA014300E0AF
:10F9B000814313206160F3F7F7FCC5B21420F3F71D
:10F9C000F3FCC1B2E078A8420BD3884209D8207872
:10F9D000052804D26078022801D2002070BD1820CA
:10F9E00070BD122070BD0000000100000002000088
:10F9F0000004000000080000002805D0002903D002
:10FA000040780870002070470220704710B50B4600
:10FA1000002808D0002B06D0411C1022184600F008
:10FA20009DF9002010BD022010BDF0B5446B0026EA
:10FA300087B015460746002C7DD0A2887888824280
:10FA400002D0082007B0F0BD2278012A74D00B0044
:10FA5000F8F78AFD0BC007C00D28BE465E8295A848
:10FA6000C0002946204600F0C7F80646B3E020460D
:10FA7000102229463C3000F071F9607804280FD03C
:10FA8000234622461C332C32E11D2046FFF7BAFBE9
:10FA90002046FEF739FD002800D00826052059E051
:10FAA000032057E0204629464C301022054600F03E
:10FAB00055F903AB2A46E11D2046FFF7A3FB21467B
:10FAC00010223C3103A800F03BF9012801D00426A4
:10FAD00081E02046FEF758FD002877D1062039E066
:10FAE00060780C284ED1606E002806D153211C206E
:10FAF00000F050F96066002844D01022294600F03A
:10FB00002DF92046FEF7A5FC616E88760D2021E0D8
:10FB1000606E002836D061780D2933D129880182A2
:10FB2000606E0822A91C123000F018F9E06D4069DF
:10FB3000810508D501E050E024E0A16989888905A4
:10FB400001D50E2006E0400527D5A0698088400534
:10FB500023D5102060703EE060780E2812D1A06E90
:10FB6000002806D15321162000F014F9A0660028C1
:10FB700003D01022294600F0F1F80F20EAE7607860
:10FB80000F2801D007205DE7A06E0622691C103007
:10FB900000F0E4F8E06D808AD5E778880021FEF770
:10FBA00067FC18E0E06E002806D15321142000F015
:10FBB000F1F8E066002809D01022294600F0CEF8BE
:10FBC0000020E16EC0430861E7E7FFE7082602E096
:10FBD0002978E4E70726304634E701290AD1A878D6
:10FBE000E9786B466A6807C36B782A7879880020C1
:10FBF000FAF77EFF002025E770B50446FFF700F90D
:10FC0000002805D0182801D0082070BD032070BD41
:10FC10002046FEF78BFCE16D887CC00709D0A06907
:10FC200080788007800F012803D1A079012210433A
:10FC3000A071E078042502280BD003280CD00428FA
:10FC40000AD0264602222C3601280ED0052813D0D1
:10FC50001FE0A088022101E0A0880121FAF76FF8D7
:10FC6000A0792843A071657013E062701022002112
:10FC7000E01D00F06BF908E062701022E01D891CA5
:10FC800000F06CF8A0792843A07110213046FEF7EF
:10FC900067FC002070BD000002460648006906E0CF
:10FCA00043888B4202D10378934202D0C068002877
:10FCB000F6D170475042002030B50B4C0346401A35
:10FCC000A56822680BE014460834A34206D31168E5
:10FCD000994203D9A04201D3814203D81268AA42B3
:10FCE000F1D1184630BD000074430020064A527816
:10FCF000824207D9054A4000D268135A8B431352F7
:10FD000000207047032070476865002050420020A3
:10FD100010B50024FFF7C0FF002800D084682046FB
:10FD200010BD10B5002805D0002305E0C45C8C424E
:10FD300001D0002010BD5B1C9342F7D3012010BD01
:10FD400010B507E003780C78401C491CA34201D091
:10FD5000002010BD521EF5D2012010BD002808D091
:10FD6000002906D003E00B780370401C491C521E8A
:10FD7000F9D2704770B506460D4688B24F2100F0A3
:10FD800009F8040003D02A463146FFF7E7FF204672
:10FD900070BD0000F8B50D46254A2649954202D1AE
:10FDA0000B78002B41D000283FD0002D3DD0C3431D
:10FDB0005B1C9B079B0F181884B21F4B342C01D877
:10FDC000186800E058689B681C4E984226D0C78887
:10FDD000002F1AD18788A74217D3BBB21B1B082B51
:10FDE0000BD9031906689E608688361B083E9E81E3
:10FDF0000026DE81083303608480C580954202D1ED
:10FE00000A78521E0A700830F8BD00688700DCD4FA
:10FE1000326B002A09D0014602209047326B002A3B
:10FE200003D021042943012090470020F8BD0000A1
:10FE300001800000864400207443002034650020C7
:10FE4000F0B4264D00232A680028164636D0AC6848
:10FE5000A24233D2904233D31168814230D311464B
:10FE6000083188422AD3D0881D49884203D11D48D1
:10FE70000178491C01700020D080B2420DD0686822
:10FE800082420AD0D888002807D110681860988864
:10FE900091881A464018083098801068A9688842EE
:10FEA0000CD06968884209D0C188002906D19188A0
:10FEB0008388C9180831918000681060F0BC7047D1
:10FEC00011688B0002D513460A46C1E70648026B4B
:10FED000002AF3D0F0BC0220104700007443002039
:10FEE00001800000864400203465002070B5134D69
:10FEF00013482968134C08182060AA888918083903
:10FF0000A160091ACA10002100F020F8A8880E4943
:10FF1000884201D9C91000E0C108206800220918F0
:10FF200061600160091A08398180C2806068A16837
:10FF30000160091A08398180C28070BD34650020D3
:10FF4000080900007443002007100000002804D0B6
:10FF500001E00170401C521EFBD2704710B5040036
:10FF60000ED02046083080B24D21FFF713FF002845
:10FF700005D0002101608480FF218171083010BD0F
:10FF8000002010BD10B5002806D001462039897F19
:10FF9000FF2903D0042010BD052010BDFFF750FF3E
:10FFA000002010BD0A460023803A93670268002AA9
:10FFB00002D101607047024610468038806F0028E9
:10FFC000F9D1803A91677047014900200860704775
:10FFD00068420020F8B50026194F01213546C903B3
:10FFE0003C6811E02246203A927F824207D1002DE0
:10FFF00004D0002C0AD000F077F809E02546002D47
:020000040001F9
:1000000000D12646803CA46F002CEBD100F01CFAF6
:10001000002D13D03868A84204D128468038806F5C
:10002000386004E028468038806F803EB0672846FC
:10003000002180388167FF21603081772846F8BD34
:100040006842002010B50446002908D011484078C5
:10005000A04206D80846FFF795FF032010BD0520F3
:1000600010BD08468038806F002804D1084620382B
:10007000827FFF2A03D00846FFF784FFEFE78477EB
:100080000548FFF78FFF0121C903204600F02CF837
:1000900010BD0000686500206842002010B50948C6
:1000A000094C006A002801D0804704E00548216817
:1000B00034304069401805494843054940182060DC
:1000C00010BD00003465002050420020FD430300B5
:1000D000C39E26008918491E521E03D30B78037055
:1000E000401CF8E770470000064A5278824207D960
:1000F000054A4000D268135A0B4313520020704740
:1001000003207047686500205042002070B50E4DF6
:100110000646A86800280BD0002406E0A889A96834
:1001200060430818F2F74EF8641CA87BA042F5DC87
:10013000002E07D1054CE069002801D0FFF780FEB2
:100140000020E061002070BD34650020686500205B
:100150000020704738B50B4CA068002810D06A46C4
:100160000121F7F759FDA0680099884208D00020C6
:10017000FFF7CCFF224608320121A068F8F79EF96C
:10018000002038BD3465002070B50D4DA9680029E8
:1001900015D0012813D10B4CE06900280FD00120A5
:1001A000FFF7B4FFA87BA989E26948438108A868E2
:1001B000F8F784F9E069FFF743FE0020E06170BDC5
:1001C0003465002068650020F7B51F4D0646EC69D0
:1001D000002C14D11D4FB86800281DD0B87BB989F8
:1001E000484380B24E21FFF7D5FD040014D0B87B00
:1001F000B989224648438108B868F7F70DFD042104
:1002000088088000001902785A2A07D0E869A042BD
:1002100002D02046FFF714FE0A20FEBD4278B2420B
:100220000FD1880880000119091D019A0298FFF773
:1002300095FDE869A04202D02046FFF701FE0020AC
:10024000FEBD4188DCE700006865002034650020C1
:10025000F7B5284E0546F069274F0C46002812D105
:10026000B87BB989484380B24E21FFF793FD020065
:10027000F2613CD0B868002805D0B97BBB895943EE
:100280008908F7F7C9FC0421FF228B08F0699B005D
:10029000C01803785A2B1AD0BA7BBB895A430B1962
:1002A0001B1D9A4223D35A230370E31C8A089B0820
:1002B0009B0059184570091D41809200F069121D7C
:1002C000801822460299FFF749FD0020FEBD4378C1
:1002D000AB420AD143885B1AA34205DB8808800041
:1002E000F269001D1018ECE742704188CDE70A2042
:1002F000FEBD00006865002034650020FFB581B0B8
:100300001E46070007D0174D00246968E000085812
:10031000002803D020E0022005B0F0BD0F2C02D34E
:1003200020460F3800E020460121814089B20F2C81
:1003300001D3012000E00020039A00F027F80028F4
:100340000AD06968E0000F504018029A4260002EFF
:1003500000D034700020DFE7641CE4B21E2CD4D33C
:100360000820D9E75042002070B514460D460646D5
:1003700000F00CF829463046FFF78EFC002802D02A
:100380004460002070BD082070BD000070B50446B8
:100390001948154640780E46A0421AD92046FFF764
:1003A0007BFC002801D0856024E0210210204F3121
:1003B000FFF7F0FC002804D0104A116900290AD088
:1003C0000CE00D483438026B002A02D0214604208C
:1003D0009047002070BD106104E01146CA68002AF1
:1003E000FBD1C86000218560C16046800470012295
:1003F00042704160012070BD6865002050420020BD
:1004000070B51E281CD20F4DC40069680959002917
:1004100016D00F2802D301460F3900E00146012211
:100420008A4091B20F2801D3012000E0002000F0A3
:100430000BF868680021015120184160084670BD22
:10044000022070BD5042002070B50D460646FFF7F1
:1004500023FC040001D00020608029463046FFF7CD
:1004600045FC002C01D0002070BD062070BD014667
:10047000002001E0401C491C0A78002AFAD170478C
:10048000F8B50F4604461E2828D21549E0004968F1
:100490000858002822D025460F3D0F2C01D32846AE
:1004A00000E0204601263146814089B20F2C01D35D
:1004B000012000E00020FFF72BFC00280ED00F2CBD
:1004C00000D22546AE40B1B20F2C01D3012000E08E
:1004D00000203A46FFF75AFF0020F8BD0220F8BD81
:1004E0005042002030B50023C45CCD5C6C40D45435
:1004F0005B1CDBB2102BF7D330BD43483537785F38
:10050000424C455F4C49425F56312E383000000066
:10051000D5190000D7AE0000471A00000DAF00004B
:10052000FF190000DFAE00002B1B0000A1B000008F
:100530007F1B000033B10000091B000033B1000035
:10054000671B0000CDB000002B1B000059B000005D
:10055000971B000055B100000000000000000000E3
:10056000D31A000031B00000ED190000DBAE00002E
:100570000018011800280128022803280029012951
:100580000229032904290529002A012A022A032A0B
:10059000042A052A062907290829A62AFB349B5F75
:1005A0008000008000100000000000000200000039
:1005B00070050100010102010201010201020303B1
:1005C0000401030101010101030302010300000012
:1005D00000000000000000000000000087070B0D75
:1005E0001113171D1F25292B2F353B3D4347494F1D
:1005F000535961FF24060100004000202002000042
:10060000828500004408010020420020F80200001A
:10061000FE1200003009010018450020C42200002D
:1006200092850000804A0020917A57250B077E4969
:10063000A8264031002B05DB0D700E70937A08243C
:10064000234393720D700E7005231381764F20376C
:100650003B8803246402A3433B80937A1024234302
:10066000937200220A700123BC79E40701D00020B4
:10067000FAE77D242401401CA042F5D90D700E70CC
:100680008B710A70F0E770B5674D2035A87B66491D
:1006900040318C7B032214432A8B644B9A4202D94B
:1006A00080088000401C57220A70A8220A705E4A07
:1006B000D37BF7263340D37300232B71A8738C733D
:1006C000052010810B705A480269042422430261FC
:1006D00030BF0B70012000F0AFF870BDF0B5524A8A
:1006E0002032917B50484030877B0323128B1F437D
:1006F0004E4B9A4202D989088900491C572404703C
:10070000A8250570484EF27B08231A43F273464A27
:100710000023203213719173877305213181037097
:1007200043490E6904273E430E6130BF03700470D5
:100730000570012151711171037000BF00BF047079
:1007400005700D2111710370F0BDF0B5364B2033EB
:100750009A7B354940318E7B032426431C8B334DD5
:10076000AC4202D992089200521C57240C70A82562
:100770000D70304F38431880002008700C700D70D9
:1007800018719A738E73284E052232810870284A98
:10079000166904273E43166130BF08700C700D7057
:1007A00001225A711A71087000BF00BF0C700D70E1
:1007B0000D221A710870F0BDF0B51B4B20339A7BE7
:1007C000194940318E7B032426431C8B174DAC42C4
:1007D00002D992089200521C57240C70A8250D7063
:1007E00009273F03C0191880002008700C700D7095
:1007F00018719A738E730C4E0522328108700C4A60
:10080000166904273E43166130BF08700C700D70E6
:1008100001225A711A71087000BF00BF0C700D7070
:100820000D221A710870F0BD00100040FF3F00005B
:1008300000ED00E00490000003B40148019001BD08
:10084000130B00004163390110100C0942726F61F3
:1008500064636173746572020A700E02010404FF1E
:10086000626C6504086162635CC3812F2E014EA334
:10087000FFFF2B20FF0E09146732023C72050108AE
:100880001A7408292613D0422A20105A7A105AB412
:10089000101A9210A9381A80103203131E664220D3
:1008A0000B1155BD88112A0335598E12060B118084
:1008B0000C84036901065989C980190169DA12504B
:1008C00032A02BE803E01A74E029181AAC082910AA
:1008D0005A7A1013D4432A20105A88104BB4661049
:1008E00069205AD5205A8A105ADA1069205AD6102F
:1008F0005A9010DAE0205AD7105A9A101AD81023BA
:1009000079C0032AC1C12393F523ADE523117F23C9
:100910002BFA2349EC23C9EA39E84A7706113B054B
:1009200010D86B0101FE012A2371981A3904810045
:040000050000009166
:00000001FF
