:020000040000FA
:1000000000800020ED0A000001600020F70A0000D7
:1000100000000000000000000000000000000000E0
:10002000000000000000000000000000F70A0000CF
:100030000000000000000000F90A0000FB0A0000B8
:10004000FD0A0000FD0A0000FD0A0000FD0A000094
:10005000FD0A000059190000FD0A0000FD0A000019
:10006000FD0A0000FD0A0000FD0A0000FD0A000074
:10007000051A0000FD0A0000FD0A0000FD0A00004C
:10008000FD0A0000FD0A0000FD0A0000FD0A000054
:100090000348854601F03CFD004800470906000082
:1000A00000800020F0B5F54E0C463078F44D85B058
:1000B000090408D5696B8847002801D0296B884757
:1000C0000120C00353E0EF49E20707D0EB4ACB6AB7
:1000D0006032114644399847012048E0EA4FA207B0
:1000E0002BD5E749192292010B6A02219847E7A014
:1000F0000068039001226846C2800020E149009018
:10010000803900230E6B03AD38881B21B047029065
:10011000DB496846C2884B69029829469847388867
:1001200001A900F032FC002805D0D6488038426B87
:100130001B2101A89047022019E0D34B22071F88FA
:1001400009D564220190009200230D6B14213846DA
:10015000A84708200BE060070CD589683846884717
:100160001922D2012B6A042130789847042060407C
:1001700005B0F0BD0020FBE7F0B5C14887B04030C6
:100180008168C3488847BD4E0127307068460770B4
:10019000142181806421BB4C0181403CE36B6A46A1
:1001A0003946BC4898473246BA482C321C21E36B8A
:1001B000801C98473246B7480C320721E36B401C3D
:1001C0009847B4480221E36B01AA0C309847B14824
:1001D0000221E36B02AA0D309847324648321521BE
:1001E0002369002098475025E2692946032090475B
:1001F000E26929460420904700256846009507716A
:10020000077207730574236B6A460421A248984756
:100210000121236B01AA880298479F480121236B83
:1002200002AA801F98479C480121236B04AA401F03
:10023000984799480121236B03AA801E9847A1691A
:100240006C1E204688478F488038C16B20468847FF
:1002500000F000FA204600F00EFB90A0006802902B
:100260008FA0006803908FA0006804908EA00068A3
:1002700005908EA003C80191009002AA01210020E0
:1002800000F01DFB012103AA084600F018FB04AA98
:100290000121022000F013FB05AA0121032000F038
:1002A0000EFB6A460521042000F009FB7648610038
:1002B000018045808580C580203800F0F7FA7148BC
:1002C0004030416A3046143088476D4801218269C8
:1002D0003078904707B0F0BD38B581886A48028809
:1002E00091421BD10121C9430180002141808180BD
:1002F000C180634D614C6A6A0221207890476A6A26
:100300000421207890470120694608705D486A46BC
:100310004038C36B01215F48984738BD65A001F0A4
:1003200055FC38BD10B50246494264A001F04EFCB0
:1003300010BD70B514460A4653490D88854207D151
:100340004A808C80CB80014662A001F03FFC70BDEA
:1003500058A001F03BFC70BD10B50C46030001F045
:1003600045FC072705071D131B3327005FA02CE062
:10037000A078062806D10846FFF7AEFFA1795FA056
:1003800001F024FC64A020E0A078052802D10846F2
:1003900000F044F864A018E067A016E0A1780429F2
:1003A00010D0062905D0052909D06AA001F00EFC5D
:1003B00010BD2046FFF790FFA17950A0F6E76078C6
:1003C000002801D066A000E06CA001F0FFFB10BD8A
:1003D00000206D49C04308606C49002008617047E7
:1003E00008B5002808D0022805D1694600F0A2FA15
:1003F00067A001F0EBFB08BD6946002000F09AFA07
:100400006AA001F0E3FB70A001F0E0FBFFF7E0FF62
:1004100071481A4900688860804708BD70B51A495C
:1004200004460A886D4B40899A4206D015494968AE
:1004300088476BA001F0CAFB70BD0880E089488046
:10044000208A8880608AC8800D4D19220B4E920147
:100450002B6A022130789847192212022B6A082150
:10046000307898471922D2012B6A042130789847B6
:10047000E28961895FA001F0A9FB70BD20620020C4
:10048000C0580200005A02004462002088000000A8
:10049000A5000000050300000704000001000000A3
:1004A0000200000003000000040000000102030439
:1004B000050000004552522E2E0A000052535349A7
:1004C000202D256420644220436F6E6E2020257805
:1004D000200A0000557064617465202578202D2065
:1004E000496E74202578200A00000000496E697466
:1004F00069616C697A65642E2E0A00004469736331
:100500006F6E6E65637465642E2E20526561736F25
:100510006E3A25780A00000041647665727469734A
:10052000696E672E2E0A0000436F6E6E65637465F8
:10053000642E2E0A00000000436F6E6E65637465C2
:1005400064204164766572746973696E672E2E0A41
:10055000000000004572726F722E2E25780A00008E
:1005600057616974696E6720666F72206164766591
:1005700072746973696E672E2E0A00004572726F7D
:10058000722E2E0A0000000080E100E000E000E092
:1005900070726F66696C65204368616E676543427F
:1005A0002043484152332E2E0A00000070726F66BD
:1005B000696C65204368616E67654342204348412A
:1005C00052312E2E200A0000476F20746F204F54A6
:1005D000412E2E200A00000004380200FEFF000019
:1005E000436F6E6E656374696F6E206D61782E2E39
:1005F0002E0A0000436F6E6E202578202D20496E54
:1006000074202578200A00000E498A6A48150243A2
:100610008A62032100F0E2FD00F0E7FF0A48C16BA7
:100620000AA001F0D3FA01F0FEF801F082F90848BF
:10063000806A8047FFF7A0FD034C80342068804724
:10064000FCE70000801000408058020025730A007B
:10065000005A020030B476481022846B754BA446D1
:1006600030BC13217448604770B50024154600283B
:1006700002D00224204670BD6D480A46C038436946
:100680006D48294609389847F4E770B50D4601468C
:1006900067480024C0380B0001F0A8FA09060B11C6
:1006A000161B20252A2F3400634908220939436983
:1006B00002E0624943690D222846984723E05F49DA
:1006C0000E220D314369F7E75C4912221B31436961
:1006D000F2E75A4912222D314369EDE757491222B8
:1006E0003F314369E8E75549122251314369E3E755
:1006F00052490E2263314369DEE74F490722103920
:100700004369D9E70224204670BDF8B5496894468C
:100710004A78097817020F430698494A11210025A3
:10072000079CBE1A091A974244D009DC454ABA18F8
:1007300013D0012A1DD0022A26D0032A08D12FE087
:10074000012E41D0022E49D0032E51D0292E5BD04C
:10075000002018800A252846F8BD082856D208210E
:10076000091AA14200D80C463349A2B21A800939AD
:1007700057E00C284AD20C21091AA14200D80C4695
:10078000A2B21A802D494CE00D283FD20D21091A42
:10079000A14200D80C462949A2B21A800D3140E08E
:1007A000112833D2A14200D80C462449A2B21A80A3
:1007B0001B3136E0112829D2A14200D80C461F492E
:1007C000A2B21A802D312CE011281FD2A14200D8EC
:1007D0000C461A49A2B21A803F3122E0112815D2E4
:1007E000A14200D80C461549A2B21A80513118E036
:1007F0000E280BD20E21091AA14200D80C460F492F
:10080000A2B21A8063310CE0072801D30725A2E7C2
:100810000721091AA14200D80C460749A2B21A8042
:10082000103909180248C03843696046984792E772
:1008300080590200D0630020A06200201C1F00002D
:10084000272A0000DDD5FFFF10B504469D488442ED
:1008500010D0012908D002290CD19B480121826BBC
:1008600020469047002805D197489849C030026833
:100870002046904710BD70B5054693480024C0300F
:10088000026890489149401C90478F48416B9048BE
:100890008847E80708D08C4810228030846B8D4B45
:1008A00011218D48A0470446204670BD002804D081
:1008B000894910394860002070471120704770B591
:1008C00015460246804800244038130001F08EF996
:1008D00005040C141C242F0001291FD143697E48F4
:1008E00001222946103820E0012917D143697A48AE
:1008F000012229460F3818E001290FD143697648B3
:10090000012229460E3810E0012907D143697248B7
:10091000012229460D3808E0052901D0182407E0F6
:1009200043696D48052229460838984700E00224AB
:10093000204670BD70B50D4601466348002440381E
:100940000B0001F053F905040910151A1F00624944
:1009500001221039436903E05F49012243690F39DD
:10096000284698470FE05C4901220E394369F7E7B2
:10097000594901220D394369F2E7574905220839DF
:100980004369EDE70224204670BD70B505464E4828
:100990000C46C03042684D4928469047C0070BD0EE
:1009A0004D4821468030408F208047484030C36901
:1009B00000222846984770BD122070BDF8B5154634
:1009C0000A7A00240698D20601D50820F8BD00282E
:1009D00001D00B20F8BD08780026022803D01E8025
:1009E00001242046F8BD48684278077810023B4A47
:1009F00038438018344A0127403A002808D001289B
:100A000006D0032804D0042807D01E800A24E8E773
:100A10001F805369C968012204E005201880C96855
:100A20005369024628469847DBE7FEB515460E7A1D
:100A30000024089AB60601D50820FEBD0E78022EC5
:100A400001D0012431E04E68777836783F02374391
:100A5000234EBE192BD023483018234E03D0022832
:100A60000CD00A2421E0002A0AD1012B0CD8C86836
:100A7000736901222946984700200DE0002A01D021
:100A80000B2412E0012B01D90D240EE0C868736914
:100A900001222946984702200F4910394968002948
:100AA00003D00968002900D088472046FEBD009287
:100AB0000124054A0194C032D4682A46A04704465E
:100AC000F3E70000FEFF00000059020078650020F7
:100AD0004908000004650020F46300201F00FFFFA8
:100AE000FED6FFFF2129FFFFC058020004488047BF
:100AF00004480047FEE7FEE7FEE7FEE7FEE70000EA
:100B0000090B00009100000010B5FF48572101704B
:100B1000A8210170FC4A8821403A118101890422F0
:100B200011430181002101700A2000F021FD012004
:100B300000F06BFC10BDF0B5F34EF34D04275722C7
:100B4000A824203E403DF049030001F04FF80D0875
:100B50000E161B1F24282C32373C41462F000A70EA
:100B60000C70F07BFB22104003E00A700C70F07BED
:100B70003843F073C820288118E00A700C705120A7
:100B8000C000F8E70A700C70E048F4E70A700C70D7
:100B900081208000EFE70A700C708820EBE70A7074
:100BA0000C700220E7E70A700C702F81002008709B
:100BB000F0BD0A700C7093208000DCE70A700C70A6
:100BC000D2484D30D7E70A700C7095208000D2E7EC
:100BD0000A700C704B20C000CDE70A700C70CB4837
:100BE0005C30C8E7C84810B540380089C1B20B0670
:100BF0009A0FC748022A05D0012A04D09A0F06D0BE
:100C00007D20000210BDC906C90EC24801E0C90618
:100C1000C90E00F023FF10BDBB4A57211170A82157
:100C20001170B94940394B150028088904D0184380
:100C300008810020107070479843F9E7B24A5721A5
:100C40001170A8211170B04920390028C87B05D047
:100C500004231843C873002010707047FB2318400A
:100C6000F8E7A9498A7B800792089200800F024327
:100C700057200870A82008708A73002008707047F9
:100C8000A1498A7B8F231A40000102435720087034
:100C9000A82008708A730020087070479A4A203A8A
:100CA000917B800789088900800F0143964857236C
:100CB0000370A82303709173002101707047924A5A
:100CC000203A917B0907090F000101438E48572301
:100CD0000370A82303709173002101707047FEB563
:100CE0008948002740380089C0B201068A0F022ACD
:100CF0004CD00124A403012A4CD0890F56D00524DE
:100D0000002000902005000D01907F482038848944
:100D100000267D49572230460A70A8220A70012316
:100D20008B74794957220A70A8220A70764A203AB1
:100D3000948100220A708A7C9207FCD50A8A8A7CF8
:100D40009207FCD48A7C9207FCD5098A019A7F1C01
:100D5000891A0DB2FFB2002D37D02946714305D54F
:100D6000012834D0411C32D0002830D02E460294C5
:100D70003046009900F088FE00B2211A8CB2029928
:100D80008C4249D1002D45DD641C44E00220624CB8
:100D9000C043B6E7C506ED0E2946604800F05EFE8A
:100DA0000019C40B2320C043401B09E0C506ED0E0B
:100DB00029465B4800F052FE0019C40BA81C4042B3
:100DC000294600F061FE00B29BE70020FEBD002E28
:100DD00003DA761EF04306B202E06D1EE84305B268
:100DE000B5420FDD484857210170A8210170464ADD
:100DF0000299203A9181002101707D20C00070434A
:100E0000019903E07D20C0006843114600F03CFEDC
:100E100080B2FEBD641EA4B2142F82D3FF20FEBD9B
:100E2000FFB581B00C460746054600261AE0FF21B3
:100E30009131681E00F028FE00290AD06421681E46
:100E400000F022FE002907D00320A9078007C14235
:100E500002D1FF206F3001E0FF206E3080196D1E3F
:100E600086B2ADB22F488542E1D80025012C25D9A4
:100E7000032C05D0A01E062816DDE00718D115E0CA
:100E8000FF219131384600F0E9FD00290AD06421A4
:100E9000384600F0E3FD002901D0B80702D0002059
:100EA0001C3006E00120FBE7E00701D01E2000E037
:100EB0001F208019641E86B2A4B2D7E703981821B8
:100EC0003018401E84B2049800F0C8FDE120C00034
:100ED00041430A981E22504309180B9840080818ED
:100EE00081B20B98C00701D00120C0030A0402435D
:100EF00005482038C17B6B46C909C9011970C17BFF
:100F00001B78C909C9010FE040100040020200002F
:100F10000048E80100389C1C1313000000180D8FD6
:100F200000688909E40700009942E3D1694609781D
:100F30000029DFD0A64957230B70A8230B70A44BC0
:100F4000403B5C63447C8026344344745A63427C57
:100F500040231A4342740D7005B0F0BDFFB507463B
:100F60009B4883B04038C06B0E4684049848A40C5C
:100F70002038418B008B01224900D203904201D3DB
:100F8000012000E00020081800909248388010E00E
:100F90000199002925D06421284600F05FFD002931
:100FA00001D0A8071DD0FF206E30201A6D1C84B21E
:100FB0003D803D88FF219131284600F04FFD019191
:100FC000002911D06421284600F048FD002901D0F5
:100FD000A80709D0FF206E30A042D9D90020308068
:100FE00049E0FF206F30E0E7FF206F30F4E73588FD
:100FF000012D04D0062D18D9E8071AD117E038883A
:10100000FF219131019000F029FD00290BD06421CE
:10101000019800F023FD002902D00198800702D03A
:1010200000201C3006E00120FBE7E80701D01E206D
:1010300000E01F20201A84B26D1CA8B23080012865
:1010400004D0062817D9C0071AD117E03888FF2125
:101050000546913100F002FD00290AD0642128469E
:1010600000F0FCFC002901D0A80702D000201C30B1
:1010700007E00120FBE73078C00701D01E2000E028
:101080001F20A042B3D93088641C401C30800598D2
:10109000E12104800901009800F0E0FC069A10802C
:1010A00008463C2100F0DAFC0C9908803C210098AD
:1010B00000F0D4FC0D98018007B0F0BD444908B59C
:1010C0002039CA7B6B46D209D2011A70CA7B1B78C1
:1010D000D209D2019A42F4D16A461278002AF0D09D
:1010E0003B4A57231370A8231370394B403B586376
:1010F000487C4023184348740020107008BD3449D0
:101100004039886B8A6B8242FBD1704710B5304AF8
:1011100057211170A82111702D4920394B7CE824EA
:1011200023404B744B7C1024204303434B7400201A
:10113000107010BD00B50346FFF7E1FF2649C01847
:10114000884201D9494240180104090C02D001210A
:10115000090440181E4957220A70A8220A701C4A26
:10116000403A50631A482038427C20231A43427484
:101170000020087000BD0021002802D0012802D004
:1011800002E0202100E01021114857220270A8221D
:1011900002700F4A203A537C8B4353740021017034
:1011A00070470B4920390028087C02D040210840B4
:1011B0007047C009C001704705492039002804D094
:1011C000012801D11020087470472020FBE700009F
:1011D00040100040E40700000000C0A800B5524ADB
:1011E0000B0000F003FD0504071016191F00516BDA
:1011F00081430AE0516B81435163116B01431163D9
:10120000116A81430DE0516B01435163116B8143BE
:10121000F5E7516B814301E0516B01435163116A62
:101220000143116200BD404A00B540320B0000F09E
:10123000DDFC0504071016191F00516981430AE0FF
:101240005169814351611169014311611168814301
:101250000DE051690143516111698143F5E751691D
:10126000814301E0516901435161116801431160FB
:1012700000BD2D4A002906D0012907D0022908D037
:10128000032913D10CE0918A814304E0918A8143C0
:1012900008E0918A01439182D16A0143D16205E05D
:1012A000918A01439182916A014391629083118AEC
:1012B0000143118270471C4B1B4A4033002906D062
:1012C000012907D0022908D0032913D10CE0D18AC3
:1012D000814304E0D18A814308E0D18A0143D1826D
:1012E000D9680143D96005E0D18A0143D182996868
:1012F00001439960D083518A0143518270470A4A61
:10130000803A0028108B01D0084300E08843108306
:101310007047054A803A0028508B01D0084300E00E
:10132000884350837047000080100040F8B5624D3C
:101330005726614CA827203D002826702770288852
:101340000ED02115084328800A2000F011F92670DC
:101350002770288861150843288000202070F8BD78
:10136000032149028843F7E7F0B5534C57261C2266
:101370008B07514DA8270A409B0F403C00282E7038
:101380002F7010D0080603D5E07BFD210840E073E4
:10139000A07A1043A07248482038C17B1943C1731A
:1013A00000202870F0BD080603D5E07B0221084329
:1013B000E073A07A9043A0723F482038C17B9943E4
:1013C000EDE730B53C4C57233B4AA825403C00286C
:1013D00013701570E06804D08843E060002010703E
:1013E00030BD0843F9E730B5334C5723324AA825BE
:1013F000403C002813701570A07B04D00843A073F4
:101400000020107030BD8843F9E7F8B52A4D572603
:10141000294C0021A827203D0028267027700ED0D7
:1014200001206871287100202070012000F0A0F8D0
:10143000267027700D20287100202070F8BD2971BA
:101440002170F8BD1D48016904229143016130BF3C
:101450007047194B57241C70A8251D701649403938
:10146000887B0822104388730920134E0003203E16
:10147000308000271F70886B8A6B8242FBD1104A34
:101480000A30904201D9524280180204120C02D054
:10149000012212048018302232741C701D704863BF
:1014A0002F2070741F701C701D70052008811F7024
:1014B00040BF20BF20BFFEE74010004000ED00E02D
:1014C0000000C0A83C49062805D049790122824085
:1014D0001140084670470878082108407047364890
:1014E00057210170A8210170817901221143817176
:1014F00000210170704731490968016000202F49BF
:10150000C0438031086070472C49086070472C4800
:1015100080697047284957220A70A8220A7000285B
:10152000887905D004221043887100200870704724
:10153000FB221040F8E7204957220A70A8220A70BF
:101540000028887905D00222104388710020087095
:101550007047FD221040F8E7174857210170A82175
:10156000017081791022114381710021017070474F
:1015700000220AE0022101E000BF00BF0B46491E25
:1015800089B2002BF8D1521C92B28242F2D370473A
:1015900070B500247D260546F60004E03046FFF7CE
:1015A000E7FF641CA4B2AC42F8D370BD0549CA7A07
:1015B000082AFCD0087270474010004000E100E0AB
:1015C00000E000E00034004010B50446FFF70AFBDD
:1015D0000A214843C008214600F040FA0A21401D74
:1015E00000F03CFA2249888110BD10B5E12040028C
:1015F000FFF7EAFF1E48872181700321C170402157
:1016000041700121817310BD19498A789206920EAA
:10161000800102438A707047154A0028507806D02E
:1016200008435070107808210843107070478843B1
:10163000507070470E498020487070470C4A07E090
:10164000D37A082B04D003781372491E89B2401C48
:101650000029F5D1704701460020054A04E0137ABD
:10166000401C0B7080B2491C937A002BF7D1704755
:1016700000340040F0B5564A0021157E547E012604
:101680001676507E0823184350769676907EC007D3
:10169000FCD19676937EDB07FCD1978B4D4B401C9B
:1016A000BB43591880B21028F3D308310809517E82
:1016B000F72319405176157654760121C902081A8C
:1016C00000B2F0BD028800290DD0012911D00229F5
:1016D00015D0032906D140494A4391013F4A891850
:1016E000090C01807047F92189004A4391013C4A65
:1016F000F5E73949491E4A4391013A4AEFE736492D
:101700004A439101384AEAE780010901C01C0843B5
:101710002F494876704780010901401D08432C4934
:10172000487670472A48C17E80221143C1760F2136
:10173000017621214176704725480E21017603214B
:1017400041767047224823214176082181767047EF
:101750001F4801218176817EC907FCD1808B00055D
:10176000000D70471A4908228A76C877887EC0061D
:10177000FCD4888B0005000D704770B51B4D4021CF
:10178000AB6B9AB21C0C144B3E335843C00A030196
:10179000002C05D09001203318182201801A13E084
:1017A000686B040C010A09190918050EC9B28D42AB
:1017B00001D0FF2070BD1146E4B2520800049A180F
:1017C0004C431219000B101A00F05EF970BD0000B6
:1017D00040100040FF0F0000E603000080143400BA
:1017E00040B0370080C237004021360000060400B8
:1017F00010B5FFF774FA022801D9FFF770FA10BD8F
:10180000F8B5574CE77E267E657EFFF78BFFA07EFE
:1018100001210843A076A07EC007FCD1A08BE7760B
:1018200026766576F8BD70B54E4C4E4840346368F8
:101830008EB0C06B12224CA19847002843D0484874
:1018400057210170A82101705121454AC900403A31
:101850001181002101704A48484A4261494A0723E0
:10186000D5692D022D0A46043543D5618161036196
:1018700001690222914301613422236900216846F3
:1018800098474148009001204003694688801B200A
:10189000C873052008740120487414208874FB2044
:1018A000800202900D2008773848089038480A9046
:1018B0002C488030C16A68468847010007D035A0AF
:1018C00000F084F9FEE73BA000F080F9FEE70EB0DF
:1018D00070BD70B50C463C4D090408D5696B88474E
:1018E000002801D0296B88470120C00302E0E007EF
:1018F00002D00120604070BD344EA00407D53448AA
:10190000406B80472B6A0125324A6D0309E0600471
:101910000DD531A000F05AF97D222B6AD2010125A4
:10192000AD032946307898472046684070BD0020B6
:1019300070BD254810B54030816828488847234C41
:10194000207000F067F862B61F480121036A214A3F
:1019500049032078984710BD1B484030006B004772
:10196000401000408058020043483537785F424CB1
:10197000455F4C49425F56312E380000FEFFFF00A4
:1019800000E000E004ED00E0003800200F1500004A
:10199000011800004C494220696E6974206572721A
:1019A0006F7220636F64653A202578202E2E2E0AF0
:1019B00000000000686561642066696C65206572DE
:1019C000726F722E2E2E0A00C05802006F65002022
:1019D000405A020000EE02002A200000D318000046
:1019E0000104090C02D001210904401817495722AB
:1019F0000A70A8220A70154940394863144900202A
:101A000008607047114930202039087410490120BE
:101A1000086070471CB50D4857210170A82101705E
:101A20000A492039CA7B07231A43CA73002101706F
:101A300000910B460122019111460648FFF7F0F98B
:101A40000548C16B002088471CBD000040100040C5
:101A500070650020E4070000C058020030B50B4656
:101A6000014600202022012409E00D46D5409D4278
:101A700005D31D469540491B2546954040191546FE
:101A8000521E002DF1DC30BD70B500242546002823
:101A900001DA01244042002901DA01254942FFF719
:101AA000DDFFAC4200D04042002C00D0494270BD66
:101AB000F0B51FB40646002082B0054640240191CF
:101AC00000901BE0019922460F46304600F042F894
:101AD000049A059B801A994110D310461946224654
:101AE00000F028F8361A8F41019722460120002184
:101AF000009F00F01FF838184D4100902046641EEA
:101B00000028DFDC019B00982946324607B0F0BD73
:101B1000064C0125064E05E0E36807CC2B430C3C40
:101B200098471034B442F7D3FEF7B6FAA41F00006A
:101B3000D41F000010B5202A04DB0146203A914052
:101B4000002010BD914020239C1A0346E340194316
:101B5000904010BD10B5202A04DB0846203AD04042
:101B6000002110BD0B46D340D0402024A21A914042
:101B70000843194610BD70B58C180578401C6B07DA
:101B80005B0F01D10378401C2A1106D10278401C5A
:101B900003E006780E70401C491C5B1EF9D12B0730
:101BA00005D40023521E0DD40B70491CFAE70378AC
:101BB000401CCB1A921C03E01D780D70491C5B1C65
:101BC000521EF9D5A142D8D3002070BD0FB410B574
:101BD00003A9044B044A029800F024F810BC08BC86
:101BE00004B01847AD1500007465002030B4744689
:101BF000641E2578641CAB4200D21D46635D5B0009
:101C0000E31830BC184702E008C8121F08C1002AB8
:101C1000FAD170477047002001E001C1121F002A6D
:101C2000FBD17047FFB58FB00F460446002606E093
:101C300025280AD0129A11999047641C761C2078A6
:101C40000028F5D1304613B0F0BD00250121A14A8E
:101C5000009500E00543641C23780846203B98402B
:101C60001042F7D120782E2815D104200543607842
:101C7000641C2A280AD101CF641C00900BE0009953
:101C80000A22514330394018641C009020780146E4
:101C900030390929F3D920786C280ED004DC4C287F
:101CA00013D06A2812D104E074280ED07A280DD1FE
:101CB0000BE001204005054307E00121090562789A
:101CC0000D43824201D16D18641C641C2078864645
:101CD00069284AD008DC0028B4D058286DD0632881
:101CE00010D0642808D140E070286BD0732812D03F
:101CF000752860D0782860D0129A70461199904764
:101D0000761CE5E03878694608720020487202A81F
:101D10000190012003E0386801900020C0433F1D7E
:101D200069070CD5002500E06D1C00998D420FDA83
:101D30008542F9DB0199495D0029F5D108E00025CC
:101D400000E06D1C8542FCDB0199495D0029F8D15A
:101D5000761907E0019801990078491C0191129ABF
:101D6000119990476D1EF5D2B2E00A200290002131
:101D70006802400F039102280CD001CFC11784469E
:101D800000290DDA624608465242002181419446FC
:101D90002D2008E0FF1DFF08FF0003CF8446EFE77A
:101DA000280504D52B206A46107401203CE0E80782
:101DB0003AD02020F7E70A2000E01020002103910C
:101DC000029007E010200290002104200543082023
:101DD000039100906802400F022810D001CF00212B
:101DE000844600200D9028071FD5704670280CD01F
:101DF000029A1020039B42401A430CD015E0FF1DAD
:101E0000FF08FF0003CF8446EBE740206A461074CA
:101E100001200D900CE06046084306D030206A4651
:101E200010747046507402200D907046582804D0EB
:101E300029A001900DA80E900DE02CA0F9E76046B6
:101E4000039B029AFFF734FE019B84469B5C0E9A2B
:101E5000521E0E92137060460843F0D10E9805A9E9
:101E6000081A20300190680701D5009801E0012090
:101E700000900199884203DD01460198081A00E0AC
:101E800000200025009006E004A8129A405D1199F8
:101E900090476D1C761C0D988542F5DB04E0129A84
:101EA000302011999047761C0099481E0090002917
:101EB000F5DC08E00E980E990078491C0E91129AF4
:101EC00011999047761C0199481E01900029F1DC78
:101ED000641CB4E60928010030313233343536371A
:101EE0003839616263646566000000003031323366
:101EF0003435363738394142434445460000000006
:101F00000A18232A242A252A262A272A282A292A7F
:101F10002A2A502A02000000001F00004D6F64654D
:101F20006C204E756D6265720053657269616C203C
:101F30004E756D626572004669726D7761726520DB
:101F40005265766973696F6E004861726477617279
:101F500065205265766973696F6E00536F6674779A
:101F6000617265205265766973696F6E004D616EAE
:101F7000756661637475726572204E616D6500FEF1
:101F8000006578706572696D656E74616CE0FFE183
:101F9000FFE2FFE3FFE4FFE5FF00000002000000B6
:101FA0008D1F0000D41F00000060002020020000F0
:101FB000061C0000F42100002062002058030000ED
:101FC000761B00002C230000786500201000000024
:101FD000161C0000804A0020917A57250B077E4985
:101FE000A8264031002B05DB0D700E70937A082473
:101FF000234393720D700E7005231381764F2037A3
:102000003B8803246402A3433B80937A1024234338
:10201000937200220A700123BC79E40701D00020EA
:10202000FAE77D242401401CA042F5D90D700E7002
:102030008B710A70F0E770B5674D2035A87B664953
:1020400040318C7B032214432A8B644B9A4202D981
:1020500080088000401C57220A70A8220A705E4A3D
:10206000D37BF7263340D37300232B71A8738C7373
:10207000052010810B705A48026904242243026132
:1020800030BF0B70012000F0AFF870BDF0B5524AC0
:102090002032917B50484030877B0323128B1F43B3
:1020A0004E4B9A4202D989088900491C5724047072
:1020B000A8250570484EF27B08231A43F273464A5E
:1020C00000232032137191738773052131810370CE
:1020D00043490E6904273E430E6130BF037004700C
:1020E0000570012151711171037000BF00BF0470B0
:1020F00005700D2111710370F0BDF0B5364B203322
:102100009A7B354940318E7B032426431C8B334D0B
:10211000AC4202D992089200521C57240C70A82598
:102120000D70304F38431880002008700C700D700F
:1021300018719A738E73284E052232810870284ACE
:10214000166904273E43166130BF08700C700D708D
:1021500001225A711A71087000BF00BF0C700D7017
:102160000D221A710870F0BDF0B51B4B20339A7B1D
:10217000194940318E7B032426431C8B174DAC42FA
:1021800002D992089200521C57240C70A8250D7099
:1021900009273F03C0191880002008700C700D70CB
:1021A00018719A738E730C4E0522328108700C4A96
:1021B000166904273E43166130BF08700C700D701D
:1021C00001225A711A71087000BF00BF0C700D70A7
:1021D0000D221A710870F0BD00100040FF3F000092
:1021E00000ED00E00490000003B40148019001BD3F
:1021F0000B14000032FF63E1032F0201060302E02B
:102200001201161017120953696D706C6520506524
:10221000726970686572616C051214126413020AA7
:10222000F91A711A595C1A25041A3304320224016E
:10223000D70793100129141494580229124B141F24
:10224000105A9A10138C622A20101A021829105A58
:10225000971069204BDC63105A0420DA1C405ADDC9
:10226000205A0620DA29205ADE205A0820DA3720A0
:102270005ADF205A0A20DA49205AE0205A0C20DA84
:102280005B205AE1205A0E20DA6D205AE2205A10C3
:1022900020DA7F205AE3205A1220139062A4200BE8
:1022A000075A0201011029115A9444DA9C544B1028
:1022B00065541A8F1832035AE4645A9E205A11202A
:1022C00069305A23105A9184DAE530DA24305A36CC
:1022D000105A9378DAE630DA37305A49101A9530C6
:1022E000415AE7301AA02029A05A78206940DA4ADA
:1022F000405A5C101A97403204DAEC701A5D2023C1
:10230000BD09632B0A18120A436861726163746520
:102310007269737469632031A7D9132232DA081302
:0C2320002233DA10130A103439B23500F1
:040000050000009166
:00000001FF
