:020000040000FA
:1000000000800020A500000015230000AF000000C4
:1000100000000000000000000000000000000000E0
:10002000000000000000000000000000AF00000021
:100030000000000000000000B1000000B30000005C
:10004000B5000000B5000000B5000000B5000000DC
:10005000B5000000151F0000B5000000B50000004D
:10006000B5000000B5000000B5000000B5000000BC
:10007000FD3D0000B5000000B5000000B500000027
:10008000B5000000B5000000B5000000B50000009C
:100090000348854600F0D8FE00480047A5C600008A
:1000A000008000200448804704480047FEE7FEE740
:1000B000FEE7FEE7FEE700000140000091000000BF
:1000C0002E4611462D1B804145402D1AC91ABF41AD
:1000D0007940C91B47408946A846210CA4B2204656
:1000E00095B2120C68434D43544351432204240CEF
:1000F000801861412A042C0C80186141340CB6B27E
:100100009DB21B0C32466A4365435E4363432C0435
:100110002D0C12196B413404350C12196B417640C9
:1001200052187341494645468046080C89B20C4630
:100130002E0CADB269437443454370432604240C2E
:10014000891960412E042D0C891968417940784045
:1001500064407F10514142416741404609185A416D
:100160007B41704700B5FFF7ABFF03B451469246A1
:1001700033C922462F46121A8F41B641724077404A
:10018000921BB74184B45A469B460FCA801A9941C4
:10019000BF4178407940C01BB9417740BC4603B4A9
:1001A000FFF78EFF54465D46764000196941724163
:1001B000734192469B463CBC03B4FFF781FF30BCC1
:1001C00066466746704071407240734076106041E9
:1001D000694154415D415240564157410CBC9046E3
:1001E000994612184B415046594644414D414641AB
:1001F0004F4100BD01B590B006B492468B46104603
:1002000030C808300CC9083103B4FFF7ABFF06A8AB
:100210000CC004A842464B460CC006BCF0B48A464B
:10022000934630C90CCAFFF79DFF40464946B04689
:10023000B946C0BC80197941C0BC72417B4106AF50
:100240000FC7BA46404046464F46444145414641A5
:10025000474106BC9446F0B4FFC9001BA941B24116
:10026000BB416440A4416040614062406340001B68
:10027000A141A241A3416646A44655460FC5AB46DF
:1002800080468946FFCE241A8D4196419F414040C9
:1002900080414440454046404740241A85418641BC
:1002A0008741614648405946F0C101B442464B4639
:1002B000FFF758FF01BC844642404340444045405C
:1002C00046404740F0B408A9F0C949464140A2461B
:1002D00044464010604054466041694172417B4150
:1002E00064406441A2460CACF0CC001969417241F3
:1002F0007B41A1460CAC0FC40FBC4C4644414D4160
:1003000056415F410021494150468A4640100FBC8A
:1003100044414D4156415F41804608A8F0C04046E7
:1003200066465546644075416641401971417241C7
:1003300073410CAF0FC7FFBC1B184C4155414641E0
:1003400090469946A246AB46B4464F413CBC42411A
:100350004B4100267441754176413F1A8A4140461F
:10036000494683418C4100208541864160464018C2
:10037000844650464741BE46404642414B41444177
:100380004D4100277E4103BC361879417F415846D4
:100390001218904662465341994653465C41A24624
:1003A00045415E41414114BC7A4100277C417F4177
:1003B000ED1A8641634670469941824100239C4173
:1003C0009F41A646BB46544624185D4167467E4180
:1003D00041417A417746474158465841DB1A8246A7
:1003E00040465841BB464F465F418446B9465C4152
:1003F0009D419E41994101239A4100235846574609
:1004000058419F419046624683464B46D2197B41F4
:100410007C41002045414641414101BC7CC0012551
:100420003D4042465B466A417B410EC000BDA0B2E2
:10043000210C02464A4340434943D30B52048018DF
:100440005941641BB6417440A41BAAB22B0C15463B
:100450005D4352435B43EE0B6D045219734100261A
:1004600052187341250CA4B22146694364436D437D
:10047000CE0B4904641875411146091BAA411D465B
:100480000026B34109186A417341704700B5204600
:100490002946801BB941924150405140801A9141F8
:1004A00080468946B246FFF7C2FF54463D46824623
:1004B0008B4694461F46FFF7BAFF64460019794100
:1004C000724173411F468446444688464D469146D4
:1004D000FFF7ADFF644645464E46241A8D4130462F
:1004E000394690419941002296419741524612194E
:1004F0005B466B416446444145464D4100204641C0
:1005000047415046594600BD01B590B002B4F0C90C
:10051000FFF7BCFFF0B405AC0FC4049C1034F0CC62
:10052000FFF7B4FFA046A946B246BB46F0BC00198F
:10053000694172417B4144464D4656465F4680467E
:10054000002044414541464147414046FFB4089C94
:10055000FFCC241A8D4196419F4180414440454043
:1005600046404740241A854186418741FFF78EFF68
:10057000C043C943D243DB43E443ED43F643FF4367
:10058000A046A946B246BB46241BF0BC6041694167
:1005900072417B41A44609AC0FC4644640466041A9
:1005A00080464946694189465246724192465B46B9
:1005B0007B419B4600204041844605A8FFC80019A6
:1005C000694172417B4109AC0FC46846F0C841469D
:1005D0004C4149464D4151464E4159464F410DA867
:1005E000F0C0F0BC61460022D24351410A116418A8
:1005F000554156415741F0C001B09CE601B519C9BB
:10060000E0CA401973417C4180469946A24660C9C0
:1006100018CA5D4166411AC985CA414153417C41AE
:1006200000277F41001A4246B8464F46A14654462D
:10063000424192464741BB46444185418641814102
:100640000120834100204A4642414746874198465F
:100650005B4693465246D9E601B519C9E0CA401B2C
:10066000B341BC4180469946A24660C918CA9D4123
:10067000A6411AC985CA81419341BC41BF41424646
:100680009846A3464B465446C0E6012102C00021CD
:10069000002206C006C006C002C020387047F0B570
:1006A00001A2FFF7A7FDF0BD03000000000000005D
:1006B000FFFFFFFFFBFFFFFFFEFFFFFFFFFFFFFF4F
:1006C000FDFFFFFF04000000F0B5002200230CB482
:1006D0000CB40CB401220CB46A46FFF78BFD08B0D1
:1006E000F0BD01B50FA200F0E3F80098403005A17D
:1006F00000F020F804D003A00099403100F01AF86F
:1007000002BD0000DFBDC42962DF9CD89030847830
:10071000CD05F0ACD62E21F7AB20A2E534488704F6
:100720001D0630DC402030211311134113411341C9
:100730000145000070B56D1BEE43082208C810C9C2
:10074000A34132441242F9D16D41284670BDF0B543
:1007500001246542A846A41A082620C980CBAF41CF
:10076000574365432F4480C046443642F5D1F0BD1F
:1007700030B53CC93CC03CC93CC030BD202202441D
:100780000B780370013101309042F9D17047F4B514
:10079000042641B40027B846B946BA46BB46BC4613
:1007A000BE4602987840EFF30080800F1CC9424398
:1007B0004343444390449944A2441CC942434343A5
:1007C000444393449C44A64448310137082FE8D160
:1007D00041BC42464B4654461CC05A46634674468A
:1007E0001CC0F839F839F839013ED2D1F1BD0EA25A
:1007F0005EE001A25CE00000802030138010401415
:10080000502161105111711130433022531585155B
:100810003213414402104022131123430032324369
:10082000034242122144000080207815603160406C
:10083000011000510130002170244022641444331F
:100840001343434101100244000081460F460FCF7D
:10085000C607F517F60F0024401969416A41634144
:100860000FB40FCF6041614172416B41002464417C
:10087000E7075E083743DE0755082E43D5074C08C7
:100880002543CC0743081C43C30748461030F0C03B
:100890001F460FBC5E083743DE0755082E43D507B9
:1008A0004C082543CC0743081C434846F0C070471A
:1008B000F0B598B020230C46CD18EE1870B404465D
:1008C000C518EE1870B406ACE518EE1870B43C24E8
:1008D0006D461388023204B49A002240AA5899083F
:1008E0002140695898092040285804A59E0A2640AE
:1008F00003D0AE59B04704BCE9E722B0F0BD000018
:10090000F501000009050000FD0500005906000082
:100910004B08000005B5002907D002B40198014634
:10092000FFF7F2FD02BC0139F7D103BC0246FFF725
:1009300061FC00BD01B5FFC8FFB4089801216A46FB
:10094000FFF7E8FF0898FFC8FFB410980146FFF7CB
:10095000DBFD10980146FFF7D7FD1098FFC8FFB4E4
:100960001898694608AAFFF745FC08A81899FFF7E8
:10097000FFFE189F00240CA210570132155D86005F
:1009800004D588B068463946FFF7F2FE3846F1B222
:100990002A466A4490B4FFF7BDFF90BC0234162C7F
:1009A000E9D131B000BD000001208200840088A0A0
:1009B00020000800042002400180016000A0F1B581
:1009C0004030FFC8FFB46846FFF7B4FF694688B0FF
:1009D0006846FFF799FD08A96A460846FFF70AFC32
:1009E000694610980246FFF705FC08A910982030C8
:1009F0000246FFF7FFFB11B0F0BD4242C3171340A0
:100A0000D217104018437047F0B544464D4656463D
:100A10005F46F3B4C0B01E0408A81146FFF7AEFE4F
:100A20006846FFF732FE08A86946FFF783FE01D14A
:100A300042B0C4E008A870A1FFF77CFE0138F7D0EF
:100A4000684608A90A6801231A405A4016446AA356
:100A5000FFF77DFE18A900980007000F01226C46E1
:100A600001255308E35CD7077F0FFB401B071B0FD3
:100A700001271F406F403F01C01B087001312B430D
:100A800018460132402AECD108704199E0B0E0B03C
:100A90006846FFF773FEFFF771FE68464EA1FFF749
:100AA00049FE013802D160B060B0C1E708A84AA190
:100AB000FFF740FE0138F6D068466946FFF7EFFDC4
:100AC00008A808A9FFF7EBFD6846FFF70AFE002813
:100AD000E9D010A8FFF7D9FD0146FFF7E0FDA8A86F
:100AE0006946FFF784FE18AC07252046A8A9FFF742
:100AF0003FFEFFF73DFEFFF73BFE20460146603913
:100B0000FFF777FE6034013DEFD1E8AF013F387861
:100B1000013F40B2FFF771FF4208C0A86946FFF7E6
:100B200036FED8AD0424C0A80146FFF760FE013CA4
:100B3000F9D13878013F40B2C40FFFF75EFF420899
:100B4000E8A86946FFF723FEF0A80146224622A343
:100B5000FFF7FDFDAF4203DAA8A8C0A9FFF747FEE3
:100B6000C0A8E8A9FFF745FEAF42DBDA6846FFF709
:100B70008CFDD0A86946FFF7DDFD821DE8A818A905
:100B8000FFF705FE74B074B06846FFF718FF6846BB
:100B90006946FFF799FD08A808A9FFF795FD08A881
:100BA00008A9F2B20CA3FFF7D2FD18986946FFF727
:100BB000E5FD360C01D0FFF7E1FD01201AB0F0BCD5
:100BC000A046A946B246BB46F0BD0A4612A1012383
:100BD0001AE7002318E70000FFFFFFFFFFFFFFFFFA
:100BE000FFFFFFFF00000000000000000000000009
:100BF00001000000FFFFFFFF512563FCC2CAB9F3EB
:100C0000849E17A7ADFAE6BCFFFFFFFFFFFFFFFFC3
:100C100000000000FFFFFFFF96C298D84539A1F4FD
:100C2000A033EB2D817D0377F240A463E5E6BCF8A9
:100C300047422CE1F2D1176BF551BF376840B6CB74
:100C4000CE5E316B5733CE2B169E0F7C4AEBE78E70
:100C50009B7F1AFEE242E34F30B50B46014600206F
:100C60002022012409E00D46D5409D4205D31D46B2
:100C70009540491B2546954040191546521E002DAA
:100C8000F1DC30BD70B500242546002801DA0124CE
:100C90004042002901DA01254942FFF7DDFFAC425D
:100CA00000D04042002C00D0494270BDF8B500246D
:100CB0002546002904DA0E46012400214042B141B4
:100CC000002B04DA1E46002352420125B34100F0F6
:100CD0007AF88C4617461E46AC4203D000254042A7
:100CE0008D41AC46002C02D0002657429E41614601
:100CF0003A46334601B0F0BD10B5202A04DB014668
:100D0000203A9140002010BD914020239C1A0346B8
:100D1000E3401943904010BD10B503461C460C43F8
:100D2000A40703D009E010C9121F10C3042AFAD285
:100D300003E00C781C70491C5B1C521EF9D210BDDC
:100D4000D2B201E00270401C491EFBD27047002263
:100D5000F6E710B513460A4604461946FFF7F0FFBA
:100D6000204610BD421C0178401C0029FBD1801A8E
:100D7000704710B5002200E0521C835C8C5CA342DB
:100D800001D1002BF8D1D8B2E1B2401A10BD30B574
:100D900004460020034600E05B1C934203D2E05C63
:100DA000CD5C401BF8D030BD30B505460020034671
:100DB00000E05B1C934205D2EC5CC85C201A01D1B8
:100DC000002CF6D130BDF0B51FB40646002082B02D
:100DD00005464024019100901BE0019922460F46F0
:100DE000304600F020F8049A059B801A994110D3F0
:100DF000104619462246FFF77FFF361A8F410197AA
:100E0000224601200021009FFFF776FF38184D4150
:100E100000902046641E0028DFDC019B00982946D4
:100E2000324607B0F0BD10B5202A04DB0846203A50
:100E3000D040002110BD0B46D340D0402024A21A40
:100E400091400843194610BD064C0125064E05E0A9
:100E5000E36807CC2B430C3C98471034B442F7D3DB
:100E6000FFF71AF9105101003051010070B58C18CC
:100E70000578401C6B075B0F01D10378401C2A11D9
:100E800006D10278401C03E006780E70401C491C15
:100E90005B1EF9D12B0705D40023521E0DD40B7015
:100EA000491CFAE70378401CCB1A921C03E01D781A
:100EB0000D70491C5B1C521EF9D5A142D8D30020ED
:100EC00070BD00000448C17E80221143C1760F210D
:100ED00001762121417670474010004010B5124C38
:100EE0002068C0051FD50320206000200821401C79
:100EF0002268C0B20A4322600EE02268920510D434
:100F0000222807D90948026B002A0AD001210320B0
:100F1000904706E0401CC0B22268D205EDD50028FB
:100F2000E5D10020206010BD80C300402C2E0020A1
:100F300070B514460D460646FFF7D0FF2D480368EE
:100F40001968062291431960316899627168D96203
:100F5000B1681963F1685963296899616968D96151
:100F6000A9681962E9685962596802229143596077
:100F70005D6801210D435D601D680D431D6000E04B
:100F800000BF59688907FBD5596891435960996931
:100F9000217001688969090A617001688969090C11
:100FA000A17001688969090EE1700068C169217149
:100FB000C169090A6171C169090CA171C169090E90
:100FC000E171016A2172016A090A6172016A090C00
:100FD000A172016A090EE172416A2173416A090A2C
:100FE0006173416A090CA173406A000EE07300202E
:100FF00070BD0000D002002010B500F0BBFF024918
:1010000000F0E6FE002010BD060400000148006E5E
:10101000704700000C34002010B501F085F810BDB9
:101020000A7802700A88120A42704888801C80B2CE
:1010300070470000064910B5884202D100F0FAFE60
:1010400010BD0BF091F90028FAD1172010BD000057
:10105000FEFF000038B505464A6800200C46002A0D
:1010600003D00321104612F07BF8009023461B2288
:101070000249284604F044FB38BD0000211000005E
:1010800010B5094803F05AF8084C207004F0CAFD66
:1010900000F00AFE064800F0BFFE1922920102216C
:1010A000207812F0B3FA10BDB51000000000002047
:1010B00065BF000010B50C46880709D505484B22CE
:1010C00052010221007812F0A1FA0220604010BD06
:1010D000002010BD000000200448034900680160A2
:1010E0000349C16270470000A5220801D402002014
:1010F000784E010010B5074C5D202168086501F0AD
:10110000C3F920680021016503484279521C4271ED
:10111000C17110BDF0010020802E002070B52C4957
:10112000002048602B4800892B4CC0B2810902295D
:1011300004D0012908D0810916D026E0C820A0805B
:101140001020E080E8201FE0C506ED0E2D20294686
:101150008001FFF781FDA08029467820FFF77CFD04
:10116000E08029461D480DE0C506ED0E2946C02049
:10117000FFF772FDA08029460820FFF76DFDE08093
:101180002946E820FFF768FD2081164914480860C9
:101190001649154808601749154808601749164848
:1011A000086018491648184C086018492068012240
:1011B000D2020861801848610120487100F062F98C
:1011C000607D002802D112492020086070BD000017
:1011D000F401002000100040602E0020980D000057
:1011E00000C00040D802002000C30040D002002010
:1011F00000C20040F001002000D00040DC020020CE
:1012000000C10040D40200202C2E0020802E00209F
:1012100000E100E0F8B55648006881680127C9057B
:101220000025544C544E00292EDA81683A0291432D
:101230008160207840060CD55048514900688842AA
:1012400006D15049886BE0608A6B9042FAD100E089
:1012500080472078384320706570E079062803D0F5
:1012600043495D2009680865306800280AD0016993
:101270000A68406902430A60316808680268896840
:101280000A4302606571A560394B18688168890559
:1012900021D581680122520291438160A0783843B0
:1012A000A070E57038480068C16A89088900891C07
:1012B000C1620168D20411430160306800280AD07D
:1012C00041680A68806802430A603168C868026839
:1012D00049690A43026018688168890717D58168DF
:1012E000022291438160E770A5705D21016530683D
:1012F00000280AD001690A68406902430A6031681F
:101300000868026889680A4302606571A560186808
:101310008168C90715D08168490849008160257036
:101320006770306800280AD041680A688068024304
:101330000A603168C868026849690A4302606571D9
:10134000A56018688168C90603D581681022914399
:1013500081608168490703D58168042291438160D7
:101360008168090703D58168082291438160F8BD2F
:10137000F0010020802E0020F8010020EC01002068
:10138000713D000000100040D402002070B50446FA
:101390000068002828D00121000C4903884223D18D
:1013A000A088002820D020460622FF21163011F008
:1013B0000CFF01281AD0A2880021206812F00AF838
:1013C000342200212D4812F005F8342221462B4802
:1013D00011F018FF2948062216300021054611F0A9
:1013E000F4FE012804D008E0022070BD032070BD87
:1013F00023490622284611F005FF2048818900294B
:1014000002D1012149028181827B0121002A00D180
:101410008173C27B002A01D11B22C273027C002A85
:1014200001D105220274427C002A00D14174817CE2
:10143000002901D114218174817F002901D1282143
:101440008177C17C002908D0827FE17C92088918CD
:10145000C174617F002904D005E0817F89082D31A6
:10146000F6E702214177806A002803D080470349CC
:101470003431488102F01AFE002070BD2C2E00206D
:101480000806040010B500F0A7F800F027FD00F0F2
:1014900095FFFFF721FE0B4C5D202168086501F0E8
:1014A000A5F801F063FE01F069F800F0EDFF0648D1
:1014B00001214171226800211165C171FFF70EFD04
:1014C00010BD0000F0010020802E002030B58DB04E
:1014D000122227A12B4811F087FE002841D02A486C
:1014E00057210170A82101705121274AC900403AB3
:1014F0001181002101702648244A4261254A0724AF
:10150000D3691B021B0A45042B43D361816104612B
:10151000016902229143016134220021684611F0E1
:1015200059FF1D48009001204003694688801B2018
:10153000C873052008740120487414208874FB20A7
:10154000800202900D2008771448089014480A90F1
:101550000846FFF71BFF010007D012A002F09EFF14
:10156000FEE718A002F09AFFFEE70DB030BD0000C4
:1015700043483537785F424C455F4C49425F5631AE
:101580002E380000C045010040100040FEFFFF0063
:1015900000E000E004ED00E0100E0020F53F000048
:1015A0004D1C00004C494220696E697420657272BE
:1015B0006F7220636F64653A202578202E2E2E0AE4
:1015C00000000000686561642066696C65206572D2
:1015D000726F722E2E2E0A000A48094900680A69A5
:1015E00002610A69426149698161C16182680121C0
:1015F00049030A438260C2680A43C2607047000020
:10160000802E0020D802002030B5104A0346517ABF
:10161000FD20842454720E4CA568002D07D0A57BB4
:10162000002D04D0A489E51FFF3DFA3D02D0517280
:10163000FF2030BD7D24E402A34205D35360A620E1
:101640001072907A40235840517230BD001800400B
:101650002C2E0020F8B504460025C00501D001203D
:10166000F8BD112069460870334E0020307070704C
:10167000324F802078720878113008703048007935
:101680000007000F0D2802D0012000F077FE694608
:101690000878113008702A488179890701D0022022
:1016A000F8BD6A461178113111708179890704D12A
:1016B0001178442901D157213170117811311170FD
:1016C0008079800707D11078552804D130785728C1
:1016D00001D1A82070701078113010703078572820
:1016E0000ED17178A8290BD11178662908D17C60B8
:1016F0007D21C9028C4201D2882100E084217972C7
:10170000117811311170572809D17078A82806D1A5
:101710001078772803D1A62038727889C5B20020C6
:1017200010703070707080207872402D01D00320CE
:10173000F8BD0020F8BD0000BC01002000180040EA
:1017400020100040F7B50446002682B00D46800701
:1017500002D0012005B0F0BD1120694608703D4857
:101760000021017041703C4F8020787269460878F2
:1017700011300870394800790007000F0D2802D099
:10178000012000F0FBFD69460878113008703349EC
:101790008879800701D00220DCE76A461078113092
:1017A00010708879C00705D11078442802D12948E3
:1017B000572202706A461078113010708879C0077D
:1017C00008D11078552805D122480178572901D130
:1017D000A82141701078113010701E4A10785728D7
:1017E0000ED15178A8290BD169460978662907D10D
:1017F0007D23DB029C4201D2882100E084217972A2
:101800006B46197811311970572816D15078A828CD
:1018100013D11878772810D100209A230AE07C6031
:1018200002CD39603B727989241DCEB2402E04D19D
:10183000001D80B204998842F1D3002069460870E7
:101840001070507080207872402E01D0032081E704
:1018500000207FE7BC01002000180040201000405D
:1018600010B504460AF04AFD002805D0007813227E
:10187000214600F003F810BD122010BDF7B5054653
:101880001E4812261E4F0C46814208D1B868002817
:1018900032D00268002A2FD028469047FEBD174854
:1018A000401C844219D1B868002806D00268002A7A
:1018B00003D028469047002806D02846029908F011
:1018C00081FB060005D017E07D700298387000207B
:1018D000FEBD7D70029838700EE008460AF00EFDDD
:1018E000002809D00078A84201D00320FEBD204680
:1018F000029900F071FAFEBD3046FEBDFEFF000009
:10190000A80400207CB50D46104904460869002251
:10191000002805D08388A34204D002460068F7E778
:1019200001207CBD002A02D00168116001E002683C
:101930000A6111F0C9FC6946204600F063F80028EE
:10194000EFD1002DEDD0019929607CBDD404002099
:1019500070B50A4C0025A04208D1002082008C52AC
:101960005218401C95700328F8DB70BD09F024F86C
:101970000028FAD00480857070BD0000FFFF0000D1
:10198000F8B50E460746069900240798002902D0AC
:101990000B242046F8BD022B01D00D24F9E7517825
:1019A00012780D0215432946814301D08024F0E7C7
:1019B0003846F16800F009F8A842EAD02A463846CD
:1019C000F16800F009F80446E3E710B508F0F4FF09
:1019D000002800D0807810BD70B514460E4605462C
:1019E00008F0EAFF002806D13146054808F0E4FF78
:1019F000002803D005808470002070BD112070BDC8
:101A0000FFFF000070B5114A0B46014654690020E3
:101A1000002C06D0A5686D898D4204D0204624682C
:101A2000F6E7012070BD002802D02168016001E0C6
:101A300020685061002B04D00822211D184611F0A7
:101A4000E1FB204611F040FC002070BDD4040020D2
:101A5000F0B5104A536919E09C686589A84214D30F
:101A60009E887219824210D900220CE017013F199A
:101A70007F89874205D1002900D00D80100100190F
:101A8000F0BD521C92B2B242F0D31B68002BE3D1DE
:101A90000020F0BDD40400207CB516460C46054657
:101AA000FFF7B4FA11490978884201D316207CBDAA
:101AB00001A9284608F06AFF1728F8D0002E10D098
:101AC0000020694608802088FFF7C2FF6946088821
:101AD00000F00EF80146012228460AF0E3FB002838
:101AE000E5D121462846FFF7B5FA7CBD4505002023
:101AF00000B508F007FF002801D0807800BD102055
:101B000000BD0000F8B5069F1E461546162928D0D0
:101B10000CDC09291FD004DC05291CD0062911D1B1
:101B20001BE0112917D012290CD118E01D2916D05D
:101B300004DC172915D01B2904D110E052290ED03E
:101B4000D2290CD00124114A95420CD1FFF772FA28
:101B5000001B85B20BE00224F5E70724F3E703241A
:101B6000F1E70524EFE7D22901D10C35ADB26019B8
:101B700080B2394600F0A2F9002805D0002E00D02E
:101B80003580614211F0ECFAF8BD0000FFFF000063
:101B900010B508F0C7FE002801D011F095FB10BD6C
:101BA00000B5124A0B0002F0A1FC0504071016193B
:101BB0001F00516B81430AE0516B81435163116BEC
:101BC00001431163116A81430DE0516B014351637D
:101BD000116B8143F5E7516B814301E0516B014388
:101BE0005163116A0143116200BD00008010004082
:101BF000054A002113780370491CC9B2401C521CCD
:101C00000629F7D3704700000806040010B50C48F9
:101C10000089C1B20B069A0F0A48022A05D0012A90
:101C200004D09A0F06D07D20000210BDC906C90E4F
:101C3000054801E0C906C90EFFF70EF810BD000007
:101C4000001000400048E80100389C1CF8B5094C21
:101C5000E77E267E657EFFF735F9A07E01210843E9
:101C6000A076A07EC007FCD1A08BE77626766576AD
:101C7000F8BD00004010004010B5084802F05EFAC0
:101C8000074C207000F086F800F00EF862B6054AA6
:101C900001214903207811F0B9FC10BD151D000089
:101CA000C801002000EE02000A48002101704160D6
:101CB00009480268012189058A43026002690A43D2
:101CC0000261026810218A43026002690A430261CC
:101CD00070470000C0010020C01000400B490020E8
:101CE0004A68520200D401204968C90601D4022181
:101CF000084307490A78904206D00870002803D0AC
:101D00004968002900D0084770470000C010004013
:101D1000C001002070B50C4609040AD511F09EFBE5
:101D2000002801D011F072FB01212046C903484070
:101D300070BDE00701D001200AE0134DA00709D5CE
:101D4000FFF7CCFFA0220221287811F05FFC0220CF
:101D5000604070BDA00405D5FFF794FB01260B4A37
:101D6000760308E060040DD509A002F097FB7D2200
:101D7000D2010126B6033146287811F047FC2046EF
:101D8000704070BD002070BDC801002000EE020050
:101D90002A2000001CB50C4857210170A8210170B1
:101DA00009492039CA7B07231A43CA7300210170ED
:101DB00000910B46012201911146044802F02AF8D5
:101DC000002002F0EFFA1CBD40100040E4070000C4
:101DD00010B500F009F810BD10B5FFF70DF910BDF2
:101DE00010B5FFF719F910BD70B505460C46062071
:101DF00011F0F8FA01000BD0912008700F20487004
:101E00008D700120C87003488C80007811F05EFB53
:101E100070BD00006205002010B5044964224860CE
:101E200003480221007811F0F1FB10BDC001002031
:101E3000C801002001484089704700004405002087
:101E400070B50C4609880546042905D0052903D03C
:101E5000062901D0072929D16068002826D0012150
:101E600028460AF089FA00281ED028460AF07CFA93
:101E70000F498D420BD0002809D16188002906D96D
:101E8000208806280ED10B48008881420AD20A48D1
:101E90000078002804D0214628460AF095F970BD44
:101EA000162070BD1B2070BD142070BD022070BDB7
:101EB000FEFF00004E0500204505002010B5801DE6
:101EC00080B2054911F0AAF9002803D00521C943C1
:101ED00011F046F910BD0000034C00000B480A4900
:101EE00000688A884261CA88C2618B884362CA8856
:101EF000C2624363C2634364C264098981651F216E
:101F000041600349C1607047602E0020F00100204D
:101F10001F03000010B5FFF77DF910BD014606480C
:101F2000006D05E0FF225D32125A8A4202D000683D
:101F30000028F7D1704700000C34002030B50C4A5F
:101F400004460948137C0021406B084D5B1C07E0E8
:101F50008289A24207D0AA4205D0491CC9B21030DA
:101F60008B42F5D8002030BD0C340020FFFF00006C
:101F70002C2E002010B50C46FFF7D0FF00280FD004
:101F80008179102901D0022010BD4E210C54C17955
:101F9000002903D031214173002010BD3021FAE720
:101FA000122010BD30B54478037824021B198478C0
:101FB000C57824042D06641989B01B19009344794F
:101FC000037924021B198479C57924042D06641928
:101FD0001B190193447A037A24021B19847AC57A67
:101FE00024042D0664191B190293447B037B2402ED
:101FF0001B19847BC07B240400062018181803904A
:102000004B7808781B02C0188B78CC781B04240608
:102010001B19C01804904B7908791B02C0188B79E2
:10202000CC791B0424061B19C01805904B7A087A3A
:102030001B02C318887ACC7A0004240600191818E9
:1020400006904B7B087B1B02C0188B7BC97B1B0453
:10205000090659184018079004A96846FEF768FF5A
:10206000002009B030BD0000F8B507462A48C17805
:102070000020C04300294BD0002F49D027490C6DC8
:10208000002C45D00646E079012811D1608EA18D43
:1020900088420DD2627B012A0AD1254680356A6FBB
:1020A000002A05D1AA68002A02D1E27BC02A03D007
:1020B00098200159208E0EE0091A6869401E41439C
:1020C0000091A16F0098FEF7C7FD401C80B22086EA
:1020D000AA6900995118814201D30D1A02E0091A28
:1020E0000F480D18AE4200D92E462468002CCAD1E4
:1020F0000C4800688047B04201D8301A06E0B04270
:1021000007D58642F9D2311A05480818386030469A
:10211000F8BD00213960F8BD602E00200C3400208D
:102120000000C0A8EC010020FFB583B015460F46A3
:10213000FFF7F4FE04003AD02046FF304230019011
:10214000417D007D0E020643AE4259D2681E301812
:102150003146FEF797FD87B23E48761D0640384669
:10216000704380B20B2111F059F8009000286FD015
:102170003848A838FFF7E2FE002836D0017B81817D
:102180008034616F002915D0A16F0860A067A16F2E
:1021900000200860A06F4581A16F01204872802057
:1021A000A16F00250872A16F0098486017E0022017
:1021B00007B0F0BD6067E9E7A06F069B4168304655
:1021C000684308180199801C4A7D097D12020A4360
:1021D00011466943C91811F015F86D1CEDB2BD42E6
:1021E000EAD3069811F070F827E01B48026B002A2A
:1021F00002D01A4902209047009811F065F827E0B4
:102200001448A838FFF79AFE00281AD0017B818174
:102210008034616F002912D0A16F0860A067A16FA0
:1022200000200860A06F4581A16F01204872A06F57
:1022300007720698A16F801E48600020B8E76067AB
:10224000ECE70548026B002A02D0044902209047BF
:102250000720ADE7FCFF00002C2E0020AA5500004F
:1022600010B5044801F06AFF0349087200200860B5
:10227000486010BD7D2200003032002070B50D4C4A
:10228000C80716D00AE0836842685D086D00D90768
:102290008560C90F02D0002A00D09047206800282E
:1022A00005D0016821606268824200D16160002827
:1022B000E9D170BD3032002010B5034801F03EFF77
:1022C0000249087010BD0000D1220000B8020020B1
:1022D00010B5C8071DD007F0BDFF040013D00020C3
:1022E000A06020460CF02EF8002806D020460CF006
:1022F00029F88268A16851188160204610F0C2FC5C
:10230000204611F06DFF0CF051F8002111F0E4FFB0
:10231000002010BD184A0020917A57250B07164956
:10232000A8264031002B05DB0D700E70937A08242F
:10233000234393720D700E70052313810E4F2037C7
:102340003B8803246402A3433B80937A10242343F5
:10235000937200220A700123BC79E40701D00020A7
:10236000FAE77D242401401CA042F5D90D700E70BF
:102370008B710A70F0E7000000100040F8B50E4DB8
:1023800057260D4C0021A827203D002826702770D5
:102390000ED00120687128710020207001200AF001
:1023A00071F9267027700D20287100202070F8BD6B
:1023B00029712170F8BD00004010004070B531480F
:1023C00009210068C9018162826C07210907032382
:1023D0008A435B07D2188264836C0F2212030324A2
:1023E000934364031B198364836CCC00234383648D
:1023F000C36C0C15A343C364436D8024234343651E
:10240000C36B934322029A18C263C36B0A119343AE
:10241000A4041B19C363C36BDC000123E4089B07FE
:10242000E418C463C46D0C43C465C56D0C12254328
:10243000C565C56D0E133543C565C56D9543C56549
:10244000C56AA5435C122C19C462C46A9443052270
:102450001206A218C262C26A032424032243C26283
:10246000C26A24012243C262026B12091201026392
:10247000026BF024A2430263026B8A43D11801630A
:1024800070BD0000DC020020FFB53B480068826D93
:10249000012109048A43826582680A43826000251B
:1024A000014680312B468C466E46C168FF240134BC
:1024B000A143C1604168220211434160C1682143C8
:1024C000C1606146C968C905FBD500BF00BF00BF38
:1024D00000BF6146C9680C074168240F9143416001
:1024E0000F2C01D06D1CEDB2002110E0725CA242F5
:1024F0000BD91A4605E0B718203FFF7FB754521E8C
:10250000D2B28A42F7D1745403E0491CC9B299424D
:10251000ECD3994200D17454032D05D05B1CDBB27F
:10252000102BC2D3002D1ED03178082902D9324693
:10253000C91E0DE0042902D93246891E08E001298E
:1025400002D93246491E03E0002902D10321324656
:102550001170816D0F22D201914332781207520D12
:1025600011438165FFBD826D0F21C9018A43052199
:10257000C9015118F5E70000DC02002010B51A4827
:102580000068016D01231B049943016581685C01AA
:1025900021438160C26810210A43C260C2688A4335
:1025A000C26000BF00BF00BFC2680A43C26041688A
:1025B000012212031143416001468031CA69D205EC
:1025C000FCD500BF00BF00BFC969026DC906C90EB6
:1025D0001A430265026D520952010A43026581687D
:1025E000A143816010BD0000DC020020F0B5FF486F
:1025F00087B005686868FF21013188436860A86A70
:1026000009018843A862E86A10218843E862A86843
:102610004A031043A8606868084368606868400817
:1026200040006860A86BF24A0321104089034018FB
:10263000A86368680123184368602C4680342069C9
:102640004001C10F20698001C00F0029F7D0002888
:10265000F5D0206986066069B60EC003400E019071
:102660006868400840006860A86BE72110400902D4
:102670004018A86368681843686020694001C10F6A
:1026800020698001C00F0029F7D00028F5D020690B
:102690008006800E04906069C003400E0690686852
:1026A000400840006860A86BD32110400902401820
:1026B000A86368681843686020694001C10F2069F9
:1026C0008001C00F0029F7D00028F5D020698006CE
:1026D000800E039060692721C003400E029003988A
:1026E000301A06464843FEF7CDFA0007216A000F6C
:1026F0000909090108432062262070432721FEF7BB
:10270000C1FA0007226A000EF0218A4310432062BA
:10271000252070432721FEF7B5FA0007226A000D35
:102720000F2109028A43104320622420704327218D
:10273000FEF7A8FA0007226A000C0F2109038A435A
:1027400010432062232070432721FEF79BFA0007E5
:10275000226A000B0F2109048A43104320622220C1
:1027600070432721FEF78EFA0007226A000A0F2124
:1027700009058A4310432062700130182721FEF7B3
:1027800081FA0007216A00090F273F06B943084371
:10279000206270012721FEF775FA216A00070901FE
:1027A0000909084320627001801B2721FEF76AFA9D
:1027B0000007616A000F09090901084360621E20D1
:1027C00070432721FEF75EFA0007616A000EF022CF
:1027D0009143084360621D2070432721FEF752FA9F
:1027E0000007616A000D3A149143084360621C209F
:1027F00070432721FEF746FA0007616A000C3A137E
:102800009143084360621B2070432721FEF73AFA88
:102810000007616A000B3A12914308436062304638
:102820001A2148432721FEF72DFA0007616A000AA2
:102830003A119143084360623046192148432721E9
:10284000FEF720FA0007616A0009B9430843606295
:102850003046182148432721FEF714FA616A000721
:1028600009010909084360623046172148432721BE
:10287000FEF708FA0007A16A000F090909010843D9
:10288000A062162070432721FEF7FCF90007A16A19
:10289000000EF02291430843A062152070432721C7
:1028A000FEF7F0F90007A16A000D3A1491430843BE
:1028B000A062142070432721FEF7E4F90007A16A03
:1028C000000C3A1391430843A06213207043272160
:1028D000FEF7D8F90007A16A000B3A1291430843AA
:1028E000A062122070432721FEF7CCF90007A16AED
:1028F000000A3A1191430843A062300130182721A1
:10290000FEF7C0F90007A16A0009B9430843A062B5
:1029100030012721FEF7B6F9A16A0007090109096C
:102920000843A0623001801B2721FEF7ABF90007A6
:10293000E16A000F090909010843E06230460E21EF
:1029400048432721FEF79EF90007E26A000EF021B6
:102950008A431043E06230460D2148432721FEF7A9
:1029600091F90007E26A000D39148A431043E062CE
:1029700030460C2148432721FEF784F90007E26A1C
:10298000000C39138A431043E06230460B21484360
:102990002721FEF777F90007E26A000B39128A4314
:1029A0001043E06230460A2148432721FEF76AF9C6
:1029B0000007E26A000A39118A431043E062F0001E
:1029C00030182721FEF75EF90007E16A00093A4650
:1029D00091430843E062F0002721FEF753F9E16AD2
:1029E0000007090109090843E06203E0DC02002056
:1029F000FF00FEFFF000801B2721FEF743F90007D0
:102A0000216B000F090909010843206330460621A4
:102A100048432721FEF736F90007010E206BF0220C
:102A2000904301432163B00030182721FEF72AF9B3
:102A30000007226B000D39148A4310432063B00055
:102A40002721FEF71FF90007226B000C39138A4378
:102A500010432063700030182721FEF713F9000798
:102A6000010B206B3A129043014321637000272130
:102A7000FEF708F90007226B010A3811824311435F
:102A8000216330462721FEF7FDF80007226B00097D
:102A900039468A4310432063206B000100092063FC
:102AA00004990398471A28213846FEF7EBF80007E7
:102AB000616B000F09090901084360637800282150
:102AC000FEF7E0F80007616B000EF0229143084327
:102AD0006063780038182821FEF7D4F80007616B8E
:102AE000000D0F221202914308436063B8002821B1
:102AF000FEF7C8F80007616B000C0F221203914328
:102B000008436063B80038182821FEF7BBF80007B7
:102B1000616B000B0F22120491430843606306208F
:102B200078432821FEF7AEF80007616B000A0F22F8
:102B30001205914308436063F800C01B2821FEF78B
:102B4000A1F80007626B00090F2109068A431043B0
:102B50006063F8002821FEF795F8616B0007090112
:102B6000090908436063F80038182821FEF78AF83D
:102B70000007A16B000F090909010843A06338464B
:102B80000A2148432821FEF77DF80007A26B000EBA
:102B9000F0218A431043A06338460B214843282183
:102BA000FEF770F80007A26B010D0F2000028243B0
:102BB0001143A16338460C2148432821FEF762F8EF
:102BC0000007A26B010C0F20000382431143A16395
:102BD00038460D2148432821FEF754F80007A26B20
:102BE000000B0F2109048A431043A06338460E21CD
:102BF00048432821FEF746F80007A26B010A0F2080
:102C0000000582431143A1633801C01B2821FEF750
:102C100039F80007A26B00090F2109068A43104307
:102C2000A06338012821FEF72DF8A16B00070901E8
:102C300009090843A063380138182821FEF722F853
:102C40000007E16B000F090909010843E0633846FA
:102C5000122148432821FEF715F80007E26B000E09
:102C6000F0218A431043E06338461321484328216A
:102C7000FEF708F80007E26B000D0F2109028A43F6
:102C80001043E0633846142148432821FDF7FAFF3A
:102C90000007E26B010C0F20000382431143E16344
:102CA0003846152148432821FDF7ECFF0007E26B69
:102CB000010B0F20000482431143E16338461621C3
:102CC00048432821FDF7DEFF0007E26B000A0F21D1
:102CD00009058A431043E0633846172148432821F9
:102CE000FDF7D0FF0007E26B00090F2109068A43B8
:102CF0001043E0633846182148432821FDF7C2FFFE
:102D0000E16B0007090109090843E063384619210E
:102D100048432821FDF7B6FF0007216C000F090981
:102D200009010843206438461A2148432821FDF749
:102D3000A9FF0007226C000EF0218A431043206493
:102D400038461B2148432821FDF79CFF0007226CD1
:102D5000000D0F2109028A431043206438461C21CC
:102D600048432821FDF78EFF0007226C000C0F213D
:102D700009038A431043206438461D214843282113
:102D8000FDF780FF0007226C000B0F2109048A4326
:102D90001043206438461E2148432821FDF772FF66
:102DA0000007226C000A0F2109058A4310432064A2
:102DB0007801C01B2821FDF765FF0007226C000980
:102DC0000F2109068A431043206478012821FDF76A
:102DD00059FF216C000709010909084320647801A3
:102DE00038182821FDF74EFF0007616C000F090914
:102DF0000901084360643846222148432821FDF731
:102E000041FF0007010E606CF022904301436164B2
:102E10003846232148432821FDF734FF0007626C20
:102E2000010D0F20000282431143616438462421C2
:102E300048432821FDF726FF0007626C000C0F2194
:102E400009038A43104360643846252148432821FA
:102E5000FDF718FF0007626C000B0F2109048A437D
:102E6000104360643846262148432821FDF70AFFB5
:102E70000007626C010A0F20000582431143616460
:102E80003846272148432821FDF7FCFE0007626CE5
:102E900000090F2109068A4310436064384628213F
:102EA0004843FDF7EFFE616C00070901090908437B
:102EB00060643846292148432821FDF7E3FE0007D6
:102EC000A16C000F090909010843A06438462A21B2
:102ED00048432821FDF7D6FE0007A26C000EF02122
:102EE0008A431043A064069A02983946801A0A223F
:102EF00000905043FDF7C6FE082108430007A16C6F
:102F0000000D0F22120291430143A164009839463B
:102F1000C2008018FDF7B6FE082108430007A16C27
:102F2000000C0F22120391430143A164009839461B
:102F3000C000FDF7A7FE082108430007A16C000BA5
:102F40000F22120491430143A16400983946C20044
:102F5000101AFDF797FE082108430007A16C000A2C
:102F60000F22120591430143A164009806223946BD
:102F70005043FDF787FE082108430007A16C0009B4
:102F80000F22120691430143A16400983946820042
:102F90008018FDF777FE08210843A16C000709019E
:102FA00009090143A164009839468000FDF76AFED3
:102FB000082108430007E16C000F090909010143DA
:102FC000E1640098394642008018FDF75BFE082155
:102FD00008430007E16C000EF02291430143E164D5
:102FE000009839464000FDF74DFE082108430007D0
:102FF000E16C000D0F22120291430143E164394656
:103000000098FDF73FFE082108430007E16C000C23
:103010000F22120391430143E16431460020FDF782
:1030200031FE0007E16C000B0F22120491430143B3
:10303000E164029A01983146871A3846FDF722FE6C
:103040000007E16C000A0F22120591430143E1647D
:1030500031467800FDF716FE0007E16C00090F22EB
:10306000120691430143E164780031463818FDF7B8
:1030700009FEE16C0007090109090143E1643146D9
:10308000B800FDF7FFFD0007216D000F09090901D8
:1030900001432165B80031463818FDF7F3FD0007FC
:1030A000216D000EF0229143014321650620314637
:1030B0007843FDF7E7FD0007216D000D0F22120296
:1030C000914301432165F8003146C01BFDF7DAFD4D
:1030D0000007216D000C0F2212039143014321656B
:1030E0003146F800FDF7CEFD0007216D000B0F22E1
:1030F0001204914301432165F80031463818FDF769
:10310000C1FD0007216D000A0F2212059143014302
:1031100021650A2031467843FDF7B4FD0007216D93
:1031200000090F22120691430143216569681020AE
:10313000814369606968490849006960A96A0202B7
:103140001143A962E96A0143E962A86B8109039806
:1031500089010143A963A86B7F210906884302996D
:1031600009060843A86307B0F0BD000003480068E3
:103170004168FF220132114341607047DC020020A8
:1031800070B52548244D427FA02020350C4642438F
:10319000C907287EEB7E00290AD0810706D50006E4
:1031A00000D410220421184610F030FA01202EE03D
:1031B000A1070ED541070AD5000603D508211846F8
:1031C000283202E028220821184610F01FFA0220B7
:1031D0001DE0610704D500200DF0ACF8042016E0D6
:1031E000210705D5400701D500F0C2F808200EE000
:1031F000E0060ED509F056F90848C079062805D131
:103200001922E87E9201102110F000FA102060408F
:1032100070BD002070BD0000982E0020802E002080
:1032200010B504464069002817D0202200211B4811
:1032300010F0D0F82022214618480FF0E3FF174C79
:1032400020346068002801D010F03EF800201349B7
:1032500060608869002802D004E0012010BD0020D1
:10326000C0438861487F002801D128204877887FA3
:10327000002801D108208877C87F002801D11120BB
:10328000C877FF2020706070A070E0704878607789
:103290008868606148682061002010BD982E002079
:1032A000F8B5174800688047164EB168814225D0AE
:1032B000154F884201D3401A01E0401AC019114D40
:1032C0004409203DA87FA04218D800F079F8A87FD3
:1032D000B2684101241A5118B94202D30A4A524233
:1032E0008918B160A042F0D90848006801686A787E
:1032F000C909C9015206520E11430160F8BD000010
:10330000EC010020B82E00200000C0A8D40200204C
:10331000F8B5144800688047134EB16881421FD049
:10332000124A884201D3401A01E0401A8018C506AB
:103330000D4FED0E4409203FB87F0CE000F040F83F
:10334000B87FB26841015118084A241A914201D34A
:1033500052428918B160A042F0D960012843F8BDFB
:103360000020F8BDEC010020B82E00200000C0A80D
:1033700070B500F055FB114C08212546607F203DBB
:1033800068706069A86020696860E07E10F078F974
:10339000E07E042110F074F9207E810704D500221C
:1033A000114622206B6905E0400704D500226B69B5
:1033B0001146242098470020207670BDB82E0020AA
:1033C00070B519490E46203E487EF27F8018C0B283
:1033D0007070202801D320387070C0B24876012563
:1033E0002946B46981400C4216D100210A462B4679
:1033F00093401C4201D0491CC9B2521C52B2202A2F
:10340000F5DBFDF729FC002210462B4683401C42C9
:1034100005D08A4201D1707070BD521C52B2401C5E
:1034200040B22028F1DB70BDB82E0020FEB5F84A6E
:10343000F64F1646F979002510782036052902D076
:10344000062976D0D4E1C0074FD0B878C0071ED087
:10345000BD70EF4800224369114601209847802043
:103460003871EC48007DC00701D04B2300E04E23AB
:10347000E948816B0091826B8A42FAD1C818E7490A
:10348000884201D349424018E549C8603AE0F878DB
:10349000002837D00024FD7000F0C2FA7869026875
:1034A000D1430906090E06D07178FF2903D0D2B2A4
:1034B0008A4200D00224D6490978090601D50022A3
:1034C00000E00246002102F027FB0146D0482143DC
:1034D00043697A69022098473D71307E800711D593
:1034E000F07E012110F044F80CE0F878002809D0B3
:1034F000FD7000F095FAC64800224369114601208C
:1035000098473D713879C0079CD03D7100F088FA2A
:1035100008F0C8FFB8780006BD48436904D500220A
:103520001146112003E004E00022114612209847C2
:103530005EE1C1077AD03978C90778D07C693D70DF
:1035400001AA0021204602F0E7FA050008D1F07830
:10355000FF2805D02178FF2902D0884200D002251B
:10356000AB480078000605D4002D05D168460079E7
:10357000207016E0002D14D002F0F6FAA4487A6903
:1035800043692946032098477068B378F278002889
:1035900002D04178801C01E00021084600F060F96B
:1035A00005E1307E400718D56078205C802814D172
:1035B000706800280CD03969FF2008609548396987
:1035C000807C486097480068C168490B4903C16026
:1035D0008F481022017811430170706840783A28B2
:1035E00010D9914C2168914882689202920E162A55
:1035F00010D082689202920E1A2A03D28268120CAC
:103600009206F1D1802038718248007DC0070FD02A
:103610004B220EE03022844BD24380331A60826802
:103620009202920E1A2AFAD32160EBE7A0E06AE038
:103630004E22794B986B0090986B00998842F9D193
:1036400088187649884201D3494240187449C860B5
:103650000021774800F088FD307E844640074DD534
:103660007C696C4A6078127DC000A030F968D2078E
:1036700002D01F30400902E06E4A5043400C8142A4
:1036800001D3091A02E0091A64480918F960B06800
:103690000A46814201D3121A02E0121A5F48121838
:1036A0006378601C185C6346C0001B0610D582421C
:1036B00008D9121A07E0081A02E0091A5748081830
:1036C000B06011E0821A202A0ED88142F5D3F2E7C9
:1036D000814201D3081A02E0091A50480818B06064
:1036E0006046802108433076F07E02210FF040FFD3
:1036F000B07EC0065BD46078801E607044487A69F2
:103700002946436951E07978002920D07D703D71C8
:103710000021084600F028FD3D4C2078C0060FD55A
:1037200002F022FA7068B378F27800281DD0417850
:10373000801C00F095F82078EF210840207036E0DA
:1037400000F06EF900221146042063692EE03979F9
:10375000C9072CD03D712E4CC006E1D400F060F9B1
:10376000002211461420636920E000210846E0E7AA
:10377000787800281BD000247D7000F051F978691A
:103780000168CA431206120E06D0F278FF2A03D04F
:10379000C9B2914200D002240246002102F0BCF9D5
:1037A000204301461A487A69436903209847307ECE
:1037B000400701D5FFF774FD174CA06B0090A06B7C
:1037C00000998842F9D1F068814201D3081A02E0D9
:1037D000091A124808187D210902884208D908F000
:1037E00061FEA06B0090A06B00998842F9D1F16056
:1037F000B07E400724D5F879062821D07068B378C8
:10380000F278002818D04178801C17E0802E002024
:10381000982E00202C2E0020001000400000C0A890
:10382000602E0020D802002000E100E000C200402D
:103830002D340000C71000000021084600F010F8E9
:10384000FEBD000010B5FDF769FC034800F076FCF2
:103850000249C876002010BD81310000B82E00203A
:10386000FFB5644D0C4628689C46016881B013463C
:1038700089070ED0016DC908C900016501680822D9
:10388000114301600168090703D500BF00BF00BFF5
:1038900000BF59210165584E3068C16A07221205E0
:1038A0009143012252058918C162C16A072212069A
:1038B0009143052212068918C162504800680168C8
:1038C000CA094F49D2014F787F067F0E3A43026002
:1038D0004A6882608A680261CA6842600A69C26096
:1038E00028684268097852085200C907C90F0A437C
:1038F0004260434F61462037FB70B9704068C00793
:1039000039D07868002806D14921A01C0FF086FC28
:103910007860002810D00198002810D0002C0ED01C
:103920007968B87808707868224644707868019998
:10393000801C0FF067FC08E0012005B0F0BD79683D
:10394000B878087078680024447079682D484A78FF
:103950000069921C0FF056FC2B48817C29480269B3
:10396000601D80088000115028480068C168490B1C
:1039700049032143C160B87E04210843B876214C35
:10398000402020700020607020710521204800F048
:10399000EBFB0620E0711F48816B0091816B009A60
:1039A0009142F9D1FA6031681B4A00200B468033FE
:1039B00012890FE01C69E40109D5C86A07221205C3
:1039C0001043C862C86A12019043C86204E000BF95
:1039D00000BF401C8242EDDC10480068002804D083
:1039E000C1680A68406902430A60296801200860CA
:1039F0000020A2E7F0010020DC020020D402002019
:103A0000982E0020802E00202C2E0020D80200208E
:103A10002D34000000100040602E0020F80100202E
:103A200070B50B4C00250B48A57605716068002821
:103A300001D00FF049FC00210846656000F094FBBE
:103A40000521002000F090FB02F08EF8002070BDF0
:103A5000B82E0020802E0020FFB5B54F83B0386807
:103A60000C460068800701D002F07EF8B148B24DE4
:103A7000007E800708D5FFF74BFC1028FBD3A97FF9
:103A8000490110398142F6D339685A200865AB489C
:103A90000068C26A072109058A43012149055118B6
:103AA000C162C26A072109068A4305210906511825
:103AB000C162A34800680168CA099F49D2014B78D6
:103AC0005B065B0E1A4302604A6882608A68026184
:103AD000CA6842600A69C2603A6853680D785B0838
:103AE0005B00ED07ED0F2B4353600A7802231A4366
:103AF0000A70944E8021B1700021F1708D4D0599AE
:103B0000297006996970C16A89088900C1620168D3
:103B1000DA06914301600398002809D030692978BA
:103B2000017044702246801C03990FF06BFB02E089
:103B30003169287808607E4800684068C00701D075
:103B4000002100E00521804800F00EFB7D480521A2
:103B5000C1717A497D4E096800200B468033328955
:103B600010E01F69FF010AD5CB6A07273F053B43D9
:103B7000CB62CF6A07231B069F43CF620AE000BFD8
:103B800000BF401C8242ECD804E000BF00BF00BF71
:103B900000BF401C8242F8D86D480068002804D05D
:103BA00001680A68806802430A60664F80203871A5
:103BB0006848007DC00701D04B2200E04E226648D5
:103BC000816B0091816B009B9942F9D163499818F0
:103BD000884201D349424018F060287E80071ED5F4
:103BE0005F483E6900688047A968884201D3401A4F
:103BF00002E0411A594808184F49C0080978C90617
:103C000006D558490224000640183969086006E0C4
:103C1000A41CE4B2747000213155311948704D482C
:103C20003A69817C601D8008800011504E49086807
:103C30008268520B52032243826080684B4AC00460
:103C4000C00C3A2805D910680190484B50178033B2
:103C50001860374B02201B68186008688068C00431
:103C6000C00C3A2861D900BF00BF00BF00BF00BF31
:103C700000BF00BF00BF00BF00BF00BF00BF00BF4C
:103C800000BF00BF00BF00BF00BF00BF00BF00BF3C
:103C900000BF00BF00BF00BF00BF00BF00BF00BF2C
:103CA00000BF00BF00BF00BF00BF00BF00BF00BF1C
:103CB00000BF00BF00BF00BF00BF00BF00BF00BF0C
:103CC00000BF00BF00BF00BF00BF00BF00BF00BFFC
:103CD00000BF00BF00BF00BF00BF00BF00BF00BFEC
:103CE00000BF00BF00BF00BF00BF00BF00BF00BFDC
:103CF00000BF00BF00BF00BF00BF00BF00BF00BFCC
:103D000000BF00BF00BF00BF00BF00BF00BF00BFBB
:103D100000BF00BF00BF00BF00BF00BF00BF00BFAB
:103D200000BF00BF00BF01981060002007B0F0BDC9
:103D3000F0010020B82E0020982E0020DC02002088
:103D4000D4020020802E00202D340000602E0020A0
:103D5000F80100202C2E0020001000400000C0A818
:103D6000EC010020FF028000D802002000E100E00A
:103D700008B50448816B0091816B009A9142F9D19A
:103D8000104608BD0010004038B51648816B009100
:103D9000816B009A9142F9D1134C1046217DC907DD
:103DA00005D0124900F08AFB8A04810B04E0192136
:103DB00000F084FBCA05410A11430D4A906988420C
:103DC0000DD0884201D2081A07E0237DDB0701D01D
:103DD000084B00E0084B181A4018916138BD0020CC
:103DE00038BD0000001000402C2E002033030000DE
:103DF000602E002000796F0800603D0803493020E4
:103E0000087403490120086070470000201000403A
:103E1000CC010020FFB581B00C46074605460026C0
:103E20001AE0FF219131681EFCF72CFF00290AD00F
:103E30006421681EFCF726FF002907D00320A9078C
:103E40008007C14202D1FF206F3001E0FF206E30B9
:103E500080196D1E86B2ADB235488542E1D8002585
:103E6000012C25D9032C05D0A01E062816DDE0075D
:103E700018D115E0FF2191313846FCF7EDFE0029FD
:103E80000AD064213846FCF7E7FE002901D0B807C4
:103E900002D000201C3006E00120FBE7E00701D043
:103EA0001E2000E01F208019641E86B2A4B2D7E74E
:103EB000039818213018401E84B20498FCF7CCFEF9
:103EC000E120C00041430A981E22504309180B9874
:103ED0004008081881B20B98C00701D00120C00328
:103EE0000A0402431348C17B6B46C909C901197012
:103EF000C17B1B78C909C9019942F4D16946097887
:103F00000029F0D00B49572320310B70A8230B70E8
:103F1000084B203B5C63447C8026344344745A63E2
:103F2000427C40231A4342740D7005B0F0BD00007E
:103F3000E407000020100040002908D0002A02D128
:103F400005E008C808C2491EFBD200207047FD20CA
:103F50007047F7B58CB00C9815460F46002831D045
:103F6000002D2FD0381D0A9080B253210FF056F942
:103F700004003BD006F07CFC06463A46201D0C9916
:103F80000FF0ECFAF0B20990E0703004000E0890E7
:103F9000A0703002000E07906070370E277006F098
:103FA00061FC0146102201A80FF0D8FA0820009009
:103FB0000A9805AB82B2214601A80EF003F906006B
:103FC00002D00FE0022612E0099828700898687065
:103FD0000798A870EF70082205A9281D0FF0BEFAF7
:103FE00006F04CFC20460FF06FF900E01326304637
:103FF0000FB0F0BD014880697047000000E000E0AC
:1040000010B50B4857210170A8210170084A88217A
:10401000403A11810189042211430181002101707C
:104020000A2008F02FFB0120FEF7A8F910BD0000C0
:104030004010004070B50C46014620040AD50846E1
:104040000FF00CFA002801D00FF0E0F90120C003B6
:10405000604070BD6004FCD0002632462046D0404F
:10406000C00713D0002901D00F2000E000200B4929
:1040700080184968C00045180120904086B2296820
:104080006868884700202860686003E0521CD2B24C
:104090000F2AE3D32046704070BD0000D0010020FD
:1040A0000148406970470000602E002070B50FF095
:1040B00061F91C2200211E480FF08CF91C482022B7
:1040C000002150300FF086F91A4D002028616861F8
:1040D0001748174C1C30007F50348107890F800827
:1040E0000818410040180D30C0B2A07006214843A6
:1040F000FF210231F0300FF091F86860F030A860D5
:10410000A17889000818E8600FF0A2F90FF064FAAE
:104110006078094A8100A86842506178491CC9B298
:104120006170890042506078401C607070BD000072
:10413000102E0020D00100203540000010B50849A5
:10414000024648788B78984207D2064C8300A468D0
:10415000E2504A78521C4A7010BDFF2010BD00008A
:10416000602E0020D0010020072902D2014A8900D8
:1041700050507047102E0020FEB5864D02E080475B
:1041800001F022FD28680028F9D10124A000285858
:10419000002807D080477F481C30407D002801D090
:1041A000FDF738F82868002875D1641CE4B2072CA4
:1041B000ECD3784C784E50346278F06821784B001C
:1041C000C35A002B04D1491CC9B221709142F5D3C6
:1041D000C9B2914211D24A00815A002383522078F9
:1041E000B36882009A5890472178F2684900535A80
:1041F000034353522078401C207020786178884215
:1042000001D30020207063480068002843D1706902
:10421000002840D0804700283DD061690546091834
:1042200061610021C9435C4821610669002E29D0E3
:104230000027B068A84201D8002000E0401BB06011
:1042400054481C30406A002804D02169B06881427B
:1042500000D92061B06800280DD1718800291BD0D9
:1042600030780FF085F97068002801D0B06002E066
:10427000B068002810D0708800280DD03746F66846
:10428000002ED6D1434D1C35686A002803D000208B
:10429000414A617814E07CE0002F06D0F068F860B5
:1042A0003046F6680FF010F8EAE73B48F168016124
:1042B000F6E7D6684300F35A002B6AD1401CC0B21F
:1042C0008142F6D83349032082008A58002A60D1FF
:1042D000401CC0B20728F7D301A8FDF7C5FE02466F
:1042E0002E49401C24D0EB7C019EB34251D2206960
:1042F000471C16D02A7DD20702D01422504302E078
:10430000292250434008834243D2864200D230469D
:10431000C61A2348826B0092826B009B9A42F9D1A5
:104320001DE09A4201D3D01A1FE0D01A40181CE0B9
:104330002069421C2DD02A7DD20702D0142250437E
:1043400002E0292250434008EA7C824221D2861AA8
:104350001348826B0092826B009B9A42F9D19819A4
:10436000884202D30D4A52428018002802D0696A5E
:10437000884702E06A6A084690470006000E08D1A6
:104380002089002805D0FDF727F9FDF7A7FDFCF7E8
:10439000A3FEFEBD102E0020D00100200000C0A80A
:1043A0000010004010B504460848C16A002900D03A
:1043B00088470748002C01D0046001E005490160EE
:1043C000054800F00BF8002010BD00002C2E002046
:1043D000EC010020713D0000893D000010B503494B
:1043E000486180470249886110BD0000D00100206B
:1043F000602E002010B50446FDF708FC0A21484352
:10440000C0082146FCF728FC0A21401DFCF724FCCB
:104410000149888110BD00000034004010B5E12042
:104420004002FFF7E7FF0548872181700321C17033
:10443000402141700121817310BD00000034004013
:10444000F0B5144EFD23757A84247472124CA7685B
:10445000002F07D0A77B002F04D0A489E71FFF3FC0
:10446000FA3F02D07572FF20F0BD7D24E402A04225
:104470000AD34027491E07D3706008CA33609A23C5
:104480003372B37A7B4002D075721846F0BD001DBE
:10449000F0E70000001800402C2E00200FB410B5EB
:1044A00003A9044B044A029800F0E8F810BC08BCC9
:1044B00004B0184705A3000074050020F8B5040CEB
:1044C0008BB2264682B25E430D0C1046370C584321
:1044D000360480190021794116466E43370C3604A4
:1044E0008019794126466E438919F8BD30B4744667
:1044F000641E2578641CAB4200D21D46635D5B00E0
:10450000E31830BC184702E008C8121F08C1002A8F
:10451000FAD170477047002001E001C1121F002A44
:10452000FBD1704710B51C4613468C4205D8224675
:104530001946FCF7F1FB204610BD002010BD00001D
:10454000FFB5044681B080680D9E1D460F460028C9
:104550000ED045490968002904D1002D02D00A2057
:1045600005B0F0BD4169002904D10B99002901D0A3
:104570000720F5E7002F40D0039801F0D1FD002877
:1045800070D0A06801218088C903421A49108A426C
:1045900004D202F08FFF00210FF081FAA068418958
:1045A000C904C90C4181A0688780A168039AC888A2
:1045B0001205000B0003120D1043C88001221203E4
:1045C0009043EA07D20CA1681043C880A1680A98FA
:1045D0000872A1680B988872A1680C984872A0684C
:1045E0004069002836D0204603F058F90100A06841
:1045F0002DD0183007F052FC2CE080880028AFD076
:104600000121C903421A49108A4204D202F052FF22
:1046100000210FF044FAA06800228280A1680123E3
:10462000C8881B03000B0003C880A1689843C8809A
:10463000A0680272A0688272A0684272A068418974
:10464000C904C90C4181A0684169002902D0183011
:1046500007F006FC002E02D0204604F01CFD0020CE
:104660007EE7FFE703207BE7F403002010B5029903
:104670008A78098809F0E0F810BD0000FFB591B014
:104680000F460546002606E025280AD0149A1399FD
:1046900090476D1C761C28780028F5D1304615B05F
:1046A000F0BD002400940121F34A029400E0044389
:1046B0006D1C2B780846203B98401042F7D1287893
:1046C0002A280ED0022128780246303A092A15D825
:1046D000009A0A235A43303A80180C436D1C00900C
:1046E000F1E701CF0090002805DA012040030443E0
:1046F000009840420090022004436D1C28782E2828
:1047000015D10420044368786D1C2A280AD101CFF2
:104710006D1C02900BE002990A2251433039401877
:104720006D1C02902878014630390929F3D9287880
:104730006C2810D006DC4C281AD068280ED06A28C5
:1047400017D104E0742813D07A2812D110E0012088
:10475000400504430CE00121090501E0032109059E
:104760000C436978814203D10120000524186D1C97
:104770006D1C287803906E281ED00CDC632831D085
:1047800004DC00288AD0582811D1B2E064287BD0FC
:1047900069280CD178E073282DD004DC6F2870D004
:1047A000702804D1A7E075286CD078286BD0149AB3
:1047B00013999047761C62E06002400F022807D0F0
:1047C00003280AD0042838680AD006603F1D56E046
:1047D0003868F11706604160F8E738680680F5E749
:1047E0000670F3E73878694608740020487404A816
:1047F0000390012003E0386803900020C0433F1D70
:1048000061070FD5002101E00199491C029A01912D
:10481000914213DA8142F7DB019A0399895C0029FE
:10482000F2D10BE0002101E00199491C0191814284
:10483000FADB019A0399895C0029F5D10199009866
:10484000139A401A00902146149B00F03BF90199FD
:104850008019461807E0039803990078491C0391D2
:10486000149A139990470198401E0190401CF2D170
:104870002146149B139A009800F014F986196D1CB8
:1048800009E741E033E034E00A200021049005917B
:104890006002410F022905D001CFC21794460329B7
:1048A00005D007E0FF1DFF08FF0003CF06E000B2C0
:1048B000C2179446042902D140B2C1178C46002287
:1048C0006146944506DA0A460021404291418C46F1
:1048D0002D2102E0210504D52B216A461176012104
:1048E00003E0E10701D02021F7E7019154E00A201D
:1048F0000BE0102009E01020049000210420044364
:1049000008200591029003E0082000210591049001
:104910006002410F022905D001CF002294460329ED
:1049200006D006E0FF1DFF08FF0003CF8C4603E022
:1049300080B2042900D1C0B20021019121072BD5FA
:104940000399702906D0049A1021059B4A401A4306
:1049500005D00EE040216A461176012108E061464B
:10496000014306D030216A4611760399517602211F
:104970000191049A0821059B4A401A430CD16146D3
:10498000014301D1610707D530216A461176012123
:1049900001910299491E02910399582904D037A127
:1049A00003910FA90F910DE039A1F9E76146059B2D
:1049B000049AFCF708FA039B8C469B5C0F9A521EE4
:1049C0000F92137061460143F0D10F9807A9081A9E
:1049D00020300390600704D501200004844302982E
:1049E00001E0012002900399884201DD401A00E0B5
:1049F000002041180290019809180098401A009070
:104A0000E00306D42146149B139A009800F05AF84C
:104A100086190020049008E006A9085C149A1399EE
:104A200090470498401C761C049001998842F3DB5F
:104A3000E0030CD52146149B139A009800F042F82D
:104A4000861904E0149A302013999047761C029935
:104A5000481E02900029F5DC08E00F980F990078B5
:104A6000491C0F91149A13999047761C0399481E7C
:104A700003900029F1DCFBE60928010030313233D4
:104A8000343536373839616263646566000000008A
:104A90003031323334353637383941424344454674
:104AA00000000000F8B5044600251E46174688049D
:104AB00004D405E039462020B0476D1C641EF9D5AA
:104AC0002846F8BDFFB50446002581B01E46C80340
:104AD00001D5302700E02027880404D505E03846BA
:104AE0000399B0476D1C641EF9D5284605B0F0BD8A
:104AF000134610B50A461946FCF722F910BD00000E
:104B000070B500F01BFA1C214843042108F06AFF2D
:104B10000625ED43002818D00D4CE06000F00EFA99
:104B20001C214843042108F05DFF00280DD00949ED
:104B3000086000F003FA208000F000FA6080064868
:104B4000A06006486060002070BD284670BD00006F
:104B5000F42E002004020020284601007D4F0000B2
:104B600010B507F08BFB18214843042108F03AFFE9
:104B7000002803D003498860002010BD0620C043F0
:104B800010BD00002002002070B505F059FE441C45
:104B900005F050FE44431C206043042108F022FF2E
:104BA0000625ED43002821D0114CE06005F048FEB9
:104BB000461C05F03FFE46437000022108F012FF3C
:104BC000002813D00B49086105F03AFE451C05F09A
:104BD00031FE4543258005F033FE451C05F02AFED5
:104BE000454365800448A060002070BD284670BD24
:104BF000BC320020D803002028460100F8B53E4F03
:104C0000386800282DD005F015FE6821484304219E
:104C100008F0E8FE00286CD0384E002430621CE01A
:104C200005F01AFE4000022108F0DCFE002860D0EA
:104C30006822254655432A46316A1032885005F0CD
:104C400005FE0C214843042108F0CCFE002850D07A
:104C5000316A3035641C4851E4B205F0EBFDA042E6
:104C6000DED8274938680968264D084309D005F081
:104C7000E1FD4A214843022108F0B4FE002838D063
:104C8000E86000F037FD28214843022108F0AAFE21
:104C900000282ED0194C803460620DF089FFE42189
:104CA0004843042108F09EFE002822D0A0620BF0A9
:104CB000BBFB002808D00BF0B7FBC000042108F0B4
:104CC00091FE002815D0E0620AF0B2FC162148439C
:104CD000022108F087FE00280BD0206208F07CFE3D
:104CE0008000042108F07EFE002802D068600020C9
:104CF000F8BD0620C043F8BDD8030020882F00204F
:104D0000F40300204802002070B500240A4D0AF088
:104D1000E9FF4000022108F065FE002809D0542177
:104D200061434919641C24064860240EEFD000201A
:104D300070BD0620C04370BD0433002070B500F084
:104D4000D9FC04460DF034FF20184000022108F081
:104D500049FE0625ED4300280CD0074C60600AF0A0
:104D600067FC8000022108F03DFE002802D0A06010
:104D7000002070BD284670BD5802002070B50EF0AE
:104D800099FD48214843082108F02CFE0626F643E9
:104D9000002838D01D4D002468600EE00EF090FD14
:104DA0008000042108F01EFE00282CD04821614319
:104DB0006A68641C8918E4B248600EF07BFDA0426A
:104DC000ECD80BF0ADFB8001082108F00BFE0028A9
:104DD00019D00024A86010E00BF09CFB0C21FBF71D
:104DE0003BFF8000042108F0FDFD00280BD0A1014D
:104DF000AA68641C8918E4B248600BF091FBA042D9
:104E0000EAD8002070BD304670BD0000AC02002022
:104E1000036882689A4201D2436899548168491CA8
:104E2000816070470149FF20087070479802002098
:104E300070B50446007EFF2801D101F0B3FF322196
:104E40004843054600219635E0690A460126334667
:104E50008B40034201D0521CD2B2491CC9B2202956
:104E6000F5D3E07D6421C006C00E801A4843401986
:104E7000FF212D316430884200DC084670BD0000FF
:104E8000F7B582B01746054601F030FF0446039897
:104E900000212818401EC94386B2002C1BD0002DCB
:104EA00019D00120C003854215D2002E13D08642AE
:104EB00011D2039800280ED003F0C8FC2289411EAD
:104EC000511889B2864209D38D4207D8002F1FD0CE
:104ED000491C39801CE0084605B0F0BD114800248B
:104EE000009019E00098016A162060430818428873
:104EF0000D498A420FD00188027D481E101880B2E9
:104F00008E4208D3854206D8002F01D0401C38803D
:104F10000520C043E0E7641C0AF08AFBA042E1DC04
:104F20000020D9E708300020FFFF00001C21484383
:104F300001490968401870470402002001480068D0
:104F4000007870471002002010B50022D2430D21D6
:104F5000002000F07DFF10BD10B5C08901F028FBD6
:104F600008F0AFFE00F020F8002803D0018A0248C4
:104F700006F094FF10BD0000D82E002041690839CA
:104F80004161C160418A08314182018A0831018250
:104F90007047000000487047042F00200149087145
:104FA00070470000042F002010B505480DF0E4FE06
:104FB000002801D0002010BD01480068143810BD41
:104FC0000802002030B52A489FB0C06C1D9004A88C
:104FD0001C901E900020274C019002900390608846
:104FE00025460C3D002802D1A868006880896946E2
:104FF000C880A0880881E0694169002929D0E17949
:10500000002932D0491EE171217C6A469173028ADF
:10501000C1681CA808F09DFD0094A868144B0068A6
:10502000803B1CAA01A902F041FD04000FD01049E9
:1050300011A03B31FFF732FA214613A0FFF72EFAF9
:105040001AA0FFF72BFA21460A4806F00DFD1FB003
:1050500030BD074908A03B31FFF720FA14A0FFF745
:105060001DFA12A0FFF71AFAF1E71621C943EBE780
:10507000F04401007C0100204150505F4442472031
:1050800025733E2000000000556E61626C65207340
:10509000656E64206D6F64656C206D657373616708
:1050A0006520286572723A25642900000A00000014
:1050B0004E554C4C20627566000000000149486066
:1050C0007047000098020020F0B52C489FB0C06ED9
:1050D0001D9004A800242A4E1C900194029403946D
:1050E0001E90708837462C3F002802D1B8680068AF
:1050F00080896946C880B0880881F16948690028BC
:105100002AD0F279002A21D0521EF271307C6A46F0
:1051100090730A8AC9681CA808F01BFD0094B8683F
:10512000002300681CAA01A902F0C0FC05001FD0E2
:10513000124914A05431FFF7B1F9294615A0FFF721
:10514000ADF91DA0FFF7AAF9F06940690EF05EF90C
:10515000F06944611FB0F0BD08490AA05431FFF75F
:105160009DF916A0FFF79AF913A0FFF797F9F1E759
:1051700001213878B2680EF049FAEBE7F0440100FB
:105180009C0100204150505F4442472025733E203F
:1051900000000000556E61626C652073656E6420CE
:1051A0006D6F64656C206D6573736167652028653C
:1051B00072723A25642900000A0000004E554C4CDA
:1051C000206275660000000001480068C0787047E2
:1051D0001002002070B505468AB016481646806950
:1051E000029006A80C460190039004AA05A9304637
:1051F00006F01BFF104901A802F027FB6846018A50
:105200000023808A326800F02FF9014601A808F0D7
:10521000ABFC6846028A818A01A806F0F7FE0020EE
:105220000346009001AA2146284602F03FFC0AB03E
:1052300070BD00004046010003800000F0B5044648
:1052400025680888AD8B0026F64387B0A84210D1A8
:10525000257DA80705D50879002802D00846163014
:1052600000E0481D08A9097C07788906890EB94223
:1052700002D0304607B0F0BD0A49ED070968ED0FCE
:10528000491B65892489059104920F99039501931F
:10529000009102940021401C0E9B0D9A00F0ABFE81
:1052A000E8E70000882F002070B506468AB01F4846
:1052B0001346006B029006A80D460190039004AAC5
:1052C00005A9184606F0B1FE6846808A03F0CAFFB9
:1052D00000280CD06846008A00F022FF002808D081
:1052E0006A460188928A91421CD0112402E004246B
:1052F00000E000240E4901A802F0A7FA214601A807
:1053000008F032FC6846028A818A01A806F07EFE17
:1053100000200346009001AA2946304602F0C6FB51
:105320000AB070BD012100F0E1FEE2E74046010055
:1053300003800000F7B529498AB0C96B029104A91E
:1053400001911046039108F03EFC2549064688422B
:1053500042D8244901A802F078FA304603F082FFCF
:1053600000280BD00024214601A808F0FDFB31469F
:1053700001A808F0E1FB002C26D101E00424F2E7AB
:10538000194C1A4800252746009013E00098416AFE
:105390002820684308180188B14209D1BC4201D1D4
:1053A000448805E04288214601A806F02FFE3C46CD
:1053B0006D1CADB200F09EF9A842E7D8BC4203D004
:1053C000214601A808F0B8FB00200346009001AA7E
:1053D0000B990A9802F06AFB0DB0F0BD404601003F
:1053E000FF0F000002800000FFFF000008300020D7
:1053F000F8B5064600240B4D0B4F0CE02820696AD7
:10540000604308180188B94204D04088B04201D1F5
:105410000120F8BD641C00F06DF9A042EEDC002014
:10542000F8BD000008300020FFFF000030B50C4838
:105430000C49406885B0C068144688420ED11046B9
:1054400008F0D6FB0546204608F0BDFB69460881FA
:10545000002003902946684604F05EF905B030BD8F
:10546000D003002002800000FFB581B0064603F0A3
:10547000F9FE070035D0029800F052FE0446049869
:1054800000281DD0002C05D02088B04204D0112067
:1054900005B0F0BD0320FBE72546F87F163501284F
:1054A00009D12079002808D01022681C0399FBF745
:1054B0006EFC0028ECD00B20EAE70120207118E0F8
:1054C000002C10D02088B04206D11022A01D0399D4
:1054D000FBF75DFC0028DBD02088B04201D106201C
:1054E000D6E70420D4E7029800F0E8FD04000DD0D0
:1054F000651D2946039801F085FF002808D004980F
:10550000002801D0002020710920C1E70520BFE755
:105510002680029860801022681C0399FBF7FCFB30
:10552000204603F06DFD0020B2E7F0B589B01E46BD
:1055300017460C46002814D0102200210DF00CFA5A
:1055400085B2002C11D023236A463146384607F035
:10555000C3F9002807D1284600F0E2FD04000ED070
:1055600012E00720C04309B0F0BD284600F0D8FD86
:10557000002802D0002100F0B9FD0020F3E7284602
:1055800000F09CFD04001ED06846008820806580E5
:1055900068468078207100A91022A01D0331FBF716
:1055A000BBFB2046173004A9102205460331FBF748
:1055B000B3FBA01D611D01F025FF214628461631D1
:1055C00001F020FFD9E70820C043CCE730B50B48F5
:1055D0000B49406887B0C068144688420CD1104619
:1055E00008F006FB054606AA05A9204606F01DFDA3
:1055F0002946684604F090F807B030BDD00300207B
:105600000380000070B505468AB016481646406A09
:10561000029006A80C460190039004AA05A9304602
:1056200006F003FD104901A802F00FF96846018A4F
:105630000123808A3268FFF717FF014601A808F0AE
:1056400093FA6846028A818A01A806F0DFFC0020EE
:105650000346009001AA2146284602F027FA0AB024
:1056600070BD0000404601000380000010B50549F0
:1056700005A0FEF713FF08A0FEF710FF0BA0FEF732
:105680000DFF10BDB94301004150505F4442472017
:1056900025733E20000000006170705F70726F76AD
:1056A0005F6174746E5F6F66660000000A00000040
:1056B00010B5054905A0FEF7F1FE08A0FEF7EEFEC5
:1056C0000BA0FEF7EBFE10BDA84301004150505F58
:1056D0004442472025733E20000000006170705F47
:1056E00070726F765F6174746E5F6F6E00000000A1
:1056F0000A00000001480068007A7047100200208C
:10570000FFB583B00C9C1646002C01D0002708E0A2
:1057100001270398FBF78EFC0421FCF7CFFB040064
:1057200014D0267004980125002805D0049A601C26
:1057300006999047401C85B2300614D51021039875
:1057400006F01AFE002804D0192616E0132007B030
:10575000F0BD621929462046FEF7FBFB0C350646D4
:10576000ADB2002809D104206946088001944D801B
:105770000398FCF765FB0600E9D0002F02D0204615
:105780000DF0A2FD3046E2E710B50BF079FC10BD3C
:10579000083807D04168002904D04969002901D0A0
:1057A00000680847704770B50C46054600F005F8DC
:1057B000214628460BF064FC70BD10B50446104627
:1057C00008F016FA0146204600F0E0FD10BDF0B5E5
:1057D0001F460B46014685B0154604462131082276
:1057E0000A9E18460391FBF7D2FA00280FD101A8B0
:1057F000009020463B4629464930039A00F0F6FDCA
:10580000082201A93046FBF7C2FA002802D0002086
:1058100005B0F0BD0120FBE7FFB51F4685B0484B42
:105820000E9D0F9C9868002A0BD0027D002A08D09C
:105830000269002A05D00120607020700020E0700D
:105840007AE0427DAA4200D21546C08AC20606D539
:105850000A0704D5032024260390042018E000073B
:1058600013D0480711D048070A26400F05F0FAFA6E
:10587000401EC0B2039032488068807D0007000F50
:1058800005F0F0FA401EC0B202E000263046039652
:105890002B4901908868027EBA4200D21746408B9D
:1058A000020708D5059AD20605D5242000900420C9
:1058B000029003201BE0400716D00598000713D084
:1058C0000A20009005980007000F05F0CBFA401E53
:1058D000C0B202901A488068807E4007400F05F0F1
:1058E000C1FA401EC0B202E0002000900290009970
:1058F0003A464A432B46734303219A4209D902226E
:10590000627021700299E170A0706771277109B00F
:10591000F0BD002E0BD0002D09D061700220207048
:105920000398E0700198A07065712571EFE7002081
:1059300060702070E070A07060712071E7E7000077
:105940009802002010B50C4606F0DFFA206010BD6A
:1059500030B505460D4887B0806C029004A80C460F
:10596000019003900A4901A801F06FFF00F0BAFD11
:10597000014601A808F0F8F800200346009001AAAB
:105980002146284602F092F807B030BD404601009B
:105990000B800000F8B503F071FE002801D06421EF
:1059A00030E001F08BFC002830D01A49087800283C
:1059B00004D000200870002816D101E00120F9E78A
:1059C0000024154D154E27460AE0E420A96A6043DD
:1059D0000818818BB14202D0417901714771641C72
:1059E0000DF0E6F8A042F0DC0BF01CF800F07AFDB8
:1059F000012806D008480321783800F088FC0028E8
:105A000003D00749074806F049FAF8BD0DF096FFA4
:105A1000F8BD00001C02002008300020FFFF00003D
:105A200010270000342F002070B50546194886B0B5
:105A3000406D029004A801900390AC6A0E46002CC1
:105A400013D010680078002801D001281FD1E17917
:105A500088420AD0E07103F0FBFAE079002802D016
:105A600000F01CFD01E000F009FD0B4901A801F068
:105A7000ECFE00F037FD014601A808F075F80020A3
:105A80000346009001AA3146284602F00FF806B0FE
:105A900070BD0000404601000B80000000B50849C1
:105AA000084B496885B0C9681046994205D108F08D
:105AB0009FF80146684603F02FFE05B000BD0000C8
:105AC000D00300200B800000F7B5064609F0A0FBCC
:105AD000FFF73AFA04001AD00E4D20460C30074664
:105AE000E96A08F01DF80021384608F03DF8B000DA
:105AF000C01CC1B2384608F037F83846029A0199FE
:105B000008F027F8EC640BF01DFE0020FEBD062017
:105B1000C043FEBD9831002030B5437803245B1D9F
:105B20002343C45CE50601D5012030BD002903D024
:105B3000210601D5022030BD002A03D0C11820392A
:105B4000C97F1170C1182039487F897F4907490DE5
:105B500008430449420502D51F22D202104308809F
:105B6000002030BDF401002010B514480068016821
:105B700089070ED0016DC908C900016501680822B6
:105B8000114301600168090703D500BF00BF00BFD2
:105B900000BF002202650A4B586800280AD04168FD
:105BA0000C68806804430C60586801690B684069A0
:105BB00003430B600348C27110BD0000F0010020D8
:105BC000F4010020802E002008B51148407D0028F7
:105BD00001D0FBF71FFB0F4B1879000612D50E48BA
:105BE000816B0091816B009A9142F9D10B4910466B
:105BF000C9680122814202D8401A02D502E0081A7F
:105C000000D51A7106488069002800D0804708BD79
:105C10002C2E0020802E002000100040602E00203E
:105C2000102E00201CB50D223DA141480DF0DCFADC
:105C300000281BD03F4800900120C00201903E4840
:105C4000FBF7D6FF06223C493C480DF0DBFA6B46D9
:105C5000394A3B493B4800F037FF04000AD03A4933
:105C60003AA0FEF71BFC21463CA02AE044A0FEF728
:105C700015FCFEE705F048F93348DC3801F050F830
:105C800003F0D0F802F08EFE2B48C01DFFF716FA85
:105C90002D48CC3802F036FE044601F005FD02F036
:105CA0000DF903F001FB00F025FC00F027F903F0EB
:105CB00089F92549002C25A006D0FEF7EFFB2146E7
:105CC00034A0FEF7EBFB27E0FEF7E8FB3AA0FEF777
:105CD000E5FB3FA0FEF7E2FB0BF0B4FF01F0EEFAAC
:105CE00000280AD0184919A0FEF7D8FB39A0FEF702
:105CF000D5FB37A0FEF7D2FB07E001F0DFFA002862
:105D000003D103F03DF900F0C9FB0F490FA0FEF7E6
:105D1000C5FB39A0FEF7C2FB2DA0FEF7BFFB1CBDE3
:105D20004D4553485F4C49425F56312E31000000CB
:105D3000FE4501007805002001000020780D0020BC
:105D4000A845010074450100304401004150505FF6
:105D50004442472025733E2000000000556E6162DA
:105D60006C652073657420636F6E66696775726118
:105D700074696F6E20286572723A256429000000EC
:105D8000686561642066696C65206572726F722E49
:105D90002E2E0A00496E697469616C697A696E67B2
:105DA000206D657368206661696C65642028657282
:105DB0007220256429000000426C7565746F6F7451
:105DC0006820696E697469616C697A6564000000B5
:105DD0000A0000004D657368206E6574776F726B02
:105DE00020726573746F7265642066726F6D2066D1
:105DF0006C617368000000004D65736820696E690E
:105E00007469616C697A65640000000030B50D4604
:105E1000ADB00146144668460CF0C7FF002809D013
:105E20006A46294620460CF0CEFF002802D000200A
:105E30002DB030BD1120FBE710B5084605F0F0F895
:105E400005F0D8F810BD10B505F0B6F810BD00008B
:105E5000F8B514460E4605460DF0E4FD0246203224
:105E6000334615491548009400F02CF8041E22D042
:105E700004F098F8014620460C300622074607F049
:105E800068FE0121384607F02CFE0D48415D38467A
:105E900007F06AFE606908306061E060608A083877
:105EA0006082208A08382082A06900210160416058
:105EB000816046722046F8BD2D4F0000F42E002070
:105EC000F4450100F8B50D460746144601210A487D
:105ED000069E00F00AFA002801D00020F8BD3246E4
:105EE0002146384607F0BCFD041EF7D007F0ECFD54
:105EF000A847A0612046F8BD902F002010B50448A7
:105F00000021016041600349034805F0B3FF10BD63
:105F10000802002085BD0000D82E0020F8B51746E5
:105F20000E46054607F0D9FD84694021C0C420789B
:105F300008434006400E2070002020812846083C7F
:105F400007F0C2FDE081607A0A21C008401C484386
:105F50006073607A4007400F401C2073287C696999
:105F6000401C20398877214614310A480CF0D1FEB4
:105F7000094805F088FF00280BD1074800210830A8
:105F800000F0B3F90006000E03D10021024805F02D
:105F900085FFF8BD08020020D82E0020F0B5C3B060
:105FA0000C46154601461F4616AA68460CF068FFC7
:105FB0000A26F643002814D008E006CC6846083CC0
:105FC0000CF08AFF00280CD008346D1E002DF4D18F
:105FD000694638460CF00CFF002802D0002043B080
:105FE000F0BD3046FBE71CB50192009101226946E5
:105FF000FFF7D4FF1CBDFFB589B01C46174615A896
:106000000DC88C4614990293019200900B46129E83
:10601000139D3A46614604A803F036FE002F01D0D6
:10602000082000E004203268002D01D0102100E09B
:1060300000210191039000950292A38804A922688F
:10604000099800F0BDFA050003D1A188304607F099
:1060500048FD28460DB0F0BDFFB589B01C46154679
:1060600014A80DC8139F029301920090129E3B4604
:106070002A4604A803F008FE002D01D0082000E005
:1060800004202268002E01D0102100E0002101919F
:10609000039000960292A38804A9099800F0BAFB25
:1060A000060007D1002D01D0082100E00421204680
:1060B00007F017FD30460DB0F0BD000070B50024AC
:1060C000084D094E07E02820696A604308180188D6
:1060D000B14205D0641CFFF70DFBA042F3DC0020A9
:1060E00070BD000008300020FFFF000038B50D46ED
:1060F00004464088694608808D70084801F046FBD8
:10610000002D02D0204600F077FD0020C043208003
:106110002221601DFAF71BFE38BD00006D4600000D
:10612000F8B5064600240A4D0A4F0AE02820696A9D
:10613000604308180188B94202D04188B14205D0B5
:10614000641CFFF7D7FAA042F0DC0020F8BD000085
:1061500008300020FFFF0000FFB5064681B023484D
:106160000A9D1C460F46814207D0401E874209D136
:10617000039800F049FE002804D0002028701C4835
:10618000206030E01948401E87420ED10E21194888
:1061900000F0E1F8002808D0039802F0D5FA0028B2
:1061A0000ED0001D206000201CE0002E08D03846D4
:1061B000FFF7B6FF002807D0F17F022907D00EE0D5
:1061C0000020C04305B0F0BD0720C043FAE70179C5
:1061D000002904D0014617312160807D02E0811D35
:1061E0002160407928700020ECE70000FEFF0000ED
:1061F0001830002098300020CB06DB0E01229A4098
:10620000490989004358934343507047CB06DB0E3E
:1062100001229A404909890043581343435070476B
:10622000CB06DB0E01229A404909890043581343EB
:1062300043507047CB06DB0E01229A404909890082
:10624000435813434350704710B5CC06E40E012366
:10625000A34049098C000159002A01D0194300E0EC
:106260009943015110BD10B5CC06E40E0123A340A3
:1062700049098C000159002A01D0194300E09943D3
:10628000015110BDCB06DB0E01229A4010B5490921
:106290008B00C1580C469443C450114201D00120D8
:1062A00010BD002010BDCB06DB0E01229A4010B5B8
:1062B00049098B00C1580C469443C450114201D087
:1062C000012010BD002010BDCB06DB0E01229A403C
:1062D00010B549098B00C1580C461443C4501142F3
:1062E00001D0012010BD002010BD4A099200805845
:1062F000C906C90EC840C007C00F70474A099200BE
:106300008058C906C90EC840C007C00F70474A0967
:1063100092008058C906C90EC840C007C00F704718
:106320004A0992008058C906C90EC840C007C00F6C
:1063300070474A0992008058C906C90EC840C00774
:10634000C00F70474A0992008058C906C90EC8405C
:10635000C007C00F70474A0992008058C906C90E8D
:10636000C840C007C00F70474A0992008058C9064C
:10637000C90EC840C007C00F70474A099200805834
:10638000C906C90EC840C007C00F704770B50E4699
:10639000050015D0AC6A002C11D0002E16D0606814
:1063A000002804D00269002A01D0284690477D20A9
:1063B000C000314641432046083005F06FFD70BDF6
:1063C00009480468002CFAD02568E6E72046083022
:1063D00005F046FD60680028F1D041690029EED043
:1063E0002846884770BD00004402002070B588B080
:1063F00004461E4668460C9D134601700822194645
:10640000401CFAF789FC02A9304601310CF076FCF9
:1064100004AB0D2269462046FFF7E5FD040004D1D8
:10642000082204A92846FAF777FC204608B070BD78
:1064300070B50E46044601F02DFD0146A07F0028F0
:1064400002D02546893501E025463035304607F033
:106450008BFB294608222131304607F07AFB06489B
:106460000168304607F05CFB21460822283130469F
:1064700007F06FFB70BD0000882F002010B50321CE
:106480000448FFF744FF002802D1034805F0E8FC68
:1064900010BD0000902F0020342F0020F8B500F030
:1064A0000DFF002814D000240B4D0C4F26460BE0A6
:1064B000E420A96A60430818818BB94203D00671B1
:1064C000467101F029FB641C0CF072FBA042EFDC6A
:1064D000034805F027FDF8BD08300020FFFF00004D
:1064E000342F002002484068002800D0C07970474F
:1064F0002002002010B50249024805F0BBFC10BD87
:1065000095590000342F00200B4A10B50823D11AEA
:106510008968002805D019430848116005F002FD7C
:1065200010BD99431160FFF7DDFF0028F8D1034843
:1065300005F096FC10BD0000902F0020342F0020A5
:106540007CB504468088002809D0204607F050FB1F
:10655000002805D0012802D120460AF0D5F97CBDDB
:1065600003F08CF80028FAD1A088122801D0162850
:10657000F5D11021204607F033FB0646204607F0F0
:1065800006FB054600200090A088042805D120467F
:1065900007F00BFB019001A8009002F0ADF9846AAE
:1065A000002CDCD06B462A4631460120A0477CBD3A
:1065B00010B50146014808F07DFC10BDF42E002006
:1065C000FFB59BB01E98259E1746002803D0FF20DC
:1065D0000002864203D30020C0431FB0F0BD01205B
:1065E000694608700D2268441C99FAF795FB03A9C7
:1065F0000231002018910CF07DFB10AA69461B980F
:10660000FFF704FC0028E8D12798082803D0002EC3
:1066100008D0402007E0002E01D0402000E00020FC
:10662000192101E00020092108436946087000A8EB
:106630000D2201301C99FAF76FFB1E98189980B251
:106640000CF058FB04AA69461B98FFF7DFFB0028F3
:10665000C3D1002E3ED0B0B269460CF04BFB0024F3
:10666000694604AA105D0B5D58400855641C022C55
:10667000F8D30025B61C13E0684604A9249B0A5DE4
:106680005B5D6D1C5A400255641C102CF6D30A4603
:1066900001460024103E1B98FFF7B8FB00289CD150
:1066A000102EE9D80020694604AA06E0249C135C59
:1066B000645D63400B54401C6D1CB042F6D302E095
:1066C000905D8855761C102EFAD31B98FFF79EFB21
:1066D000002882D11E980F210507000309034018E6
:1066E000000C2D0F1990002D00D11025002481E001
:1066F000661C864248D10120694608700D22684414
:106700001C99FAF709FBB0B218990CF0F3FA0CAA2D
:1067100069461B98FFF77AFB002899D1210108AE42
:1067200006E00A180CABBA5C1B5C5A403254401CA1
:10673000A842F6D326982A4608183146FAF7ECFA0A
:10674000002004AA05E0115C335C59406B461954E3
:10675000401CA842F7D328466946164602E0325C40
:106760000A54401C1028FAD332461B98FFF74EFB00
:10677000002894D110AB195C325C514014AA11541A
:10678000401C1028F7D334E00120694608700D2220
:1067900068441C99FAF7C0FAB0B218990CF0AAFA3A
:1067A0000CAA69461B98FFF731FB002891D1210103
:1067B00008AE0A180CABBA5C1B5C5A403254401C41
:1067C0001028F6D32698102208183146FAF7A4FAB2
:1067D000002004A90A5C335C5A406B461A54401CE2
:1067E0001028F7D30A4619461B98FFF70FFB00281D
:1067F00093D1641C1998844200D279E71E98279A95
:10680000391814A8FAF7C3FA002800D1E5E61020D9
:10681000C043E2E6FFB597B0FF20219F0002164675
:10682000874203D30020C0431BB0F0BD012069465E
:1068300008700D2268441899FAF76EFA03A902311C
:10684000002014910CF056FA0CAA69461798FFF72D
:10685000DDFA0028E8D12398082803D0002F08D0BB
:10686000402007E0002F01D0402000E00020192147
:1068700001E00020092108436946087000A80D22A4
:1068800001301899FAF748FA1A98149980B20CF066
:1068900031FA04AA69461798FFF7B8FA0028C3D15D
:1068A000002F41D0B8B269460CF024FA002404AAA3
:1068B0006946105D0B5D58400855641C022CF8D3E6
:1068C0000025BF1C13E004AB684620991A5D495DA2
:1068D0006D1C4A400255641C102CF6D3014600245E
:1068E0001A46103F1798FFF791FA00289CD1102FF5
:1068F000E9D8002004A96C4606E0209B0A5C5B5D99
:106900005A402254401C6D1CB842F6D3204602E087
:10691000CA5DC2557F1C102FFAD30A46014617984C
:10692000FFF774FA002895D11A980F210507000384
:1069300009034018000C2D0F1690002D00D11025D2
:1069400000247DE0601C16991590884246D10020F5
:1069500004A9270106E03B180A5CF35C5A406B4629
:106960001A54401CA842F6D3284604E004A90A5C45
:1069700069460A54401C1028F8D304AA694617989F
:10698000FFF744FA00288AD104A90CAA125C0B5C18
:106990005A4010AB1A54401C1028F6D30120694607
:1069A00008700D2268441899FAF7B6F915981499E9
:1069B00080B20CF09FF908AA69461798FFF726FAEB
:1069C000002893D107E0391808AB725C1B5C5A4071
:1069D000229B401C5A54A842F5D330E0002004A961
:1069E00027013B180A5CF35C5A406B461A54401C62
:1069F0001028F6D30A4619461798FFF707FA002819
:106A000091D10120694608700D2268441899FAF75F
:106A100083F91598149980B20CF06CF908AA6946AC
:106A20001798FFF7F3F90028ADD1391808AB725C5D
:106A30001B5C401C5A40229B10285A54F5D3641CFE
:106A40001698844200D27DE71A992298239A40181A
:106A500010A9FAF761F90020E6E600000148406855
:106A6000704700002002002070B513484468002CD5
:106A700020D0002002F0A0FA002120464030018002
:106A80004180A163E1630C460C4D0D4E0AE0E42009
:106A9000A96A60430818818BB14202D0012102F03B
:106AA0006DFB641C0CF084F8A042F0DC002105486A
:106AB00000F06CFE70BD00002002002008300020B5
:106AC000FFFF00003FCF0000FFB5474F81B01E46DB
:106AD0000D4604007ED0002E7CD03068002879D08E
:106AE000002D7FD000214148FFF708FC002802D08C
:106AF000B80005B0F0BD2078801F232872D26078DE
:106B000014286FD8A078401E60286BD22079801E90
:106B1000132867D2A01D05F08FFE002862D0A18A3D
:106B20003348491F81425DD2618A491F814259D24F
:106B3000E08A801E042855D2207E401E042851D2AF
:106B4000607E401E08284DD2A07E401E042849D2F7
:106B5000E07E801E1D2845D2A08B401EFF2841D21A
:106B6000A17F20461E30891E13293BD28088FF2139
:106B700088310A38884235D22820005D002831D07B
:106B800021461C4C216003996160287C022829D38E
:106B9000698A6869FAF760F8002901D0002003E0EB
:106BA000687C0028FAD0012000281BD03046A56060
:106BB00005F034FEFEF7E2F80446FEF7BFF80419CC
:106BC000FEF7A2F80419FEF719F80419FDF798FF6B
:106BD000041900E006E0FDF7C3FF0419FDF7D4FF38
:106BE000001986E7384684E7FFFFFFFF902F00205B
:106BF0000C0E00001002002038B5044641886A4699
:106C0000012005F027FA01229203002801D0018813
:106C100010E00098002813D0018801231B031943BA
:106C200001806388090B1B0509031B0D1943012310
:106C30005B03194311430180072009F0A3FC38BD11
:106C4000608802F01DFE38BD10B5082009F09AFCDE
:106C5000092009F097FC0C2009F094FC10BD38B510
:106C600004460088694607F0BBFC0121002801D0DA
:106C7000817005E00098002806D08170218801808D
:106C80000E2009F07FFC38BD208802F095FE38BD4B
:106C900010B5062009F076FC10BD38B50446818B8E
:106CA0006A46002005F0D6F901229203002801D09F
:106CB000018810E00098002813D0018801231B03ED
:106CC00019430180A38B090B1B0509031B0D1943F5
:106CD00001235B03994311430180072009F052FC13
:106CE00038BDA08B02F050FE38BD0000014840685E
:106CF00070470000FC01002010B50849074A0880D1
:106D00000021526806E0D3680C011B191880401C52
:106D100080B2491C93688B42F5D810BDFC0100205D
:106D20008168002903D00349486000207047002093
:106D3000C0437047FC01002010B5044900200880C2
:106D40000146034800F022FD10BD0000FC010020B8
:106D500095CB00004168491E416070473FB585B042
:106D60000D9D0C9C694601920B814B8103920B2B6C
:106D700004D9416880234A7A1A434A720021426842
:106D8000C943518041682B46497ACA0906A9009136
:106D9000224601A903D00AF0FDFC09B030BD0AF07B
:106DA0005BFEFAE703484068002801D0807A70470C
:106DB000072070472002002008B500920A4602A36F
:106DC000202100F085FA08BD7072646B000000009D
:106DD00010B50C4688B00146074A6846F9F7F9FE37
:106DE000002806D0002C01D06846A047002008B03B
:106DF00010BD0120FBE700005C3200200148406824
:106E0000007A7047FC010020F8B5070021480ED039
:106E10000121C9038F420AD24168CA688968108873
:106E2000381A80B2814233D900011018F8BD00260B
:106E300029E0C0683101441800250AE02C20A1682F
:106E4000684308183946009000F076FC00280FD1FE
:106E50006D1C2079A842F1DC00250FE02C20E168B0
:106E6000684308183946009000F066FC002804D0FA
:106E70000098002805D02046F8BD6D1C6079A84216
:106E8000ECDC761CB6B2034840688168B142D0D8C9
:106E90000020F8BDFC01002010B5FF22064C03E0E5
:106EA00003785340E25C401C0B46491EC9B2002BDC
:106EB000F6D1FF20801A10BD084E010030B50268DF
:106EC0008088FF23094C03E015785D40635D521C08
:106ED0000546401E80B2002DF6D14B40E05CCF2825
:106EE00001D0002030BD012030BD0000084E01005F
:106EF0000B4910B5401807D0012808D0022809D046
:106F000003280BD1012010BD00F00EF904E000F0C1
:106F10008DF801E001F07CFF0128F4D0002010BDC5
:106F20000400FFFFFFB581B0002528E01748039A51
:106F3000016A682068430F180198818B384603F076
:106F4000B9FB00281AD0002414E00C20396B6043F0
:106F50000E18049802990088C204D20C304604F03E
:106F60001BFE002805D0304608F046FE0020307297
:106F700004E0641C03F06AFCA042E6DC6D1C03F034
:106F800059FCA842D2DC05B0F0BD0000882F0020DB
:106F9000F8B5054600240B4E0B4F0DE06820396A0A
:106FA00060430818C189B14205D0B54201D0A94259
:106FB00001D103F0D3F9641C03F03CFCA042EDDCEA
:106FC000F8BD0000FFFF0000882F0020FFB581B052
:106FD0001F46064600241FE01248016A68206043ED
:106FE0000D180398002802D0E878C00613D5002FAA
:106FF00002D0E87880060ED50B48864202D0E88998
:10700000B04208D12846029904F07AFD002802D047
:10701000284605B0F0BD641C03F00CFCA042DBDC8C
:107020000020F6E7882F0020FFFF0000034840689B
:10703000002801D0407A70470220704720020020CB
:10704000F8B50E46074600240A4D0CE06820296A70
:10705000604308183246394603F02CFB002801D063
:107060000120F8BD641C03F0E5FBA042EEDC00202B
:10707000F8BD0000882F0020FFB5002681B03546FE
:10708000344616E01048039A016A682060430F18DE
:107090003846019903F00EFB002809D00125384637
:1070A0000A9B049A029903F029FB002800D00126CC
:1070B000641C03F0BFFBA042E4DC002D02D030468C
:1070C00005B0F0BD0120FBE7882F0020F8B507468A
:1070D000002519E00F48016A682068430E18F089FE
:1070E0000D4988420FD08F4201D0B8420BD1B46B0A
:1070F00003E0204604F07DFD2468002CF9D1002136
:10710000304603F004F86D1C03F094FBA842E1DC68
:10711000F8BD0000882F0020FFFF000010B5008898
:10712000F9F788FF10BD000003484068002801D02F
:10713000007A7047022070472002002010B5FAF74D
:107140008FFB10BD10B5034800214089FAF7DAFB28
:1071500010BD00005403002002484068002800D001
:107160000C30704720020020F8B51646154A1F461D
:107170005568002D24D02C464034228882421FD1ED
:10718000608888421CD104F0B8FEAB6BEA6B181A19
:107190008A4115DBA079B04200D33046A071E07976
:1071A000B04200D83046E071A0880749884201D239
:1071B000401CA080AA6C002A02D039463046904775
:1071C000F8BD000020020020FFFF000010B50021E4
:1071D000084600F001F810BDF3B589B000200E4656
:1071E000039004900590FFF739FC0546254806AB4F
:1071F00007C807C3288E69460883288D88832F46D1
:107200002037787B08A988700024288E02F02AF89D
:10721000039006A80490286800F070FA0088694678
:10722000888201F001FA69468875288D002826D0E9
:10723000787B087201F0ECFD012800D10124FFF7F2
:1072400073FF012801D102200443FFF7EFFE01285C
:1072500001D10420044300F081F9002801D0082066
:10726000044360BA69464872000A8872099800901F
:10727000032302AA0A21019603A8FFF76FFD0BB0B2
:10728000F0BD0000944C010070B515460A4686B06A
:10729000064608A401A9104601F030FE002806D1D8
:1072A000234601AA10213046009500F011F806B0DF
:1072B00070BD0000696431323801000010B5002152
:1072C0000248FFF72DF8C0B210BD0000902F00203B
:1072D00070B51646049D0A461C4601462B463046AC
:1072E000FEF781FE002808DB2046F9F73BFD024649
:1072F0002B4621461846FEF776FE70BDF0B593B0DA
:107300000E4607461C4615460FA925A001F0F6FDBE
:10731000002843D10BAB102239460FA8FEF763FEBD
:1073200000283BD10121684601700020059006909D
:1073300068460A9109900796089501AB032205A9B2
:107340000BA8FEF72BFE002828D16946C87C01ABAC
:107350004006400E207001A80590102006900220E3
:107360000870032205A90BA8FEF718FE002815D106
:10737000102201A91898F9F7CFFC0320694608707C
:10738000024601AB05A90BA8FEF708FE002805D1AF
:10739000102201A91998F9F7BFFC002013B0F0BD25
:1073A000736D6B320000000030B505460C4611A02D
:1073B00003C88BB009910890694610A001F09EFDAA
:1073C000002815D104AB102229466846FEF70BFEB3
:1073D00000280DD16B46052208A904A8FEF703FE7C
:1073E000002805D10822204602A9F9F795FC0020C3
:1073F0000BB030BD6964363401000000736D6B332F
:107400000000000030B5054689B011A000680C46A8
:10741000089069460FA001F071FD002815D104AB5A
:10742000102229466846FEF7DEFD00280DD16B4686
:10743000042208A904A8FEF7D6FD002805D1684655
:10744000C07B8006800E2070002009B030BD000097
:1074500069643601736D6B340000000010B504469A
:10746000837FC07F8B4201D000281CD0A1770029E8
:1074700003D0012818D1022013E0012802D00228ED
:1074800012D101E0002A0FD0204600F0A5FF0748E6
:10749000074900680968084302D0A08B03F038F858
:1074A0000020E077012010BD002010BDF403002073
:1074B000D803002070B5064600240A4D0CE01820C1
:1074C000A968604340184088B04204D11820444362
:1074D0006018001D70BD641C04F0D0FEA042EEDCFC
:1074E000002070BD2002002010B50D2209A10D481A
:1074F0000BF07AFE002808D0FCF7A4F90446FAF74E
:10750000DBFEFAF7ADFE204610BD07A0FCF7C6FF74
:10751000FEE700004D4553485F4C49425F56312E0F
:1075200031000000FE4501006D65736820686561EB
:10753000642066696C65206572726F722E2E2E0A49
:107540000000000010B504490979002902D001218A
:1075500002F0AEF910BD0000A82F00200248007C08
:10756000C006C00F70470000A82F002070B5002291
:10757000164B114601264C00E418258E854209D190
:10758000C806C00E86404809800048331958B143E8
:1075900019500EE0002A03D1002D01D122463032CD
:1075A000491C0829E7D3002A03D01080187B3043F8
:1075B00018730648001F017CC906C90F05D0C079A1
:1075C000002802D107200BF06FFA70BDAC2F00200D
:1075D000F3B585B0002630E005987100405A0028C8
:1075E0002AD01E4C0390204664300290001D01906A
:1075F000001D00252434009068000719398E039877
:10760000814216D129460298FEF7B7FE002805D11F
:1076100029460198FEF7B1FE002808D029460098B7
:10762000FEF708FE207B01210843207301E00020C3
:1076300038866D1C082DDFD3761C06988642CBD386
:1076400006482030017CC906C90F05D0C079002842
:1076500002D108200BF028FA07B0F0BD882F0020D7
:1076600010B50448C178012903D103F087F809F067
:1076700095FD10BDAC2F002010B50548007CC0065C
:1076800002D40520C04310BD09F088FD10BD0000E4
:10769000A82F002003480079082801D00020704757
:1076A00001207047A82F002010B50448406800282A
:1076B00003D00021024800F069F810BDFC01002051
:1076C00095CB000030B589B015461E221C460092AD
:1076D00001AB08A202F0BEFC002C06D022462946CF
:1076E00001A80AF0C9FC09B030BD01A80AF09AFA55
:1076F000F9E700006461746100000000034900794B
:1077000049680001C968081870470000FC010020A2
:1077100030B5002203790BE02C24856854432C5BA0
:107720008C4203D12C214A43A81830BD521CD2B23E
:107730009342F1D8002030BD002253001B185B8A11
:107740008B4203D15100081812307047521C062A90
:10775000F3D300207047F0B50023477911E02C26C1
:107760001D467543C468AE1CA65B8E4207D1645BA0
:10777000944204D1C0682C214B43C018F0BD5B1C5F
:10778000DBB29F42EBD80020F0BD0000F3B581B022
:107790000746002429E0C0682101451800260CE0B6
:1077A0002C20A9687043081802990091002C09D078
:1077B000002300222946B847761C2879B042EFDC26
:1077C00000260EE00123F4E72C20E9687043081836
:1077D00002990091002C0ED0002301222946B847BF
:1077E000761C6879B042EFDC641C0448406881680C
:1077F000A142D0D8FEBD0123EFE70000FC0100202C
:1078000010B50D4B5B68002B11D09C688C420ED9D3
:10781000DB68090159182C235343002804D0487908
:10782000904204D9C86805E00879904201D8002048
:1078300010BD8868C01810BDFC0100200079002828
:1078400001D0002070470120704770B50446806861
:107850000D46002801D0A06802E020460C30A06050
:10786000002120602046A180FF2D03D8E9B206F058
:107870007BF970BD01200004854204D2A9B22046E4
:1078800006F040F970BD2802010E204606F06CF9A2
:10789000A9B2204606F050F970BD00008268002AA7
:1078A00008D0907A810907D0012909D0022913D084
:1078B000032915D0002070478006800E642103E064
:1078C0008006800E7D21C90048435189CA04F2D543
:1078D0000905090F084170478006800E0249F3E749
:1078E0008006800E0149EFE710270000C02709003D
:1078F000F0B506463A48EBB0806909900BA80890AD
:107900000A900020B46802900390049005900790BC
:1079100002A806903046FFF7F1FE0088694688838A
:1079200000F082FE69468877002C54D0A088172783
:10793000FF43002852D0E0880005000DFEF7F0FB61
:1079400005004BD06089400B02D0E01B04F088FAA0
:10795000A0886A469081207A9074E188507C8904DE
:107960004006C90F400EC901084350742888108191
:1079700069885181D17FE2884908D2044900D20F39
:1079800011436A46D17701F06DFC0590002825D09F
:107990006089617AC004C00C490308436081206992
:1079A0008288016808A806F0D4F80D48009008AB5A
:1079B000012205A90196304605F08CFF050007D08D
:1079C00060893146C004C00C6081284608F0E0F8A8
:1079D00028466BB0F0BD1220C043FAE73846F8E7FE
:1079E000D4450100F0B50E4685B0074603A93046E0
:1079F00003F046FA002854DB00254DE0C068290159
:107A000044187889002807D00121C903884203D28D
:107A1000218881423FD113E0032189033F22411A8B
:107A2000120291420CD90121C9030122411A920389
:107A3000914205D3002D2ED1FFF75AFA00282AD003
:107A40000120039A0004824202D22179A06801E059
:107A50006179E06802AB01930092FB887A8902F0B9
:107A6000C1FB040017D0B0886168884213D3304648
:107A700006F081F869460880B0884880A3683246DD
:107A8000391D0298984769460988B06840186946C8
:107A900030604888B0806D1C034840688168A94206
:107AA000ACD805B0F0BD0000FC010020FFB50C46CD
:107AB000488885B017490E9E1D461746884208D053
:107AC000491E884205D0FEF72BFB00281ED00088F7
:107AD00020800020029003900490208801F0C2FBD7
:107AE000029003940598FFF709FE00886946088212
:107AF00000F09AFD6946887400953B46002202A971
:107B00000196059805F0E6FE09B0F0BD0020C043DF
:107B1000FAE70000FEFF000038B5044600F0BAF9AD
:107B20000146A07F002802D02046893001E020468F
:107B300030302834044A0094136802462132493018
:107B4000FEF754FC38BD0000882F0020FFB581B03F
:107B50000E4605F041FF204C81006068F9F7F7F808
:107B600000251E482570846AF007C00FA077022701
:107B70000399002807D02046893000F06FFA0028CA
:107B800007D1E77709E02046303000F067FA002897
:107B900003D00A20C04305B0F0BD0198A08310486F
:107BA0000068002802D02020055501E0202007555C
:107BB0000A49049880390860B007C20F07480221BB
:107BC0007838FEF741FB0548203805742046FFF75A
:107BD000A3FF0020DFE7000048020020083000205B
:107BE0001C040020F8B5074680881D4614460E4642
:107BF000122806D3002E07D1384601F017FE0028C0
:107C000002D00020C043F8BD207DCF210840B1073D
:107C1000890E08432075B9882B462246386806F03D
:107C2000FBF800282FD00020C043E0802968607B4B
:107C30004978C0094906C001490E084360734006EF
:107C400000D0FF20A073207DF721084029684978E3
:107C5000C909C900084320752868801C0BF028F862
:107C600020612868C01D0BF017F81022D2436081F4
:107C7000032E01D0002804D0FF210902401AFB285E
:107C800004D81046F8BD0720C043F8BDFDF79CFAA4
:107C9000002802D1204605F07DFE0020F8BD00003E
:107CA000F0B50C4609680746487889B016460006C4
:107CB00001D5082500E0042511480068002807D0F8
:107CC000002B04A802D002F07EF801E002F064F874
:107CD000324604A8216802F05FF8A088401B83B2F6
:107CE000A38022680020D11D009001AC23C404A908
:107CF0003846D21DDB1FFEF763FC09B0F0BD000063
:107D00001C040020F7B5044640680F4640884349EC
:107D100084B0884201D1012600E000260025ED4311
:107D2000002E04D0384605F09AFF082804D33846C0
:107D300005F095FF042802D2284607B0F0BD606820
:107D40008188384605F064FF2189384605F060FFD8
:107D50000321384605F054FF054600F06DFC010C88
:107D60002970010A6970A8706068002E817A01D0BC
:107D700080200143384605F059FF29480068002853
:107D80000CD0E07AC00709D003A8009002AB01AA8A
:107D90000021206802F07EFB002816D0E07A5922EC
:107DA00040084000E07220686B46817F51430A46DC
:107DB0004032825C41311A71401802902068592289
:107DC000817F5143693140180390164802210546CE
:107DD000FEF7A6FA134C083C2178081AC007010EDA
:107DE000684600790143384605F020FF0221284605
:107DF000FEF796FA2168069B0A1A3946029800F0A7
:107E000013F8002899D102212846FEF789FA216843
:107E1000039A091A386800F075F98EE7FFFF000031
:107E2000F4030020902F0020F0B50C4609680746A7
:107E3000487889B01646000601D5082500E00425DB
:107E400013480068002807D0002B04A802D001F0D6
:107E5000BAFF01E001F0A0FF324604A8216801F05A
:107E60009BFF22680020D11D01AB009023C3A38893
:107E700004A93846D21DDB1FFEF7CCFC060003D157
:107E80002946204605F02DFE304609B0F0BD000021
:107E90001C04002010B50024002803D0807F002897
:107EA00000D0012402210448FEF73AFA002801D04C
:107EB00002200443204610BD902F002070B50024FE
:107EC000184E194D06E02046E4225043A96A1C30A2
:107ED0000E52641C0AF06CFEA042F4DC002404E0A4
:107EE00028206043696A641C0E52FDF703FCA0421F
:107EF000F6DC002406E0204616225043296A801C46
:107F00000E52641C07F094FBA042F4DC06480749BB
:107F10000C3803F0AFFF04480549743803F0FCFF48
:107F200070BD0000FFFF00000830002015BD0000FC
:107F3000DD800000FEB504460E4645480221019052
:107F4000FEF7EEF9424F0146083F384660303D46A5
:107F5000009080353868002904D0A04221D1002E3D
:107F60001FD11AE0A0421CD0A0421AD801462A31E3
:107F7000A14216D3401CA04203D3A0420BD1002E35
:107F80000BD108F051FAC100E86AF8F7E0FE0020D2
:107F90003C60786013E0002E03D00098007C6028DD
:107FA00001D20020FEBD002E09D101F0EBFA00281D
:107FB00005D00198202102680A430260F1E73246A9
:107FC00002210198FEF740F900200099002E087464
:107FD00017D03C600026044601270DE0E86AF10056
:107FE00040180188002906D08178002902D0046059
:107FF000446000E08770761C08F016FAB042EDDCB1
:1080000000E0786003F080FE01466020F8F724FE6F
:10801000104941430E486C3003F040FF00240E4EDF
:108020000CE02046E42250430246A96A1C328A5AD8
:10803000B24202D00818FFF76FFD641C0AF0B8FDC9
:10804000A042EEDC002001F00DF80120FEBD000092
:10805000902F002080EE3600FFFF00007FB5044621
:108060000D46002002902146204639311130019101
:10807000009003AB012202A92846FFF73FF9002830
:1080800020D1102229462046F8F746FE6846007B9C
:108090002074214621312846FFF786F9002811D1A6
:1080A00009480068002807D022462846293207A13F
:1080B000FFF7EAF8002805D122462846493205A1F3
:1080C000FFF7E2F804B070BD1C0400206E6B696B12
:1080D000000000006E6B626B0000000070B5084D80
:1080E00008E02046012200210C3000F033F8204641
:1080F00005F0E7FD284605F0BAFD0400F1D170BD9A
:10810000A02F002030B589B00446002015460A464D
:10811000009001900290039001A9104601310AF0ED
:10812000EDFD02A80722E11D0130F8F7F5FD04AAD4
:1081300069462846FDF76AFE002809D104AA2118DD
:108140004B78155C401C6B404B700628F7DB002019
:1081500009B030BDF0B58BB015460E4607460BF0A2
:1081600061FCB9881630884277D30BF05BFC16307F
:108170000BF038F9040070D00020099008940A90A0
:108180000BF050FC69461630C884182168460A94E2
:10819000F8F7DDFD69460E73FFF790F8002859D017
:1081A00008AB6A4629463846FFF71CFD002851D126
:1081B00008A805F0E0FC69468883888CC8832848B5
:1081C0000068002805D0022D03D10989384600F047
:1081D0006BFC68464089FEF78BFE002805D1684697
:1081E0004089FEF711FE002804D06846007D40213A
:1081F000084303E06846007DBF21084069460875D2
:1082000008A801F077F8801D0BD16846154AC08A8E
:10821000516880000B58DB0BDB030B506846C08AAB
:10822000107068464089002809D00121C90388429E
:1082300005D26846007D41060CD4C0090AD16946C2
:10824000898B0A98401869460890C88B888408A8CA
:1082500000F00AF820460BF0D9F80BB0F0BD000092
:108260001C04002048020020F8B50646087D0C4694
:108270008106607B8A0F4006400E012A04D0012847
:108280007DD9880F03D00AE0012878D0F9E700F003
:10829000BFFD012803D0FEF747FF01286FD1207DE5
:1082A0008006800F022803D1FEF73EFF012866D129
:1082B000207D8006800F44D000F0B6F901460022F0
:1082C0000120FDF7C5FD050059D0207D8006800FF7
:1082D00001280BD031684878C009C0014870627B22
:1082E00031685206520E521E104348702846B2881A
:1082F0000C303168009005F02CFC216859208A7FF1
:10830000424310461346413069330818CF184032B3
:108310008B5C217D490707D5EA681178C909C90135
:108320001170EA6819431170294E227D3168D20715
:10833000D20F8A1A00230099FFF776FD002842D158
:1083400002E000F075FDB9E7217D3068C907C90F6B
:10835000411A3A46E868FFF7D5FE002833D11D4898
:108360000068002817D0FEF7DFFE012804D0207D2A
:108370008006800F01280ED16189009800E025E079
:1083800000F08CFC002806D06089002803D0012171
:10839000C903884217D3207D8006800F04D00128AE
:1083A0000CD002280FD102E000F032FD01E0FEF710
:1083B000BBFE012800D00020002804D00022114676
:1083C0002846FDF7ABFD284605F07BFCF8BD000014
:1083D000882F00201C040020F8B50146064689318C
:1083E00059220C463030F8F797FC59212046F8F70F
:1083F000AEFC304600F09AFE0025114F1BE028200D
:10840000796A68430C182088B18B884212D1207990
:1084100000280FD0214616311122601D0091F8F777
:108420007BFC11210098F8F792FC00202071204677
:1084300000F0E6FD6D1CFDF75DF9A842DFDCF8BD3C
:108440000830002010B504460B480068002806D00C
:10845000002C01D0A08B00E00848FEF737FE08484A
:108460000068002806D0FEF75FFE012802D12046F2
:1084700000F028FB10BD0000D8030020FFFF000023
:108480001C040020FFB50446406881B0807A1F4676
:108490001546FF2803D1FEF785FC616888720299B2
:1084A00000220C3120460091FFF72CFC060057D12A
:1084B0002E480068002821D06068817A01291DD0EB
:1084C0008188009800F0EAFB002817D06068808857
:1084D000002813D00121C90388420FD2002D3FD0BC
:1084E0002B68002B03D000213A46084698476A685B
:1084F000002A35D039460020904731E060688088F6
:10850000FEF7F6FC002805D160688088FEF77CFC49
:1085100000281CD0002D06D02B68002B03D0002192
:108520003A4608469847029805F0D7FA014610489F
:1085300005F0B4FB002D05D06A68002A02D0394648
:10854000002090470A480C3803F0ECFC08E0606813
:10855000807A012804D03A4629460298FDF7DEFCCD
:10856000029805F0AEFB304605B0F0BD1C040020BB
:10857000A02F0020F8B5FDF7B5FF012811D0FDF7B9
:108580007DFF244C2068002805D0FEF7CDFD022891
:1085900001D02068804720480068002804D0804728
:1085A00004E0FDF77BFFECE700F0EAFC1B48006805
:1085B000002800D080471A4DA86A878B00F046F942
:1085C0000090284680380668A86A0221847F2846E1
:1085D0007838FDF7A5FE002801D002200443334679
:1085E00022463846009900F037F900240D4E0BE082
:1085F0001620296A604309184888B04203D00A7DD2
:10860000098800F095F9641C07F012F8A042EFDC2D
:10861000F8BD00001C040020F4030020D803002053
:1086200008300020FFFF000002484068002800D00A
:10863000007970472002002070B5114D6C68601CF5
:10864000686000F05FFD284602210830FDF768FEF3
:10865000002813D10B49686888420FD9002000F028
:1086600001FE00280AD00120FDF74EFF28680121F5
:10867000401CFFF75FFC0020FFF7E4FE204670BDC2
:10868000882F002000E5B000F7B582B00F46050046
:1086900007D00022FCF7F4FB002827DB0024174E4C
:1086A00020E0012500240DE06A4639462846FCF703
:1086B000E7FB00280BD0801D01D0002507E06846AD
:1086C0000588641C06F0B4FF801CA042ECDC002D81
:1086D0000CD0E3E71620316A6043081801880029AE
:1086E00007D0641C06F0A4FFA042F3DC002005B014
:1086F000F0BD0580077504994180F8E70830002037
:1087000070B50024084D0AE01620296A6043081855
:108710000188002902D0012100F008F8641C06F04D
:1087200087FFA042F0DC70BD0830002010B5044681
:10873000002901D0FEF793FA002020801021201D8F
:10874000F8F705FB10BD000070B5054600240A4E81
:108750000BE01620316A604308180188A94203D84B
:10876000027D8918A94205D8641C06F061FFA04269
:10877000EFDC002070BD0000083000207CB504460E
:1087800000F07CFF002803D1FEF798FD00283CD1C3
:10879000A088062839D3204605F007FA0090204625
:1087A00005F026FA69460871204605F021FA694667
:1087B000487102211548FDF7C5FD002804D0144872
:1087C0000099C06A884220D16E4671792546A088FA
:1087D0008907104CC90E09194979884215D302211D
:1087E0000A48FDF7AFFD002807D1684640798007A9
:1087F000C00E00190079002807D168464079294643
:108800008007C00E2258304690477CBD983000202B
:1088100098310020604B010010B50A494968814237
:1088200002D00420C04310BD07F006FD04460648F0
:108830008068426B002A02D0002102209047204627
:1088400010BD0000983000209802002001480088E8
:1088500070470000FC01002030B4054CA468A46BF4
:10886000002C02D0A44630BC604730BC70470000EA
:10887000980200207FB5064C6568E468029200917A
:108880000195039402226946FDF788FB04B070BD90
:10889000084F010008B500920A4602A32021FEF706
:1088A00017FD08BD7072636B000000001FB50B461A
:1088B00000210091019102910391014691226846A5
:1088C000FDF791FB04B010BD7FB50024082502938D
:1088D0000094039501941923FDF772FE04B070BD56
:1088E0007FB5002408250293009403950194192371
:1088F000FDF790FF04B070BD01488068704700002C
:108900009802002010B5040008D00649064803F07C
:10891000B1FA0648846007F08FFC10BD0020C04308
:1089200010BD0000C1EE00001032002098020020AF
:10893000034B9B68DB6B002B00D01847704700008F
:108940009802002070B586B0164601AD0A4607A30E
:1089500020210095FEF7BCFC040004D10D22E91C87
:108960003046F8F7D9F9204606B070BD7072736EC4
:108970000000000008B50092034A0B4652890088A7
:10898000024900F049FE08BD340300203C320020BB
:1089900003488068006C002800D000477047000042
:1089A0009802002010B50249024803F063FA10BD96
:1089B0005DF70000F031002010B58AB0002404906B
:1089C000102000940194029403940892069105905B
:1089D00007900990032204A96846FDF7DFFA0AB060
:1089E00010BD000010B5034800214089F8F78AFF48
:1089F00010BD0000F402002010B50249F8F7A8FFEE
:108A0000002010BD3C320020FFB5254D0121A86893
:108A100081B00143A9600835C0071646C00F03D0D6
:108A20000120C04305B0F0BD1E4F3868002804D0B7
:108A3000002000F0F9F8002814D000243146049BEF
:108A4000019A0298FFF782F806000DD028684008C6
:108A5000400028603868002802D0002C00D08047F1
:108A60003046DFE70124E9E70D49002048600A9815
:108A7000FEF742F90A48102290300B99F8F74CF9AA
:108A800000F01BFB06488030806A00F04FFB00209E
:108A900000F0E8FA012000F0A7FA0020C2E7000089
:108AA000882F00201804002010B52838027A012AE7
:108AB00004D0022A01D101F05DFB10BD01F039FBA9
:108AC00010BD000070B506000DD0124D00242046E8
:108AD000542148432858002802D0314609F0C8FFE5
:108AE000641CF4D070BD00240B4D0C4E0CE02046ED
:108AF000E42250430246A96A1C328A5AB24202D08A
:108B00000818FFF7DFFF641C0AF052F8A042EEDC01
:108B100070BD00000433002008300020FFFF00007B
:108B2000F8B518490878002804D0022805D0032099
:108B3000C043F8BD0120C043F8BD0025124F2E46AA
:108B400054206843C419206800280AD0207A0128DC
:108B500001D0022805D12672206813210088FEF773
:108B6000EDFA2068008800F00FF96D1CE8D0FEF7E0
:108B7000E9FA0448067004481C3803F071F9002033
:108B8000F8BD000010040020043300200348002139
:108B90008185016B8162283070470000043300201A
:108BA00070B5FEF78BFB002803D000240C4D0D4E52
:108BB00010E00520C04370BDE420A96A6043081896
:108BC000818BB14205D02021095C022901D000F03F
:108BD0000BF8641C09F0ECFFA042EDDC002070BD36
:108BE00008300020FFFF000010B5044601212030AE
:108BF000017003F08AF960620548E421806A201A56
:108C0000F8F740F803498861034803F08BF910BD79
:108C10000830002010040020E8320020002120222B
:108C20001154416270470000F1B51A4E30780028A7
:108C300004D0012805D00320C043F8BD0120C04363
:108C4000F8BD00252F465420134968434418206876
:108C5000002814D0217A032911D10099002904D0C9
:108C600000881321FEF76AFA05E0B168002901D0F7
:108C7000FFF7D2FD277220680088FFF7BDFE6D1C4C
:108C8000E1D0FFF7AFFE044837701C3803F0E8F876
:108C90000020F8BD1004002004330020F3B50020AC
:108CA0008DB00E4607460B9054203946414322486A
:108CB0000C182248806D019003A800900290206853
:108CC000002833D0207A022805D01D4A96421CD0B5
:108CD00001280DD02AE0002505E060686900415AAE
:108CE000B14223D06D1C06F0FDFFA842F5DC0CE07C
:108CF000002505E060686900415AB14205D06D1C4D
:108D000006F0F0FFA842F5DC10E00121684604F00F
:108D100094FF0D9882880168684604F01AFF6A463D
:108D20000021206800F00EF801200B907F1CBBD0C2
:108D30000B980FB0F0BD0000043300200850010074
:108D4000FFFF000070B515460C46064601F028FAF4
:108D500000280BD0007A03280BD00020032C0AD067
:108D60000021884209D00020C04370BD0420C043C8
:108D700070BD0120F2E70121F3E72A462146304683
:108D800006F04AFE70BD000010B50249F8F7E0FD9C
:108D9000002010BD4C32002010B5002808D0202142
:108DA000054800F00BF8044908462030F7F70DFF9E
:108DB0000148203010BD00005C320020F8B50E469E
:108DC000050004D0002E02D00024B7080FE00520D3
:108DD000C043F8BD0AF0A6FB0146A000401901708F
:108DE0000A0A4270090C8170090AC170641CA7420A
:108DF000F0D8B00709D00AF095FB0090B207A000A8
:108E0000920F40196946F7F787FF0020F8BD000070
:108E100003484068002801D040797047022070471D
:108E20002002002001490120087070472002002024
:108E300002484068002800D0807970472002002056
:108E400010B500211E48FDF759FA002836D01C48FD
:108E500000240838046044608460743003F000F833
:108E6000FDF702FE00F036F800F0A2FB154800689E
:108E7000002802D00120FEF765FB13480068002897
:108E800002D01248FEF784F8FFF74AFEFDF7DCFE39
:108E90000E210F48FDF732FA002801D0FFF730FC11
:108EA00007487830046144618461C46100F063F86C
:108EB000FDF7E4FAFDF740FFFFF76AFD10BD000083
:108EC000902F0020F4030020D8030020FFFF0000B3
:108ED0009830002070B50024074D06E0A968A00175
:108EE0004018012107F0A6FE641C07F019FBA04200
:108EF000F4DCFDF7CDFE70BDAC0200207FB5054669
:108F0000002000900190029003900C462846F7F74D
:108F100029FF0246234629466846FDF764F8C0B299
:108F200004B070BD70B51D460E46032A18D1A8883E
:108F3000012815D9184604F05BFE040010D0A8885B
:108F4000A0420DD3284604F053FE641EAC802928AD
:108F50000DD02A2805D02B2802D12846FDF7F0FA9B
:108F600070BD002231462846FFF7F4F870BD284650
:108F7000FFF704FC70BD10B5FCF765FF10BD0000E5
:108F80001CB5054948688968019100900349684605
:108F9000FCF752FF00201CBDF4450100258F0000A6
:108FA00008B500920A4602A32021FEF791F908BDF8
:108FB0007072736B00000000014908807047000068
:108FC000AC02002010B50549054802F053FF09F036
:108FD0008FF8044809F024F810BD000001240100B6
:108FE000583000208002002001B5FFF7C3FA69461F
:108FF0000248FEF7CBFB002008BD000081D900002D
:1090000038B5044641886A46012003F023F801225E
:109010009203002801D0018810E00098002813D0A6
:10902000018801231B03194301806388090B1B0579
:1090300009031B0D194301235B031943914301806D
:10904000072007F09FFA38BD204609F04FF938BDD8
:1090500010B50C2007F096FA10BD10B50B2007F0E4
:1090600091FA10BD10B50446092007F08BFA002CC8
:1090700002D10A2007F086FA10BD10B50F2007F0C4
:1090800081FA10BD10B5C18801221143C1800D20A5
:1090900007F078FA10BD10B5C18804221143C180D1
:1090A0000D2007F06FFA10BD10B5C18802221143E0
:1090B000C1800D2007F066FA10BD10B5082007F03A
:1090C00061FA10BD38B504460088694605F088FA93
:1090D000002802D00021817004E00098002805D00B
:1090E000218801800E2007F04DFA38BD204609F096
:1090F00063F938BD10B50121C170062007F042FAAE
:1091000010BD000010B508F045FD002808D008F09B
:1091100041FD014604484068F7F79EFD002902D151
:109120000A2007F02FFA10BD882F002038B504461A
:10913000818B6A46002002F08DFF012292030028F5
:1091400001D0018810E00098002813D00188012385
:109150001B0319430180A38B090B1B0509031B0D7E
:10916000194301235B03994391430180072007F0D2
:1091700009FA38BD204609F0E5F838BDF8B50546CE
:109180001A480F464068002809D0018EAA8B9142E8
:1091900005D101F0D1FF002F01D0FFF75EFF0024C1
:1091A000134E0BE02820716A604308180188AA8BCF
:1091B000914202D13946FCF799FF641CFCF79AFAF8
:1091C000A042EFDC0B480068002802D0A88BFDF716
:1091D000DFFE002F02D02846FDF75FFDE421284680
:1091E000F7F7B5FD0020C043A883F8BD200200209A
:1091F00008300020D8030020FFB581B01E460025AE
:10920000164F25E0E420B96A68430C18A18B144876
:1092100081421CD0009601A90EC920463030FCF7CF
:10922000D6FA002801D000210CE0E07F00280ED003
:10923000009601A90EC920468930FCF7C8FA00281B
:1092400005D001210A980170204605B0F0BD6D1CC3
:1092500009F0AEFCA842D5DC0020F6E7083000207B
:10926000FFFF000070B506460D480E4D864201D145
:10927000A86A70BD00240DE02146E4225143A86A8B
:109280001C31405AB04204D1E421A86A4C43001971
:1092900070BD641C09F08CFCA042EDDC002070BDA8
:1092A000FFFF00000830002070B500240E4D08E0DC
:1092B00048206968604340180C49283002F0DAFD04
:1092C000641C0AF0F7FAA042F2DC002407E0A96867
:1092D000A00140180649243002F0CCFD641C07F0C0
:1092E0001FF9A042F3DC70BDAC020020310B01007D
:1092F000AD0A0100F0B50546002089B0C0430690D4
:109300000790002668460674067353480C460068AA
:1093100000280BD020686189808BFDF791FE217DAC
:10932000C0014906490E0143217503E0207D400636
:10933000400E20750921284604F021FC47480068AA
:10934000002812D0FEF70AF900280ED0207D8006F2
:10935000800F0AD1FEF79EF9002802D0207D400739
:1093600003D40520C04309B0F0BD284604F003FC37
:1093700069468882A888C88228680078C0090DD00C
:10938000207D410601D4C009EDD003A8009006ABB2
:1093900004AA2146284606F0B3FC23E00120087306
:1093A00006A80090A8880027FF4300281BD00021B2
:1093B000204602F0B3FB002815D1284604F018FC23
:1093C0000146207D020705D52A462046009B00F075
:1093D00011FD07E0420601D4C00925D02A462046E7
:1093E00007F0E0F907461D48006800280AD0FEF79C
:1093F000B5F8002806D0FEF74DF9002802D0204627
:10940000FEF72EF96946898AA868401869462860DF
:10941000C88AA88010480068002819D0207DC0099B
:1094200016D0002F02D013E03746DCE706990798E4
:10943000C943C04301436846007B0BD006AB694675
:1094400061C12146064C6846027C24680020A04782
:10945000384688E70023F2E7D8030020F403002011
:10946000E0030020FFB5044688880025ED4387B05F
:109470000E4600280CD0FF218131884203D91420E8
:10948000C0430BB0F0BD304604F0E9FB042801D224
:109490002846F6E70AF0C6FAB188001D884204D2D1
:1094A00060688022417A1143417205A8009060688B
:1094B00006AB828841882068FCF74EFE0028E0D188
:1094C000E07A6946097D8007800F89000843E072D1
:1094D0006068407AC00904D0304604F0C0FB082818
:1094E00003D2E07AFD21084002E0E07A022108433D
:1094F000E072606801218088C9030122411A920349
:10950000914203D2FDF7D6FF054600E00025022177
:109510001A48FCF720FF01461848278908380268D6
:10952000511A4268606883880491019700950293FC
:10953000039240881249884202D0491E884201D1D4
:10954000012100E00021E07A33468007C20F06982F
:10955000FCF782FD002894D16068099A407AC1091D
:109560000020009000290A9B3146204602D008F0D6
:1095700011F986E708F070FA83E70000902F0020C9
:10958000FEFF000070B50024084D09E0482069681E
:1095900060434018807E002801D0012070BD641C0B
:1095A0000AF088F9A042F1DC002070BDAC02002076
:1095B00070B50024064D06E04820696860434018F5
:1095C00007F00EFC641C0AF075F9A042F4DC70BDD3
:1095D000AC02002030B589B00C46054669460CA0A7
:1095E000FFF78CFC002811D104AB102229466846F5
:1095F000FCF7F9FC002809D16846C08B012140BA6C
:109600008004800CC90340182080002009B030BDC0
:109610007674616400000000FFB583B015466846AB
:109620000C9AC28000201E460F460346009012246A
:109630001B210398F8F766FA029000281BD06846B1
:10964000C28831460298F7F767FB39460398F8F766
:10965000BCF9C00708D068468580002201A903989C
:10966000F8F71AFA040003D01B2101A8F8F790FAC2
:10967000204607B0F0BD0620C043FAE710B502212E
:109680000248FCF75FFEC0B210BD00009830002019
:1096900010B56421014802F001FC10BDF03100203A
:1096A00010B5CA7850070AD4084692061430002A2A
:1096B00001DA496801E07D21C90002F0EFFB10BD2D
:1096C00010B5D078F7210840D0701446800606D433
:1096D000606B002803D004F0F4FA0020606310BD32
:1096E00010B501790023DB4300290ED1826A002ADC
:1096F0000BD007494A6099001060818110460549E6
:10970000103002F0B7FB002010BD184610BD00005D
:10971000D0030020492C010070B5084D04466A684A
:10972000002A0AD090686060217000F05BF96868D8
:109730004168002901D02046884770BDD003002031
:1097400070B5084D04466A68002A0AD09068206007
:10975000217100F053F968680169002901D02046A1
:10976000884770BDEC030020F8B51E4617460D462D
:10977000FDF774F900280ED0094C002D0ED00723F8
:10978000621C3146384603F0A7F8002802D10120B8
:1097900020700020F8BD0720C043F8BD0020F7E787
:1097A0007802002070B505460179846A0020C04324
:1097B000002931D1002C2FD0617902292CD8E179F0
:1097C000012929D8A17A7F2926D84000134EA881E3
:1097D00031780220002900D16071114909680029FF
:1097E00000D160720F490968002900D1207220461B
:1097F0000D490C3002F03EFB0020C04320860021C2
:10980000A1632560E163746002F038FD18214143D3
:10981000B068F7F79CFA002070BD0000200200201D
:10982000D80300201C040020DDB2000070B50168E0
:1098300080880D18281F09F044FA04462846083885
:1098400009F03FFA44400C4800218A008258A242A5
:1098500001D1012070BD491C0829F6DB074A916837
:109860008B00C450491CC817400F4018C008C000E6
:10987000081A9060002070BD383000204802002097
:1098800000B587B0034605A21921684609F038FCE7
:10989000684608F0C7F907B000BD000062742F6D7C
:1098A0006573682F4170704B65792F257800000033
:1098B000F8B50E460546FDF7D1F8314C0746002DA8
:1098C00011D1207BC1060ED580060CD4E079032887
:1098D00009D202F047FE207BFB210840F107490F27
:1098E00008432073F8BDFFF7F5FA204614300090C6
:1098F00002F0B6FA2248A1885C30806A808B00F0C2
:10990000ABFD207B00258006002801DA258201E0DE
:10991000A08820821B484168002904D0207BC00613
:1099200001D502208847A580207BF7210840C0B2DE
:10993000FB21E5710840A5716573C0B2CF21E570C8
:10994000084025646564C0B201210843A564207302
:10995000F88D000701D5FDF739FC0948001F002EDE
:1099600002D000210171F8BD0321017102F084FED3
:109970007D21C9004143009802F090FAF8BD000033
:10998000AC2F0020F403002000B587B0034605A2E9
:109990001921684609F0B4FB684608F043F907B09E
:1099A00000BD000062742F6D6573682F4E65744BA7
:1099B00065792F257800000000B585B0034605A223
:1099C0001421684609F09CFB684608F02BF905B0A5
:1099D00000BD000062742F6D6573682F4E6F646563
:1099E0002F25780010B5044800214068C1608160CF
:1099F000103002F035FA10BDD003002010B5044835
:109A000000214068C1608160143002F029FA10BD65
:109A1000EC03002001B50E210C48FCF793FC002854
:109A200013D004210948FCF74FFC002804D101227F
:109A300069460220FCF748F805488068426B002A16
:109A400003D0684601780120904708BD9830002077
:109A50009802002070B50546806800280ED0416944
:109A600000290BD08088002808D02846FDF716FF73
:109A7000010003D0A868183002F010FA0748006807
:109A800000280AD0002460004019408A002801D034
:109A9000FDF76CFD641C062CF5D370BDF4030020AB
:109AA000F8B50C46064604F0DAF8217962794900E7
:109AB00092008918091D884202D21120C043F8BDC6
:109AC0006188304604F038F82179304604F04CF8CB
:109AD0006179304604F048F8002508E02C20A168A0
:109AE000684308180188304604F026F86D1C207978
:109AF000A842F3DC00250CE02C20E16868430F1835
:109B00007988304604F018F83988304604F014F8A3
:109B10006D1C6079A842EFDC0020F8BD00B5084953
:109B200085B049681046C968022906D1029004F040
:109B30005FF801466846FFF7EFFD05B000BD000085
:109B4000D003002070B506460024FDF7CFF8054687
:109B500020480078002800D001241F480068002811
:109B600001D0022004431D480068002801D00420D1
:109B700004431B480068002801D0082004432988BA
:109B8000304603F0D9FF6988304603F0D5FFA98835
:109B9000304603F0D1FF06F047FC0146304603F0A3
:109BA000CBFF2146304603F0C7FF00240BE0E868F6
:109BB00021014118002C0BD000223046FFF770FF26
:109BC000002804D1641CA868A042F0D8002070BD11
:109BD0000122F2E7200200201C040020D80300200C
:109BE000F403002070B51C4D0246002912D0012953
:109BF0000FD100F0E7FA04000BD06868002805D008
:109C00004268002A02D00021204690476068401E2A
:109C1000606070BD104900200831C3005B185B68AC
:109C2000002B11D0401CF8D0002000280FD002805B
:109C30004168491C416069680029EAD00A68002A25
:109C4000E7D00021904770BDC0004018EDE71046F6
:109C5000F7F706FE70BD0000E402002030B50023D7
:109C6000084D0CE0CC5C4440200124092C5D604090
:109C7000C0B204010009285C4440E0B25B1C93427E
:109C8000F0D330BD384B0100F8B51F46069E089D45
:109C9000079B0446002901D0022000E0012020702B
:109CA000D0071843611C09F029F8611D384609F0F6
:109CB00021F8E11D304609F01DF8214609312846FA
:109CC00009F01CF8F8BD0000F8B5002016460C4657
:109CD000034600901F2217491748FCF7F3F8051EAA
:109CE00027D0207AC007010E28460C30074603F023
:109CF0003BFFE079C10904D04106490E3846803166
:109D000002E04106490E384603F02EFF0322211DD2
:109D1000384603F01EFF2188384603F0F3FE6188C1
:109D2000384603F0EFFEB2883846316803F011FF81
:109D30002846F8BD49A30000BC320020FFB581B021
:109D40001E46154613490B9F0C9C0198FDF77DFD9F
:109D50003946019803F008FF3146019803F0ECFE04
:109D60000A99019803F0E8FE002D09D0042101981A
:109D700003F0B7FE04222146F6F7CEFF05B0F0BD92
:109D80000221019803F0ADFE2178017061784170E5
:109D9000F4E700003E80000010B5002303704C780B
:109DA00044708C788470CC78C4700C7904714C79D0
:109DB000447189798171C37101460372093110467A
:109DC00008F09CFF10BD10B50323037000234370FF
:109DD0008C788470CC78C4700C7904714C7944719F
:109DE00089798171C371014603720931104608F007
:109DF00085FF10BDFFB581B004466846017A15465F
:109E00004E06760E07D00A2E09D0207D400627D4B4
:109E1000002005B0F0BD204609F046FCF9E7A8880F
:109E2000032802D20020C043F3E71A496089098859
:109E30000027884212D1104603F0DAFE4606760E5D
:109E4000284603F0A4FE0346607B61894006400E6D
:109E5000301A401CC2B22089FDF786F93846D8E78F
:109E60000D4F3868002803D0FDF778FB002808D094
:109E70000A480368002B09D02A46214630469847F5
:109E8000C7E72A46214630463B68F8E70720C0432B
:109E9000BFE70000AC020020E4030020FC03002028
:109EA00030B505460D4887B0006E029004A80C46F8
:109EB000019003900A4901A8FDF7C7FCFCF772FF67
:109EC000014601A803F050FE00200346009001AABD
:109ED00021462846FDF7EAFD07B030BD40460100A7
:109EE0000E80000030B50446154887B0C06E029061
:109EF00004A801900390A06A0D4600280BD01168B9
:109F000009787F2919D8012917D0827A8A4202D08C
:109F10008172FFF79DF80B4901A8FDF796FCFCF74D
:109F200041FF014601A803F01FFE002003460090F8
:109F300001AA29462046FDF7B9FD07B030BD000053
:109F4000404601000E80000070B506461448E4B09B
:109F5000C068029004A8019003900D46104603F0DB
:109F600047FE040000D0002468464089002814D031
:109F7000022101A8FDF769FC214601A803F0F4FDC8
:109F800001A8FFF7DFFD002807DB00200346009053
:109F900001AA29463046FDF789FD64B070BD000076
:109FA0004046010002484068002800D1014870473F
:109FB0001002002008060400014880687047000075
:109FC0001002002010B50C4602F0B0F9002804D0B1
:109FD00040882146F7F700FF10BD122010BD000099
:109FE00010B500F037F9002806D084680348012135
:109FF000007809F0E1F8201A10BD0000B802002036
:10A000003EB5044649061546490E104603F00EFEBD
:10A01000FEF71CFC6946088020884880C8798021AA
:10A020000843C009C0016946C871032101A8F6F7B9
:10A030008EFE02210648FCF797F905492A460839A1
:10A040000968081A029069462046FFF73DFE3EBDAA
:10A05000902F002038B50D0080881C46049943BA23
:10A06000009201D003A200E007A2204609F048F8C0
:10A0700038BD000062742F6D6573682F566E642FB3
:10A0800025782F257300000062742F6D6573682F8B
:10A090005369672F25782F2573000000F0B505461A
:10A0A000144887B08069019004A8009002900E4681
:10A0B000E889FFF7D7F807460121684603F0BDFDA0
:10A0C0000621684603F00DFD04463846FDF7E2FE22
:10A0D000207009480422006803A900BA0390601C9C
:10A0E000F6F71AFE66716A4602212846FFF788FFD6
:10A0F00007B0F0BD184F0100882F002010B50446AE
:10A10000383003F0CBFD206C401C206410BD10B52E
:10A110000446FFF7C3FF010002D02046FFF7EEFF21
:10A1200010BD10B5F7F796FA002801D00D20C043F6
:10A1300010BD70B50E00054617D0002405E0686814
:10A140006100405AB04210D0641C05F0CBFDA04223
:10A15000F5DC002405E068686100405A002805D05D
:10A16000641C05F0BFFDA042F5DC70BD68686100AD
:10A17000465270BD70B50D0006460AD000240AE0B4
:10A1800070686100405AA84204D1002071686200E2
:10A19000885270BD641C05F0A5FDA042F0DC70BDC6
:10A1A000074A002154234B43D358834203D1542000
:10A1B000414388187047491CF4D0002070470000C4
:10A1C00004330020064A0021CB00D35A834202D137
:10A1D000C80080187047491CF6D000207047000066
:10A1E000EC020020FFB581B0164600240A9F0B9DAB
:10A1F00029E02C20019960434018032189033F2264
:10A20000711A12022860914206D90121C903012264
:10A21000711A9203914204D23146FDF78DFA00285B
:10A220000FD02868049903F03BFB002809D0286868
:10A23000006A03E00168B9420AD00C308168002945
:10A24000F8D1641CE4B202988442D2D30020286082
:10A2500005B0F0BD02490868884200D1002070476F
:10A26000BC02002010B50A48044608F08CFD002806
:10A270000CD121680A6822606068884200D162605F
:10A280001839C889FCF794F903F01BFD10BD0000D4
:10A290005C2F002030B483680C46002B03D020468E
:10A2A00030BC11461847122030BCC0437047F0B490
:10A2B000046815460E46002C05D029463046A446B3
:10A2C000F0BC1A466047F0BC1220C0437047F0B49F
:10A2D000446815460E46002C05D029463046A44653
:10A2E000F0BC1A466047F0BC1220C0437047002003
:10A2F0007047C268002A01D0084610471220C043A8
:10A30000704700000249CA7A082AFCD008727047D8
:10A3100000340040F8B500240A4D2646BF27A000AF
:10A320004119FF310131C86C002809D0CE64816920
:10A330000A7A3A400A7203F0C4FC641C032CEED380
:10A34000F8BD000098300020034900220969D2437B
:10A3500040000A5240187047D8030020F8B5044660
:10A360001D484268002A05D0E078800602D5208882
:10A37000022190472046143001F072FD2188E089C7
:10A3800000F06AF8606B0027002802D003F099FC07
:10A3900067632046383005F02FFC002508E00C20CC
:10A3A000216B68430E18304605F026FC37726D1C91
:10A3B00000F04CFAA842F2DCE078C72108404008DF
:10A3C0004000FB2108402764E07000F045FA41009E
:10A3D0002069F6F7BCFCF8BDD803002010B50C4688
:10A3E0000846403461897D22D20051434C3001F04F
:10A3F00055FD60894000608110BD000010B50C4A19
:10A40000D3795B1C011E0B48D37108D00321017165
:10A41000107B4007C10F0020FFF74AFA10BD012151
:10A42000017110460449143001F038FD10BD0000E0
:10A43000AC2F0020A82F00204C04000010B50021F4
:10A44000C9430180002141808180C18042210830C0
:10A45000F6F77DFC10BD0000F8B50D460646002459
:10A460000B4F0EE04A20F968604340184188A9422A
:10A4700006D10188B14203D1FFF7E0FF0020F8BD0B
:10A48000641C00F0D7F9A042ECDC0720C043F8BD03
:10A4900048020020FFB581B01F460E460546002445
:10A4A0002DE01A494A20C968604340180188AA8BE8
:10A4B000914223D1002E02D04188B1421ED103998E
:10A4C000002906D0A97F4A01891809180A7A039938
:10A4D0000A70002F05D0A97F4A018918091809318F
:10A4E00039600A99002906D0A97F4A0189180818FD
:10A4F0000A9919300860002005B0F0BD641C00F016
:10A5000099F9A042CDDC0720C043F5E748020020BE
:10A5100070B5054600240C4E10E04A20F1686043F7
:10A5200040184188002908D00188A94205D1014678
:10A53000212229310830F6F7EFFB641C00F07AF98C
:10A54000A042EADC70BD000048020020F7B50446D6
:10A550001B486688006886B0002808D01948008D1E
:10A56000864204D1FEF772F90646658802E0FEF7DE
:10A570006DF9054601206946087202AF304609317F
:10A5800008F0B4FBF91C284608F0B0FBA088791D40
:10A5900008F0ACFBE088F91D08F0A8FB0798092239
:10A5A0004101401803191946184619310930019123
:10A5B000009002A908330898FCF7A0FE09B0F0BD8E
:10A5C000F4030020882F0020F8B500240746054634
:10A5D0000D4E893711E04A20F168604340184188E8
:10A5E000002909D00188AA8B914205D13A46012160
:10A5F000FFF7ACFF002805D1641C00F01BF9A04256
:10A60000E9DC0020F8BD000048020020FFB583B05F
:10A610001E460F46002539E023494A20C968684391
:10A62000441803982188808B81422ED13878217A72
:10A630004006400E88420ED105990C9800912246A2
:10A64000029021463B46193201960931039803F0E6
:10A650005FFB002820D00398C07F002815D03878F1
:10A6600041062920005D490E81420ED105990C98C2
:10A6700000912246029021463B463A3201962A3109
:10A68000039803F045FB002808D06D1C00F0D2F8B9
:10A69000A842C1DC0720C04307B0F0BD307D0221D5
:10A6A000084330750020F7E74802002010B506F097
:10A6B000BFFD10BD70B50546C078164680061BD597
:10A6C000E889884218D1002E08D00120C0038642B4
:10A6D00004D21146284601F013FA70BD002407E0A9
:10A6E00028696100405AB04201D1012070BD641C4C
:10A6F00000F0B2F8A042F3DC002070BDFFB581B0DD
:10A700001746002500F09CF80499884221D30024C4
:10A7100012E00198016B0C2060430E18002F08D046
:10A7200038880299C204D20C304601F035FA00286C
:10A730000CD1307A641C451900F088F8A042E8DC9E
:10A7400000F07EF8411B0498814202D9012005B037
:10A75000F0BD0020FBE7000010B5074A002909D131
:10A76000508210466421143001F098FB0249042005
:10A77000091F087110BD0000AC2F002010B5044661
:10A78000C078012807D1207B0421C841490740181F
:10A790001C21C84120732046143001F061FBFEF7F4
:10A7A000EAFB0349062008710020E071E07010BD4B
:10A7B000A82F002070B50546846A10680E460278FE
:10A7C000002A01D0012A1AD1002C14D0607A9042BC
:10A7D00011D00B480068002808D06272FEF738FCE0
:10A7E000607A002802D10748FCF7D2FBE08D4007D1
:10A7F00001D5FCF7EBFC3146284606F019FD70BD8B
:10A80000D8030020FFFF000000B50849084B496845
:10A8100085B0C9681046994205D103F0E9F90146AF
:10A820006846FEF779FF05B000BD0000D0030020A8
:10A830001180000001480068807E704710020020EF
:10A8400001480068C07E704710020020014800687F
:10A85000007E70471002002001480068407E70476B
:10A86000100200200148006970470000BC3400203D
:10A870000148406900687047BC34002010B5064AA2
:10A8800050690168491C0160D078FF2803D001217C
:10A89000890308F06DFE10BDBC34002070B50C00BB
:10A8A000054612D0A078052806D10620FAF776FBD7
:10A8B00060890021FFF796F9A078062805D1FAF7FC
:10A8C0006DFBA0880121FFF78DF9FAF763FB057492
:10A8D000FAF760FB0021143001F0E0FA70BD0000CF
:10A8E000074A002106234B43D35A834203D1062053
:10A8F000414388187047491C0329F3DB0020704747
:10A900002835002001460648406906E082685289E1
:10A910008A4201D1001D704700680028F6D17047B7
:10A92000D404002000B50F292ED00BDC0B00F9F762
:10A93000DDFD0F23232323232B252B232B232B2345
:10A940002B272300182917D008DC10390B00F9F742
:10A95000CDFD08131B1B1313131919131E290BD03C
:10A9600006DC192908D01B290ED01D2904D10BE0C3
:10A97000522909D0D22907D0002000BDC06800BDEF
:10A98000006800BD806800BD406800BD10B50C4681
:10A99000FFF7A6FF00280DD0002C00D020608078A3
:10A9A000FE2803D0FF2803D0162010BD172010BDAD
:10A9B000002010BD022010BD00229300CB5A83421C
:10A9C00002D1900040187047521C032AF5DB00208A
:10A9D00070470000FEB54C68089D66782778340201
:10A9E0000E783C43022E02D1054EB44201D0012024
:10A9F000FEBD022400950194F6F7C2FFFEBD0000E3
:10AA00000229000010B506F035FC10BD70B50546F2
:10AA1000846A10680E460378002B01D0012B1AD1EE
:10AA20000D480068002812D0FCF77EFB02280ED0EB
:10AA3000002C0CD01068217A0078814207D0207257
:10AA4000FEF706FBE08D800701D5FCF7BFFB314622
:10AA5000284606F00FFC70BD1C04002000B5084914
:10AA6000084B496885B0C9681046994205D103F082
:10AA7000BFF801466846FEF74FFE05B000BD000076
:10AA8000D00300201480000010B52449C96C0029AF
:10AA90001BD0017921484030007A814215D1042130
:10AAA0001F48FBF74FFC002801D104F0B1FB0E2139
:10AAB0001B48FBF747FC002808D00A211848FBF781
:10AAC000F2FB002802D006F09BFD10BD0B211448BC
:10AAD000FBF7E9FB0028F8D00C211148FBF7A0FB9D
:10AAE0000E210F48FBF72EFC002807D00D210C4843
:10AAF000FBF7D9FB002801D006F000FB0E21084827
:10AB0000FBF720FC0028E0D107210548FBF7CBFB31
:10AB10000028DAD006F0F4FB10BD000098310020C8
:10AB200098300020F8B5144D06462878B0421ED063
:10AB3000FAF70AFA04001AD02878FF2818D000255E
:10AB40000E48C16A20460C30074602F0E9FF314644
:10AB5000384603F009F80121384603F005F80022D1
:10AB600029462046FBF7DAF9204603F0AAF8F8BD9B
:10AB70002E70034DE4E70000980200209831002079
:10AB8000584B0100F8B50F46234C4179627C00799F
:10AB90008D08824202D1FFF7C5FFF8BD1E4E217C11
:10ABA000203E88420AD0521C904207D12074B06BDC
:10ABB00003F047F8FF20A074E07401E08842ECD174
:10ABC000E07CA8420BD3A8420DD1B16B17220979C2
:10ABD0005043081AC01CB988C0B2814203D0022079
:10ABE00004F0BCFEF8BD0120A17CA8400142009009
:10ABF000F8D0B06B17214D430068ED1E4019BA889C
:10AC00003968F6F789F8A07C00998843A074E9D1E7
:10AC100004F0CAFCF8BD0000B831002070B504464D
:10AC200040790D4682080CD0012A15D0022A07D19E
:10AC300002211C48FBF786FB002801D005F0EEFA44
:10AC400070BD0E211748FBF77DFB0028F8D129467F
:10AC5000204601F0DBFB70BD0E211248FBF772FBB2
:10AC60000028F8D0A8880028F5D10E210D48FBF760
:10AC700069FB0028EFD003210A48FBF725FB0028D9
:10AC8000E9D104210748FBF7B7FA04F0C1FA0648F6
:10AC90008068016B002901D00120884704F05EFC28
:10ACA00070BD00009830002098020020F3B5284CB9
:10ACB0000646617C0079FF2581B0814202D1FFF711
:10ACC00031FFFEBD029802F062FF214F203FB96BB9
:10ACD000888030792074029802F08AFF2075B96B61
:10ACE0008888002815D0C988884212D871798A08C6
:10ACF00001D014280DD98808E074A07CC1070CD0BD
:10AD0000C043C0B200F0AEF8401EC5B2E07CA8421D
:10AD100003D2022004F022FEFEBDA07C002800D059
:10AD20000546707981080120491C8840401E284052
:10AD3000A074029882880168B86B0068F5F7ECFF90
:10AD4000A07C40084000A074E6D104F02DFCFEBDBC
:10AD5000B8310020F7B50F4604465321102008F003
:10AD60005DFA06465321102008F058FA0546002ED9
:10AD700034D0002D2DD01022002108F02BFB3246BC
:10AD800029462046F7F70EF9040023D13078000653
:10AD900009D52946304601F077FA3A461349284644
:10ADA00009F02EFA03E03946304601F06DFA3878A2
:10ADB000000609D52946384601F066FA0B492846AF
:10ADC000029A09F01DFA05E03846029901F05CFA92
:10ADD00000E01324304608F077FA00E01324002D39
:10ADE00002D0284608F070FA2046FEBDB750010098
:10ADF00008464A1E1178491C117070470148806846
:10AE00007047000020020020002101231A468A40DA
:10AE1000024202D0491CC8B27047491CC9B220295D
:10AE2000F4D300207047F8B50546888814460428F6
:10AE30000F46084608D202F0C6FE014600202070E8
:10AE40002846FCF765FCF8BD02F0BDFE0646384614
:10AE500002F0B9FE02460120207031462846FCF778
:10AE60007AFCF8BD10B5034620200124411E22467D
:10AE70008A401A4202D10806000EF7D110BD000028
:10AE800070B5044600680D460178144A880906D05A
:10AE9000012804D0022808D003281DD10CE07F2906
:10AEA0001AD0204602F0A4FE13E0A088022813D393
:10AEB000204602F06CFE0CE0A08803280CD320464C
:10AEC00002F096FE00042860204602F07CFE29680D
:10AED00008432860002070BD104670BDFFFFFFFFD3
:10AEE00010B50A460B780F32DB0900D087230F30EC
:10AEF000147864005C400470401E8A4203D01378CA
:10AF0000DB09521EF4E710BD70B516480021C16080
:10AF10000161144C0120207505F0F4F9607505F00D
:10AF2000EBF9114D686005F0E7F9A8606868002842
:10AF300002D10E486860A86005F0E4F9064605F005
:10AF4000E9F9864202D12520687004E005F0DAF9BB
:10AF5000687005F0D7F960750548F9F7EFF82072C9
:10AF600070BD0000502F00202C020020D6BE898E1C
:10AF7000B103010010B50B46012806D0032813D0F9
:10AF8000112801D108F088FC10BD03F0E7F905F0A5
:10AF9000B9F9084C617D884201D1FFF763F90120BE
:10AFA000207508F02FFC10BD1146184600F066F819
:10AFB00010BD0000502F002010B50D4C2078002847
:10AFC00013D000202070207A012108F0E3F8207AC5
:10AFD000042108F055FB207A042108F0DBF8207AE0
:10AFE000102108F0C5FA002010BD0120C04310BD9B
:10AFF000502F002010B5094C2078002802D00120E5
:10B00000C04310BD01202070207A102108F0C2F842
:10B01000207A012108F0ACFA002010BD502F00204A
:10B020000149486070470000502F002070B5044669
:10B030001838C089FBF7BCFA0F4DE96805E0A1425A
:10B0400002D10120C04370BD09680029F7D102F088
:10B0500044FD09490020206008690C31002807D010
:10B0600004604C60287A022108F082FA002070BD4A
:10B070004C600C60F6E70000502F0020F0B51B4D2F
:10B080000C46297D85B0042927D10121297529780D
:10B09000002929D0012823D0022821D06078062851
:10B0A0001ED9801FC6B2002703A8E7570622A11C9D
:10B0B0000130F5F731FE002168460173083402942F
:10B0C000C68002980090684686806C68002C07D085
:10B0D00003460322394603A8A0472878002803D056
:10B0E00000F006F80420287505B0F0BD502F0020B0
:10B0F00010B5F8F795FC07480749407D48700846A9
:10B10000F8F78EF80023FF2219461846F8F7A8FB37
:10B1100010BD0000502F00202C02002010B5002888
:10B1200003D00449884201D1FF2010BDFFF79AFEE9
:10B1300010BD0000FFFF000010B50022028501468F
:10B14000428520314A730A730C3000F089FE10BD2D
:10B15000FFB50546294889B0806E029004A8019089
:10B1600003901E461746062101A8AC6AFCF76DFB4A
:10B17000394601A802F0F8FC002E08D0092101A8E8
:10B1800002F0AFFC09223146F5F7C6FD2BE0218D18
:10B1900001A802F0D1FC608D002806D0012806D05D
:10B1A0001749884205D1FF2108E0002106E001216E
:10B1B00004E0401EFFF756FE401CC1B201A802F099
:10B1C000D3FC26462036317B01A802F0CDFC717BF2
:10B1D00001A802F0C9FCE18D01A802F0ADFC218EAE
:10B1E00001A802F0A9FC00200090034601AA28460D
:10B1F0000A99FCF75BFC0DB0F0BD00004047010070
:10B20000FFFF0000FEB51E4617460D46FBF7A4FFE4
:10B21000040022D028460025002821D008236A46B1
:10B220003146384601F058FB002818D16946088895
:10B23000A08320468978203001706946C978417022
:10B24000694688886084C8880005000DA084C88885
:10B25000C0040DD5681EE0830BE00720C043FEBD8F
:10B26000A5832046E583203045700570658400E0A5
:10B27000E5830020FEBD000030B5174885B040686A
:10B280001446C068062825D1104602F0B1FC0546D8
:10B29000204602F098FC69460881204602F0A8FC8E
:10B2A00069468872204602F0A3FC6946C8722046AF
:10B2B00002F09EFC69460873204602F099FC69463C
:10B2C000C881204602F094FC6946088229466846F7
:10B2D000FEF722FA05B030BDD003002010B50446B9
:10B2E0000C3C808CFDF7BEFF002807D0608D002845
:10B2F00003D021460348FBF76FFF10BD00202085D7
:10B3000010BD000040460100002807D0FF2806D0ED
:10B31000112804D0411A0120884080B270470148AA
:10B3200070470000FFFF000010B51446002917D138
:10B330002C20005D0121FFF7E7FF7D21C900484374
:10B340000104090C06D0608D012803D920460C3079
:10B3500000F0A4FD608D0349884201D0401E608545
:10B3600010BD0000FFFF0000F7B50746254888B074
:10B37000406F029004A801900390BC6A00F0BDFDEC
:10B38000E56BA26B2E46131A8D4101DA002508E009
:10B39000101A8E417D223146D2000023F5F786FC3B
:10B3A00085B2194901A8FCF750FA01A80A9902F0E0
:10B3B000DBFB4034218801A802F0BEFB618801A8B4
:10B3C00002F0BAFB2846FFF7A9FE014601A802F0E9
:10B3D000CBFBA088FFF7A2FE014601A802F0C4FB48
:10B3E000A17901A802F0C0FBE17901A802F0BCFB41
:10B3F00000200346009001AA38460999FCF756FB45
:10B400000BB0F0BD404701003C80000030B518484B
:10B410001849406885B0C0681446884225D1104656
:10B4200002F0E6FB0546204602F0CDFB69460881A6
:10B43000204602F0C8FB69464881204602F0D8FB4E
:10B4400069460873204602F0D3FB694648732046DC
:10B4500002F0CEFB69468873204602F0C9FB6946BC
:10B46000C87329466846FEF757F905B030BD00009D
:10B47000D00300203C80000000B50949094B496811
:10B4800085B0C9681046994207D102F0B1FB694600
:10B49000087200216846FEF753F905B000BD0000B0
:10B4A000EC0300200780000010B5846A002C0AD04D
:10B4B000206020460749143000F0DCFC0648416853
:10B4C000002903D003E00020C04310BD44600020E9
:10B4D00010BD00006D2C0100EC030020FEB5866A53
:10B4E00015460F46104602F083FB0290284602F0F4
:10B4F0006AFB74680346002C07D0A988286800906E
:10B500000191B9883046029AA047FEBDF0B50546C4
:10B510001248E5B00069029004A801900390174614
:10B520000E462846AC6A00F01BF8002C13D03846B3
:10B5300002F049FB01466846408900280BD001AA69
:10B54000284600F0E6F800200346009001AA3146A4
:10B550002846FCF7ABFA65B0F0BD00009C4A01003C
:10B5600070B5846A0546002C0BD0104602F02BFB08
:10B5700001466068002804D08268002A01D028466D
:10B58000904770BD30B505460E48E5B04068029062
:10B5900004A8019003900C46104602F014FB0146EB
:10B5A0006846408900280BD001AA284600F0B1F86F
:10B5B00000200346009001AA21462846FCF776FAAF
:10B5C00065B030BD9C4A010010B50D4886B040689A
:10B5D0001446C068052811D1104602F009FB6946DF
:10B5E0000872204602F0EFFA69464881A08803906D
:10B5F0002068049000216846FEF7A2F806B010BD4E
:10B60000EC03002070B505461048E4B0C069029014
:10B6100004A80190039016460C46284600F018F83E
:10B62000304602F0D0FA01466846408900280BD027
:10B6300001AA284600F06DF800200346009001AAF8
:10B6400021462846FCF732FA64B070BD9C4A0100DE
:10B65000F8B5846A17460546002C10D0104602F053
:10B66000C7FA0646384602F0AEFA0246606800287D
:10B6700005D0C368002B02D0314628469847F8BD54
:10B68000F3B583B00398846A002C35D00421049864
:10B69000FCF7DBF80121049802F023FA07460221A7
:10B6A000049802F01EFA0546FBF720FB0646606888
:10B6B000002815D00068002812D0049802F0CFFAB4
:10B6C00069460871049802AA016880880B1801A8CD
:10B6D00000906068394604680398A04700280DD0A0
:10B6E00030882870000A6870002038706946087138
:10B6F0006846007905B0F0BD0020FBE76846008988
:10B700002870000A687068460179049802F0E9F927
:10B71000EEE7F7B582B002981646846A002C27D06F
:10B7200005211046FCF791F80121304602F0D9F9C5
:10B7300005463046039902F0FFF9606800270028AB
:10B7400015D04068002812D0304602F088FA6946C9
:10B75000001F0871B18830682A46431801A800907C
:10B760006068039944680298A047002802D02F70AF
:10B7700005B0F0BD68460179304602F0B2F9F7E74E
:10B7800010B505F099FD10BD70B50C46054600F0EA
:10B7900005F82146284605F08FFD70BD10B504461A
:10B7A000104602F025FA0F2808D8A1680F234A890D
:10B7B0001B0200079A43000D02434A8110BD00009E
:10B7C00000B50949094B496885B0C96810469942D6
:10B7D00007D102F00DFA6946087200216846FDF7AC
:10B7E000AFFF05B000BD0000EC0300203780000073
:10B7F00010B584682169FFF743FF01210903002880
:10B80000608901D0084300E088436081002010BDBA
:10B8100070B50026846AF6430546002C13D0A8684C
:10B82000002814D00B49416120460B49083000F034
:10B8300021FB28462560FCF701F8002801D00748C5
:10B840000460002070BDFBF7F9FF0028FAD03046F5
:10B8500070BD0000F1B700009157000044020020C5
:10B8600010B50888401C80B207F0BCFD002802D04B
:10B8700001210170401C10BD10B5481E0178491E01
:10B880000A06120E027001D107F0C0FD10BD10B5FE
:10B8900000231A46FFF75CFC10BD0000F7B582B02C
:10B8A00002981468856A6078217806020E430120A8
:10B8B000C0030121301A8903884201D2012240E0ED
:10B8C000A078112801D9FF2802D1E078102801D9E9
:10B8D0000F2236E020797F2801D9FF2843D1A179B2
:10B8E0006279080210430190217AE0790F02074340
:10B8F0001E48874237D83846FDF7B4FC00281FD0D1
:10B900002E852846E17820300090017301980007C9
:10B91000000FE8852F86002E15D0A0780121FFF7B3
:10B92000F3FC6885009821794173E07800280ED0F7
:10B93000A07800280BD028460C3000F0F3FA0AE07B
:10B94000042223460BE02846FFF7F6FB03E02846D7
:10B950000C3000F085FAFDF780FB00231A460399AE
:10B960000298FFF7F5FB05B0F0BD0000FF0F0000E7
:10B9700010B50022FFF7F8FC10BDF7B50098174688
:10B98000856A104602F01FF90646384602F01BF998
:10B990000446384602F02CF907460120C003002E69
:10B9A00001D0864250D20122211A920391424BD3F8
:10B9B000FF210902611AFB2946D9002C05D08442D7
:10B9C00003D2FCF743FFA0423ED1112F3CD87F2188
:10B9D000002E20D0002C1ED0002F24D0284640302E
:10B9E0000680448081710021C17181800121384627
:10B9F000FFF78AFC7D21C900484304462E464036A5
:10BA00007088FDF7D9FA002C0FD000F076FAE21713
:10BA1000001951410BE0002228464030028042804C
:10BA20008171C27182800024E8E700200146E96349
:10BA3000A863002201990098FFF796FC002C03D11F
:10BA40000020B080B071F071FEBD000010B5C86973
:10BA50004069002805D003488A680421007807F06F
:10BA6000D5FD10BD7001002010B5044680690B465D
:10BA7000002805D04268002A02D018466169904724
:10BA8000E069406907F0C2FCE1690020486110BD2F
:10BA900010B5D0690C464069002812D0002C10D097
:10BAA000084909A0F8F7FAFC21460BA0F8F7F6FCC4
:10BAB00011A0F8F7F3FC114864220421007807F084
:10BAC000A5FD10BD214501004150505F4442472073
:10BAD00025733E2000000000556E61626C65207386
:10BAE000656E6420696E646963617465202865729F
:10BAF000723A2564290000000A000000700100204D
:10BB00000288002A07D08A4205D8007A1018884295
:10BB100001D901207047002070470000F8B50E469B
:10BB20000546F9F751FB002822D1287D8106890FAF
:10BB300001291DD040061BD504F076FC002818D042
:10BB40000024144F20E0F86AE10040180188002921
:10BB500016D02A89914216D1297DC907817809D04A
:10BB6000002915D008E0306002E0294607F060FFA8
:10BB70000020F8BD002903D141682A69914207D20B
:10BB8000002EF2D0EFE7641C04F04EFCA042DADC99
:10BB90000120F8BD08300020FEB5046816460F46A7
:10BBA000002C24D020460C3001A9009002F04EF861
:10BBB0000521009801F0E3FF009801F0E8FF054639
:10BBC0000321009801F0DBFF009801F0E0FF6A46D6
:10BBD00092886169400489186A46E160C00CD18886
:10BBE0002182AF4203D1864201D10120FEBD002057
:10BBF000FEBDF8B50446008A0025102801D00020BB
:10BC0000F8BD20460C306946064602F01FF80121B7
:10BC1000304601F0B4FF304601F0EAFFC0091BD006
:10BC20000321304601F0ABFF0221304601F0A7FFAF
:10BC30000221304601F0A3FF0121304601F0D0FF80
:10BC400000784006400E022806D101250621304624
:10BC500001F0C6FF012141716946098860694018F9
:10BC60006946E060488820822846F8BD20210843C4
:10BC700061381A2801D201207047002070473038FF
:10BC80000A2801D20120704700207047202802D0E6
:10BC90000938052801D2012070470020704741383B
:10BCA0001A2801D201207047002070477CB5154D3D
:10BCB00010462C46002208341E46002912D00523C7
:10BCC0006A46314600F008FE00281AD10098286024
:10BCD00068460079C107C90F04200029216807D0F0
:10BCE000014306E02A60216804208143216007E0C7
:10BCF0008143684621600079410802486030017440
:10BD000000207CBD882F00200148006880787047A3
:10BD10001002002010B5FFF7F7FF01466020F4F78E
:10BD20009BFF16490A7C8018C0B2087460280FD2A5
:10BD30000120FDF797F9FFF7E7FF01466020F4F7D0
:10BD40008BFF0F4941430D48143000F0A7F810BD98
:10BD50000A4802215838FAF7E3FA002809D00120EE
:10BD6000FAF7D2FB0548002160380068FCF7E2F8DA
:10BD700010BD0120FDF776F910BD0000E82F00206E
:10BD800080EE360038B5344806F0F6FF002801D0C2
:10BD9000002404E0304806F0DDFF0446143C002C8B
:10BDA0001CD0207A410616D5217B002907D02046D9
:10BDB0001830FFF73BF9207AC10910D039E0BF21D4
:10BDC000084020722068002805D04268002A02D06E
:10BDD0000020616890472046F9F7BEF838BD802101
:10BDE0000843207207F09EFB009068468078009917
:10BDF000401800906846C07800994018009080B2C2
:10BE00000A21F4F729FF207A800980010843207273
:10BE1000617B8006800E081820822168002908D0E6
:10BE20000B68002B05D0217B6268484380B200215B
:10BE30009847207B401E20730748016861611434D5
:10BE400004604168002900D14460F9F7ADF8018A27
:10BE5000024800F023F838BD08020020D82E002048
:10BE600010B58169002902D008F088F910BD0020C2
:10BE7000C04310BD00B5034600F04EF80020D86066
:10BE80001861986100BD10B50C3008F041FA8100CE
:10BE90004018C117490F0818C01010BD0A4610B548
:10BEA0000146024800F004F810BD000030320020C6
:10BEB000F8B50024174606460D46002A02DA122479
:10BEC000E44318E0A869002804D0B04202D013244B
:10BED000E44310E0B04204D1084608F04FF90400F2
:10BEE00009D4F8000521AE61F4F7CCFE01462846DE
:10BEF0000C3008F0BDF92046F8BD10B5F8F7D0F8C1
:10BF000081004018C008002110BD10B5F8F7C8F82E
:10BF100081004018C00810BD0022026082604160AC
:10BF20007047000010B50146014800F003F810BD4D
:10BF30003032002070B58B6801251D430024DA07DC
:10BF40008D60D20F09D10C604268002A06D01160C2
:10BF50004160007A012107F00BFB70BD4160016078
:10BF6000F7E7000010B504468AB0194919A0F8F7A0
:10BF700095FA21461BA0F8F791FA1BA0F8F78EFA64
:10BF800013491C2209316846F4F7C6FE1748694672
:10BF90008089488008F08AF86946887114A003C82F
:10BFA00008910790082207A9684607F0A5FE040635
:10BFB000240E0AD0064907A0F8F770FA21460EA011
:10BFC000F8F76CFA08A0F8F769FA0AB010BD00009B
:10BFD0000B4401004150505F4442472025733E20EE
:10BFE00000000000256400000A000000140000208A
:10BFF0000001020304050607696E646963617465E4
:10C00000206661696C6564202564000070B5054692
:10C010001007000C01431446284601F08DFD200551
:10C02000010E284601F0A0FD70BD70B503685C7874
:10C030001D7823022B431B051B0D0B8001688B7899
:10C040004C781902214309091180032101F097FD61
:10C0500070BD0000F7B5002617463446166014E0A0
:10C060000F48610040680D182888C10401D43D6064
:10C070000AE08104CA0F00998A4205D1010501989E
:10C08000090D814200D12E46641CF9F733FB0546A9
:10C0900006F08EFD2818A042E2DC3046FEBD00000E
:10C0A00058020020F8B506460D46104601F08BFDFB
:10C0B0000A49044688420BD8FDF7D4F8002808D076
:10C0C00000210091C37F22462946304605F030F911
:10C0D000F8BD042000230090F5E70000FF0F0000EA
:10C0E000F7B582B01446104601F06DFD07462046B4
:10C0F00001F07EFD0546204887423AD83846FDF7D4
:10C10000B1F804000BD0A81E022832D2E07F00262E
:10C11000002808D0012809D0022809D022E00420F4
:10C120000023009020E0022D23D01BE0022D02D03E
:10C13000032D05D016E00220E0770120A0770EE065
:10C140002046FCF749F90D480D4900680968084385
:10C1500003D003980088FEF7DBF9E677A677204640
:10C16000FBF7DAFC0096E37F3A460399029805F064
:10C17000DFF805B0F0BD0000FF0F0000F403002061
:10C18000D803002030B50E480E49406885B0C0681D
:10C190001446884211D1104601F02AFD054620467A
:10C1A00001F011FD69464881204601F021FD6946F4
:10C1B000087229466846FDF7AFFA05B030BD0000A9
:10C1C000D003002017800000F3B5488881B00D46E9
:10C1D000002803D025490988884201D91B20FEBDCB
:10C1E0000421686806F0BCFFA978044601706888DD
:10C1F0001F4E010A61702978A17028880227010A60
:10C20000E1706888001D85B20198B04211D10C2000
:10C2100007F0E8F801000AD0902008704E800F71F6
:10C22000CD8014488C60007807F050F916E0132098
:10C23000FEBD23462A460021F5F7D2FD0E4900280F
:10C2400007D002280CD007280CD012280CD01F28A9
:10C25000EED10878002801D0401E08700020FEBDF5
:10C260001420FEBD0420FEBD0220FEBD4E050020B0
:10C27000FEFF00004C050020450500200148006835
:10C28000007C70471002002010B500230F22845C50
:10C2900064001C438C54835C521EDB09D2B20F2A0B
:10C2A000F5D910BD70B514460D46064600F026F8C7
:10C2B000002808D00379C06A00280CD01221194048
:10C2C000102905D00BE00C48864213D0142070BD15
:10C2D000002C02D103E0D8060CD4052070BDD9068D
:10C2E00001D40F2070BD002804D0807EA84201D266
:10C2F0000C2070BD002070BDFEFF000030B50A4A62
:10C30000002113780CE03C2455684C436419648880
:10C31000844203D13C204143481930BD491CC9B275
:10C320009942F0D3002030BD6C050020F0B50C4DD3
:10C3300000210C4E2C780FE03C226B684A43D71842
:10C340007F88B74206D09A5C824203D13C204143A9
:10C35000C818F0BD491CC9B2A142EDD30020F0BD00
:10C360006C050020FFFF000000B5FFF7C7FF0028A5
:10C3700000D0808A00BD000010B50C4605498842F7
:10C3800006D0FFF7BBFF002803D00079204000D083
:10C39000012010BDFEFF000010B50C000AD00649B8
:10C3A00006A0F8F77BF8214608A0F8F777F80AA06E
:10C3B000F8F774F810BD0000D54301004150505FFC
:10C3C0004442472025733E200000000072656173DF
:10C3D0006F6E2025780000000A00000010B50549A6
:10C3E00005A0F8F75BF807A0F8F758F806A0F8F7EB
:10C3F00055F810BDCB4301004150505F44424720E7
:10C4000025733E20000000000A000000F8B5064633
:10C4100088880F46102816D302211E48F9F792FF8C
:10C420001C4C2546FF342035013400280CD0E06A2E
:10C430003168884207D1287D002804D100221146A6
:10C440000120F9F741FBF8BD13481022806801680C
:10C450003868F4F79CFC0028F5D10F488068016B20
:10C46000002901D0012088473068E0620221094894
:10C47000F9F7D6FEA06B01F0E4FB08490848FFF786
:10C480000DFD002211460120F9F71EFB0020287542
:10C49000F8BD0000983000209802002060EA0000FB
:10C4A00010320020F8B519490126886A184D002875
:10C4B0001AD08047174F04467889002820D0A04220
:10C4C00001D2214600E00146A04200D32046081ACE
:10C4D0003C2815DD0D48C06A002800D080476E71E9
:10C4E000F4F7D0FF7C81F8BD68790021002805D1E0
:10C4F000A868401CA8600007F5D56E71A96002E02D
:10C5000068790028EFD0F4F7F5FDF8BD2C2E002057
:10C51000802E0020602E002030B510481049406861
:10C5200085B0C0681546884215D1104601F04BFB16
:10C530000446284601F047FB002804D1284601F0B4
:10C5400057FB002800D0012069460C810390002190
:10C550006846FDF7E1F805B030BD0000D0030020CB
:10C560002E80000030B589B000241648039404944E
:10C5700007C805AB07C31448134D806A6946828B10
:10C580008A82803D2A8D0A83029005A80390FCF7D9
:10C590005DF969460882FCF747F869468874088A9D
:10C5A000042340BA0884688E08AA40BA4884054823
:10C5B000052128380090019402A8FAF7CFFB09B0B2
:10C5C00030BD0000D84F01000830002070B506468D
:10C5D000224888B0006D029004A8019003900D4697
:10C5E000104601F0F0FA040034D00120C003844268
:10C5F00030D21B4901A8FBF728F9214601A801F018
:10C600009BFA18480068002826D001231A462146C4
:10C610001548FAF7DBFC00281ED01430FFF733FC76
:10C620006421F4F72FFB0446E1B201A801F09CFA63
:10C630002004010E01A801F097FA2002010E01A8C2
:10C6400001F092FA00200346009001AA29463046E4
:10C65000FBF72CFA08B070BD0024E5E74047010065
:10C660002E800000D8030020FFFF00000148006872
:10C67000808C70471002002001480068C08C704711
:10C680001002002000220AE0022101E000BF00BFEA
:10C690000B46491E89B2002BF8D1521C92B282423D
:10C6A000F2D370470E498A6A481502438A62032111
:10C6B000F5F776FAF7F7B2FE0A490BA0F7F7EEFEA8
:10C6C0000A4909A0F7F7EAFEF4F700FFF5F7D4FAF4
:10C6D000FAF70AFFF4F7D4FCF7F74EFDFCE7000089
:10C6E00080100040C045010025730A00FE4501008E
:10C6F000F8B5434E434FB06A808BB84201D1002059
:10C70000F8BD41480068002802D00120FCF78CFAEF
:10C7100000252CE0E420B16A68430918888BB842F0
:10C7200024D00C46303108460091FBF797FC0028D6
:10C730001CD1E07F00280BD0214689310846FBF749
:10C740008DFC002804D059210098F4F700FB0DE07F
:10C750002E480068002803D000202021085502E060
:10C760000221202001552046FBF7D6F96D1C06F06A
:10C770001FFAA842CEDC22482038007C60280BD269
:10C78000FFF7C2FA01466020F4F766FA20494143F8
:10C790001B480C38FFF782FB00211E48FAF7F6FF12
:10C7A000FAF7DAFC00280BD0818B002908D0C18B66
:10C7B000002905D02021095C002901D0FFF7B2FB38
:10C7C000FAF74CF9002811D013490A78002A0DD045
:10C7D0004A7802718A784271CA7882710A79C27184
:10C7E0004A7902728A794272C979817204480021B9
:10C7F0007838F9F70BFD0020FCF7F6FB7FE7000027
:10C8000008300020FFFF0000180400201C04002056
:10C8100080EE3600559A0000780200200449026834
:10C820000A604068486000208860024908607047DC
:10C83000CC320020000400208178491E052921D235
:10C840004178491E04291DD2C178C91FD72919D2A0
:10C850000179891E1F2915D24179491E042911D257
:10C860000189FF2276320C3991420BD28179491E1F
:10C87000042907D2817A491E042903D20078C01EF8
:10C88000122801D30020704701207047FFB581B006
:10C89000070014D0694605F0FBF90E4D064600244A
:10C8A000E000285832463946F4F77EFA002809D0CD
:10C8B000641C0C2CF4D30720C04305B0F0BD00204D
:10C8C000C043FAE7E00002AE40190ECE446800987B
:10C8D000A047F2E7D84A010070B51C4615460E463F
:10C8E00003462246294630469847002803DBA042EB
:10C8F00002D00020C04370BD002070BDF7B537489E
:10C900008CB04069059007A8049006901546104623
:10C9100001F059F906005FD00120C00386425BD2C6
:10C92000284601F050F90190286800903046FAF747
:10C930006BFA002700280AD003AA2946FEF773FAEB
:10C9400004000FD00C98A0420ED10D2031E0A88831
:10C950000024042804D0002069460873012028E040
:10C960000120F9E7022024E0019D2846F8F740FD68
:10C97000002807D00020420011198989A94203D15B
:10C98000384616E0032014E0401C0328F3D3144972
:10C9900000204200121992898A4206D141000819EA
:10C9A00085812046FCF76EFBEAE7401C0328F0D3A4
:10C9B0000520019A00990291019000926846027B3D
:10C9C0003346214604A8FDF7B9F9002304AA0097CD
:10C9D0000D990C98FBF76AF80FB0F0BD40470100C5
:10C9E000FFFF0000F7B531488CB0C06A039005A87E
:10C9F000029004901646104601F0E5F8040052D06B
:10CA00000120C00384424ED220463768FAF7FCF971
:10CA100000280CD001AA3146FEF705FA050011D016
:10CA200000266846007900280ED021490EE0B08823
:10CA30000025042804D00020694608710126F0E78B
:10CA40000120F9E70226ECE71949891E02A8FAF746
:10CA5000FCFE314602A801F087F8214602A801F049
:10CA60006BF868460079002801D0042200E0022219
:10CA7000394602A801F06DF8002D0CD00D4E0024AF
:10CA8000600040198189B14202D002A801F054F837
:10CA9000641C032CF4D300200346009002AA0D99D5
:10CAA0000C98FBF703F80FB0F0BD00004047010001
:10CAB0004E800000FFFF000030B51048104940686C
:10CAC00085B0C0681446884216D1104601F090F82F
:10CAD0000546204601F077F8204601F074F8A0885A
:10CAE000042802D3204601F06EF8204601F06BF8CE
:10CAF00029466846FCF710FE05B030BDD003002083
:10CB00003E800000F7B522488CB0006A059007A867
:10CB1000049006901746104601F055F8050028D0FD
:10CB20000120C003854224D2384601F04CF8009021
:10CB300028463E68FAF768F900281CD003AA39464F
:10CB4000FEF771F9040021D00122009900F074FE73
:10CB5000019002966846027B2B46214604A8FDF709
:10CB6000EDF800200346009004AA0D990C98FAF7FE
:10CB70009DFF0FB0F0BDB8880024042804D0002029
:10CB8000694608730120E3E70120F9E70220DFE7A7
:10CB90004047010070B50446806816460D460028DF
:10CBA00005D00460A06826491830FFF763F92549CD
:10CBB000002042001219401C91810328F9D3002063
:10CBC000014642001219401C51820628F9D31E4822
:10CBD00040688089281A00112071002E06D0E8686C
:10CBE0002C21201AF4F74EF8607117E0A8682C2168
:10CBF000201AF4F747F860712088002806D0012831
:10CC000008D0022813D0032808D114E00F4860622E
:10CC10000F4802E00F4860620F482062606A0028F7
:10CC200004D08168002901D02046884770BD0B4898
:10CC300060620B48F1E70B4860620B48EDE70000CB
:10CC4000E5CE0000FFFF0000FC010020304601009F
:10CC5000BC470100F84D0100D84C0100FC4901001F
:10CC60000C4A0100984F01005C4F0100F7B586B0F7
:10CC700015460026104600F0A6FF04001FD0012034
:10CC8000C00384421BD220462F68FAF7BDF8002863
:10CC900017D004AA2946FEF7C6F800281CD08168E0
:10CCA00000291BD08E8800216A46127C009201ADBB
:10CCB00083C5334622460799069804F063FB09B002
:10CCC000F0BDA9880020042904D000216A4611740F
:10CCD0000121E9E70121F9E70221E5E70721E3E77F
:10CCE000F7B58AB01746104600F06DFF060045D034
:10CCF0000120C003864241D2384600F064FF07900D
:10CD0000384600F060FFC1040005000DC90F069011
:10CD10000591384600F06CFF05467F2801D9FF2DAC
:10CD20002CD1384600F064FF0190384600F060FFD7
:10CD30000090386808903046FAF766F800281FD04F
:10CD400004AA3946FEF76FF8040024D000980122A7
:10CD50000290009503922046059B069A0799F7F7E3
:10CD6000EFFB6A46127C08990092029001940391AD
:10CD70003246079B0B990A9804F004FB0DB0F0BDF6
:10CD8000B8880024042804D00020694608740120D3
:10CD9000E7E70120F9E70220E3E7000030B5194892
:10CDA0001949406885B0C0681546884227D11046A9
:10CDB00000F01EFF0446284600F005FF284600F05C
:10CDC00002FF69460881284600F0FDFE0022694600
:10CDD00000050A73000D4881284600F009FF6946E6
:10CDE0004873284600F004FF69468873284600F01F
:10CDF000FFFE6946C87321466846FCF78DFC05B006
:10CE000030BD0000D003002019800000F7B58AB0C3
:10CE10001746104600F0D7FE060061D00120C0037F
:10CE200086425DD21021384600F0DAFE0290384684
:10CE300000F0C9FEC1040005000DC90F0690059160
:10CE4000384600F0D5FE05467F2801D9FF2D47D191
:10CE5000384600F0CDFE0190384600F0C9FE009043
:10CE6000386808903046F9F7CFFF00280CD004AAA4
:10CE70003946FDF7D8FF040013D007A9029806F041
:10CE8000E3FD002812D01DE0B8880024042806D055
:10CE900000206946087400208883012012E00120E8
:10CEA000F7E700206946888302200BE00098012202
:10CEB0000095039202906846818B2046059B069A56
:10CEC000F7F73EFB6A46127C0899009201940391A1
:10CED00002906A46938B32460B990A9804F052FAF4
:10CEE0000DB0F0BD70B50446183C2068FAF7D6FCCA
:10CEF00005466089400B10D0206802F0EDFD002847
:10CF00000AD06089C004C00C6081002D04D0204686
:10CF100029461830FEF7C2FF70BD002DFCD06169B4
:10CF2000206888470028F7D16089400B03D020464D
:10CF30001830FEF795FF2068FAF7DAFC70BD70B57F
:10CF40001546044600F0A8FA002802D02046FCF757
:10CF5000ABF800231A4629462046FAF7B3FB606A6D
:10CF6000002804D0C168002901D02046884770BD40
:10CF7000FEB51D4616460C00074665D0102200215E
:10CF8000204605F0E9FC80B2010AC2B23846FAF741
:10CF900037FC070058D06946204604F079FE01901E
:10CFA0000098002850D02AA1019AF3F7FDFE002432
:10CFB000002815D028A1019A0098F3F7F5FE002863
:10CFC0001ED026A1019A0098F3F7EEFE002828D083
:10CFD00023A1019A0098F3F7E7FE002828D033E058
:10CFE000214A089B3946002047007F18401CBA811F
:10CFF0000328F9D3002E12D0062218460C310BE07C
:10D00000384612300C21089F0190F3F7A0FE002E45
:10D0100005D00C2238460199A847002800DB20469D
:10D02000FEBD2A4631463846089B00F01FF8FEBD7B
:10D03000786A002808D00468002C05D02A463146BA
:10D040003846089BA047FEBD0720C043FEBD000038
:10D0500062696E64000000007375620070756200A2
:10D060006461746100000000FFFF0000FEB504462B
:10D0700080681E461746002832D001252D0300295E
:10D0800031D008236A4631463846FFF725FC002890
:10D0900025D16A46A16810888880A1685288C8880E
:10D0A0001205000B0003120D1043C8806A46D279A6
:10D0B000A843D206D20F12031043A1686A46C88063
:10D0C000A16810790872A16890798872A168507976
:10D0D0004872A0684189C904C90C41810020FEBD85
:10D0E0000020C043FEBD00228280A168C888000BDA
:10D0F0000003C880A168A843C880A0680272A06825
:10D100008272A0684272E4E7F7B586B01446104612
:10D1100000F059FD060050D00120C00386424CD2D9
:10D12000204600F050FD0546206804903046F9F78F
:10D130006BFE00280DD003AA2146FDF774FE040003
:10D1400010D0032080032149281A88420CD30127DC
:10D1500027E0A088042803D0002069460873F6E77A
:10D160000120FAE702271CE029462046FAF7E4FAF4
:10D17000002801D0002714E041000919498A00293C
:10D180001DD0401C0628F7D306281CD000272046B7
:10D19000FBF78AFF0E480068002802D02846FAF7FD
:10D1A000E5F96846017B04980291019033463A46BE
:10D1B00000950799069804F047F909B0F0BD4100C1
:10D1C00009194D82E0E70527EBE70000013F000069
:10D1D000F4030020F7B586B01446104600F0F3FCC7
:10D1E00005004AD00120C003854246D2204600F007
:10D1F000EAFC6946088228462768F9F705FE0028F8
:10D200000FD003AA2146FDF70EFE060012D0684695
:10D21000008A03218903401A194988420CD301244A
:10D220001FE0A088042803D0002069460873F6E7B1
:10D230000120FAE7022414E01248002400680028C4
:10D2400003D0012104A8FAF7C3F96846018A3046E1
:10D25000FAF772FA002804D0002101803046FBF76B
:10D2600023FF6946087B098A0290019700912B46AB
:10D2700022460799069804F0E7F809B0F0BD0000CF
:10D28000013F0000F4030020F7B584B017460E46B6
:10D29000104600F098FC04002AD00120C00384420C
:10D2A00026D220463D68F9F7AFFD002822D003AA18
:10D2B0003946FDF7B8FD070026D01448006800285D
:10D2C00004D0384606211230FAF782F9384600F0C9
:10D2D000E3F83846FBF7E8FE00226846007B0021B1
:10D2E00000910290234601953146049804F0ACF871
:10D2F00007B0F0BDB888042804D000206946087340
:10D300000122EAE70120F9E70222E6E7F403002020
:10D31000F0B507462A488BB0C06C029004A8019073
:10D3200003900E461546104600F04DFC040035D023
:10D330000120C003844231D2284600F044FC009012
:10D34000204901A8FAF781FA2046F9F75DFD002887
:10D3500026D00099FAF7DCF9050023D0002101A8B6
:10D3600000F002FC214601A800F0E6FB01A80099AC
:10D3700000F0E2FB002460004019418A002902D03D
:10D3800001A800F0D9FB641C062CF4D3002003464E
:10D39000009001AA31463846FAF788FB0BB0F0BD81
:10D3A000012100E0022101A800F0DEFB214601A8D6
:10D3B00000F0C2FB01A8009900F0BEFBE6E7000008
:10D3C000C04601002A800000F0B5074630488DB005
:10D3D000806D029005A8019003900E4615461046F8
:10D3E00000F0F1FB04003ED00120C00384423AD299
:10D3F000284600F0E8FB0490284600F0E4FB00908B
:10D40000244901A8FAF721FA2046F9F7FDFC002883
:10D410002BD0009A0499FAF79EF9050027D0002135
:10D4200001A800F0A1FB214601A800F085FB01A89E
:10D43000049900F081FB01A8009900F07DFB002415
:10D4400060004019418A002902D001A800F074FB55
:10D45000641C062CF4D300200346009001AA314638
:10D460003846FAF723FB0DB0F0BD012100E00221A0
:10D4700001A800F079FB214601A800F05DFB01A89E
:10D48000049900F059FB01A8009900F055FBE2E770
:10D49000C04601002C800000F1B500252C462F4627
:10D4A000009869000E18708A0121C903421A4910B8
:10D4B0008A420DD3002814D00C480068002804D0FC
:10D4C000304612300121FAF783F87782641C08E0B5
:10D4D000F9F7F0FF641C7782002802D0002106F0E3
:10D4E000DEFA6D1C062DDBD32046F8BDF4030020C8
:10D4F000F7B586B01446104600F065FB07004BD028
:10D500000120C003874247D2204600F05CFB06465C
:10D51000206804903846F9F777FC00280DD003AA5C
:10D520002146FDF780FC050010D0032080031B4935
:10D53000301A88420CD3012422E0A088042803D0AA
:10D54000002069460873F6E70120FAE7022417E095
:10D5500013480068002804D0284606211230FAF744
:10D5600037F82846FFF798FF6E8200242846FBF71D
:10D570009BFD0B480068002802D03046F9F7F6FF03
:10D580006846017B0498029101903B462246009632
:10D590000799069803F058FF09B0F0BD013F00005D
:10D5A000F403002030B510481049406885B0C068C9
:10D5B0001446884216D1104600F01AFB0546204654
:10D5C00000F001FB204600F0FEFAA088042802D3F8
:10D5D000204600F0F8FA204600F0F5FA29466846A1
:10D5E000FCF79AF805B030BDD00300201F80000082
:10D5F000F7B586B01446104600F0E5FA050054D0A1
:10D600000120C003854250D21021204600F0E8FAE4
:10D61000009028462668F9F7F7FB002700280CD071
:10D6200003AA2146FDF7FFFB040011D004A90098CE
:10D6300006F00AFA07002CD10EE0A088042805D0D5
:10D640000020694608730F82012722E00120F8E7D5
:10D650006846078202271CE06846018A2046FAF7DE
:10D660006BF8002815D141000919498A00291ED0FC
:10D67000401C0628F7D306281FD011480068002850
:10D6800003D06846008AF9F771FF2046FBF70CFDCE
:10D6900000276946087B098A0290019600912B4673
:10D6A0003A460799069803F0CFFE09B0F0BD6946E7
:10D6B0004200098A12195182DDE70527E9E70000D7
:10D6C000F4030020F7B586B01646104600F07BFA4A
:10D6D00004004ED00120C00384424AD210213046BB
:10D6E00000F07EFA009020463768F9F78DFB0025A0
:10D6F000002823D003AA3146FDF795FB060028D069
:10D7000004A9009806F0CBF902466846008A002872
:10D7100024D019480068002803D0012104A8F9F793
:10D7200057FF6846018A3046FAF706F8002814D0F9
:10D7300005803046FBF7B8FC00220FE0B0880428D3
:10D7400005D00020694608730D82012206E0012001
:10D75000F8E768460582022200E00C226946087B51
:10D76000098A02900197009123460799069803F0D1
:10D770006BFE09B0F0BD0000F4030020F7B586B0E1
:10D780000020694608821446104600F01CFA060084
:10D790004DD00120C003864249D21021204600F01E
:10D7A0001FFA009030462768F9F72EFB002818D0A2
:10D7B00003AA2146FDF737FB05001CD01D48006871
:10D7C000002804D0284606211230F9F701FF284628
:10D7D000FFF762FE04A9009806F036F904000CD0A9
:10D7E00019E0A088042804D00020694608730124A9
:10D7F00011E00120F9E702240DE06846008A688202
:10D800002846FBF751FC0B480068002803D0684607
:10D81000008AF9F7ABFE6946087B098A02900197F6
:10D820000091334622460799069803F00DFE09B091
:10D83000F0BD0000F4030020F0B5074685B01646A1
:10D840000D460846F7F7D4FD002825D000246000D7
:10D85000C0198189A94219D110498181002E02D0B5
:10D860003846FBF70FFCB86800280FD0C0880005C9
:10D87000000DA8420AD10020009001900346024604
:10D880000146029003963846F6F75AFE641C032CB4
:10D89000DDD3002005B0F0BD0320FBE7FFFF000053
:10D8A00070B50B4C0022A51C661C53001B189B89ED
:10D8B0008B4205D0A34205D1A94201D0B14201D18A
:10D8C000012070BD521C032AEFD3002070BD000060
:10D8D000FCFF0000FFB581B01D460E46F9F7EEFCD7
:10D8E000002815D0284600F0BAF90024E4430428A3
:10D8F00044D306F097F80746083705F0E1FF0C21FE
:10D900004843874208D906F08DF80146083107E000
:10D910000520C04305B0F0BD05F0D2FF0C21414306
:10D92000FF208130814211D206F07CF8074608378B
:10D9300005F0C6FF0C214843874203D906F072F870
:10D94000083003E005F0BCFF0C214843A988001F04
:10D95000884202DA1420C043DCE70398002806D18D
:10D96000706841880198FFF79BFF002806D0294680
:10D9700030460B9B0A9AFBF775FDCBE72046C9E7BB
:10D98000416A009B002904D04A68002A01D0197816
:10D990001047704770B50F4C2178C1824A1C227025
:10D9A0008B0061680589CA586D04D20BD2036D0CD7
:10D9B0002A43CA50C38A00695204520CC0039B0018
:10D9C0000243CA5000F008F801462078F3F744F902
:10D9D000217070BD480200200148006880797047BE
:10D9E00010020020F8B5002704460D46002907D094
:10D9F0000846FDF709FA0121401E8140A94201D0E5
:10DA00000020F8BDA00704D0A007800F0421081A49
:10DA10000419114811490268002A04D10A68121D2C
:10DA20009208920002600D498E682946B018009253
:10DA3000F3F712F9681A6D1E084A28402118526837
:10DA40007118914206D2054BB14203D9009A9960F0
:10DA5000101837183846F8BD00040020CC320020DA
:10DA6000F7B50546408800280FD028880BE02C88A1
:10DA700081B2611A1C24EB6861435C18A5602179AE
:10DA8000002904D0401E0028F1DC0020FEBD0198D2
:10DA90000026002809D0A86801A90068036820466C
:10DAA000984760610028F1D000E066610120207194
:10DAB000667126600198608226826069E0606888ED
:10DAC000401E68802046FEBD10B58168C968401AB6
:10DAD0001C21F3F7D7F880B210BD0179491C017100
:10DAE000704730B503460C460068998845181846BB
:10DAF00000F0B5F8A04200D2FEE79888001998809F
:10DB0000284630BD03B56A46918849BA9180022102
:10DB1000FFF7E7FF6A4611790170517941700CBD3A
:10DB200013B5019909BA01910421FFF7DAFF042224
:10DB300001A9F3F7F1F81CBD03B56A4691889180FD
:10DB40000221FFF7CEFF6A461179017051794170C9
:10DB50000CBD70B50D4614461146FFF7C2FF2246B4
:10DB60002946F3F7D9F870BD10B50C460121FFF72F
:10DB7000B8FF047010BD01688068081A7047828879
:10DB8000521A82800268511801600846704708B531
:10DB900001686B460A781A70497859700221FFF7BC
:10DBA000EEFF6B46188840BA08BD38B504460168D8
:10DBB00004226846F3F7B0F804212046FFF7DFFFA0
:10DBC000009800BA38BD08B501686B460A781A702B
:10DBD000497859700221FFF7D2FF6B46188808BDBB
:10DBE000838802685B1A8380511801601046704771
:10DBF00000B501680B780121FFF7C1FF184600BD91
:10DC00000268521A02608388591881801046704752
:10DC100003B56A46918849BA91800221FFF7F0FF67
:10DC20006A4611790170517941700CBD10B50C46EE
:10DC30000121FFF7E5FF047010BD826851180160F3
:10DC400070470021818081680160704770B50C4683
:10DC50000546FFF790FF2080A888608070BD82682D
:10DC60000168891AC2888088511A081A704770B5ED
:10DC7000064605F064F8051E0FD004464079C0073B
:10DC800008D0304605F05BF820606179490849000A
:10DC90006171F2E700202060284670BD30B50A4669
:10DCA000012503E054792C4354711A461368002B64
:10DCB000F8D14368002B02D01960426030BD06C025
:10DCC00030BD70B5044600251FE0207900281ED025
:10DCD000401E0006000E207119D1A0684188491C21
:10DCE00041804168002901D02046884761690029A8
:10DCF00009D06379A26820469B0703D49268126812
:10DD000092689047656124682560002CDDD170BD64
:10DD1000FFB53E4D1878297881B0C907C009C90FF1
:10DD20000B9E4840317D0C9C4908490008433075E2
:10DD30000020A080A06820601F4620460A99FFF7B7
:10DD4000D0FE39460A9AF2F7E7FF317D2868C90705
:10DD5000C90F411A2068039AFAF7D4F9002803D0B2
:10DD60000720C04305B0F0BD2068401D04F094FFBB
:10DD70003081002803D00121C903884202D300204A
:10DD8000C043EFE7307D8006800F23D100251DE0E2
:10DD90002068401D04F080FF01461D48AF00406828
:10DDA000C05B4004400C81420ED12068801C04F00E
:10DDB0007FFFC1031648C90B4068C059C00B8142A0
:10DDC00002D10120C043CDE76D1CADB2FFF704FEC8
:10DDD000A842DDD80F480068002804D0307D8106B5
:10DDE000890F03290BD00948317D0068C907C90F85
:10DDF000421A002321460298F9F752FFB2E703497D
:10DE0000C0070968C00F0A1A0123F3E7882F002012
:10DE1000480200201C040020FFB583B01F461546B1
:10DE2000002646E02D48816AE42070430C183FD05C
:10DE3000A08B2B4988423BD02A482B4900680968AF
:10DE4000084308D02B4600972046049A0399FCF714
:10DE5000DDFB002834D00398007841064020005DA7
:10DE6000490E81420CD104986946A1C1224621463F
:10DE7000693241312046039BFFF74AFF002822D038
:10DE8000E07F002814D00398007841069920005DB7
:10DE9000490E81420CD104986946A1C1224621460F
:10DEA000C2329A312046039BFFF732FF00280FD081
:10DEB000761C04F07DFEB042B4DC002007B0F0BD5B
:10DEC000287D042106E0A08BA88001202C60F5E7C6
:10DED000287D022108432875F5E70000083000205E
:10DEE000FFFF0000D8030020F4030020F7B50298DC
:10DEF000FFF769FE2A49064688423AD8FBF7B2F98D
:10DF0000040017D10025274F0EE02846E422504395
:10DF1000B96A1C30095A2448814204D1E421B86A04
:10DF20004D43441904E06D1C04F042FEA842ECDCB1
:10DF3000002C0DD0A08BB04202980DD12146006874
:10DF400010223031F2F723FF002803D006230BE024
:10DF5000052309E0002307E0016820463030FAF786
:10DF60007DF8002806D0102332460199009803F06E
:10DF7000A9FAFEBDA6832046FBF7D8F82046F9F79C
:10DF8000CBFD0A480068002806D00021202001555A
:10DF90002046FAF797FDDDE7022020342070D9E70C
:10DFA000FF0F000008300020FFFF00001C040020CD
:10DFB00070B506460D461046FFF705FE0B490446B0
:10DFC00088420ED8FBF74EF9002804D02988A142D8
:10DFD00008D10C2300E0002322462946304603F0F6
:10DFE00071FA70BD0121FBF7C9F8F4E7FF0F0000DB
:10DFF000F7B51B4888B0006F029004A80190039009
:10E00000184901A8F9F721FC174C0025174F26469F
:10E0100011E0E420B96A68430818828BB24208D044
:10E02000B44201D1144604E0214601A8FDF7EEFFF9
:10E0300034466D1CADB204F0BBFDA842E9D8B44231
:10E0400003D0214601A8FFF777FD0020034600908A
:10E0500001AA09990898F9F729FD0BB0F0BD000055
:10E06000C046010043800000FFFF00000830002090
:10E07000FFB50725ED438BB01F460E4600282AD07A
:10E080001022002104F068FC80B20A90FBF7EAF845
:10E090000446002E19D021236A4639460D98FEF712
:10E0A0001BFC002818D104A801306F460990002CF1
:10E0B00014D038781022C007C00FA07738784008F5
:10E0C000E07720463030791C2FE0002C03D000216F
:10E0D000FBF754F831E028460FB0F0BD0025194E8B
:10E0E0000EE02846E4225043B16A1C30095A164813
:10E0F000814204D1E421B06A4D43441904E06D1C0F
:10E1000004F056FDA842ECDC002C18D00A98A0833D
:10E11000684600781022C007C00FA07768460078D4
:10E12000791C4008E07720463030F2F7F5FD2046B4
:10E13000102289300999F2F7EFFD0020CCE7082082
:10E14000C043C9E708300020FFFF000030B50A488F
:10E150000A49406885B0C068144688420AD1104612
:10E16000FFF746FD05462046FFF72DFD2946684688
:10E17000FBF7D2FA05B030BDD00300204480000088
:10E18000F7B515460F461046FFF71DFD2549064613
:10E1900088423CD8FBF766F8040009D0E07F0028ED
:10E1A00008D0012816D002281CD003280AD119E073
:10E1B000042327E02146102230312868F2F7E7FDDA
:10E1C000002824D0204689302968F9F747FF002825
:10E1D0000CD016E02146102289312868F2F7D7FDCD
:10E1E000002801D00B230DE000230BE00E480F495F
:10E1F0000068096808430BD02046FCF7E5F90028C1
:10E2000006D0102332463946009803F05BF9FEBD74
:10E210000120E0772046FAF789FF2046F9F77CFCD9
:10E22000E2E70000FF0F0000F4030020D803002005
:10E2300010B586B01C461046002913D012236A463A
:10E240002146FEF749FB00280AD100A910220A48FE
:10E250000231F2F761FD68460088F8F74DFD0020B5
:10E2600006B010BDF8F768FD0348103800210161C1
:10E2700041618161C161F2E71830002000B50949B0
:10E28000094B496885B0C9681046994207D1FFF724
:10E29000AFFC6946087200216846FBF73DFA05B0FD
:10E2A00000BD0000D00300202580000030B50546E9
:10E2B0000D4887B04068029004A80C460190039076
:10E2C0000A4901A8F9F7C1FAFAF7AEF9014601A81F
:10E2D000FFF74AFC00200346009001AA2146284689
:10E2E000F9F7E4FB07B030BDC0460100258000000F
:10E2F00030B50446114887B00069029004A8019027
:10E300000390A06A0D46002804D0116809780171B5
:10E31000FAF79EFE0A4901A8F9F797FAFAF784F985
:10E32000014601A8FFF720FC00200346009001AA47
:10E3300029462046F9F7BAFB07B030BDC0460100B8
:10E3400025800000002804D003494968814201D19A
:10E350000020704700687047BC02002010B501F033
:10E36000D1FF114C617D884202D101F0D3FF06E05C
:10E3700001F0D0FF617D884203D101F0D3FF6075C9
:10E3800010BD01F0CFFF617D884202D101F0BAFFDC
:10E39000F5E7252903D0262903D02520EFE72620FD
:10E3A000EDE72720EBE70000502F002010B5FBF72A
:10E3B00051FF002801D0806810BD0020C04310BD6F
:10E3C00030B50E480E49406885B0C0681446884292
:10E3D00011D11046FFF70CFC05462046FFF7F3FB72
:10E3E000694648812046FFF703FC694608722946C2
:10E3F0006846FBF791F905B030BD0000D00300205E
:10E4000048800000F0B507461A4887B0C06F0290F8
:10E4100004A8019003900E461046FFF7D4FB16495E
:10E42000054688421ED8154901A8F9F70EFA284674
:10E43000FAF718FF040017D0002101A8FFF794FB9A
:10E4400020342478294601A8FFF776FB214601A84D
:10E45000FFF78AFB00200346009001AA31463846A8
:10E46000F9F724FB07B0F0BD042101A8FFF77CFBFE
:10E470000024E7E7C0460100FF0F000048800000CD
:10E48000F7B5264888B08068029004A801900390F0
:10E4900014460F461046FFF796FB21490646884270
:10E4A0003AD82046FFF7A4FB040001D0012C33D159
:10E4B0001C4901A8F9F7C9F93046FAF7D3FE05005F
:10E4C00011D0002101A8FFF74FFB314601A8FFF74B
:10E4D00033FB15480068002811D0002C28460CD0CA
:10E4E000FAF782FB0BE0042101A8FFF73DFB314660
:10E4F00001A8FFF721FB214603E0FAF78FFB203547
:10E50000297801A8FFF730FB00200346009001AAFC
:10E5100039460898F9F7CAFA0BB0F0BD4047010038
:10E52000FF0F0000488000001C04002030B50546A5
:10E530000B4887B0806B04AA0C46029001920949EF
:10E54000039201A8F9F781F900200346009001AA7F
:10E5500021462846F9F7AAFAFAF772FC07B030BD4F
:10E56000404701004A800000F0B585B01E461746BE
:10E570000D46002814D01022002104F0EDF984B2D9
:10E58000002D11D013236A4631463846FEF7A4F910
:10E59000002807D12046FAF7D7F800280ED015E05A
:10E5A0000720C04305B0F0BD2046FAF7CDF800289B
:10E5B00002D00021FAF7BAF80020F3E76846028893
:10E5C000817C2046FAF760F8002806D000A91022C6
:10E5D000001D0231F2F7A0FBEEE70820C043E1E79F
:10E5E000F8B500250E4607462C460D600AE009489E
:10E5F000A100806808180188002909D0B94200D11B
:10E600000546641C01F014F8A042F0DC2846F8BD71
:10E610003060F6E758020020027C012A01D8084643
:10E620007047491E5018521E904370470022835C69
:10E630008B4201D001207047521C082AF7D30020DA
:10E64000704710B5044601460722FF20FBF706FB82
:10E65000E179814201D1002010BD012010BD10B52B
:10E66000044601460722FF20FBF7F8FAE07110BDCF
:10E6700010B500231A4600F052FB10BDF0B58BB068
:10E680001D00044609921BD0A2890B0C20685A4336
:10E69000101889B20818089000216069FBF729FE5C
:10E6A00000280ED1207C2E46401E864314D03346CF
:10E6B0006069099A0899FBF70AFE07001FD102E07A
:10E6C00000200BB0F0BD0898AD1B80190890099888
:10E6D00080190990002D12D02A4668460999F2F750
:10E6E0001BFB207CFF22411B68464019F2F728FBE8
:10E6F000237C6A4660690899FBF7E9FD074601211A
:10E700006069FBF7F6FD3846DBE770B50A4604465C
:10E7100008234168FFF7B2FF054608212046FFF7AE
:10E720007BFF6168081A6060284670BDFFB589B03C
:10E7300009982027007C1C46401E164687431BE094
:10E74000A74201D23D4600E025462B466A460A997B
:10E75000099800F06CF8002807D12A46694630462F
:10E76000F2F715FB002802D001200DB0F0BD0A9889
:10E77000641B401976190A90002CE1D10020F4E7BF
:10E78000FFB589B009982026007C0F46401E8643BD
:10E790001C4631466846F2F7D3FA0EE0A64201D293
:10E7A000354600E025462B466A4639460998FFF76C
:10E7B000BDFF002804D1641B7F19002CEED100207E
:10E7C0000DB0F0BD70B515460A4604462B4681686B
:10E7D000FFF754FF064629462046FFF71DFFA168B4
:10E7E0004018A060304670BD70B50D0C2D04044675
:10E7F0008389FF222946FFF7C3FF002816DDA18980
:10E800002A0C206851430D1800216069FBF771FD47
:10E8100000280BD1A28929466069FBF73BFD00283F
:10E8200004D101216069FBF764FD002070BD70B563
:10E8300085890E0C046875432C1989B20919406941
:10E84000FBF735FD70BDF0B595B005460821FFF723
:10E85000E3FE044668680FA9000C00040F902846E8
:10E8600000F09FF9A8890F9908234018011B02AAFC
:10E8700028460E91FFF7DBFF00287EDBFF2102A870
:10E88000FFF7D4FE002879D00E98001B139002A841
:10E89000FFF7D7FE002814D00EA9284600F058F93B
:10E8A000002876D10E98109004AA0EA9284600F0F0
:10E8B00099F800286DD104A8FFF7C3FE002860D1A5
:10E8C00007E00E986946000C4989000408180E906C
:10E8D000E8E7686811906A4611A92846119C00F083
:10E8E00081F8002855D169460888098A884204D1F0
:10E8F0006846FFF7A6FE002803D068681199884291
:10E90000E9D1109884423CD16846808A002838D0EA
:10E9100010986946000C498A00040F182889694636
:10E92000488204A8FFF79BFE69468C8A297C202038
:10E93000491E8843129016E01298A04201D2064662
:10E9400000E02646334606AA39462846FFF76FFF01
:10E9500000280BD1324606A92846FFF733FF0028CE
:10E9600004D1A41BBF19002CE6D10020002810D12F
:10E9700004A92846FFF7C9FE01E00AE005E00028E7
:10E9800007D11399109888428CD128460F99FFF728
:10E990002BFF15B0F0BD70B50026F64304460029E4
:10E9A00014D061614A692260488AA0810D7CE581AA
:10E9B000497C2174202909D8002807D00146104637
:10E9C000F2F760F9002901D1022D01D2304670BD65
:10E9D000204600F0F3F80028F9D1012060740020EF
:10E9E00070BD0000FEB50C46174605460821FFF72E
:10E9F00013FE064608233A4628462168FFF717FF0C
:10EA0000002808D1206880192060AA8981B2921B51
:10EA1000914201D00020FEBD1C49020C15D0401AC5
:10EA20000146206008236A462846FFF700FF0028B9
:10EA3000F1D1FF216846FFF7F9FD00280AD06846AA
:10EA4000FFF7FFFD002807D011E0EA891204511AF0
:10EA50004018E5E7686816E06846A9894088891B80
:10EA6000884204DA3146F2F7F7F8002904D021464B
:10EA7000284600F06DF8FEBD20686946000C0004D1
:10EA80002060498840182060C4E7000000000100B1
:10EA900038B50024009400F001F838BDFFB50546F4
:10EAA000407C83B01F4600280CD008212846FFF781
:10EAB000B3FDA9894000081AB84206D20020C0431D
:10EAC00007B0F0BD0D20C043FAE76E68002402963F
:10EAD00017E06A4602A92846029EFFF783FF002836
:10EAE000EED1684601880498814206D16846FFF756
:10EAF000A8FD002801D1641CA4B26868029988426C
:10EB000002D00C988442E4D968680299884204D102
:10EB1000684601880498814206D168468388002BA4
:10EB200002D00C98844202D20720C043C8E769464D
:10EB3000300C498800040918BB4200D93B462846DE
:10EB4000059AFFF774FE0028BAD168468088B7E7B7
:10EB5000F3B583B00F4608210398FFF75DFD064625
:10EB60003868841B250C2D043C6015E008236A4698
:10EB700021460398FFF75BFE002810D16846FFF797
:10EB800060FD002807D16A4651889288280C00044D
:10EB900089180D183C60A41BAC42E7D8002005B0D2
:10EBA000F0BD01230A681B04D2180A60C089130C47
:10EBB000834202D10004101A08607047FEB5044673
:10EBC00000200746009008212046FFF725FD064655
:10EBD00000251BE0A18928044018811B0823FF227F
:10EBE00020460091FFF7CCFD00280DD07F1CBFB25E
:10EBF00069462046FFF7D5FF0823FF2220460099EB
:10EC0000FFF7BEFD002804D06D1CADB2E089A8421C
:10EC1000E0D8E089B84202D10B20C043FEBDA84233
:10EC20000CD100980823811BFF222046FFF7A8FD86
:10EC3000002803D169462046FFF7B3FF0098811BE7
:10EC4000000C00046160A0602EE0082301AA2046A9
:10EC5000FFF7EDFD0028E1D1FF2101A8FFF7E6FC59
:10EC6000002832D001A8FFF7ECFC002819D1009849
:10EC70006946000C0004A060C9884018A06069467D
:10EC800009892046FFF7C8FCA1684018A0606168A8
:10EC9000814206D168460089002802D00C20C0437A
:10ECA000FEBD6068801B60606168A0688142CCD254
:10ECB0000BE0431AFF222046FFF762FD0028EFDB3E
:10ECC00007D0217CA0684018A060A16860688842D5
:10ECD000EFD860686946000C000400902046FFF7FA
:10ECE00060FFA389FF2220460099FFF749FD002815
:10ECF000D6DBD5D020466168FFF776FD0028CFD15E
:10ED00006068A189000C72000004891A081860600C
:10ED1000000C0004A0602046FFF795FDFEBDFFB586
:10ED200087B0002704460397407C1D4600282FD05B
:10ED300008212046FFF770FC029029462046FFF785
:10ED40006BFC06460298A18942008018081AA84266
:10ED500022D3002D02D0099800281DD060680490AD
:10ED600005906A4604A92046FFF73CFE002811D111
:10ED7000684601880898814204D16846FFF761FC23
:10ED800000280FD060680499884208D00846E7E759
:10ED90000D20C0430BB0F0BD0020C043FAE703983C
:10EDA000002816D005986946000C49880004091807
:10EDB00068468088002D09D0A8420CD12B462046F9
:10EDC000099AFFF7B3FC0028E4DD04E00028E1D055
:10EDD00001E0002D0BD0002E02D00298301887B22F
:10EDE0000026E089B04204D10F20C043D2E70020C2
:10EDF000D0E7A1686068C91988421AD369460898A3
:10EE0000099E0881208948818D81FF20887302A88E
:10EE1000FFF725FC2A4631462046FFF7D3FC0028A1
:10EE200003D102A92046FFF770FC0028B2D1284682
:10EE3000B0E708212046FFF7EFFB0021C9436A46EF
:10EE4000118100219181A188091851816168A289ED
:10EE5000090C0904101A0818606002A8FFF7FFFBEC
:10EE600002A92046FFF751FC0590211D2046FFF71F
:10EE700098FE6068000C0004A0600598002889D105
:10EE80002046FFF7E0FC002884D1761CA9E770B586
:10EE9000002380241D46934202D2C65CCE5404E077
:10EEA000934201D1CC5400E0CD545B1CDBB2102B5B
:10EEB000F1D370BDC0681C22514340187047000058
:10EEC00010B508484068002802D0F9F7A5FC10BD2D
:10EED0000549002209208A74FAF79CFD01F0ACF97B
:10EEE00010BD000098300020B8310020F0B5154664
:10EEF00002460B4600202B43C043634E85B0002AD8
:10EF000028D0344658340394604C012A2AD0022A6F
:10EF10003AD0032A1CD100297DD001297CD00229B6
:10EF20007BD003297AD00026002E11D0A1684A8B0D
:10EF300032420DD0097EA9420AD3082E6FD0052196
:10EF40005148F7F76DF9A0682946426A3046904764
:10EF500005B0F0BD002BFBD10020B065F065306638
:10EF600070660FE0002BF3D1A068027D0169B01A32
:10EF70006830F1F7D1FEA068017D1020411A039896
:10EF8000F1F7E5FE0020E3E70B00F5F7AFFA050423
:10EF900006080A0C0E00012708E0022706E00427F5
:10EFA00004E0082702E0102700E00027002FCFD060
:10EFB000A168CA8A3A42CBD0497DA942C8D30E2162
:10EFC0003148F7F7BFF9002803D007212E48F7F79B
:10EFD00027F9102F24D004216846F9F7EFFE2C49B9
:10EFE000A80040188038C16F0098F1F735FE264818
:10EFF0000A0C6430130A0091037042700A0A82708E
:10F00000C1700020B065F0653066204800998068C6
:10F01000C26938469BE72CE02DE02EE02FE030E07F
:10F0200029466846F9F7CAFE00246F460CE0385DB1
:10F030002421F1F711FE39550A2901D2303100E0BF
:10F0400037313955641CE4B2AC42F0D30020785516
:10F050002A4669460398F1F75FFE1020411B70199C
:10F060005830F1F774FE09488068016A684688479D
:10F070006EE7012658E7022656E7042654E70826DD
:10F0800052E706215CE7000098300020980200203B
:10F09000E84B010070B50C4605460521FEF7CDFD95
:10F0A00021462846FEF760FD70BD0000F0B504461D
:10F0B0008DB00E215348F7F745F900287ED052480D
:10F0C000406B05900AA8049006902078002804D090
:10F0D000601C03F0E7FD012801D002208AE0E078FF
:10F0E0000128FAD849498968C96A002903D000284B
:10F0F00001D0012200E0002209214248F7F7B3F8CD
:10F10000207908900128E8D8607907900828E4D889
:10F11000A01D03F0C7FD09904009DED1257A082D16
:10F12000DBD82046093003F0BDFD07460009D4D1E5
:10F13000344E2178F289B089F9F7A6FAB060002838
:10F1400057D002A8019000953946079B089A099864
:10F15000F6F762FB30460B2221468930F1F7DCFDE1
:10F16000022104A8FFF796FF002104A8FEF7FCFC8B
:10F1700009213046F7F7E6F8C1B204A8FEF7F4FC1F
:10F180006846417A04A8FEF7EFFC6846C17A04A8F5
:10F19000FEF7EAFC6846417B04A8FEF7E5FC04990B
:10F1A000304605229430491CF1F7B6FD04A800F062
:10F1B0001BFB00281BD16846027B00E017E0817A28
:10F1C000007AFFF793FE002802D0022000F0C6FB71
:10F1D00009210C48F7F7B6F8002803D00B488068DF
:10F1E000C06A80477068002807D002F009FA0DB0A5
:10F1F000F0BD052000F0B2FBF9E70A210148F7F75E
:10F200000FF8F4E798300020D84B01009802002056
:10F2100010B50348FCF724FEFBF77CF810BD000096
:10F22000F031002010B5054905A0F5F737F907A022
:10F23000F5F734F906A0F5F731F910BDE043010008
:10F240004150505F4442472025733E20000000009B
:10F250000A00000070B50E210E48F7F773F8002879
:10F2600017D00C4D0E212846AC68F7F76BF8002834
:10F270000FD02046F9F726FF00202946FF22203133
:10F28000A8600A75FAF7C6FB227D21886088F9F725
:10F290004FFB70BD9830002010B501461022084881
:10F2A000F1F73AFD06480E213838F7F74BF80028F9
:10F2B00002D002F01DFA10BD01F020FF10BD0000C9
:10F2C000D0300020F0B504463B489DB0C06F0A9096
:10F2D0001AA83A4909900B90C81FFE380CAA0E468E
:10F2E0000546F9F75DFE002801D007200FE010AABF
:10F2F00031462846F9F726FB0028F6D102AB224614
:10F3000010A90CA8F9F7E0FA002804D0062000F0B4
:10F3100025FB1DB0F0BD14AA31462846F7F74CFD79
:10F320000028E2D106A803F0BDFC18906846807E54
:10F3300006AC03341990204603F0B4FC0604A01C6C
:10F3400003F0B0FC0643201D03F0ACFC0746082187
:10F3500009A8FFF79FFE09A800F046FA0028D8D1B7
:10F360001648FF21F938164D01752868002809D084
:10F3700014480068002805D013484068002801D0D0
:10F38000012400E0002414A800970190334602A84D
:10F39000199A1899F9F738FB0028BAD1286800287B
:10F3A00003D0002C01D0F9F7FBFB04487D210901B3
:10F3B0005F30FCF773FDACE7D84B0100B1310020A2
:10F3C0001C040020180400209830002010B50146CD
:10F3D0002022274803F07FFC25480E211438F6F739
:10F3E000B1FF234C0C34002827D0204606212038BA
:10F3F000F6F7A8FF00280FD1204605212038F6F7A0
:10F40000A1FF002808D1204607212038F6F79AFFEF
:10F41000002802D00420207510BD15480C21143896
:10F42000F6F790FF002802D001F068FE10BD1048EA
:10F430000D211438F6F7F4FE10BD0D4809211438DB
:10F44000F6F780FF002810D00520207508480C2111
:10F450001438F6F7E5FE064807211438F6F723FFBF
:10F460000028E9D001F04CFF10BD02F0C9F810BD32
:10F47000AC30002010B50078FAF7CCFA10BD0000CF
:10F4800010B507210648F6F70EFF002807D0002127
:10F490000348F6F757FF002801D001F02FFE10BDFA
:10F4A0009830002010B50446294888B08068019043
:10F4B00003A8009002902178002902D00020F6F7DE
:10F4C00065FF24482178017201216846FFF7E2FDBB
:10F4D000F7F794FC01466846FEF746FB01216846B3
:10F4E000FEF710FB1C4CA068817A6846FEF73CFBD7
:10F4F000A0680069002801D0012100E000216846D1
:10F50000FEF732FBA068417D6846FEF72DFBA06840
:10F51000C18A6846FEF7F6FAA068017E6846FEF7E3
:10F5200023FBA068418B6846FEF7ECFA0948009976
:10F530000B220930491CF1F7EFFB684600F054F943
:10F54000002803D1034802216038017508B010BDBE
:10F55000D84B0100183100209802002000B5104857
:10F5600085B0C06F019003A800900290002168460A
:10F57000FFF790FD0B48017C6846FEF7F5FA00980E
:10F580004178084880300172684600F02DF9002863
:10F5900003D1044801212030017505B000BD0000F1
:10F5A000584B01009830002070B51E4E1E49B06BBC
:10F5B0000068057830467830FCF770FC344620341B
:10F5C000217DB06BF7F77AFC002814D0207CFBF784
:10F5D000A9FA207C607400202074F01F0821F938FB
:10F5E000F6F7B0FE002801D0032002E00A2D03D375
:10F5F000022000F0B3F970BD092D04D00948E038AD
:10F60000007DA842F0D1094AE90088188388B06BD0
:10F610005B1C8488A342EBD100685158401C88478A
:10F6200070BD00009831002060EA0000804B0100AE
:10F63000024800682030007A704700001002002065
:10F6400070B5064690B00E212348F6F77BFE224C9B
:10F650002546D935993400280BD000211E48F6F7ED
:10F66000DFFD402231462846F1F756FBFFF7D0FD7B
:10F6700010E0402231462046F1F74EFB09211648A2
:10F68000F6F760FE002805D001211348F6F75AFE70
:10F6900000281BD00E211048F6F754FE002800D099
:10F6A0002C4620222146684603F015FB2022A11893
:10F6B00008A803F010FB09496846F7F789FB002802
:10F6C00002D0072000F04AF910B070BD00210248B6
:10F6D000F6F7A6FDF8E7000098300020CDF3000013
:10F6E0001FB51D4A0446014610466B462030F9F707
:10F6F000C1F8002801D0072008E01749102220395E
:10F700006846F1F744FB002803D0042000F026F9F6
:10F710001FBD11480E215838F6F714FE0E4A103A54
:10F72000002802D01146224600E021460A4BC13390
:10F730001846B138F9F740F90028DCD106480E2107
:10F740005838F6F7FFFD002802D001F0E1FE1FBD9A
:10F7500001F0CEFF1FBD0000F030002070B5022187
:10F760001E48F6F7EFFD00281AD004211B48F6F7D3
:10F77000E9FD002802D07D24240100E0184CFCF7AC
:10F78000BCFB164DFF224132FF23525945335B59D2
:10F79000821A9941E017A21A884102DA00F03EFD70
:10F7A00070BD0024A0004119FF310131C86C002850
:10F7B000F6D08269127A52060CD4621C032A05D252
:10F7C000096D002902D00022114601E000220549FE
:10F7D000F6F7A4FB641C032CE4D370BD9830002022
:10F7E00030750000A402002010B504460A490B48F9
:10F7F000FCF754FB0A480068002808D00948406814
:10F80000002804D022460321F9F79CFA10BD2046B7
:10F8100000F00AF810BD000060EA0000103200207D
:10F820001804002098300020FEB50446FFF7F0FCD5
:10F83000F5F78AFB05000BD00E214648F6F782FD4E
:10F84000011E4548017A08D07F2904D0491C09E0EF
:10F850000620C043FEBD002104E0002901D0FF299D
:10F86000F4D180210172C8B202903B4E2846403E3E
:10F870000C300746F16AFEF753F938460299FEF755
:10F8800073F92079142801D8002006E01438C0B29A
:10F890001721F1F7E1F9401CC0B28006010E38468D
:10F8A000FEF762F9A1883846FEF72CF92179206825
:10F8B000F7F7F2FA01463846FEF756F9F564A088E4
:10F8C000142800D31420C5B22A4638462168FEF712
:10F8D00040F929462046FEF752F901252FE0032D75
:10F8E00004D3FAF717FD1120C043FEBDF5F72CFB3A
:10F8F00000282BD01749AF007918FF310131C864B7
:10F90000A188172900D31721C9B200910C30F16AE0
:10F910000190FEF705F902990198FEF725F9BF1C41
:10F92000F9B20198FEF720F92168009A0198FEF7D4
:10F9300010F920460099FEF722F96D1CEDB2A0885F
:10F940000028CCD101F0FEFE0020FEBDFAF7E2FC5B
:10F950007EE7000098300020D831002010B5044622
:10F9600086B00E210F48F6F7EDFC002804D02046A3
:10F97000FAF750F806B010BD0B48092180680190D5
:10F9800003A8009002906846FFF784FB2146684672
:10F99000FEF7EAF86846FFF727FF08210148F6F767
:10F9A0003FFCE7E798300020584C010070B5044652
:10F9B0000078002827D16278500824D1144DA86817
:10F9C000807A82421FD109211248F6F74CFC0921A6
:10F9D0001048F6F7B7FC002804D0A868C0680028D3
:10F9E00000D080470B48052221469430F1F794F966
:10F9F00008480321203001752279E178A078FFF7CB
:10FA000075FA002802DA0220FFF7A8FF70BD000097
:10FA10009802002098300020F7B514460E46009852
:10FA2000F7F77CFBC01E85B2A088B706BF0EA842C0
:10FA300009D239462046FEF7F9F8A28821680098D5
:10FA400000F032F8FEBD394640312046FEF7EEF8B0
:10FA50002A462168009800F027F829462046FEF73C
:10FA60008EF880371BE0401CA8420BD2C0203146E4
:10FA700001432046FEF7DAF8A2882168009800F0DA
:10FA800013F80FE039462046FEF7D0F82A462168E1
:10FA9000009800F009F829462046FEF770F8A08883
:10FAA0000028E0D10020FEBD70B50A4D2B466C68E1
:10FAB0001B78002C01D0022B06D0AC68002C01D0A2
:10FAC000012B03D0002070BDA04770BDF8F752FF96
:10FAD00070BD00001004002070B506462B48EAB047
:10FAE000C068079009A8069008900020B4680390A9
:10FAF00004900590A1886A461182217A9175009040
:10FB0000029003A801903046F7F7F8FD00886A4696
:10FB10001081F8F789FD6A469072D07AE188400832
:10FB2000C9044000C90F0843D072002C27D0E088D8
:10FB30000005000DF6F7F4FA050023D02888F9F740
:10FB400091FB00902888694688816888C88120696F
:10FB50008288016806A8FDF7FCFF60890722410B37
:10FB6000490352038918C004C00C01436181334624
:10FB7000064A06A96846F9F775FC6AB070BD1220FE
:10FB8000C043FAE71720C043F7E70000D44501005F
:10FB900070B58D680C46002D1ED06889400B05D0CD
:10FBA000687AC1083220491C41430FE00846F7F744
:10FBB00075FE060007D0FCF7A8F9E968401AB042C4
:10FBC00003D3012102E0002100E0311A002903D013
:10FBD000A0681830FCF762F970BD10B59468002970
:10FBE00009D1617A60894907400B490F884202D1E7
:10FBF000FCF78BF9E06010BD70B50546002409E004
:10FC0000284603F0B0F80460417949084900417181
:10FC1000FEF757F8284603F0BDF80028F0D070BD75
:10FC2000F8B5074615460E465478506801E0641E44
:10FC3000E4B20178401C002901D0002CF7D1A8784B
:10FC4000002803D0002C01D0641EE4B2287881077C
:10FC50000DD5E978102902D0082904D007E0002C3E
:10FC600005D0A41E02E0002C01D0641EE4B2C0073F
:10FC700003D007E020213846B0472046641EE4B296
:10FC80000028F7D1A978002901D03846B047287854
:10FC9000800710D5E878102802D008280FD00AE095
:10FCA00030213846B0472878400701D5582100E078
:10FCB00078213846B0472878C00705D109E03021BF
:10FCC000F7E730213846B0472046641EE4B20028EA
:10FCD000F7D16C6801E03846B0472178641C0029F0
:10FCE000F9D1F8BD01480068007970471002002082
:10FCF0000B4610B501461846F1F70EF8002010BD6E
:10FD0000FFB5C5B00020049045981E4600680390DA
:10FD100045980C46808805287ED304A92046FBF729
:10FD2000FDFE002878D101214598FDF728FF459870
:10FD3000FDF72DFF81074004C50CCF0E4598FDF758
:10FD400057FF4109C0063943C00E0191029081421C
:10FD500062D8BE48217D0068C907C90F401A010A50
:10FD600002062069431BDB04DB0CC01A024332602D
:10FD7000716002984E99401C0690087000251AE0A8
:10FD8000B348A901806822890818018A914211D1DB
:10FD9000418A628991420DD10CCE8768083EC168C4
:10FDA000BA1A99410CD2C17D490603D5012100F050
:10FDB00041FF04E06D1C00F0B3FBA842E0DC002032
:10FDC000050043D03168AA687068EB68891A9841C9
:10FDD000A2D30398AA7D0078029982421CD1E87DC3
:10FDE0000090C206D20E8A4216D1298A2089059037
:10FDF000814211D1688A6789B8420DD10098217D6E
:10FE000080060907C00FC90F884205D10098400637
:10FE10005ED4ED69012000E083E00021521CF0F780
:10FE20006BFF401E85427CD100980096C009019569
:10FE30000290A37B20683946059A01F0D5F8049812
:10FE400000284BD0214603F0F3FD47E0207D00075A
:10FE5000C00F00F053FE029905464D436D1C00F0A3
:10FE600059FB85420FD9207D0021C00900960191E0
:10FE70000290A37B22896189206801F0B5F81420E3
:10FE8000C04349B0F0BD73480068002810D0207D01
:10FE9000C1090DD040060BD44E983346007800902F
:10FEA000206862892189808BF7F7E6F8002818D04E
:10FEB00032462046029B039900F040FE05001DD00B
:10FEC000E87D217D4006400EC909C9010843E87557
:10FED000019801278740E869074212D00120C043FA
:10FEE000CFE7207D0021C009009601910290A37BFD
:10FEF00022896189206801F077F866E00820C04314
:10FF0000BFE7029901988842E87D0BD18006C00FB7
:10FF100000F0F4FD02994843459989884018A88269
:10FF20000CE008E08006C00F00F0E8FD01464598AF
:10FF30008088814202D00020C043A2E7FBF7E5FFA2
:10FF40002862284624300090FBF79DFF00280AD144
:10FF5000F7F704FB002806D12846F4F769FF0146AD
:10FF60000098FBF79BFF207D0007C00F00F0C6FD47
:10FF700000F0CAFD01996A6889005050002814D029
:10FF800045998A880968F0F7C7FEE86900210743A8
:10FF9000EF610120069AF0F7AFFE401E874217D0AE
:10FFA00047990120087000206BE7207D0021C009DF
:10FFB000009601910290A37B22896189206801F05B
:10FFC00013F80121284600F035FE0620C04358E70B
:10FFD0000498002802D0214603F02AFD4798022108
:10FFE00001700098FBF73CFFE87DE969C0090096C5
:10FFF00001910290A37B22896189206800F0F4FFBF
:020000040001F9
:10000000207D000712D514480022806C019005A8BD
:10001000009002906946284600F0CEFD03983346D2
:1000200001786A462046F9F7E5FE08E00398234682
:100030004078C20903980178284600F0DDFA0446AA
:100040000021284600F0F6FD20461AE7882F002000
:10005000AC020020D8030020684C010030B50546F2
:10006000104887B0C069029004A80C460190039024
:100070000D4901A8F7F7E9FBF8F7CAFE014601A808
:10008000FDF772FDF8F7D4FE014601A8FDF76CFDFF
:1000900000200346009001AA21462846F7F706FDF6
:1000A00007B030BDC046010028800000F0B506460C
:1000B000204887B0806A029004A801900390B46A37
:1000C0000F46002C1CD010680078002801D00128B1
:1000D0002ED16179022903D0814203D0012502E0AB
:1000E000002506E00025607110684078A071F8F7DF
:1000F000AFFFE08DC00703D0002D01D0F7F766F801
:100100000D4901A8F7F7A1FBF8F782FE014601A807
:10011000FDF72AFDF8F78CFE014601A8FDF724FD46
:1001200000200346009001AA39463046F7F7BEFC8E
:1001300007B0F0BDC04601002880000030B50B4874
:100140000B49406885B0C068144688420CD11046FF
:10015000FDF74EFD05462046FDF74AFD694608724B
:1001600029466846F9F7D8FA05B030BDD00300201B
:1001700028800000FFB5044687B016460F46008968
:10018000F6F742FE002803D00720C0430BB0F0BDB5
:100190002089F8F7D9FA0025ED43002816D00C493C
:1001A000227D0968D207D20F891A628923890293B6
:1001B0000591119900910392019604970121001D68
:1001C000109B0A9AF5F717FF0028DFD02846DDE7D5
:1001D000882F002070B5104C002903D00020E0705B
:1001E000606470BDE179491CE1710B4960820720B0
:1001F000091F0871FCF73AFA0546FCF737FA01289F
:1002000001D9012001E0FCF731FA291A2046143007
:10021000FBF744FE70BD0000AC2F002010B500F0CD
:100220000BF804488068426B002A02D000210120AC
:10023000904710BD9802002070B52248FBF710FED1
:100240002048F838007A002803D000210846F6F745
:100250009DF80E211C48F6F775F81B4C002805D0B8
:10026000A068002802D00021F8F760FA174800685B
:10027000002804D06068002801D0F6F76BFDFEF777
:10028000C7FFFF2159311048F0F761FD0D48FF21EC
:1002900058380F4D41740B4C6868783C002803D0E7
:1002A000FDF7CFFC686801E0F8F770FCA06301205F
:1002B000F8F772FD002801D0002070BD0D20C0436A
:1002C00070BD00001032002098300020180400207B
:1002D0009802002000B506480649406885B0C0680D
:1002E000884203D100216846F9F716FA05B000BD2F
:1002F000D00300204A80000001480068C06A7047AF
:1003000010020020024800682030007C7047000086
:1003100010020020024800682030407C7047000036
:1003200010020020024800682030807C70470000E6
:1003300010020020F8B51C4C207E81072FD52746DF
:10034000203F3E781120304338700020174D207731
:100350000021637822780846F3F77EFBF5F734FC3A
:100360002879C00702D0207F401C03E0E878C0074E
:10037000F4D000202077F3F753FB207F002805D02E
:10038000C008E5D0F2F7F4FF3E70F8BD207E802172
:1003900008432076E07E012103F0EAF8F4E7400705
:1003A000F3D5F2F7E5FFF8BDB82E0020802E00202F
:1003B00070B51C4D0C46287D890708D5022804D04D
:1003C000FFF7A0FF687503F01DFA022025E0210762
:1003D00003D503F061FA08201FE0E10703D000F025
:1003E00083F8012019E0610703D500F07DF80420AF
:1003F00013E0E10613D504280ED10A48183000781E
:1004000041078007014301D4F3F70AFB287A04214E
:1004100003F036F9012028751020604070BD0020DF
:1004200070BD0000502F00200148006840787047E0
:1004300010020020FFB581B0002808D01022002152
:1004400002F08AFA002486B22746234D0DE00720E9
:10045000C04305B0F0BDE86AE100415AB14203D1A2
:10046000E86AE100441805E0641CFFF7DDFFA042E4
:10047000F1DC3C460298002802D0002C0CD012E09F
:10048000002C01D0276067600020E2E7E86AE10005
:10049000405A002817D0641CFFF7C6FFA042F5DCC5
:1004A0003C46002C15D004236A4604990398FCF7B7
:1004B00013FA0028CDD100980102090AC001C00F2B
:1004C0006160A070E0E7E96AE0000E52E96A0C188A
:1004D000E7E70820C043BCE7083000200148006877
:1004E000808A70471002002010B5094C207D022838
:1004F0000DD0207800280AD0FDF730FF04202075A9
:10050000FAF7F6FD207A1022042103F07FF810BDDF
:10051000502F002001480068C08970471002002059
:1005200001480068007B70471002002010B5817EF2
:10053000002916D0017F491E0906090E017710D146
:10054000418A0122D203002901D0914202D3437F84
:10055000002B07D0437E9B0608D000212830FBF7F4
:100560009DFC10BD002100F019FC10BD002907D032
:10057000914205D2C17E32225143FF319131EDE7E4
:100580003221EBE770B5014618480546F5F73EFE07
:10059000164C083C20894005400F01D0002419E08A
:1005A00006212846F5F7C5FE00280DD01049A068A1
:1005B000084206D0FFF792FF044602F0C7F98442D2
:1005C00002D2FFF78BFF01E002F0C0F97D21C900E4
:1005D000484304460748FBF756FC002801D0A042D8
:1005E00003DB21460348FBF759FC70BD902F002028
:1005F00080F8000058300020FFB507466548F1B08C
:10060000C06B0A9010A809900B90B8681D460002B4
:10061000000A0490B98A1646002A01D0082000E09A
:100620000420401C814203D20020C04375B0F0BDBD
:1006300059480068002802D0287D400670D5688996
:100640000121C9030122411A9203914202D2F6F715
:1006500031FF00E000200C9070A8007A0F90800914
:10066000C00703D04D480024059089E00E214C4876
:10067000F5F771FE00281ED0324609A9384600F071
:100680009BFA099808900690B98A002E01D008209C
:1006900000E00420081A6946C8830020888306A960
:1006A00009A801910090334628460C9A0499FFF757
:1006B00061FD00280CD0324609A9384600F07CFACA
:1006C000099808900690B98A002E04D0082003E00B
:1006D0000220C0431FE00420081A6946C883002096
:1006E00088832E48297D803800686A892B89C9074C
:1006F000C90F401A0590029306A800900C9927484C
:100700000392019109AB324601211030F5F773FCD9
:1007100000288BD1801EE88006A92846F7F762F9E9
:1007200032E005982822416A204650430D9008186F
:100730000E90324609A9384600F03EFA0998089012
:100740000690B98A002E01D0082000E00420081A83
:100750006946C8830020888306A80F9A00920390F8
:1007600009A9059801960291416A0D980C9B0918F8
:100770002846049AF4F762FD002807D0641CA4B24E
:10078000F4F7B8FFA042CCD800204FE70E9840887D
:10079000C1E70000684C0100D803002008300020A9
:1007A00098300020F7B58AB01646044603F03AF9AF
:1007B000001D02F017FE070013D0002007900697D7
:1007C000089003F02FF96946001DC8830897B08888
:1007D000052809D2384602F019FE0020C0430DB0AA
:1007E000F0BD0820C043FAE744480068002802D062
:1007F000207D40067AD560890121C9030122411A72
:100800009203914202D2F6F755FE00E000200990D3
:10081000B088001FB08008A8007B05908009C00741
:1008200001D000255EE00E213548F5F794FD002843
:100830000FD00020694688830898069006A801908A
:100840000096002321692046099AFFF793FC0028AF
:1008500022D0002069468883089806902948217D87
:100860000068C907C90F401A628921892369059068
:1008700002A80EC006A800900999224801913346AB
:10088000002201219030F5F7B6FB050007D038466D
:1008900002F0BCFD2846A2E70220C04301E001208F
:1008A000C043E08006A92046F7F79CF81EE01548F3
:1008B0006A468030416A2820684309180020049164
:1008C0009083089A0692059B06AA009301900296CF
:1008D000039222692046099BF4F7B0FC00280AD055
:1008E0006D1CADB2F4F706FFA842E0D8384602F01E
:1008F0008DFD002073E704984088D2E7D8030020DC
:1009000098300020882F0020FEB5064680881528E4
:1009100073D330680024414F00900FE0E420B96A9F
:1009200060430D18A98B3E48814206D01522A81DB0
:100930000099F0F72CFA002808D0641C02F038F96E
:10094000A042EBDC0024002C5DD101E02C46FAE74C
:1009500030463768FDF74CF9054608213046FDF76B
:100960003FF904463046FDF720F9029001A83368AC
:10097000009029462046029AF8F73EFC04004BD02E
:10098000E07F022803D168460079002844D0394628
:100990001522A01DF0F7C0F90020F8F763FC00282D
:1009A00002D0A08B00282ED11C480321783806469F
:1009B000F5F7ADFC00280AD002213046F5F7A7FC78
:1009C000A907C90F884202D10020F5F79DFDA807AD
:1009D000C10F0298F7F7AEFA06466846E9070279B2
:1009E000C90F2046F6F73AFD050002D02046F7F77A
:1009F00093F8002E02D0002003E00DE0002D02D07D
:100A00002046F7F71FFDF5F76DFD012804D1607949
:100A1000FF2801D2401C6071FEBD0000083000209C
:100A2000FFFF0000F8B5FBF770FA0746002429E045
:100A30001948816AE42060430D18A88B1749884241
:100A40001FD028681649381A884206D22979154AD3
:100A5000514352108918814213D8002211460220B6
:100A6000F5F7F6F9060013D031460C312846F5F7B4
:100A7000DFFC2A460C493046F5F750FA3046FDF7C0
:100A800020F9641C02F094F8A042D1DC0020F8BDEB
:100A90000620C043F8BD000008300020FFFF000022
:100AA000C027090010270000144601003EB5044687
:100AB000243CFBF72AFA216A401A0F49884204D9DC
:100AC0000021204600F0B6F83EBDE07DE1692246F7
:100AD000C0090832009201910290237E228A618A25
:100AE000206800F081FA2046F4F7A2F9014620467A
:100AF0002430FBF7D3F93EBD60EA0000002801D0A6
:100B0000082070470C20704701B504480022006897
:100B1000694603681046984708BD00002846010052
:100B2000024A0146126800209268104728460100D8
:100B300010B5283800F08EF910BD0000FFB581B067
:100B40001F46054600241B4E06E0B168A001401870
:100B5000C17D490607D5641CFFF7E2FCA042F4DC26
:100B6000002005B0F0BDC17D40221143C175296848
:100B70000160C17DDF2211402A7D1207D20F520190
:100B80001143C175039906C9C2608160C17DFA062F
:100B900049094901D20E1143C1750299097881753D
:100BA000A97B017629890182698941820021C1617D
:100BB000D7E70000AC020020F7B50446002088808B
:100BC00088680E460025086023E08006C00FFFF706
:100BD00095FF0746E07D8006C00FFFF78FFFA18AD3
:100BE0006843081A8742E07D04DA8006C00FFFF7E9
:100BF00085FF06E08006C00FFFF780FFA18A6843EB
:100C0000081A6168AA00895802463046FCF7A1FF1D
:100C10006D1CE07DC106C90EA942D6DA800608D453
:100C20000298B188002801D0082000E00420081AAA
:100C3000B080FEBDF3B5044681B02430FBF710F957
:100C40001C480068002814D0E07DC10911D0C206FC
:100C5000D20E01200021521CE569F0F74DF8401E2C
:100C6000854206D02346628A218A08332068F6F737
:100C700059F900252F4609E06068AE008059002828
:100C800003D0FFF74DFF606887516D1CE07DC00603
:100C9000C00EA842F0DAE07DBF210840E07502985E
:100CA000002805D00021A1602760E16027826782CB
:100CB000FEBD0000D803002070B50646507E1446E5
:100CC0000D4640060CD4206A002809D00368002B8A
:100CD00006D03046626A9847607E402108436076BD
:100CE000002D02D02046FFF721FC70BD10B508464C
:100CF000FFF71CFC10BD038A8B4204D1408A90424E
:100D000001D10120704700207047F7B504460089E3
:100D10000D46C604207EF60C8006C00FFFF7EEFEDF
:100D20000746207E8006C00FFFF7E8FEA18A6843D1
:100D3000081A8742207E04DA8006C00FFFF7DEFE25
:100D400006E08006C00FFFF7D9FEA18A6843081AA3
:100D5000C7B2A17D0298FCF707FF207E4006C00FB6
:100D6000C101B00901430298FCF7FEFEB006010E76
:100D7000E80801430298FCF7F7FE6807010E207EA1
:100D8000C006C00E01430298FCF7EEFE6068A900A1
:100D900041583A460298FCF7DCFEFEBDF8B50F4616
:100DA0000546466A046A00F0E7F8284600F018F89D
:100DB000002C05D06268002A02D0314638469047A0
:100DC000F8BD70B5044640688D004059FFF7A8FE95
:100DD000616800204851A07E401EA07670BD0000D2
:100DE00070B504462830FBF73BF8002626626662A1
:100DF000A660E660266026826682607E35464006F2
:100E0000400E607609E06068A9004058002803D0D1
:100E1000E9B22046FFF7D5FF6D1C207EC006C00E4C
:100E2000A84202DBA07E0028EDD10948A6768268A0
:100E3000202113468B430A42836008D000680021BA
:100E4000F7F778F8002802D00020F7F7FBFA70BD1A
:100E5000882F002070B50446464886B007C803AB0B
:100E600007C320686946808B8881207E800200B29B
:100E7000000CC881608A0882E07E8875002000909E
:100E8000019002902068009003A80190208A0881B8
:100E9000E07D8872C87A217E40084000C909084375
:100EA0006946C872A17D8007800F890008436946A2
:100EB000C872607F002838D11621C9432046FFF749
:100EC0006DFF06B070BD616880000858002823D00F
:100ED000E17D00220120F4F7BBFF050031D0284658
:100EE0000C3009210646FCF7A8FE607E32468106DA
:100EF000890E2046FFF709FF207F1E4A401C2077FD
:100F00002346083A29466846F7F7BCFA002803D07A
:100F1000207F401E207714E0607E0621C841012119
:100F2000890640181A21C8416076607E217E8006BD
:100F3000C906800EC90E8842C5D9607E800980012D
:100F40006076207F002811D1608A002809D0012115
:100F5000C903884205D2E17E32204143FF319131FD
:100F600000E0322120462830FAF798FF607F401ECB
:100F70006077A6E7704C0100F1B500242546194FB3
:100F80001FE048202E464643786800993018884272
:100F900016D0417EC90913D0428A018A0098FFF712
:100FA000AAFE00280CD0002C08D07868A168301860
:100FB0008368C068E268591A904101D27868341891
:100FC0006D1C02F077FCA842DBDC002C08D0607EB0
:100FD00000214006400E607620462830FAF75EFF7A
:100FE000F8BD0000AC020020F0B58BB00027129EC7
:100FF000224C9C460D46039704971ACC0591079402
:101000000693838B69468B820A8362468A770290B5
:1010100005A80390002E02D0F7F718FC00E0284640
:1010200069460882F7F700FB6946887410980088C3
:10103000C404E40CF6F792FA002805D1002D03D081
:101040000120C003854202D300200BB0F0BDA000F8
:10105000F1030843010A08AA117050701198010C9D
:101060000B0A9370D170010A117150710097062319
:10107000002102A80197F5F771FEE6E7884C010010
:1010800070B50446124886B0406B029004A80190E7
:101090000390A06A0E46002817D00830FAF7F3FE36
:1010A0007D21C900EFF7EEFDC5B20A4901A8F6F7A8
:1010B000CCFB294601A8FCF757FD00200346009011
:1010C00001AA31462046F6F7F1FC06B070BD0000DB
:1010D0009C4A01000780000070B504000D460CD04A
:1010E0002368002B03D00A4600210846984763680E
:1010F000002B02D029460020984770BD30B5254806
:1011000089B0006C019003A8234900900290084622
:101110000D462030F7F7CAFB002822D11E4A294687
:101120001032104614466438F7F7B4FB002818D183
:101130001948102120380546F7F740FE002810D145
:1011400005216846FDF7A6FF10216846FCF7C9FC9B
:10115000114A0346103A29462046F7F78BFB002830
:1011600004D00720FEF7FAFB09B030BD6846FEF751
:101170003BFB0028F8D108480E216838F5F7E2F863
:1011800005494839002802D005200875ECE70620FB
:10119000FBE70000D84B01000031002010B50348E8
:1011A000007C0007C00F00F003F810BDA82F00203E
:1011B00011B51D4889B0014618310EC902AC0EC4E4
:1011C0001A496B46896A8A8B1A81184A803A128DAD
:1011D0009A81C06A079002A805910690F7F736FB3E
:1011E000124C6B4698835C3CE078002808D00128BC
:1011F00003D0207B02210843207300200AB010BDD9
:101200000021094801230191009009AA194605A867
:10121000F5F7A4FD0028F1D1217BFD2211402173B7
:101220000121E170EAE70000A84F0100083000202A
:1012300070B504460D4886B0406C029004A8019039
:1012400003900E460A4901A8A56AF6F7FEFA697AE4
:1012500001A8FCF789FC00200346009001AA314652
:101260002046F6F723FC06B070BD000040470100A1
:101270001180000030B505460D4887B0806F0290A0
:1012800004A80C46019003900A4901A8F6F7DDFA7C
:10129000F5F74AFF014601A8FCF766FC002003466B
:1012A000009001AA21462846F6F700FC07B030BDA1
:1012B000404601001480000030B504460E4887B057
:1012C000806A029004A80D46019003900B4901A882
:1012D000F6F7BBFAA06840890005010F01A8FCF7EA
:1012E00043FC00200346009001AA29462046F6F759
:1012F000DDFB07B030BD00009C4A010037800000D4
:1013000000B5094885B0806D019003A80090029057
:1013100004216846FDF7BEFE6846FEF765FA0348FD
:101320000521017505B000BDD84B0100B830002083
:10133000FFB50646114887B0C06D029004A8109C06
:101340000D46019003901F460D4901A8F6F77DFA5E
:10135000214601A8FCF708FC01A80999FCF7ECFB61
:10136000394601A8FCF700FC00200346009001AAC2
:1013700029463046F6F79AFB0BB0F0BD4047010016
:1013800017800000FFB589B02D48129E406B029077
:1013900004A8159D01900390149F139C294901A84E
:1013A000F6F753FA394601A8FCF7DEFB01A80B99C2
:1013B000FCF7C2FB002F07D0072101A8FCF791FB27
:1013C0000721EFF7C4FC1DE001A80C99FCF7B4FB62
:1013D000A068C0880105C004C00F090D00030143C7
:1013E00001A8FCF7A9FBA068017A01A8FCF7BCFBE7
:1013F000A068817A01A8FCF7B7FBA068417A01A830
:10140000FCF7B2FB002E08D0042101A8FCF769FB11
:1014100004222946EFF780FC07E0022101A8FCF72F
:1014200060FB2978017069784170002000900346C4
:1014300001AA0A990998F6F739FB0DB0F0BD000032
:10144000C046010019800000FFB589B01B48129EFC
:10145000006C029004A8019003901F46149D139CF9
:10146000174901A8F6F7F1F901A80B99FCF77CFBE5
:10147000394601A8FCF760FB314601A8FCF75CFB8C
:10148000002D08D0042101A8FCF72BFB04222146E3
:10149000EFF742FC07E0022101A8FCF722FB2178CC
:1014A00001706178417000200090034601AA0A99FA
:1014B0000998F6F7FBFA0DB0F0BD0000C046010038
:1014C0001F800000F0B505460F4887B0406E0290BF
:1014D00004A80C46019003901E4617460B4901A82C
:1014E000F6F7B3F9314601A8FCF73EFB394601A8EF
:1014F000FCF722FB00200346009001AA2146284663
:10150000F6F7D4FA07B0F0BDC046010044800000F1
:1015100070B596B00E213648F4F714FF00285AD063
:1015200034483549006F019003A800900290C81F0D
:10153000FE380DAA0E460446F7F732FD002801D00A
:10154000072046E011AA31462046F7F7FBF90028AC
:10155000F6D1274D3146AA682046121DF5F72CFC1E
:101560000028EDD1A8684088F7F77CFE0400E7D09A
:1015700007216846FDF78EFDA07F592148430119D8
:10158000102268463031FCF7E4FAA86841886846C2
:10159000FCF7B8FA2046F6F77DFC01466846FCF7F2
:1015A000E3FA164801686846FCF7BAFAA8680188A9
:1015B0006846FCF7A7FA08216846FCF792FA009BF8
:1015C00011A95A1C0DA85B1CF7F78AF9002804D052
:1015D0000620FEF7C3F916B070BD6846FEF704F9A1
:1015E0000028F8D10248082120300175F3E70000F7
:1015F00098300020D84B0100B1310020882F002006
:1016000010B5384896B0406E019003A80090029043
:101610000020F7F7C1FB04001ED003216846FDF748
:1016200039FD20216846FCF75CFA2022214601F0B2
:1016300052FB20216846FCF754FA2022A11801F041
:101640004AFB0E212848F4F77DFE0099002808D0B7
:1016500025484022993007E00720FEF77FF916B0B1
:1016600010BD21484022D930491CEFF755FB684690
:10167000FEF7BAF80028F2D10B211B48F4F7D0FD91
:101680001A48006800280BD017484068002807D087
:101690000C211548F4F7C4FD0B211348F4F7ACFDF9
:1016A0000E211148F4F74EFE0F4C2034002807D0CD
:1016B00009210D48F4F746FE0028D0D103200EE0A2
:1016C00005210948F4F73EFE002805D10621064809
:1016D000F4F738FE002801D0FF2000E00520207537
:1016E000BDE70000D84B010098300020180400200E
:1016F00000B5124889B0C06C019003A80090029018
:1017000006216846FDF7C6FC10220D496846FCF725
:1017100020FA6846FEF768F800280CD108480E2128
:101720004838F4F70FFE06492839002801D0062072
:1017300000E00720087509B000BD0000D84B01008B
:10174000E030002070B5FAF7D8FBFF2341330F4A91
:101750001D1D9850A95000241546A0004119FF31C5
:101760000131C86C00280FD0621C032A05D2096D14
:10177000002902D00022114601E000220449F4F7BA
:10178000CDFB641C032CE8D370BD00009830002012
:10179000A4020020FFB5054600208FB0189E044625
:1017A0000746079015E0482039464143A348406862
:1017B0000818817E002908D069688A882989FFF77E
:1017C0009AFA07990843079002E0002C00D10446DA
:1017D0007F1C02F06FF8B842E5DC002C04D08021B9
:1017E000002E05D0307810E00320C04313B0F0BDC8
:1017F0006868934A4088904202D0521E904201D1BC
:10180000A17504E0E87A800840300843A075288973
:1018100020826868002E8088608201D0012000E06C
:101820000020FFF76BF9014610988088401EEFF703
:1018300029FAC106207EC90E4009400108432076DE
:10184000617EC0068909890161761099C00E898878
:10185000A182401CA07602217A48F4F77CFD7949E8
:10186000002308390A684968121A100A12060A4346
:10187000A260E0602868206011982062129860627F
:10188000042060772377A87AE075E97A207E8907BB
:10189000BF22C90F1040890108432076E97A40062B
:1018A000C907400E090E08432076617E079B490652
:1018B000490EDB01194311406176002E02D0202130
:1018C000084301E0DF21084020766868807AFF281D
:1018D00001D1F5F767FAE0765B480068002815D07B
:1018E000207E2346C006C00E401C00902068628AFD
:1018F0002989808B0833F5F7BFFB002806D1608A61
:10190000002803D00121C903884240D300206AE0A7
:10191000002E01D0012000E00020FFF7EFF8014683
:1019200010988088814206D8002E01D0012000E066
:101930000020FFF7E3F80746FFF7E6F808900028D5
:1019400025D039461098FCF74BF901463A460898DD
:10195000EFF7E2F906980899626880000D9011503F
:101960003948006800283BD0384803AA80690490B1
:1019700009A80390059020460699FFF7C6F9207E36
:101980000699C006C00E884207D1022206E0204612
:10199000FFF726FA0620C04328E701220121401C58
:1019A00003AB019302910090002E01D0002301E0CF
:1019B00023460833264F00213F682846B8470028B1
:1019C0000ED06868808800280AD00121C9038842A7
:1019D00006D20898FFF7A4F862680D9900205050CD
:1019E0000698401CC0B206901098808800288FD1BD
:1019F00015480068002803D060680068002805D0FA
:101A0000079800280AD0F6F717FE14E02046FFF7E3
:101A1000E7F912991198FFF75FFB0CE02046FFF7FA
:101A200019FA0C480068002805D0F5F797FD002842
:101A300001D0F5F721FE0020D8E60000AC0200201E
:101A4000FEFF0000902F0020D8030020684C01000A
:101A5000E0030020F4030020FFB50E4683B00446E7
:101A6000817A002201200C9FF4F7F2F905000BD0D7
:101A700028460C3009210190FCF7DFF8002F07D031
:101A800038784106490E0CE00620C04307B0F0BD8F
:101A9000606828494088884202D0491E884202D1A5
:101AA0000021019803E0E07A810840310198FCF7B9
:101AB0005BF8B28831680198FCF74BF81E48006863
:101AC000002830D00127009760682189828820682B
:101AD0000023808BF5F7D0FAFE03002819D0009779
:101AE0000297164F00233F681A4619462046B8470A
:101AF000002818D060688088002814D0B04212D224
:101B00002846FCF7DEF806990598FFF7E5FA00206D
:101B1000BCE760688088002805D0B04203D2284620
:101B2000FCF7CFF8B0E729462046069B059AF6F762
:101B3000A9FCABE7FEFF0000D8030020E003002073
:101B4000F8B5134D1C46104600291ED003236A46E3
:101B50002146FAF7C1FE002816D100980002000ABB
:101B6000686000F017F800280DD000F013F8064662
:101B700000F010F86C6801462046EFF76DF8701A17
:101B80000019401E68600020F8BD0020FAE7000040
:101B9000882F002001480068408A7047100200200A
:101BA00010B5074800F0B1F8002807D1044800F04C
:101BB000F3F9002802D1024800F0C4F810BD00007B
:101BC0007430002070B50646154800250468002CC6
:101BD00021D0143C1FE0002E06D0002231462068A0
:101BE00000F06DF8002806D0E068002803D0804798
:101BF000002D00D10546002C0DD02046143004469F
