:020000040000FA
:1000000000800020A500000001000020AF000000DB
:1000100000000000000000000000000000000000E0
:10002000000000000000000000000000AF00000021
:100030000000000000000000B1000000B30000005C
:1000400071300000B5000000B5000000B5000000F0
:10005000B5000000B5000000B5000000D524000088
:10006000B5000000B5000000B5000000B5000000BC
:10007000B5000000B5000000B5000000B5000000AC
:10008000B5000000B5000000B5000000B50000009C
:100090000348854600F08AFA00480047795400007A
:1000A000008000200448804704480047FEE7FEE740
:1000B000FEE7FEE7FEE700003D3000009100000093
:1000C00030B50B46014600202022012409E00D46F0
:1000D000D5409D4205D31D469540491B2546954078
:1000E00040191546521E002DF1DC30BD70B50024BC
:1000F0002546002801DA01244042002901DA0125C1
:100100004942FFF7DDFFAC4200D04042002C00D056
:10011000494270BD03460B439B0703D009E008C961
:10012000121F08C0042AFAD203E00B780370401CA7
:10013000491C521EF9D27047D2B201E00270401C35
:10014000491EFBD270470022F6E710B513460A4657
:1001500004461946FFF7F0FF204610BD421C017807
:10016000401C0029FBD1801A704703460A780270B0
:10017000401C491C002AF9D11846704730B5054685
:100180000020034600E05B1C934205D2EC5CC85C97
:10019000201A01D1002CF6D130BD0321001D401ED4
:1001A000037812021A43491EF9D5104670470346D8
:1001B00003220870000A491C521EFAD518467047DF
:1001C000F0B51FB40646002082B0054640240191D8
:1001D00000901BE0019922460F46304600F008FAD5
:1001E000049A059B801A994110D31046194622465D
:1001F00000F0EEF9361A8F410197224601200021C6
:10020000009F00F0E5F938184D4100902046641E2B
:100210000028DFDC019B00982946324607B0F0BD7C
:10022000F0B507460846584087B0C00F0490480014
:100230000E46590040084908BC1A884105D2384684
:1002400031461E4617460B460246580040081043EA
:100250004CD0300D039040055900400D490D0590DC
:10026000401A0290402872DA18030121000B090598
:100270000843019004980092002805D00199524249
:100280000020884100920190029840210A1A0199A9
:10029000009800F09DF905460C466B4607CB00F030
:1002A000B8F9C0197141039A0E0D0023D7175640B3
:1002B0001A467A40164344D0049A002A2DD0029A56
:1002C000012A039A15DC1205C01A91410126360550
:1002D000001C7141D20F059ED20700930192029635
:1002E0002A46234600F0B5F907B0F0BD384631463E
:1002F000FAE71605224A0F46B218C01AB741012183
:100300000905001C4F4100187F411146181879411A
:10031000E20F10436D19644113E0E2076D081543C5
:100320006408C2071443039A01261205C01A9141BA
:100330003605001C7141CE07400830434908C018FB
:1003400051412A46234600F077F9CDE7FFE70498AC
:1003500001224000C117121A00238B410498314634
:10036000C417381AA141EEE730B40124E407634012
:1003700030BC55E730B40124E407614030BC4FE79E
:100380000000E0FFF0B51FB488B00B990998002475
:1003900048400999C00F490049080991C0070B99C5
:1003A0000090490049080B9109990898A64608430E
:1003B0001CD00B990A98084318D0099801244000D2
:1003C000420D4800410D099824050003000B20430D
:1003D00009900B980003000B20430B9050181C4908
:1003E0004018002201901446104605E00020014606
:1003F0000DB0F0BD032801DA034600E003239C465C
:10040000C11A0AAE0AE05F0008ADED5B4F00F75B72
:100410007D430027AA187C41491C5B1E6145F2DD23
:10042000410004AB5A522104120C0A43240C401C14
:100430000828DFDB01980290009970460191009036
:10044000059B049A0799069800F003F9D0E700008D
:100450000DFCFFFFF0B50C465C4085B0E40FE407EF
:1004600003944C000026640859009446490802464B
:100470000296224321D062460A431ED06200570DE5
:100480004A000E032303550D012402462C4924057E
:10049000781B1B0B360B4018234326436146009004
:1004A0001C46501AB44103D30098401C009002E04F
:1004B000921800985B41002803DA0020014605B03D
:1004C000F0BD0020012109050746864611E064467B
:1004D0001D46141BB54106D36546521BB3417446F5
:1004E00007430C43A646CD07400849082843921805
:1004F0005B4105460D43EAD11046184313D06046D0
:10050000194650407140084306D06046101AB34166
:1005100006D20122002306E000220123DB0702E0CD
:100520000122D2435310009874460105381C6141E2
:10053000029C039D0019694100F07EF8BFE70000AE
:10054000FD0300004A0009030123090B1B051943A1
:100550000A4B10B5520D9A4202DA0020014610BD36
:10056000064B34339A4203DC9A1A00F041F810BD6E
:10057000034BD21800F02CF810BD0000FF03000060
:10058000CDFBFFFF10B5002904DB0124E407404246
:100590008C412146002B04DB1C460123DB07524221
:1005A000A341994200D1904210BD0000064C0125A4
:1005B000064E05E0E36807CC2B430C3C984710340B
:1005C000B442F7D3FFF768FD108A0000408A0000AC
:1005D00010B5202A04DB0146203A9140002010BDCE
:1005E000914020239C1A0346E3401943904010BDDC
:1005F00010B5202A04DB0846203AD040002110BD67
:100600000B46D340D0402024A21A914008431946FB
:1006100010BD10B5202A06DBCB170846203A104142
:10062000C1170B4306E00B461341D0402024A21A09
:1006300091400843194610BD10B5002B08DA00247C
:10064000401C614192185B411A4301D140084000AF
:1006500010BDF0B51FB482B005460C0003D00846AB
:1006600002F086FD02E002F083FD20300246009099
:1006700021462846FFF7ACFF049B059A04460F4627
:1006800018431143084314D0184610431BD0009858
:1006900040210A1A18460599FFF7AAFF05460E469B
:1006A000009A05990498FFF793FF084305D00120AD
:1006B00004E02046394607B0F0BD0020C1170543CD
:1006C0000E432C43374300990E986305401A790571
:1006D000E40A00220C43FD0A0A3002D5002001463C
:1006E000E9E70105101969410C9C0D9D001969414C
:1006F000FFF7A2FFDFE730B58C180278401C130724
:100700001B0F01D10378401C120906D10278401C4E
:1007100003E005780D70401C491C5B1EF9D101E017
:100720000B70491C521EFBD1A142E6D3002030BD04
:1007300030B5174B0022154C5B790DE03C25554335
:100740002D192D6B854205D1002803D0002914D026
:100750000A7012E0521CD2B29A42EFD3002210E08B
:100760003C2555432D196D6B854208D1002806D0D4
:10077000002902D080200243EAE7012030BD521C4C
:10078000D2B29A42ECD3002030BD0000400B0020D2
:100790008800002070B500240A4D0B4E0DE03C206F
:1007A00060434019016A052905D18169002902D0F9
:1007B000042101F041FC641CE4B270798442EED360
:1007C00070BD0000400B002088000020F0B51A48E2
:1007D0000222816B8B0001468039CA50174FFA897B
:1007E000836B9B005B18DA63826B154B856B1C680F
:1007F000144B6243D218AD006D18AA67C26B521C2D
:10080000C263826B521C8263856B0F4A12789542D9
:1008100001D300258563866B0125B6008D51816B60
:100820006143C918B9810564C16B5300D31899425B
:1008300000D9C263F0BD0000644500200090004074
:10084000203E0020E00100208A00002006490268C6
:100850000A6042684A6082688A60C268CA60006949
:100860000861002070470000203E002010B501F014
:1008700035FE10BD10B54321C9000948FFF763FCE0
:10088000084A09A1064802F05FFC0548FFF766FC2C
:10089000014603481038C279103000F029FE10BD1F
:1008A000C43B00209C3B0020415050452025730D47
:1008B0000A00000010B54321C9000948FFF743FCB6
:1008C00008A1074802F040FC0548FFF747FC014635
:1008D00003481038C279103000F00AFE10BD000045
:1008E000C43B0020434455500D0A000070B5054636
:1008F000014608222AA0FFF741FC00282CD0032241
:1009000029462AA0FFF73AFC294C002827D00822C4
:10091000294628A0FFF732FC002828D003222946C8
:1009200027A0FFF72BFC002824D00322294625A06E
:10093000FFF724FC002826D00322294622A0FFF737
:100940001DFC002822D00322294620A0FFF716FC18
:1009500000281ED0222070BD00F00AFE1DE01448C1
:100960000C3000F021FAA08900F094FC15E000F0B2
:1009700057FD12E00220A0710D484321C90010303C
:10098000FFF7E1FB09E000F02FFD06E004206070B6
:1009900003E0E079002101F0A1F8002070BD000023
:1009A000323030205479706500000000323133005D
:1009B000B43B002032303020504F52540000000031
:1009C00031353000353530003232360032323100C8
:1009D00070B505460146032219A0FFF7CFFB00289A
:1009E0001ED00322294617A0FFF7C8FB00281AD003
:1009F0000322294614A0FFF7C1FB144C002815D090
:100A00000322294612A0FFF7B9FB002811D00322C8
:100A1000294610A0FFF7B2FB00280AD0202070BDA5
:100A200000F0DAFB09E000F0B5FB06E001206070A1
:100A300003E0E079002101F051F8002070BD0000D2
:100A4000323230003333310032333000B43B0020D7
:100A5000353330003232310070B50546014603228D
:100A600032A0FFF78BFB324C00280ED00322294620
:100A700030A0FFF783FB002812D0032229462EA0C6
:100A8000FFF77CFB002811D013E0A278082A02D0DF
:100A9000102A02D00DE0002009E000F089FD08E0F6
:100AA0001020A070012000F057F902E0012000F0B2
:100AB000B5FB0822294621A0FFF760FB00281DD0C6
:100AC0000822294620A0FFF759FB00281ED0032248
:100AD000294620A0FFF752FB00281AD003222946FE
:100AE0001DA0FFF74BFB002816D0032229461BA0B0
:100AF000FFF744FB002812D0232070BD0C480C30B7
:100B000000F052F9A08900F0C5FB0CE0FFF7B2FE3F
:100B100009E00120A07106E00820607003E0E079A0
:100B2000002100F0DBFF002070BD000032353000F6
:100B3000B43B0020323537003535300032303020BC
:100B4000547970650000000032303020504F52540C
:100B500000000000313530003232360032323100D0
:100B600070B50C460546014603220FA0FFF706FBB1
:100B7000002808D0012C07D0022C09D0032C0BD060
:100B8000042C0DD02F2070BD2846FFF721FF70BD2B
:100B9000284600F00BF870BD2846FFF7A7FE70BD91
:100BA0002846FFF759FF70BD3432310070B5064654
:100BB0000146082229A0FFF7E1FA2B4C00282CD08F
:100BC0000822314629A0FFF7D9FA00282DD00322A8
:100BD000314629A0FFF7D2FA0225002828D00322A7
:100BE000314626A0FFF7CAFA002823D00322314657
:100BF00023A0FFF7C3FA002823D00322314621A007
:100C0000FFF7BCFA00281FD0032231461EA0FFF7D1
:100C1000B5FA00281CD0212070BD13480C3000F01C
:100C2000C3F8A08900F036FB16E000F069FA13E083
:100C3000A57111E0A078022800D165700020A07095
:100C40000AE000F0D1FB07E0A57000F0B1FC03E082
:100C5000E079002100F042FF002070BD32303020EA
:100C60005479706500000000B43B00203230302021
:100C7000506F72740000000031353000323236009F
:100C800034323500323530003232310010B50D4C7F
:100C9000A079012802D0042806D00CE02078012891
:100CA00001D100F04DFC10BD2079012803D10020B6
:100CB000207100F051F8A07A0028F4D000F0C0F9BB
:100CC00010BD0000B43B002070B590B03C216846D8
:100CD000FFF739FA042215490BA8FFF71BFA144C49
:100CE000144D608809907D2040010A90032043261E
:100CF0000295F600079069460396204600F046FFED
:100D000004F0A6FB0C482178C1710CA002F0F8F9A0
:100D1000207800F00DFF04F09BFB2078314648431B
:100D200040193146FFF70FFA10B070BD208900005E
:100D300068000020300C0020B43B0020536F636B30
:100D4000657449642054435020465450203D20256A
:100D50003032780A0000000010B504464321C90073
:100D60000B48FFF7F0F9012C0FD00A4A0AA10848F6
:100D700002F0EAF90648FFF7F1F901460448103895
:100D8000C279103000F0B4FB10BD064AEEE7000057
:100D9000C43B00206C3B0020435744202F25730D9B
:100DA0000A000000843B002070B51B4C05466078AB
:100DB00090B0C82801D900206070C0B2401CC6B2F3
:100DC00066703C216846FFF7BEF97D20400130186F
:100DD0000A9028800320079069460F4800F0D6FE4D
:100DE00004F036FB0D492078087200F099FF0546A3
:100DF00021780BA002F084F9284604F029FB207822
:100E00004321C90048430C4940184321C900FFF75A
:100E10009AF910B070BD000068000020B43B0020BB
:100E2000536F636B657449642064617420736572E9
:100E30007665723A25640A00300C002070B54325AF
:100E4000ED0029460948FFF77EF9094C6068FFF775
:100E500085F9A84208D207A10448626802F074F933
:100E6000024904201039887170BD0000C43B002085
:100E70008000002025730D0A000000000A4610B50E
:100E800001460248FFF746F9002010BDC43B002090
:100E900070B506460B480024C5890AE00A48FFF7EA
:100EA0005DF9024631190848FFF768F9002804D0B7
:100EB000641CAC42F2D32B2070BD04A002F020F9D8
:100EC000002070BDB43B00209C3B00202A2A2A2A27
:100ED0002A2A2A2A2A0A66696E642066696C650ACB
:100EE0002A2A2A2A2A2A2A2A2A0A000070B505460E
:100EF00011480024C6890AE01048FFF72FF902467E
:100F000029190E48FFF73AF9002808D0641CB442AA
:100F1000F2D32A2070BD641E285D4D2809D02919FE
:100F2000052207A0FFF72AF90028F4D106A002F055
:100F3000E7F8002070BD0000B43B00206C3B0020AF
:100F40003C4449523E0000002A2A2A2A2A2A2A2AF8
:100F50002A0A66696E64206C6973740A2A2A2A2A2E
:100F60002A2A2A2A2A0A000070B5124C0546E0787F
:100F700000280FD10120E0700320A0720420A0708F
:100F800018210D48FFF7DFF829460B4802F0DCF87E
:100F900000F00EFB2078002802D16078042801D0F0
:100FA000012070BD05A002F0ABF80020E070607079
:100FB000A07270BDB43B00209C3B00202A2A2A2A44
:100FC0002A2A2A2A2A0A67657466696C652073755D
:100FD00063636573730A2A2A2A2A2A2A2A2A2A0A72
:100FE0000000000010B500F0D9FF0B4A094B111F9B
:100FF000081F00F0E3FC04F02BFA08A002F080F8D0
:10100000322004F007FA0C4802F03EF80B49802029
:10101000086010BD6C0000201C8900004348353773
:10102000784E45545F4C6962496E6974205375630C
:10103000636573730A0000001027000000E100E000
:1010400010B51B4CA07A01280CD0022816D003281A
:1010500024D0042805D117A118A000F07BF900289E
:1010600019D010BD00F068F80028FAD115A002F0E0
:1010700047F817A11AA000F0F3F910BD14A11EA0A3
:1010800000F0EEF90028F8D16079002803D010A014
:10109000FFF76AFF10BD00F0A7F910BD0CA0FFF725
:1010A00063FF0028F9D103A104A000F053F910BD9B
:1010B000B43B00206162632E747874005445585428
:1010C000000000006C6F67696E210D0A00000000CF
:1010D00046494C454C4953542E7478740000000026
:1010E000433A5573657273464A594465736B746F1E
:1010F00070013932000000005553455200000000D5
:1011000010B54321C9000948FFF71DF808A1074899
:1011100002F01AF80548FFF721F801460348103895
:10112000C279103000F0E4F910BD0000C43B00208B
:101130004C4953540D0A000010B50B4CE0780028C0
:1011400004D10120E070A072FFF7BEFD6078012895
:1011500001D0012010BD05A001F0D2FF0020E070F9
:101160006070A07210BD0000B43B00202A2A2A2A19
:101170002A2A2A2A2A2A2A2A0A6C6F67696E207369
:101180007563636573730A2A2A2A2A2A2A2A2A2A55
:101190000A00000010B54321C9000A48FEF7D3FF3A
:1011A00009480AA10268074801F0CEFF0548FEF78A
:1011B000D5FF014603481038C279103000F098F985
:1011C00010BD0000C43B0020780000205041535364
:1011D0002025730D0A00000010B54321C9000A48FC
:1011E000FEF7B1FF09480AA10268074801F0ACFF09
:1011F0000548FEF7B3FF014603481038C2791030A6
:1012000000F076F910BD0000C43B002074000020FF
:10121000555345522025730D0A00000010B50446B1
:101220004321C9001148FEF78EFF002C09D0104859
:10123000104A036810A15B1C03600C4801F084FF96
:1012400004E00C4A0FA1094801F07EFF074910484D
:10125000091D01F065FF0548FEF780FF01460348C0
:101260001038C279103000F043F910BDC43B0020A3
:10127000800000206C3B00204D4B442025732564EA
:101280000D0A00004D4B442025730D0A000000009C
:10129000843B002038B504464321C9000C48FEF7C2
:1012A00052FFE0B20090230A0A4A0BA1084801F05D
:1012B0004BFF07490CA001F023FF0548FEF74EFF46
:1012C000014603481038C279103000F011F938BDDA
:1012D000C43B002090140020504F52542025732509
:1012E000642C25640D0A0000504F5254203A257397
:1012F0000A00000070B5164C0546607A904220D175
:10130000A07902280DD1A07804280BD0012601284D
:1013100010D0022805D12846FFF7BAFD002800D1D9
:10132000667170BD2846FEF719FF81B22846FFF7A7
:10133000A5FD70BD2846FFF7D9FD0028F9D126711B
:1013400070BDE0799042FBD12846FFF709FC70BDE3
:10135000B43B002070B5174C0546E0780E460028D7
:1013600017D10120E0700420A0720820A07018217D
:101370001148FEF7E8FE29460F4801F0E5FE182166
:101380000E48FEF7E0FE31460C4801F0DDFEFFF7A7
:1013900091FA2078002802D16078082801D0012035
:1013A00070BD07A001F0ACFE0020E0706070A0727C
:1013B00070BD0000B43B00206C3B00209C3B002033
:1013C0002A2A2A2A2A2A2A2A2A0A70757466696C05
:1013D0006520737563636573730A2A2A2A2A2A2A89
:1013E0002A2A2A0A0000000010B54321C900094832
:1013F000FEF7A9FE08A1074801F0A6FE0548FEF782
:10140000ADFE014603481038C279103000F070F884
:1014100010BD0000C43B0020515549540D0A000086
:1014200010B54321C9000948FEF78DFE084A09A1FD
:10143000064801F089FE0548FEF790FE0146034884
:101440001038C279103000F053F810BDC43B0020B2
:101450009C3B0020524554522025730D0A00000089
:1014600070B5164C0546E0780E46002816D10120CE
:10147000E0700221A172A07018211148FEF763FEEE
:1014800029460F4801F060FE18210E48FEF75BFE6A
:1014900031460C4801F058FE00F08AF82078002808
:1014A00002D16078022801D0012070BD06A001F0B1
:1014B00027FE0020E0706070A07270BDB43B002079
:1014C0006C3B00209C3B00202A2A2A2A2A2A2A2A0E
:1014D0002A2A0A7365617263682073756363657392
:1014E000730A2A2A2A2A2A2A2A2A2A0A00000000FB
:1014F000F7B5019D17460446002601AA2146384645
:10150000019500F009FD03F0A3FF0198002807D121
:10151000761CF6B2022E03D904A001F0F1FDFEBD47
:101520002D1A2418002DE8D1FEBD000053656E640D
:10153000204461746120206661696C0A000000002B
:1015400010B5FFF77BFC0948FEF708FE074C014683
:10155000103C627A0548FFF7CBFFA079042803D13D
:10156000607A002100F0BAFA10BD0000C43B0020F0
:1015700010B54321C9000948FEF7E5FD084A09A155
:10158000064801F0E1FD0548FEF7E8FD0146034885
:101590001038C2791030FFF7ABFF10BDC43B0020FC
:1015A0009C3B002053495A452025730D0A0000003A
:1015B00010B54321C9000948FEF7C5FD08A1074839
:1015C00001F0C2FD0548FEF7C9FD01460348103889
:1015D000C2791030FFF78CFF10BD0000C43B002023
:1015E0005459504520410D0A0000000000B500F09C
:1015F00057FA024A0021D16200BD0000DC3D002004
:101600000148008CC0B27047DC3D00200649497992
:10161000884201D3002070473C214143034A002304
:10162000505C53507047000088000020400B0020A1
:101630000120704770B5FFF7D9FF0446C0070CD0F2
:10164000144D15A0296B01F05BFD18A0696B01F02A
:1016500057FD1BA0A96B01F053FDA00702D51DA0EB
:1016600001F04EFD600705D5FFF7CAFF01461DA03A
:1016700001F046FDE0060CD500242046FFF7C6FF2A
:10168000010002D0204600F03BF8641CE4B2042CB8
:10169000F3D370BDDC3D0020556E72656163684315
:1016A0006F646520A3BA25640A000000556E726558
:1016B00061636850726F746F20A3BA25640A0000DA
:1016C000556E7265616368506F727420A3BA2564A9
:1016D0000A000000495020696E746572727570745A
:1016E0000A00000047494E545F535441545F50482C
:1016F000595F4348414E474520253032780A000063
:10170000F8B50F460646014630A001F0F9FC43202B
:101710003349C00070437A07324C4518002A26DA54
:10172000E17931A001F0ECFC0021304600F0E8FB4B
:10173000009000281BD0E08129466A46304600F020
:1017400017FBA17A2CA001F0DBFCE1892FA001F0AE
:10175000D7FC294630A001F0D3FCA17A28463246B6
:10176000FFF7C8FD43212846C900FEF7ECFC380707
:1017700013D52EA001F0C4FC207AB0420DD0E07940
:10178000B0420AD0667231462EA001F0B9FC432265
:101790002946D200304600F065F9F8060FD531A091
:1017A00001F0AEFC607AB04209D100202070042024
:1017B000A071207AFF2802D0002100F08FF978066E
:1017C00002D52DA001F09CFCF8BD0000736F636B87
:1017D00065696423233D20253032780D0A0000001E
:1017E000300C0020B43B002066747020736F636B74
:1017F00069643A25640D0A00636865636B20747937
:1018000070653D20253032780D0A00006C656E3D14
:1018100020253038640A00004D794275666665728D
:101820003D0D0A0A25730D0A0000000054435020A4
:10183000436F6E6E65637420537563636573730DD8
:101840000A00000043483537784E45545F465450EF
:10185000476574536F636B6549443A2564210D0AEB
:101860000000000054435020446973636F6E6E653E
:1018700063740D0A000000005443502054696D6FDA
:1018800075740D0A00000000F8B50F4604463F4984
:101890003F481E46154681420ED83E4981420BD82C
:1018A0003D49814208D83D49814205D83C498142A1
:1018B00002D83C49814201D9FB20F8BD44213A4875
:1018C000FEF741FC18213948FEF73DFC0422214671
:1018D0003548FEF71FFC344C04223946201DFEF724
:1018E00019FC2046062231460C30FEF713FC002D71
:1018F0002CD02046042229460830FEF70BFC2C4D44
:101900003222A8680127C106C90E6971C105090FF5
:10191000A970C104090FE9708104C90F297141033D
:10192000C90EA1610102C90E5143E161C101C90F94
:10193000002902D0216C394321648001C00F03D0FB
:10194000206C02210843206400260BE0FF20607217
:10195000A07200202072D2E73146002000F090FBF8
:10196000761CF6B268798642F6D300F0D5FE01F017
:1019700009F90D480F495830676201600E4941600E
:10198000092181602F700020F8BD0000A001002017
:1019900000000120E0010020400B0020A4140020E2
:1019A000C0280020CC3A0020DC3D0020403E002032
:1019B00088000020204E0000983A0000FFB585B056
:1019C0001D4616460F46FFF733FE012802D0FC20C5
:1019D00009B0F0BD104C0F4820604B20C0000090B3
:1019E0004320C00001900D4802900A2003902B2054
:1019F00004906846FEF72AFF2B4632463946059882
:101A0000FFF742FF054606A0216801F079FB284652
:101A1000DEE700008424550290000020F811000049
:101A200043483537784E45545F436F6E6669673A71
:101A30002025780A0000000010B50848808CC007F7
:101A40000AD001F017F800F0CFFF054802F07EFE43
:101A500000F074FEFEF79EFE10BD0000DC3D00208D
:101A6000583E002010B50C4B5B79984213D23C23B2
:101A700058430A4B0024C318996019619C61DA60CD
:101A80005961D869032806D1186B002803D09989B9
:101A900089B206F010F910BD88000020400B00202C
:101AA00010B50B4900204A790A490B4B0BE03C2446
:101AB00044431C59002C04D0C86A10221043C86249
:101AC00003E0401CC0B29042F1D3888DC0B210BD7B
:101AD00088000020DC3D0020400B00203C22124BFF
:101AE0004243D21810B5114B5B79984201D31A20AA
:101AF00010BD136A052B01D0172010BDD269022A30
:101B000005D0032A06D0002A07D0F72010BD00F028
:101B1000E5FB04E000F0B8FB01E000F09DFB40B203
:101B200000F030FD10BD0000400B002088000020B8
:101B3000F8B53C21484313494418256B002D02D0C9
:101B4000206A052801D01720F8BD00276763E06AE6
:101B50000090A08C0C4B82B26946284604F0C8FA6B
:101B6000060007D0284604F069FA3046276200F0E4
:101B700009FDF8BD2035A878BF210840A8700020D5
:101B8000F8BD0000400B0020E1280000F8B50C462D
:101B9000002101700D465A49497908E03C22594B11
:101BA0006A43D218126A002A03D06D1CEDB28D422E
:101BB000F4D38D4201D32020F8BD0570E0690028E0
:101BC00005D002281FD0032869D02120F8BD208D20
:101BD000C0B204F04DF8060075D04B486946006865
:101BE0000090304603F0F2FFE06A0090694630460C
:101BF00003F0F8FF3C20434968434218434930460C
:101C000004F04CF83FE006F073FD060075D0E06A82
:101C100000900F20000703F01EFE074600990720E2
:101C20000F40400703F017FE874205D03849684649
:101C300002F0EEFF002806D0208D364982B23046F1
:101C400006F0B2FB12E03048694600680090208D33
:101C500082B2304606F0A8FB002809D1E06A009065
:101C6000A08C694682B2304606F0ECFB002802D018
:101C700000F088FCF8BD3C20224968434218264900
:101C8000304606F042FD0520266320626946204862
:101C900002F0B8FC2946204600F0F2F92BE004F0EF
:101CA0009BFF060029D01848694600680090208DE7
:101CB00082B2304604F044F9070005D0304604F003
:101CC000BDF93846D4E718E03C200E496843411876
:101CD000304604F033F91149304604F06FFC2663B6
:101CE0000520666320622946204600F0C9F969464E
:101CF000074802F087FC0020F8BD1120F8BD000065
:101D000088000020400B0020DC3D0020192C000042
:101D1000583E00204F890000952E0000BD21000094
:101D200070B53C21484310494418206A256B0528AA
:101D300004D1606BA84203D0002D01D0172070BDE4
:101D4000002020632146284604F0F8F8FF212846A9
:101D500004F000FF002805D00449606304F05EF839
:101D6000002070BD112070BD400B0020C12100007B
:101D7000F7B582B0049900220D680A603C214843FF
:101D80005D494618306A052802D0172005B0F0BD1D
:101D9000002D17D07469B0680090F168401E0918D2
:101DA000B069A84200D20546039800287AD0671986
:101DB0008F4209D2042D07D92A462146FEF7AAF9F7
:101DC0003C467FE01A20E1E74C48007C800724D5A0
:101DD0000F1B7F1CAF4200D32F46042F05D93A4674
:101DE00021460398FEF796F904E0BAB2214603981B
:101DF00000F0A0FD0398009CC019BD4262D9EF1B02
:101E0000042F04D93A462146FEF784F903E0BAB21A
:101E1000214600F08FFDE41954E000203EE0039AD3
:101E200023781370039A641C521C8C4200D9009CC6
:101E3000401CA84246D223781370521C641C8C426A
:101E400000D9009C401CA8423CD223781370521C3D
:101E5000641C8C4200D9009C401CA84232D22378DA
:101E60001370521C641C8C4200D9009C401CA84278
:101E700028D223781370521C641C8C4200D9009C19
:101E8000401CA8421ED223781370521C641C03927B
:101E90008C4200D9009C401CA84213D2A842BED359
:101EA00010E0FFE76019884203D2042D01D90446EF
:101EB00008E0002004E0641C8C4200D9009C401C17
:101EC000A842F8D3049805607461B069411BB16100
:101ED00002D1B06870613061F069032809D1B2891C
:101EE000306B511A89B24185F2688A4201D105F0FE
:101EF000E2FE00204AE70000400B0020203E0020C8
:101F00003C225043034A8018002901D042690A60EC
:101F100080697047400B002010B53C230D4C4343B3
:101F20001B191C6A052C03D000201060172010BD5F
:101F3000DB69002B05D0022B06D0032B07D0FA203B
:101F400010BD00F0BFFE10BD01F000F810BD00F0A4
:101F50001FFF10BD400B002000B50E490A68121883
:101F60000A600D4A1178002913D0D188081880B270
:101F70007D210901D08088420BD30020D080FFF75B
:101F80003FFB012805D1507803F0E8FD5078401C54
:101F9000507000BD0401002088000020F8B52348DF
:101FA0001021FEF7D0F82148FF21C1710172417262
:101FB0000121817211211E48FEF7C5F800241C4D35
:101FC00026461C48875D642F10D364213846FEF7EF
:101FD00077F830302855641C0846E4B20A21FEF731
:101FE0006FF830302855641CE4B20EE00A2F0CD391
:101FF0000A213846FEF764F830302855641CE0B2F8
:1020000030312954401CC0B207E00A213846FEF79F
:1020100057F830312955641CE0B22C212954401C5A
:10202000761CF6B2C4B2042ECBD3F8BDB43B00206C
:10203000901400201489000070B504780546082922
:1020400013D007DC01290BD002290BD0042916D1AB
:10205000042008E010290AD0402910D1402002E0D5
:10206000012000E00220044308E00820FBE71020E4
:102070000443686B002801D003F0E0FF2C6070BDC2
:1020800070B505463C2041430848081804463C21E9
:10209000FEF759F8002D04D020463C222946FEF7D1
:1020A00039F8A0682061606170BD0000400B00201D
:1020B000FFB504690546C168601E83B0081800902A
:1020C0003C48C168491CC160002C2FD005980028ED
:1020D00067D0008902900498FD2220308178490859
:1020E000490011408170059E009872897768111926
:1020F00081422FD93048007C80071BD50098394693
:10210000001B401C80B2024601902046FEF702F8F8
:10211000019872893918101AAC6800282EDD87B230
:102120003A462046FDF7F6FFE41927E00020C043B9
:1021300007B0F0BD002009E0397821700099641CD7
:102140007F1C8C4200D9AC68401C80B271898142EE
:10215000F2D813E0042A06D939462046FDF7DAFF03
:10216000708904190AE0002005E039782170401CCC
:10217000641C80B27F1C71898142F6D83668002EBB
:10218000B2D1A96902982C610818A861059803F0DA
:1021900060FCA889298B401A81B2049805F086FD5D
:1021A00001E0002B01D00020C2E7049803F046FFB5
:1021B000BEE7000088000020203E0020704700009D
:1021C00070B51F4A0D460146537900201D4A07E0AD
:1021D0003C244443A418246A002C03D0401CC0B201
:1021E0009842F5D3984202D30420C04370BD3C23EB
:1021F000584384186868E062288C25636062886AA6
:10220000A0622146284603F099FE0F49284604F0B3
:10221000D5F90E49284605F015FD0D49284605F06B
:10222000A7FE01220B49284604F0CEFF0320E061FF
:102230000520206208212046FFF7FEFE002070BD29
:1022400088000020400B0020BD210000B1200000CC
:10225000A9280000A52800003C21484310B50949E1
:102260004418206B002803D0216A052902D006E01B
:10227000172010BD03F016FD00202063206200200F
:1022800010BD0000400B0020F8B50E463C2148432D
:10229000114900254418606B2F46002803D003F035
:1022A000CDFE05462762206B002810D0002E04D0FA
:1022B000012E06D0022E06D008E003F0BFFE054630
:1022C00004E0012100E0002103F054FD27622846CC
:1022D00000F058F9F8BD0000400B00203C214843B5
:1022E00010B509494418206B002803D0216A05293C
:1022F00002D006E0172010BD06F00AFA0020206385
:102300002062002010BD0000400B002070B53C4949
:1023100057220A70A8220A70394A403A537BDF24B8
:1023200023405373D37BFD242340D37300230B70CE
:102330003449CB70CC78DB252C43CC70CD78042489
:102340002543CD70FF250D714E79C0252E434E716A
:102350008E79360936018E718E7926438E71CC794D
:102360002C43CC71CC79A406A40ECC710B764C7E98
:1023700001231C434C768C7EE406E40E8C768C7E26
:1023800020252C438C768C7E10252C438C768C7EDD
:10239000FB252C408C768C7E1C438C76C8831A4897
:1023A000184B447920331C7204795C72C4789C7297
:1023B0008478DC7244781C7300785873508B402307
:1023C000184350831148114A806B803A800080186E
:1023D000806F88810A48803005680D490D4A098858
:1023E00012880C4611430B461D4305604169E443C6
:1023F00014432140416181681943816070BD000030
:1024000040100040009000406C0000206445002017
:102410007C0000207E00002070B51549CA6B002AA0
:1024200009D04A6B0C469200803C1219956F928F2E
:1024300093B2002205E0002070BDAE5C8654521CB1
:1024400092B29A42F9D3486B002280002250486B26
:10245000401C4863042800D34A630648C1784906F3
:10246000490EC170C17880221143C170184670BDF9
:10247000644500200090004030B5124A13689B006C
:102480009B18DC68002305E005785B1C2570401C68
:102490009BB2641C8B42F7D301240B48802303605A
:1024A0000A48418111688900891889890181C179A7
:1024B00008221143C1710448803803600448046055
:1024C000002030BDA845002080E100E000900040E1
:1024D0009800002010B5FEF7C9F910BDF8B5234CDF
:1024E0002679700603D5FEF771F940202071300778
:1024F00004D51F490020086008202071F0062ED561
:10250000012000F0ADFA1B4D1B4F400710D50120F4
:1025100000F0AAF8E8681949194A09881288114395
:102520000843E860E07904210843E07102200FE0ED
:10253000002000F099F8A8681049114A098812880B
:1025400011430843A860E079FB210840E0710120B5
:102550003862F86A04210843F86210202071B0073D
:1025600002D0607903202071F8BD00000090004087
:1025700098000020C0100040DC3D00207C000020BE
:102580007E000020002805D0FF210131081A0249F1
:10259000C0B2085C704700002489000000B5124AF0
:1025A0000B0000F0FCFD0504071016191F00516B0D
:1025B00081430AE0516B81435163116B0143116305
:1025C000116A81430DE0516B01435163116B8143EB
:1025D000F5E7516B814301E0516B01435163116A8F
:1025E0000143116200BD000080100040054A002137
:1025F00013780370491CC9B2401C521C0629F7D33A
:1026000070470000080604007CB504466846FFF7E2
:10261000EDFF00216A460520535C451A491CC9B2EA
:1026200063550629F8D37CBD10B50C480089C1B2AA
:102630000B069A0F0A48022A05D0012A04D09A0FE5
:1026400006D07D20000210BDC906C90E054801E074
:10265000C906C90EFDF734FD10BD00000010004092
:102660000048E80100389C1C70B5074C002520701C
:10267000A570E570257105486571A11D0068FDF71D
:1026800096FD657070BD0000BC450020040100206F
:1026900070B5144905460878002816D00C46881DE8
:1026A000FDF77BFD7D21281AC90088420CD9A11DA8
:1026B0002846FDF77CFDE078A17800020843052854
:1026C00008D90020FFF7D0FF70BD2846891DFDF70F
:1026D0006EFD70BD401CA070000AE07000F0E6F9CD
:1026E00070BD0000BC45002010B504460020FFF777
:1026F000BBFF0748002C07D001214170054802228A
:10270000C16A1143C16210BD0021417010BD0000BB
:10271000BC450020DC3D002010B50548FFF7F6FD64
:1027200004490020086004490120086210BD00002F
:102730004F02000098000020DC3D0020F8B5324C2C
:10274000606800903148016A01295CD00099A26854
:10275000C069891A4008814215D30098A0602D49AC
:1027600062782B480988002A08D082680A4205D17D
:102770000022627082680A43826002E0C2680A43F3
:10278000C26005F06DFD0098E168401A2249884258
:1027900003D30098E06001F061FF2048C168002980
:1027A0000AD00099E269891A7D22D200914203D3AE
:1027B0000099E16140688047194DFF262868F53689
:1027C000002816D000982169401AB04205D300981D
:1027D00020612869002800D0804700986169401A6C
:1027E0001049884205D3009860616869002800D0CC
:1027F00080470098A169401AB04201D90098A061B1
:102800000098FFF745FFF8BD00010020DC3D0020E7
:10281000C01000407E00002088130000FC4500200E
:10282000403E002060EA000001490120C863704773
:10283000DC3D0020F8B5064600256846057069466F
:102840003046FDF775FF00280BD068460078134925
:10285000020607D54006400E3C225043401845630F
:102860000562F8BD3C22424354180D49497988421B
:10287000F7D2E0690328F4D1367C20463C21FDF7ED
:1028800062FC092E08D00A2E06D040212046FFF710
:10289000D3FB25632562F8BD1021F7E7400B00202C
:1028A000880000200020704738B5846B0022002C7F
:1028B00001D04B6F04E0002038BD521C1B6892B25F
:1028C000002BFAD1896F02E0521C096892B20029EC
:1028D000FAD1002300921A461946A047EBE7000000
:1028E00070B50D4604460949284605F0ABF908497C
:1028F000284605F03DFB01220649284604F064FC09
:1029000008212046FFF798FB002070BDB120000091
:10291000A9280000A528000010B5054C23636263B8
:10292000A1636061E06A01210843E06210BD00001C
:10293000DC3D002003E00B780370401C491C13466B
:10294000521E92B2002BF6D170470000F0B51C2247
:102950000C461440144A57268D07134BA827AD0F79
:10296000403A00281E701F7010D0080603D5D07B97
:10297000FD210840D073907A204390720A48203895
:10298000C17B2943C17300201870F0BD080603D530
:10299000D07B02210843D073907AA0439072024802
:1029A0002038C17BA943EDE740100040F8B50D4E3B
:1029B00057270C4C0025A821203E002827700ED058
:1029C000A8202070012070713071257002F030FD58
:1029D0002770A82020700D2030712570F8BD21705F
:1029E0003571FAE74010004010B5124C206C0028F9
:1029F0001CD111A000F084FBA06B81002046803820
:102A00004158002901D0002010BDA26B0121920085
:102A10008150A06B0C4A128850430C4A82180C4813
:102A20008281C27904231A43C2712164206CC0B22E
:102A300010BD0000644500205175617279457468CD
:102A40005278446D610D0A00203E0020E001002014
:102A50000090004001480079704700008800002085
:102A6000C006C00E2021084301490871088870473C
:102A700020900040F8B50C4E0025B46911E02046C6
:102A8000FFF7D8FE204604F04FFBE068002D01D090
:102A9000E86000E0B06121460220E76802F004FE31
:102AA0003C46002CEBD1F8BDA800002038B5064C00
:102AB00000206168009160606946204601F0A2FD37
:102AC0000098606038BD0000583E0020F0B52B4DE6
:102AD0002A4904275722A824284E203D20310300EC
:102AE00000F05DFB0D080E161B1F24282C32373C0E
:102AF00041462F000A700C70F07BFB22104003E06F
:102B00000A700C70F07B3843F073C820288118E0FD
:102B10000A700C705120C000F8E70A700C70184859
:102B2000F4E70A700C7081208000EFE70A700C70E7
:102B30008820EBE70A700C700220E7E70A700C703F
:102B40002F8100200870F0BD0A700C709320800067
:102B5000DCE70A700C700A484D30D7E70A700C7039
:102B600095208000D2E70A700C704B20C000CDE7A2
:102B70000A700C7002485C30C8E70000201000406A
:102B80000202000030B587B000251D4C0395049566
:102B90001A48059520620C386062001DA062001D75
:102BA000E06202F00BFC042203A8616AFDF7B2FAAE
:102BB000042204A8E16AFDF7ADFA042205A8A16A7F
:102BC000FDF7A8FA06220F48216AFDF7A3FA0E487E
:102BD00005600E4805600B482B3802F0DDFD0C48FF
:102BE00002900C490748019105AB04AA009503A97E
:102BF0002B3802F099FD07B030BD0000E83D002001
:102C000000010020833E0020A0000020A40000203E
:102C1000A546000009470000FFB504690546C168E4
:102C2000601E81B00F180398002640684178027832
:102C30000802104302F011FE0005000F800041421F
:102C4000039802F028FF002802D0002005B0F0BD54
:102C50000398002834D0002C0CD0E868002809D054
:102C6000039842894168931912199EB2BA4212D947
:102C700000220CE0039802F0ECFE21E00B782370B8
:102C8000491C641CBC4200D9AC68521C92B24389F6
:102C90009342F3D80AE0002205E00B78521C23701F
:102CA000491C92B2641C43899342F6D800680028FC
:102CB000D7D1039802F0CDFEA8692C618019A861D4
:102CC0000120C3E7F7B53C2148432F49002514688C
:102CD00084B04018156016460290002C14D0059858
:102CE000002811D00298006B03902848006C8007E0
:102CF00000D4C7256D1CADB2C82D40D8B920C00086
:102D0000844204D9009004E01A2007B0F0BD2046A8
:102D1000009481B20022104602F0A2FD070030D0DC
:102D20007868009A0599FDF7F5F918490020C863FD
:102D30003946039802F0D0FF0190384602F089FE30
:102D40001248C06B002802D1019800280DDA00203B
:102D5000306040210298FFF76FF90198002802DAED
:102D6000FFF710FCD1E7FA20CFE731680098081888
:102D700030600099059840180590641ABAD1002077
:102D8000C3E71120C1E70000400B0020DC3D00201C
:102D9000F7B50025146882B017462E461560002C42
:102DA00015D00399002912D03C21484337494018D7
:102DB000006B01903648006C800700D4C726761C53
:102DC000B6B2C82E06D93868002850D156E01A206D
:102DD00005B0F0BD0198007C042801D01720F7E76A
:102DE0002B48006C800701D5FEF726FE0198403085
:102DF000C08D0090002807D0254D4435287CC007A1
:102E000004D10098844201D91120E1E7009884425E
:102E100000D8009468680099884200D20090019818
:102E200003F070FF1A484430007CC007009802D0BD
:102E300082B2012301E082B200230399019805F0D8
:102E40003BFA050005D0681C01981BD003F05AFF1F
:102E500014E0019803F056FF0546396800980818F9
:102E600038600099039840180390641A01D100203B
:102E7000AEE707484430007CC007A0D12846FFF7E2
:102E800081FBA5E703F03EFFF3E70000400B0020C5
:102E9000DC3D0020FFB505460469C068611E471887
:102EA000A96B002681B09446002902D0AC68611E4F
:102EB0004718110006D0002C01D0002804D1084684
:102EC00002F0C7FD05B0F0BD4B8948689A1996B26B
:102ED0001A19BA420ED9002308E002782270401C69
:102EE000641CBC4200D9AC685B1C9BB24A899A4204
:102EF000F3D80AE0002305E002785B1C2270401C36
:102F00009BB2641C4A899A42F6D809680029DBD131
:102F100001200003864200D90646604602F099FD72
:102F2000AF6B002F0DD00498FDF737F900960146DE
:102F3000AB6828460A9AB8470020A861A8682861AB
:102F4000C0E7A8692C618019A861BBE7F7B5002527
:102F5000146884B016461560002C17D00599002916
:102F600014D03C21484327494018006B0290264862
:102F7000006C800700D4C7256D1CADB2C82D3CD8AD
:102F800017208001844204D3009004E01A2007B087
:102F9000F0BD2046009481B20022104602F060FC91
:102FA00007002CD07868009A0599FDF7B3F8164908
:102FB0000020C8633946029805F0C4FB01903846EA
:102FC00002F047FD1048C06B002802D1019800288C
:102FD00009DA002030600198002802DAFFF7D2FAFF
:102FE000D5E7FA20D3E731680098081830600099D7
:102FF000059840180590641ABED10020C7E711203B
:10300000C5E70000400B0020DC3D002010B510217A
:103010000120FFF79BFC032002F0FCF90220FFF7E0
:1030200055FD05498A6A481502438A620321FFF764
:10303000B5FA00F053F810BD8010004010B50B48F1
:1030400057210170A8210170084A8821403A118156
:103050000189042211430181002101700A2002F03C
:10306000E7F90120FFF7A2FC10BD0000401000406E
:1030700010B50A20FEF770FF02488179FF22114344
:10308000817110BD00200040084902220A70002210
:103090000A704001C86088798871012088700A78B8
:1030A00004231A430A700249086070470020004058
:1030B00000E100E010B50446FFF7B6FA0A214843E4
:1030C000C0082146FCF7FCFF0A21401DFCF7F8FF71
:1030D0000149888110BD00000034004010B5E12096
:1030E0004002FFF7E7FF0548872181700321C17087
:1030F000402141700121817310BD00000034004067
:103100000FB410B503A9044B044A029800F01EF94D
:1031100010BC08BC04B01847CD4800009001002046
:103120000FB410B504A9074B02AA039800F022FBC4
:10313000044602A9002000F0E4FE204610BC08BCB2
:1031400004B01847033F00000FB410B504A9074BA3
:1031500002AA039800F0FAF8044602A9002000F041
:10316000CBFE204610BC08BC04B01847F93E000056
:103170002021020C01D010211046020A01D0104675
:103180000839020901D01046091F820801D01046F3
:10319000891E420801D0881E7047081A704730B453
:1031A0007446641E2578641CAB4200D21D46635DE4
:1031B0005B00E31830BC184702E008C8121F08C1C2
:1031C000002AFAD170477047002001E001C1121FA8
:1031D000002AFBD170470000F0B51FB486B00998F3
:1031E000089A030D0021024314D05148514A18187F
:1031F000504305141198012810981AD0281A401C21
:1032000000264D4F4D49009601910490002812DA96
:10321000444211E01198012449A3012801D11098DA
:10322000C1430698119A84600360C26041600BB08C
:10323000F0BD4042E4E70446210500203F4A001C5F
:1032400051410391029012E0E00707D032463B461D
:1032500001990098FDF796F80191009032463B469F
:1032600010461946FDF78EF806460F466410002CEE
:10327000EAD10498039B0028029A0999089806DA73
:10328000FDF780F8019B009AFDF77CF805E0FDF75B
:10329000E1F8019B009AFDF7DDF804460E46002296
:1032A000284BFDF76FF903D80020C043014607E023
:1032B0000022254B20463146FCF7B2FFFDF742F9CC
:1032C000102409E0002C0ADB0A220023FCF778FF17
:1032D000079B30321A55641E02460A43F2D111226E
:1032E000641C079B121B1C19119B012B03D001238B
:1032F00008430ED10AE0084304D0112010900020AA
:10330000119077E71098151A6D1E0BE01098824205
:1033100002DD00236D1C03E0824201DA00236D1EF2
:10332000002BEED0069811998260C16030C07EE714
:1033300001FCFFFF104D0000000014400000F03FB2
:10334000300000000000F0430000E03FFFB591B006
:103350000F460546002606E025280AD0149A139940
:1033600090476D1C761C28780028F5D1304615B0A2
:10337000F0BD002400940121F34A029400E00443CC
:103380006D1C2B780846203B98401042F7D12878D6
:103390002A280ED0022128780246303A092A15D868
:1033A000009A0A235A43303A80180C436D1C00904F
:1033B000F1E701CF0090002805DA01204003044323
:1033C000009840420090022004436D1C28782E286B
:1033D00015D10420044368786D1C2A280AD101CF36
:1033E0006D1C02900BE002990A22514330394018BB
:1033F0006D1C02902878014630390929F3D92878C4
:103400006C2810D006DC4C281AD068280ED06A2808
:1034100017D104E0742813D07A2812D110E00120CB
:10342000400504430CE00121090501E003210905E1
:103430000C436978814203D10120000524186D1CDA
:103440006D1C287803906E281ED00CDC632831D0C8
:1034500004DC00288AD0582811D1B2E064287BD03F
:1034600069280CD178E073282DD004DC6F2870D047
:10347000702804D1A7E075286CD078286BD0149AF6
:1034800013999047761C62E06002400F022807D033
:1034900003280AD0042838680AD006603F1D56E089
:1034A0003868F11706604160F8E738680680F5E78C
:1034B0000670F3E73878694608740020487404A859
:1034C0000390012003E0386803900020C0433F1DB3
:1034D00061070FD5002101E00199491C029A019171
:1034E000914213DA8142F7DB019A0399895C002942
:1034F000F2D10BE0002101E00199491C01918142C8
:10350000FADB019A0399895C0029F5D101990098A9
:10351000139A401A00902146149B00F0C1FC0199B7
:103520008019461807E0039803990078491C039115
:10353000149A139990470198401E0190401CF2D1B3
:103540002146149B139A009800F08AFC86196D1C82
:1035500009E741E033E034E00A20002104900591BE
:103560006002410F022905D001CFC21794460329FA
:1035700005D007E0FF1DFF08FF0003CF06E000B203
:10358000C2179446042902D140B2C1178C460022CA
:103590006146944506DA0A460021404291418C4634
:1035A0002D2102E0210504D52B216A461176012147
:1035B00003E0E10701D02021F7E7019154E00A2060
:1035C0000BE0102009E010200490002104200443A7
:1035D00008200591029003E0082000210591049045
:1035E0006002410F022905D001CF00229446032931
:1035F00006D006E0FF1DFF08FF0003CF8C4603E066
:1036000080B2042900D1C0B20021019121072BD53D
:103610000399702906D0049A1021059B4A401A4349
:1036200005D00EE040216A461176012108E061468E
:10363000014306D030216A46117603995176022162
:103640000191049A0821059B4A401A430CD1614616
:10365000014301D1610707D530216A461176012166
:1036600001910299491E02910399582904D037A16A
:1036700003910FA90F910DE039A1F9E76146059B70
:10368000049AFCF79DFD039B8C469B5C0F9A521E8F
:103690000F92137061460143F0D10F9807A9081AE1
:1036A00020300390600704D5012000048443029871
:1036B00001E0012002900399884201DD401A00E0F8
:1036C000002041180290019809180098401A0090B3
:1036D000E00306D42146149B139A009800F0E0FB07
:1036E00086190020049008E006A9085C149A139932
:1036F00090470498401C761C049001998842F3DBA3
:10370000E0030CD52146149B139A009800F0C8FBE7
:10371000861904E0149A302013999047761C029978
:10372000481E02900029F5DC08E00F980F990078F8
:10373000491C0F91149A13999047761C0399481EBF
:1037400003900029F1DCFBE6092801003031323317
:1037500034353637383961626364656600000000CD
:1037600030313233343536373839414243444546B7
:1037700000000000FFB597B00646002518E2252896
:1037800077D100242746FD49049400E00443761CC9
:1037900032780120203A90400842F7D130782A2828
:1037A0000ED00222307801463039092916D8049902
:1037B0000A235943303940181443761C0490F1E72A
:1037C000189802C804911890002904DA01204003D7
:1037D00004434842049002200443761C30782E288B
:1037E00014D1042004437078761C2A2809D1189833
:1037F000761C80C8189009E00A214F43303FC71952
:10380000761C3078014630390929F5D930786C2892
:1038100010D006DC4C281AD068280ED06A2817D1A0
:1038200004E0742813D07A2812D110E0012040055A
:1038300004430CE00121090501E0032109050C43C3
:103840007178814203D1012000052418761C761C72
:103850003078119066280BD013DC58287DD009DC15
:1038600000287BD04528F6D04628F4D047281AD126
:10387000A5E118E0632835D0642870D0652812D1FE
:103880009DE170286CD008DC6728F1D069287BD0D6
:103890006E280DD06F2806D1BAE073282ED0752877
:1038A00071D0782859D01A9A199990476D1C7EE1E9
:1038B0006002400F022809D003280DD00428189870
:1038C00001680DD00D60001D189070E11898EA177E
:1038D00001680D604A60F6E7189801680D80F2E70C
:1038E0000D70F0E718986A4601781172001D189063
:1038F0000020507202A80090012005E0189802C82C
:10390000189000200091C04361070DD5002101E00F
:103910000199491C0191B94212DA8142F8DB009AFF
:10392000515C0029F4D10BE0002101E00199491C10
:1039300001918142FADB019A0099895C0029F5D155
:10394000019904981A9B471A21463846199A00F0A3
:10395000BDFA0199401945180BE04FE02CE113E046
:103960004EE0009800990078491C00911A9A199924
:1039700090470198401E0190401CF2D121463846E4
:103980001A9B199A10E137E00A200021009001915A
:103990006002410F022907D0189A01CA1892C21773
:1039A0009446032908D00AE01898C01DC108C90030
:1039B00005C91891944607E000B2C217944604293D
:1039C00002D140B2C1178C4600226146944506DA06
:1039D0000A460021404291418C462D2102E02105FA
:1039E00004D52B216A461173012103E0E10701D0C0
:1039F0002021F7E7029155E00A200AE0102008E0B4
:103A0000102000900021042004430191082703E0C6
:103A100008200021019100906002410F022907D087
:103A2000189A01CA189200229446032908D008E087
:103A30001898C01DC108C90005C91891944603E033
:103A400080B2042900D1C0B200210291210729D5FA
:103A50001199702906D0009A1021019B4A401A43FF
:103A600005D00EE040216A461173012108E061464D
:103A7000014306D030216A46117311995173022116
:103A80000291009A0821019B4A401A430AD16146DB
:103A9000014301D1610705D530216A461173012127
:103AA0007F1E02911199582904D035A10E910DA9BC
:103AB0000D910DE037A1F9E76146019B009AFCF7F3
:103AC0007FFB0E9B8C469B5C0D9A521E0D921370D1
:103AD00061460143F0D10D9805A9081A20300190E4
:103AE000600703D501200004844300E0012701980A
:103AF000874201DD381A00E000200199009041184A
:103B0000029809180498401A0490E00306D421464C
:103B10001A9B199A049800F0D9F94519002706E074
:103B200003A81A9AC05D199990476D1C7F1C0298D2
:103B30008742F5DBE0030CD521461A9B199A0498BD
:103B400000F0C4F9451904E01A9A302019999047F9
:103B50006D1C0099481E00900029F5DC08E00D98C6
:103B60000D990078491C0D911A9A199990476D1C6E
:103B70000199481E01900029F1DC63E10928010048
:103B800030313233343536373839616263646566D3
:103B90000000000030313233343536373839414295
:103BA000434445460000000000F06AF94519761CC0
:103BB0003078002800D0E2E528461BB0F0BD600751
:103BC00000D406271898C01DC108C90048680A68B3
:103BD0000831C30FDB071891190001D09CA108E040
:103BE000210501D59BA104E0E10701D09AA100E0E5
:103BF0009AA1430011985B08109165280CD006DC4F
:103C0000452809D046281DD0472841D141E06628E3
:103C100018D067283CD13CE00021112F01DB112096
:103C200000E0781C0191009008A911A8FFF7D4FAD0
:103C3000139905910021119A15927F1C12980197F2
:103C4000009150E00120C00703900120019008A9D5
:103C5000009711A8FFF7C0FA139A14990592002251
:103C6000119B009212981593059A0192002901D098
:103C7000104602E0791C40180190381A01D50198CD
:103C800004E04042401E0090781C0190C01B02904E
:103C900043E0012F00DA01270021112F01DD11205F
:103CA00000E038460191009008A911A8FFF794FAA6
:103CB00013990591119A002112981592009101977C
:103CC00021070CD40599B94201DB019900E001916B
:103CD000012904DD159A491E515C302906D0B842ED
:103CE00001DA011D05DA0121029115E00199491E51
:103CF000EDE7002805DC0099411800910199091AA7
:103D000003E0019A411C914200DD01910099401AA3
:103D1000401C02900120C0070390200706D402999E
:103D20000198814202DB0020C043029000206946D6
:103D3000C87707AF012103980337C907884224D009
:103D4000022011902B201290039800280CDA404298
:103D500003902D20129007E00A210398FCF7B0F998
:103D600030317F1E039039701199481E119000293F
:103D7000F2DC03980028EFD1791E12980870307891
:103D8000202108404530BF1E387006A8C01BC01D4A
:103D9000039010980078002800D001200199411864
:103DA0000298C0170918039809180498401A401E71
:103DB0000490E00306D421461A9B199A049800F057
:103DC00085F8451910980078002803D01A9A199997
:103DD00090476D1CE00324D521461A9B199A04983C
:103DE00000F074F845191CE00098002807DB0099E2
:103DF0000598884203DD1598405C199901E01999EE
:103E000030201A9A904700986D1C401C0090029830
:103E1000401E0290002804D11A9A2E20199990472A
:103E20006D1C0199481E01900029DDDC05E0387801
:103E30001A9A7F1C199990476D1C0399481E03908C
:103E40000029F4DC21461A9B199A0498ACE600007C
:103E50002D0000002B0000002000000000000000EA
:103E6000F8B5044600251E461746880404D405E02C
:103E700039462020B0476D1C641EF9D52846F8BD90
:103E8000F8B5044600251E461746880404D405E00C
:103E900039462020B0476D1C641EF9D52846F8BD70
:103EA000FFB50446002581B01E46C80301D5302762
:103EB00000E02027880404D505E038460399B04780
:103EC0006D1C641EF9D5284605B0F0BDFFB504464B
:103ED000002581B01E46C80301D5302700E0202709
:103EE000880404D505E038460399B0476D1C641E6C
:103EF000F9D5284605B0F0BD0A68531C0B60107058
:103F000070470A68531C0B601070704770B504004E
:103F10000ED0256A002D0BD0A87C082808D10846B1
:103F2000FCF73BF9A96A884202D1204600F09CF8D0
:103F300070BD0000F8B5050010D02C6A002C10D020
:103F40000022FF213531104601F08AFC6061002813
:103F50000AD0E27C4249002A09D00BE00920C04384
:103F6000F8BD0820C043F8BD0020C043F8BD4A6832
:103F7000521C4A604968216041680120A1610870B3
:103F8000A16900264870A16906208870A069C670E2
:103F9000206800F0A3FCA169091DFCF708F9A069DD
:103FA000310A06724172A069310A8672C172A16932
:103FB00000200C31FCF7FBF8A07C0A2803D0052870
:103FC00001D0042804D1A16968680C31FCF7EFF82E
:103FD000A16900201031FCF7EAF8A1690020143132
:103FE000FCF7E5F8A16900201831FCF7E0F80020A3
:103FF000294620318A7A824203D92A182032D27A7D
:1040000000E0002207461C37A369401C80B2DA5545
:104010001028EFD3002001462C31A269401C80B249
:1040200056544028F7D3002001466C31A269401C49
:1040300080B256548028F7D30A4800F04FFCA1699B
:10404000EC31FCF7B4F8A68300200146A269F031F8
:104050005054401C80B24428F7D30020F8BD000023
:104060008801002063538263F8B50546046A002086
:1040700000900C21204600F0EFF82846FFF75AFF89
:10408000060046D101223521204600F05AF80421CD
:10409000204600F066F804223221204600F051F854
:1040A000A06A01F0D8FB0146204600F062F8042225
:1040B0003621204600F045F8606A01F0CCFB01464D
:1040C000204600F056F807223D21204600F039F83E
:1040D00029462B31204600F06DF8204600F0A4F868
:1040E000A08BF03081B2606901F008FDA169A06A7F
:1040F0000C31FCF75CF86F6800986860009543230A
:10410000074A6169606804F038FB28466F6000F078
:1041100009F8E07C401CE0740420E0833046F8BDE0
:104120005389000010B500280AD0046A002C07D07B
:104130006069002801D001F08CFC00206061A06162
:1041400010BD10B5838B8469E4185B1C8383E03455
:104150002174818B83695B18491C8183E0331A7455
:1041600010BD828B83699B18521C8283E0331974C3
:10417000704710B5828B83690C0E9B18521C82838A
:10418000E0331C74828B84690B0CA418521C82834C
:10419000E0342374828B84690B0AA418521C828336
:1041A000E0342374828B83699B18521C8283E03332
:1041B000197410BD10B5828B836901249B18521CA1
:1041C0008283E0331C74828B83690C789B18521CA9
:1041D0008283E0331C74828B83694C789B18521C59
:1041E0008283E0331C74828B83698C789B18521C09
:1041F0008283E0331C74828B8369CC789B18521CB9
:104200008283E0331C74828B83690C799B18521C67
:104210008283E0331C744B79818B82695218491C6C
:104220008183E032137410BD002814D0818B826921
:10423000FF235218491C8183E0321374002305E0E8
:1042400082695218491C8183E0321374818B44299E
:10425000F6D38A07F4D17047827C8A4202D08174F7
:104260000021C17470470000F7B584B006007DD00E
:10427000069840892B287AD30698456801202C4659
:104280000F3400F02DFB6178227809021143884237
:104290007CD1414800F024FB01466079227900027C
:1042A0001043814272D10120C00200F019FB014687
:1042B000E078A27800021043814267D1374800F0CD
:1042C0000FFBAA7B6B7B1102194388425ED121460A
:1042D0000E31042202A80091FBF71CFF2146183181
:1042E000042203A80191FBF715FF7068002805D090
:1042F0000399814202D101273B4601E000273B465A
:104300002246083202A9304604F0ACFAE079A179DD
:104310000002084300F0E4FA012802D0022835D157
:1043200026E0002F32D0022000F0DAFAA071000A55
:10433000E071042200990198FBF7ECFE0422311D84
:104340000098FBF7E7FE0621491EC9B26018027A01
:1043500082746B185A70059A0029525C0272059893
:10436000405CD871F0D1B26906990DE011E00DE022
:1043700002A93046FFF7CAFD09480168002905D0A7
:10438000C268002A02D002A930469047069801F080
:1043900060FB07B0F0BD0000040600000608000046
:1043A000403E002070B5050011D04C6820461B30FF
:1043B0000646FBF7F2FEA9686A6808400A40904288
:1043C00005D10023E21D3146284604F04BFA70BDAA
:1043D000FEB50E46044615460F21304601F05BFB44
:1043E000002802D00120C043FEBD2146284600F02F
:1043F0000FFC002801D0284B2FE02846FBF7CDFE0C
:1044000007460F20000701F026FA07400720400763
:1044100001F021FA874227D101216846017000216D
:1044200041705E2181702846FBF7B7FE01F013FA58
:104430004002410E6846C1702846FBF7AEFE01F00F
:104440000AFA010A684601712846FBF7A6FE01F048
:1044500002FA0146684641716B4622462B323146CC
:10446000204600F0E1F8FEBD2846FBF796FEA16865
:10447000626808400A40904204D0E068002807D0F3
:1044800025460C3532462946204600F007F8FEBD89
:104490000320C043FEBD000057890000F7B586B079
:1044A00006980D462B3000900020C0430190144622
:1044B0002846069900F0ACFB002827D12846FBF7D8
:1044C0006CFE06460F20000701F0C5F906400720E4
:1044D000400701F0C0F9864218D0002D16D02846BA
:1044E000FBF75BFE002811D00121284600F066F999
:1044F00000280DDB144E070170683918887A0028EF
:1045000008D0012808D0002C06D00EE00920C043B6
:1045100009B0F0BD01208872FEF786F92946069899
:1045200000F070F80190002C0BD070683B18987A5E
:10453000022806D121461B1D009A069800F074F847
:1045400001900198E4E70000F8000020FFB581B079
:104550001F4600222B21032001F082F906004AD0D9
:1045600075680D982C460F3400F0BAF9A071000A56
:10457000E0710620401EC0B23A5C21180A720B9A04
:10458000125C8A7403990A5C29184A70029A0028FE
:10459000125CCA71EED1204604220E300A99FBF754
:1045A000B9FD2046042218300C99FBF7B3FD012019
:1045B00000F096F92070000A60700120C00200F03F
:1045C0008FF9A070000AE0700C4800F089F92071A2
:1045D000000A60710A4800F083F96873000AA87342
:1045E00001983146826990470446304601F031FA1D
:1045F000204605B0F0BD0020C043FAE704060000E5
:10460000060800001FB501230393064C021D034654
:10461000009202912B3301941946A21FFFF796FFD7
:1046200004B010BD5D890000F8B54D680E46074620
:104630000624641EE4B22819195D4170115DC17130
:10464000002CF6D10120C00200F04AF96873000A7C
:10465000A873BA69314638469047F8BD30B50F495E
:1046600000200F4C4B6814E00101C918CA7A521C93
:10467000D2B2CA728D7A022D02D0012D03D006E08B
:10468000F02A02D203E0022A01D300228A72401CDF
:10469000C0B2E1688142E7D830BD0000F8000020D8
:1046A000203E002070B5044640680D46817B427B69
:1046B0000802104300F014F90121C902401A04D085
:1046C000062816D00F49C8420AD121462846FFF7CE
:1046D00069FE0E21C943204601F0DDF9002803D010
:1046E000204601F0B6F90AE02946204600F05AFBC0
:1046F00005E0294622462B312846FFF7B5FD00206C
:1047000070BD00004F66FFFF10B5FFB081B00446DA
:1047100068460B496062FBF728FD20466521203082
:10472000E56181746E21C174064860610648A0612C
:10473000204600F027FD7FB0002001B010BD000032
:10474000B0440020D14300001953000070B5054665
:104750001648C16B002927D0154A5178491C517061
:10476000144A80211160C06B134A0006000E1160CC
:104770001AD0284600F064FD040015D06068817BE3
:10478000427B0802104300F0ABF80121C902401A35
:1047900001D0062805D12A692946204690470028DD
:1047A00002D0204601F055F970BD0000644500209C
:1047B0000001002080E100E000E100E0F3B54148A5
:1047C00087B0C76800247DB202943F4901950394E5
:1047D000009507984E6800284DD00846007805904F
:1047E000000104908019807A022844D10798FBF7D1
:1047F000D4FC0499715888423DD1059840B209B063
:10480000F0BDAF4204D120018019807A002809D080
:104810002001059080190490807A012804D0022894
:1048200016D026E065B224E00798002807D0FBF7F1
:10483000B4FC05997158884201D123483FE004989F
:104840000399C07A884214D361B20191039010E0B9
:104850000798002805D0FBF7A0FC059971588842FD
:10486000EBD004980299C07A884202D361B20091D9
:104870000290641CE4B2A742C3D80020C043AF42F8
:1048800002D10899C907BAD008998907B7D4AF42AD
:1048900001D9ECB206E000998F4202D801998F420B
:1048A000ADD9CCB227010020BD19A8720798002805
:1048B00002D0FBF772FCF05100210348E97204704A
:1048C00060B29CE7203E0020F80000200249CA7A2E
:1048D000082AFCD0087270470034004000BA7047C4
:1048E00040BA704710B50A46032100F0FBF810BD2E
:1048F000F3B54568044668782978000289B0084312
:1049000000F0ABFF0005000F8000414207900091CE
:10491000204601F0C0F8002824D12089042821D3A2
:1049200066683078032802D00828F5D11BE0707C37
:10493000327C0002104331460831377A000A0D46B6
:1049400001900422103103A8FBF7E4FB3807800E26
:1049500028188178C078090201437378019A039876
:10496000FDF7DAFFB6E02846103001260490FBF789
:1049700014FC07460F20000700F06DFF07400720DA
:10498000400700F068FF874200D100260A9904988A
:1049900000F03EF9002802D0FEF75CF89AE0FEF73E
:1049A00059F800287ED0002E7CD02089082879D3A1
:1049B000204600F0D2F8002874D12221204601F0D0
:1049C0006AF800281DD02046079901F064F80028F5
:1049D00068D121890022022000F042FF060079D030
:1049E000214600F0ECFF002874D17568304600992C
:1049F00001F051F800286DD1204601F02AF8344624
:104A000006E02121C943204601F045F8002861D184
:104A100028460C30666806900490FBF7BEFB0746FC
:104A20000390284610300090FBF7B7FB0499FBF782
:104A3000BEFB38460099FBF7BAFB002737702848C1
:104A4000FFF74EFF0146F078B278000210430122D2
:104A5000D2028142104607D8FFF742FFF178B278C0
:104A600009021143401C05E0FFF73AFFF178B278E4
:104A7000090211434018B070000AF070687A297A70
:104A80000002084300F0E9FE0121C0B2C90340184A
:104A9000FFF726FF2872000A6872380AAF72E872C0
:104AA000142100E016E0284600F051F8A872000A30
:104AB000E8722046079900F0EEFF00280AD10A9814
:104AC000012101910290802300220097204606993F
:104AD00000F0A8FA204600F0BCFF0BB0F0BD0000CB
:104AE000FFF70000F7B50E4682B000222421012016
:104AF00000F0B6FE050028D002986C684768267062
:104B000004986070002626716671A671E67102989D
:104B10001C22416868680830FBF7FCFAA670300A6E
:104B2000E0706989204600F012F8A070000AE07079
:104B300001203A46019080230C320021009628463D
:104B400000F056FA284600F084FF05B0F0BD10B51D
:104B500000F042FCC04380B210BDF8B500252E46DF
:104B6000044601270FE06189606800F035FC4019B8
:104B7000010C80B20D18A07AC00703D0B81BC6B2D2
:104B800068BA85B22468002CEDD1002E01D068BA35
:104B900085B2E84380B2F8BDFFB5002581B02E464E
:104BA000044601270FE06189606800F015FC401998
:104BB000010C80B20D18A07AC00703D0B81BC6B292
:104BC00068BA85B22468002CEDD1002E01D068BAF5
:104BD00085B20298FBF7E1FA81B24919000C44183A
:104BE0000398FBF7DAFA81B20919000C441804980B
:104BF000FFF776FE04190A98FFF772FE0019010C00
:104C000080B20818010C0818C04380B205B0F0BD8E
:104C100010B50C46FBF7C1FA0246411C13D0002A1E
:104C200011D03121095D89070BD56168914208D007
:104C3000A0681346034001408B4202D11043401C40
:104C400001D0002010BD012010BDF7B58EB0044684
:104C50000F981426008D009060680790C1798279C2
:104C600008020025104300F0F8FDC104C90C0591AD
:104C70000121490308400A902089143887B200981E
:104C80001438C117490F089008184003000C099008
:104C90007FE00898874201DC012000E000200599B0
:104CA0000A9AC904C90C11430B9100281AD038463E
:104CB00080B2069000221421022000F0D1FD049061
:104CC000002817D0406814220799FBF723FA0498AC
:104CD00040680C906068801960606089801B60810A
:104CE000069E26E008460121490308430B900998D7
:104CF000C000DDE70020C04311B0F0BD6589B542BA
:104D000000D93546002D13D002220021032000F0E7
:104D1000A7FD010042D0606848600D814D81049874
:104D200000F028FE701B0604360C04D02468E5E76A
:104D30002468002EE2D12E460B98FFF7D1FD0C9986
:104D40008871000AC8710698143080B2FFF7C8FD58
:104D500001460C988170090AC1700C98002181727B
:104D6000C17214210C98FFF7F2FE0C998872000AA8
:104D7000C8720F98109A436904999847049800F0F4
:104D800068FE06980999381A87B20598401880B2CB
:104D90000590002F00D07CE70020ADE7049800F0DC
:104DA00058FEA7E7F3B585B00120039005980E469D
:104DB0004568687829780002084300F04EFD000B32
:104DC000042803D0059800F044FE06E168782978AD
:104DD0000002084300F041FD0005000F8000009034
:104DE000E878A9780002084300F037FD04460598EA
:104DF000418900988142E5D305980089A042E1D31A
:104E000028460099FFF7A3FE0028DBD1214605982C
:104E100000F074FE012002900F203446000700F0DD
:104E20001AFD0720400700F016FD204600F0A0FC08
:104E3000002820D0201D1ED06768002F1BD02846D8
:104E400010300190FBF7A9F9B84223D02146019810
:104E5000FFF7DEFE00281DD10198FBF79EF90746FB
:104E60000F20000700F0F7FC07400720400700F084
:104E7000F2FC87420ED00298002804D00020029055
:104E80005748046800E02468B44200D12468002C2C
:104E9000CBD101E0002C2DD1687A297A0002084399
:104EA00000F0DBFCC0B211280ED100982918C87898
:104EB00089780002084300F0D0FC442804D1002087
:104EC00034460390002E15D1687A297A00020843EF
:104ED00000F0C3FCC0B211280CD100982918C87882
:104EE00089780002084300F0B8FC3E49884201D1AD
:104EF00034461FE0039800281CD028460C30074693
:104F0000FBF74BF9002815D031463846FFF780FEF5
:104F1000002800D056E73846FBF73FF907460F2038
:104F2000000700F098FC07400720400700F093FCC2
:104F30008742EFD0002CEDD02B48FFF7D1FCE97968
:104F4000AA79090211430842E4D1284C314666602F
:104F5000A560059800F052FE00283BD1687A297AB6
:104F60000002084300F079FCC0B2012815D00628E1
:104F70000ED01128314607D0284610300646FFF7DC
:104F800047FE00280ED022E0059803F09FFA21E0AA
:104F90003146059801F04AFB1CE031460598FFF7C1
:104FA000A7FC17E03046FBF7F8F806460F2000078D
:104FB00000F051FC06400720400700F04CFC864200
:104FC00005D00598022145600598FFF78BFC0598F0
:104FD00000F03FFD00206060A060002007B0F0BD41
:104FE000A00000206C070000FF3F00007C010020B3
:104FF000FFB583B01F46164610460C9D0D9C00F071
:1050000097F800280AD002903B463246009501945A
:105010000499039800F006F807B0F0BD0320C043E0
:10502000FAE70000FFB581B0064603980C9D1F46C5
:10503000002865D0142001460090304600F02BFD7A
:10504000002803D00120C04305B0F0BD7468607A29
:10505000217A0002084300F000FCC0B23902084384
:10506000FFF73EFC2072010A617200F0F6FB000AB5
:105070000B9900020843FFF733FC2072000A6072AC
:105080000398FBF78AF821461031FBF790F80520CA
:105090000A990002084301218903084380B2FFF7FF
:1050A0001FFC2070000A60703089FFF719FCA070A7
:1050B000000AE0700020A0711C4FE0713888FFF7F3
:1050C0000FFC2071000A60713888401C38800298FB
:1050D000002803D0FBF761F8002802D1281D00D07A
:1050E000686821460C31FBF762F80020A072E0727C
:1050F00020460099FFF72BFDA072000AE07202E043
:10510000706810300390288D002808D031898142C2
:1051100005D929463046039AFFF797FD94E76B6956
:1051200031462846039A98478EE700007C0100200C
:1051300070B505461148046811E0204600F018FBE0
:1051400000280BD02846FBF728F80146A0686268C3
:1051500001400240914201D1204670BD2468002CDC
:10516000EBD1074C2068002805D000F001FB002897
:1051700001D0206870BD002070BD0000A00000209C
:10518000A4000020F8B50446254606202035224913
:10519000A8720A6A00202618135C2036401CC0B290
:1051A000F3720628F7D31E4F1C480F6388633846F6
:1051B000203848631B48C8631B4900260E601B4A01
:1051C0003046127804E083005B185E60401CC0B279
:1051D0009042F8D3002004E083005B18DF60401C9D
:1051E000C0B29042F8D31048C421C438FAF7ABFFDC
:1051F0000D480121443801640D492185332169742A
:10520000806B0C4909884843044940180A49888141
:105210000A480660F8BD000000010020E0010020FF
:10522000B03E0020A0010020A84500208B000020F7
:10523000DC050000203E0020009000409800002087
:10524000F8B50027304880213D4601602F4C606B47
:10525000621A80008018C06B636B80B29B009B1841
:105260009B6F636B9B00D258D2B20092264A803A61
:105270001160009A022A19D1002817D0401C81B26F
:105280000322104600F0ECFA05003AD0791E00F037
:1052900002FC2E467F1CFFB2052F01D90020F8BD6D
:1052A0007068FDF7B9F83668002EF3D116488021F2
:1052B0000160E26B00231648002A02D0009A022AFD
:1052C0000FD00278134E521CD2B202703678B2421E
:1052D0000ED30370E06B401EE063E06B002805D046
:1052E00006E00370E06B401EE06301E0A06B6063CA
:1052F000054880380160002D03D00121284600F0C8
:10530000CAFB2846F8BD000080E100E064450020AB
:10531000000100208A000020F3B5002581B02C4652
:10532000691E029800F0B7FB20481E4F016A1E4A12
:105330001F4804E0641C944206D8012904D0036885
:10534000002BF7D1029C0EE0002101600B20C0432E
:10535000FEBD66896168A81985B232463846FAF7FB
:10536000D9FE2468BF19002CF3D1124A0D481368E6
:1053700001219B009B1859601168491C116011683C
:105380000D4B1B78994201D3002111603C2D00D2B6
:105390003C252946FDF770F80121029800F07BFBBF
:1053A0000020FEBDB03E0020FFFF0000DC3D0020DD
:1053B00098000020A84500208B00002010B500F0C8
:1053C00085F800F07BF903488068002800D080470A
:1053D00010BD0000FC45002010B5002207E0037856
:1053E000891E1C02437889B22343D218801C0129EC
:1053F000F5D8002902D0007800021218100C91B2E2
:105400004018010C02D0010C80B2081880B2FFF7DE
:1054100067FA10BD70B500247D260546F60004E04D
:10542000304600F005F8641CA4B2AC42F8D370BD5D
:10543000002109E0012200BF00BF1346521E92B2B4
:10544000002BF8D1491C89B28142F3D37047000088
:1054500010B5002803D0014601A0FDF751FE10BD94
:105460006D53746F7049664572726F723A202530C1
:1054700032580D0A00000000FDF7C8FD0748FDF78F
:10548000C3F8FBF7AFFDFCF7D7FAFCF709FB0028E0
:1054900001D0FCF7CFF8FBF7F9FBF4E76C00002034
:1054A00010B500280FD008494A6890420BD38A688B
:1054B000904208D2002208380271CA68904200D295
:1054C000C86000F059FB10BD4401002030B5104900
:1054D000104A0868104CC01C80088000486013897E
:1054E0000125DB1C23400380002343800371936864
:1054F000DB1C9B089B001B188B601D711589ED1C24
:1055000025401D801289D21C22405A80C86030BDBF
:1055100044010020203E0020FCFF0000F0B50028E0
:105520004AD02849C31C0B400C2B00D20C23264C1C
:10553000A068C01C8508AD009D4241D32348C668C1
:105540004268B11A89B2EC1A38E050180579002D7A
:1055500033D105886D1A083D9D422ED304881F461D
:10556000641A14370125083CBC4215D3CB18083304
:105570009CB2131900271F7107881F80598004806F
:1055800005711988104B9B68DB1C9B089B00994296
:1055900003D0931CCC5200E005710C49B0420AD1F3
:1055A0008C68CB681D79002D05D0A34203D01B88E1
:1055B0009B18CB60F6E70830F0BD515A8C42C4D836
:1055C0000020F0BDFCFF0000203E00204401002030
:1055D000F8B5324AC91C11400C2900D20C21304ABE
:1055E0009268D21C920892008A4210D32D4B5C68BC
:1055F000A0420DD39A6890420AD20246083A131B81
:1056000015889BB2EE1A083EB6B2B14201D900200D
:10561000F8BDB142FCD02D19AC462F79214DED6873
:10562000AE46204D6D68AD1C002F1BD00F461437C1
:10563000B742EDD8591808318EB21A4FA1197145E9
:1056400000D2F96000240C7114880C804B80168005
:10565000134A09889268D21C920892009142D7D0CE
:105660004E53F8BD591866460831368889B20096FF
:10567000E64502D10B4E6718F760641800262671C4
:10568000009E26806380064B11809B682288DB1C6D
:105690009B089B009A42E4D05153F8BDFCFF0000E8
:1056A000203E002044010020002904D0820002484E
:1056B00083580B6081507047C8450020F0B500202A
:1056C000401C80B20828FBD30E490F4A8868C01CD2
:1056D0008408A4000020002386009351450007E0C1
:1056E0009759276094510F687F5B3C195B1C9BB2F4
:1056F0004F687F5B9F42F3D8401C80B20828EAD3F2
:10570000F0BD000054010020C8450020082801D346
:10571000002070470349820088580028F9D00368A8
:105720008B507047C8450020F8B504460025089FF7
:1057300006986560A56026462036E560757425628A
:105740000A4DE06128783075401C2870204627619A
:1057500000F013F8079920468847002801D0002060
:10576000F8BD6868206020466C60F8BD9C00002091
:105770002030407CC007C00F704770B51D461646EC
:10578000044600F01BF83146204600F059F829463F
:10579000204600F007F870BD01498860704700009E
:1057A0009C00002010B50446002904D00846FAF7F2
:1057B000F4FCE06010BD0020FBE70000F8B50546F2
:1057C0000F4600260846FAF7E8FC6968884228D0A8
:1057D000194800680FE001686A6891420AD1012106
:1057E000C46800F0C7FA3146761C2046F6B2642938
:1057F00001D902E0C0680028EDD1104804680EE02D
:10580000002C0BD02068002808D06968884205D198
:10581000002F0DD03846FAF7C0FC2060E468002C59
:10582000EED1002F06D03846FAF7B7FC6860F8BD15
:105830000020F2E70020F9E7BC000020B8000020BB
:1058400010B50446002904D00846FAF7A6FCA0606B
:1058500010BD0020FBE700BA704740BA7047000057
:10586000F8B5002516460F46002806D0012805D0B9
:10587000022804D0032878D102E0142514350E350F
:10588000002E49D0012E5FD0022E5DD0032E6CD1A8
:105890000720FFF73BFF040067D02673002020603D
:1058A00060191330B0436060314827814068ED1CB7
:1058B0003930A908B0438900401AB84200D93846A7
:1058C00080B201216081E1813D1A00941DE0072032
:1058D000FFF71CFF00281BD00673002141730160F5
:1058E0000099AAB2086022490281496839318908C1
:1058F00089008A4200D2294689B20246418110328B
:1059000042600122C2816D1A0090002DDFDC26E08A
:10591000204600F09EF828E0284613308108F81C45
:10592000800889008000081880B2FFF7F7FD0400A6
:105930001BD0601913308008800060602781678168
:105940000020206020730AE00620FFF7DFFE04003D
:105950000BD00020606027816781206026730120C2
:10596000E081002060732046F8BD0020F8BD0000F3
:10597000203E002010B500280FD000290DD004E0F3
:1059800003890C891B19038110460268002AF7D18C
:1059900002890B89D2180281016010BD10B50C4636
:1059A000FFF7E8FF204600F0D2F810BD002102E02A
:1059B000491C0068C9B20028FAD108467047F8B5FA
:1059C00000270C4605463E46002805D0002C03D093
:1059D00028892189884202D20920C043F8BD6889FC
:1059E000C11B6089801B814201DB80B200E088B26C
:1059F00000906068009A81196868C019FAF78AFBFC
:105A00000098381887B20098301886B26889B84272
:105A100001D12D6800276089B04201D82468002692
:105A2000002C06D060892189884202D12068002894
:105A300008D1002D09D068892989884205D12868B4
:105A4000002802D00820C043F8BD002CC7D1002098
:105A5000F8BD70B5002815D00024C189491E09047D
:105A6000090CC1810DD1017B056803290BD00129E7
:105A70000CD002290AD0FFF713FD641CE4B2280001
:105A8000EBD1204670BD0146072001E0014606200B
:105A9000FFF70AFEF1E710B5002909D0002807D06A
:105AA000002907DA4A4293B242899A4224D302E09B
:105AB000002010BD8BB2027B4468002A06D0032A66
:105AC00004D0022A0AD0012A08D015E0621A03463F
:105AD000103342609A4208D244600DE000290BDA8C
:105AE00042899A4208D3621A42604289521842811E
:105AF000028951180181DBE7012010BD70B50289D0
:105B00008A4223D98A1A0D46044605E0281A85B22E
:105B100020898018208124686089A842F6D3207BE0
:105B200000280AD16089A84207D0A088001B40192C
:105B300081B22046FFF74CFD04466581258120682F
:105B4000002801D0FFF785FF0020206070BD0028ED
:105B500002D0C189491CC18170470000C1070448B7
:105B600003D0FF211F31416270470249FBE700006B
:105B7000009000401E01040030B5134902884B68B4
:105B8000D2189C1C90420ED01579002D0BD18D6837
:105B9000AA4208D0CD68954200D1C860158805801A
:105BA0001288C51A15534288D21882420BD0157933
:105BB000002D08D1CD68854200D1CA6001881180CE
:105BC0000088D11A015330BD4401002010B50446AD
:105BD000002905D00846FAF7E0FA2060002010BD41
:105BE0000020FAE710B50446002905D00846FAF768
:105BF000D4FA6060002010BD0020FAE7F3B583B04E
:105C00000020009003984668707A317A00020843B9
:105C1000FFF723FEC0B201901448002504681FE07E
:105C2000217C0198814216D16769002F13D0334639
:105C30000C33A0692146039AB84700280BD00020F6
:105C4000039001200090002D05D0E068E86007482F
:105C50000168E160046025460098E468002801D1ED
:105C6000002CDDD1009805B0F0BD000040010020FF
:105C700070B505460020FFF749FD040009D01C213E
:105C8000FAF761FA25748020E07203480168E16048
:105C90000460204670BD0000400100208261416127
:105CA0007047000010B50B490A6882420AD1D268D9
:105CB0000A6009E0D168002903D0814201D1C1689E
:105CC000D1600A46002AF5D101460020FFF7ECFC1E
:105CD00010BD00004001002010B5021D00F001F8C9
:105CE00010BDF7B50E46044684B014213046FFF7C8
:105CF000D2FE0027FF4300280AD0002211460120CF
:105D0000FFF7AEFD05000BD03146FFF747FE0AE076
:105D100013213546C9433046FFF7BDFE002802D0A7
:105D2000384607B0F0BD0698FFF702FA002817D0F2
:105D3000002C1DD0216800291AD02146227CA37A8C
:105D4000019202900093E37A2846069AFFF76AF9D7
:105D50000446B54202D02846FFF77BFE2046E0E726
:105D6000B54202D02846FFF774FE0320C043D8E7AF
:105D7000011DE3E7F3B50446007C87B00A283ED056
:105D8000A06D0390606A0290002C42D020680490BD
:105D9000201D00D06068059094200559278B268C23
:105DA000606900902046FCF745FD21461A4801F045
:105DB000DDF9A06F002801D002F08BF8606F002899
:105DC00001D002F086F8E06F002801D002F081F8DF
:105DD00021460220FFF768FC002D03D00421C943AF
:105DE0000098A8470898002807D005AB04AA009798
:105DF00001960299039801F0D9FF09B0F0BD064859
:105E00002146001D01F0B2F921460220FFF74CFCAB
:105E1000F3E700200490BDE7BC000020C16170479B
:105E20000420C04370470000F8B507460220FFF782
:105E30006DFC3E4C3E4D060040D1287C400701D40D
:105E40000020F8BD00210846A668A26906E0136B91
:105E5000F31A8B4201D319461046D268002AF6D1B4
:105E6000002802D00121FFF785FF0220FFF74EFC3A
:105E7000060023D17F1E7F20844600206269A1682E
:105E8000FEB2864600910DE0517CB14209D86145D1
:105E900007D8176B009BDB1B734502D39E46104649
:105EA0008C46D268002AEFD1002802D00121FFF7EA
:105EB00061FF0220FFF72AFC060035D0AC21FAF77B
:105EC00042F940207074C1013018C1850023038657
:105ED000A98831857185B3728021F1724322696886
:105EE000D200914200D91146318706210181838079
:105EF000C180C91FF1860121418200F0A1FE7066B8
:105F0000B065F064B066A0683063342083553046D5
:105F100008498030816008490A6882614A68C26124
:105F200089680162A92083553046F8BDA800002089
:105F3000203E00204B7C0000343E00204161704731
:105F4000F7B50746007C82B01446002803D00C2029
:105F5000C04305B0F0BD002C02D100F043FE044662
:105F60003548056811E0288BA0420DD1002D4BD09B
:105F70002E68002E48D00398002845D0FAF70DF976
:105F8000002841D0B0423FD0ED68002DEBD12A4D22
:105F9000103D6E6913E0308BA0420FD1002E33D03C
:105FA0003068009000282FD0039800282CD0FAF7F2
:105FB000F4F8002828D00099884225D0F668002EF1
:105FC000E9D1EE6813E0308BA0420FD1002E1BD038
:105FD00030680090002817D00398002814D0FAF7F2
:105FE000DCF8002810D0009988420DD0F668002E09
:105FF000E9D1AE690CE0308BA04208D10398FAF7E2
:10600000CCF83168884202D10A20C043A1E7F66883
:10601000002EF0D10398002808D0FAF7BEF8002827
:1060200004D0042238460399FAF774F83C83E868F0
:10603000F8600020EF608CE7B800002070B50546DE
:10604000007C05260300FDF7AAF808051D2B353551
:106050004A4A3D4A2846FCF7EDFB24480024C16823
:10606000A94201D1C96807E0C161002905D0C9680A
:10607000A942F9D1E968C069C1600020E8602946F9
:1060800002200AE000242846FCF7D4FB17482946E2
:10609000103001F06BF829460320FFF705FB23E0E1
:1060A00000242846FCF7C6FB10482946143001F0AE
:1060B0005DF8E4E70121284601F018FF040009D14A
:1060C0002E7407E00121284601F010FF040001D1E1
:1060D00009202874002D07D0002C02D004E00024F1
:1060E00002E0284600F00EFE204670BDA800002009
:1060F000FFB50446007C83B015460F46002803D048
:106100000C20C04307B0F0BD002F08D00422201D92
:10611000FAF700F82584208B002803D005E008203A
:10612000C043EFE700F05EFD208300F089FD00250D
:106130006562A065401EE064A0661F482646406870
:106140002085608540364321E562C900B0838842DE
:1061500000D9084680B22087394600F031F8208700
:106160000A22012150437182B082022020748C22C5
:10617000069810511148C268A24202D1D268C2608A
:1061800008E0C261002A05D0D268A242F9D1C369F1
:10619000E268DA604269E260446100220191022310
:1061A00000951146204600F01DF8050002D120465A
:1061B00000F0A8FD2846A5E7203E0020A80000200A
:1061C00010B504460846FEF7B3FF002808D0008D3E
:1061D000002805D0283880B2844200D220460446E8
:1061E000204610BDFFB58FB0119919980143129840
:1061F00080070143EE4877D01199002902D1109908
:10620000002971D10F98119940300690C28D0F98D6
:1062100020300D908A4205D28178802001430D986C
:10622000817050E11098029019980991C00701D02F
:10623000042100E000211998800701D50C2000E01E
:106240000020081807900F98876E0698008E05901A
:10625000D84841680120C003F9F732FF014605988C
:10626000814202D9D449884201D90D98D4E7002649
:1062700003960F98018F0798081A0999884200DB46
:10628000084680B200900420FFF740FA04006ED068
:10629000002525606560002E27D0039804601898BB
:1062A0000394C00723D0079900980022401881B2B8
:1062B0001046FFF7D5FA60600028E8D0FFF776FBBC
:1062C00001460598081880B205901098002807D05C
:1062D0006068009A4168079808180299F9F71AFF50
:1062E00060684068A06026E0EFE00646D7E700223D
:1062F00010460799FFF7B4FA60600028C7D0FFF78F
:1063000055FB01460598081880B2059009980028A9
:1063100011D0012203200099FFF7A2FA010021D039
:106320000598401C80B20590029848600298A060D1
:106330006068FFF71FFB9F4841680120C003F9F721
:10634000BFFE01460598814211D301469A48814219
:106350000DD80098A08114216068FFF79CFB0028ED
:1063600005D105E06068FFF774FB002060609FE0E6
:106370006068406820610F98008BFEF7B1FA2169D0
:106380000870000A48700F98008CFEF7A9FA21697E
:106390008870000AC8703846FEF7A0FA2169091D06
:1063A000F9F705FF2069290A8574C17482483C38D1
:1063B000FEF796FA22690546517B127B09021143CA
:1063C0000D401298FEF78CFA05432069290A0573DF
:1063D00041731998A0732169487B097B0002084327
:1063E000FFF73BFA07990522890880060903120383
:1063F000800E89180843FEF773FA21690873000AB2
:106400004873009909987F18401A80B20990029841
:10641000401802900998002800D02AE70F98456F8D
:10642000002D72D000E0054628680028FBD1002D21
:106430006BD02969487B097B00020843FFF70DFAFE
:10644000800700D00120A989C84277D02969487BFC
:10645000097B00020843FFF700FA80076ED112980B
:10646000800702D01298012868D1A889B189411803
:106470000F98008F814261D8A87BB17B88425DD1A3
:106480002869001DF9F789FEFFF7E5F9A989471882
:106490003069001DF9F781FEFFF7DDF987424DD124
:1064A0000799706814314942FFF7F5FA00280ED0B9
:1064B0000D988178802001430D98002E817002D0C4
:1064C000304601F006FD0020C04313B0F0BD7068F7
:1064D0004189002909D10168716000210160059995
:1064E000491E89B20591FFF7B4FA1298C0070DD082
:1064F0000120FEF7F5F929694A7B0B7B12021A434A
:1065000010430873000A48730AE014E07168686871
:10651000FFF730FAA889B1894018A881306828604F
:10652000B44202D1A8892C46009031460420FFF7DE
:10653000BBF804E002E00F98466700E02E60129876
:10654000800703D01198401C80B211901298C007A8
:1065500005D00D982021807808430D9988700F98F8
:10656000816E119809180F9881660698C18D11984F
:10657000081A0699002CC88506990598088614D033
:106580000098002811D0206900280ED018988007A4
:106590000BD40820FEF7A4F921694A7B0B7B120279
:1065A0001A4310430873000A487300208DE7000067
:1065B000F6FFFFFF203E0020FCFF0000803041611D
:1065C00070470000F8B518480026446928E02546C1
:1065D00080352A68002A0FD0AF68002F04D000232E
:1065E00021466069B84704E000232146184601F0BF
:1065F0002CFB002800D12860761CF6B2642E11D83E
:1066000025462035A878C10709D002210843A87083
:10661000204600F077FBA87880088000A870E46826
:10662000002CD4D1F8BD0000A8000020F0B507462A
:10663000ED4D87B040680C46A860417802780802AA
:106640001043FFF70AF90005000F79688000401831
:106650006860A9684878097800020843FFF7FDF8E8
:106660000005000F800041423846FFF714FA002869
:106670007ED1388914287BD3A86821461030FEF7D4
:10668000C7FA0028F4D1A8681030F9F786FD04464F
:106690000F200007FFF7DFF8044007204007FFF74F
:1066A000DAF8844264D038890090AA68062311463B
:1066B00038460C311032FEF76FFA0028D8D16868DE
:1066C000417B027B08021043FFF7C7F8000B8000F4
:1066D00041423846FFF7DFF90028C9D16968487898
:1066E000097800020843FFF7B8F8014668680170AE
:1066F000090A4170C178827808021043FFF7ADF8AB
:10670000014668688170090AC170001DF9F745FDEE
:10671000FFF7A1F869680C46091DF9F748FDE86024
:1067200020460830F9F739FDFFF795F869680C46FF
:106730000831F9F73CFD2861E07BA17B00020843AA
:10674000FFF78BF8014668688173090AC173417BC2
:10675000027B08021043FFF780F88006800E287045
:106760003989800700D0012008186880002600E0E1
:10677000B8E09E4804689C480194806801460C314A
:10678000103004909848069145683EE068782A7871
:10679000218C00021043814235D1E878AA78218B00
:1067A0000002104381422ED10698F9F7F6FC616889
:1067B000884228D10498F9F7F0FC2168884222D158
:1067C000002E05D0E068F06088480199E16004601F
:1067D000002C1CD08649002008603A898A817A689A
:1067E0004F608A60804A0D61506126465070803645
:1067F0003268002A7BD0B568002D7AD0002321466C
:106800006069A8477AE02646E468002CBED1794842
:1068100004681EE068782A78218C000210438142C7
:1068200016D1E878AA78218B0002104381420FD15B
:106830000698F9F7B2FC6168884209D10498F9F723
:10684000ACFC2168884203D1204601F0CDFC49E030
:10685000E468002CDED1684800260468009421E03A
:10686000002C0AD020680690002806D00498F9F77A
:1068700094FC01460698814212D1E878AA78218BCF
:106880000002104381420BD1002E05D0E068F06079
:1068900059480099E1600460204600F0DDF821E0ED
:1068A0002646E468002CDBD1687B297B00024E4C35
:1068B0000843FEF7D2FF400714D4616848780A788D
:1068C00000021043CA788B7811021943009101909D
:1068D000A3686188E0681A46411810320C332069B9
:1068E00001F064FA3846FFF7B4F807B0F0BD08E0ED
:1068F000FFE700232146184601F0A7F90028F1D14F
:106900003060394D2046AC6100F064FC401D61D020
:10691000687801071BD505A92046F9F709FF01286A
:1069200002D1207C022855D02046FBF783FF7269F4
:10693000002A03D00521C9436069904721462B48AE
:1069400000F014FC21460220FEF7AEFE42E0C00635
:1069500003D52046FBF76EFFF0E76C20025B002AB0
:1069600005D07368002B02D02146606998476A6998
:10697000002A17D02878000703D5507B012108434F
:106980005073B768002F04D0002321466069B847D0
:1069900004E000232146184601F057F9002801D0F1
:1069A0006869306068782F4680060ED5B668002E7C
:1069B00005D000231A4621466069B04705E0002350
:1069C0001A462146184601F040F90020B8612046D9
:1069D00000F098F90026064CAE616068002884D06B
:1069E000FFF737F8666080E760010020BC000020F8
:1069F000E8450020C0000020B80000207CB5044617
:106A0000002214210120FEF72BFF050022D0A06DEB
:106A1000401EFDF763FF034600222946204600F092
:106A2000E5FA0646288900900623221D21462846BD
:106A3000FEF7B2F83074000A70740621002001914C
:106A40000090E37A221D21462846FEF7D1FA284617
:106A5000FEF7FFFF7CBD0000FEB53C4D06462878E2
:106A6000C10616D5696848780A7800021043CA78CA
:106A70008B7811021943009101906988E868AB682E
:106A8000411828691A46401C10320C3301F08EF967
:106A900059E0800757D5707CFFF7C6F904004BD04A
:106AA000AF683846103001D0F9F777FB2060308BA3
:106AB000208338460C3001D0F9F76FFB60606A68BC
:106AC0005078117800020843208403202074E8687D
:106AD000411C6162E162D17B937B0A0221461A4329
:106AE00040318A838A82401E206670696061F06945
:106AF000E0613089FF219A31084020811448016803
:106B0000E1600460204600F0C9FA208F211DFFF7E4
:106B100057FB208700200121019102460090014689
:106B200012232046FFF75EFB050008D00021204617
:106B3000FFF720F92846FEBD0020C043FEBD2046D9
:106B400000F0E0F8FEBD0020FEBD00006001002066
:106B5000BC00002070B50446007C002801D0002055
:106B600070BD0320FEF7D2FD051EF9D06069686193
:106B7000208B288301202874208902210843288142
:106B8000E07AE872A07AA872002C07D0206828600A
:106B90000F48C168A14203D1C96809E00020F6E7A7
:106BA000C161002905D0C968A142F9D1E168C06975
:106BB000C1600020E06021460220FEF775FD054817
:106BC000E861034810300168E9600560284670BD3F
:106BD000A8000020215E000010B54020FFF724F936
:106BE00010BD000030B51548134D44694188491C5B
:106BF00089B24180A94202D901210903418021467D
:106C0000438803E00A8B9A42F0D0C9680029F9D181
:106C1000826903E0118B9942E8D0D268002AF9D149
:106C2000064910310A6803E0118B9942DED0D26820
:106C3000002AF9D198B230BDFF7F0000A8000020E3
:106C400002498A684868801848607047A800002098
:106C5000F8B50C4601690546487B097B00020843EC
:106C6000FEF7FBFD254FC00727D0204601F031F984
:106C7000002441E0707B317B00020843FEF7EDFD0C
:106C8000C00716D01E48FDF72BFE29690646487B33
:106C9000097B000208430640FEF7DFFD8006800EF8
:106CA00001210843FDF71CFE06432869310A0673DB
:106CB00041732046246801F0FBF8002C1CD02069A9
:106CC0000646001DF9F769FA0146A089FA68081816
:106CD000A9898918081ACDD52069001DF9F75DFA30
:106CE000AA89F9685218121A002A05DD401A81B2E1
:106CF000A9816868FEF702FF2C60F8BD60010020E2
:106D0000C0FF0000F0B504467D4885B00068A04291
:106D100002D1002005B0F0BD204640300390039919
:106D2000808B498A884200D3084602902046203052
:106D3000656F00908078800712D5002D0CD02869EF
:106D4000001DF9F72AFAFEF786FDE16C401AA989C1
:106D500041180298814203D9204601F0D2F8D9E7C0
:106D6000A66F002E01D199E0064630680028FBD1BD
:106D700094E0A06F002812D0009844228078014649
:106D800010420CD1606F002806D00268002A06D19C
:106D90008089228F904202D2A020014276D02868BA
:106DA0006067207C022812D01020FDF799FD014673
:106DB0002869427B037B12021A4311430173090ABB
:106DC000417300988078810800988900817021467D
:106DD000284600F097F82869001DF9F7DEF9FEF75C
:106DE0003AFD29690746487B097B00020843FEF704
:106DF00034FD800700D00120A98938184018A16D02
:106E0000091A00D5A0652969487B097B000208435F
:106E1000FEF723FD800701D0012100E00021A889B1
:106E2000C14237D000202860A06F002811D0286907
:106E3000001DF9F7B2F9FEF70EFD07463069001D97
:106E4000F9F7ABF9FEF707FD381A20D52046783060
:106E500003E0A5671CE00198006801900068002825
:106E60000ED00069001DF9F798F9FEF7F4FC07460B
:106E70002869001DF9F791F9FEF7EDFC381AEAD4FC
:106E80000198006828600198056006E017E0356009
:106E90002E4602E0284601F00BF8656F002D28D041
:106EA0002869001DF9F779F9FEF7D5FCE16C401A65
:106EB000A98941180298814200D85AE701E0002DC3
:106EC00017D02646A036307A002812D12869001D36
:106ED000F9F763F9FEF7BFFCE16C401AA989411884
:106EE0000398808B814204D90020803460620120A5
:106EF00030720098807841060098490E817008E74A
:106F0000780100207CB505460C46486AFDF7E6FC92
:106F100029690831F9F74BF9608DFDF7E1FC296922
:106F20008873000AC873618D606A4018E0622E6938
:106F3000A87B1436C00707D02A48812140688904FD
:106F40000843FDF7CBFC3060002C02D020680028FD
:106F500008D1201DFEF7ECF8002841D0011D07D014
:106F6000406820603620205E0026401C02D002E0EF
:106F70000020F6E7E686E06B002809D11A48006891
:106F8000E0632869001DF9F708F9FEF764FC206446
:106F90006968288A8A880623801A4A89121A4A81CF
:106FA00069680A89101A088169682869486028692F
:106FB000310A067441746868221D018900912146D6
:106FC000FDF7EAFD2969221D0874000A4874A07AB9
:106FD000062101910090E37A21466868FEF708F8DF
:106FE0007CBD0000203E0020B0000020F8B5054622
:106FF0001F461646008B4C68FDF772FC2070000A95
:107000006070288CFDF76CFCA070000AE070211DF8
:107010003846F9F7CCF8686AFDF760FC214608317C
:10702000F9F7C5F81C48FDF75BFC617B227B090280
:10703000074611430F401020FDF752FC074327730A
:10704000380A6073688DFDF74BFCA073000AE0738B
:107050000027A774E774607B217B00020843FEF7DA
:10706000FCFBF117890F8919891005228006090395
:107070001203800E8918084380B2FDF731FC20739B
:10708000000A60732774380A6074698D686A401852
:10709000E8622046F8BD0000C0FF0000F8B5204EB1
:1070A00005467468617B227B080210431434FEF7A6
:1070B000D4FB000B05281CD97168487B097B0002B2
:1070C0000843FEF7CAFB000B401F8004000C0021A0
:1070D000144B0CE0625C002A0BD0012A0AD0022A71
:1070E0000AD062185278002A03D0511889B281421E
:1070F000F0D3F8BD491CF9E762185678042EF8D190
:10710000091D8142F5D8D678977832023A435E68F5
:1071100052BA964201D3002A00D132462A87E5E7C7
:1071200060010020203E002070B50446007C00284D
:107130001BD00A2819D0012817D025468035286889
:107140000026002802D0FEF784FC2E600020C043F9
:10715000E086E06F00F0BDFEE667606F00F0B9FE0C
:10716000A06F00F0B6FE6667A66770BD70B50C46EE
:107170000168A14202D1C96801600BE0114806E034
:10718000C968A14203D1C069E168C16002E0C16180
:107190000029F5D100252046E560FFF7C5FF207CDA
:1071A0000A280CD001280AD0204620308178CA074E
:1071B00005D00222114381702046FFF7A3FD2574FC
:1071C00070BD0000A80000209023195020304275A7
:1071D00070470000FEB50446C84F25463878203574
:1071E000410700291BDA207C022813D0606AF96865
:1071F0000A1A13D4228D8018081A00280EDC787819
:10720000082108437870A87840084000A87005203D
:10721000C043FEBDA06D39698842F0D06CE18007A3
:107220000CD5207C022809D0032807D0A878022199
:107230000843A8702046FFF765FD5DE1B048A9212D
:1072400000682063002008552046FFF727FF207CB8
:107250002646801E40360300FBF7A1FF080565BEE9
:10726000C3F0BEEFEEB23878C106D7D5800748D557
:10727000A06F0069001DF8F790FFFEF7ECFA39697E
:10728000401C88423AD1F08D401CF085F8680246D7
:10729000401C6062E164E0627968521EC87B897BB1
:1072A00000020843B083042022662074208F211D31
:1072B000FEF786FF0A2120874143B182718A0129A6
:1072C00000D140007082308E401E3086A16F086869
:1072D000A06700280ED00020E086B072084600F0BB
:1072E000E7FD8C200359002BA0D0002221466069C5
:1072F00098479BE70020C043E086EFE73878C00658
:107300008CD5796848780A7800021043CA788B785F
:1073100011021943009101907988F868BB684118FF
:107320001A46386948E03878C1064AD5E16C3869B0
:10733000411A012930D4A16D411A00292CDC042006
:107340002074E369002B0CD0002221466069984725
:10735000002806D001212046FEF70CFD0420C04382
:10736000FEBD778A204600F0D3F8B08D002801D00A
:10737000401EB085208F012F00D1400070825F48F1
:10738000407880061CD5A87802210843A8702046C2
:10739000FFF7B8FC072062E07A6851781378090299
:1073A0001943D37894781A022243009201917A8883
:1073B000F968BB6889181A4610320C3300F0F6FCE5
:1073C0009AE0800707D5606AF968401E884202D1BA
:1073D000204600F083FC8FE0204600F099F8787892
:1073E000CFE7204600F094F87878800638782FD5DB
:1073F000C00624D5A06D3969884220D1A878022121
:107400000843A8702046FFF77DFC2046FFF78CFE5E
:107410003C480168A14202D1C968016057E03A487E
:1074200006E0C968A14203D10068E168C1604EE08E
:1074300001600029F5D14AE050E02FE011E0A87882
:1074400002210843A8702046FFF75CFC082006E0F4
:10745000C00651D5A06D396988424DD106202074EF
:107460004AE0204600F054F87878800644D5A878A1
:1074700002210843A8702046FFF744FC2046FFF78E
:1074800053FE20480168A142C6D01F4802E0C968E7
:10749000A142C9D001600029F9D118E0204600F0CE
:1074A00037F83878C00627D5A06D3969884223D1CE
:1074B0002046FFF739FE13480168A142ACD01248BC
:1074C00002E0C968A142AFD001600029F9D10A20C9
:1074D00020740E480168E16004600DE0204600F071
:1074E00017F83878C00607D5A06D3969884203D1EE
:1074F00078781021084378700020FEBD60010020DC
:10750000B0000020BC000020C4000020C00000200B
:10751000FEB50446F848264600782036C006002806
:107520007EDA25464035A88B0190636EF249C0187B
:107530000090206ECA688446871A08464168006930
:107540000CD4944501D11F1A08D4834215D1CB7BAA
:107550008F7B1B023B43019FBB420ED9CB7B8F7BB2
:1075600019023943A9832266606606D02146A031FC
:107570000A7A002A01D000220A72E26C811A0029DC
:107580002ADC0021DC4BA9855B88002B22D1AF8B44
:10759000636EDF19009B9F421CD13623E35E002BF4
:1075A00018DB824216D1287C0146401C884200D953
:1075B0002874287C032807D9688A218F411889B24A
:1075C000814200D969829CE0032802D1204600F064
:1075D000ADFB96E0297494E0012975D4A36DC21A1D
:1075E000002A71DCB278530704D5FB231A40B2702D
:1075F000AA8A6A820022AA720423EB5EEF88DB105B
:10760000DB192B81A985EB8D5918E9852A74E06473
:10761000207C04282FD36F8AA88A8742208F00E01D
:10762000B2E004D2381880B2B84208D823E0404310
:107630003946F8F75BFDC01980B287421BD26882D9
:1076400019E03868A067A88D00280BD03969487BFD
:10765000097B00020843FEF700F9C00702D0A88D9D
:10766000401EA8857868FEF7A1F9298E081A288699
:10767000384600F01DFCA06F002822D00069001DD4
:10768000F8F78BFDFEF7E7F80746A06F0169487B26
:10769000097B00020843FEF7E0F8800700D00120D4
:1076A0003818A76FB989411893480069081A00284B
:1076B000C7DD002F05D00020E0860020307520E0D7
:1076C00002E00020C043F7E70020A88519E03868F1
:1076D0006067A88D00280BD03969487B097B0002C0
:1076E0000843FEF7BAF8C00702D0A88D401EA8854F
:1076F0007868FEF75BF9298E081A2886384600F06C
:10770000D7FB606F00281DD00069001DF8F745FD0C
:10771000FEF7A1F80746606F0169487B097B00020C
:107720000843FEF79AF8800700D001203818676FE9
:10773000B989411870480069411A03D4A16D401AF3
:107740000028C4DDE06B00281ED06B49226C09695B
:10775000511A19D569490988081A0421695ECA10A5
:10776000801A00B2091809B2A980002801DA404243
:1077700000B20622AA5EC9109310C01A1018E88041
:10778000081828810020E0635B4D6B88002B7DD0BA
:10779000626AE968501A01282AD4CB18D31A5B1CF4
:1077A000002B25DC56494F68798981420BDA3989EB
:1077B000091A8AB2002303E03A817B813F68401AAC
:1077C00079898142F8DB404201B23846FEF763F91D
:1077D0004B4879688160AB89626A8189D31AC91A7A
:1077E000818101691046091DEA60F8F7E0FC08E0B4
:1077F000881A0AD5B17802200143B1702046FFF7FC
:1078000081FA606AE968081A7ED4218D606A42189C
:10781000E9688A1A521C002A76DC884275D1384FF2
:107820003969487B097B00020843FEF716F8800798
:1078300001D0012100E000213148808908182E493B
:1078400080B24880218D814240D22D4D2969487BEC
:10785000097B00020843FEF700F8C00714D029484E
:10786000FDF73EF807462869417B027B080210437A
:107870000740FDF7F2FF3E210840FDF731F80743CE
:107880002869390A07734173208D00E0C1E1A8819E
:107890002969487B097B00020843FDF7DEFF80076A
:1078A00002D5A889401EA881A9896868FEF726F933
:1078B0002969487B097B00020843FDF7CEFF80075A
:1078C00000D00120A98940180B494880E06F0028AA
:1078D00011D00B480169487B097B00020843FDF782
:1078E000BCFFC00704D111E00168E16700F0E0FAD5
:1078F000E06F0028F8D189E060010020B00000208E
:10790000E8450020C0FF00007FE1FBE0E76F3AE0C0
:10791000687B297B00020843FDF79FFFC0072ED03C
:10792000C5480069417B027B08021043FDF795FFC3
:10793000800724D4C148FCF7D3FF0546BE4801693F
:10794000487B097B000208430540FDF786FF80065F
:10795000800E01210843FCF7C3FFB749284309699A
:10796000020A08734A73FDF778FF800701D00121EE
:1079700000E00021B04880890818B14948803846A5
:107980003F6800F095FA002F3FD038690546001D8A
:10799000F8F703FC0146B8890918A948C26840886D
:1079A0001018401AB4D53869001DF8F7F6FB0146E7
:1079B000A348C56840882818401A002825DDE06FD4
:1079C0000069001DF8F7E9FB401B9B4DA881286961
:1079D000427B017B10020843FDF73FFF800702D581
:1079E000A889401EA881A9896868FEF787F82969D7
:1079F000487B097B00020843FDF72FFF800700D07A
:107A00000120A98940188E494880E7678C4D688815
:107A1000E96809186162218D081A2085204600F066
:107A20002DFC854841680A89002A02D0696100213D
:107A300041600169487B097B00020843FDF70DFFA7
:107A4000C0074AD0687820210843687045E0E860A4
:107A50000098417B027B08021043FDF7FEFE800781
:107A600000D00120BA89616A8918401860623969BA
:107A7000487B097B00020843FDF7EFFE800700D03A
:107A80000120B9894018218D081A2085204600F070
:107A9000F5FB79680889002808D06869002802D0B9
:107AA000FDF768FF00E06961002078603969487B74
:107AB000097B00020843FDF7D0FEC00708D06878B4
:107AC000202108436870207C042801D107202074FD
:107AD0003868E067384600F0EBF9E76F002F07D011
:107AE00038690090001DF8F758FB616A8842AED0F3
:107AF000B078C10702D04008400095E0012108435A
:107B0000B070FEBD204600F0FCF9E66F002E18D0E4
:107B10004B480027C5683069001DF8F73EFB009010
:107B2000A84213D14448B18980898842E9D94248A2
:107B300000F0ACF90028E4D0002F38D0386031468E
:107B40002BE03D4800F0A2F9E067FEBD002F27D0F2
:107B50003869001DF8F721FB281A012829D400985C
:107B6000281A401C002824DC334800F08FF9040058
:107B7000EBD03869001DF8F710FBB989421830497D
:107B8000C968521A002A05DD081A81B2B9817868DD
:107B9000FDF7B4FF314620463C60FFF759F8FEBDC3
:107BA000281A06D5244800F071F90028F7D0E067BC
:107BB000C5E73168002924D10098281A002820DD63
:107BC0003069417B027B08021043FDF746FEC00787
:107BD000E5D1194800F05AF930600028DFD030694B
:107BE000001DF8F7DAFAB18942181549C968521A26
:107BF000002AD4DD081A81B2B1817068FDF77EFFDA
:107C0000FEBD37460E0086D1FEBD204600F079F954
:107C1000FEBD606AE9680A1A05D4228D8018081A28
:107C2000401C0028F4DDB07802210843B0702046E3
:107C3000FFF768F8FEBD0000E8450020C0FF000027
:107C40006001002080308160704710B51400084644
:107C500006D0218900F00CF82046FDF7FAFE01E07D
:107C6000002B01D0002010BDFEF7E8F910BD000088
:107C700070B50446008D0C4D401881B221856868AE
:107C8000814200D92085204600F0F8FA6968890809
:107C9000814208D820462030817802221143817029
:107CA0002046FFF72FF870BD203E002010B501855B
:107CB00000F0E4FA10BD10B50185044641850029A5
:107CC00001D000F0DBFA20462030817802221143F7
:107CD00081702046FFF716F8012010BDF8B5866FB9
:107CE0000446002E21D0306825467435A06700E098
:107CF0002D68286800280ED00069001DF8F74DFA9D
:107D0000FDF7A9FD07463069001DF8F746FAFDF7B3
:107D1000A2FD381AECD428683060214640312E602C
:107D2000887A401C88720020E063F8BD70B5044674
:107D3000806F002820D025462035A87840071BD426
:107D40002046FFF7CBFF20464030428A818B8A4293
:107D500001D9490800E051088182228F8BB251007D
:107D60008B4200D28182818A5300D21889184182C5
:107D7000A87804210843A87070BD10B5816F002950
:107D800012D000E011460A68002AFBD1426F0A6057
:107D9000816F002282674167014640318B7A5B1C0C
:107DA0008B72C263FEF7AEFF10BD0000FFB50E463A
:107DB00083B01F46002214210120FDF751FD05006C
:107DC0005ED06C680C98FCF78BFD2070000A607028
:107DD0000D98FCF785FDA070000AE0700398FCF791
:107DE0007DFD211DF8F7E3F93046FCF777FD2146CC
:107DF0000831F8F7DCF92348FCF772FD617B227B40
:107E00000902064611430E401420FCF769FD0643A3
:107E10002673300A60731C48808880B2FCF760FDCE
:107E2000A073000AE0730026A674E674607B217BD1
:107E300000020843FDF711FD80060521800E0903AD
:107E40004018FCF74DFD2073000A60732674300A59
:107E500060742889009006233A4628460599FCF765
:107E60009BFE2074000A6074062000960190802317
:107E70003A4628460599FDF7BBF82846FDF7E9FD87
:107E800007B0F0BDC0FF0000203E002070B50546E1
:107E90000420FDF73BFC040008D014222946F8F723
:107EA00039F96068FDF753FE204670BD002070BDB3
:107EB00070B500250446002809D06068002802D06B
:107EC000FDF7C7FD054621460420FDF7EDFB2846DA
:107ED00070BD70B5002405E00568FFF7E9FF0019E3
:107EE000C4B228460028F7D1204670BD1CB5002337
:107EF0000122019300920B4600221146FEF772F90F
:107F00001CBD7CB504460026324614210120FDF735
:107F1000A7FC050029D020462030817889088900F7
:107F20008170A06DFCF7DAFC0346324629462046F4
:107F3000FFF75CF80646288900900623221D21469B
:107F40002846FCF729FE3074000A7074A07A0621D6
:107F500001910090E37A221D21462846FDF748F85A
:107F60002846FDF776FD00207CBD0120C0437CBD86
:107F70008030416070470000F0B597488BB0007EBC
:107F8000964E0690B0680027401CB0600797746951
:107F900006E138467F1CFFB264287DD8002508958D
:107FA000227C022A06D14A20015D0698814201D135
:107FB000012554E0214640318B7A0698834201D155
:107FC000012543E02046A0308446007A002813D0E3
:107FD00023468033596A824A491C5962825C914225
:107FE00034D300215962072802D26146401C08722E
:107FF000204600F079F929E03620205E002801DBD8
:10800000401CE086A06F002820D03620205E01288A
:108010001CDB022A08D00420085ECA88C010801821
:10802000704AD25C904008810020E086488A8A8BA2
:10803000904200D3104640088882228F904201D29D
:10804000500088824A822046FFF797FE207C06284F
:1080500005D1206BB168081A282800D96D1C207A38
:10806000000736D5207C042801D0072831D12046CE
:108070008030026AC16904914A4380690990FF21F6
:108080001018F531F8F71CF80146206BB268101A89
:108090000190814205D200E09CE001206D1C089017
:1080A00017E02046A0300090407A0499484309998F
:1080B0004018FF21F531F8F703F801460198814295
:1080C00007D22046FEF79AFC00980099407A401C9F
:1080D0004872E06F00280CD0216BB2684823521A16
:1080E000195F062359438A4203D3FFF7F2FE0020AB
:1080F000E067207C032802D0092807D00BE0216B21
:10810000B068401A282806D96D1C04E0216BB068BD
:10811000401AF028F8D8002D29D02046FAF78AFB1B
:108120002046FFF701F80798002802D0E168C160F7
:1081300001E0E068706194200259002A03D0042114
:10814000C943606990470898002809D0218C208B8A
:1081500001910090231D2246616AA06DFFF726FE63
:1081600021460220E568FDF79FFA2C4618E02046DC
:108170002030017D491CC9B20175427D91420DD369
:108180000021017590200259002A04D0214660691F
:108190009047002802D12046FEF7B4FD0794E4681A
:1081A000002C00D0F5E60025B46911E02046FAF76E
:1081B00041FB2046FEF7B8FFE068002D01D0E860E3
:1081C00000E0B06121460220E768FDF76DFA3C4609
:1081D000002CEBD10BB0F0BDDC3D0020A80000204E
:1081E000338900003B8900007CB51B4C21784A078D
:1081F00030D4224652888B071CD5436AE168CD1AD9
:108200001DD4058D5B19CB1A002B18DC6368891807
:1082100058781D7800022843DD789E782B0233437E
:1082200000930190A36820691A4610320C33FFF7BF
:10823000BDFD0FE0C90702D0084909680163002AA3
:1082400008D0014620318A7802231A438A70FEF74B
:1082500059FD7CBD00207CBD60010020B0000020E5
:1082600010B5FEF7AFF904480178491C0170C80742
:1082700001D0FFF781FE10BDA800002030B50D49E8
:10828000058D4968446A4A08018F63198A4200D201
:108290001146C26A8918591A02D44585981A30BD08
:1082A000A11A002901DD002100E0111B41850020F9
:1082B00030BD0000203E00201CB5047C042C08D0FA
:1082C000072C06D0022C04D0032C02D00720C04378
:1082D0001CBD002A06D00024009301942346FDF71C
:1082E00081FF1CBD00201CBDFEB5846F0546002C1F
:1082F00002D16C6F002C53D02169487B097B0002AE
:108300000843FDF7AAFAC00702D0A089002827D0A9
:1083100000201521009000220120FDF7A1FA06009F
:108320003ED02069001DF7F738FF03460022314692
:108330002846FEF75BFE07460098002814D019482F
:10834000FCF7CEFA797B3A7B0902044611430C40D4
:108350001120FCF7C5FA04433C73200A787307E048
:10836000012014210090D6E7A06871680078087594
:108370003089009006232A1D29463046FCF70CFC64
:108380003874000A78740621002001910090EB7A7D
:108390002A1D29463046FCF72BFE3046FDF759FBD7
:1083A000FEBD0000C0FF0000F7B50546234882B0BF
:1083B00014460026076817E0BD4201D1012612E0ED
:1083C000788AA0420FD1002F2BD038680090002867
:1083D00027D00398002824D0F7F7DFFE002820D00C
:1083E000009988421DD0FF68002FE5D1039800282E
:1083F00001D0F7F7D2FE2860002C16D10F480124D7
:108400000168240308460E4A07E04B8AA34203D1C1
:10841000641CA4B2014600E0C968002905D094425A
:10842000F3D10A20C04305B0F0BD6C82002E03D109
:1084300002480168E96005600020F4E7F4000020CC
:10844000FF7F000070B51646428A0D460446002A9A
:1084500004D10146FFF7A8FF00281FD1002D0ED040
:108460002846F7F79AFE6060A682217C0422114319
:108470002174002C07D02168002902D00FE00020D1
:10848000F1E7211D0FD0002809D0201DFCF750FE78
:10849000002801D0406807E00320C04370BD211DC3
:1084A00001D0002801D10020206007490868024659
:1084B00004E0844201D1002070BDC0680028F8D1DA
:1084C000E2600C60F7E70000F4000020F3B54568B7
:1084D000074668782978000289B00843FDF7BDF99E
:1084E0000005000F80003989083088420ED868786E
:1084F000297800020843FDF7B0F90005000F80005D
:1085000041423846FDF7C7FA002804D03846FDF747
:10851000A0FA0BB0F0BD78680590284610300A9993
:108520000290FCF775FB04900598417802780802E8
:108530001043FDF792F903900598C17882780802FC
:108540001043FDF78AF900240690442805D0002046
:1085500000900190644804686AE0039843286FD152
:108560000A98006A00286BD04668002E68D0301D3B
:108570000BD070680090002807D028460C30F7F721
:108580000CFE0146009881425AD1344661E0002039
:108590000790618A0698814241D10498002804D14D
:1085A000002C18D02068002815D00298F7F7F5FDA8
:1085B0000146206881420ED00F200E460007FDF7CD
:1085C0004AF9064007204007FDF745F9864202D0E8
:1085D0000498002821D0012007900198002803D199
:1085E000207C400700D40194A18A0398814216D1CF
:1085F000201D08D06668002E05D028460C30F7F7FD
:10860000CCFDB0420BD10098002814D0E168C160C5
:1086100035480168E16004600DE0009407E00798C8
:108620000094002803D031490698884203D0E468BA
:10863000002CACD101E0002C0BD1019C002C08D106
:108640000298F7F7AAFD01460A984068814200D0D7
:108650005CE70598C1798279080210430AD038890D
:108660000090294611230C313846029AFCF794FAFF
:108670000028EDD10721C9433846FDF70CFA002840
:10868000E6D1002C0BD0A669002EE1D00398009013
:108690002B460C333A462146E069B04739E7049847
:1086A0000028D5D10298F7F778FD04460F2000077F
:1086B000FDF7D1F8044007204007FDF7CCF88442CD
:1086C000C6D06878297800020843FDF7C6F800058F
:1086D000000F810038460831FDF7DDF903213846E7
:1086E000FCF700F912E70000F40000206C0700001E
:1086F00010B50120FDF70AF8040004D02021F7F797
:1087000022FD8020E072204610BDC2618161704769
:1087100010B50B490A6882420AD1D2680A6009E0A2
:10872000D168002903D0814201D1C168D1600A46D5
:10873000002AF5D101460120FCF7B6FF10BD00006C
:10874000F400002010B5838A021D00F001F810BD6E
:10875000F8B507461D460E4614461046FCF7E8FCE1
:10876000002807D000902B4622463146384600F0BC
:1087700004F8F8BD0320C043F8BDFFB5428A85B0B8
:108780000F460546002A04D10146FFF70DFE0028DA
:1087900012D108213846FDF77EF900280ED00022BC
:1087A00008210120FDF75CF8040003D03946FDF7ED
:1087B000F5F804E00020C04309B0F0BD3C46688AEB
:1087C0006668FCF78DF83070000A70700898FCF746
:1087D00087F8B070000AF0700020B071F071002DC1
:1087E0000ED0286800280BD00E99496888420BD01B
:1087F000BC4202D02046FDF72CF90820C043DBE73D
:108800000E98001D039000E003952089FCF768F89E
:108810003071000A7071287CC00710D12089009047
:1088200011232046079A0399FCF7B6F9010AB071A3
:10883000F171002803D1401EB071000AF071A87ACE
:1088400011216B460E9A07C3EB7A2046079A0399CB
:10885000FCF7E8FB0546BC4202D02046FDF7F9F8DC
:108860002846A9E7FFB581B0044615460298F7F7F8
:1088700094FC09266168F643884203D10120F9F788
:1088800033FF19E00299002916D0002814D02146A0
:108890000298FCF7BDF900280ED10298F7F77DFC8D
:1088A00007460F200007FCF7D6FF074007204007C8
:1088B000FCF7D1FF874202D1304605B0F0BD0499E4
:1088C0000298FBF77BFF0100F7D40B010849022057
:1088D0004A689918887206209A18CC60401EC0B267
:1088E00014182B5C23710028F8D1C872E5E700004A
:1088F000F800002004000400040004000A00050041
:10890000050006001C002000AC0020001400200020
:1089100010006002C0A801C8C0A80101FFFFFF004D
:10892000C0A80164001112131415161718191A1B88
:108930001C1D1E1F03060C18306078010101010187
:108940000101010101010101010101010101010018
:10895000000000FFFFFFFFFFFFFFFFFFFF00000021
:108960000000000071696E68656E67003132330087
:108970006162636465666768696A6B6C6D6E6F706F
:108980007172737475767778797A30313233343521
:10899000363738390000000046494E5F5741495488
:1089A0005F31000046494E5F574149545F32000035
:1089B00045535441424C495348454400434C4F535E
:1089C0004544000053594E5F524356440000000096
:1089D000434C4F53494E47004C4153545F41434B26
:1089E000000000004C495354454E000054494D4589
:1089F0005F57414954000000434C4F53455F574176
:108A00004954000053594E5F53454E540000000036
:108A1000408A00000000002068000000B83100001B
:108A2000A88A0000680000202C010000F606000063
:108A3000008B000094010020DC460000C8310000DB
:108A400018490024887A572205071648A823403081
:108A5000002D05DB027003708D7A082635438D7278
:108A60000270037005250D810E4F20373D880326C7
:108A70007602B5433D808D7A102635438D720021F4
:108A800001700125BE79F60701D00024FAE77D26A2
:108A90003601641CB442F5D902700370857101700F
:108AA000F0E70000001000403139B80B84210405C4
:108AB0000607336489336C8964100080032670894B
:108AC000041B106E1933BC8933E48933048A33C420
:108AD0008933B08933988933A48933F88933D089AD
:108AE00033D889B3EC890545CC3A0020D5C028009D
:108AF0002033048933F488052FA414002053CDAB10
:040000050000009166
:00000001FF
