:020000040000FA
:1000000000800020B111000001400020BB11000061
:1000100000000000000000000000000000000000E0
:10002000000000000000000000000000BB11000004
:100030000000000000000000BD110000BF11000022
:10004000C1110000C1110000C1110000C111000068
:10005000C11100000B200000C1110000C1110000FF
:10006000C1110000C1110000C1110000C111000048
:10007000B1200000C1110000C1110000C111000039
:10008000C1110000C1110000C1110000C111000028
:100090000348854602F0EEF800480047A50000003E
:1000A000008000200E498A6A481502438A620321B3
:1000B00001F0F6FB01F0FBFD0A490BA00BF0C0FAC2
:1000C00001F013FF01F091FF04F076FB04F0C0F99A
:1000D00000F056FC00F04DF90BF046F9FCE700008B
:1000E000801000409084010025730A0070B5FF4D18
:1000F0000446E87886B0012806D0022831D120795C
:100100000026092833D046E02079072813D120891A
:10011000002828D0E0684178027809021143A981BB
:10012000C278807812020243EA81F1A00BF088FACB
:100130002079072817D0C0B2012812D1A889002839
:100140000FD00221E9706A461080E8895080117151
:10015000E1205071FF209071EA796946688906F0C4
:1001600013F806B070BD60781A28E7D0F9E7208947
:10017000002810D0E06841780278080210432882F5
:10018000AE71192292012021E87918F06DF8298AC0
:10019000E2A00BF055FAEE70E3E770B5D34D0446DC
:1001A000A87802282FD120790026032808D001281A
:1001B00007D1207A022815D1217BE2A00BF040FA6A
:1001C000AE7120797F2803D12189E4A00BF038FAA1
:1001D00020790B281BD0012804D0132821D0012816
:1001E00003D005E0207A0A280ED0207A122815D0F4
:1001F000E878002802D02046FFF778FF20462179D2
:10020000083006F07BF970BD217BD7A002E0E068E2
:100210000178D9A00BF014FAAE71EFE7217BDAA0D8
:10022000F8E72979DDA0F5E7F0B5B04D85B0EB79B9
:100230000C46080412D5184617F03AFE050007D000
:100240000178B02901D1FFF7A8FF284617F008FE72
:1002500001212046C903484005B0F0BDE007012652
:10026000002809D0A14A184620321146083904F066
:1002700051F920467040EFE7200604D5CB4804F042
:1002800089FC802071E099482107002740890029D6
:100290000CDAC7A1096800912F82EF81AF81EE705F
:1002A0000222694605F004FD08205EE0E10609D55A
:1002B0004B21C900009100236422142104F078FC32
:1002C000102052E0A10645D5A97900293ED18749E1
:1002D0006A79098A002A2BD06B465F731F73998055
:1002E000DE80324600231221009706F0C1F802900A
:1002F00000282BD0029928790870EA7901A9688929
:1003000006F0AEF8002804D0122101A806F0F6F895
:100310001CE0AE716879002808D0002068711922AD
:1003200092012021E87917F09FFF0FE00120F5E707
:100330006A4611801A46694605F022FF002805D159
:10034000AE716879002803D00020687120200CE08D
:100350000120FAE761060AD504F046FB4B22520160
:100360004021E87917F080FF4020604074E70020CA
:1003700072E730B585B08F480AF0D8FF5B4C4B214F
:10038000E0714901022005F0C5F81421072005F0AD
:10039000C1F86421082005F0BDF864210D2005F0A6
:1003A000B9F8854A1521002006F05AF9002004907A
:1003B00001206A461072107303211170107104AA93
:1003C00004217E4803F006FE812002AA0121C0001C
:1003D00003F000FE794803AA0121801F03F0FAFD13
:1003E00076486A460121401F03F0F4FD734801AAD4
:1003F0000121801E03F0EEFD05F098FDE07905F087
:10040000CFFE0025ED43284606F080F8284605F08B
:100410005FF90121E07917F0D5FD05B030BD10B5C9
:10042000494267A00BF00CF910BD38B569462F4D55
:1004300014460A80EA7905F06DFC214664A00BF0B1
:10044000FFF80120A87138BDF3B5284D85B0287A92
:100450000F460A282DD20024624E0AE0E0008119DE
:100460000622891C059817F0D9FB002821D1641CAD
:10047000E4B2287A8442F1D30006400D80190622A6
:10048000801C059917F0D8FB287AC10089194F7094
:10049000401CC1B2C800801929722038027FC57F74
:1004A000847F437F6E463CC6C37E827E4EA00BF0A7
:1004B000C7F807B0F0BDF8B50C4D044681780026AA
:1004C000E87906290CD00CDC00290BD001290AD0D0
:1004D000052909D1802117F025FF6178002997E0CF
:1004E00005E1A3E0ABE0AEE09FE000002042002089
:1004F000466F756E642050726F66696C6520536537
:1005000072766963652068616E646C65203A2025A7
:1005100078207E202578200A00000000466F756E46
:10052000642043686172616374657269737469639E
:1005300020312068616E646C65203A202578200A9D
:100540000000000045786368616E6765204D545572
:10055000204572726F723A2025780A004D54553A40
:100560002025780A000000005265616420457272FF
:100570006F723A2025780A005265616420727370A8
:100580003A2025780A000000577269746520457288
:10059000726F723A2025780A000000005772697461
:1005A000652073656E743A2025780A00FFFF00000D
:1005B000E0FF000029020000D68301000F040000C4
:1005C00052535349203A202D2564206442200A00CA
:1005D00065786368616E6765206D74753A25640A95
:1005E000000000007068002044657669636520257E
:1005F00064202D20416464722025782025782025F0
:1006000078202578202578202578200A0000000011
:100610004BD05BA00BF014F860A00BF011F82E7219
:1006200000220121032003F0A1FFF8BD07296FD0AC
:100630000D29FAD12179601DFFF706FFF8BD57A0FB
:100640000AF0FEFFECE70024584F0AE0E000C11971
:1006500006225748891C17F0E1FA002804D1641CCF
:10066000E4B2287A8442F1D3287A84420AD151A094
:100670000AF0E6FF2E7200220121032003F076FF2C
:1006800046A031E051A00AF0DBFFE000C019831C56
:1006900042780021084603F0C7FE1922D2018021CA
:1006A000E87917F0E1FD4EA01EE00220A8706089F5
:1006B00068810120A871192292010821E87917F0B8
:1006C000D3FD6878002805D01922D2011021E879DD
:1006D00017F0CAFD2878002805D04B22520140218E
:1006E000E87917F0C1FD42A00AF0AAFFF8BD012188
:1006F000AE70C9436981EE702E822E72AE714021B8
:1007000017F010FEA1793EA00AF09AFF97E7FFE7E5
:1007100042A0E9E710B500290CD001290DD002292B
:1007200013D0032905D1002A13D0114640A00AF0A6
:1007300087FF10BD114644A0F9E7002A03D047A067
:100740000AF07EFF10BD49A0FAE7002AFAD14CA0BA
:10075000F6E750A0F4E770B51C460D4617F00CFC08
:10076000514901F0CDFC0E46002C02D04FA00AF0FA
:1007700067FF32460021284603F012FA70BD0000E0
:10078000436F6E6E656374204661696C65642E2EDE
:100790002E526561736F6E3A25580A00446973637F
:1007A0006F766572696E672E2E2E0A0070680020C3
:1007B00032420020446576696365206E6F7420665E
:1007C0006F756E642E2E2E0A000000004465766957
:1007D000636520666F756E642E2E2E0A0000000081
:1007E000436F6E6E656374696E672E2E2E0A00006D
:1007F000436F6E6E65637465642E2E2E0A000000D2
:10080000446973636F6E6E65637465642E2E2E5239
:100810006561736F6E3A25780A000000506172615D
:100820006D205570646174652E2E2E0A0000000044
:10083000426F6E642073617665206661696C6564E1
:100840003A2025640A00000050616972696E6720D1
:10085000737461727465643A25640A005061697248
:10086000696E67206661696C0A00000050616972F8
:10087000696E6720737563636573730A0000000017
:10088000426F6E64696E6720737563636573730A84
:1008900000000000426F6E642073617665207375FE
:1008A00063636573730A000040420F005061737305
:1008B000636F64653A25640A000000007FB5DB4E73
:1008C0000C463078090408D517F0F2FA002801D058
:1008D00017F0C6FA0120C0034DE0E10707D0D34A64
:1008E00054321146443904F04BF8012043E0D04D16
:1008F000A10725D519229201022117F0B5FCCDA040
:100900000068039001226846C2800020009003AE78
:10091000288800231B2105F0ABFD02906846C288A1
:100920003146029817F088F9288801A900F09FFB4A
:10093000002803D01B2101A805F0E0FD02201AE0E9
:10094000BB4A210715880AD564210A460091019007
:1009500000231421284603F09FFE08200BE06007C7
:100960000CD5284604F040F81922D2010421307831
:1009700017F07AFC0420604004B070BD0020FBE753
:1009800070B586B0AC480AF0D1FCA84E0125307095
:100990006846057014218180642101816A462946D8
:1009A000A64804F031F8A548324620321C21801CAC
:1009B00004F02AF8A148324608320721401C04F00E
:1009C00023F89E4801AA02210C3004F01DF89B4830
:1009D00002AA02210D3004F017F832463C321521EC
:1009E000002005F03DFE50242146032004F092FD36
:1009F0002146042004F08EFD002468460094057111
:100A00000572057304746A4604218D4803F0E2FA06
:100A1000012101AA880203F0DDFA894802AA012116
:100A2000801F03F0D7FA864804AA0121401F03F073
:100A3000D1FA834803AA0121801E03F0CBFA651E78
:100A4000284605F063FD284604F042FE00F09CF9BC
:100A5000284600F095FA7BA0006802907AA0006812
:100A600003907AA00068049079A00068059079A0AE
:100A700003C80191009002AA0121002000F09FFA12
:100A8000012103AA084600F09AFA04AA01210220D3
:100A900000F095FA05AA0121032000F090FA6A46B9
:100AA0000521042000F08BFA6148A11E01804480DA
:100AB0008480C480143800F079FA0121307817F06E
:100AC00081FA06B070BD38B58188594802889142D4
:100AD00018D10121C9430180002141808180C1805A
:100AE000524C0221207817F01DFC0421207817F0C9
:100AF00019FC01206946087001466A464F4803F018
:100B000083FF38BD55A00AF09BFD38BD10B50246E5
:100B1000494254A00AF094FD10BD70B514460A462F
:100B200043490D88854207D14A808C80CB8001469D
:100B300052A00AF085FD70BD48A00AF081FD70BD8D
:100B400010B50C4603000AF0A3FD072905071D1385
:100B50001B2C29004FA025E0A078062806D10846C6
:100B6000FFF7B1FFA1794FA00AF06AFD54A019E088
:100B7000A078052802D1084600F029F854A011E019
:100B800057A00FE0A078042809D0062806D108460F
:100B9000FFF799FFA17943A00AF052FD10BD57A0BD
:100BA00000E05DA00AF04CFD10BD08B5002808D09B
:100BB000022805D1694600F036FA5AA00AF040FD35
:100BC00008BD6946002000F02EFA5DA0F6E770B57A
:100BD000174904460A88614B40899A4205D003F0C0
:100BE000D9FF5FA00AF02CFD70BD0880E089488025
:100BF000208A8880608AC8800C4D192292010221C7
:100C0000287817F031FB192212020821287817F0F2
:100C10002BFB1922D2010421287817F025FBE28949
:100C2000618954A00AF00CFD70BD00004C42002008
:100C30006442002088000000BD0800000503000099
:100C40000704000001000000020000000300000093
:100C50000400000001020304050000004552522E6A
:100C60002E0A000052535349202D2564206442204F
:100C7000436F6E6E20202578200A00005570646155
:100C80007465202578202D20496E74202578200A4F
:100C900000000000496E697469616C697A65642EB0
:100CA0002E0A0000446973636F6E6E656374656439
:100CB0002E2E526561736F6E3A25780A000000008F
:100CC0004164766572746973696E672E2E0A00003E
:100CD000436F6E6E65637465642E2E0A000000001B
:100CE000436F6E6E656374656420416476657274EB
:100CF0006973696E672E2E0A0000000057616974DF
:100D0000696E6720666F72206164766572746973BC
:100D1000696E672E2E0A00004572726F722E2E0ABF
:100D20000000000070726F66696C65204368616E38
:100D3000676543422043484152332E2E0A0000008B
:100D400070726F66696C65204368616E67654342C7
:100D50002043484152312E2E200A0000FEFF0000A1
:100D6000436F6E6E656374696F6E206D61782E2EB1
:100D70002E0A0000436F6E6E202578202D20496ECC
:100D800074202578200A000010B56E4B1022132124
:100D90006D4804F0B9FE10BD10B5002413460028BC
:100DA00002D00224204610BD67480A461946093879
:100DB00016F042FFF6E770B50D46002403000AF076
:100DC00067FC09060A1014181C2024282C005E4910
:100DD0000822093901E05D490D22284616F02CFF52
:100DE0001CE05A490E220D31F7E7584912221B31F7
:100DF000F3E7564912222D31EFE7544912223F31D1
:100E0000EBE7524912225131E7E750490E22633194
:100E1000E3E74D4907221039DFE70224204670BD81
:100E2000F8B5496894464A78097817020F4306983E
:100E3000474A11210025079CBE1A091A974244D03F
:100E400009DC444ABA1813D0012A1DD0022A26D040
:100E5000032A08D12FE0012E41D0022E49D0032EC3
:100E600051D0292E5BD0002018800A252846F8BDD5
:100E7000082856D20821091AA14200D80C46324946
:100E8000A2B21A80093957E00C284AD20C21091A5B
:100E9000A14200D80C46A2B21A802C494CE00D2881
:100EA0003FD20D21091AA14200D80C462749A2B20F
:100EB0001A800D3140E0112833D2A14200D80C46EF
:100EC0002249A2B21A801B3136E0112829D2A14250
:100ED00000D80C461D49A2B21A802D312CE01128F1
:100EE0001FD2A14200D80C461849A2B21A803F3145
:100EF00022E0112815D2A14200D80C461349A2B213
:100F00001A80513118E00E280BD20E21091AA14285
:100F100000D80C460D49A2B21A8063310CE00728B4
:100F200001D30725A2E70721091AA14200D80C46E0
:100F30000549A2B21A8010390918604616F07CFEE5
:100F400094E70000F0430020C04200200884010024
:100F5000272A0000DDD5FFFF10B504468C488442E7
:100F60000DD0012907D0022909D10121204610F016
:100F7000C3FB002803D18749204604F0F3FB10BDD2
:100F800070B50546824800248249401C04F0EAFB03
:100F9000814810F07DFBE80706D0804B102211211C
:100FA0007F4804F0B1FD0446204670BD002804D0FF
:100FB0007B4910394860002070471120704770B598
:100FC0001546002403000AF063FB05040B121920E8
:100FD0002B0001291BD172480122294610381CE040
:100FE000012914D16E48012229460F3815E0012944
:100FF0000DD16B48012229460E380EE0012906D199
:101000006748012229460D3807E0052901D0182438
:1010100007E0634805222946083816F00DFE00E077
:101020000224204670BD70B50D46002403000AF06E
:101030002FFB0504080F13171B0059490122103913
:1010400002E0574901220F39284616F0F5FD0CE061
:10105000534901220E39F7E7514901220D39F3E7CF
:101060004F4905220839EFE70224204670BD70B5CC
:101070000C460546474904F039FDC00709D04848E9
:1010800000228030408F20802146284604F0B6FFA1
:1010900070BD122070BDF8B515460A7A0024069876
:1010A000D20601D50820F8BD002801D00B20F8BDDC
:1010B00008780026022803D01E8001242046F8BDAF
:1010C0004868427807781002364A3843801801226F
:1010D000002808D0012806D0032804D0042806D010
:1010E0001E800A24EAE71A80C968012203E005206D
:1010F0001880C9680246284616F09EFDDEE7FEB558
:1011000015460E7A0024089AB60601D50820FEBDC1
:101110000E78022E01D0012430E04E6877783678C0
:101120003F023743204EBE192AD02048301803D042
:1011300002280CD00A2421E0002A0AD1012B0CD865
:10114000C8680122294616F077FD00200DE0002A2C
:1011500001D00B2412E0012B01D90D240EE0C86848
:101160000122294616F068FD02200D491039496810
:10117000002903D00968002900D088472046FEBD19
:101180000124009201942A4604F052FB0446F5E73C
:10119000FEFF0000C0680020590F00002445002019
:1011A000144400201F00FFFFFED6FFFF2129FFFF90
:1011B0000448804704480047FEE7FEE7FEE7FEE7F5
:1011C000FEE70000CD1100009100000010B5FF48BF
:1011D00057210170A8210170FC4A8821403A1181F1
:1011E0000189042211430181002101700A2000F0CD
:1011F00021FD012000F06BFC10BDF0B5F34EF34D66
:1012000004275722A824203E403DF04903000AF05D
:101210003FFA0D080E161B1F24282C32373C41467E
:101220002F000A700C70F07BFB22104003E00A7064
:101230000C70F07B3843F073C820288118E00A70E6
:101240000C705120C000F8E70A700C70E048F4E719
:101250000A700C7081208000EFE70A700C70882003
:10126000EBE70A700C700220E7E70A700C702F8120
:1012700000200870F0BD0A700C7093208000DCE73D
:101280000A700C70D2484D30D7E70A700C70952068
:101290008000D2E70A700C704B20C000CDE70A70C6
:1012A0000C70CB485C30C8E7C84810B5403800899E
:1012B000C1B20B069A0FC748022A05D0012A04D0F2
:1012C0009A0F06D07D20000210BDC906C90EC24883
:1012D00001E0C906C90E00F013FF10BDBB4A57213B
:1012E0001170A8211170B94940394B15002808899F
:1012F00004D0184308810020107070479843F9E724
:10130000B24A57211170A8211170B0492039002824
:10131000C87B05D004231843C873002010707047A1
:10132000FB231840F8E7A9498A7B800792089200BE
:10133000800F024357200870A82008708A7300208D
:1013400008707047A1498A7B8F231A40000102432D
:1013500057200870A82008708A7300200870704712
:101360009A4A203A917B800789088900800F0143BF
:10137000964857230370A8230370917300210170CE
:101380007047924A203A917B0907090F00010143F7
:101390008E4857230370A8230370917300210170B6
:1013A0007047FEB58948002740380089C0B2010661
:1013B0008A0F022A4CD00124A403012A4CD0890FA1
:1013C00056D00524002000902005000D01907F4894
:1013D0002038848900267D49572230460A70A82289
:1013E0000A7001238B74794957220A70A8220A7067
:1013F000764A203A948100220A708A7C9207FCD5B2
:101400000A8A8A7C9207FCD48A7C9207FCD5098AD6
:10141000019A7F1C891A0DB2FFB2002D37D02946E0
:10142000714305D5012834D0411C32D0002830D07A
:101430002E4602943046009900F078FE00B2211A40
:101440008CB202998C4249D1002D45DD641C44E0E8
:101450000220624CC043B6E7C506ED0E294660483F
:1014600000F04EFE0019C40B2320C043401B09E0CE
:10147000C506ED0E29465B4800F042FE0019C40B7C
:10148000A81C4042294600F051FE00B29BE7002014
:10149000FEBD002E03DA761EF04306B202E06D1E9A
:1014A000E84305B2B5420FDD484857210170A82135
:1014B0000170464A0299203A9181002101707D20F5
:1014C000C0007043019903E07D20C00068431146CD
:1014D00000F02CFE80B2FEBD641EA4B2142F82D395
:1014E000FF20FEBDFFB581B00C460746054600262D
:1014F0001AE0FF219131681E00F018FE00290AD081
:101500006421681E00F012FE002907D00320A907FD
:101510008007C14202D1FF206F3001E0FF206E3012
:1015200080196D1E86B2ADB22F488542E1D80025E4
:10153000012C25D9032C05D0A01E062816DDE007B6
:1015400018D115E0FF219131384600F0D9FD00296E
:101550000AD06421384600F0D3FD002901D0B80735
:1015600002D000201C3006E00120FBE7E00701D09C
:101570001E2000E01F208019641E86B2A4B2D7E7A7
:10158000039818213018401E84B2049800F0B8FD6A
:10159000E120C00041430A981E22504309180B98CD
:1015A0004008081881B20B98C00701D00120C00381
:1015B0000A04024305482038C17B6B46C909C901AA
:1015C0001970C17B1B78C909C9010FE040100040A8
:1015D000020200000048E80100389C1C13130000C0
:1015E00000180D8F00688909E40700009942E3D1D3
:1015F000694609780029DFD0A64957230B70A82334
:101600000B70A44B403B5C63447C802634434474A1
:101610005A63427C40231A4342740D7005B0F0BDFA
:10162000FFB507469B4883B04038C06B0E46840424
:101630009848A40C2038418B008B01224900D2032A
:10164000904201D3012000E0002008180090924849
:10165000388010E00199002925D06421284600F047
:101660004FFD002901D0A8071DD0FF206E30201AA1
:101670006D1C84B23D803D88FF219131284600F0E9
:101680003FFD0191002911D06421284600F038FD6A
:10169000002901D0A80709D0FF206E30A042D9D977
:1016A0000020308049E0FF206F30E0E7FF206F30FE
:1016B000F4E73588012D04D0062D18D9E8071AD192
:1016C00017E03888FF219131019000F019FD0029C1
:1016D0000BD06421019800F013FD002902D001987D
:1016E000800702D000201C3006E00120FBE7E8075D
:1016F00001D01E2000E01F20201A84B26D1CA8B269
:101700003080012804D0062817D9C0071AD117E065
:101710003888FF210546913100F0F2FC00290AD0FB
:101720006421284600F0ECFC002901D0A80702D073
:1017300000201C3007E00120FBE73078C00701D013
:101740001E2000E01F20A042B3D93088641C401C3A
:1017500030800598E12104800901009800F0D0FC58
:10176000069A108008463C2100F0CAFC0C990880BB
:101770003C21009800F0C4FC0D98018007B0F0BD3A
:10178000444908B52039CA7B6B46D209D2011A7088
:10179000CA7B1B78D209D2019A42F4D16A461278E8
:1017A000002AF0D03B4A57231370A8231370394BFB
:1017B000403B5863487C4023184348740020107015
:1017C00008BD34494039886B8A6B8242FBD170472F
:1017D00010B5304A57211170A82111702D492039B8
:1017E0004B7CE82423404B744B7C10242043034360
:1017F0004B740020107010BD00B50346FFF7E1FFE9
:101800002649C018884201D9494240180104090CF0
:1018100002D00121090440181E4957220A70A8224B
:101820000A701C4A403A50631A482038427C2023F0
:101830001A4342740020087000BD0021002802D025
:10184000012802D002E0202100E010211148572297
:101850000270A82202700F4A203A537C8B435374C3
:101860000021017070470B4920390028087C02D004
:10187000402108407047C009C00170470549203920
:10188000002804D0012801D11020087470472020BE
:10189000FBE7000040100040E40700000000C0A883
:1018A00000B5524A0B0009F0F3FE050407101619A3
:1018B0001F00516B81430AE0516B81435163116BEF
:1018C00001431163116A81430DE0516B0143516380
:1018D000116B8143F5E7516B814301E0516B01438B
:1018E0005163116A0143116200BD404A00B54032A4
:1018F0000B0009F0CDFE0504071016191F005169F1
:1019000081430AE0516981435161116901431161C9
:10191000116881430DE051690143516111698143AF
:10192000F5E75169814301E0516901435161116853
:101930000143116000BD2D4A002906D0012907D0BE
:10194000022908D0032913D10CE0918A814304E0D5
:10195000918A814308E0918A01439182D16A0143CF
:10196000D16205E0918A01439182916A01439162BB
:101970009083118A0143118270471C4B1B4A4033EC
:10198000002906D0012907D0022908D0032913D144
:101990000CE0D18A814304E0D18A814308E0D18AF6
:1019A0000143D182D9680143D96005E0D18A01435E
:1019B000D182996801439960D083518A0143518251
:1019C00070470A4A803A0028108B01D0084300E093
:1019D000884310837047054A803A0028508B01D015
:1019E000084300E0884350837047000080100040A7
:1019F000F8B5624D5726614CA827203D0028267077
:101A0000277028880ED02115084328800A2000F06E
:101A100011F9267027702888611508432880002056
:101A20002070F8BD032149028843F7E7F0B5534C15
:101A300057261C228B07514DA8270A409B0F403C7C
:101A400000282E702F7010D0080603D5E07BFD21F2
:101A50000840E073A07A1043A07248482038C17B48
:101A60001943C17300202870F0BD080603D5E07B40
:101A700002210843E073A07A9043A0723F482038C7
:101A8000C17B9943EDE730B53C4C57233B4AA82531
:101A9000403C002813701570E06804D08843E06073
:101AA0000020107030BD0843F9E730B5334C5723A0
:101AB000324AA825403C002813701570A07B04D042
:101AC0000843A0730020107030BD8843F9E7F8B5D3
:101AD0002A4D5726294C0021A827203D0028267092
:101AE00027700ED00120687128710020207001201D
:101AF00000F0A0F8267027700D20287100202070BB
:101B0000F8BD29712170F8BD1D4801690422914377
:101B1000016130BF7047194B57241C70A8251D70F8
:101B200016494039887B0822104388730920134ED8
:101B30000003203E308000271F70886B8A6B824232
:101B4000FBD1104A0A30904201D952428018020457
:101B5000120C02D0012212048018302232741C7040
:101B60001D7048632F2070741F701C701D7005203D
:101B700008811F7040BF20BF20BFFEE7401000401B
:101B800000ED00E00000C0A83C49062805D04979D6
:101B90000122824011400846704708780821084019
:101BA0007047364857210170A821017081790122C0
:101BB000114381710021017070473149096801604A
:101BC00000202F49C0438031086070472C490860CD
:101BD00070472C4880697047284957220A70A8220C
:101BE0000A700028887905D00422104388710020EB
:101BF00008707047FB221040F8E7204957220A700E
:101C0000A8220A700028887905D002221043887122
:101C1000002008707047FD221040F8E71748572150
:101C20000170A82101708179102211438171002176
:101C30000170704700220AE0022101E000BF00BFEE
:101C40000B46491E89B2002BF8D1521C92B2824237
:101C5000F2D3704770B500247D260546F60004E0F7
:101C60003046FFF7E7FF641CA4B2AC42F8D370BD66
:101C70000549CA7A082AFCD0087270474010004013
:101C800000E100E000E000E00034004010B5044650
:101C9000FFF70AFB0A214843C008214600F030FA4A
:101CA0000A21401D00F02CFA2249888110BD10B590
:101CB000E1204002FFF7EAFF1E48872181700321DF
:101CC000C170402141700121817310BD19498A788A
:101CD0009206920E800102438A707047154A0028CE
:101CE000507806D0084350701078082108431070CF
:101CF00070478843507070470E4980204870704785
:101D00000C4A07E0D37A082B04D003781372491EDB
:101D100089B2401C0029F5D1704701460020054AD0
:101D200004E0137A401C0B7080B2491C937A002B9C
:101D3000F7D1704700340040F0B5564A0021157EB7
:101D4000547E01261676507E0823184350769676E8
:101D5000907EC007FCD19676937EDB07FCD1978BF3
:101D60004D4B401CBB43591880B21028F3D30831A7
:101D70000809517EF72319405176157654760121D2
:101D8000C902081A00B2F0BD028800290DD001294D
:101D900011D0022915D0032906D140494A439101A7
:101DA0003F4A8918090C01807047F92189004A438C
:101DB00091013C4AF5E73949491E4A4391013A4AA3
:101DC000EFE736494A439101384AEAE780010901C1
:101DD000C01C08432F494876704780010901401D07
:101DE00008432C49487670472A48C17E8022114317
:101DF000C1760F21017621214176704725480E21B9
:101E0000017603214176704722482321417608213B
:101E1000817670471F4801218176817EC907FCD1F8
:101E2000808B0005000D70471A4908228A76C87712
:101E3000887EC006FCD4888B0005000D704770B505
:101E40001B4D4021AB6B9AB21C0C144B3E335843D4
:101E5000C00A0301002C05D090012033181822017C
:101E6000801A13E0686B040C010A09190918050EA1
:101E7000C9B28D4201D0FF2070BD1146E4B25208B4
:101E800000049A184C431219000B101A00F04EF976
:101E900070BD000040100040FF0F0000E60300008E
:101EA0008014340040B0370080C237004021360033
:101EB0000006040010B5FFF774FA022801D9FFF7F5
:101EC00070FA10BDF8B5534CE77E267E657EFFF7AD
:101ED0008BFFA07E01210843A076A07EC007FCD125
:101EE000A08BE77626766576F8BD30B58DB01222E8
:101EF00049A14E4815F092FE002841D0454857218F
:101F00000170A82101705121424AC900403A118153
:101F1000002101704748464A4261474A0724D36975
:101F20001B021B0A45042B43D361816104610169D3
:101F300002229143016134220021684615F074FFAA
:101F40003E48009001204003694688801B20C873EA
:101F5000052008740120487414208874FB20800236
:101F600002900D2008773648089036480A900846B7
:101F700001F010FB010007D033A009F061FBFEE780
:101F800039A009F05DFBFEE70DB030BD70B50C4621
:101F900009040AD515F08CFF002801D015F060FF68
:101FA00001212046C903484070BDE00702D001204E
:101FB000604070BD314DA00405D501F067FB0126DE
:101FC0002F4A760308E060040DD52EA009F038FBF7
:101FD0007D22D2010126B6033146287816F044F955
:101FE0002046704070BD002070BD10B5264809F035
:101FF0009DF9224C207000F063F862B6204A01215E
:102000004903207816F030F910BD10B501F006FA3A
:1020100010BD00004010004043483537785F424C07
:10202000455F4C49425F56312E38000090840100D4
:10203000FEFFFF0000E000E004ED00E0704800203B
:10204000D31B0000C51E00004C494220696E697414
:10205000206572726F7220636F64653A2025782064
:102060002E2E2E0A00000000686561642066696CEF
:1020700065206572726F722E2E2E0A008F45002029
:1020800000EE02002A2000008D1F00000104090C50
:1020900002D0012109044018164957220A70A822CB
:1020A0000A7014494039486313490020086070479A
:1020B00010493020203908740F490120086070470A
:1020C0001CB50C4857210170A8210170094920391D
:1020D000CA7B07231A43CA730021017000910B4683
:1020E0000122019111460548FFF7FCF9002009F093
:1020F00051FA1CBD4010004090450020E40700004C
:1021000030B50B46014600202022012409E00D468F
:10211000D5409D4205D31D469540491B2546954017
:1021200040191546521E002DF1DC30BD70B500245B
:102130002546002801DA01244042002901DA012560
:102140004942FFF7DDFFAC4200D04042002C00D0F6
:10215000494270BDF0B51FB486B0002000900190D8
:1021600002900698069980B204900798090C020420
:102170000014114307900027089D099806913E46D8
:102180003C4603900398A9B20204000C0390049803
:102190002D0C154348430021224600F018F8C719BA
:1021A000714110340E46402CECDB3846029A00F0A8
:1021B0000EF8009A019B80180090594102980191F5
:1021C000103002904028CCDB00980BB0F0BD10B569
:1021D000202A04DB0146203A9140002010BD9140A6
:1021E00020239C1A0346E3401943904010BD034648
:1021F0000B439B0703D009E008C9121F08C0042A3B
:10220000FAD203E00B780370401C491C521EF9D22D
:102210007047F0B51FB40646002082B00546402442
:10222000019100901BE0019922460F46304600F0D4
:1022300033F8049A059B801A994110D31046194629
:102240002246FFF7C4FF361A8F410197224601202C
:102250000021009FFFF7BBFF38184D41009020463A
:10226000641E0028DFDC019B00982946324607B037
:10227000F0BD0000064C0125064E05E0E36807CCE2
:102280002B430C3C98471034B442F7D3FDF704FFBE
:1022900098850100C885010010B5202A04DB084696
:1022A000203AD040002110BD0B46D340D04020241E
:1022B000A21A91400843194610BD70B58C180578D4
:1022C000401C6B075B0F01D10378401C2A1106D11B
:1022D0000278401C03E006780E70401C491C5B1E0F
:1022E000F9D12B0705D40023521E0DD40B70491CC5
:1022F000FAE70378401CCB1A921C03E01D780D709E
:10230000491C5B1C521EF9D5A142D8D3002070BDD8
:1023100010B5124C2068C0051FD503202060002096
:102320000821401C2268C0B20A4322600EE02268E5
:10233000920510D4222807D90948026B002A0AD036
:1023400001210320904706E0401CC0B22268D2055C
:10235000EDD50028E5D10020206010BD80C30040ED
:10236000EC68002070B514460D460646FFF7D0FF16
:102370002D480368196806229143196031689962F3
:102380007168D962B1681963F16859632968996104
:102390006968D961A9681962E968596259680222B5
:1023A000914359605D6801210D435D601D680D43D7
:1023B0001D6000E000BF59688907FBD5596891434B
:1023C00059609969217001688969090A6170016819
:1023D0008969090CA17001688969090EE1700068BA
:1023E000C1692171C169090A6171C169090CA171D1
:1023F000C169090EE171016A2172016A090A6172FB
:10240000016A090CA172016A090EE172416A217325
:10241000416A090A6173416A090CA173406A000E9E
:10242000E073002070BD0000D447002070B50C465A
:102430000546FFF76DFF2848026810682021884391
:10244000E907890E084310608034E06C1061206D4C
:102450005061E0699061206AD061606A1062A06A90
:102460005062E06A9062206BD062606B1063A06B78
:102470005063E06B9060206CD060D168236C17488B
:10248000994204D0026B002A1ED0202107E0916AF5
:10249000E36A994206D0026B002A15D0212103205D
:1024A000904711E0D169236A994204D0026B002A57
:1024B0000AD02221F3E71169E36C994206D0026B3E
:1024C000002A01D02321EAE7012070BD10684021D5
:1024D00008431060002070BDD4470020EC68002045
:1024E00070B50C460546FFF713FF284802681068D0
:1024F00020218843E907890E084310608034606C0E
:102500001061A06C5061E0699061206AD061606ADE
:102510001062A06A5062E06A9062206BD062606BC9
:102520001063A06B5063E06B9060206CD060D1684A
:10253000236C1748994204D0026B002A1ED0102148
:1025400007E0916AE36A994206D0026B002A15D02F
:1025500011210320904711E0D169236A994204D0E8
:10256000026B002A0AD01221F3E71169636C9942C9
:1025700006D0026B002A01D01321EAE7012070BDCA
:102580001068402108431060002070BDD44700202F
:10259000EC68002010B505F0A5FC024904F0D5F860
:1025A000002010BD060400000148006E70470000C6
:1025B000046B002008B5002808D0002906D0002AA6
:1025C00004D01088002801D0002008BD12206946E0
:1025D00008706A460121034804F0B3F86946087898
:1025E00008BD0000350C000008B504F0A1FE6946E6
:1025F00008706A460121034804F0A3F86946087888
:1026000008BD00002720000008B504F0DBFE694685
:1026100008706A460121034804F093F86946087877
:1026200008BD00001120000008B505F036F8694625
:1026300008706A460121034804F083F86946087867
:1026400008BD00002920000008B505F02BF86946F8
:1026500008706A460121034804F073F86946087857
:1026600008BD000010200000FEB508AF70CF6F4617
:1026700070C705F03DF80446024904F066F82046AC
:10268000FEBD00001320000008B505F01BFC6946E4
:1026900008706A460121024804F053F8002008BD82
:1026A0000E200000FFB589B016A871C894468E466A
:1026B0000796159F129A139904AE31C6149800928A
:1026C00001910290039762467146099805F05CFB00
:1026D0000446034904F039F820460DB0F0BD00006F
:1026E0000D20000038B5044605F0EDFE694608707F
:1026F0004C70200A88706A460321024804F021F8D1
:10270000002038BD1B20000038B5044605F0F4FE5B
:10271000694608704C70200A88706A460321024896
:1027200004F00FF8002038BD1A2000000EB500A8F4
:10273000013006F03CFB694608706A4609210248F0
:1027400003F0FFFF00200EBD1820000008B500A810
:10275000013005F039FE694608706A4604210348D5
:1027600003F0EFFF6946087808BD00000220000072
:1027700038B5044606F082FB694608704C70200AA2
:1027800088706A460321024803F0DBFF002038BD51
:10279000212000007FB5044608A861C80090029679
:1027A0000195204606F082FB694608734C73200AA7
:1027B000887303AA0321034803F0C3FF002004B079
:1027C00070BD00002020000008B506F055FF6946E6
:1027D00008706A460121034803F0B3FF6946087890
:1027E00008BD00002D20000008B506F0E3FF694693
:1027F00008706A460121034803F0A3FF6946087880
:1028000008BD00000820000008B506F05BFF69461F
:1028100008706A460121034803F093FF694608786F
:1028200008BD00000A200000F0B585B00AACF0CC6D
:1028300003976F4670C706F0DDFF6946087404AA67
:102840000121034803F07DFF6946087C05B0F0BD17
:102850000620000008B507F057F8694608706A4678
:102860000121034803F06DFF6946087808BD0000A8
:102870000520000008B507F085F8694608706A462B
:102880000121034803F05DFF6946087808BD000098
:102890002E20000008B507F08BF8694608706A46DC
:1028A0000121034803F04DFF6946087808BD000088
:1028B0000C2000001CB5049C009407F0BBF869468E
:1028C000087101AA0121034803F03BFF694608791A
:1028D0001CBD00000B20000008B507F0CFF86946CA
:1028E00008706A460121034803F02BFF6946087807
:1028F00008BD00000920000010B507F026F90249C4
:1029000003F023FF002010BD1920000010B505F0D2
:1029100033FE10BD1CB500A8013006F057FA694619
:1029200008706A460721034803F00BFF69460878E0
:102930001CBD00000910000038B500A90446033191
:1029400006F054FA694608704C70200A88706A468E
:102950000421034803F0F5FE6946087838BD0000FD
:102960000514000010B506F09BFD10BD0A7802703A
:102970008A7842704A88120A82700979C1700420EC
:1029800070470A7802700988090A4170022070476E
:102990000A7802700988090A417002207047097894
:1029A0000170012070470A7802700A88120A42708A
:1029B0008A7882704A88120AC2704A7902718A79CA
:1029C00042710889801D80B2704708888004000C1D
:1029D00070470A7802700A88120A42708A788270F8
:1029E0004988090AC170042070478A780270887883
:1029F0000128088804D012214843401C80B2704747
:102A00008000FAE70A7802700A88120A4270488841
:102A1000801C80B270470A7802700A88120A4270DD
:102A20008A7882704A88120AC2708888001D80B233
:102A300070470A7802700A88120A42708A78827097
:102A40004A88120AC2708888001D80B270470A78CE
:102A500002700A88120A42708A7882704988090ACC
:102A6000C17004207047088870478A78027008880F
:102A700049884843401C80B2704710B50C4609781D
:102A800001702188090A4170A17881706188090A62
:102A9000C1702279611D001D15F0CEF82079001D4E
:102AA00010BD8A780270088849884843401C80B26B
:102AB0007047088870470A7802700988090A4170CF
:102AC00002207047088870470A7802700A88120A44
:102AD00042704888801C80B270477FB51546044616
:102AE000022901D0102903D1022B04D0102B02D0CF
:102AF000002004B070BD994202D10A46294607E081
:102B00001029694607D000F00DF8102269462846C2
:102B100015F084F8EDE7104600F004F8102269463D
:102B20002046F5E770B50C4605000CD0002C0AD005
:102B300010220649204615F07FF82878207368781F
:102B40006073012070BD002070BD00004885010049
:102B500008B500220B4600920122024908F066FFE8
:102B600008BD00006D29000038B5054608880C46F0
:102B700017280DD304F058FA2188884208D3002082
:102B80000090234602220349284608F00BFF38BD77
:102B9000022038BD8329000008B50A88172A07D308
:102BA00000220B4600920322024908F03FFF08BDB5
:102BB000022008BD9129000008B500220B460092B2
:102BC0001822024908F0EEFE08BD00009F2900000F
:102BD00008B500210B461922009108F027FF08BD17
:102BE00038B50C46054609790020022901D002209B
:102BF00038BDE268002A03D00721104614F0CAFF4E
:102C00000090234606220249284608F0CBFE38BD34
:102C1000A729000038B5054608880C4600280DD0C5
:102C2000606800280AD0012114F0B4FF0090234608
:102C300007220349284608F0F9FE38BD022038BDB6
:102C4000CB29000008B500220B460092042202495D
:102C500008F0A8FE08BD0000D329000038B50546DD
:102C600088780C46012801D0022810D1208800283D
:102C70000DD0606800280AD0022114F08BFF00906C
:102C8000234605220349284608F0D0FE38BD02201D
:102C900038BD0000EB290000064910B5884202D17A
:102CA00004F0C2F910BD0EF077FC0028FAD117200D
:102CB00010BD0000FEFF000038B505464A68002040
:102CC0000C46002A03D00321104614F063FF009045
:102CD00023461D220249284608F064FE38BD000044
:102CE000052A000038B505464A6800200C46002A2F
:102CF00003D00321104614F04DFF009023461B2201
:102D00000249284608F04EFE38BD0000052A0000A2
:102D1000024800210160416070470000F847002030
:102D200010B5042901D0042010BD017811708378FA
:102D30004478190221435180C0781071002010BDE1
:102D40000098022B01D004207047517812780902B4
:102D50001143018000207047022901D004207047F0
:102D600041780378080218431080002070470098CB
:102D7000012B01D0042070471178017000207047AA
:102D8000002901D0042070470020704770B5049CD2
:102D90001E461546062B1BD3687829780002084387
:102DA0002080E878A9780002084360800220207122
:102DB0000246291D601D14F03FFFB01F2081062E22
:102DC00003D0AD1DE560002070BD0020E060FAE793
:102DD000042070BD8B0705D1890803D01180506095
:102DE00000207047042070470098042B01D0042075
:102DF000704751781378090219430180D17892788D
:102E00000902114341800020704710B50298022B3F
:102E10000FD351781478090221430180991E418013
:102E2000022B02D0921C426001E000214160002090
:102E300010BD042010BDF8B5C4880D46002C2BD061
:102E400086683778390601D4002010E00D2C23D392
:102E50000C3CA4B23119009140882346324601212E
:102E600008F06EF9002801D0022000E00120790668
:102E70002870C90FBA066970920EAA70641E2204E7
:102E8000120CAA8002D0761CAE6001E00022AA607B
:102E9000022803D1002901D00120F8BD0020F8BD8F
:102EA00010B50298042B14D35178147809022143E9
:102EB0000180D1789478090221434180191F8180D3
:102EC000042B02D0121D826001E0002181600020ED
:102ED00010BD042010BD0098042B01D004207047C1
:102EE00051781378090219430180D1789278090248
:102EF000114341800020704710B502981146062BFF
:102F000003D0142B03D0042010BD022200E01022B5
:102F100002714A780B7812021A430280CA788B78C1
:102F200012021A4342800279401D091D14F084FEEA
:102F3000002010BDF8B515460646002912D0347899
:102F4000491E6C80CFB2022C0CD321463846FFF7C5
:102F5000D7F801466143B94204D12880761C00208D
:102F60006E60F8BD0420F8BD0098D90706D1022B89
:102F700004D0590881800260002070470420704707
:102F80000098022B01D00420704751781278090272
:102F900011430180002070471180002902D0506049
:102FA000002070470020FAE710B5029C022B11D3D5
:102FB0002072617250781178000208432080981EB8
:102FC0006080022B02D0921C626001E000206060F1
:102FD000002010BD042010BD002901D0042070473E
:102FE0000020704738B5054688680C46002802D096
:102FF000052114F0CFFD00902346162202492846F1
:1030000008F0D0FC38BD0000172A000038B505468E
:1030100088680C46002802D0052114F0BBFD009002
:10302000234617220249284608F000FD38BD00005B
:10303000332A000008B500220B4600920C220249F8
:1030400008F0B0FC08BD00004F2A000038B5054666
:1030500048680C46002802D0012114F09BFD009026
:1030600023460D220249284608F0E0FC38BD000046
:10307000672A000008B50A79022A03D0102A01D075
:10308000022008BD00220B4600921022014908F0E0
:1030900089FC08BD7B2A000038B5054608880C4627
:1030A00000280DD0606800280AD0022114F072FDBB
:1030B0000090234611220349284608F0B7FC38BD8A
:1030C000022038BD6B2A000008B50A79022A03D015
:1030D000102A01D0022008BD00220B4600920822CF
:1030E000014908F05FFC08BD7B2A000038B50546A1
:1030F00008880C4600280DD0606800280AD00221FC
:1031000014F048FD0090234609220349284608F0A0
:103110008DFC38BD022038BDA32A000038B5054615
:1031200048680C4600280AD0012114F033FD0090B5
:1031300023460F220349284608F078FC38BD0220B8
:1031400038BD0000B32A000008B500220B460092EB
:103150000A22024908F026FC08BD0000B72A000038
:1031600038B505464A6800200C46002A03D00121E4
:10317000104614F00FFD009023460B22024928460A
:1031800008F054FC38BD0000C52A00000149486021
:1031900070470000F84700200149086070470000B0
:1031A000F847002070B5054608480C46854205D012
:1031B000172C03D303F038FFA04201D2012070BDC9
:1031C000214628460EF0A8FA70BD0000FEFF000060
:1031D000F8B50646087A12250C46012809D1304672
:1031E000FFF75AFD61880F38884201DA0220F8BDE6
:1031F0009225607A012801D14020054360680028AB
:1032000002D0032114F0C6FC009023462A4602494E
:10321000304608F0C7FBF8BDC92A000008B50021F8
:103220000B461322009108F001FC08BD0448034935
:10323000006801600349C16270470000A5220801CF
:10324000D8470020784E010010B5074C5D2021685A
:10325000086506F0B3FE2068002101650348427945
:10326000521C4271C17110BDB4450020406900205C
:1032700070B500242546641C2406240E42D000218B
:10328000C943002008F025FC002211460346CB402C
:10329000DB07DB0F491CC9B20646CE40F607F60F26
:1032A0009E4203D0521CD2B2192A29D22029EDD332
:1032B00000210246CA409206920E21D03F2A1FD01A
:1032C000491CC9B21A29F4D9810E1F2918D03E29E8
:1032D00016D0012914D0202912D0104A014690425C
:1032E0000ED04A1E11420BD00204C1B2120E8A4205
:1032F00010D10202120E8A420CD1020E8A4209D16A
:10330000294608E0F021102008F0F1FB04490002F2
:10331000084370BD01210029ADD070BDD6BE898E95
:10332000C700CD6A70B52C49002048602B48008941
:103330002B4CC0B28109022904D0012908D081098F
:1033400016D026E0C820A0801020E080E8201FE0F2
:10335000C506ED0E2D2029468001FEF7D1FEA08086
:1033600029467820FEF7CCFEE08029461D480DE076
:10337000C506ED0E2946C020FEF7C2FEA0802946F4
:103380000820FEF7BDFEE0802946E820FEF7B8FEE3
:1033900020811649144808601649154808601749E5
:1033A0001548086017491648086018491648184C0F
:1033B0000860184920680122D2020861801848611B
:1033C0000120487100F062F9607D002802D11249A5
:1033D0002020086070BD0000B845002000100040AB
:1033E00020690020980D000000C00040DC4700204C
:1033F00000C30040D447002000C20040B445002074
:1034000000D00040E047002000C10040D847002025
:10341000EC6800204069002000E100E0F8B5564863
:10342000006881680127C9050025544C544E0029C5
:103430002EDA81683A0291438160207840060CD5EB
:10344000504851490068884206D15049886BE06075
:103450008A6B9042FAD100E0804720783843207090
:103460006570E079062803D043495D200968086546
:10347000306800280AD001690A68406902430A607E
:1034800031680868026889680A4302606571A5604E
:10349000394B18688168890521D58168012252025B
:1034A00091438160A0783843A070E5703848006887
:1034B000C16A89088900891CC1620168D20411436C
:1034C0000160306800280AD041680A6880680243B9
:1034D0000A603168C868026849690A43026018686E
:1034E0008168890717D58168022291438160E7705E
:1034F000A5705D210165306800280AD001690A685D
:10350000406902430A6031680868026889680A43B2
:1035100002606571A56018688168C90715D0816867
:1035200049084900816025706770306800280AD01A
:1035300041680A68806802430A603168C8680268A6
:1035400049690A4302606571A56018688168C90607
:1035500003D581681022914381608168490703D5B2
:1035600081680422914381608168090703D58168DD
:10357000082291438160F8BDB445002040690020D5
:10358000BC450020B0450020B5AC00000010004054
:10359000D847002070B504460068002828D00121D3
:1035A000000C4903884223D1A088002820D020465F
:1035B0000622FF21163014F022FB01281AD0A2881F
:1035C0000021206814F030FC342200212D4814F032
:1035D0002BFC342221462B4814F02EFB29480622CE
:1035E00016300021054614F00AFB012804D008E03B
:1035F000022070BD032070BD23490622284614F026
:103600001BFB20488189002902D1012149028181C7
:10361000827B0121002A00D18173C27B002A01D163
:103620001B22C273027C002A01D105220274427C53
:10363000002A00D14174817C002901D114218174B8
:10364000817F002901D128218177C17C002908D000
:10365000827FE17C92088918C174617F002904D0BF
:1036600005E0817F89082D31F6E702214177806AE4
:10367000002803D0804703493431488107F00EFE0B
:10368000002070BDEC6800200806040010B500F0B2
:1036900065F803F031FE06F02BFCFFF7C7FD0B4C7D
:1036A0005D202168086506F03BFD07F0F9FA06F099
:1036B000FFFC06F083FC06480121417122680021CD
:1036C0001165C171FEF724FE10BD0000B445002055
:1036D0004069002070B50E4B00209989002901D166
:1036E0000C4999810E210124A4039A89154625408D
:1036F000CD405204120C0543E8B25604D50BF60F28
:1037000075401543491EC9B29D810629EDD870BD8B
:10371000046B0020FF7F000070B50E4B002059891C
:10372000002901D10C49598108214C015A891546BB
:103730002540CD4005435200E8B2550A5609754070
:10374000ED07ED0F1543491E09065D81090EEDD108
:1037500070BD0000046B0020FF0100000A48094909
:1037600000680A6902610A69426149698161C1614F
:103770008268012149030A438260C2680A43C26029
:103780007047000040690020DC47002030B5104A37
:103790000346517AFD20842454720E4CA568002DF6
:1037A00007D0A57B002D04D0A489E51FFF3DFA3D7D
:1037B00002D05172FF2030BD7D24E402A34205D324
:1037C0005360A6201072907A40235840517230BD49
:1037D00000180040EC68002010B506490C46483C33
:1037E000A1622063E17D182001F094FEE07D02F0EB
:1037F00085F910BD70470020F8B500240F4E27460C
:1038000013E0F06B250128180622FF2114F00CFBB1
:10381000F06B06222818FF21801D14F005FBF06BC9
:1038200028188781641C8773E4B2307E8442E8D311
:10383000002014F0D9FB307E7076F8BD28470020B8
:1038400070B50C460146012080020A1A00252B485B
:10385000130007F01DFF20111316181A1D1F212336
:103860002527292B32343648393B3D3F43484848C9
:103870004848484848464148007800E04078207071
:1038800039E08078FBE7C078F9E710221C4910E0A6
:103890000079F4E74079F2E7006A13E08079EEE717
:1038A000C079ECE7007AEAE7407AE8E714491022A9
:1038B0001031204614F0C0F91DE0807ADFE7C07AAD
:1038C000DDE7406A206016E0007BD8E7407BD6E762
:1038D000807BD4E7407CD2E7807CD0E708F01CFEF8
:1038E000CDE7807DCBE7192904D2084601F0B4FB6F
:1038F000208000E00225284670BD000028470020F7
:103900002C6A002010B5044600F0D4F80248C475B3
:1039100008F03CFF10BD000028470020FFB58FB025
:10392000064600200C900D901F460CAA304600F071
:10393000B5FA454D0446287E84425AD2204608F006
:1039400005FF0646042F04D0A879022803D00020E2
:1039500002E02878F9E7012000903B4632462146F4
:10396000119808F0B1FD1422002101A814F05CFAAE
:1039700020460621484300902430C0B201AA1021FD
:1039800014F090FB002813D11022FF2101A814F09D
:1039900036F900280CD1009805AA2530C0B20421C0
:1039A00014F080FBF107C90F01AA119801F0CCFDBA
:1039B0007034E0B206AA182114F074FB002811D16B
:1039C00006A808F0D5FE0024A10006A80818018862
:1039D000002903D08278119802F0F6F8641CE4B252
:1039E000062CF1D3B00706D5E97D119802F0DAF87C
:1039F00001E0082F02D0042F13D021E0A87902287B
:103A00001ED100223146119808F098FCA86A0028BF
:103A100016D04368002B13D0002211461198984706
:103A20000EE0287802280BD129791198002900D0BE
:103A300001216A78002A00D00422114301F04AFDD6
:103A4000002013B0F0BD000028470020F8B501F0B9
:103A500099FB00282BD1164D0026E87C012801D0C7
:103A600000241CE008F0A4FDEE7400202A7EE96B1F
:103A700004E003015B18401C9E73C0B29042F8D36F
:103A800010E0E86B27013818807B012805D120461B
:103A900008F0A0FDE86B38188673641CE4B2287E39
:103AA0008442EED3502014F0C1FA08F06FFEF8BD46
:103AB00028470020F8B5354EFF20F07500273776EF
:103AC000334CF763A07B30214843422114F0D0F8F7
:103AD000F063002825D02046807B410040183076D6
:103AE000002413E0F06B250128180622FF2114F0B2
:103AF0009BF9F06B06222818FF21801D14F094F921
:103B0000F06B28188781641C8773E4B2307E84428E
:103B1000E8D31F488068002801D0B77601E08020F4
:103B2000B076307E70760124776334707770B7702A
:103B3000F77010220021174814F076F937717725B5
:103B400075713762B471F77112483772777210224B
:103B50000021103014F068F9B772F572776237738C
:103B6000052070731020B073F77302203074B762B1
:103B7000F76237637774F774347504487475B475F5
:103B800005494830016005494160F8BD28470020DB
:103B9000EC6800202C6A00209DCA000065CA000065
:103BA00070B50024054600290BD108491046FEF7E0
:103BB000A7FA0846294601F041FB040003D0012181
:103BC000284601F0E9FC204670BD000040420F008D
:103BD00010B506490C46483CA162E062E17D182020
:103BE00001F098FCE07D01F089FF10BD70470020D6
:103BF00070B5264D0C4608040FD5E87D14F058F931
:103C0000050006D008F068FE002802D0284614F00F
:103C100027F90120C003604070BDA0070BD500212B
:103C2000084608F0EDFA02214C40002825D1E87D35
:103C300014F0C8F91FE0E00721D0686B808808F015
:103C40007DFE01214C40002817D0A86A00280DD025
:103C50004368002B0AD0686B002280889847A96AC5
:103C6000686B00224B68808803219847287D14F0F8
:103C7000F9F908F0B7FA204670BD0121D7E76007CF
:103C800002D50420484070BD002070BD28470020A8
:103C90007FB5044680787F4D801F030007F0F8FC55
:103CA0000AF4F7F7A41306F0F778B9F7A96A2046E3
:103CB000002907D00C68002CFBD0437B027B418994
:103CC000C01CA047E3E060780026002847D1A07917
:103CD000C00744D0686B002841D1102200216846FB
:103CE00014F0A2F86169002903D006226846103159
:103CF00007E0A0880DF07AFB0028E3D0811D0622A2
:103D0000684613F099FF69468889A1794907C90F68
:103D100008436946888108F0FFFB297E88420BD161
:103D2000A87D002801D0FFF767FD5B48026B002AE1
:103D300002D001210820904708F0EEFB297E88423E
:103D4000A87E02D10121084301E040084000A87686
:103D50002146684608F054FA002812D01526A86AB1
:103D6000002855D04368002B52D06278A0880121EA
:103D70009847002E4CD0A96AA0884B683246032190
:103D800073E00221E87D14F01DF9002004B070BD3D
:103D90006078062817D1A0880DF028FB060012D005
:103DA000287C012804D0022808D003280BD114E075
:103DB0007179A088002208F0C1FA04E0A188307867
:103DC000052201F0F9FBA86A002860D04368002BA7
:103DD0005DD06278A088022147E000224120114690
:103DE000000100F0F7F8E9E7E0780022211D00F07B
:103DF00055F8297E88424AD206214843253022467A
:103E0000C0B20C32042114F091F9287D14F02AF983
:103E10003DE0287B002802D0A088697B28E0287834
:103E20000028A08823D00DF0E1FA06002FD0A07A58
:103E3000C0070BD07079002808D0A189890505D466
:103E40006A46B11D00F02AF8002814D02246717984
:103E5000A088083208F072FAA86A002817D04368D0
:103E6000002B14D00022A088114698470FE00521AE
:103E700001F092FB0BE0A0880321F9E700E003E0EA
:103E8000A08800F031FA02E0A088FFF7DFFD0120F2
:103E90007CE7000028470020EC680020F0B52E4E9B
:103EA00085B0347E15460F46002806D0012804D080
:103EB000022811D003284BD121E0084608F0FEFB70
:103EC000317E0446884243D2002D41D00622394635
:103ED000284613F0B1FE3BE000240BE0F16B20011B
:103EE000401806223946801D13F098FE002826D17E
:103EF000641CE4B2307E8442F0D3C4B21FE00024DC
:103F000019E02046062148432330C0B26A461021FA
:103F100014F0C8F800280CD11022FF21684613F0D5
:103F20006EFE002805D13946684601F0A1FA002846
:103F300005D0641CE4B2307E8442E2D3DDE7307EFB
:103F4000844205D2002D03D02946204608F0DEFB2E
:103F5000204605B0F0BD000028470020F8B50E4609
:103F600019491525194F884214D1002409E0324619
:103F70000221204608F0EAFA002800D00025641C3F
:103F8000E4B2387E8442F2D3002E1BD010480DF0EC
:103F90004BFB17E00DF02AFA040012D060790022E2
:103FA000A11DFFF77BFF397E884204D232460221F1
:103FB00008F0CCFA0025002E04D0204608F028FC9A
:103FC00000E014252846F8BDFFFF00002847002028
:103FD00011C80000F0B50746012080021546381AC6
:103FE00089B00024BC4ABD4E030007F051FB2011EC
:103FF000181F262D333A3F464D545B626970757C1D
:10400000EFEEEDECEBEA89E9E8AAAAF3F6E5E4EBDA
:10401000012971D1287802286ED8307059E1012920
:10402000F7D128780128F7D8707052E10129F0D132
:1040300028780428F0D8B0704BE10129E9D128781C
:104040000128E9D8F07044E11029E2D11022294674
:10405000A348ADE00129DCD128780128DCD83071F3
:1040600037E10129D5D12878707132E10429D0D106
:1040700028689042D0D830622BE10129C9D1287834
:104080000228C9D8B07124E10129C2D128780128B9
:10409000C2D8F0711DE10129BBD128780428BBD812
:1040A000307216E10129B4D128780128B4D8707291
:1040B0000FE11029ADD18A4810222946103077E04F
:1040C0000129A6D128780128A6D8B07201E10129DA
:1040D0009FD12878F072FCE004290DD12868904225
:1040E0000AD87062F5E0002906D101F04BF80028EB
:1040F00003D00120F074ECE074E008F059FA1CE001
:1041000007296FD10622691C684613F095FD2878AF
:1041100000226946FFF7C2FE0546307E854239D24D
:1041200001F030F8002805D0F26B01202901891830
:104130008873CEE0284608F04DFA502013F076FF41
:1041400096E007294ED10622691C07A813F074FDDA
:104150002878002207A9FFF7A1FE317E88421BD2F2
:104160000621484305462135E8B26A461C2113F072
:1041700099FF00280ED15B48874201D1012000E061
:10418000FF206946C876E8B26A461C2113F0CEFFCC
:10419000307D4BE002249CE0B07E0028FAD05148EC
:1041A000874214D10120F0764C480722294640303E
:1041B00013F042FD8DE05EE07AE00EE00AE075E08B
:1041C0006FE067E07BE04AE041E039E031E0002069
:1041D000F0767EE0002070757BE00027012070758E
:1041E0003D461BE066E02846062148430646213648
:1041F000F0B26A461C2113F055FF00280CD1684626
:10420000C07EFF2808D0FF206946C8760127F0B29B
:104210006A461C2113F08AFF6D1CEDB22F48007E08
:104220008542E0D3002F54D02C48007D13F01AFFB4
:104230004FE001293ED1287801283BD8307348E06F
:10424000012937D12878092834D8707341E0012931
:1042500030D12878C11F09292CD8B07339E0012941
:1042600028D1717C28787074002932D1012830D18E
:1042700008F08CFA2DE001291CD1B17C2878B074AB
:10428000002903D1012801D108F080FAB07C02F0A6
:1042900012FB1EE001290DD1287803280AD83074BA
:1042A00017E0012906D12878307512E00120BDE71A
:1042B000012901D018240CE02878B07509E0192FE5
:1042C00000D367E70229FCD12988384601F022F99A
:1042D0000446204609B0F0BD3F420F0028470020A9
:1042E0002C6A00201A040000FEB50646002001904A
:1042F000029030460DF07AF8040017D0144FB879C8
:10430000022813D0607901AAA11DFFF7C7FD054659
:10431000387E85420BD2284608F018FA0246012062
:10432000009008232946304608F0CEF8FEBDB87943
:10433000002807D00128F9D161790022304607F022
:10434000FDFFFEBD0521304601F026F9FEBD00004F
:1043500028470020F7B516491525164E17468842FE
:104360000FD1002409E03A462046019908F05AFA94
:10437000002800D00025641CE4B2307E8442F2D3D1
:1043800013E00DF033F800280ED04379811D002290
:104390001846FFF783FD317E884206D23A460199DE
:1043A00008F040FA002500E014252846FEBD000074
:1043B000FFFF00002847002010B51448007F800848
:1043C0000DD0134806F0B2FF124CFF28207006D023
:1043D00000F00EFB10480078002802D013E01820EF
:1043E00010BD0E4A1021022013F05CFE0C4A102171
:1043F000032013F057FE04210A4A084613F052FE28
:10440000207801F02FF8002010BD0000EC6800209B
:10441000C14400007C4700208A4700208B6A0020AE
:104420009B6A0020984700203EB5084C6D462478D2
:104430002C706870A970EA700622194601A813F062
:10444000FBFB684600F07EFD3EBD00007C4700207F
:1044500010B504F01BF913480078002801D0FF289C
:104460001DD1114806F062FF02F0F0FD0F4806F082
:104470005DFF00F0FDFD0E4806F058FF01F040FD25
:104480000C4806F053FF06F0DBFC0B4806F04EFF2D
:10449000FFF738FA094806F049FF01F02FF9FFF756
:1044A0008BFF10BD844700209171000081530000F4
:1044B0008D60000051AF0000F13B00007D5800000E
:1044C00070B50C4608040DD50F48007813F0F0FCC9
:1044D000050004D008F016FC284613F0C1FC0120AA
:1044E000C0030CE060040CD50421084A084613F010
:1044F0001DFE0748007813F0B5FD012080036040E1
:1045000070BD002070BD00007C470020984700204F
:104510003C4700207CB514460D4601F03BFE002DC3
:1045200002D02846FFF758F90A48002C00D0446012
:1045300009490978002901D000207CBD0849074AB3
:10454000009101920849074B0A780821007800F091
:104550007BFC7CBD7C4700208A47002098470020D8
:104560009B6A00208B6A00208947002038B5054BE4
:104570006C461B7823706070A170E270684600F092
:1045800025FC38BD7C47002070B50C460146032051
:1045900000020A1A00252548130007F079F8130BCA
:1045A0000D10171A1E2125292B2D3133393B3D3D86
:1045B00035373D00407811E010221D4902E01C49CA
:1045C00010221031204613F037FB2DE040692060A7
:1045D0002AE0164906221E31F4E7C078207023E055
:1045E000124982782431EDE7114902791F39E9E750
:1045F000407AF3E7807AF1E70C4906221831E1E7C7
:10460000C07AEBE7007BE9E7C0890AE0008A08E0AE
:10461000007AE3E74079E1E7192904D2084600F07F
:104620001BFD208000E00225284670BD8447002045
:104630008B6A0020F8B5164CFF20207000256570AD
:104640000320A0700126E670062765611920E78126
:10465000C001208220461F222946243013F0E4FBAB
:1046600020460221243001704670877025711F2278
:104670000021084813F0D8FB2046062200211830FC
:1046800013F0D2FB6571A571FF20E071F8BD000049
:10469000844700206C6A0020FFB583B01C46154695
:1046A0000E460C9F03980CF0A1FE002817D0C1897C
:1046B000B14207D3A94205D8018AA14202D1408A5A
:1046C000B8420ED06846068045808480C78069461F
:1046D0000D9A039802F07AFC002007B0F0BD142078
:1046E000FBE71820F9E7000010B52548007F800798
:1046F00044D0244C2078FF2840D1234806F016FEF1
:104700002070FF283AD0214900240C602049214A1A
:104710000C700421117000F0A5FE102200211E482B
:1047200013F082FB102200211C4813F07DFB1C4873
:104730001E4904601B48184A04701B480470072077
:1047400008701B4810210470022013F0ABFC134AC0
:104750001021032013F0A6FC10220F49154813F076
:104760006BFA144810220D49103013F065FA042139
:104770000B4A084613F096FC002010BD182010BD0F
:10478000EC6800208447002019480000784700208A
:104790008C470020854700208B6A00209B6A002000
:1047A000984700208D4700208E4700208F4700202B
:1047B000904700204C6A002010B505F07DF91048A4
:1047C00006F0B4FD02F042FC0E4806F0AFFD00F02A
:1047D0004FFC0D4806F0AAFD01F092FB0B4806F0D5
:1047E000A5FD06F02DFB0A4806F0A0FDFFF78AF8AC
:1047F000084806F09BFD00F081FFFFF775FF10BD34
:1048000091710000815300008D60000051AF0000E5
:10481000F13B00007D580000FEB54A4C0D460804EF
:1048200048D5207813F044FB040040D04648007877
:10483000002808D02078454ED02808D0A22802D0E1
:10484000912821D014E0204609F056FA2CE0A078F7
:1048500000280DD0052807D0082809D006280BD03D
:104860000728F0D1A0881BE0608919E0007B04E0F4
:10487000204609F041FA02E0E0790828E3D1214618
:10488000307813F04DFB12E060780E28F0D1A0884C
:104890002F498842ECD1A068817842780802104301
:1048A0000CF0A4FD0028E1D1204613F0D9FA012034
:1048B000C00345E068040BD50421264A084613F0DE
:1048C00035FC2548007813F0CDFB0120800337E04C
:1048D000E80736D021480078002830D00CF0BCFE24
:1048E0001F49097F8907890F884203D3032069463E
:1048F00008700CE01B486946007808701A480622C8
:104900000078487000A81949023013F095F918484A
:10491000694600780872174800784872207800F0DD
:10492000C3FB00280BD014490620087013490968FE
:10493000002904D00A68002A01D0002190470120F4
:104940006840FEBD844700208A4700208B47002036
:1049500005140000984700203C47002087470020AE
:10496000EC6800208D4700208E4700209C470020E7
:104970008F470020904700208C4700207847002078
:104980007CB514460D4601F011FC002D02D02846DE
:10499000FFF71EF90C480078002801D011207CBDDB
:1049A000002C01D0094804600A48009008490B48CF
:1049B000019102780A48084B01780A48007800F013
:1049C00043FA00207CBD00008C470020784700207F
:1049D000984700209B6A00208B6A002089470020AE
:1049E000854700208447002010B501F0ABFF10BDC3
:1049F0000449C8710878FF2803D0012088710C2071
:104A00004870704784470020F8B50C465E4916464A
:104A1000421819210025C9015C4F130006F038FE29
:104A2000120A1017A81C3E526970778188A8A3A8A3
:104A3000A88F98A8102C73D11022314654486CE0EE
:104A4000102C6DD1524810223146103065E0042CF4
:104A500066D13068786190E0012C61D1F9783078C6
:104A60004A4AF870127800290AD0002807D1387A0B
:104A7000022801D0052802D1104600F039FA7CE066
:104A800000287AD0387A012803D0032801D00428DE
:104A900073D10121104613F095FA6EE01F2C60D8F7
:104AA0003A481F220021243013F0BEF9374822462D
:104AB0003146243013F0C0F8344BBC702433224606
:104AC000012112E01F2C4CD831481F2200211F3831
:104AD00013F0AAF92E48224631461F3813F0ACF8DD
:104AE0002B4B3C711F3B22460021387800F0A8FD7B
:104AF00048E0012C35D13078042832D878723CE077
:104B0000012C2ED1307803282BD8B87235E0062C32
:104B100027D11E4806223146183013F08DF82CE0BC
:104B20001FE0012C1DD1307807281AD8F87224E034
:104B3000012C16D13078032813D838731DE0308843
:104B4000022C0ED106280CD388420AD8F88114E032
:104B50003088022C05D1062803D3884201D8388238
:104B60000BE0182509E0012CFBD13078787104E0C6
:104B7000192801D2022C02D002252846F8BD31881E
:104B800000F0C8FC0546F8E7FFFCFFFF8447002063
:104B90008B6A002010B504460CF028FC002805D0D4
:104BA00000781322214600F007FD10BD122010BD31
:104BB0003EB50024069D01940095029401F0FBFD92
:104BC0003EBD0000F8B50E46070048D038880CF00E
:104BD0000DFC050041D0234AA96BD078022806D0ED
:104BE000012804D0287B082803D1002E01D01224EC
:104BF00036E0002901D0112432E01B492C2013F0AB
:104C000037F80446A863200025D02C22002113F099
:104C10000BF9388860801C22391D201D13F00CF818
:104C2000022020700F483A880178287B082810D08D
:104C30000020231D06F039FA0446002E03D0314629
:104C4000284611F0FBFD002C0AD0284608F0DEF8BB
:104C500006E00120EDE7132402E0142400E0022422
:104C60002046F8BDEE47002014470000FFB51F485E
:104C700081B0C0781E4617460D46022818D001287C
:104C800016D0002F30D001980CF0B0FB040029D0D2
:104C9000E06A002801D013F041F81C21384612F0D8
:104CA000D7FFE062011E1BD0207B082803D00DE057
:104CB000122005B0F0BD002E08D0887E00900B4673
:104CC00012330A8A019812F001F900E000202179DC
:104CD000002D01D0062200E0042211432171E8E7F3
:104CE0001320E6E71420E4E70220E2E7EE47002085
:104CF00010B50548C078000701D5044800E0002041
:104D000008F002FF10BD0000EE4700200C48002014
:104D100070B51A4C05460121207808F09DF8184816
:104D2000C1780A20014223D02570164808F0E6FE1B
:104D3000606800281AD1207800281DD000010721C2
:104D400012F096FF6060002810D021780A0100213F
:104D500013F06AF80020FF21626803E00301401CA1
:104D6000D154C0B223789842F8D305E0132070BD27
:104D70000020207008F0C2FE002070BD0048002016
:104D8000EE470020AC6A0020094900200870486006
:104D90008860094807490160084941600849816005
:104DA000034808490C300160074941607047000022
:104DB0000048002041CC0000AC6A00207DD60000F5
:104DC000D9D5000021CB000059CB000038B51A4DD1
:104DD0000446A868002801D0112038BD17480A21D0
:104DE000C078084225D01649042012F041FFA8607F
:104DF00000281CD00422214612F01EFF052000F0DE
:104E00002BF90546062000F027F90246E078002835
:104E100000D001200B498978002901D0012300E04E
:104E200000230090A078294601F068FD38BD1320CA
:104E300038BD122038BD000000480020EE47002099
:104E40001D47000058690020F8B50224079F1D4641
:104E50001646042919D004DC012907D0022945D1BE
:104E60000BE008291BD00C2940D129E000F0CAF939
:104E700004003BD100F01EFA38E000F0C3F9040052
:104E800034D13046FFF744FF30E000F0BBF90400B6
:104E90002CD13A462846069900F0EEFA20E000F0C0
:104EA000B1F9040022D13A462846069900F0E4FA06
:104EB0003046FFF72DFFFFF71BFF05F0D3FF15E08E
:104EC00000F0A0F9040011D13A462846069900F0F6
:104ED000D3FA3046FFF71CFFFFF70AFF05F0C2FFC9
:104EE00000F0E8F900F0CEF906F096F82046F8BD9B
:104EF00070B5104C2168002919D00978814214D16D
:104F00000D4D0221287813F00DFA0C48002646803A
:104F10002878042113F006FA094846712168032015
:104F20004870002001F0CFFC70BD032070BD12203E
:104F300070BD0000D4450020EE470020144800203A
:104F400058690020F0B504463D488BB0C078000792
:104F500072D53C488068002801D010246DE000F034
:104F600011F939490978884264D2384E30680028EE
:104F700001D0112461E036490A2012F079FE306038
:104F8000002854D00A22214612F056FE306840789C
:104F9000002805D00B2000F05FF80A900C2004E0F8
:104FA000092000F059F80A900A2000F055F804464C
:104FB00028488078002801D0012500E00025102035
:104FC00000F04AF807460F2000F046F800900D2048
:104FD00000F042F801900E2000F03EF80290082008
:104FE00000F03AF80890072000F036F80990316890
:104FF000C878091D07F0D9F80346019A029900986C
:105000000491069007970592326809990898161D31
:105010000096029103900195927821460A9801F03A
:10502000E9FB040009D0032007F00AFF05E0132480
:1050300003E001E0152400E0122420460BB0F0BD8F
:10504000EE4700200048002020470020D8450020DF
:105050001C47000058690020192801D302487047F6
:1050600002494000085A7047FFFF0000786900209D
:1050700010B5044600F08AF800F062F9FFF784FEEC
:10508000FFF7D8FA0649FF23CB7000228A700A7115
:105090000448052143700470204602F0C1F810BD99
:1050A00058690020EE470020F3B5304E00243068E8
:1050B00083B0002802D0112005B0F0BD2C4D052191
:1050C000E878084201D11220F6E72A494968002908
:1050D00005D00978002902D0C00702D008E01020CE
:1050E000EAE700F04FF807460CF098FA874207D33A
:1050F00004980078022803D0032801D0122432E05B
:105100001D490C2012F0B4FD306000282AD003990C
:105110000170002141700A22801C049912F08CFD5C
:10512000164EB078032806D008F088FF04001AD085
:1051300007F060FE17E007F0E5FE694605F00DFE9A
:10514000684608F0CBF9012030711120FFF784FF89
:105150000006000E707106D02878094A042113F069
:1051600071F800E013242046A6E70000D445002093
:10517000EE4700201448002017470000586900201F
:105180000077010010B50CF033FA10BD1A48002169
:105190000170417041608160C16001614161816164
:1051A0001648B42201804280012292038280A0220C
:1051B000C28002811022428182815023C3810382F6
:1051C00042828282C2827D2302831B0143838183C8
:1051D000C18301840F234384094B83840723C38441
:1051E0000285012242857E22D2438285C1850186C5
:1051F000491E418670470000C045002078690020A4
:1052000080BB000070B50E460546202200210948EB
:1052100012F00AFE074C0848E570C67001F088FBE2
:10522000002803D000202070122070BD01212170C1
:1052300070BD000058690020EE4700207FB504468D
:105240000D4608460CF0D2F8002817D00C488442CE
:1052500012D210220021684612F0E6FD69460C7059
:10526000200A4870200C8870200EC87029466846B5
:1052700005F02CFE04B070BD0220FBE71220F9E718
:1052800040420F0010B50848C078400707D50748CE
:1052900008F046FC00200649C043C88010BD00202D
:1052A00008F03EFC10BD0000EE470020244800201E
:1052B00058690020F8B51E4C00256068002802D00F
:1052C00012F02CFD6560E068002802D012F026FD87
:1052D000E560184E0527F078384224D0164808F0CB
:1052E00019FCF07838421CD01449202012F0C0FC80
:1052F0006060002815D02022002112F095FD0F4992
:105300002020491E12F0B4FCE060002805D02022C5
:10531000002112F089FD0020F8BD606812F0FEFC4B
:1053200065601320F8BD002008F0F4FBF3E70000EF
:1053300014480020EE470020B86A002016470000FD
:105340000948FF2101700021418041608160C160F6
:1053500007480649016007494160074981600249E1
:1053600006481031086070471448002079D10000C9
:10537000B86A002009D200003DE00000E9D000003A
:10538000FEB5354F354D0C4608041FD5387812F060
:105390008FFD061E17D03078A22806D07D783046C3
:1053A00008F0B2FA00280AD102E02C48C578F6E7E6
:1053B000FF2D04D03146284612F0B2FDE6E7304614
:1053C00012F04EFDE2E70120C00341E0E0070126B4
:1053D000234900280AD04868002804D041680029E1
:1053E00001D00020884720467040FEBDA00709D5A7
:1053F000C868002804D04168002901D001208847EE
:10540000022025E0600725D5687900281FD0401EBE
:105410000006000E68711AD14869002808D02E7164
:10542000C868002804D04168002901D001208847BD
:105430006946E86805F091FC684608F04FF81120CD
:10544000FFF70AFE68713878042112F06BFF042020
:105450006040FEBD0020FEBDEE47002058690020E0
:10546000C04500200149487070470000EE47002009
:1054700010B505F0ABFD10BD70B5154C0E46626160
:1054800021610546E0601022FF21304612F0B7FB93
:10549000012806D010220021304612F0B0FB01286E
:1054A00003D11021206910F0BBFF1022FF212846F4
:1054B00012F0A5FB012806D010220021284612F088
:1054C0009EFB012803D11021E06810F0A9FF70BDF8
:1054D000586900207FB50C4605460BF087FF002871
:1054E00014D0826B007B042802D0122004B070BD5F
:1054F000002A00D0947D6846214611F023FD044B1C
:105500006A460221284611F09FFCEFE71420EDE7E0
:105510003774010070B50C460546192802D20848B8
:10552000844201D1022070BD112D04D13C20604382
:1055300080B201F0DBF9034968000C52002070BD15
:10554000FFFF00007869002070B50E46114915462E
:10555000CB78022B17D0012B15D0002D17D00BF0D4
:1055600045FF040011D0002E03D02079022108430A
:105570002071204610222946183012F05DFB286960
:10558000A062002070BD122070BD142070BD0220EA
:1055900070BD0000EE47002038B50C4605460BF004
:1055A00025FF002806D0684604706946284611F099
:1055B00039FC38BD142038BDF7B505461E48122603
:1055C0001E4F0C46814208D1B868002832D00268CC
:1055D000002A2FD028469047FEBD1748401C844221
:1055E00019D1B868002806D00268002A03D02846DE
:1055F0009047002806D02846029906F0C9FD06000B
:1056000005D017E07D70029838700020FEBD7D70D7
:10561000029838700EE008460BF0E8FE002809D02A
:105620000078A84201D00320FEBD2046029901F077
:1056300094F8FEBD3046FEBDFEFF0000C0450020D0
:1056400070B51446024620481E46C078052318420D
:1056500024D01E4D00296B68E86802D0002B1DD0B5
:1056600001E000281AD0202C2CD2002C01D0002ED2
:1056700028D02A70002913D01F220021581C12F0B4
:10568000D3FB686822463146401C12F0D5FA69689F
:1056900020460C70491C01F012F970BD122070BD3B
:1056A0001F220021401C12F0BFFBE8682246314651
:1056B000401C12F0C1FAE96820460C70491C01F048
:1056C00023F970BD022070BDEE4700201448002071
:1056D00010B5094A014613790020002B0BD1012394
:1056E0001371C90707D013466433184610220421EA
:1056F000403800F009FA10BDB0460020F8B5044665
:1057000000F01AFF00F046F8114F134EFC701149DB
:10571000304600F027F81149C02012F0A9FA002203
:105720001346B86194010653002124180C254D43FB
:105730006519AB80491CEB600529F7DB521C032A75
:10574000F0DBF878787006480BF0A2FFF8BD000097
:10575000B0460020EE690020FFFF00000147000076
:1057600095F0000070B50A4C0025A04208D1002039
:1057700082008C525218401C95700328F8DB70BDD3
:1057800009F059FC0028FAD00480857070BD000033
:10579000FFFF0000F0B51E4920200870FF20487070
:1057A0008870C8700126CE8000200881C86008611A
:1057B0000B4602241C3348611C70164A5A600A4684
:1057C000087124321470144D556016725081D360E4
:1057D0001474124F15466F612E766883E96120219B
:1057E000545413460E4D59185D6208725885D8629C
:1057F000302154540B4C0323511854630B725087BF
:10580000094ACA600249094A643105C10860F0BD0D
:10581000B04600200E8501001085010016850100AC
:105820002E8501001C850100EE6900206DFB000043
:10583000F8B50E460746069900240798002902D0BD
:105840000B242046F8BD022B01D00D24F9E7517836
:1058500012780D0215432946814301D08024F0E7D8
:105860003846F16800F042F9A842EAD02A463846A4
:10587000F16800F0F1F90446E3E7000070B50D4669
:1058800008041AD50E48C07812F012FB04000FD09D
:105890002078B02809D1204609F094FD002804D0D2
:1058A00020462179083000F029FE204612F0D8FA6F
:1058B00001212846C903484070BD002070BD00008A
:1058C000B0460020FFB585B000200F9F0090087AF9
:1058D0000E9D1C460E46C0060BD5079809F0A4FB8A
:1058E00003007DD00A223146059898470090002891
:1058F00016D13078022815D0079809F0BBFB002894
:10590000EFD0006884460028EBD011991098224609
:105910000097029101902B46314664460598A047B6
:1059200009B0F0BD7068292241780078090201436E
:105930001202881A91427CD00BDC6948081A13D0F5
:10594000012811D0022817D00328D5D1002F53D019
:105950009BE001287ED002286DD0032877D0042850
:10596000CAD1002F68D090E0002F6FD1F068017885
:1059700029800278416884E0002F67D1F06841787F
:1059800000780F02074304202880F06804A90078FB
:105990002070F06840786070384600F0D5F9060055
:1059A00022D06846028A03AB4E493046F76800F0C1
:1059B00029FA00280AD1337802214B487268FDF792
:1059C0008CF8002802D14748694688813878022837
:1059D0000CD10222201D796812F02EF9288800E0EF
:1059E0007CE0801C288001E06846878168468089C9
:1059F000A070000AE0706FE001202880F0680021AC
:105A0000007820707089401C80B200F09DF9002859
:105A100013D0298802788918891C2980817A6170BD
:105A20004189090AA17002784168E01C12F004F96A
:105A300052E00CE00EE026E03BE028880422001D46
:105A400028800021601C12F0EFF945E01DE0002FD6
:105A500027D01AE0F06812F078FC80B2B84201D288
:105A600007205DE7874201D1002006E01099C9199F
:105A7000814201D3C01B00E01098288082B2F068F8
:105A8000C1192046D2E7002F01D00B2048E7F1686A
:105A9000059800F02BF8022129802070000A607020
:105AA0001AE002202880F06800782070F0684078C2
:105AB000F5E70721F068298001782170417861704D
:105AC0008178A1704188090AE17001792171817999
:105AD0006171C088000AA071009821E70E201FE7BD
:105AE00000280000FFFF00001285010010B509F03A
:105AF000A2FA002800D0807810BD0000014988700B
:105B000070470000B04600207CB51E4605001CD042
:105B1000684601808270019500F04EFB04001FD1A1
:105B2000002E1DD0688900280FD00E490C2012F0DD
:105B30009FF8002813D000210160698981800A4AFA
:105B400086601169002903D107E002207CBD11465F
:105B50000A68002AFBD1086002E0106100E013240B
:105B600020467CBD05470000B0460020F8B50C4C2F
:105B70000746A07815460E46FF280FD00A2012F0DF
:105B80005BF901000AD0B12008704F8000204870F6
:105B90000871CE800D81A07812F0C2F9F8BD000026
:105BA000B046002070B50C4605460649FFF79EFF3B
:105BB000800704D52146284600F05AFB70BD01201D
:105BC00070BD0000EE6900200EB56B461A81FE2301
:105BD000002201930092022302AA00F001F80EBDF8
:105BE000FFB583B0174602A90D9E049800F0ACF8EB
:105BF00004002AD06846008909F03CFA002822D027
:105C00004568002D1FD00C98019600903A46214619
:105C1000069B0398A847050018D1FE2E16D02078C1
:105C2000022813D1606841780278080209491043BC
:105C300088420BD17878397802020A430499039894
:105C4000FFF794FF02E00E2500E00125284607B08B
:105C5000F0BD00000229000070B514460E4605464E
:105C600009F0E9F9002806D13146054809F0E3F9C1
:105C7000002803D005808470002070BD112070BD05
:105C8000FFFF000010B50178B0290BD14178002941
:105C900008D10179122906D01B2903D1408801219E
:105CA00001F0C8F910BD417C0129F7D010BD0000FA
:105CB000FFB5002489B01E4615460F46022A05D0BE
:105CC000102D03D0022420460DB0F0BD002FFAD0D5
:105CD00007A9099808F038FC0400F4D101206946AE
:105CE0008880801EC8800D7202A82A46394601307D
:105CF00011F0A2FF01A9099808F0BAFB0400E2D153
:105D0000034B072201A9009607980AF073F8DAE717
:105D1000D52D0000FEB50E461546074601A908F030
:105D200013FC04000CD131463846FCF71DFF04007B
:105D300006D1044B03223146009501980AF05AF827
:105D40002046FEBD592D0000F0B5104A536919E0F8
:105D50009C686589A84214D39E887219824210D922
:105D600000220CE017013F197F89874205D10029E5
:105D700000D00D8010010019F0BD521C92B2B24249
:105D8000F0D31B68002BE3D10020F0BDB04600200B
:105D9000FFB51B4883B0002345692DE0AE680024A1
:105DA00070890190A888009016E021018819428925
:105DB000039FBA420ED3049FBA420BD8069A002A18
:105DC0000FD01346715C4068059AFCF786FE0028E8
:105DD00007D10023641CA4B200988442E5D3002BB1
:105DE00009D00C98002802D00C9901980880200155
:105DF000801907B0F0BD2D68002DCFD10020F8E745
:105E0000B0460020FEB5174600256A469580044638
:105E100040891D4A1E46904208D001AA0092401CAB
:105E2000237880B26268FFF7B3FF0546237802212A
:105E300016486268FCF751FE002807D1237802213A
:105E400013486268FCF749FE002801D060890EE023
:105E5000237802210F486268FCF73FFE00280DD02E
:105E6000002D03D068468088B84203D0384609F038
:105E7000A1FF04E06889401E80B200E06089002E26
:105E800000D030802846FEBDFFFF000010850100D5
:105E90001285010016850100FFB583B00E461D4630
:105EA000174601A9039808F099FB040022D1002F9E
:105EB0000FD0694608803088FFF746FF694608889A
:105EC00000F012FA0146012203980BF063FA002851
:105ED00011D131460398FCF7EFFE04000AD1FF2DE3
:105EE00008D0019B1E22194604489B1C09F06DFF37
:105EF0000198C570204607B0F0BD00001DFC0000F1
:105F000010B50446FCF704FF0749FF2008704870ED
:105F10000020486088608C700421204601F080F9E0
:105F200000F044F810BD00009C460020F8B5184F62
:105F3000282138784843174911F09AFE164E002858
:105F4000706023D00024154D12E028207168604352
:105F50004018058000218170FF2242720272817216
:105F60002422115418220C3011F05EFF641CE4B29C
:105F700038788442E9D30A4808F0D0FF0948FDF791
:105F800005F909480BF084FB0020F8BD1320F8BD8B
:105F90002047002006470000A8460020FFFF000021
:105FA00015E30000F7E200003DE2000070B50020BC
:105FB0000D4D0E4B0446FF22062141435D52C91888
:105FC000CA708A70401C0C710328F5DB0120C043A5
:105FD0001880074808F0A8FF0648FDF7DDF80648D6
:105FE0000BF056FB002070BDFFFF0000DC690020B5
:105FF00065FC000047FC00009DFB00007CB51646D8
:106000000C460546FCF7D0FA11490978884201D3BD
:1060100016207CBD01A9284608F0E0FA1728F8D020
:10602000002E10D00020694608802088FFF78CFEE3
:106030006946088800F058F90146012228460BF00D
:10604000A9F90028E5D121462846FCF74BFE7CBD86
:1060500029480020F8B51C4615460E4607460BF0A9
:10606000C5F900280DD0017B074808292B46324688
:106070003946009403D0007808F0C6FAF8BD40789D
:10608000FAE70120F8BD00009C460020F0B587B07B
:106090000F46080470D5394EB07811F009FF04009E
:1060A00064D02078A0285ED101206946087320467C
:1060B000FCF7C1FE050041D16846807800280BD06E
:1060C000142809D0152807D01A2805D01C2803D079
:1060D00001461F3920290BD8B16800292ED0694606
:1060E000497800292AD169460874062008751FE0FE
:1060F000C0070AD07368002B05D0608803AA6946E0
:10610000984705461AE0062518E0B368002B06D02C
:10611000608803AA69469847050001D10EE006256C
:1061200068464078002809D16946887808740D755A
:1061300000204882608804A9FCF70AFD6846007BBD
:10614000002804D0A068002801D011F0E7FD002D40
:1061500005D168468078122805D01B2803D16088B5
:10616000012100F067FF204611F07AFE0120C003F4
:10617000784007B0F0BDFFE70020FAE79C4600201A
:1061800010B508F07DFE10BD10B51346002208F0D2
:1061900091FE10BD01494870704700009C460020E8
:1061A0000149087070470000A846002001490870A6
:1061B000704700009C46002070B504464568008882
:1061C00000284AD02B78022125486A68FCF785FC14
:1061D000002807D12B78022122486A68FCF77DFC51
:1061E00000283AD0A078C01F092834D81E4EF08865
:1061F00000282ED02188081801210904884228D8B7
:106200001A490C2011F034FD050020D0002207E0CF
:1062100011016368F0880A315852401CF080521C0A
:1062200020889042F4DC0020286008222146281DA6
:1062300011F002FD7069002801D105E008460168EF
:106240000029FBD1056000E07561002070BD1320BE
:1062500070BD012070BD182070BD022070BD00000F
:106260001085010012850100B046002002470000A1
:10627000FEB50E46074600250223194A194901209A
:106280000095FFF785FD040027D023200090002310
:1062900004221D21384600F0EBF8029000281AD0A5
:1062A0006089694688800420C880029901200870AE
:1062B0000298334645700299FF20887002990022A7
:1062C000C87001A93846FFF7E7FD040006D0029820
:1062D00011F024FD02E0152400E001242046FEBD5B
:1062E0002E850100FFFF000000B508F01DF9002811
:1062F00001D0807800BD102000BD00B508F014F971
:10630000002800D0008800BD7CB50D4604460BF087
:106310006DF829462046FCF745FF002812D1684653
:10632000858020460BF062F800280BD0027B01A983
:106330000748082A009106D07F23002221460078D2
:1063400008F062F97CBD7F23002221464078F7E700
:106350009C46002010B504460B4688060DD5104615
:10636000FFF7C2FF0146012220460BF013F8052873
:1063700001D00F2800D1082010BD882003420CD086
:106380001046FFF7B1FF0146180701D5012200E0D2
:10639000002220460AF0FEFF10BD880701D500202C
:1063A00010BD032010BD10B50346C8060DD510461C
:1063B000FFF79AFF0146012218460AF0EBFF052875
:1063C00001D00F2800D1082010BD480705D5104680
:1063D000FFF78AFF0146012206E0480608D510466D
:1063E000FFF782FF0146002218460AF0D3FF10BDD6
:1063F000C80701D0002010BD022010BD70B51D4699
:1064000003460C4688060DD51046FFF76DFF014682
:10641000012218460AF0BEFF052801D00F2800D13E
:10642000082070BD8820044214D01046FFF75CFF9E
:106430000146200701D5012200E0002218460AF09B
:10644000A9FF002808D0697A0029EAD0297A002912
:1064500002D170BD880701D5002070BD032070BD3A
:1064600010B500234B720B7209F0E4FC10BD000064
:10647000F8B5069F1E461546162928D00CDC0929BA
:106480001FD004DC05291CD0062911D11BE01129DD
:1064900017D012290CD118E01D2916D004DC1729B9
:1064A00015D01B2904D110E052290ED0D2290CD0CE
:1064B0000124114A95420CD1FCF7EEFB001B85B27A
:1064C0000BE00224F5E70724F3E70324F1E70524B2
:1064D000EFE7D22901D10C35ADB2601980B239464F
:1064E00000F0FAFE002805D0002E00D03580614271
:1064F00011F050FBF8BD0000FFFF000010B508F0E0
:1065000039F8002801D011F009FC10BD10B5094A76
:10651000014653790020002B0BD101235371C90789
:1065200007D01346A4331846102209219038FFF7EC
:10653000EBFA10BDEC450020F0B500213D4C0222E5
:10654000A1603D4D227008462954401C80B2162897
:10655000FAD36270374BE180A27050200C33188060
:10656000A0205880184681807D20C000D880E2702D
:106570000123304823716171143002702F4C446044
:10658000037241812E4CC460064602742D4F776120
:106590003446337671831034143EE660202402556D
:1065A0000646294F3419776223727185F5623024CB
:1065B00002550546234E6E632C1923726987133DDD
:1065C000E560402402550546204E6E642C19237266
:1065D00061810E3DE560502402550546194E2C1987
:1065E0006E6523726181123DE560602402550546A7
:1065F000174E6E662C1923726181083DE560702488
:10660000025505460F4E2C196E6723726181113DAC
:10661000E560802402550F4A803042600372418158
:106620006A1CC2600C48A03210600C4850601046D2
:106630008160F0BDEC450020AC69002010850100B0
:10664000A48401001685010024850100268501002F
:106650002C8501003685010019FF00006100010052
:1066600070B51646214A0D46114600241431030028
:1066700005F00EF80A061338381838212838313852
:10668000152D2AD816220021194811F0CDFB2A46D3
:106690003146174811F0D0FA25E0022D1DD130887F
:1066A000D08020E0082D18D11048082231460C3047
:1066B000FBF79DFD17E0012D0FD1CA690B4930781A
:1066C0003C3105E0012D08D1CA6B084930785C31B6
:1066D00009F08EFC07E0012D01D0182403E030788A
:1066E000107100E00224204670BD0000EC4500203F
:1066F000AC6900201148807C01280DD003280ED001
:1067000007280FD00F2810D01C2811D0222811D014
:10671000322811D0002070471320C04370470D204D
:10672000C04370470720C04370470220C0437047F2
:10673000012070470220704703207047EC6800205A
:10674000704710B500F02EF910BD10B500F04AF9F1
:1067500010BD10B500F05EF910BD10B5FBF71AFFC3
:1067600010BD10B500F06AF910BD10B500F07EF94B
:1067700010BD10B500F094F910BD10B5FBF71AFF6D
:10678000002010BD10B5FBF72FFF10BD10B5FBF7B3
:106790003BFF10BD7CB5069C079DC0B201950094DF
:1067A00000F094F97CBD10B5FBF73EFF10BD10B5AD
:1067B000FBF74AFF10BDFEB508AF70CF6F4670C73C
:1067C000FBF752FFFEBDF0B585B084460AA8F1C8BC
:1067D00004976F4671C7604600F0A8F905B0F0BD98
:1067E00038B5049C009400F0E1F938BD10B5FBF712
:1067F0004BFF10BDFFB589B016A871C894468E46F0
:106800000796159F129A139904AE31C614980092F8
:10681000019102900397624671460998FBF742FF87
:106820000DB0F0BD38B5049C009400F0DDF938BD22
:106830007CB5069C079DC0B20195009400F0F2F96A
:106840007CBDFFB587B094468E4610A8F7C8069762
:106850006F4677C762467146079800F019FA0BB089
:10686000F0BD10B500F06EFA10BD10B5FBF73AFFA1
:1068700010BD10B5FBF748FF10BD10B5FBF756FF74
:1068800010BD10B5FBF762FF10BD10B500F078FA2F
:1068900010BD10B5FBF76CFF10BDFEB508AF70CF93
:1068A0006F4670C7FBF776FFFEBD38B5049C0094B9
:1068B00000F084FA38BD10B5FBF786FF10BD10B5A7
:1068C000FBF792FF10BD10B5FBF79EFF10BDF0B5B2
:1068D00085B00AACF0CC03976F4670C7FBF7A4FFF6
:1068E00005B0F0BD10B5FBF7B5FF10BD10B5FBF757
:1068F000C1FF10BD10B5FBF7CDFF10BD38B5049C2E
:106900000094FBF7D7FF38BD10B5FBF7E5FF10BDCE
:1069100070B55478157822022A43FBF7EDFF70BD5D
:1069200010B5FBF7F3FF10BD10B500F065FA10BD10
:1069300010B5FBF7EFFF10BD38B5049C009400F0D4
:1069400073FA38BD10B5FBF7F7FF10BD38B5049CDE
:10695000009400F017FB38BD10B500F081FA10BDAF
:1069600010B5FBF7FFFF10BD10B505280ED90C4C74
:10697000A0420BD2A14209D2814207D3FF20F530B9
:10698000824203D2092B01D9A34201D3002010BDBA
:10699000521C4A43D8008242F8DA012010BD0000A0
:1069A000810C0000F8B50746084616460D460C3027
:1069B00011F042FA040011D0912020700E20607076
:1069C000A5702046A7800C302A463146A06011F001
:1069D00033F903482146007811F0A2FAF8BD00000F
:1069E000EE47002070B505460C46062011F024FA4B
:1069F00001000BD0912008700F2048708D7001208D
:106A0000C87003488C80007811F08AFA70BD0000CD
:106A1000EE47002010B50446032011F00DFA0100E6
:106A200008D0912008701A20487003488C700078B4
:106A300011F076FA10BD0000EE47002070B5064652
:106A400014460D46082011F0F7F901000AD09120F4
:106A50000870052048708E708D8003488C71007816
:106A600011F05EFA70BD0000EE47002070B50646DA
:106A700014460D46082011F0DFF901000CD09220D9
:106A800008703E204870082088708D808E71034801
:106A9000CC71807811F044FA70BD0000EE47002000
:106AA00070B505460C46062011F0C6F9010009D064
:106AB00091200870302048708D7003488C800078D9
:106AC00011F02EFA70BD0000EE470020FFB581B036
:106AD0001E460F46312011F0AFF9040022D091205C
:106AE00020703E2060700220A0700120E0702046DF
:106AF000083005466060019828706F700622A81C57
:106B0000039911F099F82E722846324609300A99F5
:106B100011F092F820350B9828720348214600782E
:106B200011F0FEF905B0F0BDEE470020FFB50646B6
:106B300081B017460D46162011F07EF904002FD0C3
:106B4000912020703E2060700120A0703046002609
:106B5000002808D03120E0702046062200210830AD
:106B600011F062F906E0E6702046062208300A9924
:106B700011F062F8A580A7710498E0710B98E0818C
:106B80000C9820820D9860820E9820750548214649
:106B9000007811F0C5F9082D02D2034968000E52A1
:106BA00005B0F0BDEE470020C46A0020F8B50746E6
:106BB0001C4615460E460C2011F03EF901000FD080
:106BC000912008703E20487003208870CF708E801E
:106BD000CD800C81069848810248007811F0A0F918
:106BE000F8BD0000EE470020F8B507461C461546E4
:106BF0000E460E2011F020F901000FD091200870F0
:106C00003E204870072088708F80CE800D814C8197
:106C1000069888810248007811F082F9F8BD0000DA
:106C2000EE470020FFB581B01F46182011F004F98F
:106C3000050028D0912028703E2068700B20A87095
:106C400001202C460834E87000266C600198207002
:106C5000029860700622A01C039910F0EDFF2772C5
:106C60002046062209300A9910F0E6FF0B98E073DF
:106C7000761CE878F6B21034B042E7D803482946CB
:106C8000007811F04DF905B0F0BD0000EE4700208E
:106C9000FFB5064681B017460D46222011F0CCF80C
:106CA000040048D0912020703E2060700A20A0701F
:106CB00030460026002814D03120E07020460622FD
:106CC0000021083011F0B0F82046062200210E30D5
:106CD00011F0AAF8204606220021143011F0A4F881
:106CE00012E0E6702046062208300A9910F0A4FF50
:106CF000204606220E300B9910F09EFF20460622F9
:106D000014300C9910F098FFA580A7710498E071D9
:106D10000D9860830E98A0830F98E083202110982F
:106D2000085506482146007811F0FAF8082D02D2DD
:106D3000034968000E5205B0F0BD0000EE47002088
:106D4000C46A0020F8B5064615460F46102011F01B
:106D500073F8040011D0922020703E20607005204E
:106D6000A070A68008223946A01D10F065FF0348D8
:106D7000E5818078214611F0D3F8F8BDEE47002078
:106D8000F8B5064617460D460E2011F055F80400DA
:106D900011D0922020703E2060700420A070E67018
:106DA000A58008223946A01D10F046FF0248214662
:106DB000007811F0B5F8F8BDEE470020F8B50746A9
:106DC0001C4615460E460E2011F036F801000FD075
:106DD000912008703E204870062088708F80CE80F9
:106DE0000D814C81069888810248007811F098F84E
:106DF000F8BD0000EE47002070B514460D4608208F
:106E000011F01AF801000BD0902008701320487080
:106E1000012088708D800348CC80007811F080F8C4
:106E200070BD000030480020F8B507461C461546E6
:106E30000E460C2011F000F801000DD091200870D2
:106E40000C2048708F708E808D710C81069848815F
:106E50000248007811F064F8F8BD0000EE47002009
:106E6000FFB581B0444E02990025F068174602290B
:106E70002CD0B18800297CD07288CB19121D934286
:106E800071D840183A46049910F0D6FEB088C0195F
:106E900080B2B0807188091D88425CD10C2010F04E
:106EA000CBFF01005ED090200870FF204870019851
:106EB000488002200871B088C880F06888602F4838
:106EC000007811F02DF8B580357044E004994A78C7
:106ED0000B78110219433A1F7180914222D10C2084
:106EE00010F0AAFF04003BD090202070FF206070BB
:106EF0000198608002982071E7802149384610F09F
:106F0000B7FEA060002809D03A46049910F094FE1C
:106F10001A482146007811F003F81CE0204610F0D2
:106F2000FDFE1DE091421BDD3178002903D00028D1
:106F300001D010F0F3FE70881149001D80B210F0EE
:106F400097FEF060002814D03A46049910F074FEC1
:106F5000B78001203070002005B0F0BD09E002E0EC
:106F6000B58006E0F068002801D010F0D7FEB580AB
:106F700035700120F0E70000E8470020304800208D
:106F800001800000FFB583B01C4615460E460C9FDD
:106F900003980AF02BFA002809D06846068045803D
:106FA0008480C780FF226946039800F00FF807B07D
:106FB000F0BD000008B51346034A00920A460121BD
:106FC00009F0B6FF08BD0000190201003EB500231C
:106FD0000192042402930A460094024B12210AF003
:106FE000B3F83EBDBF02010008B51346034A009244
:106FF0000A46132109F09CFF08BD0000EB020100C6
:107000001FB56946C8810022FF2103206C4607C4D2
:10701000034B03AA062103480AF096F804B010BDFA
:107020008F020100FFFF0000014840897047000007
:107030002848002013B504484079012803D101AA4B
:107040006946FFF79AFB1CBD2848002070B5002553
:10705000254C302225706570E57025716571A5712C
:10706000E5716581256120722946204810F0DCFE1B
:107070000AF060FA26460C36307800280ED000015F
:107080001B4910F0F5FD6061002807D0717821716F
:107090003178E1700A01002110F0C6FE154821790F
:1070A00000784018C0B2124920700001491C10F04D
:1070B000DFFD2061002811D021780A01002110F0A5
:1070C000B3FE0020FF2105E023690201D218401C15
:1070D0005172C0B222789042F6D301E0257025713A
:1070E00005480AF0D5FA70BD28480020D46A00206F
:1070F000044C0000204700205D0601000A2A01D050
:10710000012070474A780B7812021A430280CA782D
:107110008B7812021A4342804A790B7912021A4381
:107120008280CA798B7912021A43C2804A7A0B7A1A
:1071300011021943018100207047042A01D0012067
:1071400070474A780B7812021A430280CA788B780B
:1071500011021943418000207047082A01D0012004
:1071600070474A780B7812021A430280CA788B78EB
:1071700012021A4342804A790B7912021A43828022
:10718000CA798B7911021943C18000207047000031
:10719000F8B5214E0D4608042ED5307A10F088FE41
:1071A00004000BD02078902805D16078132808D0EF
:1071B000204609F0BBFD204610F052FE0120C0031E
:1071C00028E016490020097CA7780BE0420012193C
:1071D00092797378D218D2B27270914200D27170E3
:1071E000401CC0B28742F1D870780028E3D001215A
:1071F000307A10F0E7FEDEE7E8070CD009F084FFF4
:10720000002806D07078002803D00121307A10F0D1
:10721000D9FE01206840F8BD28480020EC68002015
:10722000042907D0052905D0062903D0072901D054
:10723000022070470C22044B4A43D218403A118274
:107240009074002070470000D46A002070B50C468E
:1072500009880546042905D0052903D0062901D04F
:10726000072929D16068002826D0012128460AF084
:1072700043FA00281ED028460AF08EF90F498D42A5
:107280000BD0002809D16188002906D9208806285A
:107290000ED10B48008881420AD20A4800780028A3
:1072A00004D02146284609F083F870BD162070BD31
:1072B0001B2070BD142070BD022070BDFEFF0000B9
:1072C0003248002029480020024A001F5081517096
:1072D000917070472848002010B5801D80B2054984
:1072E00010F0C6FC002803D00521C94310F052FC61
:1072F00010BD0000034C00000B480A4900688A8852
:107300004261CA88C2618B884362CA88C262436391
:10731000C2634364C264098981651F2141600349D6
:10732000C160704720690020B44500201F030000A1
:1073300070B515461C46214A0B46916B90B000294A
:1073400002D0097B002934D1116C002902D0C979FF
:1073500000292ED1916C002902D0C979002928D1A9
:10736000164940318E8E16498988890A8E4202D389
:10737000072010B070BD11496031097F490618D54A
:107380006946C8700622194601A810F055FC0AA8E3
:1073900010222946023010F04FFC06A81022214688
:1073A000023010F049FC684601F018FE801B0128ED
:1073B00001D00C20DDE70020DBE70000046B00209B
:1073C000EC6800201CB51B4B9A6B002A05D0147B7F
:1073D000002C02D0D27A002A11D11A6C002A05D0D2
:1073E000D479002C02D0127BD20708D19A6C002AE3
:1073F00007D0D379002B04D0D27B002A01D01220F1
:107400001CBD0C4A0C4B40329B88928D9B0A9A42C1
:107410000BD26A46507000A80622023010F00CFC15
:10742000684602F0FBFC012801D007201CBD0020AB
:107430001CBD0000046B0020EC680020F0B51F4C60
:1074400089B00D4606462146002004F042FB002884
:10745000F9D0A042F7D0002104460120800527463C
:1074600007430091019102910391049105910691C6
:1074700007916A46D773390A9173390C51733046B4
:1074800004AA694600F09DFD6A46907F517F000284
:1074900009044018D17F40182870010A6970000C57
:1074A000A8700121200A89030843EF702871200C7D
:1074B00040210843687109B0F0BD0000FFFF3F00A4
:1074C000F8B544490C46C86A80342073020A6273D6
:1074D000000CA073886AE073010A2174000C6074C8
:1074E0003D49002004F0E6FA00270646791E38469A
:1074F00004F0EFFA384332467D1E0AE031460020A0
:1075000004F0D8FA06462946002004F0E2FA38438F
:1075100032469104304E890C0143EFD0D343C1432E
:1075200033401943EAD0FF2301461B02194020765D
:10753000090A617619020140090CA176000EE07675
:10754000100AC0212277084360770120214D009066
:10755000A0352149002004F0ADFA00270646791E27
:10756000384604F0B6FA0146394330460A4602432B
:10757000EFD0194BCA4343401A43EAD0FF230A46CF
:107580001B021A40130A0A46FF273F043A40CEB2B4
:10759000A677C7B2E377120C2A70090E69708004CF
:1075A000AF70800EBC46E870277BBE4211D1667B6F
:1075B000B3420ED1A37B9A420BD1E27B914208D118
:1075C000227C944505D1617C884202D10098002834
:1075D000BFD1F8BD046B0020FF3F000010B500F0E4
:1075E0001DF882228021002001F0E2FC10BD000085
:1075F00010B50648C078002804D1054803F096FE6F
:1076000000F052FE04490348C86310BD2069002001
:10761000E187000089170100046B002010B50B48BA
:10762000846B04F021FB00202073A0722071084CB1
:107630000121E07810F076FEE078022110F072FE71
:10764000E078042110F06EFE10BD0000046B0020F5
:107650002069002070B5044608206072EC200059B3
:10766000002818D05A21228F095BE61D5118F936DF
:107670000A31F18105460120A87031460522093101
:10768000E81C10F0D9FAF0892872000A68722220EA
:107690006073002070BD012070BD10B501F056FD73
:1076A000002010BD10B51149886B002805D0027B61
:1076B000002A02D0C07A002811D1086C002805D019
:1076C000C279002A02D0007BC00708D1886C00284C
:1076D00007D0C179002904D0C07B002801D0122036
:1076E00010BD02F0D3FB002010BD0000046B002091
:1076F000FFB581B00D4600F0C1FA040022D0192078
:10770000C00185421ED8062D1CD30399814219D889
:10771000A94217D3FF220499F432914212D80A9950
:1077200081420FD80498C900401C6843814209DD9A
:10773000A07BC00706D126468036B168480701D431
:10774000880702D5122005B0F0BD20464030C5851F
:10775000039A02860B9A42860C9A8286049A828247
:107760000A9A0746C282E07902220028A07E02D04F
:1077700000282ED037E0002835D1E420005D8007B6
:1077800002D51143B16022E0039885420BD028183E
:107790004108284604F08EF9788221465231039838
:1077A0000BF06EFC00E07D821048006E411C042945
:1077B00001D9042000E0401CF87320460BF00AFCBD
:1077C000208F04210A303883B0680843B06012204B
:1077D00008E0E420005D800701D41A20B3E71143DC
:1077E0001320B160A0760020ADE70000046B0020FC
:1077F000017A4A07D30FF022125812781207D20FDB
:10780000934204D1042251400172002070470120AC
:107810007047017A0A07D30FF022125812785207E4
:10782000D20F934204D008225140017200207047C9
:1078300001207047F8B506460021084603F08CFD8C
:10784000184F386800282AD01748006E012826D122
:1078500098208159308E0025814201D30C1A02E014
:10786000091A12480C18124800688047A04203D930
:10787000011B06D5844201D3251A02E0211A0B48C8
:107880000D180C48807F4008A84205D27D21281A97
:10789000C9004843400900E0002039688847B0200B
:1078A0003073F8BD68480020046B00200000C0A8B9
:1078B000B0450020EC68002001468031CA6C521CA3
:1078C000CA640A6D01D1521C0A65120603D5012251
:1078D000CA6400220A652030C1784A0602D52022F7
:1078E0001143C1707047000070B50546FF200002CB
:1078F0002C468034616F05E08A8902438A81616F7A
:10790000096861670029F7D1E16F002906D08A89EB
:1079100002438A81E16F0968E167F6E7E06E0028BB
:1079200001D010F0FBF92C4620346078FF2801D0FC
:1079300010F0D4FC2078FF2801D010F0CFFCA07804
:10794000FF2801D010F0CAFCA88800F019F90848F7
:10795000806800280BD00748006E002807D1064C2D
:10796000E069002803D010F0D9F90020E06170BD73
:10797000EC680020046B00202069002070B50446EC
:107980001C480E46C16D0025A14200D1C565FC20F2
:107990000059002804D0A0880022802101F008FBB3
:1079A000E08F002804D0A0881322812101F000FB81
:1079B000A0880522812101F0FBFAA57165734E2094
:1079C0000655E079002807D10BF096F8012803D876
:1079D0000121002003F0C0FCE079012807D10BF061
:1079E00099F8012803D80221002003F0B5FC0020FB
:1079F00070BD0000046B0020014680314A6C521CAF
:107A00004A648A6C01D1521C8A64120603D5012291
:107A10004A6400228A642322125C520609D5028F2E
:107A200040304388D2180280012288689202904335
:107A30008860704770B5044618206072EC200059C9
:107A400000282BD00F21817021464031CA8DC27091
:107A5000120A02710A8E4271120AC31C82711D46FB
:107A60008A8A2A71120A6A71CA8A4272120A827258
:107A70008A7FC272098C0173090A417321460C2264
:107A800062310E3010F0D8F820462030C178042240
:107A90001143C17092206073002070BD012070BD41
:107AA00070B5054618206872EC204059002825D092
:107AB00010212C4681704034E18DC170090A01719A
:107AC000218E4171090AC31C81711A46A18A117164
:107AD000090A5171E18A4172090A8172A17FC1725A
:107AE000218C0173090A417329460C2262310E3040
:107AF00010F0A2F897206873002070BD012070BDBF
:107B000030B50C214172EC210A58002A33D00146CD
:107B100002234031CB730C8B038F9C4202D3E41AB7
:107B2000062C0CDA154C246E651C042D01D9042496
:107B300000E0641CCC734C8B1B1908330B830023AF
:107B40009370CB7BD3700B8A13711B0A53714B8AD2
:107B500093711B0AD3718B8A13721B0A5372CB8ADF
:107B600093721B0AD372098B1173090A5173122184
:107B70004173002030BD012030BD0000046B0020A7
:107B800070B5164C0346206D002102460D461CE0E0
:107B9000FF265D36365A9E4215D1002904D0626D0B
:107BA000824204D1616504E01168216501E0026848
:107BB0000A6010F0B3F8606D0560206E002809D0EF
:107BC000401E206604E0014600680028E0D1206ED7
:107BD000002802D100F004F8256570BD046B002078
:107BE00070B5064D6C6B03E0204610F097F82468E2
:107BF000002CF9D10020686370BD0000046B0020E8
:107C0000F8B51B4D686B002831D1288C1F21C94362
:107C10002130184C0840217C09010818103080B22E
:107C20001B2110F025F8002821D00022124B686398
:107C3000014616469D1C16E0002A09D08D814E6033
:107C40004E72277C97420AD90F4610370F6007E023
:107C50008B81277C3F013F1810374F60F0E70E60A3
:107C6000521C92B21031277C7F1C9742E4D8F8BD99
:107C7000046B0020EC68002052FF0000014606481B
:107C8000006D05E0FF225D32125A8A4202D0006880
:107C90000028F7D170470000046B002030B50C4A73
:107CA00004460948137C0021406B084D5B1C07E02B
:107CB0008289A24207D0AA4205D0491CC9B210301D
:107CC0008B42F5D8002030BD046B0020FFFF000080
:107CD000EC68002010B514220021024810F0A4F82E
:107CE00010BD0000546B002070B5FF2561351021D8
:107CF00028460FF0BDFF04462A46002110F094F8F4
:107D0000002C0FD01F4D01232A6D002A0CD0686D66
:107D1000FF304130818B491C89B2080400D5012114
:107D2000104609E0002070BD19460AE0FF265D36C6
:107D3000365A8E4203D000680028F7D101E00028AF
:107D4000E9D12646FF364136B183002910D0002AFA
:107D500012D0686D04606C65286E401C2866696DE1
:107D600000200860B18BA180A0712073A08870BD35
:107D700020460FF0D3FFF9E72C656C652B66FFF703
:107D80003FFFECE7046B0020FFB54C4C81B0E06C8A
:107D90000E9E0A9D0F46002806D00AF0ADFE484907
:107DA000097F8908884202D10C2005B0F0BDA06C83
:107DB000002801D1E06C804704460120019980032E
:107DC000814200D80846E083B84200D8074627849D
:107DD00055204743380AA0830398E0732878002889
:107DE0000ED1687800280BD1A878002808D1E8784F
:107DF000002805D12879002802D1687900280BD005
:107E00002046012120300177049941770622294636
:107E10001E300FF011FF02E000213C200155002030
:107E2000401CC0B20628FBD335210B9808550C988E
:107E300020820D99618240184008E0842146263155
:107E40000D980BF01DF9E08C1921C901884201D968
:107E5000E18403E0062801D20620E0840220608449
:107E6000FF20F430864200D90646A682E28C701CC0
:107E70005043C3179B0F18180F9B8010984200DCCB
:107E8000184680B2E082109B2383119B6383884253
:107E900001D9E18203E00A2801D20A20E082E08AC7
:107EA00011468000FAF72CF9411EB14201DD30463F
:107EB00000E0401EA082A06D804776E7046B0020A2
:107EC000EC68002010B50648806C002806D0C07908
:107ED000002803D000F056FA002010BD0C2010BD81
:107EE000046B002010B50C46FFF7C8FE00280FD029
:107EF0008179102901D0022010BD4E210C54C17986
:107F0000002903D031214173002010BD3021FAE750
:107F1000122010BD70B5044617206072EC20005985
:107F200000282CD00321817021460546FF3108220C
:107F30001431C01C0FF080FEE01DFC30417E007E3D
:107F400009020143E972090A29732146FF312846D3
:107F500008221E310D300FF06FFE2146FF312846FA
:107F60000422263115300FF067FE20462030C178FC
:107F700004221143C17042206073002070BD0120B3
:107F800070BD70B504460D206072EC2000590028C9
:107F900015D0054604202146A870FF3108222D3156
:107FA000E81C0FF049FE2146FF31284604223531F6
:107FB0000B300FF041FE44206073002070BD0120A3
:107FC00070BD30B54478037824021B198478C578D5
:107FD00024042D06641989B01B1900934479037990
:107FE00024021B198479C57924042D0664191B19F0
:107FF0000193447A037A24021B19847AC57A2404F3
:108000002D0664191B190293447B037B24021B1960
:10801000847BC07B240400062018181803904B783A
:1080200008781B02C0188B78CC781B0424061B1917
:10803000C01804904B7908791B02C0188B79CC7951
:108040001B0424061B19C01805904B7A087A1B02E2
:10805000C318887ACC7A00042406001918180690F0
:108060004B7B087B1B02C0188B7BC97B1B0409065A
:1080700059184018079004A96846FAF773F90020C8
:1080800009B030BD10B50446092021466072803128
:10809000C86E002810D008228270C86E5431C01CEF
:1080A0000FF0CAFD20462030C17804221143C17070
:1080B00062206073002010BD012010BD10B509239F
:1080C000014643728031CA6E002A0FD09370C27984
:1080D000CB6E002A06D008225C31D81C0FF0ACFD14
:1080E000002010BD08220146D431F6E7012010BD62
:1080F000F8B507462A48C1780020C04300294BD074
:10810000002F49D027490C6D002C45D00646E07958
:10811000012811D1608EA18D88420DD2627B012A87
:108120000AD1254680356A6F002A05D1AA68002A3F
:1081300002D1E27BC02A03D098200159208E0EE0A4
:10814000091A6869401E41430091A16F0098F9F730
:10815000D7FF401C80B22086AA690099511881423D
:1081600001D30D1A02E0091A0F480D18AE4200D9CA
:108170002E462468002CCAD10C4800688047B042C3
:1081800001D8301A06E0B04207D58642F9D2311A3A
:108190000548081838603046F8BD00213960F8BD40
:1081A00020690020046B00200000C0A8B04500201A
:1081B00010B50179C906C90E002401712246214675
:1081C000435C002B02D0521CD2B21C46022A08D2B9
:1081D000491CC9B20529F3D3002A04D0601E044209
:1081E00001D0012010BD002010BDF1B5002582B0E6
:1081F0002C460420029A290E121824020C43FF3246
:10820000290201321579401E0D4340B20028F1DAEF
:108210000298C17C203040790818C7B2252F01D3BD
:10822000253FFFB202983A46C77401200021F9F7B2
:10823000CEFF28402140084302D002988774FEBD3B
:10824000002006460090324601200021F9F7BFFFCA
:1082500028402140084303D00098401CC0B2009041
:10826000761C76B2252EEEDB38460099F9F748FFEA
:1082700000273E460091324601200021F9F7A7FF72
:1082800028402140084307D00098874202D1029835
:108290008674FEBD7F1C7FB2761C76B2252EEADB8B
:1082A000FEBD0021C174704770B505462948002401
:1082B00004602948B0220460214628480FF0B4FD2C
:1082C0002748284AC570D07D117E00020904401855
:1082D000917D254D41182148C162917ED37E0902CE
:1082E0001B04C918537EC91881620821C181058207
:1082F0001E4B43820175C38241750583438301464A
:10830000FF2360310B774C778C77CC7720310C7062
:108310004C708C70CC7020318B72DF24CC720B735C
:108320004C731F238B73D17B0184CA00703242844B
:108330008184C2841B218183FF214931C1830C497F
:108340000163FAF7EFFFFFF7C5FC01F0B1FD00F0A4
:1083500015FF70BDE447002068480020046B002032
:1083600020690020EC680020D70700008081000011
:1083700000F9150002490148C864704781190100DD
:10838000046B002070B50E48846C03F06DFC0D4D3D
:10839000FF21E87801310FF0C5FF0121E87849029B
:1083A0000FF0C0FF0321002002F0D6FF0020E07193
:1083B0002071A0718122802100F0FAFD70BD0000C3
:1083C000046B0020206900200449098C0170002101
:1083D00041700349097C817000207047046B0020C4
:1083E000EC68002070B509214172EC210958002980
:1083F00033D014228A700246FF3224321346547E50
:10840000127E25021543CA1C1446CD7002462D0A61
:10841000FF320D712232557F167F2A0232434A7194
:10842000120A8A715A7F1B7F12021A432271120AA2
:1084300062710246FF324232537814781A022243A4
:108440004A72120A8A7201462031CA7804231A43FA
:10845000CA70B2214173002070BD012070BD70B59B
:1084600009214172EC21095800292AD015228A706D
:108470000246FF3224321346547E127E25021543F3
:10848000CA1C14460246CD70FF322D0A22320D71ED
:10849000557F167F2A0232434A71120A8A715A7F27
:1084A0001B7F12021A432271120AFF30627142309E
:1084B00042780378100218434872000A887200203C
:1084C00070BD012070BD10B5FFF7D8FB002805D0A6
:1084D000C179012902D1417B462901D0022010BD7A
:1084E0000146062220310A7147224273C8780122D0
:1084F0001043C870002010BD70B50C46FFF7BEFBDE
:10850000002802D0C179012901D0012070BD417B32
:1085100046292FD1A27BE17B12028918627B237B43
:1085200012041B06D2188A1801468031CA62A37A47
:10853000E27A1B02D218637A257A1B042D065B1996
:10854000D2180A63A379E2791B02D21863792579DC
:108550001B042D065B19D2184A63A378E2781B022C
:10856000D218637824781B0424061B19D2188A6356
:1085700050214173002070BD70B50D46FFF77EFBA2
:10858000040006D02946FFF7F9F9203420710020B5
:1085900070BD122070BD0000F8B5FFF7A5FB00907C
:1085A000002863D0FFF76AFB040061D01020A0719F
:1085B0000020E071B020207301206073304826460F
:1085C000406980363067152120200FF051FB2D4D7A
:1085D00000212F4660372346C033F0666878084391
:1085E00048D068186030027F6018C030027560188B
:1085F000D422125CE030491CC9B202710829EDD3C3
:108600000521B068C9010843B06000202918A031D5
:108610008A7A2118FF310131401CC0B20A71052845
:10862000F4D3E01DFD30FFF7C3FD0021C9432187CE
:108630002046FF212030417001708170E07E812151
:108640000843E07620460C22FF2162300FF0ECFB5D
:108650000D494420015320460AF008FB20460AF049
:1086600045FA002028812046FFF71BFE0098F8BD40
:108670000120F8BD387F8006800E1875B7E700002E
:1086800040690020046B0020B80B000010B500F01A
:10869000BBFEFFF76FFE10BD70B504460AF048FA46
:1086A000284D618D2B7D0846DA0702D028225043E1
:1086B00002E0254A5043C009224680325061DB0760
:1086C00001D0002107E0204B204E4B437143C909E4
:1086D0001B09C900591AC9B22177042901D3401CCA
:1086E0005061218F762001532A7DD00701D00A21C5
:1086F00000E009212046FF30A1864430437C057C00
:1087000018022843D20702D01F30400902E0104A65
:108710005043400C49004018E08620460AF0E8FA31
:10872000E08D0005010C20460AF014FCA08801220F
:10873000802100F03DFC0121064802F00DFE0648B4
:10874000C46570BDEC6800207B140000D7A3000056
:10875000C710000005460100046B00200121417292
:10876000EC21095800290BD00A228A7001462031D9
:10877000CA7804231A43CA707221417300207047DB
:108780000120704701214172EC210958002905D0D0
:108790000B228A70742141730020704701207047BA
:1087A00001214172EC21095800290AD012228A7055
:1087B000A22141732030C17804221143C1700020EE
:1087C000704701207047012141728030C06E00283F
:1087D00003D01321817000207047012070470000F2
:1087E00070B50C460146200412D508460FF060FB18
:1087F00005000AD02878802801D0812802D1284697
:1088000000F072F828460FF02BFB0120C00363E054
:108810003349E207886B8030002A05D000680028C1
:1088200000D08047012057E0A20705D54068002806
:1088300000D0804702204FE0600703D5FEF7CEFE50
:10884000042049E02648A206006C05D5806C00286B
:1088500000D0804720203FE0E20605D5406C00288C
:1088600000D08047102037E01D48A205806C06D557
:10887000006E002800D08047012040022CE0E20575
:1088800006D5C06D002800D08047FF20013023E0CE
:10889000134AE004157915D512484278D2070FD053
:1088A00000224270406903234278521D1A43805CC3
:1088B000C00602D40889401C0881284600F0A2FAAC
:1088C000204670BDA00409D5CB798A79497928461C
:1088D00001F0F8F901204003604070BD002070BD38
:1088E000046B002040690020F0B5017800248DB0B1
:1088F000802902D081297DD0E0E1FF4E41783546C4
:108900008035062977D006DC0B0002F0C1FE060D8B
:1089100044F6F5F4F3F607296ED081296DD082294B
:108920006CD08629E8D185E14088FFF7A7F90500DA
:1089300070D0E87B400602D403200DB0F0BD2E4677
:10894000AC758036F06F002823D04368827A017AB4
:10895000A8889B1CFEF700F800280DD1F06FFF22BD
:108960008189120211438181F06F0068F067A88F3E
:10897000002801D0401EA887F06F002809D0A888E1
:108980000022802100F014FB002801D10120A875ED
:108990000BE2AC8709E24088FFF770F90700C7D007
:1089A000F879012837D0B66C002EC1D068798007DD
:1089B00073D53420805D022870D00622002107A8DC
:1089C0000FF032FA354640352879022867D0062262
:1089D000002109A80FF028FA0622A91D0BA80FF004
:1089E0002BF9F98DB88D7A8D039204AB13C309AAC4
:1089F00007A904E04FE107E12CE196E0A7E00BA80E
:108A00006B4607C324206B79B988C05D0022FDF74F
:108A100018FF85E00AE1B46B002C89D068798007E3
:108A20003ED5254660352879022812D0062200213D
:108A300007A80FF0F9F9687D022811D32146062214
:108A4000763109A80FF0F8F8216E06220BA8091D4F
:108A50000FE02146062207A866310FF0EDF8EAE79D
:108A60000622002109A80FF0DFF9214606227631FF
:108A70000BA80FF0E1F838462030798D8479FB8D12
:108A8000BA8D03AE1EC609AB07AA0BA96C460EC46D
:108A90006B7DB98800790122B9E72FE011E017E07A
:108AA00038462030798D8579FB8DBA8D01AE2EC682
:108AB0002146763100916034637DB98800790122C6
:108AC0002CE031460622363107A80FF0B5F879E7D9
:108AD00031460622463109A80FF0AEF8716D062224
:108AE0000BA8091D0FF0A8F8706D0221C07808438B
:108AF000687176E775E05EE04CE0DFE0F88DB98DF7
:108B00007A8D039030464630019200900494029191
:108B1000403624207379B988C05D0022FDF753FEEA
:108B2000F87B40210843F8733FE1B06C00287DD00A
:108B3000C28A818AC38C02AD019316C501464631B3
:108B40000091403000224379114602201FE0B06BB3
:108B50000028ECD0697989070DD505940694002387
:108B60000394049400940194012219463C20029439
:108B7000FDF767FE19E101466E3100910194029400
:108B8000039460300494437B012200213C20FDF7D4
:108B90001AFE0AE14088FFF771F80028C7D00146A5
:108BA0004031CA8A00928B8A4A8A818820300079B3
:108BB000FDF716FEF9E04088FFF760F80028B6D010
:108BC000C1790129818807D02422135C0246DC3256
:108BD0001846FDF75AFEE8E02422135C0246D43220
:108BE000F6E74088FFF74AF800281FD0C11DFC3186
:108BF0004A7E097E12020A4301468388FF311431FE
:108C00001846FDF72EFED0E04088FFF737F8040045
:108C10000CD020464030C18A0091838A028EC18DDB
:108C2000A088FDF742FEA07B042100E07BE0084322
:108C3000A073BAE04088FFF721F8002873D00146FE
:108C40004031CA8A00928B8A0A8EC98D8088FDF7CE
:108C50007DFEAAE04088FFF711F8002863D00146A6
:108C6000FF3144314B7C0A460C7C190221430091B0
:108C70000146FF3142314B7C0C7C1B022343547D67
:108C8000157D22022A434C7D0D7D210229438088D7
:108C9000FDF7C8FD89E041781A296BD008DC052969
:108CA0000ED0082934D00C2945D0132906D153E021
:108CB000302969D0572975D0FF2976D001203CE6AC
:108CC0004088FEF7DBFF05006AD0F4204659002EED
:108CD00010D070680FF022F8E88F3668401CE887E3
:108CE000002EF6D10204120C04D0A9880120FDF751
:108CF0001BFEEC874E2001E0046B0020425D242027
:108D0000A988405DFDF72DFD2846FEF7EDFD4CE0FE
:108D10004088FEF7B3FF002842D04621095C0029B5
:108D200002D0012201E03BE000228188203000795E
:108D3000FDF71BFD39E04088FEF7A0FF00282FD08B
:108D4000014640318A8900924B894A7A81882030D5
:108D50000079FDF7F1FD28E04088FEF78FFF050060
:108D60001ED0EA8F002A20D0A9880120FDF7DCFD63
:108D7000EC871AE04088FEF781FF002810D02030F1
:108D80000079FDF7E6FC10E04088FEF777FF002849
:108D900006D0818820300079FDF7EBFC05E001E08A
:108DA0000220CAE54088FDF7CBFC0020C5E570B580
:108DB00005460024FF21012002F099FE2855641C7D
:108DC000E4B2082CF6D3002070BD0000064A002152
:108DD000531880331B7B0370491CC9B2401C062901
:108DE000F6D3002070470000046B002010B50C463D
:108DF000FEF744FF002803D0007D2070002010BD46
:108E0000022010BD10B5002803D00B2803D8401E47
:108E100006E025200CE00C2804D0262804D8801E6B
:108E2000C0B205E0262003E0272801D0122010BDA3
:108E300002F0E4FE002010BD0221417201468031A3
:108E40000A46C96E002907D00D238B702030D16EE1
:108E50000079C870002070470120704703224272D9
:108E6000EC221258002A07D011239370D1702030C1
:108E700000791071002070470120704710B50C4632
:108E8000FEF7FCFE00280FD024210C54817B4A07FA
:108E90000AD5FB2211408173803001228168920340
:108EA00011438160002010BD122010BDFFB581B0BC
:108EB00016460F46FEF7E2FE04463A49B81F8842BE
:108EC0006ED2481D86426BD8BE4269D3FF220499F8
:108ED000F432914264D80A99814261D80498C90059
:108EE000401C7043400081425ADD002C58D0A07BCA
:108EF000410749D5FB2108402546A0734035EF8541
:108F00002E86E079002808D0204680300122816832
:108F1000520311438160102035E0688C2249884259
:108F200004D0B74202D12882608D09E0E88B00901E
:108F3000002807D001463046F9F7E2F80099484387
:108F400068820AE0B8194108384602F0B3FD688229
:108F50002146523130460AF093F81448006E411C05
:108F6000042901D9042000E0401CE87320460AF0DF
:108F700031F8208F04220A3028832046803081680F
:108F8000114381601120A07640340B9860860C98C4
:108F9000A0860498A0820A98E082002005B0F0BD67
:108FA0001220FBE77B0C0000FFFF0000046B002099
:108FB00070B5064614460D4604200EF03DFF010034
:108FC00007D00D704C7004484E80C0780EF0A8FF9A
:108FD00070BD042070BD000020690020F0B500279E
:108FE00087B00546384800970197029703973E4699
:108FF000846F0CE0E078E978884206D11022291DC0
:10900000201D0EF00BFE012842D02646E46B002CFA
:10901000F0D11A2140200EF02BFE040038D0E87861
:10902000E0700622291D201D0EF006FE20461A3093
:10903000294610221A31059004900EF0B9FF102233
:10904000694604980EF0EAFD002823D0A77229464D
:1090500020462A3010222A3105460EF0A9FF1022A0
:10906000694628460EF0DAFD00281FD0A774164D79
:109070002046296B0BF0FCFB002E23D0F463124931
:10908000E7634031888E401C80B2888607B0F0BD0F
:109090000020FBE70120A072E07802210843E07283
:1090A00021460C310598FEF7C9F9D0E70120A074DC
:1090B000E07802210843E074214614312846FEF787
:1090C000BDF9D4E7AC67DAE7046B0020F7B50E48CA
:1090D00015466E46846F0CE068464078E178884219
:1090E00006D10622211DB01C0EF098FD012804D0E7
:1090F000E46B002CF0D10020FEBD204629461A303A
:109100000BF068FBFEBD0000046B0020F7B50E48B5
:1091100015466E46846F0CE068464078E1788842D8
:1091200006D10622211DB01C0EF078FD012804D0C6
:10913000E46B002CF0D10020FEBD204629462A30E9
:109140000BF048FBFEBD0000046B002070B50A4D1B
:10915000FF26AC6F07E020780FF0C0F8267020469D
:10916000E46B0EF0DBFD002CF5D100200249A8676E
:109170004031888670BD0000046B002010B50449A2
:109180000020888640398867FEF79AF910BD0000F4
:10919000446B002070B505460848846F07E0204600
:1091A000A91C1A300BF016FB012804D0E46B002C2C
:1091B000F5D1002070BD204670BD0000046B00207A
:1091C00070B505460B48846F0DE06878E178C007FC
:1091D000C00F884206D10622211DA81C0EF01EFDDC
:1091E000012804D0E46B002CEFD1002070BD204694
:1091F00070BD0000046B002070B505460848846F00
:1092000007E02046A91C2A300BF0E4FA012804D01C
:10921000E46B002CF5D1002070BD204670BD00002D
:10922000046B0020F8B504468030016FC81C0A7931
:109230008446CB78100218432E4B821F9A4225D2C7
:109240008B794D791B0219264A1C2B43F601B34238
:109250001CD883421AD365466F792D793F022F437C
:10926000FF25F435BE46AF4210D8557A177A2D0245
:109270003D43B5420AD87646761C4643EF00BE42CF
:1092800004DACE7A002E03D09E4201D91E20F8BD0A
:10929000668D0027864208D19E4206D1A38D734574
:1092A00003D1E38DAB4200D1012723464033D8855B
:1092B0005079157900022843188660464579067969
:1092C000280230439882507A127A00021043D882E2
:1092D000C87AD883487B0A7B000210431884204652
:1092E0000C2262300E310EF0A7FC0420A076384626
:1092F000F8BD00007B0C0000F8B5F02109580A7990
:10930000CD7813022B43274DCC1C9A1FAA4226D29C
:109310008D794E792D02354319264A1CF601B54246
:109320001DD89D421BD3677926793F023743FF261C
:10933000F436BC46B74212D8567A177A36023E4304
:109340001927FF01BE420AD867467F1C5F43F6001B
:10935000B74204DCCE7A002E03D0AE4201D91E20E3
:10936000F8BD05464035EB85537916791B0233432A
:109370002B86637924791B022343AB82537A147AB8
:109380001A022243EA82CA7AEA834A7B0B7B1202E0
:109390001A432A840C2262300E310EF04DFC00205C
:1093A000F8BD00007B0C000070B5F0210B58DA1CF2
:1093B000197914460A02DD780146FF312A4341310A
:1093C000CA805A1C9B7915791B022B430B81637948
:1093D00024791B0223434B81537A147A1A022243C5
:1093E0008A8109F014FA70BDF02109584030CA781A
:1093F00042724A790B7912021A434281CA798B79F7
:10940000110219438181704710B50648C0780028C1
:1094100004D1054801F08AFFFEF746FF04490348DE
:10942000486410BD20690020E1870000011C010094
:10943000046B002070B50F48046C02F015FC002589
:10944000A5710421284601F087FF0B492820887761
:10945000E5712571E0690EF061FC2583E561256207
:10946000064C1021E0780EF05DFFE07820210EF030
:1094700059FF70BD046B0020EC68002020690020BB
:1094800000214172017A0122890889001143017289
:109490008030C06E002801D0002070470120704746
:1094A000FFB583B015460F46FEF7E8FB04003AD03F
:1094B0002046FF3042300190417D007D0E02064380
:1094C000AE4259D2681E30183146F8F72FFE87B2E7
:1094D0003E48761D06403846704380B20B210EF0A0
:1094E000C7FB009000286FD03848A838FEF7D6FB9D
:1094F000002836D0017B81818034616F002915D02E
:10950000A16F0860A067A16F00200860A06F45816F
:10951000A16F012048728020A16F00250872A16F01
:109520000098486017E0022007B0F0BD6067E9E7E7
:10953000A06F069B41683046684308180199801C5B
:109540004A7D097D12020A4311466943C9180EF08B
:1095500073FB6D1CEDB2BD42EAD306980EF0DEFB44
:1095600027E01B48026B002A02D01A4902209047CC
:1095700000980EF0D3FB27E01448A838FEF78EFBC6
:1095800000281AD0017B81818034616F002912D0BC
:10959000A16F0860A067A16F00200860A06F4581DF
:1095A000A16F01204872A06F07720698A16F801EFC
:1095B00048600020B8E76067ECE70548026B002AC6
:1095C00002D00449022090470720ADE7FCFF0000CD
:1095D000EC680020AA55000030B5C37D0146027A30
:1095E0008031002B09D04B6F5B681A704B6F427A49
:1095F0005B685A70496F496805E0CB6E1A70CB6E94
:10960000427A5A70C96E1A4C437A226941339B09D7
:109610000D6815604D6855608D689560CD68D560A2
:109620000D6915614D6955618D699561CD69D5618A
:109630000D6A15624D6A55628D6A9562CD6AD56272
:109640000D6B15634D6B55638D6B9563CD6BD5635A
:10965000403140325B1E1B061B0ED9D1407A0549B2
:10966000401D80082269897C8000115030BD0000B7
:1096700040690020EC680020114A916B002902D05B
:10968000097B00290BD1116C002902D0C97900296E
:1096900005D1916C002904D0C979002901D012208C
:1096A00070475070064A80325179002802D0062057
:1096B000014301E0F9200140517100207047000092
:1096C000046B002070B53849C96B00296AD0364A4E
:1096D0000028946B02D0012809D063E0002C61D0EF
:1096E000207B00285ED0FDF799FF002070BD012689
:1096F0000025F602002C10D18847040018D02682DD
:109700006682A5760720E076652005552649204625
:1097100006228C3166300EF08FFA207B012841D072
:10972000A07E010706D00007000F012802D009E043
:10973000032070BD09F0EEF91C49097F8907890FE4
:1097400088422FD0A07E0107090FA17101280AD0FD
:10975000208A628A8018400801229203A0829042E7
:109760000BD9A28214E00620A0821148E582C078BD
:10977000324604210EF078FD0FE0022904D00629BC
:1097800002D020280CD302E0A02800D2A020A08282
:109790001021002002F08EF9E082E06F804770BD5A
:1097A0002020F4E7122070BD046B0020EC6800203C
:1097B0002069002070B504460D480D46C26B002A92
:1097C00003D0806B002802D004E0122070BD9047C7
:1097D00000280AD0E206D20E0277002C03D02946D8
:1097E0001E300EF029FA002070BD032070BD00006D
:1097F000046B0020FFB5294981B0C86B0B9D1E4644
:109800001746002803D08C6B002C03D005E01220F3
:1098100005B0F0BD8047040015D001982082029861
:10982000012100226082012F0FD0022F0FD0032FC1
:109830000FD0042F0FD0A2762046603046712B78CF
:10984000002B1AD10AE00320E2E7A176F4E7062014
:1098500002E0022000E01120A076EDE76B78002BFB
:109860000BD1AB78002B08D1EB78002B05D12B79ED
:10987000002B02D16B79002B09D001730A99417337
:109880002046062229466E300EF0D6F900E002731B
:109890000C98E0760D98E0720020B9E7046B002088
:1098A00070B515460C46FEF7E9F9002827D0154A91
:1098B000138CA34205D30146FF3124310C77230AD0
:1098C00004E00146FF3124310B771B0A4B77518CA2
:1098D000A94206D30146FF3142310D702A0A4A706F
:1098E00005E00246FF3242321170090A51708030A1
:1098F00001228168120311438160002070BD122093
:1099000070BD0000046B002010B5040024D01C4979
:109910008A6B002A02D0107B00280BD1086C00282B
:1099200002D0C079002805D1886C002804D0C07905
:10993000002801D00C2010BD01208870104806229C
:10994000214692300EF078F962799309032B05D005
:10995000900908D0012B0BD0122010BD0848062218
:109960002146983008E00648062221469E3003E052
:10997000034806222146A4300EF05EF9002010BDF7
:10998000046B002070B51921084D890148432863F4
:10999000AC6F06E02078FF2802D0296B0EF0DEFCC9
:1099A000E46B002CF6D1002070BD0000046B002099
:1099B00010B50C461E494B6C002B05D00A6C0028D4
:1099C00004D0012807D00EE00C2010BD002A0AD0D8
:1099D000FFF730FD29E0002A07D01046C1790129A0
:1099E00001D000290ED0122010BD9847002807D0C2
:1099F0000021C17210224282828225221154EDE799
:109A0000032010BD428A012189038A4200D9418284
:109A1000828A418A8A4200D98182818A55225143B1
:109A2000090AC1828473006C8047002010BD0000C9
:109A3000046B0020F8B507460F480C46416C1E46E3
:109A40001546002905D0006C002804D0C1790029F2
:109A500004D00C20F8BD884700280BD0C772448280
:109A6000A54200D22C46848225210E54069901730A
:109A70000020F8BD0320F8BD046B002070B505463A
:109A80000C480C46C26B002A03D0806B002802D021
:109A900004E0122070BD9047002808D0EA06D20EDC
:109AA000427721463E300EF0C7F8002070BD0320FB
:109AB00070BD0000046B002010B5FDF799FD04484F
:109AC000024941660349816610BD00000D1E010078
:109AD000046B0020B51E010010B504460920214684
:109AE00060728031C86E002811D00E228270C86E5C
:109AF00008225C31C01C0EF09FF820462030C1784F
:109B000004221143C17062206073002010BD012047
:109B100010BD01214172EC210958002905D0052210
:109B20008A70522141730020704701207047012143
:109B30004172EC210958002905D006228A7054216F
:109B400041730020704701207047F8B51C46164647
:109B50000F46FEF793F8050002D0E879002801D0FF
:109B60000220F8BD2846FF300822394614300EF096
:109B700063F8E81DFC300676310A4176A17BE07B74
:109B800009024118607B227B0004120680182E46D1
:109B900008188036F062A17AE07A09024018617AEA
:109BA000227A09041206891840183063A179E079F5
:109BB00009024018617922790904120689184018AF
:109BC0007063A178E078090240186178227809046E
:109BD000120689184018B063284640308179002960
:109BE00004D00121C1712021B06851E00EF0C4F908
:109BF00002460020C3001146D9402B18FF33013321
:109C0000401C59770428F5D30EF0B6F9024600201F
:109C1000C3001146D9402B18FF332133401C597023
:109C20000428F5D32C46E81DFF34F9302134C27FD7
:109C3000217812028918827F407F120400061018D2
:109C40000818B062E178207909024018A17862789A
:109C5000090412068918401870620EF08DF9024648
:109C60000020C3001146D9402B18FF332133401C7C
:109C700059710428F5D3A179607909024018E17976
:109C8000227A0904120689184018F063B06840214E
:109C90000843B0600020F8BD02224272EC2109584E
:109CA00000290DD08A704E22125CCA700146203104
:109CB000CA7808231A43CA703221417300207047C2
:109CC00007207047FFB505003A4881B00469164681
:109CD00003D00B2D03D86D1E06E025250AE00C2DC0
:109CE00004D0262D04D8AD1EEDB203E0262501E0F8
:109CF000272D0FD1002E10D0012E19D0022E1AD0F0
:109D0000032E1BD0042E24D0052E25D0062E26D0BF
:109D1000072E27D0122005B0F0BD002704E0F9F788
:109D2000FBFCE11988707F1C02988742F7DB1EE07C
:109D3000F021029A18E0AA21029A15E0002704E017
:109D4000F9F7C8FCE11988707F1C02988742F7DB9D
:109D50000DE0FF21029A07E00021029A04E00F21A2
:109D6000029A01E0029A5521A01C0EF05DF830071E
:109D7000000F207002986070049881060298890E86
:109D8000401D8008800021540498029A000601D5E5
:109D9000012100E00021284602F0ECF8054800E02F
:109DA00000BFC1780029FBD003490889401C088105
:109DB0000020B0E740690020046B002002214172BE
:109DC000014680310A46C96E002906D007238B70F0
:109DD000D16E407DC87000207047012070470000A0
:109DE00006214172EC210958002912D00C220A4B9D
:109DF0008A709A7BCA701A8A0A71120A4A715A8A40
:109E00008A71120ACA71C17E4906490EC1760020C4
:109E10007047072070470000046B0020F8B51A4F08
:109E2000054600263C6F0CE060786978884206D1D0
:109E30000622A91CA01C0DF0F1FE01281ED026460A
:109E4000A468002CF0D119210C200DF011FF0400A2
:109E500015D0687860700622A91CA01C0DF0ECFEDD
:109E6000386F00280DD0002E00D0B4600020A06014
:109E700005484030818D491C81850120F8BD0020B6
:109E8000F8BD3C67F2E70000046B002070B5074D99
:109E90002C6F03E02046A4680DF040FF002CF9D1A0
:109EA0000020024928674031888570BD046B00207E
:109EB000024900200867403188857047046B002004
:109EC00073B50A486D46046F0CE0694660784978BE
:109ED000884206D10622A91CA01C0DF09FFE012875
:109EE00003D0A468002CF0D100207CBD046B0020BE
:109EF00070B5314809210068C9018162826C07216F
:109F0000090703238A435B07D2188264836C0F22FC
:109F100012030324934364031B198364836CCC00F2
:109F200023438364C36C0C15A343C364436D802433
:109F300023434365C36B934322029A18C263C36BE6
:109F40000A119343A4041B19C363C36BDC000123F0
:109F5000E4089B07E418C463C46D0C43C465C56D75
:109F60000C122543C565C56D0E133543C565C56D1A
:109F70009543C565C56AA5435C122C19C462C46AC1
:109F8000944305221206A218C262C26A0324240363
:109F90002243C262C26A24012243C262026B1209D6
:109FA00012010263026BF024A2430263026B8A4334
:109FB000D118016370BD0000E0470020FFB53B48A9
:109FC0000068826D012109048A43826582680A4320
:109FD00082600025014680312B468C466E46C16862
:109FE000FF240134A143C160416822021143416052
:109FF000C1682143C1606146C968C905FBD500BF7E
:10A0000000BF00BF00BF6146C9680C074168240F4C
:10A01000914341600F2C01D06D1CEDB2002110E086
:10A02000725CA2420BD91A4605E0B718203FFF7FA9
:10A03000B754521ED2B28A42F7D1745403E0491C7D
:10A04000C9B29942ECD3994200D17454032D05D082
:10A050005B1CDBB2102BC2D3002D1ED03178082937
:10A0600002D93246C91E0DE0042902D93246891EA2
:10A0700008E0012902D93246491E03E0002902D135
:10A08000032132461170816D0F22D2019143327843
:10A090001207520D11438165FFBD826D0F21C90169
:10A0A0008A430521C9015118F5E70000E047002067
:10A0B00010B51A480068016D01231B04994301651E
:10A0C00081685C0121438160C26810210A43C2603B
:10A0D000C2688A43C26000BF00BF00BFC2680A43B3
:10A0E000C260416801221203114341600146803180
:10A0F000CA69D205FCD500BF00BF00BFC969026DA7
:10A10000C906C90E1A430265026D520952010A437B
:10A1100002658168A143816010BD0000E047002016
:10A12000F0B5FF4887B005686868FF2101318843B2
:10A130006860A86A09018843A862E86A1021884318
:10A14000E862A8684A031043A8606868084368602A
:10A150006868400840006860A86BF24A032110401C
:10A1600089034018A86368680123184368602C4677
:10A17000803420694001C10F20698001C00F00298F
:10A18000F7D00028F5D0206986066069B60EC003B6
:10A19000400E01906868400840006860A86BE721A5
:10A1A000104009024018A863686818436860206975
:10A1B0004001C10F20698001C00F0029F7D000289D
:10A1C000F5D020698006800E04906069C003400EBF
:10A1D00006906868400840006860A86BD321104072
:10A1E00009024018A8636868184368602069400144
:10A1F000C10F20698001C00F0029F7D00028F5D0D9
:10A2000020698006800E039060692721C003400EFC
:10A2100002900398301A06464843F7F787FF000775
:10A22000216A000F090909010843206226207043B2
:10A230002721F7F77BFF0007226A000EF0218A43EF
:10A2400010432062252070432721F7F76FFF000796
:10A25000226A000D0F2109028A4310432062242044
:10A2600070432721F7F762FF0007226A000C0F21D5
:10A2700009038A4310432062232070432721F7F704
:10A2800055FF0007226A000B0F2109048A4310437F
:10A290002062222070432721F7F748FF0007226A37
:10A2A000000A0F2109058A4310432062700130180B
:10A2B0002721F7F73BFF0007216A00090F273F0618
:10A2C000B9430843206270012721F7F72FFF216A65
:10A2D000000709010909084320627001801B27213A
:10A2E000F7F724FF0007616A000F09090901084315
:10A2F00060621E2070432721F7F718FF0007616A8C
:10A30000000EF0229143084360621D207043272114
:10A31000F7F70CFF0007616A000D3A1491430843F8
:10A3200060621C2070432721F7F700FF0007616A75
:10A33000000C3A139143084360621B2070432721AD
:10A34000F7F7F4FE0007616A000B3A1291430843E5
:10A35000606230461A2148432721F7F7E7FE0007DD
:10A36000616A000A3A11914308436062304619213C
:10A3700048432721F7F7DAFE0007616A0009B9436D
:10A38000084360623046182148432721F7F7CEFE84
:10A39000616A000709010909084360623046172114
:10A3A00048432721F7F7C2FE0007A16A000F0909F9
:10A3B00009010843A062162070432721F7F7B6FE73
:10A3C0000007A16A000EF02291430843A062152005
:10A3D00070432721F7F7AAFE0007A16A000D3A147F
:10A3E00091430843A062142070432721F7F79EFE93
:10A3F0000007A16A000C3A1391430843A06213209E
:10A4000070432721F7F792FE0007A16A000B3A126A
:10A4100091430843A062122070432721F7F786FE7C
:10A420000007A16A000A3A1191430843A062300173
:10A4300030182721F7F77AFE0007A16A0009B9430F
:10A440000843A06230012721F7F770FEA16A0007D8
:10A45000090109090843A0623001801B2721F7F791
:10A4600065FE0007E16A000F090909010843E0627F
:10A4700030460E2148432721F7F758FE0007E26ACD
:10A48000000EF0218A431043E06230460D2148431C
:10A490002721F7F74BFE0007E26A000D39148A43C3
:10A4A0001043E06230460C2148432721F7F73EFE77
:10A4B0000007E26A000C39138A431043E062304619
:10A4C0000B2148432721F7F731FE0007E26A000B12
:10A4D00039128A431043E06230460A21484327215B
:10A4E000F7F724FE0007E26A000A39118A43104395
:10A4F000E062F00030182721F7F718FE0007E16A44
:10A5000000093A4691430843E062F0002721F7F73B
:10A510000DFEE16A0007090109090843E06203E052
:10A52000E0470020FF00FEFFF000801B2721F7F727
:10A53000FDFD0007216B000F090909010843206395
:10A540003046062148432721F7F7F0FD0007010EAA
:10A55000206BF022904301432163B0003018272183
:10A56000F7F7E4FD0007226B000D39148A4310430E
:10A570002063B0002721F7F7D9FD0007226B000CFC
:10A5800039138A4310432063700030182721F7F7EE
:10A59000CDFD0007010B206B3A129043014321636C
:10A5A00070002721F7F7C2FD0007226B010A38115E
:10A5B00082431143216330462721F7F7B7FD000797
:10A5C000226B000939468A4310432063206B000147
:10A5D0000009206304990398471A28213846F7F7A1
:10A5E000A5FD0007616B000F0909090108436063BD
:10A5F00078002821F7F79AFD0007616B000EF02222
:10A60000914308436063780038182821F7F78EFDDE
:10A610000007616B000D0F22120291430843606333
:10A62000B8002821F7F782FD0007616B000C0F22AC
:10A630001203914308436063B80038182821F7F7E4
:10A6400075FD0007616B000B0F2212049143084354
:10A650006063062078432821F7F768FD0007616BE7
:10A66000000A0F221205914308436063F800C01BE3
:10A670002821F7F75BFD0007626B00090F2109062F
:10A680008A4310436063F8002821F7F74FFD616BA0
:10A6900000070901090908436063F80038182821F8
:10A6A000F7F744FD0007A16B000F090909010843F2
:10A6B000A06338460A2148432821F7F737FD0007F1
:10A6C000A26B000EF0218A431043A06338460B2191
:10A6D00048432821F7F72AFD0007A26B010D0F2040
:10A6E000000282431143A16338460C2148432821CC
:10A6F000F7F71CFD0007A26B010C0F20000382433B
:10A700001143A16338460D2148432821F7F70EFD78
:10A710000007A26B000B0F2109048A431043A063BA
:10A7200038460E2148432821F7F700FD0007A26BA9
:10A73000010A0F20000582431143A1633801C01BA9
:10A740002821F7F7F3FC0007A26B00090F21090687
:10A750008A431043A06338012821F7F7E7FCA16B77
:10A760000007090109090843A063380138182821A6
:10A77000F7F7DCFC0007E16B000F0909090108434A
:10A78000E0633846122148432821F7F7CFFC000741
:10A79000E26B000EF0218A431043E0633846132138
:10A7A00048432821F7F7C2FC0007E26B000D0F2198
:10A7B00009028A431043E0633846142148432821A4
:10A7C000F7F7B4FC0007E26B010C0F200003824393
:10A7D0001143E1633846152148432821F7F7A6FCC9
:10A7E0000007E26B010B0F20000482431143E16379
:10A7F0003846162148432821F7F798FC0007E26BFA
:10A80000000A0F2109058A431043E06338461721E7
:10A8100048432821F7F78AFC0007E26B00090F2163
:10A8200009068A431043E06338461821484328212B
:10A83000F7F77CFCE16B0007090109090843E063B5
:10A840003846192148432821F7F770FC0007216C8E
:10A85000000F090909010843206438461A214843BA
:10A860002821F7F763FC0007226C000EF0218A43D1
:10A870001043206438461B2148432821F7F756FC33
:10A880000007226C000D0F2109028A431043206447
:10A8900038461C2148432821F7F748FC0007226C62
:10A8A000000C0F2109038A431043206438461D2100
:10A8B00048432821F7F73AFC0007226C000B0F21D0
:10A8C00009048A431043206438461E214843282146
:10A8D000F7F72CFC0007226C000A0F2109058A43B8
:10A8E000104320647801C01B2821F7F71FFC0007E4
:10A8F000226C00090F2109068A4310432064780165
:10A900002821F7F713FC216C000709010909084306
:10A910002064780138182821F7F708FC0007616CDB
:10A92000000F0909090108436064384622214843A1
:10A930002821F7F7FBFB0007010E606CF022904323
:10A94000014361643846232148432821F7F7EEFB91
:10A950000007626C010D0F20000282431143616405
:10A960003846242148432821F7F7E0FB0007626CB2
:10A97000000C0F2109038A431043606438462521E7
:10A9800048432821F7F7D2FB0007626C000B0F2128
:10A9900009048A431043606438462621484328212D
:10A9A000F7F7C4FB0007626C010A0F200005824321
:10A9B000114361643846272148432821F7F7B6FB45
:10A9C0000007626C00090F2109068A431043606486
:10A9D000384628214843F7F7A9FB616C00070901B5
:10A9E0000909084360643846292148432821F7F7BC
:10A9F0009DFB0007A16C000F090909010843A06431
:10AA000038462A2148432821F7F790FB0007A26C1B
:10AA1000000EF0218A431043A064069A029839463A
:10AA2000801A0A2200905043F7F780FB0821084360
:10AA30000007A16C000D0F22120291430143A16493
:10AA400000983946C2008018F7F770FB08210843C8
:10AA50000007A16C000C0F22120391430143A16473
:10AA600000983946C000F7F761FB0821084300074A
:10AA7000A16C000B0F22120491430143A1640098C2
:10AA80003946C200101AF7F751FB082108430007A6
:10AA9000A16C000A0F22120591430143A1640098A2
:10AAA000062239465043F7F741FB082108430007C7
:10AAB000A16C00090F22120691430143A164009882
:10AAC000394682008018F7F731FB08210843A16C52
:10AAD0000007090109090143A16400983946800073
:10AAE000F7F724FB082108430007E16C000F090970
:10AAF00009010143E1640098394642008018F7F7E4
:10AB000015FB082108430007E16C000EF022914379
:10AB10000143E164009839464000F7F707FB08213C
:10AB200008430007E16C000D0F221202914301431C
:10AB3000E16439460098F7F7F9FA0821084300075D
:10AB4000E16C000C0F22120391430143E164314692
:10AB50000020F7F7EBFA0007E16C000B0F2212045C
:10AB600091430143E164029A01983146871A3846BD
:10AB7000F7F7DCFA0007E16C000A0F221205914397
:10AB80000143E16431467800F7F7D0FA0007E16C41
:10AB900000090F22120691430143E1647800314617
:10ABA0003818F7F7C3FAE16C0007090109090143F6
:10ABB000E1643146B800F7F7B9FA0007216D000FDC
:10ABC0000909090101432165B80031463818F7F732
:10ABD000ADFA0007216D000EF0229143014321657B
:10ABE000062031467843F7F7A1FA0007216D000DE2
:10ABF0000F221202914301432165F8003146C01B28
:10AC0000F7F794FA0007216D000C0F22120391430D
:10AC1000014321653146F800F7F788FA0007216DF6
:10AC2000000B0F221204914301432165F8003146C5
:10AC30003818F7F77BFA0007216D000A0F2212057A
:10AC40009143014321650A2031467843F7F76EFAB4
:10AC50000007216D00090F2212069143014321656F
:10AC60006968102081436960696849084900696022
:10AC7000A96A02021143A962E96A0143E962A86B69
:10AC80008109039889010143A963A86B7F21090603
:10AC90008843029909060843A86307B0F0BD000085
:10ACA000034800684168FF22013211434160704748
:10ACB000E047002008B50448816B0091816B009A41
:10ACC0009142F9D1104608BD0010004038B5164831
:10ACD000816B0091816B009A9142F9D1134C10461F
:10ACE000217DC90705D0124900F0BAFC8A04810B06
:10ACF00004E0192100F0B4FCCA05410A11430D4AD1
:10AD0000906988420DD0884201D2081A07E0237D5D
:10AD1000DB0701D0084B00E0084B181A401891617E
:10AD200038BD002038BD000000100040EC68002055
:10AD3000330300002069002000796F0800603D089F
:10AD4000002908D0002A02D105E008C808C2491E1F
:10AD5000FBD200207047FD20704738B50D46040037
:10AD600019D0002D17D0032168460BF059FB694616
:10AD7000887840218006800E0843694688702A46FC
:10AD800020460CF074F9040006D103226946E81C41
:10AD90000CF052FF00E00224204638BDF7B58CB01D
:10ADA0000C9815460F46002831D0002D2FD0381DA5
:10ADB0000A9080B253210CF05BFF04003BD002F0FC
:10ADC000ADF806463A46201D0C990DF0F1F8F0B2A8
:10ADD0000990E0703004000E0890A0703002000E60
:10ADE00007906070370E277002F092F8014610222B
:10ADF00001A80DF0DDF8082000900A9805AB82B29A
:10AE0000214601A80CF0A0F8060002D00FE00226AF
:10AE100012E009982870089868700798A870EF7079
:10AE2000082205A9281D0DF0C3F802F07DF8204680
:10AE30000CF074FF00E0132630460FB0F0BD0000A8
:10AE400010B5024600F01EF8044806218270104634
:10AE5000FCF7E6F9024806F01BFC10BDEE470020A7
:10AE6000CD65010005480649C078000702D50846AF
:10AE70000C3000E00020486000207047EE470020C2
:10AE8000404800200A49002008604860886008485F
:10AE900008490C300160084941600849816008494F
:10AEA0000C3001600749416007498160704700002C
:10AEB000404800206F7401006D64010039B000004B
:10AEC00007790100096B01008969010070B5064628
:10AED0000D46084606F08AFA00280ED0446B002C76
:10AEE00006D0E078022805D0032803D0042801D03A
:10AEF000122070BDA088A84201D0022070BD10228F
:10AF00003146E01D0CF098FE20462C3010210546FD
:10AF10000BF086FA23461C332A46E11D20460CF02E
:10AF2000D3F8207802210028607803D0032807D1C5
:10AF3000617009E0042802D0032803D000E06170AA
:10AF4000002070BD0520607020460BF03DFA70BDFA
:10AF5000F8B50D46080417D51B4EB0780CF0A8FFC5
:10AF6000040009D00BF0CCFC002809D17078FF2830
:10AF700006D021460CF0D4FF0120C0036840F8BD84
:10AF800020460CF06DFFF7E7E8070127002804D002
:10AF90000BF02CFB28467840F8BD002D12D0012480
:10AFA0000CE03846A04086B2354205D030460BF062
:10AFB000BDFF28467040F8BD641CE4B206F02EFBCD
:10AFC000A042EED80020F8BDEE4700207CB50D462B
:10AFD000040015D0002D13D00322E91C68460CF0A4
:10AFE0002BFE6946887840218006800E084369461A
:10AFF000887001AA20460CF03AF8040002D009E05B
:10B00000022407E00322294601A80CF007FE0128CC
:10B0100000D0012420467CBD05480649C078400781
:10B0200002D50846183000E00020886000207047F4
:10B03000EE47002040480020FFB50F4683B01E4673
:10B040001446532110200CF013FE050029D0002FC8
:10B0500022D069460C72200A48721022002128462C
:10B060000CF0E2FE394628460C9A0CF0E5FD002E65
:10B0700005D00822314668460CF0DEFD04E00822C7
:10B08000002168460CF0D0FE2B4602AA69460398C0
:10B09000FBF73EFC044600E0022428460CF03EFE8E
:10B0A00000E01324204607B0F0BDFFB581B01F4675
:10B0B000039806F09BF9060005D0706B0025002868
:10B0C00004D011253AE0022005B0F0BD1320F9F7B5
:10B0D000C3FFC4B21420F9F7BFFFC1B2002F2CD0B8
:10B0E000387EA04229D3884227D8532170200CF003
:10B0F000BFFD0446706320001DD0702200210CF0BB
:10B1000093FE00206070019921700299A17003994B
:10B11000A180E765A061E0700198002803D0204677
:10B120000BF064F9054601206070002D06D0304612
:10B130000BF022F902E0132500E002252846C3E7C0
:10B14000FFB587B00998109D0E4600281FD0002D2E
:10B150001DD0079806F04AF904001BD05321102097
:10B160000CF086FD019000285FD0697828780902EC
:10B170004018A978EA78090412068918411806913E
:10B18000A06A884208D3401C06D0022449E002206D
:10B190000BB0F0BD1420FBE7002E02D02079800711
:10B1A0003ED50822002102A80CF03EFE0A9F532142
:10B1B0003F1DB8B20CF05CFD06002FD0301D0A9A7E
:10B1C00009990CF0F5FE0422294630460CF0F0FEF9
:10B1D00021461022183101980CF0EAFE0820009058
:10B1E000BAB202AB314601980BF0AEFE04000CD1AE
:10B1F000082202A904A80CF0DBFE0822291D04A8DD
:10B200000CF00CFD012804D0012430460CF086FD22
:10B2100007E00699079802F075FFF6E7132400E0AF
:10B22000012401980CF07AFD00E013242046AFE7DA
:10B2300070B50C46014620040AD508460CF038FECD
:10B24000002801D00CF00CFE0120C003604070BD4E
:10B250006004FCD0002632462046D040C00713D000
:10B26000002901D00F2000E000200B498018496818
:10B27000C00045180120904086B229686868884758
:10B2800000202860686003E0521CD2B20F2AE3D38A
:10B290002046704070BD00009445002070B50CF051
:10B2A00093FD1C2200211E480CF0BEFD1C482022EC
:10B2B000002150300CF0B8FD1A4D00202861686163
:10B2C0001748174C1C30007F50348107890F8008C5
:10B2D0000818410040180D30C0B2A0700621484344
:10B2E000FF210231F0300CF0C3FC6860F030A86040
:10B2F000A17889000818E8600CF0D4FD0CF098FEE5
:10B300006078094A8100A86842506178491CC9B236
:10B310006170890042506078401C607070BD000010
:10B32000D06800209445002031B2000010B50849D3
:10B33000024648788B78984207D2064C8300A4686E
:10B34000E2504A78521C4A7010BDFF2010BD000028
:10B350002069002094450020072902D2014A890073
:10B3600050507047D0680020FEB5864D02E08047FF
:10B3700000F0E0FE28680028F9D10124A000285838
:10B38000002807D080477F481C30407D002801D02E
:10B39000F8F744F82868002875D1641CE4B2072C3B
:10B3A000ECD3784C784E50346278F06821784B00BA
:10B3B000C35A002B04D1491CC9B221709142F5D364
:10B3C000C9B2914211D24A00815A00238352207897
:10B3D000B36882009A5890472178F2684900535A1E
:10B3E000034353522078401C2070207861788842B3
:10B3F00001D30020207063480068002843D17069A1
:10B40000002840D0804700283DD0616905460918D2
:10B4100061610021C9435C4821610669002E29D081
:10B420000027B068A84201D8002000E0401BB060AF
:10B4300054481C30406A002804D02169B068814219
:10B4400000D92061B06800280DD1718800291BD077
:10B4500030780CF0B7FD7068002801D0B06002E0D1
:10B46000B068002810D0708800280DD03746F668E4
:10B47000002ED6D1434D1C35686A002803D0002029
:10B48000414A617814E07CE0002F06D0F068F86053
:10B490003046F6680CF042FCEAE73B48F16801618F
:10B4A000F6E7D6684300F35A002B6AD1401CC0B2BD
:10B4B0008142F6D83349032082008A58002A60D19D
:10B4C000401CC0B20728F7D301A8FCF711FE0246C2
:10B4D0002E49401C24D0EB7C019EB34251D22069FE
:10B4E000471C16D02A7DD20702D01422504302E016
:10B4F000292250434008834243D2864200D230463C
:10B50000C61A2348826B0092826B009B9A42F9D143
:10B510001DE09A4201D3D01A1FE0D01A40181CE057
:10B520002069421C2DD02A7DD20702D0142250431C
:10B5300002E0292250434008EA7C824221D2861A46
:10B540001348826B0092826B009B9A42F9D1981942
:10B55000884202D30D4A52428018002802D0696AFC
:10B56000884702E06A6A084690470006000E08D144
:10B570002089002805D0F8F7F1F8FBF7BDFEF7F7B2
:10B5800055FEFEBDD0680020944500200000C0A8F4
:10B590000010004010B504460848C16A002900D0D8
:10B5A00088470748002C01D0046001E0054901608C
:10B5B000054800F00BF8002010BD0000EC680020EA
:10B5C000B0450020B5AC0000CDAC000010B503497B
:10B5D000486180470249886110BD00009445002001
:10B5E00020690020F0B5144EFD23757A842474720E
:10B5F000124CA768002F07D0A77B002F04D0A48986
:10B60000E71FFF3FFA3F02D07572FF20F0BD7D2497
:10B61000E402A0420AD34027491E07D3706008CA3B
:10B6200033609A233372B37A7B4002D07572184626
:10B63000F0BD001DF0E7000000180040EC6800209D
:10B640000FB410B503A9044B044A029800F03CF86B
:10B6500010BC08BC04B01847711C00006C480020E6
:10B66000F8B5040C8BB2264682B25E430D0C104630
:10B67000370C5843360480190021794116466E4331
:10B68000370C36048019794126466E438919F8BD76
:10B6900030B47446641E2578641CAB4200D21D464B
:10B6A000635D5B00E31830BC184702E008C8121F56
:10B6B00008C1002AFAD170477047002001E001C19B
:10B6C000121F002AFBD17047FFB58FB00F4604460A
:10B6D000002606E025280AD0129A11999047641C8A
:10B6E000761C20780028F5D1304613B0F0BD002537
:10B6F0000121A14A009500E00543641C2378084617
:10B70000203B98401042F7D120782E2815D10420F4
:10B7100005436078641C2A280AD101CF641C00907C
:10B720000BE000990A22514330394018641C009004
:10B730002078014630390929F3D920786C280ED0B9
:10B7400004DC4C2813D06A2812D104E074280ED0EF
:10B750007A280DD10BE001204005054307E00121C7
:10B76000090562780D43824201D16D18641C641C86
:10B770002078864669284AD008DC0028B4D05828AA
:10B780006DD0632810D0642808D140E070286BD0B9
:10B79000732812D0752860D0782860D0129A70462D
:10B7A00011999047761CE5E03878694608720020C8
:10B7B000487202A80190012003E03868019000203F
:10B7C000C0433F1D69070CD5002500E06D1C0099A2
:10B7D0008D420FDA8542F9DB0199495D0029F5D1E7
:10B7E00008E0002500E06D1C8542FCDB0199495D05
:10B7F0000029F8D1761907E0019801990078491CD1
:10B800000191129A119990476D1EF5D2B2E00A206B
:10B81000029000216802400F039102280CD001CF52
:10B82000C117844600290DDA6246084652420021BB
:10B83000814194462D2008E0FF1DFF08FF0003CF43
:10B840008446EFE7280504D52B206A4610740120B2
:10B850003CE0E8073AD02020F7E70A2000E010207B
:10B8600000210391029007E01020029000210420A3
:10B8700005430820039100906802400F022810D071
:10B8800001CF0021844600200D9028071FD5704667
:10B8900070280CD0029A1020039B42401A430CD00F
:10B8A00015E0FF1DFF08FF0003CF8446EBE74020B3
:10B8B0006A46107401200D900CE06046084306D0E3
:10B8C00030206A4610747046507402200D90704605
:10B8D000582804D029A001900DA80E900DE02CA0AE
:10B8E000F9E76046039B029AF6F793FC019B8446B6
:10B8F0009B5C0E9A521E0E92137060460843F0D164
:10B900000E9805A9081A20300190680701D5009803
:10B9100001E0012000900199884203DD0146019871
:10B92000081A00E000200025009006E004A8129A02
:10B93000405D119990476D1C761C0D988542F5DB92
:10B9400004E0129A302011999047761C0099481E05
:10B9500000900029F5DC08E00E980E990078491C4B
:10B960000E91129A11999047761C0199481E0190E8
:10B970000029F1DC641CB4E60928010030313233BF
:10B98000343536373839616263646566000000001B
:10B990003031323334353637383941424344454605
:10B9A00000000000FFB583B00C9C1646002C01D0AF
:10B9B000002708E001270398F7F76EF90421FBF749
:10B9C0008BFC040014D0267004980125002805D0B3
:10B9D000049A601C06999047401C85B2300614D525
:10B9E0001021039805F088FE002804D0192616E0DF
:10B9F000132007B0F0BD621929462046FFF7CEF9A3
:10BA00000C350646ADB2002809D1042069460880ED
:10BA100001944D800398FBF719FC0600E9D0002F34
:10BA200002D020460CF07AF93046E2E7F8B5074636
:10BA3000069800901E4614463846FFF7B3FF0500EF
:10BA40000BD107480268002A07D0012C02D13078B8
:10BA5000401CC4B22146384690472846F8BD000035
:10BA6000F847002030B5437803245B1D2343C45CB2
:10BA7000E50601D5012030BD002903D0210601D5FE
:10BA8000022030BD002A03D0C1182039C97F1170AF
:10BA9000C1182039487F897F4907490D0843044967
:10BAA000420502D51F22D20210430880002030BD7B
:10BAB000B845002070B50D4604460CF05DFA2D1B0C
:10BAC00002460023E9172846F6F744FB081980B21E
:10BAD00070BD70B50D4604460CF04EFA00232D1BC8
:10BAE000024628461946F6F735FB081970BD70B5B1
:10BAF0000D4604460CF040FA2D1B02460023E917C0
:10BB00002846F6F727FB0819C0B270BDF0B5364ECF
:10BB10009446326813689B0713D0136DDB08DB0073
:10BB20001365136808242343136013681B0703D5A8
:10BB300000BF00BF00BF00BF136DDB08DB005B1C54
:10BB400013652A4F3B68DC6A0722120594430122E1
:10BB50005205A218DA62DD6A072424060522A543ED
:10BB60001206AA18DA62224A1368DA6A9208920068
:10BB7000921CDA621D680122120715431D601A68C3
:10BB80006546D209D2016D066D0E2A431A6098608F
:10BB900018615960D96030684168012319434160D8
:10BBA0003968144D00200A4680322D890EE017694D
:10BBB000FF0108D5C86A072212051043C862C86A87
:10BBC000A043C86204E000BF00BF401C8542EEDC19
:10BBD00009484068002804D0C1680A6840690243E7
:10BBE0000A6030680360F0BDB4450020E0470020E3
:10BBF000D847002020690020B845002010B5144A1D
:10BC0000592113681965134909680B684024DB0939
:10BC10002043DB014006400E03430B600E480861E1
:10BC20000E48C8600E4900204870106841684908F5
:10BC3000490041600B484068002804D0C1680B6887
:10BC4000406903430B6011680120086010BD0000CB
:10BC5000B4450020D847002029417671555555003C
:10BC600040690020B845002010B5144800680168FC
:10BC700089070ED0016DC908C90001650168082255
:10BC8000114301600168090703D500BF00BF00BF71
:10BC900000BF002202650A4B586800280AD041689C
:10BCA0000C68806804430C60586801690B6840693F
:10BCB00003430B600348C27110BD0000B44500206F
:10BCC000B845002040690020FFB5804C064620683A
:10BCD0000D46016881B0174689071AD0016DC90861
:10BCE000C900016501680823194301607848407D57
:10BCF000002801D0F7F792FB20680168090703D5F7
:10BD000000BF00BF00BF00BF016DC908C900891C8A
:10BD10000165704A1068C16A07231B059943012316
:10BD20005B05C918C162C16A07231B069943052335
:10BD30001B06C918C1626848006801687B06C9090A
:10BD4000C9015B0E19430160866006614560C560EC
:10BD5000C16A89088900C162016801231B079943F0
:10BD600001605E4D2B6898680499400B40030843BE
:10BD70009860564800684168012421434160584852
:10BD80008178A14381701168564E00200C468034A2
:10BD900032890FE02669F60109D5CC6A07263605F7
:10BDA0003443CC62CC6A3601B443CC620AE000BFB3
:10BDB00000BF401C8242EDD804E000BF00BF00BFBE
:10BDC00000BF401C8242F8D89868474BC004C00CA2
:10BDD0003A2805D91F6830204349C04380310860A4
:10BDE00042484068002804D001680A68806802431D
:10BDF0000A60364802210068016028688068C00433
:10BE0000C00C3A2860D900BF00BF00BF00BF00BF10
:10BE100000BF00BF00BF00BF00BF00BF00BF00BF2A
:10BE200000BF00BF00BF00BF00BF00BF00BF00BF1A
:10BE300000BF00BF00BF00BF00BF00BF00BF00BF0A
:10BE400000BF00BF00BF00BF00BF00BF00BF00BFFA
:10BE500000BF00BF00BF00BF00BF00BF00BF00BFEA
:10BE600000BF00BF00BF00BF00BF00BF00BF00BFDA
:10BE700000BF00BF00BF00BF00BF00BF00BF00BFCA
:10BE800000BF00BF00BF00BF00BF00BF00BF00BFBA
:10BE900000BF00BF00BF00BF00BF00BF00BF00BFAA
:10BEA00000BF00BF00BF00BF00BF00BF00BF00BF9A
:10BEB00000BF00BF00BF00BF00BF00BF00BF00BF8A
:10BEC00000BF00BF00BF1F6005B0F0BDB44500203B
:10BED000EC680020E0470020D8470020DC47002025
:10BEE000406900202069002000E100E0B845002002
:10BEF00010B51D4909688A68520B520302438A60D3
:10BF00003A282ED9194A1168194883689B029B0E5A
:10BF10003E2BFAD083681B0CDB439B060CD0836856
:10BF20009B029B0E332B03D283681B0C9B06ECD128
:10BF3000FFF79AFE002010BD30230C4CDB43803409
:10BF4000236083681B0CDB439B06FAD083689B024B
:10BF50009B0E302B04D383689B029B0E332BF0D3B4
:10BF60001160012010BD0000DC47002000E100E06E
:10BF700000C20040F0B5614E0446306817460068C4
:10BF80000D46800701D0FFF76FFE31685A20086523
:10BF90005B49002D0868026809D04023D2091C4380
:10BFA000D20163065B0E1A430260564A07E0D209CB
:10BFB000D20163065B0E1A430260524AD24382608A
:10BFC000096851484860514A11688868400B40032D
:10BFD000384388604E4B0020D870306843685B0857
:10BFE0005B0043604B4B00201B8904E000BF00BF97
:10BFF00000BF00BF401C8342F8D88868464BC0048D
:10C00000C00C3A2805D91D6830204349C04380310F
:10C01000086042484068002804D001680C688068C5
:10C0200004430C6031680220086010688068C00416
:10C03000C00C3A2860D900BF00BF00BF00BF00BFDE
:10C0400000BF00BF00BF00BF00BF00BF00BF00BFF8
:10C0500000BF00BF00BF00BF00BF00BF00BF00BFE8
:10C0600000BF00BF00BF00BF00BF00BF00BF00BFD8
:10C0700000BF00BF00BF00BF00BF00BF00BF00BFC8
:10C0800000BF00BF00BF00BF00BF00BF00BF00BFB8
:10C0900000BF00BF00BF00BF00BF00BF00BF00BFA8
:10C0A00000BF00BF00BF00BF00BF00BF00BF00BF98
:10C0B00000BF00BF00BF00BF00BF00BF00BF00BF88
:10C0C00000BF00BF00BF00BF00BF00BF00BF00BF78
:10C0D00000BF00BF00BF00BF00BF00BF00BF00BF68
:10C0E00000BF00BF00BF00BF00BF00BF00BF00BF58
:10C0F00000BF00BF00BF1D60F0BD0000B4450020C0
:10C10000D84700202941767155555500DC4700205D
:10C11000406900202069002000E100E0B8450020CF
:10C120000249C860024980200871704720690020D8
:10C130004069002008B51148407D002801D0F7F77C
:10C140006DF90F4B1879000612D50E48816B0091DE
:10C15000816B009A9142F9D10B491046C9680122BE
:10C16000814202D8401A02D502E0081A00D51A719D
:10C1700006488069002800D0804708BDEC68002090
:10C18000406900200010004020690020D068002095
:10C1900010B50C4605F042F9002804D0408821462D
:10C1A000FAF7DBFA10BD122010BD002917D00028C5
:10C1B00015D0012804D0022805D0032807D00CE0B0
:10C1C0004879C02207E048798006800E04E048796B
:10C1D0008006800E402210434871012070470020E5
:10C1E0007047000010B5054C606B002803D00BF0C1
:10C1F00037FE00206063207E607610BD2847002057
:10C20000F0B54D4D0746686B87B00E4600281CD12F
:10C21000002F7DD0002E7BD0384600F04FFA687694
:10C22000297E884211D300240AE0E96B20014018DE
:10C230000622FF210BF0E3FC002805D1641CE4B2C8
:10C24000287E8442F1D3C4B26C76687E297E88420F
:10C2500070D2696B00290DD08A680024002A27D08B
:10C26000062148432130C0B21C210BF05FFF686BF0
:10C27000846050E0062148432030C0B23A46102185
:10C280000BF054FF1822FF2168460BF0CDFD687EAD
:10C290006A467030C0B218210BF048FF687EE96B27
:10C2A00000014018102239460BF0C6FC6E6332E0E4
:10C2B0000A69002A09D0062148432230C0B21C2155
:10C2C0000BF034FF686B046125E04A69002A09D04D
:10C2D000062148432330C0B210210BF027FF686BC2
:10C2E000446118E0CA68002A18D006214843243067
:10C2F000C0B210210BF01AFF686B0621C268687E7D
:10C30000103248432530C0B204210BF00FFF00E08B
:10C3100010E0686BC460002007B0F0BD687C0028A6
:10C3200001D000F083FBA87C002801D000F046FB80
:10C3300000F0E6FB0120EFE728470020F7B588B0C2
:10C3400004462022002168460BF06EFD6A461480E8
:10C350005B480425817B1177FF2101310A9E4A0049
:10C360008B000224002E50D087786E463771C77834
:10C370007771069E4079BC467608C7077600FF0FA6
:10C380003E4306968607069E01D5264300E0A64357
:10C390000696C6064A4F069E01D50E4300E08E4320
:10C3A0000696810606993E4601D5114300E0914369
:10C3B00006914106069901D5194300E099434007CB
:10C3C0000691084601D5284300E0A8430690604640
:10C3D000002805D001A810223A4902300BF02CFCAD
:10C3E0003179002905D00998002802D00698204309
:10C3F00006906846807D002900D0012108436946E7
:10C400008875717850E0042150E0077A6E463771E4
:10C41000477A7771069EC07ABC467608C7077600D1
:10C42000FF0F3E4306968607069E01D5264300E091
:10C43000A6430696C606224F069E01D50E4300E08F
:10C440008E430696810606993E4601D5114300E0CB
:10C45000914306914106069901D5194300E099439D
:10C4600040070691084601D5284300E0A8430690FE
:10C470006046002806D0134901A81022103102306E
:10C480000BF0DAFBB17A002905D00998002802D018
:10C490000698204306906846807D002900D001213F
:10C4A000084369468875F1790029ACD1084369468B
:10C4B000887568460A99F8F785FB0BB0F0BD000057
:10C4C000284700202C6A0020F0B5064687B00620D9
:10C4D00041430C9D1446082B1BD02131CFB21C22A6
:10C4E000002168460BF0A0FC6A461C2138460BF080
:10C4F000D9FD00280BD16846807EC01F092806D8C8
:10C50000E107C90F2B466A463046F8F7AFFB07B084
:10C51000F0BD2231E2E7000070B500252C460A4E3E
:10C520000CE0F16B200140180622FF210BF067FBA5
:10C53000002801D16D1CEDB2641CE4B2307E84424F
:10C54000EFD3284670BD0000284700207FB50D4678
:10C5500006214843044616462034E0B26A461021BC
:10C560000BF0A0FD002806D10622FF2168460BF043
:10C5700046FB002802D0002004B070BD68468089C8
:10C58000002EC3B202D02B43DBB200E0AB43984293
:10C590000AD068468381E0B26A4610210BF0C6FDDE
:10C5A0000248007D0BF05EFD0120E5E728470020F2
:10C5B00070B500200446064D04E0204600F00AF85D
:10C5C000641CE4B2297E8C4201D20028F5D070BDF3
:10C5D00028470020F0B5384E0546707E91B0854260
:10C5E00009D10121F07D0BF0EFFA0221F07D0BF073
:10C5F000EBFAFFF7F7FD2C46062044432746203789
:10C60000F8B207AA10210BF04DFD002806D1062232
:10C61000FF2107A80BF0F3FA002803D000252846D5
:10C6200011B0F0BD1022FF2107A80BF0FDFB1C226A
:10C63000FF2168460BF0F8FB1822FF210BA80BF036
:10C64000F3FBF8B207AA10210BF070FD0746204655
:10C650002130C0B26A461C210BF068FD074320461A
:10C660002230C0B26A461C210BF060FD0743204611
:10C670002330C0B26A4610210BF058FD0743204614
:10C680002430C0B26A4610210BF050FD0743253418
:10C69000E0B26A4604210BF049FD044670353C4384
:10C6A000E8B20BAA18210BF041FD20430546307D6E
:10C6B0000BF0D8FCB3E700002847002070B5064611
:10C6C00000240A4D0CE0E96B200140180622314697
:10C6D0000BF0A4FA002801D0204670BD641CE4B21F
:10C6E000287E8442EFD3C0B270BD000028470020EE
:10C6F00000229300CB5A834202D190004018704729
:10C70000521CD2B2062AF4D3002070477FB50D46E2
:10C710000D49097E88420CD2002D0AD006214843DB
:10C720002030C0B26A4610210BF0BCFC040003D0DC
:10C7300007E0022004B070BD0622694628460BF0CF
:10C740007BFA2046F6E70000284700201FB50621A7
:10C7500048432030C0B26A4610210BF0A3FC0028E9
:10C7600002D0002004B010BD68468089C0B2F9E74D
:10C7700000218A00835A491CDB43835212189378A4
:10C78000C9B2DB4393700629F3D3704770B5002418
:10C790001E4E1FE0F06B25012A1820460621484353
:10C7A0002030C0B210210BF07DFC002810D0F06BBF
:10C7B00006222818FF210BF037FBF06B0622281801
:10C7C000FF21801D0BF030FBF16B00206918888180
:10C7D000641CE4B2307E8442DCD3FFF79DFE317EE0
:10C7E0008842B07E02D10121084301E040084000A8
:10C7F000B076707C002801D000F018F9B07C0028D9
:10C8000001D000F0DBF800F07BF970BD2847002074
:10C8100010B503494088C97DF9F7C4F910BD00007F
:10C820002847002070B50E460546062148438AB0C9
:10C8300014462030C0B206AA10210BF033FC0028A9
:10C8400046D10622FF2106A80BF0D9F900283FD1D6
:10C850007035E8B26A4618210BF024FC002834D168
:10C860006846FFF785FF002E06D069463046FFF781
:10C870003FFF00280DD015E01822002168460BF07C
:10C88000BEF9002821D11822002168460BF0CCFA0D
:10C8900010E0002C1CD069460020FFF729FF00287B
:10C8A00016D006808178A1420FD08470002C01D16F
:10C8B0000021018007490120C8736846FFF758FF2F
:10C8C000E8B26A4618210BF031FC01200AB070BDB5
:10C8D0000020FBE72847002070B501780125B0292A
:10C8E00007D0B12913D0D02923D1F7F7D1F90546C4
:10C8F0001FE0044600791E2803D160880021F7F765
:10C900002DFB204621790830F9F7F8FD11E0017977
:10C9100000290ED1084C0026E6730289C1884088A0
:10C92000F7F718FDE07B002803D0E673207D0BF0BD
:10C9300099FB284670BD00002847002070B51C4CAC
:10C940000646A06B1B4D86B000280BD120461C303C
:10C9500000900223184A29460120F9F719FAA0632A
:10C96000002823D0FF2303930222002105A86B4651
:10C9700007C304ABA28B3046A16BF8F7A3FF0028D6
:10C9800008D16846028A002A04D0A06B418930464B
:10C99000F7F7E0FC0023A28B2946A06BF9F732FAE7
:10C9A000A063002802D0002006B070BD0120FBE784
:10C9B00028470020FFFF00001C850100F0B589B06A
:10C9C000F9F7F1FE0024184F26E0F86B2601301825
:10C9D0000622FF210BF013F900281BD1F86B301849
:10C9E0004079800902281CD00125204606214843B1
:10C9F0002330C0B26A4610210BF054FB04AA102168
:10CA000002200BF04FFBF86B04AB31186A46284646
:10CA1000F9F7B8FE641CE4B2387E8442D5D309B07D
:10CA2000F0BD0025E1E700002847002070B5F9F7C8
:10CA3000BEFE00240A4E0FE0F06B250128180622E6
:10CA4000FF210BF0DCF8002804D1F06B291800203E
:10CA5000F9F79CFE641CE4B2307E8442ECD370BDD6
:10CA60002847002070B514460D46064604F0BEFC6B
:10CA700000280DD0017B084808290AD0C06A002888
:10CA800006D04368002B03D02246294630469847FB
:10CA900070BD006BF3E7000028470020FFB581B0B0
:10CAA0001D4616460C46084604F0A0FC00280ED091
:10CAB000007B124A08280CD0D06A002817D00768DB
:10CAC000002F14D02B46324621460198B84705B0B6
:10CAD000F0BD106B002802D00768002FF2D121466C
:10CAE000506A06E001212046F8F756FDEFE721469F
:10CAF000106AF8F7A3FB0028F4D1E8E728470020E4
:10CB000008B5FFF709FD012801D9022000E00A203D
:10CB1000694608706A4601210520F9F7A1FD08BDA4
:10CB200010B50C4A0A4B1268994206D1002A0DD062
:10CB30001178814207D0032010BD0548401C814276
:10CB400004D1002A02D0F9F751FE10BD122010BD09
:10CB5000FEFF0000D845002030B587B0032817D06D
:10CB6000344A002590421BD1887800285CD0324995
:10CB70000B68002B58D005950295039504950095F8
:10CB80000195DA7819781B1D01F08CF901200CE071
:10CB9000488900908C880B89CA88C878214612E0A1
:10CBA000244A521C904203D1022000F049F93BE094
:10CBB000204A921D904209D18878002834D0002361
:10CBC0001A461946009501F09DF92DE0194A0C32DC
:10CBD000904229D0194A904229D148790C4612280E
:10CBE00022D1E389A28961892089F9F7BDFE002855
:10CBF00004D01720F8F730FA002800D00120694649
:10CC000008832179608806AAFAF7EEF96846008B56
:10CC1000002809D1E089019502950090A3896289D5
:10CC200021896088F9F7C7FD012007B030BD0020D9
:10CC3000FBE700000D200000D8450020FFFF0000AA
:10CC40000A4A10B5904202D18868007807E0074A86
:10CC5000521C904208D188680078002802D001F068
:10CC60002DFA10BD012010BD002010BD0B200000CA
:10CC700070B582780446002A06D0052A1FD0062AFD
:10CC800027D00C2A27D124E06078002823D1174828
:10CC9000007800280DD1164A102102200BF046FA28
:10CCA000144A102103200BF041FA134800780BF0CE
:10CCB000D9F90622E11C11480AF0BEFF0BE04178C9
:10CCC000002908D14289C0780823211DF6F726FEE5
:10CCD00001E0F6F7DDFF0A484068002804D041680B
:10CCE000002901D02046884770BD00008A470020F7
:10CCF0008B6A00209B6A00203C470020A24700204E
:10CD00007C47002070B50178912904D0D02901D149
:10CD1000FFF7AEFF70BD4178194D0E291CD03E299A
:10CD2000F8D1044680780728F4D1A08804F05EFB8F
:10CD30000028EFD0007B0828ECD168680028E9D0F3
:10CD40008368002BE6D06089001F82B2E088001F54
:10CD500081B2A088984770BD81880A4A9142FAD171
:10CD600082689078517800020843032151566A681E
:10CD7000002AF0D01268002AEDD0904770BD000064
:10CD80007C4700200514000000290ED000280CD09C
:10CD9000487980098001C02803D0402803D00220B0
:10CDA0007047012070470320704700207047FFB58F
:10CDB000002008701F2A1BD2904219D21C5C401C14
:10CDC000C5B2002C14D06619964211D85F5D384662
:10CDD00001F0BFF900280BD0641E0C700098874248
:10CDE00003D15819401C04B0F0BD761EF0B2E3E741
:10CDF0000020F8E710B5044C2068002803D00AF0A2
:10CE00008DFF0020206010BDD445002070B5846BDC
:10CE10000546002C13D0206A002801D00AF07EFFBE
:10CE2000606A002801D00AF079FFA06A002801D0CA
:10CE30000AF074FF20460AF071FF0020A86370BD5D
:10CE400010B5044CA069002803D00AF067FF002049
:10CE5000A06110BDC0450020F3B51E4E05467068A8
:10CE600081B0002824D0002418E070682701381809
:10CE70008068002805D00AF051FF716800207918F9
:10CE8000886070683818C068002805D00AF046FF2E
:10CE9000716800207918C860641CE4B2AC42E4D325
:10CEA00002980028706804D00AF038FF00207060F3
:10CEB000FEBD0028FCD02A0100210AF0B5FF0021A8
:10CEC000FF22706803E00B01491CC254C9B2A94299
:10CED000F9D3FEBD00480020002805D10448807821
:10CEE000002801D0034870470148183070470000FF
:10CEF00058690020DC450020014880787047000018
:10CF0000586900200148C068704700005869002037
:10CF100001480069704700005869002001484069D5
:10CF2000006870475869002010B5064A50690168CA
:10CF3000491C0160D078FF2803D0012189030BF040
:10CF400041F810BD5869002070B5064D064CE888C0
:10CF5000A04205D005490A780549FAF737F8EC8070
:10CF600070BD000058690020FFFF0000EE47002060
:10CF7000E2450020FFB581B00B9F0A9E0D9D0398EE
:10CF800004F034FA04007AD0019800282ED10498D5
:10CF90004007207902D51221084303E010210843FD
:10CFA000FD210840207130460C993843084328433E
:10CFB000207924D0042108432071002D07D028694E
:10CFC000A06220461022294618300AF035FE029849
:10CFD000002818D0002F09D0E06A002801D00AF0FC
:10CFE0009DFE1C2138460AF033FEE062A46B002C43
:10CFF00045D0002E1CD0206A00280ED014E0FB2162
:10D0000008402071F2E7002EF0D0E06A002801D03D
:10D010000AF084FE1C213046E5E747211C200AF077
:10D0200027FE2062002803D01C2231460AF004FEAD
:10D030000C9800280DD0606A002806D147211620E0
:10D040000AF016FE6062002803D016220C990AF03E
:10D05000F3FD002D0DD0A06A002806D14721142031
:10D060000AF006FEA062002803D0142229460AF026
:10D07000E3FD3B46049A0399019809F0A3F805B033
:10D08000F0BDF3B581B0019804F0B0F905002AD0E5
:10D090000E200AF0D1FE040025D01820F7F7DCFF9F
:10D0A0000606360E00D12E78D0202070002767703B
:10D0B0000B20A0700622A91DE01C0AF0BDFD0298FD
:10D0C000C1070120002901D0207300E027730199D6
:10D0D00061810299890701D5607300E06773214679
:10D0E00030460AF01DFFFEBDFEB501261F4D032888
:10D0F00009D01F4A904227D188780C2821D01128C6
:10D100001FD03046FEBDC8781A4F0C461A2803D1EE
:10D11000A088F988884214D0A08804F067F9002814
:10D1200001D0E188C181608900902389E288A188CB
:10D13000E07800F0E7FEA088F9888842E1D1FD8020
:10D14000DFE7FFF701FFDCE7A8420DD10C46497984
:10D1500000201229D6D1694688802179608801AAE9
:10D16000F9F728FF0120FEBD0020FEBDFFFF0000F3
:10D17000132000005869002070B581881F4A914231
:10D1800013D11F4980680968007800290BD0002856
:10D1900005D101204870F9F796FB002801D000F076
:10D1A000D7FE012070BD002070BD144AD21C9142F0
:10D1B0001AD8521E914201D1012400E00024806857
:10D1C000104E05783078FF28EBD004200AF034FEAA
:10D1D0000100E6D0D02008704D7002208870CC701D
:10D1E00030780AF09DFEDCE7044A121D9142DAD144
:10D1F0008068007800F0B8FF70BD000006200000D5
:10D20000D44500201448002070B502461B481C4C31
:10D2100001680026184D2078012A0BD0002908D07B
:10D22000E178490705D502210BF07CF86E80FFF705
:10D23000E1FD70BD6A88002A03D0124B1B79002BD8
:10D2400005D00029F5D00878F7F752FE70BD3C2ACA
:10D250000FD202210BF066F868880B4948430B494E
:10D26000F4F764FF0246207802210AF0FDFF6E8089
:10D2700070BD3C3A6A8070BD14480020D44500203F
:10D28000EE4700205869002040420F007102000064
:10D2900070B514460D4604F028FA0C49042809D04C
:10D2A0008868002810D04268002A0DD02146284600
:10D2B000904770BD0969002906D00B68002B03D088
:10D2C00021462846984770BD012070BDC04500200A
:10D2D000F0B587B004005AD02E48A179C6782E4FF9
:10D2E000002924D0F8680425002804D041680029CA
:10D2F00001D0002088472146E07908310691FFF7E8
:10D3000043FDE0718446237D628A218AE089029090
:10D3100003A80EC0A08801950090E07862463146CF
:10D32000069B00F0BFFDE078002806D016E0B86943
:10D3300008250028DFD00678DDE7628A218AE089A7
:10D340000290172303A80EC0069800900195E37978
:10D35000A1880122304603F0E5FFE070B86900289B
:10D3600002D00420FFF76CFD787800280FD03978C0
:10D37000FEF70EFF00280AD0E078312805D000958E
:10D38000A2880346797808F085FF0020787007B0FE
:10D39000F0BD000058690020C0450020F8B50446E3
:10D3A000FF26808804F022F8050009D02E782F7B14
:10D3B000FFF72CFD284608F0DFFFA08804F07AF97B
:10D3C000114D6878002808D0864206D12978FEF7EA
:10D3D000DFFE00280AD1687008E0FF2E06D0009713
:10D3E000A379A288A078314608F054FFA08804F001
:10D3F0007CF9042807D10548A188C288914202D14E
:10D400000021C943C180F8BDC045002058690020F3
:10D41000F0B587B004005BD02E48A179C6782E4FB6
:10D42000002925D0F8680425002804D04168002987
:10D4300001D0002088472146E07914310691FFF79A
:10D44000A3FCE071844620231B5DE28BA18B608BE3
:10D45000029003A80EC0A08801950090E078624673
:10D460003146069B00F01EFDE078002806D016E04D
:10D47000B86908250028DED00678DCE7E28BA18BAE
:10D48000608B0290172303A80EC0069800900195A8
:10D49000E379A1880122304603F044FFE070B869C7
:10D4A000002802D00420FFF7CBFC787800280FD0AA
:10D4B0003978FEF76DFE00280AD0E078312805D0D3
:10D4C0000095A2880346797808F0E4FE0020787081
:10D4D00007B0F0BD58690020C045002010B5094CC8
:10D4E000A278002A0CD00146062207480AF0A4FBC5
:10D4F000A0780549FEF759FE0348F9F7F3F910BD86
:10D50000002010BD58690020DC45002070B5164D84
:10D510000646E878FF2814D00A200AF08DFC0400A3
:10D520000FD0D020207066700820A070A878E0701E
:10D5300006220E49201D0AF07FFBE87821460AF0FA
:10D54000EFFC287901280ED108481C38C068002853
:10D5500003D08068002800D080470548054A00783D
:10D5600004210AF06FFE70BD58690020DC450020E0
:10D57000EE4700200077010010B586B0044603A9ED
:10D580001448F7F701F8134804A9401CF6F7FCFF0C
:10D590006846E388018A8B4203D8228980898242C7
:10D5A00005D2A0882021F9F774F906B010BD834296
:10D5B00000D2E0808A4200D92181A1890020019017
:10D5C0000091029063892289E188A088F9F765F9C2
:10D5D000EBE7000011030000F8B5070041D0F87830
:10D5E00000283DD07D68002D3AD01620F7F734FD95
:10D5F00040B20026009030E00F2169560098814229
:10D6000028DB1D488068002824D014200AF014FC70
:10D6100004001FD0D0202070002060701020A07067
:10D620002878E070E87BA074687820710622A91C35
:10D63000601D0AF001FB287AE07229462046062286
:10D6400009310C300AF0F8FA0B482146806800785E
:10D650000AF066FC761CF6B21035F878B042CBD8EA
:10D66000F8BD054880680028FAD0002000F090FB43
:10D67000002000F0B7FCF8BD00480020F1B584B0F0
:10D68000049800287ED0C07800287CD00498446894
:10D69000002C78D01620F7F7DFFC40B2002702906C
:10D6A0001CE1204620300821019041560298814219
:10D6B0006ADB934900258968284600297ED02178B5
:10D6C00001290CD02346227A093303A90120FFF750
:10D6D0006EFB002800D005782178042914D08849F1
:10D6E0008968497803290FD0002D0DD000290BD06F
:10D6F000002863D0012902D002295FD101E0A807E8
:10D7000000E0E807002859D06078A11CFFF73CFB37
:10D71000009060707A4800254068002857D00026A5
:10D7200017E0496830010A5CFF2A10D0401842789F
:10D7300000998A420BD10622A11C801C0AF06EFAC5
:10D74000002804D06E48310140680D1805E0761CB1
:10D75000F6B26B4908788642E3D3002D37D02078A3
:10D76000042872D0A868002818D00178227A914243
:10D7700006D121460931401C0AF050FA012871D027
:10D78000207802E0B1E0AEE0A5E004285FD0A86810
:10D79000002803D00AF0C2FA0020A860207A594974
:10D7A000401C0AF065FA00280DD02178042957D0D2
:10D7B000A860217A0170227A214600E043E0093115
:10D7C000401C0AF039FA207A002850D153E026781C
:10D7D000042E50D04A4A516800294CD000201378BA
:10D7E00005E002018A5CFF2A25D0401CC0B29842A5
:10D7F000F7D3002D3FD02E70607868700622A11CF0
:10D80000A81C0AF019FA207A3E49401C491C0AF06B
:10D810002FFA00280BD0217804290FD0A860217A94
:10D8200001702146227A0931401C0AF005FA207A5B
:10D8300000281CD104E000014518DAE7E860EEE7B3
:10D840002078012813D016E0FFE7E8688BE7E86846
:10D850000028A3D00AF062FA0020E8609EE701E009
:10D86000E860A6E71520F7F7F7FB002803D1244866
:10D870008068002803D12248406800282BD1207AF4
:10D8800014300AF0D9FA050025D0D02028700026DF
:10D890006E700D20A8702078E87001980622007A3A
:10D8A000E87260782871A11C681D0AF0C5F9227A17
:10D8B0002A73207A002807D02846143021460931DF
:10D8C00028610AF0B9F900E02E610D482946806808
:10D8D00000780AF025FB7F1CFFB229340498C07839
:10D8E000B84200D9DDE605B0F0BD054880680028E3
:10D8F000F9D0002000F04CFA002000F073FBF2E7B2
:10D90000004800201E47000070B50178744D912931
:10D9100002D0A22973D04FE04178052908D0714C7C
:10D92000714B0E2907D00F296AD03E2969D043E0F8
:10D93000FFF734FD1CE082886C4900258A4219D12A
:10D9400081680E78491C002E06D1002904D0654854
:10D95000062218300AF070F9207801282CD1002E08
:10D9600002D02570304624E002202070F8F789FFAD
:10D97000012070BD5E498A4220D18668002E1BD0EE
:10D980003078002806D1B1787278080210432081DF
:10D99000F0786070207802280ED13078002801D00D
:10D9A000257005E00320207061782089F9F78CFC50
:10D9B000307800F055FADBE7002070BD4C49C91CF7
:10D9C0008A4204D180680078FFF7A0FDD0E749497A
:10D9D0005118042907D8D9680029C9D00968002935
:10D9E000C6D0884770BD424909318A420AD1596878
:10D9F0000029BDD00B68002BBAD0014634E067E0A7
:10DA000016E034E03A490A318A4203D18168097844
:10DA10000029ADD0364C0C34A242CDD199680029F2
:10DA2000A6D04A68002AA3D001462046904770BD80
:10DA3000014682882E480B30824203D02C48173092
:10DA4000824204D19868002892D043680AE02848AE
:10DA500011308242B0D1E088A842F3D01869002882
:10DA600086D00368002B83D01046984770BD81781C
:10DA7000012914D00A2915D0022916D00B2919D052
:10DA800003291FD0062920D0072995D1818808298C
:10DA900092D2C0884900184A001F50528CE7FFF705
:10DAA00017FC65E7FFF7B4FC62E7596800298DD0E1
:10DAB000496803E05968002988D08968002985D021
:10DAC000884755E70246808806E0FFF755FD4FE797
:10DAD0004388024629461846FFF7DAFB70BD00006E
:10DAE000FFFF000058690020C04500200910000019
:10DAF00002200000FADFFFFFC46A002001494860ED
:10DB000070470000C0450020014988607047000050
:10DB1000C04500200149C86070470000C045002092
:10DB20000149086170470000C0450020F8B505466E
:10DB30008078624C00220626032721780300FDF737
:10DB4000A7FD0805AF375A5A6E99A1AF687800282B
:10DB50006AD110225A495B480AF060F8002807D0C1
:10DB600057491022103158480AF058F800280DD1B2
:10DB7000544A102102200AF0D9FA534A10210320F6
:10DB80000AF0D4FA514800780AF06CFA0622E91C2F
:10DB90004F480AF051F8012020704F484D4B027851
:10DBA0004E4801210078F7F74BFD00283CD179E081
:10DBB0006878002838D14948EA780078002A07D0E8
:10DBC0004849474B0A780021F7F73AFD68700EE0A4
:10DBD00002290FD00121414F0AF008F8002806D190
:10DBE0002078052803D0012138780AF0EBF968780D
:10DBF000002819D1F8BD6A78002A15D1032805D06C
:10DC00000020394A0529107005D006E0042937D1D3
:10DC10000520207046E00420FBE7277042E068788A
:10DC2000002803D0312821D026703BE0042020704A
:10DC30006A89E8780423291DF5F770FE2B4E3078A9
:10DC400000280DD02A49E8780A78904206D10622A9
:10DC5000281D491C09F0E2FF012805D00120307081
:10DC60002149002008701DE00220F8E71E4900202D
:10DC70000870D2E72846F6F70BF820780528CCD1B3
:10DC80000220C6E768780028B4D11A480068846882
:10DC9000002CAFD06B892A89E988A888A047F8BDF5
:10DCA000002AFCD0134800680028F8D00268002A37
:10DCB000F5D0294620789047F8BD00008C47002019
:10DCC0004C6A00208B6A00209B6A00203C470020A1
:10DCD000A2470020A8470020864700208447002054
:10DCE0006C6A0020884700208747002043470020B7
:10DCF000684700207847002010B50178912906D0A8
:10DD0000A22903D0D02901D1FFF710FF10BD41781F
:10DD10000E29FBD181880A4A9142F7D180680321FC
:10DD2000827841564378100218437F29EED0054A85
:10DD30001268002AEAD05268002AE7D0904710BD46
:10DD40000514000078470020F8B507460E4608463F
:10DD500003F04CFB020019D01820F7F77DF90506F7
:10DD60002D0E00D1157806200AF066F804000DD0BB
:10DD7000062200210AF058F8D020207067700E208B
:10DD8000A070A680214628460AF0CAF8F8BD000017
:10DD9000F8B5054631480024806800285CD0002D85
:10DDA00010D12E494A68002A0CD00020097807E0DB
:10DDB0000301D35CFF2B01D0641CE4B2401CC0B251
:10DDC0008842F5D3E00008300AF036F8060007D1A3
:10DDD00008200AF031F8002413250646002831D027
:10DDE000D020307001207570B070F470002C21D0FC
:10DDF000354608350027756015E051683801095C23
:10DE0000FF290ED029705168641E41184978697045
:10DE10005168E4B241180622A81C891C09F00CFFC5
:10DE200008357F1CFFB20D4A1078874204D2002CBF
:10DE3000E3D101E000207060084831468068007836
:10DE40000AF06EF8054C00212078FFF705F8A0686D
:10DE500009F064FF0020A060F8BD00000048002029
:10DE600070B50F4D0646E878FF2817D00E2009F050
:10DE7000E3FF040012D0D020207066700020A07054
:10DE8000294606221831E01C09F0D6FE2889608157
:10DE900068782073E87821460AF042F870BD0000E7
:10DEA00058690020FFB5074681B01D46164616206A
:10DEB00009F0C2FF040022D0D02020700520677036
:10DEC000A070E670002D05D006222946201D09F01D
:10DED000B3FE04E006220021201D09F0A5FF0A98E8
:10DEE00060810B9820730C98E0810D9820820E9829
:10DEF00060820F982075214602980AF011F805B04B
:10DF0000F0BD0000FFB581B01E4617460D460C203F
:10DF100009F092FF040016D0284603F067FA0028A3
:10DF200001D0007801E00948C078D0212170019922
:10DF300061700721A170A580E78026810A9961811F
:10DF4000214609F0EDFF05B0F0BD00005869002042
:10DF500070B50C4D04462868002811D0032009F044
:10DF60006BFF010008D0D02008704C70032088702F
:10DF70002868007809F0D4FF002C01D0FEF73AFFA2
:10DF800070BD0000D4450020FFB581B01F460E468D
:10DF9000084603F02BFA050022D0102009F04CFFB0
:10DFA00004001DD01022002109F03EFF1820F7F7D1
:10DFB00053F80006000E00D12878D0212170019975
:10DFC00061700F21A170A6800399217267720A996E
:10DFD000A1720B99E1720C99E160214609F0A0FF52
:10DFE00005B0F0BD10B504461520F7F735F8002848
:10DFF00001D0012100E000212046F8F77BFC10BD94
:10E00000FFB5074681B01D460E460E2009F014FFED
:10E01000040010D0D0202070002060700C20A07070
:10E02000A6800622A01D039909F006FE2573F8B20A
:10E03000214609F075FF05B0F0BD0000F0B51C4F9A
:10E0400085B03868002831D00320F7F705F8064678
:10E050000420F7F701F8054604A91648F5F7F0FB88
:10E060006846017C14480029807806D0032802D035
:10E07000002806D003E0022404E0002801D0012497
:10E0800000E000243968C878091DFEF78EF83A6868
:10E09000D77A937A0090111D01A88AC092782346FE
:10E0A00029463046F8F713FC05B0F0BD0120FBE728
:10E0B000D44500201F0400005869002070B50446B4
:10E0C0000E488068002818D00D4D002C0DD102207C
:10E0D000F6F7C2FF020003D0287801210AF0C4F845
:10E0E0000120FFF77FFF040006D0287801210AF005
:10E0F00019F92046FFF74CFE012070BD00480020B2
:10E10000EE47002070B50C4603F070F905001FD0F3
:10E110001820AC62F6F7A0FF0606360E00D12E7866
:10E12000102009F089FE040012D0D02020700020B9
:10E1300060700920A0706879E0700622A91D201D7A
:10E1400009F07AFDA86AE0602146304609F0E8FE51
:10E1500070BD002803D0172803D3FF2801D000206A
:10E160007047012070470000F1B52D4E82B0306835
:10E17000002842D040782B4D012814D0287900285F
:10E180003AD1032009F058FE010009D0D0200870D0
:10E1900002984870042088703068007809F0C0FE4A
:10E1A000FEF728FE28E02048204F4368002B19D0B6
:10E1B0001A78694601205B1CFEF7F9FD002811D092
:10E1C0000078C0070ED00120F6F746FF04463C2831
:10E1D00014D33878164A02210AF034F812483C3C2D
:10E1E000448016E00020F6F737FF0CE0002028718D
:10E1F00002E00298FFF7ACFE0120FEBD0D480E497B
:10E200006043F3F793FF020003D0387802210AF04D
:10E210002BF831680220487028790028E9D0E5E71A
:10E22000D44500205869002014480020EE47002003
:10E230000077010040420F0071020000F8B505466A
:10E240001D48854224D0461C002922D001292CD00B
:10E2500002291DD10121284603F04EFA002817D1CA
:10E26000284600F035F9040012D0207A0026FF2855
:10E270000DD0FE2806D00096A378607A1422294695
:10E2800000F0C2F9204600F055FEFF202072A67271
:10E29000F8BD284600F01CF90028F9D1304600F0FE
:10E2A00017F90028F4D00580F8BD284600F010F9D1
:10E2B0000400F9D02680D8E7FEFF00007CB50400FA
:10E2C00018D0207AFF2815D000250095A378218842
:10E2D000607A172200F098F9A078182805D16846CE
:10E2E0000571208801A9F4F767FCFE202072204602
:10E2F00000F020FE7CBD10B50C4600F0E9F80028C7
:10E3000006D0827A511CA14202D1D109C901817281
:10E3100010BD0000F7B50878002588B016460C46F9
:10E32000002857D16078002854D1A0781B2816D037
:10E330001D2814D0089800F0CBF8050027D0A0784D
:10E34000012849D0A97888424CD16B68002B49D06C
:10E35000A18801AAA0689847070045D082E04249F9
:10E360000978FF2936D01D2814D1089800F0B0F89C
:10E3700005000FD0AA7A002A0CD0100607D4A17885
:10E38000089800F015FEA87A80210843A8720020A2
:10E390000BB0F0BD01AF0097A38861782078A26828
:10E3A000F4F733FD0028F3D100972F48A37800221B
:10E3B0000078089900F028F90028E9D1029900298D
:10E3C00001D000213170A1781D29E1D1002DDFD0CD
:10E3D000A972DDE70620DBE7A18801AAA068F4F7AF
:10E3E0009FFCB9E70420D3E7A87805280CD00728BC
:10E3F0000AD0092808D00D2806D0112804D01728E3
:10E400000AD12869002807D0A27801AB29460898CC
:10E4100000F060FA307025E01449687A0978884283
:10E4200010D001A90091A3780022089900F0ECF81F
:10E43000070007D1A17801A800F09CF8002801D0BE
:10E4400000203070A878032809D16846A9898088FF
:10E45000814200D9A881A9890898F7F755FF284675
:10E4600000F068FD384693E7A84600209E4600204D
:10E4700030B5054685B0202000900C460A7900236F
:10E4800006212846F7F7F4FF049000281ED02088C4
:10E49000694688806088C88002200872002048721F
:10E4A000282088722279611D049809F0C5FB207923
:10E4B0006946888101A92846F4F792FB040002D03E
:10E4C000049809F02BFC204605B030BD1320FBE773
:10E4D00010B50A4A0A4B002152681C780AE028232A
:10E4E0004B43D35A834203D128204143881810BD9F
:10E4F000491CC9B2A142F2D3002010BDA846002099
:10E5000020470020074A002106234B43D35A834269
:10E5100003D10620414388187047491C0329F3DBC7
:10E5200000207047DC69002001460648406906E08B
:10E53000826852898A4201D1001D70470068002814
:10E54000F6D17047B046002010B50C46FFF7C0FF6B
:10E5500000280DD0002C00D02060007AFE2803D0C7
:10E56000FF2803D0162010BD172010BD002010BDBD
:10E57000022010BD00B50F292ED00BDC0B00FDF7DB
:10E5800087F80F23232323232B252B232B232B2314
:10E590002B272300182917D008DC10390B00FDF7B2
:10E5A00077F808131B1B1313131919131E290BD00B
:10E5B00006DC192908D01B290ED01D2904D10BE037
:10E5C000522909D0D22907D0002000BDC06800BD63
:10E5D000006800BD806800BD406800BD10B50C46F5
:10E5E000FFF790FF00280DD0002C00D0206080782D
:10E5F000FE2803D0FF2803D0162010BD172010BD21
:10E60000002010BD022010BDFFB581B001980A9D09
:10E610001E461746FF2813D0202009F00DFC0400E9
:10E620001DD0B02020706770029860802671002D88
:10E6300009D0204618222946083009F0FDFA08E0E2
:10E64000022005B0F0BD204618220021083009F054
:10E65000EBFB2146019809F063FC0020F1E7132051
:10E66000EFE7FFB585B01C46212015460E46009009
:10E670000E9F0023224616210598F7F7F9FE039016
:10E68000002814D068468680C58004812246394619
:10E69000039809F0D1FA01A90598F4F7A3FC040046
:10E6A00002D0039809F03AFB204609B0F0BD1320D0
:10E6B000FBE70020704700207047000010B50446BB
:10E6C0002030072903D011790A2921D11BE00179D3
:10E6D000491C0171108851688000001F081841789A
:10E6E00002780802E189104381420FD9401CA081C1
:10E6F000214620880C31FFF7BBFE207A054909F03E
:10E700002DFE162010BD0079002801D0002010BD7C
:10E71000012010BD80BB000038B54C8808888442B9
:10E720000ED300280CD0002200920B794A1D2146FE
:10E73000F7F72EFB002801D0002038BD0A2038BD95
:10E74000012038BD10B504462030052903D01179C9
:10E750000A2928D122E00179491C01711088917899
:10E76000401E0129516880B216D012225043081869
:10E77000417802780802E1891043814211D9401C96
:10E78000A081214620880C31F4F75CFA207A0749F1
:10E7900009F0E4FD162010BD8000E8E700790028AC
:10E7A00001D0002010BD012010BD000080BB000082
:10E7B000F3B585B006980026078840883446B842ED
:10E7C00015D3002F13D000206946888002900020C6
:10E7D0006946888100900698002341881A46384689
:10E7E000F7F7D6FA05005AD0002C03D00CE0012030
:10E7F00007B0F0BD2220009003AB354A05210598F3
:10E80000F7F736FE04000BD068468088002832D027
:10E81000684680790128287811D0102843D101E07A
:10E820001120E5E7A87A207068891022000A60703C
:10E83000A41C2046696809F0FFF910340DE0022895
:10E8400031D1A87A207068890222000A6070A41C65
:10E850002046696809F0F0F9A41C69468888401CC4
:10E8600080B28880B0421AD269891948814216D094
:10E870007F1CBFB2ABE702942878022808D00220A0
:10E880006A46907112219089F3F73AFCC6B2C9E743
:10E8900001206946887188898005060ED1E768469F
:10E8A0008088002812D001A90598F4F7D7F900282C
:10E8B0000AD001AB052216210598F7F7CBFB0028FB
:10E8C00002D0029809F02AFA002091E70A208FE787
:10E8D000FFFF0000FFB58878012781B01E460D4676
:10E8E00005280BD007280FD0092813D00D2817D0E2
:10E8F00011281BD0172821D0012431E01A462846C0
:10E900000399FFF71FFF16E01A4628460399FFF701
:10E91000D5FE10E01A462846039900F0CDF80AE02B
:10E920001A462846039900F08FF904E01A46284653
:10E93000039900F067F804000FD011E0287B0399D9
:10E9400001281A46284605D000F042FA044601285C
:10E9500038D105E000F0E8F9F8E70398012803D082
:10E960000398092817D113E030790A282DD0009692
:10E97000687A0022039B0199FFF746FE002824D104
:10E9800030460399FFF7F6FD00281ED000271CE053
:10E99000308800280FD00096687A0022039B0199E6
:10E9A000FFF732FE002806D130460399FFF7E2FD5B
:10E9B000002800D00027002C07D0162C02D02846B3
:10E9C00000F0B8FA384605B0F0BD00200090AB78F2
:10E9D000687A1A220199FFF717FEF0E738B5054665
:10E9E0000C4608886946F7F7AFF9002807D0017A86
:10E9F0006846028823462846F7F7ACFC38BD01205C
:10EA000038BD000010B504462030112903D011791B
:10EA10000A2927D121E011885388491E59430379D7
:10EA200089B25B1C03715068891C401841780278D8
:10EA300008020D491043884212D0401CA081E18990
:10EA400081420DD3214620880C31F4F713FB207A44
:10EA5000064909F083FC162010BD0079002801D07A
:10EA6000002010BD012010BDFFFF000080BB000092
:10EA700038B50C4649882088814219D3002817D020
:10EA80002379621D02210B48F4F727F800280DD0E6
:10EA900000200090237961882088621DF7F778F9BB
:10EAA000002801D0002038BD0A2038BD102038BD14
:10EAB000012038BD10850100F0B5054613302E4603
:10EAC00089B0203614460690092903D020790A28F7
:10EAD0003CD03EE020886188401E4843317980B2B6
:10EAE000491C3171616808184178027808021043A6
:10EAF0000790287B01285FD10027208861883E4647
:10EB0000484380B2089027801CE060886168401FFD
:10EB100083B2701D0A18A97C0698F3F7DEFF00285F
:10EB20000DD0BE4205D0606862888119C01909F015
:10EB300083F86088C01987B22088401C20806088D4
:10EB4000801986B208988642DFD335E030790028F4
:10EB500039D1AB7C02212B48069AF3F7BEFF00287F
:10EB600022D1AB7C02212848069AF3F7B6FF002891
:10EB70001AD1AB7C02212548069AF3F7AEFF002894
:10EB800012D1AB7C02212248069AF3F7A6FF002897
:10EB90000AD1207902280AD0052808D0082806D0F2
:10EBA0000F2804D00C2802D0012009B0F0BD307924
:10EBB000401C30716088079016490798884202D03F
:10EBC000298A814201D80020EFE7401C80B2E88109
:10EBD000297B01290AD0294628880E31F4F774FAD6
:10EBE000287A0D4909F0BAFB1620DEE7694608804D
:10EBF000288A4880022008710320487128208871E3
:10EC00002888EBE7108501001285010014850100BA
:10EC100016850100FFFF000080BB000038B54C885E
:10EC2000088884420ED300280CD0002200920B7971
:10EC30004A1D2146F7F7ACF8002801D0002038BD66
:10EC40000A2038BD012038BD70B504462030154675
:10EC50000D2903D0117907291ED118E00179491C2B
:10EC600001712088F4F718F801462888491E884267
:10EC700010DBE1890818E081214620880C31F4F787
:10EC8000D9F9207A054909F069FB162070BD007991
:10EC9000002801D0002070BD012070BD80BB0000A5
:10ECA000F8B50D460646002428E0286861004018A3
:10ECB00041780278080210436946F7F745F80028C2
:10ECC00010D0017A684602883046F7F76CFB0028BE
:10ECD00012D02A686100535C13702A68491C515C89
:10ECE0005170F8BD296860000A5C0A702968401CF0
:10ECF000085C48700120F8BD641CA4B2A888A0423A
:10ED0000D3D80020F8BD38B5044608886946F7F71F
:10ED10001BF8002806D0017A684602882046F7F7DB
:10ED200042FB38BD012038BD7CB5274E0D46044658
:10ED300017292DD1607D0C235843216913880818A9
:10ED40000188994224D141885388994220D18388EF
:10ED500091888B421CD193680A468068194608F056
:10ED60005DFF002814D0607D401CC0B26075217D1D
:10ED7000884214D20C2221695043081881680091FE
:10ED80008388428801882088FFF76BFC002801D027
:10ED9000002005E0207A314609F0E0FA10E0A07D7D
:10EDA00069460871208801A9F3F706FF012D09D0F3
:10EDB000207A314609F0D2FA1920A0700348606029
:10EDC00016207CBD01207CBD80BB0000812D000091
:10EDD0007CB51F4E0D46044617291CD12088F3F739
:10EDE0005BFFA28B431FD018A18A82B2A283608AE4
:10EDF000101A80B2884215D2091A994201DC8BB2EE
:10EE000000E09BB2A16908180090218A2088FFF7D2
:10EE100028FC002801D0002005E0207A314609F0C6
:10EE20009DFA10E0012069460871208801A9F3F7D6
:10EE3000C3FE012D09D0207A314609F08FFA19203E
:10EE4000A0700448606016207CBD01207CBD0000DD
:10EE500080BB0000812D000038B505460C460888AF
:10EE60006946F6F771FF002807D0017A68460288E4
:10EE700023462846F7F7C2FA38BD012038BD000006
:10EE8000FEB50E461546074601A9FFF75DFB0400D7
:10EE90000CD131463846F4F757F9040006D1044B3B
:10EEA0000B2200210095019800F0A4FF2046FEBD32
:10EEB000992F0000FFB589B00E461F46154607A9D9
:10EEC0000998FFF741FB040022D1002D0CD03088B7
:10EED000694688807088C8800220087203204872C2
:10EEE0002820887201A900E031460998F4F7ECF86F
:10EEF00004000DD16846057116223146801D08F0C8
:10EF00009BFE054B092201A90097079800F072FFAC
:10EF100020460DB0F0BD0000352F000001494860CB
:10EF2000704700009C46002001498860704700003F
:10EF30009C46002070B50446083000F04DFFA078D4
:10EF4000172801D0192807D1207B012811D0A069EA
:10EF5000002801D008F0E2FE0020A070FF216172BD
:10EF6000242108550146204618220C3008F05CFF89
:10EF700070BD20690028EFD000250BE028460C2248
:10EF80005043216908300858002801D008F0C6FE17
:10EF90006D1CEDB2207DA842F0D82069DAE710B5EB
:10EFA0000446801C00F018FFFF20E07010BD000038
:10EFB0001CB50446684601714271204602F016FAFB
:10EFC00000280BD0027B01A90748082A009106D02F
:10EFD0007E23002221460078FFF716FB1CBD7E230E
:10EFE000002221464078F7E79C460020F8B500242F
:10EFF000064627460C2060438519A8882D1D002849
:10F000000ED0A868002801D008F088FE0C2200214C
:10F01000284608F009FF641CE4B22F80052CE9D3D0
:10F020000020C0433080F8BD00B500F023F8002870
:10F0300000D0806800BD00229300CB5A834202D1E9
:10F04000900040187047521C032AF5DB00207047DF
:10F05000074A002192698B01D35A834202D1880169
:10F0600080187047491CC9B20329F4D300207047A7
:10F07000B046002006490969002906D08A888242E4
:10F0800001D1886870470968F6E7002070470000E2
:10F09000B04600207CB50646012906D0022922D1BF
:10F0A000012102F029FB00281DD13046FFF7D0FFD7
:10F0B000002801D0FFF79AFF01A80C4D0090022311
:10F0C000094A29460120F6F763FE0AE03046E16866
:10F0D000F6F748FB68468288002329462046F6F763
:10F0E00091FE0400F2D17CBD1C850100FFFF0000F1
:10F0F000F3B5002083B00246054604460C21049B6C
:10F100006143C9188B88091D002B0ED0002A1BD023
:10F1100093421ED14B8883421BD189884B199DB2E3
:10F120000818641C80B2052CE8DB022C39DB0020B7
:10F130000190002D0DD01C49284608F099FD009043
:10F14000002807D0002625E08D8848881A464019F7
:10F15000E7E7002005B0F0BD0C2004997043471884
:10F16000F9683F1D00290DD0019B0098BA88C0188E
:10F1700008F062FDB9880198081880B20190B8685B
:10F1800008F0CCFD002E04D00C220021384608F0F7
:10F190004BFE761CA642DFDB04990098C8600498F9
:10F1A00005810120D6E7000004470000F3B50746BB
:10F1B00083B000254088FFF74BFF0290002803D062
:10F1C000387A012807D047E07888F3F701FD002856
:10F1D00056D105B0F0BD384608300299FFF788FFD8
:10F1E000002817D0029C1821E08801910090238903
:10F1F000A188E2687888241DF6F7F2FC05461628F7
:10F2000005D0002D28D004982188018024E000201A
:10F21000A06021E000260C200299704340188188EC
:10F22000041D002918D0042E1ED0008A00281BD0EF
:10F230001620628800920190A3887888A268F6F769
:10F24000CFFC0546162811D0002D02D00498218845
:10F250000180761C052EDEDB0298FFF7C7FE002D2D
:10F2600009D0162D05D00DE01820E2E70020A0609F
:10F27000EFE7002506E07888F3F7AAFC002801D024
:10F280001620A6E72846A4E7F3B50446074689B04A
:10F2900008344088F3F700FD079004A8009000258B
:10F2A000237961882088621DF6F772FD0590002899
:10F2B0006FD00798401F08900898854269DA39791D
:10F2C00007983D4BC01F80B200220391009301922A
:10F2D00002901E466946083E0A8A7888F3680599B6
:10F2E000F6F7F0FA002821D12089328990421DD109
:10F2F000E068F16808F092FC002817D02F4E706883
:10F3000000280AD111200090788800232C4A072178
:10F31000F7F7AEF8002803D070600598468906E03C
:10F320000A982188018011200BB0F0BD00266846A4
:10F33000028A618806AB0598F6F764FD0590002EF9
:10F340001AD01E49320A486846556D1C4B68A8B24F
:10F350001A54401C059A80B2002A10D06A464B68A5
:10F36000128B1A546A46128B401C496880B2120AEA
:10F370000A54401C85B29FE700289DD109E00F4A3E
:10F38000FF2153681954401C526880B21154401C2C
:10F3900085B2002D0AD00948A9080180788807495C
:10F3A000F3F738FC0028BFD01620BDE70A98218863
:10F3B00001800A20B8E70000B8460020C469002098
:10F3C000FFFF0000F0B589B00446002769468F8230
:10F3D00001208B4D0874E868002807D1F7F724FE58
:10F3E000884908F045FCE86000281ED0182200215A
:10F3F000854808F019FD2079834E411CC9B2069159
:10F40000022816D006283BD008283ED00A2841D032
:10F410000C286DD00E287DD010287CD012287BD0EF
:10F4200016287AD0182879D0DBE06846007C09B02D
:10F43000F0BD6088082808D2744A4100515A00295A
:10F4400003D1734AFB21FAF72BFAF7F7EDFD308071
:10F4500060886D49F3F7A0FB00282189308805D02A
:10F46000814200D3208120893080BEE0814200D3D8
:10F47000208121896088F6F747FFB2E00699ADE068
:10F4800005A92046FFF700FF8BE005A9204600F004
:10F49000FDF986E0208907A9F6F756FC05005ED045
:10F4A00015200090608808AB5A4A0B21F6F7E0FF60
:10F4B0007060031E47D069462079098C029101973C
:10F4C0000096039069468A8B60882946F6F7FAF918
:10F4D000050034D160884C49F3F742FE3CE0706887
:10F4E00008F01CFC002D7CD02089694688825AE0F7
:10F4F000208907A9F6F728FC050030D016200090D7
:10F50000608808AB434A0D21F6F7B2FF7060031E16
:10F5100019D004E028E02CE030E035E03DE0694619
:10F520000A8C2079618901910096029203906946C4
:10F530008A8B60882946F6F7C5F9050008D0162D94
:10F54000CDD10025CBE720896946888211252CE0A2
:10F5500060882D49F3F77AFD002846D141E02089E3
:10F5600069460125888220E005A9204600F02EFA90
:10F5700017E005A9204600F0BFF812E004AA05A98B
:10F58000204600F0ABFA0CE005A9204600F044F854
:10F59000050008D16846077423E005A92046FFF757
:10F5A00005FE05001DD0162D1FD06078142818D038
:10F5B000207930706846808A708035716088124981
:10F5C000F3F7C6FA00280CD0012560880E4B2A46B6
:10F5D0001621F6F73FFD002803D029460A48F6F722
:10F5E0008DFF2046F6F74EFB1FE76088064B16217D
:10F5F000069AF6F72FFD002800D03FE7F1E700005C
:10F60000B046002003470000C4690020C46A0020FF
:10F6100048080000FFFF0000F0B5044685B00E4624
:10F62000054608340027008904A9F6F78DFB03007E
:10F630005BD0187A800613D56846008AFFF7F4FC81
:10F64000070008D0688812221946B847070007D07B
:10F650002088308047E0208830800E2005B0F0BD43
:10F660006888FFF7F5FC010006D12248FFF7F0FC9F
:10F6700001000DD06888088000200C2242435218F7
:10F680009288002A08D0401C0528F6DB09202DE0CE
:10F69000208830800920E1E70C22504340182146A1
:10F6A000001D08F0C9FA0C22214601A808F0C4FA8E
:10F6B00010200090A288688800231721F6F7D8FE52
:10F6C000039000280BD0A288A16808F0B5FA6888DA
:10F6D00001A9F3F79BFC002805D01620BEE720887F
:10F6E00030801120BAE73846B8E701202188318000
:10F6F000B4E70000FFFF0000F3B5024689B008320E
:10F70000064604924088F3F7C7FA079005A8049AC2
:10F710000090137951881088521DF6F739FB0025A7
:10F7200004462F46002C20D06A46217A7088928A9F
:10F73000F6F739FE070015D131790798504B801F35
:10F740000890039180B20022009301920290194622
:10F750000839CB6869468A8A70882146F6F7B2F87C
:10F76000070005D00A9861890180002D70D079E0EA
:10F77000002D0DD043484188414808380089021DBA
:10F7800091426FD140190899001D88426ADC10E04F
:10F7900012200090708800233B4A1121F6F768FE82
:10F7A00038490028486036D0354808380089001D9F
:10F7B00048803449A07A4A6806AB505562896D1C6E
:10F7C0004968A8B2120A0A54401C85B204984188BC
:10F7D0006846828A2046F6F715FB040021D06A4667
:10F7E0002849108B4A6850556A46128B6D1C4B682D
:10F7F000A8B2120A1A54401C85B248682049401920
:10F8000008390A89C96808F017FA1D4808380089BC
:10F81000281885B286E70A986189018011200BB00B
:10F82000F0BD1849FF22486842556D1CA8B24B68CC
:10F83000134D1A54401C84B24868083D00192A89A7
:10F84000E96808F0F9F92889201885B28DE7FFE703
:10F850000498002F01880A98018000D10A273846B1
:10F86000DDE7FFE7074C28466188F2F749FC208076
:10F8700070882146F3F710FC0028D0D01620CEE780
:10F88000B8460020C4690020FFFF0000F3B505461C
:10F8900087B0083005902F896888F3F7FDF90024B8
:10F8A000001F019404900498A0426FDB06A800900A
:10F8B000059803794188421D3846F6F769FA060033
:10F8C00064D06A467789317A6888128BF6F76BFDC7
:10F8D000019000285AD128790499394B89B20291B4
:10F8E000002200930192039019460839CB686946BB
:10F8F0000A8B68883146F5F7E5FF0190002845D16D
:10F90000002C08D02F4841882D4808380089801CD9
:10F9100081423DD110E013200090688800232A4ADC
:10F920000921F6F7A5FD27490028486028D024487A
:10F9300008380089801C488021480838008901194E
:10F940000498814222DC1F49B07A4A6810557289B6
:10F95000641C4B68A0B2120A1A54401C184E84B2A0
:10F960004868083E00193289F16808F065F9308965
:10F97000201884B21448874295D07F1CBFB292E70A
:10F9800008980780112009B0F0BDFFE7002C0DD0CA
:10F990000C4E20467188F2F7B3FB30806888314600
:10F9A000F3F7A4FB0028EED01620ECE7019800281E
:10F9B00001D10A200190089807800198E3E7000030
:10F9C000B8460020C4690020FFFF0000F3B50446DC
:10F9D00087B0083005906088F3F75EF90646002589
:10F9E00060E00598690000684018417802780802D4
:10F9F000104306A90490F6F7A7F901001DD020795D
:10FA0000BAB2334F029200230097019303903A4613
:10FA1000083AD3686A466088128BF5F753FF0700EF
:10FA200016D00898049901802A484068002801D01F
:10FA300008F074F9384609B0F0BD089904980880B8
:10FA400024484068002801D008F068F90120F2E756
:10FA5000204F786800280AD1142000906088002385
:10FA60001D4A0F21F6F704FD786000282BD01849B5
:10FA7000388808390A89521C8218B24202D9321ACF
:10FA8000521E0A81134A0F46526810180A89C96823
:10FA900008F0D2F80F483989008840180D496D1CCC
:10FAA0000880ADB205988088A84204D90948771E1D
:10FAB0000088B84295DB60880649F3F72FFB0028E1
:10FAC000B9D01620B7E70899049808801120B2E74A
:10FAD000B8460020C4690020FFFF0000F7B50446C7
:10FAE00084B0054617460834008902A9F6F72CF9B8
:10FAF000030032D0187A80060ED568460089FFF7D9
:10FB000093FA060006D0688812221946B0470028EA
:10FB100002D023E00E2021E0607A002801D052209C
:10FB200000E0287900260096019063882188688883
:10FB30006268F6F755F8002802D016280BD00DE0C1
:10FB4000607A002810D16888F3F768FB002800D09D
:10FB5000162007B0F0BD3E7006E00120059922880E
:10FB60000A80617A0029F4D00020F2E7FEB54C68E3
:10FB7000089D6678277834020E783C43022E02D125
:10FB8000054EB44201D00120FEBD0224009501942F
:10FB9000F5F74EFEFEBD000002290000F8B505464F
:10FBA0001D48854224D0461C002922D001292CD092
:10FBB00002291DD10121284601F09EFD002817D100
:10FBC0002846FEF79FFC040012D0A0780026FF28EC
:10FBD0000DD0FE2806D00096E0781E231422294678
:10FBE000FEF712FD2046FFF7DAF9FF20A07026711C
:10FBF000F8BD2846FEF786FC0028F9D13046FEF70E
:10FC000081FC0028F4D00580F8BD2846FEF77AFC78
:10FC10000400F9D02680D8E7FEFF000038B50400C4
:10FC200010D0A078FF280DD0FE280BD00020009027
:10FC30002188E0781E231722FEF7E6FCFE20A07044
:10FC4000FF20E07038BD10B50C46FEF75BFC0028C5
:10FC500006D00279511CA14202D1D109C90101711A
:10FC600010BD0000F7B5887800258AB00C461E2824
:10FC700002D0122819D115E00A98FEF743FC0500BE
:10FC800025D0A878FE2822D0FF2820D00020009080
:10FC9000A378E87800220A99FEF7B6FC2846FFF719
:10FCA0007EF914E06078012814D00A98FEF72AFC47
:10FCB00005000FD02A79002A0CD0100607D4A178AD
:10FCC0000A98FFF775F928798021084328710020E8
:10FCD0000DB0F0BDA1784808C20034481018803833
:10FCE000876FC66F32484078FF280DD019290BD294
:10FCF000002F09D0002E07D02078002802D162788A
:10FD0000002A03D0122901D006274CE003A9009154
:10FD1000A3886178A268B847070044D103A90A986C
:10FD2000B047070020D0607800283CD1A078694611
:10FD300008710F72A0780E280FD08889C88001A999
:10FD40000A98F2F705FF07002DD001AB012216211A
:10FD50000A98F6F77FF9074625E00398417802787C
:10FD6000080210436946E9E7A378042B1BD003A8D7
:10FD700000900F48002240780A99FEF745FC0700E2
:10FD800011D1A17803A8FEF7F5FB002802D00C9949
:10FD900000200870A078122802D16178012902D0D1
:10FDA000002D00D02871384692E70000AC84010095
:10FDB000B046002000B50346F6F79FFA002802D0AF
:10FDC0001818401E83B2184600BD10B51924A401AE
:10FDD000624308F001FA10BD10B5040008D0207885
:10FDE000FF2805D0FE2803D008F078FAFF20207005
:10FDF00010BD0000FFB581B00A9D1E46174604469F
:10FE0000FF2D12D0234608331E2221460848FFF753
:10FE1000DCFF6572A77066600298002805D0014675
:10FE2000204618220C3007F007FF05B0F0BD000097
:10FE3000BDE20000FEB50746087A16460D460028CA
:10FE400002D1687A002802D002242046FEBD01A912
:10FE50003846FEF779FB0400F7D129463846F3F718
:10FE6000B7F90400F1D1044B132200210096019848
:10FE7000FFF7C0FFE9E70000D92F0000F7B50F46F4
:10FE800004465321102007F0F3FE064653211020AC
:10FE900007F0EEFE0546002E34D0002D2DD01022A6
:10FEA000002107F0C1FF324629462046F8F789F8BD
:10FEB000040023D13078000609D52946304601F0E8
:10FEC00023FA3A461349284608F07AFA03E03946FD
:10FED000304601F019FA3878000609D52946384627
:10FEE00001F012FA0B492846029A08F069FA05E077
:10FEF0003846029901F008FA00E01324304607F072
:10FF00000DFF00E01324002D02D0284607F006FF65
:10FF10002046FEBD71850100F8B5069800261D46F5
:10FF200014460F46002801D00B20F8BD3878002178
:10FF3000022801D0198016E0786842780378100210
:10FF40001843294BC21A984225D007DC274A801A49
:10FF50000BD0012817D0022804D13DE0012A1FD080
:10FF6000A32A39D0298001263BE0F86808F0EDF992
:10FF700082B20798824200D902462A80F968204658
:10FF800007F05AFE2DE0F8680221008829802070D1
:10FF9000000A607025E0062028800246F968EEE736
:10FFA000F868002816D0082129800178217001887E
:10FFB000090A61708178A1704188090AE1700179AC
:10FFC00021718188090A61718179A171C088000A53
:10FFD000E07106E0298004E001202880F8680078BC
:10FFE00020703046F8BD0000032A0000002A0000FF
:10FFF00010B50B78840702D50224234301E0FD24C9
:020000040001F9
:1000000023400B7003060B7802D58024234301E0C4
:100010005B065B0E0B7003070B7802D508242343A5
:1000200001E0F72423400B7083060B7802D52024CF
:10003000234301E0DF2423400B708221084203D1D7
:10004000010701D4810603D510780C21084304E090
:10005000002803D11078F3210840107010BD000073
:10006000FFB581B0087800240A9E1F460D4602287D
:1000700013D168684178027808021043394A811A1E
:1000800090425ED005DC3849401A0AD0012804D1DC
:100090002DE0012943D0A42962D00124204605B0D7
:1000A000F0BDE86808F051F980B2864205D8F01931
:1000B0000090152803D90D24F0E70724EEE7E8683F
:1000C0003A468019039907F0B7FD0098162180B2CF
:1000D0000A1AE9680818002107F0A6FE234880687C
:1000E0000028DBD00268002AD8D0002112E0002EC0
:1000F00013D1022BDFD10398E9684278037810020C
:1001000018430880194880680028C7D00268002A70
:10011000C4D0012101989047C0E70B24BEE7002E10
:10012000FBD1062BC7D10622E868039907F084FDAE
:100130000E4880680028B1D00268002AAED00321A2
:10014000E8E7002EE9D1012BB5D10398007800280B
:1001500003D0012801D08024A0E7E96808709DE75A
:1001600003249BE7022A0000002A0000EC4500203F
:10017000FFB581B00498164600280CD001210198E3
:1001800001F0BAFA002809D0214F00253878002E56
:1001900006D0387905E0012005B0F0BD1420FBE75A
:1001A0003D7985421AD23A6929018C186188002963
:1001B00002D06D1CEDB2F4E7002C0FD0002E0FD052
:1001C0001449202007F054FDE060002806D02022CA
:1001D000002107F029FE4035658003E01520DBE7AC
:1001E0000020E060002020700198E080002E08D000
:1001F000707A2072B88AE168301A00110009087715
:1002000001E002982072049804600020C4E7000016
:1002100028480020024C00000A7802700A88120A5E
:1002200042700B880222012B02D0022B07D011E072
:100230008A7882704988090AC17004220AE08A78A3
:1002400082704A88120AC2700A7902718988090A82
:1002500041710622104670470A7802700A88120A15
:1002600042708A7882704A88120AC2700A790271D2
:100270008A88120A42718A798271CA88120AC27106
:100280000A7A02720989090A41720A2070470A78BB
:1002900002700A88120A42708A7882704988090AB4
:1002A000C170042070470A7802700A88120A4270EE
:1002B0008A7882704988090AC170042070470A78D8
:1002C00002700A88120A42708A7882704A88120A7A
:1002D000C2700A7902718A88120A42718A7982711F
:1002E000C988090AC171082070470A780270098814
:1002F000090A417002207047F8B50D4606460024F1
:1003000017E0396920014718387800280FD0F8889D
:10031000B0420CD1072D02D17888F6F771FE2A463B
:100320000021384600F0EDF9384600F0FFF8641C73
:10033000E4B2164F38798442E3D3002D18D0F8BDCB
:10034000396920014518287800280FD0687AFF28DD
:100350000CD0E888B04209D1284600F0B9FF14213A
:10036000284600F04EFA284600F0E0F8641CE4B29B
:1003700038788442E4D304242046641CE4B2FF228B
:10038000314600F0EDF8082CF6D3F8BD28480020DF
:1003900070B504460D464088F6F732FE2A46002125
:1003A000204600F0AEF9204600F0C0F870BD000015
:1003B000F3B5488881B00D46002803D02549098847
:1003C000884201D91B20FEBD0421686807F0E2FBCA
:1003D000A9780446017068881F4E010A6170297867
:1003E000A17028880227010AE1706888001D85B283
:1003F0000198B04211D10C2007F01EFD01000AD077
:10040000902008704E800F71CD8014488C60007869
:1004100007F086FD16E01320FEBD23462A46002184
:10042000F6F79EFA0E49002807D002280CD00728BC
:100430000CD012280CD01F28EED10878002801D04B
:10044000401E08700020FEBD1420FEBD0420FEBD2D
:100450000220FEBD32480020FEFF00003048002090
:100460002948002030B5094C05460021237809E0D1
:100470002269080180184288002A01D0AA4204D0CB
:10048000491CC9B29942F3D3002030BD284800204E
:1004900030B50A4A0446002113780AE015690801BC
:1004A00040194588002D02D00579A54204D0491C89
:1004B000C9B29942F2D3002030BD00002848002084
:1004C00030B50A4B0021DC780BE05D690A01AA5ABD
:1004D000002A04D0824202D10801401930BD491CD3
:1004E000C9B2A142F1D3002030BD0000284800204D
:1004F00070B50D4D064600222C7910E02B691001D5
:10050000C0184388002B08D0C388B34205D1C36804
:10051000002B02D05B888B4204D0521CD2B2A24284
:10052000ECD3002070BD00002848002070B5C468DE
:100530000546002C0CD0E068002801D007F0EEFB47
:100540006069002801D007F0E9FB204607F0E6FBD0
:1005500010220021284607F067FCFF20687270BD5A
:100560000C23584310B5094BC418303C60898842AD
:100570000BD16068002808D0FF2A02D00178914290
:1005800003D107F0CBFB0020606010BDD46A0020CF
:10059000F3B5C46889B00026054602AF002C20D010
:1005A000E068002802D007F0B9FBE66020886946C1
:1005B0004881608888812089C881608A4882208A31
:1005C00008826888088100960197E988287A642360
:1005D0000A9A00F03DF90A986077668226820BB08D
:1005E000F0BD0C220021384607F01EFC68886946E1
:1005F000088100960197E988287A64230A9A00F016
:1006000027F9ECE770B50C4605461222002120467A
:1006100007F00AFC002D1DD0287F01010E48426919
:10062000515A2180297F42690901891849886180CE
:100630004189A1802988E18069882181A988618117
:10064000E988A1812989E181297F40690901081888
:10065000C088208270BD00002848002010B50446E4
:10066000084884420DD0012907D0022909D101216F
:10067000204601F041F8002803D100212046FFF771
:100680003BFE10BDFEFF000010B50721FFF734FE52
:1006900010BD10B5040009D06088002806D01721CD
:1006A000204600F0AEF82046FFF740FF10BDF0B541
:1006B000002689B015460446002907D00096019609
:1006C000E5880A46007A6023294616E016220021B2
:1006D00002A807F0A9FB6846058102AF002D06D1EC
:1006E000608869464881391DE068FFF78BFF0197F4
:1006F00000963246E188207A602300F0A9F809B01C
:10070000F0BD10B588B0002901D000230AE06B4687
:100710009A8142881A81C368002B02D05A886B469E
:100720005A8102AB002201930092C4880A46007AE3
:100730006023214600F08CF808B010BD7FB5C26878
:100740000D460446002A21D0508869464881622D12
:1007500006D01849107F096800014018C08812E0CF
:100760001548D1880088814200D20846C1B2107C69
:10077000528A801AC0B2002A01D1801CC0B240182F
:10078000401EF1F7D3FC6946888104E0062200216F
:1007900002A807F049FB60886946088102A9002089
:1007A00001910090E188207A2B46002200F050F859
:1007B0007FBD00003C48002032480020F8B50746C5
:1007C00015460E460C2007F037FB040017D0A0207A
:1007D0002070002066806070002D05D00822294618
:1007E000201D07F029FA04E008220021201D07F04F
:1007F0001BFB2146384607F093FB0020F8BD012083
:10080000F8BD7CB50446007804280AD0022815D02B
:10081000062813D0032803D100222046FFF771FFDA
:100820007CBD002000900190E5880A46207A1323C1
:10083000294600F00DF8E188122205E0002220464A
:10084000FFF735FFE18814220520FFF789FE7CBD04
:10085000FFB581B01E46174620200B9D07F0ECFA2D
:1008600004001AD0A22020706770029860800A9855
:1008700020716671002D06D02046182229460830C6
:1008800007F0DAF905E0204618220021083007F0C9
:10089000CBFA2146019807F043FB05B0F0BD0000FC
:1008A000F0B507460D4C00200146257812E023697B
:1008B0000A019E5C002E0BD0D218D268002A07D005
:1008C000127F63691201D218BA4201D1401CC0B232
:1008D000491CC9B2A942EAD3F0BD00002848002053
:1008E000022A01D2012070474A780B7812021A437B
:1008F0000280012A02D0022A06D00FE0CA788B7843
:1009000011021943418009E0CA788B7812021A4318
:1009100042804A790B791102194381800020704787
:100920000A2A01D0012070474A780B7812021A4334
:100930000280CA788B7812021A4342804A790B7976
:1009400012021A438280CA798B7912021A43C2803A
:100950004A7A0B7A11021943018100207047042A58
:1009600001D0012070474A780B7812021A430280A6
:10097000CA788B7811021943418000207047042AFD
:1009800001D0012070474A780B7812021A43028086
:10099000CA788B7811021943418000207047F8B55E
:1009A00006460020706008790D46022825D1E988A6
:1009B000042922D3A868427803781702C278807885
:1009C00014021F430443381D814216D1042C0AD05F
:1009D000052C08D0062C06D0072C04D02046FFF7A3
:1009E00041FD002809D0778034800321C943A868DD
:1009F00007F0D0F870600020F8BD0120F8BD022A91
:100A000001D0012070474A780B7811021943018008
:100A1000002070470A7802704A784270CA788B7852
:100A20001102194341807047FEB5064614465088AE
:100A300000220D467F2808D90220694608804A8096
:100A400060888880E9B26A460BE0A188172904D340
:100A5000E088172801D3814207D268460280E9B2B4
:100A60006A463046F6F7A6FAFEBD02922088FFF7E6
:100A700027FD07002FD0FFF713FF397A884207D2EE
:100A800002AB3A46FF213046FFF772FB002801D047
:100A9000042221E002982189C06801806188418098
:100AA000A1888180E188C180B9880181FB68002B21
:100AB0000FD0E9B22246304698470A49024688429A
:100AC0000AD102980621017005711E2100F0EAFB8F
:100AD000FEBD002200E0022229463046029B00F0C3
:100AE0005BFAFEBDFFFF0000F7B5087802278AB069
:100AF00013460C4606280AD0122832D0142846D0B5
:100B00000026162850D068460684497878E0A278F6
:100B1000194602A8FFF723FF050069D1684600893E
:100B2000FFF7A0FC060010D038480090627802ABB6
:100B300007210A9800F0FCF9022200213046FFF755
:100B4000E0FD3046FFF7F2FC51E069460F8408896A
:100B5000488448898884617808AA0A98F6F72AFAAE
:100B600045E06288194602A8F6F7F7FA05003ED17B
:100B70002748818900293AD0617802AA0192009120
:100B80002378807B00220A99FFF762FE2FE06288BB
:100B9000194602A8F6F7B2FA050028D1617802AA30
:100BA0000A98FFF741FF22E06288194602A8F6F78B
:100BB000C4FA05001BD1684601890A98FFF798FC22
:100BC000002817D0C0686946028849898918090435
:100BD000090C01800BD0C068002808D00D480078AF
:100BE000002804D00C480121007807F0EBF92846D2
:100BF0000DB0F0BD69460F844E8408898884617801
:100C000008AA0A98F6F7D6F93046F1E7A7020100DC
:100C1000D46A00202948002030480020F7B588B069
:100C20000D464878FFF734FC0127044600282FD0F2
:100C30000020207160802E78012E06D0072E0AD069
:100C4000132E18D0152E20D022E0AA7802A80A99D7
:100C5000FFF746FE17E02078032819D1AA7802A8EA
:100C60000A99FFF78CFE05004BD101220021204696
:100C7000FFF747FD45E02078042809D1AA7802A8AB
:100C80000A99FFF7BCFE05463BE02078022802D017
:100C900000200BB0F0BDAA7802A80A99FFF740FE29
:100CA00005002ED16846008A0021002824D168461C
:100CB00000890246403A402A07D26A465289172ADA
:100CC00003D36A469289172A06D2E1684880608871
:100CD000F6F796F902210FE06A46E068D2890280B1
:100CE0006A46128942806A46528982806A4692899F
:100CF000C2800120207000276846028A2046FFF744
:100D0000D6FC204600F0E4FA02A9002001910090F0
:100D1000207A33462A460899FFF79AFD002F02D021
:100D20002046FFF703FC2846B3E7000030B587B044
:100D300004464588014602A8FFF731FE03990029C1
:100D40001AD068460089052819D0042849D00628F9
:100D500047D0072845D002A9284600F059F80028B6
:100D600008D0A068002801D006F0D8FF012128464D
:100D7000F6F760F907B030BD0028F7D0F1E7684614
:100D800040890428EDD301A8FFF744FE6846C088D7
:100D9000182809D30120694608821720488249791A
:100DA00004AA2846F6F706F968464189C088001D5E
:100DB000814202D02846FFF767FC68460079039A13
:100DC000C00701A9284603D0121DFFF727FF02E044
:100DD000121DFFF789FE0028C3D02846FFF754FCF8
:100DE000BFE70C21484309494018303801880029E1
:100DF000B7D0807802AA2946FFF7E0FC0028B0D1DE
:100E0000684600890428B1D1B4E70000D46A002004
:100E1000F3B583B00D460888FFF724FB060076D0B3
:100E2000F468002C73D0F188039881426FD1208937
:100E3000002874D0401E80B22081217F0A013A49E7
:100E400009685118C988884203D163213046FFF7E9
:100E500075FC6069002828D16868417802780F0223
:100E600017436A88B91C8A420DD10121C94306F093
:100E700091FE68606F80307A2A460399FFF79EFCE6
:100E8000002845D00EE02949384606F0F1FE6061A1
:100E900027830121C943686806F07CFE6860688882
:100EA000801E68806069002837D06A88608B238B39
:100EB0001118994201D9042132E0237F1F011A4BF6
:100EC0001B68FB185B88994225D861690818696816
:100ED00006F0B2FE6888618B401880B26083218B77
:100EE000884214D170886946088060690190208B1F
:100EF0004880307A6A460399FFF760FC002802D0E8
:100F0000606906F00BFF0020606160832083012090
:100F100005B0F0BD03E0052102E0092100E0062153
:100F20003046FFF735FAF2E73C480020014C00005C
:100F3000FFB583B00E461546022117200C9FF6F729
:100F4000CBF9040023D0002F03D0201D0699B84709
:100F500000E0002026706570A070010AE17069460B
:100F6000001D4880052008800A4801940078002868
:100F7000039802D0FFF71CFA01E000F0B1F9050078
:100F800002D0204606F0CAFE284607B0F0BD132066
:100F9000FBE7000029480020F0B585B015460E4655
:100FA00007461C460A22002101A806F03DFF6846BC
:100FB0008581002D12D16088694688801548008897
:100FC0000881E068002809D0134A017F12680901EE
:100FD000891849886A46D180008950810F4800905D
:100FE000F2B201AB15213846FFF7A2FF060007D089
:100FF000002D05D02046FFF799FA304605B0F0BD28
:101000000120207000202071024601462046FFF793
:101010004EFBF2E7324800203C4800205902010014
:101020001CB504281DD30C210F4A41438C18303CB9
:101030006168002915D00D4A1278002A0FD06A463F
:10104000108001912089508060896946FFF7B0F9CE
:10105000002802D0606806F061FE00206060012078
:101060001CBD00201CBD0000D46A002029480020BF
:10107000F8B5214F3E7834462048210100680D180C
:10108000287801282DD1E96800292AD0C8680028CD
:1010900027D0088800281AD019480078002814D0D2
:1010A000164821010068081800F09CF8010003D0E0
:1010B0002846FFF76DFA1DE01248641C0078844250
:1010C00001D23C7001E0002038700120F8BD487F5B
:1010D000FF2806D128466221FFF730FBE96800208F
:1010E00048770848641C0078E4B2844200D30024A6
:1010F000B442C1D10020F8BD2F480020384800205C
:10110000294800202C48002010B50520FFF788FF53
:1011100000280ED10620FFF783FF002809D1042004
:10112000FFF77EFF002804D10720FFF779FF002892
:1011300001D0012010BD034800780028FAD0FFF745
:1011400097FF10BD2C480020FFB583B014460D4614
:101150000C9F0E9A0D991E46062D13D001AB0398D5
:10116000FFF706F800281BD10198052207701C4BD9
:1011700042801978FF2915D00171491C1970142D6E
:1011800014D018E06088FFF76DF90190002806D0B0
:10119000C068408820800198C0880390E4E702205E
:1011A00007B0F0BD012119700171E8E76280019874
:1011B0002189C06801810198009602792346294659
:1011C0000398FFF7B5FE040003D00198FFF7AEF9CE
:1011D00003E01E21019800F065F82046E0E70000DA
:1011E0002E480020F1B582B00298C4682C48E688E9
:1011F0000088B04200D20646608A002804D0218AC6
:10120000081AB04204DB05E0208A801CB04201D2FB
:1012100085B200E0354602212846F6F75DF8070062
:101220003AD060886946088001974D80608A00281E
:101230000BD1207C3870208A000A7870BF1CB54220
:1012400001D2258A01E0AD1EADB2618AE0682A466E
:101250004118384606F0F0FC02986946C088FFF74E
:10126000A7F8060003D0384606F058FD15E02088A0
:10127000401E80B22080618A491989B26182228A27
:10128000914204D2002808D1FF20607705E00021B8
:101290000298FFF77DF900E013263046FEBD0000FE
:1012A0003248002010B50446064848430649F0F786
:1012B00027FF0246234609332146044806F08CFFE7
:1012C00010BD000040420F007102000093060100B3
:1012D00010B50446407A07F001F8FF20607210BD97
:1012E0000A880C235A43074BD218303A5368002B14
:1012F00001D0162070474B68536050814888108198
:1013000000207047D46A002010B500230F22845CAF
:1013100064001C438C54835C521EDB09D2B20F2A3A
:10132000F5D910BDFFB581B01D4617460E460846DB
:1013300000F05CF8002802D0112005B0F0BD144880
:1013400000F054F8040020D065710622A01D0A990F
:1013500006F072FC66802771019820700025E56216
:101360000B9820730C98E0810D9820820E98608273
:101370000F98A08200F0B8F82086656300213046FF
:10138000A56304F00DFF0020D7E71520D5E7000086
:10139000FFFF000070B514460D46064600F026F823
:1013A000002808D00379C06A00280CD01221194007
:1013B000102905D00BE00C48864213D0142070BDD4
:1013C000002C02D103E0D8060CD4052070BDD9064C
:1013D00001D40F2070BD002804D0807EA84201D225
:1013E0000C2070BD002070BDFEFF000030B50A4A21
:1013F000002113780CE03C2455684C436419648840
:10140000844203D13C204143481930BD491CC9B234
:101410009942F0D3002030BD20470020F0B50C4D9C
:1014200000210C4E2C780FE03C226B684A43D71801
:101430007F88B74206D09A5C824203D13C20414368
:10144000C818F0BD491CC9B2A142EDD30020F0BDBF
:1014500020470020FFFF000030B50B4A0021147820
:101460000DE03C2355684B435B191B8E834204D12E
:101470003C2041434819408830BD491CC9B2A142B3
:10148000EFD3024830BD000020470020FFFF0000DE
:1014900030B5134B0020134D1C781DE03C215A68D9
:1014A000414389184A88AA4214D0496B002911D0B7
:1014B0000A78012A02D0002A04D00BE049780C29CE
:1014C00003D807E049780C2904D23C2148435968E5
:1014D000401830BD401CC0B2A042DFD3002030BD58
:1014E00020470020FFFF000030B5114C00210846C6
:1014F00023780AE03C226568424352191579002D91
:1015000001D0128E1143401CC0B29842F2D3480859
:10151000C04381B2012004E0CA0704D14908401C3D
:10152000C0B29842F8D30121814088B230BD00009A
:101530002047002070B51348134C007F8107890FA6
:101540008008081820701BD03C2148430F4906F042
:101550008FFB6060002002460D4B07E03C21656870
:10156000414349194B800A71401CCA622178884264
:10157000F4DB084900208300401CCA500C28FADB29
:1015800070BD0000EC6800202047002001900000A2
:10159000FFFF0000FC69002000B5FFF727FF0028CF
:1015A00000D0808A00BD000030B50F4B00200F4CEA
:1015B0001A7814E03C215D68414349194D88A542E1
:1015C0000BD0496B002908D04978C91F092904D8D4
:1015D0003C2148435968401830BD401CC0B290427D
:1015E000E8D3002030BD000020470020FFFF0000AE
:1015F00030B5094A0020014614780AE03C235568BA
:101600004B435B191B79002B01D0401CC0B2491C15
:10161000C9B2A142F2D330BD204700200148007872
:101620007047000020470020F8B505000FD00024C7
:10163000074E084F08E03C2071686043401841881D
:10164000B94200D0A847641C30788442F3DBF8BD6F
:1016500020470020FFFF000070B50B4B0020014623
:101660000A4D1C780DE03C225E684A439219568868
:10167000AE4204D0127B042A01D1401CC0B2491CE6
:10168000C9B2A142EFD370BD20470020FFFF000088
:10169000074A00218B00D358002B05D0491CC9B242
:1016A0000C29F7D313207047890050500020704751
:1016B000FC69002010B5FFF799FE040013D0608884
:1016C000012104F06DFDE06A002801D006F026FB40
:1016D0003C220021204606F0A7FB0020C04360808A
:1016E0000020207110BD022010BD00B5FFF77EFE66
:1016F000002800D0007B00BD10B50C46054988428B
:1017000006D0FFF773FE002803D00079204000D0F8
:10171000012010BDFEFF000010B50C46FFF766FE6D
:10172000002802D0818AA14201D1012010BD84820B
:10173000002010BD10B51248846B207B012817D102
:1017400060792721252803D0262811D1E07E10E0DA
:10175000E07E82070DD526206071204600F03EFE17
:10176000E07E400704D507480221C07806F02AFC35
:1017700010BD4007FCD56171204600F02FFE10BD62
:10178000046B00202069002010B51121942006F080
:101790006FFA04001CD00F48942284630021204675
:1017A00006F042FB012020719020A0720A492046D9
:1017B00080300A6982604969C1600321A1730749C9
:1017C000E1670749016007494160F4F793FF6073DF
:1017D000204610BD046B002040690020E91701007D
:1017E000F518010035170100FEB5404E0027B46B17
:1017F0003146254660350A4668798C3201928B6BFA
:101800006633002809D092310091012808D00228BF
:1018100011D0032830D01220FEBD0622019903E02A
:10182000B078002802D00622184647E02F49062249
:101830009831184642E02F71287B002817D02046A7
:101840006C30F7F7BDFC206600280DD002F0ECFFED
:10185000216E887A002807D00220287120460622AF
:1018600066300C3106F0E8F92879022828D00120EA
:101870002871062201991FE02F71287B002817D0BC
:1018800020466C30F7F79CFC206600280DD002F053
:10189000CBFF216E887A002807D0022028712046CD
:1018A000062266300C3106F0C7F92879022807D0E5
:1018B00001202871009906222046663006F0BCF906
:1018C0007078002808D0E87C8009012804D12046DF
:1018D0006C30F7F791FC20660120207304483770C4
:1018E000C078012106F06EFB0020FEBD046B0020D5
:1018F0002069002070B5204EB46B207B012837D1C1
:101900003078401CC5B235701920A18A8001F0F7EB
:10191000F7FBA84203D801F025FC00203070E07EE0
:10192000164DC10705D0252140076171800F06D1F2
:101930000EE0810708D526216171400708D5E878B7
:10194000022106F03FFB03E0400701D5272060712C
:10195000A07E01280DD00E210120FAF7C8F8A18A37
:101960004218E878012106F07FFC204600F036FDA1
:1019700070BDA28AF5E70000046B002020690020FA
:1019800010B51421702006F073F9040015D07022F0
:10199000002106F049FA0A48846400206071E07171
:1019A0000848016961664069A066B020A0710648D8
:1019B000A0650648E06506482066204610BD000088
:1019C000046B002040690020D5190100E91A0100CC
:1019D000591B0100FEB5414E0127B46C3246254625
:1019E00020351146687D8C310191936C3633002887
:1019F0000ED0891D009101280DD0717800296AD080
:101A00001146896C3C3102280DD0032826D043E0D2
:101A1000062218463EE0B0780028F9D12F49062268
:101A20009831184636E00846F7F7CAFB606502F0C1
:101A3000FBFE616D00290AD0887A012807D10220B7
:101A400028752046062236300C3106F0F5F8287D40
:101A5000022821D02F750622019919E00846F7F7D0
:101A6000AFFB606502F0E0FE616D00290AD0887A64
:101A7000012807D1022028752046062236300C3175
:101A800006F0DAF8287D022806D02F750099062284
:101A90002046363006F0D0F811490020FAF719F840
:101AA000E062F1F7E5FBA06210210520FAF71FF8CC
:101AB0006073E77103202071E28B0A4DFF2401342B
:101AC000E878214606F0BEFBE878214606F07AFA6F
:101AD00000203070FEBD1220FEBD0000046B00200F
:101AE000FFFFFF002069002070B51448846CC06DB2
:101AF000002821D1A079BF2801D0FAF7B5F8252018
:101B000060710F4D002028700E4959200968086542
:101B100062790D490D48F9F7F9FF0D480121A28BB3
:101B2000C078490206F0A0FB0320E871B120A07143
:101B300003210848F9F710FC70BD0000046B002079
:101B400040690020B445002055555500D6BE898E09
:101B50002069002025320100F8B5234EB46C2079AD
:101B600000281ED06079214F27281BD2FAF77CF875
:101B70006079401C6071002038701D495920096847
:101B8000086562791B491C48F9F7C0FF0320F8710A
:101B9000B120A07119480121A28BC078490206F03A
:101BA00063FBF8BDFAF760F83078401CC5B23570B9
:101BB0001920E18B8001F0F7A3FAA84202D97879C5
:101BC000002803D001F0CEFA00203070BF20A071B1
:101BD0000A480121C078490206F0A4FB0321002035
:101BE000F9F7BAFBF8BD0000046B00204069002043
:101BF000B445002055555500D6BE898E2069002079
