:020000040000FA
:100000000080002021030000014000202B0300009D
:1000100000000000000000000000000000000000E0
:100020000000000000000000000000002B030000A2
:1000300000000000000000002D0300002F0300005E
:1000400031030000310300003103000031030000E0
:10005000310300007B110000310300003103000078
:1000600031030000310300003103000031030000C0
:1000700021120000310300003103000031030000B1
:1000800031030000310300003103000031030000A0
:100090000348854601F056F900480047A5000000D6
:1000A000008000200D498A6A481502438A620321B4
:1000B00000F0AEFC00F0B3FE09A003F07BFB0A49A0
:1000C0000AA003F077FB00F0C8FF01F046F802F049
:1000D0007FFE00F0A7F803F001FAFCE78010004073
:1000E00073746172742E0A004641000025730A0081
:1000F00070B5144606460D46042844D048DC012E4F
:1001000046D0022E02D0032E42D122E002F04EFF52
:10011000012D0CD0022D0CD00021615655A003F00A
:1001200049FB617858A003F045FB00250AE058A080
:100130000CE05AA00AE0601981785DA003F03AFB58
:100140006D1CEDB26078A842F5D858A003F032FBE0
:100150001EE0012DEBD00229EBD00021615655A005
:1001600003F028FB617858A003F024FB002506E08B
:10017000601981784EA003F01DFB6D1CEDB2607814
:10018000A842F5D8E1E753480421007803F040FF86
:10019000314651A003F00EFB70BD70B50C4609044A
:1001A00008D503F0FDFE002801D003F0E3FE012096
:1001B000C0031BE04B4E474DE00706D032460221FC
:1001C000287803F073FF012010E0A00710D502F09B
:1001D000EDFE4048FF231A460A21401C02F002FFB0
:1001E00032460221287803F061FF0220604070BD92
:1001F000600715D502F0DAFE3649FF23491C08785E
:100200001A46401C087033480A21401C02F0EEFDDB
:10021000014635A003F0CEFA20460421484070BDC7
:10022000002070BD00B589B0344803F039F9294980
:1002300008703348019002903248039004900820DF
:1002400069464870012008702F480590684602F002
:10025000ADFA01462DA003F0ADFA1E48FF231A4661
:100260000A21401C02F0C2FD01461FA003F0A2FAC1
:1002700009B000BD747820726563762C727373695F
:100280003A25640A000000006C656E3A25642D0072
:10029000637263206572726F720A00006D6174632D
:1002A000682074797065206572726F720A000000B0
:1002B00025782000727820726563762C2072737323
:1002C000693A2025640A00006C656E3A2025642D89
:1002D00000000000204200205354413A2025780AB3
:1002E00000000000E80300005258206D6F64652E86
:1002F0007374617465203D2025780A009B0100001D
:100300002941767155555500F10000007266203282
:100310002E346720696E69743A2025780A0000003F
:100320000448804704480047FEE7FEE7FEE7FEE793
:10033000FEE700003D0300009100000010B5FF48FB
:1003400057210170A8210170FC4A8821403A11818F
:100350000189042211430181002101700A2000F06B
:1003600021FD012000F06BFC10BDF0B5F34EF34D04
:1003700004275722A824203E403DF049030003F003
:1003800041FA0D080E161B1F24282C32373C41461B
:100390002F000A700C70F07BFB22104003E00A7003
:1003A0000C70F07B3843F073C820288118E00A7085
:1003B0000C705120C000F8E70A700C70E048F4E7B8
:1003C0000A700C7081208000EFE70A700C708820A2
:1003D000EBE70A700C700220E7E70A700C702F81BF
:1003E00000200870F0BD0A700C7093208000DCE7DC
:1003F0000A700C70D2484D30D7E70A700C70952007
:100400008000D2E70A700C704B20C000CDE70A7064
:100410000C70CB485C30C8E7C84810B5403800893C
:10042000C1B20B069A0FC748022A05D0012A04D090
:100430009A0F06D07D20000210BDC906C90EC24821
:1004400001E0C906C90E00F013FF10BDBB4A5721D9
:100450001170A8211170B94940394B15002808893D
:1004600004D0184308810020107070479843F9E7C2
:10047000B24A57211170A8211170B04920390028C3
:10048000C87B05D004231843C87300201070704740
:10049000FB231840F8E7A9498A7B8007920892005D
:1004A000800F024357200870A82008708A7300202C
:1004B00008707047A1498A7B8F231A4000010243CC
:1004C00057200870A82008708A73002008707047B1
:1004D0009A4A203A917B800789088900800F01435E
:1004E000964857230370A82303709173002101706D
:1004F0007047924A203A917B0907090F0001014396
:100500008E4857230370A823037091730021017054
:100510007047FEB58948002740380089C0B20106FF
:100520008A0F022A4CD00124A403012A4CD0890F3F
:1005300056D00524002000902005000D01907F4832
:100540002038848900267D49572230460A70A82227
:100550000A7001238B74794957220A70A8220A7005
:10056000764A203A948100220A708A7C9207FCD550
:100570000A8A8A7C9207FCD48A7C9207FCD5098A75
:10058000019A7F1C891A0DB2FFB2002D37D029467F
:10059000714305D5012834D0411C32D0002830D019
:1005A0002E4602943046009900F078FE00B2211ADF
:1005B0008CB202998C4249D1002D45DD641C44E087
:1005C0000220624CC043B6E7C506ED0E29466048DE
:1005D00000F04EFE0019C40B2320C043401B09E06D
:1005E000C506ED0E29465B4800F042FE0019C40B1B
:1005F000A81C4042294600F051FE00B29BE70020B3
:10060000FEBD002E03DA761EF04306B202E06D1E38
:10061000E84305B2B5420FDD484857210170A821D3
:100620000170464A0299203A9181002101707D2093
:10063000C0007043019903E07D20C000684311466B
:1006400000F02CFE80B2FEBD641EA4B2142F82D333
:10065000FF20FEBDFFB581B00C46074605460026CB
:100660001AE0FF219131681E00F018FE00290AD01F
:100670006421681E00F012FE002907D00320A9079C
:100680008007C14202D1FF206F3001E0FF206E30B1
:1006900080196D1E86B2ADB22F488542E1D8002583
:1006A000012C25D9032C05D0A01E062816DDE00755
:1006B00018D115E0FF219131384600F0D9FD00290D
:1006C0000AD06421384600F0D3FD002901D0B807D4
:1006D00002D000201C3006E00120FBE7E00701D03B
:1006E0001E2000E01F208019641E86B2A4B2D7E746
:1006F000039818213018401E84B2049800F0B8FD09
:10070000E120C00041430A981E22504309180B986B
:100710004008081881B20B98C00701D00120C0031F
:100720000A04024305482038C17B6B46C909C90148
:100730001970C17B1B78C909C9010FE04010004046
:10074000020200000048E80100389C1C131300005E
:1007500000180D8F00688909E40700009942E3D171
:10076000694609780029DFD0A64957230B70A823D2
:100770000B70A44B403B5C63447C80263443447440
:100780005A63427C40231A4342740D7005B0F0BD99
:10079000FFB507469B4883B04038C06B0E468404C3
:1007A0009848A40C2038418B008B01224900D203C9
:1007B000904201D3012000E00020081800909248E8
:1007C000388010E00199002925D06421284600F0E6
:1007D0004FFD002901D0A8071DD0FF206E30201A40
:1007E0006D1C84B23D803D88FF219131284600F088
:1007F0003FFD0191002911D06421284600F038FD09
:10080000002901D0A80709D0FF206E30A042D9D915
:100810000020308049E0FF206F30E0E7FF206F309C
:10082000F4E73588012D04D0062D18D9E8071AD130
:1008300017E03888FF219131019000F019FD00295F
:100840000BD06421019800F013FD002902D001981B
:10085000800702D000201C3006E00120FBE7E807FB
:1008600001D01E2000E01F20201A84B26D1CA8B207
:100870003080012804D0062817D9C0071AD117E004
:100880003888FF210546913100F0F2FC00290AD09A
:100890006421284600F0ECFC002901D0A80702D012
:1008A00000201C3007E00120FBE73078C00701D0B2
:1008B0001E2000E01F20A042B3D93088641C401CD9
:1008C00030800598E12104800901009800F0D0FCF7
:1008D000069A108008463C2100F0CAFC0C9908805A
:1008E0003C21009800F0C4FC0D98018007B0F0BDD9
:1008F000444908B52039CA7B6B46D209D2011A7027
:10090000CA7B1B78D209D2019A42F4D16A46127886
:10091000002AF0D03B4A57231370A8231370394B99
:10092000403B5863487C40231843487400201070B3
:1009300008BD34494039886B8A6B8242FBD17047CD
:1009400010B5304A57211170A82111702D49203956
:100950004B7CE82423404B744B7C102420430343FE
:100960004B740020107010BD00B50346FFF7E1FF87
:100970002649C018884201D9494240180104090C8F
:1009800002D00121090440181E4957220A70A822EA
:100990000A701C4A403A50631A482038427C20238F
:1009A0001A4342740020087000BD0021002802D0C4
:1009B000012802D002E0202100E010211148572236
:1009C0000270A82202700F4A203A537C8B43537462
:1009D0000021017070470B4920390028087C02D0A3
:1009E000402108407047C009C001704705492039BF
:1009F000002804D0012801D110200874704720205D
:100A0000FBE7000040100040E40700000000C0A821
:100A100000B5524A0B0002F0F5FE05040710161946
:100A20001F00516B81430AE0516B81435163116B8D
:100A300001431163116A81430DE0516B014351631E
:100A4000116B8143F5E7516B814301E0516B014329
:100A50005163116A0143116200BD404A00B5403242
:100A60000B0002F0CFFE0504071016191F00516994
:100A700081430AE051698143516111690143116168
:100A8000116881430DE0516901435161116981434E
:100A9000F5E75169814301E05169014351611168F2
:100AA0000143116000BD2D4A002906D0012907D05D
:100AB000022908D0032913D10CE0918A814304E074
:100AC000918A814308E0918A01439182D16A01436E
:100AD000D16205E0918A01439182916A014391625A
:100AE0009083118A0143118270471C4B1B4A40338B
:100AF000002906D0012907D0022908D0032913D1E3
:100B00000CE0D18A814304E0D18A814308E0D18A94
:100B10000143D182D9680143D96005E0D18A0143FC
:100B2000D182996801439960D083518A01435182EF
:100B300070470A4A803A0028108B01D0084300E031
:100B4000884310837047054A803A0028508B01D0B3
:100B5000084300E088435083704700008010004045
:100B6000F8B5624D5726614CA827203D0028267015
:100B7000277028880ED02115084328800A2000F00D
:100B800011F92670277028886115084328800020F5
:100B90002070F8BD032149028843F7E7F0B5534CB4
:100BA00057261C228B07514DA8270A409B0F403C1B
:100BB00000282E702F7010D0080603D5E07BFD2191
:100BC0000840E073A07A1043A07248482038C17BE7
:100BD0001943C17300202870F0BD080603D5E07BDF
:100BE00002210843E073A07A9043A0723F48203866
:100BF000C17B9943EDE730B53C4C57233B4AA825D0
:100C0000403C002813701570E06804D08843E06011
:100C10000020107030BD0843F9E730B5334C57233E
:100C2000324AA825403C002813701570A07B04D0E0
:100C30000843A0730020107030BD8843F9E7F8B571
:100C40002A4D5726294C0021A827203D0028267030
:100C500027700ED0012068712871002020700120BB
:100C600000F0A0F8267027700D2028710020207059
:100C7000F8BD29712170F8BD1D4801690422914316
:100C8000016130BF7047194B57241C70A8251D7097
:100C900016494039887B0822104388730920134E77
:100CA0000003203E308000271F70886B8A6B8242D1
:100CB000FBD1104A0A30904201D9524280180204F6
:100CC000120C02D0012212048018302232741C70DF
:100CD0001D7048632F2070741F701C701D700520DC
:100CE00008811F7040BF20BF20BFFEE740100040BA
:100CF00000ED00E00000C0A83C49062805D0497975
:100D000001228240114008467047087808210840B7
:100D10007047364857210170A8210170817901225E
:100D200011438171002101707047314909680160E8
:100D300000202F49C0438031086070472C4908606B
:100D400070472C4880697047284957220A70A822AA
:100D50000A700028887905D0042210438871002089
:100D600008707047FB221040F8E7204957220A70AC
:100D7000A8220A700028887905D0022210438871C1
:100D8000002008707047FD221040F8E717485721EF
:100D90000170A82101708179102211438171002115
:100DA0000170704700220AE0022101E000BF00BF8D
:100DB0000B46491E89B2002BF8D1521C92B28242D6
:100DC000F2D3704770B500247D260546F60004E096
:100DD0003046FFF7E7FF641CA4B2AC42F8D370BD05
:100DE0000549CA7A082AFCD00872704740100040B2
:100DF00000E100E000E000E00034004010B50446EF
:100E0000FFF70AFB0A214843C008214600F030FAE8
:100E10000A21401D00F02CFA2249888110BD10B52E
:100E2000E1204002FFF7EAFF1E488721817003217D
:100E3000C170402141700121817310BD19498A7828
:100E40009206920E800102438A707047154A00286C
:100E5000507806D00843507010780821084310706D
:100E600070478843507070470E4980204870704723
:100E70000C4A07E0D37A082B04D003781372491E7A
:100E800089B2401C0029F5D1704701460020054A6F
:100E900004E0137A401C0B7080B2491C937A002B3B
:100EA000F7D1704700340040F0B5564A0021157E56
:100EB000547E01261676507E082318435076967687
:100EC000907EC007FCD19676937EDB07FCD1978B92
:100ED0004D4B401CBB43591880B21028F3D3083146
:100EE0000809517EF7231940517615765476012171
:100EF000C902081A00B2F0BD028800290DD00129EC
:100F000011D0022915D0032906D140494A43910145
:100F10003F4A8918090C01807047F92189004A432A
:100F200091013C4AF5E73949491E4A4391013A4A41
:100F3000EFE736494A439101384AEAE7800109015F
:100F4000C01C08432F494876704780010901401DA5
:100F500008432C49487670472A48C17E80221143B5
:100F6000C1760F21017621214176704725480E2157
:100F700001760321417670472248232141760821DA
:100F8000817670471F4801218176817EC907FCD197
:100F9000808B0005000D70471A4908228A76C877B1
:100FA000887EC006FCD4888B0005000D704770B5A4
:100FB0001B4D4021AB6B9AB21C0C144B3E33584373
:100FC000C00A0301002C05D090012033181822011B
:100FD000801A13E0686B040C010A09190918050E40
:100FE000C9B28D4201D0FF2070BD1146E4B2520853
:100FF00000049A184C431219000B101A00F04EF915
:1010000070BD000040100040FF0F0000E60300002C
:101010008014340040B0370080C2370040213600D1
:101020000006040010B5FFF774FA022801D9FFF793
:1010300070FA10BDF8B5534CE77E267E657EFFF74B
:101040008BFFA07E01210843A076A07EC007FCD1C3
:10105000A08BE77626766576F8BD30B58DB0122286
:1010600049A14E4802F087FE002841D0454857214B
:101070000170A82101705121424AC900403A1181F2
:10108000002101704748464A4261474A0724D36914
:101090001B021B0A45042B43D36181610461016972
:1010A00002229143016134220021684602F05AFF76
:1010B0003E48009001204003694688801B20C87389
:1010C000052008740120487414208874FB208002D5
:1010D00002900D2008773648089036480A90084656
:1010E00000F0D8FA010007D033A002F063FBFEE75E
:1010F00039A002F05FFBFEE70DB030BD70B50C46C5
:1011000009040AD502F04CFF002801D002F032FF9A
:1011100001212046C903484070BDE00702D00120EC
:10112000604070BD314DA00405D500F02FFB0126B5
:101130002F4A760308E060040DD52EA002F03AFB9A
:101140007D22D2010126B6033146287802F0AEFF97
:101150002046704070BD002070BD10B5264802F0DA
:101160009FF9224C207000F063F862B6204A0121FA
:101170004903207802F09AFF10BD10B500F0CEF9B7
:1011800010BD00004010004043483537785F424CA6
:10119000455F4C49425F56312E3800004641000001
:1011A000FEFFFF0000E000E004ED00E094420020BC
:1011B000430D0000351000004C494220696E6974EF
:1011C000206572726F7220636F64653A2025782003
:1011D0002E2E2E0A00000000686561642066696C8E
:1011E00065206572726F722E2E2E0A002B4200202F
:1011F00000EE02002A200000FD1000000104090C8E
:1012000002D0012109044018164957220A70A82269
:101210000A70144940394863134900200860704738
:1012200010493020203908740F49012008607047A8
:101230001CB50C4857210170A821017009492039BB
:10124000CA7B07231A43CA730021017000910B4621
:101250000122019111460548FFF7FCF9002002F038
:1012600053FA1CBD401000402C420020E40700004F
:1012700030B50B46014600202022012409E00D462E
:10128000D5409D4205D31D469540491B25469540B6
:1012900040191546521E002DF1DC30BD70B50024FA
:1012A0002546002801DA01244042002901DA0125FF
:1012B0004942FFF7DDFFAC4200D04042002C00D095
:1012C000494270BD10B5202A04DB0146203A914006
:1012D000002010BD914020239C1A0346E34019438F
:1012E000904010BDF0B51FB40646002082B0054600
:1012F0004024019100901BE0019922460F463046A0
:1013000000F032F8049A059B801A994110D31046D8
:1013100019462246FFF7D6FF361A8F41019722461B
:1013200001200021009FFFF7CDFF38184D410090AC
:101330002046641E0028DFDC019B009829463246C7
:1013400007B0F0BD064C0125064E05E0E36807CC6A
:101350002B430C3C98471034B442F7D3FEF79CFE65
:101360005C4100008C41000010B5202A04DB0846D7
:10137000203AD040002110BD0B46D340D04020245D
:10138000A21A91400843194610BD000010B5124C36
:101390002068C0051FD50320206000200821401CC4
:1013A0002268C0B20A4322600EE02268920510D47F
:1013B000222807D90948026B002A0AD001210320FC
:1013C000904706E0401CC0B22268D205EDD5002847
:1013D000E5D10020206010BD80C30040B062002035
:1013E00004480349006801600349C1627047000076
:1013F000A52208016C420020784E010010B5074C70
:101400005D202168086500F005FB2068002101656A
:1014100003484279521C4271C17110BD50420020F4
:101420000463002070B52C49002048602B480089D7
:101430002B4CC0B28109022904D0012908D08109AE
:1014400016D026E0C820A0801020E080E8201FE011
:10145000C506ED0E2D2029468001FFF709FFA0806B
:1014600029467820FFF704FFE08029461D480DE05B
:10147000C506ED0E2946C020FFF7FAFEA0802946DA
:101480000820FFF7F5FEE0802946E820FFF7F0FE90
:101490002081164914480860164915480860174904
:1014A0001548086017491648086018491648184C2E
:1014B0000860184920680122D2020861801848613A
:1014C0000120487100F062F9607D002802D11249C4
:1014D0002020086070BD0000544200200010004031
:1014E000E4620020980D000000C00040704200201F
:1014F00000C300406842002000C20040504200206B
:1015000000D000407442002000C100406C42002026
:10151000B06200200463002000E100E0F8B5564806
:10152000006881680127C9050025544C544E0029E4
:101530002EDA81683A0291438160207840060CD50A
:10154000504851490068884206D15049886BE06094
:101550008A6B9042FAD100E08047207838432070AF
:101560006570E079062803D043495D200968086565
:10157000306800280AD001690A68406902430A609D
:1015800031680868026889680A4302606571A5606D
:10159000394B18688168890521D58168012252027A
:1015A00091438160A0783843A070E57038480068A6
:1015B000C16A89088900891CC1620168D20411438B
:1015C0000160306800280AD041680A6880680243D8
:1015D0000A603168C868026849690A43026018688D
:1015E0008168890717D58168022291438160E7707D
:1015F000A5705D210165306800280AD001690A687C
:10160000406902430A6031680868026889680A43D1
:1016100002606571A56018688168C90715D0816886
:1016200049084900816025706770306800280AD039
:1016300041680A68806802430A603168C8680268C5
:1016400049690A4302606571A56018688168C90626
:1016500003D581681022914381608168490703D5D1
:1016600081680422914381608168090703D58168FC
:10167000082291438160F8BD50420020046300209D
:10168000584200204C420020FD3200000010004073
:101690006C42002070B504460068002828D0012163
:1016A000000C4903884223D1A088002820D020467E
:1016B0000622FF21163002F04FFB01281AD0A28823
:1016C0000021206802F04EFC342200212D4802F057
:1016D00049FC342221462B4802F05BFB29480622B4
:1016E00016300021054602F037FB012804D008E03F
:1016F000022070BD032070BD23490622284602F057
:1017000048FB20488189002902D1012149028181B9
:10171000827B0121002A00D18173C27B002A01D182
:101720001B22C273027C002A01D105220274427C72
:10173000002A00D14174817C002901D114218174D7
:10174000817F002901D128218177C17C002908D01F
:10175000827FE17C92088918C174617F002904D0DE
:1017600005E0817F89082D31F6E702214177806A03
:10177000002803D0804703493431488101F048FEF6
:10178000002070BDB06200200806040010B500F013
:1017900021F800F05DF800F0D7F8FFF721FE0B4CC0
:1017A0005D202168086500F0E7F900F0A5FF00F072
:1017B000ABF900F02FF906480121417122680021A0
:1017C0001165C171FFF7E2FD10BD0000504200201D
:1017D000046300200A48094900680A6902610A692D
:1017E000426149698161C1618268012149030A43FB
:1017F0008260C2680A43C260704700000463002030
:101800007042002030B5104A0346517AFD208424EE
:1018100054720E4CA568002D07D0A57B002D04D076
:10182000A489E51FFF3DFA3D02D05172FF2030BD73
:101830007D24E402A34205D35360A6201072907A5F
:1018400040235840517230BD00180040B062002063
:101850000B480A4900688A884261CA88C2618B883D
:101860004362CA88C2624363C2634364C264098933
:1018700081651F2141600349C1607047E462002017
:10188000504200201F030000F8B507462A48C178DF
:101890000020C04300294BD0002F49D027490C6DB0
:1018A000002C45D00646E079012811D1608EA18D2B
:1018B00088420DD2627B012A0AD1254680356A6FA3
:1018C000002A05D1AA68002A02D1E27BC02A03D0EF
:1018D00098200159208E0EE0091A6869401E414384
:1018E0000091A16F0098FFF7C3FC401C80B22086D6
:1018F000AA6900995118814201D30D1A02E0091A10
:101900000F480D18AE4200D92E462468002CCAD1CB
:101910000C4800688047B04201D8301A06E0B04257
:1019200007D58642F9D2311A054808183860304682
:10193000F8BD00213960F8BDE46200205C6300203E
:101940000000C0A84C42002070B531480921006851
:10195000C9018162826C0721090703238A435B075F
:10196000D2188264836C0F2212030324934364030E
:101970001B198364836CCC0023438364C36C0C15F4
:10198000A343C364436D802423434365C36B9343E4
:1019900022029A18C263C36B0A119343A4041B1951
:1019A000C363C36BDC000123E4089B07E418C46332
:1019B000C46D0C43C465C56D0C122543C565C56D6A
:1019C0000E133543C565C56D9543C565C56AA54309
:1019D0005C122C19C462C46A944305221206A21830
:1019E000C262C26A032424032243C262C26A24017F
:1019F0002243C262026B120912010263026BF024DD
:101A0000A2430263026B8A43D118016370BD0000D8
:101A100074420020FFB53B480068826D0121090433
:101A20008A43826582680A438260002501468031CC
:101A30002B468C466E46C168FF240134A143C16029
:101A40004168220211434160C1682143C16061467F
:101A5000C968C905FBD500BF00BF00BF00BF614614
:101A6000C9680C074168240F914341600F2C01D0D5
:101A70006D1CEDB2002110E0725CA2420BD91A4637
:101A800005E0B718203FFF7FB754521ED2B28A42FA
:101A9000F7D1745403E0491CC9B29942ECD399427E
:101AA00000D17454032D05D05B1CDBB2102BC2D3C4
:101AB000002D1ED03178082902D93246C91E0DE00A
:101AC000042902D93246891E08E0012902D932468A
:101AD000491E03E0002902D1032132461170816DB5
:101AE0000F22D201914332781207520D11438165C2
:101AF000FFBD826D0F21C9018A430521C90151181B
:101B0000F5E700007442002010B51A480068016D26
:101B100001231B049943016581685C0121438160B5
:101B2000C26810210A43C260C2688A43C26000BF13
:101B300000BF00BFC2680A43C260416801221203AD
:101B40001143416001468031CA69D205FCD500BF0E
:101B500000BF00BFC969026DC906C90E1A430265FC
:101B6000026D520952010A4302658168A1438160F6
:101B700010BD000074420020F0B5FF4887B0056832
:101B80006868FF21013188436860A86A09018843B9
:101B9000A862E86A10218843E862A8684A031043F3
:101BA000A86068680843686068684008400068602A
:101BB000A86BF24A0321104089034018A8636868A3
:101BC0000123184368602C46803420694001C10F0E
:101BD00020698001C00F0029F7D00028F5D02069C6
:101BE00086066069B60EC003400E01906868400822
:101BF00040006860A86BE721104009024018A86304
:101C000068681843686020694001C10F206980013D
:101C1000C00F0029F7D00028F5D020698006800E7B
:101C200004906069C003400E069068684008400058
:101C30006860A86BD321104009024018A863686847
:101C40001843686020694001C10F20698001C00FFE
:101C50000029F7D00028F5D020698006800E039077
:101C600060692721C003400E02900398301A06468F
:101C70004843FFF713FB0007216A000F0909090118
:101C800008432062262070432721FFF707FB000747
:101C9000226A000EF0218A431043206225207043FF
:101CA0002721FFF7FBFA0007226A000D0F21090226
:101CB0008A4310432062242070432721FFF7EEFA65
:101CC0000007226A000C0F2109038A431043206297
:101CD000232070432721FFF7E1FA0007226A000B57
:101CE0000F2109048A4310432062222070432721D8
:101CF000FFF7D4FA0007226A000A0F2109058A4378
:101D000010432062700130182721FFF7C7FA00073F
:101D1000216A00090F273F06B9430843206270017A
:101D20002721FFF7BBFA216A0007090109090843C7
:101D300020627001801B2721FFF7B0FA0007616A5B
:101D4000000F09090901084360621E207043272122
:101D5000FFF7A4FA0007616A000EF02291430843DE
:101D600060621D2070432721FFF798FA0007616A1F
:101D7000000D3A149143084360621C2070432721F0
:101D8000FFF78CFA0007616A000C3A13914308438D
:101D900060621B2070432721FFF780FA0007616A09
:101DA000000B3A1291430843606230461A214843BF
:101DB0002721FFF773FA0007616A000A3A1191437D
:101DC000084360623046192148432721FFF766FA2D
:101DD0000007616A0009B943084360623046182170
:101DE00048432721FFF75AFA616A000709010909E8
:101DF000084360623046172148432721FFF74EFA17
:101E00000007A16A000F090909010843A062162012
:101E100070432721FFF742FA0007A16A000EF02263
:101E200091430843A062152070432721FFF736FA3B
:101E30000007A16A000D3A1491430843A0621420E0
:101E400070432721FFF72AFA0007A16A000C3A1312
:101E500091430843A062132070432721FFF71EFA25
:101E60000007A16A000B3A1291430843A0621220B6
:101E700070432721FFF712FA0007A16A000A3A11FE
:101E800091430843A062300130182721FFF706FA7A
:101E90000007A16A0009B9430843A0623001272165
:101EA000FFF7FCF9A16A0007090109090843A062CC
:101EB0003001801B2721FFF7F1F90007E16A000FCD
:101EC000090909010843E06230460E2148432721F1
:101ED000FFF7E4F90007E26A000EF0218A4310439D
:101EE000E06230460D2148432721FFF7D7F900076C
:101EF000E26A000D39148A431043E06230460C2137
:101F000048432721FFF7CAF90007E26A000C39139A
:101F10008A431043E06230460B2148432721FFF7F4
:101F2000BDF90007E26A000B39128A431043E062F0
:101F300030460A2148432721FFF7B0F90007E26A3B
:101F4000000A39118A431043E062F000301827215B
:101F5000FFF7A4F90007E16A00093A4691430843F4
:101F6000E062F0002721FFF799F9E16A0007090113
:101F700009090843E06203E074420020FF00FEFF0D
:101F8000F000801B2721FFF789F90007216B000F64
:101F900009090901084320633046062148432721E7
:101FA000FFF77CF90007010E206BF02290430143FC
:101FB0002163B00030182721FFF770F90007226B6A
:101FC000000D39148A4310432063B0002721FFF726
:101FD00065F90007226B000C39138A431043206314
:101FE000700030182721FFF759F90007010B206B0B
:101FF0003A1290430143216370002721FFF74EF905
:102000000007226B010A38118243114321633046D5
:102010002721FFF743F90007226B000939468A435D
:1020200010432063206B000100092063049903988A
:10203000471A28213846FFF731F90007616B000F76
:10204000090909010843606378002821FFF726F990
:102050000007616B000EF022914308436063780033
:1020600038182821FFF71AF90007616B000D0F22BD
:102070001202914308436063B8002821FFF70EF96C
:102080000007616B000C0F22120391430843606349
:10209000B80038182821FFF701F90007616B000B21
:1020A0000F221204914308436063062078432821DD
:1020B000FFF7F4F80007616B000A0F221205914345
:1020C00008436063F800C01B2821FFF7E7F800070A
:1020D000626B00090F2109068A4310436063F80010
:1020E0002821FFF7DBF8616B0007090109090843A4
:1020F0006063F80038182821FFF7D0F80007A16BBB
:10210000000F090909010843A06338460A21484322
:102110002821FFF7C3F80007A26B000EF0218A43C5
:102120001043A06338460B2148432821FFF7B6F837
:102130000007A26B010D0F20000282431143A1632F
:1021400038460C2148432821FFF7A8F80007A26B66
:10215000010C0F20000382431143A16338460D2177
:1021600048432821FFF79AF80007A26B000B0F21C4
:1021700009048A431043A06338460E2148432821AE
:10218000FFF78CF80007A26B010A0F2000058243BD
:102190001143A1633801C01B2821FFF77FF8000716
:1021A000A26B00090F2109068A431043A06338017E
:1021B0002821FFF773F8A16B0007090109090843FB
:1021C000A063380138182821FFF768F80007E16B91
:1021D000000F090909010843E0633846122148430A
:1021E0002821FFF75BF80007E26B000EF0218A431D
:1021F0001043E0633846132148432821FFF74EF887
:102200000007E26B000D0F2109028A431043E063CF
:102210003846142148432821FFF740F80007E26BB5
:10222000010C0F20000382431143E163384615215E
:1022300048432821FFF732F80007E26B010B0F201B
:10224000000482431143E1633846162148432821A4
:10225000FFF724F80007E26B000A0F2109058A4303
:102260001043E0633846172148432821FFF716F84A
:102270000007E26B00090F2109068A431043E0635F
:102280003846182148432821FFF708F8E16B00077A
:10229000090109090843E063384619214843282108
:1022A000FEF7FCFF0007216C000F09090901084334
:1022B000206438461A2148432821FEF7EFFF000723
:1022C000226C000EF0218A431043206438461B2103
:1022D00048432821FEF7E2FF0007226C000D0F2182
:1022E00009028A431043206438461C2148432821B0
:1022F000FEF7D4FF0007226C000C0F2109038A436C
:102300001043206438461D2148432821FEF7C6FFAC
:102310000007226C000B0F2109048A43104320643C
:1023200038461E2148432821FEF7B8FF0007226CDB
:10233000000A0F2109058A43104320647801C01B5D
:102340002821FEF7ABFF0007226C00090F210906C8
:102350008A431043206478012821FEF79FFF216CF7
:102360000007090109090843206478013818282169
:10237000FEF794FF0007616C000F0909090108438B
:1023800060643846222148432821FEF787FF000772
:10239000010E606CF02290430143616438462321B2
:1023A00048432821FEF77AFF0007626C010D0F20D9
:1023B00000028243114361643846242148432821A6
:1023C000FEF76CFF0007626C000C0F2109038A43C3
:1023D000104360643846252148432821FEF75EFFFC
:1023E0000007626C000B0F2109048A4310436064EC
:1023F0003846262148432821FEF750FF0007626C2B
:10240000010A0F20000582431143616438462721E9
:1024100048432821FEF742FF0007626C00090F21A4
:1024200009068A4310436064384628214843FEF772
:1024300035FF616C000709010909084360643846EB
:10244000292148432821FEF729FF0007A16C000F2E
:10245000090909010843A06438462A214843282174
:10246000FEF71CFF0007A26C000EF0218A43104308
:10247000A064069A02983946801A0A2200905043B6
:10248000FEF70CFF082108430007A16C000D0F2286
:10249000120291430143A16400983946C20080189A
:1024A000FEF7FCFE082108430007A16C000C0F2278
:1024B000120391430143A16400983946C000FEF71E
:1024C000EDFE082108430007A16C000B0F22120447
:1024D00091430143A16400983946C200101AFEF7E7
:1024E000DDFE082108430007A16C000A0F22120537
:1024F00091430143A1640098062239465043FEF7F8
:10250000CDFE082108430007A16C00090F22120626
:1025100091430143A1640098394682008018FEF778
:10252000BDFE08210843A16C000709010909014308
:10253000A164009839468000FEF7B0FE08210843E8
:102540000007E16C000F090909010143E1640098EB
:10255000394642008018FEF7A1FE08210843000713
:10256000E16C000EF02291430143E164009839468A
:102570004000FEF793FE082108430007E16C000DC0
:102580000F22120291430143E16439460098FEF79D
:1025900085FE082108430007E16C000C0F2212039E
:1025A00091430143E16431460020FEF777FE0007C6
:1025B000E16C000B0F22120491430143E164029A83
:1025C00001983146871A3846FEF768FE0007E16C2D
:1025D000000A0F22120591430143E164314678005D
:1025E000FEF75CFE0007E16C00090F221206914322
:1025F0000143E164780031463818FEF74FFEE16C84
:102600000007090109090143E1643146B800FEF7FA
:1026100045FE0007216D000F0909090101432165ED
:10262000B80031463818FEF739FE0007216D000E5C
:10263000F022914301432165062031467843FEF79D
:102640002DFE0007216D000D0F2212029143014360
:102650002165F8003146C01BFEF720FE0007216D02
:10266000000C0F2212039143014321653146F8000B
:10267000FEF714FE0007216D000B0F221204914398
:1026800001432165F80031463818FEF707FE0007C0
:10269000216D000A0F2212059143014321650A2092
:1026A00031467843FEF7FAFD0007216D00090F223D
:1026B00012069143014321656968102081436960D6
:1026C0006968490849006960A96A02021143A96260
:1026D000E96A0143E962A86B810903988901014312
:1026E000A963A86B7F21090688430299090608435C
:1026F000A86307B0F0BD0000034800684168FF22EE
:1027000001321143416070477442002070B5254882
:10271000244D427FA02020350C464243C907287E25
:10272000EB7E00290AD0810706D5000600D41022CE
:102730000421184601F0BAFC01202EE0A1070ED5B5
:1027400041070AD5000603D508211846283202E0C1
:1027500028220821184601F0A9FC02201DE061078B
:1027600004D5002001F098FA042016E0210705D5D1
:10277000400701D500F0C2F808200EE0E0060ED5B3
:1027800001F050FA0848C079062805D11922E87EE0
:102790009201102101F08AFC1020604070BD0020E1
:1027A00070BD00001C6300200463002010B50446C7
:1027B0004069002817D0202200211B4801F0D2FBDD
:1027C00020222146184801F0E4FA174C20346068B2
:1027D000002801D001F040FB0020134960608869A7
:1027E000002802D004E0012010BD0020C043886111
:1027F000487F002801D128204877887F002801D110
:1028000008208877C87F002801D11120C877FF20D1
:1028100020706070A070E0704878607788686061B0
:1028200048682061002010BD1C630020F8B51748DF
:1028300000688047164EB168814225D0154F884206
:1028400001D3401A01E0401AC019114D4409203D3E
:10285000A87FA04218D800F079F8A87FB26841019B
:10286000241A5118B94202D30A4A52428918B16057
:10287000A042F0D90848006801686A78C909C9010E
:102880005206520E11430160F8BD00004C42002078
:102890003C6300200000C0A86C420020F8B514483A
:1028A00000688047134EB16881421FD0124A8842A7
:1028B00001D3401A01E0401A8018C5060D4FED0EF5
:1028C0004409203FB87F0CE000F040F8B87FB268C0
:1028D00041015118084A241A914201D352428918E1
:1028E000B160A042F0D960012843F8BD0020F8BDD6
:1028F0004C4200203C6300200000C0A870B500F0EE
:1029000055FB114C08212546607F203D68706069A9
:10291000A86020696860E07E01F002FCE07E04218E
:1029200001F0FEFB207E810704D500221146222003
:102930006B6905E0400704D500226B69114624202D
:1029400098470020207670BD3C63002070B519497F
:102950000E46203E487EF27F8018C0B2707020285C
:1029600001D320387070C0B2487601252946B46979
:1029700081400C4216D100210A462B4693401C424E
:1029800001D0491CC9B2521C52B2202AF5DBFEF715
:102990006FFC002210462B4683401C4205D08A4221
:1029A00001D1707070BD521C52B2401C40B2202840
:1029B000F1DB70BD3C630020FEB5F84AF64F1646C9
:1029C000F979002510782036052902D0062976D01D
:1029D000D4E1C0074FD0B878C0071ED0BD70EF4813
:1029E0000022436911460120984780203871EC4845
:1029F000007DC00701D04B2300E04E23E948816BE6
:102A00000091826B8A42FAD1C818E749884201D303
:102A100049424018E549C8603AE0F878002837D0C4
:102A20000024FD7000F0C2FA78690268D1430906FB
:102A3000090E06D07178FF2903D0D2B28A4200D0A5
:102A40000224D6490978090601D5002200E0024691
:102A5000002101F061F80146D048214343697A69B9
:102A6000022098473D71307E800711D5F07E01210C
:102A700001F0CEFA0CE0F878002809D0FD7000F0E3
:102A800095FAC648002243691146012098473D71D6
:102A90003879C0079CD03D7100F088FA01F0C2F887
:102AA000B8780006BD48436904D5002211461120BC
:102AB00003E004E000221146122098475EE1C107BE
:102AC0007AD03978C90778D07C693D7001AA002195
:102AD000204601F021F8050008D1F078FF2805D044
:102AE0002178FF2902D0884200D00225AB48007827
:102AF000000605D4002D05D168460079207016E047
:102B0000002D14D001F030F8A4487A6943692946B1
:102B1000032098477068B378F278002802D0417893
:102B2000801C01E00021084600F060F905E1307EDC
:102B3000400718D56078205C802814D17068002880
:102B40000CD03969FF20086095483969807C48605D
:102B500097480068C168490B4903C1608F4810223B
:102B6000017811430170706840783A2810D9914C6F
:102B70002168914882689202920E162A10D08268CB
:102B80009202920E1A2A03D28268120C9206F1D196
:102B9000802038718248007DC0070FD04B220EE0A4
:102BA0003022844BD24380331A6082689202920EA4
:102BB0001A2AFAD32160EBE7A0E06AE04E22794BB3
:102BC000986B0090986B00998842F9D188187649E3
:102BD000884201D3494240187449C86000217748AF
:102BE00000F074FC307E844640074DD57C696C4A09
:102BF0006078127DC000A030F968D20702D01F3083
:102C0000400902E06E4A5043400C814201D3091A48
:102C100002E0091A64480918F960B0680A4681425E
:102C200001D3121A02E0121A5F4812186378601C6E
:102C3000185C6346C0001B0610D5824208D9121AE0
:102C400007E0081A02E0091A57480818B06011E0B6
:102C5000821A202A0ED88142F5D3F2E7814201D3AD
:102C6000081A02E0091A50480818B060604680212E
:102C700008433076F07E022101F0CAF9B07EC0062A
:102C80005BD46078801E607044487A692946436945
:102C900051E07978002920D07D703D7100210846EF
:102CA00000F014FC3D4C2078C0060FD500F05CFF0E
:102CB0007068B378F27800281DD04178801C00F04D
:102CC00095F82078EF210840207036E000F06EF98A
:102CD00000221146042063692EE03979C9072CD0FF
:102CE0003D712E4CC006E1D400F060F9002211467F
:102CF0001420636920E000210846E0E77878002886
:102D00001BD000247D7000F051F978690168CA4336
:102D10001206120E06D0F278FF2A03D0C9B29142F1
:102D200000D002240246002100F0F6FE20430146B6
:102D30001A487A69436903209847307E400701D5D5
:102D4000FFF774FD174CA06B0090A06B00998842B0
:102D5000F9D1F068814201D3081A02E0091A124839
:102D600008187D210902884208D900F05BFFA06B9A
:102D70000090A06B00998842F9D1F160B07E4007C5
:102D800024D5F879062821D07068B378F278002825
:102D900018D04178801C17E0046300201C630020D9
:102DA000B0620020001000400000C0A8E4620020D3
:102DB0007042002000E100E000C20040B92900009C
:102DC000C71000000021084600F010F8FEBD00000A
:102DD00010B5FEF727FB034800F062FB0249C876F6
:102DE000002010BD0D2700003C630020FFB5644D9E
:102DF0000C4628689C46016881B0134689070ED0AE
:102E0000016DC908C900016501680822114301600C
:102E10000168090703D500BF00BF00BF00BF5921EB
:102E20000165584E3068C16A07221205914301229C
:102E300052058918C162C16A072212069143052210
:102E400012068918C162504800680168CA094F49D2
:102E5000D2014F787F067F0E3A4302604A68826053
:102E60008A680261CA6842600A69C260286842686A
:102E7000097852085200C907C90F0A434260434FFC
:102E800061462037FB70B9704068C00739D0786858
:102E9000002806D14921A01C00F088FF7860002896
:102EA00010D00198002810D0002C0ED07968B87886
:102EB000087078682246447078680199801C00F098
:102EC00068FF08E0012005B0F0BD7968B8780870A7
:102ED00078680024447079682D484A780069921C0B
:102EE00000F057FF2B48817C29480269601D80084B
:102EF0008000115028480068C168490B49032143EC
:102F0000C160B87E04210843B876214C402020706F
:102F10000020607020710521204800F0D7FA0620BB
:102F2000E0711F48816B0091816B009A9142F9D149
:102F3000FA6031681B4A00200B46803312890FE08B
:102F40001C69E40109D5C86A072212051043C8624A
:102F5000C86A12019043C86204E000BF00BF401C71
:102F60008242EDDC10480068002804D0C1680A687D
:102F7000406902430A602968012008600020A2E736
:102F800050420020744200206C4200201C6300204C
:102F900004630020B062002070420020B9290000C4
:102FA00000100040E46200205842002070B50B4C35
:102FB00000250B48A57605716068002801D000F057
:102FC0004BFF00210846656000F080FA05210020D3
:102FD00000F07CFA00F0C8FD002070BD3C630020CA
:102FE00004630020FFB5B54F83B038680C46006815
:102FF000800701D000F0B8FDB148B24D007E8007D7
:1030000008D5FFF74BFC1028FBD3A97F49011039E5
:103010008142F6D339685A200865AB480068C26A15
:10302000072109058A43012149055118C162C26A75
:10303000072109068A43052109065118C162A348E0
:1030400000680168CA099F49D2014B785B065B0E94
:103050001A4302604A6882608A680261CA684260F4
:103060000A69C2603A6853680D785B085B00ED0737
:10307000ED0F2B4353600A7802231A430A70944ED3
:103080008021B1700021F1708D4D0599297006994C
:103090006970C16A89088900C1620168DA069143D2
:1030A00001600398002809D03069297801704470C4
:1030B0002246801C039900F06CFE02E031692878FA
:1030C00008607E4800684068C00701D0002100E029
:1030D0000521804800F0FAF97D480521C1717A493F
:1030E0007D4E096800200B468033328910E01F694D
:1030F000FF010AD5CB6A07273F053B43CB62CF6A66
:1031000007231B069F43CF620AE000BF00BF401C9D
:103110008242ECD804E000BF00BF00BF00BF401CEB
:103120008242F8D86D480068002804D001680A6817
:10313000806802430A60664F802038716848007DCD
:10314000C00701D04B2200E04E226648816B0091FF
:10315000816B009B9942F9D163499818884201D349
:1031600049424018F060287E80071ED55F483E69BE
:1031700000688047A968884201D3401A02E0411ADA
:10318000594808184F49C0080978C90606D5584952
:103190000224000640183969086006E0A41CE4B265
:1031A000747000213155311948704D483A69817C5D
:1031B000601D8008800011504E4908688268520BDB
:1031C00052032243826080684B4AC004C00C3A28F4
:1031D00005D910680190484B501780331860374B61
:1031E00002201B68186008688068C004C00C3A2878
:1031F00061D900BF00BF00BF00BF00BF00BF00BF5C
:1032000000BF00BF00BF00BF00BF00BF00BF00BFC6
:1032100000BF00BF00BF00BF00BF00BF00BF00BFB6
:1032200000BF00BF00BF00BF00BF00BF00BF00BFA6
:1032300000BF00BF00BF00BF00BF00BF00BF00BF96
:1032400000BF00BF00BF00BF00BF00BF00BF00BF86
:1032500000BF00BF00BF00BF00BF00BF00BF00BF76
:1032600000BF00BF00BF00BF00BF00BF00BF00BF66
:1032700000BF00BF00BF00BF00BF00BF00BF00BF56
:1032800000BF00BF00BF00BF00BF00BF00BF00BF46
:1032900000BF00BF00BF00BF00BF00BF00BF00BF36
:1032A00000BF00BF00BF00BF00BF00BF00BF00BF26
:1032B00000BF01981060002007B0F0BD5042002010
:1032C0003C6300201C630020744200206C420020FC
:1032D00004630020B9290000E46200205842002065
:1032E000B0620020001000400000C0A84C42002046
:1032F000FF0280007042002000E100E008B50448B1
:10330000816B0091816B009A9142F9D1104608BD02
:103310000010004038B51648816B0091816B009A0F
:103320009142F9D1134C1046217DC90705D01249AD
:1033300000F050FA8A04810B04E0192100F04AFAE7
:10334000CA05410A11430D4A906988420DD088424E
:1033500001D2081A07E0237DDB0701D0084B00E00B
:10336000084B181A4018916138BD002038BD000084
:1033700000100040B062002033030000E46200202F
:1033800000796F0800603D08002908D0002A02D1AA
:1033900005E008C808C2491EFBD200207047FD2086
:1033A0007047000070B50C46014620040AD5084657
:1033B00000F0F6FD002801D000F0DCFD0120C00384
:1033C000604070BD6004FCD0002632462046D040EC
:1033D000C00713D0002901D00F2000E000200B49C6
:1033E00080184968C00045180120904086B22968BD
:1033F0006868884700202860686003E0521CD2B2E9
:103400000F2AE3D32046704070BD000030420020F8
:1034100070B500F077FD1C2200211E4800F0A2FDCF
:103420001C4820220021503000F09CFD1A4D002045
:10343000286168611748174C1C30007F50348107A1
:10344000890F80080818410040180D30C0B2A070E4
:1034500006214843FF210231F03000F0A7FC6860EC
:10346000F030A860A17889000818E86000F092FDAB
:1034700000F002FE6078094A8100A8684250617835
:10348000491CC9B26170890042506078401C60706C
:1034900070BD00009462002030420020A53300007F
:1034A00010B50849024648788B78984207D2064CF6
:1034B0008300A468E2504A78521C4A7010BDFF2075
:1034C00010BD0000E462002030420020072902D233
:1034D000014A89005050704794620020FEB5864D25
:1034E00002E0804700F070FB28680028F9D1012431
:1034F000A0002858002807D080477F481C30407D16
:10350000002801D0FEF70AF82868002875D1641C4D
:10351000E4B2072CECD3784C784E50346278F068E3
:1035200021784B00C35A002B04D1491CC9B2217029
:103530009142F5D3C9B2914211D24A00815A002377
:1035400083522078B36882009A5890472178F268B5
:103550004900535A034353522078401C207020786E
:103560006178884201D300202070634800680028F9
:1035700043D17069002840D0804700283DD0616960
:103580000546091861610021C9435C48216106694B
:10359000002E29D00027B068A84201D8002000E002
:1035A000401BB06054481C30406A002804D0216998
:1035B000B068814200D92061B06800280DD17188BF
:1035C00000291BD0307800F023FD7068002801D05E
:1035D000B06002E0B068002810D0708800280DD0DC
:1035E0003746F668002ED6D1434D1C35686A002850
:1035F00003D00020414A617814E07CE0002F06D01F
:10360000F068F8603046F66800F026FCEAE73B48D0
:10361000F1680161F6E7D6684300F35A002B6AD1DE
:10362000401CC0B28142F6D83349032082008A5838
:10363000002A60D1401CC0B20728F7D301A8FEF7CA
:1036400023F902462E49401C24D0EB7C019EB34254
:1036500051D22069471C16D02A7DD20702D01422ED
:10366000504302E0292250434008834243D286421D
:1036700000D23046C61A2348826B0092826B009BB0
:103680009A42F9D11DE09A4201D3D01A1FE0D01A14
:1036900040181CE02069421C2DD02A7DD20702D0A0
:1036A0001422504302E0292250434008EA7C82421F
:1036B00021D2861A1348826B0092826B009B9A4239
:1036C000F9D19819884202D30D4A52428018002835
:1036D00002D0696A884702E06A6A08469047000695
:1036E000000E08D12089002805D0FEF773F8FEF7F8
:1036F000AFF8FDF775FEFEBD946200203042002059
:103700000000C0A80010004010B504460848C16A77
:10371000002900D088470748002C01D0046001E050
:1037200005490160054800F00BF8002010BD0000BD
:10373000B06200204C420020FD3200001533000032
:1037400010B50349486180470249886110BD0000F7
:1037500030420020E4620020F0B5144EFD23757A5B
:1037600084247472124CA768002F07D0A77B002F07
:1037700004D0A489E71FFF3FFA3F02D07572FF20F3
:10378000F0BD7D24E402A0420AD34027491E07D39E
:10379000706008CA33609A233372B37A7B4002D0D8
:1037A00075721846F0BD001DF0E7000000180040DB
:1037B000B06200200FB410B503A9044B044A02986C
:1037C00000F03CF810BC08BC04B01847E10D000044
:1037D00090420020F8B5040C8BB2264682B25E43BC
:1037E0000D0C1046370C58433604801900217941DE
:1037F00016466E43370C36048019794126466E43CF
:103800008919F8BD30B47446641E2578641CAB4237
:1038100000D21D46635D5B00E31830BC184702E030
:1038200008C8121F08C1002AFAD17047704700204B
:1038300001E001C1121F002AFBD17047FFB58FB014
:103840000F460446002606E025280AD0129A119950
:103850009047641C761C20780028F5D1304613B0C0
:10386000F0BD00250121A14A009500E00543641C3C
:1038700023780846203B98401042F7D120782E2824
:1038800015D1042005436078641C2A280AD101CF91
:10389000641C00900BE000990A2251433039401813
:1038A000641C00902078014630390929F3D920782A
:1038B0006C280ED004DC4C2813D06A2812D104E006
:1038C00074280ED07A280DD10BE001204005054365
:1038D00007E00121090562780D43824201D16D188C
:1038E000641C641C2078864669284AD008DC0028BD
:1038F000B4D058286DD0632810D0642808D140E097
:1039000070286BD0732812D0752860D0782860D0CA
:10391000129A704611999047761CE5E0387869460E
:1039200008720020487202A80190012003E0386864
:1039300001900020C0433F1D69070CD5002500E021
:103940006D1C00998D420FDA8542F9DB0199495DC2
:103950000029F5D108E0002500E06D1C8542FCDB64
:103960000199495D0029F8D1761907E0019801997C
:103970000078491C0191129A119990476D1EF5D259
:10398000B2E00A20029000216802400F0391022851
:103990000CD001CFC117844600290DDA62460846D3
:1039A00052420021814194462D2008E0FF1DFF086E
:1039B000FF0003CF8446EFE7280504D52B206A4695
:1039C000107401203CE0E8073AD02020F7E70A20F5
:1039D00000E0102000210391029007E010200290E7
:1039E0000021042005430820039100906802400F45
:1039F000022810D001CF0021844600200D90280716
:103A00001FD5704670280CD0029A1020039B4240AC
:103A10001A430CD015E0FF1DFF08FF0003CF8446BA
:103A2000EBE740206A46107401200D900CE06046E0
:103A3000084306D030206A46107470465074022045
:103A40000D907046582804D029A001900DA80E9022
:103A50000DE02CA0F9E76046039B029AFDF742FCBB
:103A6000019B84469B5C0E9A521E0E921370604618
:103A70000843F0D10E9805A9081A20300190680774
:103A800001D5009801E0012000900199884203DDF2
:103A900001460198081A00E000200025009006E089
:103AA00004A8129A405D119990476D1C761C0D98E0
:103AB0008542F5DB04E0129A302011999047761C7C
:103AC0000099481E00900029F5DC08E00E980E9938
:103AD0000078491C0E91129A11999047761C019911
:103AE000481E01900029F1DC641CB4E6092801009D
:103AF0003031323334353637383961626364656664
:103B00000000000030313233343536373839414225
:103B1000434445460000000030B5437803245B1D54
:103B20002343C45CE50601D5012030BD002903D044
:103B3000210601D5022030BD002A03D0C11820394A
:103B4000C97F1170C1182039487F897F4907490D05
:103B500008430449420502D51F22D20210430880BF
:103B6000002030BD5442002010B5144800680168A0
:103B700089070ED0016DC908C900016501680822D6
:103B8000114301600168090703D500BF00BF00BFF2
:103B900000BF002202650A4B586800280AD041681D
:103BA0000C68806804430C60586801690B684069C0
:103BB00003430B600348C27110BD00005042002057
:103BC000544200200463002008B51148407D0028BD
:103BD00001D0FDF7A3FC0F4B1879000612D50E4853
:103BE000816B0091816B009A9142F9D10B4910468B
:103BF000C9680122814202D8401A02D502E0081A9F
:103C000000D51A7106488069002800D0804708BD99
:103C1000B06200200463002000100040E462002035
:103C200094620020F8B519490126886A184D0028C9
:103C30001AD08047174F04467889002820D0A04228
:103C400001D2214600E00146A04200D32046081AD6
:103C50003C2815DD0D48C06A002800D080476E71F1
:103C6000FDF794FD7C81F8BD68790021002805D11D
:103C7000A868401CA8600007F5D56E71A96002E035
:103C800068790028EFD0FDF7B9FBF8BDB0620020DD
:103C900004630020E4620020F8B51C4C207E8107FC
:103CA0002FD52746203F3E78112030433870002022
:103CB000174D20770021637822780846FFF792F9A4
:103CC000FFF782FF2879C00702D0207F401C03E065
:103CD000E878C007F4D000202077FFF767F9207F4D
:103CE000002805D0C008E5D0FEF708FE3E70F8BDFC
:103CF000207E802108432076E07E012100F088F9B3
:103D0000F4E74007F3D5FEF7F9FDF8BD3C6300206A
:103D10000463002002460648006906E043888B429F
:103D200002D10378934202D0C0680028F6D17047D0
:103D300030420020064A5278824207D9054A4000A4
:103D4000D268135A8B4313520020704703207047E8
:103D5000E46200203042002010B5002805D0002386
:103D600005E0C45C8C4201D0002010BD5B1C934276
:103D7000F7D3012010BD10B507E003780C78401C84
:103D8000491CA34201D0002010BD521EF5D20120D3
:103D900010BD002808D0002906D003E00B7803707E
:103DA000401C491C521EF9D270470000F8B50D4660
:103DB000254A2649954202D10B78002B41D0002894
:103DC0003FD0002D3DD0C3435B1C9B079B0F1818B1
:103DD00084B21F4B342C01D8186800E058689B68E7
:103DE0001C4E984226D0C788002F1AD18788A74238
:103DF00017D3BBB21B1B082B0BD9031906689E6097
:103E00008688361B083E9E810026DE8108330360CB
:103E10008480C580954202D10A78521E0A7008300B
:103E2000F8BD00688700DCD4326B002A09D0014657
:103E300002209047326B002A03D02104294301203D
:103E400090470020F8BD0000018000007A42002069
:103E50005C420020B0620020F0B4264D00232A68A6
:103E60000028164636D0AC68A24233D2904233D3F3
:103E70001168814230D31146083188422AD3D08854
:103E80001D49884203D11D480178491C017000205A
:103E9000D080B2420DD0686882420AD0D88800280B
:103EA00007D110681860988891881A464018083021
:103EB00098801068A96888420CD06968884209D047
:103EC000C188002906D191888388C918083191805A
:103ED00000681060F0BC704711688B0002D5134673
:103EE0000A46C1E70648026B002AF3D0F0BC022064
:103EF000104700005C420020018000007A42002050
:103F0000B062002070B5134D13482968134C08188F
:103F10002060AA8889180839A160091ACA100021EE
:103F200000F020F8A8880E49884201D9C91000E0A5
:103F3000C10820680022091861600160091A083967
:103F40008180C2806068A1680160091A0839818097
:103F5000C28070BDB0620020080900005C420020F1
:103F600007100000002804D001E00170401C521E20
:103F7000FBD2704710B5002806D001462039897F52
:103F8000FF2903D0042010BD052010BDFFF764FFFA
:103F9000002010BD01490020086070474842002001
:103FA000F8B50026194F01213546C9033C6811E0D8
:103FB0002246203A927F824207D1002D04D0002C65
:103FC0000AD000F025F809E02546002D00D126464C
:103FD000803CA46F002CEBD100F0A2F8002D13D090
:103FE0003868A84204D128468038806F386004E0E1
:103FF00028468038806F803EB06728460021803890
:104000008167FF21603081772846F8BD4842002053
:10401000064A5278824207D9054A4000D268135AAC
:104020000B4313520020704703207047E4620020C6
:104030003042002070B50E4D0646A86800280BD00F
:10404000002406E0A889A96860430818FDF7DAFB98
:10405000641CA87BA042F5DC002E07D1054CE0696A
:10406000002801D0FFF7F8FE0020E061002070BDBD
:10407000B0620020E462002038B50B4CA068002834
:1040800010D06A460121FFF77FF9A06800998842A5
:1040900008D00020FFF7CEFF224608320121A06899
:1040A000FFF75AFB002038BDB062002070B504460F
:1040B0001948154640780E46A0421AD92046FFF707
:1040C00029FE002801D0856024E0210210204F3114
:1040D000FFF76CFE002804D0104A116900290AD0AD
:1040E0000CE00D483438026B002A02D0214604202F
:1040F0009047002070BD106104E01146CA68002A94
:10410000FBD1C86000218560C16046800470012237
:1041100042704160012070BDE46200203042002006
:1041200070B50D460646FFF7F5FD040001D00020EE
:10413000608029463046FFF7FDFD002C01D00020AD
:1041400070BD062070BD43483537785F424C455FEF
:104150004C49425F56312E38300000008C4100003F
:1041600000400020200200001E380000AC43000088
:1041700020420020740000001E380000204400008F
:1041800094420020782100002E380000804A002050
:10419000917A57250B077E49A8264031002B05DB75
:1041A0000D700E70937A0824234393720D700E7075
:1041B00005231381764F20373B8803246402A343F1
:1041C0003B80937A10242343937200220A700123C8
:1041D000BC79E40701D00020FAE77D242401401CCB
:1041E000A042F5D90D700E708B710A70F0E770B5B2
:1041F000674D2035A87B664940318C7B03221443F0
:104200002A8B644B9A4202D980088000401C5722B6
:104210000A70A8220A705E4AD37BF7263340D37314
:1042200000232B71A8738C73052010810B705A48E2
:10423000026904242243026130BF0B70012000F0A8
:10424000AFF870BDF0B5524A2032917B50484030F3
:10425000877B0323128B1F434E4B9A4202D9890856
:104260008900491C57240470A8250570484EF27B2C
:1042700008231A43F273464A0023203213719173C4
:10428000877305213181037043490E6904273E433A
:104290000E6130BF037004700570012151711171FE
:1042A000037000BF00BF047005700D211171037011
:1042B000F0BDF0B5364B20339A7B354940318E7BCB
:1042C000032426431C8B334DAC4202D99208920042
:1042D000521C57240C70A8250D70304F384318809D
:1042E000002008700C700D7018719A738E73284E30
:1042F000052232810870284A166904273E43166158
:1043000030BF08700C700D7001225A711A7108705C
:1043100000BF00BF0C700D700D221A710870F0BD47
:10432000F0B51B4B20339A7B194940318E7B032417
:1043300026431C8B174DAC4202D992089200521CA6
:1043400057240C70A8250D7009273F03C019188049
:10435000002008700C700D7018719A738E730C4EDB
:104360000522328108700C4A166904273E43166103
:1043700030BF08700C700D7001225A711A710870EC
:1043800000BF00BF0C700D700D221A710870F0BDD7
:1043900000100040FF3F000000ED00E0049000002E
:1043A00003B40148019001BD3F0C0000000102036D
:1043B000040506070809000000000000C3812F0162
:1043C00000000000000000000000000000000000ED
:1043D00000000000000000000000000000000000DD
:1043E00000000000000000000000000000000000CD
:1043F00000000000000000000000000000000000BD
:1044000000000000000000000000000000000000AC
:10441000000000000000000000000000000000009C
:040000050000009166
:00000001FF
