:020000040000FA
:1000000000800020A500000001000020AF000000DB
:1000100000000000000000000000000000000000E0
:10002000000000000000000000000000AF00000021
:100030000000000000000000B1000000B30000005C
:1000400031290000B5000000B5000000B500000037
:10005000B5000000B5000000B5000000CD1D000097
:10006000B5000000B5000000B5000000B5000000BC
:10007000B5000000B5000000B5000000B5000000AC
:10008000B5000000B5000000B5000000B50000009C
:100090000348854600F096FA00480047B54900003D
:1000A000008000200448804704480047FEE7FEE740
:1000B000FEE7FEE7FEE70000FD28000091000000DB
:1000C00030B50B46014600202022012409E00D46F0
:1000D000D5409D4205D31D469540491B2546954078
:1000E00040191546521E002DF1DC30BD70B50024BC
:1000F0002546002801DA01244042002901DA0125C1
:100100004942FFF7DDFFAC4200D04042002C00D056
:10011000494270BD03460B439B0703D009E008C961
:10012000121F08C0042AFAD203E00B780370401CA7
:10013000491C521EF9D27047D2B201E00270401C35
:10014000491EFBD270470022F6E710B513460A4657
:1001500004461946FFF7F0FF204610BD421E5378B3
:10016000521C002BFBD10B781370491C521C002B26
:10017000F9D17047421C0178401C0029FBD1801A3C
:10018000704703460A780270401C491C002AF9D1C6
:100190001846704730B505460020034600E05B1C5A
:1001A000934205D2EC5CC85C201A01D1002CF6D138
:1001B00030BD0321001D401E037812021A43491E60
:1001C000F9D510467047034603220870000A491CFF
:1001D000521EFAD518467047F0B51FB406460020E7
:1001E00082B005464024019100901BE0019922460F
:1001F0000F46304600F008FA049A059B801A994190
:1002000010D310461946224600F0EEF9361A8F41F7
:100210000197224601200021009F00F0E5F93818DF
:100220004D4100902046641E0028DFDC019B0098B1
:100230002946324607B0F0BDF0B50746084658409B
:1002400087B0C00F049048000E4659004008490886
:10025000BC1A884105D2384631461E4617460B4621
:1002600002465800400810434CD0300D0390400522
:100270005900400D490D0590401A0290402872DA4D
:1002800018030121000B090508430190049800920E
:10029000002805D001995242002088410092019027
:1002A000029840210A1A0199009800F09DF905462C
:1002B0000C466B4607CB00F0B8F9C0197141039AA0
:1002C0000E0D0023D71756401A467A40164344D0E5
:1002D000049A002A2DD0029A012A039A15DC1205ED
:1002E000C01A914101263605001C7141D20F059EAE
:1002F000D2070093019202962A46234600F0B5F9F0
:1003000007B0F0BD38463146FAE71605224A0F46D7
:10031000B218C01AB74101210905001C4F4100184D
:100320007F41114618187941E20F10436D1964415D
:1003300013E0E2076D0815436408C2071443039AEB
:1003400001261205C01A91413605001C7141CE07E5
:10035000400830434908C01851412A46234600F05E
:1003600077F9CDE7FFE7049801224000C117121A80
:1003700000238B4104983146C417381AA141EEE797
:1003800030B40124E407634030BC55E730B40124A5
:10039000E407614030BC4FE70000E0FFF0B51FB458
:1003A00088B00B990998002448400999C00F49006A
:1003B00049080991C0070B990090490049080B9121
:1003C00009990898A64608431CD00B990A98084337
:1003D00018D0099801244000420D4800410D0998A9
:1003E00024050003000B204309900B980003000B29
:1003F00020430B9050181C494018002201901446CD
:10040000104605E0002001460DB0F0BD032801DADA
:10041000034600E003239C46C11A0AAE0AE05F00CF
:1004200008ADED5B4F00F75B7D430027AA187C41C8
:10043000491C5B1E6145F2DD410004AB5A522104A8
:10044000120C0A43240C401C0828DFDB01980290A0
:100450000099704601910090059B049A07990698AF
:1004600000F003F9D0E700000DFCFFFFF0B50C46EB
:100470005C4085B0E40FE40703944C000026640858
:1004800059009446490802460296224321D062460A
:100490000A431ED06200570D4A000E032303550D78
:1004A000012402462C492405781B1B0B360B4018EF
:1004B00023432643614600901C46501AB44103D39F
:1004C0000098401C009002E0921800985B410028C0
:1004D00003DA0020014605B0F0BD00200121090526
:1004E0000746864611E064461D46141BB54106D3F7
:1004F0006546521BB341744607430C43A646CD07DD
:1005000040084908284392185B4105460D43EAD14B
:100510001046184313D060461946504071400843B6
:1005200006D06046101AB34106D20122002306E02D
:1005300000220123DB0702E00122D243531000987E
:1005400074460105381C6141029C039D00196941F4
:1005500000F07EF8BFE70000FD0300004A00090339
:100560000123090B1B0519430A4B10B5520D9A4282
:1005700002DA0020014610BD064B34339A4203DCF8
:100580009A1A00F041F810BD034BD21800F02CF875
:1005900010BD0000FF030000CDFBFFFF10B50029D8
:1005A00004DB0124E40740428C412146002B04DB9C
:1005B0001C460123DB075242A341994200D19042DD
:1005C00010BD0000064C0125064E05E0E36807CC8F
:1005D0002B430C3C98471034B442F7D3FFF75CFD33
:1005E000208300005083000010B5202A04DB014660
:1005F000203A9140002010BD914020239C1A0346D0
:10060000E3401943904010BD10B5202A04DB084692
:10061000203AD040002110BD0B46D340D0402024CA
:10062000A21A91400843194610BD10B5202A06DBD6
:10063000CB170846203A1041C1170B4306E00B4682
:100640001341D0402024A21A91400843194610BDFE
:1006500010B5002B08DA0024401C614192185B4160
:100660001A4301D14008400010BDF0B51FB482B05C
:1006700005460C0003D0084602F0C6F902E002F07D
:10068000C3F920300246009021462846FFF7ACFF10
:10069000049B059A04460F4618431143084314D09F
:1006A000184610431BD0009840210A1A1846059995
:1006B000FFF7AAFF05460E46009A05990498FFF732
:1006C00093FF084305D0012004E02046394607B0D7
:1006D000F0BD0020C11705430E432C43374300995A
:1006E0000E986305401A7905E40A00220C43FD0ABE
:1006F0000A3002D500200146E9E7010510196941D9
:100700000C9C0D9D00196941FFF7A2FFDFE770B552
:100710008C180578401C6B075B0F01D10378401CD7
:100720002A1106D10278401C03E006780E70401CA6
:10073000491C5B1EF9D12B0705D40023521E0DD492
:100740000B70491CFAE70378401CCB1A921C03E09B
:100750001D780D70491C5B1C521EF9D5A142D8D3DF
:10076000002070BD30B5174B0022154C5B790DE0B1
:100770003C2555432D192D6B854205D1002803D00A
:10078000002914D00A7012E0521CD2B29A42EFD360
:10079000002210E03C2555432D196D6B854208D190
:1007A000002806D0002902D080200243EAE7012079
:1007B00030BD521CD2B29A42ECD3002030BD0000B2
:1007C000700B0020BC00002070B500240A4D0B4EB9
:1007D0000DE03C2060434019016A052905D181697B
:1007E000002902D0042101F0A3F8641CE4B270795E
:1007F0008442EED370BD0000700B0020BC000020CE
:10080000F0B51A480222816B8B0001468039CA502C
:10081000174FFA89836B9B005B18DA63826B154B69
:10082000856B1C68144B6243D218AD006D18AA6723
:10083000C26B521CC263826B521C8263856B0F4A6F
:100840001278954201D300258563866B0125B60099
:100850008D51816B6143C918B9810564C16B530027
:10086000D318994200D9C263F0BD0000944500201E
:1008700000900040443E002010020020BE000020F6
:10088000034902680A6042684A608068886070476D
:10089000583E0020064902680A6042684A60826841
:1008A0008A60C268CA600069086100207047000061
:1008B000443E002010B501F08DFA10BD10B500F0D7
:1008C00063F80F4A0D4B111F081F00F09BFD04F049
:1008D0005DF80CA002F074F8114802F035F81149E7
:1008E00080200860104C02E0322003F09FFF206A55
:1008F0000228F9D300F01AF810BD00008A00002089
:10090000847D000043483537784E45545F4C69621A
:10091000496E697420537563636573730A00000040
:100920001027000000E100E0003E002030B58FB04D
:100930003C216846FFF707FC15200A90032007902A
:1009400069460A4800F0ECFD04F020F8074C08491D
:100950002078C87200F0AEFE0546217805A002F0AE
:100960002FF8284604F012F80FB030BD88000020A0
:100970006C370020536F636B657449642063746C3B
:100980003A25640A00000000F8B524481021FFF75A
:10099000DAFB2249FF208873C873C87208731121DB
:1009A0001F48FFF7D0FB00241D4D26461D48875DDC
:1009B000642F10D364213846FFF782FB303028556E
:1009C000641C0846E4B20A21FFF77AFB3030285550
:1009D000641CE4B20EE00A2F0CD30A213846FFF75C
:1009E0006FFB30302855641CE0B230312954401C74
:1009F000C0B207E00A213846FFF762FB30312955C3
:100A0000641CE0B22E212954401C761CF6B2C4B2FC
:100A1000042ECBD303F028FFF8BD00006C37002074
:100A2000600C00207C7D0000FEB50646F649F7A06C
:100A300001F0C6FFF9480025C079F34F002816D011
:100A4000012813D1022E7DD0012E0FD13221F4487E
:100A5000FFF779FBF348009783884269F2A1F048D9
:100A600001F0BEFFEE49F3A001F0AAFFFEBD022E89
:100A70000BD0042E09D0012E6FD0032EFCD0002EF7
:100A800001D0052EF2D100241DE1002701E07F1CDA
:100A9000FFB2DD48FFF76EFBE14902463231C9196A
:100AA000D948FFF777FB002805D0DD483230FFF743
:100AB00061FBB842EBD8DA483230FFF75BFBB84253
:100AC000D4D93C4601E0641CE4B2D5483230005D24
:100AD0000A2805D0D2483230FFF74CFBA042F2D8AA
:100AE000CF483230FFF746FBA042BFD9641CE0B2CA
:100AF000CB4C0090323401E07F1EFFB2E05D0A284B
:100B000002D0002FF8D104E0002F02D0E019457088
:100B100000E02570C148FF21F5311030FFF713FBCD
:100B20000098BF4A2318BD483232C6A1103001F0E8
:100B300057FFBB48FF21C3313230FFF704FBB749F1
:100B4000103100E0D6E1B648323001F049FF022E04
:100B500004D0B34E0024643E49E07CE00024BB4E48
:100B600001E0641CE4B2A848FFF704FB0246311917
:100B7000A548FFF70FFB002804D0B448FFF7FAFAA6
:100B8000A042EED8B148FFF7F5FAA04298D9355502
:100B90009D48FFF7EFFA0019C0B2311849783029A3
:100BA00006D0312909D0322916D033290AD117E0CD
:100BB0009A498A785208520003E09849FD238A78BE
:100BC00011E08A70801CC0B2331894489F4A9DA1DE
:100BD000103001F005FF0FE19049FB238A7802E015
:100BE0008E49F7238A781A40EBE7641CE4B2864802
:100BF000FFF7C0FA024631198348FFF7CBFA002805
:100C000005D087486438FFF7B5FAA042EDD884488C
:100C10006438FFF7AFFAA042B8D935557A48FFF7E4
:100C2000A9FA0019801CC0B233187D4A7B48643A87
:100C300084A1103001F0D4FE794864216438FFF7B4
:100C400082FA764976481031643801F0C9FE744959
:100C50007FA0643908E77148FF21F5311030FFF7B4
:100C600072FA012E20D06F48009783696C4A6B4856
:100C700032327BA1103001F0B3FE6948624964381A
:100C8000FFF76CFA66486AA16438FFF767FA6448B0
:100C9000FF21C3313230FFF756FA60496048103106
:100CA000323001F09DFEFEBD5E485D4A81880197AD
:100CB00000914369594832326CA1103001F090FE26
:100CC000E5E7641CE4B2564F4F4832370078395D8F
:100CD000884204D03846FFF74DFAA042F1D8504878
:100CE0003230FFF747FAA042DDD9002E01D0264668
:100CF00024E0A01EC0B203E0401EC0B20228D2D33E
:100D0000395C2029F8D13D544448FF21F531103099
:100D1000FFF719FA381900904248414A83883F4842
:100D2000323256A1103001F05BFEB0E73C48761C31
:100D3000F6B23230FFF71EFAB042B4D9B85D0D28D2
:100D4000F4D13648FF213D55F5311030FFF7FBF95E
:100D5000B81900902C4B324A3048103B32324AA12D
:100D6000103001F03DFE2E48FF21C3313230FFF735
:100D7000EAF92A492A481031323001F031FE0024C4
:100D8000214E06E0641CE4B21F48FFF7F3F9A042CD
:100D900002D9305D2E28F5D11B48FFF7EBF9A042B0
:100DA00077D90024294F06E0641CE4B22748FFF7F6
:100DB000E1F9A04298D91448FFF7DCF90246391945
:100DC0001148FFF7E7F90028EED1264606E0761C29
:100DD000F6B21E48FFF7CEF9B04285D9B85D232898
:100DE000F5D13D55B8190090074B0C48103B174AF8
:100DF00025A1103001F0F4FDC8211448FFF7A3F934
:100E00000649124810314CE7803900207046696C61
:100E1000654E616D653A0A25730A00006C37002043
:100E20000C3C002094000020257325346420257399
:100E30000D0A00004C697374557365723A0A257384
:100E40000A0000002573257300000000E03A00202E
:100E50004E616D6546696C653A0A25730A000000AB
:100E60002573257325730D0A000000002573257373
:100E70002534642025730D0A000000002573202509
:100E8000346420257300000025732573257300004A
:100E9000FFE70024434F06E0641CE4B24148FFF73B
:100EA00069F9A04286D94048FFF764F9024639192A
:100EB0003D48FFF76FF90028EED1264606E0761C84
:100EC000F6B23848FFF756F9B04286D9B85D0D281A
:100ED000F5D13D55B819344B0090103B314A334998
:100EE000334801F07DFD64212E48FFF72CF930498D
:100EF0002C48D6E62B4E0024643601E0641CE4B294
:100F00002948FFF737F9024631192748FFF742F918
:100F1000002805D023486430FFF72CF9A042EDD813
:100F200020486430FFF726F9A042BBD9274601E0EC
:100F30007F1CFFB2F05D0A2805D01A486430FFF725
:100F400019F9B842F4D817486430FFF713F9B842DA
:100F5000A8D97F1CFFB201E0641EE4B2305D0A280C
:100F600002D0002CF8D104E0002C02D030194570DA
:100F700000E03570FF21F5310D48FFF7E4F8094A2C
:100F80000A49F31964324439094801F029FD05483A
:100F900032216430FFF7D7F802480549643001F088
:100FA0001FFD5FE5A83B002080390020880E00006F
:100FB0007C370020F7B504461746214611A001F002
:100FC000FFFC019D002601AA21463846019500F04C
:100FD0006DFC03F0DBFC0198002807D1761CF6B20B
:100FE000022E03D90BA001F0EBFCFEBD2D1A241834
:100FF000002DE8D10CA001F0E3FC1049002008709E
:10100000FEBD000073656E64206275663A0A257342
:101010000A00000053656E642044617461202066FC
:1010200061696C0A0000000053656E6420446174BD
:10103000612020537563636573730A006C37002069
:10104000F8B5374C0425207A022808D12572354896
:10105000FFF790F80146227B3248FFF7ABFF60793B
:101060000026042814D12F4866713C300746FFF74C
:1010700081F80146227B3846FFF79CFFA07BFF28C2
:1010800006D0002100F022FA03F080FCFF20A073BC
:10109000607901281DD1607A02281AD32048657230
:1010A0001030FFF767F8002809D01D481030FFF70F
:1010B00061F801461A48E27B1030FFF77BFFA07908
:1010C000002806D06571E07B002100F0FFF903F0F5
:1010D0005DFCA07A012802D1607A022803D0607AF0
:1010E000012804D00AE0A6720220607106E060794F
:1010F000022803D165712079FFF796FC2078142827
:101100000CD9A07BFF2802D0002100F0DFF9207B62
:10111000FF2803D0C0B2002100F0D8F9F8BD0000CC
:101120006C370020887D000000B500F0B1F9024A5C
:101130000021D16200BD0000003E00200148008C6B
:10114000C0B27047003E002006494979884201D369
:10115000002070473C214143034A0023505C535018
:1011600070470000BC000020700B00200120704779
:1011700070B5FFF7D9FF0446C0070CD0124D13A07D
:10118000296B01F01DFC16A0696B01F019FC19A078
:10119000A96B01F015FC600705D5FFF7CFFF0146ED
:1011A00019A001F00DFCE0060CD500242046FFF745
:1011B000CBFF010002D0204600F034F8641CE4B2FA
:1011C000042CF3D370BD0000003E0020556E726504
:1011D000616368436F646520A3BA25640A00000058
:1011E000556E726561636850726F746F20A3BA2583
:1011F000640A0000556E7265616368506F727420F6
:10120000A3BA25640A00000047494E545F53544175
:10121000545F5048595F4348414E4745202530327E
:10122000780A0000F8B50746164E0D46480719D54E
:101230000021384600F02EFB0146009012A001F07C
:10124000BFFB6A4631463846009C00F05BFA6A46AE
:1012500031463846009400F029FB0098241A3618CD
:10126000002CF4D1280702D50CA001F0A9FBE80658
:1012700002D510A001F0A4FB680602D511A001F070
:101280009FFBF8BD890E0020526563656976652075
:101290004C656E203D2025640D0A0000544350200B
:1012A000436F6E6E65637420537563636573730A71
:1012B0000000000054435020446973636F6E6E65F4
:1012C00063740A005443502054696D6F75740A00AA
:1012D000F8B50F4604463F493F481E461546814231
:1012E0000ED83E4981420BD83D49814208D83D493C
:1012F000814205D83C49814202D83C49814201D90A
:10130000FB20F8BD44213A48FEF71DFF182139485B
:10131000FEF719FF042221463548FEF7FBFE344C48
:1013200004223946201DFEF7F5FE204606223146EE
:101330000C30FEF7EFFE002D2CD02046042229466B
:101340000830FEF7E7FE2C4D3222A8680127C106BF
:10135000C90E6971C105090FA970C104090FE970AF
:101360008104C90F29714103C90EA1610102C90E8F
:101370005143E161C101C90F002902D0216C3943F9
:1013800021648001C00F03D0206C02210843206437
:1013900000260BE0FF206072A07200202072D2E7CE
:1013A0003146002000F0E8FA761CF6B268798642F1
:1013B000F6D300F02DFE01F045F80D480F495830E6
:1013C000676201600E494160092181602F70002031
:1013D000F8BD0000D0010020000001201002002014
:1013E000700B0020A4100020C0240020CC36002068
:1013F000003E0020703E0020BC000020204E000077
:10140000983A0000F0B585B01C4615460E460746D2
:10141000FFF7ACFE012802D0FC2005B0F0BD0F495B
:101420000D4808604B20C00000904320C000019090
:101430000B4802900A2003902B2004906846FFF787
:1014400029FA23462A4631463846FFF741FF04462B
:1014500003F008FC2046E0E784245502C400002085
:10146000F811000010B50848808CC0070AD000F0C1
:1014700061FF00F019FF054802F074FB00F0DAFD8F
:10148000FFF7A2F910BD0000003E0020883E0020BA
:1014900010B50B4900204A790A490B4B0BE03C245C
:1014A00044431C59002C04D0C86A10221043C8625F
:1014B00003E0401CC0B29042F1D3888DC0B210BD91
:1014C000BC000020003E0020700B00203C22124B8C
:1014D0004243D21810B5114B5B79984201D31A20C0
:1014E00010BD136A052B01D0172010BDD269022A46
:1014F00005D0032A06D0002A07D0F72010BD00F03F
:1015000069FB04E000F03CFB01E000F021FB40B28D
:1015100000F0B4FC10BD0000700B0020BC000020E7
:10152000F8B50C46002101700D465A49497908E08A
:101530003C22594B6A43D218126A002A03D06D1C10
:10154000EDB28D42F4D38D4201D32020F8BD057059
:10155000E069002805D002281FD0032869D0212087
:10156000F8BD208DC0B203F02FFE060075D04B48A9
:10157000694600680090304603F0D4FDE06A0090B0
:101580006946304603F0DAFD3C204349684342187F
:101590004349304603F02EFE3FE006F0EDFA060028
:1015A00075D0E06A00900F20000703F000FC0746AA
:1015B000009907200F40400703F0F9FB874205D050
:1015C0003849684602F030FD002806D0208D3649A3
:1015D00082B2304606F02CF912E0304869460068C5
:1015E0000090208D82B2304606F022F9002809D101
:1015F000E06A0090A08C694682B2304606F066F937
:10160000002802D000F03AFCF8BD3C202249684393
:1016100042182649304606F0BCFA052026632062AF
:101620006946204802F0FAF92946204600F0A4F95C
:101630002BE004F015FD060029D018486946006823
:101640000090208D82B2304603F026FF070005D0BF
:10165000304603F09FFF3846D4E718E03C200E499F
:1016600068434118304603F015FF1149304604F035
:10167000E9F926630520666320622946204600F0CA
:101680007BF96946074802F0C9F90020F8BD11202E
:10169000F8BD0000BC000020700B0020003E0020C0
:1016A000D9240000883E0020FF810000552700005B
:1016B000B51A000070B53C21484310494418206A0F
:1016C000256B052804D1606BA84203D0002D01D002
:1016D000172070BD002020632146284603F0DAFE63
:1016E000FF21284604F07AFC002805D004496063F5
:1016F00003F040FE002070BD112070BD700B002073
:10170000B91A0000F7B582B0049900220D680A608A
:101710003C2148435D494618306A052802D017200D
:1017200005B0F0BD002D17D07469B0680090F16865
:10173000401E0918B069A84200D205460398002847
:101740007AD067198F4209D2042D07D92A4621463B
:10175000FEF7E0FC3C467FE01A20E1E74C48007CC5
:10176000800724D50F1B7F1CAF4200D32F46042FC8
:1017700005D93A4621460398FEF7CCFC04E0BAB2FC
:101780002146039800F036FD0398009CC019BD4225
:1017900062D9EF1B042F04D93A462146FEF7BAFC62
:1017A00003E0BAB2214600F025FDE41954E0002020
:1017B0003EE0039A23781370039A641C521C8C42F7
:1017C00000D9009C401CA84246D223781370521CBA
:1017D000641C8C4200D9009C401CA8423CD2237857
:1017E0001370521C641C8C4200D9009C401CA842FF
:1017F00032D223781370521C641C8C4200D9009C96
:10180000401CA84228D223781370521C641C8C42BE
:1018100000D9009C401CA8421ED223781370521C91
:10182000641C03928C4200D9009C401CA84213D235
:10183000A842BED310E0FFE76019884203D2042D0E
:1018400001D9044608E0002004E0641C8C4200D961
:10185000009C401CA842F8D3049805607461B069EC
:10186000411BB16102D1B06870613061F069032839
:1018700009D1B289306B511A89B24185F2688A4226
:1018800001D105F05CFC00204AE70000700B00204D
:10189000443E00203C225043034A8018002901D0D6
:1018A00042690A6080697047700B002010B53C23C4
:1018B0000D4C43431B191C6A052C03D000201060FB
:1018C000172010BDDB69002B05D0022B06D0032B9F
:1018D00007D0FA2010BD00F055FE10BD00F096FFB5
:1018E00010BD00F0B5FE10BD700B002000B50E4914
:1018F0000A6812180A600D4A1178002913D0D1889D
:10190000081880B27D210901D08088420BD30020C5
:10191000D080FFF713FC012805D1507803F0CAFBF3
:101920005078401C507000BD38010020BC000020E1
:1019300070B504780546082913D007DC01290BD0BF
:1019400002290BD0042916D1042008E010290AD05E
:10195000402910D1402002E0012000E00220044391
:1019600008E00820FBE710200443686B002801D042
:1019700003F010FE2C6070BD70B505463C2041435D
:101980000848081804463C21FEF7DDFB002D04D072
:1019900020463C222946FEF7BDFBA068206160611D
:1019A00070BD0000700B0020FFB504690546C168DA
:1019B000601E83B0081800903C48C168491CC16093
:1019C000002C2FD00598002867D000890290049839
:1019D000FD22203081784908490011408170059E20
:1019E000009872897768111981422FD93048007C9C
:1019F00080071BD500983946001B401C80B2024668
:101A000001902046FEF786FB019872893918101A5A
:101A1000AC6800282EDD87B23A462046FEF77AFBF6
:101A2000E41927E00020C04307B0F0BD002009E022
:101A3000397821700099641C7F1C8C4200D9AC68F5
:101A4000401C80B271898142F2D813E0042A06D981
:101A500039462046FEF75EFB708904190AE0002033
:101A600005E039782170401C641C80B27F1C7189AC
:101A70008142F6D83668002EB2D1A96902982C614D
:101A80000818A861059803F090FAA889298B401AD4
:101A900081B2049805F04EFB01E0002B01D000203C
:101AA000C2E7049803F076FDBEE70000BC0000200A
:101AB000443E00207047000070B51F4A0D460146A5
:101AC000537900201D4A07E03C244443A418246AAB
:101AD000002C03D0401CC0B29842F5D3984202D3E8
:101AE0000420C04370BD3C23584384186868E062FA
:101AF000288C25636062886AA0622146284603F02C
:101B0000C9FC0F49284603F09DFF0E49284605F001
:101B1000DDFA0D49284605F06FFC01220B492846E5
:101B200004F096FD0320E061052020620821204694
:101B3000FFF7FEFE002070BDBC000020700B0020EF
:101B4000B51A0000A9190000A12100009D21000084
:101B50003C21484310B509494418206B002803D0A4
:101B6000216A052902D006E0172010BD03F046FBCC
:101B7000002020632062002010BD0000700B0020B8
:101B8000F8B50E463C214843114900254418606BC6
:101B90002F46002803D003F0FDFC05462762206B8A
:101BA000002810D0002E04D0012E06D0022E06D020
:101BB00008E003F0EFFC054604E0012100E000210D
:101BC00003F084FB2762284600F058F9F8BD0000B6
:101BD000700B00203C21484310B509494418206B84
:101BE000002803D0216A052902D006E0172010BD85
:101BF00005F0D2FF002020632062002010BD00000D
:101C0000700B002070B53C4957220A70A8220A7058
:101C1000394A403A537BDF2423405373D37BFD245E
:101C20002340D37300230B703449CB70CC78DB2571
:101C30002C43CC70CD7804242543CD70FF250D7145
:101C40004E79C0252E434E718E79360936018E713C
:101C50008E7926438E71CC792C43CC71CC79A40635
:101C6000A40ECC710B764C7E01231C434C768C7EEB
:101C7000E406E40E8C768C7E20252C438C768C7EBC
:101C800010252C438C768C7EFB252C408C768C7E0C
:101C90001C438C76C8831A48184B447920331C7235
:101CA00004795C72C4789C728478DC7244781C730A
:101CB00000785873508B4023184350831148114AC1
:101CC000806B803A80008018806F88810A4880305D
:101CD00005680D490D4A098812880C4611430B46C8
:101CE0001D4305604169E44314432140416181681B
:101CF0001943816070BD000040100040009000401A
:101D00008A000020944500209000002092000020CE
:101D100070B51549CA6B002A09D04A6B0C4692006F
:101D2000803C1219956F928F93B2002205E000203B
:101D300070BDAE5C8654521C92B29A42F9D3486B85
:101D4000002280002250486B401C4863042800D3C6
:101D50004A630648C1784906490EC170C17880229D
:101D60001143C170184670BD94450020009000409A
:101D700030B5124A13689B009B18DC68002305E00D
:101D800005785B1C2570401C9BB2641C8B42F7D30A
:101D900001240B48802303600A48418111688900AF
:101DA000891889890181C17908221143C1710448C8
:101DB0008038036004480460002030BDD84500200E
:101DC00080E100E000900040CC00002010B5FEF75C
:101DD00071FD10BDF8B5234C2679700603D5FEF7CA
:101DE0000FFD40202071300704D51F4900200860F6
:101DF00008202071F0062ED5012000F091FA1B4D2D
:101E00001B4F400710D5012000F0AAF8E8681949D7
:101E1000194A0988128811430843E860E0790421CF
:101E20000843E07102200FE0002000F099F8A86854
:101E30001049114A0988128811430843A860E079C3
:101E4000FB210840E07101203862F86A0421084350
:101E5000F86210202071B00702D060790320207151
:101E6000F8BD000000900040CC000020C0100040F1
:101E7000003E00209000002092000020002805D0A5
:101E8000FF210131081A0249C0B2085C7047000006
:101E9000D481000000B5124A0B0000F0CCFD05040F
:101EA000071016191F00516B81430AE0516B8143E3
:101EB0005163116B01431163116A81430DE0516B52
:101EC00001435163116B8143F5E7516B814301E09D
:101ED000516B01435163116A0143116200BD00005F
:101EE00080100040054A002113780370491CC9B2D4
:101EF000401C521C0629F7D3704700000806040056
:101F00007CB504466846FFF7EDFF00216A460520D0
:101F1000535C451A491CC9B263550629F8D37CBDE8
:101F200010B50C480089C1B20B069A0F0A48022A64
:101F300005D0012A04D09A0F06D07D20000210BDE2
:101F4000C906C90E054801E0C906C90EFEF7B8F872
:101F500010BD0000001000400048E80100389C1C43
:101F600070B5074C00252070A570E57025710548F7
:101F70006571A11D0068FEF726F9657070BD00004F
:101F8000EC4500203801002070B51449054608785A
:101F9000002816D00C46881DFEF70BF97D21281A63
:101FA000C90088420CD9A11D2846FEF70CF9E0783B
:101FB000A17800020843052808D90020FFF7D0FFC8
:101FC00070BD2846891DFEF7FEF870BD401CA0704C
:101FD000000AE07000F0CAF970BD0000EC45002076
:101FE00010B504460020FFF7BBFF0748002C07D0C0
:101FF0000121417005480222C16A1143C16210BD2E
:102000000021417010BD0000EC450020003E002082
:1020100010B50548FFF7F6FD0449002008600449A3
:102020000120086210BD00004F020000CC0000201B
:10203000003E0020F8B5324C606800903148016ADB
:1020400001295CD00099A268C069891A40088142C0
:1020500015D30098A0602D4962782B480988002A82
:1020600008D082680A4205D10022627082680A4361
:10207000826002E0C2680A43C26005F035FB009846
:10208000E168401A2249884203D30098E06001F0D9
:10209000F1FC2048C16800290AD00099E269891A38
:1020A0007D22D200914203D30099E16140688047CC
:1020B000194DFF262868F536002816D000982169AA
:1020C000401AB04205D3009820612869002800D04A
:1020D000804700986169401A1049884205D30098EA
:1020E00060616869002800D080470098A169401AA3
:1020F000B04201D90098A0610098FFF745FFF8BDF4
:1021000034010020003E0020C0100040920000205A
:10211000881300002C460020703E002060EA00007A
:1021200001490120C8637047003E0020F8B506460B
:1021300000256846057069463046FEF713FB002807
:102140000BD0684600781349020607D54006400EBA
:102150003C225043401845630562F8BD3C2242438F
:1021600054180D4949798842F7D2E0690328F4D11F
:10217000367C20463C21FDF7E6FF092E08D00A2ECA
:1021800006D040212046FFF7D3FB25632562F8BD2A
:102190001021F7E7700B0020BC00002000207047E2
:1021A00038B5846B0022002C01D04B6F04E0002076
:1021B00038BD521C1B6892B2002BFAD1896F02E025
:1021C000521C096892B20029FAD1002300921A46E3
:1021D0001946A047EBE7000010B5054C2363626386
:1021E000A1636061E06A01210843E06210BD000064
:1021F000003E002003E00B780370401C491C13468E
:10220000521E92B2002BF6D170470000F0B51C228E
:102210000C461440144A57268D07134BA827AD0FC0
:10222000403A00281E701F7010D0080603D5D07BDE
:10223000FD210840D073907A204390720A482038DC
:10224000C17B2943C17300201870F0BD080603D577
:10225000D07B02210843D073907AA0439072024849
:102260002038C17BA943EDE740100040F8B50D4E82
:1022700057270C4C0025A821203E002827700ED09F
:10228000A8202070012070713071257002F0DCFAF6
:102290002770A82020700D2030712570F8BD2170A6
:1022A0003571FAE74010004010B5124C206C002840
:1022B0001CD111A000F084FBA06B81002046803867
:1022C0004158002901D0002010BDA26B01219200CD
:1022D0008150A06B0C4A128850430C4A82180C485B
:1022E0008281C27904231A43C2712164206CC0B276
:1022F00010BD0000944500205175617279457468E5
:102300005278446D610D0A00443E00201002002006
:10231000009000400148007970470000BC00002098
:10232000C006C00E20210843014908710888704783
:1023300020900040F8B50C4E0025B46911E020460D
:10234000FFF7F4FE204604F033F9E068002D01D0D9
:10235000E86000E0B06121460220E76802F042FC3C
:102360003C46002CEBD1F8BDDC00002038B5064C13
:1023700000206168009160606946204601F04EFBD4
:102380000098606038BD0000883E0020F0B52B4DFD
:102390002A4904275722A824284E203D2031030033
:1023A00000F049FB0D080E161B1F24282C32373C69
:1023B00041462F000A700C70F07BFB22104003E0B6
:1023C0000A700C70F07B3843F073C820288118E045
:1023D0000A700C705120C000F8E70A700C701848A1
:1023E000F4E70A700C7081208000EFE70A700C702F
:1023F0008820EBE70A700C700220E7E70A700C7087
:102400002F8100200870F0BD0A700C7093208000AE
:10241000DCE70A700C700A484D30D7E70A700C7080
:1024200095208000D2E70A700C704B20C000CDE7E9
:102430000A700C7002485C30C8E7000020100040B1
:102440000202000030B587B000251D4C03950495AD
:102450001A48059520620C386062001DA062001DBC
:10246000E06202F0B7F9042203A8616AFDF752FEA8
:10247000042204A8E16AFDF74DFE042205A8A16A22
:10248000FDF748FE06220F48216AFDF743FE0E487D
:1024900005600E4805600B482B3802F029FC0C48FB
:1024A00002900C490748019105AB04AA009503A9C5
:1024B0002B3802F0E5FB07B030BD00000C3E0020D9
:1024C00034010020B33E0020D4000020D8000020BA
:1024D000BD3A0000213B0000FFB504690546C16814
:1024E000601E81B00F18039800264068417802787A
:1024F0000802104302F05DFC0005000F800041421D
:10250000039802F074FD002802D0002005B0F0BD51
:102510000398002834D0002C0CD0E868002809D09B
:10252000039842894168931912199EB2BA4212D98E
:1025300000220CE0039802F038FD21E00B782370B4
:10254000491C641CBC4200D9AC68521C92B243893D
:102550009342F3D80AE0002205E00B78521C237066
:10256000491C92B2641C43899342F6D80068002843
:10257000D7D1039802F019FDA8692C618019A861D0
:102580000120C3E7F7B53C2148432F4900251468D3
:1025900084B04018156016460290002C14D005989F
:1025A000002811D00298006B03902848006C800727
:1025B00000D4C7256D1CADB2C82D40D8B920C000CD
:1025C000844204D9009004E01A2007B0F0BD2046F0
:1025D000009481B20022104602F0EEFB070030D0DA
:1025E0007868009A0599FDF795FD18490020C863A1
:1025F0003946039802F01CFE0190384602F0D5FCE3
:102600001248C06B002802D1019800280DDA002082
:10261000306040210298FFF78BF90198002802DA18
:10262000FFF72CFCD1E7FA20CFE7316800980818B3
:1026300030600099059840180590641ABAD10020BE
:10264000C3E71120C1E70000700B0020003E00200E
:10265000F7B50025146882B017462E461560002C89
:1026600015D00399002912D03C214843374940181E
:10267000006B01903648006C800700D4C726761C9A
:10268000B6B2C82E06D93868002850D156E01A20B4
:1026900005B0F0BD0198007C042801D01720F7E7B1
:1026A0002B48006C800701D5FEF7DCFE0198403016
:1026B000C08D0090002807D0254D4435287CC007E8
:1026C00004D10098844201D91120E1E700988442A6
:1026D00000D8009468680099884200D20090019860
:1026E00003F054FD1A484430007CC007009802D023
:1026F00082B2012301E082B200230399019805F020
:102700001FF8050005D0681C01981BD003F03EFDA2
:1027100014E0019803F03AFD05463968009808185E
:1027200038600099039840180390641A01D1002082
:10273000AEE707484430007CC007A0D12846FFF729
:102740009DFBA5E703F022FDF3E70000700B0020DE
:10275000003E0020FFB505460469C068611E4718A9
:10276000A96B002681B09446002902D0AC68611E96
:102770004718110006D0002C01D0002804D10846CB
:1027800002F013FC05B0F0BD4B8948689A1996B267
:102790001A19BA420ED9002308E002782270401CB0
:1027A000641CBC4200D9AC685B1C9BB24A899A424B
:1027B000F3D80AE0002305E002785B1C2270401C7D
:1027C0009BB2641C4A899A42F6D809680029DBD179
:1027D00001200003864200D90646604602F0E5FB70
:1027E000AF6B002F0DD00498FDF7E3FC0096014677
:1027F000AB6828460A9AB8470020A861A8682861F3
:10280000C0E7A8692C618019A861BBE7F7B500256E
:10281000146884B016461560002C17D0059900295D
:1028200014D03C21484327494018006B02902648A9
:10283000006C800700D4C7256D1CADB2C82D3CD8F4
:1028400017208001844204D3009004E01A2007B0CE
:10285000F0BD2046009481B20022104602F0ACFA8E
:1028600007002CD07868009A0599FDF753FC1649AB
:102870000020C8633946029805F0A8F9019038464F
:1028800002F093FB1048C06B002802D10198002889
:1028900009DA002030600198002802DAFFF7EEFA2A
:1028A000D5E7FA20D3E7316800980818306000991E
:1028B000059840180590641ABED10020C7E7112082
:1028C000C5E70000700B0020003E002010B510216D
:1028D0000120FFF79BFC032001F0A8FF0220FFF777
:1028E00055FD05498A6A481502438A620321FFF7AC
:1028F000D1FA00F053F810BD8010004010B50B481D
:1029000057210170A8210170084A8821403A11819D
:102910000189042211430181002101700A2001F084
:1029200093FF0120FFF7A2FC10BD00004010004003
:1029300010B50A20FEF7DAFF02488179FF22114321
:10294000817110BD00200040084902220A70002257
:102950000A704001C86088798871012088700A78FF
:1029600004231A430A70024908607047002000409F
:1029700000E100E010B50446FFF7D2FA0A2148430F
:10298000C0082146FDF79CFB0A21401DFDF798FB7E
:102990000149888110BD00000034004010B5E120DD
:1029A0004002FFF7E7FF0548872181700321C170CE
:1029B000402141700121817310BD000000340040AE
:1029C0000FB410B503A9044B044A029800F00AF9A9
:1029D00010BC08BC04B01847E53C0000C40100204E
:1029E0000FB410B504A9074B02AA039800F0FAF837
:1029F000044602A9002000F091FC204610BC08BC4F
:102A000004B018471D3300002021020C01D0102112
:102A10001046020A01D010460839020901D01046BA
:102A2000091F820801D01046891E420801D0881E65
:102A30007047081A704730B47446641E2578641CC9
:102A4000AB4200D21D46635D5B00E31830BC184703
:102A500002E008C8121F08C1002AFAD17047704767
:102A6000002001E001C1121F002AFBD170470000C5
:102A7000F0B51FB486B00998089A030D00210243EF
:102A800014D05148514A1818504305141198012880
:102A900010981AD0281A401C00264D4F4D49009618
:102AA00001910490002812DA444211E011980124A7
:102AB00049A3012801D11098C1430698119A846056
:102AC0000360C26041600BB0F0BD4042E4E70446E1
:102AD000210500203F4A001C51410391029012E061
:102AE000E00707D032463B4601990098FDF756FCB7
:102AF0000191009032463B4610461946FDF74EFCC8
:102B000006460F466410002CEAD10498039B002867
:102B1000029A0999089806DAFDF740FC019B009A91
:102B2000FDF73CFC05E0FDF7A1FC019B009AFDF7D9
:102B30009DFC04460E460022284BFDF72FFD03D8CE
:102B40000020C043014607E00022254B20463146C5
:102B5000FDF772FBFDF702FD102409E0002C0ADBF3
:102B60000A220023FDF738FB079B30321A55641EFA
:102B700002460A43F2D11122641C079B121B1C1946
:102B8000119B012B03D0012308430ED10AE0084317
:102B900004D0112010900020119077E71098151A9A
:102BA0006D1E0BE01098824202DD00236D1C03E0D5
:102BB000824201DA00236D1E002BEED00698119997
:102BC0008260C16030C07EE701FCFFFF104D000055
:102BD000000014400000F03F300000000000F0430F
:102BE0000000E03FFFB597B00646002518E2252813
:102BF00077D100242746FD49049400E00443761C65
:102C000032780120203A90400842F7D130782A28C3
:102C10000ED00222307801463039092916D804999D
:102C20000A235943303940181443761C0490F1E7C5
:102C3000189802C804911890002904DA0120400372
:102C400004434842049002200443761C30782E2826
:102C500014D1042004437078761C2A2809D11898CE
:102C6000761C80C8189009E00A214F43303FC719ED
:102C7000761C3078014630390929F5D930786C282E
:102C800010D006DC4C281AD068280ED06A2817D13C
:102C900004E0742813D07A2812D110E001204005F6
:102CA00004430CE00121090501E0032109050C435F
:102CB0007178814203D1012000052418761C761C0E
:102CC0003078119066280BD013DC58287DD009DCB1
:102CD00000287BD04528F6D04628F4D047281AD1C2
:102CE000A5E118E0632835D0642870D0652812D19A
:102CF0009DE170286CD008DC6728F1D069287BD072
:102D00006E280DD06F2806D1BAE073282ED0752812
:102D100071D0782859D01A9A199990476D1C7EE184
:102D20006002400F022809D003280DD0042818980B
:102D300001680DD00D60001D189070E11898EA1719
:102D400001680D604A60F6E7189801680D80F2E7A7
:102D50000D70F0E718986A4601781172001D1890FE
:102D60000020507202A80090012005E0189802C8C7
:102D7000189000200091C04361070DD5002101E0AB
:102D80000199491C0191B94212DA8142F8DB009A9B
:102D9000515C0029F4D10BE0002101E00199491CAC
:102DA00001918142FADB019A0099895C0029F5D1F1
:102DB000019904981A9B471A21463846199A00F03F
:102DC00097FA0199401945180BE04FE02CE113E008
:102DD0004EE0009800990078491C00911A9A1999C0
:102DE00090470198401E0190401CF2D12146384680
:102DF0001A9B199A10E137E00A20002100900191F6
:102E00006002410F022907D0189A01CA1892C2170E
:102E10009446032908D00AE01898C01DC108C900CB
:102E200005C91891944607E000B2C21794460429D8
:102E300002D140B2C1178C4600226146944506DAA1
:102E40000A460021404291418C462D2102E0210595
:102E500004D52B216A461173012103E0E10701D05B
:102E60002021F7E7029155E00A200AE0102008E04F
:102E7000102000900021042004430191082703E062
:102E800008200021019100906002410F022907D023
:102E9000189A01CA189200229446032908D008E023
:102EA0001898C01DC108C90005C91891944603E0CF
:102EB00080B2042900D1C0B200210291210729D596
:102EC0001199702906D0009A1021019B4A401A439B
:102ED00005D00EE040216A461173012108E06146E9
:102EE000014306D030216A461173119951730221B2
:102EF0000291009A0821019B4A401A430AD1614677
:102F0000014301D1610705D530216A4611730121C2
:102F10007F1E02911199582904D035A10E910DA957
:102F20000D910DE037A1F9E76146019B009AFDF78D
:102F300053F90E9B8C469B5C0D9A521E0D9213709A
:102F400061460143F0D10D9805A9081A203001907F
:102F5000600703D501200004844300E001270198A5
:102F6000874201DD381A00E00020019900904118E5
:102F7000029809180498401A0490E00306D42146E8
:102F80001A9B199A049800F0B3F94519002706E036
:102F900003A81A9AC05D199990476D1C7F1C02986E
:102FA0008742F5DBE0030CD521461A9B199A049859
:102FB00000F09EF9451904E01A9A302019999047BB
:102FC0006D1C0099481E00900029F5DC08E00D9862
:102FD0000D990078491C0D911A9A199990476D1C0A
:102FE0000199481E01900029F1DC63E109280100E4
:102FF000303132333435363738396162636465666F
:103000000000000030313233343536373839414230
:10301000434445460000000000F05AF94519761C6B
:103020003078002800D0E2E528461BB0F0BD6007EC
:1030300000D406271898C01DC108C90048680A684E
:103040000831C30FDB071891190001D09CA108E0DB
:10305000210501D59BA104E0E10701D09AA100E080
:103060009AA1430011985B08109165280CD006DCEA
:10307000452809D046281DD0472841D141E066287F
:1030800018D067283CD13CE00021112F01DB112032
:1030900000E0781C0191009008A911A8FFF7E8FC56
:1030A000139905910021119A15927F1C129801978E
:1030B000009150E00120C00703900120019008A971
:1030C000009711A8FFF7D4FC139A149905920022D7
:1030D000119B009212981593059A0192002901D034
:1030E000104602E0791C40180190381A01D5019869
:1030F00004E04042401E0090781C0190C01B0290EA
:1031000043E0012F00DA01270021112F01DD1120FA
:1031100000E038460191009008A911A8FFF7A8FC2B
:1031200013990591119A0021129815920091019717
:1031300021070CD40599B94201DB019900E0019106
:10314000012904DD159A491E515C302906D0B84288
:1031500001DA011D05DA0121029115E00199491EEC
:10316000EDE7002805DC0099411800910199091A42
:1031700003E0019A411C914200DD01910099401A3F
:10318000401C02900120C0070390200706D402993A
:103190000198814202DB0020C04302900020694672
:1031A000C87707AF012103980337C907884224D0A5
:1031B000022011902B201290039800280CDA404234
:1031C00003902D20129007E00A210398FCF778FF66
:1031D00030317F1E039039701199481E11900029DB
:1031E000F2DC03980028EFD1791E1298087030782D
:1031F000202108404530BF1E387006A8C01BC01DE6
:10320000039010980078002800D0012001994118FF
:103210000298C0170918039809180498401A401E0C
:103220000490E00306D421461A9B199A049800F0F2
:103230005FF8451910980078002803D01A9A199958
:1032400090476D1CE00324D521461A9B199A0498D7
:1032500000F04EF845191CE00098002807DB0099A3
:103260000598884203DD1598405C199901E0199989
:1032700030201A9A904700986D1C401C00900298CC
:10328000401E0290002804D11A9A2E2019999047C6
:103290006D1C0199481E01900029DDDC05E038789D
:1032A0001A9A7F1C199990476D1C0399481E039028
:1032B0000029F4DC21461A9B199A0498ACE6000018
:1032C0002D0000002B000000200000000000000086
:1032D000F8B5044600251E461746880404D405E0C8
:1032E00039462020B0476D1C641EF9D52846F8BD2C
:1032F000FFB50446002581B01E46C80301D530271E
:1033000000E02027880404D505E038460399B0473B
:103310006D1C641EF9D5284605B0F0BD0A68531C23
:103320000B601070704770B504000ED0256A002D38
:103330000BD0A87C082808D10846FCF73AFFA96AF8
:10334000884202D1204600F09BF870BDF8B5050018
:1033500010D02C6A002C10D00022FF2135311046ED
:1033600001F02AFD606100280AD0E27C4249002A6F
:1033700009D00BE00920C043F8BD0820C043F8BDC8
:103380000020C043F8BD4A68521C4A604968216069
:1033900041680120A1610870A16900264870A169F7
:1033A00006208870A069C670206800F0A3FCA1699F
:1033B000091DFCF708FFA069310A06724172A06975
:1033C000310A8672C172A16900200C31FCF7FBFE44
:1033D000A07C0A2803D0052801D0042804D1A169C3
:1033E00068680C31FCF7EFFEA16900201031FCF792
:1033F000EAFEA16900201431FCF7E5FEA169002076
:103400001831FCF7E0FE0020294620318A7A8242FA
:1034100003D92A182032D27A00E0002207461C374E
:10342000A369401C80B2DA551028EFD30020014672
:103430002C31A269401C80B256544028F7D300209A
:1034400001466C31A269401C80B256548028F7D3E3
:103450000A4800F04FFCA169EC31FCF7B4FEA683EA
:1034600000200146A269F0315054401C80B244282B
:10347000F7D30020F8BD0000BC0100206353826335
:10348000F8B50546046A002000900C21204600F0A3
:10349000EFF82846FFF75AFF060046D101223521F2
:1034A000204600F05AF80421204600F066F8042275
:1034B0003221204600F051F8A06A01F078FC014664
:1034C000204600F062F804223621204600F045F83C
:1034D000606A01F06CFC0146204600F056F80722B5
:1034E0003D21204600F039F829462B31204600F0D6
:1034F0006DF8204600F0A4F8A08BF03081B260692E
:1035000001F0A8FDA169A06A0C31FCF75CFE6F68B0
:103510000098686000954323074A6169606804F079
:1035200070FB28466F6000F009F8E07C401CE074F6
:103530000420E0833046F8BD0382000010B5002867
:103540000AD0046A002C07D06069002801D001F07D
:103550002CFD00206061A06110BD10B5838B8469D3
:10356000E4185B1C8383E0342174818B83695B18CE
:10357000491C8183E0331A7410BD828B83699B18C8
:10358000521C8283E0331974704710B5828B8369B3
:103590000C0E9B18521C8283E0331C74828B84694E
:1035A0000B0CA418521C8283E0342374828B846930
:1035B0000B0AA418521C8283E0342374828B836923
:1035C0009B18521C8283E033197410BD10B5828B96
:1035D000836901249B18521C8283E0331C74828B04
:1035E00083690C789B18521C8283E0331C74828B95
:1035F00083694C789B18521C8283E0331C74828B45
:1036000083698C789B18521C8283E0331C74828BF4
:103610008369CC789B18521C8283E0331C74828BA4
:1036200083690C799B18521C8283E0331C744B799C
:10363000818B82695218491C8183E032137410BD5A
:10364000002814D0818B8269FF235218491C818382
:10365000E0321374002305E082695218491C81830B
:10366000E0321374818B4429F6D38A07F4D1704772
:10367000827C8A4202D081740021C17470470000AC
:10368000F7B584B006007DD0069840892B287AD300
:103690000698456801202C460F3400F02DFB617818
:1036A00022780902114388427CD1414800F024FB72
:1036B00001466079227900021043814272D10120D3
:1036C000C00200F019FB0146E078A2780002104326
:1036D000814267D1374800F00FFBAA7B6B7B110258
:1036E000194388425ED121460E31042202A800917E
:1036F000FCF710FD21461831042203A80191FCF7C4
:1037000009FD7068002805D00399814202D1012784
:103710003B4601E000273B462246083202A93046DC
:1037200004F0E4FAE079A1790002084300F0E4FA39
:10373000012802D0022835D126E0002F32D0022005
:1037400000F0DAFAA071000AE071042200990198F1
:10375000FCF7E0FC0422311D0098FCF7DBFC06219D
:10376000491EC9B26018027A82746B185A70059AA1
:103770000029525C02720598405CD871F0D1B269A0
:1037800006990DE011E00DE002A93046FFF7CBFDF0
:1037900009480168002905D0C268002A02D002A9A0
:1037A00030469047069801F000FC07B0F0BD0000DD
:1037B0000406000006080000703E002070B50500F9
:1037C00011D04C6820461B300646FCF7F2FCA96875
:1037D0006A6808400A40904205D10023E21D314644
:1037E000284604F083FA70BDFEB50E460446154621
:1037F0000F21304601F0FBFB002802D00120C0431E
:10380000FEBD2146284600F00FFC002801D0284BC1
:103810002FE02846FCF7CDFC07460F20000701F0FB
:10382000C6FA07400720400701F0C1FA874227D1B6
:10383000012168460170002141705E218170284697
:10384000FCF7B7FC01F0B3FA4002410E6846C170C4
:103850002846FCF7AEFC01F0AAFA010A684601719D
:103860002846FCF7A6FC01F0A2FA01466846417121
:103870006B4622462B323146204600F0E1F8FEBD71
:103880002846FCF796FCA168626808400A4090420E
:1038900004D0E068002807D025460C35324629467A
:1038A000204600F007F8FEBD0320C043FEBD000027
:1038B00007820000F7B586B006980D462B300090C1
:1038C0000020C043019014462846069900F0ACFB46
:1038D000002827D12846FCF76CFC06460F2000077D
:1038E00001F065FA06400720400701F060FA8642C1
:1038F00018D0002D16D02846FCF75BFC002811D00C
:103900000121284600F066F900280DDB144E07015E
:1039100070683918887A002808D0012808D0002C4F
:1039200006D00EE00920C04309B0F0BD0120887226
:10393000FEF7F6FB2946069800F070F80190002C7F
:103940000BD070683B18987A022806D121461B1DBF
:10395000009A069800F074F801900198E4E70000DE
:103960002C010020FFB581B01F4600222B2103202F
:1039700001F022FA06004AD075680D982C460F34E3
:1039800000F0BAF9A071000AE0710620401EC0B232
:103990003A5C21180A720B9A125C8A7403990A5CC9
:1039A00029184A70029A0028125CCA71EED120468A
:1039B00004220E300A99FCF7ADFB20460422183091
:1039C0000C99FCF7A7FB012000F096F92070000A83
:1039D00060700120C00200F08FF9A070000AE07052
:1039E0000C4800F089F92071000A60710A4800F063
:1039F00083F96873000AA873019831468269904779
:103A00000446304601F0D1FA204605B0F0BD002052
:103A1000C043FAE704060000060800001FB50123B2
:103A20000393064C021D0346009202912B3301942E
:103A30001946A21FFFF796FF04B010BD0D820000CB
:103A4000F8B54D680E4607460624641EE4B22819F0
:103A5000195D4170115DC171002CF6D10120C002C9
:103A600000F04AF96873000AA873BA69314638460B
:103A70009047F8BD30B50F4900200F4C4B6814E05B
:103A80000101C918CA7A521CD2B2CA728D7A022DAB
:103A900002D0012D03D006E0F02A02D203E0022A70
:103AA00001D300228A72401CC0B2E1688142E7D88B
:103AB00030BD00002C010020443E002070B50446BB
:103AC00040680D46817B427B0802104300F014F9E8
:103AD0000121C902401A04D0062816D00F49C84255
:103AE0000AD121462846FFF769FE0E21C943204628
:103AF00001F07DFA002803D0204601F056FA0AE0D2
:103B00002946204600F05AFB05E0294622462B3183
:103B10002846FFF7B5FD002070BD00004F66FFFF8F
:103B200010B5FFB081B0044668460B496062FCF7EF
:103B300028FB204665212030E56181746E21C17427
:103B4000064860610648A061204600F027FD7FB06E
:103B5000002001B010BD0000E0440020E937000063
:103B60003147000070B505461648C16B002927D0C3
:103B7000154A5178491C5170144A80211160C06B5C
:103B8000134A0006000E11601AD0284600F064FDAA
:103B9000040015D06068817B427B0802104300F06E
:103BA000ABF80121C902401A01D0062805D12A69C3
:103BB000294620469047002802D0204601F0F5F91A
:103BC00070BD0000944500203401002080E100E039
:103BD00000E100E0F3B5414887B0C76800247DB23A
:103BE00002943F4901950394009507984E68002878
:103BF0004DD0084600780590000104908019807A25
:103C0000022844D10798FCF7D4FA049971588842E5
:103C10003DD1059840B209B0F0BDAF4204D12001BA
:103C20008019807A002809D020010590801904901D
:103C3000807A012804D0022816D026E065B224E05C
:103C40000798002807D0FCF7B4FA05997158884204
:103C500001D123483FE004980399C07A884214D3E5
:103C600061B20191039010E00798002805D0FCF79D
:103C7000A0FA059971588842EBD004980299C07A4D
:103C8000884202D361B200910290641CE4B2A74260
:103C9000C3D80020C043AF4202D10899C907BAD0A7
:103CA00008998907B7D4AF4201D9ECB206E0009970
:103CB0008F4202D801998F42ADD9CCB227010020A2
:103CC000BD19A8720798002802D0FCF772FAF051CB
:103CD00000210348E972047060B29CE7443E002072
:103CE0002C0100200249CA7A082AFCD008727047C9
:103CF0000034004000BA704740BA704710B50A4619
:103D0000032100F0FBF810BDF3B545680446687860
:103D10002978000289B0084301F04BF80005000F34
:103D20008000414207900091204601F060F9002890
:103D300024D12089042821D366683078032802D052
:103D40000828F5D11BE0707C327C0002104331461C
:103D50000831377A000A0D4601900422103103A879
:103D6000FCF7D8F93807800E28188178C078090246
:103D700001437378019A0398FEF72EFAB6E02846BD
:103D8000103001260490FCF714FA07460F200007B4
:103D900001F00DF807400720400701F008F88742BE
:103DA00000D100260A99049800F03EF9002802D0BC
:103DB000FEF7B0FA9AE0FEF7ADFA00287ED0002EAA
:103DC0007CD02089082879D3204600F0D2F800283A
:103DD00074D12221204601F00AF900281DD0204686
:103DE000079901F004F9002868D1218900220220F6
:103DF00000F0E2FF060079D0214601F08CF800289F
:103E000074D175683046009901F0F1F800286DD141
:103E1000204601F0CAF8344606E02121C943204675
:103E200001F0E5F8002861D128460C30666806905C
:103E30000490FCF7BEF90746039028461030009026
:103E4000FCF7B7F90499FCF7BEF938460099FCF77E
:103E5000BAF9002737702848FFF74EFF0146F0787F
:103E6000B278000210430122D2028142104607D8E4
:103E7000FFF742FFF178B27809021143401C05E0D8
:103E8000FFF73AFFF178B278090211434018B07099
:103E9000000AF070687A297A0002084300F089FF6E
:103EA0000121C0B2C9034018FFF726FF2872000A9B
:103EB0006872380AAF72E872142100E016E02846F2
:103EC00000F051F8A872000AE8722046079901F044
:103ED0008EF800280AD10A980121019102908023CE
:103EE000002200972046069900F0A8FA204601F02B
:103EF0005CF80BB0F0BD0000FFF70000F7B50E4610
:103F000082B000222421012000F056FF050028D0B5
:103F100002986C68476826700498607000262671C5
:103F20006671A671E67102981C22416868680830C3
:103F3000FCF7F0F8A670300AE0706989204600F0BE
:103F400012F8A070000AE07001203A460190802328
:103F50000C3200210096284600F056FA284601F05F
:103F600024F805B0F0BD10B500F042FCC04380B2AB
:103F700010BDF8B500252E46044601270FE06189E3
:103F8000606800F035FC4019010C80B20D18A07A71
:103F9000C00703D0B81BC6B268BA85B22468002C2B
:103FA000EDD1002E01D068BA85B2E84380B2F8BDE9
:103FB000FFB5002581B02E46044601270FE0618938
:103FC000606800F015FC4019010C80B20D18A07A51
:103FD000C00703D0B81BC6B268BA85B22468002CEB
:103FE000EDD1002E01D068BA85B20298FCF7E1F855
:103FF00081B24919000C44180398FCF7DAF881B231
:104000000919000C44180498FFF776FE04190A9861
:10401000FFF772FE0019010C80B20818010C081895
:10402000C04380B205B0F0BD10B50C46FCF7C1F836
:104030000246411C13D0002A11D03121095D8907A5
:104040000BD56168914208D0A06813460340014037
:104050008B4202D11043401C01D0002010BD012032
:1040600010BDF7B58EB004460F981426008D009051
:1040700060680790C179827908020025104300F03A
:1040800098FEC104C90C05910121490308400A901A
:104090002089143887B200981438C117490F089046
:1040A00008184003000C09907FE00898874201DC63
:1040B000012000E0002005990A9AC904C90C1143A7
:1040C0000B9100281AD0384680B2069000221421A5
:1040D000022000F071FE0490002817D040681422DE
:1040E0000799FCF717F8049840680C9060688019ED
:1040F00060606089801B6081069E26E00846012181
:10410000490308430B900998C000DDE70020C04335
:1041100011B0F0BD6589B54200D93546002D13D0E8
:1041200002220021032000F047FE010042D0606817
:1041300048600D814D81049800F0C8FE701B060494
:10414000360C04D02468E5E72468002EE2D12E4620
:104150000B98FFF7D1FD0C998871000AC871069879
:10416000143080B2FFF7C8FD01460C988170090A2F
:10417000C1700C9800218172C17214210C98FFF754
:10418000F2FE0C998872000AC8720F98109A43695F
:1041900004999847049800F008FF06980999381A7E
:1041A00087B20598401880B20590002F00D07CE7B8
:1041B0000020ADE7049800F0F8FEA7E7F3B585B05E
:1041C0000120039005980E4645686878297800021A
:1041D000084300F0EEFD000B042803D0059800F022
:1041E000E4FE06E1687829780002084300F0E1FD6A
:1041F0000005000F80000090E878A97800020843CD
:1042000000F0D7FD04460598418900988142E5D326
:1042100005980089A042E1D328460099FFF7A3FE44
:104220000028DBD12146059800F014FF0120029000
:104230000F203446000700F0BAFD0720400700F0C9
:10424000B6FD204600F040FD002820D0201D1ED0E5
:104250006768002F1BD0284610300190FBF7A9FF9C
:10426000B84223D021460198FFF7DEFE00281DD179
:104270000198FBF79EFF07460F20000700F097FD0F
:1042800007400720400700F092FD87420ED00298B9
:10429000002804D0002002905748046800E02468F9
:1042A000B44200D12468002CCBD101E0002C2DD1E8
:1042B000687A297A0002084300F07BFDC0B2112819
:1042C0000ED100982918C87889780002084300F0B8
:1042D00070FD442804D1002034460390002E15D1EF
:1042E000687A297A0002084300F063FDC0B2112801
:1042F0000CD100982918C87889780002084300F08A
:1043000058FD3E49884201D134461FE003980028F9
:104310001CD028460C300746FBF74BFF002815D071
:1043200031463846FFF780FE002800D056E7384671
:10433000FBF73FFF07460F20000700F038FD07405E
:104340000720400700F033FD8742EFD0002CEDD06E
:104350002B48FFF7D1FCE979AA79090211430842F9
:10436000E4D1284C31466660A560059800F0F2FE65
:1043700000283BD1687A297A0002084300F019FD31
:10438000C0B2012815D006280ED01128314607D01A
:10439000284610300646FFF747FE00280ED022E0E0
:1043A000059803F0D7FA21E03146059801F082FB29
:1043B0001CE031460598FFF7A7FC17E03046FBF7F5
:1043C000F8FE06460F20000700F0F1FC064007202B
:1043D000400700F0ECFC864205D0059802214560BC
:1043E0000598FFF78BFC059800F0DFFD002060606A
:1043F000A060002007B0F0BDD40000206C070000D2
:10440000FF3F0000B0010020FFB583B01F461646F5
:1044100010460C9D0D9C00F097F800280AD00290E1
:104420003B463246009501940499039800F006F843
:1044300007B0F0BD0320C043FAE70000FFB581B02C
:10444000064603980C9D1F46002865D0142001469F
:104450000090304600F0CBFD002803D00120C0437F
:1044600005B0F0BD7468607A217A0002084300F05C
:10447000A0FCC0B239020843FFF73EFC2072010ADB
:10448000617200F096FC000A0B9900020843FFF7E6
:1044900033FC2072000A60720398FBF78AFE214603
:1044A0001031FBF790FE05200A9900020843012114
:1044B0008903084380B2FFF71FFC2070000A607078
:1044C0003089FFF719FCA070000AE0700020A0718D
:1044D0001C4FE0713888FFF70FFC2071000A6071F3
:1044E0003888401C38800298002803D0FBF761FE12
:1044F000002802D1281D00D0686821460C31FBF746
:1045000062FE0020A072E07220460099FFF72BFDAA
:10451000A072000AE07202E0706810300390288DEB
:10452000002808D03189814205D929463046039AAE
:10453000FFF797FD94E76B6931462846039A984741
:104540008EE70000B001002070B5054611480468F0
:1045500011E0204600F0B8FB00280BD02846FBF7FE
:1045600028FE0146A068626801400240914201D1E4
:10457000204670BD2468002CEBD1074C2068002831
:1045800005D000F0A1FB002801D0206870BD0020FC
:1045900070BD0000D4000020D8000020F8B504460B
:1045A0002546062020352249A8720A6A00202618CE
:1045B000135C2036401CC0B2F3720628F7D31E4F9E
:1045C0001C480F6388633846203848631B48C8631B
:1045D0001B4900260E601B4A3046127804E0830017
:1045E0005B185E60401CC0B29042F8D3002004E02B
:1045F00083005B18DF60401CC0B29042F8D31048C3
:10460000C421C438FBF79FFD0D48012144380164E3
:104610000D49218533216974806B0C490988484311
:10462000044940180A4988810A480660F8BD00001C
:104630003401002010020020E03E0020D0010020C4
:10464000D8450020BF000020DC050000443E0020CB
:1046500000900040CC000020F8B5002730488021B1
:104660003D4601602F4C606B621A80008018C06B61
:10467000636B80B29B009B189B6F636B9B00D2584F
:10468000D2B20092264A803A1160009A022A19D1C9
:10469000002817D0401C81B20322104600F08CFB8A
:1046A00005003AD0791E00F0A2FC2E467F1CFFB216
:1046B000052F01D90020F8BD7068FDF729FB366889
:1046C000002EF3D1164880210160E26B00231648CA
:1046D000002A02D0009A022A0FD00278134E521CF0
:1046E000D2B202703678B2420ED30370E06B401E35
:1046F000E063E06B002805D006E00370E06B401E2D
:10470000E06301E0A06B6063054880380160002D24
:1047100003D00121284600F06AFC2846F8BD0000BD
:1047200080E100E09445002034010020BE0000201C
:10473000F3B5002581B02C46691E029800F057FCA5
:1047400020481E4F016A1E4A1F4804E0641C944220
:1047500006D8012904D00368002BF7D1029C0EE093
:10476000002101600B20C043FEBD66896168A81965
:1047700085B232463846FBF7CDFC2468BF19002CC1
:10478000F3D1124A0D48136801219B009B18596010
:104790001168491C116011680D4B1B78994201D3B7
:1047A000002111603C2D00D23C252946FDF7E0FA9E
:1047B0000121029800F01BFC0020FEBDE03E00201D
:1047C000FFFF0000003E0020CC000020D845002064
:1047D000BF00002010B500F017F900F00DFA0348F3
:1047E0008068002800D0804710BD00002C460020C3
:1047F00010B5002207E00378891E1C02437889B2B5
:104800002343D218801C0129F5D8002902D0007852
:1048100000021218100C91B24018010C02D0010CC9
:1048200080B2081880B2FFF767FA10BD70B5002497
:104830007D260546F60004E0304600F005F8641CCD
:10484000A4B2AC42F8D370BD002109E0012200BF40
:1048500000BF1346521E92B2002BF8D1491C89B2F8
:104860008142F3D3704700003EB540213148FBF749
:104870006AFC314C2F48A168FEF7B2F82D48402160
:104880004030FBF760FC2B48E1684030FEF7A8F8A9
:10489000284840218030FBF756FC26484021C03094
:1048A000FBF751FC40212548FBF74DFC23482169CB
:1048B000FEF796F8FF21C3312148FBF744FC1D4861
:1048C000FBF758FC05461B48FBF754FC034662699E
:1048D000A06902901BA1019500921948FEF780F88B
:1048E000174832213238FBF72EFC1448FBF742FC04
:1048F000034613481CA132386269FEF771F810486C
:1049000064219638FBF71FFC0D4815A19638FEF779
:1049100067F80A48C8214030FBF715FC074816A184
:104920004030FEF75DF8184803228178114381700A
:104930003EBD0000A039002094000020A03A0020D5
:104940003E3C0020257325346420412E7478740D7C
:104950000A257325346420422E7478740D0A257359
:10496000555345520D0A0000257325346420482E06
:104970007478740D0A000000412E7478742330425C
:104980002E747874233100006C37002010B5002895
:1049900003D0014601A0FEF713F810BD6D53746FEC
:1049A0007049664572726F723A20253032580D0A8E
:1049B00000000000FDF78AFF0748FDF7A1FAFBF7AA
:1049C0007DFFFCF74FFDFCF763FD002801D0FCF7ED
:1049D000CFFBFCF735FBF4E78A00002010B5002878
:1049E0000FD008494A6890420BD38A68904208D297
:1049F000002208380271CA68904200D2C86000F0F4
:104A000067FB10BD7801002030B51049104A0868D6
:104A1000104CC01C80088000486013890125DB1CF5
:104A2000234003800023438003719368DB1C9B08B1
:104A30009B001B188B601D711589ED1C25401D8086
:104A40001289D21C22405A80C86030BD78010020F3
:104A5000443E0020FCFF0000F0B500284AD0284961
:104A6000C31C0B400C2B00D20C23264CA068C01C8E
:104A70008508AD009D4241D32348C6684268B11AFB
:104A800089B2EC1A38E050180579002D33D1058829
:104A90006D1A083D9D422ED304881F46641A1437B0
:104AA0000125083CBC4215D3CB1808339CB213191E
:104AB00000271F7107881F8059800480057119889D
:104AC000104B9B68DB1C9B089B00994203D0931CF6
:104AD000CC5200E005710C49B0420AD18C68CB6819
:104AE0001D79002D05D0A34203D01B889B18CB60F5
:104AF000F6E70830F0BD515A8C42C4D80020F0BD12
:104B0000FCFF0000443E002078010020F8B5324A46
:104B1000C91C11400C2900D20C21304A9268D21CC9
:104B2000920892008A4210D32D4B5C68A0420DD3AC
:104B30009A6890420AD20246083A131B15889BB223
:104B4000EE1A083EB6B2B14201D90020F8BDB1421A
:104B5000FCD02D19AC462F79214DED68AE46204D85
:104B60006D68AD1C002F1BD00F461437B742EDD82F
:104B7000591808318EB21A4FA119714500D2F96047
:104B800000240C7114880C804B801680134A09880D
:104B90009268D21C920892009142D7D04E53F8BD31
:104BA000591866460831368889B20096E64502D122
:104BB0000B4E6718F760641800262671009E268049
:104BC0006380064B11809B682288DB1C9B089B003E
:104BD0009A42E4D05153F8BDFCFF0000443E00204F
:104BE00078010020002904D08200024883580B601D
:104BF00081507047F8450020F0B50020401C80B27D
:104C00000828FBD30E490F4A8868C01C8408A400FA
:104C10000020002386009351450007E09759276044
:104C200094510F687F5B3C195B1C9BB24F687F5BA4
:104C30009F42F3D8401C80B20828EAD3F0BD0000A0
:104C400088010020F8450020082801D30020704783
:104C50000349820088580028F9D003688B507047B8
:104C6000F84500200EB50548009040100190052041
:104C700002906846FBF704FE0EBD0000204E0000C7
:104C8000F8B504460025089F06986560A56026468D
:104C90002036E560757425620A4DE061287830752C
:104CA000401C28702046276100F013F80799204621
:104CB0008847002801D00020F8BD686820602046A1
:104CC0006C60F8BDD00000202030407CC007C00FD1
:104CD000704770B51D461646044600F01BF8314675
:104CE000204600F059F82946204600F007F870BD2C
:104CF0000149886070470000D000002010B50446CC
:104D0000002904D00846FBF754FAE06010BD0020EB
:104D1000FBE70000F8B505460F4600260846FBF7FE
:104D200048FA6968884228D0194800680FE001688D
:104D30006A6891420AD10121C46800F0C7FA31467D
:104D4000761C2046F6B2642901D902E0C06800282A
:104D5000EDD1104804680EE0002C0BD0206800282C
:104D600008D06968884205D1002F0DD03846FBF77E
:104D700020FA2060E468002CEED1002F06D03846DF
:104D8000FBF717FA6860F8BD0020F2E70020F9E7AA
:104D9000F0000020EC00002010B50446002904D0EB
:104DA0000846FBF706FAA06010BD0020FBE700BA3A
:104DB000704740BA70470000F8B5002516460F4608
:104DC000002806D0012805D0022804D0032878D175
:104DD00002E0142514350E35002E49D0012E5FD087
:104DE000022E5DD0032E6CD10720FFF72DFF0400AB
:104DF00067D026730020206060191330B0436060D4
:104E0000314827814068ED1C3930A908B04389003A
:104E1000401AB84200D9384680B201216081E18150
:104E20003D1A00941DE00720FFF70EFF00281BD05D
:104E300006730021417301600099AAB208602249FB
:104E4000028149683931890889008A4200D229469D
:104E500089B202464181103242600122C2816D1A3C
:104E60000090002DDFDC26E0204600F09EF828E0D0
:104E7000284613308108F81C800889008000081833
:104E800080B2FFF7E9FD04001BD0601913308008E1
:104E900080006060278167810020206020730AE025
:104EA0000620FFF7D1FE04000BD0002060602781B0
:104EB0006781206026730120E08100206073204616
:104EC000F8BD0020F8BD0000443E002010B50028C9
:104ED0000FD000290DD004E003890C891B19038130
:104EE00010460268002AF7D102890B89D218028184
:104EF000016010BD10B50C46FFF7E8FF204600F03A
:104F0000D2F810BD002102E0491C0068C9B2002897
:104F1000FAD108467047F8B500270C4605463E46CC
:104F2000002805D0002C03D028892189884202D28C
:104F30000920C043F8BD6889C11B6089801B81427C
:104F400001DB80B200E088B200906068009A8119AD
:104F50006868C019FBF7DEF80098381887B2009827
:104F6000301886B26889B84201D12D68002760895F
:104F7000B04201D824680026002C06D0608921891F
:104F8000884202D12068002808D1002D09D0688904
:104F90002989884205D12868002802D00820C0430A
:104FA000F8BD002CC7D10020F8BD70B5002815D081
:104FB0000024C189491E0904090CC1810DD1017B5E
:104FC000056803290BD001290CD002290AD0FFF76C
:104FD00005FD641CE4B22800EBD1204670BD0146FB
:104FE000072001E001460620FFF7FCFDF1E710B5C0
:104FF000002909D0002807D0002907DA4A4293B2D5
:1050000042899A4224D302E0002010BD8BB2027B79
:105010004468002A06D0032A04D0022A0AD0012AB2
:1050200008D015E0621A0346103342609A4208D253
:1050300044600DE000290BDA42899A4208D3621AD3
:105040004260428952184281028951180181DBE78E
:10505000012010BD70B502898A4223D98A1A0D46F3
:10506000044605E0281A85B220898018208124682A
:105070006089A842F6D3207B00280AD16089A84223
:1050800007D0A088001B401981B22046FFF73EFDE3
:105090000446658125812068002801D0FFF785FF3F
:1050A0000020206070BD002802D0C189491CC18148
:1050B00070470000C107044803D0FF211F3141623F
:1050C00070470249FBE70000009000401E01040009
:1050D00030B5134902884B68D2189C1C90420ED000
:1050E0001579002D0BD18D68AA4208D0CD68954264
:1050F00000D1C860158805801288C51A15534288EA
:10510000D21882420BD01579002D08D1CD68854286
:1051100000D1CA60018811800088D11A015330BDC6
:105120007801002010B50446002905D00846FBF799
:1051300040F82060002010BD0020FAE710B50446BA
:10514000002905D00846FBF734F86060002010BD48
:105150000020FAE7F3B583B000200090039846687A
:10516000707A317A00020843FFF723FEC0B2019043
:105170001448002504681FE0217C0198814216D163
:105180006769002F13D033460C33A0692146039A78
:10519000B84700280BD00020039001200090002D7C
:1051A00005D0E068E86007480168E16004602546D2
:1051B0000098E468002801D1002CDDD1009805B0EA
:1051C000F0BD00007401002070B505460020FFF717
:1051D0003BFD040009D01C21FAF7B5FF257480209F
:1051E000E07203480168E1600460204670BD000081
:1051F00074010020826141617047000010B50B49C5
:105200000A6882420AD1D2680A6009E0D16800299E
:1052100003D0814201D1C168D1600A46002AF5D18C
:1052200001460020FFF7DEFC10BD000074010020E5
:1052300010B5021D00F001F810BDF7B50E4604468A
:1052400084B014213046FFF7D2FE0027FF43002828
:105250000AD0002211460120FFF7AEFD05000BD059
:105260003146FFF747FE0AE013213546C943304671
:10527000FFF7BDFE002802D0384607B0F0BD069803
:10528000FFF762F9002817D0002C1DD021680029F3
:105290001AD02146227CA37A019202900093E37AED
:1052A0002846069AFFF7CAF80446B54202D02846B7
:1052B000FFF77BFE2046E0E7B54202D02846FFF725
:1052C00074FE0320C043D8E7011DE3E7F3B50446AD
:1052D000007C87B00A283ED0A06D0390606A0290DF
:1052E000002C42D020680490201D00D060680590FA
:1052F00094200559278B268C606900902046FCF786
:1053000015FF21461A4801F075F9A06F002801D059
:1053100002F023F8606F002801D002F01EF8E06F61
:10532000002801D002F019F821460220FFF75AFCAC
:10533000002D03D00421C9430098A84708980028ED
:1053400007D005AB04AA009701960299039801F0D3
:1053500071FF09B0F0BD06482146001D01F04AF971
:1053600021460220FFF73EFCF3E700200490BDE752
:10537000F0000020C16170470420C0437047000066
:10538000F8B507460220FFF75FFC3E4C3E4D060095
:1053900040D1287C400701D40020F8BD00210846F8
:1053A000A668A26906E0136BF31A8B4201D3194673
:1053B0001046D268002AF6D1002802D00121FFF75A
:1053C00085FF0220FFF740FC060023D17F1E7F20CF
:1053D000844600206269A168FEB2864600910DE015
:1053E000517CB14209D8614507D8176B009BDB1B84
:1053F000734502D39E4610468C46D268002AEFD1F0
:10540000002802D00121FFF761FF0220FFF71CFCFA
:10541000060035D0AC21FAF796FE40207074C10129
:105420003018C18500230386A98831857185B37240
:105430008021F17243226968D200914200D911465D
:105440003187062101818380C180C91FF186012136
:10545000418200F039FE7066B065F064B066A06805
:1054600030633420835530460849803081600849D4
:105470000A6882614A68C26189680162A92083550D
:105480003046F8BDDC000020443E0020D370000010
:10549000583E002041617047F7B50746007C82B056
:1054A0001446002803D00C20C04305B0F0BD002CEA
:1054B00002D100F0DBFD04463548056811E0288B79
:1054C000A0420DD1002D4BD02E68002E48D003985D
:1054D000002845D0FAF76DFE002841D0B0423FD0F9
:1054E000ED68002DEBD12A4D103D6E6913E0308B35
:1054F000A0420FD1002E33D03068009000282FD06A
:10550000039800282CD0FAF754FE002828D00099E0
:10551000884225D0F668002EE9D1EE6813E0308B82
:10552000A0420FD1002E1BD030680090002817D069
:105530000398002814D0FAF73CFE002810D00099F8
:1055400088420DD0F668002EE9D1AE690CE0308BB0
:10555000A04208D10398FAF72CFE3168884202D1A4
:105560000A20C043A1E7F668002EF0D10398002876
:1055700008D0FAF71EFE002804D00422384603990A
:10558000FAF7C8FD3C83E868F8600020EF608CE71C
:10559000EC00002070B50546007C05260300FDF7F1
:1055A0004AFA08051D2B35354A4A3D4A2846FCF77C
:1055B000BDFD24480024C168A94201D1C96807E0A3
:1055C000C161002905D0C968A942F9D1E968C0695B
:1055D000C1600020E860294602200AE00024284635
:1055E000FCF7A4FD17482946103001F003F82946BE
:1055F0000320FFF7F7FA23E000242846FCF796FD86
:1056000010482946143000F0F5FFE4E70121284650
:1056100001F0B0FE040009D12E7407E001212846F4
:1056200001F0A8FE040001D109202874002D07D044
:10563000002C02D004E0002402E0284600F0A6FD81
:10564000204670BDDC00002010B504460846FEF779
:105650007BFF002808D0008D002805D0283880B2B4
:10566000844200D220460446204610BDFFB58FB0CC
:10567000119919980143129880070143EE4877D099
:105680001199002902D11099002971D10F9811990F
:1056900040300690C28D0F9820300D908A4205D27E
:1056A0008178802001430D98817050E1109802901C
:1056B00019980991C00701D0042100E00021199830
:1056C000800701D50C2000E00020081807900F98F3
:1056D000876E0698008E0590D84841680120C00367
:1056E000FAF7EEFC01460598814202D9D449884276
:1056F00001D90D98D4E7002603960F98018F0798DB
:10570000081A0999884200DB084680B200900420FC
:10571000FFF79AFA04006ED0002525606560002E20
:1057200027D00398046018980394C00723D00799E2
:1057300000980022401881B21046FFF73DFB6060E0
:105740000028E8D0FFF7DEFB01460598081880B274
:1057500005901098002807D06068009A4168079863
:1057600008180299FAF7D6FC60684068A06026E045
:10577000EFE00646D7E7002210460799FFF71CFB2B
:1057800060600028C7D0FFF7BDFB014605980818E8
:1057900080B205900998002811D0012203200099B9
:1057A000FFF70AFB010021D00598401C80B205904C
:1057B000029848600298A0606068FFF787FB9F48E6
:1057C00041680120C003FAF77BFC0146059881423D
:1057D00011D301469A4881420DD80098A081142126
:1057E0006068FFF704FC002805D105E06068FFF75A
:1057F000DCFB002060609FE06068406820610F98DB
:10580000008BFEF779FA21690870000A48700F983A
:10581000008CFEF771FA21698870000AC87038465A
:10582000FEF768FA2169091DFAF7CDFC2069290AFB
:105830008574C17482483C38FEF75EFA22690546D9
:10584000517B127B090211430D401298FEF754FA66
:1058500005432069290A057341731998A0732169CA
:10586000487B097B00020843FFF7A3FA079905224A
:105870008908800609031203800E89180843FEF781
:105880003BFA21690873000A4873009909987F1848
:10589000401A80B209900298401802900998002896
:1058A00000D02AE70F98456F002D72D000E0054622
:1058B00028680028FBD1002D6BD02969487B097B23
:1058C00000020843FFF775FA800700D00120A9897C
:1058D000C84277D02969487B097B00020843FFF75B
:1058E00068FA80076ED11298800702D012980128BA
:1058F00068D1A889B18941180F98008F814261D879
:10590000A87BB17B88425DD12869001DFAF751FC64
:10591000FFF74DFAA98947183069001DFAF749FCCD
:10592000FFF745FA87424DD1079970681431494213
:10593000FFF75DFB00280ED00D9881788020014391
:105940000D98002E817002D0304601F006FD002037
:10595000C04313B0F0BD70684189002909D10168C6
:105960007160002101600599491E89B20591FFF718
:105970001CFB1298C0070DD00120FEF7BDF9296964
:105980004A7B0B7B12021A4310430873000A4873C8
:105990000AE014E071686868FFF798FAA889B1898D
:1059A0004018A88130682860B44202D1A8892C46EA
:1059B000009031460420FFF715F904E002E00F984B
:1059C000466700E02E601298800703D01198401CB3
:1059D00080B211901298C00705D00D9820218078D0
:1059E00008430D9988700F98816E119809180F98C7
:1059F00081660698C18D1198081A0699002CC885F1
:105A000006990598088614D00098002811D02069BE
:105A100000280ED0189880070BD40820FEF76CF9E8
:105A200021694A7B0B7B12021A4310430873000A58
:105A3000487300208DE70000F6FFFFFF443E002082
:105A4000FCFF00008030416170470000F8B5184845
:105A50000026446928E0254680352A68002A0FD0B0
:105A6000AF68002F04D0002321466069B84704E0E6
:105A700000232146184601F02CFB002800D12860A5
:105A8000761CF6B2642E11D825462035A878C107B9
:105A900009D002210843A870204600F077FBA878BF
:105AA00080088000A870E468002CD4D1F8BD000004
:105AB000DC000020F0B50746ED4D87B040680C468D
:105AC000A8604178027808021043FFF772F90005D8
:105AD000000F7968800040186860A96848780978E4
:105AE00000020843FFF765F90005000F80004142FE
:105AF0003846FFF77CFA00287ED1388914287BD3FA
:105B0000A86821461030FEF78FFA0028F4D1A86863
:105B10001030FAF74EFB04460F200007FFF747F955
:105B2000044007204007FFF742F9844264D03889D7
:105B30000090AA680623114638460C311032FEF751
:105B400037FA0028D8D16868417B027B08021043ED
:105B5000FFF72FF9000B800041423846FFF747FA64
:105B60000028C9D169684878097800020843FFF71E
:105B700020F9014668680170090A4170C17882788D
:105B800008021043FFF715F9014668688170090A99
:105B9000C170001DFAF70DFBFFF709F969680C46A3
:105BA000091DFAF710FBE86020460830FAF701FB00
:105BB000FFF7FDF869680C460831FAF704FB286125
:105BC000E07BA17B00020843FFF7F3F80146686819
:105BD0008173090AC173417B027B08021043FFF7FE
:105BE000E8F88006800E28703989800700D00120EF
:105BF00008186880002600E0B8E09E4804689C48C9
:105C00000194806801460C31103004909848069148
:105C100045683EE068782A78218C00021043814272
:105C200035D1E878AA78218B0002104381422ED129
:105C30000698FAF7BEFA6168884228D10498FAF704
:105C4000B8FA2168884222D1002E05D0E068F060C1
:105C500088480199E1600460002C1CD0864900202E
:105C600008603A898A817A684F608A60804A0D614B
:105C700050612646507080363268002A7BD0B56865
:105C8000002D7AD0002321466069A8477AE0264695
:105C9000E468002CBED1794804681EE068782A7850
:105CA000218C00021043814216D1E878AA78218B1A
:105CB0000002104381420FD10698FAF77AFA616820
:105CC000884209D10498FAF774FA2168884203D10E
:105CD000204601F0CDFC49E0E468002CDED16848A4
:105CE00000260468009421E0002C0AD02068069069
:105CF000002806D00498FAF75CFA0146069881421B
:105D000012D1E878AA78218B0002104381420BD18E
:105D1000002E05D0E068F06059480099E160046009
:105D2000204600F0DDF821E02646E468002CDBD1B7
:105D3000687B297B00024E4C0843FFF73AF8400786
:105D400014D4616848780A7800021043CA788B78C6
:105D50001102194300910190A3686188E0681A4616
:105D6000411810320C33206901F064FA3846FFF70D
:105D70001CF907B0F0BD08E0FFE7002321461846F4
:105D800001F0A7F90028F1D13060394D2046AC610F
:105D900000F064FC401D61D0687801071BD505A99F
:105DA0002046FAF7DFFC012802D1207C022855D0DA
:105DB0002046FCF7BBF97269002A03D00521C943CC
:105DC0006069904721462B4800F014FC21460220D0
:105DD000FEF708FF42E0C00603D52046FCF7A6F90F
:105DE000F0E76C20025B002A05D07368002B02D01C
:105DF0002146606998476A69002A17D02878000709
:105E000003D5507B012108435073B768002F04D09D
:105E1000002321466069B84704E000232146184664
:105E200001F057F9002801D06869306068782F4682
:105E300080060ED5B668002E05D000231A462146EE
:105E40006069B04705E000231A462146184601F074
:105E500040F90020B861204600F098F90026064C71
:105E6000AE616068002884D0FFF79FF8666080E725
:105E700094010020F000002018460020F4000020CB
:105E8000EC0000207CB50446002214210120FEF71E
:105E900093FF050022D0A06D401EFDF72BFF0346A7
:105EA00000222946204600F0E5FA0646288900909F
:105EB0000623221D21462846FEF77AF83074000A90
:105EC00070740621002001910090E37A221D214682
:105ED0002846FEF799FA2846FFF767F87CBD0000D0
:105EE000FEB53C4D06462878C10616D56968487847
:105EF0000A7800021043CA788B7811021943009186
:105F000001906988E868AB68411828691A46401C06
:105F100010320C3301F08EF959E0800757D5707CB0
:105F2000FFF72EFA04004BD0AF683846103001D08E
:105F3000FAF73FF92060308B208338460C3001D0CF
:105F4000FAF737F960606A68507811780002084300
:105F5000208403202074E868411C6162E162D17BE7
:105F6000937B0A0221461A4340318A838A82401E6B
:105F7000206670696061F069E0613089FF219A31C3
:105F80000840208114480168E1600460204600F068
:105F9000C9FA208F211DFFF757FB20870020012120
:105FA000019102460090014612232046FFF75EFB56
:105FB000050008D000212046FFF788F92846FEBDDD
:105FC0000020C043FEBD204600F0E0F8FEBD0020EA
:105FD000FEBD000094010020F000002070B50446D2
:105FE000007C002801D0002070BD0320FEF72CFEAD
:105FF000051EF9D060696861208B28830120287410
:106000002089022108432881E07AE872A07AA872E8
:10601000002C07D0206828600F48C168A14203D136
:10602000C96809E00020F6E7C161002905D0C96808
:10603000A142F9D1E168C069C1600020E060214659
:106040000220FEF7CFFD0548E861034810300168E3
:10605000E9600560284670BDDC000020795300002F
:1060600010B54020FFF78CF910BD000030B5154881
:10607000134D44694188491C89B24180A94202D923
:106080000121090341802146438803E00A8B9A429B
:10609000F0D0C9680029F9D1826903E0118B9942D7
:1060A000E8D0D268002AF9D1064910310A6803E025
:1060B000118B9942DED0D268002AF9D198B230BD56
:1060C000FF7F0000DC00002002498A6848688018D1
:1060D00048607047DC000020F8B50C4601690546B1
:1060E000487B097B00020843FEF763FE254FC0078B
:1060F00027D0204601F031F9002441E0707B317B4C
:1061000000020843FEF755FEC00716D01E48FDF7F3
:10611000F3FD29690646487B097B000208430640D7
:10612000FEF747FE8006800E01210843FDF7E4FDDF
:1061300006432869310A067341732046246801F03A
:10614000FBF8002C1CD020690646001DFAF731F838
:106150000146A089FA680818A9898918081ACDD5B6
:106160002069001DFAF725F8AA89F9685218121A51
:10617000002A05DD401A81B2A9816868FEF76AFF2E
:106180002C60F8BD94010020C0FF0000F0B504466B
:106190007D4885B00068A04202D1002005B0F0BD66
:1061A0002046403003900399808B498A884200D36F
:1061B0000846029020462030656F00908078800766
:1061C00012D5002D0CD02869001DF9F7F2FFFEF75B
:1061D000EEFDE16C401AA98941180298814203D969
:1061E000204601F0D2F8D9E7A66F002E01D199E040
:1061F000064630680028FBD194E0A06F002812D03A
:10620000009844228078014610420CD1606F00282B
:1062100006D00268002A06D18089228F904202D2DD
:10622000A020014276D028686067207C022812D026
:106230001020FDF761FD01462869427B037B1202B5
:106240001A4311430173090A417300988078810849
:106250000098890081702146284600F097F8286947
:10626000001DF9F7A6FFFEF7A2FD29690746487B46
:10627000097B00020843FEF79CFD800700D0012047
:10628000A98938184018A16D091A00D5A065296997
:10629000487B097B00020843FEF78BFD800701D095
:1062A000012100E00021A889C14237D000202860E8
:1062B000A06F002811D02869001DF9F77AFFFEF7BA
:1062C00076FD07463069001DF9F773FFFEF76FFD95
:1062D000381A20D52046783003E0A5671CE00198E5
:1062E00000680190006800280ED00069001DF9F7D1
:1062F00060FFFEF75CFD07462869001DF9F759FFAE
:10630000FEF755FD381AEAD4019800682860019814
:10631000056006E017E035602E4602E0284601F0F1
:106320000BF8656F002D28D02869001DF9F741FF93
:10633000FEF73DFDE16C401AA9894118029881429F
:1063400000D85AE701E0002D17D02646A036307A53
:10635000002812D12869001DF9F72BFFFEF727FD51
:10636000E16C401AA98941180398808B814204D9B5
:1063700000208034606201203072009880784106ED
:106380000098490E817008E7AC0100207CB50546F5
:106390000C46486AFDF7AEFC29690831F9F713FF8E
:1063A000608DFDF7A9FC29698873000AC873618DA7
:1063B000606A4018E0622E69A87B1436C00707D0D7
:1063C0002A488121406889040843FDF793FC306026
:1063D000002C02D02068002808D1201DFEF7B4F858
:1063E000002841D0011D07D0406820603620205E83
:1063F0000026401C02D002E00020F6E7E686E06BB3
:10640000002809D11A480068E0632869001DF9F7DF
:10641000D0FEFEF7CCFC20646968288A8A880623AF
:10642000801A4A89121A4A8169680A89101A0881F1
:106430006968286948602869310A06744174686887
:10644000221D018900912146FDF7B2FD2969221D17
:106450000874000A4874A07A062101910090E37A3A
:1064600021466868FDF7D0FF7CBD0000443E002057
:10647000E4000020F8B505461F461646008B4C6820
:10648000FDF73AFC2070000A6070288CFDF734FCA0
:10649000A070000AE070211D3846F9F794FE686A82
:1064A000FDF728FC21460831F9F78DFE1C48FDF761
:1064B00023FC617B227B0902074611430F40102019
:1064C000FDF71AFC07432773380A6073688DFDF7E0
:1064D00013FCA073000AE0730027A774E774607BC5
:1064E000217B00020843FEF764FCF117890F89192C
:1064F00089100522800609031203800E89180843BB
:1065000080B2FDF7F9FB2073000A60732774380A24
:106510006074698D686A4018E8622046F8BD000022
:10652000C0FF0000F8B5204E05467468617B227BF1
:10653000080210431434FEF73CFC000B05281CD95C
:106540007168487B097B00020843FEF732FC000BB0
:10655000401F8004000C0021144B0CE0625C002AF8
:106560000BD0012A0AD0022A0AD062185278002AD7
:1065700003D0511889B28142F0D3F8BD491CF9E724
:1065800062185678042EF8D1091D8142F5D8D678C4
:10659000977832023A435E6852BA964201D3002A93
:1065A00000D132462A87E5E794010020443E0020CE
:1065B00070B50446007C00281BD00A2819D0012899
:1065C00017D02546803528680026002802D0FEF71F
:1065D000ECFC2E600020C043E086E06F00F0BDFEC2
:1065E000E667606F00F0B9FEA06F00F0B6FE666768
:1065F000A66770BD70B50C460168A14202D1C9689A
:1066000001600BE0114806E0C968A14203D1C069EE
:10661000E168C16002E0C1610029F5D10025204692
:10662000E560FFF7C5FF207C0A280CD001280AD0BE
:10663000204620308178CA0705D00222114381709C
:106640002046FFF7A3FD257470BD0000DC0000208C
:10665000902319502030427570470000FEB5044663
:10666000C84F254638782035410700291BDA207CA1
:10667000022813D0606AF9680A1A13D4228D801890
:10668000081A00280EDC7878082108437870A8786A
:1066900040084000A8700520C043FEBDA06D3969C8
:1066A0008842F0D06CE180070CD5207C022809D00C
:1066B000032807D0A87802210843A8702046FFF7D6
:1066C00065FD5DE1B048A921006820630020085500
:1066D0002046FFF727FF207C2646801E4036030019
:1066E000FCF7A9F9080565BEC3F0BEEFEEB2387835
:1066F000C106D7D5800748D5A06F0069001DF9F7FE
:1067000058FDFEF754FB3969401C88423AD1F08DA0
:10671000401CF085F8680246401C6062E164E0625B
:106720007968521EC87B897B00020843B08304202D
:1067300022662074208F211DFEF786FF0A21208704
:106740004143B182718A012900D140007082308EAC
:10675000401E3086A16F0868A06700280ED0002078
:10676000E086B072084600F0E7FD8C200359002B4C
:10677000A0D000222146606998479BE70020C043D3
:10678000E086EFE73878C0068CD5796848780A78D3
:1067900000021043CA788B781102194300910190CE
:1067A0007988F868BB6841181A46386948E0387833
:1067B000C1064AD5E16C3869411A012930D4A16D6E
:1067C000411A00292CDC04202074E369002B0CD032
:1067D0000022214660699847002806D00121204602
:1067E000FEF774FD0420C043FEBD778A204600F00A
:1067F000D3F8B08D002801D0401EB085208F012F26
:1068000000D1400070825F48407880061CD5A8788F
:1068100002210843A8702046FFF7B8FC072062E079
:106820007A685178137809021943D37894781A0258
:106830002243009201917A88F968BB6889181A4648
:1068400010320C3300F0F6FC9AE0800707D5606A3E
:10685000F968401E884202D1204600F083FC8FE098
:10686000204600F099F87878CFE7204600F094F8B9
:106870007878800638782FD5C00624D5A06D396980
:10688000884220D1A87802210843A8702046FFF74B
:106890007DFC2046FFF78CFE3C480168A14202D1F6
:1068A000C968016057E03A4806E0C968A14203D1CF
:1068B0000068E168C1604EE001600029F5D14AE05E
:1068C00050E02FE011E0A87802210843A87020468C
:1068D000FFF75CFC082006E0C00651D5A06D3969C1
:1068E00088424DD1062020744AE0204600F054F83A
:1068F0007878800644D5A87802210843A8702046FD
:10690000FFF744FC2046FFF753FE20480168A142F0
:10691000C6D01F4802E0C968A142C9D00160002961
:10692000F9D118E0204600F037F83878C00627D5AE
:10693000A06D3969884223D12046FFF739FE1348FC
:106940000168A142ACD0124802E0C968A142AFD0B0
:1069500001600029F9D10A2020740E480168E16025
:1069600004600DE0204600F017F83878C00607D51F
:10697000A06D3969884203D1787810210843787076
:106980000020FEBD94010020E4000020F000002063
:10699000F8000020F4000020FEB50446F848264622
:1069A00000782036C00600287EDA25464035A88BC0
:1069B0000190636EF249C0180090206ECA68844648
:1069C000871A0846416800690CD4944501D11F1A02
:1069D00008D4834215D1CB7B8F7B1B023B43019FA5
:1069E000BB420ED9CB7B8F7B19023943A983226628
:1069F000606606D02146A0310A7A002A01D0002222
:106A00000A72E26C811A00292ADC0021DC4BA9857C
:106A10005B88002B22D1AF8B636EDF19009B9F42F6
:106A20001CD13623E35E002B18DB824216D1287C72
:106A30000146401C884200D92874287C032807D9C5
:106A4000688A218F411889B2814200D969829CE00D
:106A5000032802D1204600F0ADFB96E0297494E0B3
:106A6000012975D4A36DC21A002A71DCB2785307CC
:106A700004D5FB231A40B270AA8A6A820022AA7245
:106A80000423EB5EEF88DB10DB192B81A985EB8DEE
:106A90005918E9852A74E064207C04282FD36F8A72
:106AA000A88A8742208F00E0B2E004D2381880B272
:106AB000B84208D823E040433946F9F717FBC0191C
:106AC00080B287421BD2688219E03868A067A88D1F
:106AD00000280BD03969487B097B00020843FEF788
:106AE00068F9C00702D0A88D401EA8857868FEF717
:106AF00009FA298E081A2886384600F01DFCA06F76
:106B0000002822D00069001DF9F753FBFEF74FF96A
:106B10000746A06F0169487B097B00020843FEF726
:106B200048F9800700D001203818A76FB9894118AB
:106B300093480069081A0028C7DD002F05D00020FF
:106B4000E0860020307520E002E00020C043F7E737
:106B50000020A88519E038686067A88D00280BD050
:106B60003969487B097B00020843FEF722F9C00718
:106B700002D0A88D401EA8857868FEF7C3F9298E3B
:106B8000081A2886384600F0D7FB606F00281DD011
:106B90000069001DF9F70DFBFEF709F90746606F64
:106BA0000169487B097B00020843FEF702F9800770
:106BB00000D001203818676FB98941187048006902
:106BC000411A03D4A16D401A0028C4DDE06B0028EF
:106BD0001ED06B49226C0969511A19D56949098877
:106BE000081A0421695ECA10801A00B2091809B295
:106BF000A980002801DA404200B20622AA5EC9102C
:106C00009310C01A1018E880081828810020E0634B
:106C10005B4D6B88002B7DD0626AE968501A0128B1
:106C20002AD4CB18D31A5B1C002B25DC56494F689D
:106C3000798981420BDA3989091A8AB2002303E083
:106C40003A817B813F68401A79898142F8DB404272
:106C500001B23846FEF7CBF94B4879688160AB89C1
:106C6000626A8189D31AC91A818101691046091D96
:106C7000EA60F9F7A8FA08E0881A0AD5B178022084
:106C80000143B1702046FFF781FA606AE968081A8B
:106C90007ED4218D606A4218E9688A1A521C002A43
:106CA00076DC884275D1384F3969487B097B000210
:106CB0000843FEF77EF8800701D0012100E00021A3
:106CC0003148808908182E4980B24880218D814240
:106CD00040D22D4D2969487B097B00020843FEF70D
:106CE00068F8C00714D02948FDF706F80746286958
:106CF000417B027B080210430740FEF75AF83E2111
:106D00000840FCF7F9FF07432869390A0773417304
:106D1000208D00E0C1E1A8812969487B097B000240
:106D20000843FEF746F8800702D5A889401EA881CF
:106D3000A9896868FEF78EF92969487B097B0002FA
:106D40000843FEF736F8800700D00120A9894018D3
:106D50000B494880E06F002811D00B480169487B3F
:106D6000097B00020843FEF724F8C00704D111E0B4
:106D70000168E16700F0E0FAE06F0028F8D189E0EF
:106D800094010020E400002018460020C0FF00000D
:106D90007FE1FBE0E76F3AE0687B297B0002084374
:106DA000FEF707F8C0072ED0C5480069417B027B7B
:106DB00008021043FDF7FDFF800724D4C148FCF70B
:106DC0009BFF0546BE480169487B097B00020843DA
:106DD0000540FDF7EEFF8006800E01210843FCF719
:106DE0008BFFB74928430969020A08734A73FDF704
:106DF000E0FF800701D0012100E00021B048808938
:106E00000818B149488038463F6800F095FA002FCD
:106E10003FD038690546001DF9F7CBF90146B8891E
:106E20000918A948C26840881018401AB4D53869B2
:106E3000001DF9F7BEF90146A348C5684088281827
:106E4000401A002825DDE06F0069001DF9F7B1F94F
:106E5000401B9B4DA8812869427B017B100208439F
:106E6000FDF7A7FF800702D5A889401EA881A98940
:106E70006868FEF7EFF82969487B097B0002084340
:106E8000FDF797FF800700D00120A98940188E499F
:106E90004880E7678C4D6888E96809186162218D30
:106EA000081A2085204600F02DFC854841680A8993
:106EB000002A02D06961002141600169487B097B99
:106EC00000020843FDF775FFC0074AD0687820210B
:106ED0000843687045E0E8600098417B027B080247
:106EE0001043FDF766FF800700D00120BA89616A70
:106EF0008918401860623969487B097B00020843A1
:106F0000FDF757FF800700D00120B9894018218D77
:106F1000081A2085204600F0F5FB796808890028CA
:106F200008D06869002802D0FDF7D0FF00E0696151
:106F3000002078603969487B097B00020843FDF72F
:106F400038FFC00708D06878202108436870207C8B
:106F5000042801D1072020743868E067384600F023
:106F6000EBF9E76F002F07D038690090001DF9F7A3
:106F700020F9616A8842AED0B078C10702D04008DB
:106F8000400095E001210843B070FEBD204600F0AE
:106F9000FCF9E66F002E18D04B480027C568306911
:106FA000001DF9F706F90090A84213D14448B189B1
:106FB00080898842E9D9424800F0ACF90028E4D041
:106FC000002F38D0386031462BE03D4800F0A2F960
:106FD000E067FEBD002F27D03869001DF9F7E9F8FA
:106FE000281A012829D40098281A401C002824DCDB
:106FF000334800F08FF90400EBD03869001DF9F731
:10700000D8F8B98942183049C968521A002A05DDF2
:10701000081A81B2B9817868FEF71CF8314620461B
:107020003C60FFF759F8FEBD281A06D5244800F049
:1070300071F90028F7D0E067C5E73168002924D14D
:107040000098281A002820DD3069417B027B080265
:107050001043FDF7AEFEC007E5D1194800F05AF91C
:1070600030600028DFD03069001DF9F7A2F8B1893F
:1070700042181549C968521A002AD4DD081A81B28B
:10708000B1817068FDF7E6FFFEBD37460E0086D180
:10709000FEBD204600F079F9FEBD606AE9680A1A73
:1070A00005D4228D8018081A401C0028F4DDB07821
:1070B00002210843B0702046FFF768F8FEBD0000CB
:1070C00018460020C0FF000094010020803081603D
:1070D000704710B51400084606D0218900F00CF85E
:1070E0002046FDF762FF01E0002B01D0002010BD1B
:1070F000FEF750FA10BD000070B50446008D0C4D2F
:10710000401881B221856868814200D920852046D7
:1071100000F0F8FA69688908814208D820462030D2
:1071200081780222114381702046FFF72FF870BD4D
:10713000443E002010B5018500F0E4FA10BD10B502
:10714000018504464185002901D000F0DBFA204684
:10715000203081780222114381702046FFF716F813
:10716000012010BDF8B5866F0446002E21D030688E
:1071700025467435A06700E02D68286800280ED0E9
:107180000069001DF9F715F8FDF711FE0746306993
:10719000001DF9F70EF8FDF70AFE381AECD428683E
:1071A0003060214640312E60887A401C8872002071
:1071B000E063F8BD70B50446806F002820D02546F6
:1071C0002035A87840071BD42046FFF7CBFF204688
:1071D0004030428A818B8A4201D9490800E0510837
:1071E0008182228F8BB251008B4200D28182818AB0
:1071F0005300D21889184182A87804210843A87046
:1072000070BD10B5816F002912D000E011460A68E8
:10721000002AFBD1426F0A60816F002282674167BA
:10722000014640318B7A5B1C8B72C263FEF7AEFF66
:1072300010BD0000FFB50E4683B01F46002214218A
:107240000120FDF7B9FD05005ED06C680C98FCF7D5
:1072500053FD2070000A60700D98FCF74DFDA07082
:10726000000AE0700398FCF745FD211DF8F7ABFF1D
:107270003046FCF73FFD21460831F8F7A4FF2348CC
:10728000FCF73AFD617B227B0902064611430E4062
:107290001420FCF731FD06432673300A60731C4846
:1072A000808880B2FCF728FDA073000AE0730026F6
:1072B000A674E674607B217B00020843FDF779FD2C
:1072C00080060521800E09034018FCF715FD207388
:1072D000000A60732674300A6074288900900623BF
:1072E0003A4628460599FCF763FE2074000A60744C
:1072F00006200096019080233A4628460599FDF71E
:1073000083F82846FDF751FE07B0F0BDC0FF00002E
:10731000443E002070B505460420FDF795FC0400AE
:1073200008D014222946F8F7F5FE6068FDF7BBFE89
:10733000204670BD002070BD70B5002504460028B1
:1073400009D06068002802D0FDF72FFE05462146CF
:107350000420FDF747FC284670BD70B5002405E009
:107360000568FFF7E9FF0019C4B228460028F7D1E5
:10737000204670BD1CB500230122019300920B46EC
:1073800000221146FEF772F91CBD7CB504460026AA
:10739000324614210120FDF70FFD050029D02046BB
:1073A00020308178890889008170A06DFCF7A2FCEB
:1073B0000346324629462046FFF75CF806462889F0
:1073C00000900623221D21462846FCF7F1FD30746B
:1073D000000A7074A07A062101910090E37A221DC0
:1073E00021462846FDF710F82846FDF7DEFD00206F
:1073F0007CBD0120C0437CBD8030416070470000EF
:10740000F0B597488BB0007E964E0690B068002786
:10741000401CB0600797746906E138467F1CFFB2D4
:1074200064287DD800250895227C022A06D14A20AE
:10743000015D0698814201D1012554E02146403189
:107440008B7A0698834201D1012543E02046A03083
:107450008446007A002813D023468033596A824A32
:10746000491C5962825C914234D300215962072839
:1074700002D26146401C0872204600F079F929E0EA
:107480003620205E002801DB401CE086A06F00282B
:1074900020D03620205E01281CDB022A08D00420E0
:1074A000085ECA88C0108018704AD25C904008817B
:1074B0000020E086488A8A8B904200D3104640081C
:1074C0008882228F904201D2500088824A822046D0
:1074D000FFF797FE207C062805D1206BB168081ABB
:1074E000282800D96D1C207A000736D5207C042876
:1074F00001D0072831D120468030026AC169049149
:107500004A4380690990FF211018F531F8F7D8FD3A
:107510000146206BB268101A0190814205D200E04A
:107520009CE001206D1C089017E02046A0300090E0
:10753000407A0499484309994018FF21F531F8F73A
:10754000BFFD01460198814207D22046FEF79AFC12
:1075500000980099407A401C4872E06F00280CD0D7
:10756000216BB2684823521A195F062359438A4295
:1075700003D3FFF7F2FE0020E067207C032802D04F
:10758000092807D00BE0216BB068401A282806D9DB
:107590006D1C04E0216BB068401AF028F8D8002D6B
:1075A00029D02046FAF7C2FD2046FFF701F80798D8
:1075B000002802D0E168C16001E0E06870619420B9
:1075C0000259002A03D00421C943606990470898F2
:1075D000002809D0218C208B01910090231D224688
:1075E000616AA06DFFF726FE21460220E568FDF7DF
:1075F000F9FA2C4618E020462030017D491CC9B21A
:107600000175427D91420DD30021017590200259F0
:10761000002A04D0214660699047002802D1204604
:10762000FEF7B4FD0794E468002C00D0F5E60025D1
:10763000B46911E02046FAF779FD2046FEF7B8FF5D
:10764000E068002D01D0E86000E0B0612146022032
:10765000E768FDF7C7FA3C46002CEBD10BB0F0BD54
:10766000003E0020DC000020E3810000EB810000F0
:107670007CB51B4C21784A0730D4224652888B07B0
:107680001CD5436AE168CD1A1DD4058D5B19CB1A50
:10769000002B18DC6368891858781D78000228438D
:1076A000DD789E782B02334300930190A368206914
:1076B0001A4610320C33FFF7BDFD0FE0C90702D0A8
:1076C000084909680163002A08D0014620318A78F8
:1076D00002231A438A70FEF759FD7CBD00207CBD51
:1076E00094010020E400002010B5FEF7AFF9044833
:1076F0000178491C0170C80701D0FFF781FE10BD59
:10770000DC00002030B50D49058D4968446A4A08FF
:10771000018F63198A4200D21146C26A8918591A28
:1077200002D44585981A30BDA11A002901DD002137
:1077300000E0111B4185002030BD0000443E0020C8
:107740001CB5047C042C08D0072C06D0022C04D0D5
:10775000032C02D00720C0431CBD002A06D0002401
:10776000009301942346FDF781FF1CBD00201CBD42
:10777000FEB5846F0546002C02D16C6F002C53D0EF
:107780002169487B097B00020843FDF712FBC00713
:1077900002D0A089002827D00020152100900022C7
:1077A0000120FDF709FB06003ED02069001DF8F717
:1077B00000FD0346002231462846FEF75BFE0746E1
:1077C0000098002814D01948FCF796FA797B3A7B88
:1077D0000902044611430C401120FCF78DFA0443C2
:1077E0003C73200A787307E0012014210090D6E74B
:1077F000A0687168007808753089009006232A1DFA
:1078000029463046FCF7D4FB3874000A7874062108
:10781000002001910090EB7A2A1D29463046FCF7A2
:10782000F3FD3046FDF7C1FBFEBD0000C0FF0000C8
:10783000F7B50546234882B014460026076817E0CE
:10784000BD4201D1012612E0788AA0420FD1002F5B
:107850002BD038680090002827D00398002824D027
:10786000F8F7A7FC002820D0009988421DD0FF68B7
:10787000002FE5D10398002801D0F8F79AFC286082
:10788000002C16D10F4801240168240308460E4A33
:1078900007E04B8AA34203D1641CA4B2014600E076
:1078A000C968002905D09442F3D10A20C04305B02D
:1078B000F0BD6C82002E03D102480168E9600560CA
:1078C0000020F4E728010020FF7F000070B5164675
:1078D000428A0D460446002A04D10146FFF7A8FF5C
:1078E00000281FD1002D0ED02846F8F762FC6060FA
:1078F000A682217C042211432174002C07D0216828
:10790000002902D00FE00020F1E7211D0FD0002850
:1079100009D0201DFCF718FE002801D0406807E0C0
:107920000320C04370BD211D01D0002801D10020DB
:10793000206007490868024604E0844201D1002023
:1079400070BDC0680028F8D1E2600C60F7E7000065
:1079500028010020F3B545680746687829780002B9
:1079600089B00843FDF725FA0005000F800039892A
:10797000083088420ED86878297800020843FDF75D
:1079800018FA0005000F800041423846FDF72FFB32
:10799000002804D03846FDF708FB0BB0F0BD78682E
:1079A0000590284610300A990290FCF73DFB0490A0
:1079B00005984178027808021043FDF7FAF9039020
:1079C0000598C178827808021043FDF7F2F9002487
:1079D0000690442805D00020009001906448046877
:1079E0006AE0039843286FD10A98006A00286BD098
:1079F0004668002E68D0301D0BD0706800900028BB
:107A000007D028460C30F8F7D4FB01460098814295
:107A10005AD1344661E000200790618A069881427D
:107A200041D10498002804D1002C18D020680028E7
:107A300015D00298F8F7BDFB0146206881420ED0B0
:107A40000F200E460007FDF7B2F906400720400759
:107A5000FDF7ADF9864202D00498002821D001201C
:107A600007900198002803D1207C400700D401949E
:107A7000A18A0398814216D1201D08D06668002E85
:107A800005D028460C30F8F794FBB0420BD1009893
:107A9000002814D0E168C16035480168E1600460E5
:107AA0000DE0009407E007980094002803D03149C6
:107AB0000698884203D0E468002CACD101E0002C89
:107AC0000BD1019C002C08D10298F8F772FB0146FB
:107AD0000A984068814200D05CE70598C1798279B4
:107AE000080210430AD038890090294611230C312E
:107AF0003846029AFCF75CFA0028EDD10721C94309
:107B00003846FDF774FA0028E6D1002C0BD0A669A0
:107B1000002EE1D0039800902B460C333A462146C4
:107B2000E069B04739E704980028D5D10298F8F702
:107B300040FB04460F200007FDF739F904400720F9
:107B40004007FDF734F98442C6D0687829780002EE
:107B50000843FDF72EF90005000F81003846083173
:107B6000FDF745FA03213846FCF7C8F812E7000094
:107B7000280100206C07000010B50120FDF764F813
:107B8000040004D02021F8F7DEFA8020E0722046BD
:107B900010BDC2618161704710B50B490A6882420D
:107BA0000AD1D2680A6009E0D168002903D0814275
:107BB00001D1C168D1600A46002AF5D101460120F1
:107BC000FDF710F810BD00002801002010B5838AD1
:107BD000021D00F001F810BDF8B507461D460E461F
:107BE00014461046FCF7B0FC002807D000902B4646
:107BF00022463146384600F004F8F8BD0320C04361
:107C0000F8BDFFB5428A85B00F460546002A04D16B
:107C10000146FFF70DFE002812D108213846FDF776
:107C2000E6F900280ED0002208210120FDF7C4F853
:107C3000040003D03946FDF75DF904E00020C0439D
:107C400009B0F0BD3C46688A6668FCF755F83070AC
:107C5000000A70700898FCF74FF8B070000AF070D6
:107C60000020B071F071002D0ED0286800280BD0D4
:107C70000E99496888420BD0BC4202D02046FDF7DD
:107C800094F90820C043DBE70E98001D039000E044
:107C900003952089FCF730F83071000A7071287C58
:107CA000C00710D12089009011232046079A03991C
:107CB000FCF77EF9010AB071F171002803D1401E72
:107CC000B071000AF071A87A11216B460E9A07C3B1
:107CD000EB7A2046079A0399FCF7B0FB0546BC42B5
:107CE00002D02046FDF761F92846A9E7FFB581B02B
:107CF000044615460298F8F75CFA09266168F643CF
:107D0000884203D10120FAF76BF919E002990029A2
:107D100016D0002814D021460298FCF785F90028D7
:107D20000ED10298F8F745FA07460F200007FDF735
:107D30003EF8074007204007FDF739F8874202D197
:107D4000304605B0F0BD04990298FBF743FF0100EF
:107D5000F7D40B01084902204A6899188872062056
:107D60009A18CC60401EC0B214182B5C23710028F6
:107D7000F8D1C872E5E700002C010020C0A86FC848
:107D8000C0A86FBFFFFFFF00323230204D69637221
:107D90006F736F6674204654502053657276696322
:107DA000650D0A0000000000000000000000000057
:107DB00000000000000000000000000000000000C3
:107DC00000000000323236205472616E73666572B4
:107DD00020636F6D706C6574650D0A000000000013
:107DE0000000000000000000000000000000000093
:107DF0000000000000000000000000000000000083
:107E00003333312061636365737320616C6C6F770A
:107E100065642073656E64206964656E7469747945
:107E20002061732070617373776F72642E0D0A0086
:107E3000000000000000000000000000323330208D
:107E40007573736572206C6F6767656420696E2E49
:107E50000D0A00000000000000000000000000000B
:107E60000000000000000000000000000000000012
:107E7000000000000000000035333020757373658A
:107E8000722063616E6E6F74206C6F6720696E2E56
:107E90000D0A0000000000000000000000000000CB
:107EA00000000000000000000000000000000000D2
:107EB0000000000032303020504F525420636F6D6C
:107EC0006D616E64207375636365737366756C2E84
:107ED0000D0A00000000000000000000000000008B
:107EE0000000000000000000000000000000000092
:107EF000313235204461746120636F6E6E65637446
:107F0000696F6E20616C7265616479206F70656E57
:107F10003B5472616E73666572207374617274692A
:107F20006E670D0A000000000000000031353020AF
:107F30004F70656E696E67204153434949206D6FEC
:107F40006465206461746120636F6E6E656374693B
:107F50006F6E20666F7200000000000000000000DD
:107F60000000000000000000353530205468652016
:107F700063683537392063616E6E6F742066696E91
:107F800064207468652066696C6520737065636938
:107F90006669656400000000000000000000000049
:107FA0000000000032323120476F6F646279650D46
:107FB0000A000000000000000000000000000000B7
:107FC00000000000000000000000000000000000B1
:107FD00000000000000000000000000000000000A1
:107FE00032303020547970652073657420746F00CE
:107FF0000000000000000000000000000000000081
:1080000000000000000000003231352057696E6426
:108010006F77735F4E540D0A0000000000000000EF
:108020000000000000000000000000000000000050
:1080300032353720222F22206973206375727265D2
:108040006E74206469726563746F72792E0D0A0014
:10805000000000000000000032353020636F6D6DBD
:10806000616E64207375636365737366756C2E0D42
:108070000A000000000000000000000000000000F6
:1080800032323720456E746572696E6720506173B5
:1080900073697665204D6F6465280000000000005C
:1080A000000000000000000032313320000000001A
:1080B00000000000000000000000000000000000C0
:1080C00000000000000000000000000000000000B0
:1080D0003235302044454C4520636F6D6D616E64D0
:1080E00020737563636573730D0A00000000000060
:1080F000000000000000000035353020416363655A
:1081000073732069732064656E6965642E0D0A00BF
:10811000000000000000000000000000000000005F
:10812000323030206E6F6F7020636F6D6D616E64E2
:1081300020737563636573732E0D0A0000000000E1
:10814000000000000000000035303020636F6D6DCE
:10815000616E64206E6F7420756E64657273746FE7
:108160006F640D0A00000000000000000000000025
:108170003335302046696C65206578697374732CDB
:10818000726561647920666F722064657374696ECC
:108190006174696F6E206E616D650D0A00000000EC
:1081A000000032353020524E544F20636F6D6D61A8
:1081B0006E64207375636365737366756C0D0A0076
:1081C00000000000000000000000000000000000AF
:1081D00000000000001112131415161718191A1BAD
:1081E0001C1D1E1F03060C183060780101010101DF
:1081F0000101010101010101010101010101010070
:10820000000000FFFFFFFFFFFFFFFFFFFF00000078
:108210000000000030342D31382D31332031303A18
:108220003130504D20202020202020202000000030
:1082300030342D31302D31332031313A3030504D02
:1082400020203C4449523E202020202020200000B5
:108250007777772E7763682E636E20323031332D37
:1082600030342D32310000006368353739204654F0
:1082700050207365727665722064656D6F00000032
:10828000303132333435363738396162636465668C
:108290006768696A6B6C6D6E6F70717273747576F6
:1082A0007778797A0000000046494E5F574149547B
:1082B0005F31000046494E5F574149545F3200002C
:1082C00045535441424C495348454400434C4F5355
:1082D0004544000053594E5F52435644000000008D
:1082E000434C4F53494E47004C4153545F41434B1D
:1082F000000000004C495354454E000054494D4580
:108300005F57414954000000434C4F53455F57416C
:108310004954000053594E5F53454E54000000002D
:10832000508300000000002068000000502A000078
:10833000B883000068000020600100000E07000004
:108340002C840000C8010020D8460000602A0000EC
:1083500018490024887A572205071648A823403078
:10836000002D05DB027003708D7A082635438D726F
:108370000270037005250D810E4F20373D880326BE
:108380007602B5433D808D7A102635438D720021EB
:1083900001700125BE79F60701D00024FAE77D2699
:1083A0003601641CB442F5D9027003708571017006
:1083B000F0E700000010004012044902120A1A05FA
:1083C000021206121C12201AAC041A1404121023F2
:1083D0006002100884C2E4020304109280238082A9
:1083E0001A68041A50041A14041A3004012F041ACB
:1083F000106E191ACC502AF45C22831AD4081AC0C1
:10840000041AA8041AB4041A08141AE0081AE80492
:108410009AFC781BCC36B10143CBC0244822781B90
:0C8420002068040B2EA4106043CDAB00BC
:040000050000009166
:00000001FF
